{
	"Loop.sol": {
		"Loops": {
			"abi": [
				{
					"inputs": [
						{
							"internalType": "uint256",
							"name": "",
							"type": "uint256"
						}
					],
					"name": "arr",
					"outputs": [
						{
							"internalType": "uint256",
							"name": "",
							"type": "uint256"
						}
					],
					"stateMutability": "view",
					"type": "function"
				},
				{
					"inputs": [],
					"name": "count",
					"outputs": [
						{
							"internalType": "uint256",
							"name": "",
							"type": "uint256"
						}
					],
					"stateMutability": "view",
					"type": "function"
				},
				{
					"inputs": [],
					"name": "dowhileLoop",
					"outputs": [],
					"stateMutability": "nonpayable",
					"type": "function"
				},
				{
					"inputs": [],
					"name": "forLoop",
					"outputs": [],
					"stateMutability": "nonpayable",
					"type": "function"
				},
				{
					"inputs": [],
					"name": "whileLoop",
					"outputs": [],
					"stateMutability": "nonpayable",
					"type": "function"
				}
			],
			"devdoc": {
				"kind": "dev",
				"methods": {},
				"version": 1
			},
			"evm": {
				"assembly": "    /* \"Loop.sol\":63:611  contract Loops... */\n  mstore(0x40, 0x80)\n  callvalue\n  dup1\n  iszero\n  tag_1\n  jumpi\n  0x00\n  dup1\n  revert\ntag_1:\n  pop\n  dataSize(sub_0)\n  dup1\n  dataOffset(sub_0)\n  0x00\n  codecopy\n  0x00\n  return\nstop\n\nsub_0: assembly {\n        /* \"Loop.sol\":63:611  contract Loops... */\n      mstore(0x40, 0x80)\n      callvalue\n      dup1\n      iszero\n      tag_1\n      jumpi\n      0x00\n      dup1\n      revert\n    tag_1:\n      pop\n      jumpi(tag_2, lt(calldatasize, 0x04))\n      shr(0xe0, calldataload(0x00))\n      dup1\n      0x06661abd\n      eq\n      tag_3\n      jumpi\n      dup1\n      0x28eb7ef3\n      eq\n      tag_4\n      jumpi\n      dup1\n      0x71e5ee5f\n      eq\n      tag_5\n      jumpi\n      dup1\n      0xe7c898ef\n      eq\n      tag_6\n      jumpi\n      dup1\n      0xfc0e6008\n      eq\n      tag_7\n      jumpi\n    tag_2:\n      0x00\n      dup1\n      revert\n        /* \"Loop.sol\":111:128  uint public count */\n    tag_3:\n      tag_8\n      tag_9\n      jump\t// in\n    tag_8:\n      mload(0x40)\n      tag_10\n      swap2\n      swap1\n      tag_11\n      jump\t// in\n    tag_10:\n      mload(0x40)\n      dup1\n      swap2\n      sub\n      swap1\n      return\n        /* \"Loop.sol\":442:608  function dowhileLoop() public... */\n    tag_4:\n      tag_12\n      tag_13\n      jump\t// in\n    tag_12:\n      stop\n        /* \"Loop.sol\":86:104  uint[3] public arr */\n    tag_5:\n      tag_14\n      0x04\n      dup1\n      calldatasize\n      sub\n      dup2\n      add\n      swap1\n      tag_15\n      swap2\n      swap1\n      tag_16\n      jump\t// in\n    tag_15:\n      tag_17\n      jump\t// in\n    tag_14:\n      mload(0x40)\n      tag_18\n      swap2\n      swap1\n      tag_11\n      jump\t// in\n    tag_18:\n      mload(0x40)\n      dup1\n      swap2\n      sub\n      swap1\n      return\n        /* \"Loop.sol\":137:288  function whileLoop() public... */\n    tag_6:\n      tag_19\n      tag_20\n      jump\t// in\n    tag_19:\n      stop\n        /* \"Loop.sol\":294:436  function forLoop() public... */\n    tag_7:\n      tag_21\n      tag_22\n      jump\t// in\n    tag_21:\n      stop\n        /* \"Loop.sol\":111:128  uint public count */\n    tag_9:\n      sload(0x03)\n      dup2\n      jump\t// out\n        /* \"Loop.sol\":442:608  function dowhileLoop() public... */\n    tag_13:\n        /* \"Loop.sol\":488:601  do... */\n    tag_24:\n        /* \"Loop.sol\":532:533  2 */\n      0x02\n        /* \"Loop.sol\":526:531  count */\n      sload(0x03)\n        /* \"Loop.sol\":526:533  count*2 */\n      tag_27\n      swap2\n      swap1\n      tag_28\n      jump\t// in\n    tag_27:\n        /* \"Loop.sol\":515:518  arr */\n      0x00\n        /* \"Loop.sol\":519:524  count */\n      sload(0x03)\n        /* \"Loop.sol\":515:525  arr[count] */\n      0x03\n      dup2\n      lt\n      tag_29\n      jumpi\n      tag_30\n      tag_31\n      jump\t// in\n    tag_30:\n    tag_29:\n      add\n        /* \"Loop.sol\":515:533  arr[count]=count*2 */\n      dup2\n      swap1\n      sstore\n      pop\n        /* \"Loop.sol\":548:553  count */\n      0x03\n      0x00\n        /* \"Loop.sol\":548:555  count++ */\n      dup2\n      sload\n      dup1\n      swap3\n      swap2\n      swap1\n      tag_33\n      swap1\n      tag_34\n      jump\t// in\n    tag_33:\n      swap2\n      swap1\n      pop\n      sstore\n      pop\n        /* \"Loop.sol\":589:599  arr.length */\n      0x03\n        /* \"Loop.sol\":583:588  count */\n      dup1\n      sload\n        /* \"Loop.sol\":583:599  count<arr.length */\n      lt\n        /* \"Loop.sol\":488:601  do... */\n      tag_24\n      jumpi\n        /* \"Loop.sol\":442:608  function dowhileLoop() public... */\n      jump\t// out\n        /* \"Loop.sol\":86:104  uint[3] public arr */\n    tag_17:\n      0x00\n      dup2\n      0x03\n      dup2\n      lt\n      tag_35\n      jumpi\n      0x00\n      dup1\n      revert\n    tag_35:\n      add\n      0x00\n      swap2\n      pop\n      swap1\n      pop\n      sload\n      dup2\n      jump\t// out\n        /* \"Loop.sol\":137:288  function whileLoop() public... */\n    tag_20:\n        /* \"Loop.sol\":181:281  while(count<arr.length)... */\n    tag_38:\n        /* \"Loop.sol\":193:203  arr.length */\n      0x03\n        /* \"Loop.sol\":187:192  count */\n      dup1\n      sload\n        /* \"Loop.sol\":187:203  count<arr.length */\n      lt\n        /* \"Loop.sol\":181:281  while(count<arr.length)... */\n      iszero\n      tag_39\n      jumpi\n        /* \"Loop.sol\":246:247  1 */\n      0x01\n        /* \"Loop.sol\":240:245  count */\n      sload(0x03)\n        /* \"Loop.sol\":240:247  count+1 */\n      tag_40\n      swap2\n      swap1\n      tag_41\n      jump\t// in\n    tag_40:\n        /* \"Loop.sol\":229:232  arr */\n      0x00\n        /* \"Loop.sol\":233:238  count */\n      sload(0x03)\n        /* \"Loop.sol\":229:239  arr[count] */\n      0x03\n      dup2\n      lt\n      tag_42\n      jumpi\n      tag_43\n      tag_31\n      jump\t// in\n    tag_43:\n    tag_42:\n      add\n        /* \"Loop.sol\":229:247  arr[count]=count+1 */\n      dup2\n      swap1\n      sstore\n      pop\n        /* \"Loop.sol\":262:267  count */\n      0x03\n      0x00\n        /* \"Loop.sol\":262:269  count++ */\n      dup2\n      sload\n      dup1\n      swap3\n      swap2\n      swap1\n      tag_45\n      swap1\n      tag_34\n      jump\t// in\n    tag_45:\n      swap2\n      swap1\n      pop\n      sstore\n      pop\n        /* \"Loop.sol\":181:281  while(count<arr.length)... */\n      jump(tag_38)\n    tag_39:\n        /* \"Loop.sol\":137:288  function whileLoop() public... */\n      jump\t// out\n        /* \"Loop.sol\":294:436  function forLoop() public... */\n    tag_22:\n        /* \"Loop.sol\":346:347  1 */\n      0x01\n        /* \"Loop.sol\":340:345  count */\n      0x03\n        /* \"Loop.sol\":340:347  count=1 */\n      dup2\n      swap1\n      sstore\n      pop\n        /* \"Loop.sol\":336:429  for(count=1;count<=arr.length;count++)... */\n    tag_47:\n        /* \"Loop.sol\":355:365  arr.length */\n      0x03\n        /* \"Loop.sol\":348:353  count */\n      dup1\n      sload\n        /* \"Loop.sol\":348:365  count<=arr.length */\n      gt\n        /* \"Loop.sol\":336:429  for(count=1;count<=arr.length;count++)... */\n      tag_48\n      jumpi\n        /* \"Loop.sol\":412:417  count */\n      sload(0x03)\n        /* \"Loop.sol\":399:402  arr */\n      0x00\n        /* \"Loop.sol\":409:410  1 */\n      0x01\n        /* \"Loop.sol\":403:408  count */\n      sload(0x03)\n        /* \"Loop.sol\":403:410  count-1 */\n      tag_50\n      swap2\n      swap1\n      tag_51\n      jump\t// in\n    tag_50:\n        /* \"Loop.sol\":399:411  arr[count-1] */\n      0x03\n      dup2\n      lt\n      tag_52\n      jumpi\n      tag_53\n      tag_31\n      jump\t// in\n    tag_53:\n    tag_52:\n      add\n        /* \"Loop.sol\":399:417  arr[count-1]=count */\n      dup2\n      swap1\n      sstore\n      pop\n        /* \"Loop.sol\":366:371  count */\n      0x03\n      0x00\n        /* \"Loop.sol\":366:373  count++ */\n      dup2\n      sload\n      dup1\n      swap3\n      swap2\n      swap1\n      tag_55\n      swap1\n      tag_34\n      jump\t// in\n    tag_55:\n      swap2\n      swap1\n      pop\n      sstore\n      pop\n        /* \"Loop.sol\":336:429  for(count=1;count<=arr.length;count++)... */\n      jump(tag_47)\n    tag_48:\n        /* \"Loop.sol\":294:436  function forLoop() public... */\n      jump\t// out\n        /* \"#utility.yul\":7:84   */\n    tag_56:\n        /* \"#utility.yul\":44:51   */\n      0x00\n        /* \"#utility.yul\":73:78   */\n      dup2\n        /* \"#utility.yul\":62:78   */\n      swap1\n      pop\n        /* \"#utility.yul\":7:84   */\n      swap2\n      swap1\n      pop\n      jump\t// out\n        /* \"#utility.yul\":90:208   */\n    tag_57:\n        /* \"#utility.yul\":177:201   */\n      tag_67\n        /* \"#utility.yul\":195:200   */\n      dup2\n        /* \"#utility.yul\":177:201   */\n      tag_56\n      jump\t// in\n    tag_67:\n        /* \"#utility.yul\":172:175   */\n      dup3\n        /* \"#utility.yul\":165:202   */\n      mstore\n        /* \"#utility.yul\":90:208   */\n      pop\n      pop\n      jump\t// out\n        /* \"#utility.yul\":214:436   */\n    tag_11:\n        /* \"#utility.yul\":307:311   */\n      0x00\n        /* \"#utility.yul\":345:347   */\n      0x20\n        /* \"#utility.yul\":334:343   */\n      dup3\n        /* \"#utility.yul\":330:348   */\n      add\n        /* \"#utility.yul\":322:348   */\n      swap1\n      pop\n        /* \"#utility.yul\":358:429   */\n      tag_69\n        /* \"#utility.yul\":426:427   */\n      0x00\n        /* \"#utility.yul\":415:424   */\n      dup4\n        /* \"#utility.yul\":411:428   */\n      add\n        /* \"#utility.yul\":402:408   */\n      dup5\n        /* \"#utility.yul\":358:429   */\n      tag_57\n      jump\t// in\n    tag_69:\n        /* \"#utility.yul\":214:436   */\n      swap3\n      swap2\n      pop\n      pop\n      jump\t// out\n        /* \"#utility.yul\":523:640   */\n    tag_59:\n        /* \"#utility.yul\":632:633   */\n      0x00\n        /* \"#utility.yul\":629:630   */\n      dup1\n        /* \"#utility.yul\":622:634   */\n      revert\n        /* \"#utility.yul\":769:891   */\n    tag_61:\n        /* \"#utility.yul\":842:866   */\n      tag_74\n        /* \"#utility.yul\":860:865   */\n      dup2\n        /* \"#utility.yul\":842:866   */\n      tag_56\n      jump\t// in\n    tag_74:\n        /* \"#utility.yul\":835:840   */\n      dup2\n        /* \"#utility.yul\":832:867   */\n      eq\n        /* \"#utility.yul\":822:885   */\n      tag_75\n      jumpi\n        /* \"#utility.yul\":881:882   */\n      0x00\n        /* \"#utility.yul\":878:879   */\n      dup1\n        /* \"#utility.yul\":871:883   */\n      revert\n        /* \"#utility.yul\":822:885   */\n    tag_75:\n        /* \"#utility.yul\":769:891   */\n      pop\n      jump\t// out\n        /* \"#utility.yul\":897:1036   */\n    tag_62:\n        /* \"#utility.yul\":943:948   */\n      0x00\n        /* \"#utility.yul\":981:987   */\n      dup2\n        /* \"#utility.yul\":968:988   */\n      calldataload\n        /* \"#utility.yul\":959:988   */\n      swap1\n      pop\n        /* \"#utility.yul\":997:1030   */\n      tag_77\n        /* \"#utility.yul\":1024:1029   */\n      dup2\n        /* \"#utility.yul\":997:1030   */\n      tag_61\n      jump\t// in\n    tag_77:\n        /* \"#utility.yul\":897:1036   */\n      swap3\n      swap2\n      pop\n      pop\n      jump\t// out\n        /* \"#utility.yul\":1042:1371   */\n    tag_16:\n        /* \"#utility.yul\":1101:1107   */\n      0x00\n        /* \"#utility.yul\":1150:1152   */\n      0x20\n        /* \"#utility.yul\":1138:1147   */\n      dup3\n        /* \"#utility.yul\":1129:1136   */\n      dup5\n        /* \"#utility.yul\":1125:1148   */\n      sub\n        /* \"#utility.yul\":1121:1153   */\n      slt\n        /* \"#utility.yul\":1118:1237   */\n      iszero\n      tag_79\n      jumpi\n        /* \"#utility.yul\":1156:1235   */\n      tag_80\n      tag_59\n      jump\t// in\n    tag_80:\n        /* \"#utility.yul\":1118:1237   */\n    tag_79:\n        /* \"#utility.yul\":1276:1277   */\n      0x00\n        /* \"#utility.yul\":1301:1354   */\n      tag_81\n        /* \"#utility.yul\":1346:1353   */\n      dup5\n        /* \"#utility.yul\":1337:1343   */\n      dup3\n        /* \"#utility.yul\":1326:1335   */\n      dup6\n        /* \"#utility.yul\":1322:1344   */\n      add\n        /* \"#utility.yul\":1301:1354   */\n      tag_62\n      jump\t// in\n    tag_81:\n        /* \"#utility.yul\":1291:1354   */\n      swap2\n      pop\n        /* \"#utility.yul\":1247:1364   */\n      pop\n        /* \"#utility.yul\":1042:1371   */\n      swap3\n      swap2\n      pop\n      pop\n      jump\t// out\n        /* \"#utility.yul\":1377:1557   */\n    tag_63:\n        /* \"#utility.yul\":1425:1502   */\n      0x4e487b7100000000000000000000000000000000000000000000000000000000\n        /* \"#utility.yul\":1422:1423   */\n      0x00\n        /* \"#utility.yul\":1415:1503   */\n      mstore\n        /* \"#utility.yul\":1522:1526   */\n      0x11\n        /* \"#utility.yul\":1519:1520   */\n      0x04\n        /* \"#utility.yul\":1512:1527   */\n      mstore\n        /* \"#utility.yul\":1546:1550   */\n      0x24\n        /* \"#utility.yul\":1543:1544   */\n      0x00\n        /* \"#utility.yul\":1536:1551   */\n      revert\n        /* \"#utility.yul\":1563:1973   */\n    tag_28:\n        /* \"#utility.yul\":1603:1610   */\n      0x00\n        /* \"#utility.yul\":1626:1646   */\n      tag_84\n        /* \"#utility.yul\":1644:1645   */\n      dup3\n        /* \"#utility.yul\":1626:1646   */\n      tag_56\n      jump\t// in\n    tag_84:\n        /* \"#utility.yul\":1621:1646   */\n      swap2\n      pop\n        /* \"#utility.yul\":1660:1680   */\n      tag_85\n        /* \"#utility.yul\":1678:1679   */\n      dup4\n        /* \"#utility.yul\":1660:1680   */\n      tag_56\n      jump\t// in\n    tag_85:\n        /* \"#utility.yul\":1655:1680   */\n      swap3\n      pop\n        /* \"#utility.yul\":1715:1716   */\n      dup3\n        /* \"#utility.yul\":1712:1713   */\n      dup3\n        /* \"#utility.yul\":1708:1717   */\n      mul\n        /* \"#utility.yul\":1737:1767   */\n      tag_86\n        /* \"#utility.yul\":1755:1766   */\n      dup2\n        /* \"#utility.yul\":1737:1767   */\n      tag_56\n      jump\t// in\n    tag_86:\n        /* \"#utility.yul\":1726:1767   */\n      swap2\n      pop\n        /* \"#utility.yul\":1916:1917   */\n      dup3\n        /* \"#utility.yul\":1907:1914   */\n      dup3\n        /* \"#utility.yul\":1903:1918   */\n      div\n        /* \"#utility.yul\":1900:1901   */\n      dup5\n        /* \"#utility.yul\":1897:1919   */\n      eq\n        /* \"#utility.yul\":1877:1878   */\n      dup4\n        /* \"#utility.yul\":1870:1879   */\n      iszero\n        /* \"#utility.yul\":1850:1933   */\n      or\n        /* \"#utility.yul\":1827:1966   */\n      tag_87\n      jumpi\n        /* \"#utility.yul\":1946:1964   */\n      tag_88\n      tag_63\n      jump\t// in\n    tag_88:\n        /* \"#utility.yul\":1827:1966   */\n    tag_87:\n        /* \"#utility.yul\":1611:1973   */\n      pop\n        /* \"#utility.yul\":1563:1973   */\n      swap3\n      swap2\n      pop\n      pop\n      jump\t// out\n        /* \"#utility.yul\":1979:2159   */\n    tag_31:\n        /* \"#utility.yul\":2027:2104   */\n      0x4e487b7100000000000000000000000000000000000000000000000000000000\n        /* \"#utility.yul\":2024:2025   */\n      0x00\n        /* \"#utility.yul\":2017:2105   */\n      mstore\n        /* \"#utility.yul\":2124:2128   */\n      0x32\n        /* \"#utility.yul\":2121:2122   */\n      0x04\n        /* \"#utility.yul\":2114:2129   */\n      mstore\n        /* \"#utility.yul\":2148:2152   */\n      0x24\n        /* \"#utility.yul\":2145:2146   */\n      0x00\n        /* \"#utility.yul\":2138:2153   */\n      revert\n        /* \"#utility.yul\":2165:2398   */\n    tag_34:\n        /* \"#utility.yul\":2204:2207   */\n      0x00\n        /* \"#utility.yul\":2227:2251   */\n      tag_91\n        /* \"#utility.yul\":2245:2250   */\n      dup3\n        /* \"#utility.yul\":2227:2251   */\n      tag_56\n      jump\t// in\n    tag_91:\n        /* \"#utility.yul\":2218:2251   */\n      swap2\n      pop\n        /* \"#utility.yul\":2273:2339   */\n      0xffffffffffffffffffffffffffffffffffffffffffffffffffffffffffffffff\n        /* \"#utility.yul\":2266:2271   */\n      dup3\n        /* \"#utility.yul\":2263:2340   */\n      sub\n        /* \"#utility.yul\":2260:2363   */\n      tag_92\n      jumpi\n        /* \"#utility.yul\":2343:2361   */\n      tag_93\n      tag_63\n      jump\t// in\n    tag_93:\n        /* \"#utility.yul\":2260:2363   */\n    tag_92:\n        /* \"#utility.yul\":2390:2391   */\n      0x01\n        /* \"#utility.yul\":2383:2388   */\n      dup3\n        /* \"#utility.yul\":2379:2392   */\n      add\n        /* \"#utility.yul\":2372:2392   */\n      swap1\n      pop\n        /* \"#utility.yul\":2165:2398   */\n      swap2\n      swap1\n      pop\n      jump\t// out\n        /* \"#utility.yul\":2404:2595   */\n    tag_41:\n        /* \"#utility.yul\":2444:2447   */\n      0x00\n        /* \"#utility.yul\":2463:2483   */\n      tag_95\n        /* \"#utility.yul\":2481:2482   */\n      dup3\n        /* \"#utility.yul\":2463:2483   */\n      tag_56\n      jump\t// in\n    tag_95:\n        /* \"#utility.yul\":2458:2483   */\n      swap2\n      pop\n        /* \"#utility.yul\":2497:2517   */\n      tag_96\n        /* \"#utility.yul\":2515:2516   */\n      dup4\n        /* \"#utility.yul\":2497:2517   */\n      tag_56\n      jump\t// in\n    tag_96:\n        /* \"#utility.yul\":2492:2517   */\n      swap3\n      pop\n        /* \"#utility.yul\":2540:2541   */\n      dup3\n        /* \"#utility.yul\":2537:2538   */\n      dup3\n        /* \"#utility.yul\":2533:2542   */\n      add\n        /* \"#utility.yul\":2526:2542   */\n      swap1\n      pop\n        /* \"#utility.yul\":2561:2564   */\n      dup1\n        /* \"#utility.yul\":2558:2559   */\n      dup3\n        /* \"#utility.yul\":2555:2565   */\n      gt\n        /* \"#utility.yul\":2552:2588   */\n      iszero\n      tag_97\n      jumpi\n        /* \"#utility.yul\":2568:2586   */\n      tag_98\n      tag_63\n      jump\t// in\n    tag_98:\n        /* \"#utility.yul\":2552:2588   */\n    tag_97:\n        /* \"#utility.yul\":2404:2595   */\n      swap3\n      swap2\n      pop\n      pop\n      jump\t// out\n        /* \"#utility.yul\":2601:2795   */\n    tag_51:\n        /* \"#utility.yul\":2641:2645   */\n      0x00\n        /* \"#utility.yul\":2661:2681   */\n      tag_100\n        /* \"#utility.yul\":2679:2680   */\n      dup3\n        /* \"#utility.yul\":2661:2681   */\n      tag_56\n      jump\t// in\n    tag_100:\n        /* \"#utility.yul\":2656:2681   */\n      swap2\n      pop\n        /* \"#utility.yul\":2695:2715   */\n      tag_101\n        /* \"#utility.yul\":2713:2714   */\n      dup4\n        /* \"#utility.yul\":2695:2715   */\n      tag_56\n      jump\t// in\n    tag_101:\n        /* \"#utility.yul\":2690:2715   */\n      swap3\n      pop\n        /* \"#utility.yul\":2739:2740   */\n      dup3\n        /* \"#utility.yul\":2736:2737   */\n      dup3\n        /* \"#utility.yul\":2732:2741   */\n      sub\n        /* \"#utility.yul\":2724:2741   */\n      swap1\n      pop\n        /* \"#utility.yul\":2763:2764   */\n      dup2\n        /* \"#utility.yul\":2757:2761   */\n      dup2\n        /* \"#utility.yul\":2754:2765   */\n      gt\n        /* \"#utility.yul\":2751:2788   */\n      iszero\n      tag_102\n      jumpi\n        /* \"#utility.yul\":2768:2786   */\n      tag_103\n      tag_63\n      jump\t// in\n    tag_103:\n        /* \"#utility.yul\":2751:2788   */\n    tag_102:\n        /* \"#utility.yul\":2601:2795   */\n      swap3\n      swap2\n      pop\n      pop\n      jump\t// out\n\n    auxdata: 0xa2646970667358221220f35a28a0f3c528d7f811a0a1666d47df21153a660d7efd85b4a9035bd774f2fa64736f6c63430008110033\n}\n",
				"bytecode": {
					"linkReferences": {},
					"object": "608060405234801561001057600080fd5b506103fe806100206000396000f3fe608060405234801561001057600080fd5b50600436106100575760003560e01c806306661abd1461005c57806328eb7ef31461007a57806371e5ee5f14610084578063e7c898ef146100b4578063fc0e6008146100be575b600080fd5b6100646100c8565b60405161007191906101ff565b60405180910390f35b6100826100ce565b005b61009e6004803603810190610099919061024b565b61011c565b6040516100ab91906101ff565b60405180910390f35b6100bc610137565b005b6100c661018b565b005b60035481565b5b60026003546100de91906102a7565b6000600354600381106100f4576100f36102e9565b5b01819055506003600081548092919061010c90610318565b919050555060038054106100cf57565b6000816003811061012c57600080fd5b016000915090505481565b5b6003805410156101895760016003546101519190610360565b600060035460038110610167576101666102e9565b5b01819055506003600081548092919061017f90610318565b9190505550610138565b565b60016003819055505b60038054116101e457600354600060016003546101b19190610394565b600381106101c2576101c16102e9565b5b0181905550600360008154809291906101da90610318565b9190505550610194565b565b6000819050919050565b6101f9816101e6565b82525050565b600060208201905061021460008301846101f0565b92915050565b600080fd5b610228816101e6565b811461023357600080fd5b50565b6000813590506102458161021f565b92915050565b6000602082840312156102615761026061021a565b5b600061026f84828501610236565b91505092915050565b7f4e487b7100000000000000000000000000000000000000000000000000000000600052601160045260246000fd5b60006102b2826101e6565b91506102bd836101e6565b92508282026102cb816101e6565b915082820484148315176102e2576102e1610278565b5b5092915050565b7f4e487b7100000000000000000000000000000000000000000000000000000000600052603260045260246000fd5b6000610323826101e6565b91507fffffffffffffffffffffffffffffffffffffffffffffffffffffffffffffffff820361035557610354610278565b5b600182019050919050565b600061036b826101e6565b9150610376836101e6565b925082820190508082111561038e5761038d610278565b5b92915050565b600061039f826101e6565b91506103aa836101e6565b92508282039050818111156103c2576103c1610278565b5b9291505056fea2646970667358221220f35a28a0f3c528d7f811a0a1666d47df21153a660d7efd85b4a9035bd774f2fa64736f6c63430008110033",
					"opcodes": "PUSH1 0x80 PUSH1 0x40 MSTORE CALLVALUE DUP1 ISZERO PUSH2 0x10 JUMPI PUSH1 0x0 DUP1 REVERT JUMPDEST POP PUSH2 0x3FE DUP1 PUSH2 0x20 PUSH1 0x0 CODECOPY PUSH1 0x0 RETURN INVALID PUSH1 0x80 PUSH1 0x40 MSTORE CALLVALUE DUP1 ISZERO PUSH2 0x10 JUMPI PUSH1 0x0 DUP1 REVERT JUMPDEST POP PUSH1 0x4 CALLDATASIZE LT PUSH2 0x57 JUMPI PUSH1 0x0 CALLDATALOAD PUSH1 0xE0 SHR DUP1 PUSH4 0x6661ABD EQ PUSH2 0x5C JUMPI DUP1 PUSH4 0x28EB7EF3 EQ PUSH2 0x7A JUMPI DUP1 PUSH4 0x71E5EE5F EQ PUSH2 0x84 JUMPI DUP1 PUSH4 0xE7C898EF EQ PUSH2 0xB4 JUMPI DUP1 PUSH4 0xFC0E6008 EQ PUSH2 0xBE JUMPI JUMPDEST PUSH1 0x0 DUP1 REVERT JUMPDEST PUSH2 0x64 PUSH2 0xC8 JUMP JUMPDEST PUSH1 0x40 MLOAD PUSH2 0x71 SWAP2 SWAP1 PUSH2 0x1FF JUMP JUMPDEST PUSH1 0x40 MLOAD DUP1 SWAP2 SUB SWAP1 RETURN JUMPDEST PUSH2 0x82 PUSH2 0xCE JUMP JUMPDEST STOP JUMPDEST PUSH2 0x9E PUSH1 0x4 DUP1 CALLDATASIZE SUB DUP2 ADD SWAP1 PUSH2 0x99 SWAP2 SWAP1 PUSH2 0x24B JUMP JUMPDEST PUSH2 0x11C JUMP JUMPDEST PUSH1 0x40 MLOAD PUSH2 0xAB SWAP2 SWAP1 PUSH2 0x1FF JUMP JUMPDEST PUSH1 0x40 MLOAD DUP1 SWAP2 SUB SWAP1 RETURN JUMPDEST PUSH2 0xBC PUSH2 0x137 JUMP JUMPDEST STOP JUMPDEST PUSH2 0xC6 PUSH2 0x18B JUMP JUMPDEST STOP JUMPDEST PUSH1 0x3 SLOAD DUP2 JUMP JUMPDEST JUMPDEST PUSH1 0x2 PUSH1 0x3 SLOAD PUSH2 0xDE SWAP2 SWAP1 PUSH2 0x2A7 JUMP JUMPDEST PUSH1 0x0 PUSH1 0x3 SLOAD PUSH1 0x3 DUP2 LT PUSH2 0xF4 JUMPI PUSH2 0xF3 PUSH2 0x2E9 JUMP JUMPDEST JUMPDEST ADD DUP2 SWAP1 SSTORE POP PUSH1 0x3 PUSH1 0x0 DUP2 SLOAD DUP1 SWAP3 SWAP2 SWAP1 PUSH2 0x10C SWAP1 PUSH2 0x318 JUMP JUMPDEST SWAP2 SWAP1 POP SSTORE POP PUSH1 0x3 DUP1 SLOAD LT PUSH2 0xCF JUMPI JUMP JUMPDEST PUSH1 0x0 DUP2 PUSH1 0x3 DUP2 LT PUSH2 0x12C JUMPI PUSH1 0x0 DUP1 REVERT JUMPDEST ADD PUSH1 0x0 SWAP2 POP SWAP1 POP SLOAD DUP2 JUMP JUMPDEST JUMPDEST PUSH1 0x3 DUP1 SLOAD LT ISZERO PUSH2 0x189 JUMPI PUSH1 0x1 PUSH1 0x3 SLOAD PUSH2 0x151 SWAP2 SWAP1 PUSH2 0x360 JUMP JUMPDEST PUSH1 0x0 PUSH1 0x3 SLOAD PUSH1 0x3 DUP2 LT PUSH2 0x167 JUMPI PUSH2 0x166 PUSH2 0x2E9 JUMP JUMPDEST JUMPDEST ADD DUP2 SWAP1 SSTORE POP PUSH1 0x3 PUSH1 0x0 DUP2 SLOAD DUP1 SWAP3 SWAP2 SWAP1 PUSH2 0x17F SWAP1 PUSH2 0x318 JUMP JUMPDEST SWAP2 SWAP1 POP SSTORE POP PUSH2 0x138 JUMP JUMPDEST JUMP JUMPDEST PUSH1 0x1 PUSH1 0x3 DUP2 SWAP1 SSTORE POP JUMPDEST PUSH1 0x3 DUP1 SLOAD GT PUSH2 0x1E4 JUMPI PUSH1 0x3 SLOAD PUSH1 0x0 PUSH1 0x1 PUSH1 0x3 SLOAD PUSH2 0x1B1 SWAP2 SWAP1 PUSH2 0x394 JUMP JUMPDEST PUSH1 0x3 DUP2 LT PUSH2 0x1C2 JUMPI PUSH2 0x1C1 PUSH2 0x2E9 JUMP JUMPDEST JUMPDEST ADD DUP2 SWAP1 SSTORE POP PUSH1 0x3 PUSH1 0x0 DUP2 SLOAD DUP1 SWAP3 SWAP2 SWAP1 PUSH2 0x1DA SWAP1 PUSH2 0x318 JUMP JUMPDEST SWAP2 SWAP1 POP SSTORE POP PUSH2 0x194 JUMP JUMPDEST JUMP JUMPDEST PUSH1 0x0 DUP2 SWAP1 POP SWAP2 SWAP1 POP JUMP JUMPDEST PUSH2 0x1F9 DUP2 PUSH2 0x1E6 JUMP JUMPDEST DUP3 MSTORE POP POP JUMP JUMPDEST PUSH1 0x0 PUSH1 0x20 DUP3 ADD SWAP1 POP PUSH2 0x214 PUSH1 0x0 DUP4 ADD DUP5 PUSH2 0x1F0 JUMP JUMPDEST SWAP3 SWAP2 POP POP JUMP JUMPDEST PUSH1 0x0 DUP1 REVERT JUMPDEST PUSH2 0x228 DUP2 PUSH2 0x1E6 JUMP JUMPDEST DUP2 EQ PUSH2 0x233 JUMPI PUSH1 0x0 DUP1 REVERT JUMPDEST POP JUMP JUMPDEST PUSH1 0x0 DUP2 CALLDATALOAD SWAP1 POP PUSH2 0x245 DUP2 PUSH2 0x21F JUMP JUMPDEST SWAP3 SWAP2 POP POP JUMP JUMPDEST PUSH1 0x0 PUSH1 0x20 DUP3 DUP5 SUB SLT ISZERO PUSH2 0x261 JUMPI PUSH2 0x260 PUSH2 0x21A JUMP JUMPDEST JUMPDEST PUSH1 0x0 PUSH2 0x26F DUP5 DUP3 DUP6 ADD PUSH2 0x236 JUMP JUMPDEST SWAP2 POP POP SWAP3 SWAP2 POP POP JUMP JUMPDEST PUSH32 0x4E487B7100000000000000000000000000000000000000000000000000000000 PUSH1 0x0 MSTORE PUSH1 0x11 PUSH1 0x4 MSTORE PUSH1 0x24 PUSH1 0x0 REVERT JUMPDEST PUSH1 0x0 PUSH2 0x2B2 DUP3 PUSH2 0x1E6 JUMP JUMPDEST SWAP2 POP PUSH2 0x2BD DUP4 PUSH2 0x1E6 JUMP JUMPDEST SWAP3 POP DUP3 DUP3 MUL PUSH2 0x2CB DUP2 PUSH2 0x1E6 JUMP JUMPDEST SWAP2 POP DUP3 DUP3 DIV DUP5 EQ DUP4 ISZERO OR PUSH2 0x2E2 JUMPI PUSH2 0x2E1 PUSH2 0x278 JUMP JUMPDEST JUMPDEST POP SWAP3 SWAP2 POP POP JUMP JUMPDEST PUSH32 0x4E487B7100000000000000000000000000000000000000000000000000000000 PUSH1 0x0 MSTORE PUSH1 0x32 PUSH1 0x4 MSTORE PUSH1 0x24 PUSH1 0x0 REVERT JUMPDEST PUSH1 0x0 PUSH2 0x323 DUP3 PUSH2 0x1E6 JUMP JUMPDEST SWAP2 POP PUSH32 0xFFFFFFFFFFFFFFFFFFFFFFFFFFFFFFFFFFFFFFFFFFFFFFFFFFFFFFFFFFFFFFFF DUP3 SUB PUSH2 0x355 JUMPI PUSH2 0x354 PUSH2 0x278 JUMP JUMPDEST JUMPDEST PUSH1 0x1 DUP3 ADD SWAP1 POP SWAP2 SWAP1 POP JUMP JUMPDEST PUSH1 0x0 PUSH2 0x36B DUP3 PUSH2 0x1E6 JUMP JUMPDEST SWAP2 POP PUSH2 0x376 DUP4 PUSH2 0x1E6 JUMP JUMPDEST SWAP3 POP DUP3 DUP3 ADD SWAP1 POP DUP1 DUP3 GT ISZERO PUSH2 0x38E JUMPI PUSH2 0x38D PUSH2 0x278 JUMP JUMPDEST JUMPDEST SWAP3 SWAP2 POP POP JUMP JUMPDEST PUSH1 0x0 PUSH2 0x39F DUP3 PUSH2 0x1E6 JUMP JUMPDEST SWAP2 POP PUSH2 0x3AA DUP4 PUSH2 0x1E6 JUMP JUMPDEST SWAP3 POP DUP3 DUP3 SUB SWAP1 POP DUP2 DUP2 GT ISZERO PUSH2 0x3C2 JUMPI PUSH2 0x3C1 PUSH2 0x278 JUMP JUMPDEST JUMPDEST SWAP3 SWAP2 POP POP JUMP INVALID LOG2 PUSH5 0x6970667358 0x22 SLT KECCAK256 RETURN GAS 0x28 LOG0 RETURN 0xC5 0x28 0xD7 0xF8 GT LOG0 LOG1 PUSH7 0x6D47DF21153A66 0xD PUSH31 0xFD85B4A9035BD774F2FA64736F6C6343000811003300000000000000000000 "
				},
				"gasEstimates": {
					"creation": {
						"codeDepositCost": "204400",
						"executionCost": "245",
						"totalCost": "204645"
					},
					"external": {
						"arr(uint256)": "infinite",
						"count()": "2407",
						"dowhileLoop()": "infinite",
						"forLoop()": "infinite",
						"whileLoop()": "infinite"
					}
				},
				"methodIdentifiers": {
					"arr(uint256)": "71e5ee5f",
					"count()": "06661abd",
					"dowhileLoop()": "28eb7ef3",
					"forLoop()": "fc0e6008",
					"whileLoop()": "e7c898ef"
				}
			},
			"storageLayout": {
				"storage": [
					{
						"astId": 5,
						"contract": "Loop.sol:Loops",
						"label": "arr",
						"offset": 0,
						"slot": "0",
						"type": "t_array(t_uint256)3_storage"
					},
					{
						"astId": 7,
						"contract": "Loop.sol:Loops",
						"label": "count",
						"offset": 0,
						"slot": "3",
						"type": "t_uint256"
					}
				],
				"types": {
					"t_array(t_uint256)3_storage": {
						"base": "t_uint256",
						"encoding": "inplace",
						"label": "uint256[3]",
						"numberOfBytes": "96"
					},
					"t_uint256": {
						"encoding": "inplace",
						"label": "uint256",
						"numberOfBytes": "32"
					}
				}
			},
			"userdoc": {
				"kind": "user",
				"methods": {},
				"version": 1
			}
		}
	}
}