{
	"Aave.sol": {
		"AaveImplementation": {
			"abi": [
				{
					"inputs": [],
					"stateMutability": "nonpayable",
					"type": "constructor"
				},
				{
					"inputs": [
						{
							"internalType": "address",
							"name": "erc20Token",
							"type": "address"
						},
						{
							"internalType": "uint256",
							"name": "amount",
							"type": "uint256"
						},
						{
							"internalType": "address",
							"name": "onBehalfOf",
							"type": "address"
						}
					],
					"name": "depositERC20",
					"outputs": [],
					"stateMutability": "nonpayable",
					"type": "function"
				},
				{
					"inputs": [
						{
							"internalType": "address",
							"name": "onBehalfOf",
							"type": "address"
						}
					],
					"name": "depositEther",
					"outputs": [],
					"stateMutability": "payable",
					"type": "function"
				},
				{
					"inputs": [
						{
							"internalType": "address",
							"name": "token",
							"type": "address"
						},
						{
							"internalType": "address",
							"name": "account",
							"type": "address"
						}
					],
					"name": "getBalance",
					"outputs": [
						{
							"internalType": "uint256",
							"name": "",
							"type": "uint256"
						}
					],
					"stateMutability": "view",
					"type": "function"
				},
				{
					"inputs": [
						{
							"internalType": "address",
							"name": "token",
							"type": "address"
						},
						{
							"internalType": "uint256",
							"name": "amount",
							"type": "uint256"
						},
						{
							"internalType": "address",
							"name": "to",
							"type": "address"
						}
					],
					"name": "withdraw",
					"outputs": [],
					"stateMutability": "nonpayable",
					"type": "function"
				}
			],
			"devdoc": {
				"kind": "dev",
				"methods": {},
				"version": 1
			},
			"evm": {
				"assembly": "    /* \"Aave.sol\":549:1846  contract AaveImplementation {\r... */\n  mstore(0x40, 0x80)\n    /* \"Aave.sol\":909:970  constructor() {\r... */\n  callvalue\n  dup1\n  iszero\n  tag_1\n  jumpi\n  0x00\n  dup1\n  revert\ntag_1:\n  pop\n    /* \"Aave.sol\":774:816  0x7Fc66500c84A76Ad7e9c93437bFc5Ac33E2DDaE9 */\n  0x7fc66500c84a76ad7e9c93437bfc5ac33e2ddae9\n    /* \"Aave.sol\":934:938  aave */\n  0x00\n  dup1\n    /* \"Aave.sol\":934:962  aave = IAaveV2(AAVE_ADDRESS) */\n  0x0100\n  exp\n  dup2\n  sload\n  dup2\n  0xffffffffffffffffffffffffffffffffffffffff\n  mul\n  not\n  and\n  swap1\n  dup4\n  0xffffffffffffffffffffffffffffffffffffffff\n  and\n  mul\n  or\n  swap1\n  sstore\n  pop\n    /* \"Aave.sol\":549:1846  contract AaveImplementation {\r... */\n  dataSize(sub_0)\n  dup1\n  dataOffset(sub_0)\n  0x00\n  codecopy\n  0x00\n  return\nstop\n\nsub_0: assembly {\n        /* \"Aave.sol\":549:1846  contract AaveImplementation {\r... */\n      mstore(0x40, 0x80)\n      jumpi(tag_1, lt(calldatasize, 0x04))\n      shr(0xe0, calldataload(0x00))\n      dup1\n      0x1828686a\n      eq\n      tag_2\n      jumpi\n      dup1\n      0x52802121\n      eq\n      tag_3\n      jumpi\n      dup1\n      0x69328dec\n      eq\n      tag_4\n      jumpi\n      dup1\n      0xd4fac45d\n      eq\n      tag_5\n      jumpi\n    tag_1:\n      0x00\n      dup1\n      revert\n        /* \"Aave.sol\":1152:1476  function depositERC20(address erc20Token, uint256 amount, address onBehalfOf) external {\r... */\n    tag_2:\n      callvalue\n      dup1\n      iszero\n      tag_6\n      jumpi\n      0x00\n      dup1\n      revert\n    tag_6:\n      pop\n      tag_7\n      0x04\n      dup1\n      calldatasize\n      sub\n      dup2\n      add\n      swap1\n      tag_8\n      swap2\n      swap1\n      tag_9\n      jump\t// in\n    tag_8:\n      tag_10\n      jump\t// in\n    tag_7:\n      stop\n        /* \"Aave.sol\":978:1144  function depositEther(address onBehalfOf) external payable {\r... */\n    tag_3:\n      tag_11\n      0x04\n      dup1\n      calldatasize\n      sub\n      dup2\n      add\n      swap1\n      tag_12\n      swap2\n      swap1\n      tag_13\n      jump\t// in\n    tag_12:\n      tag_14\n      jump\t// in\n    tag_11:\n      stop\n        /* \"Aave.sol\":1484:1643  function withdraw(address token, uint256 amount, address to) external {\r... */\n    tag_4:\n      callvalue\n      dup1\n      iszero\n      tag_15\n      jumpi\n      0x00\n      dup1\n      revert\n    tag_15:\n      pop\n      tag_16\n      0x04\n      dup1\n      calldatasize\n      sub\n      dup2\n      add\n      swap1\n      tag_17\n      swap2\n      swap1\n      tag_9\n      jump\t// in\n    tag_17:\n      tag_18\n      jump\t// in\n    tag_16:\n      stop\n        /* \"Aave.sol\":1651:1843  function getBalance(address token, address account) external view returns (uint256) {\r... */\n    tag_5:\n      callvalue\n      dup1\n      iszero\n      tag_19\n      jumpi\n      0x00\n      dup1\n      revert\n    tag_19:\n      pop\n      tag_20\n      0x04\n      dup1\n      calldatasize\n      sub\n      dup2\n      add\n      swap1\n      tag_21\n      swap2\n      swap1\n      tag_22\n      jump\t// in\n    tag_21:\n      tag_23\n      jump\t// in\n    tag_20:\n      mload(0x40)\n      tag_24\n      swap2\n      swap1\n      tag_25\n      jump\t// in\n    tag_24:\n      mload(0x40)\n      dup1\n      swap2\n      sub\n      swap1\n      return\n        /* \"Aave.sol\":1152:1476  function depositERC20(address erc20Token, uint256 amount, address onBehalfOf) external {\r... */\n    tag_10:\n        /* \"Aave.sol\":1311:1321  erc20Token */\n      dup3\n        /* \"Aave.sol\":1304:1330  IERC20(erc20Token).approve */\n      0xffffffffffffffffffffffffffffffffffffffff\n      and\n      0x095ea7b3\n        /* \"Aave.sol\":774:816  0x7Fc66500c84A76Ad7e9c93437bFc5Ac33E2DDaE9 */\n      0x7fc66500c84a76ad7e9c93437bfc5ac33e2ddae9\n        /* \"Aave.sol\":890:900  2**256 - 1 */\n      0xffffffffffffffffffffffffffffffffffffffffffffffffffffffffffffffff\n        /* \"Aave.sol\":1304:1357  IERC20(erc20Token).approve(AAVE_ADDRESS, MAX_UINT256) */\n      mload(0x40)\n      dup4\n      0xffffffff\n      and\n      0xe0\n      shl\n      dup2\n      mstore\n      0x04\n      add\n      tag_27\n      swap3\n      swap2\n      swap1\n      tag_28\n      jump\t// in\n    tag_27:\n      0x20\n      mload(0x40)\n      dup1\n      dup4\n      sub\n      dup2\n      0x00\n      dup8\n      dup1\n      extcodesize\n      iszero\n      dup1\n      iszero\n      tag_29\n      jumpi\n      0x00\n      dup1\n      revert\n    tag_29:\n      pop\n      gas\n      call\n      iszero\n      dup1\n      iszero\n      tag_31\n      jumpi\n      returndatasize\n      0x00\n      dup1\n      returndatacopy\n      revert(0x00, returndatasize)\n    tag_31:\n      pop\n      pop\n      pop\n      pop\n      mload(0x40)\n      returndatasize\n      not(0x1f)\n      0x1f\n      dup3\n      add\n      and\n      dup3\n      add\n      dup1\n      0x40\n      mstore\n      pop\n      dup2\n      add\n      swap1\n      tag_32\n      swap2\n      swap1\n      tag_33\n      jump\t// in\n    tag_32:\n      pop\n        /* \"Aave.sol\":1421:1425  aave */\n      0x00\n      dup1\n      sload\n      swap1\n      0x0100\n      exp\n      swap1\n      div\n      0xffffffffffffffffffffffffffffffffffffffff\n      and\n        /* \"Aave.sol\":1421:1433  aave.deposit */\n      0xffffffffffffffffffffffffffffffffffffffff\n      and\n      0xe8eda9df\n        /* \"Aave.sol\":1434:1444  erc20Token */\n      dup5\n        /* \"Aave.sol\":1446:1452  amount */\n      dup5\n        /* \"Aave.sol\":1454:1464  onBehalfOf */\n      dup5\n        /* \"Aave.sol\":1466:1467  0 */\n      0x00\n        /* \"Aave.sol\":1421:1468  aave.deposit(erc20Token, amount, onBehalfOf, 0) */\n      mload(0x40)\n      dup6\n      0xffffffff\n      and\n      0xe0\n      shl\n      dup2\n      mstore\n      0x04\n      add\n      tag_34\n      swap5\n      swap4\n      swap3\n      swap2\n      swap1\n      tag_35\n      jump\t// in\n    tag_34:\n      0x00\n      mload(0x40)\n      dup1\n      dup4\n      sub\n      dup2\n      0x00\n      dup8\n      dup1\n      extcodesize\n      iszero\n      dup1\n      iszero\n      tag_36\n      jumpi\n      0x00\n      dup1\n      revert\n    tag_36:\n      pop\n      gas\n      call\n      iszero\n      dup1\n      iszero\n      tag_38\n      jumpi\n      returndatasize\n      0x00\n      dup1\n      returndatacopy\n      revert(0x00, returndatasize)\n    tag_38:\n      pop\n      pop\n      pop\n      pop\n        /* \"Aave.sol\":1152:1476  function depositERC20(address erc20Token, uint256 amount, address onBehalfOf) external {\r... */\n      pop\n      pop\n      pop\n      jump\t// out\n        /* \"Aave.sol\":978:1144  function depositEther(address onBehalfOf) external payable {\r... */\n    tag_14:\n        /* \"Aave.sol\":1084:1088  aave */\n      0x00\n      dup1\n      sload\n      swap1\n      0x0100\n      exp\n      swap1\n      div\n      0xffffffffffffffffffffffffffffffffffffffff\n      and\n        /* \"Aave.sol\":1084:1096  aave.deposit */\n      0xffffffffffffffffffffffffffffffffffffffff\n      and\n      0xe8eda9df\n        /* \"Aave.sol\":651:693  0xC02aaA39b223FE8D0A0e5C4F27eAD9083C756Cc2 */\n      0xc02aaa39b223fe8d0a0e5c4f27ead9083c756cc2\n        /* \"Aave.sol\":1111:1120  msg.value */\n      callvalue\n        /* \"Aave.sol\":1122:1132  onBehalfOf */\n      dup5\n        /* \"Aave.sol\":1134:1135  0 */\n      0x00\n        /* \"Aave.sol\":1084:1136  aave.deposit(WETH_ADDRESS, msg.value, onBehalfOf, 0) */\n      mload(0x40)\n      dup6\n      0xffffffff\n      and\n      0xe0\n      shl\n      dup2\n      mstore\n      0x04\n      add\n      tag_40\n      swap5\n      swap4\n      swap3\n      swap2\n      swap1\n      tag_35\n      jump\t// in\n    tag_40:\n      0x00\n      mload(0x40)\n      dup1\n      dup4\n      sub\n      dup2\n      0x00\n      dup8\n      dup1\n      extcodesize\n      iszero\n      dup1\n      iszero\n      tag_41\n      jumpi\n      0x00\n      dup1\n      revert\n    tag_41:\n      pop\n      gas\n      call\n      iszero\n      dup1\n      iszero\n      tag_43\n      jumpi\n      returndatasize\n      0x00\n      dup1\n      returndatacopy\n      revert(0x00, returndatasize)\n    tag_43:\n      pop\n      pop\n      pop\n      pop\n        /* \"Aave.sol\":978:1144  function depositEther(address onBehalfOf) external payable {\r... */\n      pop\n      jump\t// out\n        /* \"Aave.sol\":1484:1643  function withdraw(address token, uint256 amount, address to) external {\r... */\n    tag_18:\n        /* \"Aave.sol\":1603:1607  aave */\n      0x00\n      dup1\n      sload\n      swap1\n      0x0100\n      exp\n      swap1\n      div\n      0xffffffffffffffffffffffffffffffffffffffff\n      and\n        /* \"Aave.sol\":1603:1616  aave.withdraw */\n      0xffffffffffffffffffffffffffffffffffffffff\n      and\n      0x69328dec\n        /* \"Aave.sol\":1617:1622  token */\n      dup5\n        /* \"Aave.sol\":1624:1630  amount */\n      dup5\n        /* \"Aave.sol\":1632:1634  to */\n      dup5\n        /* \"Aave.sol\":1603:1635  aave.withdraw(token, amount, to) */\n      mload(0x40)\n      dup5\n      0xffffffff\n      and\n      0xe0\n      shl\n      dup2\n      mstore\n      0x04\n      add\n      tag_45\n      swap4\n      swap3\n      swap2\n      swap1\n      tag_46\n      jump\t// in\n    tag_45:\n      0x00\n      mload(0x40)\n      dup1\n      dup4\n      sub\n      dup2\n      0x00\n      dup8\n      dup1\n      extcodesize\n      iszero\n      dup1\n      iszero\n      tag_47\n      jumpi\n      0x00\n      dup1\n      revert\n    tag_47:\n      pop\n      gas\n      call\n      iszero\n      dup1\n      iszero\n      tag_49\n      jumpi\n      returndatasize\n      0x00\n      dup1\n      returndatacopy\n      revert(0x00, returndatasize)\n    tag_49:\n      pop\n      pop\n      pop\n      pop\n        /* \"Aave.sol\":1484:1643  function withdraw(address token, uint256 amount, address to) external {\r... */\n      pop\n      pop\n      pop\n      jump\t// out\n        /* \"Aave.sol\":1651:1843  function getBalance(address token, address account) external view returns (uint256) {\r... */\n    tag_23:\n        /* \"Aave.sol\":1726:1733  uint256 */\n      0x00\n        /* \"Aave.sol\":1810:1815  token */\n      dup3\n        /* \"Aave.sol\":1803:1826  IERC20(token).balanceOf */\n      0xffffffffffffffffffffffffffffffffffffffff\n      and\n      0x70a08231\n        /* \"Aave.sol\":1827:1834  account */\n      dup4\n        /* \"Aave.sol\":1803:1835  IERC20(token).balanceOf(account) */\n      mload(0x40)\n      dup3\n      0xffffffff\n      and\n      0xe0\n      shl\n      dup2\n      mstore\n      0x04\n      add\n      tag_51\n      swap2\n      swap1\n      tag_52\n      jump\t// in\n    tag_51:\n      0x20\n      mload(0x40)\n      dup1\n      dup4\n      sub\n      dup2\n      dup7\n      dup1\n      extcodesize\n      iszero\n      dup1\n      iszero\n      tag_53\n      jumpi\n      0x00\n      dup1\n      revert\n    tag_53:\n      pop\n      gas\n      staticcall\n      iszero\n      dup1\n      iszero\n      tag_55\n      jumpi\n      returndatasize\n      0x00\n      dup1\n      returndatacopy\n      revert(0x00, returndatasize)\n    tag_55:\n      pop\n      pop\n      pop\n      pop\n      mload(0x40)\n      returndatasize\n      not(0x1f)\n      0x1f\n      dup3\n      add\n      and\n      dup3\n      add\n      dup1\n      0x40\n      mstore\n      pop\n      dup2\n      add\n      swap1\n      tag_56\n      swap2\n      swap1\n      tag_57\n      jump\t// in\n    tag_56:\n        /* \"Aave.sol\":1796:1835  return IERC20(token).balanceOf(account) */\n      swap1\n      pop\n        /* \"Aave.sol\":1651:1843  function getBalance(address token, address account) external view returns (uint256) {\r... */\n      swap3\n      swap2\n      pop\n      pop\n      jump\t// out\n        /* \"#utility.yul\":7:146   */\n    tag_59:\n        /* \"#utility.yul\":53:58   */\n      0x00\n        /* \"#utility.yul\":91:97   */\n      dup2\n        /* \"#utility.yul\":78:98   */\n      calldataload\n        /* \"#utility.yul\":69:98   */\n      swap1\n      pop\n        /* \"#utility.yul\":107:140   */\n      tag_61\n        /* \"#utility.yul\":134:139   */\n      dup2\n        /* \"#utility.yul\":107:140   */\n      tag_62\n      jump\t// in\n    tag_61:\n        /* \"#utility.yul\":7:146   */\n      swap3\n      swap2\n      pop\n      pop\n      jump\t// out\n        /* \"#utility.yul\":152:289   */\n    tag_63:\n        /* \"#utility.yul\":206:211   */\n      0x00\n        /* \"#utility.yul\":237:243   */\n      dup2\n        /* \"#utility.yul\":231:244   */\n      mload\n        /* \"#utility.yul\":222:244   */\n      swap1\n      pop\n        /* \"#utility.yul\":253:283   */\n      tag_65\n        /* \"#utility.yul\":277:282   */\n      dup2\n        /* \"#utility.yul\":253:283   */\n      tag_66\n      jump\t// in\n    tag_65:\n        /* \"#utility.yul\":152:289   */\n      swap3\n      swap2\n      pop\n      pop\n      jump\t// out\n        /* \"#utility.yul\":295:434   */\n    tag_67:\n        /* \"#utility.yul\":341:346   */\n      0x00\n        /* \"#utility.yul\":379:385   */\n      dup2\n        /* \"#utility.yul\":366:386   */\n      calldataload\n        /* \"#utility.yul\":357:386   */\n      swap1\n      pop\n        /* \"#utility.yul\":395:428   */\n      tag_69\n        /* \"#utility.yul\":422:427   */\n      dup2\n        /* \"#utility.yul\":395:428   */\n      tag_70\n      jump\t// in\n    tag_69:\n        /* \"#utility.yul\":295:434   */\n      swap3\n      swap2\n      pop\n      pop\n      jump\t// out\n        /* \"#utility.yul\":440:583   */\n    tag_71:\n        /* \"#utility.yul\":497:502   */\n      0x00\n        /* \"#utility.yul\":528:534   */\n      dup2\n        /* \"#utility.yul\":522:535   */\n      mload\n        /* \"#utility.yul\":513:535   */\n      swap1\n      pop\n        /* \"#utility.yul\":544:577   */\n      tag_73\n        /* \"#utility.yul\":571:576   */\n      dup2\n        /* \"#utility.yul\":544:577   */\n      tag_70\n      jump\t// in\n    tag_73:\n        /* \"#utility.yul\":440:583   */\n      swap3\n      swap2\n      pop\n      pop\n      jump\t// out\n        /* \"#utility.yul\":589:918   */\n    tag_13:\n        /* \"#utility.yul\":648:654   */\n      0x00\n        /* \"#utility.yul\":697:699   */\n      0x20\n        /* \"#utility.yul\":685:694   */\n      dup3\n        /* \"#utility.yul\":676:683   */\n      dup5\n        /* \"#utility.yul\":672:695   */\n      sub\n        /* \"#utility.yul\":668:700   */\n      slt\n        /* \"#utility.yul\":665:784   */\n      iszero\n      tag_75\n      jumpi\n        /* \"#utility.yul\":703:782   */\n      tag_76\n      tag_77\n      jump\t// in\n    tag_76:\n        /* \"#utility.yul\":665:784   */\n    tag_75:\n        /* \"#utility.yul\":823:824   */\n      0x00\n        /* \"#utility.yul\":848:901   */\n      tag_78\n        /* \"#utility.yul\":893:900   */\n      dup5\n        /* \"#utility.yul\":884:890   */\n      dup3\n        /* \"#utility.yul\":873:882   */\n      dup6\n        /* \"#utility.yul\":869:891   */\n      add\n        /* \"#utility.yul\":848:901   */\n      tag_59\n      jump\t// in\n    tag_78:\n        /* \"#utility.yul\":838:901   */\n      swap2\n      pop\n        /* \"#utility.yul\":794:911   */\n      pop\n        /* \"#utility.yul\":589:918   */\n      swap3\n      swap2\n      pop\n      pop\n      jump\t// out\n        /* \"#utility.yul\":924:1398   */\n    tag_22:\n        /* \"#utility.yul\":992:998   */\n      0x00\n        /* \"#utility.yul\":1000:1006   */\n      dup1\n        /* \"#utility.yul\":1049:1051   */\n      0x40\n        /* \"#utility.yul\":1037:1046   */\n      dup4\n        /* \"#utility.yul\":1028:1035   */\n      dup6\n        /* \"#utility.yul\":1024:1047   */\n      sub\n        /* \"#utility.yul\":1020:1052   */\n      slt\n        /* \"#utility.yul\":1017:1136   */\n      iszero\n      tag_80\n      jumpi\n        /* \"#utility.yul\":1055:1134   */\n      tag_81\n      tag_77\n      jump\t// in\n    tag_81:\n        /* \"#utility.yul\":1017:1136   */\n    tag_80:\n        /* \"#utility.yul\":1175:1176   */\n      0x00\n        /* \"#utility.yul\":1200:1253   */\n      tag_82\n        /* \"#utility.yul\":1245:1252   */\n      dup6\n        /* \"#utility.yul\":1236:1242   */\n      dup3\n        /* \"#utility.yul\":1225:1234   */\n      dup7\n        /* \"#utility.yul\":1221:1243   */\n      add\n        /* \"#utility.yul\":1200:1253   */\n      tag_59\n      jump\t// in\n    tag_82:\n        /* \"#utility.yul\":1190:1253   */\n      swap3\n      pop\n        /* \"#utility.yul\":1146:1263   */\n      pop\n        /* \"#utility.yul\":1302:1304   */\n      0x20\n        /* \"#utility.yul\":1328:1381   */\n      tag_83\n        /* \"#utility.yul\":1373:1380   */\n      dup6\n        /* \"#utility.yul\":1364:1370   */\n      dup3\n        /* \"#utility.yul\":1353:1362   */\n      dup7\n        /* \"#utility.yul\":1349:1371   */\n      add\n        /* \"#utility.yul\":1328:1381   */\n      tag_59\n      jump\t// in\n    tag_83:\n        /* \"#utility.yul\":1318:1381   */\n      swap2\n      pop\n        /* \"#utility.yul\":1273:1391   */\n      pop\n        /* \"#utility.yul\":924:1398   */\n      swap3\n      pop\n      swap3\n      swap1\n      pop\n      jump\t// out\n        /* \"#utility.yul\":1404:2023   */\n    tag_9:\n        /* \"#utility.yul\":1481:1487   */\n      0x00\n        /* \"#utility.yul\":1489:1495   */\n      dup1\n        /* \"#utility.yul\":1497:1503   */\n      0x00\n        /* \"#utility.yul\":1546:1548   */\n      0x60\n        /* \"#utility.yul\":1534:1543   */\n      dup5\n        /* \"#utility.yul\":1525:1532   */\n      dup7\n        /* \"#utility.yul\":1521:1544   */\n      sub\n        /* \"#utility.yul\":1517:1549   */\n      slt\n        /* \"#utility.yul\":1514:1633   */\n      iszero\n      tag_85\n      jumpi\n        /* \"#utility.yul\":1552:1631   */\n      tag_86\n      tag_77\n      jump\t// in\n    tag_86:\n        /* \"#utility.yul\":1514:1633   */\n    tag_85:\n        /* \"#utility.yul\":1672:1673   */\n      0x00\n        /* \"#utility.yul\":1697:1750   */\n      tag_87\n        /* \"#utility.yul\":1742:1749   */\n      dup7\n        /* \"#utility.yul\":1733:1739   */\n      dup3\n        /* \"#utility.yul\":1722:1731   */\n      dup8\n        /* \"#utility.yul\":1718:1740   */\n      add\n        /* \"#utility.yul\":1697:1750   */\n      tag_59\n      jump\t// in\n    tag_87:\n        /* \"#utility.yul\":1687:1750   */\n      swap4\n      pop\n        /* \"#utility.yul\":1643:1760   */\n      pop\n        /* \"#utility.yul\":1799:1801   */\n      0x20\n        /* \"#utility.yul\":1825:1878   */\n      tag_88\n        /* \"#utility.yul\":1870:1877   */\n      dup7\n        /* \"#utility.yul\":1861:1867   */\n      dup3\n        /* \"#utility.yul\":1850:1859   */\n      dup8\n        /* \"#utility.yul\":1846:1868   */\n      add\n        /* \"#utility.yul\":1825:1878   */\n      tag_67\n      jump\t// in\n    tag_88:\n        /* \"#utility.yul\":1815:1878   */\n      swap3\n      pop\n        /* \"#utility.yul\":1770:1888   */\n      pop\n        /* \"#utility.yul\":1927:1929   */\n      0x40\n        /* \"#utility.yul\":1953:2006   */\n      tag_89\n        /* \"#utility.yul\":1998:2005   */\n      dup7\n        /* \"#utility.yul\":1989:1995   */\n      dup3\n        /* \"#utility.yul\":1978:1987   */\n      dup8\n        /* \"#utility.yul\":1974:1996   */\n      add\n        /* \"#utility.yul\":1953:2006   */\n      tag_59\n      jump\t// in\n    tag_89:\n        /* \"#utility.yul\":1943:2006   */\n      swap2\n      pop\n        /* \"#utility.yul\":1898:2016   */\n      pop\n        /* \"#utility.yul\":1404:2023   */\n      swap3\n      pop\n      swap3\n      pop\n      swap3\n      jump\t// out\n        /* \"#utility.yul\":2029:2374   */\n    tag_33:\n        /* \"#utility.yul\":2096:2102   */\n      0x00\n        /* \"#utility.yul\":2145:2147   */\n      0x20\n        /* \"#utility.yul\":2133:2142   */\n      dup3\n        /* \"#utility.yul\":2124:2131   */\n      dup5\n        /* \"#utility.yul\":2120:2143   */\n      sub\n        /* \"#utility.yul\":2116:2148   */\n      slt\n        /* \"#utility.yul\":2113:2232   */\n      iszero\n      tag_91\n      jumpi\n        /* \"#utility.yul\":2151:2230   */\n      tag_92\n      tag_77\n      jump\t// in\n    tag_92:\n        /* \"#utility.yul\":2113:2232   */\n    tag_91:\n        /* \"#utility.yul\":2271:2272   */\n      0x00\n        /* \"#utility.yul\":2296:2357   */\n      tag_93\n        /* \"#utility.yul\":2349:2356   */\n      dup5\n        /* \"#utility.yul\":2340:2346   */\n      dup3\n        /* \"#utility.yul\":2329:2338   */\n      dup6\n        /* \"#utility.yul\":2325:2347   */\n      add\n        /* \"#utility.yul\":2296:2357   */\n      tag_63\n      jump\t// in\n    tag_93:\n        /* \"#utility.yul\":2286:2357   */\n      swap2\n      pop\n        /* \"#utility.yul\":2242:2367   */\n      pop\n        /* \"#utility.yul\":2029:2374   */\n      swap3\n      swap2\n      pop\n      pop\n      jump\t// out\n        /* \"#utility.yul\":2380:2731   */\n    tag_57:\n        /* \"#utility.yul\":2450:2456   */\n      0x00\n        /* \"#utility.yul\":2499:2501   */\n      0x20\n        /* \"#utility.yul\":2487:2496   */\n      dup3\n        /* \"#utility.yul\":2478:2485   */\n      dup5\n        /* \"#utility.yul\":2474:2497   */\n      sub\n        /* \"#utility.yul\":2470:2502   */\n      slt\n        /* \"#utility.yul\":2467:2586   */\n      iszero\n      tag_95\n      jumpi\n        /* \"#utility.yul\":2505:2584   */\n      tag_96\n      tag_77\n      jump\t// in\n    tag_96:\n        /* \"#utility.yul\":2467:2586   */\n    tag_95:\n        /* \"#utility.yul\":2625:2626   */\n      0x00\n        /* \"#utility.yul\":2650:2714   */\n      tag_97\n        /* \"#utility.yul\":2706:2713   */\n      dup5\n        /* \"#utility.yul\":2697:2703   */\n      dup3\n        /* \"#utility.yul\":2686:2695   */\n      dup6\n        /* \"#utility.yul\":2682:2704   */\n      add\n        /* \"#utility.yul\":2650:2714   */\n      tag_71\n      jump\t// in\n    tag_97:\n        /* \"#utility.yul\":2640:2714   */\n      swap2\n      pop\n        /* \"#utility.yul\":2596:2724   */\n      pop\n        /* \"#utility.yul\":2380:2731   */\n      swap3\n      swap2\n      pop\n      pop\n      jump\t// out\n        /* \"#utility.yul\":2737:2855   */\n    tag_98:\n        /* \"#utility.yul\":2824:2848   */\n      tag_100\n        /* \"#utility.yul\":2842:2847   */\n      dup2\n        /* \"#utility.yul\":2824:2848   */\n      tag_101\n      jump\t// in\n    tag_100:\n        /* \"#utility.yul\":2819:2822   */\n      dup3\n        /* \"#utility.yul\":2812:2849   */\n      mstore\n        /* \"#utility.yul\":2737:2855   */\n      pop\n      pop\n      jump\t// out\n        /* \"#utility.yul\":2861:3006   */\n    tag_102:\n        /* \"#utility.yul\":2955:2999   */\n      tag_104\n        /* \"#utility.yul\":2993:2998   */\n      dup2\n        /* \"#utility.yul\":2955:2999   */\n      tag_105\n      jump\t// in\n    tag_104:\n        /* \"#utility.yul\":2950:2953   */\n      dup3\n        /* \"#utility.yul\":2943:3000   */\n      mstore\n        /* \"#utility.yul\":2861:3006   */\n      pop\n      pop\n      jump\t// out\n        /* \"#utility.yul\":3012:3130   */\n    tag_106:\n        /* \"#utility.yul\":3099:3123   */\n      tag_108\n        /* \"#utility.yul\":3117:3122   */\n      dup2\n        /* \"#utility.yul\":3099:3123   */\n      tag_109\n      jump\t// in\n    tag_108:\n        /* \"#utility.yul\":3094:3097   */\n      dup3\n        /* \"#utility.yul\":3087:3124   */\n      mstore\n        /* \"#utility.yul\":3012:3130   */\n      pop\n      pop\n      jump\t// out\n        /* \"#utility.yul\":3136:3358   */\n    tag_52:\n        /* \"#utility.yul\":3229:3233   */\n      0x00\n        /* \"#utility.yul\":3267:3269   */\n      0x20\n        /* \"#utility.yul\":3256:3265   */\n      dup3\n        /* \"#utility.yul\":3252:3270   */\n      add\n        /* \"#utility.yul\":3244:3270   */\n      swap1\n      pop\n        /* \"#utility.yul\":3280:3351   */\n      tag_111\n        /* \"#utility.yul\":3348:3349   */\n      0x00\n        /* \"#utility.yul\":3337:3346   */\n      dup4\n        /* \"#utility.yul\":3333:3350   */\n      add\n        /* \"#utility.yul\":3324:3330   */\n      dup5\n        /* \"#utility.yul\":3280:3351   */\n      tag_98\n      jump\t// in\n    tag_111:\n        /* \"#utility.yul\":3136:3358   */\n      swap3\n      swap2\n      pop\n      pop\n      jump\t// out\n        /* \"#utility.yul\":3364:3696   */\n    tag_28:\n        /* \"#utility.yul\":3485:3489   */\n      0x00\n        /* \"#utility.yul\":3523:3525   */\n      0x40\n        /* \"#utility.yul\":3512:3521   */\n      dup3\n        /* \"#utility.yul\":3508:3526   */\n      add\n        /* \"#utility.yul\":3500:3526   */\n      swap1\n      pop\n        /* \"#utility.yul\":3536:3607   */\n      tag_113\n        /* \"#utility.yul\":3604:3605   */\n      0x00\n        /* \"#utility.yul\":3593:3602   */\n      dup4\n        /* \"#utility.yul\":3589:3606   */\n      add\n        /* \"#utility.yul\":3580:3586   */\n      dup6\n        /* \"#utility.yul\":3536:3607   */\n      tag_98\n      jump\t// in\n    tag_113:\n        /* \"#utility.yul\":3617:3689   */\n      tag_114\n        /* \"#utility.yul\":3685:3687   */\n      0x20\n        /* \"#utility.yul\":3674:3683   */\n      dup4\n        /* \"#utility.yul\":3670:3688   */\n      add\n        /* \"#utility.yul\":3661:3667   */\n      dup5\n        /* \"#utility.yul\":3617:3689   */\n      tag_106\n      jump\t// in\n    tag_114:\n        /* \"#utility.yul\":3364:3696   */\n      swap4\n      swap3\n      pop\n      pop\n      pop\n      jump\t// out\n        /* \"#utility.yul\":3702:4144   */\n    tag_46:\n        /* \"#utility.yul\":3851:3855   */\n      0x00\n        /* \"#utility.yul\":3889:3891   */\n      0x60\n        /* \"#utility.yul\":3878:3887   */\n      dup3\n        /* \"#utility.yul\":3874:3892   */\n      add\n        /* \"#utility.yul\":3866:3892   */\n      swap1\n      pop\n        /* \"#utility.yul\":3902:3973   */\n      tag_116\n        /* \"#utility.yul\":3970:3971   */\n      0x00\n        /* \"#utility.yul\":3959:3968   */\n      dup4\n        /* \"#utility.yul\":3955:3972   */\n      add\n        /* \"#utility.yul\":3946:3952   */\n      dup7\n        /* \"#utility.yul\":3902:3973   */\n      tag_98\n      jump\t// in\n    tag_116:\n        /* \"#utility.yul\":3983:4055   */\n      tag_117\n        /* \"#utility.yul\":4051:4053   */\n      0x20\n        /* \"#utility.yul\":4040:4049   */\n      dup4\n        /* \"#utility.yul\":4036:4054   */\n      add\n        /* \"#utility.yul\":4027:4033   */\n      dup6\n        /* \"#utility.yul\":3983:4055   */\n      tag_106\n      jump\t// in\n    tag_117:\n        /* \"#utility.yul\":4065:4137   */\n      tag_118\n        /* \"#utility.yul\":4133:4135   */\n      0x40\n        /* \"#utility.yul\":4122:4131   */\n      dup4\n        /* \"#utility.yul\":4118:4136   */\n      add\n        /* \"#utility.yul\":4109:4115   */\n      dup5\n        /* \"#utility.yul\":4065:4137   */\n      tag_98\n      jump\t// in\n    tag_118:\n        /* \"#utility.yul\":3702:4144   */\n      swap5\n      swap4\n      pop\n      pop\n      pop\n      pop\n      jump\t// out\n        /* \"#utility.yul\":4150:4717   */\n    tag_35:\n        /* \"#utility.yul\":4334:4338   */\n      0x00\n        /* \"#utility.yul\":4372:4375   */\n      0x80\n        /* \"#utility.yul\":4361:4370   */\n      dup3\n        /* \"#utility.yul\":4357:4376   */\n      add\n        /* \"#utility.yul\":4349:4376   */\n      swap1\n      pop\n        /* \"#utility.yul\":4386:4457   */\n      tag_120\n        /* \"#utility.yul\":4454:4455   */\n      0x00\n        /* \"#utility.yul\":4443:4452   */\n      dup4\n        /* \"#utility.yul\":4439:4456   */\n      add\n        /* \"#utility.yul\":4430:4436   */\n      dup8\n        /* \"#utility.yul\":4386:4457   */\n      tag_98\n      jump\t// in\n    tag_120:\n        /* \"#utility.yul\":4467:4539   */\n      tag_121\n        /* \"#utility.yul\":4535:4537   */\n      0x20\n        /* \"#utility.yul\":4524:4533   */\n      dup4\n        /* \"#utility.yul\":4520:4538   */\n      add\n        /* \"#utility.yul\":4511:4517   */\n      dup7\n        /* \"#utility.yul\":4467:4539   */\n      tag_106\n      jump\t// in\n    tag_121:\n        /* \"#utility.yul\":4549:4621   */\n      tag_122\n        /* \"#utility.yul\":4617:4619   */\n      0x40\n        /* \"#utility.yul\":4606:4615   */\n      dup4\n        /* \"#utility.yul\":4602:4620   */\n      add\n        /* \"#utility.yul\":4593:4599   */\n      dup6\n        /* \"#utility.yul\":4549:4621   */\n      tag_98\n      jump\t// in\n    tag_122:\n        /* \"#utility.yul\":4631:4710   */\n      tag_123\n        /* \"#utility.yul\":4706:4708   */\n      0x60\n        /* \"#utility.yul\":4695:4704   */\n      dup4\n        /* \"#utility.yul\":4691:4709   */\n      add\n        /* \"#utility.yul\":4682:4688   */\n      dup5\n        /* \"#utility.yul\":4631:4710   */\n      tag_102\n      jump\t// in\n    tag_123:\n        /* \"#utility.yul\":4150:4717   */\n      swap6\n      swap5\n      pop\n      pop\n      pop\n      pop\n      pop\n      jump\t// out\n        /* \"#utility.yul\":4723:4945   */\n    tag_25:\n        /* \"#utility.yul\":4816:4820   */\n      0x00\n        /* \"#utility.yul\":4854:4856   */\n      0x20\n        /* \"#utility.yul\":4843:4852   */\n      dup3\n        /* \"#utility.yul\":4839:4857   */\n      add\n        /* \"#utility.yul\":4831:4857   */\n      swap1\n      pop\n        /* \"#utility.yul\":4867:4938   */\n      tag_125\n        /* \"#utility.yul\":4935:4936   */\n      0x00\n        /* \"#utility.yul\":4924:4933   */\n      dup4\n        /* \"#utility.yul\":4920:4937   */\n      add\n        /* \"#utility.yul\":4911:4917   */\n      dup5\n        /* \"#utility.yul\":4867:4938   */\n      tag_106\n      jump\t// in\n    tag_125:\n        /* \"#utility.yul\":4723:4945   */\n      swap3\n      swap2\n      pop\n      pop\n      jump\t// out\n        /* \"#utility.yul\":5032:5128   */\n    tag_101:\n        /* \"#utility.yul\":5069:5076   */\n      0x00\n        /* \"#utility.yul\":5098:5122   */\n      tag_129\n        /* \"#utility.yul\":5116:5121   */\n      dup3\n        /* \"#utility.yul\":5098:5122   */\n      tag_130\n      jump\t// in\n    tag_129:\n        /* \"#utility.yul\":5087:5122   */\n      swap1\n      pop\n        /* \"#utility.yul\":5032:5128   */\n      swap2\n      swap1\n      pop\n      jump\t// out\n        /* \"#utility.yul\":5134:5224   */\n    tag_131:\n        /* \"#utility.yul\":5168:5175   */\n      0x00\n        /* \"#utility.yul\":5211:5216   */\n      dup2\n        /* \"#utility.yul\":5204:5217   */\n      iszero\n        /* \"#utility.yul\":5197:5218   */\n      iszero\n        /* \"#utility.yul\":5186:5218   */\n      swap1\n      pop\n        /* \"#utility.yul\":5134:5224   */\n      swap2\n      swap1\n      pop\n      jump\t// out\n        /* \"#utility.yul\":5230:5319   */\n    tag_133:\n        /* \"#utility.yul\":5266:5273   */\n      0x00\n        /* \"#utility.yul\":5306:5312   */\n      0xffff\n        /* \"#utility.yul\":5299:5304   */\n      dup3\n        /* \"#utility.yul\":5295:5313   */\n      and\n        /* \"#utility.yul\":5284:5313   */\n      swap1\n      pop\n        /* \"#utility.yul\":5230:5319   */\n      swap2\n      swap1\n      pop\n      jump\t// out\n        /* \"#utility.yul\":5325:5451   */\n    tag_130:\n        /* \"#utility.yul\":5362:5369   */\n      0x00\n        /* \"#utility.yul\":5402:5444   */\n      0xffffffffffffffffffffffffffffffffffffffff\n        /* \"#utility.yul\":5395:5400   */\n      dup3\n        /* \"#utility.yul\":5391:5445   */\n      and\n        /* \"#utility.yul\":5380:5445   */\n      swap1\n      pop\n        /* \"#utility.yul\":5325:5451   */\n      swap2\n      swap1\n      pop\n      jump\t// out\n        /* \"#utility.yul\":5457:5534   */\n    tag_109:\n        /* \"#utility.yul\":5494:5501   */\n      0x00\n        /* \"#utility.yul\":5523:5528   */\n      dup2\n        /* \"#utility.yul\":5512:5528   */\n      swap1\n      pop\n        /* \"#utility.yul\":5457:5534   */\n      swap2\n      swap1\n      pop\n      jump\t// out\n        /* \"#utility.yul\":5540:5659   */\n    tag_105:\n        /* \"#utility.yul\":5597:5606   */\n      0x00\n        /* \"#utility.yul\":5630:5653   */\n      tag_138\n        /* \"#utility.yul\":5647:5652   */\n      dup3\n        /* \"#utility.yul\":5630:5653   */\n      tag_133\n      jump\t// in\n    tag_138:\n        /* \"#utility.yul\":5617:5653   */\n      swap1\n      pop\n        /* \"#utility.yul\":5540:5659   */\n      swap2\n      swap1\n      pop\n      jump\t// out\n        /* \"#utility.yul\":5788:5905   */\n    tag_77:\n        /* \"#utility.yul\":5897:5898   */\n      0x00\n        /* \"#utility.yul\":5894:5895   */\n      dup1\n        /* \"#utility.yul\":5887:5899   */\n      revert\n        /* \"#utility.yul\":5911:6033   */\n    tag_62:\n        /* \"#utility.yul\":5984:6008   */\n      tag_143\n        /* \"#utility.yul\":6002:6007   */\n      dup2\n        /* \"#utility.yul\":5984:6008   */\n      tag_101\n      jump\t// in\n    tag_143:\n        /* \"#utility.yul\":5977:5982   */\n      dup2\n        /* \"#utility.yul\":5974:6009   */\n      eq\n        /* \"#utility.yul\":5964:6027   */\n      tag_144\n      jumpi\n        /* \"#utility.yul\":6023:6024   */\n      0x00\n        /* \"#utility.yul\":6020:6021   */\n      dup1\n        /* \"#utility.yul\":6013:6025   */\n      revert\n        /* \"#utility.yul\":5964:6027   */\n    tag_144:\n        /* \"#utility.yul\":5911:6033   */\n      pop\n      jump\t// out\n        /* \"#utility.yul\":6039:6155   */\n    tag_66:\n        /* \"#utility.yul\":6109:6130   */\n      tag_146\n        /* \"#utility.yul\":6124:6129   */\n      dup2\n        /* \"#utility.yul\":6109:6130   */\n      tag_131\n      jump\t// in\n    tag_146:\n        /* \"#utility.yul\":6102:6107   */\n      dup2\n        /* \"#utility.yul\":6099:6131   */\n      eq\n        /* \"#utility.yul\":6089:6149   */\n      tag_147\n      jumpi\n        /* \"#utility.yul\":6145:6146   */\n      0x00\n        /* \"#utility.yul\":6142:6143   */\n      dup1\n        /* \"#utility.yul\":6135:6147   */\n      revert\n        /* \"#utility.yul\":6089:6149   */\n    tag_147:\n        /* \"#utility.yul\":6039:6155   */\n      pop\n      jump\t// out\n        /* \"#utility.yul\":6161:6283   */\n    tag_70:\n        /* \"#utility.yul\":6234:6258   */\n      tag_149\n        /* \"#utility.yul\":6252:6257   */\n      dup2\n        /* \"#utility.yul\":6234:6258   */\n      tag_109\n      jump\t// in\n    tag_149:\n        /* \"#utility.yul\":6227:6232   */\n      dup2\n        /* \"#utility.yul\":6224:6259   */\n      eq\n        /* \"#utility.yul\":6214:6277   */\n      tag_150\n      jumpi\n        /* \"#utility.yul\":6273:6274   */\n      0x00\n        /* \"#utility.yul\":6270:6271   */\n      dup1\n        /* \"#utility.yul\":6263:6275   */\n      revert\n        /* \"#utility.yul\":6214:6277   */\n    tag_150:\n        /* \"#utility.yul\":6161:6283   */\n      pop\n      jump\t// out\n\n    auxdata: 0xa2646970667358221220830320ac15a48241660513174210906e01d52251a631179685a730780b68b8aa64736f6c63430008070033\n}\n",
				"bytecode": {
					"linkReferences": {},
					"object": "608060405234801561001057600080fd5b50737fc66500c84a76ad7e9c93437bfc5ac33e2ddae96000806101000a81548173ffffffffffffffffffffffffffffffffffffffff021916908373ffffffffffffffffffffffffffffffffffffffff160217905550610776806100746000396000f3fe60806040526004361061003f5760003560e01c80631828686a14610044578063528021211461006d57806369328dec14610089578063d4fac45d146100b2575b600080fd5b34801561005057600080fd5b5061006b600480360381019061006691906104d9565b6100ef565b005b6100876004803603810190610082919061046c565b610248565b005b34801561009557600080fd5b506100b060048036038101906100ab91906104d9565b6102f1565b005b3480156100be57600080fd5b506100d960048036038101906100d49190610499565b610385565b6040516100e69190610673565b60405180910390f35b8273ffffffffffffffffffffffffffffffffffffffff1663095ea7b3737fc66500c84a76ad7e9c93437bfc5ac33e2ddae97fffffffffffffffffffffffffffffffffffffffffffffffffffffffffffffffff6040518363ffffffff1660e01b815260040161015e9291906105ce565b602060405180830381600087803b15801561017857600080fd5b505af115801561018c573d6000803e3d6000fd5b505050506040513d601f19601f820116820180604052508101906101b0919061052c565b5060008054906101000a900473ffffffffffffffffffffffffffffffffffffffff1673ffffffffffffffffffffffffffffffffffffffff1663e8eda9df84848460006040518563ffffffff1660e01b8152600401610211949392919061062e565b600060405180830381600087803b15801561022b57600080fd5b505af115801561023f573d6000803e3d6000fd5b50505050505050565b60008054906101000a900473ffffffffffffffffffffffffffffffffffffffff1673ffffffffffffffffffffffffffffffffffffffff1663e8eda9df73c02aaa39b223fe8d0a0e5c4f27ead9083c756cc2348460006040518563ffffffff1660e01b81526004016102bc949392919061062e565b600060405180830381600087803b1580156102d657600080fd5b505af11580156102ea573d6000803e3d6000fd5b5050505050565b60008054906101000a900473ffffffffffffffffffffffffffffffffffffffff1673ffffffffffffffffffffffffffffffffffffffff166369328dec8484846040518463ffffffff1660e01b815260040161034e939291906105f7565b600060405180830381600087803b15801561036857600080fd5b505af115801561037c573d6000803e3d6000fd5b50505050505050565b60008273ffffffffffffffffffffffffffffffffffffffff166370a08231836040518263ffffffff1660e01b81526004016103c091906105b3565b60206040518083038186803b1580156103d857600080fd5b505afa1580156103ec573d6000803e3d6000fd5b505050506040513d601f19601f820116820180604052508101906104109190610559565b905092915050565b600081359050610427816106fb565b92915050565b60008151905061043c81610712565b92915050565b60008135905061045181610729565b92915050565b60008151905061046681610729565b92915050565b600060208284031215610482576104816106f6565b5b600061049084828501610418565b91505092915050565b600080604083850312156104b0576104af6106f6565b5b60006104be85828601610418565b92505060206104cf85828601610418565b9150509250929050565b6000806000606084860312156104f2576104f16106f6565b5b600061050086828701610418565b935050602061051186828701610442565b925050604061052286828701610418565b9150509250925092565b600060208284031215610542576105416106f6565b5b60006105508482850161042d565b91505092915050565b60006020828403121561056f5761056e6106f6565b5b600061057d84828501610457565b91505092915050565b61058f8161068e565b82525050565b61059e816106e4565b82525050565b6105ad816106da565b82525050565b60006020820190506105c86000830184610586565b92915050565b60006040820190506105e36000830185610586565b6105f060208301846105a4565b9392505050565b600060608201905061060c6000830186610586565b61061960208301856105a4565b6106266040830184610586565b949350505050565b60006080820190506106436000830187610586565b61065060208301866105a4565b61065d6040830185610586565b61066a6060830184610595565b95945050505050565b600060208201905061068860008301846105a4565b92915050565b6000610699826106ba565b9050919050565b60008115159050919050565b600061ffff82169050919050565b600073ffffffffffffffffffffffffffffffffffffffff82169050919050565b6000819050919050565b60006106ef826106ac565b9050919050565b600080fd5b6107048161068e565b811461070f57600080fd5b50565b61071b816106a0565b811461072657600080fd5b50565b610732816106da565b811461073d57600080fd5b5056fea2646970667358221220830320ac15a48241660513174210906e01d52251a631179685a730780b68b8aa64736f6c63430008070033",
					"opcodes": "PUSH1 0x80 PUSH1 0x40 MSTORE CALLVALUE DUP1 ISZERO PUSH2 0x10 JUMPI PUSH1 0x0 DUP1 REVERT JUMPDEST POP PUSH20 0x7FC66500C84A76AD7E9C93437BFC5AC33E2DDAE9 PUSH1 0x0 DUP1 PUSH2 0x100 EXP DUP2 SLOAD DUP2 PUSH20 0xFFFFFFFFFFFFFFFFFFFFFFFFFFFFFFFFFFFFFFFF MUL NOT AND SWAP1 DUP4 PUSH20 0xFFFFFFFFFFFFFFFFFFFFFFFFFFFFFFFFFFFFFFFF AND MUL OR SWAP1 SSTORE POP PUSH2 0x776 DUP1 PUSH2 0x74 PUSH1 0x0 CODECOPY PUSH1 0x0 RETURN INVALID PUSH1 0x80 PUSH1 0x40 MSTORE PUSH1 0x4 CALLDATASIZE LT PUSH2 0x3F JUMPI PUSH1 0x0 CALLDATALOAD PUSH1 0xE0 SHR DUP1 PUSH4 0x1828686A EQ PUSH2 0x44 JUMPI DUP1 PUSH4 0x52802121 EQ PUSH2 0x6D JUMPI DUP1 PUSH4 0x69328DEC EQ PUSH2 0x89 JUMPI DUP1 PUSH4 0xD4FAC45D EQ PUSH2 0xB2 JUMPI JUMPDEST PUSH1 0x0 DUP1 REVERT JUMPDEST CALLVALUE DUP1 ISZERO PUSH2 0x50 JUMPI PUSH1 0x0 DUP1 REVERT JUMPDEST POP PUSH2 0x6B PUSH1 0x4 DUP1 CALLDATASIZE SUB DUP2 ADD SWAP1 PUSH2 0x66 SWAP2 SWAP1 PUSH2 0x4D9 JUMP JUMPDEST PUSH2 0xEF JUMP JUMPDEST STOP JUMPDEST PUSH2 0x87 PUSH1 0x4 DUP1 CALLDATASIZE SUB DUP2 ADD SWAP1 PUSH2 0x82 SWAP2 SWAP1 PUSH2 0x46C JUMP JUMPDEST PUSH2 0x248 JUMP JUMPDEST STOP JUMPDEST CALLVALUE DUP1 ISZERO PUSH2 0x95 JUMPI PUSH1 0x0 DUP1 REVERT JUMPDEST POP PUSH2 0xB0 PUSH1 0x4 DUP1 CALLDATASIZE SUB DUP2 ADD SWAP1 PUSH2 0xAB SWAP2 SWAP1 PUSH2 0x4D9 JUMP JUMPDEST PUSH2 0x2F1 JUMP JUMPDEST STOP JUMPDEST CALLVALUE DUP1 ISZERO PUSH2 0xBE JUMPI PUSH1 0x0 DUP1 REVERT JUMPDEST POP PUSH2 0xD9 PUSH1 0x4 DUP1 CALLDATASIZE SUB DUP2 ADD SWAP1 PUSH2 0xD4 SWAP2 SWAP1 PUSH2 0x499 JUMP JUMPDEST PUSH2 0x385 JUMP JUMPDEST PUSH1 0x40 MLOAD PUSH2 0xE6 SWAP2 SWAP1 PUSH2 0x673 JUMP JUMPDEST PUSH1 0x40 MLOAD DUP1 SWAP2 SUB SWAP1 RETURN JUMPDEST DUP3 PUSH20 0xFFFFFFFFFFFFFFFFFFFFFFFFFFFFFFFFFFFFFFFF AND PUSH4 0x95EA7B3 PUSH20 0x7FC66500C84A76AD7E9C93437BFC5AC33E2DDAE9 PUSH32 0xFFFFFFFFFFFFFFFFFFFFFFFFFFFFFFFFFFFFFFFFFFFFFFFFFFFFFFFFFFFFFFFF PUSH1 0x40 MLOAD DUP4 PUSH4 0xFFFFFFFF AND PUSH1 0xE0 SHL DUP2 MSTORE PUSH1 0x4 ADD PUSH2 0x15E SWAP3 SWAP2 SWAP1 PUSH2 0x5CE JUMP JUMPDEST PUSH1 0x20 PUSH1 0x40 MLOAD DUP1 DUP4 SUB DUP2 PUSH1 0x0 DUP8 DUP1 EXTCODESIZE ISZERO DUP1 ISZERO PUSH2 0x178 JUMPI PUSH1 0x0 DUP1 REVERT JUMPDEST POP GAS CALL ISZERO DUP1 ISZERO PUSH2 0x18C JUMPI RETURNDATASIZE PUSH1 0x0 DUP1 RETURNDATACOPY RETURNDATASIZE PUSH1 0x0 REVERT JUMPDEST POP POP POP POP PUSH1 0x40 MLOAD RETURNDATASIZE PUSH1 0x1F NOT PUSH1 0x1F DUP3 ADD AND DUP3 ADD DUP1 PUSH1 0x40 MSTORE POP DUP2 ADD SWAP1 PUSH2 0x1B0 SWAP2 SWAP1 PUSH2 0x52C JUMP JUMPDEST POP PUSH1 0x0 DUP1 SLOAD SWAP1 PUSH2 0x100 EXP SWAP1 DIV PUSH20 0xFFFFFFFFFFFFFFFFFFFFFFFFFFFFFFFFFFFFFFFF AND PUSH20 0xFFFFFFFFFFFFFFFFFFFFFFFFFFFFFFFFFFFFFFFF AND PUSH4 0xE8EDA9DF DUP5 DUP5 DUP5 PUSH1 0x0 PUSH1 0x40 MLOAD DUP6 PUSH4 0xFFFFFFFF AND PUSH1 0xE0 SHL DUP2 MSTORE PUSH1 0x4 ADD PUSH2 0x211 SWAP5 SWAP4 SWAP3 SWAP2 SWAP1 PUSH2 0x62E JUMP JUMPDEST PUSH1 0x0 PUSH1 0x40 MLOAD DUP1 DUP4 SUB DUP2 PUSH1 0x0 DUP8 DUP1 EXTCODESIZE ISZERO DUP1 ISZERO PUSH2 0x22B JUMPI PUSH1 0x0 DUP1 REVERT JUMPDEST POP GAS CALL ISZERO DUP1 ISZERO PUSH2 0x23F JUMPI RETURNDATASIZE PUSH1 0x0 DUP1 RETURNDATACOPY RETURNDATASIZE PUSH1 0x0 REVERT JUMPDEST POP POP POP POP POP POP POP JUMP JUMPDEST PUSH1 0x0 DUP1 SLOAD SWAP1 PUSH2 0x100 EXP SWAP1 DIV PUSH20 0xFFFFFFFFFFFFFFFFFFFFFFFFFFFFFFFFFFFFFFFF AND PUSH20 0xFFFFFFFFFFFFFFFFFFFFFFFFFFFFFFFFFFFFFFFF AND PUSH4 0xE8EDA9DF PUSH20 0xC02AAA39B223FE8D0A0E5C4F27EAD9083C756CC2 CALLVALUE DUP5 PUSH1 0x0 PUSH1 0x40 MLOAD DUP6 PUSH4 0xFFFFFFFF AND PUSH1 0xE0 SHL DUP2 MSTORE PUSH1 0x4 ADD PUSH2 0x2BC SWAP5 SWAP4 SWAP3 SWAP2 SWAP1 PUSH2 0x62E JUMP JUMPDEST PUSH1 0x0 PUSH1 0x40 MLOAD DUP1 DUP4 SUB DUP2 PUSH1 0x0 DUP8 DUP1 EXTCODESIZE ISZERO DUP1 ISZERO PUSH2 0x2D6 JUMPI PUSH1 0x0 DUP1 REVERT JUMPDEST POP GAS CALL ISZERO DUP1 ISZERO PUSH2 0x2EA JUMPI RETURNDATASIZE PUSH1 0x0 DUP1 RETURNDATACOPY RETURNDATASIZE PUSH1 0x0 REVERT JUMPDEST POP POP POP POP POP JUMP JUMPDEST PUSH1 0x0 DUP1 SLOAD SWAP1 PUSH2 0x100 EXP SWAP1 DIV PUSH20 0xFFFFFFFFFFFFFFFFFFFFFFFFFFFFFFFFFFFFFFFF AND PUSH20 0xFFFFFFFFFFFFFFFFFFFFFFFFFFFFFFFFFFFFFFFF AND PUSH4 0x69328DEC DUP5 DUP5 DUP5 PUSH1 0x40 MLOAD DUP5 PUSH4 0xFFFFFFFF AND PUSH1 0xE0 SHL DUP2 MSTORE PUSH1 0x4 ADD PUSH2 0x34E SWAP4 SWAP3 SWAP2 SWAP1 PUSH2 0x5F7 JUMP JUMPDEST PUSH1 0x0 PUSH1 0x40 MLOAD DUP1 DUP4 SUB DUP2 PUSH1 0x0 DUP8 DUP1 EXTCODESIZE ISZERO DUP1 ISZERO PUSH2 0x368 JUMPI PUSH1 0x0 DUP1 REVERT JUMPDEST POP GAS CALL ISZERO DUP1 ISZERO PUSH2 0x37C JUMPI RETURNDATASIZE PUSH1 0x0 DUP1 RETURNDATACOPY RETURNDATASIZE PUSH1 0x0 REVERT JUMPDEST POP POP POP POP POP POP POP JUMP JUMPDEST PUSH1 0x0 DUP3 PUSH20 0xFFFFFFFFFFFFFFFFFFFFFFFFFFFFFFFFFFFFFFFF AND PUSH4 0x70A08231 DUP4 PUSH1 0x40 MLOAD DUP3 PUSH4 0xFFFFFFFF AND PUSH1 0xE0 SHL DUP2 MSTORE PUSH1 0x4 ADD PUSH2 0x3C0 SWAP2 SWAP1 PUSH2 0x5B3 JUMP JUMPDEST PUSH1 0x20 PUSH1 0x40 MLOAD DUP1 DUP4 SUB DUP2 DUP7 DUP1 EXTCODESIZE ISZERO DUP1 ISZERO PUSH2 0x3D8 JUMPI PUSH1 0x0 DUP1 REVERT JUMPDEST POP GAS STATICCALL ISZERO DUP1 ISZERO PUSH2 0x3EC JUMPI RETURNDATASIZE PUSH1 0x0 DUP1 RETURNDATACOPY RETURNDATASIZE PUSH1 0x0 REVERT JUMPDEST POP POP POP POP PUSH1 0x40 MLOAD RETURNDATASIZE PUSH1 0x1F NOT PUSH1 0x1F DUP3 ADD AND DUP3 ADD DUP1 PUSH1 0x40 MSTORE POP DUP2 ADD SWAP1 PUSH2 0x410 SWAP2 SWAP1 PUSH2 0x559 JUMP JUMPDEST SWAP1 POP SWAP3 SWAP2 POP POP JUMP JUMPDEST PUSH1 0x0 DUP2 CALLDATALOAD SWAP1 POP PUSH2 0x427 DUP2 PUSH2 0x6FB JUMP JUMPDEST SWAP3 SWAP2 POP POP JUMP JUMPDEST PUSH1 0x0 DUP2 MLOAD SWAP1 POP PUSH2 0x43C DUP2 PUSH2 0x712 JUMP JUMPDEST SWAP3 SWAP2 POP POP JUMP JUMPDEST PUSH1 0x0 DUP2 CALLDATALOAD SWAP1 POP PUSH2 0x451 DUP2 PUSH2 0x729 JUMP JUMPDEST SWAP3 SWAP2 POP POP JUMP JUMPDEST PUSH1 0x0 DUP2 MLOAD SWAP1 POP PUSH2 0x466 DUP2 PUSH2 0x729 JUMP JUMPDEST SWAP3 SWAP2 POP POP JUMP JUMPDEST PUSH1 0x0 PUSH1 0x20 DUP3 DUP5 SUB SLT ISZERO PUSH2 0x482 JUMPI PUSH2 0x481 PUSH2 0x6F6 JUMP JUMPDEST JUMPDEST PUSH1 0x0 PUSH2 0x490 DUP5 DUP3 DUP6 ADD PUSH2 0x418 JUMP JUMPDEST SWAP2 POP POP SWAP3 SWAP2 POP POP JUMP JUMPDEST PUSH1 0x0 DUP1 PUSH1 0x40 DUP4 DUP6 SUB SLT ISZERO PUSH2 0x4B0 JUMPI PUSH2 0x4AF PUSH2 0x6F6 JUMP JUMPDEST JUMPDEST PUSH1 0x0 PUSH2 0x4BE DUP6 DUP3 DUP7 ADD PUSH2 0x418 JUMP JUMPDEST SWAP3 POP POP PUSH1 0x20 PUSH2 0x4CF DUP6 DUP3 DUP7 ADD PUSH2 0x418 JUMP JUMPDEST SWAP2 POP POP SWAP3 POP SWAP3 SWAP1 POP JUMP JUMPDEST PUSH1 0x0 DUP1 PUSH1 0x0 PUSH1 0x60 DUP5 DUP7 SUB SLT ISZERO PUSH2 0x4F2 JUMPI PUSH2 0x4F1 PUSH2 0x6F6 JUMP JUMPDEST JUMPDEST PUSH1 0x0 PUSH2 0x500 DUP7 DUP3 DUP8 ADD PUSH2 0x418 JUMP JUMPDEST SWAP4 POP POP PUSH1 0x20 PUSH2 0x511 DUP7 DUP3 DUP8 ADD PUSH2 0x442 JUMP JUMPDEST SWAP3 POP POP PUSH1 0x40 PUSH2 0x522 DUP7 DUP3 DUP8 ADD PUSH2 0x418 JUMP JUMPDEST SWAP2 POP POP SWAP3 POP SWAP3 POP SWAP3 JUMP JUMPDEST PUSH1 0x0 PUSH1 0x20 DUP3 DUP5 SUB SLT ISZERO PUSH2 0x542 JUMPI PUSH2 0x541 PUSH2 0x6F6 JUMP JUMPDEST JUMPDEST PUSH1 0x0 PUSH2 0x550 DUP5 DUP3 DUP6 ADD PUSH2 0x42D JUMP JUMPDEST SWAP2 POP POP SWAP3 SWAP2 POP POP JUMP JUMPDEST PUSH1 0x0 PUSH1 0x20 DUP3 DUP5 SUB SLT ISZERO PUSH2 0x56F JUMPI PUSH2 0x56E PUSH2 0x6F6 JUMP JUMPDEST JUMPDEST PUSH1 0x0 PUSH2 0x57D DUP5 DUP3 DUP6 ADD PUSH2 0x457 JUMP JUMPDEST SWAP2 POP POP SWAP3 SWAP2 POP POP JUMP JUMPDEST PUSH2 0x58F DUP2 PUSH2 0x68E JUMP JUMPDEST DUP3 MSTORE POP POP JUMP JUMPDEST PUSH2 0x59E DUP2 PUSH2 0x6E4 JUMP JUMPDEST DUP3 MSTORE POP POP JUMP JUMPDEST PUSH2 0x5AD DUP2 PUSH2 0x6DA JUMP JUMPDEST DUP3 MSTORE POP POP JUMP JUMPDEST PUSH1 0x0 PUSH1 0x20 DUP3 ADD SWAP1 POP PUSH2 0x5C8 PUSH1 0x0 DUP4 ADD DUP5 PUSH2 0x586 JUMP JUMPDEST SWAP3 SWAP2 POP POP JUMP JUMPDEST PUSH1 0x0 PUSH1 0x40 DUP3 ADD SWAP1 POP PUSH2 0x5E3 PUSH1 0x0 DUP4 ADD DUP6 PUSH2 0x586 JUMP JUMPDEST PUSH2 0x5F0 PUSH1 0x20 DUP4 ADD DUP5 PUSH2 0x5A4 JUMP JUMPDEST SWAP4 SWAP3 POP POP POP JUMP JUMPDEST PUSH1 0x0 PUSH1 0x60 DUP3 ADD SWAP1 POP PUSH2 0x60C PUSH1 0x0 DUP4 ADD DUP7 PUSH2 0x586 JUMP JUMPDEST PUSH2 0x619 PUSH1 0x20 DUP4 ADD DUP6 PUSH2 0x5A4 JUMP JUMPDEST PUSH2 0x626 PUSH1 0x40 DUP4 ADD DUP5 PUSH2 0x586 JUMP JUMPDEST SWAP5 SWAP4 POP POP POP POP JUMP JUMPDEST PUSH1 0x0 PUSH1 0x80 DUP3 ADD SWAP1 POP PUSH2 0x643 PUSH1 0x0 DUP4 ADD DUP8 PUSH2 0x586 JUMP JUMPDEST PUSH2 0x650 PUSH1 0x20 DUP4 ADD DUP7 PUSH2 0x5A4 JUMP JUMPDEST PUSH2 0x65D PUSH1 0x40 DUP4 ADD DUP6 PUSH2 0x586 JUMP JUMPDEST PUSH2 0x66A PUSH1 0x60 DUP4 ADD DUP5 PUSH2 0x595 JUMP JUMPDEST SWAP6 SWAP5 POP POP POP POP POP JUMP JUMPDEST PUSH1 0x0 PUSH1 0x20 DUP3 ADD SWAP1 POP PUSH2 0x688 PUSH1 0x0 DUP4 ADD DUP5 PUSH2 0x5A4 JUMP JUMPDEST SWAP3 SWAP2 POP POP JUMP JUMPDEST PUSH1 0x0 PUSH2 0x699 DUP3 PUSH2 0x6BA JUMP JUMPDEST SWAP1 POP SWAP2 SWAP1 POP JUMP JUMPDEST PUSH1 0x0 DUP2 ISZERO ISZERO SWAP1 POP SWAP2 SWAP1 POP JUMP JUMPDEST PUSH1 0x0 PUSH2 0xFFFF DUP3 AND SWAP1 POP SWAP2 SWAP1 POP JUMP JUMPDEST PUSH1 0x0 PUSH20 0xFFFFFFFFFFFFFFFFFFFFFFFFFFFFFFFFFFFFFFFF DUP3 AND SWAP1 POP SWAP2 SWAP1 POP JUMP JUMPDEST PUSH1 0x0 DUP2 SWAP1 POP SWAP2 SWAP1 POP JUMP JUMPDEST PUSH1 0x0 PUSH2 0x6EF DUP3 PUSH2 0x6AC JUMP JUMPDEST SWAP1 POP SWAP2 SWAP1 POP JUMP JUMPDEST PUSH1 0x0 DUP1 REVERT JUMPDEST PUSH2 0x704 DUP2 PUSH2 0x68E JUMP JUMPDEST DUP2 EQ PUSH2 0x70F JUMPI PUSH1 0x0 DUP1 REVERT JUMPDEST POP JUMP JUMPDEST PUSH2 0x71B DUP2 PUSH2 0x6A0 JUMP JUMPDEST DUP2 EQ PUSH2 0x726 JUMPI PUSH1 0x0 DUP1 REVERT JUMPDEST POP JUMP JUMPDEST PUSH2 0x732 DUP2 PUSH2 0x6DA JUMP JUMPDEST DUP2 EQ PUSH2 0x73D JUMPI PUSH1 0x0 DUP1 REVERT JUMPDEST POP JUMP INVALID LOG2 PUSH5 0x6970667358 0x22 SLT KECCAK256 DUP4 SUB KECCAK256 0xAC ISZERO LOG4 DUP3 COINBASE PUSH7 0x513174210906E ADD 0xD5 0x22 MLOAD 0xA6 BALANCE OR SWAP7 DUP6 0xA7 ADDRESS PUSH25 0xB68B8AA64736F6C6343000807003300000000000000000000 "
				},
				"gasEstimates": {
					"creation": {
						"codeDepositCost": "382000",
						"executionCost": "24685",
						"totalCost": "406685"
					},
					"external": {
						"depositERC20(address,uint256,address)": "infinite",
						"depositEther(address)": "infinite",
						"getBalance(address,address)": "infinite",
						"withdraw(address,uint256,address)": "infinite"
					}
				},
				"methodIdentifiers": {
					"depositERC20(address,uint256,address)": "1828686a",
					"depositEther(address)": "52802121",
					"getBalance(address,address)": "d4fac45d",
					"withdraw(address,uint256,address)": "69328dec"
				}
			},
			"storageLayout": {
				"storage": [
					{
						"astId": 53,
						"contract": "Aave.sol:AaveImplementation",
						"label": "aave",
						"offset": 0,
						"slot": "0",
						"type": "t_contract(IAaveV2)50"
					}
				],
				"types": {
					"t_contract(IAaveV2)50": {
						"encoding": "inplace",
						"label": "contract IAaveV2",
						"numberOfBytes": "20"
					}
				}
			},
			"userdoc": {
				"kind": "user",
				"methods": {},
				"version": 1
			}
		}
	}
}