{
	"test.sol": {
		"test": {
			"abi": [
				{
					"inputs": [],
					"stateMutability": "nonpayable",
					"type": "constructor"
				},
				{
					"anonymous": false,
					"inputs": [
						{
							"indexed": false,
							"internalType": "address",
							"name": "owner",
							"type": "address"
						},
						{
							"indexed": false,
							"internalType": "address",
							"name": "receiver",
							"type": "address"
						},
						{
							"indexed": false,
							"internalType": "uint256",
							"name": "amount",
							"type": "uint256"
						}
					],
					"name": "Approval",
					"type": "event"
				},
				{
					"anonymous": false,
					"inputs": [
						{
							"indexed": false,
							"internalType": "address",
							"name": "owner",
							"type": "address"
						},
						{
							"indexed": false,
							"internalType": "address",
							"name": "receiver",
							"type": "address"
						},
						{
							"indexed": false,
							"internalType": "uint256",
							"name": "amount",
							"type": "uint256"
						}
					],
					"name": "Transfer",
					"type": "event"
				},
				{
					"anonymous": false,
					"inputs": [
						{
							"indexed": false,
							"internalType": "address",
							"name": "owner",
							"type": "address"
						}
					],
					"name": "viewowner",
					"type": "event"
				},
				{
					"inputs": [
						{
							"internalType": "address",
							"name": "owner",
							"type": "address"
						},
						{
							"internalType": "address",
							"name": "receiver",
							"type": "address"
						}
					],
					"name": "allowance",
					"outputs": [
						{
							"internalType": "uint256",
							"name": "",
							"type": "uint256"
						}
					],
					"stateMutability": "view",
					"type": "function"
				},
				{
					"inputs": [
						{
							"internalType": "address",
							"name": "receiver",
							"type": "address"
						},
						{
							"internalType": "uint256",
							"name": "amount",
							"type": "uint256"
						}
					],
					"name": "approve",
					"outputs": [
						{
							"internalType": "bool",
							"name": "",
							"type": "bool"
						}
					],
					"stateMutability": "nonpayable",
					"type": "function"
				},
				{
					"inputs": [
						{
							"internalType": "address",
							"name": "account",
							"type": "address"
						}
					],
					"name": "balanceOf",
					"outputs": [
						{
							"internalType": "uint256",
							"name": "",
							"type": "uint256"
						}
					],
					"stateMutability": "view",
					"type": "function"
				},
				{
					"inputs": [
						{
							"internalType": "uint256",
							"name": "_amount",
							"type": "uint256"
						}
					],
					"name": "buy",
					"outputs": [],
					"stateMutability": "payable",
					"type": "function"
				},
				{
					"inputs": [],
					"name": "decimal",
					"outputs": [
						{
							"internalType": "uint256",
							"name": "",
							"type": "uint256"
						}
					],
					"stateMutability": "view",
					"type": "function"
				},
				{
					"inputs": [],
					"name": "name",
					"outputs": [
						{
							"internalType": "string",
							"name": "",
							"type": "string"
						}
					],
					"stateMutability": "view",
					"type": "function"
				},
				{
					"inputs": [],
					"name": "symbol",
					"outputs": [
						{
							"internalType": "string",
							"name": "",
							"type": "string"
						}
					],
					"stateMutability": "view",
					"type": "function"
				},
				{
					"inputs": [],
					"name": "totalSupply",
					"outputs": [
						{
							"internalType": "uint256",
							"name": "",
							"type": "uint256"
						}
					],
					"stateMutability": "view",
					"type": "function"
				},
				{
					"inputs": [
						{
							"internalType": "address",
							"name": "receiver",
							"type": "address"
						},
						{
							"internalType": "uint256",
							"name": "amount",
							"type": "uint256"
						}
					],
					"name": "transfer",
					"outputs": [
						{
							"internalType": "bool",
							"name": "",
							"type": "bool"
						}
					],
					"stateMutability": "nonpayable",
					"type": "function"
				},
				{
					"inputs": [
						{
							"internalType": "address",
							"name": "owner",
							"type": "address"
						},
						{
							"internalType": "address",
							"name": "receiver",
							"type": "address"
						},
						{
							"internalType": "uint256",
							"name": "amount",
							"type": "uint256"
						}
					],
					"name": "transferFrom",
					"outputs": [
						{
							"internalType": "bool",
							"name": "",
							"type": "bool"
						}
					],
					"stateMutability": "nonpayable",
					"type": "function"
				}
			],
			"devdoc": {
				"kind": "dev",
				"methods": {},
				"version": 1
			},
			"evm": {
				"assembly": "    /* \"test.sol\":733:3573  contract test is IERC20... */\n  mstore(0x40, 0x80)\n    /* \"test.sol\":1036:1415  constructor()... */\n  callvalue\n  dup1\n  iszero\n  tag_1\n  jumpi\n  0x00\n  dup1\n  revert\ntag_1:\n  pop\n    /* \"test.sol\":1066:1083  name = \"Solidity\" */\n  mload(0x40)\n  dup1\n  0x40\n  add\n  0x40\n  mstore\n  dup1\n  0x08\n  dup2\n  mstore\n  0x20\n  add\n  0x536f6c6964697479000000000000000000000000000000000000000000000000\n  dup2\n  mstore\n  pop\n    /* \"test.sol\":1066:1070  name */\n  0x00\n    /* \"test.sol\":1066:1083  name = \"Solidity\" */\n  swap1\n  dup2\n  tag_4\n  swap2\n  swap1\n  tag_5\n  jump\t// in\ntag_4:\n  pop\n    /* \"test.sol\":1094:1109  symbol = \"SLDT\" */\n  mload(0x40)\n  dup1\n  0x40\n  add\n  0x40\n  mstore\n  dup1\n  0x04\n  dup2\n  mstore\n  0x20\n  add\n  0x534c445400000000000000000000000000000000000000000000000000000000\n  dup2\n  mstore\n  pop\n    /* \"test.sol\":1094:1100  symbol */\n  0x01\n    /* \"test.sol\":1094:1109  symbol = \"SLDT\" */\n  swap1\n  dup2\n  tag_6\n  swap2\n  swap1\n  tag_5\n  jump\t// in\ntag_6:\n  pop\n    /* \"test.sol\":1130:1132  18 */\n  0x12\n    /* \"test.sol\":1120:1127  decimal */\n  0x02\n    /* \"test.sol\":1120:1132  decimal = 18 */\n  dup2\n  swap1\n  sstore\n  pop\n    /* \"test.sol\":1155:1165  msg.sender */\n  caller\n    /* \"test.sol\":1145:1152  acOwner */\n  0x03\n  0x00\n    /* \"test.sol\":1145:1165  acOwner = msg.sender */\n  0x0100\n  exp\n  dup2\n  sload\n  dup2\n  0xffffffffffffffffffffffffffffffffffffffff\n  mul\n  not\n  and\n  swap1\n  dup4\n  0xffffffffffffffffffffffffffffffffffffffff\n  and\n  mul\n  or\n  swap1\n  sstore\n  pop\n    /* \"test.sol\":1195:1202  acOwner */\n  0x03\n  0x00\n  swap1\n  sload\n  swap1\n  0x0100\n  exp\n  swap1\n  div\n  0xffffffffffffffffffffffffffffffffffffffff\n  and\n    /* \"test.sol\":1195:1210  acOwner.balance */\n  0xffffffffffffffffffffffffffffffffffffffff\n  and\n  balance\n    /* \"test.sol\":1176:1185  acBalance */\n  0x05\n    /* \"test.sol\":1176:1194  acBalance[acOwner] */\n  0x00\n    /* \"test.sol\":1186:1193  acOwner */\n  0x03\n  0x00\n  swap1\n  sload\n  swap1\n  0x0100\n  exp\n  swap1\n  div\n  0xffffffffffffffffffffffffffffffffffffffff\n  and\n    /* \"test.sol\":1176:1194  acBalance[acOwner] */\n  0xffffffffffffffffffffffffffffffffffffffff\n  and\n  0xffffffffffffffffffffffffffffffffffffffff\n  and\n  dup2\n  mstore\n  0x20\n  add\n  swap1\n  dup2\n  mstore\n  0x20\n  add\n  0x00\n  keccak256\n    /* \"test.sol\":1176:1210  acBalance[acOwner]=acOwner.balance */\n  dup2\n  swap1\n  sstore\n  pop\n    /* \"test.sol\":1251:1258  decimal */\n  sload(0x02)\n    /* \"test.sol\":1245:1247  10 */\n  0x0a\n    /* \"test.sol\":1245:1258  10 ** decimal */\n  tag_7\n  swap2\n  swap1\n  tag_8\n  jump\t// in\ntag_7:\n    /* \"test.sol\":1238:1242  1000 */\n  0x03e8\n    /* \"test.sol\":1238:1258  1000 * 10 ** decimal */\n  tag_9\n  swap2\n  swap1\n  tag_10\n  jump\t// in\ntag_9:\n    /* \"test.sol\":1223:1235  total_Supply */\n  0x04\n    /* \"test.sol\":1223:1258  total_Supply = 1000 * 10 ** decimal */\n  dup2\n  swap1\n  sstore\n  pop\n    /* \"test.sol\":1395:1407  total_Supply */\n  sload(0x04)\n    /* \"test.sol\":1375:1382  balance */\n  0x06\n    /* \"test.sol\":1375:1394  balance[msg.sender] */\n  0x00\n    /* \"test.sol\":1383:1393  msg.sender */\n  caller\n    /* \"test.sol\":1375:1394  balance[msg.sender] */\n  0xffffffffffffffffffffffffffffffffffffffff\n  and\n  0xffffffffffffffffffffffffffffffffffffffff\n  and\n  dup2\n  mstore\n  0x20\n  add\n  swap1\n  dup2\n  mstore\n  0x20\n  add\n  0x00\n  keccak256\n    /* \"test.sol\":1375:1407  balance[msg.sender]=total_Supply */\n  dup2\n  swap1\n  sstore\n  pop\n    /* \"test.sol\":733:3573  contract test is IERC20... */\n  jump(tag_11)\n    /* \"#utility.yul\":7:106   */\ntag_12:\n    /* \"#utility.yul\":59:65   */\n  0x00\n    /* \"#utility.yul\":93:98   */\n  dup2\n    /* \"#utility.yul\":87:99   */\n  mload\n    /* \"#utility.yul\":77:99   */\n  swap1\n  pop\n    /* \"#utility.yul\":7:106   */\n  swap2\n  swap1\n  pop\n  jump\t// out\n    /* \"#utility.yul\":112:292   */\ntag_13:\n    /* \"#utility.yul\":160:237   */\n  0x4e487b7100000000000000000000000000000000000000000000000000000000\n    /* \"#utility.yul\":157:158   */\n  0x00\n    /* \"#utility.yul\":150:238   */\n  mstore\n    /* \"#utility.yul\":257:261   */\n  0x41\n    /* \"#utility.yul\":254:255   */\n  0x04\n    /* \"#utility.yul\":247:262   */\n  mstore\n    /* \"#utility.yul\":281:285   */\n  0x24\n    /* \"#utility.yul\":278:279   */\n  0x00\n    /* \"#utility.yul\":271:286   */\n  revert\n    /* \"#utility.yul\":298:478   */\ntag_14:\n    /* \"#utility.yul\":346:423   */\n  0x4e487b7100000000000000000000000000000000000000000000000000000000\n    /* \"#utility.yul\":343:344   */\n  0x00\n    /* \"#utility.yul\":336:424   */\n  mstore\n    /* \"#utility.yul\":443:447   */\n  0x22\n    /* \"#utility.yul\":440:441   */\n  0x04\n    /* \"#utility.yul\":433:448   */\n  mstore\n    /* \"#utility.yul\":467:471   */\n  0x24\n    /* \"#utility.yul\":464:465   */\n  0x00\n    /* \"#utility.yul\":457:472   */\n  revert\n    /* \"#utility.yul\":484:804   */\ntag_15:\n    /* \"#utility.yul\":528:534   */\n  0x00\n    /* \"#utility.yul\":565:566   */\n  0x02\n    /* \"#utility.yul\":559:563   */\n  dup3\n    /* \"#utility.yul\":555:567   */\n  div\n    /* \"#utility.yul\":545:567   */\n  swap1\n  pop\n    /* \"#utility.yul\":612:613   */\n  0x01\n    /* \"#utility.yul\":606:610   */\n  dup3\n    /* \"#utility.yul\":602:614   */\n  and\n    /* \"#utility.yul\":633:651   */\n  dup1\n    /* \"#utility.yul\":623:704   */\n  tag_41\n  jumpi\n    /* \"#utility.yul\":689:693   */\n  0x7f\n    /* \"#utility.yul\":681:687   */\n  dup3\n    /* \"#utility.yul\":677:694   */\n  and\n    /* \"#utility.yul\":667:694   */\n  swap2\n  pop\n    /* \"#utility.yul\":623:704   */\ntag_41:\n    /* \"#utility.yul\":751:753   */\n  0x20\n    /* \"#utility.yul\":743:749   */\n  dup3\n    /* \"#utility.yul\":740:754   */\n  lt\n    /* \"#utility.yul\":720:738   */\n  dup2\n    /* \"#utility.yul\":717:755   */\n  sub\n    /* \"#utility.yul\":714:798   */\n  tag_42\n  jumpi\n    /* \"#utility.yul\":770:788   */\n  tag_43\n  tag_14\n  jump\t// in\ntag_43:\n    /* \"#utility.yul\":714:798   */\ntag_42:\n    /* \"#utility.yul\":535:804   */\n  pop\n    /* \"#utility.yul\":484:804   */\n  swap2\n  swap1\n  pop\n  jump\t// out\n    /* \"#utility.yul\":810:951   */\ntag_16:\n    /* \"#utility.yul\":859:863   */\n  0x00\n    /* \"#utility.yul\":882:885   */\n  dup2\n    /* \"#utility.yul\":874:885   */\n  swap1\n  pop\n    /* \"#utility.yul\":905:908   */\n  dup2\n    /* \"#utility.yul\":902:903   */\n  0x00\n    /* \"#utility.yul\":895:909   */\n  mstore\n    /* \"#utility.yul\":939:943   */\n  0x20\n    /* \"#utility.yul\":936:937   */\n  0x00\n    /* \"#utility.yul\":926:944   */\n  keccak256\n    /* \"#utility.yul\":918:944   */\n  swap1\n  pop\n    /* \"#utility.yul\":810:951   */\n  swap2\n  swap1\n  pop\n  jump\t// out\n    /* \"#utility.yul\":957:1050   */\ntag_17:\n    /* \"#utility.yul\":994:1000   */\n  0x00\n    /* \"#utility.yul\":1041:1043   */\n  0x20\n    /* \"#utility.yul\":1036:1038   */\n  0x1f\n    /* \"#utility.yul\":1029:1034   */\n  dup4\n    /* \"#utility.yul\":1025:1039   */\n  add\n    /* \"#utility.yul\":1021:1044   */\n  div\n    /* \"#utility.yul\":1011:1044   */\n  swap1\n  pop\n    /* \"#utility.yul\":957:1050   */\n  swap2\n  swap1\n  pop\n  jump\t// out\n    /* \"#utility.yul\":1056:1163   */\ntag_18:\n    /* \"#utility.yul\":1100:1108   */\n  0x00\n    /* \"#utility.yul\":1150:1155   */\n  dup3\n    /* \"#utility.yul\":1144:1148   */\n  dup3\n    /* \"#utility.yul\":1140:1156   */\n  shl\n    /* \"#utility.yul\":1119:1156   */\n  swap1\n  pop\n    /* \"#utility.yul\":1056:1163   */\n  swap3\n  swap2\n  pop\n  pop\n  jump\t// out\n    /* \"#utility.yul\":1169:1562   */\ntag_19:\n    /* \"#utility.yul\":1238:1244   */\n  0x00\n    /* \"#utility.yul\":1288:1289   */\n  0x08\n    /* \"#utility.yul\":1276:1286   */\n  dup4\n    /* \"#utility.yul\":1272:1290   */\n  mul\n    /* \"#utility.yul\":1311:1408   */\n  tag_48\n    /* \"#utility.yul\":1341:1407   */\n  0xffffffffffffffffffffffffffffffffffffffffffffffffffffffffffffffff\n    /* \"#utility.yul\":1330:1339   */\n  dup3\n    /* \"#utility.yul\":1311:1408   */\n  tag_18\n  jump\t// in\ntag_48:\n    /* \"#utility.yul\":1429:1468   */\n  tag_49\n    /* \"#utility.yul\":1459:1467   */\n  dup7\n    /* \"#utility.yul\":1448:1457   */\n  dup4\n    /* \"#utility.yul\":1429:1468   */\n  tag_18\n  jump\t// in\ntag_49:\n    /* \"#utility.yul\":1417:1468   */\n  swap6\n  pop\n    /* \"#utility.yul\":1501:1505   */\n  dup1\n    /* \"#utility.yul\":1497:1506   */\n  not\n    /* \"#utility.yul\":1490:1495   */\n  dup5\n    /* \"#utility.yul\":1486:1507   */\n  and\n    /* \"#utility.yul\":1477:1507   */\n  swap4\n  pop\n    /* \"#utility.yul\":1550:1554   */\n  dup1\n    /* \"#utility.yul\":1540:1548   */\n  dup7\n    /* \"#utility.yul\":1536:1555   */\n  and\n    /* \"#utility.yul\":1529:1534   */\n  dup5\n    /* \"#utility.yul\":1526:1556   */\n  or\n    /* \"#utility.yul\":1516:1556   */\n  swap3\n  pop\n    /* \"#utility.yul\":1245:1562   */\n  pop\n  pop\n    /* \"#utility.yul\":1169:1562   */\n  swap4\n  swap3\n  pop\n  pop\n  pop\n  jump\t// out\n    /* \"#utility.yul\":1568:1645   */\ntag_20:\n    /* \"#utility.yul\":1605:1612   */\n  0x00\n    /* \"#utility.yul\":1634:1639   */\n  dup2\n    /* \"#utility.yul\":1623:1639   */\n  swap1\n  pop\n    /* \"#utility.yul\":1568:1645   */\n  swap2\n  swap1\n  pop\n  jump\t// out\n    /* \"#utility.yul\":1651:1711   */\ntag_21:\n    /* \"#utility.yul\":1679:1682   */\n  0x00\n    /* \"#utility.yul\":1700:1705   */\n  dup2\n    /* \"#utility.yul\":1693:1705   */\n  swap1\n  pop\n    /* \"#utility.yul\":1651:1711   */\n  swap2\n  swap1\n  pop\n  jump\t// out\n    /* \"#utility.yul\":1717:1859   */\ntag_22:\n    /* \"#utility.yul\":1767:1776   */\n  0x00\n    /* \"#utility.yul\":1800:1853   */\n  tag_53\n    /* \"#utility.yul\":1818:1852   */\n  tag_54\n    /* \"#utility.yul\":1827:1851   */\n  tag_55\n    /* \"#utility.yul\":1845:1850   */\n  dup5\n    /* \"#utility.yul\":1827:1851   */\n  tag_20\n  jump\t// in\ntag_55:\n    /* \"#utility.yul\":1818:1852   */\n  tag_21\n  jump\t// in\ntag_54:\n    /* \"#utility.yul\":1800:1853   */\n  tag_20\n  jump\t// in\ntag_53:\n    /* \"#utility.yul\":1787:1853   */\n  swap1\n  pop\n    /* \"#utility.yul\":1717:1859   */\n  swap2\n  swap1\n  pop\n  jump\t// out\n    /* \"#utility.yul\":1865:1940   */\ntag_23:\n    /* \"#utility.yul\":1908:1911   */\n  0x00\n    /* \"#utility.yul\":1929:1934   */\n  dup2\n    /* \"#utility.yul\":1922:1934   */\n  swap1\n  pop\n    /* \"#utility.yul\":1865:1940   */\n  swap2\n  swap1\n  pop\n  jump\t// out\n    /* \"#utility.yul\":1946:2215   */\ntag_24:\n    /* \"#utility.yul\":2056:2095   */\n  tag_58\n    /* \"#utility.yul\":2087:2094   */\n  dup4\n    /* \"#utility.yul\":2056:2095   */\n  tag_22\n  jump\t// in\ntag_58:\n    /* \"#utility.yul\":2117:2208   */\n  tag_59\n    /* \"#utility.yul\":2166:2207   */\n  tag_60\n    /* \"#utility.yul\":2190:2206   */\n  dup3\n    /* \"#utility.yul\":2166:2207   */\n  tag_23\n  jump\t// in\ntag_60:\n    /* \"#utility.yul\":2158:2164   */\n  dup5\n    /* \"#utility.yul\":2151:2155   */\n  dup5\n    /* \"#utility.yul\":2145:2156   */\n  sload\n    /* \"#utility.yul\":2117:2208   */\n  tag_19\n  jump\t// in\ntag_59:\n    /* \"#utility.yul\":2111:2115   */\n  dup3\n    /* \"#utility.yul\":2104:2209   */\n  sstore\n    /* \"#utility.yul\":2022:2215   */\n  pop\n    /* \"#utility.yul\":1946:2215   */\n  pop\n  pop\n  pop\n  jump\t// out\n    /* \"#utility.yul\":2221:2294   */\ntag_25:\n    /* \"#utility.yul\":2266:2269   */\n  0x00\n    /* \"#utility.yul\":2221:2294   */\n  swap1\n  jump\t// out\n    /* \"#utility.yul\":2300:2489   */\ntag_26:\n    /* \"#utility.yul\":2377:2409   */\n  tag_63\n  tag_25\n  jump\t// in\ntag_63:\n    /* \"#utility.yul\":2418:2483   */\n  tag_64\n    /* \"#utility.yul\":2476:2482   */\n  dup2\n    /* \"#utility.yul\":2468:2474   */\n  dup5\n    /* \"#utility.yul\":2462:2466   */\n  dup5\n    /* \"#utility.yul\":2418:2483   */\n  tag_24\n  jump\t// in\ntag_64:\n    /* \"#utility.yul\":2353:2489   */\n  pop\n    /* \"#utility.yul\":2300:2489   */\n  pop\n  pop\n  jump\t// out\n    /* \"#utility.yul\":2495:2681   */\ntag_27:\n    /* \"#utility.yul\":2555:2675   */\ntag_66:\n    /* \"#utility.yul\":2572:2575   */\n  dup2\n    /* \"#utility.yul\":2565:2570   */\n  dup2\n    /* \"#utility.yul\":2562:2576   */\n  lt\n    /* \"#utility.yul\":2555:2675   */\n  iszero\n  tag_68\n  jumpi\n    /* \"#utility.yul\":2626:2665   */\n  tag_69\n    /* \"#utility.yul\":2663:2664   */\n  0x00\n    /* \"#utility.yul\":2656:2661   */\n  dup3\n    /* \"#utility.yul\":2626:2665   */\n  tag_26\n  jump\t// in\ntag_69:\n    /* \"#utility.yul\":2599:2600   */\n  0x01\n    /* \"#utility.yul\":2592:2597   */\n  dup2\n    /* \"#utility.yul\":2588:2601   */\n  add\n    /* \"#utility.yul\":2579:2601   */\n  swap1\n  pop\n    /* \"#utility.yul\":2555:2675   */\n  jump(tag_66)\ntag_68:\n    /* \"#utility.yul\":2495:2681   */\n  pop\n  pop\n  jump\t// out\n    /* \"#utility.yul\":2687:3230   */\ntag_28:\n    /* \"#utility.yul\":2788:2790   */\n  0x1f\n    /* \"#utility.yul\":2783:2786   */\n  dup3\n    /* \"#utility.yul\":2780:2791   */\n  gt\n    /* \"#utility.yul\":2777:3223   */\n  iszero\n  tag_71\n  jumpi\n    /* \"#utility.yul\":2822:2860   */\n  tag_72\n    /* \"#utility.yul\":2854:2859   */\n  dup2\n    /* \"#utility.yul\":2822:2860   */\n  tag_16\n  jump\t// in\ntag_72:\n    /* \"#utility.yul\":2906:2935   */\n  tag_73\n    /* \"#utility.yul\":2924:2934   */\n  dup5\n    /* \"#utility.yul\":2906:2935   */\n  tag_17\n  jump\t// in\ntag_73:\n    /* \"#utility.yul\":2896:2904   */\n  dup2\n    /* \"#utility.yul\":2892:2936   */\n  add\n    /* \"#utility.yul\":3089:3091   */\n  0x20\n    /* \"#utility.yul\":3077:3087   */\n  dup6\n    /* \"#utility.yul\":3074:3092   */\n  lt\n    /* \"#utility.yul\":3071:3120   */\n  iszero\n  tag_74\n  jumpi\n    /* \"#utility.yul\":3110:3118   */\n  dup2\n    /* \"#utility.yul\":3095:3118   */\n  swap1\n  pop\n    /* \"#utility.yul\":3071:3120   */\ntag_74:\n    /* \"#utility.yul\":3133:3213   */\n  tag_75\n    /* \"#utility.yul\":3189:3211   */\n  tag_76\n    /* \"#utility.yul\":3207:3210   */\n  dup6\n    /* \"#utility.yul\":3189:3211   */\n  tag_17\n  jump\t// in\ntag_76:\n    /* \"#utility.yul\":3179:3187   */\n  dup4\n    /* \"#utility.yul\":3175:3212   */\n  add\n    /* \"#utility.yul\":3162:3173   */\n  dup3\n    /* \"#utility.yul\":3133:3213   */\n  tag_27\n  jump\t// in\ntag_75:\n    /* \"#utility.yul\":2792:3223   */\n  pop\n  pop\n    /* \"#utility.yul\":2777:3223   */\ntag_71:\n    /* \"#utility.yul\":2687:3230   */\n  pop\n  pop\n  pop\n  jump\t// out\n    /* \"#utility.yul\":3236:3353   */\ntag_29:\n    /* \"#utility.yul\":3290:3298   */\n  0x00\n    /* \"#utility.yul\":3340:3345   */\n  dup3\n    /* \"#utility.yul\":3334:3338   */\n  dup3\n    /* \"#utility.yul\":3330:3346   */\n  shr\n    /* \"#utility.yul\":3309:3346   */\n  swap1\n  pop\n    /* \"#utility.yul\":3236:3353   */\n  swap3\n  swap2\n  pop\n  pop\n  jump\t// out\n    /* \"#utility.yul\":3359:3528   */\ntag_30:\n    /* \"#utility.yul\":3403:3409   */\n  0x00\n    /* \"#utility.yul\":3436:3487   */\n  tag_79\n    /* \"#utility.yul\":3484:3485   */\n  0x00\n    /* \"#utility.yul\":3480:3486   */\n  not\n    /* \"#utility.yul\":3472:3477   */\n  dup5\n    /* \"#utility.yul\":3469:3470   */\n  0x08\n    /* \"#utility.yul\":3465:3478   */\n  mul\n    /* \"#utility.yul\":3436:3487   */\n  tag_29\n  jump\t// in\ntag_79:\n    /* \"#utility.yul\":3432:3488   */\n  not\n    /* \"#utility.yul\":3517:3521   */\n  dup1\n    /* \"#utility.yul\":3511:3515   */\n  dup4\n    /* \"#utility.yul\":3507:3522   */\n  and\n    /* \"#utility.yul\":3497:3522   */\n  swap2\n  pop\n    /* \"#utility.yul\":3410:3528   */\n  pop\n    /* \"#utility.yul\":3359:3528   */\n  swap3\n  swap2\n  pop\n  pop\n  jump\t// out\n    /* \"#utility.yul\":3533:3828   */\ntag_31:\n    /* \"#utility.yul\":3609:3613   */\n  0x00\n    /* \"#utility.yul\":3755:3784   */\n  tag_81\n    /* \"#utility.yul\":3780:3783   */\n  dup4\n    /* \"#utility.yul\":3774:3778   */\n  dup4\n    /* \"#utility.yul\":3755:3784   */\n  tag_30\n  jump\t// in\ntag_81:\n    /* \"#utility.yul\":3747:3784   */\n  swap2\n  pop\n    /* \"#utility.yul\":3817:3820   */\n  dup3\n    /* \"#utility.yul\":3814:3815   */\n  0x02\n    /* \"#utility.yul\":3810:3821   */\n  mul\n    /* \"#utility.yul\":3804:3808   */\n  dup3\n    /* \"#utility.yul\":3801:3822   */\n  or\n    /* \"#utility.yul\":3793:3822   */\n  swap1\n  pop\n    /* \"#utility.yul\":3533:3828   */\n  swap3\n  swap2\n  pop\n  pop\n  jump\t// out\n    /* \"#utility.yul\":3833:5228   */\ntag_5:\n    /* \"#utility.yul\":3950:3987   */\n  tag_83\n    /* \"#utility.yul\":3983:3986   */\n  dup3\n    /* \"#utility.yul\":3950:3987   */\n  tag_12\n  jump\t// in\ntag_83:\n    /* \"#utility.yul\":4052:4070   */\n  0xffffffffffffffff\n    /* \"#utility.yul\":4044:4050   */\n  dup2\n    /* \"#utility.yul\":4041:4071   */\n  gt\n    /* \"#utility.yul\":4038:4094   */\n  iszero\n  tag_84\n  jumpi\n    /* \"#utility.yul\":4074:4092   */\n  tag_85\n  tag_13\n  jump\t// in\ntag_85:\n    /* \"#utility.yul\":4038:4094   */\ntag_84:\n    /* \"#utility.yul\":4118:4156   */\n  tag_86\n    /* \"#utility.yul\":4150:4154   */\n  dup3\n    /* \"#utility.yul\":4144:4155   */\n  sload\n    /* \"#utility.yul\":4118:4156   */\n  tag_15\n  jump\t// in\ntag_86:\n    /* \"#utility.yul\":4203:4270   */\n  tag_87\n    /* \"#utility.yul\":4263:4269   */\n  dup3\n    /* \"#utility.yul\":4255:4261   */\n  dup3\n    /* \"#utility.yul\":4249:4253   */\n  dup6\n    /* \"#utility.yul\":4203:4270   */\n  tag_28\n  jump\t// in\ntag_87:\n    /* \"#utility.yul\":4297:4298   */\n  0x00\n    /* \"#utility.yul\":4321:4325   */\n  0x20\n    /* \"#utility.yul\":4308:4325   */\n  swap1\n  pop\n    /* \"#utility.yul\":4353:4355   */\n  0x1f\n    /* \"#utility.yul\":4345:4351   */\n  dup4\n    /* \"#utility.yul\":4342:4356   */\n  gt\n    /* \"#utility.yul\":4370:4371   */\n  0x01\n    /* \"#utility.yul\":4365:4983   */\n  dup2\n  eq\n  tag_89\n  jumpi\n    /* \"#utility.yul\":5027:5028   */\n  0x00\n    /* \"#utility.yul\":5044:5050   */\n  dup5\n    /* \"#utility.yul\":5041:5118   */\n  iszero\n  tag_90\n  jumpi\n    /* \"#utility.yul\":5093:5102   */\n  dup3\n    /* \"#utility.yul\":5088:5091   */\n  dup8\n    /* \"#utility.yul\":5084:5103   */\n  add\n    /* \"#utility.yul\":5078:5104   */\n  mload\n    /* \"#utility.yul\":5069:5104   */\n  swap1\n  pop\n    /* \"#utility.yul\":5041:5118   */\ntag_90:\n    /* \"#utility.yul\":5144:5211   */\n  tag_91\n    /* \"#utility.yul\":5204:5210   */\n  dup6\n    /* \"#utility.yul\":5197:5202   */\n  dup3\n    /* \"#utility.yul\":5144:5211   */\n  tag_31\n  jump\t// in\ntag_91:\n    /* \"#utility.yul\":5138:5142   */\n  dup7\n    /* \"#utility.yul\":5131:5212   */\n  sstore\n    /* \"#utility.yul\":5000:5222   */\n  pop\n    /* \"#utility.yul\":4335:5222   */\n  jump(tag_88)\n    /* \"#utility.yul\":4365:4983   */\ntag_89:\n    /* \"#utility.yul\":4417:4421   */\n  0x1f\n    /* \"#utility.yul\":4413:4422   */\n  not\n    /* \"#utility.yul\":4405:4411   */\n  dup5\n    /* \"#utility.yul\":4401:4423   */\n  and\n    /* \"#utility.yul\":4451:4488   */\n  tag_92\n    /* \"#utility.yul\":4483:4487   */\n  dup7\n    /* \"#utility.yul\":4451:4488   */\n  tag_16\n  jump\t// in\ntag_92:\n    /* \"#utility.yul\":4510:4511   */\n  0x00\n    /* \"#utility.yul\":4524:4732   */\ntag_93:\n    /* \"#utility.yul\":4538:4545   */\n  dup3\n    /* \"#utility.yul\":4535:4536   */\n  dup2\n    /* \"#utility.yul\":4532:4546   */\n  lt\n    /* \"#utility.yul\":4524:4732   */\n  iszero\n  tag_95\n  jumpi\n    /* \"#utility.yul\":4617:4626   */\n  dup5\n    /* \"#utility.yul\":4612:4615   */\n  dup10\n    /* \"#utility.yul\":4608:4627   */\n  add\n    /* \"#utility.yul\":4602:4628   */\n  mload\n    /* \"#utility.yul\":4594:4600   */\n  dup3\n    /* \"#utility.yul\":4587:4629   */\n  sstore\n    /* \"#utility.yul\":4668:4669   */\n  0x01\n    /* \"#utility.yul\":4660:4666   */\n  dup3\n    /* \"#utility.yul\":4656:4670   */\n  add\n    /* \"#utility.yul\":4646:4670   */\n  swap2\n  pop\n    /* \"#utility.yul\":4715:4717   */\n  0x20\n    /* \"#utility.yul\":4704:4713   */\n  dup6\n    /* \"#utility.yul\":4700:4718   */\n  add\n    /* \"#utility.yul\":4687:4718   */\n  swap5\n  pop\n    /* \"#utility.yul\":4561:4565   */\n  0x20\n    /* \"#utility.yul\":4558:4559   */\n  dup2\n    /* \"#utility.yul\":4554:4566   */\n  add\n    /* \"#utility.yul\":4549:4566   */\n  swap1\n  pop\n    /* \"#utility.yul\":4524:4732   */\n  jump(tag_93)\ntag_95:\n    /* \"#utility.yul\":4760:4766   */\n  dup7\n    /* \"#utility.yul\":4751:4758   */\n  dup4\n    /* \"#utility.yul\":4748:4767   */\n  lt\n    /* \"#utility.yul\":4745:4924   */\n  iszero\n  tag_96\n  jumpi\n    /* \"#utility.yul\":4818:4827   */\n  dup5\n    /* \"#utility.yul\":4813:4816   */\n  dup10\n    /* \"#utility.yul\":4809:4828   */\n  add\n    /* \"#utility.yul\":4803:4829   */\n  mload\n    /* \"#utility.yul\":4861:4909   */\n  tag_97\n    /* \"#utility.yul\":4903:4907   */\n  0x1f\n    /* \"#utility.yul\":4895:4901   */\n  dup10\n    /* \"#utility.yul\":4891:4908   */\n  and\n    /* \"#utility.yul\":4880:4889   */\n  dup3\n    /* \"#utility.yul\":4861:4909   */\n  tag_30\n  jump\t// in\ntag_97:\n    /* \"#utility.yul\":4853:4859   */\n  dup4\n    /* \"#utility.yul\":4846:4910   */\n  sstore\n    /* \"#utility.yul\":4768:4924   */\n  pop\n    /* \"#utility.yul\":4745:4924   */\ntag_96:\n    /* \"#utility.yul\":4970:4971   */\n  0x01\n    /* \"#utility.yul\":4966:4967   */\n  0x02\n    /* \"#utility.yul\":4958:4964   */\n  dup9\n    /* \"#utility.yul\":4954:4968   */\n  mul\n    /* \"#utility.yul\":4950:4972   */\n  add\n    /* \"#utility.yul\":4944:4948   */\n  dup9\n    /* \"#utility.yul\":4937:4973   */\n  sstore\n    /* \"#utility.yul\":4372:4983   */\n  pop\n  pop\n  pop\n    /* \"#utility.yul\":4335:5222   */\ntag_88:\n  pop\n    /* \"#utility.yul\":3925:5228   */\n  pop\n  pop\n  pop\n    /* \"#utility.yul\":3833:5228   */\n  pop\n  pop\n  jump\t// out\n    /* \"#utility.yul\":5234:5414   */\ntag_32:\n    /* \"#utility.yul\":5282:5359   */\n  0x4e487b7100000000000000000000000000000000000000000000000000000000\n    /* \"#utility.yul\":5279:5280   */\n  0x00\n    /* \"#utility.yul\":5272:5360   */\n  mstore\n    /* \"#utility.yul\":5379:5383   */\n  0x11\n    /* \"#utility.yul\":5376:5377   */\n  0x04\n    /* \"#utility.yul\":5369:5384   */\n  mstore\n    /* \"#utility.yul\":5403:5407   */\n  0x24\n    /* \"#utility.yul\":5400:5401   */\n  0x00\n    /* \"#utility.yul\":5393:5408   */\n  revert\n    /* \"#utility.yul\":5420:5522   */\ntag_33:\n    /* \"#utility.yul\":5462:5470   */\n  0x00\n    /* \"#utility.yul\":5509:5514   */\n  dup2\n    /* \"#utility.yul\":5506:5507   */\n  0x01\n    /* \"#utility.yul\":5502:5515   */\n  shr\n    /* \"#utility.yul\":5481:5515   */\n  swap1\n  pop\n    /* \"#utility.yul\":5420:5522   */\n  swap2\n  swap1\n  pop\n  jump\t// out\n    /* \"#utility.yul\":5528:6376   */\ntag_34:\n    /* \"#utility.yul\":5589:5594   */\n  0x00\n    /* \"#utility.yul\":5596:5600   */\n  dup1\n    /* \"#utility.yul\":5620:5626   */\n  dup3\n    /* \"#utility.yul\":5611:5626   */\n  swap2\n  pop\n    /* \"#utility.yul\":5644:5649   */\n  dup4\n    /* \"#utility.yul\":5635:5649   */\n  swap1\n  pop\n    /* \"#utility.yul\":5658:6370   */\ntag_101:\n    /* \"#utility.yul\":5679:5680   */\n  0x01\n    /* \"#utility.yul\":5669:5677   */\n  dup6\n    /* \"#utility.yul\":5666:5681   */\n  gt\n    /* \"#utility.yul\":5658:6370   */\n  iszero\n  tag_103\n  jumpi\n    /* \"#utility.yul\":5774:5778   */\n  dup1\n    /* \"#utility.yul\":5769:5772   */\n  dup7\n    /* \"#utility.yul\":5765:5779   */\n  div\n    /* \"#utility.yul\":5759:5763   */\n  dup2\n    /* \"#utility.yul\":5756:5780   */\n  gt\n    /* \"#utility.yul\":5753:5803   */\n  iszero\n  tag_104\n  jumpi\n    /* \"#utility.yul\":5783:5801   */\n  tag_105\n  tag_32\n  jump\t// in\ntag_105:\n    /* \"#utility.yul\":5753:5803   */\ntag_104:\n    /* \"#utility.yul\":5833:5834   */\n  0x01\n    /* \"#utility.yul\":5823:5831   */\n  dup6\n    /* \"#utility.yul\":5819:5835   */\n  and\n    /* \"#utility.yul\":5816:6267   */\n  iszero\n  tag_106\n  jumpi\n    /* \"#utility.yul\":6248:6252   */\n  dup1\n    /* \"#utility.yul\":6241:6246   */\n  dup3\n    /* \"#utility.yul\":6237:6253   */\n  mul\n    /* \"#utility.yul\":6228:6253   */\n  swap2\n  pop\n    /* \"#utility.yul\":5816:6267   */\ntag_106:\n    /* \"#utility.yul\":6298:6302   */\n  dup1\n    /* \"#utility.yul\":6292:6296   */\n  dup2\n    /* \"#utility.yul\":6288:6303   */\n  mul\n    /* \"#utility.yul\":6280:6303   */\n  swap1\n  pop\n    /* \"#utility.yul\":6328:6360   */\n  tag_107\n    /* \"#utility.yul\":6351:6359   */\n  dup6\n    /* \"#utility.yul\":6328:6360   */\n  tag_33\n  jump\t// in\ntag_107:\n    /* \"#utility.yul\":6316:6360   */\n  swap5\n  pop\n    /* \"#utility.yul\":5658:6370   */\n  jump(tag_101)\ntag_103:\n    /* \"#utility.yul\":5528:6376   */\n  swap5\n  pop\n  swap5\n  swap3\n  pop\n  pop\n  pop\n  jump\t// out\n    /* \"#utility.yul\":6382:7455   */\ntag_35:\n    /* \"#utility.yul\":6436:6441   */\n  0x00\n    /* \"#utility.yul\":6627:6635   */\n  dup3\n    /* \"#utility.yul\":6617:6657   */\n  tag_109\n  jumpi\n    /* \"#utility.yul\":6648:6649   */\n  0x01\n    /* \"#utility.yul\":6639:6649   */\n  swap1\n  pop\n    /* \"#utility.yul\":6650:6655   */\n  jump(tag_108)\n    /* \"#utility.yul\":6617:6657   */\ntag_109:\n    /* \"#utility.yul\":6676:6680   */\n  dup2\n    /* \"#utility.yul\":6666:6702   */\n  tag_110\n  jumpi\n    /* \"#utility.yul\":6693:6694   */\n  0x00\n    /* \"#utility.yul\":6684:6694   */\n  swap1\n  pop\n    /* \"#utility.yul\":6695:6700   */\n  jump(tag_108)\n    /* \"#utility.yul\":6666:6702   */\ntag_110:\n    /* \"#utility.yul\":6762:6766   */\n  dup2\n    /* \"#utility.yul\":6810:6811   */\n  0x01\n    /* \"#utility.yul\":6805:6832   */\n  dup2\n  eq\n  tag_112\n  jumpi\n    /* \"#utility.yul\":6846:6847   */\n  0x02\n    /* \"#utility.yul\":6841:7032   */\n  dup2\n  eq\n  tag_113\n  jumpi\n    /* \"#utility.yul\":6755:7032   */\n  jump(tag_111)\n    /* \"#utility.yul\":6805:6832   */\ntag_112:\n    /* \"#utility.yul\":6823:6824   */\n  0x01\n    /* \"#utility.yul\":6814:6824   */\n  swap2\n  pop\n    /* \"#utility.yul\":6825:6830   */\n  pop\n  jump(tag_108)\n    /* \"#utility.yul\":6841:7032   */\ntag_113:\n    /* \"#utility.yul\":6886:6889   */\n  0xff\n    /* \"#utility.yul\":6876:6884   */\n  dup5\n    /* \"#utility.yul\":6873:6890   */\n  gt\n    /* \"#utility.yul\":6870:6913   */\n  iszero\n  tag_114\n  jumpi\n    /* \"#utility.yul\":6893:6911   */\n  tag_115\n  tag_32\n  jump\t// in\ntag_115:\n    /* \"#utility.yul\":6870:6913   */\ntag_114:\n    /* \"#utility.yul\":6942:6950   */\n  dup4\n    /* \"#utility.yul\":6939:6940   */\n  0x02\n    /* \"#utility.yul\":6935:6951   */\n  exp\n    /* \"#utility.yul\":6926:6951   */\n  swap2\n  pop\n    /* \"#utility.yul\":6977:6980   */\n  dup5\n    /* \"#utility.yul\":6970:6975   */\n  dup3\n    /* \"#utility.yul\":6967:6981   */\n  gt\n    /* \"#utility.yul\":6964:7004   */\n  iszero\n  tag_116\n  jumpi\n    /* \"#utility.yul\":6984:7002   */\n  tag_117\n  tag_32\n  jump\t// in\ntag_117:\n    /* \"#utility.yul\":6964:7004   */\ntag_116:\n    /* \"#utility.yul\":7017:7022   */\n  pop\n  jump(tag_108)\n    /* \"#utility.yul\":6755:7032   */\ntag_111:\n  pop\n    /* \"#utility.yul\":7141:7143   */\n  0x20\n    /* \"#utility.yul\":7131:7139   */\n  dup4\n    /* \"#utility.yul\":7128:7144   */\n  lt\n    /* \"#utility.yul\":7122:7125   */\n  0x0133\n    /* \"#utility.yul\":7116:7120   */\n  dup4\n    /* \"#utility.yul\":7113:7126   */\n  lt\n    /* \"#utility.yul\":7109:7145   */\n  and\n    /* \"#utility.yul\":7091:7093   */\n  0x4e\n    /* \"#utility.yul\":7081:7089   */\n  dup5\n    /* \"#utility.yul\":7078:7094   */\n  lt\n    /* \"#utility.yul\":7073:7075   */\n  0x0b\n    /* \"#utility.yul\":7067:7071   */\n  dup5\n    /* \"#utility.yul\":7064:7076   */\n  lt\n    /* \"#utility.yul\":7060:7095   */\n  and\n    /* \"#utility.yul\":7044:7155   */\n  or\n    /* \"#utility.yul\":7041:7287   */\n  iszero\n  tag_118\n  jumpi\n    /* \"#utility.yul\":7197:7205   */\n  dup3\n    /* \"#utility.yul\":7191:7195   */\n  dup3\n    /* \"#utility.yul\":7187:7206   */\n  exp\n    /* \"#utility.yul\":7178:7206   */\n  swap1\n  pop\n    /* \"#utility.yul\":7232:7235   */\n  dup4\n    /* \"#utility.yul\":7225:7230   */\n  dup2\n    /* \"#utility.yul\":7222:7236   */\n  gt\n    /* \"#utility.yul\":7219:7259   */\n  iszero\n  tag_119\n  jumpi\n    /* \"#utility.yul\":7239:7257   */\n  tag_120\n  tag_32\n  jump\t// in\ntag_120:\n    /* \"#utility.yul\":7219:7259   */\ntag_119:\n    /* \"#utility.yul\":7272:7277   */\n  jump(tag_108)\n    /* \"#utility.yul\":7041:7287   */\ntag_118:\n    /* \"#utility.yul\":7312:7354   */\n  tag_121\n    /* \"#utility.yul\":7350:7353   */\n  dup5\n    /* \"#utility.yul\":7340:7348   */\n  dup5\n    /* \"#utility.yul\":7334:7338   */\n  dup5\n    /* \"#utility.yul\":7331:7332   */\n  0x01\n    /* \"#utility.yul\":7312:7354   */\n  tag_34\n  jump\t// in\ntag_121:\n    /* \"#utility.yul\":7297:7354   */\n  swap3\n  pop\n  swap1\n  pop\n    /* \"#utility.yul\":7386:7390   */\n  dup2\n    /* \"#utility.yul\":7381:7384   */\n  dup5\n    /* \"#utility.yul\":7377:7391   */\n  div\n    /* \"#utility.yul\":7370:7375   */\n  dup2\n    /* \"#utility.yul\":7367:7392   */\n  gt\n    /* \"#utility.yul\":7364:7415   */\n  iszero\n  tag_122\n  jumpi\n    /* \"#utility.yul\":7395:7413   */\n  tag_123\n  tag_32\n  jump\t// in\ntag_123:\n    /* \"#utility.yul\":7364:7415   */\ntag_122:\n    /* \"#utility.yul\":7444:7448   */\n  dup2\n    /* \"#utility.yul\":7437:7442   */\n  dup2\n    /* \"#utility.yul\":7433:7449   */\n  mul\n    /* \"#utility.yul\":7424:7449   */\n  swap1\n  pop\n    /* \"#utility.yul\":6382:7455   */\ntag_108:\n  swap4\n  swap3\n  pop\n  pop\n  pop\n  jump\t// out\n    /* \"#utility.yul\":7461:7746   */\ntag_8:\n    /* \"#utility.yul\":7521:7526   */\n  0x00\n    /* \"#utility.yul\":7545:7568   */\n  tag_125\n    /* \"#utility.yul\":7563:7567   */\n  dup3\n    /* \"#utility.yul\":7545:7568   */\n  tag_20\n  jump\t// in\ntag_125:\n    /* \"#utility.yul\":7537:7568   */\n  swap2\n  pop\n    /* \"#utility.yul\":7589:7616   */\n  tag_126\n    /* \"#utility.yul\":7607:7615   */\n  dup4\n    /* \"#utility.yul\":7589:7616   */\n  tag_20\n  jump\t// in\ntag_126:\n    /* \"#utility.yul\":7577:7616   */\n  swap3\n  pop\n    /* \"#utility.yul\":7635:7739   */\n  tag_127\n    /* \"#utility.yul\":7672:7738   */\n  0xffffffffffffffffffffffffffffffffffffffffffffffffffffffffffffffff\n    /* \"#utility.yul\":7662:7670   */\n  dup5\n    /* \"#utility.yul\":7656:7660   */\n  dup5\n    /* \"#utility.yul\":7635:7739   */\n  tag_35\n  jump\t// in\ntag_127:\n    /* \"#utility.yul\":7626:7739   */\n  swap1\n  pop\n    /* \"#utility.yul\":7461:7746   */\n  swap3\n  swap2\n  pop\n  pop\n  jump\t// out\n    /* \"#utility.yul\":7752:8162   */\ntag_10:\n    /* \"#utility.yul\":7792:7799   */\n  0x00\n    /* \"#utility.yul\":7815:7835   */\n  tag_129\n    /* \"#utility.yul\":7833:7834   */\n  dup3\n    /* \"#utility.yul\":7815:7835   */\n  tag_20\n  jump\t// in\ntag_129:\n    /* \"#utility.yul\":7810:7835   */\n  swap2\n  pop\n    /* \"#utility.yul\":7849:7869   */\n  tag_130\n    /* \"#utility.yul\":7867:7868   */\n  dup4\n    /* \"#utility.yul\":7849:7869   */\n  tag_20\n  jump\t// in\ntag_130:\n    /* \"#utility.yul\":7844:7869   */\n  swap3\n  pop\n    /* \"#utility.yul\":7904:7905   */\n  dup3\n    /* \"#utility.yul\":7901:7902   */\n  dup3\n    /* \"#utility.yul\":7897:7906   */\n  mul\n    /* \"#utility.yul\":7926:7956   */\n  tag_131\n    /* \"#utility.yul\":7944:7955   */\n  dup2\n    /* \"#utility.yul\":7926:7956   */\n  tag_20\n  jump\t// in\ntag_131:\n    /* \"#utility.yul\":7915:7956   */\n  swap2\n  pop\n    /* \"#utility.yul\":8105:8106   */\n  dup3\n    /* \"#utility.yul\":8096:8103   */\n  dup3\n    /* \"#utility.yul\":8092:8107   */\n  div\n    /* \"#utility.yul\":8089:8090   */\n  dup5\n    /* \"#utility.yul\":8086:8108   */\n  eq\n    /* \"#utility.yul\":8066:8067   */\n  dup4\n    /* \"#utility.yul\":8059:8068   */\n  iszero\n    /* \"#utility.yul\":8039:8122   */\n  or\n    /* \"#utility.yul\":8016:8155   */\n  tag_132\n  jumpi\n    /* \"#utility.yul\":8135:8153   */\n  tag_133\n  tag_32\n  jump\t// in\ntag_133:\n    /* \"#utility.yul\":8016:8155   */\ntag_132:\n    /* \"#utility.yul\":7800:8162   */\n  pop\n    /* \"#utility.yul\":7752:8162   */\n  swap3\n  swap2\n  pop\n  pop\n  jump\t// out\n    /* \"test.sol\":733:3573  contract test is IERC20... */\ntag_11:\n  dataSize(sub_0)\n  dup1\n  dataOffset(sub_0)\n  0x00\n  codecopy\n  0x00\n  return\nstop\n\nsub_0: assembly {\n        /* \"test.sol\":733:3573  contract test is IERC20... */\n      mstore(0x40, 0x80)\n      jumpi(tag_1, lt(calldatasize, 0x04))\n      shr(0xe0, calldataload(0x00))\n      dup1\n      0x76809ce3\n      gt\n      tag_12\n      jumpi\n      dup1\n      0x76809ce3\n      eq\n      tag_7\n      jumpi\n      dup1\n      0x95d89b41\n      eq\n      tag_8\n      jumpi\n      dup1\n      0xa9059cbb\n      eq\n      tag_9\n      jumpi\n      dup1\n      0xd96a094a\n      eq\n      tag_10\n      jumpi\n      dup1\n      0xdd62ed3e\n      eq\n      tag_11\n      jumpi\n      jump(tag_1)\n    tag_12:\n      dup1\n      0x06fdde03\n      eq\n      tag_2\n      jumpi\n      dup1\n      0x095ea7b3\n      eq\n      tag_3\n      jumpi\n      dup1\n      0x18160ddd\n      eq\n      tag_4\n      jumpi\n      dup1\n      0x23b872dd\n      eq\n      tag_5\n      jumpi\n      dup1\n      0x70a08231\n      eq\n      tag_6\n      jumpi\n    tag_1:\n      0x00\n      dup1\n      revert\n        /* \"test.sol\":765:783  string public name */\n    tag_2:\n      callvalue\n      dup1\n      iszero\n      tag_13\n      jumpi\n      0x00\n      dup1\n      revert\n    tag_13:\n      pop\n      tag_14\n      tag_15\n      jump\t// in\n    tag_14:\n      mload(0x40)\n      tag_16\n      swap2\n      swap1\n      tag_17\n      jump\t// in\n    tag_16:\n      mload(0x40)\n      dup1\n      swap2\n      sub\n      swap1\n      return\n        /* \"test.sol\":2013:2225  function approve(address receiver, uint amount) public override returns(bool)... */\n    tag_3:\n      callvalue\n      dup1\n      iszero\n      tag_18\n      jumpi\n      0x00\n      dup1\n      revert\n    tag_18:\n      pop\n      tag_19\n      0x04\n      dup1\n      calldatasize\n      sub\n      dup2\n      add\n      swap1\n      tag_20\n      swap2\n      swap1\n      tag_21\n      jump\t// in\n    tag_20:\n      tag_22\n      jump\t// in\n    tag_19:\n      mload(0x40)\n      tag_23\n      swap2\n      swap1\n      tag_24\n      jump\t// in\n    tag_23:\n      mload(0x40)\n      dup1\n      swap2\n      sub\n      swap1\n      return\n        /* \"test.sol\":1423:1525  function totalSupply() public override view returns (uint)... */\n    tag_4:\n      callvalue\n      dup1\n      iszero\n      tag_25\n      jumpi\n      0x00\n      dup1\n      revert\n    tag_25:\n      pop\n      tag_26\n      tag_27\n      jump\t// in\n    tag_26:\n      mload(0x40)\n      tag_28\n      swap2\n      swap1\n      tag_29\n      jump\t// in\n    tag_28:\n      mload(0x40)\n      dup1\n      swap2\n      sub\n      swap1\n      return\n        /* \"test.sol\":2384:2801  function transferFrom(address owner, address receiver, uint amount) public override returns(bool)... */\n    tag_5:\n      callvalue\n      dup1\n      iszero\n      tag_30\n      jumpi\n      0x00\n      dup1\n      revert\n    tag_30:\n      pop\n      tag_31\n      0x04\n      dup1\n      calldatasize\n      sub\n      dup2\n      add\n      swap1\n      tag_32\n      swap2\n      swap1\n      tag_33\n      jump\t// in\n    tag_32:\n      tag_34\n      jump\t// in\n    tag_31:\n      mload(0x40)\n      tag_35\n      swap2\n      swap1\n      tag_24\n      jump\t// in\n    tag_35:\n      mload(0x40)\n      dup1\n      swap2\n      sub\n      swap1\n      return\n        /* \"test.sol\":1533:1652  function balanceOf(address account) public override view returns (uint)... */\n    tag_6:\n      callvalue\n      dup1\n      iszero\n      tag_36\n      jumpi\n      0x00\n      dup1\n      revert\n    tag_36:\n      pop\n      tag_37\n      0x04\n      dup1\n      calldatasize\n      sub\n      dup2\n      add\n      swap1\n      tag_38\n      swap2\n      swap1\n      tag_39\n      jump\t// in\n    tag_38:\n      tag_40\n      jump\t// in\n    tag_37:\n      mload(0x40)\n      tag_41\n      swap2\n      swap1\n      tag_29\n      jump\t// in\n    tag_41:\n      mload(0x40)\n      dup1\n      swap2\n      sub\n      swap1\n      return\n        /* \"test.sol\":817:836  uint public decimal */\n    tag_7:\n      callvalue\n      dup1\n      iszero\n      tag_42\n      jumpi\n      0x00\n      dup1\n      revert\n    tag_42:\n      pop\n      tag_43\n      tag_44\n      jump\t// in\n    tag_43:\n      mload(0x40)\n      tag_45\n      swap2\n      swap1\n      tag_29\n      jump\t// in\n    tag_45:\n      mload(0x40)\n      dup1\n      swap2\n      sub\n      swap1\n      return\n        /* \"test.sol\":790:810  string public symbol */\n    tag_8:\n      callvalue\n      dup1\n      iszero\n      tag_46\n      jumpi\n      0x00\n      dup1\n      revert\n    tag_46:\n      pop\n      tag_47\n      tag_48\n      jump\t// in\n    tag_47:\n      mload(0x40)\n      tag_49\n      swap2\n      swap1\n      tag_17\n      jump\t// in\n    tag_49:\n      mload(0x40)\n      dup1\n      swap2\n      sub\n      swap1\n      return\n        /* \"test.sol\":1660:2005  function transfer(address receiver, uint amount) public override returns (bool)... */\n    tag_9:\n      callvalue\n      dup1\n      iszero\n      tag_50\n      jumpi\n      0x00\n      dup1\n      revert\n    tag_50:\n      pop\n      tag_51\n      0x04\n      dup1\n      calldatasize\n      sub\n      dup2\n      add\n      swap1\n      tag_52\n      swap2\n      swap1\n      tag_21\n      jump\t// in\n    tag_52:\n      tag_53\n      jump\t// in\n    tag_51:\n      mload(0x40)\n      tag_54\n      swap2\n      swap1\n      tag_24\n      jump\t// in\n    tag_54:\n      mload(0x40)\n      dup1\n      swap2\n      sub\n      swap1\n      return\n        /* \"test.sol\":2812:3234  function buy(uint256 _amount) public payable {... */\n    tag_10:\n      tag_55\n      0x04\n      dup1\n      calldatasize\n      sub\n      dup2\n      add\n      swap1\n      tag_56\n      swap2\n      swap1\n      tag_57\n      jump\t// in\n    tag_56:\n      tag_58\n      jump\t// in\n    tag_55:\n      stop\n        /* \"test.sol\":2233:2376  function allowance(address owner, address receiver) public override view returns (uint)... */\n    tag_11:\n      callvalue\n      dup1\n      iszero\n      tag_59\n      jumpi\n      0x00\n      dup1\n      revert\n    tag_59:\n      pop\n      tag_60\n      0x04\n      dup1\n      calldatasize\n      sub\n      dup2\n      add\n      swap1\n      tag_61\n      swap2\n      swap1\n      tag_62\n      jump\t// in\n    tag_61:\n      tag_63\n      jump\t// in\n    tag_60:\n      mload(0x40)\n      tag_64\n      swap2\n      swap1\n      tag_29\n      jump\t// in\n    tag_64:\n      mload(0x40)\n      dup1\n      swap2\n      sub\n      swap1\n      return\n        /* \"test.sol\":765:783  string public name */\n    tag_15:\n      0x00\n      dup1\n      sload\n      tag_65\n      swap1\n      tag_66\n      jump\t// in\n    tag_65:\n      dup1\n      0x1f\n      add\n      0x20\n      dup1\n      swap2\n      div\n      mul\n      0x20\n      add\n      mload(0x40)\n      swap1\n      dup2\n      add\n      0x40\n      mstore\n      dup1\n      swap3\n      swap2\n      swap1\n      dup2\n      dup2\n      mstore\n      0x20\n      add\n      dup3\n      dup1\n      sload\n      tag_67\n      swap1\n      tag_66\n      jump\t// in\n    tag_67:\n      dup1\n      iszero\n      tag_68\n      jumpi\n      dup1\n      0x1f\n      lt\n      tag_69\n      jumpi\n      0x0100\n      dup1\n      dup4\n      sload\n      div\n      mul\n      dup4\n      mstore\n      swap2\n      0x20\n      add\n      swap2\n      jump(tag_68)\n    tag_69:\n      dup3\n      add\n      swap2\n      swap1\n      0x00\n      mstore\n      keccak256(0x00, 0x20)\n      swap1\n    tag_70:\n      dup2\n      sload\n      dup2\n      mstore\n      swap1\n      0x01\n      add\n      swap1\n      0x20\n      add\n      dup1\n      dup4\n      gt\n      tag_70\n      jumpi\n      dup3\n      swap1\n      sub\n      0x1f\n      and\n      dup3\n      add\n      swap2\n    tag_68:\n      pop\n      pop\n      pop\n      pop\n      pop\n      dup2\n      jump\t// out\n        /* \"test.sol\":2013:2225  function approve(address receiver, uint amount) public override returns(bool)... */\n    tag_22:\n        /* \"test.sol\":2085:2089  bool */\n      0x00\n        /* \"test.sol\":2137:2143  amount */\n      dup2\n        /* \"test.sol\":2107:2114  allowed */\n      0x07\n        /* \"test.sol\":2107:2126  allowed[msg.sender] */\n      0x00\n        /* \"test.sol\":2115:2125  msg.sender */\n      caller\n        /* \"test.sol\":2107:2126  allowed[msg.sender] */\n      0xffffffffffffffffffffffffffffffffffffffff\n      and\n      0xffffffffffffffffffffffffffffffffffffffff\n      and\n      dup2\n      mstore\n      0x20\n      add\n      swap1\n      dup2\n      mstore\n      0x20\n      add\n      0x00\n      keccak256\n        /* \"test.sol\":2107:2136  allowed[msg.sender][receiver] */\n      0x00\n        /* \"test.sol\":2127:2135  receiver */\n      dup6\n        /* \"test.sol\":2107:2136  allowed[msg.sender][receiver] */\n      0xffffffffffffffffffffffffffffffffffffffff\n      and\n      0xffffffffffffffffffffffffffffffffffffffff\n      and\n      dup2\n      mstore\n      0x20\n      add\n      swap1\n      dup2\n      mstore\n      0x20\n      add\n      0x00\n      keccak256\n        /* \"test.sol\":2107:2143  allowed[msg.sender][receiver]=amount */\n      dup2\n      swap1\n      sstore\n      pop\n        /* \"test.sol\":2159:2195  Approval(msg.sender,receiver,amount) */\n      0x8c5be1e5ebec7d5bd14f71427d1e84f3dd0314c0f7b2291e5b200ac8c7c3b925\n        /* \"test.sol\":2168:2178  msg.sender */\n      caller\n        /* \"test.sol\":2179:2187  receiver */\n      dup5\n        /* \"test.sol\":2188:2194  amount */\n      dup5\n        /* \"test.sol\":2159:2195  Approval(msg.sender,receiver,amount) */\n      mload(0x40)\n      tag_72\n      swap4\n      swap3\n      swap2\n      swap1\n      tag_73\n      jump\t// in\n    tag_72:\n      mload(0x40)\n      dup1\n      swap2\n      sub\n      swap1\n      log1\n        /* \"test.sol\":2213:2217  true */\n      0x01\n        /* \"test.sol\":2206:2217  return true */\n      swap1\n      pop\n        /* \"test.sol\":2013:2225  function approve(address receiver, uint amount) public override returns(bool)... */\n      swap3\n      swap2\n      pop\n      pop\n      jump\t// out\n        /* \"test.sol\":1423:1525  function totalSupply() public override view returns (uint)... */\n    tag_27:\n        /* \"test.sol\":1476:1480  uint */\n      0x00\n        /* \"test.sol\":1505:1517  total_Supply */\n      sload(0x04)\n        /* \"test.sol\":1498:1517  return total_Supply */\n      swap1\n      pop\n        /* \"test.sol\":1423:1525  function totalSupply() public override view returns (uint)... */\n      swap1\n      jump\t// out\n        /* \"test.sol\":2384:2801  function transferFrom(address owner, address receiver, uint amount) public override returns(bool)... */\n    tag_34:\n        /* \"test.sol\":2476:2480  bool */\n      0x00\n        /* \"test.sol\":2516:2523  balance */\n      0x06\n        /* \"test.sol\":2516:2530  balance[owner] */\n      0x00\n        /* \"test.sol\":2524:2529  owner */\n      dup6\n        /* \"test.sol\":2516:2530  balance[owner] */\n      0xffffffffffffffffffffffffffffffffffffffff\n      and\n      0xffffffffffffffffffffffffffffffffffffffff\n      and\n      dup2\n      mstore\n      0x20\n      add\n      swap1\n      dup2\n      mstore\n      0x20\n      add\n      0x00\n      keccak256\n      sload\n        /* \"test.sol\":2506:2512  amount */\n      dup3\n        /* \"test.sol\":2506:2530  amount <= balance[owner] */\n      gt\n      iszero\n        /* \"test.sol\":2498:2531  require(amount <= balance[owner]) */\n      tag_76\n      jumpi\n      0x00\n      dup1\n      revert\n    tag_76:\n        /* \"test.sol\":2560:2567  allowed */\n      0x07\n        /* \"test.sol\":2560:2579  allowed[msg.sender] */\n      0x00\n        /* \"test.sol\":2568:2578  msg.sender */\n      caller\n        /* \"test.sol\":2560:2579  allowed[msg.sender] */\n      0xffffffffffffffffffffffffffffffffffffffff\n      and\n      0xffffffffffffffffffffffffffffffffffffffff\n      and\n      dup2\n      mstore\n      0x20\n      add\n      swap1\n      dup2\n      mstore\n      0x20\n      add\n      0x00\n      keccak256\n        /* \"test.sol\":2560:2586  allowed[msg.sender][owner] */\n      0x00\n        /* \"test.sol\":2580:2585  owner */\n      dup6\n        /* \"test.sol\":2560:2586  allowed[msg.sender][owner] */\n      0xffffffffffffffffffffffffffffffffffffffff\n      and\n      0xffffffffffffffffffffffffffffffffffffffff\n      and\n      dup2\n      mstore\n      0x20\n      add\n      swap1\n      dup2\n      mstore\n      0x20\n      add\n      0x00\n      keccak256\n      sload\n        /* \"test.sol\":2550:2556  amount */\n      dup3\n        /* \"test.sol\":2550:2586  amount <= allowed[msg.sender][owner] */\n      gt\n      iszero\n        /* \"test.sol\":2542:2587  require(amount <= allowed[msg.sender][owner]) */\n      tag_77\n      jumpi\n      0x00\n      dup1\n      revert\n    tag_77:\n        /* \"test.sol\":2616:2622  amount */\n      dup2\n        /* \"test.sol\":2600:2607  balance */\n      0x06\n        /* \"test.sol\":2600:2614  balance[owner] */\n      0x00\n        /* \"test.sol\":2608:2613  owner */\n      dup7\n        /* \"test.sol\":2600:2614  balance[owner] */\n      0xffffffffffffffffffffffffffffffffffffffff\n      and\n      0xffffffffffffffffffffffffffffffffffffffff\n      and\n      dup2\n      mstore\n      0x20\n      add\n      swap1\n      dup2\n      mstore\n      0x20\n      add\n      0x00\n      keccak256\n      0x00\n        /* \"test.sol\":2600:2622  balance[owner]-=amount */\n      dup3\n      dup3\n      sload\n      tag_78\n      swap2\n      swap1\n      tag_79\n      jump\t// in\n    tag_78:\n      swap3\n      pop\n      pop\n      dup2\n      swap1\n      sstore\n      pop\n        /* \"test.sol\":2661:2667  amount */\n      dup2\n        /* \"test.sol\":2633:2640  allowed */\n      0x07\n        /* \"test.sol\":2633:2652  allowed[msg.sender] */\n      0x00\n        /* \"test.sol\":2641:2651  msg.sender */\n      caller\n        /* \"test.sol\":2633:2652  allowed[msg.sender] */\n      0xffffffffffffffffffffffffffffffffffffffff\n      and\n      0xffffffffffffffffffffffffffffffffffffffff\n      and\n      dup2\n      mstore\n      0x20\n      add\n      swap1\n      dup2\n      mstore\n      0x20\n      add\n      0x00\n      keccak256\n        /* \"test.sol\":2633:2659  allowed[msg.sender][owner] */\n      0x00\n        /* \"test.sol\":2653:2658  owner */\n      dup7\n        /* \"test.sol\":2633:2659  allowed[msg.sender][owner] */\n      0xffffffffffffffffffffffffffffffffffffffff\n      and\n      0xffffffffffffffffffffffffffffffffffffffff\n      and\n      dup2\n      mstore\n      0x20\n      add\n      swap1\n      dup2\n      mstore\n      0x20\n      add\n      0x00\n      keccak256\n      0x00\n        /* \"test.sol\":2633:2667  allowed[msg.sender][owner]-=amount */\n      dup3\n      dup3\n      sload\n      tag_80\n      swap2\n      swap1\n      tag_79\n      jump\t// in\n    tag_80:\n      swap3\n      pop\n      pop\n      dup2\n      swap1\n      sstore\n      pop\n        /* \"test.sol\":2697:2703  amount */\n      dup2\n        /* \"test.sol\":2678:2685  balance */\n      0x06\n        /* \"test.sol\":2678:2695  balance[receiver] */\n      0x00\n        /* \"test.sol\":2686:2694  receiver */\n      dup6\n        /* \"test.sol\":2678:2695  balance[receiver] */\n      0xffffffffffffffffffffffffffffffffffffffff\n      and\n      0xffffffffffffffffffffffffffffffffffffffff\n      and\n      dup2\n      mstore\n      0x20\n      add\n      swap1\n      dup2\n      mstore\n      0x20\n      add\n      0x00\n      keccak256\n      0x00\n        /* \"test.sol\":2678:2703  balance[receiver]+=amount */\n      dup3\n      dup3\n      sload\n      tag_81\n      swap2\n      swap1\n      tag_82\n      jump\t// in\n    tag_81:\n      swap3\n      pop\n      pop\n      dup2\n      swap1\n      sstore\n      pop\n        /* \"test.sol\":2719:2755  Transfer(msg.sender,receiver,amount) */\n      0xddf252ad1be2c89b69c2b068fc378daa952ba7f163c4a11628f55a4df523b3ef\n        /* \"test.sol\":2728:2738  msg.sender */\n      caller\n        /* \"test.sol\":2739:2747  receiver */\n      dup5\n        /* \"test.sol\":2748:2754  amount */\n      dup5\n        /* \"test.sol\":2719:2755  Transfer(msg.sender,receiver,amount) */\n      mload(0x40)\n      tag_83\n      swap4\n      swap3\n      swap2\n      swap1\n      tag_73\n      jump\t// in\n    tag_83:\n      mload(0x40)\n      dup1\n      swap2\n      sub\n      swap1\n      log1\n        /* \"test.sol\":2773:2777  true */\n      0x01\n        /* \"test.sol\":2766:2777  return true */\n      swap1\n      pop\n        /* \"test.sol\":2384:2801  function transferFrom(address owner, address receiver, uint amount) public override returns(bool)... */\n      swap4\n      swap3\n      pop\n      pop\n      pop\n      jump\t// out\n        /* \"test.sol\":1533:1652  function balanceOf(address account) public override view returns (uint)... */\n    tag_40:\n        /* \"test.sol\":1599:1603  uint */\n      0x00\n        /* \"test.sol\":1628:1635  balance */\n      0x06\n        /* \"test.sol\":1628:1644  balance[account] */\n      0x00\n        /* \"test.sol\":1636:1643  account */\n      dup4\n        /* \"test.sol\":1628:1644  balance[account] */\n      0xffffffffffffffffffffffffffffffffffffffff\n      and\n      0xffffffffffffffffffffffffffffffffffffffff\n      and\n      dup2\n      mstore\n      0x20\n      add\n      swap1\n      dup2\n      mstore\n      0x20\n      add\n      0x00\n      keccak256\n      sload\n        /* \"test.sol\":1621:1644  return balance[account] */\n      swap1\n      pop\n        /* \"test.sol\":1533:1652  function balanceOf(address account) public override view returns (uint)... */\n      swap2\n      swap1\n      pop\n      jump\t// out\n        /* \"test.sol\":817:836  uint public decimal */\n    tag_44:\n      sload(0x02)\n      dup2\n      jump\t// out\n        /* \"test.sol\":790:810  string public symbol */\n    tag_48:\n      0x01\n      dup1\n      sload\n      tag_85\n      swap1\n      tag_66\n      jump\t// in\n    tag_85:\n      dup1\n      0x1f\n      add\n      0x20\n      dup1\n      swap2\n      div\n      mul\n      0x20\n      add\n      mload(0x40)\n      swap1\n      dup2\n      add\n      0x40\n      mstore\n      dup1\n      swap3\n      swap2\n      swap1\n      dup2\n      dup2\n      mstore\n      0x20\n      add\n      dup3\n      dup1\n      sload\n      tag_86\n      swap1\n      tag_66\n      jump\t// in\n    tag_86:\n      dup1\n      iszero\n      tag_87\n      jumpi\n      dup1\n      0x1f\n      lt\n      tag_88\n      jumpi\n      0x0100\n      dup1\n      dup4\n      sload\n      div\n      mul\n      dup4\n      mstore\n      swap2\n      0x20\n      add\n      swap2\n      jump(tag_87)\n    tag_88:\n      dup3\n      add\n      swap2\n      swap1\n      0x00\n      mstore\n      keccak256(0x00, 0x20)\n      swap1\n    tag_89:\n      dup2\n      sload\n      dup2\n      mstore\n      swap1\n      0x01\n      add\n      swap1\n      0x20\n      add\n      dup1\n      dup4\n      gt\n      tag_89\n      jumpi\n      dup3\n      swap1\n      sub\n      0x1f\n      and\n      dup3\n      add\n      swap2\n    tag_87:\n      pop\n      pop\n      pop\n      pop\n      pop\n      dup2\n      jump\t// out\n        /* \"test.sol\":1660:2005  function transfer(address receiver, uint amount) public override returns (bool)... */\n    tag_53:\n        /* \"test.sol\":1734:1738  bool */\n      0x00\n        /* \"test.sol\":1774:1781  balance */\n      0x06\n        /* \"test.sol\":1774:1793  balance[msg.sender] */\n      0x00\n        /* \"test.sol\":1782:1792  msg.sender */\n      caller\n        /* \"test.sol\":1774:1793  balance[msg.sender] */\n      0xffffffffffffffffffffffffffffffffffffffff\n      and\n      0xffffffffffffffffffffffffffffffffffffffff\n      and\n      dup2\n      mstore\n      0x20\n      add\n      swap1\n      dup2\n      mstore\n      0x20\n      add\n      0x00\n      keccak256\n      sload\n        /* \"test.sol\":1764:1770  amount */\n      dup3\n        /* \"test.sol\":1764:1793  amount <= balance[msg.sender] */\n      gt\n      iszero\n        /* \"test.sol\":1756:1794  require(amount <= balance[msg.sender]) */\n      tag_91\n      jumpi\n      0x00\n      dup1\n      revert\n    tag_91:\n        /* \"test.sol\":1828:1834  amount */\n      dup2\n        /* \"test.sol\":1805:1812  balance */\n      0x06\n        /* \"test.sol\":1805:1824  balance[msg.sender] */\n      0x00\n        /* \"test.sol\":1813:1823  msg.sender */\n      caller\n        /* \"test.sol\":1805:1824  balance[msg.sender] */\n      0xffffffffffffffffffffffffffffffffffffffff\n      and\n      0xffffffffffffffffffffffffffffffffffffffff\n      and\n      dup2\n      mstore\n      0x20\n      add\n      swap1\n      dup2\n      mstore\n      0x20\n      add\n      0x00\n      keccak256\n      0x00\n        /* \"test.sol\":1805:1834  balance[msg.sender] -= amount */\n      dup3\n      dup3\n      sload\n      tag_92\n      swap2\n      swap1\n      tag_79\n      jump\t// in\n    tag_92:\n      swap3\n      pop\n      pop\n      dup2\n      swap1\n      sstore\n      pop\n        /* \"test.sol\":1917:1923  amount */\n      dup2\n        /* \"test.sol\":1896:1903  balance */\n      0x06\n        /* \"test.sol\":1896:1913  balance[receiver] */\n      0x00\n        /* \"test.sol\":1904:1912  receiver */\n      dup6\n        /* \"test.sol\":1896:1913  balance[receiver] */\n      0xffffffffffffffffffffffffffffffffffffffff\n      and\n      0xffffffffffffffffffffffffffffffffffffffff\n      and\n      dup2\n      mstore\n      0x20\n      add\n      swap1\n      dup2\n      mstore\n      0x20\n      add\n      0x00\n      keccak256\n      0x00\n        /* \"test.sol\":1896:1923  balance[receiver] += amount */\n      dup3\n      dup3\n      sload\n      tag_93\n      swap2\n      swap1\n      tag_82\n      jump\t// in\n    tag_93:\n      swap3\n      pop\n      pop\n      dup2\n      swap1\n      sstore\n      pop\n        /* \"test.sol\":1939:1975  Transfer(msg.sender,receiver,amount) */\n      0xddf252ad1be2c89b69c2b068fc378daa952ba7f163c4a11628f55a4df523b3ef\n        /* \"test.sol\":1948:1958  msg.sender */\n      caller\n        /* \"test.sol\":1959:1967  receiver */\n      dup5\n        /* \"test.sol\":1968:1974  amount */\n      dup5\n        /* \"test.sol\":1939:1975  Transfer(msg.sender,receiver,amount) */\n      mload(0x40)\n      tag_94\n      swap4\n      swap3\n      swap2\n      swap1\n      tag_73\n      jump\t// in\n    tag_94:\n      mload(0x40)\n      dup1\n      swap2\n      sub\n      swap1\n      log1\n        /* \"test.sol\":1993:1997  true */\n      0x01\n        /* \"test.sol\":1986:1997  return true */\n      swap1\n      pop\n        /* \"test.sol\":1660:2005  function transfer(address receiver, uint amount) public override returns (bool)... */\n      swap3\n      swap2\n      pop\n      pop\n      jump\t// out\n        /* \"test.sol\":2812:3234  function buy(uint256 _amount) public payable {... */\n    tag_58:\n        /* \"test.sol\":2868:2878  uint price */\n      0x00\n        /* \"test.sol\":2881:2897  1000000000000000 */\n      0x038d7ea4c68000\n        /* \"test.sol\":2868:2897  uint price = 1000000000000000 */\n      swap1\n      pop\n        /* \"test.sol\":2945:2950  price */\n      dup1\n        /* \"test.sol\":2937:2944  _amount */\n      dup3\n        /* \"test.sol\":2937:2950  _amount*price */\n      tag_96\n      swap2\n      swap1\n      tag_97\n      jump\t// in\n    tag_96:\n        /* \"test.sol\":2924:2933  msg.value */\n      callvalue\n        /* \"test.sol\":2924:2950  msg.value >= _amount*price */\n      lt\n      iszero\n        /* \"test.sol\":2916:2973  require(msg.value >= _amount*price, \"Not enough ether !\") */\n      tag_98\n      jumpi\n      mload(0x40)\n      0x08c379a000000000000000000000000000000000000000000000000000000000\n      dup2\n      mstore\n      0x04\n      add\n      tag_99\n      swap1\n      tag_100\n      jump\t// in\n    tag_99:\n      mload(0x40)\n      dup1\n      swap2\n      sub\n      swap1\n      revert\n    tag_98:\n        /* \"test.sol\":2984:3003  uint256 tokenAmount */\n      0x00\n        /* \"test.sol\":3022:3029  decimal */\n      sload(0x02)\n        /* \"test.sol\":3016:3018  10 */\n      0x0a\n        /* \"test.sol\":3016:3029  10 ** decimal */\n      tag_101\n      swap2\n      swap1\n      tag_102\n      jump\t// in\n    tag_101:\n        /* \"test.sol\":3006:3013  _amount */\n      dup4\n        /* \"test.sol\":3006:3029  _amount * 10 ** decimal */\n      tag_103\n      swap2\n      swap1\n      tag_97\n      jump\t// in\n    tag_103:\n        /* \"test.sol\":2984:3029  uint256 tokenAmount = _amount * 10 ** decimal */\n      swap1\n      pop\n        /* \"test.sol\":3065:3076  tokenAmount */\n      dup1\n        /* \"test.sol\":3042:3049  balance */\n      0x06\n        /* \"test.sol\":3042:3061  balance[msg.sender] */\n      0x00\n        /* \"test.sol\":3050:3060  msg.sender */\n      caller\n        /* \"test.sol\":3042:3061  balance[msg.sender] */\n      0xffffffffffffffffffffffffffffffffffffffff\n      and\n      0xffffffffffffffffffffffffffffffffffffffff\n      and\n      dup2\n      mstore\n      0x20\n      add\n      swap1\n      dup2\n      mstore\n      0x20\n      add\n      0x00\n      keccak256\n      0x00\n        /* \"test.sol\":3042:3076  balance[msg.sender] += tokenAmount */\n      dup3\n      dup3\n      sload\n      tag_104\n      swap2\n      swap1\n      tag_82\n      jump\t// in\n    tag_104:\n      swap3\n      pop\n      pop\n      dup2\n      swap1\n      sstore\n      pop\n        /* \"test.sol\":3107:3118  tokenAmount */\n      dup1\n        /* \"test.sol\":3087:3094  balance */\n      0x06\n        /* \"test.sol\":3087:3103  balance[acOwner] */\n      0x00\n        /* \"test.sol\":3095:3102  acOwner */\n      0x03\n      0x00\n      swap1\n      sload\n      swap1\n      0x0100\n      exp\n      swap1\n      div\n      0xffffffffffffffffffffffffffffffffffffffff\n      and\n        /* \"test.sol\":3087:3103  balance[acOwner] */\n      0xffffffffffffffffffffffffffffffffffffffff\n      and\n      0xffffffffffffffffffffffffffffffffffffffff\n      and\n      dup2\n      mstore\n      0x20\n      add\n      swap1\n      dup2\n      mstore\n      0x20\n      add\n      0x00\n      keccak256\n      0x00\n        /* \"test.sol\":3087:3118  balance[acOwner] -= tokenAmount */\n      dup3\n      dup3\n      sload\n      tag_105\n      swap2\n      swap1\n      tag_79\n      jump\t// in\n    tag_105:\n      swap3\n      pop\n      pop\n      dup2\n      swap1\n      sstore\n      pop\n        /* \"test.sol\":3139:3149  msg.sender */\n      caller\n        /* \"test.sol\":3131:3159  payable(msg.sender).transfer */\n      0xffffffffffffffffffffffffffffffffffffffff\n      and\n        /* \"test.sol\":3131:3168  payable(msg.sender).transfer(_amount) */\n      0x08fc\n        /* \"test.sol\":3160:3167  _amount */\n      dup5\n        /* \"test.sol\":3131:3168  payable(msg.sender).transfer(_amount) */\n      swap1\n      dup2\n      iszero\n      mul\n      swap1\n      mload(0x40)\n      0x00\n      mload(0x40)\n      dup1\n      dup4\n      sub\n      dup2\n      dup6\n      dup9\n      dup9\n      call\n      swap4\n      pop\n      pop\n      pop\n      pop\n      iszero\n      dup1\n      iszero\n      tag_107\n      jumpi\n      returndatasize\n      0x00\n      dup1\n      returndatacopy\n      revert(0x00, returndatasize)\n    tag_107:\n      pop\n        /* \"test.sol\":3184:3226  Transfer(acOwner, msg.sender, tokenAmount) */\n      0xddf252ad1be2c89b69c2b068fc378daa952ba7f163c4a11628f55a4df523b3ef\n        /* \"test.sol\":3193:3200  acOwner */\n      0x03\n      0x00\n      swap1\n      sload\n      swap1\n      0x0100\n      exp\n      swap1\n      div\n      0xffffffffffffffffffffffffffffffffffffffff\n      and\n        /* \"test.sol\":3202:3212  msg.sender */\n      caller\n        /* \"test.sol\":3214:3225  tokenAmount */\n      dup4\n        /* \"test.sol\":3184:3226  Transfer(acOwner, msg.sender, tokenAmount) */\n      mload(0x40)\n      tag_108\n      swap4\n      swap3\n      swap2\n      swap1\n      tag_73\n      jump\t// in\n    tag_108:\n      mload(0x40)\n      dup1\n      swap2\n      sub\n      swap1\n      log1\n        /* \"test.sol\":2857:3234  {... */\n      pop\n      pop\n        /* \"test.sol\":2812:3234  function buy(uint256 _amount) public payable {... */\n      pop\n      jump\t// out\n        /* \"test.sol\":2233:2376  function allowance(address owner, address receiver) public override view returns (uint)... */\n    tag_63:\n        /* \"test.sol\":2315:2319  uint */\n      0x00\n        /* \"test.sol\":2344:2351  allowed */\n      0x07\n        /* \"test.sol\":2344:2358  allowed[owner] */\n      0x00\n        /* \"test.sol\":2352:2357  owner */\n      dup5\n        /* \"test.sol\":2344:2358  allowed[owner] */\n      0xffffffffffffffffffffffffffffffffffffffff\n      and\n      0xffffffffffffffffffffffffffffffffffffffff\n      and\n      dup2\n      mstore\n      0x20\n      add\n      swap1\n      dup2\n      mstore\n      0x20\n      add\n      0x00\n      keccak256\n        /* \"test.sol\":2344:2368  allowed[owner][receiver] */\n      0x00\n        /* \"test.sol\":2359:2367  receiver */\n      dup4\n        /* \"test.sol\":2344:2368  allowed[owner][receiver] */\n      0xffffffffffffffffffffffffffffffffffffffff\n      and\n      0xffffffffffffffffffffffffffffffffffffffff\n      and\n      dup2\n      mstore\n      0x20\n      add\n      swap1\n      dup2\n      mstore\n      0x20\n      add\n      0x00\n      keccak256\n      sload\n        /* \"test.sol\":2337:2368  return allowed[owner][receiver] */\n      swap1\n      pop\n        /* \"test.sol\":2233:2376  function allowance(address owner, address receiver) public override view returns (uint)... */\n      swap3\n      swap2\n      pop\n      pop\n      jump\t// out\n        /* \"#utility.yul\":7:106   */\n    tag_110:\n        /* \"#utility.yul\":59:65   */\n      0x00\n        /* \"#utility.yul\":93:98   */\n      dup2\n        /* \"#utility.yul\":87:99   */\n      mload\n        /* \"#utility.yul\":77:99   */\n      swap1\n      pop\n        /* \"#utility.yul\":7:106   */\n      swap2\n      swap1\n      pop\n      jump\t// out\n        /* \"#utility.yul\":112:281   */\n    tag_111:\n        /* \"#utility.yul\":196:207   */\n      0x00\n        /* \"#utility.yul\":230:236   */\n      dup3\n        /* \"#utility.yul\":225:228   */\n      dup3\n        /* \"#utility.yul\":218:237   */\n      mstore\n        /* \"#utility.yul\":270:274   */\n      0x20\n        /* \"#utility.yul\":265:268   */\n      dup3\n        /* \"#utility.yul\":261:275   */\n      add\n        /* \"#utility.yul\":246:275   */\n      swap1\n      pop\n        /* \"#utility.yul\":112:281   */\n      swap3\n      swap2\n      pop\n      pop\n      jump\t// out\n        /* \"#utility.yul\":287:533   */\n    tag_112:\n        /* \"#utility.yul\":368:369   */\n      0x00\n        /* \"#utility.yul\":378:491   */\n    tag_140:\n        /* \"#utility.yul\":392:398   */\n      dup4\n        /* \"#utility.yul\":389:390   */\n      dup2\n        /* \"#utility.yul\":386:399   */\n      lt\n        /* \"#utility.yul\":378:491   */\n      iszero\n      tag_142\n      jumpi\n        /* \"#utility.yul\":477:478   */\n      dup1\n        /* \"#utility.yul\":472:475   */\n      dup3\n        /* \"#utility.yul\":468:479   */\n      add\n        /* \"#utility.yul\":462:480   */\n      mload\n        /* \"#utility.yul\":458:459   */\n      dup2\n        /* \"#utility.yul\":453:456   */\n      dup5\n        /* \"#utility.yul\":449:460   */\n      add\n        /* \"#utility.yul\":442:481   */\n      mstore\n        /* \"#utility.yul\":414:416   */\n      0x20\n        /* \"#utility.yul\":411:412   */\n      dup2\n        /* \"#utility.yul\":407:417   */\n      add\n        /* \"#utility.yul\":402:417   */\n      swap1\n      pop\n        /* \"#utility.yul\":378:491   */\n      jump(tag_140)\n    tag_142:\n        /* \"#utility.yul\":525:526   */\n      0x00\n        /* \"#utility.yul\":516:522   */\n      dup5\n        /* \"#utility.yul\":511:514   */\n      dup5\n        /* \"#utility.yul\":507:523   */\n      add\n        /* \"#utility.yul\":500:527   */\n      mstore\n        /* \"#utility.yul\":349:533   */\n      pop\n        /* \"#utility.yul\":287:533   */\n      pop\n      pop\n      pop\n      jump\t// out\n        /* \"#utility.yul\":539:641   */\n    tag_113:\n        /* \"#utility.yul\":580:586   */\n      0x00\n        /* \"#utility.yul\":631:633   */\n      0x1f\n        /* \"#utility.yul\":627:634   */\n      not\n        /* \"#utility.yul\":622:624   */\n      0x1f\n        /* \"#utility.yul\":615:620   */\n      dup4\n        /* \"#utility.yul\":611:625   */\n      add\n        /* \"#utility.yul\":607:635   */\n      and\n        /* \"#utility.yul\":597:635   */\n      swap1\n      pop\n        /* \"#utility.yul\":539:641   */\n      swap2\n      swap1\n      pop\n      jump\t// out\n        /* \"#utility.yul\":647:1024   */\n    tag_114:\n        /* \"#utility.yul\":735:738   */\n      0x00\n        /* \"#utility.yul\":763:802   */\n      tag_145\n        /* \"#utility.yul\":796:801   */\n      dup3\n        /* \"#utility.yul\":763:802   */\n      tag_110\n      jump\t// in\n    tag_145:\n        /* \"#utility.yul\":818:889   */\n      tag_146\n        /* \"#utility.yul\":882:888   */\n      dup2\n        /* \"#utility.yul\":877:880   */\n      dup6\n        /* \"#utility.yul\":818:889   */\n      tag_111\n      jump\t// in\n    tag_146:\n        /* \"#utility.yul\":811:889   */\n      swap4\n      pop\n        /* \"#utility.yul\":898:963   */\n      tag_147\n        /* \"#utility.yul\":956:962   */\n      dup2\n        /* \"#utility.yul\":951:954   */\n      dup6\n        /* \"#utility.yul\":944:948   */\n      0x20\n        /* \"#utility.yul\":937:942   */\n      dup7\n        /* \"#utility.yul\":933:949   */\n      add\n        /* \"#utility.yul\":898:963   */\n      tag_112\n      jump\t// in\n    tag_147:\n        /* \"#utility.yul\":988:1017   */\n      tag_148\n        /* \"#utility.yul\":1010:1016   */\n      dup2\n        /* \"#utility.yul\":988:1017   */\n      tag_113\n      jump\t// in\n    tag_148:\n        /* \"#utility.yul\":983:986   */\n      dup5\n        /* \"#utility.yul\":979:1018   */\n      add\n        /* \"#utility.yul\":972:1018   */\n      swap2\n      pop\n        /* \"#utility.yul\":739:1024   */\n      pop\n        /* \"#utility.yul\":647:1024   */\n      swap3\n      swap2\n      pop\n      pop\n      jump\t// out\n        /* \"#utility.yul\":1030:1343   */\n    tag_17:\n        /* \"#utility.yul\":1143:1147   */\n      0x00\n        /* \"#utility.yul\":1181:1183   */\n      0x20\n        /* \"#utility.yul\":1170:1179   */\n      dup3\n        /* \"#utility.yul\":1166:1184   */\n      add\n        /* \"#utility.yul\":1158:1184   */\n      swap1\n      pop\n        /* \"#utility.yul\":1230:1239   */\n      dup2\n        /* \"#utility.yul\":1224:1228   */\n      dup2\n        /* \"#utility.yul\":1220:1240   */\n      sub\n        /* \"#utility.yul\":1216:1217   */\n      0x00\n        /* \"#utility.yul\":1205:1214   */\n      dup4\n        /* \"#utility.yul\":1201:1218   */\n      add\n        /* \"#utility.yul\":1194:1241   */\n      mstore\n        /* \"#utility.yul\":1258:1336   */\n      tag_150\n        /* \"#utility.yul\":1331:1335   */\n      dup2\n        /* \"#utility.yul\":1322:1328   */\n      dup5\n        /* \"#utility.yul\":1258:1336   */\n      tag_114\n      jump\t// in\n    tag_150:\n        /* \"#utility.yul\":1250:1336   */\n      swap1\n      pop\n        /* \"#utility.yul\":1030:1343   */\n      swap3\n      swap2\n      pop\n      pop\n      jump\t// out\n        /* \"#utility.yul\":1430:1547   */\n    tag_116:\n        /* \"#utility.yul\":1539:1540   */\n      0x00\n        /* \"#utility.yul\":1536:1537   */\n      dup1\n        /* \"#utility.yul\":1529:1541   */\n      revert\n        /* \"#utility.yul\":1676:1802   */\n    tag_118:\n        /* \"#utility.yul\":1713:1720   */\n      0x00\n        /* \"#utility.yul\":1753:1795   */\n      0xffffffffffffffffffffffffffffffffffffffff\n        /* \"#utility.yul\":1746:1751   */\n      dup3\n        /* \"#utility.yul\":1742:1796   */\n      and\n        /* \"#utility.yul\":1731:1796   */\n      swap1\n      pop\n        /* \"#utility.yul\":1676:1802   */\n      swap2\n      swap1\n      pop\n      jump\t// out\n        /* \"#utility.yul\":1808:1904   */\n    tag_119:\n        /* \"#utility.yul\":1845:1852   */\n      0x00\n        /* \"#utility.yul\":1874:1898   */\n      tag_156\n        /* \"#utility.yul\":1892:1897   */\n      dup3\n        /* \"#utility.yul\":1874:1898   */\n      tag_118\n      jump\t// in\n    tag_156:\n        /* \"#utility.yul\":1863:1898   */\n      swap1\n      pop\n        /* \"#utility.yul\":1808:1904   */\n      swap2\n      swap1\n      pop\n      jump\t// out\n        /* \"#utility.yul\":1910:2032   */\n    tag_120:\n        /* \"#utility.yul\":1983:2007   */\n      tag_158\n        /* \"#utility.yul\":2001:2006   */\n      dup2\n        /* \"#utility.yul\":1983:2007   */\n      tag_119\n      jump\t// in\n    tag_158:\n        /* \"#utility.yul\":1976:1981   */\n      dup2\n        /* \"#utility.yul\":1973:2008   */\n      eq\n        /* \"#utility.yul\":1963:2026   */\n      tag_159\n      jumpi\n        /* \"#utility.yul\":2022:2023   */\n      0x00\n        /* \"#utility.yul\":2019:2020   */\n      dup1\n        /* \"#utility.yul\":2012:2024   */\n      revert\n        /* \"#utility.yul\":1963:2026   */\n    tag_159:\n        /* \"#utility.yul\":1910:2032   */\n      pop\n      jump\t// out\n        /* \"#utility.yul\":2038:2177   */\n    tag_121:\n        /* \"#utility.yul\":2084:2089   */\n      0x00\n        /* \"#utility.yul\":2122:2128   */\n      dup2\n        /* \"#utility.yul\":2109:2129   */\n      calldataload\n        /* \"#utility.yul\":2100:2129   */\n      swap1\n      pop\n        /* \"#utility.yul\":2138:2171   */\n      tag_161\n        /* \"#utility.yul\":2165:2170   */\n      dup2\n        /* \"#utility.yul\":2138:2171   */\n      tag_120\n      jump\t// in\n    tag_161:\n        /* \"#utility.yul\":2038:2177   */\n      swap3\n      swap2\n      pop\n      pop\n      jump\t// out\n        /* \"#utility.yul\":2183:2260   */\n    tag_122:\n        /* \"#utility.yul\":2220:2227   */\n      0x00\n        /* \"#utility.yul\":2249:2254   */\n      dup2\n        /* \"#utility.yul\":2238:2254   */\n      swap1\n      pop\n        /* \"#utility.yul\":2183:2260   */\n      swap2\n      swap1\n      pop\n      jump\t// out\n        /* \"#utility.yul\":2266:2388   */\n    tag_123:\n        /* \"#utility.yul\":2339:2363   */\n      tag_164\n        /* \"#utility.yul\":2357:2362   */\n      dup2\n        /* \"#utility.yul\":2339:2363   */\n      tag_122\n      jump\t// in\n    tag_164:\n        /* \"#utility.yul\":2332:2337   */\n      dup2\n        /* \"#utility.yul\":2329:2364   */\n      eq\n        /* \"#utility.yul\":2319:2382   */\n      tag_165\n      jumpi\n        /* \"#utility.yul\":2378:2379   */\n      0x00\n        /* \"#utility.yul\":2375:2376   */\n      dup1\n        /* \"#utility.yul\":2368:2380   */\n      revert\n        /* \"#utility.yul\":2319:2382   */\n    tag_165:\n        /* \"#utility.yul\":2266:2388   */\n      pop\n      jump\t// out\n        /* \"#utility.yul\":2394:2533   */\n    tag_124:\n        /* \"#utility.yul\":2440:2445   */\n      0x00\n        /* \"#utility.yul\":2478:2484   */\n      dup2\n        /* \"#utility.yul\":2465:2485   */\n      calldataload\n        /* \"#utility.yul\":2456:2485   */\n      swap1\n      pop\n        /* \"#utility.yul\":2494:2527   */\n      tag_167\n        /* \"#utility.yul\":2521:2526   */\n      dup2\n        /* \"#utility.yul\":2494:2527   */\n      tag_123\n      jump\t// in\n    tag_167:\n        /* \"#utility.yul\":2394:2533   */\n      swap3\n      swap2\n      pop\n      pop\n      jump\t// out\n        /* \"#utility.yul\":2539:3013   */\n    tag_21:\n        /* \"#utility.yul\":2607:2613   */\n      0x00\n        /* \"#utility.yul\":2615:2621   */\n      dup1\n        /* \"#utility.yul\":2664:2666   */\n      0x40\n        /* \"#utility.yul\":2652:2661   */\n      dup4\n        /* \"#utility.yul\":2643:2650   */\n      dup6\n        /* \"#utility.yul\":2639:2662   */\n      sub\n        /* \"#utility.yul\":2635:2667   */\n      slt\n        /* \"#utility.yul\":2632:2751   */\n      iszero\n      tag_169\n      jumpi\n        /* \"#utility.yul\":2670:2749   */\n      tag_170\n      tag_116\n      jump\t// in\n    tag_170:\n        /* \"#utility.yul\":2632:2751   */\n    tag_169:\n        /* \"#utility.yul\":2790:2791   */\n      0x00\n        /* \"#utility.yul\":2815:2868   */\n      tag_171\n        /* \"#utility.yul\":2860:2867   */\n      dup6\n        /* \"#utility.yul\":2851:2857   */\n      dup3\n        /* \"#utility.yul\":2840:2849   */\n      dup7\n        /* \"#utility.yul\":2836:2858   */\n      add\n        /* \"#utility.yul\":2815:2868   */\n      tag_121\n      jump\t// in\n    tag_171:\n        /* \"#utility.yul\":2805:2868   */\n      swap3\n      pop\n        /* \"#utility.yul\":2761:2878   */\n      pop\n        /* \"#utility.yul\":2917:2919   */\n      0x20\n        /* \"#utility.yul\":2943:2996   */\n      tag_172\n        /* \"#utility.yul\":2988:2995   */\n      dup6\n        /* \"#utility.yul\":2979:2985   */\n      dup3\n        /* \"#utility.yul\":2968:2977   */\n      dup7\n        /* \"#utility.yul\":2964:2986   */\n      add\n        /* \"#utility.yul\":2943:2996   */\n      tag_124\n      jump\t// in\n    tag_172:\n        /* \"#utility.yul\":2933:2996   */\n      swap2\n      pop\n        /* \"#utility.yul\":2888:3006   */\n      pop\n        /* \"#utility.yul\":2539:3013   */\n      swap3\n      pop\n      swap3\n      swap1\n      pop\n      jump\t// out\n        /* \"#utility.yul\":3019:3109   */\n    tag_125:\n        /* \"#utility.yul\":3053:3060   */\n      0x00\n        /* \"#utility.yul\":3096:3101   */\n      dup2\n        /* \"#utility.yul\":3089:3102   */\n      iszero\n        /* \"#utility.yul\":3082:3103   */\n      iszero\n        /* \"#utility.yul\":3071:3103   */\n      swap1\n      pop\n        /* \"#utility.yul\":3019:3109   */\n      swap2\n      swap1\n      pop\n      jump\t// out\n        /* \"#utility.yul\":3115:3224   */\n    tag_126:\n        /* \"#utility.yul\":3196:3217   */\n      tag_175\n        /* \"#utility.yul\":3211:3216   */\n      dup2\n        /* \"#utility.yul\":3196:3217   */\n      tag_125\n      jump\t// in\n    tag_175:\n        /* \"#utility.yul\":3191:3194   */\n      dup3\n        /* \"#utility.yul\":3184:3218   */\n      mstore\n        /* \"#utility.yul\":3115:3224   */\n      pop\n      pop\n      jump\t// out\n        /* \"#utility.yul\":3230:3440   */\n    tag_24:\n        /* \"#utility.yul\":3317:3321   */\n      0x00\n        /* \"#utility.yul\":3355:3357   */\n      0x20\n        /* \"#utility.yul\":3344:3353   */\n      dup3\n        /* \"#utility.yul\":3340:3358   */\n      add\n        /* \"#utility.yul\":3332:3358   */\n      swap1\n      pop\n        /* \"#utility.yul\":3368:3433   */\n      tag_177\n        /* \"#utility.yul\":3430:3431   */\n      0x00\n        /* \"#utility.yul\":3419:3428   */\n      dup4\n        /* \"#utility.yul\":3415:3432   */\n      add\n        /* \"#utility.yul\":3406:3412   */\n      dup5\n        /* \"#utility.yul\":3368:3433   */\n      tag_126\n      jump\t// in\n    tag_177:\n        /* \"#utility.yul\":3230:3440   */\n      swap3\n      swap2\n      pop\n      pop\n      jump\t// out\n        /* \"#utility.yul\":3446:3564   */\n    tag_127:\n        /* \"#utility.yul\":3533:3557   */\n      tag_179\n        /* \"#utility.yul\":3551:3556   */\n      dup2\n        /* \"#utility.yul\":3533:3557   */\n      tag_122\n      jump\t// in\n    tag_179:\n        /* \"#utility.yul\":3528:3531   */\n      dup3\n        /* \"#utility.yul\":3521:3558   */\n      mstore\n        /* \"#utility.yul\":3446:3564   */\n      pop\n      pop\n      jump\t// out\n        /* \"#utility.yul\":3570:3792   */\n    tag_29:\n        /* \"#utility.yul\":3663:3667   */\n      0x00\n        /* \"#utility.yul\":3701:3703   */\n      0x20\n        /* \"#utility.yul\":3690:3699   */\n      dup3\n        /* \"#utility.yul\":3686:3704   */\n      add\n        /* \"#utility.yul\":3678:3704   */\n      swap1\n      pop\n        /* \"#utility.yul\":3714:3785   */\n      tag_181\n        /* \"#utility.yul\":3782:3783   */\n      0x00\n        /* \"#utility.yul\":3771:3780   */\n      dup4\n        /* \"#utility.yul\":3767:3784   */\n      add\n        /* \"#utility.yul\":3758:3764   */\n      dup5\n        /* \"#utility.yul\":3714:3785   */\n      tag_127\n      jump\t// in\n    tag_181:\n        /* \"#utility.yul\":3570:3792   */\n      swap3\n      swap2\n      pop\n      pop\n      jump\t// out\n        /* \"#utility.yul\":3798:4417   */\n    tag_33:\n        /* \"#utility.yul\":3875:3881   */\n      0x00\n        /* \"#utility.yul\":3883:3889   */\n      dup1\n        /* \"#utility.yul\":3891:3897   */\n      0x00\n        /* \"#utility.yul\":3940:3942   */\n      0x60\n        /* \"#utility.yul\":3928:3937   */\n      dup5\n        /* \"#utility.yul\":3919:3926   */\n      dup7\n        /* \"#utility.yul\":3915:3938   */\n      sub\n        /* \"#utility.yul\":3911:3943   */\n      slt\n        /* \"#utility.yul\":3908:4027   */\n      iszero\n      tag_183\n      jumpi\n        /* \"#utility.yul\":3946:4025   */\n      tag_184\n      tag_116\n      jump\t// in\n    tag_184:\n        /* \"#utility.yul\":3908:4027   */\n    tag_183:\n        /* \"#utility.yul\":4066:4067   */\n      0x00\n        /* \"#utility.yul\":4091:4144   */\n      tag_185\n        /* \"#utility.yul\":4136:4143   */\n      dup7\n        /* \"#utility.yul\":4127:4133   */\n      dup3\n        /* \"#utility.yul\":4116:4125   */\n      dup8\n        /* \"#utility.yul\":4112:4134   */\n      add\n        /* \"#utility.yul\":4091:4144   */\n      tag_121\n      jump\t// in\n    tag_185:\n        /* \"#utility.yul\":4081:4144   */\n      swap4\n      pop\n        /* \"#utility.yul\":4037:4154   */\n      pop\n        /* \"#utility.yul\":4193:4195   */\n      0x20\n        /* \"#utility.yul\":4219:4272   */\n      tag_186\n        /* \"#utility.yul\":4264:4271   */\n      dup7\n        /* \"#utility.yul\":4255:4261   */\n      dup3\n        /* \"#utility.yul\":4244:4253   */\n      dup8\n        /* \"#utility.yul\":4240:4262   */\n      add\n        /* \"#utility.yul\":4219:4272   */\n      tag_121\n      jump\t// in\n    tag_186:\n        /* \"#utility.yul\":4209:4272   */\n      swap3\n      pop\n        /* \"#utility.yul\":4164:4282   */\n      pop\n        /* \"#utility.yul\":4321:4323   */\n      0x40\n        /* \"#utility.yul\":4347:4400   */\n      tag_187\n        /* \"#utility.yul\":4392:4399   */\n      dup7\n        /* \"#utility.yul\":4383:4389   */\n      dup3\n        /* \"#utility.yul\":4372:4381   */\n      dup8\n        /* \"#utility.yul\":4368:4390   */\n      add\n        /* \"#utility.yul\":4347:4400   */\n      tag_124\n      jump\t// in\n    tag_187:\n        /* \"#utility.yul\":4337:4400   */\n      swap2\n      pop\n        /* \"#utility.yul\":4292:4410   */\n      pop\n        /* \"#utility.yul\":3798:4417   */\n      swap3\n      pop\n      swap3\n      pop\n      swap3\n      jump\t// out\n        /* \"#utility.yul\":4423:4752   */\n    tag_39:\n        /* \"#utility.yul\":4482:4488   */\n      0x00\n        /* \"#utility.yul\":4531:4533   */\n      0x20\n        /* \"#utility.yul\":4519:4528   */\n      dup3\n        /* \"#utility.yul\":4510:4517   */\n      dup5\n        /* \"#utility.yul\":4506:4529   */\n      sub\n        /* \"#utility.yul\":4502:4534   */\n      slt\n        /* \"#utility.yul\":4499:4618   */\n      iszero\n      tag_189\n      jumpi\n        /* \"#utility.yul\":4537:4616   */\n      tag_190\n      tag_116\n      jump\t// in\n    tag_190:\n        /* \"#utility.yul\":4499:4618   */\n    tag_189:\n        /* \"#utility.yul\":4657:4658   */\n      0x00\n        /* \"#utility.yul\":4682:4735   */\n      tag_191\n        /* \"#utility.yul\":4727:4734   */\n      dup5\n        /* \"#utility.yul\":4718:4724   */\n      dup3\n        /* \"#utility.yul\":4707:4716   */\n      dup6\n        /* \"#utility.yul\":4703:4725   */\n      add\n        /* \"#utility.yul\":4682:4735   */\n      tag_121\n      jump\t// in\n    tag_191:\n        /* \"#utility.yul\":4672:4735   */\n      swap2\n      pop\n        /* \"#utility.yul\":4628:4745   */\n      pop\n        /* \"#utility.yul\":4423:4752   */\n      swap3\n      swap2\n      pop\n      pop\n      jump\t// out\n        /* \"#utility.yul\":4758:5087   */\n    tag_57:\n        /* \"#utility.yul\":4817:4823   */\n      0x00\n        /* \"#utility.yul\":4866:4868   */\n      0x20\n        /* \"#utility.yul\":4854:4863   */\n      dup3\n        /* \"#utility.yul\":4845:4852   */\n      dup5\n        /* \"#utility.yul\":4841:4864   */\n      sub\n        /* \"#utility.yul\":4837:4869   */\n      slt\n        /* \"#utility.yul\":4834:4953   */\n      iszero\n      tag_193\n      jumpi\n        /* \"#utility.yul\":4872:4951   */\n      tag_194\n      tag_116\n      jump\t// in\n    tag_194:\n        /* \"#utility.yul\":4834:4953   */\n    tag_193:\n        /* \"#utility.yul\":4992:4993   */\n      0x00\n        /* \"#utility.yul\":5017:5070   */\n      tag_195\n        /* \"#utility.yul\":5062:5069   */\n      dup5\n        /* \"#utility.yul\":5053:5059   */\n      dup3\n        /* \"#utility.yul\":5042:5051   */\n      dup6\n        /* \"#utility.yul\":5038:5060   */\n      add\n        /* \"#utility.yul\":5017:5070   */\n      tag_124\n      jump\t// in\n    tag_195:\n        /* \"#utility.yul\":5007:5070   */\n      swap2\n      pop\n        /* \"#utility.yul\":4963:5080   */\n      pop\n        /* \"#utility.yul\":4758:5087   */\n      swap3\n      swap2\n      pop\n      pop\n      jump\t// out\n        /* \"#utility.yul\":5093:5567   */\n    tag_62:\n        /* \"#utility.yul\":5161:5167   */\n      0x00\n        /* \"#utility.yul\":5169:5175   */\n      dup1\n        /* \"#utility.yul\":5218:5220   */\n      0x40\n        /* \"#utility.yul\":5206:5215   */\n      dup4\n        /* \"#utility.yul\":5197:5204   */\n      dup6\n        /* \"#utility.yul\":5193:5216   */\n      sub\n        /* \"#utility.yul\":5189:5221   */\n      slt\n        /* \"#utility.yul\":5186:5305   */\n      iszero\n      tag_197\n      jumpi\n        /* \"#utility.yul\":5224:5303   */\n      tag_198\n      tag_116\n      jump\t// in\n    tag_198:\n        /* \"#utility.yul\":5186:5305   */\n    tag_197:\n        /* \"#utility.yul\":5344:5345   */\n      0x00\n        /* \"#utility.yul\":5369:5422   */\n      tag_199\n        /* \"#utility.yul\":5414:5421   */\n      dup6\n        /* \"#utility.yul\":5405:5411   */\n      dup3\n        /* \"#utility.yul\":5394:5403   */\n      dup7\n        /* \"#utility.yul\":5390:5412   */\n      add\n        /* \"#utility.yul\":5369:5422   */\n      tag_121\n      jump\t// in\n    tag_199:\n        /* \"#utility.yul\":5359:5422   */\n      swap3\n      pop\n        /* \"#utility.yul\":5315:5432   */\n      pop\n        /* \"#utility.yul\":5471:5473   */\n      0x20\n        /* \"#utility.yul\":5497:5550   */\n      tag_200\n        /* \"#utility.yul\":5542:5549   */\n      dup6\n        /* \"#utility.yul\":5533:5539   */\n      dup3\n        /* \"#utility.yul\":5522:5531   */\n      dup7\n        /* \"#utility.yul\":5518:5540   */\n      add\n        /* \"#utility.yul\":5497:5550   */\n      tag_121\n      jump\t// in\n    tag_200:\n        /* \"#utility.yul\":5487:5550   */\n      swap2\n      pop\n        /* \"#utility.yul\":5442:5560   */\n      pop\n        /* \"#utility.yul\":5093:5567   */\n      swap3\n      pop\n      swap3\n      swap1\n      pop\n      jump\t// out\n        /* \"#utility.yul\":5573:5753   */\n    tag_128:\n        /* \"#utility.yul\":5621:5698   */\n      0x4e487b7100000000000000000000000000000000000000000000000000000000\n        /* \"#utility.yul\":5618:5619   */\n      0x00\n        /* \"#utility.yul\":5611:5699   */\n      mstore\n        /* \"#utility.yul\":5718:5722   */\n      0x22\n        /* \"#utility.yul\":5715:5716   */\n      0x04\n        /* \"#utility.yul\":5708:5723   */\n      mstore\n        /* \"#utility.yul\":5742:5746   */\n      0x24\n        /* \"#utility.yul\":5739:5740   */\n      0x00\n        /* \"#utility.yul\":5732:5747   */\n      revert\n        /* \"#utility.yul\":5759:6079   */\n    tag_66:\n        /* \"#utility.yul\":5803:5809   */\n      0x00\n        /* \"#utility.yul\":5840:5841   */\n      0x02\n        /* \"#utility.yul\":5834:5838   */\n      dup3\n        /* \"#utility.yul\":5830:5842   */\n      div\n        /* \"#utility.yul\":5820:5842   */\n      swap1\n      pop\n        /* \"#utility.yul\":5887:5888   */\n      0x01\n        /* \"#utility.yul\":5881:5885   */\n      dup3\n        /* \"#utility.yul\":5877:5889   */\n      and\n        /* \"#utility.yul\":5908:5926   */\n      dup1\n        /* \"#utility.yul\":5898:5979   */\n      tag_203\n      jumpi\n        /* \"#utility.yul\":5964:5968   */\n      0x7f\n        /* \"#utility.yul\":5956:5962   */\n      dup3\n        /* \"#utility.yul\":5952:5969   */\n      and\n        /* \"#utility.yul\":5942:5969   */\n      swap2\n      pop\n        /* \"#utility.yul\":5898:5979   */\n    tag_203:\n        /* \"#utility.yul\":6026:6028   */\n      0x20\n        /* \"#utility.yul\":6018:6024   */\n      dup3\n        /* \"#utility.yul\":6015:6029   */\n      lt\n        /* \"#utility.yul\":5995:6013   */\n      dup2\n        /* \"#utility.yul\":5992:6030   */\n      sub\n        /* \"#utility.yul\":5989:6073   */\n      tag_204\n      jumpi\n        /* \"#utility.yul\":6045:6063   */\n      tag_205\n      tag_128\n      jump\t// in\n    tag_205:\n        /* \"#utility.yul\":5989:6073   */\n    tag_204:\n        /* \"#utility.yul\":5810:6079   */\n      pop\n        /* \"#utility.yul\":5759:6079   */\n      swap2\n      swap1\n      pop\n      jump\t// out\n        /* \"#utility.yul\":6085:6203   */\n    tag_129:\n        /* \"#utility.yul\":6172:6196   */\n      tag_207\n        /* \"#utility.yul\":6190:6195   */\n      dup2\n        /* \"#utility.yul\":6172:6196   */\n      tag_119\n      jump\t// in\n    tag_207:\n        /* \"#utility.yul\":6167:6170   */\n      dup3\n        /* \"#utility.yul\":6160:6197   */\n      mstore\n        /* \"#utility.yul\":6085:6203   */\n      pop\n      pop\n      jump\t// out\n        /* \"#utility.yul\":6209:6651   */\n    tag_73:\n        /* \"#utility.yul\":6358:6362   */\n      0x00\n        /* \"#utility.yul\":6396:6398   */\n      0x60\n        /* \"#utility.yul\":6385:6394   */\n      dup3\n        /* \"#utility.yul\":6381:6399   */\n      add\n        /* \"#utility.yul\":6373:6399   */\n      swap1\n      pop\n        /* \"#utility.yul\":6409:6480   */\n      tag_209\n        /* \"#utility.yul\":6477:6478   */\n      0x00\n        /* \"#utility.yul\":6466:6475   */\n      dup4\n        /* \"#utility.yul\":6462:6479   */\n      add\n        /* \"#utility.yul\":6453:6459   */\n      dup7\n        /* \"#utility.yul\":6409:6480   */\n      tag_129\n      jump\t// in\n    tag_209:\n        /* \"#utility.yul\":6490:6562   */\n      tag_210\n        /* \"#utility.yul\":6558:6560   */\n      0x20\n        /* \"#utility.yul\":6547:6556   */\n      dup4\n        /* \"#utility.yul\":6543:6561   */\n      add\n        /* \"#utility.yul\":6534:6540   */\n      dup6\n        /* \"#utility.yul\":6490:6562   */\n      tag_129\n      jump\t// in\n    tag_210:\n        /* \"#utility.yul\":6572:6644   */\n      tag_211\n        /* \"#utility.yul\":6640:6642   */\n      0x40\n        /* \"#utility.yul\":6629:6638   */\n      dup4\n        /* \"#utility.yul\":6625:6643   */\n      add\n        /* \"#utility.yul\":6616:6622   */\n      dup5\n        /* \"#utility.yul\":6572:6644   */\n      tag_127\n      jump\t// in\n    tag_211:\n        /* \"#utility.yul\":6209:6651   */\n      swap5\n      swap4\n      pop\n      pop\n      pop\n      pop\n      jump\t// out\n        /* \"#utility.yul\":6657:6837   */\n    tag_130:\n        /* \"#utility.yul\":6705:6782   */\n      0x4e487b7100000000000000000000000000000000000000000000000000000000\n        /* \"#utility.yul\":6702:6703   */\n      0x00\n        /* \"#utility.yul\":6695:6783   */\n      mstore\n        /* \"#utility.yul\":6802:6806   */\n      0x11\n        /* \"#utility.yul\":6799:6800   */\n      0x04\n        /* \"#utility.yul\":6792:6807   */\n      mstore\n        /* \"#utility.yul\":6826:6830   */\n      0x24\n        /* \"#utility.yul\":6823:6824   */\n      0x00\n        /* \"#utility.yul\":6816:6831   */\n      revert\n        /* \"#utility.yul\":6843:7037   */\n    tag_79:\n        /* \"#utility.yul\":6883:6887   */\n      0x00\n        /* \"#utility.yul\":6903:6923   */\n      tag_214\n        /* \"#utility.yul\":6921:6922   */\n      dup3\n        /* \"#utility.yul\":6903:6923   */\n      tag_122\n      jump\t// in\n    tag_214:\n        /* \"#utility.yul\":6898:6923   */\n      swap2\n      pop\n        /* \"#utility.yul\":6937:6957   */\n      tag_215\n        /* \"#utility.yul\":6955:6956   */\n      dup4\n        /* \"#utility.yul\":6937:6957   */\n      tag_122\n      jump\t// in\n    tag_215:\n        /* \"#utility.yul\":6932:6957   */\n      swap3\n      pop\n        /* \"#utility.yul\":6981:6982   */\n      dup3\n        /* \"#utility.yul\":6978:6979   */\n      dup3\n        /* \"#utility.yul\":6974:6983   */\n      sub\n        /* \"#utility.yul\":6966:6983   */\n      swap1\n      pop\n        /* \"#utility.yul\":7005:7006   */\n      dup2\n        /* \"#utility.yul\":6999:7003   */\n      dup2\n        /* \"#utility.yul\":6996:7007   */\n      gt\n        /* \"#utility.yul\":6993:7030   */\n      iszero\n      tag_216\n      jumpi\n        /* \"#utility.yul\":7010:7028   */\n      tag_217\n      tag_130\n      jump\t// in\n    tag_217:\n        /* \"#utility.yul\":6993:7030   */\n    tag_216:\n        /* \"#utility.yul\":6843:7037   */\n      swap3\n      swap2\n      pop\n      pop\n      jump\t// out\n        /* \"#utility.yul\":7043:7234   */\n    tag_82:\n        /* \"#utility.yul\":7083:7086   */\n      0x00\n        /* \"#utility.yul\":7102:7122   */\n      tag_219\n        /* \"#utility.yul\":7120:7121   */\n      dup3\n        /* \"#utility.yul\":7102:7122   */\n      tag_122\n      jump\t// in\n    tag_219:\n        /* \"#utility.yul\":7097:7122   */\n      swap2\n      pop\n        /* \"#utility.yul\":7136:7156   */\n      tag_220\n        /* \"#utility.yul\":7154:7155   */\n      dup4\n        /* \"#utility.yul\":7136:7156   */\n      tag_122\n      jump\t// in\n    tag_220:\n        /* \"#utility.yul\":7131:7156   */\n      swap3\n      pop\n        /* \"#utility.yul\":7179:7180   */\n      dup3\n        /* \"#utility.yul\":7176:7177   */\n      dup3\n        /* \"#utility.yul\":7172:7181   */\n      add\n        /* \"#utility.yul\":7165:7181   */\n      swap1\n      pop\n        /* \"#utility.yul\":7200:7203   */\n      dup1\n        /* \"#utility.yul\":7197:7198   */\n      dup3\n        /* \"#utility.yul\":7194:7204   */\n      gt\n        /* \"#utility.yul\":7191:7227   */\n      iszero\n      tag_221\n      jumpi\n        /* \"#utility.yul\":7207:7225   */\n      tag_222\n      tag_130\n      jump\t// in\n    tag_222:\n        /* \"#utility.yul\":7191:7227   */\n    tag_221:\n        /* \"#utility.yul\":7043:7234   */\n      swap3\n      swap2\n      pop\n      pop\n      jump\t// out\n        /* \"#utility.yul\":7240:7650   */\n    tag_97:\n        /* \"#utility.yul\":7280:7287   */\n      0x00\n        /* \"#utility.yul\":7303:7323   */\n      tag_224\n        /* \"#utility.yul\":7321:7322   */\n      dup3\n        /* \"#utility.yul\":7303:7323   */\n      tag_122\n      jump\t// in\n    tag_224:\n        /* \"#utility.yul\":7298:7323   */\n      swap2\n      pop\n        /* \"#utility.yul\":7337:7357   */\n      tag_225\n        /* \"#utility.yul\":7355:7356   */\n      dup4\n        /* \"#utility.yul\":7337:7357   */\n      tag_122\n      jump\t// in\n    tag_225:\n        /* \"#utility.yul\":7332:7357   */\n      swap3\n      pop\n        /* \"#utility.yul\":7392:7393   */\n      dup3\n        /* \"#utility.yul\":7389:7390   */\n      dup3\n        /* \"#utility.yul\":7385:7394   */\n      mul\n        /* \"#utility.yul\":7414:7444   */\n      tag_226\n        /* \"#utility.yul\":7432:7443   */\n      dup2\n        /* \"#utility.yul\":7414:7444   */\n      tag_122\n      jump\t// in\n    tag_226:\n        /* \"#utility.yul\":7403:7444   */\n      swap2\n      pop\n        /* \"#utility.yul\":7593:7594   */\n      dup3\n        /* \"#utility.yul\":7584:7591   */\n      dup3\n        /* \"#utility.yul\":7580:7595   */\n      div\n        /* \"#utility.yul\":7577:7578   */\n      dup5\n        /* \"#utility.yul\":7574:7596   */\n      eq\n        /* \"#utility.yul\":7554:7555   */\n      dup4\n        /* \"#utility.yul\":7547:7556   */\n      iszero\n        /* \"#utility.yul\":7527:7610   */\n      or\n        /* \"#utility.yul\":7504:7643   */\n      tag_227\n      jumpi\n        /* \"#utility.yul\":7623:7641   */\n      tag_228\n      tag_130\n      jump\t// in\n    tag_228:\n        /* \"#utility.yul\":7504:7643   */\n    tag_227:\n        /* \"#utility.yul\":7288:7650   */\n      pop\n        /* \"#utility.yul\":7240:7650   */\n      swap3\n      swap2\n      pop\n      pop\n      jump\t// out\n        /* \"#utility.yul\":7656:7824   */\n    tag_131:\n        /* \"#utility.yul\":7796:7816   */\n      0x4e6f7420656e6f75676820657468657220210000000000000000000000000000\n        /* \"#utility.yul\":7792:7793   */\n      0x00\n        /* \"#utility.yul\":7784:7790   */\n      dup3\n        /* \"#utility.yul\":7780:7794   */\n      add\n        /* \"#utility.yul\":7773:7817   */\n      mstore\n        /* \"#utility.yul\":7656:7824   */\n      pop\n      jump\t// out\n        /* \"#utility.yul\":7830:8196   */\n    tag_132:\n        /* \"#utility.yul\":7972:7975   */\n      0x00\n        /* \"#utility.yul\":7993:8060   */\n      tag_231\n        /* \"#utility.yul\":8057:8059   */\n      0x12\n        /* \"#utility.yul\":8052:8055   */\n      dup4\n        /* \"#utility.yul\":7993:8060   */\n      tag_111\n      jump\t// in\n    tag_231:\n        /* \"#utility.yul\":7986:8060   */\n      swap2\n      pop\n        /* \"#utility.yul\":8069:8162   */\n      tag_232\n        /* \"#utility.yul\":8158:8161   */\n      dup3\n        /* \"#utility.yul\":8069:8162   */\n      tag_131\n      jump\t// in\n    tag_232:\n        /* \"#utility.yul\":8187:8189   */\n      0x20\n        /* \"#utility.yul\":8182:8185   */\n      dup3\n        /* \"#utility.yul\":8178:8190   */\n      add\n        /* \"#utility.yul\":8171:8190   */\n      swap1\n      pop\n        /* \"#utility.yul\":7830:8196   */\n      swap2\n      swap1\n      pop\n      jump\t// out\n        /* \"#utility.yul\":8202:8621   */\n    tag_100:\n        /* \"#utility.yul\":8368:8372   */\n      0x00\n        /* \"#utility.yul\":8406:8408   */\n      0x20\n        /* \"#utility.yul\":8395:8404   */\n      dup3\n        /* \"#utility.yul\":8391:8409   */\n      add\n        /* \"#utility.yul\":8383:8409   */\n      swap1\n      pop\n        /* \"#utility.yul\":8455:8464   */\n      dup2\n        /* \"#utility.yul\":8449:8453   */\n      dup2\n        /* \"#utility.yul\":8445:8465   */\n      sub\n        /* \"#utility.yul\":8441:8442   */\n      0x00\n        /* \"#utility.yul\":8430:8439   */\n      dup4\n        /* \"#utility.yul\":8426:8443   */\n      add\n        /* \"#utility.yul\":8419:8466   */\n      mstore\n        /* \"#utility.yul\":8483:8614   */\n      tag_234\n        /* \"#utility.yul\":8609:8613   */\n      dup2\n        /* \"#utility.yul\":8483:8614   */\n      tag_132\n      jump\t// in\n    tag_234:\n        /* \"#utility.yul\":8475:8614   */\n      swap1\n      pop\n        /* \"#utility.yul\":8202:8621   */\n      swap2\n      swap1\n      pop\n      jump\t// out\n        /* \"#utility.yul\":8627:8729   */\n    tag_133:\n        /* \"#utility.yul\":8669:8677   */\n      0x00\n        /* \"#utility.yul\":8716:8721   */\n      dup2\n        /* \"#utility.yul\":8713:8714   */\n      0x01\n        /* \"#utility.yul\":8709:8722   */\n      shr\n        /* \"#utility.yul\":8688:8722   */\n      swap1\n      pop\n        /* \"#utility.yul\":8627:8729   */\n      swap2\n      swap1\n      pop\n      jump\t// out\n        /* \"#utility.yul\":8735:9583   */\n    tag_134:\n        /* \"#utility.yul\":8796:8801   */\n      0x00\n        /* \"#utility.yul\":8803:8807   */\n      dup1\n        /* \"#utility.yul\":8827:8833   */\n      dup3\n        /* \"#utility.yul\":8818:8833   */\n      swap2\n      pop\n        /* \"#utility.yul\":8851:8856   */\n      dup4\n        /* \"#utility.yul\":8842:8856   */\n      swap1\n      pop\n        /* \"#utility.yul\":8865:9577   */\n    tag_237:\n        /* \"#utility.yul\":8886:8887   */\n      0x01\n        /* \"#utility.yul\":8876:8884   */\n      dup6\n        /* \"#utility.yul\":8873:8888   */\n      gt\n        /* \"#utility.yul\":8865:9577   */\n      iszero\n      tag_239\n      jumpi\n        /* \"#utility.yul\":8981:8985   */\n      dup1\n        /* \"#utility.yul\":8976:8979   */\n      dup7\n        /* \"#utility.yul\":8972:8986   */\n      div\n        /* \"#utility.yul\":8966:8970   */\n      dup2\n        /* \"#utility.yul\":8963:8987   */\n      gt\n        /* \"#utility.yul\":8960:9010   */\n      iszero\n      tag_240\n      jumpi\n        /* \"#utility.yul\":8990:9008   */\n      tag_241\n      tag_130\n      jump\t// in\n    tag_241:\n        /* \"#utility.yul\":8960:9010   */\n    tag_240:\n        /* \"#utility.yul\":9040:9041   */\n      0x01\n        /* \"#utility.yul\":9030:9038   */\n      dup6\n        /* \"#utility.yul\":9026:9042   */\n      and\n        /* \"#utility.yul\":9023:9474   */\n      iszero\n      tag_242\n      jumpi\n        /* \"#utility.yul\":9455:9459   */\n      dup1\n        /* \"#utility.yul\":9448:9453   */\n      dup3\n        /* \"#utility.yul\":9444:9460   */\n      mul\n        /* \"#utility.yul\":9435:9460   */\n      swap2\n      pop\n        /* \"#utility.yul\":9023:9474   */\n    tag_242:\n        /* \"#utility.yul\":9505:9509   */\n      dup1\n        /* \"#utility.yul\":9499:9503   */\n      dup2\n        /* \"#utility.yul\":9495:9510   */\n      mul\n        /* \"#utility.yul\":9487:9510   */\n      swap1\n      pop\n        /* \"#utility.yul\":9535:9567   */\n      tag_243\n        /* \"#utility.yul\":9558:9566   */\n      dup6\n        /* \"#utility.yul\":9535:9567   */\n      tag_133\n      jump\t// in\n    tag_243:\n        /* \"#utility.yul\":9523:9567   */\n      swap5\n      pop\n        /* \"#utility.yul\":8865:9577   */\n      jump(tag_237)\n    tag_239:\n        /* \"#utility.yul\":8735:9583   */\n      swap5\n      pop\n      swap5\n      swap3\n      pop\n      pop\n      pop\n      jump\t// out\n        /* \"#utility.yul\":9589:10662   */\n    tag_135:\n        /* \"#utility.yul\":9643:9648   */\n      0x00\n        /* \"#utility.yul\":9834:9842   */\n      dup3\n        /* \"#utility.yul\":9824:9864   */\n      tag_245\n      jumpi\n        /* \"#utility.yul\":9855:9856   */\n      0x01\n        /* \"#utility.yul\":9846:9856   */\n      swap1\n      pop\n        /* \"#utility.yul\":9857:9862   */\n      jump(tag_244)\n        /* \"#utility.yul\":9824:9864   */\n    tag_245:\n        /* \"#utility.yul\":9883:9887   */\n      dup2\n        /* \"#utility.yul\":9873:9909   */\n      tag_246\n      jumpi\n        /* \"#utility.yul\":9900:9901   */\n      0x00\n        /* \"#utility.yul\":9891:9901   */\n      swap1\n      pop\n        /* \"#utility.yul\":9902:9907   */\n      jump(tag_244)\n        /* \"#utility.yul\":9873:9909   */\n    tag_246:\n        /* \"#utility.yul\":9969:9973   */\n      dup2\n        /* \"#utility.yul\":10017:10018   */\n      0x01\n        /* \"#utility.yul\":10012:10039   */\n      dup2\n      eq\n      tag_248\n      jumpi\n        /* \"#utility.yul\":10053:10054   */\n      0x02\n        /* \"#utility.yul\":10048:10239   */\n      dup2\n      eq\n      tag_249\n      jumpi\n        /* \"#utility.yul\":9962:10239   */\n      jump(tag_247)\n        /* \"#utility.yul\":10012:10039   */\n    tag_248:\n        /* \"#utility.yul\":10030:10031   */\n      0x01\n        /* \"#utility.yul\":10021:10031   */\n      swap2\n      pop\n        /* \"#utility.yul\":10032:10037   */\n      pop\n      jump(tag_244)\n        /* \"#utility.yul\":10048:10239   */\n    tag_249:\n        /* \"#utility.yul\":10093:10096   */\n      0xff\n        /* \"#utility.yul\":10083:10091   */\n      dup5\n        /* \"#utility.yul\":10080:10097   */\n      gt\n        /* \"#utility.yul\":10077:10120   */\n      iszero\n      tag_250\n      jumpi\n        /* \"#utility.yul\":10100:10118   */\n      tag_251\n      tag_130\n      jump\t// in\n    tag_251:\n        /* \"#utility.yul\":10077:10120   */\n    tag_250:\n        /* \"#utility.yul\":10149:10157   */\n      dup4\n        /* \"#utility.yul\":10146:10147   */\n      0x02\n        /* \"#utility.yul\":10142:10158   */\n      exp\n        /* \"#utility.yul\":10133:10158   */\n      swap2\n      pop\n        /* \"#utility.yul\":10184:10187   */\n      dup5\n        /* \"#utility.yul\":10177:10182   */\n      dup3\n        /* \"#utility.yul\":10174:10188   */\n      gt\n        /* \"#utility.yul\":10171:10211   */\n      iszero\n      tag_252\n      jumpi\n        /* \"#utility.yul\":10191:10209   */\n      tag_253\n      tag_130\n      jump\t// in\n    tag_253:\n        /* \"#utility.yul\":10171:10211   */\n    tag_252:\n        /* \"#utility.yul\":10224:10229   */\n      pop\n      jump(tag_244)\n        /* \"#utility.yul\":9962:10239   */\n    tag_247:\n      pop\n        /* \"#utility.yul\":10348:10350   */\n      0x20\n        /* \"#utility.yul\":10338:10346   */\n      dup4\n        /* \"#utility.yul\":10335:10351   */\n      lt\n        /* \"#utility.yul\":10329:10332   */\n      0x0133\n        /* \"#utility.yul\":10323:10327   */\n      dup4\n        /* \"#utility.yul\":10320:10333   */\n      lt\n        /* \"#utility.yul\":10316:10352   */\n      and\n        /* \"#utility.yul\":10298:10300   */\n      0x4e\n        /* \"#utility.yul\":10288:10296   */\n      dup5\n        /* \"#utility.yul\":10285:10301   */\n      lt\n        /* \"#utility.yul\":10280:10282   */\n      0x0b\n        /* \"#utility.yul\":10274:10278   */\n      dup5\n        /* \"#utility.yul\":10271:10283   */\n      lt\n        /* \"#utility.yul\":10267:10302   */\n      and\n        /* \"#utility.yul\":10251:10362   */\n      or\n        /* \"#utility.yul\":10248:10494   */\n      iszero\n      tag_254\n      jumpi\n        /* \"#utility.yul\":10404:10412   */\n      dup3\n        /* \"#utility.yul\":10398:10402   */\n      dup3\n        /* \"#utility.yul\":10394:10413   */\n      exp\n        /* \"#utility.yul\":10385:10413   */\n      swap1\n      pop\n        /* \"#utility.yul\":10439:10442   */\n      dup4\n        /* \"#utility.yul\":10432:10437   */\n      dup2\n        /* \"#utility.yul\":10429:10443   */\n      gt\n        /* \"#utility.yul\":10426:10466   */\n      iszero\n      tag_255\n      jumpi\n        /* \"#utility.yul\":10446:10464   */\n      tag_256\n      tag_130\n      jump\t// in\n    tag_256:\n        /* \"#utility.yul\":10426:10466   */\n    tag_255:\n        /* \"#utility.yul\":10479:10484   */\n      jump(tag_244)\n        /* \"#utility.yul\":10248:10494   */\n    tag_254:\n        /* \"#utility.yul\":10519:10561   */\n      tag_257\n        /* \"#utility.yul\":10557:10560   */\n      dup5\n        /* \"#utility.yul\":10547:10555   */\n      dup5\n        /* \"#utility.yul\":10541:10545   */\n      dup5\n        /* \"#utility.yul\":10538:10539   */\n      0x01\n        /* \"#utility.yul\":10519:10561   */\n      tag_134\n      jump\t// in\n    tag_257:\n        /* \"#utility.yul\":10504:10561   */\n      swap3\n      pop\n      swap1\n      pop\n        /* \"#utility.yul\":10593:10597   */\n      dup2\n        /* \"#utility.yul\":10588:10591   */\n      dup5\n        /* \"#utility.yul\":10584:10598   */\n      div\n        /* \"#utility.yul\":10577:10582   */\n      dup2\n        /* \"#utility.yul\":10574:10599   */\n      gt\n        /* \"#utility.yul\":10571:10622   */\n      iszero\n      tag_258\n      jumpi\n        /* \"#utility.yul\":10602:10620   */\n      tag_259\n      tag_130\n      jump\t// in\n    tag_259:\n        /* \"#utility.yul\":10571:10622   */\n    tag_258:\n        /* \"#utility.yul\":10651:10655   */\n      dup2\n        /* \"#utility.yul\":10644:10649   */\n      dup2\n        /* \"#utility.yul\":10640:10656   */\n      mul\n        /* \"#utility.yul\":10631:10656   */\n      swap1\n      pop\n        /* \"#utility.yul\":9589:10662   */\n    tag_244:\n      swap4\n      swap3\n      pop\n      pop\n      pop\n      jump\t// out\n        /* \"#utility.yul\":10668:10953   */\n    tag_102:\n        /* \"#utility.yul\":10728:10733   */\n      0x00\n        /* \"#utility.yul\":10752:10775   */\n      tag_261\n        /* \"#utility.yul\":10770:10774   */\n      dup3\n        /* \"#utility.yul\":10752:10775   */\n      tag_122\n      jump\t// in\n    tag_261:\n        /* \"#utility.yul\":10744:10775   */\n      swap2\n      pop\n        /* \"#utility.yul\":10796:10823   */\n      tag_262\n        /* \"#utility.yul\":10814:10822   */\n      dup4\n        /* \"#utility.yul\":10796:10823   */\n      tag_122\n      jump\t// in\n    tag_262:\n        /* \"#utility.yul\":10784:10823   */\n      swap3\n      pop\n        /* \"#utility.yul\":10842:10946   */\n      tag_263\n        /* \"#utility.yul\":10879:10945   */\n      0xffffffffffffffffffffffffffffffffffffffffffffffffffffffffffffffff\n        /* \"#utility.yul\":10869:10877   */\n      dup5\n        /* \"#utility.yul\":10863:10867   */\n      dup5\n        /* \"#utility.yul\":10842:10946   */\n      tag_135\n      jump\t// in\n    tag_263:\n        /* \"#utility.yul\":10833:10946   */\n      swap1\n      pop\n        /* \"#utility.yul\":10668:10953   */\n      swap3\n      swap2\n      pop\n      pop\n      jump\t// out\n\n    auxdata: 0xa26469706673582212209f6e49e2a51084645db7e93fb46572e89b10e72fd4f81467ed3446ad63540fcc64736f6c63430008140033\n}\n",
				"bytecode": {
					"linkReferences": {},
					"object": "608060405234801562000010575f80fd5b506040518060400160405280600881526020017f536f6c69646974790000000000000000000000000000000000000000000000008152505f908162000056919062000455565b506040518060400160405280600481526020017f534c445400000000000000000000000000000000000000000000000000000000815250600190816200009d919062000455565b5060126002819055503360035f6101000a81548173ffffffffffffffffffffffffffffffffffffffff021916908373ffffffffffffffffffffffffffffffffffffffff16021790555060035f9054906101000a900473ffffffffffffffffffffffffffffffffffffffff1673ffffffffffffffffffffffffffffffffffffffff163160055f60035f9054906101000a900473ffffffffffffffffffffffffffffffffffffffff1673ffffffffffffffffffffffffffffffffffffffff1673ffffffffffffffffffffffffffffffffffffffff1681526020019081526020015f2081905550600254600a620001929190620006b6565b6103e8620001a1919062000706565b60048190555060045460065f3373ffffffffffffffffffffffffffffffffffffffff1673ffffffffffffffffffffffffffffffffffffffff1681526020019081526020015f208190555062000750565b5f81519050919050565b7f4e487b71000000000000000000000000000000000000000000000000000000005f52604160045260245ffd5b7f4e487b71000000000000000000000000000000000000000000000000000000005f52602260045260245ffd5b5f60028204905060018216806200026d57607f821691505b60208210810362000283576200028262000228565b5b50919050565b5f819050815f5260205f209050919050565b5f6020601f8301049050919050565b5f82821b905092915050565b5f60088302620002e77fffffffffffffffffffffffffffffffffffffffffffffffffffffffffffffffff82620002aa565b620002f38683620002aa565b95508019841693508086168417925050509392505050565b5f819050919050565b5f819050919050565b5f6200033d6200033762000331846200030b565b62000314565b6200030b565b9050919050565b5f819050919050565b62000358836200031d565b62000370620003678262000344565b848454620002b6565b825550505050565b5f90565b6200038662000378565b620003938184846200034d565b505050565b5b81811015620003ba57620003ae5f826200037c565b60018101905062000399565b5050565b601f8211156200040957620003d38162000289565b620003de846200029b565b81016020851015620003ee578190505b62000406620003fd856200029b565b83018262000398565b50505b505050565b5f82821c905092915050565b5f6200042b5f19846008026200040e565b1980831691505092915050565b5f6200044583836200041a565b9150826002028217905092915050565b6200046082620001f1565b67ffffffffffffffff8111156200047c576200047b620001fb565b5b62000488825462000255565b62000495828285620003be565b5f60209050601f831160018114620004cb575f8415620004b6578287015190505b620004c2858262000438565b86555062000531565b601f198416620004db8662000289565b5f5b828110156200050457848901518255600182019150602085019450602081019050620004dd565b8683101562000524578489015162000520601f8916826200041a565b8355505b6001600288020188555050505b505050505050565b7f4e487b71000000000000000000000000000000000000000000000000000000005f52601160045260245ffd5b5f8160011c9050919050565b5f808291508390505b6001851115620005c3578086048111156200059b576200059a62000539565b5b6001851615620005ab5780820291505b8081029050620005bb8562000566565b94506200057b565b94509492505050565b5f82620005dd5760019050620006af565b81620005ec575f9050620006af565b8160018114620006055760028114620006105762000646565b6001915050620006af565b60ff84111562000625576200062462000539565b5b8360020a9150848211156200063f576200063e62000539565b5b50620006af565b5060208310610133831016604e8410600b8410161715620006805782820a9050838111156200067a576200067962000539565b5b620006af565b6200068f848484600162000572565b92509050818404811115620006a957620006a862000539565b5b81810290505b9392505050565b5f620006c2826200030b565b9150620006cf836200030b565b9250620006fe7fffffffffffffffffffffffffffffffffffffffffffffffffffffffffffffffff8484620005cc565b905092915050565b5f62000712826200030b565b91506200071f836200030b565b92508282026200072f816200030b565b9150828204841483151762000749576200074862000539565b5b5092915050565b6110d8806200075e5f395ff3fe608060405260043610610090575f3560e01c806376809ce31161005857806376809ce31461019c57806395d89b41146101c6578063a9059cbb146101f0578063d96a094a1461022c578063dd62ed3e1461024857610090565b806306fdde0314610094578063095ea7b3146100be57806318160ddd146100fa57806323b872dd1461012457806370a0823114610160575b5f80fd5b34801561009f575f80fd5b506100a8610284565b6040516100b59190610b1e565b60405180910390f35b3480156100c9575f80fd5b506100e460048036038101906100df9190610bcf565b61030f565b6040516100f19190610c27565b60405180910390f35b348015610105575f80fd5b5061010e6103d2565b60405161011b9190610c4f565b60405180910390f35b34801561012f575f80fd5b5061014a60048036038101906101459190610c68565b6103db565b6040516101579190610c27565b60405180910390f35b34801561016b575f80fd5b5061018660048036038101906101819190610cb8565b610623565b6040516101939190610c4f565b60405180910390f35b3480156101a7575f80fd5b506101b0610669565b6040516101bd9190610c4f565b60405180910390f35b3480156101d1575f80fd5b506101da61066f565b6040516101e79190610b1e565b60405180910390f35b3480156101fb575f80fd5b5061021660048036038101906102119190610bcf565b6106fb565b6040516102239190610c27565b60405180910390f35b61024660048036038101906102419190610ce3565b610830565b005b348015610253575f80fd5b5061026e60048036038101906102699190610d0e565b610a12565b60405161027b9190610c4f565b60405180910390f35b5f805461029090610d79565b80601f01602080910402602001604051908101604052809291908181526020018280546102bc90610d79565b80156103075780601f106102de57610100808354040283529160200191610307565b820191905f5260205f20905b8154815290600101906020018083116102ea57829003601f168201915b505050505081565b5f8160075f3373ffffffffffffffffffffffffffffffffffffffff1673ffffffffffffffffffffffffffffffffffffffff1681526020019081526020015f205f8573ffffffffffffffffffffffffffffffffffffffff1673ffffffffffffffffffffffffffffffffffffffff1681526020019081526020015f20819055507f8c5be1e5ebec7d5bd14f71427d1e84f3dd0314c0f7b2291e5b200ac8c7c3b9253384846040516103c093929190610db8565b60405180910390a16001905092915050565b5f600454905090565b5f60065f8573ffffffffffffffffffffffffffffffffffffffff1673ffffffffffffffffffffffffffffffffffffffff1681526020019081526020015f2054821115610425575f80fd5b60075f3373ffffffffffffffffffffffffffffffffffffffff1673ffffffffffffffffffffffffffffffffffffffff1681526020019081526020015f205f8573ffffffffffffffffffffffffffffffffffffffff1673ffffffffffffffffffffffffffffffffffffffff1681526020019081526020015f20548211156104a9575f80fd5b8160065f8673ffffffffffffffffffffffffffffffffffffffff1673ffffffffffffffffffffffffffffffffffffffff1681526020019081526020015f205f8282546104f59190610e1a565b925050819055508160075f3373ffffffffffffffffffffffffffffffffffffffff1673ffffffffffffffffffffffffffffffffffffffff1681526020019081526020015f205f8673ffffffffffffffffffffffffffffffffffffffff1673ffffffffffffffffffffffffffffffffffffffff1681526020019081526020015f205f8282546105839190610e1a565b925050819055508160065f8573ffffffffffffffffffffffffffffffffffffffff1673ffffffffffffffffffffffffffffffffffffffff1681526020019081526020015f205f8282546105d69190610e4d565b925050819055507fddf252ad1be2c89b69c2b068fc378daa952ba7f163c4a11628f55a4df523b3ef33848460405161061093929190610db8565b60405180910390a1600190509392505050565b5f60065f8373ffffffffffffffffffffffffffffffffffffffff1673ffffffffffffffffffffffffffffffffffffffff1681526020019081526020015f20549050919050565b60025481565b6001805461067c90610d79565b80601f01602080910402602001604051908101604052809291908181526020018280546106a890610d79565b80156106f35780601f106106ca576101008083540402835291602001916106f3565b820191905f5260205f20905b8154815290600101906020018083116106d657829003601f168201915b505050505081565b5f60065f3373ffffffffffffffffffffffffffffffffffffffff1673ffffffffffffffffffffffffffffffffffffffff1681526020019081526020015f2054821115610745575f80fd5b8160065f3373ffffffffffffffffffffffffffffffffffffffff1673ffffffffffffffffffffffffffffffffffffffff1681526020019081526020015f205f8282546107919190610e1a565b925050819055508160065f8573ffffffffffffffffffffffffffffffffffffffff1673ffffffffffffffffffffffffffffffffffffffff1681526020019081526020015f205f8282546107e49190610e4d565b925050819055507fddf252ad1be2c89b69c2b068fc378daa952ba7f163c4a11628f55a4df523b3ef33848460405161081e93929190610db8565b60405180910390a16001905092915050565b5f66038d7ea4c68000905080826108479190610e80565b341015610889576040517f08c379a000000000000000000000000000000000000000000000000000000000815260040161088090610f0b565b60405180910390fd5b5f600254600a6108999190611058565b836108a49190610e80565b90508060065f3373ffffffffffffffffffffffffffffffffffffffff1673ffffffffffffffffffffffffffffffffffffffff1681526020019081526020015f205f8282546108f29190610e4d565b925050819055508060065f60035f9054906101000a900473ffffffffffffffffffffffffffffffffffffffff1673ffffffffffffffffffffffffffffffffffffffff1673ffffffffffffffffffffffffffffffffffffffff1681526020019081526020015f205f8282546109669190610e1a565b925050819055503373ffffffffffffffffffffffffffffffffffffffff166108fc8490811502906040515f60405180830381858888f193505050501580156109b0573d5f803e3d5ffd5b507fddf252ad1be2c89b69c2b068fc378daa952ba7f163c4a11628f55a4df523b3ef60035f9054906101000a900473ffffffffffffffffffffffffffffffffffffffff163383604051610a0593929190610db8565b60405180910390a1505050565b5f60075f8473ffffffffffffffffffffffffffffffffffffffff1673ffffffffffffffffffffffffffffffffffffffff1681526020019081526020015f205f8373ffffffffffffffffffffffffffffffffffffffff1673ffffffffffffffffffffffffffffffffffffffff1681526020019081526020015f2054905092915050565b5f81519050919050565b5f82825260208201905092915050565b5f5b83811015610acb578082015181840152602081019050610ab0565b5f8484015250505050565b5f601f19601f8301169050919050565b5f610af082610a94565b610afa8185610a9e565b9350610b0a818560208601610aae565b610b1381610ad6565b840191505092915050565b5f6020820190508181035f830152610b368184610ae6565b905092915050565b5f80fd5b5f73ffffffffffffffffffffffffffffffffffffffff82169050919050565b5f610b6b82610b42565b9050919050565b610b7b81610b61565b8114610b85575f80fd5b50565b5f81359050610b9681610b72565b92915050565b5f819050919050565b610bae81610b9c565b8114610bb8575f80fd5b50565b5f81359050610bc981610ba5565b92915050565b5f8060408385031215610be557610be4610b3e565b5b5f610bf285828601610b88565b9250506020610c0385828601610bbb565b9150509250929050565b5f8115159050919050565b610c2181610c0d565b82525050565b5f602082019050610c3a5f830184610c18565b92915050565b610c4981610b9c565b82525050565b5f602082019050610c625f830184610c40565b92915050565b5f805f60608486031215610c7f57610c7e610b3e565b5b5f610c8c86828701610b88565b9350506020610c9d86828701610b88565b9250506040610cae86828701610bbb565b9150509250925092565b5f60208284031215610ccd57610ccc610b3e565b5b5f610cda84828501610b88565b91505092915050565b5f60208284031215610cf857610cf7610b3e565b5b5f610d0584828501610bbb565b91505092915050565b5f8060408385031215610d2457610d23610b3e565b5b5f610d3185828601610b88565b9250506020610d4285828601610b88565b9150509250929050565b7f4e487b71000000000000000000000000000000000000000000000000000000005f52602260045260245ffd5b5f6002820490506001821680610d9057607f821691505b602082108103610da357610da2610d4c565b5b50919050565b610db281610b61565b82525050565b5f606082019050610dcb5f830186610da9565b610dd86020830185610da9565b610de56040830184610c40565b949350505050565b7f4e487b71000000000000000000000000000000000000000000000000000000005f52601160045260245ffd5b5f610e2482610b9c565b9150610e2f83610b9c565b9250828203905081811115610e4757610e46610ded565b5b92915050565b5f610e5782610b9c565b9150610e6283610b9c565b9250828201905080821115610e7a57610e79610ded565b5b92915050565b5f610e8a82610b9c565b9150610e9583610b9c565b9250828202610ea381610b9c565b91508282048414831517610eba57610eb9610ded565b5b5092915050565b7f4e6f7420656e6f756768206574686572202100000000000000000000000000005f82015250565b5f610ef5601283610a9e565b9150610f0082610ec1565b602082019050919050565b5f6020820190508181035f830152610f2281610ee9565b9050919050565b5f8160011c9050919050565b5f808291508390505b6001851115610f7e57808604811115610f5a57610f59610ded565b5b6001851615610f695780820291505b8081029050610f7785610f29565b9450610f3e565b94509492505050565b5f82610f965760019050611051565b81610fa3575f9050611051565b8160018114610fb95760028114610fc357610ff2565b6001915050611051565b60ff841115610fd557610fd4610ded565b5b8360020a915084821115610fec57610feb610ded565b5b50611051565b5060208310610133831016604e8410600b84101617156110275782820a90508381111561102257611021610ded565b5b611051565b6110348484846001610f35565b9250905081840481111561104b5761104a610ded565b5b81810290505b9392505050565b5f61106282610b9c565b915061106d83610b9c565b925061109a7fffffffffffffffffffffffffffffffffffffffffffffffffffffffffffffffff8484610f87565b90509291505056fea26469706673582212209f6e49e2a51084645db7e93fb46572e89b10e72fd4f81467ed3446ad63540fcc64736f6c63430008140033",
					"opcodes": "PUSH1 0x80 PUSH1 0x40 MSTORE CALLVALUE DUP1 ISZERO PUSH3 0x10 JUMPI PUSH0 DUP1 REVERT JUMPDEST POP PUSH1 0x40 MLOAD DUP1 PUSH1 0x40 ADD PUSH1 0x40 MSTORE DUP1 PUSH1 0x8 DUP2 MSTORE PUSH1 0x20 ADD PUSH32 0x536F6C6964697479000000000000000000000000000000000000000000000000 DUP2 MSTORE POP PUSH0 SWAP1 DUP2 PUSH3 0x56 SWAP2 SWAP1 PUSH3 0x455 JUMP JUMPDEST POP PUSH1 0x40 MLOAD DUP1 PUSH1 0x40 ADD PUSH1 0x40 MSTORE DUP1 PUSH1 0x4 DUP2 MSTORE PUSH1 0x20 ADD PUSH32 0x534C445400000000000000000000000000000000000000000000000000000000 DUP2 MSTORE POP PUSH1 0x1 SWAP1 DUP2 PUSH3 0x9D SWAP2 SWAP1 PUSH3 0x455 JUMP JUMPDEST POP PUSH1 0x12 PUSH1 0x2 DUP2 SWAP1 SSTORE POP CALLER PUSH1 0x3 PUSH0 PUSH2 0x100 EXP DUP2 SLOAD DUP2 PUSH20 0xFFFFFFFFFFFFFFFFFFFFFFFFFFFFFFFFFFFFFFFF MUL NOT AND SWAP1 DUP4 PUSH20 0xFFFFFFFFFFFFFFFFFFFFFFFFFFFFFFFFFFFFFFFF AND MUL OR SWAP1 SSTORE POP PUSH1 0x3 PUSH0 SWAP1 SLOAD SWAP1 PUSH2 0x100 EXP SWAP1 DIV PUSH20 0xFFFFFFFFFFFFFFFFFFFFFFFFFFFFFFFFFFFFFFFF AND PUSH20 0xFFFFFFFFFFFFFFFFFFFFFFFFFFFFFFFFFFFFFFFF AND BALANCE PUSH1 0x5 PUSH0 PUSH1 0x3 PUSH0 SWAP1 SLOAD SWAP1 PUSH2 0x100 EXP SWAP1 DIV PUSH20 0xFFFFFFFFFFFFFFFFFFFFFFFFFFFFFFFFFFFFFFFF AND PUSH20 0xFFFFFFFFFFFFFFFFFFFFFFFFFFFFFFFFFFFFFFFF AND PUSH20 0xFFFFFFFFFFFFFFFFFFFFFFFFFFFFFFFFFFFFFFFF AND DUP2 MSTORE PUSH1 0x20 ADD SWAP1 DUP2 MSTORE PUSH1 0x20 ADD PUSH0 KECCAK256 DUP2 SWAP1 SSTORE POP PUSH1 0x2 SLOAD PUSH1 0xA PUSH3 0x192 SWAP2 SWAP1 PUSH3 0x6B6 JUMP JUMPDEST PUSH2 0x3E8 PUSH3 0x1A1 SWAP2 SWAP1 PUSH3 0x706 JUMP JUMPDEST PUSH1 0x4 DUP2 SWAP1 SSTORE POP PUSH1 0x4 SLOAD PUSH1 0x6 PUSH0 CALLER PUSH20 0xFFFFFFFFFFFFFFFFFFFFFFFFFFFFFFFFFFFFFFFF AND PUSH20 0xFFFFFFFFFFFFFFFFFFFFFFFFFFFFFFFFFFFFFFFF AND DUP2 MSTORE PUSH1 0x20 ADD SWAP1 DUP2 MSTORE PUSH1 0x20 ADD PUSH0 KECCAK256 DUP2 SWAP1 SSTORE POP PUSH3 0x750 JUMP JUMPDEST PUSH0 DUP2 MLOAD SWAP1 POP SWAP2 SWAP1 POP JUMP JUMPDEST PUSH32 0x4E487B7100000000000000000000000000000000000000000000000000000000 PUSH0 MSTORE PUSH1 0x41 PUSH1 0x4 MSTORE PUSH1 0x24 PUSH0 REVERT JUMPDEST PUSH32 0x4E487B7100000000000000000000000000000000000000000000000000000000 PUSH0 MSTORE PUSH1 0x22 PUSH1 0x4 MSTORE PUSH1 0x24 PUSH0 REVERT JUMPDEST PUSH0 PUSH1 0x2 DUP3 DIV SWAP1 POP PUSH1 0x1 DUP3 AND DUP1 PUSH3 0x26D JUMPI PUSH1 0x7F DUP3 AND SWAP2 POP JUMPDEST PUSH1 0x20 DUP3 LT DUP2 SUB PUSH3 0x283 JUMPI PUSH3 0x282 PUSH3 0x228 JUMP JUMPDEST JUMPDEST POP SWAP2 SWAP1 POP JUMP JUMPDEST PUSH0 DUP2 SWAP1 POP DUP2 PUSH0 MSTORE PUSH1 0x20 PUSH0 KECCAK256 SWAP1 POP SWAP2 SWAP1 POP JUMP JUMPDEST PUSH0 PUSH1 0x20 PUSH1 0x1F DUP4 ADD DIV SWAP1 POP SWAP2 SWAP1 POP JUMP JUMPDEST PUSH0 DUP3 DUP3 SHL SWAP1 POP SWAP3 SWAP2 POP POP JUMP JUMPDEST PUSH0 PUSH1 0x8 DUP4 MUL PUSH3 0x2E7 PUSH32 0xFFFFFFFFFFFFFFFFFFFFFFFFFFFFFFFFFFFFFFFFFFFFFFFFFFFFFFFFFFFFFFFF DUP3 PUSH3 0x2AA JUMP JUMPDEST PUSH3 0x2F3 DUP7 DUP4 PUSH3 0x2AA JUMP JUMPDEST SWAP6 POP DUP1 NOT DUP5 AND SWAP4 POP DUP1 DUP7 AND DUP5 OR SWAP3 POP POP POP SWAP4 SWAP3 POP POP POP JUMP JUMPDEST PUSH0 DUP2 SWAP1 POP SWAP2 SWAP1 POP JUMP JUMPDEST PUSH0 DUP2 SWAP1 POP SWAP2 SWAP1 POP JUMP JUMPDEST PUSH0 PUSH3 0x33D PUSH3 0x337 PUSH3 0x331 DUP5 PUSH3 0x30B JUMP JUMPDEST PUSH3 0x314 JUMP JUMPDEST PUSH3 0x30B JUMP JUMPDEST SWAP1 POP SWAP2 SWAP1 POP JUMP JUMPDEST PUSH0 DUP2 SWAP1 POP SWAP2 SWAP1 POP JUMP JUMPDEST PUSH3 0x358 DUP4 PUSH3 0x31D JUMP JUMPDEST PUSH3 0x370 PUSH3 0x367 DUP3 PUSH3 0x344 JUMP JUMPDEST DUP5 DUP5 SLOAD PUSH3 0x2B6 JUMP JUMPDEST DUP3 SSTORE POP POP POP POP JUMP JUMPDEST PUSH0 SWAP1 JUMP JUMPDEST PUSH3 0x386 PUSH3 0x378 JUMP JUMPDEST PUSH3 0x393 DUP2 DUP5 DUP5 PUSH3 0x34D JUMP JUMPDEST POP POP POP JUMP JUMPDEST JUMPDEST DUP2 DUP2 LT ISZERO PUSH3 0x3BA JUMPI PUSH3 0x3AE PUSH0 DUP3 PUSH3 0x37C JUMP JUMPDEST PUSH1 0x1 DUP2 ADD SWAP1 POP PUSH3 0x399 JUMP JUMPDEST POP POP JUMP JUMPDEST PUSH1 0x1F DUP3 GT ISZERO PUSH3 0x409 JUMPI PUSH3 0x3D3 DUP2 PUSH3 0x289 JUMP JUMPDEST PUSH3 0x3DE DUP5 PUSH3 0x29B JUMP JUMPDEST DUP2 ADD PUSH1 0x20 DUP6 LT ISZERO PUSH3 0x3EE JUMPI DUP2 SWAP1 POP JUMPDEST PUSH3 0x406 PUSH3 0x3FD DUP6 PUSH3 0x29B JUMP JUMPDEST DUP4 ADD DUP3 PUSH3 0x398 JUMP JUMPDEST POP POP JUMPDEST POP POP POP JUMP JUMPDEST PUSH0 DUP3 DUP3 SHR SWAP1 POP SWAP3 SWAP2 POP POP JUMP JUMPDEST PUSH0 PUSH3 0x42B PUSH0 NOT DUP5 PUSH1 0x8 MUL PUSH3 0x40E JUMP JUMPDEST NOT DUP1 DUP4 AND SWAP2 POP POP SWAP3 SWAP2 POP POP JUMP JUMPDEST PUSH0 PUSH3 0x445 DUP4 DUP4 PUSH3 0x41A JUMP JUMPDEST SWAP2 POP DUP3 PUSH1 0x2 MUL DUP3 OR SWAP1 POP SWAP3 SWAP2 POP POP JUMP JUMPDEST PUSH3 0x460 DUP3 PUSH3 0x1F1 JUMP JUMPDEST PUSH8 0xFFFFFFFFFFFFFFFF DUP2 GT ISZERO PUSH3 0x47C JUMPI PUSH3 0x47B PUSH3 0x1FB JUMP JUMPDEST JUMPDEST PUSH3 0x488 DUP3 SLOAD PUSH3 0x255 JUMP JUMPDEST PUSH3 0x495 DUP3 DUP3 DUP6 PUSH3 0x3BE JUMP JUMPDEST PUSH0 PUSH1 0x20 SWAP1 POP PUSH1 0x1F DUP4 GT PUSH1 0x1 DUP2 EQ PUSH3 0x4CB JUMPI PUSH0 DUP5 ISZERO PUSH3 0x4B6 JUMPI DUP3 DUP8 ADD MLOAD SWAP1 POP JUMPDEST PUSH3 0x4C2 DUP6 DUP3 PUSH3 0x438 JUMP JUMPDEST DUP7 SSTORE POP PUSH3 0x531 JUMP JUMPDEST PUSH1 0x1F NOT DUP5 AND PUSH3 0x4DB DUP7 PUSH3 0x289 JUMP JUMPDEST PUSH0 JUMPDEST DUP3 DUP2 LT ISZERO PUSH3 0x504 JUMPI DUP5 DUP10 ADD MLOAD DUP3 SSTORE PUSH1 0x1 DUP3 ADD SWAP2 POP PUSH1 0x20 DUP6 ADD SWAP5 POP PUSH1 0x20 DUP2 ADD SWAP1 POP PUSH3 0x4DD JUMP JUMPDEST DUP7 DUP4 LT ISZERO PUSH3 0x524 JUMPI DUP5 DUP10 ADD MLOAD PUSH3 0x520 PUSH1 0x1F DUP10 AND DUP3 PUSH3 0x41A JUMP JUMPDEST DUP4 SSTORE POP JUMPDEST PUSH1 0x1 PUSH1 0x2 DUP9 MUL ADD DUP9 SSTORE POP POP POP JUMPDEST POP POP POP POP POP POP JUMP JUMPDEST PUSH32 0x4E487B7100000000000000000000000000000000000000000000000000000000 PUSH0 MSTORE PUSH1 0x11 PUSH1 0x4 MSTORE PUSH1 0x24 PUSH0 REVERT JUMPDEST PUSH0 DUP2 PUSH1 0x1 SHR SWAP1 POP SWAP2 SWAP1 POP JUMP JUMPDEST PUSH0 DUP1 DUP3 SWAP2 POP DUP4 SWAP1 POP JUMPDEST PUSH1 0x1 DUP6 GT ISZERO PUSH3 0x5C3 JUMPI DUP1 DUP7 DIV DUP2 GT ISZERO PUSH3 0x59B JUMPI PUSH3 0x59A PUSH3 0x539 JUMP JUMPDEST JUMPDEST PUSH1 0x1 DUP6 AND ISZERO PUSH3 0x5AB JUMPI DUP1 DUP3 MUL SWAP2 POP JUMPDEST DUP1 DUP2 MUL SWAP1 POP PUSH3 0x5BB DUP6 PUSH3 0x566 JUMP JUMPDEST SWAP5 POP PUSH3 0x57B JUMP JUMPDEST SWAP5 POP SWAP5 SWAP3 POP POP POP JUMP JUMPDEST PUSH0 DUP3 PUSH3 0x5DD JUMPI PUSH1 0x1 SWAP1 POP PUSH3 0x6AF JUMP JUMPDEST DUP2 PUSH3 0x5EC JUMPI PUSH0 SWAP1 POP PUSH3 0x6AF JUMP JUMPDEST DUP2 PUSH1 0x1 DUP2 EQ PUSH3 0x605 JUMPI PUSH1 0x2 DUP2 EQ PUSH3 0x610 JUMPI PUSH3 0x646 JUMP JUMPDEST PUSH1 0x1 SWAP2 POP POP PUSH3 0x6AF JUMP JUMPDEST PUSH1 0xFF DUP5 GT ISZERO PUSH3 0x625 JUMPI PUSH3 0x624 PUSH3 0x539 JUMP JUMPDEST JUMPDEST DUP4 PUSH1 0x2 EXP SWAP2 POP DUP5 DUP3 GT ISZERO PUSH3 0x63F JUMPI PUSH3 0x63E PUSH3 0x539 JUMP JUMPDEST JUMPDEST POP PUSH3 0x6AF JUMP JUMPDEST POP PUSH1 0x20 DUP4 LT PUSH2 0x133 DUP4 LT AND PUSH1 0x4E DUP5 LT PUSH1 0xB DUP5 LT AND OR ISZERO PUSH3 0x680 JUMPI DUP3 DUP3 EXP SWAP1 POP DUP4 DUP2 GT ISZERO PUSH3 0x67A JUMPI PUSH3 0x679 PUSH3 0x539 JUMP JUMPDEST JUMPDEST PUSH3 0x6AF JUMP JUMPDEST PUSH3 0x68F DUP5 DUP5 DUP5 PUSH1 0x1 PUSH3 0x572 JUMP JUMPDEST SWAP3 POP SWAP1 POP DUP2 DUP5 DIV DUP2 GT ISZERO PUSH3 0x6A9 JUMPI PUSH3 0x6A8 PUSH3 0x539 JUMP JUMPDEST JUMPDEST DUP2 DUP2 MUL SWAP1 POP JUMPDEST SWAP4 SWAP3 POP POP POP JUMP JUMPDEST PUSH0 PUSH3 0x6C2 DUP3 PUSH3 0x30B JUMP JUMPDEST SWAP2 POP PUSH3 0x6CF DUP4 PUSH3 0x30B JUMP JUMPDEST SWAP3 POP PUSH3 0x6FE PUSH32 0xFFFFFFFFFFFFFFFFFFFFFFFFFFFFFFFFFFFFFFFFFFFFFFFFFFFFFFFFFFFFFFFF DUP5 DUP5 PUSH3 0x5CC JUMP JUMPDEST SWAP1 POP SWAP3 SWAP2 POP POP JUMP JUMPDEST PUSH0 PUSH3 0x712 DUP3 PUSH3 0x30B JUMP JUMPDEST SWAP2 POP PUSH3 0x71F DUP4 PUSH3 0x30B JUMP JUMPDEST SWAP3 POP DUP3 DUP3 MUL PUSH3 0x72F DUP2 PUSH3 0x30B JUMP JUMPDEST SWAP2 POP DUP3 DUP3 DIV DUP5 EQ DUP4 ISZERO OR PUSH3 0x749 JUMPI PUSH3 0x748 PUSH3 0x539 JUMP JUMPDEST JUMPDEST POP SWAP3 SWAP2 POP POP JUMP JUMPDEST PUSH2 0x10D8 DUP1 PUSH3 0x75E PUSH0 CODECOPY PUSH0 RETURN INVALID PUSH1 0x80 PUSH1 0x40 MSTORE PUSH1 0x4 CALLDATASIZE LT PUSH2 0x90 JUMPI PUSH0 CALLDATALOAD PUSH1 0xE0 SHR DUP1 PUSH4 0x76809CE3 GT PUSH2 0x58 JUMPI DUP1 PUSH4 0x76809CE3 EQ PUSH2 0x19C JUMPI DUP1 PUSH4 0x95D89B41 EQ PUSH2 0x1C6 JUMPI DUP1 PUSH4 0xA9059CBB EQ PUSH2 0x1F0 JUMPI DUP1 PUSH4 0xD96A094A EQ PUSH2 0x22C JUMPI DUP1 PUSH4 0xDD62ED3E EQ PUSH2 0x248 JUMPI PUSH2 0x90 JUMP JUMPDEST DUP1 PUSH4 0x6FDDE03 EQ PUSH2 0x94 JUMPI DUP1 PUSH4 0x95EA7B3 EQ PUSH2 0xBE JUMPI DUP1 PUSH4 0x18160DDD EQ PUSH2 0xFA JUMPI DUP1 PUSH4 0x23B872DD EQ PUSH2 0x124 JUMPI DUP1 PUSH4 0x70A08231 EQ PUSH2 0x160 JUMPI JUMPDEST PUSH0 DUP1 REVERT JUMPDEST CALLVALUE DUP1 ISZERO PUSH2 0x9F JUMPI PUSH0 DUP1 REVERT JUMPDEST POP PUSH2 0xA8 PUSH2 0x284 JUMP JUMPDEST PUSH1 0x40 MLOAD PUSH2 0xB5 SWAP2 SWAP1 PUSH2 0xB1E JUMP JUMPDEST PUSH1 0x40 MLOAD DUP1 SWAP2 SUB SWAP1 RETURN JUMPDEST CALLVALUE DUP1 ISZERO PUSH2 0xC9 JUMPI PUSH0 DUP1 REVERT JUMPDEST POP PUSH2 0xE4 PUSH1 0x4 DUP1 CALLDATASIZE SUB DUP2 ADD SWAP1 PUSH2 0xDF SWAP2 SWAP1 PUSH2 0xBCF JUMP JUMPDEST PUSH2 0x30F JUMP JUMPDEST PUSH1 0x40 MLOAD PUSH2 0xF1 SWAP2 SWAP1 PUSH2 0xC27 JUMP JUMPDEST PUSH1 0x40 MLOAD DUP1 SWAP2 SUB SWAP1 RETURN JUMPDEST CALLVALUE DUP1 ISZERO PUSH2 0x105 JUMPI PUSH0 DUP1 REVERT JUMPDEST POP PUSH2 0x10E PUSH2 0x3D2 JUMP JUMPDEST PUSH1 0x40 MLOAD PUSH2 0x11B SWAP2 SWAP1 PUSH2 0xC4F JUMP JUMPDEST PUSH1 0x40 MLOAD DUP1 SWAP2 SUB SWAP1 RETURN JUMPDEST CALLVALUE DUP1 ISZERO PUSH2 0x12F JUMPI PUSH0 DUP1 REVERT JUMPDEST POP PUSH2 0x14A PUSH1 0x4 DUP1 CALLDATASIZE SUB DUP2 ADD SWAP1 PUSH2 0x145 SWAP2 SWAP1 PUSH2 0xC68 JUMP JUMPDEST PUSH2 0x3DB JUMP JUMPDEST PUSH1 0x40 MLOAD PUSH2 0x157 SWAP2 SWAP1 PUSH2 0xC27 JUMP JUMPDEST PUSH1 0x40 MLOAD DUP1 SWAP2 SUB SWAP1 RETURN JUMPDEST CALLVALUE DUP1 ISZERO PUSH2 0x16B JUMPI PUSH0 DUP1 REVERT JUMPDEST POP PUSH2 0x186 PUSH1 0x4 DUP1 CALLDATASIZE SUB DUP2 ADD SWAP1 PUSH2 0x181 SWAP2 SWAP1 PUSH2 0xCB8 JUMP JUMPDEST PUSH2 0x623 JUMP JUMPDEST PUSH1 0x40 MLOAD PUSH2 0x193 SWAP2 SWAP1 PUSH2 0xC4F JUMP JUMPDEST PUSH1 0x40 MLOAD DUP1 SWAP2 SUB SWAP1 RETURN JUMPDEST CALLVALUE DUP1 ISZERO PUSH2 0x1A7 JUMPI PUSH0 DUP1 REVERT JUMPDEST POP PUSH2 0x1B0 PUSH2 0x669 JUMP JUMPDEST PUSH1 0x40 MLOAD PUSH2 0x1BD SWAP2 SWAP1 PUSH2 0xC4F JUMP JUMPDEST PUSH1 0x40 MLOAD DUP1 SWAP2 SUB SWAP1 RETURN JUMPDEST CALLVALUE DUP1 ISZERO PUSH2 0x1D1 JUMPI PUSH0 DUP1 REVERT JUMPDEST POP PUSH2 0x1DA PUSH2 0x66F JUMP JUMPDEST PUSH1 0x40 MLOAD PUSH2 0x1E7 SWAP2 SWAP1 PUSH2 0xB1E JUMP JUMPDEST PUSH1 0x40 MLOAD DUP1 SWAP2 SUB SWAP1 RETURN JUMPDEST CALLVALUE DUP1 ISZERO PUSH2 0x1FB JUMPI PUSH0 DUP1 REVERT JUMPDEST POP PUSH2 0x216 PUSH1 0x4 DUP1 CALLDATASIZE SUB DUP2 ADD SWAP1 PUSH2 0x211 SWAP2 SWAP1 PUSH2 0xBCF JUMP JUMPDEST PUSH2 0x6FB JUMP JUMPDEST PUSH1 0x40 MLOAD PUSH2 0x223 SWAP2 SWAP1 PUSH2 0xC27 JUMP JUMPDEST PUSH1 0x40 MLOAD DUP1 SWAP2 SUB SWAP1 RETURN JUMPDEST PUSH2 0x246 PUSH1 0x4 DUP1 CALLDATASIZE SUB DUP2 ADD SWAP1 PUSH2 0x241 SWAP2 SWAP1 PUSH2 0xCE3 JUMP JUMPDEST PUSH2 0x830 JUMP JUMPDEST STOP JUMPDEST CALLVALUE DUP1 ISZERO PUSH2 0x253 JUMPI PUSH0 DUP1 REVERT JUMPDEST POP PUSH2 0x26E PUSH1 0x4 DUP1 CALLDATASIZE SUB DUP2 ADD SWAP1 PUSH2 0x269 SWAP2 SWAP1 PUSH2 0xD0E JUMP JUMPDEST PUSH2 0xA12 JUMP JUMPDEST PUSH1 0x40 MLOAD PUSH2 0x27B SWAP2 SWAP1 PUSH2 0xC4F JUMP JUMPDEST PUSH1 0x40 MLOAD DUP1 SWAP2 SUB SWAP1 RETURN JUMPDEST PUSH0 DUP1 SLOAD PUSH2 0x290 SWAP1 PUSH2 0xD79 JUMP JUMPDEST DUP1 PUSH1 0x1F ADD PUSH1 0x20 DUP1 SWAP2 DIV MUL PUSH1 0x20 ADD PUSH1 0x40 MLOAD SWAP1 DUP2 ADD PUSH1 0x40 MSTORE DUP1 SWAP3 SWAP2 SWAP1 DUP2 DUP2 MSTORE PUSH1 0x20 ADD DUP3 DUP1 SLOAD PUSH2 0x2BC SWAP1 PUSH2 0xD79 JUMP JUMPDEST DUP1 ISZERO PUSH2 0x307 JUMPI DUP1 PUSH1 0x1F LT PUSH2 0x2DE JUMPI PUSH2 0x100 DUP1 DUP4 SLOAD DIV MUL DUP4 MSTORE SWAP2 PUSH1 0x20 ADD SWAP2 PUSH2 0x307 JUMP JUMPDEST DUP3 ADD SWAP2 SWAP1 PUSH0 MSTORE PUSH1 0x20 PUSH0 KECCAK256 SWAP1 JUMPDEST DUP2 SLOAD DUP2 MSTORE SWAP1 PUSH1 0x1 ADD SWAP1 PUSH1 0x20 ADD DUP1 DUP4 GT PUSH2 0x2EA JUMPI DUP3 SWAP1 SUB PUSH1 0x1F AND DUP3 ADD SWAP2 JUMPDEST POP POP POP POP POP DUP2 JUMP JUMPDEST PUSH0 DUP2 PUSH1 0x7 PUSH0 CALLER PUSH20 0xFFFFFFFFFFFFFFFFFFFFFFFFFFFFFFFFFFFFFFFF AND PUSH20 0xFFFFFFFFFFFFFFFFFFFFFFFFFFFFFFFFFFFFFFFF AND DUP2 MSTORE PUSH1 0x20 ADD SWAP1 DUP2 MSTORE PUSH1 0x20 ADD PUSH0 KECCAK256 PUSH0 DUP6 PUSH20 0xFFFFFFFFFFFFFFFFFFFFFFFFFFFFFFFFFFFFFFFF AND PUSH20 0xFFFFFFFFFFFFFFFFFFFFFFFFFFFFFFFFFFFFFFFF AND DUP2 MSTORE PUSH1 0x20 ADD SWAP1 DUP2 MSTORE PUSH1 0x20 ADD PUSH0 KECCAK256 DUP2 SWAP1 SSTORE POP PUSH32 0x8C5BE1E5EBEC7D5BD14F71427D1E84F3DD0314C0F7B2291E5B200AC8C7C3B925 CALLER DUP5 DUP5 PUSH1 0x40 MLOAD PUSH2 0x3C0 SWAP4 SWAP3 SWAP2 SWAP1 PUSH2 0xDB8 JUMP JUMPDEST PUSH1 0x40 MLOAD DUP1 SWAP2 SUB SWAP1 LOG1 PUSH1 0x1 SWAP1 POP SWAP3 SWAP2 POP POP JUMP JUMPDEST PUSH0 PUSH1 0x4 SLOAD SWAP1 POP SWAP1 JUMP JUMPDEST PUSH0 PUSH1 0x6 PUSH0 DUP6 PUSH20 0xFFFFFFFFFFFFFFFFFFFFFFFFFFFFFFFFFFFFFFFF AND PUSH20 0xFFFFFFFFFFFFFFFFFFFFFFFFFFFFFFFFFFFFFFFF AND DUP2 MSTORE PUSH1 0x20 ADD SWAP1 DUP2 MSTORE PUSH1 0x20 ADD PUSH0 KECCAK256 SLOAD DUP3 GT ISZERO PUSH2 0x425 JUMPI PUSH0 DUP1 REVERT JUMPDEST PUSH1 0x7 PUSH0 CALLER PUSH20 0xFFFFFFFFFFFFFFFFFFFFFFFFFFFFFFFFFFFFFFFF AND PUSH20 0xFFFFFFFFFFFFFFFFFFFFFFFFFFFFFFFFFFFFFFFF AND DUP2 MSTORE PUSH1 0x20 ADD SWAP1 DUP2 MSTORE PUSH1 0x20 ADD PUSH0 KECCAK256 PUSH0 DUP6 PUSH20 0xFFFFFFFFFFFFFFFFFFFFFFFFFFFFFFFFFFFFFFFF AND PUSH20 0xFFFFFFFFFFFFFFFFFFFFFFFFFFFFFFFFFFFFFFFF AND DUP2 MSTORE PUSH1 0x20 ADD SWAP1 DUP2 MSTORE PUSH1 0x20 ADD PUSH0 KECCAK256 SLOAD DUP3 GT ISZERO PUSH2 0x4A9 JUMPI PUSH0 DUP1 REVERT JUMPDEST DUP2 PUSH1 0x6 PUSH0 DUP7 PUSH20 0xFFFFFFFFFFFFFFFFFFFFFFFFFFFFFFFFFFFFFFFF AND PUSH20 0xFFFFFFFFFFFFFFFFFFFFFFFFFFFFFFFFFFFFFFFF AND DUP2 MSTORE PUSH1 0x20 ADD SWAP1 DUP2 MSTORE PUSH1 0x20 ADD PUSH0 KECCAK256 PUSH0 DUP3 DUP3 SLOAD PUSH2 0x4F5 SWAP2 SWAP1 PUSH2 0xE1A JUMP JUMPDEST SWAP3 POP POP DUP2 SWAP1 SSTORE POP DUP2 PUSH1 0x7 PUSH0 CALLER PUSH20 0xFFFFFFFFFFFFFFFFFFFFFFFFFFFFFFFFFFFFFFFF AND PUSH20 0xFFFFFFFFFFFFFFFFFFFFFFFFFFFFFFFFFFFFFFFF AND DUP2 MSTORE PUSH1 0x20 ADD SWAP1 DUP2 MSTORE PUSH1 0x20 ADD PUSH0 KECCAK256 PUSH0 DUP7 PUSH20 0xFFFFFFFFFFFFFFFFFFFFFFFFFFFFFFFFFFFFFFFF AND PUSH20 0xFFFFFFFFFFFFFFFFFFFFFFFFFFFFFFFFFFFFFFFF AND DUP2 MSTORE PUSH1 0x20 ADD SWAP1 DUP2 MSTORE PUSH1 0x20 ADD PUSH0 KECCAK256 PUSH0 DUP3 DUP3 SLOAD PUSH2 0x583 SWAP2 SWAP1 PUSH2 0xE1A JUMP JUMPDEST SWAP3 POP POP DUP2 SWAP1 SSTORE POP DUP2 PUSH1 0x6 PUSH0 DUP6 PUSH20 0xFFFFFFFFFFFFFFFFFFFFFFFFFFFFFFFFFFFFFFFF AND PUSH20 0xFFFFFFFFFFFFFFFFFFFFFFFFFFFFFFFFFFFFFFFF AND DUP2 MSTORE PUSH1 0x20 ADD SWAP1 DUP2 MSTORE PUSH1 0x20 ADD PUSH0 KECCAK256 PUSH0 DUP3 DUP3 SLOAD PUSH2 0x5D6 SWAP2 SWAP1 PUSH2 0xE4D JUMP JUMPDEST SWAP3 POP POP DUP2 SWAP1 SSTORE POP PUSH32 0xDDF252AD1BE2C89B69C2B068FC378DAA952BA7F163C4A11628F55A4DF523B3EF CALLER DUP5 DUP5 PUSH1 0x40 MLOAD PUSH2 0x610 SWAP4 SWAP3 SWAP2 SWAP1 PUSH2 0xDB8 JUMP JUMPDEST PUSH1 0x40 MLOAD DUP1 SWAP2 SUB SWAP1 LOG1 PUSH1 0x1 SWAP1 POP SWAP4 SWAP3 POP POP POP JUMP JUMPDEST PUSH0 PUSH1 0x6 PUSH0 DUP4 PUSH20 0xFFFFFFFFFFFFFFFFFFFFFFFFFFFFFFFFFFFFFFFF AND PUSH20 0xFFFFFFFFFFFFFFFFFFFFFFFFFFFFFFFFFFFFFFFF AND DUP2 MSTORE PUSH1 0x20 ADD SWAP1 DUP2 MSTORE PUSH1 0x20 ADD PUSH0 KECCAK256 SLOAD SWAP1 POP SWAP2 SWAP1 POP JUMP JUMPDEST PUSH1 0x2 SLOAD DUP2 JUMP JUMPDEST PUSH1 0x1 DUP1 SLOAD PUSH2 0x67C SWAP1 PUSH2 0xD79 JUMP JUMPDEST DUP1 PUSH1 0x1F ADD PUSH1 0x20 DUP1 SWAP2 DIV MUL PUSH1 0x20 ADD PUSH1 0x40 MLOAD SWAP1 DUP2 ADD PUSH1 0x40 MSTORE DUP1 SWAP3 SWAP2 SWAP1 DUP2 DUP2 MSTORE PUSH1 0x20 ADD DUP3 DUP1 SLOAD PUSH2 0x6A8 SWAP1 PUSH2 0xD79 JUMP JUMPDEST DUP1 ISZERO PUSH2 0x6F3 JUMPI DUP1 PUSH1 0x1F LT PUSH2 0x6CA JUMPI PUSH2 0x100 DUP1 DUP4 SLOAD DIV MUL DUP4 MSTORE SWAP2 PUSH1 0x20 ADD SWAP2 PUSH2 0x6F3 JUMP JUMPDEST DUP3 ADD SWAP2 SWAP1 PUSH0 MSTORE PUSH1 0x20 PUSH0 KECCAK256 SWAP1 JUMPDEST DUP2 SLOAD DUP2 MSTORE SWAP1 PUSH1 0x1 ADD SWAP1 PUSH1 0x20 ADD DUP1 DUP4 GT PUSH2 0x6D6 JUMPI DUP3 SWAP1 SUB PUSH1 0x1F AND DUP3 ADD SWAP2 JUMPDEST POP POP POP POP POP DUP2 JUMP JUMPDEST PUSH0 PUSH1 0x6 PUSH0 CALLER PUSH20 0xFFFFFFFFFFFFFFFFFFFFFFFFFFFFFFFFFFFFFFFF AND PUSH20 0xFFFFFFFFFFFFFFFFFFFFFFFFFFFFFFFFFFFFFFFF AND DUP2 MSTORE PUSH1 0x20 ADD SWAP1 DUP2 MSTORE PUSH1 0x20 ADD PUSH0 KECCAK256 SLOAD DUP3 GT ISZERO PUSH2 0x745 JUMPI PUSH0 DUP1 REVERT JUMPDEST DUP2 PUSH1 0x6 PUSH0 CALLER PUSH20 0xFFFFFFFFFFFFFFFFFFFFFFFFFFFFFFFFFFFFFFFF AND PUSH20 0xFFFFFFFFFFFFFFFFFFFFFFFFFFFFFFFFFFFFFFFF AND DUP2 MSTORE PUSH1 0x20 ADD SWAP1 DUP2 MSTORE PUSH1 0x20 ADD PUSH0 KECCAK256 PUSH0 DUP3 DUP3 SLOAD PUSH2 0x791 SWAP2 SWAP1 PUSH2 0xE1A JUMP JUMPDEST SWAP3 POP POP DUP2 SWAP1 SSTORE POP DUP2 PUSH1 0x6 PUSH0 DUP6 PUSH20 0xFFFFFFFFFFFFFFFFFFFFFFFFFFFFFFFFFFFFFFFF AND PUSH20 0xFFFFFFFFFFFFFFFFFFFFFFFFFFFFFFFFFFFFFFFF AND DUP2 MSTORE PUSH1 0x20 ADD SWAP1 DUP2 MSTORE PUSH1 0x20 ADD PUSH0 KECCAK256 PUSH0 DUP3 DUP3 SLOAD PUSH2 0x7E4 SWAP2 SWAP1 PUSH2 0xE4D JUMP JUMPDEST SWAP3 POP POP DUP2 SWAP1 SSTORE POP PUSH32 0xDDF252AD1BE2C89B69C2B068FC378DAA952BA7F163C4A11628F55A4DF523B3EF CALLER DUP5 DUP5 PUSH1 0x40 MLOAD PUSH2 0x81E SWAP4 SWAP3 SWAP2 SWAP1 PUSH2 0xDB8 JUMP JUMPDEST PUSH1 0x40 MLOAD DUP1 SWAP2 SUB SWAP1 LOG1 PUSH1 0x1 SWAP1 POP SWAP3 SWAP2 POP POP JUMP JUMPDEST PUSH0 PUSH7 0x38D7EA4C68000 SWAP1 POP DUP1 DUP3 PUSH2 0x847 SWAP2 SWAP1 PUSH2 0xE80 JUMP JUMPDEST CALLVALUE LT ISZERO PUSH2 0x889 JUMPI PUSH1 0x40 MLOAD PUSH32 0x8C379A000000000000000000000000000000000000000000000000000000000 DUP2 MSTORE PUSH1 0x4 ADD PUSH2 0x880 SWAP1 PUSH2 0xF0B JUMP JUMPDEST PUSH1 0x40 MLOAD DUP1 SWAP2 SUB SWAP1 REVERT JUMPDEST PUSH0 PUSH1 0x2 SLOAD PUSH1 0xA PUSH2 0x899 SWAP2 SWAP1 PUSH2 0x1058 JUMP JUMPDEST DUP4 PUSH2 0x8A4 SWAP2 SWAP1 PUSH2 0xE80 JUMP JUMPDEST SWAP1 POP DUP1 PUSH1 0x6 PUSH0 CALLER PUSH20 0xFFFFFFFFFFFFFFFFFFFFFFFFFFFFFFFFFFFFFFFF AND PUSH20 0xFFFFFFFFFFFFFFFFFFFFFFFFFFFFFFFFFFFFFFFF AND DUP2 MSTORE PUSH1 0x20 ADD SWAP1 DUP2 MSTORE PUSH1 0x20 ADD PUSH0 KECCAK256 PUSH0 DUP3 DUP3 SLOAD PUSH2 0x8F2 SWAP2 SWAP1 PUSH2 0xE4D JUMP JUMPDEST SWAP3 POP POP DUP2 SWAP1 SSTORE POP DUP1 PUSH1 0x6 PUSH0 PUSH1 0x3 PUSH0 SWAP1 SLOAD SWAP1 PUSH2 0x100 EXP SWAP1 DIV PUSH20 0xFFFFFFFFFFFFFFFFFFFFFFFFFFFFFFFFFFFFFFFF AND PUSH20 0xFFFFFFFFFFFFFFFFFFFFFFFFFFFFFFFFFFFFFFFF AND PUSH20 0xFFFFFFFFFFFFFFFFFFFFFFFFFFFFFFFFFFFFFFFF AND DUP2 MSTORE PUSH1 0x20 ADD SWAP1 DUP2 MSTORE PUSH1 0x20 ADD PUSH0 KECCAK256 PUSH0 DUP3 DUP3 SLOAD PUSH2 0x966 SWAP2 SWAP1 PUSH2 0xE1A JUMP JUMPDEST SWAP3 POP POP DUP2 SWAP1 SSTORE POP CALLER PUSH20 0xFFFFFFFFFFFFFFFFFFFFFFFFFFFFFFFFFFFFFFFF AND PUSH2 0x8FC DUP5 SWAP1 DUP2 ISZERO MUL SWAP1 PUSH1 0x40 MLOAD PUSH0 PUSH1 0x40 MLOAD DUP1 DUP4 SUB DUP2 DUP6 DUP9 DUP9 CALL SWAP4 POP POP POP POP ISZERO DUP1 ISZERO PUSH2 0x9B0 JUMPI RETURNDATASIZE PUSH0 DUP1 RETURNDATACOPY RETURNDATASIZE PUSH0 REVERT JUMPDEST POP PUSH32 0xDDF252AD1BE2C89B69C2B068FC378DAA952BA7F163C4A11628F55A4DF523B3EF PUSH1 0x3 PUSH0 SWAP1 SLOAD SWAP1 PUSH2 0x100 EXP SWAP1 DIV PUSH20 0xFFFFFFFFFFFFFFFFFFFFFFFFFFFFFFFFFFFFFFFF AND CALLER DUP4 PUSH1 0x40 MLOAD PUSH2 0xA05 SWAP4 SWAP3 SWAP2 SWAP1 PUSH2 0xDB8 JUMP JUMPDEST PUSH1 0x40 MLOAD DUP1 SWAP2 SUB SWAP1 LOG1 POP POP POP JUMP JUMPDEST PUSH0 PUSH1 0x7 PUSH0 DUP5 PUSH20 0xFFFFFFFFFFFFFFFFFFFFFFFFFFFFFFFFFFFFFFFF AND PUSH20 0xFFFFFFFFFFFFFFFFFFFFFFFFFFFFFFFFFFFFFFFF AND DUP2 MSTORE PUSH1 0x20 ADD SWAP1 DUP2 MSTORE PUSH1 0x20 ADD PUSH0 KECCAK256 PUSH0 DUP4 PUSH20 0xFFFFFFFFFFFFFFFFFFFFFFFFFFFFFFFFFFFFFFFF AND PUSH20 0xFFFFFFFFFFFFFFFFFFFFFFFFFFFFFFFFFFFFFFFF AND DUP2 MSTORE PUSH1 0x20 ADD SWAP1 DUP2 MSTORE PUSH1 0x20 ADD PUSH0 KECCAK256 SLOAD SWAP1 POP SWAP3 SWAP2 POP POP JUMP JUMPDEST PUSH0 DUP2 MLOAD SWAP1 POP SWAP2 SWAP1 POP JUMP JUMPDEST PUSH0 DUP3 DUP3 MSTORE PUSH1 0x20 DUP3 ADD SWAP1 POP SWAP3 SWAP2 POP POP JUMP JUMPDEST PUSH0 JUMPDEST DUP4 DUP2 LT ISZERO PUSH2 0xACB JUMPI DUP1 DUP3 ADD MLOAD DUP2 DUP5 ADD MSTORE PUSH1 0x20 DUP2 ADD SWAP1 POP PUSH2 0xAB0 JUMP JUMPDEST PUSH0 DUP5 DUP5 ADD MSTORE POP POP POP POP JUMP JUMPDEST PUSH0 PUSH1 0x1F NOT PUSH1 0x1F DUP4 ADD AND SWAP1 POP SWAP2 SWAP1 POP JUMP JUMPDEST PUSH0 PUSH2 0xAF0 DUP3 PUSH2 0xA94 JUMP JUMPDEST PUSH2 0xAFA DUP2 DUP6 PUSH2 0xA9E JUMP JUMPDEST SWAP4 POP PUSH2 0xB0A DUP2 DUP6 PUSH1 0x20 DUP7 ADD PUSH2 0xAAE JUMP JUMPDEST PUSH2 0xB13 DUP2 PUSH2 0xAD6 JUMP JUMPDEST DUP5 ADD SWAP2 POP POP SWAP3 SWAP2 POP POP JUMP JUMPDEST PUSH0 PUSH1 0x20 DUP3 ADD SWAP1 POP DUP2 DUP2 SUB PUSH0 DUP4 ADD MSTORE PUSH2 0xB36 DUP2 DUP5 PUSH2 0xAE6 JUMP JUMPDEST SWAP1 POP SWAP3 SWAP2 POP POP JUMP JUMPDEST PUSH0 DUP1 REVERT JUMPDEST PUSH0 PUSH20 0xFFFFFFFFFFFFFFFFFFFFFFFFFFFFFFFFFFFFFFFF DUP3 AND SWAP1 POP SWAP2 SWAP1 POP JUMP JUMPDEST PUSH0 PUSH2 0xB6B DUP3 PUSH2 0xB42 JUMP JUMPDEST SWAP1 POP SWAP2 SWAP1 POP JUMP JUMPDEST PUSH2 0xB7B DUP2 PUSH2 0xB61 JUMP JUMPDEST DUP2 EQ PUSH2 0xB85 JUMPI PUSH0 DUP1 REVERT JUMPDEST POP JUMP JUMPDEST PUSH0 DUP2 CALLDATALOAD SWAP1 POP PUSH2 0xB96 DUP2 PUSH2 0xB72 JUMP JUMPDEST SWAP3 SWAP2 POP POP JUMP JUMPDEST PUSH0 DUP2 SWAP1 POP SWAP2 SWAP1 POP JUMP JUMPDEST PUSH2 0xBAE DUP2 PUSH2 0xB9C JUMP JUMPDEST DUP2 EQ PUSH2 0xBB8 JUMPI PUSH0 DUP1 REVERT JUMPDEST POP JUMP JUMPDEST PUSH0 DUP2 CALLDATALOAD SWAP1 POP PUSH2 0xBC9 DUP2 PUSH2 0xBA5 JUMP JUMPDEST SWAP3 SWAP2 POP POP JUMP JUMPDEST PUSH0 DUP1 PUSH1 0x40 DUP4 DUP6 SUB SLT ISZERO PUSH2 0xBE5 JUMPI PUSH2 0xBE4 PUSH2 0xB3E JUMP JUMPDEST JUMPDEST PUSH0 PUSH2 0xBF2 DUP6 DUP3 DUP7 ADD PUSH2 0xB88 JUMP JUMPDEST SWAP3 POP POP PUSH1 0x20 PUSH2 0xC03 DUP6 DUP3 DUP7 ADD PUSH2 0xBBB JUMP JUMPDEST SWAP2 POP POP SWAP3 POP SWAP3 SWAP1 POP JUMP JUMPDEST PUSH0 DUP2 ISZERO ISZERO SWAP1 POP SWAP2 SWAP1 POP JUMP JUMPDEST PUSH2 0xC21 DUP2 PUSH2 0xC0D JUMP JUMPDEST DUP3 MSTORE POP POP JUMP JUMPDEST PUSH0 PUSH1 0x20 DUP3 ADD SWAP1 POP PUSH2 0xC3A PUSH0 DUP4 ADD DUP5 PUSH2 0xC18 JUMP JUMPDEST SWAP3 SWAP2 POP POP JUMP JUMPDEST PUSH2 0xC49 DUP2 PUSH2 0xB9C JUMP JUMPDEST DUP3 MSTORE POP POP JUMP JUMPDEST PUSH0 PUSH1 0x20 DUP3 ADD SWAP1 POP PUSH2 0xC62 PUSH0 DUP4 ADD DUP5 PUSH2 0xC40 JUMP JUMPDEST SWAP3 SWAP2 POP POP JUMP JUMPDEST PUSH0 DUP1 PUSH0 PUSH1 0x60 DUP5 DUP7 SUB SLT ISZERO PUSH2 0xC7F JUMPI PUSH2 0xC7E PUSH2 0xB3E JUMP JUMPDEST JUMPDEST PUSH0 PUSH2 0xC8C DUP7 DUP3 DUP8 ADD PUSH2 0xB88 JUMP JUMPDEST SWAP4 POP POP PUSH1 0x20 PUSH2 0xC9D DUP7 DUP3 DUP8 ADD PUSH2 0xB88 JUMP JUMPDEST SWAP3 POP POP PUSH1 0x40 PUSH2 0xCAE DUP7 DUP3 DUP8 ADD PUSH2 0xBBB JUMP JUMPDEST SWAP2 POP POP SWAP3 POP SWAP3 POP SWAP3 JUMP JUMPDEST PUSH0 PUSH1 0x20 DUP3 DUP5 SUB SLT ISZERO PUSH2 0xCCD JUMPI PUSH2 0xCCC PUSH2 0xB3E JUMP JUMPDEST JUMPDEST PUSH0 PUSH2 0xCDA DUP5 DUP3 DUP6 ADD PUSH2 0xB88 JUMP JUMPDEST SWAP2 POP POP SWAP3 SWAP2 POP POP JUMP JUMPDEST PUSH0 PUSH1 0x20 DUP3 DUP5 SUB SLT ISZERO PUSH2 0xCF8 JUMPI PUSH2 0xCF7 PUSH2 0xB3E JUMP JUMPDEST JUMPDEST PUSH0 PUSH2 0xD05 DUP5 DUP3 DUP6 ADD PUSH2 0xBBB JUMP JUMPDEST SWAP2 POP POP SWAP3 SWAP2 POP POP JUMP JUMPDEST PUSH0 DUP1 PUSH1 0x40 DUP4 DUP6 SUB SLT ISZERO PUSH2 0xD24 JUMPI PUSH2 0xD23 PUSH2 0xB3E JUMP JUMPDEST JUMPDEST PUSH0 PUSH2 0xD31 DUP6 DUP3 DUP7 ADD PUSH2 0xB88 JUMP JUMPDEST SWAP3 POP POP PUSH1 0x20 PUSH2 0xD42 DUP6 DUP3 DUP7 ADD PUSH2 0xB88 JUMP JUMPDEST SWAP2 POP POP SWAP3 POP SWAP3 SWAP1 POP JUMP JUMPDEST PUSH32 0x4E487B7100000000000000000000000000000000000000000000000000000000 PUSH0 MSTORE PUSH1 0x22 PUSH1 0x4 MSTORE PUSH1 0x24 PUSH0 REVERT JUMPDEST PUSH0 PUSH1 0x2 DUP3 DIV SWAP1 POP PUSH1 0x1 DUP3 AND DUP1 PUSH2 0xD90 JUMPI PUSH1 0x7F DUP3 AND SWAP2 POP JUMPDEST PUSH1 0x20 DUP3 LT DUP2 SUB PUSH2 0xDA3 JUMPI PUSH2 0xDA2 PUSH2 0xD4C JUMP JUMPDEST JUMPDEST POP SWAP2 SWAP1 POP JUMP JUMPDEST PUSH2 0xDB2 DUP2 PUSH2 0xB61 JUMP JUMPDEST DUP3 MSTORE POP POP JUMP JUMPDEST PUSH0 PUSH1 0x60 DUP3 ADD SWAP1 POP PUSH2 0xDCB PUSH0 DUP4 ADD DUP7 PUSH2 0xDA9 JUMP JUMPDEST PUSH2 0xDD8 PUSH1 0x20 DUP4 ADD DUP6 PUSH2 0xDA9 JUMP JUMPDEST PUSH2 0xDE5 PUSH1 0x40 DUP4 ADD DUP5 PUSH2 0xC40 JUMP JUMPDEST SWAP5 SWAP4 POP POP POP POP JUMP JUMPDEST PUSH32 0x4E487B7100000000000000000000000000000000000000000000000000000000 PUSH0 MSTORE PUSH1 0x11 PUSH1 0x4 MSTORE PUSH1 0x24 PUSH0 REVERT JUMPDEST PUSH0 PUSH2 0xE24 DUP3 PUSH2 0xB9C JUMP JUMPDEST SWAP2 POP PUSH2 0xE2F DUP4 PUSH2 0xB9C JUMP JUMPDEST SWAP3 POP DUP3 DUP3 SUB SWAP1 POP DUP2 DUP2 GT ISZERO PUSH2 0xE47 JUMPI PUSH2 0xE46 PUSH2 0xDED JUMP JUMPDEST JUMPDEST SWAP3 SWAP2 POP POP JUMP JUMPDEST PUSH0 PUSH2 0xE57 DUP3 PUSH2 0xB9C JUMP JUMPDEST SWAP2 POP PUSH2 0xE62 DUP4 PUSH2 0xB9C JUMP JUMPDEST SWAP3 POP DUP3 DUP3 ADD SWAP1 POP DUP1 DUP3 GT ISZERO PUSH2 0xE7A JUMPI PUSH2 0xE79 PUSH2 0xDED JUMP JUMPDEST JUMPDEST SWAP3 SWAP2 POP POP JUMP JUMPDEST PUSH0 PUSH2 0xE8A DUP3 PUSH2 0xB9C JUMP JUMPDEST SWAP2 POP PUSH2 0xE95 DUP4 PUSH2 0xB9C JUMP JUMPDEST SWAP3 POP DUP3 DUP3 MUL PUSH2 0xEA3 DUP2 PUSH2 0xB9C JUMP JUMPDEST SWAP2 POP DUP3 DUP3 DIV DUP5 EQ DUP4 ISZERO OR PUSH2 0xEBA JUMPI PUSH2 0xEB9 PUSH2 0xDED JUMP JUMPDEST JUMPDEST POP SWAP3 SWAP2 POP POP JUMP JUMPDEST PUSH32 0x4E6F7420656E6F75676820657468657220210000000000000000000000000000 PUSH0 DUP3 ADD MSTORE POP JUMP JUMPDEST PUSH0 PUSH2 0xEF5 PUSH1 0x12 DUP4 PUSH2 0xA9E JUMP JUMPDEST SWAP2 POP PUSH2 0xF00 DUP3 PUSH2 0xEC1 JUMP JUMPDEST PUSH1 0x20 DUP3 ADD SWAP1 POP SWAP2 SWAP1 POP JUMP JUMPDEST PUSH0 PUSH1 0x20 DUP3 ADD SWAP1 POP DUP2 DUP2 SUB PUSH0 DUP4 ADD MSTORE PUSH2 0xF22 DUP2 PUSH2 0xEE9 JUMP JUMPDEST SWAP1 POP SWAP2 SWAP1 POP JUMP JUMPDEST PUSH0 DUP2 PUSH1 0x1 SHR SWAP1 POP SWAP2 SWAP1 POP JUMP JUMPDEST PUSH0 DUP1 DUP3 SWAP2 POP DUP4 SWAP1 POP JUMPDEST PUSH1 0x1 DUP6 GT ISZERO PUSH2 0xF7E JUMPI DUP1 DUP7 DIV DUP2 GT ISZERO PUSH2 0xF5A JUMPI PUSH2 0xF59 PUSH2 0xDED JUMP JUMPDEST JUMPDEST PUSH1 0x1 DUP6 AND ISZERO PUSH2 0xF69 JUMPI DUP1 DUP3 MUL SWAP2 POP JUMPDEST DUP1 DUP2 MUL SWAP1 POP PUSH2 0xF77 DUP6 PUSH2 0xF29 JUMP JUMPDEST SWAP5 POP PUSH2 0xF3E JUMP JUMPDEST SWAP5 POP SWAP5 SWAP3 POP POP POP JUMP JUMPDEST PUSH0 DUP3 PUSH2 0xF96 JUMPI PUSH1 0x1 SWAP1 POP PUSH2 0x1051 JUMP JUMPDEST DUP2 PUSH2 0xFA3 JUMPI PUSH0 SWAP1 POP PUSH2 0x1051 JUMP JUMPDEST DUP2 PUSH1 0x1 DUP2 EQ PUSH2 0xFB9 JUMPI PUSH1 0x2 DUP2 EQ PUSH2 0xFC3 JUMPI PUSH2 0xFF2 JUMP JUMPDEST PUSH1 0x1 SWAP2 POP POP PUSH2 0x1051 JUMP JUMPDEST PUSH1 0xFF DUP5 GT ISZERO PUSH2 0xFD5 JUMPI PUSH2 0xFD4 PUSH2 0xDED JUMP JUMPDEST JUMPDEST DUP4 PUSH1 0x2 EXP SWAP2 POP DUP5 DUP3 GT ISZERO PUSH2 0xFEC JUMPI PUSH2 0xFEB PUSH2 0xDED JUMP JUMPDEST JUMPDEST POP PUSH2 0x1051 JUMP JUMPDEST POP PUSH1 0x20 DUP4 LT PUSH2 0x133 DUP4 LT AND PUSH1 0x4E DUP5 LT PUSH1 0xB DUP5 LT AND OR ISZERO PUSH2 0x1027 JUMPI DUP3 DUP3 EXP SWAP1 POP DUP4 DUP2 GT ISZERO PUSH2 0x1022 JUMPI PUSH2 0x1021 PUSH2 0xDED JUMP JUMPDEST JUMPDEST PUSH2 0x1051 JUMP JUMPDEST PUSH2 0x1034 DUP5 DUP5 DUP5 PUSH1 0x1 PUSH2 0xF35 JUMP JUMPDEST SWAP3 POP SWAP1 POP DUP2 DUP5 DIV DUP2 GT ISZERO PUSH2 0x104B JUMPI PUSH2 0x104A PUSH2 0xDED JUMP JUMPDEST JUMPDEST DUP2 DUP2 MUL SWAP1 POP JUMPDEST SWAP4 SWAP3 POP POP POP JUMP JUMPDEST PUSH0 PUSH2 0x1062 DUP3 PUSH2 0xB9C JUMP JUMPDEST SWAP2 POP PUSH2 0x106D DUP4 PUSH2 0xB9C JUMP JUMPDEST SWAP3 POP PUSH2 0x109A PUSH32 0xFFFFFFFFFFFFFFFFFFFFFFFFFFFFFFFFFFFFFFFFFFFFFFFFFFFFFFFFFFFFFFFF DUP5 DUP5 PUSH2 0xF87 JUMP JUMPDEST SWAP1 POP SWAP3 SWAP2 POP POP JUMP INVALID LOG2 PUSH5 0x6970667358 0x22 SLT KECCAK256 SWAP16 PUSH15 0x49E2A51084645DB7E93FB46572E89B LT 0xE7 0x2F 0xD4 0xF8 EQ PUSH8 0xED3446AD63540FCC PUSH5 0x736F6C6343 STOP ADDMOD EQ STOP CALLER "
				},
				"gasEstimates": {
					"creation": {
						"codeDepositCost": "862400",
						"executionCost": "infinite",
						"totalCost": "infinite"
					},
					"external": {
						"allowance(address,address)": "infinite",
						"approve(address,uint256)": "infinite",
						"balanceOf(address)": "2918",
						"buy(uint256)": "infinite",
						"decimal()": "2425",
						"name()": "infinite",
						"symbol()": "infinite",
						"totalSupply()": "2477",
						"transfer(address,uint256)": "infinite",
						"transferFrom(address,address,uint256)": "infinite"
					}
				},
				"methodIdentifiers": {
					"allowance(address,address)": "dd62ed3e",
					"approve(address,uint256)": "095ea7b3",
					"balanceOf(address)": "70a08231",
					"buy(uint256)": "d96a094a",
					"decimal()": "76809ce3",
					"name()": "06fdde03",
					"symbol()": "95d89b41",
					"totalSupply()": "18160ddd",
					"transfer(address,uint256)": "a9059cbb",
					"transferFrom(address,address,uint256)": "23b872dd"
				}
			},
			"storageLayout": {
				"storage": [
					{
						"astId": 76,
						"contract": "test.sol:test",
						"label": "name",
						"offset": 0,
						"slot": "0",
						"type": "t_string_storage"
					},
					{
						"astId": 78,
						"contract": "test.sol:test",
						"label": "symbol",
						"offset": 0,
						"slot": "1",
						"type": "t_string_storage"
					},
					{
						"astId": 80,
						"contract": "test.sol:test",
						"label": "decimal",
						"offset": 0,
						"slot": "2",
						"type": "t_uint256"
					},
					{
						"astId": 82,
						"contract": "test.sol:test",
						"label": "acOwner",
						"offset": 0,
						"slot": "3",
						"type": "t_address"
					},
					{
						"astId": 84,
						"contract": "test.sol:test",
						"label": "total_Supply",
						"offset": 0,
						"slot": "4",
						"type": "t_uint256"
					},
					{
						"astId": 88,
						"contract": "test.sol:test",
						"label": "acBalance",
						"offset": 0,
						"slot": "5",
						"type": "t_mapping(t_address,t_uint256)"
					},
					{
						"astId": 92,
						"contract": "test.sol:test",
						"label": "balance",
						"offset": 0,
						"slot": "6",
						"type": "t_mapping(t_address,t_uint256)"
					},
					{
						"astId": 98,
						"contract": "test.sol:test",
						"label": "allowed",
						"offset": 0,
						"slot": "7",
						"type": "t_mapping(t_address,t_mapping(t_address,t_uint256))"
					}
				],
				"types": {
					"t_address": {
						"encoding": "inplace",
						"label": "address",
						"numberOfBytes": "20"
					},
					"t_mapping(t_address,t_mapping(t_address,t_uint256))": {
						"encoding": "mapping",
						"key": "t_address",
						"label": "mapping(address => mapping(address => uint256))",
						"numberOfBytes": "32",
						"value": "t_mapping(t_address,t_uint256)"
					},
					"t_mapping(t_address,t_uint256)": {
						"encoding": "mapping",
						"key": "t_address",
						"label": "mapping(address => uint256)",
						"numberOfBytes": "32",
						"value": "t_uint256"
					},
					"t_string_storage": {
						"encoding": "bytes",
						"label": "string",
						"numberOfBytes": "32"
					},
					"t_uint256": {
						"encoding": "inplace",
						"label": "uint256",
						"numberOfBytes": "32"
					}
				}
			},
			"userdoc": {
				"kind": "user",
				"methods": {},
				"version": 1
			}
		}
	}
}