{
	"Staking_Reward.sol": {
		"Staking_Reward": {
			"abi": [
				{
					"inputs": [],
					"stateMutability": "nonpayable",
					"type": "constructor"
				},
				{
					"inputs": [
						{
							"internalType": "uint256",
							"name": "_id",
							"type": "uint256"
						},
						{
							"internalType": "uint256",
							"name": "_newUnlockPeriod",
							"type": "uint256"
						}
					],
					"name": "changeUnlockPeriod",
					"outputs": [],
					"stateMutability": "nonpayable",
					"type": "function"
				},
				{
					"inputs": [
						{
							"internalType": "uint256",
							"name": "_stakerId",
							"type": "uint256"
						}
					],
					"name": "getStakersById",
					"outputs": [
						{
							"components": [
								{
									"internalType": "uint256",
									"name": "stakerId",
									"type": "uint256"
								},
								{
									"internalType": "address",
									"name": "stakerAddress",
									"type": "address"
								},
								{
									"internalType": "uint256",
									"name": "dateCreated",
									"type": "uint256"
								},
								{
									"internalType": "uint256",
									"name": "dateUnlocked",
									"type": "uint256"
								},
								{
									"internalType": "uint256",
									"name": "interestPercentage",
									"type": "uint256"
								},
								{
									"internalType": "uint256",
									"name": "amountStaked",
									"type": "uint256"
								},
								{
									"internalType": "uint256",
									"name": "interest",
									"type": "uint256"
								},
								{
									"internalType": "bool",
									"name": "open",
									"type": "bool"
								}
							],
							"internalType": "struct Staking_Reward.Stakers",
							"name": "",
							"type": "tuple"
						}
					],
					"stateMutability": "view",
					"type": "function"
				},
				{
					"inputs": [
						{
							"internalType": "uint256",
							"name": "_amount",
							"type": "uint256"
						},
						{
							"internalType": "uint256",
							"name": "_numOfDays",
							"type": "uint256"
						}
					],
					"name": "stake_ether",
					"outputs": [],
					"stateMutability": "payable",
					"type": "function"
				},
				{
					"inputs": [
						{
							"internalType": "uint256",
							"name": "",
							"type": "uint256"
						}
					],
					"name": "stakers",
					"outputs": [
						{
							"internalType": "uint256",
							"name": "stakerId",
							"type": "uint256"
						},
						{
							"internalType": "address",
							"name": "stakerAddress",
							"type": "address"
						},
						{
							"internalType": "uint256",
							"name": "dateCreated",
							"type": "uint256"
						},
						{
							"internalType": "uint256",
							"name": "dateUnlocked",
							"type": "uint256"
						},
						{
							"internalType": "uint256",
							"name": "interestPercentage",
							"type": "uint256"
						},
						{
							"internalType": "uint256",
							"name": "amountStaked",
							"type": "uint256"
						},
						{
							"internalType": "uint256",
							"name": "interest",
							"type": "uint256"
						},
						{
							"internalType": "bool",
							"name": "open",
							"type": "bool"
						}
					],
					"stateMutability": "view",
					"type": "function"
				},
				{
					"inputs": [
						{
							"internalType": "uint256",
							"name": "_id",
							"type": "uint256"
						}
					],
					"name": "withdraw_ether",
					"outputs": [],
					"stateMutability": "nonpayable",
					"type": "function"
				}
			],
			"devdoc": {
				"kind": "dev",
				"methods": {},
				"version": 1
			},
			"evm": {
				"assembly": "    /* \"Staking_Reward.sol\":191:2438  contract Staking_Reward... */\n  mstore(0x40, 0x80)\n    /* \"Staking_Reward.sol\":548:549  0 */\n  0x00\n    /* \"Staking_Reward.sol\":528:549  uint totalStakers = 0 */\n  0x09\n  sstore\n    /* \"Staking_Reward.sol\":693:825  constructor()... */\n  callvalue\n  dup1\n  iszero\n  tag_1\n  jumpi\n  0x00\n  dup1\n  revert\ntag_1:\n  pop\n    /* \"Staking_Reward.sol\":729:739  msg.sender */\n  caller\n    /* \"Staking_Reward.sol\":723:728  owner */\n  0x00\n  dup1\n    /* \"Staking_Reward.sol\":723:739  owner=msg.sender */\n  0x0100\n  exp\n  dup2\n  sload\n  dup2\n  0xffffffffffffffffffffffffffffffffffffffff\n  mul\n  not\n  and\n  swap1\n  dup4\n  0xffffffffffffffffffffffffffffffffffffffff\n  and\n  mul\n  or\n  swap1\n  sstore\n  pop\n    /* \"Staking_Reward.sol\":763:764  5 */\n  0x05\n    /* \"Staking_Reward.sol\":750:756  levels */\n  0x0c\n    /* \"Staking_Reward.sol\":750:760  levels[30] */\n  0x00\n    /* \"Staking_Reward.sol\":757:759  30 */\n  0x1e\n    /* \"Staking_Reward.sol\":750:760  levels[30] */\n  dup2\n  mstore\n  0x20\n  add\n  swap1\n  dup2\n  mstore\n  0x20\n  add\n  0x00\n  keccak256\n    /* \"Staking_Reward.sol\":750:764  levels[30] = 5 */\n  dup2\n  swap1\n  sstore\n  pop\n    /* \"Staking_Reward.sol\":788:790  16 */\n  0x10\n    /* \"Staking_Reward.sol\":775:781  levels */\n  0x0c\n    /* \"Staking_Reward.sol\":775:785  levels[90] */\n  0x00\n    /* \"Staking_Reward.sol\":782:784  90 */\n  0x5a\n    /* \"Staking_Reward.sol\":775:785  levels[90] */\n  dup2\n  mstore\n  0x20\n  add\n  swap1\n  dup2\n  mstore\n  0x20\n  add\n  0x00\n  keccak256\n    /* \"Staking_Reward.sol\":775:790  levels[90] = 16 */\n  dup2\n  swap1\n  sstore\n  pop\n    /* \"Staking_Reward.sol\":815:817  32 */\n  0x20\n    /* \"Staking_Reward.sol\":801:807  levels */\n  0x0c\n    /* \"Staking_Reward.sol\":801:812  levels[180] */\n  0x00\n    /* \"Staking_Reward.sol\":808:811  180 */\n  0xb4\n    /* \"Staking_Reward.sol\":801:812  levels[180] */\n  dup2\n  mstore\n  0x20\n  add\n  swap1\n  dup2\n  mstore\n  0x20\n  add\n  0x00\n  keccak256\n    /* \"Staking_Reward.sol\":801:817  levels[180] = 32 */\n  dup2\n  swap1\n  sstore\n  pop\n    /* \"Staking_Reward.sol\":191:2438  contract Staking_Reward... */\n  dataSize(sub_0)\n  dup1\n  dataOffset(sub_0)\n  0x00\n  codecopy\n  0x00\n  return\nstop\n\nsub_0: assembly {\n        /* \"Staking_Reward.sol\":191:2438  contract Staking_Reward... */\n      mstore(0x40, 0x80)\n      jumpi(tag_1, lt(calldatasize, 0x04))\n      shr(0xe0, calldataload(0x00))\n      dup1\n      0x084c4174\n      eq\n      tag_2\n      jumpi\n      dup1\n      0x105c2c5c\n      eq\n      tag_3\n      jumpi\n      dup1\n      0xa954c7d7\n      eq\n      tag_4\n      jumpi\n      dup1\n      0xf9d4e871\n      eq\n      tag_5\n      jumpi\n      dup1\n      0xfd5e6dd1\n      eq\n      tag_6\n      jumpi\n    tag_1:\n      0x00\n      dup1\n      revert\n        /* \"Staking_Reward.sol\":1680:2246  function withdraw_ether(uint _id) public... */\n    tag_2:\n      callvalue\n      dup1\n      iszero\n      tag_7\n      jumpi\n      0x00\n      dup1\n      revert\n    tag_7:\n      pop\n      tag_8\n      0x04\n      dup1\n      calldatasize\n      sub\n      dup2\n      add\n      swap1\n      tag_9\n      swap2\n      swap1\n      tag_10\n      jump\t// in\n    tag_9:\n      tag_11\n      jump\t// in\n    tag_8:\n      stop\n        /* \"Staking_Reward.sol\":1546:1672  function getStakersById(uint _stakerId) public view returns (Stakers memory)... */\n    tag_3:\n      callvalue\n      dup1\n      iszero\n      tag_12\n      jumpi\n      0x00\n      dup1\n      revert\n    tag_12:\n      pop\n      tag_13\n      0x04\n      dup1\n      calldatasize\n      sub\n      dup2\n      add\n      swap1\n      tag_14\n      swap2\n      swap1\n      tag_10\n      jump\t// in\n    tag_14:\n      tag_15\n      jump\t// in\n    tag_13:\n      mload(0x40)\n      tag_16\n      swap2\n      swap1\n      tag_17\n      jump\t// in\n    tag_16:\n      mload(0x40)\n      dup1\n      swap2\n      sub\n      swap1\n      return\n        /* \"Staking_Reward.sol\":834:1538  function stake_ether(uint _amount, uint _numOfDays) public payable ... */\n    tag_4:\n      tag_18\n      0x04\n      dup1\n      calldatasize\n      sub\n      dup2\n      add\n      swap1\n      tag_19\n      swap2\n      swap1\n      tag_20\n      jump\t// in\n    tag_19:\n      tag_21\n      jump\t// in\n    tag_18:\n      stop\n        /* \"Staking_Reward.sol\":2254:2435  function changeUnlockPeriod(uint256 _id, uint256 _newUnlockPeriod) public... */\n    tag_5:\n      callvalue\n      dup1\n      iszero\n      tag_22\n      jumpi\n      0x00\n      dup1\n      revert\n    tag_22:\n      pop\n      tag_23\n      0x04\n      dup1\n      calldatasize\n      sub\n      dup2\n      add\n      swap1\n      tag_24\n      swap2\n      swap1\n      tag_20\n      jump\t// in\n    tag_24:\n      tag_25\n      jump\t// in\n    tag_23:\n      stop\n        /* \"Staking_Reward.sol\":558:598  mapping (uint => Stakers) public stakers */\n    tag_6:\n      callvalue\n      dup1\n      iszero\n      tag_26\n      jumpi\n      0x00\n      dup1\n      revert\n    tag_26:\n      pop\n      tag_27\n      0x04\n      dup1\n      calldatasize\n      sub\n      dup2\n      add\n      swap1\n      tag_28\n      swap2\n      swap1\n      tag_10\n      jump\t// in\n    tag_28:\n      tag_29\n      jump\t// in\n    tag_27:\n      mload(0x40)\n      tag_30\n      swap9\n      swap8\n      swap7\n      swap6\n      swap5\n      swap4\n      swap3\n      swap2\n      swap1\n      tag_31\n      jump\t// in\n    tag_30:\n      mload(0x40)\n      dup1\n      swap2\n      sub\n      swap1\n      return\n        /* \"Staking_Reward.sol\":1680:2246  function withdraw_ether(uint _id) public... */\n    tag_11:\n        /* \"Staking_Reward.sol\":1775:1785  msg.sender */\n      caller\n        /* \"Staking_Reward.sol\":1745:1785  stakers[_id].stakerAddress == msg.sender */\n      0xffffffffffffffffffffffffffffffffffffffff\n      and\n        /* \"Staking_Reward.sol\":1745:1752  stakers */\n      0x0a\n        /* \"Staking_Reward.sol\":1745:1757  stakers[_id] */\n      0x00\n        /* \"Staking_Reward.sol\":1753:1756  _id */\n      dup4\n        /* \"Staking_Reward.sol\":1745:1757  stakers[_id] */\n      dup2\n      mstore\n      0x20\n      add\n      swap1\n      dup2\n      mstore\n      0x20\n      add\n      0x00\n      keccak256\n        /* \"Staking_Reward.sol\":1745:1771  stakers[_id].stakerAddress */\n      0x01\n      add\n      0x00\n      swap1\n      sload\n      swap1\n      0x0100\n      exp\n      swap1\n      div\n      0xffffffffffffffffffffffffffffffffffffffff\n      and\n        /* \"Staking_Reward.sol\":1745:1785  stakers[_id].stakerAddress == msg.sender */\n      0xffffffffffffffffffffffffffffffffffffffff\n      and\n      eq\n        /* \"Staking_Reward.sol\":1737:1808  require(stakers[_id].stakerAddress == msg.sender,\"You are not staker\" ) */\n      tag_33\n      jumpi\n      mload(0x40)\n      0x08c379a000000000000000000000000000000000000000000000000000000000\n      dup2\n      mstore\n      0x04\n      add\n      tag_34\n      swap1\n      tag_35\n      jump\t// in\n    tag_34:\n      mload(0x40)\n      dup1\n      swap2\n      sub\n      swap1\n      revert\n    tag_33:\n        /* \"Staking_Reward.sol\":1848:1852  true */\n      0x01\n        /* \"Staking_Reward.sol\":1827:1852  stakers[_id].open == true */\n      iszero\n      iszero\n        /* \"Staking_Reward.sol\":1827:1834  stakers */\n      0x0a\n        /* \"Staking_Reward.sol\":1827:1839  stakers[_id] */\n      0x00\n        /* \"Staking_Reward.sol\":1835:1838  _id */\n      dup4\n        /* \"Staking_Reward.sol\":1827:1839  stakers[_id] */\n      dup2\n      mstore\n      0x20\n      add\n      swap1\n      dup2\n      mstore\n      0x20\n      add\n      0x00\n      keccak256\n        /* \"Staking_Reward.sol\":1827:1844  stakers[_id].open */\n      0x07\n      add\n      0x00\n      swap1\n      sload\n      swap1\n      0x0100\n      exp\n      swap1\n      div\n      0xff\n      and\n        /* \"Staking_Reward.sol\":1827:1852  stakers[_id].open == true */\n      iszero\n      iszero\n      eq\n        /* \"Staking_Reward.sol\":1819:1880  require(stakers[_id].open == true, \"Matic already withdrawn\") */\n      tag_36\n      jumpi\n      mload(0x40)\n      0x08c379a000000000000000000000000000000000000000000000000000000000\n      dup2\n      mstore\n      0x04\n      add\n      tag_37\n      swap1\n      tag_38\n      jump\t// in\n    tag_37:\n      mload(0x40)\n      dup1\n      swap2\n      sub\n      swap1\n      revert\n    tag_36:\n        /* \"Staking_Reward.sol\":1913:1918  false */\n      0x00\n        /* \"Staking_Reward.sol\":1893:1900  stakers */\n      0x0a\n        /* \"Staking_Reward.sol\":1893:1905  stakers[_id] */\n      0x00\n        /* \"Staking_Reward.sol\":1901:1904  _id */\n      dup4\n        /* \"Staking_Reward.sol\":1893:1905  stakers[_id] */\n      dup2\n      mstore\n      0x20\n      add\n      swap1\n      dup2\n      mstore\n      0x20\n      add\n      0x00\n      keccak256\n        /* \"Staking_Reward.sol\":1893:1910  stakers[_id].open */\n      0x07\n      add\n      0x00\n        /* \"Staking_Reward.sol\":1893:1918  stakers[_id].open = false */\n      0x0100\n      exp\n      dup2\n      sload\n      dup2\n      0xff\n      mul\n      not\n      and\n      swap1\n      dup4\n      iszero\n      iszero\n      mul\n      or\n      swap1\n      sstore\n      pop\n        /* \"Staking_Reward.sol\":1952:1959  stakers */\n      0x0a\n        /* \"Staking_Reward.sol\":1952:1964  stakers[_id] */\n      0x00\n        /* \"Staking_Reward.sol\":1960:1963  _id */\n      dup3\n        /* \"Staking_Reward.sol\":1952:1964  stakers[_id] */\n      dup2\n      mstore\n      0x20\n      add\n      swap1\n      dup2\n      mstore\n      0x20\n      add\n      0x00\n      keccak256\n        /* \"Staking_Reward.sol\":1952:1977  stakers[_id].dateUnlocked */\n      0x03\n      add\n      sload\n        /* \"Staking_Reward.sol\":1934:1949  block.timestamp */\n      timestamp\n        /* \"Staking_Reward.sol\":1934:1977  block.timestamp > stakers[_id].dateUnlocked */\n      gt\n        /* \"Staking_Reward.sol\":1931:2239  if(block.timestamp > stakers[_id].dateUnlocked )... */\n      iszero\n      tag_39\n      jumpi\n        /* \"Staking_Reward.sol\":2004:2015  uint amount */\n      0x00\n        /* \"Staking_Reward.sol\":2046:2053  stakers */\n      0x0a\n        /* \"Staking_Reward.sol\":2046:2058  stakers[_id] */\n      0x00\n        /* \"Staking_Reward.sol\":2054:2057  _id */\n      dup4\n        /* \"Staking_Reward.sol\":2046:2058  stakers[_id] */\n      dup2\n      mstore\n      0x20\n      add\n      swap1\n      dup2\n      mstore\n      0x20\n      add\n      0x00\n      keccak256\n        /* \"Staking_Reward.sol\":2046:2067  stakers[_id].interest */\n      0x06\n      add\n      sload\n        /* \"Staking_Reward.sol\":2018:2025  stakers */\n      0x0a\n        /* \"Staking_Reward.sol\":2018:2030  stakers[_id] */\n      0x00\n        /* \"Staking_Reward.sol\":2026:2029  _id */\n      dup5\n        /* \"Staking_Reward.sol\":2018:2030  stakers[_id] */\n      dup2\n      mstore\n      0x20\n      add\n      swap1\n      dup2\n      mstore\n      0x20\n      add\n      0x00\n      keccak256\n        /* \"Staking_Reward.sol\":2018:2043  stakers[_id].amountStaked */\n      0x05\n      add\n      sload\n        /* \"Staking_Reward.sol\":2018:2067  stakers[_id].amountStaked + stakers[_id].interest */\n      tag_40\n      swap2\n      swap1\n      tag_41\n      jump\t// in\n    tag_40:\n        /* \"Staking_Reward.sol\":2004:2067  uint amount = stakers[_id].amountStaked + stakers[_id].interest */\n      swap1\n      pop\n        /* \"Staking_Reward.sol\":2090:2100  msg.sender */\n      caller\n        /* \"Staking_Reward.sol\":2082:2110  payable(msg.sender).transfer */\n      0xffffffffffffffffffffffffffffffffffffffff\n      and\n        /* \"Staking_Reward.sol\":2082:2118  payable(msg.sender).transfer(amount) */\n      0x08fc\n        /* \"Staking_Reward.sol\":2111:2117  amount */\n      dup3\n        /* \"Staking_Reward.sol\":2082:2118  payable(msg.sender).transfer(amount) */\n      swap1\n      dup2\n      iszero\n      mul\n      swap1\n      mload(0x40)\n      0x00\n      mload(0x40)\n      dup1\n      dup4\n      sub\n      dup2\n      dup6\n      dup9\n      dup9\n      call\n      swap4\n      pop\n      pop\n      pop\n      pop\n      iszero\n      dup1\n      iszero\n      tag_43\n      jumpi\n      returndatasize\n      0x00\n      dup1\n      returndatacopy\n      revert(0x00, returndatasize)\n    tag_43:\n      pop\n        /* \"Staking_Reward.sol\":1989:2133  {... */\n      pop\n        /* \"Staking_Reward.sol\":1931:2239  if(block.timestamp > stakers[_id].dateUnlocked )... */\n      jump(tag_44)\n    tag_39:\n        /* \"Staking_Reward.sol\":2180:2190  msg.sender */\n      caller\n        /* \"Staking_Reward.sol\":2172:2200  payable(msg.sender).transfer */\n      0xffffffffffffffffffffffffffffffffffffffff\n      and\n        /* \"Staking_Reward.sol\":2172:2227  payable(msg.sender).transfer(stakers[_id].amountStaked) */\n      0x08fc\n        /* \"Staking_Reward.sol\":2201:2208  stakers */\n      0x0a\n        /* \"Staking_Reward.sol\":2201:2213  stakers[_id] */\n      0x00\n        /* \"Staking_Reward.sol\":2209:2212  _id */\n      dup5\n        /* \"Staking_Reward.sol\":2201:2213  stakers[_id] */\n      dup2\n      mstore\n      0x20\n      add\n      swap1\n      dup2\n      mstore\n      0x20\n      add\n      0x00\n      keccak256\n        /* \"Staking_Reward.sol\":2201:2226  stakers[_id].amountStaked */\n      0x05\n      add\n      sload\n        /* \"Staking_Reward.sol\":2172:2227  payable(msg.sender).transfer(stakers[_id].amountStaked) */\n      swap1\n      dup2\n      iszero\n      mul\n      swap1\n      mload(0x40)\n      0x00\n      mload(0x40)\n      dup1\n      dup4\n      sub\n      dup2\n      dup6\n      dup9\n      dup9\n      call\n      swap4\n      pop\n      pop\n      pop\n      pop\n      iszero\n      dup1\n      iszero\n      tag_46\n      jumpi\n      returndatasize\n      0x00\n      dup1\n      returndatacopy\n      revert(0x00, returndatasize)\n    tag_46:\n      pop\n        /* \"Staking_Reward.sol\":1931:2239  if(block.timestamp > stakers[_id].dateUnlocked )... */\n    tag_44:\n        /* \"Staking_Reward.sol\":1680:2246  function withdraw_ether(uint _id) public... */\n      pop\n      jump\t// out\n        /* \"Staking_Reward.sol\":1546:1672  function getStakersById(uint _stakerId) public view returns (Stakers memory)... */\n    tag_15:\n        /* \"Staking_Reward.sol\":1607:1621  Stakers memory */\n      tag_47\n      tag_48\n      jump\t// in\n    tag_47:\n        /* \"Staking_Reward.sol\":1646:1653  stakers */\n      0x0a\n        /* \"Staking_Reward.sol\":1646:1664  stakers[_stakerId] */\n      0x00\n        /* \"Staking_Reward.sol\":1654:1663  _stakerId */\n      dup4\n        /* \"Staking_Reward.sol\":1646:1664  stakers[_stakerId] */\n      dup2\n      mstore\n      0x20\n      add\n      swap1\n      dup2\n      mstore\n      0x20\n      add\n      0x00\n      keccak256\n        /* \"Staking_Reward.sol\":1639:1664  return stakers[_stakerId] */\n      mload(0x40)\n      dup1\n      0x0100\n      add\n      0x40\n      mstore\n      swap1\n      dup2\n      0x00\n      dup3\n      add\n      sload\n      dup2\n      mstore\n      0x20\n      add\n      0x01\n      dup3\n      add\n      0x00\n      swap1\n      sload\n      swap1\n      0x0100\n      exp\n      swap1\n      div\n      0xffffffffffffffffffffffffffffffffffffffff\n      and\n      0xffffffffffffffffffffffffffffffffffffffff\n      and\n      0xffffffffffffffffffffffffffffffffffffffff\n      and\n      dup2\n      mstore\n      0x20\n      add\n      0x02\n      dup3\n      add\n      sload\n      dup2\n      mstore\n      0x20\n      add\n      0x03\n      dup3\n      add\n      sload\n      dup2\n      mstore\n      0x20\n      add\n      0x04\n      dup3\n      add\n      sload\n      dup2\n      mstore\n      0x20\n      add\n      0x05\n      dup3\n      add\n      sload\n      dup2\n      mstore\n      0x20\n      add\n      0x06\n      dup3\n      add\n      sload\n      dup2\n      mstore\n      0x20\n      add\n      0x07\n      dup3\n      add\n      0x00\n      swap1\n      sload\n      swap1\n      0x0100\n      exp\n      swap1\n      div\n      0xff\n      and\n      iszero\n      iszero\n      iszero\n      iszero\n      dup2\n      mstore\n      pop\n      pop\n      swap1\n      pop\n        /* \"Staking_Reward.sol\":1546:1672  function getStakersById(uint _stakerId) public view returns (Stakers memory)... */\n      swap2\n      swap1\n      pop\n      jump\t// out\n        /* \"Staking_Reward.sol\":834:1538  function stake_ether(uint _amount, uint _numOfDays) public payable ... */\n    tag_21:\n        /* \"Staking_Reward.sol\":937:946  msg.value */\n      callvalue\n        /* \"Staking_Reward.sol\":926:933  _amount */\n      dup3\n        /* \"Staking_Reward.sol\":926:946  _amount == msg.value */\n      eq\n        /* \"Staking_Reward.sol\":918:979  require(_amount == msg.value,\"please check value and amount\") */\n      tag_51\n      jumpi\n      mload(0x40)\n      0x08c379a000000000000000000000000000000000000000000000000000000000\n      dup2\n      mstore\n      0x04\n      add\n      tag_52\n      swap1\n      tag_53\n      jump\t// in\n    tag_52:\n      mload(0x40)\n      dup1\n      swap2\n      sub\n      swap1\n      revert\n    tag_51:\n        /* \"Staking_Reward.sol\":1011:1016  owner */\n      0x00\n      dup1\n      sload\n      swap1\n      0x0100\n      exp\n      swap1\n      div\n      0xffffffffffffffffffffffffffffffffffffffff\n      and\n        /* \"Staking_Reward.sol\":1011:1024  owner.balance */\n      0xffffffffffffffffffffffffffffffffffffffff\n      and\n      balance\n        /* \"Staking_Reward.sol\":998:1007  msg.value */\n      callvalue\n        /* \"Staking_Reward.sol\":998:1024  msg.value <= owner.balance */\n      gt\n      iszero\n        /* \"Staking_Reward.sol\":990:1053  require(msg.value <= owner.balance,\"you havn't enough balance\") */\n      tag_54\n      jumpi\n      mload(0x40)\n      0x08c379a000000000000000000000000000000000000000000000000000000000\n      dup2\n      mstore\n      0x04\n      add\n      tag_55\n      swap1\n      tag_56\n      jump\t// in\n    tag_55:\n      mload(0x40)\n      dup1\n      swap2\n      sub\n      swap1\n      revert\n    tag_54:\n        /* \"Staking_Reward.sol\":1093:1094  0 */\n      0x00\n        /* \"Staking_Reward.sol\":1072:1078  levels */\n      0x0c\n        /* \"Staking_Reward.sol\":1072:1090  levels[_numOfDays] */\n      0x00\n        /* \"Staking_Reward.sol\":1079:1089  _numOfDays */\n      dup4\n        /* \"Staking_Reward.sol\":1072:1090  levels[_numOfDays] */\n      dup2\n      mstore\n      0x20\n      add\n      swap1\n      dup2\n      mstore\n      0x20\n      add\n      0x00\n      keccak256\n      sload\n        /* \"Staking_Reward.sol\":1072:1094  levels[_numOfDays] > 0 */\n      gt\n        /* \"Staking_Reward.sol\":1064:1121  require(levels[_numOfDays] > 0,\"check your time period \") */\n      tag_57\n      jumpi\n      mload(0x40)\n      0x08c379a000000000000000000000000000000000000000000000000000000000\n      dup2\n      mstore\n      0x04\n      add\n      tag_58\n      swap1\n      tag_59\n      jump\t// in\n    tag_58:\n      mload(0x40)\n      dup1\n      swap2\n      sub\n      swap1\n      revert\n    tag_57:\n        /* \"Staking_Reward.sol\":1158:1447  Stakers (... */\n      mload(0x40)\n      dup1\n      0x0100\n      add\n      0x40\n      mstore\n      dup1\n        /* \"Staking_Reward.sol\":1181:1193  totalStakers */\n      sload(0x09)\n        /* \"Staking_Reward.sol\":1158:1447  Stakers (... */\n      dup2\n      mstore\n      0x20\n      add\n        /* \"Staking_Reward.sol\":1208:1218  msg.sender */\n      caller\n        /* \"Staking_Reward.sol\":1158:1447  Stakers (... */\n      0xffffffffffffffffffffffffffffffffffffffff\n      and\n      dup2\n      mstore\n      0x20\n      add\n        /* \"Staking_Reward.sol\":1233:1248  block.timestamp */\n      timestamp\n        /* \"Staking_Reward.sol\":1158:1447  Stakers (... */\n      dup2\n      mstore\n      0x20\n      add\n        /* \"Staking_Reward.sol\":1295:1301  1 days */\n      0x015180\n        /* \"Staking_Reward.sol\":1282:1292  _numOfDays */\n      dup4\n        /* \"Staking_Reward.sol\":1282:1301  _numOfDays * 1 days */\n      tag_60\n      swap2\n      swap1\n      tag_61\n      jump\t// in\n    tag_60:\n        /* \"Staking_Reward.sol\":1263:1278  block.timestamp */\n      timestamp\n        /* \"Staking_Reward.sol\":1263:1302  block.timestamp + (_numOfDays * 1 days) */\n      tag_62\n      swap2\n      swap1\n      tag_41\n      jump\t// in\n    tag_62:\n        /* \"Staking_Reward.sol\":1158:1447  Stakers (... */\n      dup2\n      mstore\n      0x20\n      add\n        /* \"Staking_Reward.sol\":1321:1327  levels */\n      0x0c\n        /* \"Staking_Reward.sol\":1321:1339  levels[_numOfDays] */\n      0x00\n        /* \"Staking_Reward.sol\":1328:1338  _numOfDays */\n      dup5\n        /* \"Staking_Reward.sol\":1321:1339  levels[_numOfDays] */\n      dup2\n      mstore\n      0x20\n      add\n      swap1\n      dup2\n      mstore\n      0x20\n      add\n      0x00\n      keccak256\n      sload\n        /* \"Staking_Reward.sol\":1158:1447  Stakers (... */\n      dup2\n      mstore\n      0x20\n      add\n        /* \"Staking_Reward.sol\":1354:1363  msg.value */\n      callvalue\n        /* \"Staking_Reward.sol\":1158:1447  Stakers (... */\n      dup2\n      mstore\n      0x20\n      add\n        /* \"Staking_Reward.sol\":1414:1417  100 */\n      0x64\n        /* \"Staking_Reward.sol\":1401:1410  msg.value */\n      callvalue\n        /* \"Staking_Reward.sol\":1380:1386  levels */\n      0x0c\n        /* \"Staking_Reward.sol\":1380:1398  levels[_numOfDays] */\n      0x00\n        /* \"Staking_Reward.sol\":1387:1397  _numOfDays */\n      dup7\n        /* \"Staking_Reward.sol\":1380:1398  levels[_numOfDays] */\n      dup2\n      mstore\n      0x20\n      add\n      swap1\n      dup2\n      mstore\n      0x20\n      add\n      0x00\n      keccak256\n      sload\n        /* \"Staking_Reward.sol\":1380:1410  levels[_numOfDays] * msg.value */\n      tag_63\n      swap2\n      swap1\n      tag_61\n      jump\t// in\n    tag_63:\n        /* \"Staking_Reward.sol\":1378:1417  ( levels[_numOfDays] * msg.value )/ 100 */\n      tag_64\n      swap2\n      swap1\n      tag_65\n      jump\t// in\n    tag_64:\n        /* \"Staking_Reward.sol\":1158:1447  Stakers (... */\n      dup2\n      mstore\n      0x20\n      add\n        /* \"Staking_Reward.sol\":1432:1436  true */\n      0x01\n        /* \"Staking_Reward.sol\":1158:1447  Stakers (... */\n      iszero\n      iszero\n      dup2\n      mstore\n      pop\n        /* \"Staking_Reward.sol\":1134:1141  stakers */\n      0x0a\n        /* \"Staking_Reward.sol\":1134:1155  stakers[totalStakers] */\n      0x00\n        /* \"Staking_Reward.sol\":1142:1154  totalStakers */\n      sload(0x09)\n        /* \"Staking_Reward.sol\":1134:1155  stakers[totalStakers] */\n      dup2\n      mstore\n      0x20\n      add\n      swap1\n      dup2\n      mstore\n      0x20\n      add\n      0x00\n      keccak256\n        /* \"Staking_Reward.sol\":1134:1447  stakers[totalStakers] = Stakers (... */\n      0x00\n      dup3\n      add\n      mload\n      dup2\n      0x00\n      add\n      sstore\n      0x20\n      dup3\n      add\n      mload\n      dup2\n      0x01\n      add\n      exp(0x0100, 0x00)\n      dup2\n      sload\n      dup2\n      0xffffffffffffffffffffffffffffffffffffffff\n      mul\n      not\n      and\n      swap1\n      dup4\n      0xffffffffffffffffffffffffffffffffffffffff\n      and\n      mul\n      or\n      swap1\n      sstore\n      pop\n      0x40\n      dup3\n      add\n      mload\n      dup2\n      0x02\n      add\n      sstore\n      0x60\n      dup3\n      add\n      mload\n      dup2\n      0x03\n      add\n      sstore\n      0x80\n      dup3\n      add\n      mload\n      dup2\n      0x04\n      add\n      sstore\n      0xa0\n      dup3\n      add\n      mload\n      dup2\n      0x05\n      add\n      sstore\n      0xc0\n      dup3\n      add\n      mload\n      dup2\n      0x06\n      add\n      sstore\n      0xe0\n      dup3\n      add\n      mload\n      dup2\n      0x07\n      add\n      exp(0x0100, 0x00)\n      dup2\n      sload\n      dup2\n      0xff\n      mul\n      not\n      and\n      swap1\n      dup4\n      iszero\n      iszero\n      mul\n      or\n      swap1\n      sstore\n      pop\n      swap1\n      pop\n      pop\n        /* \"Staking_Reward.sol\":1458:1474  stakeIdbyAddress */\n      0x0b\n        /* \"Staking_Reward.sol\":1458:1486  stakeIdbyAddress[msg.sender] */\n      0x00\n        /* \"Staking_Reward.sol\":1475:1485  msg.sender */\n      caller\n        /* \"Staking_Reward.sol\":1458:1486  stakeIdbyAddress[msg.sender] */\n      0xffffffffffffffffffffffffffffffffffffffff\n      and\n      0xffffffffffffffffffffffffffffffffffffffff\n      and\n      dup2\n      mstore\n      0x20\n      add\n      swap1\n      dup2\n      mstore\n      0x20\n      add\n      0x00\n      keccak256\n        /* \"Staking_Reward.sol\":1492:1504  totalStakers */\n      sload(0x09)\n        /* \"Staking_Reward.sol\":1458:1505  stakeIdbyAddress[msg.sender].push(totalStakers) */\n      swap1\n      dup1\n      0x01\n      dup2\n      sload\n      add\n      dup1\n      dup3\n      sstore\n      dup1\n      swap2\n      pop\n      pop\n      0x01\n      swap1\n      sub\n      swap1\n      0x00\n      mstore\n      keccak256(0x00, 0x20)\n      add\n      0x00\n      swap1\n      swap2\n      swap1\n      swap2\n      swap1\n      swap2\n      pop\n      sstore\n        /* \"Staking_Reward.sol\":1516:1528  totalStakers */\n      0x09\n      0x00\n        /* \"Staking_Reward.sol\":1516:1530  totalStakers++ */\n      dup2\n      sload\n      dup1\n      swap3\n      swap2\n      swap1\n      tag_67\n      swap1\n      tag_68\n      jump\t// in\n    tag_67:\n      swap2\n      swap1\n      pop\n      sstore\n      pop\n        /* \"Staking_Reward.sol\":834:1538  function stake_ether(uint _amount, uint _numOfDays) public payable ... */\n      pop\n      pop\n      jump\t// out\n        /* \"Staking_Reward.sol\":2254:2435  function changeUnlockPeriod(uint256 _id, uint256 _newUnlockPeriod) public... */\n    tag_25:\n        /* \"Staking_Reward.sol\":2366:2371  owner */\n      0x00\n      dup1\n      sload\n      swap1\n      0x0100\n      exp\n      swap1\n      div\n      0xffffffffffffffffffffffffffffffffffffffff\n      and\n        /* \"Staking_Reward.sol\":2352:2371  msg.sender == owner */\n      0xffffffffffffffffffffffffffffffffffffffff\n      and\n        /* \"Staking_Reward.sol\":2352:2362  msg.sender */\n      caller\n        /* \"Staking_Reward.sol\":2352:2371  msg.sender == owner */\n      0xffffffffffffffffffffffffffffffffffffffff\n      and\n      eq\n        /* \"Staking_Reward.sol\":2344:2372  require(msg.sender == owner) */\n      tag_70\n      jumpi\n      0x00\n      dup1\n      revert\n    tag_70:\n        /* \"Staking_Reward.sol\":2411:2427  _newUnlockPeriod */\n      dup1\n        /* \"Staking_Reward.sol\":2383:2390  stakers */\n      0x0a\n        /* \"Staking_Reward.sol\":2383:2395  stakers[_id] */\n      0x00\n        /* \"Staking_Reward.sol\":2391:2394  _id */\n      dup5\n        /* \"Staking_Reward.sol\":2383:2395  stakers[_id] */\n      dup2\n      mstore\n      0x20\n      add\n      swap1\n      dup2\n      mstore\n      0x20\n      add\n      0x00\n      keccak256\n        /* \"Staking_Reward.sol\":2383:2408  stakers[_id].dateUnlocked */\n      0x03\n      add\n        /* \"Staking_Reward.sol\":2383:2427  stakers[_id].dateUnlocked = _newUnlockPeriod */\n      dup2\n      swap1\n      sstore\n      pop\n        /* \"Staking_Reward.sol\":2254:2435  function changeUnlockPeriod(uint256 _id, uint256 _newUnlockPeriod) public... */\n      pop\n      pop\n      jump\t// out\n        /* \"Staking_Reward.sol\":558:598  mapping (uint => Stakers) public stakers */\n    tag_29:\n      mstore(0x20, 0x0a)\n      dup1\n      0x00\n      mstore\n      keccak256(0x00, 0x40)\n      0x00\n      swap2\n      pop\n      swap1\n      pop\n      dup1\n      0x00\n      add\n      sload\n      swap1\n      dup1\n      0x01\n      add\n      0x00\n      swap1\n      sload\n      swap1\n      0x0100\n      exp\n      swap1\n      div\n      0xffffffffffffffffffffffffffffffffffffffff\n      and\n      swap1\n      dup1\n      0x02\n      add\n      sload\n      swap1\n      dup1\n      0x03\n      add\n      sload\n      swap1\n      dup1\n      0x04\n      add\n      sload\n      swap1\n      dup1\n      0x05\n      add\n      sload\n      swap1\n      dup1\n      0x06\n      add\n      sload\n      swap1\n      dup1\n      0x07\n      add\n      0x00\n      swap1\n      sload\n      swap1\n      0x0100\n      exp\n      swap1\n      div\n      0xff\n      and\n      swap1\n      pop\n      dup9\n      jump\t// out\n    tag_48:\n      mload(0x40)\n      dup1\n      0x0100\n      add\n      0x40\n      mstore\n      dup1\n      0x00\n      dup2\n      mstore\n      0x20\n      add\n      and(0xffffffffffffffffffffffffffffffffffffffff, 0x00)\n      dup2\n      mstore\n      0x20\n      add\n      0x00\n      dup2\n      mstore\n      0x20\n      add\n      0x00\n      dup2\n      mstore\n      0x20\n      add\n      0x00\n      dup2\n      mstore\n      0x20\n      add\n      0x00\n      dup2\n      mstore\n      0x20\n      add\n      0x00\n      dup2\n      mstore\n      0x20\n      add\n      iszero(iszero(0x00))\n      dup2\n      mstore\n      pop\n      swap1\n      jump\t// out\n        /* \"#utility.yul\":88:205   */\n    tag_72:\n        /* \"#utility.yul\":197:198   */\n      0x00\n        /* \"#utility.yul\":194:195   */\n      dup1\n        /* \"#utility.yul\":187:199   */\n      revert\n        /* \"#utility.yul\":334:411   */\n    tag_74:\n        /* \"#utility.yul\":371:378   */\n      0x00\n        /* \"#utility.yul\":400:405   */\n      dup2\n        /* \"#utility.yul\":389:405   */\n      swap1\n      pop\n        /* \"#utility.yul\":334:411   */\n      swap2\n      swap1\n      pop\n      jump\t// out\n        /* \"#utility.yul\":417:539   */\n    tag_75:\n        /* \"#utility.yul\":490:514   */\n      tag_106\n        /* \"#utility.yul\":508:513   */\n      dup2\n        /* \"#utility.yul\":490:514   */\n      tag_74\n      jump\t// in\n    tag_106:\n        /* \"#utility.yul\":483:488   */\n      dup2\n        /* \"#utility.yul\":480:515   */\n      eq\n        /* \"#utility.yul\":470:533   */\n      tag_107\n      jumpi\n        /* \"#utility.yul\":529:530   */\n      0x00\n        /* \"#utility.yul\":526:527   */\n      dup1\n        /* \"#utility.yul\":519:531   */\n      revert\n        /* \"#utility.yul\":470:533   */\n    tag_107:\n        /* \"#utility.yul\":417:539   */\n      pop\n      jump\t// out\n        /* \"#utility.yul\":545:684   */\n    tag_76:\n        /* \"#utility.yul\":591:596   */\n      0x00\n        /* \"#utility.yul\":629:635   */\n      dup2\n        /* \"#utility.yul\":616:636   */\n      calldataload\n        /* \"#utility.yul\":607:636   */\n      swap1\n      pop\n        /* \"#utility.yul\":645:678   */\n      tag_109\n        /* \"#utility.yul\":672:677   */\n      dup2\n        /* \"#utility.yul\":645:678   */\n      tag_75\n      jump\t// in\n    tag_109:\n        /* \"#utility.yul\":545:684   */\n      swap3\n      swap2\n      pop\n      pop\n      jump\t// out\n        /* \"#utility.yul\":690:1019   */\n    tag_10:\n        /* \"#utility.yul\":749:755   */\n      0x00\n        /* \"#utility.yul\":798:800   */\n      0x20\n        /* \"#utility.yul\":786:795   */\n      dup3\n        /* \"#utility.yul\":777:784   */\n      dup5\n        /* \"#utility.yul\":773:796   */\n      sub\n        /* \"#utility.yul\":769:801   */\n      slt\n        /* \"#utility.yul\":766:885   */\n      iszero\n      tag_111\n      jumpi\n        /* \"#utility.yul\":804:883   */\n      tag_112\n      tag_72\n      jump\t// in\n    tag_112:\n        /* \"#utility.yul\":766:885   */\n    tag_111:\n        /* \"#utility.yul\":924:925   */\n      0x00\n        /* \"#utility.yul\":949:1002   */\n      tag_113\n        /* \"#utility.yul\":994:1001   */\n      dup5\n        /* \"#utility.yul\":985:991   */\n      dup3\n        /* \"#utility.yul\":974:983   */\n      dup6\n        /* \"#utility.yul\":970:992   */\n      add\n        /* \"#utility.yul\":949:1002   */\n      tag_76\n      jump\t// in\n    tag_113:\n        /* \"#utility.yul\":939:1002   */\n      swap2\n      pop\n        /* \"#utility.yul\":895:1012   */\n      pop\n        /* \"#utility.yul\":690:1019   */\n      swap3\n      swap2\n      pop\n      pop\n      jump\t// out\n        /* \"#utility.yul\":1025:1133   */\n    tag_77:\n        /* \"#utility.yul\":1102:1126   */\n      tag_115\n        /* \"#utility.yul\":1120:1125   */\n      dup2\n        /* \"#utility.yul\":1102:1126   */\n      tag_74\n      jump\t// in\n    tag_115:\n        /* \"#utility.yul\":1097:1100   */\n      dup3\n        /* \"#utility.yul\":1090:1127   */\n      mstore\n        /* \"#utility.yul\":1025:1133   */\n      pop\n      pop\n      jump\t// out\n        /* \"#utility.yul\":1139:1265   */\n    tag_78:\n        /* \"#utility.yul\":1176:1183   */\n      0x00\n        /* \"#utility.yul\":1216:1258   */\n      0xffffffffffffffffffffffffffffffffffffffff\n        /* \"#utility.yul\":1209:1214   */\n      dup3\n        /* \"#utility.yul\":1205:1259   */\n      and\n        /* \"#utility.yul\":1194:1259   */\n      swap1\n      pop\n        /* \"#utility.yul\":1139:1265   */\n      swap2\n      swap1\n      pop\n      jump\t// out\n        /* \"#utility.yul\":1271:1367   */\n    tag_79:\n        /* \"#utility.yul\":1308:1315   */\n      0x00\n        /* \"#utility.yul\":1337:1361   */\n      tag_118\n        /* \"#utility.yul\":1355:1360   */\n      dup3\n        /* \"#utility.yul\":1337:1361   */\n      tag_78\n      jump\t// in\n    tag_118:\n        /* \"#utility.yul\":1326:1361   */\n      swap1\n      pop\n        /* \"#utility.yul\":1271:1367   */\n      swap2\n      swap1\n      pop\n      jump\t// out\n        /* \"#utility.yul\":1373:1481   */\n    tag_80:\n        /* \"#utility.yul\":1450:1474   */\n      tag_120\n        /* \"#utility.yul\":1468:1473   */\n      dup2\n        /* \"#utility.yul\":1450:1474   */\n      tag_79\n      jump\t// in\n    tag_120:\n        /* \"#utility.yul\":1445:1448   */\n      dup3\n        /* \"#utility.yul\":1438:1475   */\n      mstore\n        /* \"#utility.yul\":1373:1481   */\n      pop\n      pop\n      jump\t// out\n        /* \"#utility.yul\":1487:1577   */\n    tag_81:\n        /* \"#utility.yul\":1521:1528   */\n      0x00\n        /* \"#utility.yul\":1564:1569   */\n      dup2\n        /* \"#utility.yul\":1557:1570   */\n      iszero\n        /* \"#utility.yul\":1550:1571   */\n      iszero\n        /* \"#utility.yul\":1539:1571   */\n      swap1\n      pop\n        /* \"#utility.yul\":1487:1577   */\n      swap2\n      swap1\n      pop\n      jump\t// out\n        /* \"#utility.yul\":1583:1682   */\n    tag_82:\n        /* \"#utility.yul\":1654:1675   */\n      tag_123\n        /* \"#utility.yul\":1669:1674   */\n      dup2\n        /* \"#utility.yul\":1654:1675   */\n      tag_81\n      jump\t// in\n    tag_123:\n        /* \"#utility.yul\":1649:1652   */\n      dup3\n        /* \"#utility.yul\":1642:1676   */\n      mstore\n        /* \"#utility.yul\":1583:1682   */\n      pop\n      pop\n      jump\t// out\n        /* \"#utility.yul\":1758:3355   */\n    tag_83:\n        /* \"#utility.yul\":1901:1907   */\n      0x0100\n        /* \"#utility.yul\":1896:1899   */\n      dup3\n        /* \"#utility.yul\":1892:1908   */\n      add\n        /* \"#utility.yul\":1994:1998   */\n      0x00\n        /* \"#utility.yul\":1987:1992   */\n      dup3\n        /* \"#utility.yul\":1983:1999   */\n      add\n        /* \"#utility.yul\":1977:2000   */\n      mload\n        /* \"#utility.yul\":2013:2076   */\n      tag_125\n        /* \"#utility.yul\":2070:2074   */\n      0x00\n        /* \"#utility.yul\":2065:2068   */\n      dup6\n        /* \"#utility.yul\":2061:2075   */\n      add\n        /* \"#utility.yul\":2047:2059   */\n      dup3\n        /* \"#utility.yul\":2013:2076   */\n      tag_77\n      jump\t// in\n    tag_125:\n        /* \"#utility.yul\":1918:2086   */\n      pop\n        /* \"#utility.yul\":2177:2181   */\n      0x20\n        /* \"#utility.yul\":2170:2175   */\n      dup3\n        /* \"#utility.yul\":2166:2182   */\n      add\n        /* \"#utility.yul\":2160:2183   */\n      mload\n        /* \"#utility.yul\":2196:2259   */\n      tag_126\n        /* \"#utility.yul\":2253:2257   */\n      0x20\n        /* \"#utility.yul\":2248:2251   */\n      dup6\n        /* \"#utility.yul\":2244:2258   */\n      add\n        /* \"#utility.yul\":2230:2242   */\n      dup3\n        /* \"#utility.yul\":2196:2259   */\n      tag_80\n      jump\t// in\n    tag_126:\n        /* \"#utility.yul\":2096:2269   */\n      pop\n        /* \"#utility.yul\":2358:2362   */\n      0x40\n        /* \"#utility.yul\":2351:2356   */\n      dup3\n        /* \"#utility.yul\":2347:2363   */\n      add\n        /* \"#utility.yul\":2341:2364   */\n      mload\n        /* \"#utility.yul\":2377:2440   */\n      tag_127\n        /* \"#utility.yul\":2434:2438   */\n      0x40\n        /* \"#utility.yul\":2429:2432   */\n      dup6\n        /* \"#utility.yul\":2425:2439   */\n      add\n        /* \"#utility.yul\":2411:2423   */\n      dup3\n        /* \"#utility.yul\":2377:2440   */\n      tag_77\n      jump\t// in\n    tag_127:\n        /* \"#utility.yul\":2279:2450   */\n      pop\n        /* \"#utility.yul\":2540:2544   */\n      0x60\n        /* \"#utility.yul\":2533:2538   */\n      dup3\n        /* \"#utility.yul\":2529:2545   */\n      add\n        /* \"#utility.yul\":2523:2546   */\n      mload\n        /* \"#utility.yul\":2559:2622   */\n      tag_128\n        /* \"#utility.yul\":2616:2620   */\n      0x60\n        /* \"#utility.yul\":2611:2614   */\n      dup6\n        /* \"#utility.yul\":2607:2621   */\n      add\n        /* \"#utility.yul\":2593:2605   */\n      dup3\n        /* \"#utility.yul\":2559:2622   */\n      tag_77\n      jump\t// in\n    tag_128:\n        /* \"#utility.yul\":2460:2632   */\n      pop\n        /* \"#utility.yul\":2728:2732   */\n      0x80\n        /* \"#utility.yul\":2721:2726   */\n      dup3\n        /* \"#utility.yul\":2717:2733   */\n      add\n        /* \"#utility.yul\":2711:2734   */\n      mload\n        /* \"#utility.yul\":2747:2810   */\n      tag_129\n        /* \"#utility.yul\":2804:2808   */\n      0x80\n        /* \"#utility.yul\":2799:2802   */\n      dup6\n        /* \"#utility.yul\":2795:2809   */\n      add\n        /* \"#utility.yul\":2781:2793   */\n      dup3\n        /* \"#utility.yul\":2747:2810   */\n      tag_77\n      jump\t// in\n    tag_129:\n        /* \"#utility.yul\":2642:2820   */\n      pop\n        /* \"#utility.yul\":2910:2914   */\n      0xa0\n        /* \"#utility.yul\":2903:2908   */\n      dup3\n        /* \"#utility.yul\":2899:2915   */\n      add\n        /* \"#utility.yul\":2893:2916   */\n      mload\n        /* \"#utility.yul\":2929:2992   */\n      tag_130\n        /* \"#utility.yul\":2986:2990   */\n      0xa0\n        /* \"#utility.yul\":2981:2984   */\n      dup6\n        /* \"#utility.yul\":2977:2991   */\n      add\n        /* \"#utility.yul\":2963:2975   */\n      dup3\n        /* \"#utility.yul\":2929:2992   */\n      tag_77\n      jump\t// in\n    tag_130:\n        /* \"#utility.yul\":2830:3002   */\n      pop\n        /* \"#utility.yul\":3088:3092   */\n      0xc0\n        /* \"#utility.yul\":3081:3086   */\n      dup3\n        /* \"#utility.yul\":3077:3093   */\n      add\n        /* \"#utility.yul\":3071:3094   */\n      mload\n        /* \"#utility.yul\":3107:3170   */\n      tag_131\n        /* \"#utility.yul\":3164:3168   */\n      0xc0\n        /* \"#utility.yul\":3159:3162   */\n      dup6\n        /* \"#utility.yul\":3155:3169   */\n      add\n        /* \"#utility.yul\":3141:3153   */\n      dup3\n        /* \"#utility.yul\":3107:3170   */\n      tag_77\n      jump\t// in\n    tag_131:\n        /* \"#utility.yul\":3012:3180   */\n      pop\n        /* \"#utility.yul\":3262:3266   */\n      0xe0\n        /* \"#utility.yul\":3255:3260   */\n      dup3\n        /* \"#utility.yul\":3251:3267   */\n      add\n        /* \"#utility.yul\":3245:3268   */\n      mload\n        /* \"#utility.yul\":3281:3338   */\n      tag_132\n        /* \"#utility.yul\":3332:3336   */\n      0xe0\n        /* \"#utility.yul\":3327:3330   */\n      dup6\n        /* \"#utility.yul\":3323:3337   */\n      add\n        /* \"#utility.yul\":3309:3321   */\n      dup3\n        /* \"#utility.yul\":3281:3338   */\n      tag_82\n      jump\t// in\n    tag_132:\n        /* \"#utility.yul\":3190:3348   */\n      pop\n        /* \"#utility.yul\":1870:3355   */\n      pop\n        /* \"#utility.yul\":1758:3355   */\n      pop\n      pop\n      jump\t// out\n        /* \"#utility.yul\":3361:3676   */\n    tag_17:\n        /* \"#utility.yul\":3500:3504   */\n      0x00\n        /* \"#utility.yul\":3538:3541   */\n      0x0100\n        /* \"#utility.yul\":3527:3536   */\n      dup3\n        /* \"#utility.yul\":3523:3542   */\n      add\n        /* \"#utility.yul\":3515:3542   */\n      swap1\n      pop\n        /* \"#utility.yul\":3552:3669   */\n      tag_134\n        /* \"#utility.yul\":3666:3667   */\n      0x00\n        /* \"#utility.yul\":3655:3664   */\n      dup4\n        /* \"#utility.yul\":3651:3668   */\n      add\n        /* \"#utility.yul\":3642:3648   */\n      dup5\n        /* \"#utility.yul\":3552:3669   */\n      tag_83\n      jump\t// in\n    tag_134:\n        /* \"#utility.yul\":3361:3676   */\n      swap3\n      swap2\n      pop\n      pop\n      jump\t// out\n        /* \"#utility.yul\":3682:4156   */\n    tag_20:\n        /* \"#utility.yul\":3750:3756   */\n      0x00\n        /* \"#utility.yul\":3758:3764   */\n      dup1\n        /* \"#utility.yul\":3807:3809   */\n      0x40\n        /* \"#utility.yul\":3795:3804   */\n      dup4\n        /* \"#utility.yul\":3786:3793   */\n      dup6\n        /* \"#utility.yul\":3782:3805   */\n      sub\n        /* \"#utility.yul\":3778:3810   */\n      slt\n        /* \"#utility.yul\":3775:3894   */\n      iszero\n      tag_136\n      jumpi\n        /* \"#utility.yul\":3813:3892   */\n      tag_137\n      tag_72\n      jump\t// in\n    tag_137:\n        /* \"#utility.yul\":3775:3894   */\n    tag_136:\n        /* \"#utility.yul\":3933:3934   */\n      0x00\n        /* \"#utility.yul\":3958:4011   */\n      tag_138\n        /* \"#utility.yul\":4003:4010   */\n      dup6\n        /* \"#utility.yul\":3994:4000   */\n      dup3\n        /* \"#utility.yul\":3983:3992   */\n      dup7\n        /* \"#utility.yul\":3979:4001   */\n      add\n        /* \"#utility.yul\":3958:4011   */\n      tag_76\n      jump\t// in\n    tag_138:\n        /* \"#utility.yul\":3948:4011   */\n      swap3\n      pop\n        /* \"#utility.yul\":3904:4021   */\n      pop\n        /* \"#utility.yul\":4060:4062   */\n      0x20\n        /* \"#utility.yul\":4086:4139   */\n      tag_139\n        /* \"#utility.yul\":4131:4138   */\n      dup6\n        /* \"#utility.yul\":4122:4128   */\n      dup3\n        /* \"#utility.yul\":4111:4120   */\n      dup7\n        /* \"#utility.yul\":4107:4129   */\n      add\n        /* \"#utility.yul\":4086:4139   */\n      tag_76\n      jump\t// in\n    tag_139:\n        /* \"#utility.yul\":4076:4139   */\n      swap2\n      pop\n        /* \"#utility.yul\":4031:4149   */\n      pop\n        /* \"#utility.yul\":3682:4156   */\n      swap3\n      pop\n      swap3\n      swap1\n      pop\n      jump\t// out\n        /* \"#utility.yul\":4162:4280   */\n    tag_84:\n        /* \"#utility.yul\":4249:4273   */\n      tag_141\n        /* \"#utility.yul\":4267:4272   */\n      dup2\n        /* \"#utility.yul\":4249:4273   */\n      tag_74\n      jump\t// in\n    tag_141:\n        /* \"#utility.yul\":4244:4247   */\n      dup3\n        /* \"#utility.yul\":4237:4274   */\n      mstore\n        /* \"#utility.yul\":4162:4280   */\n      pop\n      pop\n      jump\t// out\n        /* \"#utility.yul\":4286:4404   */\n    tag_85:\n        /* \"#utility.yul\":4373:4397   */\n      tag_143\n        /* \"#utility.yul\":4391:4396   */\n      dup2\n        /* \"#utility.yul\":4373:4397   */\n      tag_79\n      jump\t// in\n    tag_143:\n        /* \"#utility.yul\":4368:4371   */\n      dup3\n        /* \"#utility.yul\":4361:4398   */\n      mstore\n        /* \"#utility.yul\":4286:4404   */\n      pop\n      pop\n      jump\t// out\n        /* \"#utility.yul\":4410:4519   */\n    tag_86:\n        /* \"#utility.yul\":4491:4512   */\n      tag_145\n        /* \"#utility.yul\":4506:4511   */\n      dup2\n        /* \"#utility.yul\":4491:4512   */\n      tag_81\n      jump\t// in\n    tag_145:\n        /* \"#utility.yul\":4486:4489   */\n      dup3\n        /* \"#utility.yul\":4479:4513   */\n      mstore\n        /* \"#utility.yul\":4410:4519   */\n      pop\n      pop\n      jump\t// out\n        /* \"#utility.yul\":4525:5510   */\n    tag_31:\n        /* \"#utility.yul\":4808:4812   */\n      0x00\n        /* \"#utility.yul\":4846:4849   */\n      0x0100\n        /* \"#utility.yul\":4835:4844   */\n      dup3\n        /* \"#utility.yul\":4831:4850   */\n      add\n        /* \"#utility.yul\":4823:4850   */\n      swap1\n      pop\n        /* \"#utility.yul\":4860:4931   */\n      tag_147\n        /* \"#utility.yul\":4928:4929   */\n      0x00\n        /* \"#utility.yul\":4917:4926   */\n      dup4\n        /* \"#utility.yul\":4913:4930   */\n      add\n        /* \"#utility.yul\":4904:4910   */\n      dup12\n        /* \"#utility.yul\":4860:4931   */\n      tag_84\n      jump\t// in\n    tag_147:\n        /* \"#utility.yul\":4941:5013   */\n      tag_148\n        /* \"#utility.yul\":5009:5011   */\n      0x20\n        /* \"#utility.yul\":4998:5007   */\n      dup4\n        /* \"#utility.yul\":4994:5012   */\n      add\n        /* \"#utility.yul\":4985:4991   */\n      dup11\n        /* \"#utility.yul\":4941:5013   */\n      tag_85\n      jump\t// in\n    tag_148:\n        /* \"#utility.yul\":5023:5095   */\n      tag_149\n        /* \"#utility.yul\":5091:5093   */\n      0x40\n        /* \"#utility.yul\":5080:5089   */\n      dup4\n        /* \"#utility.yul\":5076:5094   */\n      add\n        /* \"#utility.yul\":5067:5073   */\n      dup10\n        /* \"#utility.yul\":5023:5095   */\n      tag_84\n      jump\t// in\n    tag_149:\n        /* \"#utility.yul\":5105:5177   */\n      tag_150\n        /* \"#utility.yul\":5173:5175   */\n      0x60\n        /* \"#utility.yul\":5162:5171   */\n      dup4\n        /* \"#utility.yul\":5158:5176   */\n      add\n        /* \"#utility.yul\":5149:5155   */\n      dup9\n        /* \"#utility.yul\":5105:5177   */\n      tag_84\n      jump\t// in\n    tag_150:\n        /* \"#utility.yul\":5187:5260   */\n      tag_151\n        /* \"#utility.yul\":5255:5258   */\n      0x80\n        /* \"#utility.yul\":5244:5253   */\n      dup4\n        /* \"#utility.yul\":5240:5259   */\n      add\n        /* \"#utility.yul\":5231:5237   */\n      dup8\n        /* \"#utility.yul\":5187:5260   */\n      tag_84\n      jump\t// in\n    tag_151:\n        /* \"#utility.yul\":5270:5343   */\n      tag_152\n        /* \"#utility.yul\":5338:5341   */\n      0xa0\n        /* \"#utility.yul\":5327:5336   */\n      dup4\n        /* \"#utility.yul\":5323:5342   */\n      add\n        /* \"#utility.yul\":5314:5320   */\n      dup7\n        /* \"#utility.yul\":5270:5343   */\n      tag_84\n      jump\t// in\n    tag_152:\n        /* \"#utility.yul\":5353:5426   */\n      tag_153\n        /* \"#utility.yul\":5421:5424   */\n      0xc0\n        /* \"#utility.yul\":5410:5419   */\n      dup4\n        /* \"#utility.yul\":5406:5425   */\n      add\n        /* \"#utility.yul\":5397:5403   */\n      dup6\n        /* \"#utility.yul\":5353:5426   */\n      tag_84\n      jump\t// in\n    tag_153:\n        /* \"#utility.yul\":5436:5503   */\n      tag_154\n        /* \"#utility.yul\":5498:5501   */\n      0xe0\n        /* \"#utility.yul\":5487:5496   */\n      dup4\n        /* \"#utility.yul\":5483:5502   */\n      add\n        /* \"#utility.yul\":5474:5480   */\n      dup5\n        /* \"#utility.yul\":5436:5503   */\n      tag_86\n      jump\t// in\n    tag_154:\n        /* \"#utility.yul\":4525:5510   */\n      swap10\n      swap9\n      pop\n      pop\n      pop\n      pop\n      pop\n      pop\n      pop\n      pop\n      pop\n      jump\t// out\n        /* \"#utility.yul\":5516:5685   */\n    tag_87:\n        /* \"#utility.yul\":5600:5611   */\n      0x00\n        /* \"#utility.yul\":5634:5640   */\n      dup3\n        /* \"#utility.yul\":5629:5632   */\n      dup3\n        /* \"#utility.yul\":5622:5641   */\n      mstore\n        /* \"#utility.yul\":5674:5678   */\n      0x20\n        /* \"#utility.yul\":5669:5672   */\n      dup3\n        /* \"#utility.yul\":5665:5679   */\n      add\n        /* \"#utility.yul\":5650:5679   */\n      swap1\n      pop\n        /* \"#utility.yul\":5516:5685   */\n      swap3\n      swap2\n      pop\n      pop\n      jump\t// out\n        /* \"#utility.yul\":5691:5859   */\n    tag_88:\n        /* \"#utility.yul\":5831:5851   */\n      0x596f7520617265206e6f74207374616b65720000000000000000000000000000\n        /* \"#utility.yul\":5827:5828   */\n      0x00\n        /* \"#utility.yul\":5819:5825   */\n      dup3\n        /* \"#utility.yul\":5815:5829   */\n      add\n        /* \"#utility.yul\":5808:5852   */\n      mstore\n        /* \"#utility.yul\":5691:5859   */\n      pop\n      jump\t// out\n        /* \"#utility.yul\":5865:6231   */\n    tag_89:\n        /* \"#utility.yul\":6007:6010   */\n      0x00\n        /* \"#utility.yul\":6028:6095   */\n      tag_158\n        /* \"#utility.yul\":6092:6094   */\n      0x12\n        /* \"#utility.yul\":6087:6090   */\n      dup4\n        /* \"#utility.yul\":6028:6095   */\n      tag_87\n      jump\t// in\n    tag_158:\n        /* \"#utility.yul\":6021:6095   */\n      swap2\n      pop\n        /* \"#utility.yul\":6104:6197   */\n      tag_159\n        /* \"#utility.yul\":6193:6196   */\n      dup3\n        /* \"#utility.yul\":6104:6197   */\n      tag_88\n      jump\t// in\n    tag_159:\n        /* \"#utility.yul\":6222:6224   */\n      0x20\n        /* \"#utility.yul\":6217:6220   */\n      dup3\n        /* \"#utility.yul\":6213:6225   */\n      add\n        /* \"#utility.yul\":6206:6225   */\n      swap1\n      pop\n        /* \"#utility.yul\":5865:6231   */\n      swap2\n      swap1\n      pop\n      jump\t// out\n        /* \"#utility.yul\":6237:6656   */\n    tag_35:\n        /* \"#utility.yul\":6403:6407   */\n      0x00\n        /* \"#utility.yul\":6441:6443   */\n      0x20\n        /* \"#utility.yul\":6430:6439   */\n      dup3\n        /* \"#utility.yul\":6426:6444   */\n      add\n        /* \"#utility.yul\":6418:6444   */\n      swap1\n      pop\n        /* \"#utility.yul\":6490:6499   */\n      dup2\n        /* \"#utility.yul\":6484:6488   */\n      dup2\n        /* \"#utility.yul\":6480:6500   */\n      sub\n        /* \"#utility.yul\":6476:6477   */\n      0x00\n        /* \"#utility.yul\":6465:6474   */\n      dup4\n        /* \"#utility.yul\":6461:6478   */\n      add\n        /* \"#utility.yul\":6454:6501   */\n      mstore\n        /* \"#utility.yul\":6518:6649   */\n      tag_161\n        /* \"#utility.yul\":6644:6648   */\n      dup2\n        /* \"#utility.yul\":6518:6649   */\n      tag_89\n      jump\t// in\n    tag_161:\n        /* \"#utility.yul\":6510:6649   */\n      swap1\n      pop\n        /* \"#utility.yul\":6237:6656   */\n      swap2\n      swap1\n      pop\n      jump\t// out\n        /* \"#utility.yul\":6662:6835   */\n    tag_90:\n        /* \"#utility.yul\":6802:6827   */\n      0x4d6174696320616c72656164792077697468647261776e000000000000000000\n        /* \"#utility.yul\":6798:6799   */\n      0x00\n        /* \"#utility.yul\":6790:6796   */\n      dup3\n        /* \"#utility.yul\":6786:6800   */\n      add\n        /* \"#utility.yul\":6779:6828   */\n      mstore\n        /* \"#utility.yul\":6662:6835   */\n      pop\n      jump\t// out\n        /* \"#utility.yul\":6841:7207   */\n    tag_91:\n        /* \"#utility.yul\":6983:6986   */\n      0x00\n        /* \"#utility.yul\":7004:7071   */\n      tag_164\n        /* \"#utility.yul\":7068:7070   */\n      0x17\n        /* \"#utility.yul\":7063:7066   */\n      dup4\n        /* \"#utility.yul\":7004:7071   */\n      tag_87\n      jump\t// in\n    tag_164:\n        /* \"#utility.yul\":6997:7071   */\n      swap2\n      pop\n        /* \"#utility.yul\":7080:7173   */\n      tag_165\n        /* \"#utility.yul\":7169:7172   */\n      dup3\n        /* \"#utility.yul\":7080:7173   */\n      tag_90\n      jump\t// in\n    tag_165:\n        /* \"#utility.yul\":7198:7200   */\n      0x20\n        /* \"#utility.yul\":7193:7196   */\n      dup3\n        /* \"#utility.yul\":7189:7201   */\n      add\n        /* \"#utility.yul\":7182:7201   */\n      swap1\n      pop\n        /* \"#utility.yul\":6841:7207   */\n      swap2\n      swap1\n      pop\n      jump\t// out\n        /* \"#utility.yul\":7213:7632   */\n    tag_38:\n        /* \"#utility.yul\":7379:7383   */\n      0x00\n        /* \"#utility.yul\":7417:7419   */\n      0x20\n        /* \"#utility.yul\":7406:7415   */\n      dup3\n        /* \"#utility.yul\":7402:7420   */\n      add\n        /* \"#utility.yul\":7394:7420   */\n      swap1\n      pop\n        /* \"#utility.yul\":7466:7475   */\n      dup2\n        /* \"#utility.yul\":7460:7464   */\n      dup2\n        /* \"#utility.yul\":7456:7476   */\n      sub\n        /* \"#utility.yul\":7452:7453   */\n      0x00\n        /* \"#utility.yul\":7441:7450   */\n      dup4\n        /* \"#utility.yul\":7437:7454   */\n      add\n        /* \"#utility.yul\":7430:7477   */\n      mstore\n        /* \"#utility.yul\":7494:7625   */\n      tag_167\n        /* \"#utility.yul\":7620:7624   */\n      dup2\n        /* \"#utility.yul\":7494:7625   */\n      tag_91\n      jump\t// in\n    tag_167:\n        /* \"#utility.yul\":7486:7625   */\n      swap1\n      pop\n        /* \"#utility.yul\":7213:7632   */\n      swap2\n      swap1\n      pop\n      jump\t// out\n        /* \"#utility.yul\":7638:7818   */\n    tag_92:\n        /* \"#utility.yul\":7686:7763   */\n      0x4e487b7100000000000000000000000000000000000000000000000000000000\n        /* \"#utility.yul\":7683:7684   */\n      0x00\n        /* \"#utility.yul\":7676:7764   */\n      mstore\n        /* \"#utility.yul\":7783:7787   */\n      0x11\n        /* \"#utility.yul\":7780:7781   */\n      0x04\n        /* \"#utility.yul\":7773:7788   */\n      mstore\n        /* \"#utility.yul\":7807:7811   */\n      0x24\n        /* \"#utility.yul\":7804:7805   */\n      0x00\n        /* \"#utility.yul\":7797:7812   */\n      revert\n        /* \"#utility.yul\":7824:8015   */\n    tag_41:\n        /* \"#utility.yul\":7864:7867   */\n      0x00\n        /* \"#utility.yul\":7883:7903   */\n      tag_170\n        /* \"#utility.yul\":7901:7902   */\n      dup3\n        /* \"#utility.yul\":7883:7903   */\n      tag_74\n      jump\t// in\n    tag_170:\n        /* \"#utility.yul\":7878:7903   */\n      swap2\n      pop\n        /* \"#utility.yul\":7917:7937   */\n      tag_171\n        /* \"#utility.yul\":7935:7936   */\n      dup4\n        /* \"#utility.yul\":7917:7937   */\n      tag_74\n      jump\t// in\n    tag_171:\n        /* \"#utility.yul\":7912:7937   */\n      swap3\n      pop\n        /* \"#utility.yul\":7960:7961   */\n      dup3\n        /* \"#utility.yul\":7957:7958   */\n      dup3\n        /* \"#utility.yul\":7953:7962   */\n      add\n        /* \"#utility.yul\":7946:7962   */\n      swap1\n      pop\n        /* \"#utility.yul\":7981:7984   */\n      dup1\n        /* \"#utility.yul\":7978:7979   */\n      dup3\n        /* \"#utility.yul\":7975:7985   */\n      gt\n        /* \"#utility.yul\":7972:8008   */\n      iszero\n      tag_172\n      jumpi\n        /* \"#utility.yul\":7988:8006   */\n      tag_173\n      tag_92\n      jump\t// in\n    tag_173:\n        /* \"#utility.yul\":7972:8008   */\n    tag_172:\n        /* \"#utility.yul\":7824:8015   */\n      swap3\n      swap2\n      pop\n      pop\n      jump\t// out\n        /* \"#utility.yul\":8021:8200   */\n    tag_93:\n        /* \"#utility.yul\":8161:8192   */\n      0x706c6561736520636865636b2076616c756520616e6420616d6f756e74000000\n        /* \"#utility.yul\":8157:8158   */\n      0x00\n        /* \"#utility.yul\":8149:8155   */\n      dup3\n        /* \"#utility.yul\":8145:8159   */\n      add\n        /* \"#utility.yul\":8138:8193   */\n      mstore\n        /* \"#utility.yul\":8021:8200   */\n      pop\n      jump\t// out\n        /* \"#utility.yul\":8206:8572   */\n    tag_94:\n        /* \"#utility.yul\":8348:8351   */\n      0x00\n        /* \"#utility.yul\":8369:8436   */\n      tag_176\n        /* \"#utility.yul\":8433:8435   */\n      0x1d\n        /* \"#utility.yul\":8428:8431   */\n      dup4\n        /* \"#utility.yul\":8369:8436   */\n      tag_87\n      jump\t// in\n    tag_176:\n        /* \"#utility.yul\":8362:8436   */\n      swap2\n      pop\n        /* \"#utility.yul\":8445:8538   */\n      tag_177\n        /* \"#utility.yul\":8534:8537   */\n      dup3\n        /* \"#utility.yul\":8445:8538   */\n      tag_93\n      jump\t// in\n    tag_177:\n        /* \"#utility.yul\":8563:8565   */\n      0x20\n        /* \"#utility.yul\":8558:8561   */\n      dup3\n        /* \"#utility.yul\":8554:8566   */\n      add\n        /* \"#utility.yul\":8547:8566   */\n      swap1\n      pop\n        /* \"#utility.yul\":8206:8572   */\n      swap2\n      swap1\n      pop\n      jump\t// out\n        /* \"#utility.yul\":8578:8997   */\n    tag_53:\n        /* \"#utility.yul\":8744:8748   */\n      0x00\n        /* \"#utility.yul\":8782:8784   */\n      0x20\n        /* \"#utility.yul\":8771:8780   */\n      dup3\n        /* \"#utility.yul\":8767:8785   */\n      add\n        /* \"#utility.yul\":8759:8785   */\n      swap1\n      pop\n        /* \"#utility.yul\":8831:8840   */\n      dup2\n        /* \"#utility.yul\":8825:8829   */\n      dup2\n        /* \"#utility.yul\":8821:8841   */\n      sub\n        /* \"#utility.yul\":8817:8818   */\n      0x00\n        /* \"#utility.yul\":8806:8815   */\n      dup4\n        /* \"#utility.yul\":8802:8819   */\n      add\n        /* \"#utility.yul\":8795:8842   */\n      mstore\n        /* \"#utility.yul\":8859:8990   */\n      tag_179\n        /* \"#utility.yul\":8985:8989   */\n      dup2\n        /* \"#utility.yul\":8859:8990   */\n      tag_94\n      jump\t// in\n    tag_179:\n        /* \"#utility.yul\":8851:8990   */\n      swap1\n      pop\n        /* \"#utility.yul\":8578:8997   */\n      swap2\n      swap1\n      pop\n      jump\t// out\n        /* \"#utility.yul\":9003:9178   */\n    tag_95:\n        /* \"#utility.yul\":9143:9170   */\n      0x796f75206861766e277420656e6f7567682062616c616e636500000000000000\n        /* \"#utility.yul\":9139:9140   */\n      0x00\n        /* \"#utility.yul\":9131:9137   */\n      dup3\n        /* \"#utility.yul\":9127:9141   */\n      add\n        /* \"#utility.yul\":9120:9171   */\n      mstore\n        /* \"#utility.yul\":9003:9178   */\n      pop\n      jump\t// out\n        /* \"#utility.yul\":9184:9550   */\n    tag_96:\n        /* \"#utility.yul\":9326:9329   */\n      0x00\n        /* \"#utility.yul\":9347:9414   */\n      tag_182\n        /* \"#utility.yul\":9411:9413   */\n      0x19\n        /* \"#utility.yul\":9406:9409   */\n      dup4\n        /* \"#utility.yul\":9347:9414   */\n      tag_87\n      jump\t// in\n    tag_182:\n        /* \"#utility.yul\":9340:9414   */\n      swap2\n      pop\n        /* \"#utility.yul\":9423:9516   */\n      tag_183\n        /* \"#utility.yul\":9512:9515   */\n      dup3\n        /* \"#utility.yul\":9423:9516   */\n      tag_95\n      jump\t// in\n    tag_183:\n        /* \"#utility.yul\":9541:9543   */\n      0x20\n        /* \"#utility.yul\":9536:9539   */\n      dup3\n        /* \"#utility.yul\":9532:9544   */\n      add\n        /* \"#utility.yul\":9525:9544   */\n      swap1\n      pop\n        /* \"#utility.yul\":9184:9550   */\n      swap2\n      swap1\n      pop\n      jump\t// out\n        /* \"#utility.yul\":9556:9975   */\n    tag_56:\n        /* \"#utility.yul\":9722:9726   */\n      0x00\n        /* \"#utility.yul\":9760:9762   */\n      0x20\n        /* \"#utility.yul\":9749:9758   */\n      dup3\n        /* \"#utility.yul\":9745:9763   */\n      add\n        /* \"#utility.yul\":9737:9763   */\n      swap1\n      pop\n        /* \"#utility.yul\":9809:9818   */\n      dup2\n        /* \"#utility.yul\":9803:9807   */\n      dup2\n        /* \"#utility.yul\":9799:9819   */\n      sub\n        /* \"#utility.yul\":9795:9796   */\n      0x00\n        /* \"#utility.yul\":9784:9793   */\n      dup4\n        /* \"#utility.yul\":9780:9797   */\n      add\n        /* \"#utility.yul\":9773:9820   */\n      mstore\n        /* \"#utility.yul\":9837:9968   */\n      tag_185\n        /* \"#utility.yul\":9963:9967   */\n      dup2\n        /* \"#utility.yul\":9837:9968   */\n      tag_96\n      jump\t// in\n    tag_185:\n        /* \"#utility.yul\":9829:9968   */\n      swap1\n      pop\n        /* \"#utility.yul\":9556:9975   */\n      swap2\n      swap1\n      pop\n      jump\t// out\n        /* \"#utility.yul\":9981:10154   */\n    tag_97:\n        /* \"#utility.yul\":10121:10146   */\n      0x636865636b20796f75722074696d6520706572696f6420000000000000000000\n        /* \"#utility.yul\":10117:10118   */\n      0x00\n        /* \"#utility.yul\":10109:10115   */\n      dup3\n        /* \"#utility.yul\":10105:10119   */\n      add\n        /* \"#utility.yul\":10098:10147   */\n      mstore\n        /* \"#utility.yul\":9981:10154   */\n      pop\n      jump\t// out\n        /* \"#utility.yul\":10160:10526   */\n    tag_98:\n        /* \"#utility.yul\":10302:10305   */\n      0x00\n        /* \"#utility.yul\":10323:10390   */\n      tag_188\n        /* \"#utility.yul\":10387:10389   */\n      0x17\n        /* \"#utility.yul\":10382:10385   */\n      dup4\n        /* \"#utility.yul\":10323:10390   */\n      tag_87\n      jump\t// in\n    tag_188:\n        /* \"#utility.yul\":10316:10390   */\n      swap2\n      pop\n        /* \"#utility.yul\":10399:10492   */\n      tag_189\n        /* \"#utility.yul\":10488:10491   */\n      dup3\n        /* \"#utility.yul\":10399:10492   */\n      tag_97\n      jump\t// in\n    tag_189:\n        /* \"#utility.yul\":10517:10519   */\n      0x20\n        /* \"#utility.yul\":10512:10515   */\n      dup3\n        /* \"#utility.yul\":10508:10520   */\n      add\n        /* \"#utility.yul\":10501:10520   */\n      swap1\n      pop\n        /* \"#utility.yul\":10160:10526   */\n      swap2\n      swap1\n      pop\n      jump\t// out\n        /* \"#utility.yul\":10532:10951   */\n    tag_59:\n        /* \"#utility.yul\":10698:10702   */\n      0x00\n        /* \"#utility.yul\":10736:10738   */\n      0x20\n        /* \"#utility.yul\":10725:10734   */\n      dup3\n        /* \"#utility.yul\":10721:10739   */\n      add\n        /* \"#utility.yul\":10713:10739   */\n      swap1\n      pop\n        /* \"#utility.yul\":10785:10794   */\n      dup2\n        /* \"#utility.yul\":10779:10783   */\n      dup2\n        /* \"#utility.yul\":10775:10795   */\n      sub\n        /* \"#utility.yul\":10771:10772   */\n      0x00\n        /* \"#utility.yul\":10760:10769   */\n      dup4\n        /* \"#utility.yul\":10756:10773   */\n      add\n        /* \"#utility.yul\":10749:10796   */\n      mstore\n        /* \"#utility.yul\":10813:10944   */\n      tag_191\n        /* \"#utility.yul\":10939:10943   */\n      dup2\n        /* \"#utility.yul\":10813:10944   */\n      tag_98\n      jump\t// in\n    tag_191:\n        /* \"#utility.yul\":10805:10944   */\n      swap1\n      pop\n        /* \"#utility.yul\":10532:10951   */\n      swap2\n      swap1\n      pop\n      jump\t// out\n        /* \"#utility.yul\":10957:11367   */\n    tag_61:\n        /* \"#utility.yul\":10997:11004   */\n      0x00\n        /* \"#utility.yul\":11020:11040   */\n      tag_193\n        /* \"#utility.yul\":11038:11039   */\n      dup3\n        /* \"#utility.yul\":11020:11040   */\n      tag_74\n      jump\t// in\n    tag_193:\n        /* \"#utility.yul\":11015:11040   */\n      swap2\n      pop\n        /* \"#utility.yul\":11054:11074   */\n      tag_194\n        /* \"#utility.yul\":11072:11073   */\n      dup4\n        /* \"#utility.yul\":11054:11074   */\n      tag_74\n      jump\t// in\n    tag_194:\n        /* \"#utility.yul\":11049:11074   */\n      swap3\n      pop\n        /* \"#utility.yul\":11109:11110   */\n      dup3\n        /* \"#utility.yul\":11106:11107   */\n      dup3\n        /* \"#utility.yul\":11102:11111   */\n      mul\n        /* \"#utility.yul\":11131:11161   */\n      tag_195\n        /* \"#utility.yul\":11149:11160   */\n      dup2\n        /* \"#utility.yul\":11131:11161   */\n      tag_74\n      jump\t// in\n    tag_195:\n        /* \"#utility.yul\":11120:11161   */\n      swap2\n      pop\n        /* \"#utility.yul\":11310:11311   */\n      dup3\n        /* \"#utility.yul\":11301:11308   */\n      dup3\n        /* \"#utility.yul\":11297:11312   */\n      div\n        /* \"#utility.yul\":11294:11295   */\n      dup5\n        /* \"#utility.yul\":11291:11313   */\n      eq\n        /* \"#utility.yul\":11271:11272   */\n      dup4\n        /* \"#utility.yul\":11264:11273   */\n      iszero\n        /* \"#utility.yul\":11244:11327   */\n      or\n        /* \"#utility.yul\":11221:11360   */\n      tag_196\n      jumpi\n        /* \"#utility.yul\":11340:11358   */\n      tag_197\n      tag_92\n      jump\t// in\n    tag_197:\n        /* \"#utility.yul\":11221:11360   */\n    tag_196:\n        /* \"#utility.yul\":11005:11367   */\n      pop\n        /* \"#utility.yul\":10957:11367   */\n      swap3\n      swap2\n      pop\n      pop\n      jump\t// out\n        /* \"#utility.yul\":11373:11553   */\n    tag_99:\n        /* \"#utility.yul\":11421:11498   */\n      0x4e487b7100000000000000000000000000000000000000000000000000000000\n        /* \"#utility.yul\":11418:11419   */\n      0x00\n        /* \"#utility.yul\":11411:11499   */\n      mstore\n        /* \"#utility.yul\":11518:11522   */\n      0x12\n        /* \"#utility.yul\":11515:11516   */\n      0x04\n        /* \"#utility.yul\":11508:11523   */\n      mstore\n        /* \"#utility.yul\":11542:11546   */\n      0x24\n        /* \"#utility.yul\":11539:11540   */\n      0x00\n        /* \"#utility.yul\":11532:11547   */\n      revert\n        /* \"#utility.yul\":11559:11744   */\n    tag_65:\n        /* \"#utility.yul\":11599:11600   */\n      0x00\n        /* \"#utility.yul\":11616:11636   */\n      tag_200\n        /* \"#utility.yul\":11634:11635   */\n      dup3\n        /* \"#utility.yul\":11616:11636   */\n      tag_74\n      jump\t// in\n    tag_200:\n        /* \"#utility.yul\":11611:11636   */\n      swap2\n      pop\n        /* \"#utility.yul\":11650:11670   */\n      tag_201\n        /* \"#utility.yul\":11668:11669   */\n      dup4\n        /* \"#utility.yul\":11650:11670   */\n      tag_74\n      jump\t// in\n    tag_201:\n        /* \"#utility.yul\":11645:11670   */\n      swap3\n      pop\n        /* \"#utility.yul\":11689:11690   */\n      dup3\n        /* \"#utility.yul\":11679:11714   */\n      tag_202\n      jumpi\n        /* \"#utility.yul\":11694:11712   */\n      tag_203\n      tag_99\n      jump\t// in\n    tag_203:\n        /* \"#utility.yul\":11679:11714   */\n    tag_202:\n        /* \"#utility.yul\":11736:11737   */\n      dup3\n        /* \"#utility.yul\":11733:11734   */\n      dup3\n        /* \"#utility.yul\":11729:11738   */\n      div\n        /* \"#utility.yul\":11724:11738   */\n      swap1\n      pop\n        /* \"#utility.yul\":11559:11744   */\n      swap3\n      swap2\n      pop\n      pop\n      jump\t// out\n        /* \"#utility.yul\":11750:11983   */\n    tag_68:\n        /* \"#utility.yul\":11789:11792   */\n      0x00\n        /* \"#utility.yul\":11812:11836   */\n      tag_205\n        /* \"#utility.yul\":11830:11835   */\n      dup3\n        /* \"#utility.yul\":11812:11836   */\n      tag_74\n      jump\t// in\n    tag_205:\n        /* \"#utility.yul\":11803:11836   */\n      swap2\n      pop\n        /* \"#utility.yul\":11858:11924   */\n      0xffffffffffffffffffffffffffffffffffffffffffffffffffffffffffffffff\n        /* \"#utility.yul\":11851:11856   */\n      dup3\n        /* \"#utility.yul\":11848:11925   */\n      sub\n        /* \"#utility.yul\":11845:11948   */\n      tag_206\n      jumpi\n        /* \"#utility.yul\":11928:11946   */\n      tag_207\n      tag_92\n      jump\t// in\n    tag_207:\n        /* \"#utility.yul\":11845:11948   */\n    tag_206:\n        /* \"#utility.yul\":11975:11976   */\n      0x01\n        /* \"#utility.yul\":11968:11973   */\n      dup3\n        /* \"#utility.yul\":11964:11977   */\n      add\n        /* \"#utility.yul\":11957:11977   */\n      swap1\n      pop\n        /* \"#utility.yul\":11750:11983   */\n      swap2\n      swap1\n      pop\n      jump\t// out\n\n    auxdata: 0xa26469706673582212208f761540b55d0d19a7362533bbd61763e705ff5198d7380ed5e66f8560a1753664736f6c63430008140033\n}\n",
				"bytecode": {
					"linkReferences": {},
					"object": "60806040525f600955348015610013575f80fd5b50335f806101000a81548173ffffffffffffffffffffffffffffffffffffffff021916908373ffffffffffffffffffffffffffffffffffffffff1602179055506005600c5f601e81526020019081526020015f20819055506010600c5f605a81526020019081526020015f20819055506020600c5f60b481526020019081526020015f2081905550610e57806100a85f395ff3fe608060405260043610610049575f3560e01c8063084c41741461004d578063105c2c5c14610075578063a954c7d7146100b1578063f9d4e871146100cd578063fd5e6dd1146100f5575b5f80fd5b348015610058575f80fd5b50610073600480360381019061006e9190610890565b610138565b005b348015610080575f80fd5b5061009b60048036038101906100969190610890565b610364565b6040516100a891906109c3565b60405180910390f35b6100cb60048036038101906100c691906109dd565b61043a565b005b3480156100d8575f80fd5b506100f360048036038101906100ee91906109dd565b610722565b005b348015610100575f80fd5b5061011b60048036038101906101169190610890565b610795565b60405161012f989796959493929190610a48565b60405180910390f35b3373ffffffffffffffffffffffffffffffffffffffff16600a5f8381526020019081526020015f206001015f9054906101000a900473ffffffffffffffffffffffffffffffffffffffff1673ffffffffffffffffffffffffffffffffffffffff16146101d9576040517f08c379a00000000000000000000000000000000000000000000000000000000081526004016101d090610b1e565b60405180910390fd5b60011515600a5f8381526020019081526020015f206007015f9054906101000a900460ff16151514610240576040517f08c379a000000000000000000000000000000000000000000000000000000000815260040161023790610b86565b60405180910390fd5b5f600a5f8381526020019081526020015f206007015f6101000a81548160ff021916908315150217905550600a5f8281526020019081526020015f2060030154421115610308575f600a5f8381526020019081526020015f2060060154600a5f8481526020019081526020015f20600501546102bc9190610bd1565b90503373ffffffffffffffffffffffffffffffffffffffff166108fc8290811502906040515f60405180830381858888f19350505050158015610301573d5f803e3d5ffd5b5050610361565b3373ffffffffffffffffffffffffffffffffffffffff166108fc600a5f8481526020019081526020015f206005015490811502906040515f60405180830381858888f1935050505015801561035f573d5f803e3d5ffd5b505b50565b61036c610804565b600a5f8381526020019081526020015f20604051806101000160405290815f8201548152602001600182015f9054906101000a900473ffffffffffffffffffffffffffffffffffffffff1673ffffffffffffffffffffffffffffffffffffffff1673ffffffffffffffffffffffffffffffffffffffff1681526020016002820154815260200160038201548152602001600482015481526020016005820154815260200160068201548152602001600782015f9054906101000a900460ff1615151515815250509050919050565b34821461047c576040517f08c379a000000000000000000000000000000000000000000000000000000000815260040161047390610c4e565b60405180910390fd5b5f8054906101000a900473ffffffffffffffffffffffffffffffffffffffff1673ffffffffffffffffffffffffffffffffffffffff16313411156104f5576040517f08c379a00000000000000000000000000000000000000000000000000000000081526004016104ec90610cb6565b60405180910390fd5b5f600c5f8381526020019081526020015f205411610548576040517f08c379a000000000000000000000000000000000000000000000000000000000815260040161053f90610d1e565b60405180910390fd5b60405180610100016040528060095481526020013373ffffffffffffffffffffffffffffffffffffffff168152602001428152602001620151808361058d9190610d3c565b426105989190610bd1565b8152602001600c5f8481526020019081526020015f20548152602001348152602001606434600c5f8681526020019081526020015f20546105d99190610d3c565b6105e39190610daa565b815260200160011515815250600a5f60095481526020019081526020015f205f820151815f01556020820151816001015f6101000a81548173ffffffffffffffffffffffffffffffffffffffff021916908373ffffffffffffffffffffffffffffffffffffffff16021790555060408201518160020155606082015181600301556080820151816004015560a0820151816005015560c0820151816006015560e0820151816007015f6101000a81548160ff021916908315150217905550905050600b5f3373ffffffffffffffffffffffffffffffffffffffff1673ffffffffffffffffffffffffffffffffffffffff1681526020019081526020015f20600954908060018154018082558091505060019003905f5260205f20015f909190919091505560095f81548092919061071990610dda565b91905055505050565b5f8054906101000a900473ffffffffffffffffffffffffffffffffffffffff1673ffffffffffffffffffffffffffffffffffffffff163373ffffffffffffffffffffffffffffffffffffffff1614610778575f80fd5b80600a5f8481526020019081526020015f20600301819055505050565b600a602052805f5260405f205f91509050805f015490806001015f9054906101000a900473ffffffffffffffffffffffffffffffffffffffff1690806002015490806003015490806004015490806005015490806006015490806007015f9054906101000a900460ff16905088565b6040518061010001604052805f81526020015f73ffffffffffffffffffffffffffffffffffffffff1681526020015f81526020015f81526020015f81526020015f81526020015f81526020015f151581525090565b5f80fd5b5f819050919050565b61086f8161085d565b8114610879575f80fd5b50565b5f8135905061088a81610866565b92915050565b5f602082840312156108a5576108a4610859565b5b5f6108b28482850161087c565b91505092915050565b6108c48161085d565b82525050565b5f73ffffffffffffffffffffffffffffffffffffffff82169050919050565b5f6108f3826108ca565b9050919050565b610903816108e9565b82525050565b5f8115159050919050565b61091d81610909565b82525050565b61010082015f8201516109385f8501826108bb565b50602082015161094b60208501826108fa565b50604082015161095e60408501826108bb565b50606082015161097160608501826108bb565b50608082015161098460808501826108bb565b5060a082015161099760a08501826108bb565b5060c08201516109aa60c08501826108bb565b5060e08201516109bd60e0850182610914565b50505050565b5f610100820190506109d75f830184610923565b92915050565b5f80604083850312156109f3576109f2610859565b5b5f610a008582860161087c565b9250506020610a118582860161087c565b9150509250929050565b610a248161085d565b82525050565b610a33816108e9565b82525050565b610a4281610909565b82525050565b5f61010082019050610a5c5f83018b610a1b565b610a69602083018a610a2a565b610a766040830189610a1b565b610a836060830188610a1b565b610a906080830187610a1b565b610a9d60a0830186610a1b565b610aaa60c0830185610a1b565b610ab760e0830184610a39565b9998505050505050505050565b5f82825260208201905092915050565b7f596f7520617265206e6f74207374616b657200000000000000000000000000005f82015250565b5f610b08601283610ac4565b9150610b1382610ad4565b602082019050919050565b5f6020820190508181035f830152610b3581610afc565b9050919050565b7f4d6174696320616c72656164792077697468647261776e0000000000000000005f82015250565b5f610b70601783610ac4565b9150610b7b82610b3c565b602082019050919050565b5f6020820190508181035f830152610b9d81610b64565b9050919050565b7f4e487b71000000000000000000000000000000000000000000000000000000005f52601160045260245ffd5b5f610bdb8261085d565b9150610be68361085d565b9250828201905080821115610bfe57610bfd610ba4565b5b92915050565b7f706c6561736520636865636b2076616c756520616e6420616d6f756e740000005f82015250565b5f610c38601d83610ac4565b9150610c4382610c04565b602082019050919050565b5f6020820190508181035f830152610c6581610c2c565b9050919050565b7f796f75206861766e277420656e6f7567682062616c616e6365000000000000005f82015250565b5f610ca0601983610ac4565b9150610cab82610c6c565b602082019050919050565b5f6020820190508181035f830152610ccd81610c94565b9050919050565b7f636865636b20796f75722074696d6520706572696f64200000000000000000005f82015250565b5f610d08601783610ac4565b9150610d1382610cd4565b602082019050919050565b5f6020820190508181035f830152610d3581610cfc565b9050919050565b5f610d468261085d565b9150610d518361085d565b9250828202610d5f8161085d565b91508282048414831517610d7657610d75610ba4565b5b5092915050565b7f4e487b71000000000000000000000000000000000000000000000000000000005f52601260045260245ffd5b5f610db48261085d565b9150610dbf8361085d565b925082610dcf57610dce610d7d565b5b828204905092915050565b5f610de48261085d565b91507fffffffffffffffffffffffffffffffffffffffffffffffffffffffffffffffff8203610e1657610e15610ba4565b5b60018201905091905056fea26469706673582212208f761540b55d0d19a7362533bbd61763e705ff5198d7380ed5e66f8560a1753664736f6c63430008140033",
					"opcodes": "PUSH1 0x80 PUSH1 0x40 MSTORE PUSH0 PUSH1 0x9 SSTORE CALLVALUE DUP1 ISZERO PUSH2 0x13 JUMPI PUSH0 DUP1 REVERT JUMPDEST POP CALLER PUSH0 DUP1 PUSH2 0x100 EXP DUP2 SLOAD DUP2 PUSH20 0xFFFFFFFFFFFFFFFFFFFFFFFFFFFFFFFFFFFFFFFF MUL NOT AND SWAP1 DUP4 PUSH20 0xFFFFFFFFFFFFFFFFFFFFFFFFFFFFFFFFFFFFFFFF AND MUL OR SWAP1 SSTORE POP PUSH1 0x5 PUSH1 0xC PUSH0 PUSH1 0x1E DUP2 MSTORE PUSH1 0x20 ADD SWAP1 DUP2 MSTORE PUSH1 0x20 ADD PUSH0 KECCAK256 DUP2 SWAP1 SSTORE POP PUSH1 0x10 PUSH1 0xC PUSH0 PUSH1 0x5A DUP2 MSTORE PUSH1 0x20 ADD SWAP1 DUP2 MSTORE PUSH1 0x20 ADD PUSH0 KECCAK256 DUP2 SWAP1 SSTORE POP PUSH1 0x20 PUSH1 0xC PUSH0 PUSH1 0xB4 DUP2 MSTORE PUSH1 0x20 ADD SWAP1 DUP2 MSTORE PUSH1 0x20 ADD PUSH0 KECCAK256 DUP2 SWAP1 SSTORE POP PUSH2 0xE57 DUP1 PUSH2 0xA8 PUSH0 CODECOPY PUSH0 RETURN INVALID PUSH1 0x80 PUSH1 0x40 MSTORE PUSH1 0x4 CALLDATASIZE LT PUSH2 0x49 JUMPI PUSH0 CALLDATALOAD PUSH1 0xE0 SHR DUP1 PUSH4 0x84C4174 EQ PUSH2 0x4D JUMPI DUP1 PUSH4 0x105C2C5C EQ PUSH2 0x75 JUMPI DUP1 PUSH4 0xA954C7D7 EQ PUSH2 0xB1 JUMPI DUP1 PUSH4 0xF9D4E871 EQ PUSH2 0xCD JUMPI DUP1 PUSH4 0xFD5E6DD1 EQ PUSH2 0xF5 JUMPI JUMPDEST PUSH0 DUP1 REVERT JUMPDEST CALLVALUE DUP1 ISZERO PUSH2 0x58 JUMPI PUSH0 DUP1 REVERT JUMPDEST POP PUSH2 0x73 PUSH1 0x4 DUP1 CALLDATASIZE SUB DUP2 ADD SWAP1 PUSH2 0x6E SWAP2 SWAP1 PUSH2 0x890 JUMP JUMPDEST PUSH2 0x138 JUMP JUMPDEST STOP JUMPDEST CALLVALUE DUP1 ISZERO PUSH2 0x80 JUMPI PUSH0 DUP1 REVERT JUMPDEST POP PUSH2 0x9B PUSH1 0x4 DUP1 CALLDATASIZE SUB DUP2 ADD SWAP1 PUSH2 0x96 SWAP2 SWAP1 PUSH2 0x890 JUMP JUMPDEST PUSH2 0x364 JUMP JUMPDEST PUSH1 0x40 MLOAD PUSH2 0xA8 SWAP2 SWAP1 PUSH2 0x9C3 JUMP JUMPDEST PUSH1 0x40 MLOAD DUP1 SWAP2 SUB SWAP1 RETURN JUMPDEST PUSH2 0xCB PUSH1 0x4 DUP1 CALLDATASIZE SUB DUP2 ADD SWAP1 PUSH2 0xC6 SWAP2 SWAP1 PUSH2 0x9DD JUMP JUMPDEST PUSH2 0x43A JUMP JUMPDEST STOP JUMPDEST CALLVALUE DUP1 ISZERO PUSH2 0xD8 JUMPI PUSH0 DUP1 REVERT JUMPDEST POP PUSH2 0xF3 PUSH1 0x4 DUP1 CALLDATASIZE SUB DUP2 ADD SWAP1 PUSH2 0xEE SWAP2 SWAP1 PUSH2 0x9DD JUMP JUMPDEST PUSH2 0x722 JUMP JUMPDEST STOP JUMPDEST CALLVALUE DUP1 ISZERO PUSH2 0x100 JUMPI PUSH0 DUP1 REVERT JUMPDEST POP PUSH2 0x11B PUSH1 0x4 DUP1 CALLDATASIZE SUB DUP2 ADD SWAP1 PUSH2 0x116 SWAP2 SWAP1 PUSH2 0x890 JUMP JUMPDEST PUSH2 0x795 JUMP JUMPDEST PUSH1 0x40 MLOAD PUSH2 0x12F SWAP9 SWAP8 SWAP7 SWAP6 SWAP5 SWAP4 SWAP3 SWAP2 SWAP1 PUSH2 0xA48 JUMP JUMPDEST PUSH1 0x40 MLOAD DUP1 SWAP2 SUB SWAP1 RETURN JUMPDEST CALLER PUSH20 0xFFFFFFFFFFFFFFFFFFFFFFFFFFFFFFFFFFFFFFFF AND PUSH1 0xA PUSH0 DUP4 DUP2 MSTORE PUSH1 0x20 ADD SWAP1 DUP2 MSTORE PUSH1 0x20 ADD PUSH0 KECCAK256 PUSH1 0x1 ADD PUSH0 SWAP1 SLOAD SWAP1 PUSH2 0x100 EXP SWAP1 DIV PUSH20 0xFFFFFFFFFFFFFFFFFFFFFFFFFFFFFFFFFFFFFFFF AND PUSH20 0xFFFFFFFFFFFFFFFFFFFFFFFFFFFFFFFFFFFFFFFF AND EQ PUSH2 0x1D9 JUMPI PUSH1 0x40 MLOAD PUSH32 0x8C379A000000000000000000000000000000000000000000000000000000000 DUP2 MSTORE PUSH1 0x4 ADD PUSH2 0x1D0 SWAP1 PUSH2 0xB1E JUMP JUMPDEST PUSH1 0x40 MLOAD DUP1 SWAP2 SUB SWAP1 REVERT JUMPDEST PUSH1 0x1 ISZERO ISZERO PUSH1 0xA PUSH0 DUP4 DUP2 MSTORE PUSH1 0x20 ADD SWAP1 DUP2 MSTORE PUSH1 0x20 ADD PUSH0 KECCAK256 PUSH1 0x7 ADD PUSH0 SWAP1 SLOAD SWAP1 PUSH2 0x100 EXP SWAP1 DIV PUSH1 0xFF AND ISZERO ISZERO EQ PUSH2 0x240 JUMPI PUSH1 0x40 MLOAD PUSH32 0x8C379A000000000000000000000000000000000000000000000000000000000 DUP2 MSTORE PUSH1 0x4 ADD PUSH2 0x237 SWAP1 PUSH2 0xB86 JUMP JUMPDEST PUSH1 0x40 MLOAD DUP1 SWAP2 SUB SWAP1 REVERT JUMPDEST PUSH0 PUSH1 0xA PUSH0 DUP4 DUP2 MSTORE PUSH1 0x20 ADD SWAP1 DUP2 MSTORE PUSH1 0x20 ADD PUSH0 KECCAK256 PUSH1 0x7 ADD PUSH0 PUSH2 0x100 EXP DUP2 SLOAD DUP2 PUSH1 0xFF MUL NOT AND SWAP1 DUP4 ISZERO ISZERO MUL OR SWAP1 SSTORE POP PUSH1 0xA PUSH0 DUP3 DUP2 MSTORE PUSH1 0x20 ADD SWAP1 DUP2 MSTORE PUSH1 0x20 ADD PUSH0 KECCAK256 PUSH1 0x3 ADD SLOAD TIMESTAMP GT ISZERO PUSH2 0x308 JUMPI PUSH0 PUSH1 0xA PUSH0 DUP4 DUP2 MSTORE PUSH1 0x20 ADD SWAP1 DUP2 MSTORE PUSH1 0x20 ADD PUSH0 KECCAK256 PUSH1 0x6 ADD SLOAD PUSH1 0xA PUSH0 DUP5 DUP2 MSTORE PUSH1 0x20 ADD SWAP1 DUP2 MSTORE PUSH1 0x20 ADD PUSH0 KECCAK256 PUSH1 0x5 ADD SLOAD PUSH2 0x2BC SWAP2 SWAP1 PUSH2 0xBD1 JUMP JUMPDEST SWAP1 POP CALLER PUSH20 0xFFFFFFFFFFFFFFFFFFFFFFFFFFFFFFFFFFFFFFFF AND PUSH2 0x8FC DUP3 SWAP1 DUP2 ISZERO MUL SWAP1 PUSH1 0x40 MLOAD PUSH0 PUSH1 0x40 MLOAD DUP1 DUP4 SUB DUP2 DUP6 DUP9 DUP9 CALL SWAP4 POP POP POP POP ISZERO DUP1 ISZERO PUSH2 0x301 JUMPI RETURNDATASIZE PUSH0 DUP1 RETURNDATACOPY RETURNDATASIZE PUSH0 REVERT JUMPDEST POP POP PUSH2 0x361 JUMP JUMPDEST CALLER PUSH20 0xFFFFFFFFFFFFFFFFFFFFFFFFFFFFFFFFFFFFFFFF AND PUSH2 0x8FC PUSH1 0xA PUSH0 DUP5 DUP2 MSTORE PUSH1 0x20 ADD SWAP1 DUP2 MSTORE PUSH1 0x20 ADD PUSH0 KECCAK256 PUSH1 0x5 ADD SLOAD SWAP1 DUP2 ISZERO MUL SWAP1 PUSH1 0x40 MLOAD PUSH0 PUSH1 0x40 MLOAD DUP1 DUP4 SUB DUP2 DUP6 DUP9 DUP9 CALL SWAP4 POP POP POP POP ISZERO DUP1 ISZERO PUSH2 0x35F JUMPI RETURNDATASIZE PUSH0 DUP1 RETURNDATACOPY RETURNDATASIZE PUSH0 REVERT JUMPDEST POP JUMPDEST POP JUMP JUMPDEST PUSH2 0x36C PUSH2 0x804 JUMP JUMPDEST PUSH1 0xA PUSH0 DUP4 DUP2 MSTORE PUSH1 0x20 ADD SWAP1 DUP2 MSTORE PUSH1 0x20 ADD PUSH0 KECCAK256 PUSH1 0x40 MLOAD DUP1 PUSH2 0x100 ADD PUSH1 0x40 MSTORE SWAP1 DUP2 PUSH0 DUP3 ADD SLOAD DUP2 MSTORE PUSH1 0x20 ADD PUSH1 0x1 DUP3 ADD PUSH0 SWAP1 SLOAD SWAP1 PUSH2 0x100 EXP SWAP1 DIV PUSH20 0xFFFFFFFFFFFFFFFFFFFFFFFFFFFFFFFFFFFFFFFF AND PUSH20 0xFFFFFFFFFFFFFFFFFFFFFFFFFFFFFFFFFFFFFFFF AND PUSH20 0xFFFFFFFFFFFFFFFFFFFFFFFFFFFFFFFFFFFFFFFF AND DUP2 MSTORE PUSH1 0x20 ADD PUSH1 0x2 DUP3 ADD SLOAD DUP2 MSTORE PUSH1 0x20 ADD PUSH1 0x3 DUP3 ADD SLOAD DUP2 MSTORE PUSH1 0x20 ADD PUSH1 0x4 DUP3 ADD SLOAD DUP2 MSTORE PUSH1 0x20 ADD PUSH1 0x5 DUP3 ADD SLOAD DUP2 MSTORE PUSH1 0x20 ADD PUSH1 0x6 DUP3 ADD SLOAD DUP2 MSTORE PUSH1 0x20 ADD PUSH1 0x7 DUP3 ADD PUSH0 SWAP1 SLOAD SWAP1 PUSH2 0x100 EXP SWAP1 DIV PUSH1 0xFF AND ISZERO ISZERO ISZERO ISZERO DUP2 MSTORE POP POP SWAP1 POP SWAP2 SWAP1 POP JUMP JUMPDEST CALLVALUE DUP3 EQ PUSH2 0x47C JUMPI PUSH1 0x40 MLOAD PUSH32 0x8C379A000000000000000000000000000000000000000000000000000000000 DUP2 MSTORE PUSH1 0x4 ADD PUSH2 0x473 SWAP1 PUSH2 0xC4E JUMP JUMPDEST PUSH1 0x40 MLOAD DUP1 SWAP2 SUB SWAP1 REVERT JUMPDEST PUSH0 DUP1 SLOAD SWAP1 PUSH2 0x100 EXP SWAP1 DIV PUSH20 0xFFFFFFFFFFFFFFFFFFFFFFFFFFFFFFFFFFFFFFFF AND PUSH20 0xFFFFFFFFFFFFFFFFFFFFFFFFFFFFFFFFFFFFFFFF AND BALANCE CALLVALUE GT ISZERO PUSH2 0x4F5 JUMPI PUSH1 0x40 MLOAD PUSH32 0x8C379A000000000000000000000000000000000000000000000000000000000 DUP2 MSTORE PUSH1 0x4 ADD PUSH2 0x4EC SWAP1 PUSH2 0xCB6 JUMP JUMPDEST PUSH1 0x40 MLOAD DUP1 SWAP2 SUB SWAP1 REVERT JUMPDEST PUSH0 PUSH1 0xC PUSH0 DUP4 DUP2 MSTORE PUSH1 0x20 ADD SWAP1 DUP2 MSTORE PUSH1 0x20 ADD PUSH0 KECCAK256 SLOAD GT PUSH2 0x548 JUMPI PUSH1 0x40 MLOAD PUSH32 0x8C379A000000000000000000000000000000000000000000000000000000000 DUP2 MSTORE PUSH1 0x4 ADD PUSH2 0x53F SWAP1 PUSH2 0xD1E JUMP JUMPDEST PUSH1 0x40 MLOAD DUP1 SWAP2 SUB SWAP1 REVERT JUMPDEST PUSH1 0x40 MLOAD DUP1 PUSH2 0x100 ADD PUSH1 0x40 MSTORE DUP1 PUSH1 0x9 SLOAD DUP2 MSTORE PUSH1 0x20 ADD CALLER PUSH20 0xFFFFFFFFFFFFFFFFFFFFFFFFFFFFFFFFFFFFFFFF AND DUP2 MSTORE PUSH1 0x20 ADD TIMESTAMP DUP2 MSTORE PUSH1 0x20 ADD PUSH3 0x15180 DUP4 PUSH2 0x58D SWAP2 SWAP1 PUSH2 0xD3C JUMP JUMPDEST TIMESTAMP PUSH2 0x598 SWAP2 SWAP1 PUSH2 0xBD1 JUMP JUMPDEST DUP2 MSTORE PUSH1 0x20 ADD PUSH1 0xC PUSH0 DUP5 DUP2 MSTORE PUSH1 0x20 ADD SWAP1 DUP2 MSTORE PUSH1 0x20 ADD PUSH0 KECCAK256 SLOAD DUP2 MSTORE PUSH1 0x20 ADD CALLVALUE DUP2 MSTORE PUSH1 0x20 ADD PUSH1 0x64 CALLVALUE PUSH1 0xC PUSH0 DUP7 DUP2 MSTORE PUSH1 0x20 ADD SWAP1 DUP2 MSTORE PUSH1 0x20 ADD PUSH0 KECCAK256 SLOAD PUSH2 0x5D9 SWAP2 SWAP1 PUSH2 0xD3C JUMP JUMPDEST PUSH2 0x5E3 SWAP2 SWAP1 PUSH2 0xDAA JUMP JUMPDEST DUP2 MSTORE PUSH1 0x20 ADD PUSH1 0x1 ISZERO ISZERO DUP2 MSTORE POP PUSH1 0xA PUSH0 PUSH1 0x9 SLOAD DUP2 MSTORE PUSH1 0x20 ADD SWAP1 DUP2 MSTORE PUSH1 0x20 ADD PUSH0 KECCAK256 PUSH0 DUP3 ADD MLOAD DUP2 PUSH0 ADD SSTORE PUSH1 0x20 DUP3 ADD MLOAD DUP2 PUSH1 0x1 ADD PUSH0 PUSH2 0x100 EXP DUP2 SLOAD DUP2 PUSH20 0xFFFFFFFFFFFFFFFFFFFFFFFFFFFFFFFFFFFFFFFF MUL NOT AND SWAP1 DUP4 PUSH20 0xFFFFFFFFFFFFFFFFFFFFFFFFFFFFFFFFFFFFFFFF AND MUL OR SWAP1 SSTORE POP PUSH1 0x40 DUP3 ADD MLOAD DUP2 PUSH1 0x2 ADD SSTORE PUSH1 0x60 DUP3 ADD MLOAD DUP2 PUSH1 0x3 ADD SSTORE PUSH1 0x80 DUP3 ADD MLOAD DUP2 PUSH1 0x4 ADD SSTORE PUSH1 0xA0 DUP3 ADD MLOAD DUP2 PUSH1 0x5 ADD SSTORE PUSH1 0xC0 DUP3 ADD MLOAD DUP2 PUSH1 0x6 ADD SSTORE PUSH1 0xE0 DUP3 ADD MLOAD DUP2 PUSH1 0x7 ADD PUSH0 PUSH2 0x100 EXP DUP2 SLOAD DUP2 PUSH1 0xFF MUL NOT AND SWAP1 DUP4 ISZERO ISZERO MUL OR SWAP1 SSTORE POP SWAP1 POP POP PUSH1 0xB PUSH0 CALLER PUSH20 0xFFFFFFFFFFFFFFFFFFFFFFFFFFFFFFFFFFFFFFFF AND PUSH20 0xFFFFFFFFFFFFFFFFFFFFFFFFFFFFFFFFFFFFFFFF AND DUP2 MSTORE PUSH1 0x20 ADD SWAP1 DUP2 MSTORE PUSH1 0x20 ADD PUSH0 KECCAK256 PUSH1 0x9 SLOAD SWAP1 DUP1 PUSH1 0x1 DUP2 SLOAD ADD DUP1 DUP3 SSTORE DUP1 SWAP2 POP POP PUSH1 0x1 SWAP1 SUB SWAP1 PUSH0 MSTORE PUSH1 0x20 PUSH0 KECCAK256 ADD PUSH0 SWAP1 SWAP2 SWAP1 SWAP2 SWAP1 SWAP2 POP SSTORE PUSH1 0x9 PUSH0 DUP2 SLOAD DUP1 SWAP3 SWAP2 SWAP1 PUSH2 0x719 SWAP1 PUSH2 0xDDA JUMP JUMPDEST SWAP2 SWAP1 POP SSTORE POP POP POP JUMP JUMPDEST PUSH0 DUP1 SLOAD SWAP1 PUSH2 0x100 EXP SWAP1 DIV PUSH20 0xFFFFFFFFFFFFFFFFFFFFFFFFFFFFFFFFFFFFFFFF AND PUSH20 0xFFFFFFFFFFFFFFFFFFFFFFFFFFFFFFFFFFFFFFFF AND CALLER PUSH20 0xFFFFFFFFFFFFFFFFFFFFFFFFFFFFFFFFFFFFFFFF AND EQ PUSH2 0x778 JUMPI PUSH0 DUP1 REVERT JUMPDEST DUP1 PUSH1 0xA PUSH0 DUP5 DUP2 MSTORE PUSH1 0x20 ADD SWAP1 DUP2 MSTORE PUSH1 0x20 ADD PUSH0 KECCAK256 PUSH1 0x3 ADD DUP2 SWAP1 SSTORE POP POP POP JUMP JUMPDEST PUSH1 0xA PUSH1 0x20 MSTORE DUP1 PUSH0 MSTORE PUSH1 0x40 PUSH0 KECCAK256 PUSH0 SWAP2 POP SWAP1 POP DUP1 PUSH0 ADD SLOAD SWAP1 DUP1 PUSH1 0x1 ADD PUSH0 SWAP1 SLOAD SWAP1 PUSH2 0x100 EXP SWAP1 DIV PUSH20 0xFFFFFFFFFFFFFFFFFFFFFFFFFFFFFFFFFFFFFFFF AND SWAP1 DUP1 PUSH1 0x2 ADD SLOAD SWAP1 DUP1 PUSH1 0x3 ADD SLOAD SWAP1 DUP1 PUSH1 0x4 ADD SLOAD SWAP1 DUP1 PUSH1 0x5 ADD SLOAD SWAP1 DUP1 PUSH1 0x6 ADD SLOAD SWAP1 DUP1 PUSH1 0x7 ADD PUSH0 SWAP1 SLOAD SWAP1 PUSH2 0x100 EXP SWAP1 DIV PUSH1 0xFF AND SWAP1 POP DUP9 JUMP JUMPDEST PUSH1 0x40 MLOAD DUP1 PUSH2 0x100 ADD PUSH1 0x40 MSTORE DUP1 PUSH0 DUP2 MSTORE PUSH1 0x20 ADD PUSH0 PUSH20 0xFFFFFFFFFFFFFFFFFFFFFFFFFFFFFFFFFFFFFFFF AND DUP2 MSTORE PUSH1 0x20 ADD PUSH0 DUP2 MSTORE PUSH1 0x20 ADD PUSH0 DUP2 MSTORE PUSH1 0x20 ADD PUSH0 DUP2 MSTORE PUSH1 0x20 ADD PUSH0 DUP2 MSTORE PUSH1 0x20 ADD PUSH0 DUP2 MSTORE PUSH1 0x20 ADD PUSH0 ISZERO ISZERO DUP2 MSTORE POP SWAP1 JUMP JUMPDEST PUSH0 DUP1 REVERT JUMPDEST PUSH0 DUP2 SWAP1 POP SWAP2 SWAP1 POP JUMP JUMPDEST PUSH2 0x86F DUP2 PUSH2 0x85D JUMP JUMPDEST DUP2 EQ PUSH2 0x879 JUMPI PUSH0 DUP1 REVERT JUMPDEST POP JUMP JUMPDEST PUSH0 DUP2 CALLDATALOAD SWAP1 POP PUSH2 0x88A DUP2 PUSH2 0x866 JUMP JUMPDEST SWAP3 SWAP2 POP POP JUMP JUMPDEST PUSH0 PUSH1 0x20 DUP3 DUP5 SUB SLT ISZERO PUSH2 0x8A5 JUMPI PUSH2 0x8A4 PUSH2 0x859 JUMP JUMPDEST JUMPDEST PUSH0 PUSH2 0x8B2 DUP5 DUP3 DUP6 ADD PUSH2 0x87C JUMP JUMPDEST SWAP2 POP POP SWAP3 SWAP2 POP POP JUMP JUMPDEST PUSH2 0x8C4 DUP2 PUSH2 0x85D JUMP JUMPDEST DUP3 MSTORE POP POP JUMP JUMPDEST PUSH0 PUSH20 0xFFFFFFFFFFFFFFFFFFFFFFFFFFFFFFFFFFFFFFFF DUP3 AND SWAP1 POP SWAP2 SWAP1 POP JUMP JUMPDEST PUSH0 PUSH2 0x8F3 DUP3 PUSH2 0x8CA JUMP JUMPDEST SWAP1 POP SWAP2 SWAP1 POP JUMP JUMPDEST PUSH2 0x903 DUP2 PUSH2 0x8E9 JUMP JUMPDEST DUP3 MSTORE POP POP JUMP JUMPDEST PUSH0 DUP2 ISZERO ISZERO SWAP1 POP SWAP2 SWAP1 POP JUMP JUMPDEST PUSH2 0x91D DUP2 PUSH2 0x909 JUMP JUMPDEST DUP3 MSTORE POP POP JUMP JUMPDEST PUSH2 0x100 DUP3 ADD PUSH0 DUP3 ADD MLOAD PUSH2 0x938 PUSH0 DUP6 ADD DUP3 PUSH2 0x8BB JUMP JUMPDEST POP PUSH1 0x20 DUP3 ADD MLOAD PUSH2 0x94B PUSH1 0x20 DUP6 ADD DUP3 PUSH2 0x8FA JUMP JUMPDEST POP PUSH1 0x40 DUP3 ADD MLOAD PUSH2 0x95E PUSH1 0x40 DUP6 ADD DUP3 PUSH2 0x8BB JUMP JUMPDEST POP PUSH1 0x60 DUP3 ADD MLOAD PUSH2 0x971 PUSH1 0x60 DUP6 ADD DUP3 PUSH2 0x8BB JUMP JUMPDEST POP PUSH1 0x80 DUP3 ADD MLOAD PUSH2 0x984 PUSH1 0x80 DUP6 ADD DUP3 PUSH2 0x8BB JUMP JUMPDEST POP PUSH1 0xA0 DUP3 ADD MLOAD PUSH2 0x997 PUSH1 0xA0 DUP6 ADD DUP3 PUSH2 0x8BB JUMP JUMPDEST POP PUSH1 0xC0 DUP3 ADD MLOAD PUSH2 0x9AA PUSH1 0xC0 DUP6 ADD DUP3 PUSH2 0x8BB JUMP JUMPDEST POP PUSH1 0xE0 DUP3 ADD MLOAD PUSH2 0x9BD PUSH1 0xE0 DUP6 ADD DUP3 PUSH2 0x914 JUMP JUMPDEST POP POP POP POP JUMP JUMPDEST PUSH0 PUSH2 0x100 DUP3 ADD SWAP1 POP PUSH2 0x9D7 PUSH0 DUP4 ADD DUP5 PUSH2 0x923 JUMP JUMPDEST SWAP3 SWAP2 POP POP JUMP JUMPDEST PUSH0 DUP1 PUSH1 0x40 DUP4 DUP6 SUB SLT ISZERO PUSH2 0x9F3 JUMPI PUSH2 0x9F2 PUSH2 0x859 JUMP JUMPDEST JUMPDEST PUSH0 PUSH2 0xA00 DUP6 DUP3 DUP7 ADD PUSH2 0x87C JUMP JUMPDEST SWAP3 POP POP PUSH1 0x20 PUSH2 0xA11 DUP6 DUP3 DUP7 ADD PUSH2 0x87C JUMP JUMPDEST SWAP2 POP POP SWAP3 POP SWAP3 SWAP1 POP JUMP JUMPDEST PUSH2 0xA24 DUP2 PUSH2 0x85D JUMP JUMPDEST DUP3 MSTORE POP POP JUMP JUMPDEST PUSH2 0xA33 DUP2 PUSH2 0x8E9 JUMP JUMPDEST DUP3 MSTORE POP POP JUMP JUMPDEST PUSH2 0xA42 DUP2 PUSH2 0x909 JUMP JUMPDEST DUP3 MSTORE POP POP JUMP JUMPDEST PUSH0 PUSH2 0x100 DUP3 ADD SWAP1 POP PUSH2 0xA5C PUSH0 DUP4 ADD DUP12 PUSH2 0xA1B JUMP JUMPDEST PUSH2 0xA69 PUSH1 0x20 DUP4 ADD DUP11 PUSH2 0xA2A JUMP JUMPDEST PUSH2 0xA76 PUSH1 0x40 DUP4 ADD DUP10 PUSH2 0xA1B JUMP JUMPDEST PUSH2 0xA83 PUSH1 0x60 DUP4 ADD DUP9 PUSH2 0xA1B JUMP JUMPDEST PUSH2 0xA90 PUSH1 0x80 DUP4 ADD DUP8 PUSH2 0xA1B JUMP JUMPDEST PUSH2 0xA9D PUSH1 0xA0 DUP4 ADD DUP7 PUSH2 0xA1B JUMP JUMPDEST PUSH2 0xAAA PUSH1 0xC0 DUP4 ADD DUP6 PUSH2 0xA1B JUMP JUMPDEST PUSH2 0xAB7 PUSH1 0xE0 DUP4 ADD DUP5 PUSH2 0xA39 JUMP JUMPDEST SWAP10 SWAP9 POP POP POP POP POP POP POP POP POP JUMP JUMPDEST PUSH0 DUP3 DUP3 MSTORE PUSH1 0x20 DUP3 ADD SWAP1 POP SWAP3 SWAP2 POP POP JUMP JUMPDEST PUSH32 0x596F7520617265206E6F74207374616B65720000000000000000000000000000 PUSH0 DUP3 ADD MSTORE POP JUMP JUMPDEST PUSH0 PUSH2 0xB08 PUSH1 0x12 DUP4 PUSH2 0xAC4 JUMP JUMPDEST SWAP2 POP PUSH2 0xB13 DUP3 PUSH2 0xAD4 JUMP JUMPDEST PUSH1 0x20 DUP3 ADD SWAP1 POP SWAP2 SWAP1 POP JUMP JUMPDEST PUSH0 PUSH1 0x20 DUP3 ADD SWAP1 POP DUP2 DUP2 SUB PUSH0 DUP4 ADD MSTORE PUSH2 0xB35 DUP2 PUSH2 0xAFC JUMP JUMPDEST SWAP1 POP SWAP2 SWAP1 POP JUMP JUMPDEST PUSH32 0x4D6174696320616C72656164792077697468647261776E000000000000000000 PUSH0 DUP3 ADD MSTORE POP JUMP JUMPDEST PUSH0 PUSH2 0xB70 PUSH1 0x17 DUP4 PUSH2 0xAC4 JUMP JUMPDEST SWAP2 POP PUSH2 0xB7B DUP3 PUSH2 0xB3C JUMP JUMPDEST PUSH1 0x20 DUP3 ADD SWAP1 POP SWAP2 SWAP1 POP JUMP JUMPDEST PUSH0 PUSH1 0x20 DUP3 ADD SWAP1 POP DUP2 DUP2 SUB PUSH0 DUP4 ADD MSTORE PUSH2 0xB9D DUP2 PUSH2 0xB64 JUMP JUMPDEST SWAP1 POP SWAP2 SWAP1 POP JUMP JUMPDEST PUSH32 0x4E487B7100000000000000000000000000000000000000000000000000000000 PUSH0 MSTORE PUSH1 0x11 PUSH1 0x4 MSTORE PUSH1 0x24 PUSH0 REVERT JUMPDEST PUSH0 PUSH2 0xBDB DUP3 PUSH2 0x85D JUMP JUMPDEST SWAP2 POP PUSH2 0xBE6 DUP4 PUSH2 0x85D JUMP JUMPDEST SWAP3 POP DUP3 DUP3 ADD SWAP1 POP DUP1 DUP3 GT ISZERO PUSH2 0xBFE JUMPI PUSH2 0xBFD PUSH2 0xBA4 JUMP JUMPDEST JUMPDEST SWAP3 SWAP2 POP POP JUMP JUMPDEST PUSH32 0x706C6561736520636865636B2076616C756520616E6420616D6F756E74000000 PUSH0 DUP3 ADD MSTORE POP JUMP JUMPDEST PUSH0 PUSH2 0xC38 PUSH1 0x1D DUP4 PUSH2 0xAC4 JUMP JUMPDEST SWAP2 POP PUSH2 0xC43 DUP3 PUSH2 0xC04 JUMP JUMPDEST PUSH1 0x20 DUP3 ADD SWAP1 POP SWAP2 SWAP1 POP JUMP JUMPDEST PUSH0 PUSH1 0x20 DUP3 ADD SWAP1 POP DUP2 DUP2 SUB PUSH0 DUP4 ADD MSTORE PUSH2 0xC65 DUP2 PUSH2 0xC2C JUMP JUMPDEST SWAP1 POP SWAP2 SWAP1 POP JUMP JUMPDEST PUSH32 0x796F75206861766E277420656E6F7567682062616C616E636500000000000000 PUSH0 DUP3 ADD MSTORE POP JUMP JUMPDEST PUSH0 PUSH2 0xCA0 PUSH1 0x19 DUP4 PUSH2 0xAC4 JUMP JUMPDEST SWAP2 POP PUSH2 0xCAB DUP3 PUSH2 0xC6C JUMP JUMPDEST PUSH1 0x20 DUP3 ADD SWAP1 POP SWAP2 SWAP1 POP JUMP JUMPDEST PUSH0 PUSH1 0x20 DUP3 ADD SWAP1 POP DUP2 DUP2 SUB PUSH0 DUP4 ADD MSTORE PUSH2 0xCCD DUP2 PUSH2 0xC94 JUMP JUMPDEST SWAP1 POP SWAP2 SWAP1 POP JUMP JUMPDEST PUSH32 0x636865636B20796F75722074696D6520706572696F6420000000000000000000 PUSH0 DUP3 ADD MSTORE POP JUMP JUMPDEST PUSH0 PUSH2 0xD08 PUSH1 0x17 DUP4 PUSH2 0xAC4 JUMP JUMPDEST SWAP2 POP PUSH2 0xD13 DUP3 PUSH2 0xCD4 JUMP JUMPDEST PUSH1 0x20 DUP3 ADD SWAP1 POP SWAP2 SWAP1 POP JUMP JUMPDEST PUSH0 PUSH1 0x20 DUP3 ADD SWAP1 POP DUP2 DUP2 SUB PUSH0 DUP4 ADD MSTORE PUSH2 0xD35 DUP2 PUSH2 0xCFC JUMP JUMPDEST SWAP1 POP SWAP2 SWAP1 POP JUMP JUMPDEST PUSH0 PUSH2 0xD46 DUP3 PUSH2 0x85D JUMP JUMPDEST SWAP2 POP PUSH2 0xD51 DUP4 PUSH2 0x85D JUMP JUMPDEST SWAP3 POP DUP3 DUP3 MUL PUSH2 0xD5F DUP2 PUSH2 0x85D JUMP JUMPDEST SWAP2 POP DUP3 DUP3 DIV DUP5 EQ DUP4 ISZERO OR PUSH2 0xD76 JUMPI PUSH2 0xD75 PUSH2 0xBA4 JUMP JUMPDEST JUMPDEST POP SWAP3 SWAP2 POP POP JUMP JUMPDEST PUSH32 0x4E487B7100000000000000000000000000000000000000000000000000000000 PUSH0 MSTORE PUSH1 0x12 PUSH1 0x4 MSTORE PUSH1 0x24 PUSH0 REVERT JUMPDEST PUSH0 PUSH2 0xDB4 DUP3 PUSH2 0x85D JUMP JUMPDEST SWAP2 POP PUSH2 0xDBF DUP4 PUSH2 0x85D JUMP JUMPDEST SWAP3 POP DUP3 PUSH2 0xDCF JUMPI PUSH2 0xDCE PUSH2 0xD7D JUMP JUMPDEST JUMPDEST DUP3 DUP3 DIV SWAP1 POP SWAP3 SWAP2 POP POP JUMP JUMPDEST PUSH0 PUSH2 0xDE4 DUP3 PUSH2 0x85D JUMP JUMPDEST SWAP2 POP PUSH32 0xFFFFFFFFFFFFFFFFFFFFFFFFFFFFFFFFFFFFFFFFFFFFFFFFFFFFFFFFFFFFFFFF DUP3 SUB PUSH2 0xE16 JUMPI PUSH2 0xE15 PUSH2 0xBA4 JUMP JUMPDEST JUMPDEST PUSH1 0x1 DUP3 ADD SWAP1 POP SWAP2 SWAP1 POP JUMP INVALID LOG2 PUSH5 0x6970667358 0x22 SLT KECCAK256 DUP16 PUSH23 0x1540B55D0D19A7362533BBD61763E705FF5198D7380ED5 0xE6 PUSH16 0x8560A1753664736F6C63430008140033 "
				},
				"gasEstimates": {
					"creation": {
						"codeDepositCost": "734200",
						"executionCost": "96604",
						"totalCost": "830804"
					},
					"external": {
						"changeUnlockPeriod(uint256,uint256)": "infinite",
						"getStakersById(uint256)": "infinite",
						"stake_ether(uint256,uint256)": "infinite",
						"stakers(uint256)": "infinite",
						"withdraw_ether(uint256)": "infinite"
					}
				},
				"methodIdentifiers": {
					"changeUnlockPeriod(uint256,uint256)": "f9d4e871",
					"getStakersById(uint256)": "105c2c5c",
					"stake_ether(uint256,uint256)": "a954c7d7",
					"stakers(uint256)": "fd5e6dd1",
					"withdraw_ether(uint256)": "084c4174"
				}
			},
			"storageLayout": {
				"storage": [
					{
						"astId": 3,
						"contract": "Staking_Reward.sol:Staking_Reward",
						"label": "owner",
						"offset": 0,
						"slot": "0",
						"type": "t_address"
					},
					{
						"astId": 23,
						"contract": "Staking_Reward.sol:Staking_Reward",
						"label": "staker",
						"offset": 0,
						"slot": "1",
						"type": "t_struct(Stakers)20_storage"
					},
					{
						"astId": 26,
						"contract": "Staking_Reward.sol:Staking_Reward",
						"label": "totalStakers",
						"offset": 0,
						"slot": "9",
						"type": "t_uint256"
					},
					{
						"astId": 31,
						"contract": "Staking_Reward.sol:Staking_Reward",
						"label": "stakers",
						"offset": 0,
						"slot": "10",
						"type": "t_mapping(t_uint256,t_struct(Stakers)20_storage)"
					},
					{
						"astId": 36,
						"contract": "Staking_Reward.sol:Staking_Reward",
						"label": "stakeIdbyAddress",
						"offset": 0,
						"slot": "11",
						"type": "t_mapping(t_address,t_array(t_uint256)dyn_storage)"
					},
					{
						"astId": 40,
						"contract": "Staking_Reward.sol:Staking_Reward",
						"label": "levels",
						"offset": 0,
						"slot": "12",
						"type": "t_mapping(t_uint256,t_uint256)"
					}
				],
				"types": {
					"t_address": {
						"encoding": "inplace",
						"label": "address",
						"numberOfBytes": "20"
					},
					"t_array(t_uint256)dyn_storage": {
						"base": "t_uint256",
						"encoding": "dynamic_array",
						"label": "uint256[]",
						"numberOfBytes": "32"
					},
					"t_bool": {
						"encoding": "inplace",
						"label": "bool",
						"numberOfBytes": "1"
					},
					"t_mapping(t_address,t_array(t_uint256)dyn_storage)": {
						"encoding": "mapping",
						"key": "t_address",
						"label": "mapping(address => uint256[])",
						"numberOfBytes": "32",
						"value": "t_array(t_uint256)dyn_storage"
					},
					"t_mapping(t_uint256,t_struct(Stakers)20_storage)": {
						"encoding": "mapping",
						"key": "t_uint256",
						"label": "mapping(uint256 => struct Staking_Reward.Stakers)",
						"numberOfBytes": "32",
						"value": "t_struct(Stakers)20_storage"
					},
					"t_mapping(t_uint256,t_uint256)": {
						"encoding": "mapping",
						"key": "t_uint256",
						"label": "mapping(uint256 => uint256)",
						"numberOfBytes": "32",
						"value": "t_uint256"
					},
					"t_struct(Stakers)20_storage": {
						"encoding": "inplace",
						"label": "struct Staking_Reward.Stakers",
						"members": [
							{
								"astId": 5,
								"contract": "Staking_Reward.sol:Staking_Reward",
								"label": "stakerId",
								"offset": 0,
								"slot": "0",
								"type": "t_uint256"
							},
							{
								"astId": 7,
								"contract": "Staking_Reward.sol:Staking_Reward",
								"label": "stakerAddress",
								"offset": 0,
								"slot": "1",
								"type": "t_address"
							},
							{
								"astId": 9,
								"contract": "Staking_Reward.sol:Staking_Reward",
								"label": "dateCreated",
								"offset": 0,
								"slot": "2",
								"type": "t_uint256"
							},
							{
								"astId": 11,
								"contract": "Staking_Reward.sol:Staking_Reward",
								"label": "dateUnlocked",
								"offset": 0,
								"slot": "3",
								"type": "t_uint256"
							},
							{
								"astId": 13,
								"contract": "Staking_Reward.sol:Staking_Reward",
								"label": "interestPercentage",
								"offset": 0,
								"slot": "4",
								"type": "t_uint256"
							},
							{
								"astId": 15,
								"contract": "Staking_Reward.sol:Staking_Reward",
								"label": "amountStaked",
								"offset": 0,
								"slot": "5",
								"type": "t_uint256"
							},
							{
								"astId": 17,
								"contract": "Staking_Reward.sol:Staking_Reward",
								"label": "interest",
								"offset": 0,
								"slot": "6",
								"type": "t_uint256"
							},
							{
								"astId": 19,
								"contract": "Staking_Reward.sol:Staking_Reward",
								"label": "open",
								"offset": 0,
								"slot": "7",
								"type": "t_bool"
							}
						],
						"numberOfBytes": "256"
					},
					"t_uint256": {
						"encoding": "inplace",
						"label": "uint256",
						"numberOfBytes": "32"
					}
				}
			},
			"userdoc": {
				"kind": "user",
				"methods": {},
				"version": 1
			}
		}
	}
}