{
	"Aave.sol": {
		"AaveImplementation": {
			"abi": [
				{
					"inputs": [],
					"stateMutability": "nonpayable",
					"type": "constructor"
				},
				{
					"inputs": [
						{
							"internalType": "address",
							"name": "erc20Token",
							"type": "address"
						},
						{
							"internalType": "uint256",
							"name": "amount",
							"type": "uint256"
						},
						{
							"internalType": "address",
							"name": "onBehalfOf",
							"type": "address"
						}
					],
					"name": "depositERC20",
					"outputs": [],
					"stateMutability": "nonpayable",
					"type": "function"
				},
				{
					"inputs": [
						{
							"internalType": "address",
							"name": "onBehalfOf",
							"type": "address"
						}
					],
					"name": "depositEther",
					"outputs": [],
					"stateMutability": "payable",
					"type": "function"
				},
				{
					"inputs": [
						{
							"internalType": "address",
							"name": "token",
							"type": "address"
						},
						{
							"internalType": "address",
							"name": "account",
							"type": "address"
						}
					],
					"name": "getBalance",
					"outputs": [
						{
							"internalType": "uint256",
							"name": "",
							"type": "uint256"
						}
					],
					"stateMutability": "view",
					"type": "function"
				},
				{
					"inputs": [
						{
							"internalType": "address",
							"name": "token",
							"type": "address"
						},
						{
							"internalType": "uint256",
							"name": "amount",
							"type": "uint256"
						},
						{
							"internalType": "address",
							"name": "to",
							"type": "address"
						}
					],
					"name": "withdraw",
					"outputs": [],
					"stateMutability": "nonpayable",
					"type": "function"
				}
			],
			"devdoc": {
				"kind": "dev",
				"methods": {},
				"version": 1
			},
			"evm": {
				"assembly": "    /* \"Aave.sol\":549:1846  contract AaveImplementation {... */\n  mstore(0x40, 0x80)\n    /* \"Aave.sol\":909:970  constructor() {... */\n  callvalue\n  dup1\n  iszero\n  tag_1\n  jumpi\n  0x00\n  dup1\n  revert\ntag_1:\n  pop\n    /* \"Aave.sol\":774:816  0x7Fc66500c84A76Ad7e9c93437bFc5Ac33E2DDaE9 */\n  0x7fc66500c84a76ad7e9c93437bfc5ac33e2ddae9\n    /* \"Aave.sol\":934:938  aave */\n  0x00\n  dup1\n    /* \"Aave.sol\":934:962  aave = IAaveV2(AAVE_ADDRESS) */\n  0x0100\n  exp\n  dup2\n  sload\n  dup2\n  0xffffffffffffffffffffffffffffffffffffffff\n  mul\n  not\n  and\n  swap1\n  dup4\n  0xffffffffffffffffffffffffffffffffffffffff\n  and\n  mul\n  or\n  swap1\n  sstore\n  pop\n    /* \"Aave.sol\":549:1846  contract AaveImplementation {... */\n  dataSize(sub_0)\n  dup1\n  dataOffset(sub_0)\n  0x00\n  codecopy\n  0x00\n  return\nstop\n\nsub_0: assembly {\n        /* \"Aave.sol\":549:1846  contract AaveImplementation {... */\n      mstore(0x40, 0x80)\n      jumpi(tag_1, lt(calldatasize, 0x04))\n      shr(0xe0, calldataload(0x00))\n      dup1\n      0x1828686a\n      eq\n      tag_2\n      jumpi\n      dup1\n      0x52802121\n      eq\n      tag_3\n      jumpi\n      dup1\n      0x69328dec\n      eq\n      tag_4\n      jumpi\n      dup1\n      0xd4fac45d\n      eq\n      tag_5\n      jumpi\n    tag_1:\n      0x00\n      dup1\n      revert\n        /* \"Aave.sol\":1152:1476  function depositERC20(address erc20Token, uint256 amount, address onBehalfOf) external {... */\n    tag_2:\n      callvalue\n      dup1\n      iszero\n      tag_6\n      jumpi\n      0x00\n      dup1\n      revert\n    tag_6:\n      pop\n      tag_7\n      0x04\n      dup1\n      calldatasize\n      sub\n      dup2\n      add\n      swap1\n      tag_8\n      swap2\n      swap1\n      tag_9\n      jump\t// in\n    tag_8:\n      tag_10\n      jump\t// in\n    tag_7:\n      stop\n        /* \"Aave.sol\":978:1144  function depositEther(address onBehalfOf) external payable {... */\n    tag_3:\n      tag_11\n      0x04\n      dup1\n      calldatasize\n      sub\n      dup2\n      add\n      swap1\n      tag_12\n      swap2\n      swap1\n      tag_13\n      jump\t// in\n    tag_12:\n      tag_14\n      jump\t// in\n    tag_11:\n      stop\n        /* \"Aave.sol\":1484:1643  function withdraw(address token, uint256 amount, address to) external {... */\n    tag_4:\n      callvalue\n      dup1\n      iszero\n      tag_15\n      jumpi\n      0x00\n      dup1\n      revert\n    tag_15:\n      pop\n      tag_16\n      0x04\n      dup1\n      calldatasize\n      sub\n      dup2\n      add\n      swap1\n      tag_17\n      swap2\n      swap1\n      tag_9\n      jump\t// in\n    tag_17:\n      tag_18\n      jump\t// in\n    tag_16:\n      stop\n        /* \"Aave.sol\":1651:1843  function getBalance(address token, address account) external view returns (uint256) {... */\n    tag_5:\n      callvalue\n      dup1\n      iszero\n      tag_19\n      jumpi\n      0x00\n      dup1\n      revert\n    tag_19:\n      pop\n      tag_20\n      0x04\n      dup1\n      calldatasize\n      sub\n      dup2\n      add\n      swap1\n      tag_21\n      swap2\n      swap1\n      tag_22\n      jump\t// in\n    tag_21:\n      tag_23\n      jump\t// in\n    tag_20:\n      mload(0x40)\n      tag_24\n      swap2\n      swap1\n      tag_25\n      jump\t// in\n    tag_24:\n      mload(0x40)\n      dup1\n      swap2\n      sub\n      swap1\n      return\n        /* \"Aave.sol\":1152:1476  function depositERC20(address erc20Token, uint256 amount, address onBehalfOf) external {... */\n    tag_10:\n        /* \"Aave.sol\":1311:1321  erc20Token */\n      dup3\n        /* \"Aave.sol\":1304:1330  IERC20(erc20Token).approve */\n      0xffffffffffffffffffffffffffffffffffffffff\n      and\n      0x095ea7b3\n        /* \"Aave.sol\":774:816  0x7Fc66500c84A76Ad7e9c93437bFc5Ac33E2DDaE9 */\n      0x7fc66500c84a76ad7e9c93437bfc5ac33e2ddae9\n        /* \"Aave.sol\":890:900  2**256 - 1 */\n      0xffffffffffffffffffffffffffffffffffffffffffffffffffffffffffffffff\n        /* \"Aave.sol\":1304:1357  IERC20(erc20Token).approve(AAVE_ADDRESS, MAX_UINT256) */\n      mload(0x40)\n      dup4\n      0xffffffff\n      and\n      0xe0\n      shl\n      dup2\n      mstore\n      0x04\n      add\n      tag_27\n      swap3\n      swap2\n      swap1\n      tag_28\n      jump\t// in\n    tag_27:\n      0x20\n      mload(0x40)\n      dup1\n      dup4\n      sub\n      dup2\n      0x00\n      dup8\n      gas\n      call\n      iszero\n      dup1\n      iszero\n      tag_30\n      jumpi\n      returndatasize\n      0x00\n      dup1\n      returndatacopy\n      revert(0x00, returndatasize)\n    tag_30:\n      pop\n      pop\n      pop\n      pop\n      mload(0x40)\n      returndatasize\n      not(0x1f)\n      0x1f\n      dup3\n      add\n      and\n      dup3\n      add\n      dup1\n      0x40\n      mstore\n      pop\n      dup2\n      add\n      swap1\n      tag_31\n      swap2\n      swap1\n      tag_32\n      jump\t// in\n    tag_31:\n      pop\n        /* \"Aave.sol\":1421:1425  aave */\n      0x00\n      dup1\n      sload\n      swap1\n      0x0100\n      exp\n      swap1\n      div\n      0xffffffffffffffffffffffffffffffffffffffff\n      and\n        /* \"Aave.sol\":1421:1433  aave.deposit */\n      0xffffffffffffffffffffffffffffffffffffffff\n      and\n      0xe8eda9df\n        /* \"Aave.sol\":1434:1444  erc20Token */\n      dup5\n        /* \"Aave.sol\":1446:1452  amount */\n      dup5\n        /* \"Aave.sol\":1454:1464  onBehalfOf */\n      dup5\n        /* \"Aave.sol\":1466:1467  0 */\n      0x00\n        /* \"Aave.sol\":1421:1468  aave.deposit(erc20Token, amount, onBehalfOf, 0) */\n      mload(0x40)\n      dup6\n      0xffffffff\n      and\n      0xe0\n      shl\n      dup2\n      mstore\n      0x04\n      add\n      tag_33\n      swap5\n      swap4\n      swap3\n      swap2\n      swap1\n      tag_34\n      jump\t// in\n    tag_33:\n      0x00\n      mload(0x40)\n      dup1\n      dup4\n      sub\n      dup2\n      0x00\n      dup8\n      dup1\n      extcodesize\n      iszero\n      dup1\n      iszero\n      tag_35\n      jumpi\n      0x00\n      dup1\n      revert\n    tag_35:\n      pop\n      gas\n      call\n      iszero\n      dup1\n      iszero\n      tag_37\n      jumpi\n      returndatasize\n      0x00\n      dup1\n      returndatacopy\n      revert(0x00, returndatasize)\n    tag_37:\n      pop\n      pop\n      pop\n      pop\n        /* \"Aave.sol\":1152:1476  function depositERC20(address erc20Token, uint256 amount, address onBehalfOf) external {... */\n      pop\n      pop\n      pop\n      jump\t// out\n        /* \"Aave.sol\":978:1144  function depositEther(address onBehalfOf) external payable {... */\n    tag_14:\n        /* \"Aave.sol\":1084:1088  aave */\n      0x00\n      dup1\n      sload\n      swap1\n      0x0100\n      exp\n      swap1\n      div\n      0xffffffffffffffffffffffffffffffffffffffff\n      and\n        /* \"Aave.sol\":1084:1096  aave.deposit */\n      0xffffffffffffffffffffffffffffffffffffffff\n      and\n      0xe8eda9df\n        /* \"Aave.sol\":651:693  0xC02aaA39b223FE8D0A0e5C4F27eAD9083C756Cc2 */\n      0xc02aaa39b223fe8d0a0e5c4f27ead9083c756cc2\n        /* \"Aave.sol\":1111:1120  msg.value */\n      callvalue\n        /* \"Aave.sol\":1122:1132  onBehalfOf */\n      dup5\n        /* \"Aave.sol\":1134:1135  0 */\n      0x00\n        /* \"Aave.sol\":1084:1136  aave.deposit(WETH_ADDRESS, msg.value, onBehalfOf, 0) */\n      mload(0x40)\n      dup6\n      0xffffffff\n      and\n      0xe0\n      shl\n      dup2\n      mstore\n      0x04\n      add\n      tag_39\n      swap5\n      swap4\n      swap3\n      swap2\n      swap1\n      tag_34\n      jump\t// in\n    tag_39:\n      0x00\n      mload(0x40)\n      dup1\n      dup4\n      sub\n      dup2\n      0x00\n      dup8\n      dup1\n      extcodesize\n      iszero\n      dup1\n      iszero\n      tag_40\n      jumpi\n      0x00\n      dup1\n      revert\n    tag_40:\n      pop\n      gas\n      call\n      iszero\n      dup1\n      iszero\n      tag_42\n      jumpi\n      returndatasize\n      0x00\n      dup1\n      returndatacopy\n      revert(0x00, returndatasize)\n    tag_42:\n      pop\n      pop\n      pop\n      pop\n        /* \"Aave.sol\":978:1144  function depositEther(address onBehalfOf) external payable {... */\n      pop\n      jump\t// out\n        /* \"Aave.sol\":1484:1643  function withdraw(address token, uint256 amount, address to) external {... */\n    tag_18:\n        /* \"Aave.sol\":1603:1607  aave */\n      0x00\n      dup1\n      sload\n      swap1\n      0x0100\n      exp\n      swap1\n      div\n      0xffffffffffffffffffffffffffffffffffffffff\n      and\n        /* \"Aave.sol\":1603:1616  aave.withdraw */\n      0xffffffffffffffffffffffffffffffffffffffff\n      and\n      0x69328dec\n        /* \"Aave.sol\":1617:1622  token */\n      dup5\n        /* \"Aave.sol\":1624:1630  amount */\n      dup5\n        /* \"Aave.sol\":1632:1634  to */\n      dup5\n        /* \"Aave.sol\":1603:1635  aave.withdraw(token, amount, to) */\n      mload(0x40)\n      dup5\n      0xffffffff\n      and\n      0xe0\n      shl\n      dup2\n      mstore\n      0x04\n      add\n      tag_44\n      swap4\n      swap3\n      swap2\n      swap1\n      tag_45\n      jump\t// in\n    tag_44:\n      0x00\n      mload(0x40)\n      dup1\n      dup4\n      sub\n      dup2\n      0x00\n      dup8\n      dup1\n      extcodesize\n      iszero\n      dup1\n      iszero\n      tag_46\n      jumpi\n      0x00\n      dup1\n      revert\n    tag_46:\n      pop\n      gas\n      call\n      iszero\n      dup1\n      iszero\n      tag_48\n      jumpi\n      returndatasize\n      0x00\n      dup1\n      returndatacopy\n      revert(0x00, returndatasize)\n    tag_48:\n      pop\n      pop\n      pop\n      pop\n        /* \"Aave.sol\":1484:1643  function withdraw(address token, uint256 amount, address to) external {... */\n      pop\n      pop\n      pop\n      jump\t// out\n        /* \"Aave.sol\":1651:1843  function getBalance(address token, address account) external view returns (uint256) {... */\n    tag_23:\n        /* \"Aave.sol\":1726:1733  uint256 */\n      0x00\n        /* \"Aave.sol\":1810:1815  token */\n      dup3\n        /* \"Aave.sol\":1803:1826  IERC20(token).balanceOf */\n      0xffffffffffffffffffffffffffffffffffffffff\n      and\n      0x70a08231\n        /* \"Aave.sol\":1827:1834  account */\n      dup4\n        /* \"Aave.sol\":1803:1835  IERC20(token).balanceOf(account) */\n      mload(0x40)\n      dup3\n      0xffffffff\n      and\n      0xe0\n      shl\n      dup2\n      mstore\n      0x04\n      add\n      tag_50\n      swap2\n      swap1\n      tag_51\n      jump\t// in\n    tag_50:\n      0x20\n      mload(0x40)\n      dup1\n      dup4\n      sub\n      dup2\n      dup7\n      gas\n      staticcall\n      iszero\n      dup1\n      iszero\n      tag_53\n      jumpi\n      returndatasize\n      0x00\n      dup1\n      returndatacopy\n      revert(0x00, returndatasize)\n    tag_53:\n      pop\n      pop\n      pop\n      pop\n      mload(0x40)\n      returndatasize\n      not(0x1f)\n      0x1f\n      dup3\n      add\n      and\n      dup3\n      add\n      dup1\n      0x40\n      mstore\n      pop\n      dup2\n      add\n      swap1\n      tag_54\n      swap2\n      swap1\n      tag_55\n      jump\t// in\n    tag_54:\n        /* \"Aave.sol\":1796:1835  return IERC20(token).balanceOf(account) */\n      swap1\n      pop\n        /* \"Aave.sol\":1651:1843  function getBalance(address token, address account) external view returns (uint256) {... */\n      swap3\n      swap2\n      pop\n      pop\n      jump\t// out\n        /* \"#utility.yul\":88:205   */\n    tag_57:\n        /* \"#utility.yul\":197:198   */\n      0x00\n        /* \"#utility.yul\":194:195   */\n      dup1\n        /* \"#utility.yul\":187:199   */\n      revert\n        /* \"#utility.yul\":334:460   */\n    tag_59:\n        /* \"#utility.yul\":371:378   */\n      0x00\n        /* \"#utility.yul\":411:453   */\n      0xffffffffffffffffffffffffffffffffffffffff\n        /* \"#utility.yul\":404:409   */\n      dup3\n        /* \"#utility.yul\":400:454   */\n      and\n        /* \"#utility.yul\":389:454   */\n      swap1\n      pop\n        /* \"#utility.yul\":334:460   */\n      swap2\n      swap1\n      pop\n      jump\t// out\n        /* \"#utility.yul\":466:562   */\n    tag_60:\n        /* \"#utility.yul\":503:510   */\n      0x00\n        /* \"#utility.yul\":532:556   */\n      tag_83\n        /* \"#utility.yul\":550:555   */\n      dup3\n        /* \"#utility.yul\":532:556   */\n      tag_59\n      jump\t// in\n    tag_83:\n        /* \"#utility.yul\":521:556   */\n      swap1\n      pop\n        /* \"#utility.yul\":466:562   */\n      swap2\n      swap1\n      pop\n      jump\t// out\n        /* \"#utility.yul\":568:690   */\n    tag_61:\n        /* \"#utility.yul\":641:665   */\n      tag_85\n        /* \"#utility.yul\":659:664   */\n      dup2\n        /* \"#utility.yul\":641:665   */\n      tag_60\n      jump\t// in\n    tag_85:\n        /* \"#utility.yul\":634:639   */\n      dup2\n        /* \"#utility.yul\":631:666   */\n      eq\n        /* \"#utility.yul\":621:684   */\n      tag_86\n      jumpi\n        /* \"#utility.yul\":680:681   */\n      0x00\n        /* \"#utility.yul\":677:678   */\n      dup1\n        /* \"#utility.yul\":670:682   */\n      revert\n        /* \"#utility.yul\":621:684   */\n    tag_86:\n        /* \"#utility.yul\":568:690   */\n      pop\n      jump\t// out\n        /* \"#utility.yul\":696:835   */\n    tag_62:\n        /* \"#utility.yul\":742:747   */\n      0x00\n        /* \"#utility.yul\":780:786   */\n      dup2\n        /* \"#utility.yul\":767:787   */\n      calldataload\n        /* \"#utility.yul\":758:787   */\n      swap1\n      pop\n        /* \"#utility.yul\":796:829   */\n      tag_88\n        /* \"#utility.yul\":823:828   */\n      dup2\n        /* \"#utility.yul\":796:829   */\n      tag_61\n      jump\t// in\n    tag_88:\n        /* \"#utility.yul\":696:835   */\n      swap3\n      swap2\n      pop\n      pop\n      jump\t// out\n        /* \"#utility.yul\":841:918   */\n    tag_63:\n        /* \"#utility.yul\":878:885   */\n      0x00\n        /* \"#utility.yul\":907:912   */\n      dup2\n        /* \"#utility.yul\":896:912   */\n      swap1\n      pop\n        /* \"#utility.yul\":841:918   */\n      swap2\n      swap1\n      pop\n      jump\t// out\n        /* \"#utility.yul\":924:1046   */\n    tag_64:\n        /* \"#utility.yul\":997:1021   */\n      tag_91\n        /* \"#utility.yul\":1015:1020   */\n      dup2\n        /* \"#utility.yul\":997:1021   */\n      tag_63\n      jump\t// in\n    tag_91:\n        /* \"#utility.yul\":990:995   */\n      dup2\n        /* \"#utility.yul\":987:1022   */\n      eq\n        /* \"#utility.yul\":977:1040   */\n      tag_92\n      jumpi\n        /* \"#utility.yul\":1036:1037   */\n      0x00\n        /* \"#utility.yul\":1033:1034   */\n      dup1\n        /* \"#utility.yul\":1026:1038   */\n      revert\n        /* \"#utility.yul\":977:1040   */\n    tag_92:\n        /* \"#utility.yul\":924:1046   */\n      pop\n      jump\t// out\n        /* \"#utility.yul\":1052:1191   */\n    tag_65:\n        /* \"#utility.yul\":1098:1103   */\n      0x00\n        /* \"#utility.yul\":1136:1142   */\n      dup2\n        /* \"#utility.yul\":1123:1143   */\n      calldataload\n        /* \"#utility.yul\":1114:1143   */\n      swap1\n      pop\n        /* \"#utility.yul\":1152:1185   */\n      tag_94\n        /* \"#utility.yul\":1179:1184   */\n      dup2\n        /* \"#utility.yul\":1152:1185   */\n      tag_64\n      jump\t// in\n    tag_94:\n        /* \"#utility.yul\":1052:1191   */\n      swap3\n      swap2\n      pop\n      pop\n      jump\t// out\n        /* \"#utility.yul\":1197:1816   */\n    tag_9:\n        /* \"#utility.yul\":1274:1280   */\n      0x00\n        /* \"#utility.yul\":1282:1288   */\n      dup1\n        /* \"#utility.yul\":1290:1296   */\n      0x00\n        /* \"#utility.yul\":1339:1341   */\n      0x60\n        /* \"#utility.yul\":1327:1336   */\n      dup5\n        /* \"#utility.yul\":1318:1325   */\n      dup7\n        /* \"#utility.yul\":1314:1337   */\n      sub\n        /* \"#utility.yul\":1310:1342   */\n      slt\n        /* \"#utility.yul\":1307:1426   */\n      iszero\n      tag_96\n      jumpi\n        /* \"#utility.yul\":1345:1424   */\n      tag_97\n      tag_57\n      jump\t// in\n    tag_97:\n        /* \"#utility.yul\":1307:1426   */\n    tag_96:\n        /* \"#utility.yul\":1465:1466   */\n      0x00\n        /* \"#utility.yul\":1490:1543   */\n      tag_98\n        /* \"#utility.yul\":1535:1542   */\n      dup7\n        /* \"#utility.yul\":1526:1532   */\n      dup3\n        /* \"#utility.yul\":1515:1524   */\n      dup8\n        /* \"#utility.yul\":1511:1533   */\n      add\n        /* \"#utility.yul\":1490:1543   */\n      tag_62\n      jump\t// in\n    tag_98:\n        /* \"#utility.yul\":1480:1543   */\n      swap4\n      pop\n        /* \"#utility.yul\":1436:1553   */\n      pop\n        /* \"#utility.yul\":1592:1594   */\n      0x20\n        /* \"#utility.yul\":1618:1671   */\n      tag_99\n        /* \"#utility.yul\":1663:1670   */\n      dup7\n        /* \"#utility.yul\":1654:1660   */\n      dup3\n        /* \"#utility.yul\":1643:1652   */\n      dup8\n        /* \"#utility.yul\":1639:1661   */\n      add\n        /* \"#utility.yul\":1618:1671   */\n      tag_65\n      jump\t// in\n    tag_99:\n        /* \"#utility.yul\":1608:1671   */\n      swap3\n      pop\n        /* \"#utility.yul\":1563:1681   */\n      pop\n        /* \"#utility.yul\":1720:1722   */\n      0x40\n        /* \"#utility.yul\":1746:1799   */\n      tag_100\n        /* \"#utility.yul\":1791:1798   */\n      dup7\n        /* \"#utility.yul\":1782:1788   */\n      dup3\n        /* \"#utility.yul\":1771:1780   */\n      dup8\n        /* \"#utility.yul\":1767:1789   */\n      add\n        /* \"#utility.yul\":1746:1799   */\n      tag_62\n      jump\t// in\n    tag_100:\n        /* \"#utility.yul\":1736:1799   */\n      swap2\n      pop\n        /* \"#utility.yul\":1691:1809   */\n      pop\n        /* \"#utility.yul\":1197:1816   */\n      swap3\n      pop\n      swap3\n      pop\n      swap3\n      jump\t// out\n        /* \"#utility.yul\":1822:2151   */\n    tag_13:\n        /* \"#utility.yul\":1881:1887   */\n      0x00\n        /* \"#utility.yul\":1930:1932   */\n      0x20\n        /* \"#utility.yul\":1918:1927   */\n      dup3\n        /* \"#utility.yul\":1909:1916   */\n      dup5\n        /* \"#utility.yul\":1905:1928   */\n      sub\n        /* \"#utility.yul\":1901:1933   */\n      slt\n        /* \"#utility.yul\":1898:2017   */\n      iszero\n      tag_102\n      jumpi\n        /* \"#utility.yul\":1936:2015   */\n      tag_103\n      tag_57\n      jump\t// in\n    tag_103:\n        /* \"#utility.yul\":1898:2017   */\n    tag_102:\n        /* \"#utility.yul\":2056:2057   */\n      0x00\n        /* \"#utility.yul\":2081:2134   */\n      tag_104\n        /* \"#utility.yul\":2126:2133   */\n      dup5\n        /* \"#utility.yul\":2117:2123   */\n      dup3\n        /* \"#utility.yul\":2106:2115   */\n      dup6\n        /* \"#utility.yul\":2102:2124   */\n      add\n        /* \"#utility.yul\":2081:2134   */\n      tag_62\n      jump\t// in\n    tag_104:\n        /* \"#utility.yul\":2071:2134   */\n      swap2\n      pop\n        /* \"#utility.yul\":2027:2144   */\n      pop\n        /* \"#utility.yul\":1822:2151   */\n      swap3\n      swap2\n      pop\n      pop\n      jump\t// out\n        /* \"#utility.yul\":2157:2631   */\n    tag_22:\n        /* \"#utility.yul\":2225:2231   */\n      0x00\n        /* \"#utility.yul\":2233:2239   */\n      dup1\n        /* \"#utility.yul\":2282:2284   */\n      0x40\n        /* \"#utility.yul\":2270:2279   */\n      dup4\n        /* \"#utility.yul\":2261:2268   */\n      dup6\n        /* \"#utility.yul\":2257:2280   */\n      sub\n        /* \"#utility.yul\":2253:2285   */\n      slt\n        /* \"#utility.yul\":2250:2369   */\n      iszero\n      tag_106\n      jumpi\n        /* \"#utility.yul\":2288:2367   */\n      tag_107\n      tag_57\n      jump\t// in\n    tag_107:\n        /* \"#utility.yul\":2250:2369   */\n    tag_106:\n        /* \"#utility.yul\":2408:2409   */\n      0x00\n        /* \"#utility.yul\":2433:2486   */\n      tag_108\n        /* \"#utility.yul\":2478:2485   */\n      dup6\n        /* \"#utility.yul\":2469:2475   */\n      dup3\n        /* \"#utility.yul\":2458:2467   */\n      dup7\n        /* \"#utility.yul\":2454:2476   */\n      add\n        /* \"#utility.yul\":2433:2486   */\n      tag_62\n      jump\t// in\n    tag_108:\n        /* \"#utility.yul\":2423:2486   */\n      swap3\n      pop\n        /* \"#utility.yul\":2379:2496   */\n      pop\n        /* \"#utility.yul\":2535:2537   */\n      0x20\n        /* \"#utility.yul\":2561:2614   */\n      tag_109\n        /* \"#utility.yul\":2606:2613   */\n      dup6\n        /* \"#utility.yul\":2597:2603   */\n      dup3\n        /* \"#utility.yul\":2586:2595   */\n      dup7\n        /* \"#utility.yul\":2582:2604   */\n      add\n        /* \"#utility.yul\":2561:2614   */\n      tag_62\n      jump\t// in\n    tag_109:\n        /* \"#utility.yul\":2551:2614   */\n      swap2\n      pop\n        /* \"#utility.yul\":2506:2624   */\n      pop\n        /* \"#utility.yul\":2157:2631   */\n      swap3\n      pop\n      swap3\n      swap1\n      pop\n      jump\t// out\n        /* \"#utility.yul\":2637:2755   */\n    tag_66:\n        /* \"#utility.yul\":2724:2748   */\n      tag_111\n        /* \"#utility.yul\":2742:2747   */\n      dup2\n        /* \"#utility.yul\":2724:2748   */\n      tag_63\n      jump\t// in\n    tag_111:\n        /* \"#utility.yul\":2719:2722   */\n      dup3\n        /* \"#utility.yul\":2712:2749   */\n      mstore\n        /* \"#utility.yul\":2637:2755   */\n      pop\n      pop\n      jump\t// out\n        /* \"#utility.yul\":2761:2983   */\n    tag_25:\n        /* \"#utility.yul\":2854:2858   */\n      0x00\n        /* \"#utility.yul\":2892:2894   */\n      0x20\n        /* \"#utility.yul\":2881:2890   */\n      dup3\n        /* \"#utility.yul\":2877:2895   */\n      add\n        /* \"#utility.yul\":2869:2895   */\n      swap1\n      pop\n        /* \"#utility.yul\":2905:2976   */\n      tag_113\n        /* \"#utility.yul\":2973:2974   */\n      0x00\n        /* \"#utility.yul\":2962:2971   */\n      dup4\n        /* \"#utility.yul\":2958:2975   */\n      add\n        /* \"#utility.yul\":2949:2955   */\n      dup5\n        /* \"#utility.yul\":2905:2976   */\n      tag_66\n      jump\t// in\n    tag_113:\n        /* \"#utility.yul\":2761:2983   */\n      swap3\n      swap2\n      pop\n      pop\n      jump\t// out\n        /* \"#utility.yul\":2989:3107   */\n    tag_67:\n        /* \"#utility.yul\":3076:3100   */\n      tag_115\n        /* \"#utility.yul\":3094:3099   */\n      dup2\n        /* \"#utility.yul\":3076:3100   */\n      tag_60\n      jump\t// in\n    tag_115:\n        /* \"#utility.yul\":3071:3074   */\n      dup3\n        /* \"#utility.yul\":3064:3101   */\n      mstore\n        /* \"#utility.yul\":2989:3107   */\n      pop\n      pop\n      jump\t// out\n        /* \"#utility.yul\":3113:3445   */\n    tag_28:\n        /* \"#utility.yul\":3234:3238   */\n      0x00\n        /* \"#utility.yul\":3272:3274   */\n      0x40\n        /* \"#utility.yul\":3261:3270   */\n      dup3\n        /* \"#utility.yul\":3257:3275   */\n      add\n        /* \"#utility.yul\":3249:3275   */\n      swap1\n      pop\n        /* \"#utility.yul\":3285:3356   */\n      tag_117\n        /* \"#utility.yul\":3353:3354   */\n      0x00\n        /* \"#utility.yul\":3342:3351   */\n      dup4\n        /* \"#utility.yul\":3338:3355   */\n      add\n        /* \"#utility.yul\":3329:3335   */\n      dup6\n        /* \"#utility.yul\":3285:3356   */\n      tag_67\n      jump\t// in\n    tag_117:\n        /* \"#utility.yul\":3366:3438   */\n      tag_118\n        /* \"#utility.yul\":3434:3436   */\n      0x20\n        /* \"#utility.yul\":3423:3432   */\n      dup4\n        /* \"#utility.yul\":3419:3437   */\n      add\n        /* \"#utility.yul\":3410:3416   */\n      dup5\n        /* \"#utility.yul\":3366:3438   */\n      tag_66\n      jump\t// in\n    tag_118:\n        /* \"#utility.yul\":3113:3445   */\n      swap4\n      swap3\n      pop\n      pop\n      pop\n      jump\t// out\n        /* \"#utility.yul\":3451:3541   */\n    tag_68:\n        /* \"#utility.yul\":3485:3492   */\n      0x00\n        /* \"#utility.yul\":3528:3533   */\n      dup2\n        /* \"#utility.yul\":3521:3534   */\n      iszero\n        /* \"#utility.yul\":3514:3535   */\n      iszero\n        /* \"#utility.yul\":3503:3535   */\n      swap1\n      pop\n        /* \"#utility.yul\":3451:3541   */\n      swap2\n      swap1\n      pop\n      jump\t// out\n        /* \"#utility.yul\":3547:3663   */\n    tag_69:\n        /* \"#utility.yul\":3617:3638   */\n      tag_121\n        /* \"#utility.yul\":3632:3637   */\n      dup2\n        /* \"#utility.yul\":3617:3638   */\n      tag_68\n      jump\t// in\n    tag_121:\n        /* \"#utility.yul\":3610:3615   */\n      dup2\n        /* \"#utility.yul\":3607:3639   */\n      eq\n        /* \"#utility.yul\":3597:3657   */\n      tag_122\n      jumpi\n        /* \"#utility.yul\":3653:3654   */\n      0x00\n        /* \"#utility.yul\":3650:3651   */\n      dup1\n        /* \"#utility.yul\":3643:3655   */\n      revert\n        /* \"#utility.yul\":3597:3657   */\n    tag_122:\n        /* \"#utility.yul\":3547:3663   */\n      pop\n      jump\t// out\n        /* \"#utility.yul\":3669:3806   */\n    tag_70:\n        /* \"#utility.yul\":3723:3728   */\n      0x00\n        /* \"#utility.yul\":3754:3760   */\n      dup2\n        /* \"#utility.yul\":3748:3761   */\n      mload\n        /* \"#utility.yul\":3739:3761   */\n      swap1\n      pop\n        /* \"#utility.yul\":3770:3800   */\n      tag_124\n        /* \"#utility.yul\":3794:3799   */\n      dup2\n        /* \"#utility.yul\":3770:3800   */\n      tag_69\n      jump\t// in\n    tag_124:\n        /* \"#utility.yul\":3669:3806   */\n      swap3\n      swap2\n      pop\n      pop\n      jump\t// out\n        /* \"#utility.yul\":3812:4157   */\n    tag_32:\n        /* \"#utility.yul\":3879:3885   */\n      0x00\n        /* \"#utility.yul\":3928:3930   */\n      0x20\n        /* \"#utility.yul\":3916:3925   */\n      dup3\n        /* \"#utility.yul\":3907:3914   */\n      dup5\n        /* \"#utility.yul\":3903:3926   */\n      sub\n        /* \"#utility.yul\":3899:3931   */\n      slt\n        /* \"#utility.yul\":3896:4015   */\n      iszero\n      tag_126\n      jumpi\n        /* \"#utility.yul\":3934:4013   */\n      tag_127\n      tag_57\n      jump\t// in\n    tag_127:\n        /* \"#utility.yul\":3896:4015   */\n    tag_126:\n        /* \"#utility.yul\":4054:4055   */\n      0x00\n        /* \"#utility.yul\":4079:4140   */\n      tag_128\n        /* \"#utility.yul\":4132:4139   */\n      dup5\n        /* \"#utility.yul\":4123:4129   */\n      dup3\n        /* \"#utility.yul\":4112:4121   */\n      dup6\n        /* \"#utility.yul\":4108:4130   */\n      add\n        /* \"#utility.yul\":4079:4140   */\n      tag_70\n      jump\t// in\n    tag_128:\n        /* \"#utility.yul\":4069:4140   */\n      swap2\n      pop\n        /* \"#utility.yul\":4025:4150   */\n      pop\n        /* \"#utility.yul\":3812:4157   */\n      swap3\n      swap2\n      pop\n      pop\n      jump\t// out\n        /* \"#utility.yul\":4163:4248   */\n    tag_71:\n        /* \"#utility.yul\":4208:4215   */\n      0x00\n        /* \"#utility.yul\":4237:4242   */\n      dup2\n        /* \"#utility.yul\":4226:4242   */\n      swap1\n      pop\n        /* \"#utility.yul\":4163:4248   */\n      swap2\n      swap1\n      pop\n      jump\t// out\n        /* \"#utility.yul\":4254:4343   */\n    tag_72:\n        /* \"#utility.yul\":4290:4297   */\n      0x00\n        /* \"#utility.yul\":4330:4336   */\n      0xffff\n        /* \"#utility.yul\":4323:4328   */\n      dup3\n        /* \"#utility.yul\":4319:4337   */\n      and\n        /* \"#utility.yul\":4308:4337   */\n      swap1\n      pop\n        /* \"#utility.yul\":4254:4343   */\n      swap2\n      swap1\n      pop\n      jump\t// out\n        /* \"#utility.yul\":4349:4409   */\n    tag_73:\n        /* \"#utility.yul\":4377:4380   */\n      0x00\n        /* \"#utility.yul\":4398:4403   */\n      dup2\n        /* \"#utility.yul\":4391:4403   */\n      swap1\n      pop\n        /* \"#utility.yul\":4349:4409   */\n      swap2\n      swap1\n      pop\n      jump\t// out\n        /* \"#utility.yul\":4415:4571   */\n    tag_74:\n        /* \"#utility.yul\":4472:4481   */\n      0x00\n        /* \"#utility.yul\":4505:4565   */\n      tag_133\n        /* \"#utility.yul\":4522:4564   */\n      tag_134\n        /* \"#utility.yul\":4531:4563   */\n      tag_135\n        /* \"#utility.yul\":4557:4562   */\n      dup5\n        /* \"#utility.yul\":4531:4563   */\n      tag_71\n      jump\t// in\n    tag_135:\n        /* \"#utility.yul\":4522:4564   */\n      tag_73\n      jump\t// in\n    tag_134:\n        /* \"#utility.yul\":4505:4565   */\n      tag_72\n      jump\t// in\n    tag_133:\n        /* \"#utility.yul\":4492:4565   */\n      swap1\n      pop\n        /* \"#utility.yul\":4415:4571   */\n      swap2\n      swap1\n      pop\n      jump\t// out\n        /* \"#utility.yul\":4577:4722   */\n    tag_75:\n        /* \"#utility.yul\":4671:4715   */\n      tag_137\n        /* \"#utility.yul\":4709:4714   */\n      dup2\n        /* \"#utility.yul\":4671:4715   */\n      tag_74\n      jump\t// in\n    tag_137:\n        /* \"#utility.yul\":4666:4669   */\n      dup3\n        /* \"#utility.yul\":4659:4716   */\n      mstore\n        /* \"#utility.yul\":4577:4722   */\n      pop\n      pop\n      jump\t// out\n        /* \"#utility.yul\":4728:5295   */\n    tag_34:\n        /* \"#utility.yul\":4912:4916   */\n      0x00\n        /* \"#utility.yul\":4950:4953   */\n      0x80\n        /* \"#utility.yul\":4939:4948   */\n      dup3\n        /* \"#utility.yul\":4935:4954   */\n      add\n        /* \"#utility.yul\":4927:4954   */\n      swap1\n      pop\n        /* \"#utility.yul\":4964:5035   */\n      tag_139\n        /* \"#utility.yul\":5032:5033   */\n      0x00\n        /* \"#utility.yul\":5021:5030   */\n      dup4\n        /* \"#utility.yul\":5017:5034   */\n      add\n        /* \"#utility.yul\":5008:5014   */\n      dup8\n        /* \"#utility.yul\":4964:5035   */\n      tag_67\n      jump\t// in\n    tag_139:\n        /* \"#utility.yul\":5045:5117   */\n      tag_140\n        /* \"#utility.yul\":5113:5115   */\n      0x20\n        /* \"#utility.yul\":5102:5111   */\n      dup4\n        /* \"#utility.yul\":5098:5116   */\n      add\n        /* \"#utility.yul\":5089:5095   */\n      dup7\n        /* \"#utility.yul\":5045:5117   */\n      tag_66\n      jump\t// in\n    tag_140:\n        /* \"#utility.yul\":5127:5199   */\n      tag_141\n        /* \"#utility.yul\":5195:5197   */\n      0x40\n        /* \"#utility.yul\":5184:5193   */\n      dup4\n        /* \"#utility.yul\":5180:5198   */\n      add\n        /* \"#utility.yul\":5171:5177   */\n      dup6\n        /* \"#utility.yul\":5127:5199   */\n      tag_67\n      jump\t// in\n    tag_141:\n        /* \"#utility.yul\":5209:5288   */\n      tag_142\n        /* \"#utility.yul\":5284:5286   */\n      0x60\n        /* \"#utility.yul\":5273:5282   */\n      dup4\n        /* \"#utility.yul\":5269:5287   */\n      add\n        /* \"#utility.yul\":5260:5266   */\n      dup5\n        /* \"#utility.yul\":5209:5288   */\n      tag_75\n      jump\t// in\n    tag_142:\n        /* \"#utility.yul\":4728:5295   */\n      swap6\n      swap5\n      pop\n      pop\n      pop\n      pop\n      pop\n      jump\t// out\n        /* \"#utility.yul\":5301:5743   */\n    tag_45:\n        /* \"#utility.yul\":5450:5454   */\n      0x00\n        /* \"#utility.yul\":5488:5490   */\n      0x60\n        /* \"#utility.yul\":5477:5486   */\n      dup3\n        /* \"#utility.yul\":5473:5491   */\n      add\n        /* \"#utility.yul\":5465:5491   */\n      swap1\n      pop\n        /* \"#utility.yul\":5501:5572   */\n      tag_144\n        /* \"#utility.yul\":5569:5570   */\n      0x00\n        /* \"#utility.yul\":5558:5567   */\n      dup4\n        /* \"#utility.yul\":5554:5571   */\n      add\n        /* \"#utility.yul\":5545:5551   */\n      dup7\n        /* \"#utility.yul\":5501:5572   */\n      tag_67\n      jump\t// in\n    tag_144:\n        /* \"#utility.yul\":5582:5654   */\n      tag_145\n        /* \"#utility.yul\":5650:5652   */\n      0x20\n        /* \"#utility.yul\":5639:5648   */\n      dup4\n        /* \"#utility.yul\":5635:5653   */\n      add\n        /* \"#utility.yul\":5626:5632   */\n      dup6\n        /* \"#utility.yul\":5582:5654   */\n      tag_66\n      jump\t// in\n    tag_145:\n        /* \"#utility.yul\":5664:5736   */\n      tag_146\n        /* \"#utility.yul\":5732:5734   */\n      0x40\n        /* \"#utility.yul\":5721:5730   */\n      dup4\n        /* \"#utility.yul\":5717:5735   */\n      add\n        /* \"#utility.yul\":5708:5714   */\n      dup5\n        /* \"#utility.yul\":5664:5736   */\n      tag_67\n      jump\t// in\n    tag_146:\n        /* \"#utility.yul\":5301:5743   */\n      swap5\n      swap4\n      pop\n      pop\n      pop\n      pop\n      jump\t// out\n        /* \"#utility.yul\":5749:5971   */\n    tag_51:\n        /* \"#utility.yul\":5842:5846   */\n      0x00\n        /* \"#utility.yul\":5880:5882   */\n      0x20\n        /* \"#utility.yul\":5869:5878   */\n      dup3\n        /* \"#utility.yul\":5865:5883   */\n      add\n        /* \"#utility.yul\":5857:5883   */\n      swap1\n      pop\n        /* \"#utility.yul\":5893:5964   */\n      tag_148\n        /* \"#utility.yul\":5961:5962   */\n      0x00\n        /* \"#utility.yul\":5950:5959   */\n      dup4\n        /* \"#utility.yul\":5946:5963   */\n      add\n        /* \"#utility.yul\":5937:5943   */\n      dup5\n        /* \"#utility.yul\":5893:5964   */\n      tag_67\n      jump\t// in\n    tag_148:\n        /* \"#utility.yul\":5749:5971   */\n      swap3\n      swap2\n      pop\n      pop\n      jump\t// out\n        /* \"#utility.yul\":5977:6120   */\n    tag_76:\n        /* \"#utility.yul\":6034:6039   */\n      0x00\n        /* \"#utility.yul\":6065:6071   */\n      dup2\n        /* \"#utility.yul\":6059:6072   */\n      mload\n        /* \"#utility.yul\":6050:6072   */\n      swap1\n      pop\n        /* \"#utility.yul\":6081:6114   */\n      tag_150\n        /* \"#utility.yul\":6108:6113   */\n      dup2\n        /* \"#utility.yul\":6081:6114   */\n      tag_64\n      jump\t// in\n    tag_150:\n        /* \"#utility.yul\":5977:6120   */\n      swap3\n      swap2\n      pop\n      pop\n      jump\t// out\n        /* \"#utility.yul\":6126:6477   */\n    tag_55:\n        /* \"#utility.yul\":6196:6202   */\n      0x00\n        /* \"#utility.yul\":6245:6247   */\n      0x20\n        /* \"#utility.yul\":6233:6242   */\n      dup3\n        /* \"#utility.yul\":6224:6231   */\n      dup5\n        /* \"#utility.yul\":6220:6243   */\n      sub\n        /* \"#utility.yul\":6216:6248   */\n      slt\n        /* \"#utility.yul\":6213:6332   */\n      iszero\n      tag_152\n      jumpi\n        /* \"#utility.yul\":6251:6330   */\n      tag_153\n      tag_57\n      jump\t// in\n    tag_153:\n        /* \"#utility.yul\":6213:6332   */\n    tag_152:\n        /* \"#utility.yul\":6371:6372   */\n      0x00\n        /* \"#utility.yul\":6396:6460   */\n      tag_154\n        /* \"#utility.yul\":6452:6459   */\n      dup5\n        /* \"#utility.yul\":6443:6449   */\n      dup3\n        /* \"#utility.yul\":6432:6441   */\n      dup6\n        /* \"#utility.yul\":6428:6450   */\n      add\n        /* \"#utility.yul\":6396:6460   */\n      tag_76\n      jump\t// in\n    tag_154:\n        /* \"#utility.yul\":6386:6460   */\n      swap2\n      pop\n        /* \"#utility.yul\":6342:6470   */\n      pop\n        /* \"#utility.yul\":6126:6477   */\n      swap3\n      swap2\n      pop\n      pop\n      jump\t// out\n\n    auxdata: 0xa26469706673582212204b9c4696f40a93c4c6c4d7dcb6407bf5a901137ad44f4d25d782ed7c521d811764736f6c63430008140033\n}\n",
				"bytecode": {
					"linkReferences": {},
					"object": "608060405234801561000f575f80fd5b50737fc66500c84a76ad7e9c93437bfc5ac33e2ddae95f806101000a81548173ffffffffffffffffffffffffffffffffffffffff021916908373ffffffffffffffffffffffffffffffffffffffff160217905550610738806100705f395ff3fe60806040526004361061003e575f3560e01c80631828686a14610042578063528021211461006a57806369328dec14610086578063d4fac45d146100ae575b5f80fd5b34801561004d575f80fd5b506100686004803603810190610063919061046c565b6100ea565b005b610084600480360381019061007f91906104bc565b61022a565b005b348015610091575f80fd5b506100ac60048036038101906100a7919061046c565b6102cc565b005b3480156100b9575f80fd5b506100d460048036038101906100cf91906104e7565b61035a565b6040516100e19190610534565b60405180910390f35b8273ffffffffffffffffffffffffffffffffffffffff1663095ea7b3737fc66500c84a76ad7e9c93437bfc5ac33e2ddae97fffffffffffffffffffffffffffffffffffffffffffffffffffffffffffffffff6040518363ffffffff1660e01b815260040161015992919061055c565b6020604051808303815f875af1158015610175573d5f803e3d5ffd5b505050506040513d601f19601f8201168201806040525081019061019991906105b8565b505f8054906101000a900473ffffffffffffffffffffffffffffffffffffffff1673ffffffffffffffffffffffffffffffffffffffff1663e8eda9df8484845f6040518563ffffffff1660e01b81526004016101f89493929190610632565b5f604051808303815f87803b15801561020f575f80fd5b505af1158015610221573d5f803e3d5ffd5b50505050505050565b5f8054906101000a900473ffffffffffffffffffffffffffffffffffffffff1673ffffffffffffffffffffffffffffffffffffffff1663e8eda9df73c02aaa39b223fe8d0a0e5c4f27ead9083c756cc234845f6040518563ffffffff1660e01b815260040161029c9493929190610632565b5f604051808303815f87803b1580156102b3575f80fd5b505af11580156102c5573d5f803e3d5ffd5b5050505050565b5f8054906101000a900473ffffffffffffffffffffffffffffffffffffffff1673ffffffffffffffffffffffffffffffffffffffff166369328dec8484846040518463ffffffff1660e01b815260040161032893929190610675565b5f604051808303815f87803b15801561033f575f80fd5b505af1158015610351573d5f803e3d5ffd5b50505050505050565b5f8273ffffffffffffffffffffffffffffffffffffffff166370a08231836040518263ffffffff1660e01b815260040161039491906106aa565b602060405180830381865afa1580156103af573d5f803e3d5ffd5b505050506040513d601f19601f820116820180604052508101906103d391906106d7565b905092915050565b5f80fd5b5f73ffffffffffffffffffffffffffffffffffffffff82169050919050565b5f610408826103df565b9050919050565b610418816103fe565b8114610422575f80fd5b50565b5f813590506104338161040f565b92915050565b5f819050919050565b61044b81610439565b8114610455575f80fd5b50565b5f8135905061046681610442565b92915050565b5f805f60608486031215610483576104826103db565b5b5f61049086828701610425565b93505060206104a186828701610458565b92505060406104b286828701610425565b9150509250925092565b5f602082840312156104d1576104d06103db565b5b5f6104de84828501610425565b91505092915050565b5f80604083850312156104fd576104fc6103db565b5b5f61050a85828601610425565b925050602061051b85828601610425565b9150509250929050565b61052e81610439565b82525050565b5f6020820190506105475f830184610525565b92915050565b610556816103fe565b82525050565b5f60408201905061056f5f83018561054d565b61057c6020830184610525565b9392505050565b5f8115159050919050565b61059781610583565b81146105a1575f80fd5b50565b5f815190506105b28161058e565b92915050565b5f602082840312156105cd576105cc6103db565b5b5f6105da848285016105a4565b91505092915050565b5f819050919050565b5f61ffff82169050919050565b5f819050919050565b5f61061c610617610612846105e3565b6105f9565b6105ec565b9050919050565b61062c81610602565b82525050565b5f6080820190506106455f83018761054d565b6106526020830186610525565b61065f604083018561054d565b61066c6060830184610623565b95945050505050565b5f6060820190506106885f83018661054d565b6106956020830185610525565b6106a2604083018461054d565b949350505050565b5f6020820190506106bd5f83018461054d565b92915050565b5f815190506106d181610442565b92915050565b5f602082840312156106ec576106eb6103db565b5b5f6106f9848285016106c3565b9150509291505056fea26469706673582212204b9c4696f40a93c4c6c4d7dcb6407bf5a901137ad44f4d25d782ed7c521d811764736f6c63430008140033",
					"opcodes": "PUSH1 0x80 PUSH1 0x40 MSTORE CALLVALUE DUP1 ISZERO PUSH2 0xF JUMPI PUSH0 DUP1 REVERT JUMPDEST POP PUSH20 0x7FC66500C84A76AD7E9C93437BFC5AC33E2DDAE9 PUSH0 DUP1 PUSH2 0x100 EXP DUP2 SLOAD DUP2 PUSH20 0xFFFFFFFFFFFFFFFFFFFFFFFFFFFFFFFFFFFFFFFF MUL NOT AND SWAP1 DUP4 PUSH20 0xFFFFFFFFFFFFFFFFFFFFFFFFFFFFFFFFFFFFFFFF AND MUL OR SWAP1 SSTORE POP PUSH2 0x738 DUP1 PUSH2 0x70 PUSH0 CODECOPY PUSH0 RETURN INVALID PUSH1 0x80 PUSH1 0x40 MSTORE PUSH1 0x4 CALLDATASIZE LT PUSH2 0x3E JUMPI PUSH0 CALLDATALOAD PUSH1 0xE0 SHR DUP1 PUSH4 0x1828686A EQ PUSH2 0x42 JUMPI DUP1 PUSH4 0x52802121 EQ PUSH2 0x6A JUMPI DUP1 PUSH4 0x69328DEC EQ PUSH2 0x86 JUMPI DUP1 PUSH4 0xD4FAC45D EQ PUSH2 0xAE JUMPI JUMPDEST PUSH0 DUP1 REVERT JUMPDEST CALLVALUE DUP1 ISZERO PUSH2 0x4D JUMPI PUSH0 DUP1 REVERT JUMPDEST POP PUSH2 0x68 PUSH1 0x4 DUP1 CALLDATASIZE SUB DUP2 ADD SWAP1 PUSH2 0x63 SWAP2 SWAP1 PUSH2 0x46C JUMP JUMPDEST PUSH2 0xEA JUMP JUMPDEST STOP JUMPDEST PUSH2 0x84 PUSH1 0x4 DUP1 CALLDATASIZE SUB DUP2 ADD SWAP1 PUSH2 0x7F SWAP2 SWAP1 PUSH2 0x4BC JUMP JUMPDEST PUSH2 0x22A JUMP JUMPDEST STOP JUMPDEST CALLVALUE DUP1 ISZERO PUSH2 0x91 JUMPI PUSH0 DUP1 REVERT JUMPDEST POP PUSH2 0xAC PUSH1 0x4 DUP1 CALLDATASIZE SUB DUP2 ADD SWAP1 PUSH2 0xA7 SWAP2 SWAP1 PUSH2 0x46C JUMP JUMPDEST PUSH2 0x2CC JUMP JUMPDEST STOP JUMPDEST CALLVALUE DUP1 ISZERO PUSH2 0xB9 JUMPI PUSH0 DUP1 REVERT JUMPDEST POP PUSH2 0xD4 PUSH1 0x4 DUP1 CALLDATASIZE SUB DUP2 ADD SWAP1 PUSH2 0xCF SWAP2 SWAP1 PUSH2 0x4E7 JUMP JUMPDEST PUSH2 0x35A JUMP JUMPDEST PUSH1 0x40 MLOAD PUSH2 0xE1 SWAP2 SWAP1 PUSH2 0x534 JUMP JUMPDEST PUSH1 0x40 MLOAD DUP1 SWAP2 SUB SWAP1 RETURN JUMPDEST DUP3 PUSH20 0xFFFFFFFFFFFFFFFFFFFFFFFFFFFFFFFFFFFFFFFF AND PUSH4 0x95EA7B3 PUSH20 0x7FC66500C84A76AD7E9C93437BFC5AC33E2DDAE9 PUSH32 0xFFFFFFFFFFFFFFFFFFFFFFFFFFFFFFFFFFFFFFFFFFFFFFFFFFFFFFFFFFFFFFFF PUSH1 0x40 MLOAD DUP4 PUSH4 0xFFFFFFFF AND PUSH1 0xE0 SHL DUP2 MSTORE PUSH1 0x4 ADD PUSH2 0x159 SWAP3 SWAP2 SWAP1 PUSH2 0x55C JUMP JUMPDEST PUSH1 0x20 PUSH1 0x40 MLOAD DUP1 DUP4 SUB DUP2 PUSH0 DUP8 GAS CALL ISZERO DUP1 ISZERO PUSH2 0x175 JUMPI RETURNDATASIZE PUSH0 DUP1 RETURNDATACOPY RETURNDATASIZE PUSH0 REVERT JUMPDEST POP POP POP POP PUSH1 0x40 MLOAD RETURNDATASIZE PUSH1 0x1F NOT PUSH1 0x1F DUP3 ADD AND DUP3 ADD DUP1 PUSH1 0x40 MSTORE POP DUP2 ADD SWAP1 PUSH2 0x199 SWAP2 SWAP1 PUSH2 0x5B8 JUMP JUMPDEST POP PUSH0 DUP1 SLOAD SWAP1 PUSH2 0x100 EXP SWAP1 DIV PUSH20 0xFFFFFFFFFFFFFFFFFFFFFFFFFFFFFFFFFFFFFFFF AND PUSH20 0xFFFFFFFFFFFFFFFFFFFFFFFFFFFFFFFFFFFFFFFF AND PUSH4 0xE8EDA9DF DUP5 DUP5 DUP5 PUSH0 PUSH1 0x40 MLOAD DUP6 PUSH4 0xFFFFFFFF AND PUSH1 0xE0 SHL DUP2 MSTORE PUSH1 0x4 ADD PUSH2 0x1F8 SWAP5 SWAP4 SWAP3 SWAP2 SWAP1 PUSH2 0x632 JUMP JUMPDEST PUSH0 PUSH1 0x40 MLOAD DUP1 DUP4 SUB DUP2 PUSH0 DUP8 DUP1 EXTCODESIZE ISZERO DUP1 ISZERO PUSH2 0x20F JUMPI PUSH0 DUP1 REVERT JUMPDEST POP GAS CALL ISZERO DUP1 ISZERO PUSH2 0x221 JUMPI RETURNDATASIZE PUSH0 DUP1 RETURNDATACOPY RETURNDATASIZE PUSH0 REVERT JUMPDEST POP POP POP POP POP POP POP JUMP JUMPDEST PUSH0 DUP1 SLOAD SWAP1 PUSH2 0x100 EXP SWAP1 DIV PUSH20 0xFFFFFFFFFFFFFFFFFFFFFFFFFFFFFFFFFFFFFFFF AND PUSH20 0xFFFFFFFFFFFFFFFFFFFFFFFFFFFFFFFFFFFFFFFF AND PUSH4 0xE8EDA9DF PUSH20 0xC02AAA39B223FE8D0A0E5C4F27EAD9083C756CC2 CALLVALUE DUP5 PUSH0 PUSH1 0x40 MLOAD DUP6 PUSH4 0xFFFFFFFF AND PUSH1 0xE0 SHL DUP2 MSTORE PUSH1 0x4 ADD PUSH2 0x29C SWAP5 SWAP4 SWAP3 SWAP2 SWAP1 PUSH2 0x632 JUMP JUMPDEST PUSH0 PUSH1 0x40 MLOAD DUP1 DUP4 SUB DUP2 PUSH0 DUP8 DUP1 EXTCODESIZE ISZERO DUP1 ISZERO PUSH2 0x2B3 JUMPI PUSH0 DUP1 REVERT JUMPDEST POP GAS CALL ISZERO DUP1 ISZERO PUSH2 0x2C5 JUMPI RETURNDATASIZE PUSH0 DUP1 RETURNDATACOPY RETURNDATASIZE PUSH0 REVERT JUMPDEST POP POP POP POP POP JUMP JUMPDEST PUSH0 DUP1 SLOAD SWAP1 PUSH2 0x100 EXP SWAP1 DIV PUSH20 0xFFFFFFFFFFFFFFFFFFFFFFFFFFFFFFFFFFFFFFFF AND PUSH20 0xFFFFFFFFFFFFFFFFFFFFFFFFFFFFFFFFFFFFFFFF AND PUSH4 0x69328DEC DUP5 DUP5 DUP5 PUSH1 0x40 MLOAD DUP5 PUSH4 0xFFFFFFFF AND PUSH1 0xE0 SHL DUP2 MSTORE PUSH1 0x4 ADD PUSH2 0x328 SWAP4 SWAP3 SWAP2 SWAP1 PUSH2 0x675 JUMP JUMPDEST PUSH0 PUSH1 0x40 MLOAD DUP1 DUP4 SUB DUP2 PUSH0 DUP8 DUP1 EXTCODESIZE ISZERO DUP1 ISZERO PUSH2 0x33F JUMPI PUSH0 DUP1 REVERT JUMPDEST POP GAS CALL ISZERO DUP1 ISZERO PUSH2 0x351 JUMPI RETURNDATASIZE PUSH0 DUP1 RETURNDATACOPY RETURNDATASIZE PUSH0 REVERT JUMPDEST POP POP POP POP POP POP POP JUMP JUMPDEST PUSH0 DUP3 PUSH20 0xFFFFFFFFFFFFFFFFFFFFFFFFFFFFFFFFFFFFFFFF AND PUSH4 0x70A08231 DUP4 PUSH1 0x40 MLOAD DUP3 PUSH4 0xFFFFFFFF AND PUSH1 0xE0 SHL DUP2 MSTORE PUSH1 0x4 ADD PUSH2 0x394 SWAP2 SWAP1 PUSH2 0x6AA JUMP JUMPDEST PUSH1 0x20 PUSH1 0x40 MLOAD DUP1 DUP4 SUB DUP2 DUP7 GAS STATICCALL ISZERO DUP1 ISZERO PUSH2 0x3AF JUMPI RETURNDATASIZE PUSH0 DUP1 RETURNDATACOPY RETURNDATASIZE PUSH0 REVERT JUMPDEST POP POP POP POP PUSH1 0x40 MLOAD RETURNDATASIZE PUSH1 0x1F NOT PUSH1 0x1F DUP3 ADD AND DUP3 ADD DUP1 PUSH1 0x40 MSTORE POP DUP2 ADD SWAP1 PUSH2 0x3D3 SWAP2 SWAP1 PUSH2 0x6D7 JUMP JUMPDEST SWAP1 POP SWAP3 SWAP2 POP POP JUMP JUMPDEST PUSH0 DUP1 REVERT JUMPDEST PUSH0 PUSH20 0xFFFFFFFFFFFFFFFFFFFFFFFFFFFFFFFFFFFFFFFF DUP3 AND SWAP1 POP SWAP2 SWAP1 POP JUMP JUMPDEST PUSH0 PUSH2 0x408 DUP3 PUSH2 0x3DF JUMP JUMPDEST SWAP1 POP SWAP2 SWAP1 POP JUMP JUMPDEST PUSH2 0x418 DUP2 PUSH2 0x3FE JUMP JUMPDEST DUP2 EQ PUSH2 0x422 JUMPI PUSH0 DUP1 REVERT JUMPDEST POP JUMP JUMPDEST PUSH0 DUP2 CALLDATALOAD SWAP1 POP PUSH2 0x433 DUP2 PUSH2 0x40F JUMP JUMPDEST SWAP3 SWAP2 POP POP JUMP JUMPDEST PUSH0 DUP2 SWAP1 POP SWAP2 SWAP1 POP JUMP JUMPDEST PUSH2 0x44B DUP2 PUSH2 0x439 JUMP JUMPDEST DUP2 EQ PUSH2 0x455 JUMPI PUSH0 DUP1 REVERT JUMPDEST POP JUMP JUMPDEST PUSH0 DUP2 CALLDATALOAD SWAP1 POP PUSH2 0x466 DUP2 PUSH2 0x442 JUMP JUMPDEST SWAP3 SWAP2 POP POP JUMP JUMPDEST PUSH0 DUP1 PUSH0 PUSH1 0x60 DUP5 DUP7 SUB SLT ISZERO PUSH2 0x483 JUMPI PUSH2 0x482 PUSH2 0x3DB JUMP JUMPDEST JUMPDEST PUSH0 PUSH2 0x490 DUP7 DUP3 DUP8 ADD PUSH2 0x425 JUMP JUMPDEST SWAP4 POP POP PUSH1 0x20 PUSH2 0x4A1 DUP7 DUP3 DUP8 ADD PUSH2 0x458 JUMP JUMPDEST SWAP3 POP POP PUSH1 0x40 PUSH2 0x4B2 DUP7 DUP3 DUP8 ADD PUSH2 0x425 JUMP JUMPDEST SWAP2 POP POP SWAP3 POP SWAP3 POP SWAP3 JUMP JUMPDEST PUSH0 PUSH1 0x20 DUP3 DUP5 SUB SLT ISZERO PUSH2 0x4D1 JUMPI PUSH2 0x4D0 PUSH2 0x3DB JUMP JUMPDEST JUMPDEST PUSH0 PUSH2 0x4DE DUP5 DUP3 DUP6 ADD PUSH2 0x425 JUMP JUMPDEST SWAP2 POP POP SWAP3 SWAP2 POP POP JUMP JUMPDEST PUSH0 DUP1 PUSH1 0x40 DUP4 DUP6 SUB SLT ISZERO PUSH2 0x4FD JUMPI PUSH2 0x4FC PUSH2 0x3DB JUMP JUMPDEST JUMPDEST PUSH0 PUSH2 0x50A DUP6 DUP3 DUP7 ADD PUSH2 0x425 JUMP JUMPDEST SWAP3 POP POP PUSH1 0x20 PUSH2 0x51B DUP6 DUP3 DUP7 ADD PUSH2 0x425 JUMP JUMPDEST SWAP2 POP POP SWAP3 POP SWAP3 SWAP1 POP JUMP JUMPDEST PUSH2 0x52E DUP2 PUSH2 0x439 JUMP JUMPDEST DUP3 MSTORE POP POP JUMP JUMPDEST PUSH0 PUSH1 0x20 DUP3 ADD SWAP1 POP PUSH2 0x547 PUSH0 DUP4 ADD DUP5 PUSH2 0x525 JUMP JUMPDEST SWAP3 SWAP2 POP POP JUMP JUMPDEST PUSH2 0x556 DUP2 PUSH2 0x3FE JUMP JUMPDEST DUP3 MSTORE POP POP JUMP JUMPDEST PUSH0 PUSH1 0x40 DUP3 ADD SWAP1 POP PUSH2 0x56F PUSH0 DUP4 ADD DUP6 PUSH2 0x54D JUMP JUMPDEST PUSH2 0x57C PUSH1 0x20 DUP4 ADD DUP5 PUSH2 0x525 JUMP JUMPDEST SWAP4 SWAP3 POP POP POP JUMP JUMPDEST PUSH0 DUP2 ISZERO ISZERO SWAP1 POP SWAP2 SWAP1 POP JUMP JUMPDEST PUSH2 0x597 DUP2 PUSH2 0x583 JUMP JUMPDEST DUP2 EQ PUSH2 0x5A1 JUMPI PUSH0 DUP1 REVERT JUMPDEST POP JUMP JUMPDEST PUSH0 DUP2 MLOAD SWAP1 POP PUSH2 0x5B2 DUP2 PUSH2 0x58E JUMP JUMPDEST SWAP3 SWAP2 POP POP JUMP JUMPDEST PUSH0 PUSH1 0x20 DUP3 DUP5 SUB SLT ISZERO PUSH2 0x5CD JUMPI PUSH2 0x5CC PUSH2 0x3DB JUMP JUMPDEST JUMPDEST PUSH0 PUSH2 0x5DA DUP5 DUP3 DUP6 ADD PUSH2 0x5A4 JUMP JUMPDEST SWAP2 POP POP SWAP3 SWAP2 POP POP JUMP JUMPDEST PUSH0 DUP2 SWAP1 POP SWAP2 SWAP1 POP JUMP JUMPDEST PUSH0 PUSH2 0xFFFF DUP3 AND SWAP1 POP SWAP2 SWAP1 POP JUMP JUMPDEST PUSH0 DUP2 SWAP1 POP SWAP2 SWAP1 POP JUMP JUMPDEST PUSH0 PUSH2 0x61C PUSH2 0x617 PUSH2 0x612 DUP5 PUSH2 0x5E3 JUMP JUMPDEST PUSH2 0x5F9 JUMP JUMPDEST PUSH2 0x5EC JUMP JUMPDEST SWAP1 POP SWAP2 SWAP1 POP JUMP JUMPDEST PUSH2 0x62C DUP2 PUSH2 0x602 JUMP JUMPDEST DUP3 MSTORE POP POP JUMP JUMPDEST PUSH0 PUSH1 0x80 DUP3 ADD SWAP1 POP PUSH2 0x645 PUSH0 DUP4 ADD DUP8 PUSH2 0x54D JUMP JUMPDEST PUSH2 0x652 PUSH1 0x20 DUP4 ADD DUP7 PUSH2 0x525 JUMP JUMPDEST PUSH2 0x65F PUSH1 0x40 DUP4 ADD DUP6 PUSH2 0x54D JUMP JUMPDEST PUSH2 0x66C PUSH1 0x60 DUP4 ADD DUP5 PUSH2 0x623 JUMP JUMPDEST SWAP6 SWAP5 POP POP POP POP POP JUMP JUMPDEST PUSH0 PUSH1 0x60 DUP3 ADD SWAP1 POP PUSH2 0x688 PUSH0 DUP4 ADD DUP7 PUSH2 0x54D JUMP JUMPDEST PUSH2 0x695 PUSH1 0x20 DUP4 ADD DUP6 PUSH2 0x525 JUMP JUMPDEST PUSH2 0x6A2 PUSH1 0x40 DUP4 ADD DUP5 PUSH2 0x54D JUMP JUMPDEST SWAP5 SWAP4 POP POP POP POP JUMP JUMPDEST PUSH0 PUSH1 0x20 DUP3 ADD SWAP1 POP PUSH2 0x6BD PUSH0 DUP4 ADD DUP5 PUSH2 0x54D JUMP JUMPDEST SWAP3 SWAP2 POP POP JUMP JUMPDEST PUSH0 DUP2 MLOAD SWAP1 POP PUSH2 0x6D1 DUP2 PUSH2 0x442 JUMP JUMPDEST SWAP3 SWAP2 POP POP JUMP JUMPDEST PUSH0 PUSH1 0x20 DUP3 DUP5 SUB SLT ISZERO PUSH2 0x6EC JUMPI PUSH2 0x6EB PUSH2 0x3DB JUMP JUMPDEST JUMPDEST PUSH0 PUSH2 0x6F9 DUP5 DUP3 DUP6 ADD PUSH2 0x6C3 JUMP JUMPDEST SWAP2 POP POP SWAP3 SWAP2 POP POP JUMP INVALID LOG2 PUSH5 0x6970667358 0x22 SLT KECCAK256 0x4B SWAP13 CHAINID SWAP7 DELEGATECALL EXP SWAP4 0xC4 0xC6 0xC4 0xD7 0xDC 0xB6 BLOCKHASH PUSH28 0xF5A901137AD44F4D25D782ED7C521D811764736F6C63430008140033 "
				},
				"gasEstimates": {
					"creation": {
						"codeDepositCost": "369600",
						"executionCost": "24669",
						"totalCost": "394269"
					},
					"external": {
						"depositERC20(address,uint256,address)": "infinite",
						"depositEther(address)": "infinite",
						"getBalance(address,address)": "infinite",
						"withdraw(address,uint256,address)": "infinite"
					}
				},
				"methodIdentifiers": {
					"depositERC20(address,uint256,address)": "1828686a",
					"depositEther(address)": "52802121",
					"getBalance(address,address)": "d4fac45d",
					"withdraw(address,uint256,address)": "69328dec"
				}
			},
			"storageLayout": {
				"storage": [
					{
						"astId": 53,
						"contract": "Aave.sol:AaveImplementation",
						"label": "aave",
						"offset": 0,
						"slot": "0",
						"type": "t_contract(IAaveV2)50"
					}
				],
				"types": {
					"t_contract(IAaveV2)50": {
						"encoding": "inplace",
						"label": "contract IAaveV2",
						"numberOfBytes": "20"
					}
				}
			},
			"userdoc": {
				"kind": "user",
				"methods": {},
				"version": 1
			}
		}
	}
}