{
	"ByteArray_FixedZize.sol": {
		"Array": {
			"abi": [
				{
					"inputs": [],
					"name": "b1",
					"outputs": [
						{
							"internalType": "bytes1",
							"name": "",
							"type": "bytes1"
						}
					],
					"stateMutability": "view",
					"type": "function"
				},
				{
					"inputs": [],
					"name": "b2",
					"outputs": [
						{
							"internalType": "bytes2",
							"name": "",
							"type": "bytes2"
						}
					],
					"stateMutability": "view",
					"type": "function"
				},
				{
					"inputs": [],
					"name": "b3",
					"outputs": [
						{
							"internalType": "bytes3",
							"name": "",
							"type": "bytes3"
						}
					],
					"stateMutability": "view",
					"type": "function"
				},
				{
					"inputs": [],
					"name": "b32",
					"outputs": [
						{
							"internalType": "bytes32",
							"name": "",
							"type": "bytes32"
						}
					],
					"stateMutability": "view",
					"type": "function"
				},
				{
					"inputs": [
						{
							"internalType": "uint256",
							"name": "i",
							"type": "uint256"
						},
						{
							"internalType": "uint256",
							"name": "j",
							"type": "uint256"
						}
					],
					"name": "getel",
					"outputs": [
						{
							"internalType": "bytes1",
							"name": "",
							"type": "bytes1"
						},
						{
							"internalType": "bytes1",
							"name": "",
							"type": "bytes1"
						}
					],
					"stateMutability": "view",
					"type": "function"
				},
				{
					"inputs": [],
					"name": "len",
					"outputs": [
						{
							"internalType": "uint256",
							"name": "",
							"type": "uint256"
						}
					],
					"stateMutability": "view",
					"type": "function"
				},
				{
					"inputs": [],
					"name": "setter",
					"outputs": [],
					"stateMutability": "nonpayable",
					"type": "function"
				}
			],
			"devdoc": {
				"kind": "dev",
				"methods": {},
				"version": 1
			},
			"evm": {
				"assembly": "    /* \"ByteArray_FixedZize.sol\":63:502  contract Array... */\n  mstore(0x40, 0x80)\n  callvalue\n  dup1\n  iszero\n  tag_1\n  jumpi\n  0x00\n  dup1\n  revert\ntag_1:\n  pop\n  dataSize(sub_0)\n  dup1\n  dataOffset(sub_0)\n  0x00\n  codecopy\n  0x00\n  return\nstop\n\nsub_0: assembly {\n        /* \"ByteArray_FixedZize.sol\":63:502  contract Array... */\n      mstore(0x40, 0x80)\n      callvalue\n      dup1\n      iszero\n      tag_1\n      jumpi\n      0x00\n      dup1\n      revert\n    tag_1:\n      pop\n      jumpi(tag_2, lt(calldatasize, 0x04))\n      shr(0xe0, calldataload(0x00))\n      dup1\n      0xe9b61909\n      gt\n      tag_10\n      jumpi\n      dup1\n      0xe9b61909\n      eq\n      tag_6\n      jumpi\n      dup1\n      0xee495002\n      eq\n      tag_7\n      jumpi\n      dup1\n      0xf8aab238\n      eq\n      tag_8\n      jumpi\n      dup1\n      0xfad6f58e\n      eq\n      tag_9\n      jumpi\n      jump(tag_2)\n    tag_10:\n      dup1\n      0x0add6ef2\n      eq\n      tag_3\n      jumpi\n      dup1\n      0x3f3108f7\n      eq\n      tag_4\n      jumpi\n      dup1\n      0x56d88e27\n      eq\n      tag_5\n      jumpi\n    tag_2:\n      0x00\n      dup1\n      revert\n        /* \"ByteArray_FixedZize.sol\":109:125  bytes2 public b2 */\n    tag_3:\n      tag_11\n      tag_12\n      jump\t// in\n    tag_11:\n      mload(0x40)\n      tag_13\n      swap2\n      swap1\n      tag_14\n      jump\t// in\n    tag_13:\n      mload(0x40)\n      dup1\n      swap2\n      sub\n      swap1\n      return\n        /* \"ByteArray_FixedZize.sol\":182:297  function setter() public... */\n    tag_4:\n      tag_15\n      tag_16\n      jump\t// in\n    tag_15:\n      stop\n        /* \"ByteArray_FixedZize.sol\":303:384  function len() public view returns(uint)... */\n    tag_5:\n      tag_17\n      tag_18\n      jump\t// in\n    tag_17:\n      mload(0x40)\n      tag_19\n      swap2\n      swap1\n      tag_20\n      jump\t// in\n    tag_19:\n      mload(0x40)\n      dup1\n      swap2\n      sub\n      swap1\n      return\n        /* \"ByteArray_FixedZize.sol\":132:148  bytes3 public b3 */\n    tag_6:\n      tag_21\n      tag_22\n      jump\t// in\n    tag_21:\n      mload(0x40)\n      tag_23\n      swap2\n      swap1\n      tag_24\n      jump\t// in\n    tag_23:\n      mload(0x40)\n      dup1\n      swap2\n      sub\n      swap1\n      return\n        /* \"ByteArray_FixedZize.sol\":86:102  bytes1 public b1 */\n    tag_7:\n      tag_25\n      tag_26\n      jump\t// in\n    tag_25:\n      mload(0x40)\n      tag_27\n      swap2\n      swap1\n      tag_28\n      jump\t// in\n    tag_27:\n      mload(0x40)\n      dup1\n      swap2\n      sub\n      swap1\n      return\n        /* \"ByteArray_FixedZize.sol\":155:173  bytes32 public b32 */\n    tag_8:\n      tag_29\n      tag_30\n      jump\t// in\n    tag_29:\n      mload(0x40)\n      tag_31\n      swap2\n      swap1\n      tag_32\n      jump\t// in\n    tag_31:\n      mload(0x40)\n      dup1\n      swap2\n      sub\n      swap1\n      return\n        /* \"ByteArray_FixedZize.sol\":390:499  function getel(uint i,uint j) public view returns(bytes1,bytes1)... */\n    tag_9:\n      tag_33\n      0x04\n      dup1\n      calldatasize\n      sub\n      dup2\n      add\n      swap1\n      tag_34\n      swap2\n      swap1\n      tag_35\n      jump\t// in\n    tag_34:\n      tag_36\n      jump\t// in\n    tag_33:\n      mload(0x40)\n      tag_37\n      swap3\n      swap2\n      swap1\n      tag_38\n      jump\t// in\n    tag_37:\n      mload(0x40)\n      dup1\n      swap2\n      sub\n      swap1\n      return\n        /* \"ByteArray_FixedZize.sol\":109:125  bytes2 public b2 */\n    tag_12:\n      0x00\n      0x01\n      swap1\n      sload\n      swap1\n      0x0100\n      exp\n      swap1\n      div\n      0xf0\n      shl\n      dup2\n      jump\t// out\n        /* \"ByteArray_FixedZize.sol\":182:297  function setter() public... */\n    tag_16:\n        /* \"ByteArray_FixedZize.sol\":223:229  b1='Z' */\n      0x5a00000000000000000000000000000000000000000000000000000000000000\n        /* \"ByteArray_FixedZize.sol\":223:225  b1 */\n      0x00\n      dup1\n        /* \"ByteArray_FixedZize.sol\":223:229  b1='Z' */\n      0x0100\n      exp\n      dup2\n      sload\n      dup2\n      0xff\n      mul\n      not\n      and\n      swap1\n      dup4\n      0xf8\n      shr\n      mul\n      or\n      swap1\n      sstore\n      pop\n        /* \"ByteArray_FixedZize.sol\":240:246  b2='3' */\n      0x3300000000000000000000000000000000000000000000000000000000000000\n        /* \"ByteArray_FixedZize.sol\":240:242  b2 */\n      0x00\n      0x01\n        /* \"ByteArray_FixedZize.sol\":240:246  b2='3' */\n      0x0100\n      exp\n      dup2\n      sload\n      dup2\n      0xffff\n      mul\n      not\n      and\n      swap1\n      dup4\n      0xf0\n      shr\n      mul\n      or\n      swap1\n      sstore\n      pop\n        /* \"ByteArray_FixedZize.sol\":257:265  b3='4Z ' */\n      0x345a200000000000000000000000000000000000000000000000000000000000\n        /* \"ByteArray_FixedZize.sol\":257:259  b3 */\n      0x00\n      0x03\n        /* \"ByteArray_FixedZize.sol\":257:265  b3='4Z ' */\n      0x0100\n      exp\n      dup2\n      sload\n      dup2\n      0xffffff\n      mul\n      not\n      and\n      swap1\n      dup4\n      0xe8\n      shr\n      mul\n      or\n      swap1\n      sstore\n      pop\n        /* \"ByteArray_FixedZize.sol\":276:289  b32='iehbeck' */\n      0x6965686265636b00000000000000000000000000000000000000000000000000\n        /* \"ByteArray_FixedZize.sol\":276:279  b32 */\n      0x01\n        /* \"ByteArray_FixedZize.sol\":276:289  b32='iehbeck' */\n      dup2\n      swap1\n      sstore\n      pop\n        /* \"ByteArray_FixedZize.sol\":182:297  function setter() public... */\n      jump\t// out\n        /* \"ByteArray_FixedZize.sol\":303:384  function len() public view returns(uint)... */\n    tag_18:\n        /* \"ByteArray_FixedZize.sol\":338:342  uint */\n      0x00\n        /* \"ByteArray_FixedZize.sol\":367:369  b1 */\n      dup1\n      0x00\n      swap1\n      sload\n      swap1\n      0x0100\n      exp\n      swap1\n      pop\n      pop\n        /* \"ByteArray_FixedZize.sol\":367:376  b1.length */\n      0x01\n        /* \"ByteArray_FixedZize.sol\":360:376  return b1.length */\n      0xff\n      and\n      swap1\n      pop\n        /* \"ByteArray_FixedZize.sol\":303:384  function len() public view returns(uint)... */\n      swap1\n      jump\t// out\n        /* \"ByteArray_FixedZize.sol\":132:148  bytes3 public b3 */\n    tag_22:\n      0x00\n      0x03\n      swap1\n      sload\n      swap1\n      0x0100\n      exp\n      swap1\n      div\n      0xe8\n      shl\n      dup2\n      jump\t// out\n        /* \"ByteArray_FixedZize.sol\":86:102  bytes1 public b1 */\n    tag_26:\n      0x00\n      dup1\n      sload\n      swap1\n      0x0100\n      exp\n      swap1\n      div\n      0xf8\n      shl\n      dup2\n      jump\t// out\n        /* \"ByteArray_FixedZize.sol\":155:173  bytes32 public b32 */\n    tag_30:\n      sload(0x01)\n      dup2\n      jump\t// out\n        /* \"ByteArray_FixedZize.sol\":390:499  function getel(uint i,uint j) public view returns(bytes1,bytes1)... */\n    tag_36:\n        /* \"ByteArray_FixedZize.sol\":440:446  bytes1 */\n      0x00\n        /* \"ByteArray_FixedZize.sol\":447:453  bytes1 */\n      dup1\n        /* \"ByteArray_FixedZize.sol\":479:481  b3 */\n      0x00\n      0x03\n      swap1\n      sload\n      swap1\n      0x0100\n      exp\n      swap1\n      div\n      0xe8\n      shl\n        /* \"ByteArray_FixedZize.sol\":482:483  i */\n      dup5\n        /* \"ByteArray_FixedZize.sol\":479:484  b3[i] */\n      0x03\n      dup2\n      lt\n      tag_42\n      jumpi\n      tag_43\n      tag_44\n      jump\t// in\n    tag_43:\n    tag_42:\n      byte\n      0xf8\n      shl\n        /* \"ByteArray_FixedZize.sol\":485:487  b3 */\n      0x00\n      0x03\n      swap1\n      sload\n      swap1\n      0x0100\n      exp\n      swap1\n      div\n      0xe8\n      shl\n        /* \"ByteArray_FixedZize.sol\":488:489  j */\n      dup5\n        /* \"ByteArray_FixedZize.sol\":485:490  b3[j] */\n      0x03\n      dup2\n      lt\n      tag_45\n      jumpi\n      tag_46\n      tag_44\n      jump\t// in\n    tag_46:\n    tag_45:\n      byte\n      0xf8\n      shl\n        /* \"ByteArray_FixedZize.sol\":471:491  return (b3[i],b3[j]) */\n      swap2\n      pop\n      swap2\n      pop\n        /* \"ByteArray_FixedZize.sol\":390:499  function getel(uint i,uint j) public view returns(bytes1,bytes1)... */\n      swap3\n      pop\n      swap3\n      swap1\n      pop\n      jump\t// out\n        /* \"#utility.yul\":7:156   */\n    tag_47:\n        /* \"#utility.yul\":43:50   */\n      0x00\n        /* \"#utility.yul\":83:149   */\n      0xffff000000000000000000000000000000000000000000000000000000000000\n        /* \"#utility.yul\":76:81   */\n      dup3\n        /* \"#utility.yul\":72:150   */\n      and\n        /* \"#utility.yul\":61:150   */\n      swap1\n      pop\n        /* \"#utility.yul\":7:156   */\n      swap2\n      swap1\n      pop\n      jump\t// out\n        /* \"#utility.yul\":162:277   */\n    tag_48:\n        /* \"#utility.yul\":247:270   */\n      tag_65\n        /* \"#utility.yul\":264:269   */\n      dup2\n        /* \"#utility.yul\":247:270   */\n      tag_47\n      jump\t// in\n    tag_65:\n        /* \"#utility.yul\":242:245   */\n      dup3\n        /* \"#utility.yul\":235:271   */\n      mstore\n        /* \"#utility.yul\":162:277   */\n      pop\n      pop\n      jump\t// out\n        /* \"#utility.yul\":283:501   */\n    tag_14:\n        /* \"#utility.yul\":374:378   */\n      0x00\n        /* \"#utility.yul\":412:414   */\n      0x20\n        /* \"#utility.yul\":401:410   */\n      dup3\n        /* \"#utility.yul\":397:415   */\n      add\n        /* \"#utility.yul\":389:415   */\n      swap1\n      pop\n        /* \"#utility.yul\":425:494   */\n      tag_67\n        /* \"#utility.yul\":491:492   */\n      0x00\n        /* \"#utility.yul\":480:489   */\n      dup4\n        /* \"#utility.yul\":476:493   */\n      add\n        /* \"#utility.yul\":467:473   */\n      dup5\n        /* \"#utility.yul\":425:494   */\n      tag_48\n      jump\t// in\n    tag_67:\n        /* \"#utility.yul\":283:501   */\n      swap3\n      swap2\n      pop\n      pop\n      jump\t// out\n        /* \"#utility.yul\":507:584   */\n    tag_49:\n        /* \"#utility.yul\":544:551   */\n      0x00\n        /* \"#utility.yul\":573:578   */\n      dup2\n        /* \"#utility.yul\":562:578   */\n      swap1\n      pop\n        /* \"#utility.yul\":507:584   */\n      swap2\n      swap1\n      pop\n      jump\t// out\n        /* \"#utility.yul\":590:708   */\n    tag_50:\n        /* \"#utility.yul\":677:701   */\n      tag_70\n        /* \"#utility.yul\":695:700   */\n      dup2\n        /* \"#utility.yul\":677:701   */\n      tag_49\n      jump\t// in\n    tag_70:\n        /* \"#utility.yul\":672:675   */\n      dup3\n        /* \"#utility.yul\":665:702   */\n      mstore\n        /* \"#utility.yul\":590:708   */\n      pop\n      pop\n      jump\t// out\n        /* \"#utility.yul\":714:936   */\n    tag_20:\n        /* \"#utility.yul\":807:811   */\n      0x00\n        /* \"#utility.yul\":845:847   */\n      0x20\n        /* \"#utility.yul\":834:843   */\n      dup3\n        /* \"#utility.yul\":830:848   */\n      add\n        /* \"#utility.yul\":822:848   */\n      swap1\n      pop\n        /* \"#utility.yul\":858:929   */\n      tag_72\n        /* \"#utility.yul\":926:927   */\n      0x00\n        /* \"#utility.yul\":915:924   */\n      dup4\n        /* \"#utility.yul\":911:928   */\n      add\n        /* \"#utility.yul\":902:908   */\n      dup5\n        /* \"#utility.yul\":858:929   */\n      tag_50\n      jump\t// in\n    tag_72:\n        /* \"#utility.yul\":714:936   */\n      swap3\n      swap2\n      pop\n      pop\n      jump\t// out\n        /* \"#utility.yul\":942:1091   */\n    tag_51:\n        /* \"#utility.yul\":978:985   */\n      0x00\n        /* \"#utility.yul\":1018:1084   */\n      0xffffff0000000000000000000000000000000000000000000000000000000000\n        /* \"#utility.yul\":1011:1016   */\n      dup3\n        /* \"#utility.yul\":1007:1085   */\n      and\n        /* \"#utility.yul\":996:1085   */\n      swap1\n      pop\n        /* \"#utility.yul\":942:1091   */\n      swap2\n      swap1\n      pop\n      jump\t// out\n        /* \"#utility.yul\":1097:1212   */\n    tag_52:\n        /* \"#utility.yul\":1182:1205   */\n      tag_75\n        /* \"#utility.yul\":1199:1204   */\n      dup2\n        /* \"#utility.yul\":1182:1205   */\n      tag_51\n      jump\t// in\n    tag_75:\n        /* \"#utility.yul\":1177:1180   */\n      dup3\n        /* \"#utility.yul\":1170:1206   */\n      mstore\n        /* \"#utility.yul\":1097:1212   */\n      pop\n      pop\n      jump\t// out\n        /* \"#utility.yul\":1218:1436   */\n    tag_24:\n        /* \"#utility.yul\":1309:1313   */\n      0x00\n        /* \"#utility.yul\":1347:1349   */\n      0x20\n        /* \"#utility.yul\":1336:1345   */\n      dup3\n        /* \"#utility.yul\":1332:1350   */\n      add\n        /* \"#utility.yul\":1324:1350   */\n      swap1\n      pop\n        /* \"#utility.yul\":1360:1429   */\n      tag_77\n        /* \"#utility.yul\":1426:1427   */\n      0x00\n        /* \"#utility.yul\":1415:1424   */\n      dup4\n        /* \"#utility.yul\":1411:1428   */\n      add\n        /* \"#utility.yul\":1402:1408   */\n      dup5\n        /* \"#utility.yul\":1360:1429   */\n      tag_52\n      jump\t// in\n    tag_77:\n        /* \"#utility.yul\":1218:1436   */\n      swap3\n      swap2\n      pop\n      pop\n      jump\t// out\n        /* \"#utility.yul\":1442:1591   */\n    tag_53:\n        /* \"#utility.yul\":1478:1485   */\n      0x00\n        /* \"#utility.yul\":1518:1584   */\n      0xff00000000000000000000000000000000000000000000000000000000000000\n        /* \"#utility.yul\":1511:1516   */\n      dup3\n        /* \"#utility.yul\":1507:1585   */\n      and\n        /* \"#utility.yul\":1496:1585   */\n      swap1\n      pop\n        /* \"#utility.yul\":1442:1591   */\n      swap2\n      swap1\n      pop\n      jump\t// out\n        /* \"#utility.yul\":1597:1712   */\n    tag_54:\n        /* \"#utility.yul\":1682:1705   */\n      tag_80\n        /* \"#utility.yul\":1699:1704   */\n      dup2\n        /* \"#utility.yul\":1682:1705   */\n      tag_53\n      jump\t// in\n    tag_80:\n        /* \"#utility.yul\":1677:1680   */\n      dup3\n        /* \"#utility.yul\":1670:1706   */\n      mstore\n        /* \"#utility.yul\":1597:1712   */\n      pop\n      pop\n      jump\t// out\n        /* \"#utility.yul\":1718:1936   */\n    tag_28:\n        /* \"#utility.yul\":1809:1813   */\n      0x00\n        /* \"#utility.yul\":1847:1849   */\n      0x20\n        /* \"#utility.yul\":1836:1845   */\n      dup3\n        /* \"#utility.yul\":1832:1850   */\n      add\n        /* \"#utility.yul\":1824:1850   */\n      swap1\n      pop\n        /* \"#utility.yul\":1860:1929   */\n      tag_82\n        /* \"#utility.yul\":1926:1927   */\n      0x00\n        /* \"#utility.yul\":1915:1924   */\n      dup4\n        /* \"#utility.yul\":1911:1928   */\n      add\n        /* \"#utility.yul\":1902:1908   */\n      dup5\n        /* \"#utility.yul\":1860:1929   */\n      tag_54\n      jump\t// in\n    tag_82:\n        /* \"#utility.yul\":1718:1936   */\n      swap3\n      swap2\n      pop\n      pop\n      jump\t// out\n        /* \"#utility.yul\":1942:2019   */\n    tag_55:\n        /* \"#utility.yul\":1979:1986   */\n      0x00\n        /* \"#utility.yul\":2008:2013   */\n      dup2\n        /* \"#utility.yul\":1997:2013   */\n      swap1\n      pop\n        /* \"#utility.yul\":1942:2019   */\n      swap2\n      swap1\n      pop\n      jump\t// out\n        /* \"#utility.yul\":2025:2143   */\n    tag_56:\n        /* \"#utility.yul\":2112:2136   */\n      tag_85\n        /* \"#utility.yul\":2130:2135   */\n      dup2\n        /* \"#utility.yul\":2112:2136   */\n      tag_55\n      jump\t// in\n    tag_85:\n        /* \"#utility.yul\":2107:2110   */\n      dup3\n        /* \"#utility.yul\":2100:2137   */\n      mstore\n        /* \"#utility.yul\":2025:2143   */\n      pop\n      pop\n      jump\t// out\n        /* \"#utility.yul\":2149:2371   */\n    tag_32:\n        /* \"#utility.yul\":2242:2246   */\n      0x00\n        /* \"#utility.yul\":2280:2282   */\n      0x20\n        /* \"#utility.yul\":2269:2278   */\n      dup3\n        /* \"#utility.yul\":2265:2283   */\n      add\n        /* \"#utility.yul\":2257:2283   */\n      swap1\n      pop\n        /* \"#utility.yul\":2293:2364   */\n      tag_87\n        /* \"#utility.yul\":2361:2362   */\n      0x00\n        /* \"#utility.yul\":2350:2359   */\n      dup4\n        /* \"#utility.yul\":2346:2363   */\n      add\n        /* \"#utility.yul\":2337:2343   */\n      dup5\n        /* \"#utility.yul\":2293:2364   */\n      tag_56\n      jump\t// in\n    tag_87:\n        /* \"#utility.yul\":2149:2371   */\n      swap3\n      swap2\n      pop\n      pop\n      jump\t// out\n        /* \"#utility.yul\":2458:2575   */\n    tag_58:\n        /* \"#utility.yul\":2567:2568   */\n      0x00\n        /* \"#utility.yul\":2564:2565   */\n      dup1\n        /* \"#utility.yul\":2557:2569   */\n      revert\n        /* \"#utility.yul\":2704:2826   */\n    tag_60:\n        /* \"#utility.yul\":2777:2801   */\n      tag_92\n        /* \"#utility.yul\":2795:2800   */\n      dup2\n        /* \"#utility.yul\":2777:2801   */\n      tag_49\n      jump\t// in\n    tag_92:\n        /* \"#utility.yul\":2770:2775   */\n      dup2\n        /* \"#utility.yul\":2767:2802   */\n      eq\n        /* \"#utility.yul\":2757:2820   */\n      tag_93\n      jumpi\n        /* \"#utility.yul\":2816:2817   */\n      0x00\n        /* \"#utility.yul\":2813:2814   */\n      dup1\n        /* \"#utility.yul\":2806:2818   */\n      revert\n        /* \"#utility.yul\":2757:2820   */\n    tag_93:\n        /* \"#utility.yul\":2704:2826   */\n      pop\n      jump\t// out\n        /* \"#utility.yul\":2832:2971   */\n    tag_61:\n        /* \"#utility.yul\":2878:2883   */\n      0x00\n        /* \"#utility.yul\":2916:2922   */\n      dup2\n        /* \"#utility.yul\":2903:2923   */\n      calldataload\n        /* \"#utility.yul\":2894:2923   */\n      swap1\n      pop\n        /* \"#utility.yul\":2932:2965   */\n      tag_95\n        /* \"#utility.yul\":2959:2964   */\n      dup2\n        /* \"#utility.yul\":2932:2965   */\n      tag_60\n      jump\t// in\n    tag_95:\n        /* \"#utility.yul\":2832:2971   */\n      swap3\n      swap2\n      pop\n      pop\n      jump\t// out\n        /* \"#utility.yul\":2977:3451   */\n    tag_35:\n        /* \"#utility.yul\":3045:3051   */\n      0x00\n        /* \"#utility.yul\":3053:3059   */\n      dup1\n        /* \"#utility.yul\":3102:3104   */\n      0x40\n        /* \"#utility.yul\":3090:3099   */\n      dup4\n        /* \"#utility.yul\":3081:3088   */\n      dup6\n        /* \"#utility.yul\":3077:3100   */\n      sub\n        /* \"#utility.yul\":3073:3105   */\n      slt\n        /* \"#utility.yul\":3070:3189   */\n      iszero\n      tag_97\n      jumpi\n        /* \"#utility.yul\":3108:3187   */\n      tag_98\n      tag_58\n      jump\t// in\n    tag_98:\n        /* \"#utility.yul\":3070:3189   */\n    tag_97:\n        /* \"#utility.yul\":3228:3229   */\n      0x00\n        /* \"#utility.yul\":3253:3306   */\n      tag_99\n        /* \"#utility.yul\":3298:3305   */\n      dup6\n        /* \"#utility.yul\":3289:3295   */\n      dup3\n        /* \"#utility.yul\":3278:3287   */\n      dup7\n        /* \"#utility.yul\":3274:3296   */\n      add\n        /* \"#utility.yul\":3253:3306   */\n      tag_61\n      jump\t// in\n    tag_99:\n        /* \"#utility.yul\":3243:3306   */\n      swap3\n      pop\n        /* \"#utility.yul\":3199:3316   */\n      pop\n        /* \"#utility.yul\":3355:3357   */\n      0x20\n        /* \"#utility.yul\":3381:3434   */\n      tag_100\n        /* \"#utility.yul\":3426:3433   */\n      dup6\n        /* \"#utility.yul\":3417:3423   */\n      dup3\n        /* \"#utility.yul\":3406:3415   */\n      dup7\n        /* \"#utility.yul\":3402:3424   */\n      add\n        /* \"#utility.yul\":3381:3434   */\n      tag_61\n      jump\t// in\n    tag_100:\n        /* \"#utility.yul\":3371:3434   */\n      swap2\n      pop\n        /* \"#utility.yul\":3326:3444   */\n      pop\n        /* \"#utility.yul\":2977:3451   */\n      swap3\n      pop\n      swap3\n      swap1\n      pop\n      jump\t// out\n        /* \"#utility.yul\":3457:3781   */\n    tag_38:\n        /* \"#utility.yul\":3574:3578   */\n      0x00\n        /* \"#utility.yul\":3612:3614   */\n      0x40\n        /* \"#utility.yul\":3601:3610   */\n      dup3\n        /* \"#utility.yul\":3597:3615   */\n      add\n        /* \"#utility.yul\":3589:3615   */\n      swap1\n      pop\n        /* \"#utility.yul\":3625:3694   */\n      tag_102\n        /* \"#utility.yul\":3691:3692   */\n      0x00\n        /* \"#utility.yul\":3680:3689   */\n      dup4\n        /* \"#utility.yul\":3676:3693   */\n      add\n        /* \"#utility.yul\":3667:3673   */\n      dup6\n        /* \"#utility.yul\":3625:3694   */\n      tag_54\n      jump\t// in\n    tag_102:\n        /* \"#utility.yul\":3704:3774   */\n      tag_103\n        /* \"#utility.yul\":3770:3772   */\n      0x20\n        /* \"#utility.yul\":3759:3768   */\n      dup4\n        /* \"#utility.yul\":3755:3773   */\n      add\n        /* \"#utility.yul\":3746:3752   */\n      dup5\n        /* \"#utility.yul\":3704:3774   */\n      tag_54\n      jump\t// in\n    tag_103:\n        /* \"#utility.yul\":3457:3781   */\n      swap4\n      swap3\n      pop\n      pop\n      pop\n      jump\t// out\n        /* \"#utility.yul\":3787:3967   */\n    tag_44:\n        /* \"#utility.yul\":3835:3912   */\n      0x4e487b7100000000000000000000000000000000000000000000000000000000\n        /* \"#utility.yul\":3832:3833   */\n      0x00\n        /* \"#utility.yul\":3825:3913   */\n      mstore\n        /* \"#utility.yul\":3932:3936   */\n      0x32\n        /* \"#utility.yul\":3929:3930   */\n      0x04\n        /* \"#utility.yul\":3922:3937   */\n      mstore\n        /* \"#utility.yul\":3956:3960   */\n      0x24\n        /* \"#utility.yul\":3953:3954   */\n      0x00\n        /* \"#utility.yul\":3946:3961   */\n      revert\n\n    auxdata: 0xa2646970667358221220caef8f95214545521e2451f5554871e1942e2810b25697d28adda8fda412b67364736f6c63430008110033\n}\n",
				"bytecode": {
					"linkReferences": {},
					"object": "608060405234801561001057600080fd5b50610548806100206000396000f3fe608060405234801561001057600080fd5b506004361061007d5760003560e01c8063e9b619091161005b578063e9b61909146100c8578063ee495002146100e6578063f8aab23814610104578063fad6f58e146101225761007d565b80630add6ef2146100825780633f3108f7146100a057806356d88e27146100aa575b600080fd5b61008a610153565b604051610097919061031a565b60405180910390f35b6100a8610166565b005b6100b2610242565b6040516100bf919061034e565b60405180910390f35b6100d061025b565b6040516100dd91906103a4565b60405180910390f35b6100ee61026e565b6040516100fb91906103fa565b60405180910390f35b61010c61027f565b604051610119919061042e565b60405180910390f35b61013c6004803603810190610137919061047a565b610285565b60405161014a9291906104ba565b60405180910390f35b600060019054906101000a900460f01b81565b7f5a000000000000000000000000000000000000000000000000000000000000006000806101000a81548160ff021916908360f81c02179055507f3300000000000000000000000000000000000000000000000000000000000000600060016101000a81548161ffff021916908360f01c02179055507f345a200000000000000000000000000000000000000000000000000000000000600060036101000a81548162ffffff021916908360e81c02179055507f6965686265636b00000000000000000000000000000000000000000000000000600181905550565b60008060009054906101000a905050600160ff16905090565b600060039054906101000a900460e81b81565b60008054906101000a900460f81b81565b60015481565b600080600060039054906101000a900460e81b84600381106102aa576102a96104e3565b5b1a60f81b600060039054906101000a900460e81b84600381106102d0576102cf6104e3565b5b1a60f81b915091509250929050565b60007fffff00000000000000000000000000000000000000000000000000000000000082169050919050565b610314816102df565b82525050565b600060208201905061032f600083018461030b565b92915050565b6000819050919050565b61034881610335565b82525050565b6000602082019050610363600083018461033f565b92915050565b60007fffffff000000000000000000000000000000000000000000000000000000000082169050919050565b61039e81610369565b82525050565b60006020820190506103b96000830184610395565b92915050565b60007fff0000000000000000000000000000000000000000000000000000000000000082169050919050565b6103f4816103bf565b82525050565b600060208201905061040f60008301846103eb565b92915050565b6000819050919050565b61042881610415565b82525050565b6000602082019050610443600083018461041f565b92915050565b600080fd5b61045781610335565b811461046257600080fd5b50565b6000813590506104748161044e565b92915050565b6000806040838503121561049157610490610449565b5b600061049f85828601610465565b92505060206104b085828601610465565b9150509250929050565b60006040820190506104cf60008301856103eb565b6104dc60208301846103eb565b9392505050565b7f4e487b7100000000000000000000000000000000000000000000000000000000600052603260045260246000fdfea2646970667358221220caef8f95214545521e2451f5554871e1942e2810b25697d28adda8fda412b67364736f6c63430008110033",
					"opcodes": "PUSH1 0x80 PUSH1 0x40 MSTORE CALLVALUE DUP1 ISZERO PUSH2 0x10 JUMPI PUSH1 0x0 DUP1 REVERT JUMPDEST POP PUSH2 0x548 DUP1 PUSH2 0x20 PUSH1 0x0 CODECOPY PUSH1 0x0 RETURN INVALID PUSH1 0x80 PUSH1 0x40 MSTORE CALLVALUE DUP1 ISZERO PUSH2 0x10 JUMPI PUSH1 0x0 DUP1 REVERT JUMPDEST POP PUSH1 0x4 CALLDATASIZE LT PUSH2 0x7D JUMPI PUSH1 0x0 CALLDATALOAD PUSH1 0xE0 SHR DUP1 PUSH4 0xE9B61909 GT PUSH2 0x5B JUMPI DUP1 PUSH4 0xE9B61909 EQ PUSH2 0xC8 JUMPI DUP1 PUSH4 0xEE495002 EQ PUSH2 0xE6 JUMPI DUP1 PUSH4 0xF8AAB238 EQ PUSH2 0x104 JUMPI DUP1 PUSH4 0xFAD6F58E EQ PUSH2 0x122 JUMPI PUSH2 0x7D JUMP JUMPDEST DUP1 PUSH4 0xADD6EF2 EQ PUSH2 0x82 JUMPI DUP1 PUSH4 0x3F3108F7 EQ PUSH2 0xA0 JUMPI DUP1 PUSH4 0x56D88E27 EQ PUSH2 0xAA JUMPI JUMPDEST PUSH1 0x0 DUP1 REVERT JUMPDEST PUSH2 0x8A PUSH2 0x153 JUMP JUMPDEST PUSH1 0x40 MLOAD PUSH2 0x97 SWAP2 SWAP1 PUSH2 0x31A JUMP JUMPDEST PUSH1 0x40 MLOAD DUP1 SWAP2 SUB SWAP1 RETURN JUMPDEST PUSH2 0xA8 PUSH2 0x166 JUMP JUMPDEST STOP JUMPDEST PUSH2 0xB2 PUSH2 0x242 JUMP JUMPDEST PUSH1 0x40 MLOAD PUSH2 0xBF SWAP2 SWAP1 PUSH2 0x34E JUMP JUMPDEST PUSH1 0x40 MLOAD DUP1 SWAP2 SUB SWAP1 RETURN JUMPDEST PUSH2 0xD0 PUSH2 0x25B JUMP JUMPDEST PUSH1 0x40 MLOAD PUSH2 0xDD SWAP2 SWAP1 PUSH2 0x3A4 JUMP JUMPDEST PUSH1 0x40 MLOAD DUP1 SWAP2 SUB SWAP1 RETURN JUMPDEST PUSH2 0xEE PUSH2 0x26E JUMP JUMPDEST PUSH1 0x40 MLOAD PUSH2 0xFB SWAP2 SWAP1 PUSH2 0x3FA JUMP JUMPDEST PUSH1 0x40 MLOAD DUP1 SWAP2 SUB SWAP1 RETURN JUMPDEST PUSH2 0x10C PUSH2 0x27F JUMP JUMPDEST PUSH1 0x40 MLOAD PUSH2 0x119 SWAP2 SWAP1 PUSH2 0x42E JUMP JUMPDEST PUSH1 0x40 MLOAD DUP1 SWAP2 SUB SWAP1 RETURN JUMPDEST PUSH2 0x13C PUSH1 0x4 DUP1 CALLDATASIZE SUB DUP2 ADD SWAP1 PUSH2 0x137 SWAP2 SWAP1 PUSH2 0x47A JUMP JUMPDEST PUSH2 0x285 JUMP JUMPDEST PUSH1 0x40 MLOAD PUSH2 0x14A SWAP3 SWAP2 SWAP1 PUSH2 0x4BA JUMP JUMPDEST PUSH1 0x40 MLOAD DUP1 SWAP2 SUB SWAP1 RETURN JUMPDEST PUSH1 0x0 PUSH1 0x1 SWAP1 SLOAD SWAP1 PUSH2 0x100 EXP SWAP1 DIV PUSH1 0xF0 SHL DUP2 JUMP JUMPDEST PUSH32 0x5A00000000000000000000000000000000000000000000000000000000000000 PUSH1 0x0 DUP1 PUSH2 0x100 EXP DUP2 SLOAD DUP2 PUSH1 0xFF MUL NOT AND SWAP1 DUP4 PUSH1 0xF8 SHR MUL OR SWAP1 SSTORE POP PUSH32 0x3300000000000000000000000000000000000000000000000000000000000000 PUSH1 0x0 PUSH1 0x1 PUSH2 0x100 EXP DUP2 SLOAD DUP2 PUSH2 0xFFFF MUL NOT AND SWAP1 DUP4 PUSH1 0xF0 SHR MUL OR SWAP1 SSTORE POP PUSH32 0x345A200000000000000000000000000000000000000000000000000000000000 PUSH1 0x0 PUSH1 0x3 PUSH2 0x100 EXP DUP2 SLOAD DUP2 PUSH3 0xFFFFFF MUL NOT AND SWAP1 DUP4 PUSH1 0xE8 SHR MUL OR SWAP1 SSTORE POP PUSH32 0x6965686265636B00000000000000000000000000000000000000000000000000 PUSH1 0x1 DUP2 SWAP1 SSTORE POP JUMP JUMPDEST PUSH1 0x0 DUP1 PUSH1 0x0 SWAP1 SLOAD SWAP1 PUSH2 0x100 EXP SWAP1 POP POP PUSH1 0x1 PUSH1 0xFF AND SWAP1 POP SWAP1 JUMP JUMPDEST PUSH1 0x0 PUSH1 0x3 SWAP1 SLOAD SWAP1 PUSH2 0x100 EXP SWAP1 DIV PUSH1 0xE8 SHL DUP2 JUMP JUMPDEST PUSH1 0x0 DUP1 SLOAD SWAP1 PUSH2 0x100 EXP SWAP1 DIV PUSH1 0xF8 SHL DUP2 JUMP JUMPDEST PUSH1 0x1 SLOAD DUP2 JUMP JUMPDEST PUSH1 0x0 DUP1 PUSH1 0x0 PUSH1 0x3 SWAP1 SLOAD SWAP1 PUSH2 0x100 EXP SWAP1 DIV PUSH1 0xE8 SHL DUP5 PUSH1 0x3 DUP2 LT PUSH2 0x2AA JUMPI PUSH2 0x2A9 PUSH2 0x4E3 JUMP JUMPDEST JUMPDEST BYTE PUSH1 0xF8 SHL PUSH1 0x0 PUSH1 0x3 SWAP1 SLOAD SWAP1 PUSH2 0x100 EXP SWAP1 DIV PUSH1 0xE8 SHL DUP5 PUSH1 0x3 DUP2 LT PUSH2 0x2D0 JUMPI PUSH2 0x2CF PUSH2 0x4E3 JUMP JUMPDEST JUMPDEST BYTE PUSH1 0xF8 SHL SWAP2 POP SWAP2 POP SWAP3 POP SWAP3 SWAP1 POP JUMP JUMPDEST PUSH1 0x0 PUSH32 0xFFFF000000000000000000000000000000000000000000000000000000000000 DUP3 AND SWAP1 POP SWAP2 SWAP1 POP JUMP JUMPDEST PUSH2 0x314 DUP2 PUSH2 0x2DF JUMP JUMPDEST DUP3 MSTORE POP POP JUMP JUMPDEST PUSH1 0x0 PUSH1 0x20 DUP3 ADD SWAP1 POP PUSH2 0x32F PUSH1 0x0 DUP4 ADD DUP5 PUSH2 0x30B JUMP JUMPDEST SWAP3 SWAP2 POP POP JUMP JUMPDEST PUSH1 0x0 DUP2 SWAP1 POP SWAP2 SWAP1 POP JUMP JUMPDEST PUSH2 0x348 DUP2 PUSH2 0x335 JUMP JUMPDEST DUP3 MSTORE POP POP JUMP JUMPDEST PUSH1 0x0 PUSH1 0x20 DUP3 ADD SWAP1 POP PUSH2 0x363 PUSH1 0x0 DUP4 ADD DUP5 PUSH2 0x33F JUMP JUMPDEST SWAP3 SWAP2 POP POP JUMP JUMPDEST PUSH1 0x0 PUSH32 0xFFFFFF0000000000000000000000000000000000000000000000000000000000 DUP3 AND SWAP1 POP SWAP2 SWAP1 POP JUMP JUMPDEST PUSH2 0x39E DUP2 PUSH2 0x369 JUMP JUMPDEST DUP3 MSTORE POP POP JUMP JUMPDEST PUSH1 0x0 PUSH1 0x20 DUP3 ADD SWAP1 POP PUSH2 0x3B9 PUSH1 0x0 DUP4 ADD DUP5 PUSH2 0x395 JUMP JUMPDEST SWAP3 SWAP2 POP POP JUMP JUMPDEST PUSH1 0x0 PUSH32 0xFF00000000000000000000000000000000000000000000000000000000000000 DUP3 AND SWAP1 POP SWAP2 SWAP1 POP JUMP JUMPDEST PUSH2 0x3F4 DUP2 PUSH2 0x3BF JUMP JUMPDEST DUP3 MSTORE POP POP JUMP JUMPDEST PUSH1 0x0 PUSH1 0x20 DUP3 ADD SWAP1 POP PUSH2 0x40F PUSH1 0x0 DUP4 ADD DUP5 PUSH2 0x3EB JUMP JUMPDEST SWAP3 SWAP2 POP POP JUMP JUMPDEST PUSH1 0x0 DUP2 SWAP1 POP SWAP2 SWAP1 POP JUMP JUMPDEST PUSH2 0x428 DUP2 PUSH2 0x415 JUMP JUMPDEST DUP3 MSTORE POP POP JUMP JUMPDEST PUSH1 0x0 PUSH1 0x20 DUP3 ADD SWAP1 POP PUSH2 0x443 PUSH1 0x0 DUP4 ADD DUP5 PUSH2 0x41F JUMP JUMPDEST SWAP3 SWAP2 POP POP JUMP JUMPDEST PUSH1 0x0 DUP1 REVERT JUMPDEST PUSH2 0x457 DUP2 PUSH2 0x335 JUMP JUMPDEST DUP2 EQ PUSH2 0x462 JUMPI PUSH1 0x0 DUP1 REVERT JUMPDEST POP JUMP JUMPDEST PUSH1 0x0 DUP2 CALLDATALOAD SWAP1 POP PUSH2 0x474 DUP2 PUSH2 0x44E JUMP JUMPDEST SWAP3 SWAP2 POP POP JUMP JUMPDEST PUSH1 0x0 DUP1 PUSH1 0x40 DUP4 DUP6 SUB SLT ISZERO PUSH2 0x491 JUMPI PUSH2 0x490 PUSH2 0x449 JUMP JUMPDEST JUMPDEST PUSH1 0x0 PUSH2 0x49F DUP6 DUP3 DUP7 ADD PUSH2 0x465 JUMP JUMPDEST SWAP3 POP POP PUSH1 0x20 PUSH2 0x4B0 DUP6 DUP3 DUP7 ADD PUSH2 0x465 JUMP JUMPDEST SWAP2 POP POP SWAP3 POP SWAP3 SWAP1 POP JUMP JUMPDEST PUSH1 0x0 PUSH1 0x40 DUP3 ADD SWAP1 POP PUSH2 0x4CF PUSH1 0x0 DUP4 ADD DUP6 PUSH2 0x3EB JUMP JUMPDEST PUSH2 0x4DC PUSH1 0x20 DUP4 ADD DUP5 PUSH2 0x3EB JUMP JUMPDEST SWAP4 SWAP3 POP POP POP JUMP JUMPDEST PUSH32 0x4E487B7100000000000000000000000000000000000000000000000000000000 PUSH1 0x0 MSTORE PUSH1 0x32 PUSH1 0x4 MSTORE PUSH1 0x24 PUSH1 0x0 REVERT INVALID LOG2 PUSH5 0x6970667358 0x22 SLT KECCAK256 0xCA 0xEF DUP16 SWAP6 0x21 GASLIMIT GASLIMIT MSTORE 0x1E 0x24 MLOAD CREATE2 SSTORE BASEFEE PUSH18 0xE1942E2810B25697D28ADDA8FDA412B67364 PUSH20 0x6F6C634300081100330000000000000000000000 "
				},
				"gasEstimates": {
					"creation": {
						"codeDepositCost": "270400",
						"executionCost": "312",
						"totalCost": "270712"
					},
					"external": {
						"b1()": "2490",
						"b2()": "2522",
						"b3()": "2521",
						"b32()": "2473",
						"getel(uint256,uint256)": "infinite",
						"len()": "2520",
						"setter()": "95182"
					}
				},
				"methodIdentifiers": {
					"b1()": "ee495002",
					"b2()": "0add6ef2",
					"b3()": "e9b61909",
					"b32()": "f8aab238",
					"getel(uint256,uint256)": "fad6f58e",
					"len()": "56d88e27",
					"setter()": "3f3108f7"
				}
			},
			"storageLayout": {
				"storage": [
					{
						"astId": 3,
						"contract": "ByteArray_FixedZize.sol:Array",
						"label": "b1",
						"offset": 0,
						"slot": "0",
						"type": "t_bytes1"
					},
					{
						"astId": 5,
						"contract": "ByteArray_FixedZize.sol:Array",
						"label": "b2",
						"offset": 1,
						"slot": "0",
						"type": "t_bytes2"
					},
					{
						"astId": 7,
						"contract": "ByteArray_FixedZize.sol:Array",
						"label": "b3",
						"offset": 3,
						"slot": "0",
						"type": "t_bytes3"
					},
					{
						"astId": 9,
						"contract": "ByteArray_FixedZize.sol:Array",
						"label": "b32",
						"offset": 0,
						"slot": "1",
						"type": "t_bytes32"
					}
				],
				"types": {
					"t_bytes1": {
						"encoding": "inplace",
						"label": "bytes1",
						"numberOfBytes": "1"
					},
					"t_bytes2": {
						"encoding": "inplace",
						"label": "bytes2",
						"numberOfBytes": "2"
					},
					"t_bytes3": {
						"encoding": "inplace",
						"label": "bytes3",
						"numberOfBytes": "3"
					},
					"t_bytes32": {
						"encoding": "inplace",
						"label": "bytes32",
						"numberOfBytes": "32"
					}
				}
			},
			"userdoc": {
				"kind": "user",
				"methods": {},
				"version": 1
			}
		}
	}
}