{
	"Insurance.sol": {
		"Insurance": {
			"abi": [
				{
					"inputs": [],
					"stateMutability": "nonpayable",
					"type": "constructor"
				},
				{
					"inputs": [
						{
							"internalType": "address",
							"name": "",
							"type": "address"
						}
					],
					"name": "doctorMapping",
					"outputs": [
						{
							"internalType": "bool",
							"name": "",
							"type": "bool"
						}
					],
					"stateMutability": "view",
					"type": "function"
				},
				{
					"inputs": [
						{
							"internalType": "address",
							"name": "adrs",
							"type": "address"
						}
					],
					"name": "setDoctor",
					"outputs": [],
					"stateMutability": "nonpayable",
					"type": "function"
				},
				{
					"inputs": [
						{
							"internalType": "string",
							"name": "_name",
							"type": "string"
						},
						{
							"internalType": "uint256",
							"name": "_Insured_Amount",
							"type": "uint256"
						}
					],
					"name": "setUser",
					"outputs": [
						{
							"internalType": "bytes32",
							"name": "",
							"type": "bytes32"
						}
					],
					"stateMutability": "nonpayable",
					"type": "function"
				},
				{
					"inputs": [
						{
							"internalType": "bytes32",
							"name": "_hash",
							"type": "bytes32"
						},
						{
							"internalType": "uint256",
							"name": "amountUse",
							"type": "uint256"
						}
					],
					"name": "useInsurance",
					"outputs": [
						{
							"internalType": "string",
							"name": "",
							"type": "string"
						}
					],
					"stateMutability": "nonpayable",
					"type": "function"
				},
				{
					"inputs": [
						{
							"internalType": "bytes32",
							"name": "",
							"type": "bytes32"
						}
					],
					"name": "userMapping",
					"outputs": [
						{
							"internalType": "bool",
							"name": "isUID",
							"type": "bool"
						},
						{
							"internalType": "string",
							"name": "name",
							"type": "string"
						},
						{
							"internalType": "uint256",
							"name": "Insured_Amount",
							"type": "uint256"
						}
					],
					"stateMutability": "view",
					"type": "function"
				}
			],
			"devdoc": {
				"kind": "dev",
				"methods": {},
				"version": 1
			},
			"evm": {
				"assembly": "    /* \"Insurance.sol\":63:1418  contract Insurance... */\n  mstore(0x40, 0x80)\n    /* \"Insurance.sol\":324:378  constructor()... */\n  callvalue\n  dup1\n  iszero\n  tag_1\n  jumpi\n  0x00\n  dup1\n  revert\ntag_1:\n  pop\n    /* \"Insurance.sol\":360:370  msg.sender */\n  caller\n    /* \"Insurance.sol\":354:359  Owner */\n  0x02\n  0x00\n    /* \"Insurance.sol\":354:370  Owner=msg.sender */\n  0x0100\n  exp\n  dup2\n  sload\n  dup2\n  0xffffffffffffffffffffffffffffffffffffffff\n  mul\n  not\n  and\n  swap1\n  dup4\n  0xffffffffffffffffffffffffffffffffffffffff\n  and\n  mul\n  or\n  swap1\n  sstore\n  pop\n    /* \"Insurance.sol\":63:1418  contract Insurance... */\n  dataSize(sub_0)\n  dup1\n  dataOffset(sub_0)\n  0x00\n  codecopy\n  0x00\n  return\nstop\n\nsub_0: assembly {\n        /* \"Insurance.sol\":63:1418  contract Insurance... */\n      mstore(0x40, 0x80)\n      callvalue\n      dup1\n      iszero\n      tag_1\n      jumpi\n      0x00\n      dup1\n      revert\n    tag_1:\n      pop\n      jumpi(tag_2, lt(calldatasize, 0x04))\n      shr(0xe0, calldataload(0x00))\n      dup1\n      0x3130abae\n      eq\n      tag_3\n      jumpi\n      dup1\n      0x48103e65\n      eq\n      tag_4\n      jumpi\n      dup1\n      0x8abc4bd9\n      eq\n      tag_5\n      jumpi\n      dup1\n      0xbf94effa\n      eq\n      tag_6\n      jumpi\n      dup1\n      0xd3bddc2b\n      eq\n      tag_7\n      jumpi\n    tag_2:\n      0x00\n      dup1\n      revert\n        /* \"Insurance.sol\":1044:1409  function useInsurance(bytes32 _hash, uint amountUse) public onlyOwner returns(string memory)... */\n    tag_3:\n      tag_8\n      0x04\n      dup1\n      calldatasize\n      sub\n      dup2\n      add\n      swap1\n      tag_9\n      swap2\n      swap1\n      tag_10\n      jump\t// in\n    tag_9:\n      tag_11\n      jump\t// in\n    tag_8:\n      mload(0x40)\n      tag_12\n      swap2\n      swap1\n      tag_13\n      jump\t// in\n    tag_12:\n      mload(0x40)\n      dup1\n      swap2\n      sub\n      swap1\n      return\n        /* \"Insurance.sol\":494:634  function setDoctor(address adrs) public onlyOwner... */\n    tag_4:\n      tag_14\n      0x04\n      dup1\n      calldatasize\n      sub\n      dup2\n      add\n      swap1\n      tag_15\n      swap2\n      swap1\n      tag_16\n      jump\t// in\n    tag_15:\n      tag_17\n      jump\t// in\n    tag_14:\n      stop\n        /* \"Insurance.sol\":196:240  mapping (bytes32 => user) public userMapping */\n    tag_5:\n      tag_18\n      0x04\n      dup1\n      calldatasize\n      sub\n      dup2\n      add\n      swap1\n      tag_19\n      swap2\n      swap1\n      tag_20\n      jump\t// in\n    tag_19:\n      tag_21\n      jump\t// in\n    tag_18:\n      mload(0x40)\n      tag_22\n      swap4\n      swap3\n      swap2\n      swap1\n      tag_23\n      jump\t// in\n    tag_22:\n      mload(0x40)\n      dup1\n      swap2\n      sub\n      swap1\n      return\n        /* \"Insurance.sol\":247:293  mapping (address => bool) public doctorMapping */\n    tag_6:\n      tag_24\n      0x04\n      dup1\n      calldatasize\n      sub\n      dup2\n      add\n      swap1\n      tag_25\n      swap2\n      swap1\n      tag_16\n      jump\t// in\n    tag_25:\n      tag_26\n      jump\t// in\n    tag_24:\n      mload(0x40)\n      tag_27\n      swap2\n      swap1\n      tag_28\n      jump\t// in\n    tag_27:\n      mload(0x40)\n      dup1\n      swap2\n      sub\n      swap1\n      return\n        /* \"Insurance.sol\":642:1036  function setUser(string memory _name, uint _Insured_Amount) public onlyOwner returns(bytes32)... */\n    tag_7:\n      tag_29\n      0x04\n      dup1\n      calldatasize\n      sub\n      dup2\n      add\n      swap1\n      tag_30\n      swap2\n      swap1\n      tag_31\n      jump\t// in\n    tag_30:\n      tag_32\n      jump\t// in\n    tag_29:\n      mload(0x40)\n      tag_33\n      swap2\n      swap1\n      tag_34\n      jump\t// in\n    tag_33:\n      mload(0x40)\n      dup1\n      swap2\n      sub\n      swap1\n      return\n        /* \"Insurance.sol\":1044:1409  function useInsurance(bytes32 _hash, uint amountUse) public onlyOwner returns(string memory)... */\n    tag_11:\n        /* \"Insurance.sol\":1122:1135  string memory */\n      0x60\n        /* \"Insurance.sol\":438:448  msg.sender */\n      caller\n        /* \"Insurance.sol\":431:448  Owner==msg.sender */\n      0xffffffffffffffffffffffffffffffffffffffff\n      and\n        /* \"Insurance.sol\":431:436  Owner */\n      0x02\n      0x00\n      swap1\n      sload\n      swap1\n      0x0100\n      exp\n      swap1\n      div\n      0xffffffffffffffffffffffffffffffffffffffff\n      and\n        /* \"Insurance.sol\":431:448  Owner==msg.sender */\n      0xffffffffffffffffffffffffffffffffffffffff\n      and\n      eq\n        /* \"Insurance.sol\":423:466  require(Owner==msg.sender,\"Only Owner can\") */\n      tag_36\n      jumpi\n      mload(0x40)\n      0x08c379a000000000000000000000000000000000000000000000000000000000\n      dup2\n      mstore\n      0x04\n      add\n      tag_37\n      swap1\n      tag_38\n      jump\t// in\n    tag_37:\n      mload(0x40)\n      dup1\n      swap2\n      sub\n      swap1\n      revert\n    tag_36:\n        /* \"Insurance.sol\":1161:1174  doctorMapping */\n      0x01\n        /* \"Insurance.sol\":1161:1186  doctorMapping[msg.sender] */\n      0x00\n        /* \"Insurance.sol\":1175:1185  msg.sender */\n      caller\n        /* \"Insurance.sol\":1161:1186  doctorMapping[msg.sender] */\n      0xffffffffffffffffffffffffffffffffffffffff\n      and\n      0xffffffffffffffffffffffffffffffffffffffff\n      and\n      dup2\n      mstore\n      0x20\n      add\n      swap1\n      dup2\n      mstore\n      0x20\n      add\n      0x00\n      keccak256\n      0x00\n      swap1\n      sload\n      swap1\n      0x0100\n      exp\n      swap1\n      div\n      0xff\n      and\n        /* \"Insurance.sol\":1153:1220  require(doctorMapping[msg.sender], \"Only doctor can use insurance\") */\n      tag_40\n      jumpi\n      mload(0x40)\n      0x08c379a000000000000000000000000000000000000000000000000000000000\n      dup2\n      mstore\n      0x04\n      add\n      tag_41\n      swap1\n      tag_42\n      jump\t// in\n    tag_41:\n      mload(0x40)\n      dup1\n      swap2\n      sub\n      swap1\n      revert\n    tag_40:\n        /* \"Insurance.sol\":1276:1285  amountUse */\n      dup2\n        /* \"Insurance.sol\":1239:1250  userMapping */\n      0x00\n        /* \"Insurance.sol\":1239:1257  userMapping[_hash] */\n      dup1\n        /* \"Insurance.sol\":1251:1256  _hash */\n      dup6\n        /* \"Insurance.sol\":1239:1257  userMapping[_hash] */\n      dup2\n      mstore\n      0x20\n      add\n      swap1\n      dup2\n      mstore\n      0x20\n      add\n      0x00\n      keccak256\n        /* \"Insurance.sol\":1239:1272  userMapping[_hash].Insured_Amount */\n      0x02\n      add\n      sload\n        /* \"Insurance.sol\":1239:1285  userMapping[_hash].Insured_Amount >= amountUse */\n      lt\n      iszero\n        /* \"Insurance.sol\":1231:1317  require(userMapping[_hash].Insured_Amount >= amountUse, \"Insufficient insured amount\") */\n      tag_43\n      jumpi\n      mload(0x40)\n      0x08c379a000000000000000000000000000000000000000000000000000000000\n      dup2\n      mstore\n      0x04\n      add\n      tag_44\n      swap1\n      tag_45\n      jump\t// in\n    tag_44:\n      mload(0x40)\n      dup1\n      swap2\n      sub\n      swap1\n      revert\n    tag_43:\n        /* \"Insurance.sol\":1365:1374  amountUse */\n      dup2\n        /* \"Insurance.sol\":1328:1339  userMapping */\n      0x00\n        /* \"Insurance.sol\":1328:1346  userMapping[_hash] */\n      dup1\n        /* \"Insurance.sol\":1340:1345  _hash */\n      dup6\n        /* \"Insurance.sol\":1328:1346  userMapping[_hash] */\n      dup2\n      mstore\n      0x20\n      add\n      swap1\n      dup2\n      mstore\n      0x20\n      add\n      0x00\n      keccak256\n        /* \"Insurance.sol\":1328:1361  userMapping[_hash].Insured_Amount */\n      0x02\n      add\n      0x00\n        /* \"Insurance.sol\":1328:1374  userMapping[_hash].Insured_Amount -= amountUse */\n      dup3\n      dup3\n      sload\n      tag_46\n      swap2\n      swap1\n      tag_47\n      jump\t// in\n    tag_46:\n      swap3\n      pop\n      pop\n      dup2\n      swap1\n      sstore\n      pop\n        /* \"Insurance.sol\":1385:1401  return \"Success\" */\n      mload(0x40)\n      dup1\n      0x40\n      add\n      0x40\n      mstore\n      dup1\n      0x07\n      dup2\n      mstore\n      0x20\n      add\n      0x5375636365737300000000000000000000000000000000000000000000000000\n      dup2\n      mstore\n      pop\n      swap1\n      pop\n        /* \"Insurance.sol\":1044:1409  function useInsurance(bytes32 _hash, uint amountUse) public onlyOwner returns(string memory)... */\n      swap3\n      swap2\n      pop\n      pop\n      jump\t// out\n        /* \"Insurance.sol\":494:634  function setDoctor(address adrs) public onlyOwner... */\n    tag_17:\n        /* \"Insurance.sol\":438:448  msg.sender */\n      caller\n        /* \"Insurance.sol\":431:448  Owner==msg.sender */\n      0xffffffffffffffffffffffffffffffffffffffff\n      and\n        /* \"Insurance.sol\":431:436  Owner */\n      0x02\n      0x00\n      swap1\n      sload\n      swap1\n      0x0100\n      exp\n      swap1\n      div\n      0xffffffffffffffffffffffffffffffffffffffff\n      and\n        /* \"Insurance.sol\":431:448  Owner==msg.sender */\n      0xffffffffffffffffffffffffffffffffffffffff\n      and\n      eq\n        /* \"Insurance.sol\":423:466  require(Owner==msg.sender,\"Only Owner can\") */\n      tag_49\n      jumpi\n      mload(0x40)\n      0x08c379a000000000000000000000000000000000000000000000000000000000\n      dup2\n      mstore\n      0x04\n      add\n      tag_50\n      swap1\n      tag_38\n      jump\t// in\n    tag_50:\n      mload(0x40)\n      dup1\n      swap2\n      sub\n      swap1\n      revert\n    tag_49:\n        /* \"Insurance.sol\":569:582  doctorMapping */\n      0x01\n        /* \"Insurance.sol\":569:588  doctorMapping[adrs] */\n      0x00\n        /* \"Insurance.sol\":583:587  adrs */\n      dup3\n        /* \"Insurance.sol\":569:588  doctorMapping[adrs] */\n      0xffffffffffffffffffffffffffffffffffffffff\n      and\n      0xffffffffffffffffffffffffffffffffffffffff\n      and\n      dup2\n      mstore\n      0x20\n      add\n      swap1\n      dup2\n      mstore\n      0x20\n      add\n      0x00\n      keccak256\n      0x00\n      swap1\n      sload\n      swap1\n      0x0100\n      exp\n      swap1\n      div\n      0xff\n      and\n        /* \"Insurance.sol\":568:588  !doctorMapping[adrs] */\n      iszero\n        /* \"Insurance.sol\":560:589  require(!doctorMapping[adrs]) */\n      tag_52\n      jumpi\n      0x00\n      dup1\n      revert\n    tag_52:\n        /* \"Insurance.sol\":622:626  true */\n      0x01\n        /* \"Insurance.sol\":600:613  doctorMapping */\n      dup1\n        /* \"Insurance.sol\":600:619  doctorMapping[adrs] */\n      0x00\n        /* \"Insurance.sol\":614:618  adrs */\n      dup4\n        /* \"Insurance.sol\":600:619  doctorMapping[adrs] */\n      0xffffffffffffffffffffffffffffffffffffffff\n      and\n      0xffffffffffffffffffffffffffffffffffffffff\n      and\n      dup2\n      mstore\n      0x20\n      add\n      swap1\n      dup2\n      mstore\n      0x20\n      add\n      0x00\n      keccak256\n      0x00\n        /* \"Insurance.sol\":600:626  doctorMapping[adrs] = true */\n      0x0100\n      exp\n      dup2\n      sload\n      dup2\n      0xff\n      mul\n      not\n      and\n      swap1\n      dup4\n      iszero\n      iszero\n      mul\n      or\n      swap1\n      sstore\n      pop\n        /* \"Insurance.sol\":494:634  function setDoctor(address adrs) public onlyOwner... */\n      pop\n      jump\t// out\n        /* \"Insurance.sol\":196:240  mapping (bytes32 => user) public userMapping */\n    tag_21:\n      mstore(0x20, 0x00)\n      dup1\n      0x00\n      mstore\n      keccak256(0x00, 0x40)\n      0x00\n      swap2\n      pop\n      swap1\n      pop\n      dup1\n      0x00\n      add\n      0x00\n      swap1\n      sload\n      swap1\n      0x0100\n      exp\n      swap1\n      div\n      0xff\n      and\n      swap1\n      dup1\n      0x01\n      add\n      dup1\n      sload\n      tag_53\n      swap1\n      tag_54\n      jump\t// in\n    tag_53:\n      dup1\n      0x1f\n      add\n      0x20\n      dup1\n      swap2\n      div\n      mul\n      0x20\n      add\n      mload(0x40)\n      swap1\n      dup2\n      add\n      0x40\n      mstore\n      dup1\n      swap3\n      swap2\n      swap1\n      dup2\n      dup2\n      mstore\n      0x20\n      add\n      dup3\n      dup1\n      sload\n      tag_55\n      swap1\n      tag_54\n      jump\t// in\n    tag_55:\n      dup1\n      iszero\n      tag_56\n      jumpi\n      dup1\n      0x1f\n      lt\n      tag_57\n      jumpi\n      0x0100\n      dup1\n      dup4\n      sload\n      div\n      mul\n      dup4\n      mstore\n      swap2\n      0x20\n      add\n      swap2\n      jump(tag_56)\n    tag_57:\n      dup3\n      add\n      swap2\n      swap1\n      0x00\n      mstore\n      keccak256(0x00, 0x20)\n      swap1\n    tag_58:\n      dup2\n      sload\n      dup2\n      mstore\n      swap1\n      0x01\n      add\n      swap1\n      0x20\n      add\n      dup1\n      dup4\n      gt\n      tag_58\n      jumpi\n      dup3\n      swap1\n      sub\n      0x1f\n      and\n      dup3\n      add\n      swap2\n    tag_56:\n      pop\n      pop\n      pop\n      pop\n      pop\n      swap1\n      dup1\n      0x02\n      add\n      sload\n      swap1\n      pop\n      dup4\n      jump\t// out\n        /* \"Insurance.sol\":247:293  mapping (address => bool) public doctorMapping */\n    tag_26:\n      mstore(0x20, 0x01)\n      dup1\n      0x00\n      mstore\n      keccak256(0x00, 0x40)\n      0x00\n      swap2\n      pop\n      sload\n      swap1\n      0x0100\n      exp\n      swap1\n      div\n      0xff\n      and\n      dup2\n      jump\t// out\n        /* \"Insurance.sol\":642:1036  function setUser(string memory _name, uint _Insured_Amount) public onlyOwner returns(bytes32)... */\n    tag_32:\n        /* \"Insurance.sol\":727:734  bytes32 */\n      0x00\n        /* \"Insurance.sol\":438:448  msg.sender */\n      caller\n        /* \"Insurance.sol\":431:448  Owner==msg.sender */\n      0xffffffffffffffffffffffffffffffffffffffff\n      and\n        /* \"Insurance.sol\":431:436  Owner */\n      0x02\n      0x00\n      swap1\n      sload\n      swap1\n      0x0100\n      exp\n      swap1\n      div\n      0xffffffffffffffffffffffffffffffffffffffff\n      and\n        /* \"Insurance.sol\":431:448  Owner==msg.sender */\n      0xffffffffffffffffffffffffffffffffffffffff\n      and\n      eq\n        /* \"Insurance.sol\":423:466  require(Owner==msg.sender,\"Only Owner can\") */\n      tag_60\n      jumpi\n      mload(0x40)\n      0x08c379a000000000000000000000000000000000000000000000000000000000\n      dup2\n      mstore\n      0x04\n      add\n      tag_61\n      swap1\n      tag_38\n      jump\t// in\n    tag_61:\n      mload(0x40)\n      dup1\n      swap2\n      sub\n      swap1\n      revert\n    tag_60:\n        /* \"Insurance.sol\":752:764  bytes32 hash */\n      0x00\n        /* \"Insurance.sol\":767:819  sha256(abi.encodePacked(msg.sender,block.timestamp)) */\n      0x02\n        /* \"Insurance.sol\":791:801  msg.sender */\n      caller\n        /* \"Insurance.sol\":802:817  block.timestamp */\n      timestamp\n        /* \"Insurance.sol\":774:818  abi.encodePacked(msg.sender,block.timestamp) */\n      add(0x20, mload(0x40))\n      tag_63\n      swap3\n      swap2\n      swap1\n      tag_64\n      jump\t// in\n    tag_63:\n      mload(0x40)\n      0x20\n      dup2\n      dup4\n      sub\n      sub\n      dup2\n      mstore\n      swap1\n      0x40\n      mstore\n        /* \"Insurance.sol\":767:819  sha256(abi.encodePacked(msg.sender,block.timestamp)) */\n      mload(0x40)\n      tag_65\n      swap2\n      swap1\n      tag_66\n      jump\t// in\n    tag_65:\n      0x20\n      mload(0x40)\n      dup1\n      dup4\n      sub\n      dup2\n      dup6\n      gas\n      staticcall\n      iszero\n      dup1\n      iszero\n      tag_68\n      jumpi\n      returndatasize\n      0x00\n      dup1\n      returndatacopy\n      revert(0x00, returndatasize)\n    tag_68:\n      pop\n      pop\n      pop\n      mload(0x40)\n      returndatasize\n      not(0x1f)\n      0x1f\n      dup3\n      add\n      and\n      dup3\n      add\n      dup1\n      0x40\n      mstore\n      pop\n      dup2\n      add\n      swap1\n      tag_69\n      swap2\n      swap1\n      tag_70\n      jump\t// in\n    tag_69:\n        /* \"Insurance.sol\":752:819  bytes32 hash = sha256(abi.encodePacked(msg.sender,block.timestamp)) */\n      swap1\n      pop\n        /* \"Insurance.sol\":839:850  userMapping */\n      0x00\n        /* \"Insurance.sol\":839:856  userMapping[hash] */\n      dup1\n        /* \"Insurance.sol\":851:855  hash */\n      dup3\n        /* \"Insurance.sol\":839:856  userMapping[hash] */\n      dup2\n      mstore\n      0x20\n      add\n      swap1\n      dup2\n      mstore\n      0x20\n      add\n      0x00\n      keccak256\n        /* \"Insurance.sol\":839:862  userMapping[hash].isUID */\n      0x00\n      add\n      0x00\n      swap1\n      sload\n      swap1\n      0x0100\n      exp\n      swap1\n      div\n      0xff\n      and\n        /* \"Insurance.sol\":838:862  !userMapping[hash].isUID */\n      iszero\n        /* \"Insurance.sol\":830:863  require(!userMapping[hash].isUID) */\n      tag_71\n      jumpi\n      0x00\n      dup1\n      revert\n    tag_71:\n        /* \"Insurance.sol\":900:904  true */\n      0x01\n        /* \"Insurance.sol\":874:885  userMapping */\n      0x00\n        /* \"Insurance.sol\":874:891  userMapping[hash] */\n      dup1\n        /* \"Insurance.sol\":886:890  hash */\n      dup4\n        /* \"Insurance.sol\":874:891  userMapping[hash] */\n      dup2\n      mstore\n      0x20\n      add\n      swap1\n      dup2\n      mstore\n      0x20\n      add\n      0x00\n      keccak256\n        /* \"Insurance.sol\":874:897  userMapping[hash].isUID */\n      0x00\n      add\n      0x00\n        /* \"Insurance.sol\":874:904  userMapping[hash].isUID = true */\n      0x0100\n      exp\n      dup2\n      sload\n      dup2\n      0xff\n      mul\n      not\n      and\n      swap1\n      dup4\n      iszero\n      iszero\n      mul\n      or\n      swap1\n      sstore\n      pop\n        /* \"Insurance.sol\":940:945  _name */\n      dup4\n        /* \"Insurance.sol\":915:926  userMapping */\n      0x00\n        /* \"Insurance.sol\":915:932  userMapping[hash] */\n      dup1\n        /* \"Insurance.sol\":927:931  hash */\n      dup4\n        /* \"Insurance.sol\":915:932  userMapping[hash] */\n      dup2\n      mstore\n      0x20\n      add\n      swap1\n      dup2\n      mstore\n      0x20\n      add\n      0x00\n      keccak256\n        /* \"Insurance.sol\":915:937  userMapping[hash].name */\n      0x01\n      add\n        /* \"Insurance.sol\":915:945  userMapping[hash].name = _name */\n      swap1\n      dup2\n      tag_72\n      swap2\n      swap1\n      tag_73\n      jump\t// in\n    tag_72:\n      pop\n        /* \"Insurance.sol\":991:1006  _Insured_Amount */\n      dup3\n        /* \"Insurance.sol\":956:967  userMapping */\n      0x00\n        /* \"Insurance.sol\":956:973  userMapping[hash] */\n      dup1\n        /* \"Insurance.sol\":968:972  hash */\n      dup4\n        /* \"Insurance.sol\":956:973  userMapping[hash] */\n      dup2\n      mstore\n      0x20\n      add\n      swap1\n      dup2\n      mstore\n      0x20\n      add\n      0x00\n      keccak256\n        /* \"Insurance.sol\":956:988  userMapping[hash].Insured_Amount */\n      0x02\n      add\n        /* \"Insurance.sol\":956:1006  userMapping[hash].Insured_Amount = _Insured_Amount */\n      dup2\n      swap1\n      sstore\n      pop\n        /* \"Insurance.sol\":1024:1028  hash */\n      dup1\n        /* \"Insurance.sol\":1017:1028  return hash */\n      swap2\n      pop\n      pop\n        /* \"Insurance.sol\":642:1036  function setUser(string memory _name, uint _Insured_Amount) public onlyOwner returns(bytes32)... */\n      swap3\n      swap2\n      pop\n      pop\n      jump\t// out\n        /* \"#utility.yul\":7:82   */\n    tag_74:\n        /* \"#utility.yul\":40:46   */\n      0x00\n        /* \"#utility.yul\":73:75   */\n      0x40\n        /* \"#utility.yul\":67:76   */\n      mload\n        /* \"#utility.yul\":57:76   */\n      swap1\n      pop\n        /* \"#utility.yul\":7:82   */\n      swap1\n      jump\t// out\n        /* \"#utility.yul\":88:205   */\n    tag_75:\n        /* \"#utility.yul\":197:198   */\n      0x00\n        /* \"#utility.yul\":194:195   */\n      dup1\n        /* \"#utility.yul\":187:199   */\n      revert\n        /* \"#utility.yul\":211:328   */\n    tag_76:\n        /* \"#utility.yul\":320:321   */\n      0x00\n        /* \"#utility.yul\":317:318   */\n      dup1\n        /* \"#utility.yul\":310:322   */\n      revert\n        /* \"#utility.yul\":334:411   */\n    tag_77:\n        /* \"#utility.yul\":371:378   */\n      0x00\n        /* \"#utility.yul\":400:405   */\n      dup2\n        /* \"#utility.yul\":389:405   */\n      swap1\n      pop\n        /* \"#utility.yul\":334:411   */\n      swap2\n      swap1\n      pop\n      jump\t// out\n        /* \"#utility.yul\":417:539   */\n    tag_78:\n        /* \"#utility.yul\":490:514   */\n      tag_144\n        /* \"#utility.yul\":508:513   */\n      dup2\n        /* \"#utility.yul\":490:514   */\n      tag_77\n      jump\t// in\n    tag_144:\n        /* \"#utility.yul\":483:488   */\n      dup2\n        /* \"#utility.yul\":480:515   */\n      eq\n        /* \"#utility.yul\":470:533   */\n      tag_145\n      jumpi\n        /* \"#utility.yul\":529:530   */\n      0x00\n        /* \"#utility.yul\":526:527   */\n      dup1\n        /* \"#utility.yul\":519:531   */\n      revert\n        /* \"#utility.yul\":470:533   */\n    tag_145:\n        /* \"#utility.yul\":417:539   */\n      pop\n      jump\t// out\n        /* \"#utility.yul\":545:684   */\n    tag_79:\n        /* \"#utility.yul\":591:596   */\n      0x00\n        /* \"#utility.yul\":629:635   */\n      dup2\n        /* \"#utility.yul\":616:636   */\n      calldataload\n        /* \"#utility.yul\":607:636   */\n      swap1\n      pop\n        /* \"#utility.yul\":645:678   */\n      tag_147\n        /* \"#utility.yul\":672:677   */\n      dup2\n        /* \"#utility.yul\":645:678   */\n      tag_78\n      jump\t// in\n    tag_147:\n        /* \"#utility.yul\":545:684   */\n      swap3\n      swap2\n      pop\n      pop\n      jump\t// out\n        /* \"#utility.yul\":690:767   */\n    tag_80:\n        /* \"#utility.yul\":727:734   */\n      0x00\n        /* \"#utility.yul\":756:761   */\n      dup2\n        /* \"#utility.yul\":745:761   */\n      swap1\n      pop\n        /* \"#utility.yul\":690:767   */\n      swap2\n      swap1\n      pop\n      jump\t// out\n        /* \"#utility.yul\":773:895   */\n    tag_81:\n        /* \"#utility.yul\":846:870   */\n      tag_150\n        /* \"#utility.yul\":864:869   */\n      dup2\n        /* \"#utility.yul\":846:870   */\n      tag_80\n      jump\t// in\n    tag_150:\n        /* \"#utility.yul\":839:844   */\n      dup2\n        /* \"#utility.yul\":836:871   */\n      eq\n        /* \"#utility.yul\":826:889   */\n      tag_151\n      jumpi\n        /* \"#utility.yul\":885:886   */\n      0x00\n        /* \"#utility.yul\":882:883   */\n      dup1\n        /* \"#utility.yul\":875:887   */\n      revert\n        /* \"#utility.yul\":826:889   */\n    tag_151:\n        /* \"#utility.yul\":773:895   */\n      pop\n      jump\t// out\n        /* \"#utility.yul\":901:1040   */\n    tag_82:\n        /* \"#utility.yul\":947:952   */\n      0x00\n        /* \"#utility.yul\":985:991   */\n      dup2\n        /* \"#utility.yul\":972:992   */\n      calldataload\n        /* \"#utility.yul\":963:992   */\n      swap1\n      pop\n        /* \"#utility.yul\":1001:1034   */\n      tag_153\n        /* \"#utility.yul\":1028:1033   */\n      dup2\n        /* \"#utility.yul\":1001:1034   */\n      tag_81\n      jump\t// in\n    tag_153:\n        /* \"#utility.yul\":901:1040   */\n      swap3\n      swap2\n      pop\n      pop\n      jump\t// out\n        /* \"#utility.yul\":1046:1520   */\n    tag_10:\n        /* \"#utility.yul\":1114:1120   */\n      0x00\n        /* \"#utility.yul\":1122:1128   */\n      dup1\n        /* \"#utility.yul\":1171:1173   */\n      0x40\n        /* \"#utility.yul\":1159:1168   */\n      dup4\n        /* \"#utility.yul\":1150:1157   */\n      dup6\n        /* \"#utility.yul\":1146:1169   */\n      sub\n        /* \"#utility.yul\":1142:1174   */\n      slt\n        /* \"#utility.yul\":1139:1258   */\n      iszero\n      tag_155\n      jumpi\n        /* \"#utility.yul\":1177:1256   */\n      tag_156\n      tag_75\n      jump\t// in\n    tag_156:\n        /* \"#utility.yul\":1139:1258   */\n    tag_155:\n        /* \"#utility.yul\":1297:1298   */\n      0x00\n        /* \"#utility.yul\":1322:1375   */\n      tag_157\n        /* \"#utility.yul\":1367:1374   */\n      dup6\n        /* \"#utility.yul\":1358:1364   */\n      dup3\n        /* \"#utility.yul\":1347:1356   */\n      dup7\n        /* \"#utility.yul\":1343:1365   */\n      add\n        /* \"#utility.yul\":1322:1375   */\n      tag_79\n      jump\t// in\n    tag_157:\n        /* \"#utility.yul\":1312:1375   */\n      swap3\n      pop\n        /* \"#utility.yul\":1268:1385   */\n      pop\n        /* \"#utility.yul\":1424:1426   */\n      0x20\n        /* \"#utility.yul\":1450:1503   */\n      tag_158\n        /* \"#utility.yul\":1495:1502   */\n      dup6\n        /* \"#utility.yul\":1486:1492   */\n      dup3\n        /* \"#utility.yul\":1475:1484   */\n      dup7\n        /* \"#utility.yul\":1471:1493   */\n      add\n        /* \"#utility.yul\":1450:1503   */\n      tag_82\n      jump\t// in\n    tag_158:\n        /* \"#utility.yul\":1440:1503   */\n      swap2\n      pop\n        /* \"#utility.yul\":1395:1513   */\n      pop\n        /* \"#utility.yul\":1046:1520   */\n      swap3\n      pop\n      swap3\n      swap1\n      pop\n      jump\t// out\n        /* \"#utility.yul\":1526:1625   */\n    tag_83:\n        /* \"#utility.yul\":1578:1584   */\n      0x00\n        /* \"#utility.yul\":1612:1617   */\n      dup2\n        /* \"#utility.yul\":1606:1618   */\n      mload\n        /* \"#utility.yul\":1596:1618   */\n      swap1\n      pop\n        /* \"#utility.yul\":1526:1625   */\n      swap2\n      swap1\n      pop\n      jump\t// out\n        /* \"#utility.yul\":1631:1800   */\n    tag_84:\n        /* \"#utility.yul\":1715:1726   */\n      0x00\n        /* \"#utility.yul\":1749:1755   */\n      dup3\n        /* \"#utility.yul\":1744:1747   */\n      dup3\n        /* \"#utility.yul\":1737:1756   */\n      mstore\n        /* \"#utility.yul\":1789:1793   */\n      0x20\n        /* \"#utility.yul\":1784:1787   */\n      dup3\n        /* \"#utility.yul\":1780:1794   */\n      add\n        /* \"#utility.yul\":1765:1794   */\n      swap1\n      pop\n        /* \"#utility.yul\":1631:1800   */\n      swap3\n      swap2\n      pop\n      pop\n      jump\t// out\n        /* \"#utility.yul\":1806:2052   */\n    tag_85:\n        /* \"#utility.yul\":1887:1888   */\n      0x00\n        /* \"#utility.yul\":1897:2010   */\n    tag_162:\n        /* \"#utility.yul\":1911:1917   */\n      dup4\n        /* \"#utility.yul\":1908:1909   */\n      dup2\n        /* \"#utility.yul\":1905:1918   */\n      lt\n        /* \"#utility.yul\":1897:2010   */\n      iszero\n      tag_164\n      jumpi\n        /* \"#utility.yul\":1996:1997   */\n      dup1\n        /* \"#utility.yul\":1991:1994   */\n      dup3\n        /* \"#utility.yul\":1987:1998   */\n      add\n        /* \"#utility.yul\":1981:1999   */\n      mload\n        /* \"#utility.yul\":1977:1978   */\n      dup2\n        /* \"#utility.yul\":1972:1975   */\n      dup5\n        /* \"#utility.yul\":1968:1979   */\n      add\n        /* \"#utility.yul\":1961:2000   */\n      mstore\n        /* \"#utility.yul\":1933:1935   */\n      0x20\n        /* \"#utility.yul\":1930:1931   */\n      dup2\n        /* \"#utility.yul\":1926:1936   */\n      add\n        /* \"#utility.yul\":1921:1936   */\n      swap1\n      pop\n        /* \"#utility.yul\":1897:2010   */\n      jump(tag_162)\n    tag_164:\n        /* \"#utility.yul\":2044:2045   */\n      0x00\n        /* \"#utility.yul\":2035:2041   */\n      dup5\n        /* \"#utility.yul\":2030:2033   */\n      dup5\n        /* \"#utility.yul\":2026:2042   */\n      add\n        /* \"#utility.yul\":2019:2046   */\n      mstore\n        /* \"#utility.yul\":1868:2052   */\n      pop\n        /* \"#utility.yul\":1806:2052   */\n      pop\n      pop\n      pop\n      jump\t// out\n        /* \"#utility.yul\":2058:2160   */\n    tag_86:\n        /* \"#utility.yul\":2099:2105   */\n      0x00\n        /* \"#utility.yul\":2150:2152   */\n      0x1f\n        /* \"#utility.yul\":2146:2153   */\n      not\n        /* \"#utility.yul\":2141:2143   */\n      0x1f\n        /* \"#utility.yul\":2134:2139   */\n      dup4\n        /* \"#utility.yul\":2130:2144   */\n      add\n        /* \"#utility.yul\":2126:2154   */\n      and\n        /* \"#utility.yul\":2116:2154   */\n      swap1\n      pop\n        /* \"#utility.yul\":2058:2160   */\n      swap2\n      swap1\n      pop\n      jump\t// out\n        /* \"#utility.yul\":2166:2543   */\n    tag_87:\n        /* \"#utility.yul\":2254:2257   */\n      0x00\n        /* \"#utility.yul\":2282:2321   */\n      tag_167\n        /* \"#utility.yul\":2315:2320   */\n      dup3\n        /* \"#utility.yul\":2282:2321   */\n      tag_83\n      jump\t// in\n    tag_167:\n        /* \"#utility.yul\":2337:2408   */\n      tag_168\n        /* \"#utility.yul\":2401:2407   */\n      dup2\n        /* \"#utility.yul\":2396:2399   */\n      dup6\n        /* \"#utility.yul\":2337:2408   */\n      tag_84\n      jump\t// in\n    tag_168:\n        /* \"#utility.yul\":2330:2408   */\n      swap4\n      pop\n        /* \"#utility.yul\":2417:2482   */\n      tag_169\n        /* \"#utility.yul\":2475:2481   */\n      dup2\n        /* \"#utility.yul\":2470:2473   */\n      dup6\n        /* \"#utility.yul\":2463:2467   */\n      0x20\n        /* \"#utility.yul\":2456:2461   */\n      dup7\n        /* \"#utility.yul\":2452:2468   */\n      add\n        /* \"#utility.yul\":2417:2482   */\n      tag_85\n      jump\t// in\n    tag_169:\n        /* \"#utility.yul\":2507:2536   */\n      tag_170\n        /* \"#utility.yul\":2529:2535   */\n      dup2\n        /* \"#utility.yul\":2507:2536   */\n      tag_86\n      jump\t// in\n    tag_170:\n        /* \"#utility.yul\":2502:2505   */\n      dup5\n        /* \"#utility.yul\":2498:2537   */\n      add\n        /* \"#utility.yul\":2491:2537   */\n      swap2\n      pop\n        /* \"#utility.yul\":2258:2543   */\n      pop\n        /* \"#utility.yul\":2166:2543   */\n      swap3\n      swap2\n      pop\n      pop\n      jump\t// out\n        /* \"#utility.yul\":2549:2862   */\n    tag_13:\n        /* \"#utility.yul\":2662:2666   */\n      0x00\n        /* \"#utility.yul\":2700:2702   */\n      0x20\n        /* \"#utility.yul\":2689:2698   */\n      dup3\n        /* \"#utility.yul\":2685:2703   */\n      add\n        /* \"#utility.yul\":2677:2703   */\n      swap1\n      pop\n        /* \"#utility.yul\":2749:2758   */\n      dup2\n        /* \"#utility.yul\":2743:2747   */\n      dup2\n        /* \"#utility.yul\":2739:2759   */\n      sub\n        /* \"#utility.yul\":2735:2736   */\n      0x00\n        /* \"#utility.yul\":2724:2733   */\n      dup4\n        /* \"#utility.yul\":2720:2737   */\n      add\n        /* \"#utility.yul\":2713:2760   */\n      mstore\n        /* \"#utility.yul\":2777:2855   */\n      tag_172\n        /* \"#utility.yul\":2850:2854   */\n      dup2\n        /* \"#utility.yul\":2841:2847   */\n      dup5\n        /* \"#utility.yul\":2777:2855   */\n      tag_87\n      jump\t// in\n    tag_172:\n        /* \"#utility.yul\":2769:2855   */\n      swap1\n      pop\n        /* \"#utility.yul\":2549:2862   */\n      swap3\n      swap2\n      pop\n      pop\n      jump\t// out\n        /* \"#utility.yul\":2868:2994   */\n    tag_88:\n        /* \"#utility.yul\":2905:2912   */\n      0x00\n        /* \"#utility.yul\":2945:2987   */\n      0xffffffffffffffffffffffffffffffffffffffff\n        /* \"#utility.yul\":2938:2943   */\n      dup3\n        /* \"#utility.yul\":2934:2988   */\n      and\n        /* \"#utility.yul\":2923:2988   */\n      swap1\n      pop\n        /* \"#utility.yul\":2868:2994   */\n      swap2\n      swap1\n      pop\n      jump\t// out\n        /* \"#utility.yul\":3000:3096   */\n    tag_89:\n        /* \"#utility.yul\":3037:3044   */\n      0x00\n        /* \"#utility.yul\":3066:3090   */\n      tag_175\n        /* \"#utility.yul\":3084:3089   */\n      dup3\n        /* \"#utility.yul\":3066:3090   */\n      tag_88\n      jump\t// in\n    tag_175:\n        /* \"#utility.yul\":3055:3090   */\n      swap1\n      pop\n        /* \"#utility.yul\":3000:3096   */\n      swap2\n      swap1\n      pop\n      jump\t// out\n        /* \"#utility.yul\":3102:3224   */\n    tag_90:\n        /* \"#utility.yul\":3175:3199   */\n      tag_177\n        /* \"#utility.yul\":3193:3198   */\n      dup2\n        /* \"#utility.yul\":3175:3199   */\n      tag_89\n      jump\t// in\n    tag_177:\n        /* \"#utility.yul\":3168:3173   */\n      dup2\n        /* \"#utility.yul\":3165:3200   */\n      eq\n        /* \"#utility.yul\":3155:3218   */\n      tag_178\n      jumpi\n        /* \"#utility.yul\":3214:3215   */\n      0x00\n        /* \"#utility.yul\":3211:3212   */\n      dup1\n        /* \"#utility.yul\":3204:3216   */\n      revert\n        /* \"#utility.yul\":3155:3218   */\n    tag_178:\n        /* \"#utility.yul\":3102:3224   */\n      pop\n      jump\t// out\n        /* \"#utility.yul\":3230:3369   */\n    tag_91:\n        /* \"#utility.yul\":3276:3281   */\n      0x00\n        /* \"#utility.yul\":3314:3320   */\n      dup2\n        /* \"#utility.yul\":3301:3321   */\n      calldataload\n        /* \"#utility.yul\":3292:3321   */\n      swap1\n      pop\n        /* \"#utility.yul\":3330:3363   */\n      tag_180\n        /* \"#utility.yul\":3357:3362   */\n      dup2\n        /* \"#utility.yul\":3330:3363   */\n      tag_90\n      jump\t// in\n    tag_180:\n        /* \"#utility.yul\":3230:3369   */\n      swap3\n      swap2\n      pop\n      pop\n      jump\t// out\n        /* \"#utility.yul\":3375:3704   */\n    tag_16:\n        /* \"#utility.yul\":3434:3440   */\n      0x00\n        /* \"#utility.yul\":3483:3485   */\n      0x20\n        /* \"#utility.yul\":3471:3480   */\n      dup3\n        /* \"#utility.yul\":3462:3469   */\n      dup5\n        /* \"#utility.yul\":3458:3481   */\n      sub\n        /* \"#utility.yul\":3454:3486   */\n      slt\n        /* \"#utility.yul\":3451:3570   */\n      iszero\n      tag_182\n      jumpi\n        /* \"#utility.yul\":3489:3568   */\n      tag_183\n      tag_75\n      jump\t// in\n    tag_183:\n        /* \"#utility.yul\":3451:3570   */\n    tag_182:\n        /* \"#utility.yul\":3609:3610   */\n      0x00\n        /* \"#utility.yul\":3634:3687   */\n      tag_184\n        /* \"#utility.yul\":3679:3686   */\n      dup5\n        /* \"#utility.yul\":3670:3676   */\n      dup3\n        /* \"#utility.yul\":3659:3668   */\n      dup6\n        /* \"#utility.yul\":3655:3677   */\n      add\n        /* \"#utility.yul\":3634:3687   */\n      tag_91\n      jump\t// in\n    tag_184:\n        /* \"#utility.yul\":3624:3687   */\n      swap2\n      pop\n        /* \"#utility.yul\":3580:3697   */\n      pop\n        /* \"#utility.yul\":3375:3704   */\n      swap3\n      swap2\n      pop\n      pop\n      jump\t// out\n        /* \"#utility.yul\":3710:4039   */\n    tag_20:\n        /* \"#utility.yul\":3769:3775   */\n      0x00\n        /* \"#utility.yul\":3818:3820   */\n      0x20\n        /* \"#utility.yul\":3806:3815   */\n      dup3\n        /* \"#utility.yul\":3797:3804   */\n      dup5\n        /* \"#utility.yul\":3793:3816   */\n      sub\n        /* \"#utility.yul\":3789:3821   */\n      slt\n        /* \"#utility.yul\":3786:3905   */\n      iszero\n      tag_186\n      jumpi\n        /* \"#utility.yul\":3824:3903   */\n      tag_187\n      tag_75\n      jump\t// in\n    tag_187:\n        /* \"#utility.yul\":3786:3905   */\n    tag_186:\n        /* \"#utility.yul\":3944:3945   */\n      0x00\n        /* \"#utility.yul\":3969:4022   */\n      tag_188\n        /* \"#utility.yul\":4014:4021   */\n      dup5\n        /* \"#utility.yul\":4005:4011   */\n      dup3\n        /* \"#utility.yul\":3994:4003   */\n      dup6\n        /* \"#utility.yul\":3990:4012   */\n      add\n        /* \"#utility.yul\":3969:4022   */\n      tag_79\n      jump\t// in\n    tag_188:\n        /* \"#utility.yul\":3959:4022   */\n      swap2\n      pop\n        /* \"#utility.yul\":3915:4032   */\n      pop\n        /* \"#utility.yul\":3710:4039   */\n      swap3\n      swap2\n      pop\n      pop\n      jump\t// out\n        /* \"#utility.yul\":4045:4135   */\n    tag_92:\n        /* \"#utility.yul\":4079:4086   */\n      0x00\n        /* \"#utility.yul\":4122:4127   */\n      dup2\n        /* \"#utility.yul\":4115:4128   */\n      iszero\n        /* \"#utility.yul\":4108:4129   */\n      iszero\n        /* \"#utility.yul\":4097:4129   */\n      swap1\n      pop\n        /* \"#utility.yul\":4045:4135   */\n      swap2\n      swap1\n      pop\n      jump\t// out\n        /* \"#utility.yul\":4141:4250   */\n    tag_93:\n        /* \"#utility.yul\":4222:4243   */\n      tag_191\n        /* \"#utility.yul\":4237:4242   */\n      dup2\n        /* \"#utility.yul\":4222:4243   */\n      tag_92\n      jump\t// in\n    tag_191:\n        /* \"#utility.yul\":4217:4220   */\n      dup3\n        /* \"#utility.yul\":4210:4244   */\n      mstore\n        /* \"#utility.yul\":4141:4250   */\n      pop\n      pop\n      jump\t// out\n        /* \"#utility.yul\":4256:4374   */\n    tag_94:\n        /* \"#utility.yul\":4343:4367   */\n      tag_193\n        /* \"#utility.yul\":4361:4366   */\n      dup2\n        /* \"#utility.yul\":4343:4367   */\n      tag_80\n      jump\t// in\n    tag_193:\n        /* \"#utility.yul\":4338:4341   */\n      dup3\n        /* \"#utility.yul\":4331:4368   */\n      mstore\n        /* \"#utility.yul\":4256:4374   */\n      pop\n      pop\n      jump\t// out\n        /* \"#utility.yul\":4380:4901   */\n    tag_23:\n        /* \"#utility.yul\":4543:4547   */\n      0x00\n        /* \"#utility.yul\":4581:4583   */\n      0x60\n        /* \"#utility.yul\":4570:4579   */\n      dup3\n        /* \"#utility.yul\":4566:4584   */\n      add\n        /* \"#utility.yul\":4558:4584   */\n      swap1\n      pop\n        /* \"#utility.yul\":4594:4659   */\n      tag_195\n        /* \"#utility.yul\":4656:4657   */\n      0x00\n        /* \"#utility.yul\":4645:4654   */\n      dup4\n        /* \"#utility.yul\":4641:4658   */\n      add\n        /* \"#utility.yul\":4632:4638   */\n      dup7\n        /* \"#utility.yul\":4594:4659   */\n      tag_93\n      jump\t// in\n    tag_195:\n        /* \"#utility.yul\":4706:4715   */\n      dup2\n        /* \"#utility.yul\":4700:4704   */\n      dup2\n        /* \"#utility.yul\":4696:4716   */\n      sub\n        /* \"#utility.yul\":4691:4693   */\n      0x20\n        /* \"#utility.yul\":4680:4689   */\n      dup4\n        /* \"#utility.yul\":4676:4694   */\n      add\n        /* \"#utility.yul\":4669:4717   */\n      mstore\n        /* \"#utility.yul\":4734:4812   */\n      tag_196\n        /* \"#utility.yul\":4807:4811   */\n      dup2\n        /* \"#utility.yul\":4798:4804   */\n      dup6\n        /* \"#utility.yul\":4734:4812   */\n      tag_87\n      jump\t// in\n    tag_196:\n        /* \"#utility.yul\":4726:4812   */\n      swap1\n      pop\n        /* \"#utility.yul\":4822:4894   */\n      tag_197\n        /* \"#utility.yul\":4890:4892   */\n      0x40\n        /* \"#utility.yul\":4879:4888   */\n      dup4\n        /* \"#utility.yul\":4875:4893   */\n      add\n        /* \"#utility.yul\":4866:4872   */\n      dup5\n        /* \"#utility.yul\":4822:4894   */\n      tag_94\n      jump\t// in\n    tag_197:\n        /* \"#utility.yul\":4380:4901   */\n      swap5\n      swap4\n      pop\n      pop\n      pop\n      pop\n      jump\t// out\n        /* \"#utility.yul\":4907:5117   */\n    tag_28:\n        /* \"#utility.yul\":4994:4998   */\n      0x00\n        /* \"#utility.yul\":5032:5034   */\n      0x20\n        /* \"#utility.yul\":5021:5030   */\n      dup3\n        /* \"#utility.yul\":5017:5035   */\n      add\n        /* \"#utility.yul\":5009:5035   */\n      swap1\n      pop\n        /* \"#utility.yul\":5045:5110   */\n      tag_199\n        /* \"#utility.yul\":5107:5108   */\n      0x00\n        /* \"#utility.yul\":5096:5105   */\n      dup4\n        /* \"#utility.yul\":5092:5109   */\n      add\n        /* \"#utility.yul\":5083:5089   */\n      dup5\n        /* \"#utility.yul\":5045:5110   */\n      tag_93\n      jump\t// in\n    tag_199:\n        /* \"#utility.yul\":4907:5117   */\n      swap3\n      swap2\n      pop\n      pop\n      jump\t// out\n        /* \"#utility.yul\":5123:5240   */\n    tag_95:\n        /* \"#utility.yul\":5232:5233   */\n      0x00\n        /* \"#utility.yul\":5229:5230   */\n      dup1\n        /* \"#utility.yul\":5222:5234   */\n      revert\n        /* \"#utility.yul\":5246:5363   */\n    tag_96:\n        /* \"#utility.yul\":5355:5356   */\n      0x00\n        /* \"#utility.yul\":5352:5353   */\n      dup1\n        /* \"#utility.yul\":5345:5357   */\n      revert\n        /* \"#utility.yul\":5369:5549   */\n    tag_97:\n        /* \"#utility.yul\":5417:5494   */\n      0x4e487b7100000000000000000000000000000000000000000000000000000000\n        /* \"#utility.yul\":5414:5415   */\n      0x00\n        /* \"#utility.yul\":5407:5495   */\n      mstore\n        /* \"#utility.yul\":5514:5518   */\n      0x41\n        /* \"#utility.yul\":5511:5512   */\n      0x04\n        /* \"#utility.yul\":5504:5519   */\n      mstore\n        /* \"#utility.yul\":5538:5542   */\n      0x24\n        /* \"#utility.yul\":5535:5536   */\n      0x00\n        /* \"#utility.yul\":5528:5543   */\n      revert\n        /* \"#utility.yul\":5555:5836   */\n    tag_98:\n        /* \"#utility.yul\":5638:5665   */\n      tag_204\n        /* \"#utility.yul\":5660:5664   */\n      dup3\n        /* \"#utility.yul\":5638:5665   */\n      tag_86\n      jump\t// in\n    tag_204:\n        /* \"#utility.yul\":5630:5636   */\n      dup2\n        /* \"#utility.yul\":5626:5666   */\n      add\n        /* \"#utility.yul\":5768:5774   */\n      dup2\n        /* \"#utility.yul\":5756:5766   */\n      dup2\n        /* \"#utility.yul\":5753:5775   */\n      lt\n        /* \"#utility.yul\":5732:5750   */\n      0xffffffffffffffff\n        /* \"#utility.yul\":5720:5730   */\n      dup3\n        /* \"#utility.yul\":5717:5751   */\n      gt\n        /* \"#utility.yul\":5714:5776   */\n      or\n        /* \"#utility.yul\":5711:5799   */\n      iszero\n      tag_205\n      jumpi\n        /* \"#utility.yul\":5779:5797   */\n      tag_206\n      tag_97\n      jump\t// in\n    tag_206:\n        /* \"#utility.yul\":5711:5799   */\n    tag_205:\n        /* \"#utility.yul\":5819:5829   */\n      dup1\n        /* \"#utility.yul\":5815:5817   */\n      0x40\n        /* \"#utility.yul\":5808:5830   */\n      mstore\n        /* \"#utility.yul\":5598:5836   */\n      pop\n        /* \"#utility.yul\":5555:5836   */\n      pop\n      pop\n      jump\t// out\n        /* \"#utility.yul\":5842:5971   */\n    tag_99:\n        /* \"#utility.yul\":5876:5882   */\n      0x00\n        /* \"#utility.yul\":5903:5923   */\n      tag_208\n      tag_74\n      jump\t// in\n    tag_208:\n        /* \"#utility.yul\":5893:5923   */\n      swap1\n      pop\n        /* \"#utility.yul\":5932:5965   */\n      tag_209\n        /* \"#utility.yul\":5960:5964   */\n      dup3\n        /* \"#utility.yul\":5952:5958   */\n      dup3\n        /* \"#utility.yul\":5932:5965   */\n      tag_98\n      jump\t// in\n    tag_209:\n        /* \"#utility.yul\":5842:5971   */\n      swap2\n      swap1\n      pop\n      jump\t// out\n        /* \"#utility.yul\":5977:6285   */\n    tag_100:\n        /* \"#utility.yul\":6039:6043   */\n      0x00\n        /* \"#utility.yul\":6129:6147   */\n      0xffffffffffffffff\n        /* \"#utility.yul\":6121:6127   */\n      dup3\n        /* \"#utility.yul\":6118:6148   */\n      gt\n        /* \"#utility.yul\":6115:6171   */\n      iszero\n      tag_211\n      jumpi\n        /* \"#utility.yul\":6151:6169   */\n      tag_212\n      tag_97\n      jump\t// in\n    tag_212:\n        /* \"#utility.yul\":6115:6171   */\n    tag_211:\n        /* \"#utility.yul\":6189:6218   */\n      tag_213\n        /* \"#utility.yul\":6211:6217   */\n      dup3\n        /* \"#utility.yul\":6189:6218   */\n      tag_86\n      jump\t// in\n    tag_213:\n        /* \"#utility.yul\":6181:6218   */\n      swap1\n      pop\n        /* \"#utility.yul\":6273:6277   */\n      0x20\n        /* \"#utility.yul\":6267:6271   */\n      dup2\n        /* \"#utility.yul\":6263:6278   */\n      add\n        /* \"#utility.yul\":6255:6278   */\n      swap1\n      pop\n        /* \"#utility.yul\":5977:6285   */\n      swap2\n      swap1\n      pop\n      jump\t// out\n        /* \"#utility.yul\":6291:6437   */\n    tag_101:\n        /* \"#utility.yul\":6388:6394   */\n      dup3\n        /* \"#utility.yul\":6383:6386   */\n      dup2\n        /* \"#utility.yul\":6378:6381   */\n      dup4\n        /* \"#utility.yul\":6365:6395   */\n      calldatacopy\n        /* \"#utility.yul\":6429:6430   */\n      0x00\n        /* \"#utility.yul\":6420:6426   */\n      dup4\n        /* \"#utility.yul\":6415:6418   */\n      dup4\n        /* \"#utility.yul\":6411:6427   */\n      add\n        /* \"#utility.yul\":6404:6431   */\n      mstore\n        /* \"#utility.yul\":6291:6437   */\n      pop\n      pop\n      pop\n      jump\t// out\n        /* \"#utility.yul\":6443:6868   */\n    tag_102:\n        /* \"#utility.yul\":6521:6526   */\n      0x00\n        /* \"#utility.yul\":6546:6612   */\n      tag_216\n        /* \"#utility.yul\":6562:6611   */\n      tag_217\n        /* \"#utility.yul\":6604:6610   */\n      dup5\n        /* \"#utility.yul\":6562:6611   */\n      tag_100\n      jump\t// in\n    tag_217:\n        /* \"#utility.yul\":6546:6612   */\n      tag_99\n      jump\t// in\n    tag_216:\n        /* \"#utility.yul\":6537:6612   */\n      swap1\n      pop\n        /* \"#utility.yul\":6635:6641   */\n      dup3\n        /* \"#utility.yul\":6628:6633   */\n      dup2\n        /* \"#utility.yul\":6621:6642   */\n      mstore\n        /* \"#utility.yul\":6673:6677   */\n      0x20\n        /* \"#utility.yul\":6666:6671   */\n      dup2\n        /* \"#utility.yul\":6662:6678   */\n      add\n        /* \"#utility.yul\":6711:6714   */\n      dup5\n        /* \"#utility.yul\":6702:6708   */\n      dup5\n        /* \"#utility.yul\":6697:6700   */\n      dup5\n        /* \"#utility.yul\":6693:6709   */\n      add\n        /* \"#utility.yul\":6690:6715   */\n      gt\n        /* \"#utility.yul\":6687:6799   */\n      iszero\n      tag_218\n      jumpi\n        /* \"#utility.yul\":6718:6797   */\n      tag_219\n      tag_96\n      jump\t// in\n    tag_219:\n        /* \"#utility.yul\":6687:6799   */\n    tag_218:\n        /* \"#utility.yul\":6808:6862   */\n      tag_220\n        /* \"#utility.yul\":6855:6861   */\n      dup5\n        /* \"#utility.yul\":6850:6853   */\n      dup3\n        /* \"#utility.yul\":6845:6848   */\n      dup6\n        /* \"#utility.yul\":6808:6862   */\n      tag_101\n      jump\t// in\n    tag_220:\n        /* \"#utility.yul\":6527:6868   */\n      pop\n        /* \"#utility.yul\":6443:6868   */\n      swap4\n      swap3\n      pop\n      pop\n      pop\n      jump\t// out\n        /* \"#utility.yul\":6888:7228   */\n    tag_103:\n        /* \"#utility.yul\":6944:6949   */\n      0x00\n        /* \"#utility.yul\":6993:6996   */\n      dup3\n        /* \"#utility.yul\":6986:6990   */\n      0x1f\n        /* \"#utility.yul\":6978:6984   */\n      dup4\n        /* \"#utility.yul\":6974:6991   */\n      add\n        /* \"#utility.yul\":6970:6997   */\n      slt\n        /* \"#utility.yul\":6960:7082   */\n      tag_222\n      jumpi\n        /* \"#utility.yul\":7001:7080   */\n      tag_223\n      tag_95\n      jump\t// in\n    tag_223:\n        /* \"#utility.yul\":6960:7082   */\n    tag_222:\n        /* \"#utility.yul\":7118:7124   */\n      dup2\n        /* \"#utility.yul\":7105:7125   */\n      calldataload\n        /* \"#utility.yul\":7143:7222   */\n      tag_224\n        /* \"#utility.yul\":7218:7221   */\n      dup5\n        /* \"#utility.yul\":7210:7216   */\n      dup3\n        /* \"#utility.yul\":7203:7207   */\n      0x20\n        /* \"#utility.yul\":7195:7201   */\n      dup7\n        /* \"#utility.yul\":7191:7208   */\n      add\n        /* \"#utility.yul\":7143:7222   */\n      tag_102\n      jump\t// in\n    tag_224:\n        /* \"#utility.yul\":7134:7222   */\n      swap2\n      pop\n        /* \"#utility.yul\":6950:7228   */\n      pop\n        /* \"#utility.yul\":6888:7228   */\n      swap3\n      swap2\n      pop\n      pop\n      jump\t// out\n        /* \"#utility.yul\":7234:7888   */\n    tag_31:\n        /* \"#utility.yul\":7312:7318   */\n      0x00\n        /* \"#utility.yul\":7320:7326   */\n      dup1\n        /* \"#utility.yul\":7369:7371   */\n      0x40\n        /* \"#utility.yul\":7357:7366   */\n      dup4\n        /* \"#utility.yul\":7348:7355   */\n      dup6\n        /* \"#utility.yul\":7344:7367   */\n      sub\n        /* \"#utility.yul\":7340:7372   */\n      slt\n        /* \"#utility.yul\":7337:7456   */\n      iszero\n      tag_226\n      jumpi\n        /* \"#utility.yul\":7375:7454   */\n      tag_227\n      tag_75\n      jump\t// in\n    tag_227:\n        /* \"#utility.yul\":7337:7456   */\n    tag_226:\n        /* \"#utility.yul\":7523:7524   */\n      0x00\n        /* \"#utility.yul\":7512:7521   */\n      dup4\n        /* \"#utility.yul\":7508:7525   */\n      add\n        /* \"#utility.yul\":7495:7526   */\n      calldataload\n        /* \"#utility.yul\":7553:7571   */\n      0xffffffffffffffff\n        /* \"#utility.yul\":7545:7551   */\n      dup2\n        /* \"#utility.yul\":7542:7572   */\n      gt\n        /* \"#utility.yul\":7539:7656   */\n      iszero\n      tag_228\n      jumpi\n        /* \"#utility.yul\":7575:7654   */\n      tag_229\n      tag_76\n      jump\t// in\n    tag_229:\n        /* \"#utility.yul\":7539:7656   */\n    tag_228:\n        /* \"#utility.yul\":7680:7743   */\n      tag_230\n        /* \"#utility.yul\":7735:7742   */\n      dup6\n        /* \"#utility.yul\":7726:7732   */\n      dup3\n        /* \"#utility.yul\":7715:7724   */\n      dup7\n        /* \"#utility.yul\":7711:7733   */\n      add\n        /* \"#utility.yul\":7680:7743   */\n      tag_103\n      jump\t// in\n    tag_230:\n        /* \"#utility.yul\":7670:7743   */\n      swap3\n      pop\n        /* \"#utility.yul\":7466:7753   */\n      pop\n        /* \"#utility.yul\":7792:7794   */\n      0x20\n        /* \"#utility.yul\":7818:7871   */\n      tag_231\n        /* \"#utility.yul\":7863:7870   */\n      dup6\n        /* \"#utility.yul\":7854:7860   */\n      dup3\n        /* \"#utility.yul\":7843:7852   */\n      dup7\n        /* \"#utility.yul\":7839:7861   */\n      add\n        /* \"#utility.yul\":7818:7871   */\n      tag_82\n      jump\t// in\n    tag_231:\n        /* \"#utility.yul\":7808:7871   */\n      swap2\n      pop\n        /* \"#utility.yul\":7763:7881   */\n      pop\n        /* \"#utility.yul\":7234:7888   */\n      swap3\n      pop\n      swap3\n      swap1\n      pop\n      jump\t// out\n        /* \"#utility.yul\":7894:8012   */\n    tag_104:\n        /* \"#utility.yul\":7981:8005   */\n      tag_233\n        /* \"#utility.yul\":7999:8004   */\n      dup2\n        /* \"#utility.yul\":7981:8005   */\n      tag_77\n      jump\t// in\n    tag_233:\n        /* \"#utility.yul\":7976:7979   */\n      dup3\n        /* \"#utility.yul\":7969:8006   */\n      mstore\n        /* \"#utility.yul\":7894:8012   */\n      pop\n      pop\n      jump\t// out\n        /* \"#utility.yul\":8018:8240   */\n    tag_34:\n        /* \"#utility.yul\":8111:8115   */\n      0x00\n        /* \"#utility.yul\":8149:8151   */\n      0x20\n        /* \"#utility.yul\":8138:8147   */\n      dup3\n        /* \"#utility.yul\":8134:8152   */\n      add\n        /* \"#utility.yul\":8126:8152   */\n      swap1\n      pop\n        /* \"#utility.yul\":8162:8233   */\n      tag_235\n        /* \"#utility.yul\":8230:8231   */\n      0x00\n        /* \"#utility.yul\":8219:8228   */\n      dup4\n        /* \"#utility.yul\":8215:8232   */\n      add\n        /* \"#utility.yul\":8206:8212   */\n      dup5\n        /* \"#utility.yul\":8162:8233   */\n      tag_104\n      jump\t// in\n    tag_235:\n        /* \"#utility.yul\":8018:8240   */\n      swap3\n      swap2\n      pop\n      pop\n      jump\t// out\n        /* \"#utility.yul\":8246:8410   */\n    tag_105:\n        /* \"#utility.yul\":8386:8402   */\n      0x4f6e6c79204f776e65722063616e000000000000000000000000000000000000\n        /* \"#utility.yul\":8382:8383   */\n      0x00\n        /* \"#utility.yul\":8374:8380   */\n      dup3\n        /* \"#utility.yul\":8370:8384   */\n      add\n        /* \"#utility.yul\":8363:8403   */\n      mstore\n        /* \"#utility.yul\":8246:8410   */\n      pop\n      jump\t// out\n        /* \"#utility.yul\":8416:8782   */\n    tag_106:\n        /* \"#utility.yul\":8558:8561   */\n      0x00\n        /* \"#utility.yul\":8579:8646   */\n      tag_238\n        /* \"#utility.yul\":8643:8645   */\n      0x0e\n        /* \"#utility.yul\":8638:8641   */\n      dup4\n        /* \"#utility.yul\":8579:8646   */\n      tag_84\n      jump\t// in\n    tag_238:\n        /* \"#utility.yul\":8572:8646   */\n      swap2\n      pop\n        /* \"#utility.yul\":8655:8748   */\n      tag_239\n        /* \"#utility.yul\":8744:8747   */\n      dup3\n        /* \"#utility.yul\":8655:8748   */\n      tag_105\n      jump\t// in\n    tag_239:\n        /* \"#utility.yul\":8773:8775   */\n      0x20\n        /* \"#utility.yul\":8768:8771   */\n      dup3\n        /* \"#utility.yul\":8764:8776   */\n      add\n        /* \"#utility.yul\":8757:8776   */\n      swap1\n      pop\n        /* \"#utility.yul\":8416:8782   */\n      swap2\n      swap1\n      pop\n      jump\t// out\n        /* \"#utility.yul\":8788:9207   */\n    tag_38:\n        /* \"#utility.yul\":8954:8958   */\n      0x00\n        /* \"#utility.yul\":8992:8994   */\n      0x20\n        /* \"#utility.yul\":8981:8990   */\n      dup3\n        /* \"#utility.yul\":8977:8995   */\n      add\n        /* \"#utility.yul\":8969:8995   */\n      swap1\n      pop\n        /* \"#utility.yul\":9041:9050   */\n      dup2\n        /* \"#utility.yul\":9035:9039   */\n      dup2\n        /* \"#utility.yul\":9031:9051   */\n      sub\n        /* \"#utility.yul\":9027:9028   */\n      0x00\n        /* \"#utility.yul\":9016:9025   */\n      dup4\n        /* \"#utility.yul\":9012:9029   */\n      add\n        /* \"#utility.yul\":9005:9052   */\n      mstore\n        /* \"#utility.yul\":9069:9200   */\n      tag_241\n        /* \"#utility.yul\":9195:9199   */\n      dup2\n        /* \"#utility.yul\":9069:9200   */\n      tag_106\n      jump\t// in\n    tag_241:\n        /* \"#utility.yul\":9061:9200   */\n      swap1\n      pop\n        /* \"#utility.yul\":8788:9207   */\n      swap2\n      swap1\n      pop\n      jump\t// out\n        /* \"#utility.yul\":9213:9392   */\n    tag_107:\n        /* \"#utility.yul\":9353:9384   */\n      0x4f6e6c7920646f63746f722063616e2075736520696e737572616e6365000000\n        /* \"#utility.yul\":9349:9350   */\n      0x00\n        /* \"#utility.yul\":9341:9347   */\n      dup3\n        /* \"#utility.yul\":9337:9351   */\n      add\n        /* \"#utility.yul\":9330:9385   */\n      mstore\n        /* \"#utility.yul\":9213:9392   */\n      pop\n      jump\t// out\n        /* \"#utility.yul\":9398:9764   */\n    tag_108:\n        /* \"#utility.yul\":9540:9543   */\n      0x00\n        /* \"#utility.yul\":9561:9628   */\n      tag_244\n        /* \"#utility.yul\":9625:9627   */\n      0x1d\n        /* \"#utility.yul\":9620:9623   */\n      dup4\n        /* \"#utility.yul\":9561:9628   */\n      tag_84\n      jump\t// in\n    tag_244:\n        /* \"#utility.yul\":9554:9628   */\n      swap2\n      pop\n        /* \"#utility.yul\":9637:9730   */\n      tag_245\n        /* \"#utility.yul\":9726:9729   */\n      dup3\n        /* \"#utility.yul\":9637:9730   */\n      tag_107\n      jump\t// in\n    tag_245:\n        /* \"#utility.yul\":9755:9757   */\n      0x20\n        /* \"#utility.yul\":9750:9753   */\n      dup3\n        /* \"#utility.yul\":9746:9758   */\n      add\n        /* \"#utility.yul\":9739:9758   */\n      swap1\n      pop\n        /* \"#utility.yul\":9398:9764   */\n      swap2\n      swap1\n      pop\n      jump\t// out\n        /* \"#utility.yul\":9770:10189   */\n    tag_42:\n        /* \"#utility.yul\":9936:9940   */\n      0x00\n        /* \"#utility.yul\":9974:9976   */\n      0x20\n        /* \"#utility.yul\":9963:9972   */\n      dup3\n        /* \"#utility.yul\":9959:9977   */\n      add\n        /* \"#utility.yul\":9951:9977   */\n      swap1\n      pop\n        /* \"#utility.yul\":10023:10032   */\n      dup2\n        /* \"#utility.yul\":10017:10021   */\n      dup2\n        /* \"#utility.yul\":10013:10033   */\n      sub\n        /* \"#utility.yul\":10009:10010   */\n      0x00\n        /* \"#utility.yul\":9998:10007   */\n      dup4\n        /* \"#utility.yul\":9994:10011   */\n      add\n        /* \"#utility.yul\":9987:10034   */\n      mstore\n        /* \"#utility.yul\":10051:10182   */\n      tag_247\n        /* \"#utility.yul\":10177:10181   */\n      dup2\n        /* \"#utility.yul\":10051:10182   */\n      tag_108\n      jump\t// in\n    tag_247:\n        /* \"#utility.yul\":10043:10182   */\n      swap1\n      pop\n        /* \"#utility.yul\":9770:10189   */\n      swap2\n      swap1\n      pop\n      jump\t// out\n        /* \"#utility.yul\":10195:10372   */\n    tag_109:\n        /* \"#utility.yul\":10335:10364   */\n      0x496e73756666696369656e7420696e737572656420616d6f756e740000000000\n        /* \"#utility.yul\":10331:10332   */\n      0x00\n        /* \"#utility.yul\":10323:10329   */\n      dup3\n        /* \"#utility.yul\":10319:10333   */\n      add\n        /* \"#utility.yul\":10312:10365   */\n      mstore\n        /* \"#utility.yul\":10195:10372   */\n      pop\n      jump\t// out\n        /* \"#utility.yul\":10378:10744   */\n    tag_110:\n        /* \"#utility.yul\":10520:10523   */\n      0x00\n        /* \"#utility.yul\":10541:10608   */\n      tag_250\n        /* \"#utility.yul\":10605:10607   */\n      0x1b\n        /* \"#utility.yul\":10600:10603   */\n      dup4\n        /* \"#utility.yul\":10541:10608   */\n      tag_84\n      jump\t// in\n    tag_250:\n        /* \"#utility.yul\":10534:10608   */\n      swap2\n      pop\n        /* \"#utility.yul\":10617:10710   */\n      tag_251\n        /* \"#utility.yul\":10706:10709   */\n      dup3\n        /* \"#utility.yul\":10617:10710   */\n      tag_109\n      jump\t// in\n    tag_251:\n        /* \"#utility.yul\":10735:10737   */\n      0x20\n        /* \"#utility.yul\":10730:10733   */\n      dup3\n        /* \"#utility.yul\":10726:10738   */\n      add\n        /* \"#utility.yul\":10719:10738   */\n      swap1\n      pop\n        /* \"#utility.yul\":10378:10744   */\n      swap2\n      swap1\n      pop\n      jump\t// out\n        /* \"#utility.yul\":10750:11169   */\n    tag_45:\n        /* \"#utility.yul\":10916:10920   */\n      0x00\n        /* \"#utility.yul\":10954:10956   */\n      0x20\n        /* \"#utility.yul\":10943:10952   */\n      dup3\n        /* \"#utility.yul\":10939:10957   */\n      add\n        /* \"#utility.yul\":10931:10957   */\n      swap1\n      pop\n        /* \"#utility.yul\":11003:11012   */\n      dup2\n        /* \"#utility.yul\":10997:11001   */\n      dup2\n        /* \"#utility.yul\":10993:11013   */\n      sub\n        /* \"#utility.yul\":10989:10990   */\n      0x00\n        /* \"#utility.yul\":10978:10987   */\n      dup4\n        /* \"#utility.yul\":10974:10991   */\n      add\n        /* \"#utility.yul\":10967:11014   */\n      mstore\n        /* \"#utility.yul\":11031:11162   */\n      tag_253\n        /* \"#utility.yul\":11157:11161   */\n      dup2\n        /* \"#utility.yul\":11031:11162   */\n      tag_110\n      jump\t// in\n    tag_253:\n        /* \"#utility.yul\":11023:11162   */\n      swap1\n      pop\n        /* \"#utility.yul\":10750:11169   */\n      swap2\n      swap1\n      pop\n      jump\t// out\n        /* \"#utility.yul\":11175:11355   */\n    tag_111:\n        /* \"#utility.yul\":11223:11300   */\n      0x4e487b7100000000000000000000000000000000000000000000000000000000\n        /* \"#utility.yul\":11220:11221   */\n      0x00\n        /* \"#utility.yul\":11213:11301   */\n      mstore\n        /* \"#utility.yul\":11320:11324   */\n      0x11\n        /* \"#utility.yul\":11317:11318   */\n      0x04\n        /* \"#utility.yul\":11310:11325   */\n      mstore\n        /* \"#utility.yul\":11344:11348   */\n      0x24\n        /* \"#utility.yul\":11341:11342   */\n      0x00\n        /* \"#utility.yul\":11334:11349   */\n      revert\n        /* \"#utility.yul\":11361:11555   */\n    tag_47:\n        /* \"#utility.yul\":11401:11405   */\n      0x00\n        /* \"#utility.yul\":11421:11441   */\n      tag_256\n        /* \"#utility.yul\":11439:11440   */\n      dup3\n        /* \"#utility.yul\":11421:11441   */\n      tag_80\n      jump\t// in\n    tag_256:\n        /* \"#utility.yul\":11416:11441   */\n      swap2\n      pop\n        /* \"#utility.yul\":11455:11475   */\n      tag_257\n        /* \"#utility.yul\":11473:11474   */\n      dup4\n        /* \"#utility.yul\":11455:11475   */\n      tag_80\n      jump\t// in\n    tag_257:\n        /* \"#utility.yul\":11450:11475   */\n      swap3\n      pop\n        /* \"#utility.yul\":11499:11500   */\n      dup3\n        /* \"#utility.yul\":11496:11497   */\n      dup3\n        /* \"#utility.yul\":11492:11501   */\n      sub\n        /* \"#utility.yul\":11484:11501   */\n      swap1\n      pop\n        /* \"#utility.yul\":11523:11524   */\n      dup2\n        /* \"#utility.yul\":11517:11521   */\n      dup2\n        /* \"#utility.yul\":11514:11525   */\n      gt\n        /* \"#utility.yul\":11511:11548   */\n      iszero\n      tag_258\n      jumpi\n        /* \"#utility.yul\":11528:11546   */\n      tag_259\n      tag_111\n      jump\t// in\n    tag_259:\n        /* \"#utility.yul\":11511:11548   */\n    tag_258:\n        /* \"#utility.yul\":11361:11555   */\n      swap3\n      swap2\n      pop\n      pop\n      jump\t// out\n        /* \"#utility.yul\":11561:11741   */\n    tag_112:\n        /* \"#utility.yul\":11609:11686   */\n      0x4e487b7100000000000000000000000000000000000000000000000000000000\n        /* \"#utility.yul\":11606:11607   */\n      0x00\n        /* \"#utility.yul\":11599:11687   */\n      mstore\n        /* \"#utility.yul\":11706:11710   */\n      0x22\n        /* \"#utility.yul\":11703:11704   */\n      0x04\n        /* \"#utility.yul\":11696:11711   */\n      mstore\n        /* \"#utility.yul\":11730:11734   */\n      0x24\n        /* \"#utility.yul\":11727:11728   */\n      0x00\n        /* \"#utility.yul\":11720:11735   */\n      revert\n        /* \"#utility.yul\":11747:12067   */\n    tag_54:\n        /* \"#utility.yul\":11791:11797   */\n      0x00\n        /* \"#utility.yul\":11828:11829   */\n      0x02\n        /* \"#utility.yul\":11822:11826   */\n      dup3\n        /* \"#utility.yul\":11818:11830   */\n      div\n        /* \"#utility.yul\":11808:11830   */\n      swap1\n      pop\n        /* \"#utility.yul\":11875:11876   */\n      0x01\n        /* \"#utility.yul\":11869:11873   */\n      dup3\n        /* \"#utility.yul\":11865:11877   */\n      and\n        /* \"#utility.yul\":11896:11914   */\n      dup1\n        /* \"#utility.yul\":11886:11967   */\n      tag_262\n      jumpi\n        /* \"#utility.yul\":11952:11956   */\n      0x7f\n        /* \"#utility.yul\":11944:11950   */\n      dup3\n        /* \"#utility.yul\":11940:11957   */\n      and\n        /* \"#utility.yul\":11930:11957   */\n      swap2\n      pop\n        /* \"#utility.yul\":11886:11967   */\n    tag_262:\n        /* \"#utility.yul\":12014:12016   */\n      0x20\n        /* \"#utility.yul\":12006:12012   */\n      dup3\n        /* \"#utility.yul\":12003:12017   */\n      lt\n        /* \"#utility.yul\":11983:12001   */\n      dup2\n        /* \"#utility.yul\":11980:12018   */\n      sub\n        /* \"#utility.yul\":11977:12061   */\n      tag_263\n      jumpi\n        /* \"#utility.yul\":12033:12051   */\n      tag_264\n      tag_112\n      jump\t// in\n    tag_264:\n        /* \"#utility.yul\":11977:12061   */\n    tag_263:\n        /* \"#utility.yul\":11798:12067   */\n      pop\n        /* \"#utility.yul\":11747:12067   */\n      swap2\n      swap1\n      pop\n      jump\t// out\n        /* \"#utility.yul\":12073:12167   */\n    tag_113:\n        /* \"#utility.yul\":12106:12114   */\n      0x00\n        /* \"#utility.yul\":12154:12159   */\n      dup2\n        /* \"#utility.yul\":12150:12152   */\n      0x60\n        /* \"#utility.yul\":12146:12160   */\n      shl\n        /* \"#utility.yul\":12125:12160   */\n      swap1\n      pop\n        /* \"#utility.yul\":12073:12167   */\n      swap2\n      swap1\n      pop\n      jump\t// out\n        /* \"#utility.yul\":12173:12267   */\n    tag_114:\n        /* \"#utility.yul\":12212:12219   */\n      0x00\n        /* \"#utility.yul\":12241:12261   */\n      tag_267\n        /* \"#utility.yul\":12255:12260   */\n      dup3\n        /* \"#utility.yul\":12241:12261   */\n      tag_113\n      jump\t// in\n    tag_267:\n        /* \"#utility.yul\":12230:12261   */\n      swap1\n      pop\n        /* \"#utility.yul\":12173:12267   */\n      swap2\n      swap1\n      pop\n      jump\t// out\n        /* \"#utility.yul\":12273:12373   */\n    tag_115:\n        /* \"#utility.yul\":12312:12319   */\n      0x00\n        /* \"#utility.yul\":12341:12367   */\n      tag_269\n        /* \"#utility.yul\":12361:12366   */\n      dup3\n        /* \"#utility.yul\":12341:12367   */\n      tag_114\n      jump\t// in\n    tag_269:\n        /* \"#utility.yul\":12330:12367   */\n      swap1\n      pop\n        /* \"#utility.yul\":12273:12373   */\n      swap2\n      swap1\n      pop\n      jump\t// out\n        /* \"#utility.yul\":12379:12536   */\n    tag_116:\n        /* \"#utility.yul\":12484:12529   */\n      tag_271\n        /* \"#utility.yul\":12504:12528   */\n      tag_272\n        /* \"#utility.yul\":12522:12527   */\n      dup3\n        /* \"#utility.yul\":12504:12528   */\n      tag_89\n      jump\t// in\n    tag_272:\n        /* \"#utility.yul\":12484:12529   */\n      tag_115\n      jump\t// in\n    tag_271:\n        /* \"#utility.yul\":12479:12482   */\n      dup3\n        /* \"#utility.yul\":12472:12530   */\n      mstore\n        /* \"#utility.yul\":12379:12536   */\n      pop\n      pop\n      jump\t// out\n        /* \"#utility.yul\":12542:12621   */\n    tag_117:\n        /* \"#utility.yul\":12581:12588   */\n      0x00\n        /* \"#utility.yul\":12610:12615   */\n      dup2\n        /* \"#utility.yul\":12599:12615   */\n      swap1\n      pop\n        /* \"#utility.yul\":12542:12621   */\n      swap2\n      swap1\n      pop\n      jump\t// out\n        /* \"#utility.yul\":12627:12784   */\n    tag_118:\n        /* \"#utility.yul\":12732:12777   */\n      tag_275\n        /* \"#utility.yul\":12752:12776   */\n      tag_276\n        /* \"#utility.yul\":12770:12775   */\n      dup3\n        /* \"#utility.yul\":12752:12776   */\n      tag_80\n      jump\t// in\n    tag_276:\n        /* \"#utility.yul\":12732:12777   */\n      tag_117\n      jump\t// in\n    tag_275:\n        /* \"#utility.yul\":12727:12730   */\n      dup3\n        /* \"#utility.yul\":12720:12778   */\n      mstore\n        /* \"#utility.yul\":12627:12784   */\n      pop\n      pop\n      jump\t// out\n        /* \"#utility.yul\":12790:13187   */\n    tag_64:\n        /* \"#utility.yul\":12930:12933   */\n      0x00\n        /* \"#utility.yul\":12945:13020   */\n      tag_278\n        /* \"#utility.yul\":13016:13019   */\n      dup3\n        /* \"#utility.yul\":13007:13013   */\n      dup6\n        /* \"#utility.yul\":12945:13020   */\n      tag_116\n      jump\t// in\n    tag_278:\n        /* \"#utility.yul\":13045:13047   */\n      0x14\n        /* \"#utility.yul\":13040:13043   */\n      dup3\n        /* \"#utility.yul\":13036:13048   */\n      add\n        /* \"#utility.yul\":13029:13048   */\n      swap2\n      pop\n        /* \"#utility.yul\":13058:13133   */\n      tag_279\n        /* \"#utility.yul\":13129:13132   */\n      dup3\n        /* \"#utility.yul\":13120:13126   */\n      dup5\n        /* \"#utility.yul\":13058:13133   */\n      tag_118\n      jump\t// in\n    tag_279:\n        /* \"#utility.yul\":13158:13160   */\n      0x20\n        /* \"#utility.yul\":13153:13156   */\n      dup3\n        /* \"#utility.yul\":13149:13161   */\n      add\n        /* \"#utility.yul\":13142:13161   */\n      swap2\n      pop\n        /* \"#utility.yul\":13178:13181   */\n      dup2\n        /* \"#utility.yul\":13171:13181   */\n      swap1\n      pop\n        /* \"#utility.yul\":12790:13187   */\n      swap4\n      swap3\n      pop\n      pop\n      pop\n      jump\t// out\n        /* \"#utility.yul\":13193:13291   */\n    tag_119:\n        /* \"#utility.yul\":13244:13250   */\n      0x00\n        /* \"#utility.yul\":13278:13283   */\n      dup2\n        /* \"#utility.yul\":13272:13284   */\n      mload\n        /* \"#utility.yul\":13262:13284   */\n      swap1\n      pop\n        /* \"#utility.yul\":13193:13291   */\n      swap2\n      swap1\n      pop\n      jump\t// out\n        /* \"#utility.yul\":13297:13444   */\n    tag_120:\n        /* \"#utility.yul\":13398:13409   */\n      0x00\n        /* \"#utility.yul\":13435:13438   */\n      dup2\n        /* \"#utility.yul\":13420:13438   */\n      swap1\n      pop\n        /* \"#utility.yul\":13297:13444   */\n      swap3\n      swap2\n      pop\n      pop\n      jump\t// out\n        /* \"#utility.yul\":13450:13836   */\n    tag_121:\n        /* \"#utility.yul\":13554:13557   */\n      0x00\n        /* \"#utility.yul\":13582:13620   */\n      tag_283\n        /* \"#utility.yul\":13614:13619   */\n      dup3\n        /* \"#utility.yul\":13582:13620   */\n      tag_119\n      jump\t// in\n    tag_283:\n        /* \"#utility.yul\":13636:13724   */\n      tag_284\n        /* \"#utility.yul\":13717:13723   */\n      dup2\n        /* \"#utility.yul\":13712:13715   */\n      dup6\n        /* \"#utility.yul\":13636:13724   */\n      tag_120\n      jump\t// in\n    tag_284:\n        /* \"#utility.yul\":13629:13724   */\n      swap4\n      pop\n        /* \"#utility.yul\":13733:13798   */\n      tag_285\n        /* \"#utility.yul\":13791:13797   */\n      dup2\n        /* \"#utility.yul\":13786:13789   */\n      dup6\n        /* \"#utility.yul\":13779:13783   */\n      0x20\n        /* \"#utility.yul\":13772:13777   */\n      dup7\n        /* \"#utility.yul\":13768:13784   */\n      add\n        /* \"#utility.yul\":13733:13798   */\n      tag_85\n      jump\t// in\n    tag_285:\n        /* \"#utility.yul\":13823:13829   */\n      dup1\n        /* \"#utility.yul\":13818:13821   */\n      dup5\n        /* \"#utility.yul\":13814:13830   */\n      add\n        /* \"#utility.yul\":13807:13830   */\n      swap2\n      pop\n        /* \"#utility.yul\":13558:13836   */\n      pop\n        /* \"#utility.yul\":13450:13836   */\n      swap3\n      swap2\n      pop\n      pop\n      jump\t// out\n        /* \"#utility.yul\":13842:14113   */\n    tag_66:\n        /* \"#utility.yul\":13972:13975   */\n      0x00\n        /* \"#utility.yul\":13994:14087   */\n      tag_287\n        /* \"#utility.yul\":14083:14086   */\n      dup3\n        /* \"#utility.yul\":14074:14080   */\n      dup5\n        /* \"#utility.yul\":13994:14087   */\n      tag_121\n      jump\t// in\n    tag_287:\n        /* \"#utility.yul\":13987:14087   */\n      swap2\n      pop\n        /* \"#utility.yul\":14104:14107   */\n      dup2\n        /* \"#utility.yul\":14097:14107   */\n      swap1\n      pop\n        /* \"#utility.yul\":13842:14113   */\n      swap3\n      swap2\n      pop\n      pop\n      jump\t// out\n        /* \"#utility.yul\":14119:14262   */\n    tag_122:\n        /* \"#utility.yul\":14176:14181   */\n      0x00\n        /* \"#utility.yul\":14207:14213   */\n      dup2\n        /* \"#utility.yul\":14201:14214   */\n      mload\n        /* \"#utility.yul\":14192:14214   */\n      swap1\n      pop\n        /* \"#utility.yul\":14223:14256   */\n      tag_289\n        /* \"#utility.yul\":14250:14255   */\n      dup2\n        /* \"#utility.yul\":14223:14256   */\n      tag_78\n      jump\t// in\n    tag_289:\n        /* \"#utility.yul\":14119:14262   */\n      swap3\n      swap2\n      pop\n      pop\n      jump\t// out\n        /* \"#utility.yul\":14268:14619   */\n    tag_70:\n        /* \"#utility.yul\":14338:14344   */\n      0x00\n        /* \"#utility.yul\":14387:14389   */\n      0x20\n        /* \"#utility.yul\":14375:14384   */\n      dup3\n        /* \"#utility.yul\":14366:14373   */\n      dup5\n        /* \"#utility.yul\":14362:14385   */\n      sub\n        /* \"#utility.yul\":14358:14390   */\n      slt\n        /* \"#utility.yul\":14355:14474   */\n      iszero\n      tag_291\n      jumpi\n        /* \"#utility.yul\":14393:14472   */\n      tag_292\n      tag_75\n      jump\t// in\n    tag_292:\n        /* \"#utility.yul\":14355:14474   */\n    tag_291:\n        /* \"#utility.yul\":14513:14514   */\n      0x00\n        /* \"#utility.yul\":14538:14602   */\n      tag_293\n        /* \"#utility.yul\":14594:14601   */\n      dup5\n        /* \"#utility.yul\":14585:14591   */\n      dup3\n        /* \"#utility.yul\":14574:14583   */\n      dup6\n        /* \"#utility.yul\":14570:14592   */\n      add\n        /* \"#utility.yul\":14538:14602   */\n      tag_122\n      jump\t// in\n    tag_293:\n        /* \"#utility.yul\":14528:14602   */\n      swap2\n      pop\n        /* \"#utility.yul\":14484:14612   */\n      pop\n        /* \"#utility.yul\":14268:14619   */\n      swap3\n      swap2\n      pop\n      pop\n      jump\t// out\n        /* \"#utility.yul\":14625:14766   */\n    tag_123:\n        /* \"#utility.yul\":14674:14678   */\n      0x00\n        /* \"#utility.yul\":14697:14700   */\n      dup2\n        /* \"#utility.yul\":14689:14700   */\n      swap1\n      pop\n        /* \"#utility.yul\":14720:14723   */\n      dup2\n        /* \"#utility.yul\":14717:14718   */\n      0x00\n        /* \"#utility.yul\":14710:14724   */\n      mstore\n        /* \"#utility.yul\":14754:14758   */\n      0x20\n        /* \"#utility.yul\":14751:14752   */\n      0x00\n        /* \"#utility.yul\":14741:14759   */\n      keccak256\n        /* \"#utility.yul\":14733:14759   */\n      swap1\n      pop\n        /* \"#utility.yul\":14625:14766   */\n      swap2\n      swap1\n      pop\n      jump\t// out\n        /* \"#utility.yul\":14772:14865   */\n    tag_124:\n        /* \"#utility.yul\":14809:14815   */\n      0x00\n        /* \"#utility.yul\":14856:14858   */\n      0x20\n        /* \"#utility.yul\":14851:14853   */\n      0x1f\n        /* \"#utility.yul\":14844:14849   */\n      dup4\n        /* \"#utility.yul\":14840:14854   */\n      add\n        /* \"#utility.yul\":14836:14859   */\n      div\n        /* \"#utility.yul\":14826:14859   */\n      swap1\n      pop\n        /* \"#utility.yul\":14772:14865   */\n      swap2\n      swap1\n      pop\n      jump\t// out\n        /* \"#utility.yul\":14871:14978   */\n    tag_125:\n        /* \"#utility.yul\":14915:14923   */\n      0x00\n        /* \"#utility.yul\":14965:14970   */\n      dup3\n        /* \"#utility.yul\":14959:14963   */\n      dup3\n        /* \"#utility.yul\":14955:14971   */\n      shl\n        /* \"#utility.yul\":14934:14971   */\n      swap1\n      pop\n        /* \"#utility.yul\":14871:14978   */\n      swap3\n      swap2\n      pop\n      pop\n      jump\t// out\n        /* \"#utility.yul\":14984:15377   */\n    tag_126:\n        /* \"#utility.yul\":15053:15059   */\n      0x00\n        /* \"#utility.yul\":15103:15104   */\n      0x08\n        /* \"#utility.yul\":15091:15101   */\n      dup4\n        /* \"#utility.yul\":15087:15105   */\n      mul\n        /* \"#utility.yul\":15126:15223   */\n      tag_298\n        /* \"#utility.yul\":15156:15222   */\n      0xffffffffffffffffffffffffffffffffffffffffffffffffffffffffffffffff\n        /* \"#utility.yul\":15145:15154   */\n      dup3\n        /* \"#utility.yul\":15126:15223   */\n      tag_125\n      jump\t// in\n    tag_298:\n        /* \"#utility.yul\":15244:15283   */\n      tag_299\n        /* \"#utility.yul\":15274:15282   */\n      dup7\n        /* \"#utility.yul\":15263:15272   */\n      dup4\n        /* \"#utility.yul\":15244:15283   */\n      tag_125\n      jump\t// in\n    tag_299:\n        /* \"#utility.yul\":15232:15283   */\n      swap6\n      pop\n        /* \"#utility.yul\":15316:15320   */\n      dup1\n        /* \"#utility.yul\":15312:15321   */\n      not\n        /* \"#utility.yul\":15305:15310   */\n      dup5\n        /* \"#utility.yul\":15301:15322   */\n      and\n        /* \"#utility.yul\":15292:15322   */\n      swap4\n      pop\n        /* \"#utility.yul\":15365:15369   */\n      dup1\n        /* \"#utility.yul\":15355:15363   */\n      dup7\n        /* \"#utility.yul\":15351:15370   */\n      and\n        /* \"#utility.yul\":15344:15349   */\n      dup5\n        /* \"#utility.yul\":15341:15371   */\n      or\n        /* \"#utility.yul\":15331:15371   */\n      swap3\n      pop\n        /* \"#utility.yul\":15060:15377   */\n      pop\n      pop\n        /* \"#utility.yul\":14984:15377   */\n      swap4\n      swap3\n      pop\n      pop\n      pop\n      jump\t// out\n        /* \"#utility.yul\":15383:15443   */\n    tag_127:\n        /* \"#utility.yul\":15411:15414   */\n      0x00\n        /* \"#utility.yul\":15432:15437   */\n      dup2\n        /* \"#utility.yul\":15425:15437   */\n      swap1\n      pop\n        /* \"#utility.yul\":15383:15443   */\n      swap2\n      swap1\n      pop\n      jump\t// out\n        /* \"#utility.yul\":15449:15591   */\n    tag_128:\n        /* \"#utility.yul\":15499:15508   */\n      0x00\n        /* \"#utility.yul\":15532:15585   */\n      tag_302\n        /* \"#utility.yul\":15550:15584   */\n      tag_303\n        /* \"#utility.yul\":15559:15583   */\n      tag_304\n        /* \"#utility.yul\":15577:15582   */\n      dup5\n        /* \"#utility.yul\":15559:15583   */\n      tag_80\n      jump\t// in\n    tag_304:\n        /* \"#utility.yul\":15550:15584   */\n      tag_127\n      jump\t// in\n    tag_303:\n        /* \"#utility.yul\":15532:15585   */\n      tag_80\n      jump\t// in\n    tag_302:\n        /* \"#utility.yul\":15519:15585   */\n      swap1\n      pop\n        /* \"#utility.yul\":15449:15591   */\n      swap2\n      swap1\n      pop\n      jump\t// out\n        /* \"#utility.yul\":15597:15672   */\n    tag_129:\n        /* \"#utility.yul\":15640:15643   */\n      0x00\n        /* \"#utility.yul\":15661:15666   */\n      dup2\n        /* \"#utility.yul\":15654:15666   */\n      swap1\n      pop\n        /* \"#utility.yul\":15597:15672   */\n      swap2\n      swap1\n      pop\n      jump\t// out\n        /* \"#utility.yul\":15678:15947   */\n    tag_130:\n        /* \"#utility.yul\":15788:15827   */\n      tag_307\n        /* \"#utility.yul\":15819:15826   */\n      dup4\n        /* \"#utility.yul\":15788:15827   */\n      tag_128\n      jump\t// in\n    tag_307:\n        /* \"#utility.yul\":15849:15940   */\n      tag_308\n        /* \"#utility.yul\":15898:15939   */\n      tag_309\n        /* \"#utility.yul\":15922:15938   */\n      dup3\n        /* \"#utility.yul\":15898:15939   */\n      tag_129\n      jump\t// in\n    tag_309:\n        /* \"#utility.yul\":15890:15896   */\n      dup5\n        /* \"#utility.yul\":15883:15887   */\n      dup5\n        /* \"#utility.yul\":15877:15888   */\n      sload\n        /* \"#utility.yul\":15849:15940   */\n      tag_126\n      jump\t// in\n    tag_308:\n        /* \"#utility.yul\":15843:15847   */\n      dup3\n        /* \"#utility.yul\":15836:15941   */\n      sstore\n        /* \"#utility.yul\":15754:15947   */\n      pop\n        /* \"#utility.yul\":15678:15947   */\n      pop\n      pop\n      pop\n      jump\t// out\n        /* \"#utility.yul\":15953:16026   */\n    tag_131:\n        /* \"#utility.yul\":15998:16001   */\n      0x00\n        /* \"#utility.yul\":15953:16026   */\n      swap1\n      jump\t// out\n        /* \"#utility.yul\":16032:16221   */\n    tag_132:\n        /* \"#utility.yul\":16109:16141   */\n      tag_312\n      tag_131\n      jump\t// in\n    tag_312:\n        /* \"#utility.yul\":16150:16215   */\n      tag_313\n        /* \"#utility.yul\":16208:16214   */\n      dup2\n        /* \"#utility.yul\":16200:16206   */\n      dup5\n        /* \"#utility.yul\":16194:16198   */\n      dup5\n        /* \"#utility.yul\":16150:16215   */\n      tag_130\n      jump\t// in\n    tag_313:\n        /* \"#utility.yul\":16085:16221   */\n      pop\n        /* \"#utility.yul\":16032:16221   */\n      pop\n      pop\n      jump\t// out\n        /* \"#utility.yul\":16227:16413   */\n    tag_133:\n        /* \"#utility.yul\":16287:16407   */\n    tag_315:\n        /* \"#utility.yul\":16304:16307   */\n      dup2\n        /* \"#utility.yul\":16297:16302   */\n      dup2\n        /* \"#utility.yul\":16294:16308   */\n      lt\n        /* \"#utility.yul\":16287:16407   */\n      iszero\n      tag_317\n      jumpi\n        /* \"#utility.yul\":16358:16397   */\n      tag_318\n        /* \"#utility.yul\":16395:16396   */\n      0x00\n        /* \"#utility.yul\":16388:16393   */\n      dup3\n        /* \"#utility.yul\":16358:16397   */\n      tag_132\n      jump\t// in\n    tag_318:\n        /* \"#utility.yul\":16331:16332   */\n      0x01\n        /* \"#utility.yul\":16324:16329   */\n      dup2\n        /* \"#utility.yul\":16320:16333   */\n      add\n        /* \"#utility.yul\":16311:16333   */\n      swap1\n      pop\n        /* \"#utility.yul\":16287:16407   */\n      jump(tag_315)\n    tag_317:\n        /* \"#utility.yul\":16227:16413   */\n      pop\n      pop\n      jump\t// out\n        /* \"#utility.yul\":16419:16962   */\n    tag_134:\n        /* \"#utility.yul\":16520:16522   */\n      0x1f\n        /* \"#utility.yul\":16515:16518   */\n      dup3\n        /* \"#utility.yul\":16512:16523   */\n      gt\n        /* \"#utility.yul\":16509:16955   */\n      iszero\n      tag_320\n      jumpi\n        /* \"#utility.yul\":16554:16592   */\n      tag_321\n        /* \"#utility.yul\":16586:16591   */\n      dup2\n        /* \"#utility.yul\":16554:16592   */\n      tag_123\n      jump\t// in\n    tag_321:\n        /* \"#utility.yul\":16638:16667   */\n      tag_322\n        /* \"#utility.yul\":16656:16666   */\n      dup5\n        /* \"#utility.yul\":16638:16667   */\n      tag_124\n      jump\t// in\n    tag_322:\n        /* \"#utility.yul\":16628:16636   */\n      dup2\n        /* \"#utility.yul\":16624:16668   */\n      add\n        /* \"#utility.yul\":16821:16823   */\n      0x20\n        /* \"#utility.yul\":16809:16819   */\n      dup6\n        /* \"#utility.yul\":16806:16824   */\n      lt\n        /* \"#utility.yul\":16803:16852   */\n      iszero\n      tag_323\n      jumpi\n        /* \"#utility.yul\":16842:16850   */\n      dup2\n        /* \"#utility.yul\":16827:16850   */\n      swap1\n      pop\n        /* \"#utility.yul\":16803:16852   */\n    tag_323:\n        /* \"#utility.yul\":16865:16945   */\n      tag_324\n        /* \"#utility.yul\":16921:16943   */\n      tag_325\n        /* \"#utility.yul\":16939:16942   */\n      dup6\n        /* \"#utility.yul\":16921:16943   */\n      tag_124\n      jump\t// in\n    tag_325:\n        /* \"#utility.yul\":16911:16919   */\n      dup4\n        /* \"#utility.yul\":16907:16944   */\n      add\n        /* \"#utility.yul\":16894:16905   */\n      dup3\n        /* \"#utility.yul\":16865:16945   */\n      tag_133\n      jump\t// in\n    tag_324:\n        /* \"#utility.yul\":16524:16955   */\n      pop\n      pop\n        /* \"#utility.yul\":16509:16955   */\n    tag_320:\n        /* \"#utility.yul\":16419:16962   */\n      pop\n      pop\n      pop\n      jump\t// out\n        /* \"#utility.yul\":16968:17085   */\n    tag_135:\n        /* \"#utility.yul\":17022:17030   */\n      0x00\n        /* \"#utility.yul\":17072:17077   */\n      dup3\n        /* \"#utility.yul\":17066:17070   */\n      dup3\n        /* \"#utility.yul\":17062:17078   */\n      shr\n        /* \"#utility.yul\":17041:17078   */\n      swap1\n      pop\n        /* \"#utility.yul\":16968:17085   */\n      swap3\n      swap2\n      pop\n      pop\n      jump\t// out\n        /* \"#utility.yul\":17091:17260   */\n    tag_136:\n        /* \"#utility.yul\":17135:17141   */\n      0x00\n        /* \"#utility.yul\":17168:17219   */\n      tag_328\n        /* \"#utility.yul\":17216:17217   */\n      0x00\n        /* \"#utility.yul\":17212:17218   */\n      not\n        /* \"#utility.yul\":17204:17209   */\n      dup5\n        /* \"#utility.yul\":17201:17202   */\n      0x08\n        /* \"#utility.yul\":17197:17210   */\n      mul\n        /* \"#utility.yul\":17168:17219   */\n      tag_135\n      jump\t// in\n    tag_328:\n        /* \"#utility.yul\":17164:17220   */\n      not\n        /* \"#utility.yul\":17249:17253   */\n      dup1\n        /* \"#utility.yul\":17243:17247   */\n      dup4\n        /* \"#utility.yul\":17239:17254   */\n      and\n        /* \"#utility.yul\":17229:17254   */\n      swap2\n      pop\n        /* \"#utility.yul\":17142:17260   */\n      pop\n        /* \"#utility.yul\":17091:17260   */\n      swap3\n      swap2\n      pop\n      pop\n      jump\t// out\n        /* \"#utility.yul\":17265:17560   */\n    tag_137:\n        /* \"#utility.yul\":17341:17345   */\n      0x00\n        /* \"#utility.yul\":17487:17516   */\n      tag_330\n        /* \"#utility.yul\":17512:17515   */\n      dup4\n        /* \"#utility.yul\":17506:17510   */\n      dup4\n        /* \"#utility.yul\":17487:17516   */\n      tag_136\n      jump\t// in\n    tag_330:\n        /* \"#utility.yul\":17479:17516   */\n      swap2\n      pop\n        /* \"#utility.yul\":17549:17552   */\n      dup3\n        /* \"#utility.yul\":17546:17547   */\n      0x02\n        /* \"#utility.yul\":17542:17553   */\n      mul\n        /* \"#utility.yul\":17536:17540   */\n      dup3\n        /* \"#utility.yul\":17533:17554   */\n      or\n        /* \"#utility.yul\":17525:17554   */\n      swap1\n      pop\n        /* \"#utility.yul\":17265:17560   */\n      swap3\n      swap2\n      pop\n      pop\n      jump\t// out\n        /* \"#utility.yul\":17565:18960   */\n    tag_73:\n        /* \"#utility.yul\":17682:17719   */\n      tag_332\n        /* \"#utility.yul\":17715:17718   */\n      dup3\n        /* \"#utility.yul\":17682:17719   */\n      tag_83\n      jump\t// in\n    tag_332:\n        /* \"#utility.yul\":17784:17802   */\n      0xffffffffffffffff\n        /* \"#utility.yul\":17776:17782   */\n      dup2\n        /* \"#utility.yul\":17773:17803   */\n      gt\n        /* \"#utility.yul\":17770:17826   */\n      iszero\n      tag_333\n      jumpi\n        /* \"#utility.yul\":17806:17824   */\n      tag_334\n      tag_97\n      jump\t// in\n    tag_334:\n        /* \"#utility.yul\":17770:17826   */\n    tag_333:\n        /* \"#utility.yul\":17850:17888   */\n      tag_335\n        /* \"#utility.yul\":17882:17886   */\n      dup3\n        /* \"#utility.yul\":17876:17887   */\n      sload\n        /* \"#utility.yul\":17850:17888   */\n      tag_54\n      jump\t// in\n    tag_335:\n        /* \"#utility.yul\":17935:18002   */\n      tag_336\n        /* \"#utility.yul\":17995:18001   */\n      dup3\n        /* \"#utility.yul\":17987:17993   */\n      dup3\n        /* \"#utility.yul\":17981:17985   */\n      dup6\n        /* \"#utility.yul\":17935:18002   */\n      tag_134\n      jump\t// in\n    tag_336:\n        /* \"#utility.yul\":18029:18030   */\n      0x00\n        /* \"#utility.yul\":18053:18057   */\n      0x20\n        /* \"#utility.yul\":18040:18057   */\n      swap1\n      pop\n        /* \"#utility.yul\":18085:18087   */\n      0x1f\n        /* \"#utility.yul\":18077:18083   */\n      dup4\n        /* \"#utility.yul\":18074:18088   */\n      gt\n        /* \"#utility.yul\":18102:18103   */\n      0x01\n        /* \"#utility.yul\":18097:18715   */\n      dup2\n      eq\n      tag_338\n      jumpi\n        /* \"#utility.yul\":18759:18760   */\n      0x00\n        /* \"#utility.yul\":18776:18782   */\n      dup5\n        /* \"#utility.yul\":18773:18850   */\n      iszero\n      tag_339\n      jumpi\n        /* \"#utility.yul\":18825:18834   */\n      dup3\n        /* \"#utility.yul\":18820:18823   */\n      dup8\n        /* \"#utility.yul\":18816:18835   */\n      add\n        /* \"#utility.yul\":18810:18836   */\n      mload\n        /* \"#utility.yul\":18801:18836   */\n      swap1\n      pop\n        /* \"#utility.yul\":18773:18850   */\n    tag_339:\n        /* \"#utility.yul\":18876:18943   */\n      tag_340\n        /* \"#utility.yul\":18936:18942   */\n      dup6\n        /* \"#utility.yul\":18929:18934   */\n      dup3\n        /* \"#utility.yul\":18876:18943   */\n      tag_137\n      jump\t// in\n    tag_340:\n        /* \"#utility.yul\":18870:18874   */\n      dup7\n        /* \"#utility.yul\":18863:18944   */\n      sstore\n        /* \"#utility.yul\":18732:18954   */\n      pop\n        /* \"#utility.yul\":18067:18954   */\n      jump(tag_337)\n        /* \"#utility.yul\":18097:18715   */\n    tag_338:\n        /* \"#utility.yul\":18149:18153   */\n      0x1f\n        /* \"#utility.yul\":18145:18154   */\n      not\n        /* \"#utility.yul\":18137:18143   */\n      dup5\n        /* \"#utility.yul\":18133:18155   */\n      and\n        /* \"#utility.yul\":18183:18220   */\n      tag_341\n        /* \"#utility.yul\":18215:18219   */\n      dup7\n        /* \"#utility.yul\":18183:18220   */\n      tag_123\n      jump\t// in\n    tag_341:\n        /* \"#utility.yul\":18242:18243   */\n      0x00\n        /* \"#utility.yul\":18256:18464   */\n    tag_342:\n        /* \"#utility.yul\":18270:18277   */\n      dup3\n        /* \"#utility.yul\":18267:18268   */\n      dup2\n        /* \"#utility.yul\":18264:18278   */\n      lt\n        /* \"#utility.yul\":18256:18464   */\n      iszero\n      tag_344\n      jumpi\n        /* \"#utility.yul\":18349:18358   */\n      dup5\n        /* \"#utility.yul\":18344:18347   */\n      dup10\n        /* \"#utility.yul\":18340:18359   */\n      add\n        /* \"#utility.yul\":18334:18360   */\n      mload\n        /* \"#utility.yul\":18326:18332   */\n      dup3\n        /* \"#utility.yul\":18319:18361   */\n      sstore\n        /* \"#utility.yul\":18400:18401   */\n      0x01\n        /* \"#utility.yul\":18392:18398   */\n      dup3\n        /* \"#utility.yul\":18388:18402   */\n      add\n        /* \"#utility.yul\":18378:18402   */\n      swap2\n      pop\n        /* \"#utility.yul\":18447:18449   */\n      0x20\n        /* \"#utility.yul\":18436:18445   */\n      dup6\n        /* \"#utility.yul\":18432:18450   */\n      add\n        /* \"#utility.yul\":18419:18450   */\n      swap5\n      pop\n        /* \"#utility.yul\":18293:18297   */\n      0x20\n        /* \"#utility.yul\":18290:18291   */\n      dup2\n        /* \"#utility.yul\":18286:18298   */\n      add\n        /* \"#utility.yul\":18281:18298   */\n      swap1\n      pop\n        /* \"#utility.yul\":18256:18464   */\n      jump(tag_342)\n    tag_344:\n        /* \"#utility.yul\":18492:18498   */\n      dup7\n        /* \"#utility.yul\":18483:18490   */\n      dup4\n        /* \"#utility.yul\":18480:18499   */\n      lt\n        /* \"#utility.yul\":18477:18656   */\n      iszero\n      tag_345\n      jumpi\n        /* \"#utility.yul\":18550:18559   */\n      dup5\n        /* \"#utility.yul\":18545:18548   */\n      dup10\n        /* \"#utility.yul\":18541:18560   */\n      add\n        /* \"#utility.yul\":18535:18561   */\n      mload\n        /* \"#utility.yul\":18593:18641   */\n      tag_346\n        /* \"#utility.yul\":18635:18639   */\n      0x1f\n        /* \"#utility.yul\":18627:18633   */\n      dup10\n        /* \"#utility.yul\":18623:18640   */\n      and\n        /* \"#utility.yul\":18612:18621   */\n      dup3\n        /* \"#utility.yul\":18593:18641   */\n      tag_136\n      jump\t// in\n    tag_346:\n        /* \"#utility.yul\":18585:18591   */\n      dup4\n        /* \"#utility.yul\":18578:18642   */\n      sstore\n        /* \"#utility.yul\":18500:18656   */\n      pop\n        /* \"#utility.yul\":18477:18656   */\n    tag_345:\n        /* \"#utility.yul\":18702:18703   */\n      0x01\n        /* \"#utility.yul\":18698:18699   */\n      0x02\n        /* \"#utility.yul\":18690:18696   */\n      dup9\n        /* \"#utility.yul\":18686:18700   */\n      mul\n        /* \"#utility.yul\":18682:18704   */\n      add\n        /* \"#utility.yul\":18676:18680   */\n      dup9\n        /* \"#utility.yul\":18669:18705   */\n      sstore\n        /* \"#utility.yul\":18104:18715   */\n      pop\n      pop\n      pop\n        /* \"#utility.yul\":18067:18954   */\n    tag_337:\n      pop\n        /* \"#utility.yul\":17657:18960   */\n      pop\n      pop\n      pop\n        /* \"#utility.yul\":17565:18960   */\n      pop\n      pop\n      jump\t// out\n\n    auxdata: 0xa26469706673582212200286bff02e16aa9b6d0278f1825fa84d4f2530d5b4bc1ed977317cdd4d6e998d64736f6c63430008130033\n}\n",
				"bytecode": {
					"linkReferences": {},
					"object": "608060405234801561001057600080fd5b5033600260006101000a81548173ffffffffffffffffffffffffffffffffffffffff021916908373ffffffffffffffffffffffffffffffffffffffff16021790555061113b806100616000396000f3fe608060405234801561001057600080fd5b50600436106100575760003560e01c80633130abae1461005c57806348103e651461008c5780638abc4bd9146100a8578063bf94effa146100da578063d3bddc2b1461010a575b600080fd5b61007660048036038101906100719190610763565b61013a565b6040516100839190610833565b60405180910390f35b6100a660048036038101906100a191906108b3565b61031a565b005b6100c260048036038101906100bd91906108e0565b61045b565b6040516100d193929190610937565b60405180910390f35b6100f460048036038101906100ef91906108b3565b61051a565b6040516101019190610975565b60405180910390f35b610124600480360381019061011f9190610ac5565b61053a565b6040516101319190610b30565b60405180910390f35b60603373ffffffffffffffffffffffffffffffffffffffff16600260009054906101000a900473ffffffffffffffffffffffffffffffffffffffff1673ffffffffffffffffffffffffffffffffffffffff16146101cc576040517f08c379a00000000000000000000000000000000000000000000000000000000081526004016101c390610b97565b60405180910390fd5b600160003373ffffffffffffffffffffffffffffffffffffffff1673ffffffffffffffffffffffffffffffffffffffff16815260200190815260200160002060009054906101000a900460ff16610258576040517f08c379a000000000000000000000000000000000000000000000000000000000815260040161024f90610c03565b60405180910390fd5b816000808581526020019081526020016000206002015410156102b0576040517f08c379a00000000000000000000000000000000000000000000000000000000081526004016102a790610c6f565b60405180910390fd5b8160008085815260200190815260200160002060020160008282546102d59190610cbe565b925050819055506040518060400160405280600781526020017f5375636365737300000000000000000000000000000000000000000000000000815250905092915050565b3373ffffffffffffffffffffffffffffffffffffffff16600260009054906101000a900473ffffffffffffffffffffffffffffffffffffffff1673ffffffffffffffffffffffffffffffffffffffff16146103aa576040517f08c379a00000000000000000000000000000000000000000000000000000000081526004016103a190610b97565b60405180910390fd5b600160008273ffffffffffffffffffffffffffffffffffffffff1673ffffffffffffffffffffffffffffffffffffffff16815260200190815260200160002060009054906101000a900460ff161561040157600080fd5b60018060008373ffffffffffffffffffffffffffffffffffffffff1673ffffffffffffffffffffffffffffffffffffffff16815260200190815260200160002060006101000a81548160ff02191690831515021790555050565b60006020528060005260406000206000915090508060000160009054906101000a900460ff169080600101805461049190610d21565b80601f01602080910402602001604051908101604052809291908181526020018280546104bd90610d21565b801561050a5780601f106104df5761010080835404028352916020019161050a565b820191906000526020600020905b8154815290600101906020018083116104ed57829003601f168201915b5050505050908060020154905083565b60016020528060005260406000206000915054906101000a900460ff1681565b60003373ffffffffffffffffffffffffffffffffffffffff16600260009054906101000a900473ffffffffffffffffffffffffffffffffffffffff1673ffffffffffffffffffffffffffffffffffffffff16146105cc576040517f08c379a00000000000000000000000000000000000000000000000000000000081526004016105c390610b97565b60405180910390fd5b6000600233426040516020016105e3929190610dbb565b6040516020818303038152906040526040516105ff9190610e2e565b602060405180830381855afa15801561061c573d6000803e3d6000fd5b5050506040513d601f19601f8201168201806040525081019061063f9190610e5a565b905060008082815260200190815260200160002060000160009054906101000a900460ff161561066e57600080fd5b600160008083815260200190815260200160002060000160006101000a81548160ff0219169083151502179055508360008083815260200190815260200160002060010190816106be9190611033565b5082600080838152602001908152602001600020600201819055508091505092915050565b6000604051905090565b600080fd5b600080fd5b6000819050919050565b61070a816106f7565b811461071557600080fd5b50565b60008135905061072781610701565b92915050565b6000819050919050565b6107408161072d565b811461074b57600080fd5b50565b60008135905061075d81610737565b92915050565b6000806040838503121561077a576107796106ed565b5b600061078885828601610718565b92505060206107998582860161074e565b9150509250929050565b600081519050919050565b600082825260208201905092915050565b60005b838110156107dd5780820151818401526020810190506107c2565b60008484015250505050565b6000601f19601f8301169050919050565b6000610805826107a3565b61080f81856107ae565b935061081f8185602086016107bf565b610828816107e9565b840191505092915050565b6000602082019050818103600083015261084d81846107fa565b905092915050565b600073ffffffffffffffffffffffffffffffffffffffff82169050919050565b600061088082610855565b9050919050565b61089081610875565b811461089b57600080fd5b50565b6000813590506108ad81610887565b92915050565b6000602082840312156108c9576108c86106ed565b5b60006108d78482850161089e565b91505092915050565b6000602082840312156108f6576108f56106ed565b5b600061090484828501610718565b91505092915050565b60008115159050919050565b6109228161090d565b82525050565b6109318161072d565b82525050565b600060608201905061094c6000830186610919565b818103602083015261095e81856107fa565b905061096d6040830184610928565b949350505050565b600060208201905061098a6000830184610919565b92915050565b600080fd5b600080fd5b7f4e487b7100000000000000000000000000000000000000000000000000000000600052604160045260246000fd5b6109d2826107e9565b810181811067ffffffffffffffff821117156109f1576109f061099a565b5b80604052505050565b6000610a046106e3565b9050610a1082826109c9565b919050565b600067ffffffffffffffff821115610a3057610a2f61099a565b5b610a39826107e9565b9050602081019050919050565b82818337600083830152505050565b6000610a68610a6384610a15565b6109fa565b905082815260208101848484011115610a8457610a83610995565b5b610a8f848285610a46565b509392505050565b600082601f830112610aac57610aab610990565b5b8135610abc848260208601610a55565b91505092915050565b60008060408385031215610adc57610adb6106ed565b5b600083013567ffffffffffffffff811115610afa57610af96106f2565b5b610b0685828601610a97565b9250506020610b178582860161074e565b9150509250929050565b610b2a816106f7565b82525050565b6000602082019050610b456000830184610b21565b92915050565b7f4f6e6c79204f776e65722063616e000000000000000000000000000000000000600082015250565b6000610b81600e836107ae565b9150610b8c82610b4b565b602082019050919050565b60006020820190508181036000830152610bb081610b74565b9050919050565b7f4f6e6c7920646f63746f722063616e2075736520696e737572616e6365000000600082015250565b6000610bed601d836107ae565b9150610bf882610bb7565b602082019050919050565b60006020820190508181036000830152610c1c81610be0565b9050919050565b7f496e73756666696369656e7420696e737572656420616d6f756e740000000000600082015250565b6000610c59601b836107ae565b9150610c6482610c23565b602082019050919050565b60006020820190508181036000830152610c8881610c4c565b9050919050565b7f4e487b7100000000000000000000000000000000000000000000000000000000600052601160045260246000fd5b6000610cc98261072d565b9150610cd48361072d565b9250828203905081811115610cec57610ceb610c8f565b5b92915050565b7f4e487b7100000000000000000000000000000000000000000000000000000000600052602260045260246000fd5b60006002820490506001821680610d3957607f821691505b602082108103610d4c57610d4b610cf2565b5b50919050565b60008160601b9050919050565b6000610d6a82610d52565b9050919050565b6000610d7c82610d5f565b9050919050565b610d94610d8f82610875565b610d71565b82525050565b6000819050919050565b610db5610db08261072d565b610d9a565b82525050565b6000610dc78285610d83565b601482019150610dd78284610da4565b6020820191508190509392505050565b600081519050919050565b600081905092915050565b6000610e0882610de7565b610e128185610df2565b9350610e228185602086016107bf565b80840191505092915050565b6000610e3a8284610dfd565b915081905092915050565b600081519050610e5481610701565b92915050565b600060208284031215610e7057610e6f6106ed565b5b6000610e7e84828501610e45565b91505092915050565b60008190508160005260206000209050919050565b60006020601f8301049050919050565b600082821b905092915050565b600060088302610ee97fffffffffffffffffffffffffffffffffffffffffffffffffffffffffffffffff82610eac565b610ef38683610eac565b95508019841693508086168417925050509392505050565b6000819050919050565b6000610f30610f2b610f268461072d565b610f0b565b61072d565b9050919050565b6000819050919050565b610f4a83610f15565b610f5e610f5682610f37565b848454610eb9565b825550505050565b600090565b610f73610f66565b610f7e818484610f41565b505050565b5b81811015610fa257610f97600082610f6b565b600181019050610f84565b5050565b601f821115610fe757610fb881610e87565b610fc184610e9c565b81016020851015610fd0578190505b610fe4610fdc85610e9c565b830182610f83565b50505b505050565b600082821c905092915050565b600061100a60001984600802610fec565b1980831691505092915050565b60006110238383610ff9565b9150826002028217905092915050565b61103c826107a3565b67ffffffffffffffff8111156110555761105461099a565b5b61105f8254610d21565b61106a828285610fa6565b600060209050601f83116001811461109d576000841561108b578287015190505b6110958582611017565b8655506110fd565b601f1984166110ab86610e87565b60005b828110156110d3578489015182556001820191506020850194506020810190506110ae565b868310156110f057848901516110ec601f891682610ff9565b8355505b6001600288020188555050505b50505050505056fea26469706673582212200286bff02e16aa9b6d0278f1825fa84d4f2530d5b4bc1ed977317cdd4d6e998d64736f6c63430008130033",
					"opcodes": "PUSH1 0x80 PUSH1 0x40 MSTORE CALLVALUE DUP1 ISZERO PUSH2 0x10 JUMPI PUSH1 0x0 DUP1 REVERT JUMPDEST POP CALLER PUSH1 0x2 PUSH1 0x0 PUSH2 0x100 EXP DUP2 SLOAD DUP2 PUSH20 0xFFFFFFFFFFFFFFFFFFFFFFFFFFFFFFFFFFFFFFFF MUL NOT AND SWAP1 DUP4 PUSH20 0xFFFFFFFFFFFFFFFFFFFFFFFFFFFFFFFFFFFFFFFF AND MUL OR SWAP1 SSTORE POP PUSH2 0x113B DUP1 PUSH2 0x61 PUSH1 0x0 CODECOPY PUSH1 0x0 RETURN INVALID PUSH1 0x80 PUSH1 0x40 MSTORE CALLVALUE DUP1 ISZERO PUSH2 0x10 JUMPI PUSH1 0x0 DUP1 REVERT JUMPDEST POP PUSH1 0x4 CALLDATASIZE LT PUSH2 0x57 JUMPI PUSH1 0x0 CALLDATALOAD PUSH1 0xE0 SHR DUP1 PUSH4 0x3130ABAE EQ PUSH2 0x5C JUMPI DUP1 PUSH4 0x48103E65 EQ PUSH2 0x8C JUMPI DUP1 PUSH4 0x8ABC4BD9 EQ PUSH2 0xA8 JUMPI DUP1 PUSH4 0xBF94EFFA EQ PUSH2 0xDA JUMPI DUP1 PUSH4 0xD3BDDC2B EQ PUSH2 0x10A JUMPI JUMPDEST PUSH1 0x0 DUP1 REVERT JUMPDEST PUSH2 0x76 PUSH1 0x4 DUP1 CALLDATASIZE SUB DUP2 ADD SWAP1 PUSH2 0x71 SWAP2 SWAP1 PUSH2 0x763 JUMP JUMPDEST PUSH2 0x13A JUMP JUMPDEST PUSH1 0x40 MLOAD PUSH2 0x83 SWAP2 SWAP1 PUSH2 0x833 JUMP JUMPDEST PUSH1 0x40 MLOAD DUP1 SWAP2 SUB SWAP1 RETURN JUMPDEST PUSH2 0xA6 PUSH1 0x4 DUP1 CALLDATASIZE SUB DUP2 ADD SWAP1 PUSH2 0xA1 SWAP2 SWAP1 PUSH2 0x8B3 JUMP JUMPDEST PUSH2 0x31A JUMP JUMPDEST STOP JUMPDEST PUSH2 0xC2 PUSH1 0x4 DUP1 CALLDATASIZE SUB DUP2 ADD SWAP1 PUSH2 0xBD SWAP2 SWAP1 PUSH2 0x8E0 JUMP JUMPDEST PUSH2 0x45B JUMP JUMPDEST PUSH1 0x40 MLOAD PUSH2 0xD1 SWAP4 SWAP3 SWAP2 SWAP1 PUSH2 0x937 JUMP JUMPDEST PUSH1 0x40 MLOAD DUP1 SWAP2 SUB SWAP1 RETURN JUMPDEST PUSH2 0xF4 PUSH1 0x4 DUP1 CALLDATASIZE SUB DUP2 ADD SWAP1 PUSH2 0xEF SWAP2 SWAP1 PUSH2 0x8B3 JUMP JUMPDEST PUSH2 0x51A JUMP JUMPDEST PUSH1 0x40 MLOAD PUSH2 0x101 SWAP2 SWAP1 PUSH2 0x975 JUMP JUMPDEST PUSH1 0x40 MLOAD DUP1 SWAP2 SUB SWAP1 RETURN JUMPDEST PUSH2 0x124 PUSH1 0x4 DUP1 CALLDATASIZE SUB DUP2 ADD SWAP1 PUSH2 0x11F SWAP2 SWAP1 PUSH2 0xAC5 JUMP JUMPDEST PUSH2 0x53A JUMP JUMPDEST PUSH1 0x40 MLOAD PUSH2 0x131 SWAP2 SWAP1 PUSH2 0xB30 JUMP JUMPDEST PUSH1 0x40 MLOAD DUP1 SWAP2 SUB SWAP1 RETURN JUMPDEST PUSH1 0x60 CALLER PUSH20 0xFFFFFFFFFFFFFFFFFFFFFFFFFFFFFFFFFFFFFFFF AND PUSH1 0x2 PUSH1 0x0 SWAP1 SLOAD SWAP1 PUSH2 0x100 EXP SWAP1 DIV PUSH20 0xFFFFFFFFFFFFFFFFFFFFFFFFFFFFFFFFFFFFFFFF AND PUSH20 0xFFFFFFFFFFFFFFFFFFFFFFFFFFFFFFFFFFFFFFFF AND EQ PUSH2 0x1CC JUMPI PUSH1 0x40 MLOAD PUSH32 0x8C379A000000000000000000000000000000000000000000000000000000000 DUP2 MSTORE PUSH1 0x4 ADD PUSH2 0x1C3 SWAP1 PUSH2 0xB97 JUMP JUMPDEST PUSH1 0x40 MLOAD DUP1 SWAP2 SUB SWAP1 REVERT JUMPDEST PUSH1 0x1 PUSH1 0x0 CALLER PUSH20 0xFFFFFFFFFFFFFFFFFFFFFFFFFFFFFFFFFFFFFFFF AND PUSH20 0xFFFFFFFFFFFFFFFFFFFFFFFFFFFFFFFFFFFFFFFF AND DUP2 MSTORE PUSH1 0x20 ADD SWAP1 DUP2 MSTORE PUSH1 0x20 ADD PUSH1 0x0 KECCAK256 PUSH1 0x0 SWAP1 SLOAD SWAP1 PUSH2 0x100 EXP SWAP1 DIV PUSH1 0xFF AND PUSH2 0x258 JUMPI PUSH1 0x40 MLOAD PUSH32 0x8C379A000000000000000000000000000000000000000000000000000000000 DUP2 MSTORE PUSH1 0x4 ADD PUSH2 0x24F SWAP1 PUSH2 0xC03 JUMP JUMPDEST PUSH1 0x40 MLOAD DUP1 SWAP2 SUB SWAP1 REVERT JUMPDEST DUP2 PUSH1 0x0 DUP1 DUP6 DUP2 MSTORE PUSH1 0x20 ADD SWAP1 DUP2 MSTORE PUSH1 0x20 ADD PUSH1 0x0 KECCAK256 PUSH1 0x2 ADD SLOAD LT ISZERO PUSH2 0x2B0 JUMPI PUSH1 0x40 MLOAD PUSH32 0x8C379A000000000000000000000000000000000000000000000000000000000 DUP2 MSTORE PUSH1 0x4 ADD PUSH2 0x2A7 SWAP1 PUSH2 0xC6F JUMP JUMPDEST PUSH1 0x40 MLOAD DUP1 SWAP2 SUB SWAP1 REVERT JUMPDEST DUP2 PUSH1 0x0 DUP1 DUP6 DUP2 MSTORE PUSH1 0x20 ADD SWAP1 DUP2 MSTORE PUSH1 0x20 ADD PUSH1 0x0 KECCAK256 PUSH1 0x2 ADD PUSH1 0x0 DUP3 DUP3 SLOAD PUSH2 0x2D5 SWAP2 SWAP1 PUSH2 0xCBE JUMP JUMPDEST SWAP3 POP POP DUP2 SWAP1 SSTORE POP PUSH1 0x40 MLOAD DUP1 PUSH1 0x40 ADD PUSH1 0x40 MSTORE DUP1 PUSH1 0x7 DUP2 MSTORE PUSH1 0x20 ADD PUSH32 0x5375636365737300000000000000000000000000000000000000000000000000 DUP2 MSTORE POP SWAP1 POP SWAP3 SWAP2 POP POP JUMP JUMPDEST CALLER PUSH20 0xFFFFFFFFFFFFFFFFFFFFFFFFFFFFFFFFFFFFFFFF AND PUSH1 0x2 PUSH1 0x0 SWAP1 SLOAD SWAP1 PUSH2 0x100 EXP SWAP1 DIV PUSH20 0xFFFFFFFFFFFFFFFFFFFFFFFFFFFFFFFFFFFFFFFF AND PUSH20 0xFFFFFFFFFFFFFFFFFFFFFFFFFFFFFFFFFFFFFFFF AND EQ PUSH2 0x3AA JUMPI PUSH1 0x40 MLOAD PUSH32 0x8C379A000000000000000000000000000000000000000000000000000000000 DUP2 MSTORE PUSH1 0x4 ADD PUSH2 0x3A1 SWAP1 PUSH2 0xB97 JUMP JUMPDEST PUSH1 0x40 MLOAD DUP1 SWAP2 SUB SWAP1 REVERT JUMPDEST PUSH1 0x1 PUSH1 0x0 DUP3 PUSH20 0xFFFFFFFFFFFFFFFFFFFFFFFFFFFFFFFFFFFFFFFF AND PUSH20 0xFFFFFFFFFFFFFFFFFFFFFFFFFFFFFFFFFFFFFFFF AND DUP2 MSTORE PUSH1 0x20 ADD SWAP1 DUP2 MSTORE PUSH1 0x20 ADD PUSH1 0x0 KECCAK256 PUSH1 0x0 SWAP1 SLOAD SWAP1 PUSH2 0x100 EXP SWAP1 DIV PUSH1 0xFF AND ISZERO PUSH2 0x401 JUMPI PUSH1 0x0 DUP1 REVERT JUMPDEST PUSH1 0x1 DUP1 PUSH1 0x0 DUP4 PUSH20 0xFFFFFFFFFFFFFFFFFFFFFFFFFFFFFFFFFFFFFFFF AND PUSH20 0xFFFFFFFFFFFFFFFFFFFFFFFFFFFFFFFFFFFFFFFF AND DUP2 MSTORE PUSH1 0x20 ADD SWAP1 DUP2 MSTORE PUSH1 0x20 ADD PUSH1 0x0 KECCAK256 PUSH1 0x0 PUSH2 0x100 EXP DUP2 SLOAD DUP2 PUSH1 0xFF MUL NOT AND SWAP1 DUP4 ISZERO ISZERO MUL OR SWAP1 SSTORE POP POP JUMP JUMPDEST PUSH1 0x0 PUSH1 0x20 MSTORE DUP1 PUSH1 0x0 MSTORE PUSH1 0x40 PUSH1 0x0 KECCAK256 PUSH1 0x0 SWAP2 POP SWAP1 POP DUP1 PUSH1 0x0 ADD PUSH1 0x0 SWAP1 SLOAD SWAP1 PUSH2 0x100 EXP SWAP1 DIV PUSH1 0xFF AND SWAP1 DUP1 PUSH1 0x1 ADD DUP1 SLOAD PUSH2 0x491 SWAP1 PUSH2 0xD21 JUMP JUMPDEST DUP1 PUSH1 0x1F ADD PUSH1 0x20 DUP1 SWAP2 DIV MUL PUSH1 0x20 ADD PUSH1 0x40 MLOAD SWAP1 DUP2 ADD PUSH1 0x40 MSTORE DUP1 SWAP3 SWAP2 SWAP1 DUP2 DUP2 MSTORE PUSH1 0x20 ADD DUP3 DUP1 SLOAD PUSH2 0x4BD SWAP1 PUSH2 0xD21 JUMP JUMPDEST DUP1 ISZERO PUSH2 0x50A JUMPI DUP1 PUSH1 0x1F LT PUSH2 0x4DF JUMPI PUSH2 0x100 DUP1 DUP4 SLOAD DIV MUL DUP4 MSTORE SWAP2 PUSH1 0x20 ADD SWAP2 PUSH2 0x50A JUMP JUMPDEST DUP3 ADD SWAP2 SWAP1 PUSH1 0x0 MSTORE PUSH1 0x20 PUSH1 0x0 KECCAK256 SWAP1 JUMPDEST DUP2 SLOAD DUP2 MSTORE SWAP1 PUSH1 0x1 ADD SWAP1 PUSH1 0x20 ADD DUP1 DUP4 GT PUSH2 0x4ED JUMPI DUP3 SWAP1 SUB PUSH1 0x1F AND DUP3 ADD SWAP2 JUMPDEST POP POP POP POP POP SWAP1 DUP1 PUSH1 0x2 ADD SLOAD SWAP1 POP DUP4 JUMP JUMPDEST PUSH1 0x1 PUSH1 0x20 MSTORE DUP1 PUSH1 0x0 MSTORE PUSH1 0x40 PUSH1 0x0 KECCAK256 PUSH1 0x0 SWAP2 POP SLOAD SWAP1 PUSH2 0x100 EXP SWAP1 DIV PUSH1 0xFF AND DUP2 JUMP JUMPDEST PUSH1 0x0 CALLER PUSH20 0xFFFFFFFFFFFFFFFFFFFFFFFFFFFFFFFFFFFFFFFF AND PUSH1 0x2 PUSH1 0x0 SWAP1 SLOAD SWAP1 PUSH2 0x100 EXP SWAP1 DIV PUSH20 0xFFFFFFFFFFFFFFFFFFFFFFFFFFFFFFFFFFFFFFFF AND PUSH20 0xFFFFFFFFFFFFFFFFFFFFFFFFFFFFFFFFFFFFFFFF AND EQ PUSH2 0x5CC JUMPI PUSH1 0x40 MLOAD PUSH32 0x8C379A000000000000000000000000000000000000000000000000000000000 DUP2 MSTORE PUSH1 0x4 ADD PUSH2 0x5C3 SWAP1 PUSH2 0xB97 JUMP JUMPDEST PUSH1 0x40 MLOAD DUP1 SWAP2 SUB SWAP1 REVERT JUMPDEST PUSH1 0x0 PUSH1 0x2 CALLER TIMESTAMP PUSH1 0x40 MLOAD PUSH1 0x20 ADD PUSH2 0x5E3 SWAP3 SWAP2 SWAP1 PUSH2 0xDBB JUMP JUMPDEST PUSH1 0x40 MLOAD PUSH1 0x20 DUP2 DUP4 SUB SUB DUP2 MSTORE SWAP1 PUSH1 0x40 MSTORE PUSH1 0x40 MLOAD PUSH2 0x5FF SWAP2 SWAP1 PUSH2 0xE2E JUMP JUMPDEST PUSH1 0x20 PUSH1 0x40 MLOAD DUP1 DUP4 SUB DUP2 DUP6 GAS STATICCALL ISZERO DUP1 ISZERO PUSH2 0x61C JUMPI RETURNDATASIZE PUSH1 0x0 DUP1 RETURNDATACOPY RETURNDATASIZE PUSH1 0x0 REVERT JUMPDEST POP POP POP PUSH1 0x40 MLOAD RETURNDATASIZE PUSH1 0x1F NOT PUSH1 0x1F DUP3 ADD AND DUP3 ADD DUP1 PUSH1 0x40 MSTORE POP DUP2 ADD SWAP1 PUSH2 0x63F SWAP2 SWAP1 PUSH2 0xE5A JUMP JUMPDEST SWAP1 POP PUSH1 0x0 DUP1 DUP3 DUP2 MSTORE PUSH1 0x20 ADD SWAP1 DUP2 MSTORE PUSH1 0x20 ADD PUSH1 0x0 KECCAK256 PUSH1 0x0 ADD PUSH1 0x0 SWAP1 SLOAD SWAP1 PUSH2 0x100 EXP SWAP1 DIV PUSH1 0xFF AND ISZERO PUSH2 0x66E JUMPI PUSH1 0x0 DUP1 REVERT JUMPDEST PUSH1 0x1 PUSH1 0x0 DUP1 DUP4 DUP2 MSTORE PUSH1 0x20 ADD SWAP1 DUP2 MSTORE PUSH1 0x20 ADD PUSH1 0x0 KECCAK256 PUSH1 0x0 ADD PUSH1 0x0 PUSH2 0x100 EXP DUP2 SLOAD DUP2 PUSH1 0xFF MUL NOT AND SWAP1 DUP4 ISZERO ISZERO MUL OR SWAP1 SSTORE POP DUP4 PUSH1 0x0 DUP1 DUP4 DUP2 MSTORE PUSH1 0x20 ADD SWAP1 DUP2 MSTORE PUSH1 0x20 ADD PUSH1 0x0 KECCAK256 PUSH1 0x1 ADD SWAP1 DUP2 PUSH2 0x6BE SWAP2 SWAP1 PUSH2 0x1033 JUMP JUMPDEST POP DUP3 PUSH1 0x0 DUP1 DUP4 DUP2 MSTORE PUSH1 0x20 ADD SWAP1 DUP2 MSTORE PUSH1 0x20 ADD PUSH1 0x0 KECCAK256 PUSH1 0x2 ADD DUP2 SWAP1 SSTORE POP DUP1 SWAP2 POP POP SWAP3 SWAP2 POP POP JUMP JUMPDEST PUSH1 0x0 PUSH1 0x40 MLOAD SWAP1 POP SWAP1 JUMP JUMPDEST PUSH1 0x0 DUP1 REVERT JUMPDEST PUSH1 0x0 DUP1 REVERT JUMPDEST PUSH1 0x0 DUP2 SWAP1 POP SWAP2 SWAP1 POP JUMP JUMPDEST PUSH2 0x70A DUP2 PUSH2 0x6F7 JUMP JUMPDEST DUP2 EQ PUSH2 0x715 JUMPI PUSH1 0x0 DUP1 REVERT JUMPDEST POP JUMP JUMPDEST PUSH1 0x0 DUP2 CALLDATALOAD SWAP1 POP PUSH2 0x727 DUP2 PUSH2 0x701 JUMP JUMPDEST SWAP3 SWAP2 POP POP JUMP JUMPDEST PUSH1 0x0 DUP2 SWAP1 POP SWAP2 SWAP1 POP JUMP JUMPDEST PUSH2 0x740 DUP2 PUSH2 0x72D JUMP JUMPDEST DUP2 EQ PUSH2 0x74B JUMPI PUSH1 0x0 DUP1 REVERT JUMPDEST POP JUMP JUMPDEST PUSH1 0x0 DUP2 CALLDATALOAD SWAP1 POP PUSH2 0x75D DUP2 PUSH2 0x737 JUMP JUMPDEST SWAP3 SWAP2 POP POP JUMP JUMPDEST PUSH1 0x0 DUP1 PUSH1 0x40 DUP4 DUP6 SUB SLT ISZERO PUSH2 0x77A JUMPI PUSH2 0x779 PUSH2 0x6ED JUMP JUMPDEST JUMPDEST PUSH1 0x0 PUSH2 0x788 DUP6 DUP3 DUP7 ADD PUSH2 0x718 JUMP JUMPDEST SWAP3 POP POP PUSH1 0x20 PUSH2 0x799 DUP6 DUP3 DUP7 ADD PUSH2 0x74E JUMP JUMPDEST SWAP2 POP POP SWAP3 POP SWAP3 SWAP1 POP JUMP JUMPDEST PUSH1 0x0 DUP2 MLOAD SWAP1 POP SWAP2 SWAP1 POP JUMP JUMPDEST PUSH1 0x0 DUP3 DUP3 MSTORE PUSH1 0x20 DUP3 ADD SWAP1 POP SWAP3 SWAP2 POP POP JUMP JUMPDEST PUSH1 0x0 JUMPDEST DUP4 DUP2 LT ISZERO PUSH2 0x7DD JUMPI DUP1 DUP3 ADD MLOAD DUP2 DUP5 ADD MSTORE PUSH1 0x20 DUP2 ADD SWAP1 POP PUSH2 0x7C2 JUMP JUMPDEST PUSH1 0x0 DUP5 DUP5 ADD MSTORE POP POP POP POP JUMP JUMPDEST PUSH1 0x0 PUSH1 0x1F NOT PUSH1 0x1F DUP4 ADD AND SWAP1 POP SWAP2 SWAP1 POP JUMP JUMPDEST PUSH1 0x0 PUSH2 0x805 DUP3 PUSH2 0x7A3 JUMP JUMPDEST PUSH2 0x80F DUP2 DUP6 PUSH2 0x7AE JUMP JUMPDEST SWAP4 POP PUSH2 0x81F DUP2 DUP6 PUSH1 0x20 DUP7 ADD PUSH2 0x7BF JUMP JUMPDEST PUSH2 0x828 DUP2 PUSH2 0x7E9 JUMP JUMPDEST DUP5 ADD SWAP2 POP POP SWAP3 SWAP2 POP POP JUMP JUMPDEST PUSH1 0x0 PUSH1 0x20 DUP3 ADD SWAP1 POP DUP2 DUP2 SUB PUSH1 0x0 DUP4 ADD MSTORE PUSH2 0x84D DUP2 DUP5 PUSH2 0x7FA JUMP JUMPDEST SWAP1 POP SWAP3 SWAP2 POP POP JUMP JUMPDEST PUSH1 0x0 PUSH20 0xFFFFFFFFFFFFFFFFFFFFFFFFFFFFFFFFFFFFFFFF DUP3 AND SWAP1 POP SWAP2 SWAP1 POP JUMP JUMPDEST PUSH1 0x0 PUSH2 0x880 DUP3 PUSH2 0x855 JUMP JUMPDEST SWAP1 POP SWAP2 SWAP1 POP JUMP JUMPDEST PUSH2 0x890 DUP2 PUSH2 0x875 JUMP JUMPDEST DUP2 EQ PUSH2 0x89B JUMPI PUSH1 0x0 DUP1 REVERT JUMPDEST POP JUMP JUMPDEST PUSH1 0x0 DUP2 CALLDATALOAD SWAP1 POP PUSH2 0x8AD DUP2 PUSH2 0x887 JUMP JUMPDEST SWAP3 SWAP2 POP POP JUMP JUMPDEST PUSH1 0x0 PUSH1 0x20 DUP3 DUP5 SUB SLT ISZERO PUSH2 0x8C9 JUMPI PUSH2 0x8C8 PUSH2 0x6ED JUMP JUMPDEST JUMPDEST PUSH1 0x0 PUSH2 0x8D7 DUP5 DUP3 DUP6 ADD PUSH2 0x89E JUMP JUMPDEST SWAP2 POP POP SWAP3 SWAP2 POP POP JUMP JUMPDEST PUSH1 0x0 PUSH1 0x20 DUP3 DUP5 SUB SLT ISZERO PUSH2 0x8F6 JUMPI PUSH2 0x8F5 PUSH2 0x6ED JUMP JUMPDEST JUMPDEST PUSH1 0x0 PUSH2 0x904 DUP5 DUP3 DUP6 ADD PUSH2 0x718 JUMP JUMPDEST SWAP2 POP POP SWAP3 SWAP2 POP POP JUMP JUMPDEST PUSH1 0x0 DUP2 ISZERO ISZERO SWAP1 POP SWAP2 SWAP1 POP JUMP JUMPDEST PUSH2 0x922 DUP2 PUSH2 0x90D JUMP JUMPDEST DUP3 MSTORE POP POP JUMP JUMPDEST PUSH2 0x931 DUP2 PUSH2 0x72D JUMP JUMPDEST DUP3 MSTORE POP POP JUMP JUMPDEST PUSH1 0x0 PUSH1 0x60 DUP3 ADD SWAP1 POP PUSH2 0x94C PUSH1 0x0 DUP4 ADD DUP7 PUSH2 0x919 JUMP JUMPDEST DUP2 DUP2 SUB PUSH1 0x20 DUP4 ADD MSTORE PUSH2 0x95E DUP2 DUP6 PUSH2 0x7FA JUMP JUMPDEST SWAP1 POP PUSH2 0x96D PUSH1 0x40 DUP4 ADD DUP5 PUSH2 0x928 JUMP JUMPDEST SWAP5 SWAP4 POP POP POP POP JUMP JUMPDEST PUSH1 0x0 PUSH1 0x20 DUP3 ADD SWAP1 POP PUSH2 0x98A PUSH1 0x0 DUP4 ADD DUP5 PUSH2 0x919 JUMP JUMPDEST SWAP3 SWAP2 POP POP JUMP JUMPDEST PUSH1 0x0 DUP1 REVERT JUMPDEST PUSH1 0x0 DUP1 REVERT JUMPDEST PUSH32 0x4E487B7100000000000000000000000000000000000000000000000000000000 PUSH1 0x0 MSTORE PUSH1 0x41 PUSH1 0x4 MSTORE PUSH1 0x24 PUSH1 0x0 REVERT JUMPDEST PUSH2 0x9D2 DUP3 PUSH2 0x7E9 JUMP JUMPDEST DUP2 ADD DUP2 DUP2 LT PUSH8 0xFFFFFFFFFFFFFFFF DUP3 GT OR ISZERO PUSH2 0x9F1 JUMPI PUSH2 0x9F0 PUSH2 0x99A JUMP JUMPDEST JUMPDEST DUP1 PUSH1 0x40 MSTORE POP POP POP JUMP JUMPDEST PUSH1 0x0 PUSH2 0xA04 PUSH2 0x6E3 JUMP JUMPDEST SWAP1 POP PUSH2 0xA10 DUP3 DUP3 PUSH2 0x9C9 JUMP JUMPDEST SWAP2 SWAP1 POP JUMP JUMPDEST PUSH1 0x0 PUSH8 0xFFFFFFFFFFFFFFFF DUP3 GT ISZERO PUSH2 0xA30 JUMPI PUSH2 0xA2F PUSH2 0x99A JUMP JUMPDEST JUMPDEST PUSH2 0xA39 DUP3 PUSH2 0x7E9 JUMP JUMPDEST SWAP1 POP PUSH1 0x20 DUP2 ADD SWAP1 POP SWAP2 SWAP1 POP JUMP JUMPDEST DUP3 DUP2 DUP4 CALLDATACOPY PUSH1 0x0 DUP4 DUP4 ADD MSTORE POP POP POP JUMP JUMPDEST PUSH1 0x0 PUSH2 0xA68 PUSH2 0xA63 DUP5 PUSH2 0xA15 JUMP JUMPDEST PUSH2 0x9FA JUMP JUMPDEST SWAP1 POP DUP3 DUP2 MSTORE PUSH1 0x20 DUP2 ADD DUP5 DUP5 DUP5 ADD GT ISZERO PUSH2 0xA84 JUMPI PUSH2 0xA83 PUSH2 0x995 JUMP JUMPDEST JUMPDEST PUSH2 0xA8F DUP5 DUP3 DUP6 PUSH2 0xA46 JUMP JUMPDEST POP SWAP4 SWAP3 POP POP POP JUMP JUMPDEST PUSH1 0x0 DUP3 PUSH1 0x1F DUP4 ADD SLT PUSH2 0xAAC JUMPI PUSH2 0xAAB PUSH2 0x990 JUMP JUMPDEST JUMPDEST DUP2 CALLDATALOAD PUSH2 0xABC DUP5 DUP3 PUSH1 0x20 DUP7 ADD PUSH2 0xA55 JUMP JUMPDEST SWAP2 POP POP SWAP3 SWAP2 POP POP JUMP JUMPDEST PUSH1 0x0 DUP1 PUSH1 0x40 DUP4 DUP6 SUB SLT ISZERO PUSH2 0xADC JUMPI PUSH2 0xADB PUSH2 0x6ED JUMP JUMPDEST JUMPDEST PUSH1 0x0 DUP4 ADD CALLDATALOAD PUSH8 0xFFFFFFFFFFFFFFFF DUP2 GT ISZERO PUSH2 0xAFA JUMPI PUSH2 0xAF9 PUSH2 0x6F2 JUMP JUMPDEST JUMPDEST PUSH2 0xB06 DUP6 DUP3 DUP7 ADD PUSH2 0xA97 JUMP JUMPDEST SWAP3 POP POP PUSH1 0x20 PUSH2 0xB17 DUP6 DUP3 DUP7 ADD PUSH2 0x74E JUMP JUMPDEST SWAP2 POP POP SWAP3 POP SWAP3 SWAP1 POP JUMP JUMPDEST PUSH2 0xB2A DUP2 PUSH2 0x6F7 JUMP JUMPDEST DUP3 MSTORE POP POP JUMP JUMPDEST PUSH1 0x0 PUSH1 0x20 DUP3 ADD SWAP1 POP PUSH2 0xB45 PUSH1 0x0 DUP4 ADD DUP5 PUSH2 0xB21 JUMP JUMPDEST SWAP3 SWAP2 POP POP JUMP JUMPDEST PUSH32 0x4F6E6C79204F776E65722063616E000000000000000000000000000000000000 PUSH1 0x0 DUP3 ADD MSTORE POP JUMP JUMPDEST PUSH1 0x0 PUSH2 0xB81 PUSH1 0xE DUP4 PUSH2 0x7AE JUMP JUMPDEST SWAP2 POP PUSH2 0xB8C DUP3 PUSH2 0xB4B JUMP JUMPDEST PUSH1 0x20 DUP3 ADD SWAP1 POP SWAP2 SWAP1 POP JUMP JUMPDEST PUSH1 0x0 PUSH1 0x20 DUP3 ADD SWAP1 POP DUP2 DUP2 SUB PUSH1 0x0 DUP4 ADD MSTORE PUSH2 0xBB0 DUP2 PUSH2 0xB74 JUMP JUMPDEST SWAP1 POP SWAP2 SWAP1 POP JUMP JUMPDEST PUSH32 0x4F6E6C7920646F63746F722063616E2075736520696E737572616E6365000000 PUSH1 0x0 DUP3 ADD MSTORE POP JUMP JUMPDEST PUSH1 0x0 PUSH2 0xBED PUSH1 0x1D DUP4 PUSH2 0x7AE JUMP JUMPDEST SWAP2 POP PUSH2 0xBF8 DUP3 PUSH2 0xBB7 JUMP JUMPDEST PUSH1 0x20 DUP3 ADD SWAP1 POP SWAP2 SWAP1 POP JUMP JUMPDEST PUSH1 0x0 PUSH1 0x20 DUP3 ADD SWAP1 POP DUP2 DUP2 SUB PUSH1 0x0 DUP4 ADD MSTORE PUSH2 0xC1C DUP2 PUSH2 0xBE0 JUMP JUMPDEST SWAP1 POP SWAP2 SWAP1 POP JUMP JUMPDEST PUSH32 0x496E73756666696369656E7420696E737572656420616D6F756E740000000000 PUSH1 0x0 DUP3 ADD MSTORE POP JUMP JUMPDEST PUSH1 0x0 PUSH2 0xC59 PUSH1 0x1B DUP4 PUSH2 0x7AE JUMP JUMPDEST SWAP2 POP PUSH2 0xC64 DUP3 PUSH2 0xC23 JUMP JUMPDEST PUSH1 0x20 DUP3 ADD SWAP1 POP SWAP2 SWAP1 POP JUMP JUMPDEST PUSH1 0x0 PUSH1 0x20 DUP3 ADD SWAP1 POP DUP2 DUP2 SUB PUSH1 0x0 DUP4 ADD MSTORE PUSH2 0xC88 DUP2 PUSH2 0xC4C JUMP JUMPDEST SWAP1 POP SWAP2 SWAP1 POP JUMP JUMPDEST PUSH32 0x4E487B7100000000000000000000000000000000000000000000000000000000 PUSH1 0x0 MSTORE PUSH1 0x11 PUSH1 0x4 MSTORE PUSH1 0x24 PUSH1 0x0 REVERT JUMPDEST PUSH1 0x0 PUSH2 0xCC9 DUP3 PUSH2 0x72D JUMP JUMPDEST SWAP2 POP PUSH2 0xCD4 DUP4 PUSH2 0x72D JUMP JUMPDEST SWAP3 POP DUP3 DUP3 SUB SWAP1 POP DUP2 DUP2 GT ISZERO PUSH2 0xCEC JUMPI PUSH2 0xCEB PUSH2 0xC8F JUMP JUMPDEST JUMPDEST SWAP3 SWAP2 POP POP JUMP JUMPDEST PUSH32 0x4E487B7100000000000000000000000000000000000000000000000000000000 PUSH1 0x0 MSTORE PUSH1 0x22 PUSH1 0x4 MSTORE PUSH1 0x24 PUSH1 0x0 REVERT JUMPDEST PUSH1 0x0 PUSH1 0x2 DUP3 DIV SWAP1 POP PUSH1 0x1 DUP3 AND DUP1 PUSH2 0xD39 JUMPI PUSH1 0x7F DUP3 AND SWAP2 POP JUMPDEST PUSH1 0x20 DUP3 LT DUP2 SUB PUSH2 0xD4C JUMPI PUSH2 0xD4B PUSH2 0xCF2 JUMP JUMPDEST JUMPDEST POP SWAP2 SWAP1 POP JUMP JUMPDEST PUSH1 0x0 DUP2 PUSH1 0x60 SHL SWAP1 POP SWAP2 SWAP1 POP JUMP JUMPDEST PUSH1 0x0 PUSH2 0xD6A DUP3 PUSH2 0xD52 JUMP JUMPDEST SWAP1 POP SWAP2 SWAP1 POP JUMP JUMPDEST PUSH1 0x0 PUSH2 0xD7C DUP3 PUSH2 0xD5F JUMP JUMPDEST SWAP1 POP SWAP2 SWAP1 POP JUMP JUMPDEST PUSH2 0xD94 PUSH2 0xD8F DUP3 PUSH2 0x875 JUMP JUMPDEST PUSH2 0xD71 JUMP JUMPDEST DUP3 MSTORE POP POP JUMP JUMPDEST PUSH1 0x0 DUP2 SWAP1 POP SWAP2 SWAP1 POP JUMP JUMPDEST PUSH2 0xDB5 PUSH2 0xDB0 DUP3 PUSH2 0x72D JUMP JUMPDEST PUSH2 0xD9A JUMP JUMPDEST DUP3 MSTORE POP POP JUMP JUMPDEST PUSH1 0x0 PUSH2 0xDC7 DUP3 DUP6 PUSH2 0xD83 JUMP JUMPDEST PUSH1 0x14 DUP3 ADD SWAP2 POP PUSH2 0xDD7 DUP3 DUP5 PUSH2 0xDA4 JUMP JUMPDEST PUSH1 0x20 DUP3 ADD SWAP2 POP DUP2 SWAP1 POP SWAP4 SWAP3 POP POP POP JUMP JUMPDEST PUSH1 0x0 DUP2 MLOAD SWAP1 POP SWAP2 SWAP1 POP JUMP JUMPDEST PUSH1 0x0 DUP2 SWAP1 POP SWAP3 SWAP2 POP POP JUMP JUMPDEST PUSH1 0x0 PUSH2 0xE08 DUP3 PUSH2 0xDE7 JUMP JUMPDEST PUSH2 0xE12 DUP2 DUP6 PUSH2 0xDF2 JUMP JUMPDEST SWAP4 POP PUSH2 0xE22 DUP2 DUP6 PUSH1 0x20 DUP7 ADD PUSH2 0x7BF JUMP JUMPDEST DUP1 DUP5 ADD SWAP2 POP POP SWAP3 SWAP2 POP POP JUMP JUMPDEST PUSH1 0x0 PUSH2 0xE3A DUP3 DUP5 PUSH2 0xDFD JUMP JUMPDEST SWAP2 POP DUP2 SWAP1 POP SWAP3 SWAP2 POP POP JUMP JUMPDEST PUSH1 0x0 DUP2 MLOAD SWAP1 POP PUSH2 0xE54 DUP2 PUSH2 0x701 JUMP JUMPDEST SWAP3 SWAP2 POP POP JUMP JUMPDEST PUSH1 0x0 PUSH1 0x20 DUP3 DUP5 SUB SLT ISZERO PUSH2 0xE70 JUMPI PUSH2 0xE6F PUSH2 0x6ED JUMP JUMPDEST JUMPDEST PUSH1 0x0 PUSH2 0xE7E DUP5 DUP3 DUP6 ADD PUSH2 0xE45 JUMP JUMPDEST SWAP2 POP POP SWAP3 SWAP2 POP POP JUMP JUMPDEST PUSH1 0x0 DUP2 SWAP1 POP DUP2 PUSH1 0x0 MSTORE PUSH1 0x20 PUSH1 0x0 KECCAK256 SWAP1 POP SWAP2 SWAP1 POP JUMP JUMPDEST PUSH1 0x0 PUSH1 0x20 PUSH1 0x1F DUP4 ADD DIV SWAP1 POP SWAP2 SWAP1 POP JUMP JUMPDEST PUSH1 0x0 DUP3 DUP3 SHL SWAP1 POP SWAP3 SWAP2 POP POP JUMP JUMPDEST PUSH1 0x0 PUSH1 0x8 DUP4 MUL PUSH2 0xEE9 PUSH32 0xFFFFFFFFFFFFFFFFFFFFFFFFFFFFFFFFFFFFFFFFFFFFFFFFFFFFFFFFFFFFFFFF DUP3 PUSH2 0xEAC JUMP JUMPDEST PUSH2 0xEF3 DUP7 DUP4 PUSH2 0xEAC JUMP JUMPDEST SWAP6 POP DUP1 NOT DUP5 AND SWAP4 POP DUP1 DUP7 AND DUP5 OR SWAP3 POP POP POP SWAP4 SWAP3 POP POP POP JUMP JUMPDEST PUSH1 0x0 DUP2 SWAP1 POP SWAP2 SWAP1 POP JUMP JUMPDEST PUSH1 0x0 PUSH2 0xF30 PUSH2 0xF2B PUSH2 0xF26 DUP5 PUSH2 0x72D JUMP JUMPDEST PUSH2 0xF0B JUMP JUMPDEST PUSH2 0x72D JUMP JUMPDEST SWAP1 POP SWAP2 SWAP1 POP JUMP JUMPDEST PUSH1 0x0 DUP2 SWAP1 POP SWAP2 SWAP1 POP JUMP JUMPDEST PUSH2 0xF4A DUP4 PUSH2 0xF15 JUMP JUMPDEST PUSH2 0xF5E PUSH2 0xF56 DUP3 PUSH2 0xF37 JUMP JUMPDEST DUP5 DUP5 SLOAD PUSH2 0xEB9 JUMP JUMPDEST DUP3 SSTORE POP POP POP POP JUMP JUMPDEST PUSH1 0x0 SWAP1 JUMP JUMPDEST PUSH2 0xF73 PUSH2 0xF66 JUMP JUMPDEST PUSH2 0xF7E DUP2 DUP5 DUP5 PUSH2 0xF41 JUMP JUMPDEST POP POP POP JUMP JUMPDEST JUMPDEST DUP2 DUP2 LT ISZERO PUSH2 0xFA2 JUMPI PUSH2 0xF97 PUSH1 0x0 DUP3 PUSH2 0xF6B JUMP JUMPDEST PUSH1 0x1 DUP2 ADD SWAP1 POP PUSH2 0xF84 JUMP JUMPDEST POP POP JUMP JUMPDEST PUSH1 0x1F DUP3 GT ISZERO PUSH2 0xFE7 JUMPI PUSH2 0xFB8 DUP2 PUSH2 0xE87 JUMP JUMPDEST PUSH2 0xFC1 DUP5 PUSH2 0xE9C JUMP JUMPDEST DUP2 ADD PUSH1 0x20 DUP6 LT ISZERO PUSH2 0xFD0 JUMPI DUP2 SWAP1 POP JUMPDEST PUSH2 0xFE4 PUSH2 0xFDC DUP6 PUSH2 0xE9C JUMP JUMPDEST DUP4 ADD DUP3 PUSH2 0xF83 JUMP JUMPDEST POP POP JUMPDEST POP POP POP JUMP JUMPDEST PUSH1 0x0 DUP3 DUP3 SHR SWAP1 POP SWAP3 SWAP2 POP POP JUMP JUMPDEST PUSH1 0x0 PUSH2 0x100A PUSH1 0x0 NOT DUP5 PUSH1 0x8 MUL PUSH2 0xFEC JUMP JUMPDEST NOT DUP1 DUP4 AND SWAP2 POP POP SWAP3 SWAP2 POP POP JUMP JUMPDEST PUSH1 0x0 PUSH2 0x1023 DUP4 DUP4 PUSH2 0xFF9 JUMP JUMPDEST SWAP2 POP DUP3 PUSH1 0x2 MUL DUP3 OR SWAP1 POP SWAP3 SWAP2 POP POP JUMP JUMPDEST PUSH2 0x103C DUP3 PUSH2 0x7A3 JUMP JUMPDEST PUSH8 0xFFFFFFFFFFFFFFFF DUP2 GT ISZERO PUSH2 0x1055 JUMPI PUSH2 0x1054 PUSH2 0x99A JUMP JUMPDEST JUMPDEST PUSH2 0x105F DUP3 SLOAD PUSH2 0xD21 JUMP JUMPDEST PUSH2 0x106A DUP3 DUP3 DUP6 PUSH2 0xFA6 JUMP JUMPDEST PUSH1 0x0 PUSH1 0x20 SWAP1 POP PUSH1 0x1F DUP4 GT PUSH1 0x1 DUP2 EQ PUSH2 0x109D JUMPI PUSH1 0x0 DUP5 ISZERO PUSH2 0x108B JUMPI DUP3 DUP8 ADD MLOAD SWAP1 POP JUMPDEST PUSH2 0x1095 DUP6 DUP3 PUSH2 0x1017 JUMP JUMPDEST DUP7 SSTORE POP PUSH2 0x10FD JUMP JUMPDEST PUSH1 0x1F NOT DUP5 AND PUSH2 0x10AB DUP7 PUSH2 0xE87 JUMP JUMPDEST PUSH1 0x0 JUMPDEST DUP3 DUP2 LT ISZERO PUSH2 0x10D3 JUMPI DUP5 DUP10 ADD MLOAD DUP3 SSTORE PUSH1 0x1 DUP3 ADD SWAP2 POP PUSH1 0x20 DUP6 ADD SWAP5 POP PUSH1 0x20 DUP2 ADD SWAP1 POP PUSH2 0x10AE JUMP JUMPDEST DUP7 DUP4 LT ISZERO PUSH2 0x10F0 JUMPI DUP5 DUP10 ADD MLOAD PUSH2 0x10EC PUSH1 0x1F DUP10 AND DUP3 PUSH2 0xFF9 JUMP JUMPDEST DUP4 SSTORE POP JUMPDEST PUSH1 0x1 PUSH1 0x2 DUP9 MUL ADD DUP9 SSTORE POP POP POP JUMPDEST POP POP POP POP POP POP JUMP INVALID LOG2 PUSH5 0x6970667358 0x22 SLT KECCAK256 MUL DUP7 0xBF CREATE 0x2E AND 0xAA SWAP12 PUSH14 0x278F1825FA84D4F2530D5B4BC1E 0xD9 PUSH24 0x317CDD4D6E998D64736F6C63430008130033000000000000 "
				},
				"gasEstimates": {
					"creation": {
						"codeDepositCost": "882200",
						"executionCost": "25182",
						"totalCost": "907382"
					},
					"external": {
						"doctorMapping(address)": "2889",
						"setDoctor(address)": "29228",
						"setUser(string,uint256)": "infinite",
						"useInsurance(bytes32,uint256)": "infinite",
						"userMapping(bytes32)": "infinite"
					}
				},
				"methodIdentifiers": {
					"doctorMapping(address)": "bf94effa",
					"setDoctor(address)": "48103e65",
					"setUser(string,uint256)": "d3bddc2b",
					"useInsurance(bytes32,uint256)": "3130abae",
					"userMapping(bytes32)": "8abc4bd9"
				}
			},
			"storageLayout": {
				"storage": [
					{
						"astId": 13,
						"contract": "Insurance.sol:Insurance",
						"label": "userMapping",
						"offset": 0,
						"slot": "0",
						"type": "t_mapping(t_bytes32,t_struct(user)8_storage)"
					},
					{
						"astId": 17,
						"contract": "Insurance.sol:Insurance",
						"label": "doctorMapping",
						"offset": 0,
						"slot": "1",
						"type": "t_mapping(t_address,t_bool)"
					},
					{
						"astId": 19,
						"contract": "Insurance.sol:Insurance",
						"label": "Owner",
						"offset": 0,
						"slot": "2",
						"type": "t_address"
					}
				],
				"types": {
					"t_address": {
						"encoding": "inplace",
						"label": "address",
						"numberOfBytes": "20"
					},
					"t_bool": {
						"encoding": "inplace",
						"label": "bool",
						"numberOfBytes": "1"
					},
					"t_bytes32": {
						"encoding": "inplace",
						"label": "bytes32",
						"numberOfBytes": "32"
					},
					"t_mapping(t_address,t_bool)": {
						"encoding": "mapping",
						"key": "t_address",
						"label": "mapping(address => bool)",
						"numberOfBytes": "32",
						"value": "t_bool"
					},
					"t_mapping(t_bytes32,t_struct(user)8_storage)": {
						"encoding": "mapping",
						"key": "t_bytes32",
						"label": "mapping(bytes32 => struct Insurance.user)",
						"numberOfBytes": "32",
						"value": "t_struct(user)8_storage"
					},
					"t_string_storage": {
						"encoding": "bytes",
						"label": "string",
						"numberOfBytes": "32"
					},
					"t_struct(user)8_storage": {
						"encoding": "inplace",
						"label": "struct Insurance.user",
						"members": [
							{
								"astId": 3,
								"contract": "Insurance.sol:Insurance",
								"label": "isUID",
								"offset": 0,
								"slot": "0",
								"type": "t_bool"
							},
							{
								"astId": 5,
								"contract": "Insurance.sol:Insurance",
								"label": "name",
								"offset": 0,
								"slot": "1",
								"type": "t_string_storage"
							},
							{
								"astId": 7,
								"contract": "Insurance.sol:Insurance",
								"label": "Insured_Amount",
								"offset": 0,
								"slot": "2",
								"type": "t_uint256"
							}
						],
						"numberOfBytes": "96"
					},
					"t_uint256": {
						"encoding": "inplace",
						"label": "uint256",
						"numberOfBytes": "32"
					}
				}
			},
			"userdoc": {
				"kind": "user",
				"methods": {},
				"version": 1
			}
		}
	}
}