{
	"test,sol.sol": {
		"Staking": {
			"abi": [
				{
					"inputs": [],
					"stateMutability": "payable",
					"type": "constructor"
				},
				{
					"inputs": [],
					"name": "admin",
					"outputs": [
						{
							"internalType": "address",
							"name": "",
							"type": "address"
						}
					],
					"stateMutability": "view",
					"type": "function"
				},
				{
					"inputs": [
						{
							"internalType": "uint256",
							"name": "_interest",
							"type": "uint256"
						},
						{
							"internalType": "uint256",
							"name": "_numOfDays",
							"type": "uint256"
						},
						{
							"internalType": "uint256",
							"name": "_amount",
							"type": "uint256"
						}
					],
					"name": "calculateInterest",
					"outputs": [
						{
							"internalType": "uint256",
							"name": "",
							"type": "uint256"
						}
					],
					"stateMutability": "pure",
					"type": "function"
				},
				{
					"inputs": [
						{
							"internalType": "uint256",
							"name": "_id",
							"type": "uint256"
						},
						{
							"internalType": "uint256",
							"name": "_newUnlockPeriod",
							"type": "uint256"
						}
					],
					"name": "changeUnlockPeriod",
					"outputs": [],
					"stateMutability": "nonpayable",
					"type": "function"
				},
				{
					"inputs": [
						{
							"internalType": "uint256",
							"name": "_numOfDays",
							"type": "uint256"
						}
					],
					"name": "getInterestRate",
					"outputs": [
						{
							"internalType": "uint256",
							"name": "",
							"type": "uint256"
						}
					],
					"stateMutability": "view",
					"type": "function"
				},
				{
					"inputs": [],
					"name": "getLockperiods",
					"outputs": [
						{
							"internalType": "uint256[]",
							"name": "",
							"type": "uint256[]"
						}
					],
					"stateMutability": "view",
					"type": "function"
				},
				{
					"inputs": [
						{
							"internalType": "address",
							"name": "_address",
							"type": "address"
						}
					],
					"name": "getStakerIdsByAddresses",
					"outputs": [
						{
							"internalType": "uint256[]",
							"name": "",
							"type": "uint256[]"
						}
					],
					"stateMutability": "view",
					"type": "function"
				},
				{
					"inputs": [
						{
							"internalType": "uint256",
							"name": "_stakerId",
							"type": "uint256"
						}
					],
					"name": "getStakersById",
					"outputs": [
						{
							"components": [
								{
									"internalType": "uint256",
									"name": "stakerId",
									"type": "uint256"
								},
								{
									"internalType": "address",
									"name": "stakerAddress",
									"type": "address"
								},
								{
									"internalType": "uint256",
									"name": "dateCreated",
									"type": "uint256"
								},
								{
									"internalType": "uint256",
									"name": "dateUnlocked",
									"type": "uint256"
								},
								{
									"internalType": "uint256",
									"name": "interestPercentage",
									"type": "uint256"
								},
								{
									"internalType": "uint256",
									"name": "amountStaked",
									"type": "uint256"
								},
								{
									"internalType": "uint256",
									"name": "interest",
									"type": "uint256"
								},
								{
									"internalType": "bool",
									"name": "open",
									"type": "bool"
								}
							],
							"internalType": "struct Staking.Stakers",
							"name": "",
							"type": "tuple"
						}
					],
					"stateMutability": "view",
					"type": "function"
				},
				{
					"inputs": [
						{
							"internalType": "uint256",
							"name": "",
							"type": "uint256"
						}
					],
					"name": "levels",
					"outputs": [
						{
							"internalType": "uint256",
							"name": "",
							"type": "uint256"
						}
					],
					"stateMutability": "view",
					"type": "function"
				},
				{
					"inputs": [
						{
							"internalType": "uint256",
							"name": "",
							"type": "uint256"
						}
					],
					"name": "lockPeriods",
					"outputs": [
						{
							"internalType": "uint256",
							"name": "",
							"type": "uint256"
						}
					],
					"stateMutability": "view",
					"type": "function"
				},
				{
					"inputs": [
						{
							"internalType": "uint256",
							"name": "_numOfDays",
							"type": "uint256"
						}
					],
					"name": "stakeMatic",
					"outputs": [],
					"stateMutability": "payable",
					"type": "function"
				},
				{
					"inputs": [
						{
							"internalType": "address",
							"name": "",
							"type": "address"
						},
						{
							"internalType": "uint256",
							"name": "",
							"type": "uint256"
						}
					],
					"name": "stakerIdsByAddress",
					"outputs": [
						{
							"internalType": "uint256",
							"name": "",
							"type": "uint256"
						}
					],
					"stateMutability": "view",
					"type": "function"
				},
				{
					"inputs": [
						{
							"internalType": "uint256",
							"name": "",
							"type": "uint256"
						}
					],
					"name": "stakers",
					"outputs": [
						{
							"internalType": "uint256",
							"name": "stakerId",
							"type": "uint256"
						},
						{
							"internalType": "address",
							"name": "stakerAddress",
							"type": "address"
						},
						{
							"internalType": "uint256",
							"name": "dateCreated",
							"type": "uint256"
						},
						{
							"internalType": "uint256",
							"name": "dateUnlocked",
							"type": "uint256"
						},
						{
							"internalType": "uint256",
							"name": "interestPercentage",
							"type": "uint256"
						},
						{
							"internalType": "uint256",
							"name": "amountStaked",
							"type": "uint256"
						},
						{
							"internalType": "uint256",
							"name": "interest",
							"type": "uint256"
						},
						{
							"internalType": "bool",
							"name": "open",
							"type": "bool"
						}
					],
					"stateMutability": "view",
					"type": "function"
				},
				{
					"inputs": [],
					"name": "totalStakers",
					"outputs": [
						{
							"internalType": "uint256",
							"name": "",
							"type": "uint256"
						}
					],
					"stateMutability": "view",
					"type": "function"
				},
				{
					"inputs": [
						{
							"internalType": "uint256",
							"name": "_numOfDays",
							"type": "uint256"
						},
						{
							"internalType": "uint256",
							"name": "_interest",
							"type": "uint256"
						}
					],
					"name": "updateLockPeriod",
					"outputs": [],
					"stateMutability": "nonpayable",
					"type": "function"
				}
			],
			"devdoc": {
				"kind": "dev",
				"methods": {},
				"version": 1
			},
			"evm": {
				"assembly": "    /* \"test,sol.sol\":67:2878  contract Staking {... */\n  mstore(0x40, 0x80)\n    /* \"test,sol.sol\":682:692  msg.sender */\n  caller\n    /* \"test,sol.sol\":674:679  admin */\n  0x00\n  dup1\n    /* \"test,sol.sol\":674:692  admin = msg.sender */\n  0x0100\n  exp\n  dup2\n  sload\n  dup2\n  0xffffffffffffffffffffffffffffffffffffffff\n  mul\n  not\n  and\n  swap1\n  dup4\n  0xffffffffffffffffffffffffffffffffffffffff\n  and\n  mul\n  or\n  swap1\n  sstore\n  pop\n    /* \"test,sol.sol\":718:719  0 */\n  0x00\n    /* \"test,sol.sol\":703:715  totalStakers */\n  0x09\n    /* \"test,sol.sol\":703:719  totalStakers = 0 */\n  dup2\n  swap1\n  sstore\n  pop\n    /* \"test,sol.sol\":745:748  600 */\n  0x0258\n    /* \"test,sol.sol\":732:738  levels */\n  0x0c\n    /* \"test,sol.sol\":732:742  levels[30] */\n  0x00\n    /* \"test,sol.sol\":739:741  30 */\n  0x1e\n    /* \"test,sol.sol\":732:742  levels[30] */\n  dup2\n  mstore\n  0x20\n  add\n  swap1\n  dup2\n  mstore\n  0x20\n  add\n  0x00\n  keccak256\n    /* \"test,sol.sol\":732:748  levels[30] = 600 */\n  dup2\n  swap1\n  sstore\n  pop\n    /* \"test,sol.sol\":772:776  1000 */\n  0x03e8\n    /* \"test,sol.sol\":759:765  levels */\n  0x0c\n    /* \"test,sol.sol\":759:769  levels[90] */\n  0x00\n    /* \"test,sol.sol\":766:768  90 */\n  0x5a\n    /* \"test,sol.sol\":759:769  levels[90] */\n  dup2\n  mstore\n  0x20\n  add\n  swap1\n  dup2\n  mstore\n  0x20\n  add\n  0x00\n  keccak256\n    /* \"test,sol.sol\":759:776  levels[90] = 1000 */\n  dup2\n  swap1\n  sstore\n  pop\n    /* \"test,sol.sol\":801:805  1400 */\n  0x0578\n    /* \"test,sol.sol\":787:793  levels */\n  0x0c\n    /* \"test,sol.sol\":787:798  levels[180] */\n  0x00\n    /* \"test,sol.sol\":794:797  180 */\n  0xb4\n    /* \"test,sol.sol\":787:798  levels[180] */\n  dup2\n  mstore\n  0x20\n  add\n  swap1\n  dup2\n  mstore\n  0x20\n  add\n  0x00\n  keccak256\n    /* \"test,sol.sol\":787:805  levels[180] = 1400 */\n  dup2\n  swap1\n  sstore\n  pop\n    /* \"test,sol.sol\":818:829  lockPeriods */\n  0x0d\n    /* \"test,sol.sol\":835:837  30 */\n  0x1e\n    /* \"test,sol.sol\":818:838  lockPeriods.push(30) */\n  swap1\n  dup1\n  0x01\n  dup2\n  sload\n  add\n  dup1\n  dup3\n  sstore\n  dup1\n  swap2\n  pop\n  pop\n  0x01\n  swap1\n  sub\n  swap1\n  0x00\n  mstore\n  keccak256(0x00, 0x20)\n  add\n  0x00\n  swap1\n  swap2\n  swap1\n  swap2\n  swap1\n  swap2\n  pop\n  sstore\n    /* \"test,sol.sol\":849:860  lockPeriods */\n  0x0d\n    /* \"test,sol.sol\":866:868  90 */\n  0x5a\n    /* \"test,sol.sol\":849:869  lockPeriods.push(90) */\n  swap1\n  dup1\n  0x01\n  dup2\n  sload\n  add\n  dup1\n  dup3\n  sstore\n  dup1\n  swap2\n  pop\n  pop\n  0x01\n  swap1\n  sub\n  swap1\n  0x00\n  mstore\n  keccak256(0x00, 0x20)\n  add\n  0x00\n  swap1\n  swap2\n  swap1\n  swap2\n  swap1\n  swap2\n  pop\n  sstore\n    /* \"test,sol.sol\":880:891  lockPeriods */\n  0x0d\n    /* \"test,sol.sol\":897:900  180 */\n  0xb4\n    /* \"test,sol.sol\":880:901  lockPeriods.push(180) */\n  swap1\n  dup1\n  0x01\n  dup2\n  sload\n  add\n  dup1\n  dup3\n  sstore\n  dup1\n  swap2\n  pop\n  pop\n  0x01\n  swap1\n  sub\n  swap1\n  0x00\n  mstore\n  keccak256(0x00, 0x20)\n  add\n  0x00\n  swap1\n  swap2\n  swap1\n  swap2\n  swap1\n  swap2\n  pop\n  sstore\n    /* \"test,sol.sol\":67:2878  contract Staking {... */\n  dataSize(sub_0)\n  dup1\n  dataOffset(sub_0)\n  0x00\n  codecopy\n  0x00\n  return\nstop\n\nsub_0: assembly {\n        /* \"test,sol.sol\":67:2878  contract Staking {... */\n      mstore(0x40, 0x80)\n      jumpi(tag_1, lt(calldatasize, 0x04))\n      shr(0xe0, calldataload(0x00))\n      dup1\n      0xc7b0fc6a\n      gt\n      tag_16\n      jumpi\n      dup1\n      0xf8a2639c\n      gt\n      tag_17\n      jumpi\n      dup1\n      0xf8a2639c\n      eq\n      tag_12\n      jumpi\n      dup1\n      0xf9d4e871\n      eq\n      tag_13\n      jumpi\n      dup1\n      0xfbb5f24b\n      eq\n      tag_14\n      jumpi\n      dup1\n      0xfd5e6dd1\n      eq\n      tag_15\n      jumpi\n      jump(tag_1)\n    tag_17:\n      dup1\n      0xc7b0fc6a\n      eq\n      tag_9\n      jumpi\n      dup1\n      0xd73a84e9\n      eq\n      tag_10\n      jumpi\n      dup1\n      0xf851a440\n      eq\n      tag_11\n      jumpi\n      jump(tag_1)\n    tag_16:\n      dup1\n      0x4c8f2a78\n      gt\n      tag_18\n      jumpi\n      dup1\n      0x4c8f2a78\n      eq\n      tag_5\n      jumpi\n      dup1\n      0x86989038\n      eq\n      tag_6\n      jumpi\n      dup1\n      0xb05e148d\n      eq\n      tag_7\n      jumpi\n      dup1\n      0xb2596a67\n      eq\n      tag_8\n      jumpi\n      jump(tag_1)\n    tag_18:\n      dup1\n      0x05e1bd8c\n      eq\n      tag_2\n      jumpi\n      dup1\n      0x0c196a74\n      eq\n      tag_3\n      jumpi\n      dup1\n      0x105c2c5c\n      eq\n      tag_4\n      jumpi\n    tag_1:\n      0x00\n      dup1\n      revert\n        /* \"test,sol.sol\":1663:1865  function calculateInterest(... */\n    tag_2:\n      callvalue\n      dup1\n      iszero\n      tag_19\n      jumpi\n      0x00\n      dup1\n      revert\n    tag_19:\n      pop\n      tag_20\n      0x04\n      dup1\n      calldatasize\n      sub\n      dup2\n      add\n      swap1\n      tag_21\n      swap2\n      swap1\n      tag_22\n      jump\t// in\n    tag_21:\n      tag_23\n      jump\t// in\n    tag_20:\n      mload(0x40)\n      tag_24\n      swap2\n      swap1\n      tag_25\n      jump\t// in\n    tag_24:\n      mload(0x40)\n      dup1\n      swap2\n      sub\n      swap1\n      return\n        /* \"test,sol.sol\":1873:2026  function getInterestRate(uint256 _numOfDays)... */\n    tag_3:\n      callvalue\n      dup1\n      iszero\n      tag_26\n      jumpi\n      0x00\n      dup1\n      revert\n    tag_26:\n      pop\n      tag_27\n      0x04\n      dup1\n      calldatasize\n      sub\n      dup2\n      add\n      swap1\n      tag_28\n      swap2\n      swap1\n      tag_29\n      jump\t// in\n    tag_28:\n      tag_30\n      jump\t// in\n    tag_27:\n      mload(0x40)\n      tag_31\n      swap2\n      swap1\n      tag_25\n      jump\t// in\n    tag_31:\n      mload(0x40)\n      dup1\n      swap2\n      sub\n      swap1\n      return\n        /* \"test,sol.sol\":2237:2395  function getStakersById(uint256 _stakerId)... */\n    tag_4:\n      callvalue\n      dup1\n      iszero\n      tag_32\n      jumpi\n      0x00\n      dup1\n      revert\n    tag_32:\n      pop\n      tag_33\n      0x04\n      dup1\n      calldatasize\n      sub\n      dup2\n      add\n      swap1\n      tag_34\n      swap2\n      swap1\n      tag_29\n      jump\t// in\n    tag_34:\n      tag_35\n      jump\t// in\n    tag_33:\n      mload(0x40)\n      tag_36\n      swap2\n      swap1\n      tag_37\n      jump\t// in\n    tag_36:\n      mload(0x40)\n      dup1\n      swap2\n      sub\n      swap1\n      return\n        /* \"test,sol.sol\":604:632  uint256[] public lockPeriods */\n    tag_5:\n      callvalue\n      dup1\n      iszero\n      tag_38\n      jumpi\n      0x00\n      dup1\n      revert\n    tag_38:\n      pop\n      tag_39\n      0x04\n      dup1\n      calldatasize\n      sub\n      dup2\n      add\n      swap1\n      tag_40\n      swap2\n      swap1\n      tag_29\n      jump\t// in\n    tag_40:\n      tag_41\n      jump\t// in\n    tag_39:\n      mload(0x40)\n      tag_42\n      swap2\n      swap1\n      tag_25\n      jump\t// in\n    tag_42:\n      mload(0x40)\n      dup1\n      swap2\n      sub\n      swap1\n      return\n        /* \"test,sol.sol\":407:434  uint256 public totalStakers */\n    tag_6:\n      callvalue\n      dup1\n      iszero\n      tag_43\n      jumpi\n      0x00\n      dup1\n      revert\n    tag_43:\n      pop\n      tag_44\n      tag_45\n      jump\t// in\n    tag_44:\n      mload(0x40)\n      tag_46\n      swap2\n      swap1\n      tag_25\n      jump\t// in\n    tag_46:\n      mload(0x40)\n      dup1\n      swap2\n      sub\n      swap1\n      return\n        /* \"test,sol.sol\":492:547  mapping(address => uint256[]) public stakerIdsByAddress */\n    tag_7:\n      callvalue\n      dup1\n      iszero\n      tag_47\n      jumpi\n      0x00\n      dup1\n      revert\n    tag_47:\n      pop\n      tag_48\n      0x04\n      dup1\n      calldatasize\n      sub\n      dup2\n      add\n      swap1\n      tag_49\n      swap2\n      swap1\n      tag_50\n      jump\t// in\n    tag_49:\n      tag_51\n      jump\t// in\n    tag_48:\n      mload(0x40)\n      tag_52\n      swap2\n      swap1\n      tag_25\n      jump\t// in\n    tag_52:\n      mload(0x40)\n      dup1\n      swap2\n      sub\n      swap1\n      return\n        /* \"test,sol.sol\":554:595  mapping(uint256 => uint256) public levels */\n    tag_8:\n      callvalue\n      dup1\n      iszero\n      tag_53\n      jumpi\n      0x00\n      dup1\n      revert\n    tag_53:\n      pop\n      tag_54\n      0x04\n      dup1\n      calldatasize\n      sub\n      dup2\n      add\n      swap1\n      tag_55\n      swap2\n      swap1\n      tag_29\n      jump\t// in\n    tag_55:\n      tag_56\n      jump\t// in\n    tag_54:\n      mload(0x40)\n      tag_57\n      swap2\n      swap1\n      tag_25\n      jump\t// in\n    tag_57:\n      mload(0x40)\n      dup1\n      swap2\n      sub\n      swap1\n      return\n        /* \"test,sol.sol\":2403:2507  function getLockperiods() external view returns (uint256[] memory) {... */\n    tag_9:\n      callvalue\n      dup1\n      iszero\n      tag_58\n      jumpi\n      0x00\n      dup1\n      revert\n    tag_58:\n      pop\n      tag_59\n      tag_60\n      jump\t// in\n    tag_59:\n      mload(0x40)\n      tag_61\n      swap2\n      swap1\n      tag_62\n      jump\t// in\n    tag_61:\n      mload(0x40)\n      dup1\n      swap2\n      sub\n      swap1\n      return\n        /* \"test,sol.sol\":2034:2229  function updateLockPeriod(uint256 _numOfDays, uint256 _interest)... */\n    tag_10:\n      callvalue\n      dup1\n      iszero\n      tag_63\n      jumpi\n      0x00\n      dup1\n      revert\n    tag_63:\n      pop\n      tag_64\n      0x04\n      dup1\n      calldatasize\n      sub\n      dup2\n      add\n      swap1\n      tag_65\n      swap2\n      swap1\n      tag_66\n      jump\t// in\n    tag_65:\n      tag_67\n      jump\t// in\n    tag_64:\n      stop\n        /* \"test,sol.sol\":91:111  address public admin */\n    tag_11:\n      callvalue\n      dup1\n      iszero\n      tag_68\n      jumpi\n      0x00\n      dup1\n      revert\n    tag_68:\n      pop\n      tag_69\n      tag_70\n      jump\t// in\n    tag_69:\n      mload(0x40)\n      tag_71\n      swap2\n      swap1\n      tag_72\n      jump\t// in\n    tag_71:\n      mload(0x40)\n      dup1\n      swap2\n      sub\n      swap1\n      return\n        /* \"test,sol.sol\":2515:2693  function getStakerIdsByAddresses(address _address)... */\n    tag_12:\n      callvalue\n      dup1\n      iszero\n      tag_73\n      jumpi\n      0x00\n      dup1\n      revert\n    tag_73:\n      pop\n      tag_74\n      0x04\n      dup1\n      calldatasize\n      sub\n      dup2\n      add\n      swap1\n      tag_75\n      swap2\n      swap1\n      tag_76\n      jump\t// in\n    tag_75:\n      tag_77\n      jump\t// in\n    tag_74:\n      mload(0x40)\n      tag_78\n      swap2\n      swap1\n      tag_62\n      jump\t// in\n    tag_78:\n      mload(0x40)\n      dup1\n      swap2\n      sub\n      swap1\n      return\n        /* \"test,sol.sol\":2701:2873  function changeUnlockPeriod(uint256 _id, uint256 _newUnlockPeriod)... */\n    tag_13:\n      callvalue\n      dup1\n      iszero\n      tag_79\n      jumpi\n      0x00\n      dup1\n      revert\n    tag_79:\n      pop\n      tag_80\n      0x04\n      dup1\n      calldatasize\n      sub\n      dup2\n      add\n      swap1\n      tag_81\n      swap2\n      swap1\n      tag_66\n      jump\t// in\n    tag_81:\n      tag_82\n      jump\t// in\n    tag_80:\n      stop\n        /* \"test,sol.sol\":1033:1655  function stakeMatic(uint256 _numOfDays) external payable {... */\n    tag_14:\n      tag_83\n      0x04\n      dup1\n      calldatasize\n      sub\n      dup2\n      add\n      swap1\n      tag_84\n      swap2\n      swap1\n      tag_29\n      jump\t// in\n    tag_84:\n      tag_85\n      jump\t// in\n    tag_83:\n      stop\n        /* \"test,sol.sol\":443:485  mapping(uint256 => Stakers) public stakers */\n    tag_15:\n      callvalue\n      dup1\n      iszero\n      tag_86\n      jumpi\n      0x00\n      dup1\n      revert\n    tag_86:\n      pop\n      tag_87\n      0x04\n      dup1\n      calldatasize\n      sub\n      dup2\n      add\n      swap1\n      tag_88\n      swap2\n      swap1\n      tag_29\n      jump\t// in\n    tag_88:\n      tag_89\n      jump\t// in\n    tag_87:\n      mload(0x40)\n      tag_90\n      swap9\n      swap8\n      swap7\n      swap6\n      swap5\n      swap4\n      swap3\n      swap2\n      swap1\n      tag_91\n      jump\t// in\n    tag_90:\n      mload(0x40)\n      dup1\n      swap2\n      sub\n      swap1\n      return\n        /* \"test,sol.sol\":1663:1865  function calculateInterest(... */\n    tag_23:\n        /* \"test,sol.sol\":1801:1808  uint256 */\n      0x00\n        /* \"test,sol.sol\":1852:1857  10000 */\n      0x2710\n        /* \"test,sol.sol\":1841:1848  _amount */\n      dup3\n        /* \"test,sol.sol\":1829:1838  _interest */\n      dup6\n        /* \"test,sol.sol\":1829:1848  _interest * _amount */\n      tag_93\n      swap2\n      swap1\n      tag_94\n      jump\t// in\n    tag_93:\n        /* \"test,sol.sol\":1828:1857  (_interest * _amount) / 10000 */\n      tag_95\n      swap2\n      swap1\n      tag_96\n      jump\t// in\n    tag_95:\n        /* \"test,sol.sol\":1821:1857  return (_interest * _amount) / 10000 */\n      swap1\n      pop\n        /* \"test,sol.sol\":1663:1865  function calculateInterest(... */\n      swap4\n      swap3\n      pop\n      pop\n      pop\n      jump\t// out\n        /* \"test,sol.sol\":1873:2026  function getInterestRate(uint256 _numOfDays)... */\n    tag_30:\n        /* \"test,sol.sol\":1968:1975  uint256 */\n      0x00\n        /* \"test,sol.sol\":2000:2006  levels */\n      0x0c\n        /* \"test,sol.sol\":2000:2018  levels[_numOfDays] */\n      0x00\n        /* \"test,sol.sol\":2007:2017  _numOfDays */\n      dup4\n        /* \"test,sol.sol\":2000:2018  levels[_numOfDays] */\n      dup2\n      mstore\n      0x20\n      add\n      swap1\n      dup2\n      mstore\n      0x20\n      add\n      0x00\n      keccak256\n      sload\n        /* \"test,sol.sol\":1993:2018  return levels[_numOfDays] */\n      swap1\n      pop\n        /* \"test,sol.sol\":1873:2026  function getInterestRate(uint256 _numOfDays)... */\n      swap2\n      swap1\n      pop\n      jump\t// out\n        /* \"test,sol.sol\":2237:2395  function getStakersById(uint256 _stakerId)... */\n    tag_35:\n        /* \"test,sol.sol\":2330:2344  Stakers memory */\n      tag_98\n      tag_99\n      jump\t// in\n    tag_98:\n        /* \"test,sol.sol\":2369:2376  stakers */\n      0x0a\n        /* \"test,sol.sol\":2369:2387  stakers[_stakerId] */\n      0x00\n        /* \"test,sol.sol\":2377:2386  _stakerId */\n      dup4\n        /* \"test,sol.sol\":2369:2387  stakers[_stakerId] */\n      dup2\n      mstore\n      0x20\n      add\n      swap1\n      dup2\n      mstore\n      0x20\n      add\n      0x00\n      keccak256\n        /* \"test,sol.sol\":2362:2387  return stakers[_stakerId] */\n      mload(0x40)\n      dup1\n      0x0100\n      add\n      0x40\n      mstore\n      swap1\n      dup2\n      0x00\n      dup3\n      add\n      sload\n      dup2\n      mstore\n      0x20\n      add\n      0x01\n      dup3\n      add\n      0x00\n      swap1\n      sload\n      swap1\n      0x0100\n      exp\n      swap1\n      div\n      0xffffffffffffffffffffffffffffffffffffffff\n      and\n      0xffffffffffffffffffffffffffffffffffffffff\n      and\n      0xffffffffffffffffffffffffffffffffffffffff\n      and\n      dup2\n      mstore\n      0x20\n      add\n      0x02\n      dup3\n      add\n      sload\n      dup2\n      mstore\n      0x20\n      add\n      0x03\n      dup3\n      add\n      sload\n      dup2\n      mstore\n      0x20\n      add\n      0x04\n      dup3\n      add\n      sload\n      dup2\n      mstore\n      0x20\n      add\n      0x05\n      dup3\n      add\n      sload\n      dup2\n      mstore\n      0x20\n      add\n      0x06\n      dup3\n      add\n      sload\n      dup2\n      mstore\n      0x20\n      add\n      0x07\n      dup3\n      add\n      0x00\n      swap1\n      sload\n      swap1\n      0x0100\n      exp\n      swap1\n      div\n      0xff\n      and\n      iszero\n      iszero\n      iszero\n      iszero\n      dup2\n      mstore\n      pop\n      pop\n      swap1\n      pop\n        /* \"test,sol.sol\":2237:2395  function getStakersById(uint256 _stakerId)... */\n      swap2\n      swap1\n      pop\n      jump\t// out\n        /* \"test,sol.sol\":604:632  uint256[] public lockPeriods */\n    tag_41:\n      0x0d\n      dup2\n      dup2\n      sload\n      dup2\n      lt\n      tag_101\n      jumpi\n      0x00\n      dup1\n      revert\n    tag_101:\n      swap1\n      0x00\n      mstore\n      keccak256(0x00, 0x20)\n      add\n      0x00\n      swap2\n      pop\n      swap1\n      pop\n      sload\n      dup2\n      jump\t// out\n        /* \"test,sol.sol\":407:434  uint256 public totalStakers */\n    tag_45:\n      sload(0x09)\n      dup2\n      jump\t// out\n        /* \"test,sol.sol\":492:547  mapping(address => uint256[]) public stakerIdsByAddress */\n    tag_51:\n      mstore(0x20, 0x0b)\n      dup2\n      0x00\n      mstore\n      keccak256(0x00, 0x40)\n      dup2\n      dup2\n      sload\n      dup2\n      lt\n      tag_103\n      jumpi\n      0x00\n      dup1\n      revert\n    tag_103:\n      swap1\n      0x00\n      mstore\n      keccak256(0x00, 0x20)\n      add\n      0x00\n      swap2\n      pop\n      swap2\n      pop\n      pop\n      sload\n      dup2\n      jump\t// out\n        /* \"test,sol.sol\":554:595  mapping(uint256 => uint256) public levels */\n    tag_56:\n      mstore(0x20, 0x0c)\n      dup1\n      0x00\n      mstore\n      keccak256(0x00, 0x40)\n      0x00\n      swap2\n      pop\n      swap1\n      pop\n      sload\n      dup2\n      jump\t// out\n        /* \"test,sol.sol\":2403:2507  function getLockperiods() external view returns (uint256[] memory) {... */\n    tag_60:\n        /* \"test,sol.sol\":2452:2468  uint256[] memory */\n      0x60\n        /* \"test,sol.sol\":2488:2499  lockPeriods */\n      0x0d\n        /* \"test,sol.sol\":2481:2499  return lockPeriods */\n      dup1\n      sload\n      dup1\n      0x20\n      mul\n      0x20\n      add\n      mload(0x40)\n      swap1\n      dup2\n      add\n      0x40\n      mstore\n      dup1\n      swap3\n      swap2\n      swap1\n      dup2\n      dup2\n      mstore\n      0x20\n      add\n      dup3\n      dup1\n      sload\n      dup1\n      iszero\n      tag_106\n      jumpi\n      0x20\n      mul\n      dup3\n      add\n      swap2\n      swap1\n      0x00\n      mstore\n      keccak256(0x00, 0x20)\n      swap1\n    tag_107:\n      dup2\n      sload\n      dup2\n      mstore\n      0x20\n      add\n      swap1\n      0x01\n      add\n      swap1\n      dup1\n      dup4\n      gt\n      tag_107\n      jumpi\n    tag_106:\n      pop\n      pop\n      pop\n      pop\n      pop\n      swap1\n      pop\n        /* \"test,sol.sol\":2403:2507  function getLockperiods() external view returns (uint256[] memory) {... */\n      swap1\n      jump\t// out\n        /* \"test,sol.sol\":2034:2229  function updateLockPeriod(uint256 _numOfDays, uint256 _interest)... */\n    tag_67:\n        /* \"test,sol.sol\":966:976  msg.sender */\n      caller\n        /* \"test,sol.sol\":957:976  admin == msg.sender */\n      0xffffffffffffffffffffffffffffffffffffffff\n      and\n        /* \"test,sol.sol\":957:962  admin */\n      0x00\n      dup1\n      sload\n      swap1\n      0x0100\n      exp\n      swap1\n      div\n      0xffffffffffffffffffffffffffffffffffffffff\n      and\n        /* \"test,sol.sol\":957:976  admin == msg.sender */\n      0xffffffffffffffffffffffffffffffffffffffff\n      and\n      eq\n        /* \"test,sol.sol\":949:1005  require(admin == msg.sender, \"Only owner can change it\") */\n      tag_109\n      jumpi\n      mload(0x40)\n      0x08c379a000000000000000000000000000000000000000000000000000000000\n      dup2\n      mstore\n      0x04\n      add\n      tag_110\n      swap1\n      tag_111\n      jump\t// in\n    tag_110:\n      mload(0x40)\n      dup1\n      swap2\n      sub\n      swap1\n      revert\n    tag_109:\n        /* \"test,sol.sol\":2173:2182  _interest */\n      dup1\n        /* \"test,sol.sol\":2152:2158  levels */\n      0x0c\n        /* \"test,sol.sol\":2152:2170  levels[_numOfDays] */\n      0x00\n        /* \"test,sol.sol\":2159:2169  _numOfDays */\n      dup5\n        /* \"test,sol.sol\":2152:2170  levels[_numOfDays] */\n      dup2\n      mstore\n      0x20\n      add\n      swap1\n      dup2\n      mstore\n      0x20\n      add\n      0x00\n      keccak256\n        /* \"test,sol.sol\":2152:2182  levels[_numOfDays] = _interest */\n      dup2\n      swap1\n      sstore\n      pop\n        /* \"test,sol.sol\":2193:2204  lockPeriods */\n      0x0d\n        /* \"test,sol.sol\":2210:2220  _numOfDays */\n      dup3\n        /* \"test,sol.sol\":2193:2221  lockPeriods.push(_numOfDays) */\n      swap1\n      dup1\n      0x01\n      dup2\n      sload\n      add\n      dup1\n      dup3\n      sstore\n      dup1\n      swap2\n      pop\n      pop\n      0x01\n      swap1\n      sub\n      swap1\n      0x00\n      mstore\n      keccak256(0x00, 0x20)\n      add\n      0x00\n      swap1\n      swap2\n      swap1\n      swap2\n      swap1\n      swap2\n      pop\n      sstore\n        /* \"test,sol.sol\":2034:2229  function updateLockPeriod(uint256 _numOfDays, uint256 _interest)... */\n      pop\n      pop\n      jump\t// out\n        /* \"test,sol.sol\":91:111  address public admin */\n    tag_70:\n      0x00\n      dup1\n      sload\n      swap1\n      0x0100\n      exp\n      swap1\n      div\n      0xffffffffffffffffffffffffffffffffffffffff\n      and\n      dup2\n      jump\t// out\n        /* \"test,sol.sol\":2515:2693  function getStakerIdsByAddresses(address _address)... */\n    tag_77:\n        /* \"test,sol.sol\":2616:2632  uint256[] memory */\n      0x60\n        /* \"test,sol.sol\":2657:2675  stakerIdsByAddress */\n      0x0b\n        /* \"test,sol.sol\":2657:2685  stakerIdsByAddress[_address] */\n      0x00\n        /* \"test,sol.sol\":2676:2684  _address */\n      dup4\n        /* \"test,sol.sol\":2657:2685  stakerIdsByAddress[_address] */\n      0xffffffffffffffffffffffffffffffffffffffff\n      and\n      0xffffffffffffffffffffffffffffffffffffffff\n      and\n      dup2\n      mstore\n      0x20\n      add\n      swap1\n      dup2\n      mstore\n      0x20\n      add\n      0x00\n      keccak256\n        /* \"test,sol.sol\":2650:2685  return stakerIdsByAddress[_address] */\n      dup1\n      sload\n      dup1\n      0x20\n      mul\n      0x20\n      add\n      mload(0x40)\n      swap1\n      dup2\n      add\n      0x40\n      mstore\n      dup1\n      swap3\n      swap2\n      swap1\n      dup2\n      dup2\n      mstore\n      0x20\n      add\n      dup3\n      dup1\n      sload\n      dup1\n      iszero\n      tag_115\n      jumpi\n      0x20\n      mul\n      dup3\n      add\n      swap2\n      swap1\n      0x00\n      mstore\n      keccak256(0x00, 0x20)\n      swap1\n    tag_116:\n      dup2\n      sload\n      dup2\n      mstore\n      0x20\n      add\n      swap1\n      0x01\n      add\n      swap1\n      dup1\n      dup4\n      gt\n      tag_116\n      jumpi\n    tag_115:\n      pop\n      pop\n      pop\n      pop\n      pop\n      swap1\n      pop\n        /* \"test,sol.sol\":2515:2693  function getStakerIdsByAddresses(address _address)... */\n      swap2\n      swap1\n      pop\n      jump\t// out\n        /* \"test,sol.sol\":2701:2873  function changeUnlockPeriod(uint256 _id, uint256 _newUnlockPeriod)... */\n    tag_82:\n        /* \"test,sol.sol\":966:976  msg.sender */\n      caller\n        /* \"test,sol.sol\":957:976  admin == msg.sender */\n      0xffffffffffffffffffffffffffffffffffffffff\n      and\n        /* \"test,sol.sol\":957:962  admin */\n      0x00\n      dup1\n      sload\n      swap1\n      0x0100\n      exp\n      swap1\n      div\n      0xffffffffffffffffffffffffffffffffffffffff\n      and\n        /* \"test,sol.sol\":957:976  admin == msg.sender */\n      0xffffffffffffffffffffffffffffffffffffffff\n      and\n      eq\n        /* \"test,sol.sol\":949:1005  require(admin == msg.sender, \"Only owner can change it\") */\n      tag_118\n      jumpi\n      mload(0x40)\n      0x08c379a000000000000000000000000000000000000000000000000000000000\n      dup2\n      mstore\n      0x04\n      add\n      tag_119\n      swap1\n      tag_111\n      jump\t// in\n    tag_119:\n      mload(0x40)\n      dup1\n      swap2\n      sub\n      swap1\n      revert\n    tag_118:\n        /* \"test,sol.sol\":2849:2865  _newUnlockPeriod */\n      dup1\n        /* \"test,sol.sol\":2821:2828  stakers */\n      0x0a\n        /* \"test,sol.sol\":2821:2833  stakers[_id] */\n      0x00\n        /* \"test,sol.sol\":2829:2832  _id */\n      dup5\n        /* \"test,sol.sol\":2821:2833  stakers[_id] */\n      dup2\n      mstore\n      0x20\n      add\n      swap1\n      dup2\n      mstore\n      0x20\n      add\n      0x00\n      keccak256\n        /* \"test,sol.sol\":2821:2846  stakers[_id].dateUnlocked */\n      0x03\n      add\n        /* \"test,sol.sol\":2821:2865  stakers[_id].dateUnlocked = _newUnlockPeriod */\n      dup2\n      swap1\n      sstore\n      pop\n        /* \"test,sol.sol\":2701:2873  function changeUnlockPeriod(uint256 _id, uint256 _newUnlockPeriod)... */\n      pop\n      pop\n      jump\t// out\n        /* \"test,sol.sol\":1033:1655  function stakeMatic(uint256 _numOfDays) external payable {... */\n    tag_85:\n        /* \"test,sol.sol\":1144:1145  0 */\n      0x00\n        /* \"test,sol.sol\":1123:1129  levels */\n      0x0c\n        /* \"test,sol.sol\":1123:1141  levels[_numOfDays] */\n      0x00\n        /* \"test,sol.sol\":1130:1140  _numOfDays */\n      dup4\n        /* \"test,sol.sol\":1123:1141  levels[_numOfDays] */\n      dup2\n      mstore\n      0x20\n      add\n      swap1\n      dup2\n      mstore\n      0x20\n      add\n      0x00\n      keccak256\n      sload\n        /* \"test,sol.sol\":1123:1145  levels[_numOfDays] > 0 */\n      gt\n        /* \"test,sol.sol\":1101:1218  require(... */\n      tag_122\n      jumpi\n      mload(0x40)\n      0x08c379a000000000000000000000000000000000000000000000000000000000\n      dup2\n      mstore\n      0x04\n      add\n      tag_123\n      swap1\n      tag_124\n      jump\t// in\n    tag_123:\n      mload(0x40)\n      dup1\n      swap2\n      sub\n      swap1\n      revert\n    tag_122:\n        /* \"test,sol.sol\":1255:1560  Stakers(... */\n      mload(0x40)\n      dup1\n      0x0100\n      add\n      0x40\n      mstore\n      dup1\n        /* \"test,sol.sol\":1277:1289  totalStakers */\n      sload(0x09)\n        /* \"test,sol.sol\":1255:1560  Stakers(... */\n      dup2\n      mstore\n      0x20\n      add\n        /* \"test,sol.sol\":1304:1314  msg.sender */\n      caller\n        /* \"test,sol.sol\":1255:1560  Stakers(... */\n      0xffffffffffffffffffffffffffffffffffffffff\n      and\n      dup2\n      mstore\n      0x20\n      add\n        /* \"test,sol.sol\":1329:1344  block.timestamp */\n      timestamp\n        /* \"test,sol.sol\":1255:1560  Stakers(... */\n      dup2\n      mstore\n      0x20\n      add\n        /* \"test,sol.sol\":1391:1397  1 days */\n      0x015180\n        /* \"test,sol.sol\":1378:1388  _numOfDays */\n      dup4\n        /* \"test,sol.sol\":1378:1397  _numOfDays * 1 days */\n      tag_125\n      swap2\n      swap1\n      tag_94\n      jump\t// in\n    tag_125:\n        /* \"test,sol.sol\":1359:1374  block.timestamp */\n      timestamp\n        /* \"test,sol.sol\":1359:1398  block.timestamp + (_numOfDays * 1 days) */\n      tag_126\n      swap2\n      swap1\n      tag_127\n      jump\t// in\n    tag_126:\n        /* \"test,sol.sol\":1255:1560  Stakers(... */\n      dup2\n      mstore\n      0x20\n      add\n        /* \"test,sol.sol\":1413:1419  levels */\n      0x0c\n        /* \"test,sol.sol\":1413:1431  levels[_numOfDays] */\n      0x00\n        /* \"test,sol.sol\":1420:1430  _numOfDays */\n      dup5\n        /* \"test,sol.sol\":1413:1431  levels[_numOfDays] */\n      dup2\n      mstore\n      0x20\n      add\n      swap1\n      dup2\n      mstore\n      0x20\n      add\n      0x00\n      keccak256\n      sload\n        /* \"test,sol.sol\":1255:1560  Stakers(... */\n      dup2\n      mstore\n      0x20\n      add\n        /* \"test,sol.sol\":1446:1455  msg.value */\n      callvalue\n        /* \"test,sol.sol\":1255:1560  Stakers(... */\n      dup2\n      mstore\n      0x20\n      add\n        /* \"test,sol.sol\":1470:1530  calculateInterest(levels[_numOfDays], _numOfDays, msg.value) */\n      tag_128\n        /* \"test,sol.sol\":1488:1494  levels */\n      0x0c\n        /* \"test,sol.sol\":1488:1506  levels[_numOfDays] */\n      0x00\n        /* \"test,sol.sol\":1495:1505  _numOfDays */\n      dup6\n        /* \"test,sol.sol\":1488:1506  levels[_numOfDays] */\n      dup2\n      mstore\n      0x20\n      add\n      swap1\n      dup2\n      mstore\n      0x20\n      add\n      0x00\n      keccak256\n      sload\n        /* \"test,sol.sol\":1508:1518  _numOfDays */\n      dup5\n        /* \"test,sol.sol\":1520:1529  msg.value */\n      callvalue\n        /* \"test,sol.sol\":1470:1487  calculateInterest */\n      tag_23\n        /* \"test,sol.sol\":1470:1530  calculateInterest(levels[_numOfDays], _numOfDays, msg.value) */\n      jump\t// in\n    tag_128:\n        /* \"test,sol.sol\":1255:1560  Stakers(... */\n      dup2\n      mstore\n      0x20\n      add\n        /* \"test,sol.sol\":1545:1549  true */\n      0x01\n        /* \"test,sol.sol\":1255:1560  Stakers(... */\n      iszero\n      iszero\n      dup2\n      mstore\n      pop\n        /* \"test,sol.sol\":1231:1238  stakers */\n      0x0a\n        /* \"test,sol.sol\":1231:1252  stakers[totalStakers] */\n      0x00\n        /* \"test,sol.sol\":1239:1251  totalStakers */\n      sload(0x09)\n        /* \"test,sol.sol\":1231:1252  stakers[totalStakers] */\n      dup2\n      mstore\n      0x20\n      add\n      swap1\n      dup2\n      mstore\n      0x20\n      add\n      0x00\n      keccak256\n        /* \"test,sol.sol\":1231:1560  stakers[totalStakers] = Stakers(... */\n      0x00\n      dup3\n      add\n      mload\n      dup2\n      0x00\n      add\n      sstore\n      0x20\n      dup3\n      add\n      mload\n      dup2\n      0x01\n      add\n      exp(0x0100, 0x00)\n      dup2\n      sload\n      dup2\n      0xffffffffffffffffffffffffffffffffffffffff\n      mul\n      not\n      and\n      swap1\n      dup4\n      0xffffffffffffffffffffffffffffffffffffffff\n      and\n      mul\n      or\n      swap1\n      sstore\n      pop\n      0x40\n      dup3\n      add\n      mload\n      dup2\n      0x02\n      add\n      sstore\n      0x60\n      dup3\n      add\n      mload\n      dup2\n      0x03\n      add\n      sstore\n      0x80\n      dup3\n      add\n      mload\n      dup2\n      0x04\n      add\n      sstore\n      0xa0\n      dup3\n      add\n      mload\n      dup2\n      0x05\n      add\n      sstore\n      0xc0\n      dup3\n      add\n      mload\n      dup2\n      0x06\n      add\n      sstore\n      0xe0\n      dup3\n      add\n      mload\n      dup2\n      0x07\n      add\n      exp(0x0100, 0x00)\n      dup2\n      sload\n      dup2\n      0xff\n      mul\n      not\n      and\n      swap1\n      dup4\n      iszero\n      iszero\n      mul\n      or\n      swap1\n      sstore\n      pop\n      swap1\n      pop\n      pop\n        /* \"test,sol.sol\":1573:1591  stakerIdsByAddress */\n      0x0b\n        /* \"test,sol.sol\":1573:1603  stakerIdsByAddress[msg.sender] */\n      0x00\n        /* \"test,sol.sol\":1592:1602  msg.sender */\n      caller\n        /* \"test,sol.sol\":1573:1603  stakerIdsByAddress[msg.sender] */\n      0xffffffffffffffffffffffffffffffffffffffff\n      and\n      0xffffffffffffffffffffffffffffffffffffffff\n      and\n      dup2\n      mstore\n      0x20\n      add\n      swap1\n      dup2\n      mstore\n      0x20\n      add\n      0x00\n      keccak256\n        /* \"test,sol.sol\":1609:1621  totalStakers */\n      sload(0x09)\n        /* \"test,sol.sol\":1573:1622  stakerIdsByAddress[msg.sender].push(totalStakers) */\n      swap1\n      dup1\n      0x01\n      dup2\n      sload\n      add\n      dup1\n      dup3\n      sstore\n      dup1\n      swap2\n      pop\n      pop\n      0x01\n      swap1\n      sub\n      swap1\n      0x00\n      mstore\n      keccak256(0x00, 0x20)\n      add\n      0x00\n      swap1\n      swap2\n      swap1\n      swap2\n      swap1\n      swap2\n      pop\n      sstore\n        /* \"test,sol.sol\":1633:1645  totalStakers */\n      0x09\n      0x00\n        /* \"test,sol.sol\":1633:1647  totalStakers++ */\n      dup2\n      sload\n      dup1\n      swap3\n      swap2\n      swap1\n      tag_130\n      swap1\n      tag_131\n      jump\t// in\n    tag_130:\n      swap2\n      swap1\n      pop\n      sstore\n      pop\n        /* \"test,sol.sol\":1033:1655  function stakeMatic(uint256 _numOfDays) external payable {... */\n      pop\n      jump\t// out\n        /* \"test,sol.sol\":443:485  mapping(uint256 => Stakers) public stakers */\n    tag_89:\n      mstore(0x20, 0x0a)\n      dup1\n      0x00\n      mstore\n      keccak256(0x00, 0x40)\n      0x00\n      swap2\n      pop\n      swap1\n      pop\n      dup1\n      0x00\n      add\n      sload\n      swap1\n      dup1\n      0x01\n      add\n      0x00\n      swap1\n      sload\n      swap1\n      0x0100\n      exp\n      swap1\n      div\n      0xffffffffffffffffffffffffffffffffffffffff\n      and\n      swap1\n      dup1\n      0x02\n      add\n      sload\n      swap1\n      dup1\n      0x03\n      add\n      sload\n      swap1\n      dup1\n      0x04\n      add\n      sload\n      swap1\n      dup1\n      0x05\n      add\n      sload\n      swap1\n      dup1\n      0x06\n      add\n      sload\n      swap1\n      dup1\n      0x07\n      add\n      0x00\n      swap1\n      sload\n      swap1\n      0x0100\n      exp\n      swap1\n      div\n      0xff\n      and\n      swap1\n      pop\n      dup9\n      jump\t// out\n    tag_99:\n      mload(0x40)\n      dup1\n      0x0100\n      add\n      0x40\n      mstore\n      dup1\n      0x00\n      dup2\n      mstore\n      0x20\n      add\n      and(0xffffffffffffffffffffffffffffffffffffffff, 0x00)\n      dup2\n      mstore\n      0x20\n      add\n      0x00\n      dup2\n      mstore\n      0x20\n      add\n      0x00\n      dup2\n      mstore\n      0x20\n      add\n      0x00\n      dup2\n      mstore\n      0x20\n      add\n      0x00\n      dup2\n      mstore\n      0x20\n      add\n      0x00\n      dup2\n      mstore\n      0x20\n      add\n      iszero(iszero(0x00))\n      dup2\n      mstore\n      pop\n      swap1\n      jump\t// out\n        /* \"#utility.yul\":88:205   */\n    tag_133:\n        /* \"#utility.yul\":197:198   */\n      0x00\n        /* \"#utility.yul\":194:195   */\n      dup1\n        /* \"#utility.yul\":187:199   */\n      revert\n        /* \"#utility.yul\":334:411   */\n    tag_135:\n        /* \"#utility.yul\":371:378   */\n      0x00\n        /* \"#utility.yul\":400:405   */\n      dup2\n        /* \"#utility.yul\":389:405   */\n      swap1\n      pop\n        /* \"#utility.yul\":334:411   */\n      swap2\n      swap1\n      pop\n      jump\t// out\n        /* \"#utility.yul\":417:539   */\n    tag_136:\n        /* \"#utility.yul\":490:514   */\n      tag_169\n        /* \"#utility.yul\":508:513   */\n      dup2\n        /* \"#utility.yul\":490:514   */\n      tag_135\n      jump\t// in\n    tag_169:\n        /* \"#utility.yul\":483:488   */\n      dup2\n        /* \"#utility.yul\":480:515   */\n      eq\n        /* \"#utility.yul\":470:533   */\n      tag_170\n      jumpi\n        /* \"#utility.yul\":529:530   */\n      0x00\n        /* \"#utility.yul\":526:527   */\n      dup1\n        /* \"#utility.yul\":519:531   */\n      revert\n        /* \"#utility.yul\":470:533   */\n    tag_170:\n        /* \"#utility.yul\":417:539   */\n      pop\n      jump\t// out\n        /* \"#utility.yul\":545:684   */\n    tag_137:\n        /* \"#utility.yul\":591:596   */\n      0x00\n        /* \"#utility.yul\":629:635   */\n      dup2\n        /* \"#utility.yul\":616:636   */\n      calldataload\n        /* \"#utility.yul\":607:636   */\n      swap1\n      pop\n        /* \"#utility.yul\":645:678   */\n      tag_172\n        /* \"#utility.yul\":672:677   */\n      dup2\n        /* \"#utility.yul\":645:678   */\n      tag_136\n      jump\t// in\n    tag_172:\n        /* \"#utility.yul\":545:684   */\n      swap3\n      swap2\n      pop\n      pop\n      jump\t// out\n        /* \"#utility.yul\":690:1309   */\n    tag_22:\n        /* \"#utility.yul\":767:773   */\n      0x00\n        /* \"#utility.yul\":775:781   */\n      dup1\n        /* \"#utility.yul\":783:789   */\n      0x00\n        /* \"#utility.yul\":832:834   */\n      0x60\n        /* \"#utility.yul\":820:829   */\n      dup5\n        /* \"#utility.yul\":811:818   */\n      dup7\n        /* \"#utility.yul\":807:830   */\n      sub\n        /* \"#utility.yul\":803:835   */\n      slt\n        /* \"#utility.yul\":800:919   */\n      iszero\n      tag_174\n      jumpi\n        /* \"#utility.yul\":838:917   */\n      tag_175\n      tag_133\n      jump\t// in\n    tag_175:\n        /* \"#utility.yul\":800:919   */\n    tag_174:\n        /* \"#utility.yul\":958:959   */\n      0x00\n        /* \"#utility.yul\":983:1036   */\n      tag_176\n        /* \"#utility.yul\":1028:1035   */\n      dup7\n        /* \"#utility.yul\":1019:1025   */\n      dup3\n        /* \"#utility.yul\":1008:1017   */\n      dup8\n        /* \"#utility.yul\":1004:1026   */\n      add\n        /* \"#utility.yul\":983:1036   */\n      tag_137\n      jump\t// in\n    tag_176:\n        /* \"#utility.yul\":973:1036   */\n      swap4\n      pop\n        /* \"#utility.yul\":929:1046   */\n      pop\n        /* \"#utility.yul\":1085:1087   */\n      0x20\n        /* \"#utility.yul\":1111:1164   */\n      tag_177\n        /* \"#utility.yul\":1156:1163   */\n      dup7\n        /* \"#utility.yul\":1147:1153   */\n      dup3\n        /* \"#utility.yul\":1136:1145   */\n      dup8\n        /* \"#utility.yul\":1132:1154   */\n      add\n        /* \"#utility.yul\":1111:1164   */\n      tag_137\n      jump\t// in\n    tag_177:\n        /* \"#utility.yul\":1101:1164   */\n      swap3\n      pop\n        /* \"#utility.yul\":1056:1174   */\n      pop\n        /* \"#utility.yul\":1213:1215   */\n      0x40\n        /* \"#utility.yul\":1239:1292   */\n      tag_178\n        /* \"#utility.yul\":1284:1291   */\n      dup7\n        /* \"#utility.yul\":1275:1281   */\n      dup3\n        /* \"#utility.yul\":1264:1273   */\n      dup8\n        /* \"#utility.yul\":1260:1282   */\n      add\n        /* \"#utility.yul\":1239:1292   */\n      tag_137\n      jump\t// in\n    tag_178:\n        /* \"#utility.yul\":1229:1292   */\n      swap2\n      pop\n        /* \"#utility.yul\":1184:1302   */\n      pop\n        /* \"#utility.yul\":690:1309   */\n      swap3\n      pop\n      swap3\n      pop\n      swap3\n      jump\t// out\n        /* \"#utility.yul\":1315:1433   */\n    tag_138:\n        /* \"#utility.yul\":1402:1426   */\n      tag_180\n        /* \"#utility.yul\":1420:1425   */\n      dup2\n        /* \"#utility.yul\":1402:1426   */\n      tag_135\n      jump\t// in\n    tag_180:\n        /* \"#utility.yul\":1397:1400   */\n      dup3\n        /* \"#utility.yul\":1390:1427   */\n      mstore\n        /* \"#utility.yul\":1315:1433   */\n      pop\n      pop\n      jump\t// out\n        /* \"#utility.yul\":1439:1661   */\n    tag_25:\n        /* \"#utility.yul\":1532:1536   */\n      0x00\n        /* \"#utility.yul\":1570:1572   */\n      0x20\n        /* \"#utility.yul\":1559:1568   */\n      dup3\n        /* \"#utility.yul\":1555:1573   */\n      add\n        /* \"#utility.yul\":1547:1573   */\n      swap1\n      pop\n        /* \"#utility.yul\":1583:1654   */\n      tag_182\n        /* \"#utility.yul\":1651:1652   */\n      0x00\n        /* \"#utility.yul\":1640:1649   */\n      dup4\n        /* \"#utility.yul\":1636:1653   */\n      add\n        /* \"#utility.yul\":1627:1633   */\n      dup5\n        /* \"#utility.yul\":1583:1654   */\n      tag_138\n      jump\t// in\n    tag_182:\n        /* \"#utility.yul\":1439:1661   */\n      swap3\n      swap2\n      pop\n      pop\n      jump\t// out\n        /* \"#utility.yul\":1667:1996   */\n    tag_29:\n        /* \"#utility.yul\":1726:1732   */\n      0x00\n        /* \"#utility.yul\":1775:1777   */\n      0x20\n        /* \"#utility.yul\":1763:1772   */\n      dup3\n        /* \"#utility.yul\":1754:1761   */\n      dup5\n        /* \"#utility.yul\":1750:1773   */\n      sub\n        /* \"#utility.yul\":1746:1778   */\n      slt\n        /* \"#utility.yul\":1743:1862   */\n      iszero\n      tag_184\n      jumpi\n        /* \"#utility.yul\":1781:1860   */\n      tag_185\n      tag_133\n      jump\t// in\n    tag_185:\n        /* \"#utility.yul\":1743:1862   */\n    tag_184:\n        /* \"#utility.yul\":1901:1902   */\n      0x00\n        /* \"#utility.yul\":1926:1979   */\n      tag_186\n        /* \"#utility.yul\":1971:1978   */\n      dup5\n        /* \"#utility.yul\":1962:1968   */\n      dup3\n        /* \"#utility.yul\":1951:1960   */\n      dup6\n        /* \"#utility.yul\":1947:1969   */\n      add\n        /* \"#utility.yul\":1926:1979   */\n      tag_137\n      jump\t// in\n    tag_186:\n        /* \"#utility.yul\":1916:1979   */\n      swap2\n      pop\n        /* \"#utility.yul\":1872:1989   */\n      pop\n        /* \"#utility.yul\":1667:1996   */\n      swap3\n      swap2\n      pop\n      pop\n      jump\t// out\n        /* \"#utility.yul\":2002:2110   */\n    tag_139:\n        /* \"#utility.yul\":2079:2103   */\n      tag_188\n        /* \"#utility.yul\":2097:2102   */\n      dup2\n        /* \"#utility.yul\":2079:2103   */\n      tag_135\n      jump\t// in\n    tag_188:\n        /* \"#utility.yul\":2074:2077   */\n      dup3\n        /* \"#utility.yul\":2067:2104   */\n      mstore\n        /* \"#utility.yul\":2002:2110   */\n      pop\n      pop\n      jump\t// out\n        /* \"#utility.yul\":2116:2242   */\n    tag_140:\n        /* \"#utility.yul\":2153:2160   */\n      0x00\n        /* \"#utility.yul\":2193:2235   */\n      0xffffffffffffffffffffffffffffffffffffffff\n        /* \"#utility.yul\":2186:2191   */\n      dup3\n        /* \"#utility.yul\":2182:2236   */\n      and\n        /* \"#utility.yul\":2171:2236   */\n      swap1\n      pop\n        /* \"#utility.yul\":2116:2242   */\n      swap2\n      swap1\n      pop\n      jump\t// out\n        /* \"#utility.yul\":2248:2344   */\n    tag_141:\n        /* \"#utility.yul\":2285:2292   */\n      0x00\n        /* \"#utility.yul\":2314:2338   */\n      tag_191\n        /* \"#utility.yul\":2332:2337   */\n      dup3\n        /* \"#utility.yul\":2314:2338   */\n      tag_140\n      jump\t// in\n    tag_191:\n        /* \"#utility.yul\":2303:2338   */\n      swap1\n      pop\n        /* \"#utility.yul\":2248:2344   */\n      swap2\n      swap1\n      pop\n      jump\t// out\n        /* \"#utility.yul\":2350:2458   */\n    tag_142:\n        /* \"#utility.yul\":2427:2451   */\n      tag_193\n        /* \"#utility.yul\":2445:2450   */\n      dup2\n        /* \"#utility.yul\":2427:2451   */\n      tag_141\n      jump\t// in\n    tag_193:\n        /* \"#utility.yul\":2422:2425   */\n      dup3\n        /* \"#utility.yul\":2415:2452   */\n      mstore\n        /* \"#utility.yul\":2350:2458   */\n      pop\n      pop\n      jump\t// out\n        /* \"#utility.yul\":2464:2554   */\n    tag_143:\n        /* \"#utility.yul\":2498:2505   */\n      0x00\n        /* \"#utility.yul\":2541:2546   */\n      dup2\n        /* \"#utility.yul\":2534:2547   */\n      iszero\n        /* \"#utility.yul\":2527:2548   */\n      iszero\n        /* \"#utility.yul\":2516:2548   */\n      swap1\n      pop\n        /* \"#utility.yul\":2464:2554   */\n      swap2\n      swap1\n      pop\n      jump\t// out\n        /* \"#utility.yul\":2560:2659   */\n    tag_144:\n        /* \"#utility.yul\":2631:2652   */\n      tag_196\n        /* \"#utility.yul\":2646:2651   */\n      dup2\n        /* \"#utility.yul\":2631:2652   */\n      tag_143\n      jump\t// in\n    tag_196:\n        /* \"#utility.yul\":2626:2629   */\n      dup3\n        /* \"#utility.yul\":2619:2653   */\n      mstore\n        /* \"#utility.yul\":2560:2659   */\n      pop\n      pop\n      jump\t// out\n        /* \"#utility.yul\":2721:4318   */\n    tag_145:\n        /* \"#utility.yul\":2864:2870   */\n      0x0100\n        /* \"#utility.yul\":2859:2862   */\n      dup3\n        /* \"#utility.yul\":2855:2871   */\n      add\n        /* \"#utility.yul\":2957:2961   */\n      0x00\n        /* \"#utility.yul\":2950:2955   */\n      dup3\n        /* \"#utility.yul\":2946:2962   */\n      add\n        /* \"#utility.yul\":2940:2963   */\n      mload\n        /* \"#utility.yul\":2976:3039   */\n      tag_198\n        /* \"#utility.yul\":3033:3037   */\n      0x00\n        /* \"#utility.yul\":3028:3031   */\n      dup6\n        /* \"#utility.yul\":3024:3038   */\n      add\n        /* \"#utility.yul\":3010:3022   */\n      dup3\n        /* \"#utility.yul\":2976:3039   */\n      tag_139\n      jump\t// in\n    tag_198:\n        /* \"#utility.yul\":2881:3049   */\n      pop\n        /* \"#utility.yul\":3140:3144   */\n      0x20\n        /* \"#utility.yul\":3133:3138   */\n      dup3\n        /* \"#utility.yul\":3129:3145   */\n      add\n        /* \"#utility.yul\":3123:3146   */\n      mload\n        /* \"#utility.yul\":3159:3222   */\n      tag_199\n        /* \"#utility.yul\":3216:3220   */\n      0x20\n        /* \"#utility.yul\":3211:3214   */\n      dup6\n        /* \"#utility.yul\":3207:3221   */\n      add\n        /* \"#utility.yul\":3193:3205   */\n      dup3\n        /* \"#utility.yul\":3159:3222   */\n      tag_142\n      jump\t// in\n    tag_199:\n        /* \"#utility.yul\":3059:3232   */\n      pop\n        /* \"#utility.yul\":3321:3325   */\n      0x40\n        /* \"#utility.yul\":3314:3319   */\n      dup3\n        /* \"#utility.yul\":3310:3326   */\n      add\n        /* \"#utility.yul\":3304:3327   */\n      mload\n        /* \"#utility.yul\":3340:3403   */\n      tag_200\n        /* \"#utility.yul\":3397:3401   */\n      0x40\n        /* \"#utility.yul\":3392:3395   */\n      dup6\n        /* \"#utility.yul\":3388:3402   */\n      add\n        /* \"#utility.yul\":3374:3386   */\n      dup3\n        /* \"#utility.yul\":3340:3403   */\n      tag_139\n      jump\t// in\n    tag_200:\n        /* \"#utility.yul\":3242:3413   */\n      pop\n        /* \"#utility.yul\":3503:3507   */\n      0x60\n        /* \"#utility.yul\":3496:3501   */\n      dup3\n        /* \"#utility.yul\":3492:3508   */\n      add\n        /* \"#utility.yul\":3486:3509   */\n      mload\n        /* \"#utility.yul\":3522:3585   */\n      tag_201\n        /* \"#utility.yul\":3579:3583   */\n      0x60\n        /* \"#utility.yul\":3574:3577   */\n      dup6\n        /* \"#utility.yul\":3570:3584   */\n      add\n        /* \"#utility.yul\":3556:3568   */\n      dup3\n        /* \"#utility.yul\":3522:3585   */\n      tag_139\n      jump\t// in\n    tag_201:\n        /* \"#utility.yul\":3423:3595   */\n      pop\n        /* \"#utility.yul\":3691:3695   */\n      0x80\n        /* \"#utility.yul\":3684:3689   */\n      dup3\n        /* \"#utility.yul\":3680:3696   */\n      add\n        /* \"#utility.yul\":3674:3697   */\n      mload\n        /* \"#utility.yul\":3710:3773   */\n      tag_202\n        /* \"#utility.yul\":3767:3771   */\n      0x80\n        /* \"#utility.yul\":3762:3765   */\n      dup6\n        /* \"#utility.yul\":3758:3772   */\n      add\n        /* \"#utility.yul\":3744:3756   */\n      dup3\n        /* \"#utility.yul\":3710:3773   */\n      tag_139\n      jump\t// in\n    tag_202:\n        /* \"#utility.yul\":3605:3783   */\n      pop\n        /* \"#utility.yul\":3873:3877   */\n      0xa0\n        /* \"#utility.yul\":3866:3871   */\n      dup3\n        /* \"#utility.yul\":3862:3878   */\n      add\n        /* \"#utility.yul\":3856:3879   */\n      mload\n        /* \"#utility.yul\":3892:3955   */\n      tag_203\n        /* \"#utility.yul\":3949:3953   */\n      0xa0\n        /* \"#utility.yul\":3944:3947   */\n      dup6\n        /* \"#utility.yul\":3940:3954   */\n      add\n        /* \"#utility.yul\":3926:3938   */\n      dup3\n        /* \"#utility.yul\":3892:3955   */\n      tag_139\n      jump\t// in\n    tag_203:\n        /* \"#utility.yul\":3793:3965   */\n      pop\n        /* \"#utility.yul\":4051:4055   */\n      0xc0\n        /* \"#utility.yul\":4044:4049   */\n      dup3\n        /* \"#utility.yul\":4040:4056   */\n      add\n        /* \"#utility.yul\":4034:4057   */\n      mload\n        /* \"#utility.yul\":4070:4133   */\n      tag_204\n        /* \"#utility.yul\":4127:4131   */\n      0xc0\n        /* \"#utility.yul\":4122:4125   */\n      dup6\n        /* \"#utility.yul\":4118:4132   */\n      add\n        /* \"#utility.yul\":4104:4116   */\n      dup3\n        /* \"#utility.yul\":4070:4133   */\n      tag_139\n      jump\t// in\n    tag_204:\n        /* \"#utility.yul\":3975:4143   */\n      pop\n        /* \"#utility.yul\":4225:4229   */\n      0xe0\n        /* \"#utility.yul\":4218:4223   */\n      dup3\n        /* \"#utility.yul\":4214:4230   */\n      add\n        /* \"#utility.yul\":4208:4231   */\n      mload\n        /* \"#utility.yul\":4244:4301   */\n      tag_205\n        /* \"#utility.yul\":4295:4299   */\n      0xe0\n        /* \"#utility.yul\":4290:4293   */\n      dup6\n        /* \"#utility.yul\":4286:4300   */\n      add\n        /* \"#utility.yul\":4272:4284   */\n      dup3\n        /* \"#utility.yul\":4244:4301   */\n      tag_144\n      jump\t// in\n    tag_205:\n        /* \"#utility.yul\":4153:4311   */\n      pop\n        /* \"#utility.yul\":2833:4318   */\n      pop\n        /* \"#utility.yul\":2721:4318   */\n      pop\n      pop\n      jump\t// out\n        /* \"#utility.yul\":4324:4639   */\n    tag_37:\n        /* \"#utility.yul\":4463:4467   */\n      0x00\n        /* \"#utility.yul\":4501:4504   */\n      0x0100\n        /* \"#utility.yul\":4490:4499   */\n      dup3\n        /* \"#utility.yul\":4486:4505   */\n      add\n        /* \"#utility.yul\":4478:4505   */\n      swap1\n      pop\n        /* \"#utility.yul\":4515:4632   */\n      tag_207\n        /* \"#utility.yul\":4629:4630   */\n      0x00\n        /* \"#utility.yul\":4618:4627   */\n      dup4\n        /* \"#utility.yul\":4614:4631   */\n      add\n        /* \"#utility.yul\":4605:4611   */\n      dup5\n        /* \"#utility.yul\":4515:4632   */\n      tag_145\n      jump\t// in\n    tag_207:\n        /* \"#utility.yul\":4324:4639   */\n      swap3\n      swap2\n      pop\n      pop\n      jump\t// out\n        /* \"#utility.yul\":4645:4767   */\n    tag_146:\n        /* \"#utility.yul\":4718:4742   */\n      tag_209\n        /* \"#utility.yul\":4736:4741   */\n      dup2\n        /* \"#utility.yul\":4718:4742   */\n      tag_141\n      jump\t// in\n    tag_209:\n        /* \"#utility.yul\":4711:4716   */\n      dup2\n        /* \"#utility.yul\":4708:4743   */\n      eq\n        /* \"#utility.yul\":4698:4761   */\n      tag_210\n      jumpi\n        /* \"#utility.yul\":4757:4758   */\n      0x00\n        /* \"#utility.yul\":4754:4755   */\n      dup1\n        /* \"#utility.yul\":4747:4759   */\n      revert\n        /* \"#utility.yul\":4698:4761   */\n    tag_210:\n        /* \"#utility.yul\":4645:4767   */\n      pop\n      jump\t// out\n        /* \"#utility.yul\":4773:4912   */\n    tag_147:\n        /* \"#utility.yul\":4819:4824   */\n      0x00\n        /* \"#utility.yul\":4857:4863   */\n      dup2\n        /* \"#utility.yul\":4844:4864   */\n      calldataload\n        /* \"#utility.yul\":4835:4864   */\n      swap1\n      pop\n        /* \"#utility.yul\":4873:4906   */\n      tag_212\n        /* \"#utility.yul\":4900:4905   */\n      dup2\n        /* \"#utility.yul\":4873:4906   */\n      tag_146\n      jump\t// in\n    tag_212:\n        /* \"#utility.yul\":4773:4912   */\n      swap3\n      swap2\n      pop\n      pop\n      jump\t// out\n        /* \"#utility.yul\":4918:5392   */\n    tag_50:\n        /* \"#utility.yul\":4986:4992   */\n      0x00\n        /* \"#utility.yul\":4994:5000   */\n      dup1\n        /* \"#utility.yul\":5043:5045   */\n      0x40\n        /* \"#utility.yul\":5031:5040   */\n      dup4\n        /* \"#utility.yul\":5022:5029   */\n      dup6\n        /* \"#utility.yul\":5018:5041   */\n      sub\n        /* \"#utility.yul\":5014:5046   */\n      slt\n        /* \"#utility.yul\":5011:5130   */\n      iszero\n      tag_214\n      jumpi\n        /* \"#utility.yul\":5049:5128   */\n      tag_215\n      tag_133\n      jump\t// in\n    tag_215:\n        /* \"#utility.yul\":5011:5130   */\n    tag_214:\n        /* \"#utility.yul\":5169:5170   */\n      0x00\n        /* \"#utility.yul\":5194:5247   */\n      tag_216\n        /* \"#utility.yul\":5239:5246   */\n      dup6\n        /* \"#utility.yul\":5230:5236   */\n      dup3\n        /* \"#utility.yul\":5219:5228   */\n      dup7\n        /* \"#utility.yul\":5215:5237   */\n      add\n        /* \"#utility.yul\":5194:5247   */\n      tag_147\n      jump\t// in\n    tag_216:\n        /* \"#utility.yul\":5184:5247   */\n      swap3\n      pop\n        /* \"#utility.yul\":5140:5257   */\n      pop\n        /* \"#utility.yul\":5296:5298   */\n      0x20\n        /* \"#utility.yul\":5322:5375   */\n      tag_217\n        /* \"#utility.yul\":5367:5374   */\n      dup6\n        /* \"#utility.yul\":5358:5364   */\n      dup3\n        /* \"#utility.yul\":5347:5356   */\n      dup7\n        /* \"#utility.yul\":5343:5365   */\n      add\n        /* \"#utility.yul\":5322:5375   */\n      tag_137\n      jump\t// in\n    tag_217:\n        /* \"#utility.yul\":5312:5375   */\n      swap2\n      pop\n        /* \"#utility.yul\":5267:5385   */\n      pop\n        /* \"#utility.yul\":4918:5392   */\n      swap3\n      pop\n      swap3\n      swap1\n      pop\n      jump\t// out\n        /* \"#utility.yul\":5398:5512   */\n    tag_148:\n        /* \"#utility.yul\":5465:5471   */\n      0x00\n        /* \"#utility.yul\":5499:5504   */\n      dup2\n        /* \"#utility.yul\":5493:5505   */\n      mload\n        /* \"#utility.yul\":5483:5505   */\n      swap1\n      pop\n        /* \"#utility.yul\":5398:5512   */\n      swap2\n      swap1\n      pop\n      jump\t// out\n        /* \"#utility.yul\":5518:5702   */\n    tag_149:\n        /* \"#utility.yul\":5617:5628   */\n      0x00\n        /* \"#utility.yul\":5651:5657   */\n      dup3\n        /* \"#utility.yul\":5646:5649   */\n      dup3\n        /* \"#utility.yul\":5639:5658   */\n      mstore\n        /* \"#utility.yul\":5691:5695   */\n      0x20\n        /* \"#utility.yul\":5686:5689   */\n      dup3\n        /* \"#utility.yul\":5682:5696   */\n      add\n        /* \"#utility.yul\":5667:5696   */\n      swap1\n      pop\n        /* \"#utility.yul\":5518:5702   */\n      swap3\n      swap2\n      pop\n      pop\n      jump\t// out\n        /* \"#utility.yul\":5708:5840   */\n    tag_150:\n        /* \"#utility.yul\":5775:5779   */\n      0x00\n        /* \"#utility.yul\":5798:5801   */\n      dup2\n        /* \"#utility.yul\":5790:5801   */\n      swap1\n      pop\n        /* \"#utility.yul\":5828:5832   */\n      0x20\n        /* \"#utility.yul\":5823:5826   */\n      dup3\n        /* \"#utility.yul\":5819:5833   */\n      add\n        /* \"#utility.yul\":5811:5833   */\n      swap1\n      pop\n        /* \"#utility.yul\":5708:5840   */\n      swap2\n      swap1\n      pop\n      jump\t// out\n        /* \"#utility.yul\":5846:6025   */\n    tag_151:\n        /* \"#utility.yul\":5915:5925   */\n      0x00\n        /* \"#utility.yul\":5936:5982   */\n      tag_222\n        /* \"#utility.yul\":5978:5981   */\n      dup4\n        /* \"#utility.yul\":5970:5976   */\n      dup4\n        /* \"#utility.yul\":5936:5982   */\n      tag_139\n      jump\t// in\n    tag_222:\n        /* \"#utility.yul\":6014:6018   */\n      0x20\n        /* \"#utility.yul\":6009:6012   */\n      dup4\n        /* \"#utility.yul\":6005:6019   */\n      add\n        /* \"#utility.yul\":5991:6019   */\n      swap1\n      pop\n        /* \"#utility.yul\":5846:6025   */\n      swap3\n      swap2\n      pop\n      pop\n      jump\t// out\n        /* \"#utility.yul\":6031:6144   */\n    tag_152:\n        /* \"#utility.yul\":6101:6105   */\n      0x00\n        /* \"#utility.yul\":6133:6137   */\n      0x20\n        /* \"#utility.yul\":6128:6131   */\n      dup3\n        /* \"#utility.yul\":6124:6138   */\n      add\n        /* \"#utility.yul\":6116:6138   */\n      swap1\n      pop\n        /* \"#utility.yul\":6031:6144   */\n      swap2\n      swap1\n      pop\n      jump\t// out\n        /* \"#utility.yul\":6180:6912   */\n    tag_153:\n        /* \"#utility.yul\":6299:6302   */\n      0x00\n        /* \"#utility.yul\":6328:6382   */\n      tag_225\n        /* \"#utility.yul\":6376:6381   */\n      dup3\n        /* \"#utility.yul\":6328:6382   */\n      tag_148\n      jump\t// in\n    tag_225:\n        /* \"#utility.yul\":6398:6484   */\n      tag_226\n        /* \"#utility.yul\":6477:6483   */\n      dup2\n        /* \"#utility.yul\":6472:6475   */\n      dup6\n        /* \"#utility.yul\":6398:6484   */\n      tag_149\n      jump\t// in\n    tag_226:\n        /* \"#utility.yul\":6391:6484   */\n      swap4\n      pop\n        /* \"#utility.yul\":6508:6564   */\n      tag_227\n        /* \"#utility.yul\":6558:6563   */\n      dup4\n        /* \"#utility.yul\":6508:6564   */\n      tag_150\n      jump\t// in\n    tag_227:\n        /* \"#utility.yul\":6587:6594   */\n      dup1\n        /* \"#utility.yul\":6618:6619   */\n      0x00\n        /* \"#utility.yul\":6603:6887   */\n    tag_228:\n        /* \"#utility.yul\":6628:6634   */\n      dup4\n        /* \"#utility.yul\":6625:6626   */\n      dup2\n        /* \"#utility.yul\":6622:6635   */\n      lt\n        /* \"#utility.yul\":6603:6887   */\n      iszero\n      tag_230\n      jumpi\n        /* \"#utility.yul\":6704:6710   */\n      dup2\n        /* \"#utility.yul\":6698:6711   */\n      mload\n        /* \"#utility.yul\":6731:6794   */\n      tag_231\n        /* \"#utility.yul\":6790:6793   */\n      dup9\n        /* \"#utility.yul\":6775:6788   */\n      dup3\n        /* \"#utility.yul\":6731:6794   */\n      tag_151\n      jump\t// in\n    tag_231:\n        /* \"#utility.yul\":6724:6794   */\n      swap8\n      pop\n        /* \"#utility.yul\":6817:6877   */\n      tag_232\n        /* \"#utility.yul\":6870:6876   */\n      dup4\n        /* \"#utility.yul\":6817:6877   */\n      tag_152\n      jump\t// in\n    tag_232:\n        /* \"#utility.yul\":6807:6877   */\n      swap3\n      pop\n        /* \"#utility.yul\":6663:6887   */\n      pop\n        /* \"#utility.yul\":6650:6651   */\n      0x01\n        /* \"#utility.yul\":6647:6648   */\n      dup2\n        /* \"#utility.yul\":6643:6652   */\n      add\n        /* \"#utility.yul\":6638:6652   */\n      swap1\n      pop\n        /* \"#utility.yul\":6603:6887   */\n      jump(tag_228)\n    tag_230:\n        /* \"#utility.yul\":6607:6621   */\n      pop\n        /* \"#utility.yul\":6903:6906   */\n      dup6\n        /* \"#utility.yul\":6896:6906   */\n      swap4\n      pop\n        /* \"#utility.yul\":6304:6912   */\n      pop\n      pop\n      pop\n        /* \"#utility.yul\":6180:6912   */\n      swap3\n      swap2\n      pop\n      pop\n      jump\t// out\n        /* \"#utility.yul\":6918:7291   */\n    tag_62:\n        /* \"#utility.yul\":7061:7065   */\n      0x00\n        /* \"#utility.yul\":7099:7101   */\n      0x20\n        /* \"#utility.yul\":7088:7097   */\n      dup3\n        /* \"#utility.yul\":7084:7102   */\n      add\n        /* \"#utility.yul\":7076:7102   */\n      swap1\n      pop\n        /* \"#utility.yul\":7148:7157   */\n      dup2\n        /* \"#utility.yul\":7142:7146   */\n      dup2\n        /* \"#utility.yul\":7138:7158   */\n      sub\n        /* \"#utility.yul\":7134:7135   */\n      0x00\n        /* \"#utility.yul\":7123:7132   */\n      dup4\n        /* \"#utility.yul\":7119:7136   */\n      add\n        /* \"#utility.yul\":7112:7159   */\n      mstore\n        /* \"#utility.yul\":7176:7284   */\n      tag_234\n        /* \"#utility.yul\":7279:7283   */\n      dup2\n        /* \"#utility.yul\":7270:7276   */\n      dup5\n        /* \"#utility.yul\":7176:7284   */\n      tag_153\n      jump\t// in\n    tag_234:\n        /* \"#utility.yul\":7168:7284   */\n      swap1\n      pop\n        /* \"#utility.yul\":6918:7291   */\n      swap3\n      swap2\n      pop\n      pop\n      jump\t// out\n        /* \"#utility.yul\":7297:7771   */\n    tag_66:\n        /* \"#utility.yul\":7365:7371   */\n      0x00\n        /* \"#utility.yul\":7373:7379   */\n      dup1\n        /* \"#utility.yul\":7422:7424   */\n      0x40\n        /* \"#utility.yul\":7410:7419   */\n      dup4\n        /* \"#utility.yul\":7401:7408   */\n      dup6\n        /* \"#utility.yul\":7397:7420   */\n      sub\n        /* \"#utility.yul\":7393:7425   */\n      slt\n        /* \"#utility.yul\":7390:7509   */\n      iszero\n      tag_236\n      jumpi\n        /* \"#utility.yul\":7428:7507   */\n      tag_237\n      tag_133\n      jump\t// in\n    tag_237:\n        /* \"#utility.yul\":7390:7509   */\n    tag_236:\n        /* \"#utility.yul\":7548:7549   */\n      0x00\n        /* \"#utility.yul\":7573:7626   */\n      tag_238\n        /* \"#utility.yul\":7618:7625   */\n      dup6\n        /* \"#utility.yul\":7609:7615   */\n      dup3\n        /* \"#utility.yul\":7598:7607   */\n      dup7\n        /* \"#utility.yul\":7594:7616   */\n      add\n        /* \"#utility.yul\":7573:7626   */\n      tag_137\n      jump\t// in\n    tag_238:\n        /* \"#utility.yul\":7563:7626   */\n      swap3\n      pop\n        /* \"#utility.yul\":7519:7636   */\n      pop\n        /* \"#utility.yul\":7675:7677   */\n      0x20\n        /* \"#utility.yul\":7701:7754   */\n      tag_239\n        /* \"#utility.yul\":7746:7753   */\n      dup6\n        /* \"#utility.yul\":7737:7743   */\n      dup3\n        /* \"#utility.yul\":7726:7735   */\n      dup7\n        /* \"#utility.yul\":7722:7744   */\n      add\n        /* \"#utility.yul\":7701:7754   */\n      tag_137\n      jump\t// in\n    tag_239:\n        /* \"#utility.yul\":7691:7754   */\n      swap2\n      pop\n        /* \"#utility.yul\":7646:7764   */\n      pop\n        /* \"#utility.yul\":7297:7771   */\n      swap3\n      pop\n      swap3\n      swap1\n      pop\n      jump\t// out\n        /* \"#utility.yul\":7777:7895   */\n    tag_154:\n        /* \"#utility.yul\":7864:7888   */\n      tag_241\n        /* \"#utility.yul\":7882:7887   */\n      dup2\n        /* \"#utility.yul\":7864:7888   */\n      tag_141\n      jump\t// in\n    tag_241:\n        /* \"#utility.yul\":7859:7862   */\n      dup3\n        /* \"#utility.yul\":7852:7889   */\n      mstore\n        /* \"#utility.yul\":7777:7895   */\n      pop\n      pop\n      jump\t// out\n        /* \"#utility.yul\":7901:8123   */\n    tag_72:\n        /* \"#utility.yul\":7994:7998   */\n      0x00\n        /* \"#utility.yul\":8032:8034   */\n      0x20\n        /* \"#utility.yul\":8021:8030   */\n      dup3\n        /* \"#utility.yul\":8017:8035   */\n      add\n        /* \"#utility.yul\":8009:8035   */\n      swap1\n      pop\n        /* \"#utility.yul\":8045:8116   */\n      tag_243\n        /* \"#utility.yul\":8113:8114   */\n      0x00\n        /* \"#utility.yul\":8102:8111   */\n      dup4\n        /* \"#utility.yul\":8098:8115   */\n      add\n        /* \"#utility.yul\":8089:8095   */\n      dup5\n        /* \"#utility.yul\":8045:8116   */\n      tag_154\n      jump\t// in\n    tag_243:\n        /* \"#utility.yul\":7901:8123   */\n      swap3\n      swap2\n      pop\n      pop\n      jump\t// out\n        /* \"#utility.yul\":8129:8458   */\n    tag_76:\n        /* \"#utility.yul\":8188:8194   */\n      0x00\n        /* \"#utility.yul\":8237:8239   */\n      0x20\n        /* \"#utility.yul\":8225:8234   */\n      dup3\n        /* \"#utility.yul\":8216:8223   */\n      dup5\n        /* \"#utility.yul\":8212:8235   */\n      sub\n        /* \"#utility.yul\":8208:8240   */\n      slt\n        /* \"#utility.yul\":8205:8324   */\n      iszero\n      tag_245\n      jumpi\n        /* \"#utility.yul\":8243:8322   */\n      tag_246\n      tag_133\n      jump\t// in\n    tag_246:\n        /* \"#utility.yul\":8205:8324   */\n    tag_245:\n        /* \"#utility.yul\":8363:8364   */\n      0x00\n        /* \"#utility.yul\":8388:8441   */\n      tag_247\n        /* \"#utility.yul\":8433:8440   */\n      dup5\n        /* \"#utility.yul\":8424:8430   */\n      dup3\n        /* \"#utility.yul\":8413:8422   */\n      dup6\n        /* \"#utility.yul\":8409:8431   */\n      add\n        /* \"#utility.yul\":8388:8441   */\n      tag_147\n      jump\t// in\n    tag_247:\n        /* \"#utility.yul\":8378:8441   */\n      swap2\n      pop\n        /* \"#utility.yul\":8334:8451   */\n      pop\n        /* \"#utility.yul\":8129:8458   */\n      swap3\n      swap2\n      pop\n      pop\n      jump\t// out\n        /* \"#utility.yul\":8464:8573   */\n    tag_155:\n        /* \"#utility.yul\":8545:8566   */\n      tag_249\n        /* \"#utility.yul\":8560:8565   */\n      dup2\n        /* \"#utility.yul\":8545:8566   */\n      tag_143\n      jump\t// in\n    tag_249:\n        /* \"#utility.yul\":8540:8543   */\n      dup3\n        /* \"#utility.yul\":8533:8567   */\n      mstore\n        /* \"#utility.yul\":8464:8573   */\n      pop\n      pop\n      jump\t// out\n        /* \"#utility.yul\":8579:9564   */\n    tag_91:\n        /* \"#utility.yul\":8862:8866   */\n      0x00\n        /* \"#utility.yul\":8900:8903   */\n      0x0100\n        /* \"#utility.yul\":8889:8898   */\n      dup3\n        /* \"#utility.yul\":8885:8904   */\n      add\n        /* \"#utility.yul\":8877:8904   */\n      swap1\n      pop\n        /* \"#utility.yul\":8914:8985   */\n      tag_251\n        /* \"#utility.yul\":8982:8983   */\n      0x00\n        /* \"#utility.yul\":8971:8980   */\n      dup4\n        /* \"#utility.yul\":8967:8984   */\n      add\n        /* \"#utility.yul\":8958:8964   */\n      dup12\n        /* \"#utility.yul\":8914:8985   */\n      tag_138\n      jump\t// in\n    tag_251:\n        /* \"#utility.yul\":8995:9067   */\n      tag_252\n        /* \"#utility.yul\":9063:9065   */\n      0x20\n        /* \"#utility.yul\":9052:9061   */\n      dup4\n        /* \"#utility.yul\":9048:9066   */\n      add\n        /* \"#utility.yul\":9039:9045   */\n      dup11\n        /* \"#utility.yul\":8995:9067   */\n      tag_154\n      jump\t// in\n    tag_252:\n        /* \"#utility.yul\":9077:9149   */\n      tag_253\n        /* \"#utility.yul\":9145:9147   */\n      0x40\n        /* \"#utility.yul\":9134:9143   */\n      dup4\n        /* \"#utility.yul\":9130:9148   */\n      add\n        /* \"#utility.yul\":9121:9127   */\n      dup10\n        /* \"#utility.yul\":9077:9149   */\n      tag_138\n      jump\t// in\n    tag_253:\n        /* \"#utility.yul\":9159:9231   */\n      tag_254\n        /* \"#utility.yul\":9227:9229   */\n      0x60\n        /* \"#utility.yul\":9216:9225   */\n      dup4\n        /* \"#utility.yul\":9212:9230   */\n      add\n        /* \"#utility.yul\":9203:9209   */\n      dup9\n        /* \"#utility.yul\":9159:9231   */\n      tag_138\n      jump\t// in\n    tag_254:\n        /* \"#utility.yul\":9241:9314   */\n      tag_255\n        /* \"#utility.yul\":9309:9312   */\n      0x80\n        /* \"#utility.yul\":9298:9307   */\n      dup4\n        /* \"#utility.yul\":9294:9313   */\n      add\n        /* \"#utility.yul\":9285:9291   */\n      dup8\n        /* \"#utility.yul\":9241:9314   */\n      tag_138\n      jump\t// in\n    tag_255:\n        /* \"#utility.yul\":9324:9397   */\n      tag_256\n        /* \"#utility.yul\":9392:9395   */\n      0xa0\n        /* \"#utility.yul\":9381:9390   */\n      dup4\n        /* \"#utility.yul\":9377:9396   */\n      add\n        /* \"#utility.yul\":9368:9374   */\n      dup7\n        /* \"#utility.yul\":9324:9397   */\n      tag_138\n      jump\t// in\n    tag_256:\n        /* \"#utility.yul\":9407:9480   */\n      tag_257\n        /* \"#utility.yul\":9475:9478   */\n      0xc0\n        /* \"#utility.yul\":9464:9473   */\n      dup4\n        /* \"#utility.yul\":9460:9479   */\n      add\n        /* \"#utility.yul\":9451:9457   */\n      dup6\n        /* \"#utility.yul\":9407:9480   */\n      tag_138\n      jump\t// in\n    tag_257:\n        /* \"#utility.yul\":9490:9557   */\n      tag_258\n        /* \"#utility.yul\":9552:9555   */\n      0xe0\n        /* \"#utility.yul\":9541:9550   */\n      dup4\n        /* \"#utility.yul\":9537:9556   */\n      add\n        /* \"#utility.yul\":9528:9534   */\n      dup5\n        /* \"#utility.yul\":9490:9557   */\n      tag_155\n      jump\t// in\n    tag_258:\n        /* \"#utility.yul\":8579:9564   */\n      swap10\n      swap9\n      pop\n      pop\n      pop\n      pop\n      pop\n      pop\n      pop\n      pop\n      pop\n      jump\t// out\n        /* \"#utility.yul\":9570:9750   */\n    tag_156:\n        /* \"#utility.yul\":9618:9695   */\n      0x4e487b7100000000000000000000000000000000000000000000000000000000\n        /* \"#utility.yul\":9615:9616   */\n      0x00\n        /* \"#utility.yul\":9608:9696   */\n      mstore\n        /* \"#utility.yul\":9715:9719   */\n      0x11\n        /* \"#utility.yul\":9712:9713   */\n      0x04\n        /* \"#utility.yul\":9705:9720   */\n      mstore\n        /* \"#utility.yul\":9739:9743   */\n      0x24\n        /* \"#utility.yul\":9736:9737   */\n      0x00\n        /* \"#utility.yul\":9729:9744   */\n      revert\n        /* \"#utility.yul\":9756:10166   */\n    tag_94:\n        /* \"#utility.yul\":9796:9803   */\n      0x00\n        /* \"#utility.yul\":9819:9839   */\n      tag_261\n        /* \"#utility.yul\":9837:9838   */\n      dup3\n        /* \"#utility.yul\":9819:9839   */\n      tag_135\n      jump\t// in\n    tag_261:\n        /* \"#utility.yul\":9814:9839   */\n      swap2\n      pop\n        /* \"#utility.yul\":9853:9873   */\n      tag_262\n        /* \"#utility.yul\":9871:9872   */\n      dup4\n        /* \"#utility.yul\":9853:9873   */\n      tag_135\n      jump\t// in\n    tag_262:\n        /* \"#utility.yul\":9848:9873   */\n      swap3\n      pop\n        /* \"#utility.yul\":9908:9909   */\n      dup3\n        /* \"#utility.yul\":9905:9906   */\n      dup3\n        /* \"#utility.yul\":9901:9910   */\n      mul\n        /* \"#utility.yul\":9930:9960   */\n      tag_263\n        /* \"#utility.yul\":9948:9959   */\n      dup2\n        /* \"#utility.yul\":9930:9960   */\n      tag_135\n      jump\t// in\n    tag_263:\n        /* \"#utility.yul\":9919:9960   */\n      swap2\n      pop\n        /* \"#utility.yul\":10109:10110   */\n      dup3\n        /* \"#utility.yul\":10100:10107   */\n      dup3\n        /* \"#utility.yul\":10096:10111   */\n      div\n        /* \"#utility.yul\":10093:10094   */\n      dup5\n        /* \"#utility.yul\":10090:10112   */\n      eq\n        /* \"#utility.yul\":10070:10071   */\n      dup4\n        /* \"#utility.yul\":10063:10072   */\n      iszero\n        /* \"#utility.yul\":10043:10126   */\n      or\n        /* \"#utility.yul\":10020:10159   */\n      tag_264\n      jumpi\n        /* \"#utility.yul\":10139:10157   */\n      tag_265\n      tag_156\n      jump\t// in\n    tag_265:\n        /* \"#utility.yul\":10020:10159   */\n    tag_264:\n        /* \"#utility.yul\":9804:10166   */\n      pop\n        /* \"#utility.yul\":9756:10166   */\n      swap3\n      swap2\n      pop\n      pop\n      jump\t// out\n        /* \"#utility.yul\":10172:10352   */\n    tag_157:\n        /* \"#utility.yul\":10220:10297   */\n      0x4e487b7100000000000000000000000000000000000000000000000000000000\n        /* \"#utility.yul\":10217:10218   */\n      0x00\n        /* \"#utility.yul\":10210:10298   */\n      mstore\n        /* \"#utility.yul\":10317:10321   */\n      0x12\n        /* \"#utility.yul\":10314:10315   */\n      0x04\n        /* \"#utility.yul\":10307:10322   */\n      mstore\n        /* \"#utility.yul\":10341:10345   */\n      0x24\n        /* \"#utility.yul\":10338:10339   */\n      0x00\n        /* \"#utility.yul\":10331:10346   */\n      revert\n        /* \"#utility.yul\":10358:10543   */\n    tag_96:\n        /* \"#utility.yul\":10398:10399   */\n      0x00\n        /* \"#utility.yul\":10415:10435   */\n      tag_268\n        /* \"#utility.yul\":10433:10434   */\n      dup3\n        /* \"#utility.yul\":10415:10435   */\n      tag_135\n      jump\t// in\n    tag_268:\n        /* \"#utility.yul\":10410:10435   */\n      swap2\n      pop\n        /* \"#utility.yul\":10449:10469   */\n      tag_269\n        /* \"#utility.yul\":10467:10468   */\n      dup4\n        /* \"#utility.yul\":10449:10469   */\n      tag_135\n      jump\t// in\n    tag_269:\n        /* \"#utility.yul\":10444:10469   */\n      swap3\n      pop\n        /* \"#utility.yul\":10488:10489   */\n      dup3\n        /* \"#utility.yul\":10478:10513   */\n      tag_270\n      jumpi\n        /* \"#utility.yul\":10493:10511   */\n      tag_271\n      tag_157\n      jump\t// in\n    tag_271:\n        /* \"#utility.yul\":10478:10513   */\n    tag_270:\n        /* \"#utility.yul\":10535:10536   */\n      dup3\n        /* \"#utility.yul\":10532:10533   */\n      dup3\n        /* \"#utility.yul\":10528:10537   */\n      div\n        /* \"#utility.yul\":10523:10537   */\n      swap1\n      pop\n        /* \"#utility.yul\":10358:10543   */\n      swap3\n      swap2\n      pop\n      pop\n      jump\t// out\n        /* \"#utility.yul\":10549:10718   */\n    tag_158:\n        /* \"#utility.yul\":10633:10644   */\n      0x00\n        /* \"#utility.yul\":10667:10673   */\n      dup3\n        /* \"#utility.yul\":10662:10665   */\n      dup3\n        /* \"#utility.yul\":10655:10674   */\n      mstore\n        /* \"#utility.yul\":10707:10711   */\n      0x20\n        /* \"#utility.yul\":10702:10705   */\n      dup3\n        /* \"#utility.yul\":10698:10712   */\n      add\n        /* \"#utility.yul\":10683:10712   */\n      swap1\n      pop\n        /* \"#utility.yul\":10549:10718   */\n      swap3\n      swap2\n      pop\n      pop\n      jump\t// out\n        /* \"#utility.yul\":10724:10898   */\n    tag_159:\n        /* \"#utility.yul\":10864:10890   */\n      0x4f6e6c79206f776e65722063616e206368616e67652069740000000000000000\n        /* \"#utility.yul\":10860:10861   */\n      0x00\n        /* \"#utility.yul\":10852:10858   */\n      dup3\n        /* \"#utility.yul\":10848:10862   */\n      add\n        /* \"#utility.yul\":10841:10891   */\n      mstore\n        /* \"#utility.yul\":10724:10898   */\n      pop\n      jump\t// out\n        /* \"#utility.yul\":10904:11270   */\n    tag_160:\n        /* \"#utility.yul\":11046:11049   */\n      0x00\n        /* \"#utility.yul\":11067:11134   */\n      tag_275\n        /* \"#utility.yul\":11131:11133   */\n      0x18\n        /* \"#utility.yul\":11126:11129   */\n      dup4\n        /* \"#utility.yul\":11067:11134   */\n      tag_158\n      jump\t// in\n    tag_275:\n        /* \"#utility.yul\":11060:11134   */\n      swap2\n      pop\n        /* \"#utility.yul\":11143:11236   */\n      tag_276\n        /* \"#utility.yul\":11232:11235   */\n      dup3\n        /* \"#utility.yul\":11143:11236   */\n      tag_159\n      jump\t// in\n    tag_276:\n        /* \"#utility.yul\":11261:11263   */\n      0x20\n        /* \"#utility.yul\":11256:11259   */\n      dup3\n        /* \"#utility.yul\":11252:11264   */\n      add\n        /* \"#utility.yul\":11245:11264   */\n      swap1\n      pop\n        /* \"#utility.yul\":10904:11270   */\n      swap2\n      swap1\n      pop\n      jump\t// out\n        /* \"#utility.yul\":11276:11695   */\n    tag_111:\n        /* \"#utility.yul\":11442:11446   */\n      0x00\n        /* \"#utility.yul\":11480:11482   */\n      0x20\n        /* \"#utility.yul\":11469:11478   */\n      dup3\n        /* \"#utility.yul\":11465:11483   */\n      add\n        /* \"#utility.yul\":11457:11483   */\n      swap1\n      pop\n        /* \"#utility.yul\":11529:11538   */\n      dup2\n        /* \"#utility.yul\":11523:11527   */\n      dup2\n        /* \"#utility.yul\":11519:11539   */\n      sub\n        /* \"#utility.yul\":11515:11516   */\n      0x00\n        /* \"#utility.yul\":11504:11513   */\n      dup4\n        /* \"#utility.yul\":11500:11517   */\n      add\n        /* \"#utility.yul\":11493:11540   */\n      mstore\n        /* \"#utility.yul\":11557:11688   */\n      tag_278\n        /* \"#utility.yul\":11683:11687   */\n      dup2\n        /* \"#utility.yul\":11557:11688   */\n      tag_160\n      jump\t// in\n    tag_278:\n        /* \"#utility.yul\":11549:11688   */\n      swap1\n      pop\n        /* \"#utility.yul\":11276:11695   */\n      swap2\n      swap1\n      pop\n      jump\t// out\n        /* \"#utility.yul\":11701:11933   */\n    tag_161:\n        /* \"#utility.yul\":11841:11875   */\n      0x596f75206e65656420746f207374616b6520666f722061206c6f6e6765722070\n        /* \"#utility.yul\":11837:11838   */\n      0x00\n        /* \"#utility.yul\":11829:11835   */\n      dup3\n        /* \"#utility.yul\":11825:11839   */\n      add\n        /* \"#utility.yul\":11818:11876   */\n      mstore\n        /* \"#utility.yul\":11910:11925   */\n      0x6572696f64206f662074696d6500000000000000000000000000000000000000\n        /* \"#utility.yul\":11905:11907   */\n      0x20\n        /* \"#utility.yul\":11897:11903   */\n      dup3\n        /* \"#utility.yul\":11893:11908   */\n      add\n        /* \"#utility.yul\":11886:11926   */\n      mstore\n        /* \"#utility.yul\":11701:11933   */\n      pop\n      jump\t// out\n        /* \"#utility.yul\":11939:12305   */\n    tag_162:\n        /* \"#utility.yul\":12081:12084   */\n      0x00\n        /* \"#utility.yul\":12102:12169   */\n      tag_281\n        /* \"#utility.yul\":12166:12168   */\n      0x2d\n        /* \"#utility.yul\":12161:12164   */\n      dup4\n        /* \"#utility.yul\":12102:12169   */\n      tag_158\n      jump\t// in\n    tag_281:\n        /* \"#utility.yul\":12095:12169   */\n      swap2\n      pop\n        /* \"#utility.yul\":12178:12271   */\n      tag_282\n        /* \"#utility.yul\":12267:12270   */\n      dup3\n        /* \"#utility.yul\":12178:12271   */\n      tag_161\n      jump\t// in\n    tag_282:\n        /* \"#utility.yul\":12296:12298   */\n      0x40\n        /* \"#utility.yul\":12291:12294   */\n      dup3\n        /* \"#utility.yul\":12287:12299   */\n      add\n        /* \"#utility.yul\":12280:12299   */\n      swap1\n      pop\n        /* \"#utility.yul\":11939:12305   */\n      swap2\n      swap1\n      pop\n      jump\t// out\n        /* \"#utility.yul\":12311:12730   */\n    tag_124:\n        /* \"#utility.yul\":12477:12481   */\n      0x00\n        /* \"#utility.yul\":12515:12517   */\n      0x20\n        /* \"#utility.yul\":12504:12513   */\n      dup3\n        /* \"#utility.yul\":12500:12518   */\n      add\n        /* \"#utility.yul\":12492:12518   */\n      swap1\n      pop\n        /* \"#utility.yul\":12564:12573   */\n      dup2\n        /* \"#utility.yul\":12558:12562   */\n      dup2\n        /* \"#utility.yul\":12554:12574   */\n      sub\n        /* \"#utility.yul\":12550:12551   */\n      0x00\n        /* \"#utility.yul\":12539:12548   */\n      dup4\n        /* \"#utility.yul\":12535:12552   */\n      add\n        /* \"#utility.yul\":12528:12575   */\n      mstore\n        /* \"#utility.yul\":12592:12723   */\n      tag_284\n        /* \"#utility.yul\":12718:12722   */\n      dup2\n        /* \"#utility.yul\":12592:12723   */\n      tag_162\n      jump\t// in\n    tag_284:\n        /* \"#utility.yul\":12584:12723   */\n      swap1\n      pop\n        /* \"#utility.yul\":12311:12730   */\n      swap2\n      swap1\n      pop\n      jump\t// out\n        /* \"#utility.yul\":12736:12927   */\n    tag_127:\n        /* \"#utility.yul\":12776:12779   */\n      0x00\n        /* \"#utility.yul\":12795:12815   */\n      tag_286\n        /* \"#utility.yul\":12813:12814   */\n      dup3\n        /* \"#utility.yul\":12795:12815   */\n      tag_135\n      jump\t// in\n    tag_286:\n        /* \"#utility.yul\":12790:12815   */\n      swap2\n      pop\n        /* \"#utility.yul\":12829:12849   */\n      tag_287\n        /* \"#utility.yul\":12847:12848   */\n      dup4\n        /* \"#utility.yul\":12829:12849   */\n      tag_135\n      jump\t// in\n    tag_287:\n        /* \"#utility.yul\":12824:12849   */\n      swap3\n      pop\n        /* \"#utility.yul\":12872:12873   */\n      dup3\n        /* \"#utility.yul\":12869:12870   */\n      dup3\n        /* \"#utility.yul\":12865:12874   */\n      add\n        /* \"#utility.yul\":12858:12874   */\n      swap1\n      pop\n        /* \"#utility.yul\":12893:12896   */\n      dup1\n        /* \"#utility.yul\":12890:12891   */\n      dup3\n        /* \"#utility.yul\":12887:12897   */\n      gt\n        /* \"#utility.yul\":12884:12920   */\n      iszero\n      tag_288\n      jumpi\n        /* \"#utility.yul\":12900:12918   */\n      tag_289\n      tag_156\n      jump\t// in\n    tag_289:\n        /* \"#utility.yul\":12884:12920   */\n    tag_288:\n        /* \"#utility.yul\":12736:12927   */\n      swap3\n      swap2\n      pop\n      pop\n      jump\t// out\n        /* \"#utility.yul\":12933:13166   */\n    tag_131:\n        /* \"#utility.yul\":12972:12975   */\n      0x00\n        /* \"#utility.yul\":12995:13019   */\n      tag_291\n        /* \"#utility.yul\":13013:13018   */\n      dup3\n        /* \"#utility.yul\":12995:13019   */\n      tag_135\n      jump\t// in\n    tag_291:\n        /* \"#utility.yul\":12986:13019   */\n      swap2\n      pop\n        /* \"#utility.yul\":13041:13107   */\n      0xffffffffffffffffffffffffffffffffffffffffffffffffffffffffffffffff\n        /* \"#utility.yul\":13034:13039   */\n      dup3\n        /* \"#utility.yul\":13031:13108   */\n      sub\n        /* \"#utility.yul\":13028:13131   */\n      tag_292\n      jumpi\n        /* \"#utility.yul\":13111:13129   */\n      tag_293\n      tag_156\n      jump\t// in\n    tag_293:\n        /* \"#utility.yul\":13028:13131   */\n    tag_292:\n        /* \"#utility.yul\":13158:13159   */\n      0x01\n        /* \"#utility.yul\":13151:13156   */\n      dup3\n        /* \"#utility.yul\":13147:13160   */\n      add\n        /* \"#utility.yul\":13140:13160   */\n      swap1\n      pop\n        /* \"#utility.yul\":12933:13166   */\n      swap2\n      swap1\n      pop\n      jump\t// out\n\n    auxdata: 0xa2646970667358221220126df1246c17ebaa51fb3e31fa57129083fafc0ae3efd1f3df873fd318fd02b664736f6c63430008130033\n}\n",
				"bytecode": {
					"linkReferences": {},
					"object": "6080604052336000806101000a81548173ffffffffffffffffffffffffffffffffffffffff021916908373ffffffffffffffffffffffffffffffffffffffff1602179055506000600981905550610258600c6000601e8152602001908152602001600020819055506103e8600c6000605a815260200190815260200160002081905550610578600c600060b4815260200190815260200160002081905550600d601e9080600181540180825580915050600190039060005260206000200160009091909190915055600d605a9080600181540180825580915050600190039060005260206000200160009091909190915055600d60b490806001815401808255809150506001900390600052602060002001600090919091909150556111e78061012a6000396000f3fe6080604052600436106100dd5760003560e01c8063c7b0fc6a1161007f578063f8a2639c11610059578063f8a2639c146102fa578063f9d4e87114610337578063fbb5f24b14610360578063fd5e6dd11461037c576100dd565b8063c7b0fc6a1461027b578063d73a84e9146102a6578063f851a440146102cf576100dd565b80634c8f2a78116100bb5780634c8f2a781461019957806386989038146101d6578063b05e148d14610201578063b2596a671461023e576100dd565b806305e1bd8c146100e25780630c196a741461011f578063105c2c5c1461015c575b600080fd5b3480156100ee57600080fd5b5061010960048036038101906101049190610b21565b6103c0565b6040516101169190610b83565b60405180910390f35b34801561012b57600080fd5b5061014660048036038101906101419190610b9e565b6103e4565b6040516101539190610b83565b60405180910390f35b34801561016857600080fd5b50610183600480360381019061017e9190610b9e565b610401565b6040516101909190610cd8565b60405180910390f35b3480156101a557600080fd5b506101c060048036038101906101bb9190610b9e565b6104dc565b6040516101cd9190610b83565b60405180910390f35b3480156101e257600080fd5b506101eb610500565b6040516101f89190610b83565b60405180910390f35b34801561020d57600080fd5b5061022860048036038101906102239190610d20565b610506565b6040516102359190610b83565b60405180910390f35b34801561024a57600080fd5b5061026560048036038101906102609190610b9e565b610537565b6040516102729190610b83565b60405180910390f35b34801561028757600080fd5b5061029061054f565b60405161029d9190610e0f565b60405180910390f35b3480156102b257600080fd5b506102cd60048036038101906102c89190610e31565b6105a7565b005b3480156102db57600080fd5b506102e461067a565b6040516102f19190610e80565b60405180910390f35b34801561030657600080fd5b50610321600480360381019061031c9190610e9b565b61069e565b60405161032e9190610e0f565b60405180910390f35b34801561034357600080fd5b5061035e60048036038101906103599190610e31565b610735565b005b61037a60048036038101906103759190610b9e565b6107e2565b005b34801561038857600080fd5b506103a3600480360381019061039e9190610b9e565b610a14565b6040516103b7989796959493929190610ed7565b60405180910390f35b600061271082856103d19190610f84565b6103db9190610ff5565b90509392505050565b6000600c6000838152602001908152602001600020549050919050565b610409610a89565b600a600083815260200190815260200160002060405180610100016040529081600082015481526020016001820160009054906101000a900473ffffffffffffffffffffffffffffffffffffffff1673ffffffffffffffffffffffffffffffffffffffff1673ffffffffffffffffffffffffffffffffffffffff16815260200160028201548152602001600382015481526020016004820154815260200160058201548152602001600682015481526020016007820160009054906101000a900460ff1615151515815250509050919050565b600d81815481106104ec57600080fd5b906000526020600020016000915090505481565b60095481565b600b602052816000526040600020818154811061052257600080fd5b90600052602060002001600091509150505481565b600c6020528060005260406000206000915090505481565b6060600d80548060200260200160405190810160405280929190818152602001828054801561059d57602002820191906000526020600020905b815481526020019060010190808311610589575b5050505050905090565b3373ffffffffffffffffffffffffffffffffffffffff1660008054906101000a900473ffffffffffffffffffffffffffffffffffffffff1673ffffffffffffffffffffffffffffffffffffffff1614610635576040517f08c379a000000000000000000000000000000000000000000000000000000000815260040161062c90611083565b60405180910390fd5b80600c600084815260200190815260200160002081905550600d8290806001815401808255809150506001900390600052602060002001600090919091909150555050565b60008054906101000a900473ffffffffffffffffffffffffffffffffffffffff1681565b6060600b60008373ffffffffffffffffffffffffffffffffffffffff1673ffffffffffffffffffffffffffffffffffffffff16815260200190815260200160002080548060200260200160405190810160405280929190818152602001828054801561072957602002820191906000526020600020905b815481526020019060010190808311610715575b50505050509050919050565b3373ffffffffffffffffffffffffffffffffffffffff1660008054906101000a900473ffffffffffffffffffffffffffffffffffffffff1673ffffffffffffffffffffffffffffffffffffffff16146107c3576040517f08c379a00000000000000000000000000000000000000000000000000000000081526004016107ba90611083565b60405180910390fd5b80600a6000848152602001908152602001600020600301819055505050565b6000600c60008381526020019081526020016000205411610838576040517f08c379a000000000000000000000000000000000000000000000000000000000815260040161082f90611115565b60405180910390fd5b60405180610100016040528060095481526020013373ffffffffffffffffffffffffffffffffffffffff168152602001428152602001620151808361087d9190610f84565b426108889190611135565b8152602001600c60008481526020019081526020016000205481526020013481526020016108ca600c60008581526020019081526020016000205484346103c0565b815260200160011515815250600a600060095481526020019081526020016000206000820151816000015560208201518160010160006101000a81548173ffffffffffffffffffffffffffffffffffffffff021916908373ffffffffffffffffffffffffffffffffffffffff16021790555060408201518160020155606082015181600301556080820151816004015560a0820151816005015560c0820151816006015560e08201518160070160006101000a81548160ff021916908315150217905550905050600b60003373ffffffffffffffffffffffffffffffffffffffff1673ffffffffffffffffffffffffffffffffffffffff168152602001908152602001600020600954908060018154018082558091505060019003906000526020600020016000909190919091505560096000815480929190610a0c90611169565b919050555050565b600a6020528060005260406000206000915090508060000154908060010160009054906101000a900473ffffffffffffffffffffffffffffffffffffffff16908060020154908060030154908060040154908060050154908060060154908060070160009054906101000a900460ff16905088565b60405180610100016040528060008152602001600073ffffffffffffffffffffffffffffffffffffffff16815260200160008152602001600081526020016000815260200160008152602001600081526020016000151581525090565b600080fd5b6000819050919050565b610afe81610aeb565b8114610b0957600080fd5b50565b600081359050610b1b81610af5565b92915050565b600080600060608486031215610b3a57610b39610ae6565b5b6000610b4886828701610b0c565b9350506020610b5986828701610b0c565b9250506040610b6a86828701610b0c565b9150509250925092565b610b7d81610aeb565b82525050565b6000602082019050610b986000830184610b74565b92915050565b600060208284031215610bb457610bb3610ae6565b5b6000610bc284828501610b0c565b91505092915050565b610bd481610aeb565b82525050565b600073ffffffffffffffffffffffffffffffffffffffff82169050919050565b6000610c0582610bda565b9050919050565b610c1581610bfa565b82525050565b60008115159050919050565b610c3081610c1b565b82525050565b61010082016000820151610c4d6000850182610bcb565b506020820151610c606020850182610c0c565b506040820151610c736040850182610bcb565b506060820151610c866060850182610bcb565b506080820151610c996080850182610bcb565b5060a0820151610cac60a0850182610bcb565b5060c0820151610cbf60c0850182610bcb565b5060e0820151610cd260e0850182610c27565b50505050565b600061010082019050610cee6000830184610c36565b92915050565b610cfd81610bfa565b8114610d0857600080fd5b50565b600081359050610d1a81610cf4565b92915050565b60008060408385031215610d3757610d36610ae6565b5b6000610d4585828601610d0b565b9250506020610d5685828601610b0c565b9150509250929050565b600081519050919050565b600082825260208201905092915050565b6000819050602082019050919050565b6000610d988383610bcb565b60208301905092915050565b6000602082019050919050565b6000610dbc82610d60565b610dc68185610d6b565b9350610dd183610d7c565b8060005b83811015610e02578151610de98882610d8c565b9750610df483610da4565b925050600181019050610dd5565b5085935050505092915050565b60006020820190508181036000830152610e298184610db1565b905092915050565b60008060408385031215610e4857610e47610ae6565b5b6000610e5685828601610b0c565b9250506020610e6785828601610b0c565b9150509250929050565b610e7a81610bfa565b82525050565b6000602082019050610e956000830184610e71565b92915050565b600060208284031215610eb157610eb0610ae6565b5b6000610ebf84828501610d0b565b91505092915050565b610ed181610c1b565b82525050565b600061010082019050610eed600083018b610b74565b610efa602083018a610e71565b610f076040830189610b74565b610f146060830188610b74565b610f216080830187610b74565b610f2e60a0830186610b74565b610f3b60c0830185610b74565b610f4860e0830184610ec8565b9998505050505050505050565b7f4e487b7100000000000000000000000000000000000000000000000000000000600052601160045260246000fd5b6000610f8f82610aeb565b9150610f9a83610aeb565b9250828202610fa881610aeb565b91508282048414831517610fbf57610fbe610f55565b5b5092915050565b7f4e487b7100000000000000000000000000000000000000000000000000000000600052601260045260246000fd5b600061100082610aeb565b915061100b83610aeb565b92508261101b5761101a610fc6565b5b828204905092915050565b600082825260208201905092915050565b7f4f6e6c79206f776e65722063616e206368616e67652069740000000000000000600082015250565b600061106d601883611026565b915061107882611037565b602082019050919050565b6000602082019050818103600083015261109c81611060565b9050919050565b7f596f75206e65656420746f207374616b6520666f722061206c6f6e676572207060008201527f6572696f64206f662074696d6500000000000000000000000000000000000000602082015250565b60006110ff602d83611026565b915061110a826110a3565b604082019050919050565b6000602082019050818103600083015261112e816110f2565b9050919050565b600061114082610aeb565b915061114b83610aeb565b925082820190508082111561116357611162610f55565b5b92915050565b600061117482610aeb565b91507fffffffffffffffffffffffffffffffffffffffffffffffffffffffffffffffff82036111a6576111a5610f55565b5b60018201905091905056fea2646970667358221220126df1246c17ebaa51fb3e31fa57129083fafc0ae3efd1f3df873fd318fd02b664736f6c63430008130033",
					"opcodes": "PUSH1 0x80 PUSH1 0x40 MSTORE CALLER PUSH1 0x0 DUP1 PUSH2 0x100 EXP DUP2 SLOAD DUP2 PUSH20 0xFFFFFFFFFFFFFFFFFFFFFFFFFFFFFFFFFFFFFFFF MUL NOT AND SWAP1 DUP4 PUSH20 0xFFFFFFFFFFFFFFFFFFFFFFFFFFFFFFFFFFFFFFFF AND MUL OR SWAP1 SSTORE POP PUSH1 0x0 PUSH1 0x9 DUP2 SWAP1 SSTORE POP PUSH2 0x258 PUSH1 0xC PUSH1 0x0 PUSH1 0x1E DUP2 MSTORE PUSH1 0x20 ADD SWAP1 DUP2 MSTORE PUSH1 0x20 ADD PUSH1 0x0 KECCAK256 DUP2 SWAP1 SSTORE POP PUSH2 0x3E8 PUSH1 0xC PUSH1 0x0 PUSH1 0x5A DUP2 MSTORE PUSH1 0x20 ADD SWAP1 DUP2 MSTORE PUSH1 0x20 ADD PUSH1 0x0 KECCAK256 DUP2 SWAP1 SSTORE POP PUSH2 0x578 PUSH1 0xC PUSH1 0x0 PUSH1 0xB4 DUP2 MSTORE PUSH1 0x20 ADD SWAP1 DUP2 MSTORE PUSH1 0x20 ADD PUSH1 0x0 KECCAK256 DUP2 SWAP1 SSTORE POP PUSH1 0xD PUSH1 0x1E SWAP1 DUP1 PUSH1 0x1 DUP2 SLOAD ADD DUP1 DUP3 SSTORE DUP1 SWAP2 POP POP PUSH1 0x1 SWAP1 SUB SWAP1 PUSH1 0x0 MSTORE PUSH1 0x20 PUSH1 0x0 KECCAK256 ADD PUSH1 0x0 SWAP1 SWAP2 SWAP1 SWAP2 SWAP1 SWAP2 POP SSTORE PUSH1 0xD PUSH1 0x5A SWAP1 DUP1 PUSH1 0x1 DUP2 SLOAD ADD DUP1 DUP3 SSTORE DUP1 SWAP2 POP POP PUSH1 0x1 SWAP1 SUB SWAP1 PUSH1 0x0 MSTORE PUSH1 0x20 PUSH1 0x0 KECCAK256 ADD PUSH1 0x0 SWAP1 SWAP2 SWAP1 SWAP2 SWAP1 SWAP2 POP SSTORE PUSH1 0xD PUSH1 0xB4 SWAP1 DUP1 PUSH1 0x1 DUP2 SLOAD ADD DUP1 DUP3 SSTORE DUP1 SWAP2 POP POP PUSH1 0x1 SWAP1 SUB SWAP1 PUSH1 0x0 MSTORE PUSH1 0x20 PUSH1 0x0 KECCAK256 ADD PUSH1 0x0 SWAP1 SWAP2 SWAP1 SWAP2 SWAP1 SWAP2 POP SSTORE PUSH2 0x11E7 DUP1 PUSH2 0x12A PUSH1 0x0 CODECOPY PUSH1 0x0 RETURN INVALID PUSH1 0x80 PUSH1 0x40 MSTORE PUSH1 0x4 CALLDATASIZE LT PUSH2 0xDD JUMPI PUSH1 0x0 CALLDATALOAD PUSH1 0xE0 SHR DUP1 PUSH4 0xC7B0FC6A GT PUSH2 0x7F JUMPI DUP1 PUSH4 0xF8A2639C GT PUSH2 0x59 JUMPI DUP1 PUSH4 0xF8A2639C EQ PUSH2 0x2FA JUMPI DUP1 PUSH4 0xF9D4E871 EQ PUSH2 0x337 JUMPI DUP1 PUSH4 0xFBB5F24B EQ PUSH2 0x360 JUMPI DUP1 PUSH4 0xFD5E6DD1 EQ PUSH2 0x37C JUMPI PUSH2 0xDD JUMP JUMPDEST DUP1 PUSH4 0xC7B0FC6A EQ PUSH2 0x27B JUMPI DUP1 PUSH4 0xD73A84E9 EQ PUSH2 0x2A6 JUMPI DUP1 PUSH4 0xF851A440 EQ PUSH2 0x2CF JUMPI PUSH2 0xDD JUMP JUMPDEST DUP1 PUSH4 0x4C8F2A78 GT PUSH2 0xBB JUMPI DUP1 PUSH4 0x4C8F2A78 EQ PUSH2 0x199 JUMPI DUP1 PUSH4 0x86989038 EQ PUSH2 0x1D6 JUMPI DUP1 PUSH4 0xB05E148D EQ PUSH2 0x201 JUMPI DUP1 PUSH4 0xB2596A67 EQ PUSH2 0x23E JUMPI PUSH2 0xDD JUMP JUMPDEST DUP1 PUSH4 0x5E1BD8C EQ PUSH2 0xE2 JUMPI DUP1 PUSH4 0xC196A74 EQ PUSH2 0x11F JUMPI DUP1 PUSH4 0x105C2C5C EQ PUSH2 0x15C JUMPI JUMPDEST PUSH1 0x0 DUP1 REVERT JUMPDEST CALLVALUE DUP1 ISZERO PUSH2 0xEE JUMPI PUSH1 0x0 DUP1 REVERT JUMPDEST POP PUSH2 0x109 PUSH1 0x4 DUP1 CALLDATASIZE SUB DUP2 ADD SWAP1 PUSH2 0x104 SWAP2 SWAP1 PUSH2 0xB21 JUMP JUMPDEST PUSH2 0x3C0 JUMP JUMPDEST PUSH1 0x40 MLOAD PUSH2 0x116 SWAP2 SWAP1 PUSH2 0xB83 JUMP JUMPDEST PUSH1 0x40 MLOAD DUP1 SWAP2 SUB SWAP1 RETURN JUMPDEST CALLVALUE DUP1 ISZERO PUSH2 0x12B JUMPI PUSH1 0x0 DUP1 REVERT JUMPDEST POP PUSH2 0x146 PUSH1 0x4 DUP1 CALLDATASIZE SUB DUP2 ADD SWAP1 PUSH2 0x141 SWAP2 SWAP1 PUSH2 0xB9E JUMP JUMPDEST PUSH2 0x3E4 JUMP JUMPDEST PUSH1 0x40 MLOAD PUSH2 0x153 SWAP2 SWAP1 PUSH2 0xB83 JUMP JUMPDEST PUSH1 0x40 MLOAD DUP1 SWAP2 SUB SWAP1 RETURN JUMPDEST CALLVALUE DUP1 ISZERO PUSH2 0x168 JUMPI PUSH1 0x0 DUP1 REVERT JUMPDEST POP PUSH2 0x183 PUSH1 0x4 DUP1 CALLDATASIZE SUB DUP2 ADD SWAP1 PUSH2 0x17E SWAP2 SWAP1 PUSH2 0xB9E JUMP JUMPDEST PUSH2 0x401 JUMP JUMPDEST PUSH1 0x40 MLOAD PUSH2 0x190 SWAP2 SWAP1 PUSH2 0xCD8 JUMP JUMPDEST PUSH1 0x40 MLOAD DUP1 SWAP2 SUB SWAP1 RETURN JUMPDEST CALLVALUE DUP1 ISZERO PUSH2 0x1A5 JUMPI PUSH1 0x0 DUP1 REVERT JUMPDEST POP PUSH2 0x1C0 PUSH1 0x4 DUP1 CALLDATASIZE SUB DUP2 ADD SWAP1 PUSH2 0x1BB SWAP2 SWAP1 PUSH2 0xB9E JUMP JUMPDEST PUSH2 0x4DC JUMP JUMPDEST PUSH1 0x40 MLOAD PUSH2 0x1CD SWAP2 SWAP1 PUSH2 0xB83 JUMP JUMPDEST PUSH1 0x40 MLOAD DUP1 SWAP2 SUB SWAP1 RETURN JUMPDEST CALLVALUE DUP1 ISZERO PUSH2 0x1E2 JUMPI PUSH1 0x0 DUP1 REVERT JUMPDEST POP PUSH2 0x1EB PUSH2 0x500 JUMP JUMPDEST PUSH1 0x40 MLOAD PUSH2 0x1F8 SWAP2 SWAP1 PUSH2 0xB83 JUMP JUMPDEST PUSH1 0x40 MLOAD DUP1 SWAP2 SUB SWAP1 RETURN JUMPDEST CALLVALUE DUP1 ISZERO PUSH2 0x20D JUMPI PUSH1 0x0 DUP1 REVERT JUMPDEST POP PUSH2 0x228 PUSH1 0x4 DUP1 CALLDATASIZE SUB DUP2 ADD SWAP1 PUSH2 0x223 SWAP2 SWAP1 PUSH2 0xD20 JUMP JUMPDEST PUSH2 0x506 JUMP JUMPDEST PUSH1 0x40 MLOAD PUSH2 0x235 SWAP2 SWAP1 PUSH2 0xB83 JUMP JUMPDEST PUSH1 0x40 MLOAD DUP1 SWAP2 SUB SWAP1 RETURN JUMPDEST CALLVALUE DUP1 ISZERO PUSH2 0x24A JUMPI PUSH1 0x0 DUP1 REVERT JUMPDEST POP PUSH2 0x265 PUSH1 0x4 DUP1 CALLDATASIZE SUB DUP2 ADD SWAP1 PUSH2 0x260 SWAP2 SWAP1 PUSH2 0xB9E JUMP JUMPDEST PUSH2 0x537 JUMP JUMPDEST PUSH1 0x40 MLOAD PUSH2 0x272 SWAP2 SWAP1 PUSH2 0xB83 JUMP JUMPDEST PUSH1 0x40 MLOAD DUP1 SWAP2 SUB SWAP1 RETURN JUMPDEST CALLVALUE DUP1 ISZERO PUSH2 0x287 JUMPI PUSH1 0x0 DUP1 REVERT JUMPDEST POP PUSH2 0x290 PUSH2 0x54F JUMP JUMPDEST PUSH1 0x40 MLOAD PUSH2 0x29D SWAP2 SWAP1 PUSH2 0xE0F JUMP JUMPDEST PUSH1 0x40 MLOAD DUP1 SWAP2 SUB SWAP1 RETURN JUMPDEST CALLVALUE DUP1 ISZERO PUSH2 0x2B2 JUMPI PUSH1 0x0 DUP1 REVERT JUMPDEST POP PUSH2 0x2CD PUSH1 0x4 DUP1 CALLDATASIZE SUB DUP2 ADD SWAP1 PUSH2 0x2C8 SWAP2 SWAP1 PUSH2 0xE31 JUMP JUMPDEST PUSH2 0x5A7 JUMP JUMPDEST STOP JUMPDEST CALLVALUE DUP1 ISZERO PUSH2 0x2DB JUMPI PUSH1 0x0 DUP1 REVERT JUMPDEST POP PUSH2 0x2E4 PUSH2 0x67A JUMP JUMPDEST PUSH1 0x40 MLOAD PUSH2 0x2F1 SWAP2 SWAP1 PUSH2 0xE80 JUMP JUMPDEST PUSH1 0x40 MLOAD DUP1 SWAP2 SUB SWAP1 RETURN JUMPDEST CALLVALUE DUP1 ISZERO PUSH2 0x306 JUMPI PUSH1 0x0 DUP1 REVERT JUMPDEST POP PUSH2 0x321 PUSH1 0x4 DUP1 CALLDATASIZE SUB DUP2 ADD SWAP1 PUSH2 0x31C SWAP2 SWAP1 PUSH2 0xE9B JUMP JUMPDEST PUSH2 0x69E JUMP JUMPDEST PUSH1 0x40 MLOAD PUSH2 0x32E SWAP2 SWAP1 PUSH2 0xE0F JUMP JUMPDEST PUSH1 0x40 MLOAD DUP1 SWAP2 SUB SWAP1 RETURN JUMPDEST CALLVALUE DUP1 ISZERO PUSH2 0x343 JUMPI PUSH1 0x0 DUP1 REVERT JUMPDEST POP PUSH2 0x35E PUSH1 0x4 DUP1 CALLDATASIZE SUB DUP2 ADD SWAP1 PUSH2 0x359 SWAP2 SWAP1 PUSH2 0xE31 JUMP JUMPDEST PUSH2 0x735 JUMP JUMPDEST STOP JUMPDEST PUSH2 0x37A PUSH1 0x4 DUP1 CALLDATASIZE SUB DUP2 ADD SWAP1 PUSH2 0x375 SWAP2 SWAP1 PUSH2 0xB9E JUMP JUMPDEST PUSH2 0x7E2 JUMP JUMPDEST STOP JUMPDEST CALLVALUE DUP1 ISZERO PUSH2 0x388 JUMPI PUSH1 0x0 DUP1 REVERT JUMPDEST POP PUSH2 0x3A3 PUSH1 0x4 DUP1 CALLDATASIZE SUB DUP2 ADD SWAP1 PUSH2 0x39E SWAP2 SWAP1 PUSH2 0xB9E JUMP JUMPDEST PUSH2 0xA14 JUMP JUMPDEST PUSH1 0x40 MLOAD PUSH2 0x3B7 SWAP9 SWAP8 SWAP7 SWAP6 SWAP5 SWAP4 SWAP3 SWAP2 SWAP1 PUSH2 0xED7 JUMP JUMPDEST PUSH1 0x40 MLOAD DUP1 SWAP2 SUB SWAP1 RETURN JUMPDEST PUSH1 0x0 PUSH2 0x2710 DUP3 DUP6 PUSH2 0x3D1 SWAP2 SWAP1 PUSH2 0xF84 JUMP JUMPDEST PUSH2 0x3DB SWAP2 SWAP1 PUSH2 0xFF5 JUMP JUMPDEST SWAP1 POP SWAP4 SWAP3 POP POP POP JUMP JUMPDEST PUSH1 0x0 PUSH1 0xC PUSH1 0x0 DUP4 DUP2 MSTORE PUSH1 0x20 ADD SWAP1 DUP2 MSTORE PUSH1 0x20 ADD PUSH1 0x0 KECCAK256 SLOAD SWAP1 POP SWAP2 SWAP1 POP JUMP JUMPDEST PUSH2 0x409 PUSH2 0xA89 JUMP JUMPDEST PUSH1 0xA PUSH1 0x0 DUP4 DUP2 MSTORE PUSH1 0x20 ADD SWAP1 DUP2 MSTORE PUSH1 0x20 ADD PUSH1 0x0 KECCAK256 PUSH1 0x40 MLOAD DUP1 PUSH2 0x100 ADD PUSH1 0x40 MSTORE SWAP1 DUP2 PUSH1 0x0 DUP3 ADD SLOAD DUP2 MSTORE PUSH1 0x20 ADD PUSH1 0x1 DUP3 ADD PUSH1 0x0 SWAP1 SLOAD SWAP1 PUSH2 0x100 EXP SWAP1 DIV PUSH20 0xFFFFFFFFFFFFFFFFFFFFFFFFFFFFFFFFFFFFFFFF AND PUSH20 0xFFFFFFFFFFFFFFFFFFFFFFFFFFFFFFFFFFFFFFFF AND PUSH20 0xFFFFFFFFFFFFFFFFFFFFFFFFFFFFFFFFFFFFFFFF AND DUP2 MSTORE PUSH1 0x20 ADD PUSH1 0x2 DUP3 ADD SLOAD DUP2 MSTORE PUSH1 0x20 ADD PUSH1 0x3 DUP3 ADD SLOAD DUP2 MSTORE PUSH1 0x20 ADD PUSH1 0x4 DUP3 ADD SLOAD DUP2 MSTORE PUSH1 0x20 ADD PUSH1 0x5 DUP3 ADD SLOAD DUP2 MSTORE PUSH1 0x20 ADD PUSH1 0x6 DUP3 ADD SLOAD DUP2 MSTORE PUSH1 0x20 ADD PUSH1 0x7 DUP3 ADD PUSH1 0x0 SWAP1 SLOAD SWAP1 PUSH2 0x100 EXP SWAP1 DIV PUSH1 0xFF AND ISZERO ISZERO ISZERO ISZERO DUP2 MSTORE POP POP SWAP1 POP SWAP2 SWAP1 POP JUMP JUMPDEST PUSH1 0xD DUP2 DUP2 SLOAD DUP2 LT PUSH2 0x4EC JUMPI PUSH1 0x0 DUP1 REVERT JUMPDEST SWAP1 PUSH1 0x0 MSTORE PUSH1 0x20 PUSH1 0x0 KECCAK256 ADD PUSH1 0x0 SWAP2 POP SWAP1 POP SLOAD DUP2 JUMP JUMPDEST PUSH1 0x9 SLOAD DUP2 JUMP JUMPDEST PUSH1 0xB PUSH1 0x20 MSTORE DUP2 PUSH1 0x0 MSTORE PUSH1 0x40 PUSH1 0x0 KECCAK256 DUP2 DUP2 SLOAD DUP2 LT PUSH2 0x522 JUMPI PUSH1 0x0 DUP1 REVERT JUMPDEST SWAP1 PUSH1 0x0 MSTORE PUSH1 0x20 PUSH1 0x0 KECCAK256 ADD PUSH1 0x0 SWAP2 POP SWAP2 POP POP SLOAD DUP2 JUMP JUMPDEST PUSH1 0xC PUSH1 0x20 MSTORE DUP1 PUSH1 0x0 MSTORE PUSH1 0x40 PUSH1 0x0 KECCAK256 PUSH1 0x0 SWAP2 POP SWAP1 POP SLOAD DUP2 JUMP JUMPDEST PUSH1 0x60 PUSH1 0xD DUP1 SLOAD DUP1 PUSH1 0x20 MUL PUSH1 0x20 ADD PUSH1 0x40 MLOAD SWAP1 DUP2 ADD PUSH1 0x40 MSTORE DUP1 SWAP3 SWAP2 SWAP1 DUP2 DUP2 MSTORE PUSH1 0x20 ADD DUP3 DUP1 SLOAD DUP1 ISZERO PUSH2 0x59D JUMPI PUSH1 0x20 MUL DUP3 ADD SWAP2 SWAP1 PUSH1 0x0 MSTORE PUSH1 0x20 PUSH1 0x0 KECCAK256 SWAP1 JUMPDEST DUP2 SLOAD DUP2 MSTORE PUSH1 0x20 ADD SWAP1 PUSH1 0x1 ADD SWAP1 DUP1 DUP4 GT PUSH2 0x589 JUMPI JUMPDEST POP POP POP POP POP SWAP1 POP SWAP1 JUMP JUMPDEST CALLER PUSH20 0xFFFFFFFFFFFFFFFFFFFFFFFFFFFFFFFFFFFFFFFF AND PUSH1 0x0 DUP1 SLOAD SWAP1 PUSH2 0x100 EXP SWAP1 DIV PUSH20 0xFFFFFFFFFFFFFFFFFFFFFFFFFFFFFFFFFFFFFFFF AND PUSH20 0xFFFFFFFFFFFFFFFFFFFFFFFFFFFFFFFFFFFFFFFF AND EQ PUSH2 0x635 JUMPI PUSH1 0x40 MLOAD PUSH32 0x8C379A000000000000000000000000000000000000000000000000000000000 DUP2 MSTORE PUSH1 0x4 ADD PUSH2 0x62C SWAP1 PUSH2 0x1083 JUMP JUMPDEST PUSH1 0x40 MLOAD DUP1 SWAP2 SUB SWAP1 REVERT JUMPDEST DUP1 PUSH1 0xC PUSH1 0x0 DUP5 DUP2 MSTORE PUSH1 0x20 ADD SWAP1 DUP2 MSTORE PUSH1 0x20 ADD PUSH1 0x0 KECCAK256 DUP2 SWAP1 SSTORE POP PUSH1 0xD DUP3 SWAP1 DUP1 PUSH1 0x1 DUP2 SLOAD ADD DUP1 DUP3 SSTORE DUP1 SWAP2 POP POP PUSH1 0x1 SWAP1 SUB SWAP1 PUSH1 0x0 MSTORE PUSH1 0x20 PUSH1 0x0 KECCAK256 ADD PUSH1 0x0 SWAP1 SWAP2 SWAP1 SWAP2 SWAP1 SWAP2 POP SSTORE POP POP JUMP JUMPDEST PUSH1 0x0 DUP1 SLOAD SWAP1 PUSH2 0x100 EXP SWAP1 DIV PUSH20 0xFFFFFFFFFFFFFFFFFFFFFFFFFFFFFFFFFFFFFFFF AND DUP2 JUMP JUMPDEST PUSH1 0x60 PUSH1 0xB PUSH1 0x0 DUP4 PUSH20 0xFFFFFFFFFFFFFFFFFFFFFFFFFFFFFFFFFFFFFFFF AND PUSH20 0xFFFFFFFFFFFFFFFFFFFFFFFFFFFFFFFFFFFFFFFF AND DUP2 MSTORE PUSH1 0x20 ADD SWAP1 DUP2 MSTORE PUSH1 0x20 ADD PUSH1 0x0 KECCAK256 DUP1 SLOAD DUP1 PUSH1 0x20 MUL PUSH1 0x20 ADD PUSH1 0x40 MLOAD SWAP1 DUP2 ADD PUSH1 0x40 MSTORE DUP1 SWAP3 SWAP2 SWAP1 DUP2 DUP2 MSTORE PUSH1 0x20 ADD DUP3 DUP1 SLOAD DUP1 ISZERO PUSH2 0x729 JUMPI PUSH1 0x20 MUL DUP3 ADD SWAP2 SWAP1 PUSH1 0x0 MSTORE PUSH1 0x20 PUSH1 0x0 KECCAK256 SWAP1 JUMPDEST DUP2 SLOAD DUP2 MSTORE PUSH1 0x20 ADD SWAP1 PUSH1 0x1 ADD SWAP1 DUP1 DUP4 GT PUSH2 0x715 JUMPI JUMPDEST POP POP POP POP POP SWAP1 POP SWAP2 SWAP1 POP JUMP JUMPDEST CALLER PUSH20 0xFFFFFFFFFFFFFFFFFFFFFFFFFFFFFFFFFFFFFFFF AND PUSH1 0x0 DUP1 SLOAD SWAP1 PUSH2 0x100 EXP SWAP1 DIV PUSH20 0xFFFFFFFFFFFFFFFFFFFFFFFFFFFFFFFFFFFFFFFF AND PUSH20 0xFFFFFFFFFFFFFFFFFFFFFFFFFFFFFFFFFFFFFFFF AND EQ PUSH2 0x7C3 JUMPI PUSH1 0x40 MLOAD PUSH32 0x8C379A000000000000000000000000000000000000000000000000000000000 DUP2 MSTORE PUSH1 0x4 ADD PUSH2 0x7BA SWAP1 PUSH2 0x1083 JUMP JUMPDEST PUSH1 0x40 MLOAD DUP1 SWAP2 SUB SWAP1 REVERT JUMPDEST DUP1 PUSH1 0xA PUSH1 0x0 DUP5 DUP2 MSTORE PUSH1 0x20 ADD SWAP1 DUP2 MSTORE PUSH1 0x20 ADD PUSH1 0x0 KECCAK256 PUSH1 0x3 ADD DUP2 SWAP1 SSTORE POP POP POP JUMP JUMPDEST PUSH1 0x0 PUSH1 0xC PUSH1 0x0 DUP4 DUP2 MSTORE PUSH1 0x20 ADD SWAP1 DUP2 MSTORE PUSH1 0x20 ADD PUSH1 0x0 KECCAK256 SLOAD GT PUSH2 0x838 JUMPI PUSH1 0x40 MLOAD PUSH32 0x8C379A000000000000000000000000000000000000000000000000000000000 DUP2 MSTORE PUSH1 0x4 ADD PUSH2 0x82F SWAP1 PUSH2 0x1115 JUMP JUMPDEST PUSH1 0x40 MLOAD DUP1 SWAP2 SUB SWAP1 REVERT JUMPDEST PUSH1 0x40 MLOAD DUP1 PUSH2 0x100 ADD PUSH1 0x40 MSTORE DUP1 PUSH1 0x9 SLOAD DUP2 MSTORE PUSH1 0x20 ADD CALLER PUSH20 0xFFFFFFFFFFFFFFFFFFFFFFFFFFFFFFFFFFFFFFFF AND DUP2 MSTORE PUSH1 0x20 ADD TIMESTAMP DUP2 MSTORE PUSH1 0x20 ADD PUSH3 0x15180 DUP4 PUSH2 0x87D SWAP2 SWAP1 PUSH2 0xF84 JUMP JUMPDEST TIMESTAMP PUSH2 0x888 SWAP2 SWAP1 PUSH2 0x1135 JUMP JUMPDEST DUP2 MSTORE PUSH1 0x20 ADD PUSH1 0xC PUSH1 0x0 DUP5 DUP2 MSTORE PUSH1 0x20 ADD SWAP1 DUP2 MSTORE PUSH1 0x20 ADD PUSH1 0x0 KECCAK256 SLOAD DUP2 MSTORE PUSH1 0x20 ADD CALLVALUE DUP2 MSTORE PUSH1 0x20 ADD PUSH2 0x8CA PUSH1 0xC PUSH1 0x0 DUP6 DUP2 MSTORE PUSH1 0x20 ADD SWAP1 DUP2 MSTORE PUSH1 0x20 ADD PUSH1 0x0 KECCAK256 SLOAD DUP5 CALLVALUE PUSH2 0x3C0 JUMP JUMPDEST DUP2 MSTORE PUSH1 0x20 ADD PUSH1 0x1 ISZERO ISZERO DUP2 MSTORE POP PUSH1 0xA PUSH1 0x0 PUSH1 0x9 SLOAD DUP2 MSTORE PUSH1 0x20 ADD SWAP1 DUP2 MSTORE PUSH1 0x20 ADD PUSH1 0x0 KECCAK256 PUSH1 0x0 DUP3 ADD MLOAD DUP2 PUSH1 0x0 ADD SSTORE PUSH1 0x20 DUP3 ADD MLOAD DUP2 PUSH1 0x1 ADD PUSH1 0x0 PUSH2 0x100 EXP DUP2 SLOAD DUP2 PUSH20 0xFFFFFFFFFFFFFFFFFFFFFFFFFFFFFFFFFFFFFFFF MUL NOT AND SWAP1 DUP4 PUSH20 0xFFFFFFFFFFFFFFFFFFFFFFFFFFFFFFFFFFFFFFFF AND MUL OR SWAP1 SSTORE POP PUSH1 0x40 DUP3 ADD MLOAD DUP2 PUSH1 0x2 ADD SSTORE PUSH1 0x60 DUP3 ADD MLOAD DUP2 PUSH1 0x3 ADD SSTORE PUSH1 0x80 DUP3 ADD MLOAD DUP2 PUSH1 0x4 ADD SSTORE PUSH1 0xA0 DUP3 ADD MLOAD DUP2 PUSH1 0x5 ADD SSTORE PUSH1 0xC0 DUP3 ADD MLOAD DUP2 PUSH1 0x6 ADD SSTORE PUSH1 0xE0 DUP3 ADD MLOAD DUP2 PUSH1 0x7 ADD PUSH1 0x0 PUSH2 0x100 EXP DUP2 SLOAD DUP2 PUSH1 0xFF MUL NOT AND SWAP1 DUP4 ISZERO ISZERO MUL OR SWAP1 SSTORE POP SWAP1 POP POP PUSH1 0xB PUSH1 0x0 CALLER PUSH20 0xFFFFFFFFFFFFFFFFFFFFFFFFFFFFFFFFFFFFFFFF AND PUSH20 0xFFFFFFFFFFFFFFFFFFFFFFFFFFFFFFFFFFFFFFFF AND DUP2 MSTORE PUSH1 0x20 ADD SWAP1 DUP2 MSTORE PUSH1 0x20 ADD PUSH1 0x0 KECCAK256 PUSH1 0x9 SLOAD SWAP1 DUP1 PUSH1 0x1 DUP2 SLOAD ADD DUP1 DUP3 SSTORE DUP1 SWAP2 POP POP PUSH1 0x1 SWAP1 SUB SWAP1 PUSH1 0x0 MSTORE PUSH1 0x20 PUSH1 0x0 KECCAK256 ADD PUSH1 0x0 SWAP1 SWAP2 SWAP1 SWAP2 SWAP1 SWAP2 POP SSTORE PUSH1 0x9 PUSH1 0x0 DUP2 SLOAD DUP1 SWAP3 SWAP2 SWAP1 PUSH2 0xA0C SWAP1 PUSH2 0x1169 JUMP JUMPDEST SWAP2 SWAP1 POP SSTORE POP POP JUMP JUMPDEST PUSH1 0xA PUSH1 0x20 MSTORE DUP1 PUSH1 0x0 MSTORE PUSH1 0x40 PUSH1 0x0 KECCAK256 PUSH1 0x0 SWAP2 POP SWAP1 POP DUP1 PUSH1 0x0 ADD SLOAD SWAP1 DUP1 PUSH1 0x1 ADD PUSH1 0x0 SWAP1 SLOAD SWAP1 PUSH2 0x100 EXP SWAP1 DIV PUSH20 0xFFFFFFFFFFFFFFFFFFFFFFFFFFFFFFFFFFFFFFFF AND SWAP1 DUP1 PUSH1 0x2 ADD SLOAD SWAP1 DUP1 PUSH1 0x3 ADD SLOAD SWAP1 DUP1 PUSH1 0x4 ADD SLOAD SWAP1 DUP1 PUSH1 0x5 ADD SLOAD SWAP1 DUP1 PUSH1 0x6 ADD SLOAD SWAP1 DUP1 PUSH1 0x7 ADD PUSH1 0x0 SWAP1 SLOAD SWAP1 PUSH2 0x100 EXP SWAP1 DIV PUSH1 0xFF AND SWAP1 POP DUP9 JUMP JUMPDEST PUSH1 0x40 MLOAD DUP1 PUSH2 0x100 ADD PUSH1 0x40 MSTORE DUP1 PUSH1 0x0 DUP2 MSTORE PUSH1 0x20 ADD PUSH1 0x0 PUSH20 0xFFFFFFFFFFFFFFFFFFFFFFFFFFFFFFFFFFFFFFFF AND DUP2 MSTORE PUSH1 0x20 ADD PUSH1 0x0 DUP2 MSTORE PUSH1 0x20 ADD PUSH1 0x0 DUP2 MSTORE PUSH1 0x20 ADD PUSH1 0x0 DUP2 MSTORE PUSH1 0x20 ADD PUSH1 0x0 DUP2 MSTORE PUSH1 0x20 ADD PUSH1 0x0 DUP2 MSTORE PUSH1 0x20 ADD PUSH1 0x0 ISZERO ISZERO DUP2 MSTORE POP SWAP1 JUMP JUMPDEST PUSH1 0x0 DUP1 REVERT JUMPDEST PUSH1 0x0 DUP2 SWAP1 POP SWAP2 SWAP1 POP JUMP JUMPDEST PUSH2 0xAFE DUP2 PUSH2 0xAEB JUMP JUMPDEST DUP2 EQ PUSH2 0xB09 JUMPI PUSH1 0x0 DUP1 REVERT JUMPDEST POP JUMP JUMPDEST PUSH1 0x0 DUP2 CALLDATALOAD SWAP1 POP PUSH2 0xB1B DUP2 PUSH2 0xAF5 JUMP JUMPDEST SWAP3 SWAP2 POP POP JUMP JUMPDEST PUSH1 0x0 DUP1 PUSH1 0x0 PUSH1 0x60 DUP5 DUP7 SUB SLT ISZERO PUSH2 0xB3A JUMPI PUSH2 0xB39 PUSH2 0xAE6 JUMP JUMPDEST JUMPDEST PUSH1 0x0 PUSH2 0xB48 DUP7 DUP3 DUP8 ADD PUSH2 0xB0C JUMP JUMPDEST SWAP4 POP POP PUSH1 0x20 PUSH2 0xB59 DUP7 DUP3 DUP8 ADD PUSH2 0xB0C JUMP JUMPDEST SWAP3 POP POP PUSH1 0x40 PUSH2 0xB6A DUP7 DUP3 DUP8 ADD PUSH2 0xB0C JUMP JUMPDEST SWAP2 POP POP SWAP3 POP SWAP3 POP SWAP3 JUMP JUMPDEST PUSH2 0xB7D DUP2 PUSH2 0xAEB JUMP JUMPDEST DUP3 MSTORE POP POP JUMP JUMPDEST PUSH1 0x0 PUSH1 0x20 DUP3 ADD SWAP1 POP PUSH2 0xB98 PUSH1 0x0 DUP4 ADD DUP5 PUSH2 0xB74 JUMP JUMPDEST SWAP3 SWAP2 POP POP JUMP JUMPDEST PUSH1 0x0 PUSH1 0x20 DUP3 DUP5 SUB SLT ISZERO PUSH2 0xBB4 JUMPI PUSH2 0xBB3 PUSH2 0xAE6 JUMP JUMPDEST JUMPDEST PUSH1 0x0 PUSH2 0xBC2 DUP5 DUP3 DUP6 ADD PUSH2 0xB0C JUMP JUMPDEST SWAP2 POP POP SWAP3 SWAP2 POP POP JUMP JUMPDEST PUSH2 0xBD4 DUP2 PUSH2 0xAEB JUMP JUMPDEST DUP3 MSTORE POP POP JUMP JUMPDEST PUSH1 0x0 PUSH20 0xFFFFFFFFFFFFFFFFFFFFFFFFFFFFFFFFFFFFFFFF DUP3 AND SWAP1 POP SWAP2 SWAP1 POP JUMP JUMPDEST PUSH1 0x0 PUSH2 0xC05 DUP3 PUSH2 0xBDA JUMP JUMPDEST SWAP1 POP SWAP2 SWAP1 POP JUMP JUMPDEST PUSH2 0xC15 DUP2 PUSH2 0xBFA JUMP JUMPDEST DUP3 MSTORE POP POP JUMP JUMPDEST PUSH1 0x0 DUP2 ISZERO ISZERO SWAP1 POP SWAP2 SWAP1 POP JUMP JUMPDEST PUSH2 0xC30 DUP2 PUSH2 0xC1B JUMP JUMPDEST DUP3 MSTORE POP POP JUMP JUMPDEST PUSH2 0x100 DUP3 ADD PUSH1 0x0 DUP3 ADD MLOAD PUSH2 0xC4D PUSH1 0x0 DUP6 ADD DUP3 PUSH2 0xBCB JUMP JUMPDEST POP PUSH1 0x20 DUP3 ADD MLOAD PUSH2 0xC60 PUSH1 0x20 DUP6 ADD DUP3 PUSH2 0xC0C JUMP JUMPDEST POP PUSH1 0x40 DUP3 ADD MLOAD PUSH2 0xC73 PUSH1 0x40 DUP6 ADD DUP3 PUSH2 0xBCB JUMP JUMPDEST POP PUSH1 0x60 DUP3 ADD MLOAD PUSH2 0xC86 PUSH1 0x60 DUP6 ADD DUP3 PUSH2 0xBCB JUMP JUMPDEST POP PUSH1 0x80 DUP3 ADD MLOAD PUSH2 0xC99 PUSH1 0x80 DUP6 ADD DUP3 PUSH2 0xBCB JUMP JUMPDEST POP PUSH1 0xA0 DUP3 ADD MLOAD PUSH2 0xCAC PUSH1 0xA0 DUP6 ADD DUP3 PUSH2 0xBCB JUMP JUMPDEST POP PUSH1 0xC0 DUP3 ADD MLOAD PUSH2 0xCBF PUSH1 0xC0 DUP6 ADD DUP3 PUSH2 0xBCB JUMP JUMPDEST POP PUSH1 0xE0 DUP3 ADD MLOAD PUSH2 0xCD2 PUSH1 0xE0 DUP6 ADD DUP3 PUSH2 0xC27 JUMP JUMPDEST POP POP POP POP JUMP JUMPDEST PUSH1 0x0 PUSH2 0x100 DUP3 ADD SWAP1 POP PUSH2 0xCEE PUSH1 0x0 DUP4 ADD DUP5 PUSH2 0xC36 JUMP JUMPDEST SWAP3 SWAP2 POP POP JUMP JUMPDEST PUSH2 0xCFD DUP2 PUSH2 0xBFA JUMP JUMPDEST DUP2 EQ PUSH2 0xD08 JUMPI PUSH1 0x0 DUP1 REVERT JUMPDEST POP JUMP JUMPDEST PUSH1 0x0 DUP2 CALLDATALOAD SWAP1 POP PUSH2 0xD1A DUP2 PUSH2 0xCF4 JUMP JUMPDEST SWAP3 SWAP2 POP POP JUMP JUMPDEST PUSH1 0x0 DUP1 PUSH1 0x40 DUP4 DUP6 SUB SLT ISZERO PUSH2 0xD37 JUMPI PUSH2 0xD36 PUSH2 0xAE6 JUMP JUMPDEST JUMPDEST PUSH1 0x0 PUSH2 0xD45 DUP6 DUP3 DUP7 ADD PUSH2 0xD0B JUMP JUMPDEST SWAP3 POP POP PUSH1 0x20 PUSH2 0xD56 DUP6 DUP3 DUP7 ADD PUSH2 0xB0C JUMP JUMPDEST SWAP2 POP POP SWAP3 POP SWAP3 SWAP1 POP JUMP JUMPDEST PUSH1 0x0 DUP2 MLOAD SWAP1 POP SWAP2 SWAP1 POP JUMP JUMPDEST PUSH1 0x0 DUP3 DUP3 MSTORE PUSH1 0x20 DUP3 ADD SWAP1 POP SWAP3 SWAP2 POP POP JUMP JUMPDEST PUSH1 0x0 DUP2 SWAP1 POP PUSH1 0x20 DUP3 ADD SWAP1 POP SWAP2 SWAP1 POP JUMP JUMPDEST PUSH1 0x0 PUSH2 0xD98 DUP4 DUP4 PUSH2 0xBCB JUMP JUMPDEST PUSH1 0x20 DUP4 ADD SWAP1 POP SWAP3 SWAP2 POP POP JUMP JUMPDEST PUSH1 0x0 PUSH1 0x20 DUP3 ADD SWAP1 POP SWAP2 SWAP1 POP JUMP JUMPDEST PUSH1 0x0 PUSH2 0xDBC DUP3 PUSH2 0xD60 JUMP JUMPDEST PUSH2 0xDC6 DUP2 DUP6 PUSH2 0xD6B JUMP JUMPDEST SWAP4 POP PUSH2 0xDD1 DUP4 PUSH2 0xD7C JUMP JUMPDEST DUP1 PUSH1 0x0 JUMPDEST DUP4 DUP2 LT ISZERO PUSH2 0xE02 JUMPI DUP2 MLOAD PUSH2 0xDE9 DUP9 DUP3 PUSH2 0xD8C JUMP JUMPDEST SWAP8 POP PUSH2 0xDF4 DUP4 PUSH2 0xDA4 JUMP JUMPDEST SWAP3 POP POP PUSH1 0x1 DUP2 ADD SWAP1 POP PUSH2 0xDD5 JUMP JUMPDEST POP DUP6 SWAP4 POP POP POP POP SWAP3 SWAP2 POP POP JUMP JUMPDEST PUSH1 0x0 PUSH1 0x20 DUP3 ADD SWAP1 POP DUP2 DUP2 SUB PUSH1 0x0 DUP4 ADD MSTORE PUSH2 0xE29 DUP2 DUP5 PUSH2 0xDB1 JUMP JUMPDEST SWAP1 POP SWAP3 SWAP2 POP POP JUMP JUMPDEST PUSH1 0x0 DUP1 PUSH1 0x40 DUP4 DUP6 SUB SLT ISZERO PUSH2 0xE48 JUMPI PUSH2 0xE47 PUSH2 0xAE6 JUMP JUMPDEST JUMPDEST PUSH1 0x0 PUSH2 0xE56 DUP6 DUP3 DUP7 ADD PUSH2 0xB0C JUMP JUMPDEST SWAP3 POP POP PUSH1 0x20 PUSH2 0xE67 DUP6 DUP3 DUP7 ADD PUSH2 0xB0C JUMP JUMPDEST SWAP2 POP POP SWAP3 POP SWAP3 SWAP1 POP JUMP JUMPDEST PUSH2 0xE7A DUP2 PUSH2 0xBFA JUMP JUMPDEST DUP3 MSTORE POP POP JUMP JUMPDEST PUSH1 0x0 PUSH1 0x20 DUP3 ADD SWAP1 POP PUSH2 0xE95 PUSH1 0x0 DUP4 ADD DUP5 PUSH2 0xE71 JUMP JUMPDEST SWAP3 SWAP2 POP POP JUMP JUMPDEST PUSH1 0x0 PUSH1 0x20 DUP3 DUP5 SUB SLT ISZERO PUSH2 0xEB1 JUMPI PUSH2 0xEB0 PUSH2 0xAE6 JUMP JUMPDEST JUMPDEST PUSH1 0x0 PUSH2 0xEBF DUP5 DUP3 DUP6 ADD PUSH2 0xD0B JUMP JUMPDEST SWAP2 POP POP SWAP3 SWAP2 POP POP JUMP JUMPDEST PUSH2 0xED1 DUP2 PUSH2 0xC1B JUMP JUMPDEST DUP3 MSTORE POP POP JUMP JUMPDEST PUSH1 0x0 PUSH2 0x100 DUP3 ADD SWAP1 POP PUSH2 0xEED PUSH1 0x0 DUP4 ADD DUP12 PUSH2 0xB74 JUMP JUMPDEST PUSH2 0xEFA PUSH1 0x20 DUP4 ADD DUP11 PUSH2 0xE71 JUMP JUMPDEST PUSH2 0xF07 PUSH1 0x40 DUP4 ADD DUP10 PUSH2 0xB74 JUMP JUMPDEST PUSH2 0xF14 PUSH1 0x60 DUP4 ADD DUP9 PUSH2 0xB74 JUMP JUMPDEST PUSH2 0xF21 PUSH1 0x80 DUP4 ADD DUP8 PUSH2 0xB74 JUMP JUMPDEST PUSH2 0xF2E PUSH1 0xA0 DUP4 ADD DUP7 PUSH2 0xB74 JUMP JUMPDEST PUSH2 0xF3B PUSH1 0xC0 DUP4 ADD DUP6 PUSH2 0xB74 JUMP JUMPDEST PUSH2 0xF48 PUSH1 0xE0 DUP4 ADD DUP5 PUSH2 0xEC8 JUMP JUMPDEST SWAP10 SWAP9 POP POP POP POP POP POP POP POP POP JUMP JUMPDEST PUSH32 0x4E487B7100000000000000000000000000000000000000000000000000000000 PUSH1 0x0 MSTORE PUSH1 0x11 PUSH1 0x4 MSTORE PUSH1 0x24 PUSH1 0x0 REVERT JUMPDEST PUSH1 0x0 PUSH2 0xF8F DUP3 PUSH2 0xAEB JUMP JUMPDEST SWAP2 POP PUSH2 0xF9A DUP4 PUSH2 0xAEB JUMP JUMPDEST SWAP3 POP DUP3 DUP3 MUL PUSH2 0xFA8 DUP2 PUSH2 0xAEB JUMP JUMPDEST SWAP2 POP DUP3 DUP3 DIV DUP5 EQ DUP4 ISZERO OR PUSH2 0xFBF JUMPI PUSH2 0xFBE PUSH2 0xF55 JUMP JUMPDEST JUMPDEST POP SWAP3 SWAP2 POP POP JUMP JUMPDEST PUSH32 0x4E487B7100000000000000000000000000000000000000000000000000000000 PUSH1 0x0 MSTORE PUSH1 0x12 PUSH1 0x4 MSTORE PUSH1 0x24 PUSH1 0x0 REVERT JUMPDEST PUSH1 0x0 PUSH2 0x1000 DUP3 PUSH2 0xAEB JUMP JUMPDEST SWAP2 POP PUSH2 0x100B DUP4 PUSH2 0xAEB JUMP JUMPDEST SWAP3 POP DUP3 PUSH2 0x101B JUMPI PUSH2 0x101A PUSH2 0xFC6 JUMP JUMPDEST JUMPDEST DUP3 DUP3 DIV SWAP1 POP SWAP3 SWAP2 POP POP JUMP JUMPDEST PUSH1 0x0 DUP3 DUP3 MSTORE PUSH1 0x20 DUP3 ADD SWAP1 POP SWAP3 SWAP2 POP POP JUMP JUMPDEST PUSH32 0x4F6E6C79206F776E65722063616E206368616E67652069740000000000000000 PUSH1 0x0 DUP3 ADD MSTORE POP JUMP JUMPDEST PUSH1 0x0 PUSH2 0x106D PUSH1 0x18 DUP4 PUSH2 0x1026 JUMP JUMPDEST SWAP2 POP PUSH2 0x1078 DUP3 PUSH2 0x1037 JUMP JUMPDEST PUSH1 0x20 DUP3 ADD SWAP1 POP SWAP2 SWAP1 POP JUMP JUMPDEST PUSH1 0x0 PUSH1 0x20 DUP3 ADD SWAP1 POP DUP2 DUP2 SUB PUSH1 0x0 DUP4 ADD MSTORE PUSH2 0x109C DUP2 PUSH2 0x1060 JUMP JUMPDEST SWAP1 POP SWAP2 SWAP1 POP JUMP JUMPDEST PUSH32 0x596F75206E65656420746F207374616B6520666F722061206C6F6E6765722070 PUSH1 0x0 DUP3 ADD MSTORE PUSH32 0x6572696F64206F662074696D6500000000000000000000000000000000000000 PUSH1 0x20 DUP3 ADD MSTORE POP JUMP JUMPDEST PUSH1 0x0 PUSH2 0x10FF PUSH1 0x2D DUP4 PUSH2 0x1026 JUMP JUMPDEST SWAP2 POP PUSH2 0x110A DUP3 PUSH2 0x10A3 JUMP JUMPDEST PUSH1 0x40 DUP3 ADD SWAP1 POP SWAP2 SWAP1 POP JUMP JUMPDEST PUSH1 0x0 PUSH1 0x20 DUP3 ADD SWAP1 POP DUP2 DUP2 SUB PUSH1 0x0 DUP4 ADD MSTORE PUSH2 0x112E DUP2 PUSH2 0x10F2 JUMP JUMPDEST SWAP1 POP SWAP2 SWAP1 POP JUMP JUMPDEST PUSH1 0x0 PUSH2 0x1140 DUP3 PUSH2 0xAEB JUMP JUMPDEST SWAP2 POP PUSH2 0x114B DUP4 PUSH2 0xAEB JUMP JUMPDEST SWAP3 POP DUP3 DUP3 ADD SWAP1 POP DUP1 DUP3 GT ISZERO PUSH2 0x1163 JUMPI PUSH2 0x1162 PUSH2 0xF55 JUMP JUMPDEST JUMPDEST SWAP3 SWAP2 POP POP JUMP JUMPDEST PUSH1 0x0 PUSH2 0x1174 DUP3 PUSH2 0xAEB JUMP JUMPDEST SWAP2 POP PUSH32 0xFFFFFFFFFFFFFFFFFFFFFFFFFFFFFFFFFFFFFFFFFFFFFFFFFFFFFFFFFFFFFFFF DUP3 SUB PUSH2 0x11A6 JUMPI PUSH2 0x11A5 PUSH2 0xF55 JUMP JUMPDEST JUMPDEST PUSH1 0x1 DUP3 ADD SWAP1 POP SWAP2 SWAP1 POP JUMP INVALID LOG2 PUSH5 0x6970667358 0x22 SLT KECCAK256 SLT PUSH14 0xF1246C17EBAA51FB3E31FA571290 DUP4 STATICCALL 0xFC EXP 0xE3 0xEF 0xD1 RETURN 0xDF DUP8 EXTCODEHASH 0xD3 XOR REVERT MUL 0xB6 PUSH5 0x736F6C6343 STOP ADDMOD SGT STOP CALLER "
				},
				"gasEstimates": {
					"creation": {
						"codeDepositCost": "916600",
						"executionCost": "236056",
						"totalCost": "1152656"
					},
					"external": {
						"admin()": "2578",
						"calculateInterest(uint256,uint256,uint256)": "infinite",
						"changeUnlockPeriod(uint256,uint256)": "infinite",
						"getInterestRate(uint256)": "infinite",
						"getLockperiods()": "infinite",
						"getStakerIdsByAddresses(address)": "infinite",
						"getStakersById(uint256)": "infinite",
						"levels(uint256)": "infinite",
						"lockPeriods(uint256)": "infinite",
						"stakeMatic(uint256)": "infinite",
						"stakerIdsByAddress(address,uint256)": "infinite",
						"stakers(uint256)": "infinite",
						"totalStakers()": "2474",
						"updateLockPeriod(uint256,uint256)": "infinite"
					}
				},
				"methodIdentifiers": {
					"admin()": "f851a440",
					"calculateInterest(uint256,uint256,uint256)": "05e1bd8c",
					"changeUnlockPeriod(uint256,uint256)": "f9d4e871",
					"getInterestRate(uint256)": "0c196a74",
					"getLockperiods()": "c7b0fc6a",
					"getStakerIdsByAddresses(address)": "f8a2639c",
					"getStakersById(uint256)": "105c2c5c",
					"levels(uint256)": "b2596a67",
					"lockPeriods(uint256)": "4c8f2a78",
					"stakeMatic(uint256)": "fbb5f24b",
					"stakerIdsByAddress(address,uint256)": "b05e148d",
					"stakers(uint256)": "fd5e6dd1",
					"totalStakers()": "86989038",
					"updateLockPeriod(uint256,uint256)": "d73a84e9"
				}
			},
			"storageLayout": {
				"storage": [
					{
						"astId": 3,
						"contract": "test,sol.sol:Staking",
						"label": "admin",
						"offset": 0,
						"slot": "0",
						"type": "t_address"
					},
					{
						"astId": 23,
						"contract": "test,sol.sol:Staking",
						"label": "staker",
						"offset": 0,
						"slot": "1",
						"type": "t_struct(Stakers)20_storage"
					},
					{
						"astId": 25,
						"contract": "test,sol.sol:Staking",
						"label": "totalStakers",
						"offset": 0,
						"slot": "9",
						"type": "t_uint256"
					},
					{
						"astId": 30,
						"contract": "test,sol.sol:Staking",
						"label": "stakers",
						"offset": 0,
						"slot": "10",
						"type": "t_mapping(t_uint256,t_struct(Stakers)20_storage)"
					},
					{
						"astId": 35,
						"contract": "test,sol.sol:Staking",
						"label": "stakerIdsByAddress",
						"offset": 0,
						"slot": "11",
						"type": "t_mapping(t_address,t_array(t_uint256)dyn_storage)"
					},
					{
						"astId": 39,
						"contract": "test,sol.sol:Staking",
						"label": "levels",
						"offset": 0,
						"slot": "12",
						"type": "t_mapping(t_uint256,t_uint256)"
					},
					{
						"astId": 42,
						"contract": "test,sol.sol:Staking",
						"label": "lockPeriods",
						"offset": 0,
						"slot": "13",
						"type": "t_array(t_uint256)dyn_storage"
					}
				],
				"types": {
					"t_address": {
						"encoding": "inplace",
						"label": "address",
						"numberOfBytes": "20"
					},
					"t_array(t_uint256)dyn_storage": {
						"base": "t_uint256",
						"encoding": "dynamic_array",
						"label": "uint256[]",
						"numberOfBytes": "32"
					},
					"t_bool": {
						"encoding": "inplace",
						"label": "bool",
						"numberOfBytes": "1"
					},
					"t_mapping(t_address,t_array(t_uint256)dyn_storage)": {
						"encoding": "mapping",
						"key": "t_address",
						"label": "mapping(address => uint256[])",
						"numberOfBytes": "32",
						"value": "t_array(t_uint256)dyn_storage"
					},
					"t_mapping(t_uint256,t_struct(Stakers)20_storage)": {
						"encoding": "mapping",
						"key": "t_uint256",
						"label": "mapping(uint256 => struct Staking.Stakers)",
						"numberOfBytes": "32",
						"value": "t_struct(Stakers)20_storage"
					},
					"t_mapping(t_uint256,t_uint256)": {
						"encoding": "mapping",
						"key": "t_uint256",
						"label": "mapping(uint256 => uint256)",
						"numberOfBytes": "32",
						"value": "t_uint256"
					},
					"t_struct(Stakers)20_storage": {
						"encoding": "inplace",
						"label": "struct Staking.Stakers",
						"members": [
							{
								"astId": 5,
								"contract": "test,sol.sol:Staking",
								"label": "stakerId",
								"offset": 0,
								"slot": "0",
								"type": "t_uint256"
							},
							{
								"astId": 7,
								"contract": "test,sol.sol:Staking",
								"label": "stakerAddress",
								"offset": 0,
								"slot": "1",
								"type": "t_address"
							},
							{
								"astId": 9,
								"contract": "test,sol.sol:Staking",
								"label": "dateCreated",
								"offset": 0,
								"slot": "2",
								"type": "t_uint256"
							},
							{
								"astId": 11,
								"contract": "test,sol.sol:Staking",
								"label": "dateUnlocked",
								"offset": 0,
								"slot": "3",
								"type": "t_uint256"
							},
							{
								"astId": 13,
								"contract": "test,sol.sol:Staking",
								"label": "interestPercentage",
								"offset": 0,
								"slot": "4",
								"type": "t_uint256"
							},
							{
								"astId": 15,
								"contract": "test,sol.sol:Staking",
								"label": "amountStaked",
								"offset": 0,
								"slot": "5",
								"type": "t_uint256"
							},
							{
								"astId": 17,
								"contract": "test,sol.sol:Staking",
								"label": "interest",
								"offset": 0,
								"slot": "6",
								"type": "t_uint256"
							},
							{
								"astId": 19,
								"contract": "test,sol.sol:Staking",
								"label": "open",
								"offset": 0,
								"slot": "7",
								"type": "t_bool"
							}
						],
						"numberOfBytes": "256"
					},
					"t_uint256": {
						"encoding": "inplace",
						"label": "uint256",
						"numberOfBytes": "32"
					}
				}
			},
			"userdoc": {
				"kind": "user",
				"methods": {},
				"version": 1
			}
		}
	}
}