{
	"StakingRewards.sol": {
		"StakingRewards": {
			"abi": [
				{
					"inputs": [
						{
							"internalType": "address",
							"name": "_stakingToken",
							"type": "address"
						},
						{
							"internalType": "address",
							"name": "_rewardsToken",
							"type": "address"
						}
					],
					"stateMutability": "nonpayable",
					"type": "constructor"
				},
				{
					"inputs": [
						{
							"internalType": "address",
							"name": "",
							"type": "address"
						}
					],
					"name": "balanceOf",
					"outputs": [
						{
							"internalType": "uint256",
							"name": "",
							"type": "uint256"
						}
					],
					"stateMutability": "view",
					"type": "function"
				},
				{
					"inputs": [],
					"name": "duration",
					"outputs": [
						{
							"internalType": "uint256",
							"name": "",
							"type": "uint256"
						}
					],
					"stateMutability": "view",
					"type": "function"
				},
				{
					"inputs": [
						{
							"internalType": "address",
							"name": "_account",
							"type": "address"
						}
					],
					"name": "earned",
					"outputs": [
						{
							"internalType": "uint256",
							"name": "",
							"type": "uint256"
						}
					],
					"stateMutability": "view",
					"type": "function"
				},
				{
					"inputs": [],
					"name": "finishAt",
					"outputs": [
						{
							"internalType": "uint256",
							"name": "",
							"type": "uint256"
						}
					],
					"stateMutability": "view",
					"type": "function"
				},
				{
					"inputs": [],
					"name": "getReward",
					"outputs": [],
					"stateMutability": "nonpayable",
					"type": "function"
				},
				{
					"inputs": [],
					"name": "lastTimeRewardApplicable",
					"outputs": [
						{
							"internalType": "uint256",
							"name": "",
							"type": "uint256"
						}
					],
					"stateMutability": "view",
					"type": "function"
				},
				{
					"inputs": [
						{
							"internalType": "uint256",
							"name": "_amount",
							"type": "uint256"
						}
					],
					"name": "notifyRewardAmount",
					"outputs": [],
					"stateMutability": "nonpayable",
					"type": "function"
				},
				{
					"inputs": [],
					"name": "owner",
					"outputs": [
						{
							"internalType": "address",
							"name": "",
							"type": "address"
						}
					],
					"stateMutability": "view",
					"type": "function"
				},
				{
					"inputs": [
						{
							"internalType": "address",
							"name": "",
							"type": "address"
						}
					],
					"name": "reward",
					"outputs": [
						{
							"internalType": "uint256",
							"name": "",
							"type": "uint256"
						}
					],
					"stateMutability": "view",
					"type": "function"
				},
				{
					"inputs": [],
					"name": "rewardPerToken",
					"outputs": [
						{
							"internalType": "uint256",
							"name": "",
							"type": "uint256"
						}
					],
					"stateMutability": "view",
					"type": "function"
				},
				{
					"inputs": [],
					"name": "rewardPerTokenStored",
					"outputs": [
						{
							"internalType": "uint256",
							"name": "",
							"type": "uint256"
						}
					],
					"stateMutability": "view",
					"type": "function"
				},
				{
					"inputs": [],
					"name": "rewardRate",
					"outputs": [
						{
							"internalType": "uint256",
							"name": "",
							"type": "uint256"
						}
					],
					"stateMutability": "view",
					"type": "function"
				},
				{
					"inputs": [],
					"name": "rewardsToken",
					"outputs": [
						{
							"internalType": "contract IERC20",
							"name": "",
							"type": "address"
						}
					],
					"stateMutability": "view",
					"type": "function"
				},
				{
					"inputs": [
						{
							"internalType": "uint256",
							"name": "_duration",
							"type": "uint256"
						}
					],
					"name": "setRewardDuration",
					"outputs": [],
					"stateMutability": "nonpayable",
					"type": "function"
				},
				{
					"inputs": [
						{
							"internalType": "uint256",
							"name": "_amount",
							"type": "uint256"
						}
					],
					"name": "stake",
					"outputs": [],
					"stateMutability": "nonpayable",
					"type": "function"
				},
				{
					"inputs": [],
					"name": "stakingToken",
					"outputs": [
						{
							"internalType": "contract IERC20",
							"name": "",
							"type": "address"
						}
					],
					"stateMutability": "view",
					"type": "function"
				},
				{
					"inputs": [],
					"name": "totalSupply",
					"outputs": [
						{
							"internalType": "uint256",
							"name": "",
							"type": "uint256"
						}
					],
					"stateMutability": "view",
					"type": "function"
				},
				{
					"inputs": [],
					"name": "updatedAt",
					"outputs": [
						{
							"internalType": "uint256",
							"name": "",
							"type": "uint256"
						}
					],
					"stateMutability": "view",
					"type": "function"
				},
				{
					"inputs": [
						{
							"internalType": "address",
							"name": "",
							"type": "address"
						}
					],
					"name": "userRewardPerTokenPaid",
					"outputs": [
						{
							"internalType": "uint256",
							"name": "",
							"type": "uint256"
						}
					],
					"stateMutability": "view",
					"type": "function"
				},
				{
					"inputs": [
						{
							"internalType": "uint256",
							"name": "_amount",
							"type": "uint256"
						}
					],
					"name": "withdraw",
					"outputs": [],
					"stateMutability": "nonpayable",
					"type": "function"
				}
			],
			"devdoc": {
				"kind": "dev",
				"methods": {},
				"version": 1
			},
			"evm": {
				"assembly": "    /* \"StakingRewards.sol\":719:4222  contract StakingRewards... */\n  mstore(0x40, 0xc0)\n    /* \"StakingRewards.sol\":1209:1401  constructor(address _stakingToken, address _rewardsToken)... */\n  callvalue\n  dup1\n  iszero\n  tag_1\n  jumpi\n  0x00\n  dup1\n  revert\ntag_1:\n  pop\n  mload(0x40)\n  sub(codesize, bytecodeSize)\n  dup1\n  bytecodeSize\n  dup4\n  codecopy\n  dup2\n  dup2\n  add\n  0x40\n  mstore\n  dup2\n  add\n  swap1\n  tag_2\n  swap2\n  swap1\n  tag_3\n  jump\t// in\ntag_2:\n    /* \"StakingRewards.sol\":1289:1299  msg.sender */\n  caller\n    /* \"StakingRewards.sol\":1283:1288  owner */\n  0x00\n  dup1\n    /* \"StakingRewards.sol\":1283:1299  owner=msg.sender */\n  0x0100\n  exp\n  dup2\n  sload\n  dup2\n  0xffffffffffffffffffffffffffffffffffffffff\n  mul\n  not\n  and\n  swap1\n  dup4\n  0xffffffffffffffffffffffffffffffffffffffff\n  and\n  mul\n  or\n  swap1\n  sstore\n  pop\n    /* \"StakingRewards.sol\":1332:1345  _stakingToken */\n  dup2\n    /* \"StakingRewards.sol\":1310:1346  stakingToken = IERC20(_stakingToken) */\n  0xffffffffffffffffffffffffffffffffffffffff\n  and\n  0x80\n  dup2\n  0xffffffffffffffffffffffffffffffffffffffff\n  and\n  dup2\n  mstore\n  pop\n  pop\n    /* \"StakingRewards.sol\":1379:1392  _rewardsToken */\n  dup1\n    /* \"StakingRewards.sol\":1357:1393  rewardsToken = IERC20(_rewardsToken) */\n  0xffffffffffffffffffffffffffffffffffffffff\n  and\n  0xa0\n  dup2\n  0xffffffffffffffffffffffffffffffffffffffff\n  and\n  dup2\n  mstore\n  pop\n  pop\n    /* \"StakingRewards.sol\":1209:1401  constructor(address _stakingToken, address _rewardsToken)... */\n  pop\n  pop\n    /* \"StakingRewards.sol\":719:4222  contract StakingRewards... */\n  jump(tag_6)\n    /* \"#utility.yul\":88:205   */\ntag_8:\n    /* \"#utility.yul\":197:198   */\n  0x00\n    /* \"#utility.yul\":194:195   */\n  dup1\n    /* \"#utility.yul\":187:199   */\n  revert\n    /* \"#utility.yul\":334:460   */\ntag_10:\n    /* \"#utility.yul\":371:378   */\n  0x00\n    /* \"#utility.yul\":411:453   */\n  0xffffffffffffffffffffffffffffffffffffffff\n    /* \"#utility.yul\":404:409   */\n  dup3\n    /* \"#utility.yul\":400:454   */\n  and\n    /* \"#utility.yul\":389:454   */\n  swap1\n  pop\n    /* \"#utility.yul\":334:460   */\n  swap2\n  swap1\n  pop\n  jump\t// out\n    /* \"#utility.yul\":466:562   */\ntag_11:\n    /* \"#utility.yul\":503:510   */\n  0x00\n    /* \"#utility.yul\":532:556   */\n  tag_20\n    /* \"#utility.yul\":550:555   */\n  dup3\n    /* \"#utility.yul\":532:556   */\n  tag_10\n  jump\t// in\ntag_20:\n    /* \"#utility.yul\":521:556   */\n  swap1\n  pop\n    /* \"#utility.yul\":466:562   */\n  swap2\n  swap1\n  pop\n  jump\t// out\n    /* \"#utility.yul\":568:690   */\ntag_12:\n    /* \"#utility.yul\":641:665   */\n  tag_22\n    /* \"#utility.yul\":659:664   */\n  dup2\n    /* \"#utility.yul\":641:665   */\n  tag_11\n  jump\t// in\ntag_22:\n    /* \"#utility.yul\":634:639   */\n  dup2\n    /* \"#utility.yul\":631:666   */\n  eq\n    /* \"#utility.yul\":621:684   */\n  tag_23\n  jumpi\n    /* \"#utility.yul\":680:681   */\n  0x00\n    /* \"#utility.yul\":677:678   */\n  dup1\n    /* \"#utility.yul\":670:682   */\n  revert\n    /* \"#utility.yul\":621:684   */\ntag_23:\n    /* \"#utility.yul\":568:690   */\n  pop\n  jump\t// out\n    /* \"#utility.yul\":696:839   */\ntag_13:\n    /* \"#utility.yul\":753:758   */\n  0x00\n    /* \"#utility.yul\":784:790   */\n  dup2\n    /* \"#utility.yul\":778:791   */\n  mload\n    /* \"#utility.yul\":769:791   */\n  swap1\n  pop\n    /* \"#utility.yul\":800:833   */\n  tag_25\n    /* \"#utility.yul\":827:832   */\n  dup2\n    /* \"#utility.yul\":800:833   */\n  tag_12\n  jump\t// in\ntag_25:\n    /* \"#utility.yul\":696:839   */\n  swap3\n  swap2\n  pop\n  pop\n  jump\t// out\n    /* \"#utility.yul\":845:1352   */\ntag_3:\n    /* \"#utility.yul\":924:930   */\n  0x00\n    /* \"#utility.yul\":932:938   */\n  dup1\n    /* \"#utility.yul\":981:983   */\n  0x40\n    /* \"#utility.yul\":969:978   */\n  dup4\n    /* \"#utility.yul\":960:967   */\n  dup6\n    /* \"#utility.yul\":956:979   */\n  sub\n    /* \"#utility.yul\":952:984   */\n  slt\n    /* \"#utility.yul\":949:1068   */\n  iszero\n  tag_27\n  jumpi\n    /* \"#utility.yul\":987:1066   */\n  tag_28\n  tag_8\n  jump\t// in\ntag_28:\n    /* \"#utility.yul\":949:1068   */\ntag_27:\n    /* \"#utility.yul\":1107:1108   */\n  0x00\n    /* \"#utility.yul\":1132:1196   */\n  tag_29\n    /* \"#utility.yul\":1188:1195   */\n  dup6\n    /* \"#utility.yul\":1179:1185   */\n  dup3\n    /* \"#utility.yul\":1168:1177   */\n  dup7\n    /* \"#utility.yul\":1164:1186   */\n  add\n    /* \"#utility.yul\":1132:1196   */\n  tag_13\n  jump\t// in\ntag_29:\n    /* \"#utility.yul\":1122:1196   */\n  swap3\n  pop\n    /* \"#utility.yul\":1078:1206   */\n  pop\n    /* \"#utility.yul\":1245:1247   */\n  0x20\n    /* \"#utility.yul\":1271:1335   */\n  tag_30\n    /* \"#utility.yul\":1327:1334   */\n  dup6\n    /* \"#utility.yul\":1318:1324   */\n  dup3\n    /* \"#utility.yul\":1307:1316   */\n  dup7\n    /* \"#utility.yul\":1303:1325   */\n  add\n    /* \"#utility.yul\":1271:1335   */\n  tag_13\n  jump\t// in\ntag_30:\n    /* \"#utility.yul\":1261:1335   */\n  swap2\n  pop\n    /* \"#utility.yul\":1216:1345   */\n  pop\n    /* \"#utility.yul\":845:1352   */\n  swap3\n  pop\n  swap3\n  swap1\n  pop\n  jump\t// out\n    /* \"StakingRewards.sol\":719:4222  contract StakingRewards... */\ntag_6:\n  mload(0x80)\n  mload(0xa0)\n  codecopy(0x00, dataOffset(sub_0), dataSize(sub_0))\n  0x00\n  assignImmutable(\"0x57014f1e5f1d53e43fa40624186159531d6372d1ab8f40ec7882845ca66de31d\")\n  0x00\n  assignImmutable(\"0x2cc0d3dcb20652cd8f106aee76b6a7391771a130885634c0eb2bbe3cde796691\")\n  return(0x00, dataSize(sub_0))\nstop\n\nsub_0: assembly {\n        /* \"StakingRewards.sol\":719:4222  contract StakingRewards... */\n      mstore(0x40, 0x80)\n      callvalue\n      dup1\n      iszero\n      tag_1\n      jumpi\n      0x00\n      dup1\n      revert\n    tag_1:\n      pop\n      jumpi(tag_2, lt(calldatasize, 0x04))\n      shr(0xe0, calldataload(0x00))\n      dup1\n      0x7519ab50\n      gt\n      tag_23\n      jumpi\n      dup1\n      0xa694fc3a\n      gt\n      tag_24\n      jumpi\n      dup1\n      0xa694fc3a\n      eq\n      tag_18\n      jumpi\n      dup1\n      0xc0ed00c9\n      eq\n      tag_19\n      jumpi\n      dup1\n      0xcd3daf9d\n      eq\n      tag_20\n      jumpi\n      dup1\n      0xd1af0c7d\n      eq\n      tag_21\n      jumpi\n      dup1\n      0xdf136d65\n      eq\n      tag_22\n      jumpi\n      jump(tag_2)\n    tag_24:\n      dup1\n      0x7519ab50\n      eq\n      tag_13\n      jumpi\n      dup1\n      0x7b0a47ee\n      eq\n      tag_14\n      jumpi\n      dup1\n      0x80faa57d\n      eq\n      tag_15\n      jumpi\n      dup1\n      0x8b876347\n      eq\n      tag_16\n      jumpi\n      dup1\n      0x8da5cb5b\n      eq\n      tag_17\n      jumpi\n      jump(tag_2)\n    tag_23:\n      dup1\n      0x3d18b912\n      gt\n      tag_25\n      jumpi\n      dup1\n      0x3d18b912\n      eq\n      tag_8\n      jumpi\n      dup1\n      0x6353586b\n      eq\n      tag_9\n      jumpi\n      dup1\n      0x67d3b488\n      eq\n      tag_10\n      jumpi\n      dup1\n      0x70a08231\n      eq\n      tag_11\n      jumpi\n      dup1\n      0x72f702f3\n      eq\n      tag_12\n      jumpi\n      jump(tag_2)\n    tag_25:\n      dup1\n      0x8cc262\n      eq\n      tag_3\n      jumpi\n      dup1\n      0x0fb5a6b4\n      eq\n      tag_4\n      jumpi\n      dup1\n      0x18160ddd\n      eq\n      tag_5\n      jumpi\n      dup1\n      0x2e1a7d4d\n      eq\n      tag_6\n      jumpi\n      dup1\n      0x3c6b16ab\n      eq\n      tag_7\n      jumpi\n    tag_2:\n      0x00\n      dup1\n      revert\n        /* \"StakingRewards.sol\":3769:3964  function earned(address _account) public view returns(uint)... */\n    tag_3:\n      tag_26\n      0x04\n      dup1\n      calldatasize\n      sub\n      dup2\n      add\n      swap1\n      tag_27\n      swap2\n      swap1\n      tag_28\n      jump\t// in\n    tag_27:\n      tag_29\n      jump\t// in\n    tag_26:\n      mload(0x40)\n      tag_30\n      swap2\n      swap1\n      tag_31\n      jump\t// in\n    tag_30:\n      mload(0x40)\n      dup1\n      swap2\n      sub\n      swap1\n      return\n        /* \"StakingRewards.sol\":868:888  uint public duration */\n    tag_4:\n      tag_32\n      tag_33\n      jump\t// in\n    tag_32:\n      mload(0x40)\n      tag_34\n      swap2\n      swap1\n      tag_31\n      jump\t// in\n    tag_34:\n      mload(0x40)\n      dup1\n      swap2\n      sub\n      swap1\n      return\n        /* \"StakingRewards.sol\":1129:1152  uint public totalSupply */\n    tag_5:\n      tag_35\n      tag_36\n      jump\t// in\n    tag_35:\n      mload(0x40)\n      tag_37\n      swap2\n      swap1\n      tag_31\n      jump\t// in\n    tag_37:\n      mload(0x40)\n      dup1\n      swap2\n      sub\n      swap1\n      return\n        /* \"StakingRewards.sol\":2991:3245  function withdraw(uint _amount) external updateReward(msg.sender) ... */\n    tag_6:\n      tag_38\n      0x04\n      dup1\n      calldatasize\n      sub\n      dup2\n      add\n      swap1\n      tag_39\n      swap2\n      swap1\n      tag_40\n      jump\t// in\n    tag_39:\n      tag_41\n      jump\t// in\n    tag_38:\n      stop\n        /* \"StakingRewards.sol\":2066:2705  function notifyRewardAmount(uint _amount) external onlyOwner updateReward(address(0))... */\n    tag_7:\n      tag_42\n      0x04\n      dup1\n      calldatasize\n      sub\n      dup2\n      add\n      swap1\n      tag_43\n      swap2\n      swap1\n      tag_40\n      jump\t// in\n    tag_43:\n      tag_44\n      jump\t// in\n    tag_42:\n      stop\n        /* \"StakingRewards.sol\":3972:4219  function getReward() external updateReward(msg.sender)... */\n    tag_8:\n      tag_45\n      tag_46\n      jump\t// in\n    tag_45:\n      stop\n        /* \"StakingRewards.sol\":1081:1120  mapping(address => uint)  public reward */\n    tag_9:\n      tag_47\n      0x04\n      dup1\n      calldatasize\n      sub\n      dup2\n      add\n      swap1\n      tag_48\n      swap2\n      swap1\n      tag_28\n      jump\t// in\n    tag_48:\n      tag_49\n      jump\t// in\n    tag_47:\n      mload(0x40)\n      tag_50\n      swap2\n      swap1\n      tag_31\n      jump\t// in\n    tag_50:\n      mload(0x40)\n      dup1\n      swap2\n      sub\n      swap1\n      return\n        /* \"StakingRewards.sol\":895:915  uint public finishAt */\n    tag_10:\n      tag_51\n      tag_52\n      jump\t// in\n    tag_51:\n      mload(0x40)\n      tag_53\n      swap2\n      swap1\n      tag_31\n      jump\t// in\n    tag_53:\n      mload(0x40)\n      dup1\n      swap2\n      sub\n      swap1\n      return\n        /* \"StakingRewards.sol\":1159:1200  mapping(address => uint) public balanceOf */\n    tag_11:\n      tag_54\n      0x04\n      dup1\n      calldatasize\n      sub\n      dup2\n      add\n      swap1\n      tag_55\n      swap2\n      swap1\n      tag_28\n      jump\t// in\n    tag_55:\n      tag_56\n      jump\t// in\n    tag_54:\n      mload(0x40)\n      tag_57\n      swap2\n      swap1\n      tag_31\n      jump\t// in\n    tag_57:\n      mload(0x40)\n      dup1\n      swap2\n      sub\n      swap1\n      return\n        /* \"StakingRewards.sol\":751:787  IERC20 public immutable stakingToken */\n    tag_12:\n      tag_58\n      tag_59\n      jump\t// in\n    tag_58:\n      mload(0x40)\n      tag_60\n      swap2\n      swap1\n      tag_61\n      jump\t// in\n    tag_60:\n      mload(0x40)\n      dup1\n      swap2\n      sub\n      swap1\n      return\n        /* \"StakingRewards.sol\":922:943  uint public updatedAt */\n    tag_13:\n      tag_62\n      tag_63\n      jump\t// in\n    tag_62:\n      mload(0x40)\n      tag_64\n      swap2\n      swap1\n      tag_31\n      jump\t// in\n    tag_64:\n      mload(0x40)\n      dup1\n      swap2\n      sub\n      swap1\n      return\n        /* \"StakingRewards.sol\":950:972  uint public rewardRate */\n    tag_14:\n      tag_65\n      tag_66\n      jump\t// in\n    tag_65:\n      mload(0x40)\n      tag_67\n      swap2\n      swap1\n      tag_31\n      jump\t// in\n    tag_67:\n      mload(0x40)\n      dup1\n      swap2\n      sub\n      swap1\n      return\n        /* \"StakingRewards.sol\":3253:3373  function lastTimeRewardApplicable() public view returns (uint) {... */\n    tag_15:\n      tag_68\n      tag_69\n      jump\t// in\n    tag_68:\n      mload(0x40)\n      tag_70\n      swap2\n      swap1\n      tag_31\n      jump\t// in\n    tag_70:\n      mload(0x40)\n      dup1\n      swap2\n      sub\n      swap1\n      return\n        /* \"StakingRewards.sol\":1020:1074  mapping(address => uint) public userRewardPerTokenPaid */\n    tag_16:\n      tag_71\n      0x04\n      dup1\n      calldatasize\n      sub\n      dup2\n      add\n      swap1\n      tag_72\n      swap2\n      swap1\n      tag_28\n      jump\t// in\n    tag_72:\n      tag_73\n      jump\t// in\n    tag_71:\n      mload(0x40)\n      tag_74\n      swap2\n      swap1\n      tag_31\n      jump\t// in\n    tag_74:\n      mload(0x40)\n      dup1\n      swap2\n      sub\n      swap1\n      return\n        /* \"StakingRewards.sol\":839:859  address public owner */\n    tag_17:\n      tag_75\n      tag_76\n      jump\t// in\n    tag_75:\n      mload(0x40)\n      tag_77\n      swap2\n      swap1\n      tag_78\n      jump\t// in\n    tag_77:\n      mload(0x40)\n      dup1\n      swap2\n      sub\n      swap1\n      return\n        /* \"StakingRewards.sol\":2713:2983  function stake(uint _amount) external updateReward(msg.sender)... */\n    tag_18:\n      tag_79\n      0x04\n      dup1\n      calldatasize\n      sub\n      dup2\n      add\n      swap1\n      tag_80\n      swap2\n      swap1\n      tag_40\n      jump\t// in\n    tag_80:\n      tag_81\n      jump\t// in\n    tag_79:\n      stop\n        /* \"StakingRewards.sol\":1874:2058  function setRewardDuration(uint _duration) external onlyOwner... */\n    tag_19:\n      tag_82\n      0x04\n      dup1\n      calldatasize\n      sub\n      dup2\n      add\n      swap1\n      tag_83\n      swap2\n      swap1\n      tag_40\n      jump\t// in\n    tag_83:\n      tag_84\n      jump\t// in\n    tag_82:\n      stop\n        /* \"StakingRewards.sol\":3485:3761  function rewardPerToken() public view returns(uint)... */\n    tag_20:\n      tag_85\n      tag_86\n      jump\t// in\n    tag_85:\n      mload(0x40)\n      tag_87\n      swap2\n      swap1\n      tag_31\n      jump\t// in\n    tag_87:\n      mload(0x40)\n      dup1\n      swap2\n      sub\n      swap1\n      return\n        /* \"StakingRewards.sol\":794:830  IERC20 public immutable rewardsToken */\n    tag_21:\n      tag_88\n      tag_89\n      jump\t// in\n    tag_88:\n      mload(0x40)\n      tag_90\n      swap2\n      swap1\n      tag_61\n      jump\t// in\n    tag_90:\n      mload(0x40)\n      dup1\n      swap2\n      sub\n      swap1\n      return\n        /* \"StakingRewards.sol\":979:1011  uint public rewardPerTokenStored */\n    tag_22:\n      tag_91\n      tag_92\n      jump\t// in\n    tag_91:\n      mload(0x40)\n      tag_93\n      swap2\n      swap1\n      tag_31\n      jump\t// in\n    tag_93:\n      mload(0x40)\n      dup1\n      swap2\n      sub\n      swap1\n      return\n        /* \"StakingRewards.sol\":3769:3964  function earned(address _account) public view returns(uint)... */\n    tag_29:\n        /* \"StakingRewards.sol\":3823:3827  uint */\n      0x00\n        /* \"StakingRewards.sol\":3940:3946  reward */\n      0x07\n        /* \"StakingRewards.sol\":3940:3956  reward[_account] */\n      0x00\n        /* \"StakingRewards.sol\":3947:3955  _account */\n      dup4\n        /* \"StakingRewards.sol\":3940:3956  reward[_account] */\n      0xffffffffffffffffffffffffffffffffffffffff\n      and\n      0xffffffffffffffffffffffffffffffffffffffff\n      and\n      dup2\n      mstore\n      0x20\n      add\n      swap1\n      dup2\n      mstore\n      0x20\n      add\n      0x00\n      keccak256\n      sload\n        /* \"StakingRewards.sol\":3933:3937  1e18 */\n      0x0de0b6b3a7640000\n        /* \"StakingRewards.sol\":3895:3917  userRewardPerTokenPaid */\n      0x06\n        /* \"StakingRewards.sol\":3895:3927  userRewardPerTokenPaid[_account] */\n      0x00\n        /* \"StakingRewards.sol\":3918:3926  _account */\n      dup6\n        /* \"StakingRewards.sol\":3895:3927  userRewardPerTokenPaid[_account] */\n      0xffffffffffffffffffffffffffffffffffffffff\n      and\n      0xffffffffffffffffffffffffffffffffffffffff\n      and\n      dup2\n      mstore\n      0x20\n      add\n      swap1\n      dup2\n      mstore\n      0x20\n      add\n      0x00\n      keccak256\n      sload\n        /* \"StakingRewards.sol\":3876:3892  rewardPerToken() */\n      tag_95\n        /* \"StakingRewards.sol\":3876:3890  rewardPerToken */\n      tag_86\n        /* \"StakingRewards.sol\":3876:3892  rewardPerToken() */\n      jump\t// in\n    tag_95:\n        /* \"StakingRewards.sol\":3876:3927  rewardPerToken() - userRewardPerTokenPaid[_account] */\n      tag_96\n      swap2\n      swap1\n      tag_97\n      jump\t// in\n    tag_96:\n        /* \"StakingRewards.sol\":3853:3862  balanceOf */\n      0x09\n        /* \"StakingRewards.sol\":3853:3872  balanceOf[_account] */\n      0x00\n        /* \"StakingRewards.sol\":3863:3871  _account */\n      dup7\n        /* \"StakingRewards.sol\":3853:3872  balanceOf[_account] */\n      0xffffffffffffffffffffffffffffffffffffffff\n      and\n      0xffffffffffffffffffffffffffffffffffffffff\n      and\n      dup2\n      mstore\n      0x20\n      add\n      swap1\n      dup2\n      mstore\n      0x20\n      add\n      0x00\n      keccak256\n      sload\n        /* \"StakingRewards.sol\":3853:3929  balanceOf[_account] * (rewardPerToken() - userRewardPerTokenPaid[_account] ) */\n      tag_98\n      swap2\n      swap1\n      tag_99\n      jump\t// in\n    tag_98:\n        /* \"StakingRewards.sol\":3852:3937  (balanceOf[_account] * (rewardPerToken() - userRewardPerTokenPaid[_account] )) / 1e18 */\n      tag_100\n      swap2\n      swap1\n      tag_101\n      jump\t// in\n    tag_100:\n        /* \"StakingRewards.sol\":3852:3956  (balanceOf[_account] * (rewardPerToken() - userRewardPerTokenPaid[_account] )) / 1e18 + reward[_account] */\n      tag_102\n      swap2\n      swap1\n      tag_103\n      jump\t// in\n    tag_102:\n        /* \"StakingRewards.sol\":3845:3956  return (balanceOf[_account] * (rewardPerToken() - userRewardPerTokenPaid[_account] )) / 1e18 + reward[_account] */\n      swap1\n      pop\n        /* \"StakingRewards.sol\":3769:3964  function earned(address _account) public view returns(uint)... */\n      swap2\n      swap1\n      pop\n      jump\t// out\n        /* \"StakingRewards.sol\":868:888  uint public duration */\n    tag_33:\n      sload(0x01)\n      dup2\n      jump\t// out\n        /* \"StakingRewards.sol\":1129:1152  uint public totalSupply */\n    tag_36:\n      sload(0x08)\n      dup2\n      jump\t// out\n        /* \"StakingRewards.sol\":2991:3245  function withdraw(uint _amount) external updateReward(msg.sender) ... */\n    tag_41:\n        /* \"StakingRewards.sol\":3045:3055  msg.sender */\n      caller\n        /* \"StakingRewards.sol\":1600:1616  rewardPerToken() */\n      tag_105\n        /* \"StakingRewards.sol\":1600:1614  rewardPerToken */\n      tag_86\n        /* \"StakingRewards.sol\":1600:1616  rewardPerToken() */\n      jump\t// in\n    tag_105:\n        /* \"StakingRewards.sol\":1577:1597  rewardPerTokenStored */\n      0x05\n        /* \"StakingRewards.sol\":1577:1616  rewardPerTokenStored = rewardPerToken() */\n      dup2\n      swap1\n      sstore\n      pop\n        /* \"StakingRewards.sol\":1639:1665  lastTimeRewardApplicable() */\n      tag_106\n        /* \"StakingRewards.sol\":1639:1663  lastTimeRewardApplicable */\n      tag_69\n        /* \"StakingRewards.sol\":1639:1665  lastTimeRewardApplicable() */\n      jump\t// in\n    tag_106:\n        /* \"StakingRewards.sol\":1627:1636  updatedAt */\n      0x03\n        /* \"StakingRewards.sol\":1627:1665  updatedAt = lastTimeRewardApplicable() */\n      dup2\n      swap1\n      sstore\n      pop\n        /* \"StakingRewards.sol\":1702:1703  0 */\n      0x00\n        /* \"StakingRewards.sol\":1682:1704  _account != address(0) */\n      0xffffffffffffffffffffffffffffffffffffffff\n      and\n        /* \"StakingRewards.sol\":1682:1690  _account */\n      dup2\n        /* \"StakingRewards.sol\":1682:1704  _account != address(0) */\n      0xffffffffffffffffffffffffffffffffffffffff\n      and\n      eq\n        /* \"StakingRewards.sol\":1678:1847  if (_account != address(0))... */\n      tag_107\n      jumpi\n        /* \"StakingRewards.sol\":1749:1765  earned(_account) */\n      tag_108\n        /* \"StakingRewards.sol\":1756:1764  _account */\n      dup2\n        /* \"StakingRewards.sol\":1749:1755  earned */\n      tag_29\n        /* \"StakingRewards.sol\":1749:1765  earned(_account) */\n      jump\t// in\n    tag_108:\n        /* \"StakingRewards.sol\":1730:1736  reward */\n      0x07\n        /* \"StakingRewards.sol\":1730:1746  reward[_account] */\n      0x00\n        /* \"StakingRewards.sol\":1737:1745  _account */\n      dup4\n        /* \"StakingRewards.sol\":1730:1746  reward[_account] */\n      0xffffffffffffffffffffffffffffffffffffffff\n      and\n      0xffffffffffffffffffffffffffffffffffffffff\n      and\n      dup2\n      mstore\n      0x20\n      add\n      swap1\n      dup2\n      mstore\n      0x20\n      add\n      0x00\n      keccak256\n        /* \"StakingRewards.sol\":1730:1765  reward[_account] = earned(_account) */\n      dup2\n      swap1\n      sstore\n      pop\n        /* \"StakingRewards.sol\":1815:1835  rewardPerTokenStored */\n      sload(0x05)\n        /* \"StakingRewards.sol\":1780:1802  userRewardPerTokenPaid */\n      0x06\n        /* \"StakingRewards.sol\":1780:1812  userRewardPerTokenPaid[_account] */\n      0x00\n        /* \"StakingRewards.sol\":1803:1811  _account */\n      dup4\n        /* \"StakingRewards.sol\":1780:1812  userRewardPerTokenPaid[_account] */\n      0xffffffffffffffffffffffffffffffffffffffff\n      and\n      0xffffffffffffffffffffffffffffffffffffffff\n      and\n      dup2\n      mstore\n      0x20\n      add\n      swap1\n      dup2\n      mstore\n      0x20\n      add\n      0x00\n      keccak256\n        /* \"StakingRewards.sol\":1780:1835  userRewardPerTokenPaid[_account] = rewardPerTokenStored */\n      dup2\n      swap1\n      sstore\n      pop\n        /* \"StakingRewards.sol\":1678:1847  if (_account != address(0))... */\n    tag_107:\n        /* \"StakingRewards.sol\":3092:3093  0 */\n      0x00\n        /* \"StakingRewards.sol\":3082:3089  _amount */\n      dup3\n        /* \"StakingRewards.sol\":3082:3093  _amount > 0 */\n      gt\n        /* \"StakingRewards.sol\":3074:3107  require(_amount > 0,\"amount = 0\") */\n      tag_110\n      jumpi\n      mload(0x40)\n      0x08c379a000000000000000000000000000000000000000000000000000000000\n      dup2\n      mstore\n      0x04\n      add\n      tag_111\n      swap1\n      tag_112\n      jump\t// in\n    tag_111:\n      mload(0x40)\n      dup1\n      swap2\n      sub\n      swap1\n      revert\n    tag_110:\n        /* \"StakingRewards.sol\":3143:3150  _amount */\n      dup2\n        /* \"StakingRewards.sol\":3118:3127  balanceOf */\n      0x09\n        /* \"StakingRewards.sol\":3118:3139  balanceOf[msg.sender] */\n      0x00\n        /* \"StakingRewards.sol\":3128:3138  msg.sender */\n      caller\n        /* \"StakingRewards.sol\":3118:3139  balanceOf[msg.sender] */\n      0xffffffffffffffffffffffffffffffffffffffff\n      and\n      0xffffffffffffffffffffffffffffffffffffffff\n      and\n      dup2\n      mstore\n      0x20\n      add\n      swap1\n      dup2\n      mstore\n      0x20\n      add\n      0x00\n      keccak256\n      0x00\n        /* \"StakingRewards.sol\":3118:3150  balanceOf[msg.sender] -= _amount */\n      dup3\n      dup3\n      sload\n      tag_113\n      swap2\n      swap1\n      tag_97\n      jump\t// in\n    tag_113:\n      swap3\n      pop\n      pop\n      dup2\n      swap1\n      sstore\n      pop\n        /* \"StakingRewards.sol\":3176:3183  _amount */\n      dup2\n        /* \"StakingRewards.sol\":3161:3172  totalSupply */\n      0x08\n      0x00\n        /* \"StakingRewards.sol\":3161:3183  totalSupply -= _amount */\n      dup3\n      dup3\n      sload\n      tag_114\n      swap2\n      swap1\n      tag_97\n      jump\t// in\n    tag_114:\n      swap3\n      pop\n      pop\n      dup2\n      swap1\n      sstore\n      pop\n        /* \"StakingRewards.sol\":3194:3206  stakingToken */\n      immutable(\"0x2cc0d3dcb20652cd8f106aee76b6a7391771a130885634c0eb2bbe3cde796691\")\n        /* \"StakingRewards.sol\":3194:3215  stakingToken.transfer */\n      0xffffffffffffffffffffffffffffffffffffffff\n      and\n      0xa9059cbb\n        /* \"StakingRewards.sol\":3216:3226  msg.sender */\n      caller\n        /* \"StakingRewards.sol\":3227:3234  _amount */\n      dup5\n        /* \"StakingRewards.sol\":3194:3235  stakingToken.transfer(msg.sender,_amount) */\n      mload(0x40)\n      dup4\n      0xffffffff\n      and\n      0xe0\n      shl\n      dup2\n      mstore\n      0x04\n      add\n      tag_115\n      swap3\n      swap2\n      swap1\n      tag_116\n      jump\t// in\n    tag_115:\n      0x20\n      mload(0x40)\n      dup1\n      dup4\n      sub\n      dup2\n      0x00\n      dup8\n      gas\n      call\n      iszero\n      dup1\n      iszero\n      tag_118\n      jumpi\n      returndatasize\n      0x00\n      dup1\n      returndatacopy\n      revert(0x00, returndatasize)\n    tag_118:\n      pop\n      pop\n      pop\n      pop\n      mload(0x40)\n      returndatasize\n      not(0x1f)\n      0x1f\n      dup3\n      add\n      and\n      dup3\n      add\n      dup1\n      0x40\n      mstore\n      pop\n      dup2\n      add\n      swap1\n      tag_119\n      swap2\n      swap1\n      tag_120\n      jump\t// in\n    tag_119:\n      pop\n        /* \"StakingRewards.sol\":2991:3245  function withdraw(uint _amount) external updateReward(msg.sender) ... */\n      pop\n      pop\n      jump\t// out\n        /* \"StakingRewards.sol\":2066:2705  function notifyRewardAmount(uint _amount) external onlyOwner updateReward(address(0))... */\n    tag_44:\n        /* \"StakingRewards.sol\":1466:1471  owner */\n      0x00\n      dup1\n      sload\n      swap1\n      0x0100\n      exp\n      swap1\n      div\n      0xffffffffffffffffffffffffffffffffffffffff\n      and\n        /* \"StakingRewards.sol\":1454:1471  msg.sender==owner */\n      0xffffffffffffffffffffffffffffffffffffffff\n      and\n        /* \"StakingRewards.sol\":1454:1464  msg.sender */\n      caller\n        /* \"StakingRewards.sol\":1454:1471  msg.sender==owner */\n      0xffffffffffffffffffffffffffffffffffffffff\n      and\n      eq\n        /* \"StakingRewards.sol\":1446:1492  require(msg.sender==owner,\"You are not owner\") */\n      tag_122\n      jumpi\n      mload(0x40)\n      0x08c379a000000000000000000000000000000000000000000000000000000000\n      dup2\n      mstore\n      0x04\n      add\n      tag_123\n      swap1\n      tag_124\n      jump\t// in\n    tag_123:\n      mload(0x40)\n      dup1\n      swap2\n      sub\n      swap1\n      revert\n    tag_122:\n        /* \"StakingRewards.sol\":2148:2149  0 */\n      0x00\n        /* \"StakingRewards.sol\":1600:1616  rewardPerToken() */\n      tag_126\n        /* \"StakingRewards.sol\":1600:1614  rewardPerToken */\n      tag_86\n        /* \"StakingRewards.sol\":1600:1616  rewardPerToken() */\n      jump\t// in\n    tag_126:\n        /* \"StakingRewards.sol\":1577:1597  rewardPerTokenStored */\n      0x05\n        /* \"StakingRewards.sol\":1577:1616  rewardPerTokenStored = rewardPerToken() */\n      dup2\n      swap1\n      sstore\n      pop\n        /* \"StakingRewards.sol\":1639:1665  lastTimeRewardApplicable() */\n      tag_127\n        /* \"StakingRewards.sol\":1639:1663  lastTimeRewardApplicable */\n      tag_69\n        /* \"StakingRewards.sol\":1639:1665  lastTimeRewardApplicable() */\n      jump\t// in\n    tag_127:\n        /* \"StakingRewards.sol\":1627:1636  updatedAt */\n      0x03\n        /* \"StakingRewards.sol\":1627:1665  updatedAt = lastTimeRewardApplicable() */\n      dup2\n      swap1\n      sstore\n      pop\n        /* \"StakingRewards.sol\":1702:1703  0 */\n      0x00\n        /* \"StakingRewards.sol\":1682:1704  _account != address(0) */\n      0xffffffffffffffffffffffffffffffffffffffff\n      and\n        /* \"StakingRewards.sol\":1682:1690  _account */\n      dup2\n        /* \"StakingRewards.sol\":1682:1704  _account != address(0) */\n      0xffffffffffffffffffffffffffffffffffffffff\n      and\n      eq\n        /* \"StakingRewards.sol\":1678:1847  if (_account != address(0))... */\n      tag_128\n      jumpi\n        /* \"StakingRewards.sol\":1749:1765  earned(_account) */\n      tag_129\n        /* \"StakingRewards.sol\":1756:1764  _account */\n      dup2\n        /* \"StakingRewards.sol\":1749:1755  earned */\n      tag_29\n        /* \"StakingRewards.sol\":1749:1765  earned(_account) */\n      jump\t// in\n    tag_129:\n        /* \"StakingRewards.sol\":1730:1736  reward */\n      0x07\n        /* \"StakingRewards.sol\":1730:1746  reward[_account] */\n      0x00\n        /* \"StakingRewards.sol\":1737:1745  _account */\n      dup4\n        /* \"StakingRewards.sol\":1730:1746  reward[_account] */\n      0xffffffffffffffffffffffffffffffffffffffff\n      and\n      0xffffffffffffffffffffffffffffffffffffffff\n      and\n      dup2\n      mstore\n      0x20\n      add\n      swap1\n      dup2\n      mstore\n      0x20\n      add\n      0x00\n      keccak256\n        /* \"StakingRewards.sol\":1730:1765  reward[_account] = earned(_account) */\n      dup2\n      swap1\n      sstore\n      pop\n        /* \"StakingRewards.sol\":1815:1835  rewardPerTokenStored */\n      sload(0x05)\n        /* \"StakingRewards.sol\":1780:1802  userRewardPerTokenPaid */\n      0x06\n        /* \"StakingRewards.sol\":1780:1812  userRewardPerTokenPaid[_account] */\n      0x00\n        /* \"StakingRewards.sol\":1803:1811  _account */\n      dup4\n        /* \"StakingRewards.sol\":1780:1812  userRewardPerTokenPaid[_account] */\n      0xffffffffffffffffffffffffffffffffffffffff\n      and\n      0xffffffffffffffffffffffffffffffffffffffff\n      and\n      dup2\n      mstore\n      0x20\n      add\n      swap1\n      dup2\n      mstore\n      0x20\n      add\n      0x00\n      keccak256\n        /* \"StakingRewards.sol\":1780:1835  userRewardPerTokenPaid[_account] = rewardPerTokenStored */\n      dup2\n      swap1\n      sstore\n      pop\n        /* \"StakingRewards.sol\":1678:1847  if (_account != address(0))... */\n    tag_128:\n        /* \"StakingRewards.sol\":2189:2197  finishAt */\n      sload(0x02)\n        /* \"StakingRewards.sol\":2171:2186  block.timestamp */\n      timestamp\n        /* \"StakingRewards.sol\":2171:2197  block.timestamp > finishAt */\n      gt\n        /* \"StakingRewards.sol\":2168:2449  if(block.timestamp > finishAt)... */\n      iszero\n      tag_131\n      jumpi\n        /* \"StakingRewards.sol\":2246:2254  duration */\n      sload(0x01)\n        /* \"StakingRewards.sol\":2236:2243  _amount */\n      dup3\n        /* \"StakingRewards.sol\":2236:2254  _amount / duration */\n      tag_132\n      swap2\n      swap1\n      tag_101\n      jump\t// in\n    tag_132:\n        /* \"StakingRewards.sol\":2223:2233  rewardRate */\n      0x04\n        /* \"StakingRewards.sol\":2223:2254  rewardRate = _amount / duration */\n      dup2\n      swap1\n      sstore\n      pop\n        /* \"StakingRewards.sol\":2168:2449  if(block.timestamp > finishAt)... */\n      jump(tag_133)\n    tag_131:\n        /* \"StakingRewards.sol\":2305:2326  uint remainingRewards */\n      0x00\n        /* \"StakingRewards.sol\":2354:2369  block.timestamp */\n      timestamp\n        /* \"StakingRewards.sol\":2343:2351  finishAt */\n      sload(0x02)\n        /* \"StakingRewards.sol\":2343:2369  finishAt - block.timestamp */\n      tag_134\n      swap2\n      swap1\n      tag_97\n      jump\t// in\n    tag_134:\n        /* \"StakingRewards.sol\":2329:2339  rewardRate */\n      sload(0x04)\n        /* \"StakingRewards.sol\":2329:2370  rewardRate * (finishAt - block.timestamp) */\n      tag_135\n      swap2\n      swap1\n      tag_99\n      jump\t// in\n    tag_135:\n        /* \"StakingRewards.sol\":2305:2370  uint remainingRewards = rewardRate * (finishAt - block.timestamp) */\n      swap1\n      pop\n        /* \"StakingRewards.sol\":2429:2437  duration */\n      sload(0x01)\n        /* \"StakingRewards.sol\":2418:2425  _amount */\n      dup4\n        /* \"StakingRewards.sol\":2399:2415  remainingRewards */\n      dup3\n        /* \"StakingRewards.sol\":2399:2425  remainingRewards + _amount */\n      tag_136\n      swap2\n      swap1\n      tag_103\n      jump\t// in\n    tag_136:\n        /* \"StakingRewards.sol\":2398:2437  (remainingRewards + _amount) / duration */\n      tag_137\n      swap2\n      swap1\n      tag_101\n      jump\t// in\n    tag_137:\n        /* \"StakingRewards.sol\":2385:2395  rewardRate */\n      0x04\n        /* \"StakingRewards.sol\":2385:2437  rewardRate = (remainingRewards + _amount) / duration */\n      dup2\n      swap1\n      sstore\n      pop\n        /* \"StakingRewards.sol\":2290:2449  {... */\n      pop\n        /* \"StakingRewards.sol\":2168:2449  if(block.timestamp > finishAt)... */\n    tag_133:\n        /* \"StakingRewards.sol\":2480:2481  0 */\n      0x00\n        /* \"StakingRewards.sol\":2467:2477  rewardRate */\n      sload(0x04)\n        /* \"StakingRewards.sol\":2467:2481  rewardRate > 0 */\n      gt\n        /* \"StakingRewards.sol\":2459:2501  require(rewardRate > 0, \"reward rate = 0\") */\n      tag_138\n      jumpi\n      mload(0x40)\n      0x08c379a000000000000000000000000000000000000000000000000000000000\n      dup2\n      mstore\n      0x04\n      add\n      tag_139\n      swap1\n      tag_140\n      jump\t// in\n    tag_139:\n      mload(0x40)\n      dup1\n      swap2\n      sub\n      swap1\n      revert\n    tag_138:\n        /* \"StakingRewards.sol\":2545:2557  rewardsToken */\n      immutable(\"0x57014f1e5f1d53e43fa40624186159531d6372d1ab8f40ec7882845ca66de31d\")\n        /* \"StakingRewards.sol\":2545:2567  rewardsToken.balanceOf */\n      0xffffffffffffffffffffffffffffffffffffffff\n      and\n      0x70a08231\n        /* \"StakingRewards.sol\":2576:2580  this */\n      address\n        /* \"StakingRewards.sol\":2545:2582  rewardsToken.balanceOf(address(this)) */\n      mload(0x40)\n      dup3\n      0xffffffff\n      and\n      0xe0\n      shl\n      dup2\n      mstore\n      0x04\n      add\n      tag_141\n      swap2\n      swap1\n      tag_78\n      jump\t// in\n    tag_141:\n      0x20\n      mload(0x40)\n      dup1\n      dup4\n      sub\n      dup2\n      dup7\n      gas\n      staticcall\n      iszero\n      dup1\n      iszero\n      tag_143\n      jumpi\n      returndatasize\n      0x00\n      dup1\n      returndatacopy\n      revert(0x00, returndatasize)\n    tag_143:\n      pop\n      pop\n      pop\n      pop\n      mload(0x40)\n      returndatasize\n      not(0x1f)\n      0x1f\n      dup3\n      add\n      and\n      dup3\n      add\n      dup1\n      0x40\n      mstore\n      pop\n      dup2\n      add\n      swap1\n      tag_144\n      swap2\n      swap1\n      tag_145\n      jump\t// in\n    tag_144:\n        /* \"StakingRewards.sol\":2533:2541  duration */\n      sload(0x01)\n        /* \"StakingRewards.sol\":2520:2530  rewardRate */\n      sload(0x04)\n        /* \"StakingRewards.sol\":2520:2541  rewardRate * duration */\n      tag_146\n      swap2\n      swap1\n      tag_99\n      jump\t// in\n    tag_146:\n        /* \"StakingRewards.sol\":2520:2582  rewardRate * duration <= rewardsToken.balanceOf(address(this)) */\n      gt\n      iszero\n        /* \"StakingRewards.sol\":2512:2609  require(rewardRate * duration <= rewardsToken.balanceOf(address(this)),\"reward amount > balance\") */\n      tag_147\n      jumpi\n      mload(0x40)\n      0x08c379a000000000000000000000000000000000000000000000000000000000\n      dup2\n      mstore\n      0x04\n      add\n      tag_148\n      swap1\n      tag_149\n      jump\t// in\n    tag_148:\n      mload(0x40)\n      dup1\n      swap2\n      sub\n      swap1\n      revert\n    tag_147:\n        /* \"StakingRewards.sol\":2651:2659  duration */\n      sload(0x01)\n        /* \"StakingRewards.sol\":2633:2648  block.timestamp */\n      timestamp\n        /* \"StakingRewards.sol\":2633:2659  block.timestamp + duration */\n      tag_150\n      swap2\n      swap1\n      tag_103\n      jump\t// in\n    tag_150:\n        /* \"StakingRewards.sol\":2622:2630  finishAt */\n      0x02\n        /* \"StakingRewards.sol\":2622:2659  finishAt = block.timestamp + duration */\n      dup2\n      swap1\n      sstore\n      pop\n        /* \"StakingRewards.sol\":2682:2697  block.timestamp */\n      timestamp\n        /* \"StakingRewards.sol\":2670:2679  updatedAt */\n      0x03\n        /* \"StakingRewards.sol\":2670:2697  updatedAt = block.timestamp */\n      dup2\n      swap1\n      sstore\n      pop\n        /* \"StakingRewards.sol\":1503:1504  _ */\n      pop\n        /* \"StakingRewards.sol\":2066:2705  function notifyRewardAmount(uint _amount) external onlyOwner updateReward(address(0))... */\n      pop\n      jump\t// out\n        /* \"StakingRewards.sol\":3972:4219  function getReward() external updateReward(msg.sender)... */\n    tag_46:\n        /* \"StakingRewards.sol\":4015:4025  msg.sender */\n      caller\n        /* \"StakingRewards.sol\":1600:1616  rewardPerToken() */\n      tag_152\n        /* \"StakingRewards.sol\":1600:1614  rewardPerToken */\n      tag_86\n        /* \"StakingRewards.sol\":1600:1616  rewardPerToken() */\n      jump\t// in\n    tag_152:\n        /* \"StakingRewards.sol\":1577:1597  rewardPerTokenStored */\n      0x05\n        /* \"StakingRewards.sol\":1577:1616  rewardPerTokenStored = rewardPerToken() */\n      dup2\n      swap1\n      sstore\n      pop\n        /* \"StakingRewards.sol\":1639:1665  lastTimeRewardApplicable() */\n      tag_153\n        /* \"StakingRewards.sol\":1639:1663  lastTimeRewardApplicable */\n      tag_69\n        /* \"StakingRewards.sol\":1639:1665  lastTimeRewardApplicable() */\n      jump\t// in\n    tag_153:\n        /* \"StakingRewards.sol\":1627:1636  updatedAt */\n      0x03\n        /* \"StakingRewards.sol\":1627:1665  updatedAt = lastTimeRewardApplicable() */\n      dup2\n      swap1\n      sstore\n      pop\n        /* \"StakingRewards.sol\":1702:1703  0 */\n      0x00\n        /* \"StakingRewards.sol\":1682:1704  _account != address(0) */\n      0xffffffffffffffffffffffffffffffffffffffff\n      and\n        /* \"StakingRewards.sol\":1682:1690  _account */\n      dup2\n        /* \"StakingRewards.sol\":1682:1704  _account != address(0) */\n      0xffffffffffffffffffffffffffffffffffffffff\n      and\n      eq\n        /* \"StakingRewards.sol\":1678:1847  if (_account != address(0))... */\n      tag_154\n      jumpi\n        /* \"StakingRewards.sol\":1749:1765  earned(_account) */\n      tag_155\n        /* \"StakingRewards.sol\":1756:1764  _account */\n      dup2\n        /* \"StakingRewards.sol\":1749:1755  earned */\n      tag_29\n        /* \"StakingRewards.sol\":1749:1765  earned(_account) */\n      jump\t// in\n    tag_155:\n        /* \"StakingRewards.sol\":1730:1736  reward */\n      0x07\n        /* \"StakingRewards.sol\":1730:1746  reward[_account] */\n      0x00\n        /* \"StakingRewards.sol\":1737:1745  _account */\n      dup4\n        /* \"StakingRewards.sol\":1730:1746  reward[_account] */\n      0xffffffffffffffffffffffffffffffffffffffff\n      and\n      0xffffffffffffffffffffffffffffffffffffffff\n      and\n      dup2\n      mstore\n      0x20\n      add\n      swap1\n      dup2\n      mstore\n      0x20\n      add\n      0x00\n      keccak256\n        /* \"StakingRewards.sol\":1730:1765  reward[_account] = earned(_account) */\n      dup2\n      swap1\n      sstore\n      pop\n        /* \"StakingRewards.sol\":1815:1835  rewardPerTokenStored */\n      sload(0x05)\n        /* \"StakingRewards.sol\":1780:1802  userRewardPerTokenPaid */\n      0x06\n        /* \"StakingRewards.sol\":1780:1812  userRewardPerTokenPaid[_account] */\n      0x00\n        /* \"StakingRewards.sol\":1803:1811  _account */\n      dup4\n        /* \"StakingRewards.sol\":1780:1812  userRewardPerTokenPaid[_account] */\n      0xffffffffffffffffffffffffffffffffffffffff\n      and\n      0xffffffffffffffffffffffffffffffffffffffff\n      and\n      dup2\n      mstore\n      0x20\n      add\n      swap1\n      dup2\n      mstore\n      0x20\n      add\n      0x00\n      keccak256\n        /* \"StakingRewards.sol\":1780:1835  userRewardPerTokenPaid[_account] = rewardPerTokenStored */\n      dup2\n      swap1\n      sstore\n      pop\n        /* \"StakingRewards.sol\":1678:1847  if (_account != address(0))... */\n    tag_154:\n        /* \"StakingRewards.sol\":4043:4053  uint rewrd */\n      0x00\n        /* \"StakingRewards.sol\":4056:4062  reward */\n      0x07\n        /* \"StakingRewards.sol\":4056:4074  reward[msg.sender] */\n      0x00\n        /* \"StakingRewards.sol\":4063:4073  msg.sender */\n      caller\n        /* \"StakingRewards.sol\":4056:4074  reward[msg.sender] */\n      0xffffffffffffffffffffffffffffffffffffffff\n      and\n      0xffffffffffffffffffffffffffffffffffffffff\n      and\n      dup2\n      mstore\n      0x20\n      add\n      swap1\n      dup2\n      mstore\n      0x20\n      add\n      0x00\n      keccak256\n      sload\n        /* \"StakingRewards.sol\":4043:4074  uint rewrd = reward[msg.sender] */\n      swap1\n      pop\n        /* \"StakingRewards.sol\":4096:4097  0 */\n      0x00\n        /* \"StakingRewards.sol\":4088:4093  rewrd */\n      dup2\n        /* \"StakingRewards.sol\":4088:4097  rewrd > 0 */\n      gt\n        /* \"StakingRewards.sol\":4085:4212  if(rewrd > 0)... */\n      iszero\n      tag_157\n      jumpi\n        /* \"StakingRewards.sol\":4144:4145  0 */\n      0x00\n        /* \"StakingRewards.sol\":4123:4129  reward */\n      0x07\n        /* \"StakingRewards.sol\":4123:4141  reward[msg.sender] */\n      0x00\n        /* \"StakingRewards.sol\":4130:4140  msg.sender */\n      caller\n        /* \"StakingRewards.sol\":4123:4141  reward[msg.sender] */\n      0xffffffffffffffffffffffffffffffffffffffff\n      and\n      0xffffffffffffffffffffffffffffffffffffffff\n      and\n      dup2\n      mstore\n      0x20\n      add\n      swap1\n      dup2\n      mstore\n      0x20\n      add\n      0x00\n      keccak256\n        /* \"StakingRewards.sol\":4123:4145  reward[msg.sender] = 0 */\n      dup2\n      swap1\n      sstore\n      pop\n        /* \"StakingRewards.sol\":4160:4172  rewardsToken */\n      immutable(\"0x57014f1e5f1d53e43fa40624186159531d6372d1ab8f40ec7882845ca66de31d\")\n        /* \"StakingRewards.sol\":4160:4181  rewardsToken.transfer */\n      0xffffffffffffffffffffffffffffffffffffffff\n      and\n      0xa9059cbb\n        /* \"StakingRewards.sol\":4182:4192  msg.sender */\n      caller\n        /* \"StakingRewards.sol\":4194:4199  rewrd */\n      dup4\n        /* \"StakingRewards.sol\":4160:4200  rewardsToken.transfer(msg.sender, rewrd) */\n      mload(0x40)\n      dup4\n      0xffffffff\n      and\n      0xe0\n      shl\n      dup2\n      mstore\n      0x04\n      add\n      tag_158\n      swap3\n      swap2\n      swap1\n      tag_116\n      jump\t// in\n    tag_158:\n      0x20\n      mload(0x40)\n      dup1\n      dup4\n      sub\n      dup2\n      0x00\n      dup8\n      gas\n      call\n      iszero\n      dup1\n      iszero\n      tag_160\n      jumpi\n      returndatasize\n      0x00\n      dup1\n      returndatacopy\n      revert(0x00, returndatasize)\n    tag_160:\n      pop\n      pop\n      pop\n      pop\n      mload(0x40)\n      returndatasize\n      not(0x1f)\n      0x1f\n      dup3\n      add\n      and\n      dup3\n      add\n      dup1\n      0x40\n      mstore\n      pop\n      dup2\n      add\n      swap1\n      tag_161\n      swap2\n      swap1\n      tag_120\n      jump\t// in\n    tag_161:\n      pop\n        /* \"StakingRewards.sol\":4085:4212  if(rewrd > 0)... */\n    tag_157:\n        /* \"StakingRewards.sol\":4032:4219  {... */\n      pop\n        /* \"StakingRewards.sol\":3972:4219  function getReward() external updateReward(msg.sender)... */\n      pop\n      jump\t// out\n        /* \"StakingRewards.sol\":1081:1120  mapping(address => uint)  public reward */\n    tag_49:\n      mstore(0x20, 0x07)\n      dup1\n      0x00\n      mstore\n      keccak256(0x00, 0x40)\n      0x00\n      swap2\n      pop\n      swap1\n      pop\n      sload\n      dup2\n      jump\t// out\n        /* \"StakingRewards.sol\":895:915  uint public finishAt */\n    tag_52:\n      sload(0x02)\n      dup2\n      jump\t// out\n        /* \"StakingRewards.sol\":1159:1200  mapping(address => uint) public balanceOf */\n    tag_56:\n      mstore(0x20, 0x09)\n      dup1\n      0x00\n      mstore\n      keccak256(0x00, 0x40)\n      0x00\n      swap2\n      pop\n      swap1\n      pop\n      sload\n      dup2\n      jump\t// out\n        /* \"StakingRewards.sol\":751:787  IERC20 public immutable stakingToken */\n    tag_59:\n      immutable(\"0x2cc0d3dcb20652cd8f106aee76b6a7391771a130885634c0eb2bbe3cde796691\")\n      dup2\n      jump\t// out\n        /* \"StakingRewards.sol\":922:943  uint public updatedAt */\n    tag_63:\n      sload(0x03)\n      dup2\n      jump\t// out\n        /* \"StakingRewards.sol\":950:972  uint public rewardRate */\n    tag_66:\n      sload(0x04)\n      dup2\n      jump\t// out\n        /* \"StakingRewards.sol\":3253:3373  function lastTimeRewardApplicable() public view returns (uint) {... */\n    tag_69:\n        /* \"StakingRewards.sol\":3310:3314  uint */\n      0x00\n        /* \"StakingRewards.sol\":3334:3365  _min(finishAt, block.timestamp) */\n      tag_163\n        /* \"StakingRewards.sol\":3339:3347  finishAt */\n      sload(0x02)\n        /* \"StakingRewards.sol\":3349:3364  block.timestamp */\n      timestamp\n        /* \"StakingRewards.sol\":3334:3338  _min */\n      tag_164\n        /* \"StakingRewards.sol\":3334:3365  _min(finishAt, block.timestamp) */\n      jump\t// in\n    tag_163:\n        /* \"StakingRewards.sol\":3327:3365  return _min(finishAt, block.timestamp) */\n      swap1\n      pop\n        /* \"StakingRewards.sol\":3253:3373  function lastTimeRewardApplicable() public view returns (uint) {... */\n      swap1\n      jump\t// out\n        /* \"StakingRewards.sol\":1020:1074  mapping(address => uint) public userRewardPerTokenPaid */\n    tag_73:\n      mstore(0x20, 0x06)\n      dup1\n      0x00\n      mstore\n      keccak256(0x00, 0x40)\n      0x00\n      swap2\n      pop\n      swap1\n      pop\n      sload\n      dup2\n      jump\t// out\n        /* \"StakingRewards.sol\":839:859  address public owner */\n    tag_76:\n      0x00\n      dup1\n      sload\n      swap1\n      0x0100\n      exp\n      swap1\n      div\n      0xffffffffffffffffffffffffffffffffffffffff\n      and\n      dup2\n      jump\t// out\n        /* \"StakingRewards.sol\":2713:2983  function stake(uint _amount) external updateReward(msg.sender)... */\n    tag_81:\n        /* \"StakingRewards.sol\":2764:2774  msg.sender */\n      caller\n        /* \"StakingRewards.sol\":1600:1616  rewardPerToken() */\n      tag_166\n        /* \"StakingRewards.sol\":1600:1614  rewardPerToken */\n      tag_86\n        /* \"StakingRewards.sol\":1600:1616  rewardPerToken() */\n      jump\t// in\n    tag_166:\n        /* \"StakingRewards.sol\":1577:1597  rewardPerTokenStored */\n      0x05\n        /* \"StakingRewards.sol\":1577:1616  rewardPerTokenStored = rewardPerToken() */\n      dup2\n      swap1\n      sstore\n      pop\n        /* \"StakingRewards.sol\":1639:1665  lastTimeRewardApplicable() */\n      tag_167\n        /* \"StakingRewards.sol\":1639:1663  lastTimeRewardApplicable */\n      tag_69\n        /* \"StakingRewards.sol\":1639:1665  lastTimeRewardApplicable() */\n      jump\t// in\n    tag_167:\n        /* \"StakingRewards.sol\":1627:1636  updatedAt */\n      0x03\n        /* \"StakingRewards.sol\":1627:1665  updatedAt = lastTimeRewardApplicable() */\n      dup2\n      swap1\n      sstore\n      pop\n        /* \"StakingRewards.sol\":1702:1703  0 */\n      0x00\n        /* \"StakingRewards.sol\":1682:1704  _account != address(0) */\n      0xffffffffffffffffffffffffffffffffffffffff\n      and\n        /* \"StakingRewards.sol\":1682:1690  _account */\n      dup2\n        /* \"StakingRewards.sol\":1682:1704  _account != address(0) */\n      0xffffffffffffffffffffffffffffffffffffffff\n      and\n      eq\n        /* \"StakingRewards.sol\":1678:1847  if (_account != address(0))... */\n      tag_168\n      jumpi\n        /* \"StakingRewards.sol\":1749:1765  earned(_account) */\n      tag_169\n        /* \"StakingRewards.sol\":1756:1764  _account */\n      dup2\n        /* \"StakingRewards.sol\":1749:1755  earned */\n      tag_29\n        /* \"StakingRewards.sol\":1749:1765  earned(_account) */\n      jump\t// in\n    tag_169:\n        /* \"StakingRewards.sol\":1730:1736  reward */\n      0x07\n        /* \"StakingRewards.sol\":1730:1746  reward[_account] */\n      0x00\n        /* \"StakingRewards.sol\":1737:1745  _account */\n      dup4\n        /* \"StakingRewards.sol\":1730:1746  reward[_account] */\n      0xffffffffffffffffffffffffffffffffffffffff\n      and\n      0xffffffffffffffffffffffffffffffffffffffff\n      and\n      dup2\n      mstore\n      0x20\n      add\n      swap1\n      dup2\n      mstore\n      0x20\n      add\n      0x00\n      keccak256\n        /* \"StakingRewards.sol\":1730:1765  reward[_account] = earned(_account) */\n      dup2\n      swap1\n      sstore\n      pop\n        /* \"StakingRewards.sol\":1815:1835  rewardPerTokenStored */\n      sload(0x05)\n        /* \"StakingRewards.sol\":1780:1802  userRewardPerTokenPaid */\n      0x06\n        /* \"StakingRewards.sol\":1780:1812  userRewardPerTokenPaid[_account] */\n      0x00\n        /* \"StakingRewards.sol\":1803:1811  _account */\n      dup4\n        /* \"StakingRewards.sol\":1780:1812  userRewardPerTokenPaid[_account] */\n      0xffffffffffffffffffffffffffffffffffffffff\n      and\n      0xffffffffffffffffffffffffffffffffffffffff\n      and\n      dup2\n      mstore\n      0x20\n      add\n      swap1\n      dup2\n      mstore\n      0x20\n      add\n      0x00\n      keccak256\n        /* \"StakingRewards.sol\":1780:1835  userRewardPerTokenPaid[_account] = rewardPerTokenStored */\n      dup2\n      swap1\n      sstore\n      pop\n        /* \"StakingRewards.sol\":1678:1847  if (_account != address(0))... */\n    tag_168:\n        /* \"StakingRewards.sol\":2810:2811  0 */\n      0x00\n        /* \"StakingRewards.sol\":2800:2807  _amount */\n      dup3\n        /* \"StakingRewards.sol\":2800:2811  _amount > 0 */\n      gt\n        /* \"StakingRewards.sol\":2792:2827  require(_amount > 0, \" amount = 0\") */\n      tag_171\n      jumpi\n      mload(0x40)\n      0x08c379a000000000000000000000000000000000000000000000000000000000\n      dup2\n      mstore\n      0x04\n      add\n      tag_172\n      swap1\n      tag_173\n      jump\t// in\n    tag_172:\n      mload(0x40)\n      dup1\n      swap2\n      sub\n      swap1\n      revert\n    tag_171:\n        /* \"StakingRewards.sol\":2838:2850  stakingToken */\n      immutable(\"0x2cc0d3dcb20652cd8f106aee76b6a7391771a130885634c0eb2bbe3cde796691\")\n        /* \"StakingRewards.sol\":2838:2863  stakingToken.transferFrom */\n      0xffffffffffffffffffffffffffffffffffffffff\n      and\n      0x23b872dd\n        /* \"StakingRewards.sol\":2864:2874  msg.sender */\n      caller\n        /* \"StakingRewards.sol\":2884:2888  this */\n      address\n        /* \"StakingRewards.sol\":2891:2898  _amount */\n      dup6\n        /* \"StakingRewards.sol\":2838:2899  stakingToken.transferFrom(msg.sender, address(this), _amount) */\n      mload(0x40)\n      dup5\n      0xffffffff\n      and\n      0xe0\n      shl\n      dup2\n      mstore\n      0x04\n      add\n      tag_174\n      swap4\n      swap3\n      swap2\n      swap1\n      tag_175\n      jump\t// in\n    tag_174:\n      0x20\n      mload(0x40)\n      dup1\n      dup4\n      sub\n      dup2\n      0x00\n      dup8\n      gas\n      call\n      iszero\n      dup1\n      iszero\n      tag_177\n      jumpi\n      returndatasize\n      0x00\n      dup1\n      returndatacopy\n      revert(0x00, returndatasize)\n    tag_177:\n      pop\n      pop\n      pop\n      pop\n      mload(0x40)\n      returndatasize\n      not(0x1f)\n      0x1f\n      dup3\n      add\n      and\n      dup3\n      add\n      dup1\n      0x40\n      mstore\n      pop\n      dup2\n      add\n      swap1\n      tag_178\n      swap2\n      swap1\n      tag_120\n      jump\t// in\n    tag_178:\n      pop\n        /* \"StakingRewards.sol\":2935:2942  _amount */\n      dup2\n        /* \"StakingRewards.sol\":2910:2919  balanceOf */\n      0x09\n        /* \"StakingRewards.sol\":2910:2931  balanceOf[msg.sender] */\n      0x00\n        /* \"StakingRewards.sol\":2920:2930  msg.sender */\n      caller\n        /* \"StakingRewards.sol\":2910:2931  balanceOf[msg.sender] */\n      0xffffffffffffffffffffffffffffffffffffffff\n      and\n      0xffffffffffffffffffffffffffffffffffffffff\n      and\n      dup2\n      mstore\n      0x20\n      add\n      swap1\n      dup2\n      mstore\n      0x20\n      add\n      0x00\n      keccak256\n      0x00\n        /* \"StakingRewards.sol\":2910:2942  balanceOf[msg.sender] += _amount */\n      dup3\n      dup3\n      sload\n      tag_179\n      swap2\n      swap1\n      tag_103\n      jump\t// in\n    tag_179:\n      swap3\n      pop\n      pop\n      dup2\n      swap1\n      sstore\n      pop\n        /* \"StakingRewards.sol\":2968:2975  _amount */\n      dup2\n        /* \"StakingRewards.sol\":2953:2964  totalSupply */\n      0x08\n      0x00\n        /* \"StakingRewards.sol\":2953:2975  totalSupply += _amount */\n      dup3\n      dup3\n      sload\n      tag_180\n      swap2\n      swap1\n      tag_103\n      jump\t// in\n    tag_180:\n      swap3\n      pop\n      pop\n      dup2\n      swap1\n      sstore\n      pop\n        /* \"StakingRewards.sol\":2713:2983  function stake(uint _amount) external updateReward(msg.sender)... */\n      pop\n      pop\n      jump\t// out\n        /* \"StakingRewards.sol\":1874:2058  function setRewardDuration(uint _duration) external onlyOwner... */\n    tag_84:\n        /* \"StakingRewards.sol\":1466:1471  owner */\n      0x00\n      dup1\n      sload\n      swap1\n      0x0100\n      exp\n      swap1\n      div\n      0xffffffffffffffffffffffffffffffffffffffff\n      and\n        /* \"StakingRewards.sol\":1454:1471  msg.sender==owner */\n      0xffffffffffffffffffffffffffffffffffffffff\n      and\n        /* \"StakingRewards.sol\":1454:1464  msg.sender */\n      caller\n        /* \"StakingRewards.sol\":1454:1471  msg.sender==owner */\n      0xffffffffffffffffffffffffffffffffffffffff\n      and\n      eq\n        /* \"StakingRewards.sol\":1446:1492  require(msg.sender==owner,\"You are not owner\") */\n      tag_182\n      jumpi\n      mload(0x40)\n      0x08c379a000000000000000000000000000000000000000000000000000000000\n      dup2\n      mstore\n      0x04\n      add\n      tag_183\n      swap1\n      tag_124\n      jump\t// in\n    tag_183:\n      mload(0x40)\n      dup1\n      swap2\n      sub\n      swap1\n      revert\n    tag_182:\n        /* \"StakingRewards.sol\":1971:1986  block.timestamp */\n      timestamp\n        /* \"StakingRewards.sol\":1960:1968  finishAt */\n      sload(0x02)\n        /* \"StakingRewards.sol\":1960:1986  finishAt < block.timestamp */\n      lt\n        /* \"StakingRewards.sol\":1952:2019  require(finishAt < block.timestamp, \"reward duration not finished\") */\n      tag_185\n      jumpi\n      mload(0x40)\n      0x08c379a000000000000000000000000000000000000000000000000000000000\n      dup2\n      mstore\n      0x04\n      add\n      tag_186\n      swap1\n      tag_187\n      jump\t// in\n    tag_186:\n      mload(0x40)\n      dup1\n      swap2\n      sub\n      swap1\n      revert\n    tag_185:\n        /* \"StakingRewards.sol\":2041:2050  _duration */\n      dup1\n        /* \"StakingRewards.sol\":2030:2038  duration */\n      0x01\n        /* \"StakingRewards.sol\":2030:2050  duration = _duration */\n      dup2\n      swap1\n      sstore\n      pop\n        /* \"StakingRewards.sol\":1874:2058  function setRewardDuration(uint _duration) external onlyOwner... */\n      pop\n      jump\t// out\n        /* \"StakingRewards.sol\":3485:3761  function rewardPerToken() public view returns(uint)... */\n    tag_86:\n        /* \"StakingRewards.sol\":3531:3535  uint */\n      0x00\n        /* \"StakingRewards.sol\":3571:3572  0 */\n      dup1\n        /* \"StakingRewards.sol\":3556:3567  totalSupply */\n      sload(0x08)\n        /* \"StakingRewards.sol\":3556:3572  totalSupply == 0 */\n      sub\n        /* \"StakingRewards.sol\":3553:3637  if(totalSupply == 0)... */\n      tag_189\n      jumpi\n        /* \"StakingRewards.sol\":3605:3625  rewardPerTokenStored */\n      sload(0x05)\n        /* \"StakingRewards.sol\":3598:3625  return rewardPerTokenStored */\n      swap1\n      pop\n      jump(tag_188)\n        /* \"StakingRewards.sol\":3553:3637  if(totalSupply == 0)... */\n    tag_189:\n        /* \"StakingRewards.sol\":3742:3753  totalSupply */\n      sload(0x08)\n        /* \"StakingRewards.sol\":3734:3738  1e18 */\n      0x0de0b6b3a7640000\n        /* \"StakingRewards.sol\":3721:3730  updatedAt */\n      sload(0x03)\n        /* \"StakingRewards.sol\":3692:3718  lastTimeRewardApplicable() */\n      tag_190\n        /* \"StakingRewards.sol\":3692:3716  lastTimeRewardApplicable */\n      tag_69\n        /* \"StakingRewards.sol\":3692:3718  lastTimeRewardApplicable() */\n      jump\t// in\n    tag_190:\n        /* \"StakingRewards.sol\":3692:3730  lastTimeRewardApplicable() - updatedAt */\n      tag_191\n      swap2\n      swap1\n      tag_97\n      jump\t// in\n    tag_191:\n        /* \"StakingRewards.sol\":3678:3688  rewardRate */\n      sload(0x04)\n        /* \"StakingRewards.sol\":3678:3731  rewardRate * (lastTimeRewardApplicable() - updatedAt) */\n      tag_192\n      swap2\n      swap1\n      tag_99\n      jump\t// in\n    tag_192:\n        /* \"StakingRewards.sol\":3678:3738  rewardRate * (lastTimeRewardApplicable() - updatedAt) * 1e18 */\n      tag_193\n      swap2\n      swap1\n      tag_99\n      jump\t// in\n    tag_193:\n        /* \"StakingRewards.sol\":3677:3753  (rewardRate * (lastTimeRewardApplicable() - updatedAt) * 1e18) / totalSupply */\n      tag_194\n      swap2\n      swap1\n      tag_101\n      jump\t// in\n    tag_194:\n        /* \"StakingRewards.sol\":3654:3674  rewardPerTokenStored */\n      sload(0x05)\n        /* \"StakingRewards.sol\":3654:3753  rewardPerTokenStored + (rewardRate * (lastTimeRewardApplicable() - updatedAt) * 1e18) / totalSupply */\n      tag_195\n      swap2\n      swap1\n      tag_103\n      jump\t// in\n    tag_195:\n        /* \"StakingRewards.sol\":3647:3753  return rewardPerTokenStored + (rewardRate * (lastTimeRewardApplicable() - updatedAt) * 1e18) / totalSupply */\n      swap1\n      pop\n        /* \"StakingRewards.sol\":3485:3761  function rewardPerToken() public view returns(uint)... */\n    tag_188:\n      swap1\n      jump\t// out\n        /* \"StakingRewards.sol\":794:830  IERC20 public immutable rewardsToken */\n    tag_89:\n      immutable(\"0x57014f1e5f1d53e43fa40624186159531d6372d1ab8f40ec7882845ca66de31d\")\n      dup2\n      jump\t// out\n        /* \"StakingRewards.sol\":979:1011  uint public rewardPerTokenStored */\n    tag_92:\n      sload(0x05)\n      dup2\n      jump\t// out\n        /* \"StakingRewards.sol\":3379:3477  function _min(uint x, uint y) private pure returns (uint) {... */\n    tag_164:\n        /* \"StakingRewards.sol\":3431:3435  uint */\n      0x00\n        /* \"StakingRewards.sol\":3460:3461  y */\n      dup2\n        /* \"StakingRewards.sol\":3455:3456  x */\n      dup4\n        /* \"StakingRewards.sol\":3455:3461  x <= y */\n      gt\n      iszero\n        /* \"StakingRewards.sol\":3455:3469  x <= y ? x : y */\n      tag_197\n      jumpi\n        /* \"StakingRewards.sol\":3468:3469  y */\n      dup2\n        /* \"StakingRewards.sol\":3455:3469  x <= y ? x : y */\n      jump(tag_198)\n    tag_197:\n        /* \"StakingRewards.sol\":3464:3465  x */\n      dup3\n        /* \"StakingRewards.sol\":3455:3469  x <= y ? x : y */\n    tag_198:\n        /* \"StakingRewards.sol\":3448:3469  return x <= y ? x : y */\n      swap1\n      pop\n        /* \"StakingRewards.sol\":3379:3477  function _min(uint x, uint y) private pure returns (uint) {... */\n      swap3\n      swap2\n      pop\n      pop\n      jump\t// out\n        /* \"#utility.yul\":88:205   */\n    tag_200:\n        /* \"#utility.yul\":197:198   */\n      0x00\n        /* \"#utility.yul\":194:195   */\n      dup1\n        /* \"#utility.yul\":187:199   */\n      revert\n        /* \"#utility.yul\":334:460   */\n    tag_202:\n        /* \"#utility.yul\":371:378   */\n      0x00\n        /* \"#utility.yul\":411:453   */\n      0xffffffffffffffffffffffffffffffffffffffff\n        /* \"#utility.yul\":404:409   */\n      dup3\n        /* \"#utility.yul\":400:454   */\n      and\n        /* \"#utility.yul\":389:454   */\n      swap1\n      pop\n        /* \"#utility.yul\":334:460   */\n      swap2\n      swap1\n      pop\n      jump\t// out\n        /* \"#utility.yul\":466:562   */\n    tag_203:\n        /* \"#utility.yul\":503:510   */\n      0x00\n        /* \"#utility.yul\":532:556   */\n      tag_241\n        /* \"#utility.yul\":550:555   */\n      dup3\n        /* \"#utility.yul\":532:556   */\n      tag_202\n      jump\t// in\n    tag_241:\n        /* \"#utility.yul\":521:556   */\n      swap1\n      pop\n        /* \"#utility.yul\":466:562   */\n      swap2\n      swap1\n      pop\n      jump\t// out\n        /* \"#utility.yul\":568:690   */\n    tag_204:\n        /* \"#utility.yul\":641:665   */\n      tag_243\n        /* \"#utility.yul\":659:664   */\n      dup2\n        /* \"#utility.yul\":641:665   */\n      tag_203\n      jump\t// in\n    tag_243:\n        /* \"#utility.yul\":634:639   */\n      dup2\n        /* \"#utility.yul\":631:666   */\n      eq\n        /* \"#utility.yul\":621:684   */\n      tag_244\n      jumpi\n        /* \"#utility.yul\":680:681   */\n      0x00\n        /* \"#utility.yul\":677:678   */\n      dup1\n        /* \"#utility.yul\":670:682   */\n      revert\n        /* \"#utility.yul\":621:684   */\n    tag_244:\n        /* \"#utility.yul\":568:690   */\n      pop\n      jump\t// out\n        /* \"#utility.yul\":696:835   */\n    tag_205:\n        /* \"#utility.yul\":742:747   */\n      0x00\n        /* \"#utility.yul\":780:786   */\n      dup2\n        /* \"#utility.yul\":767:787   */\n      calldataload\n        /* \"#utility.yul\":758:787   */\n      swap1\n      pop\n        /* \"#utility.yul\":796:829   */\n      tag_246\n        /* \"#utility.yul\":823:828   */\n      dup2\n        /* \"#utility.yul\":796:829   */\n      tag_204\n      jump\t// in\n    tag_246:\n        /* \"#utility.yul\":696:835   */\n      swap3\n      swap2\n      pop\n      pop\n      jump\t// out\n        /* \"#utility.yul\":841:1170   */\n    tag_28:\n        /* \"#utility.yul\":900:906   */\n      0x00\n        /* \"#utility.yul\":949:951   */\n      0x20\n        /* \"#utility.yul\":937:946   */\n      dup3\n        /* \"#utility.yul\":928:935   */\n      dup5\n        /* \"#utility.yul\":924:947   */\n      sub\n        /* \"#utility.yul\":920:952   */\n      slt\n        /* \"#utility.yul\":917:1036   */\n      iszero\n      tag_248\n      jumpi\n        /* \"#utility.yul\":955:1034   */\n      tag_249\n      tag_200\n      jump\t// in\n    tag_249:\n        /* \"#utility.yul\":917:1036   */\n    tag_248:\n        /* \"#utility.yul\":1075:1076   */\n      0x00\n        /* \"#utility.yul\":1100:1153   */\n      tag_250\n        /* \"#utility.yul\":1145:1152   */\n      dup5\n        /* \"#utility.yul\":1136:1142   */\n      dup3\n        /* \"#utility.yul\":1125:1134   */\n      dup6\n        /* \"#utility.yul\":1121:1143   */\n      add\n        /* \"#utility.yul\":1100:1153   */\n      tag_205\n      jump\t// in\n    tag_250:\n        /* \"#utility.yul\":1090:1153   */\n      swap2\n      pop\n        /* \"#utility.yul\":1046:1163   */\n      pop\n        /* \"#utility.yul\":841:1170   */\n      swap3\n      swap2\n      pop\n      pop\n      jump\t// out\n        /* \"#utility.yul\":1176:1253   */\n    tag_206:\n        /* \"#utility.yul\":1213:1220   */\n      0x00\n        /* \"#utility.yul\":1242:1247   */\n      dup2\n        /* \"#utility.yul\":1231:1247   */\n      swap1\n      pop\n        /* \"#utility.yul\":1176:1253   */\n      swap2\n      swap1\n      pop\n      jump\t// out\n        /* \"#utility.yul\":1259:1377   */\n    tag_207:\n        /* \"#utility.yul\":1346:1370   */\n      tag_253\n        /* \"#utility.yul\":1364:1369   */\n      dup2\n        /* \"#utility.yul\":1346:1370   */\n      tag_206\n      jump\t// in\n    tag_253:\n        /* \"#utility.yul\":1341:1344   */\n      dup3\n        /* \"#utility.yul\":1334:1371   */\n      mstore\n        /* \"#utility.yul\":1259:1377   */\n      pop\n      pop\n      jump\t// out\n        /* \"#utility.yul\":1383:1605   */\n    tag_31:\n        /* \"#utility.yul\":1476:1480   */\n      0x00\n        /* \"#utility.yul\":1514:1516   */\n      0x20\n        /* \"#utility.yul\":1503:1512   */\n      dup3\n        /* \"#utility.yul\":1499:1517   */\n      add\n        /* \"#utility.yul\":1491:1517   */\n      swap1\n      pop\n        /* \"#utility.yul\":1527:1598   */\n      tag_255\n        /* \"#utility.yul\":1595:1596   */\n      0x00\n        /* \"#utility.yul\":1584:1593   */\n      dup4\n        /* \"#utility.yul\":1580:1597   */\n      add\n        /* \"#utility.yul\":1571:1577   */\n      dup5\n        /* \"#utility.yul\":1527:1598   */\n      tag_207\n      jump\t// in\n    tag_255:\n        /* \"#utility.yul\":1383:1605   */\n      swap3\n      swap2\n      pop\n      pop\n      jump\t// out\n        /* \"#utility.yul\":1611:1733   */\n    tag_208:\n        /* \"#utility.yul\":1684:1708   */\n      tag_257\n        /* \"#utility.yul\":1702:1707   */\n      dup2\n        /* \"#utility.yul\":1684:1708   */\n      tag_206\n      jump\t// in\n    tag_257:\n        /* \"#utility.yul\":1677:1682   */\n      dup2\n        /* \"#utility.yul\":1674:1709   */\n      eq\n        /* \"#utility.yul\":1664:1727   */\n      tag_258\n      jumpi\n        /* \"#utility.yul\":1723:1724   */\n      0x00\n        /* \"#utility.yul\":1720:1721   */\n      dup1\n        /* \"#utility.yul\":1713:1725   */\n      revert\n        /* \"#utility.yul\":1664:1727   */\n    tag_258:\n        /* \"#utility.yul\":1611:1733   */\n      pop\n      jump\t// out\n        /* \"#utility.yul\":1739:1878   */\n    tag_209:\n        /* \"#utility.yul\":1785:1790   */\n      0x00\n        /* \"#utility.yul\":1823:1829   */\n      dup2\n        /* \"#utility.yul\":1810:1830   */\n      calldataload\n        /* \"#utility.yul\":1801:1830   */\n      swap1\n      pop\n        /* \"#utility.yul\":1839:1872   */\n      tag_260\n        /* \"#utility.yul\":1866:1871   */\n      dup2\n        /* \"#utility.yul\":1839:1872   */\n      tag_208\n      jump\t// in\n    tag_260:\n        /* \"#utility.yul\":1739:1878   */\n      swap3\n      swap2\n      pop\n      pop\n      jump\t// out\n        /* \"#utility.yul\":1884:2213   */\n    tag_40:\n        /* \"#utility.yul\":1943:1949   */\n      0x00\n        /* \"#utility.yul\":1992:1994   */\n      0x20\n        /* \"#utility.yul\":1980:1989   */\n      dup3\n        /* \"#utility.yul\":1971:1978   */\n      dup5\n        /* \"#utility.yul\":1967:1990   */\n      sub\n        /* \"#utility.yul\":1963:1995   */\n      slt\n        /* \"#utility.yul\":1960:2079   */\n      iszero\n      tag_262\n      jumpi\n        /* \"#utility.yul\":1998:2077   */\n      tag_263\n      tag_200\n      jump\t// in\n    tag_263:\n        /* \"#utility.yul\":1960:2079   */\n    tag_262:\n        /* \"#utility.yul\":2118:2119   */\n      0x00\n        /* \"#utility.yul\":2143:2196   */\n      tag_264\n        /* \"#utility.yul\":2188:2195   */\n      dup5\n        /* \"#utility.yul\":2179:2185   */\n      dup3\n        /* \"#utility.yul\":2168:2177   */\n      dup6\n        /* \"#utility.yul\":2164:2186   */\n      add\n        /* \"#utility.yul\":2143:2196   */\n      tag_209\n      jump\t// in\n    tag_264:\n        /* \"#utility.yul\":2133:2196   */\n      swap2\n      pop\n        /* \"#utility.yul\":2089:2206   */\n      pop\n        /* \"#utility.yul\":1884:2213   */\n      swap3\n      swap2\n      pop\n      pop\n      jump\t// out\n        /* \"#utility.yul\":2219:2279   */\n    tag_210:\n        /* \"#utility.yul\":2247:2250   */\n      0x00\n        /* \"#utility.yul\":2268:2273   */\n      dup2\n        /* \"#utility.yul\":2261:2273   */\n      swap1\n      pop\n        /* \"#utility.yul\":2219:2279   */\n      swap2\n      swap1\n      pop\n      jump\t// out\n        /* \"#utility.yul\":2285:2427   */\n    tag_211:\n        /* \"#utility.yul\":2335:2344   */\n      0x00\n        /* \"#utility.yul\":2368:2421   */\n      tag_267\n        /* \"#utility.yul\":2386:2420   */\n      tag_268\n        /* \"#utility.yul\":2395:2419   */\n      tag_269\n        /* \"#utility.yul\":2413:2418   */\n      dup5\n        /* \"#utility.yul\":2395:2419   */\n      tag_202\n      jump\t// in\n    tag_269:\n        /* \"#utility.yul\":2386:2420   */\n      tag_210\n      jump\t// in\n    tag_268:\n        /* \"#utility.yul\":2368:2421   */\n      tag_202\n      jump\t// in\n    tag_267:\n        /* \"#utility.yul\":2355:2421   */\n      swap1\n      pop\n        /* \"#utility.yul\":2285:2427   */\n      swap2\n      swap1\n      pop\n      jump\t// out\n        /* \"#utility.yul\":2433:2559   */\n    tag_212:\n        /* \"#utility.yul\":2483:2492   */\n      0x00\n        /* \"#utility.yul\":2516:2553   */\n      tag_271\n        /* \"#utility.yul\":2547:2552   */\n      dup3\n        /* \"#utility.yul\":2516:2553   */\n      tag_211\n      jump\t// in\n    tag_271:\n        /* \"#utility.yul\":2503:2553   */\n      swap1\n      pop\n        /* \"#utility.yul\":2433:2559   */\n      swap2\n      swap1\n      pop\n      jump\t// out\n        /* \"#utility.yul\":2565:2704   */\n    tag_213:\n        /* \"#utility.yul\":2628:2637   */\n      0x00\n        /* \"#utility.yul\":2661:2698   */\n      tag_273\n        /* \"#utility.yul\":2692:2697   */\n      dup3\n        /* \"#utility.yul\":2661:2698   */\n      tag_212\n      jump\t// in\n    tag_273:\n        /* \"#utility.yul\":2648:2698   */\n      swap1\n      pop\n        /* \"#utility.yul\":2565:2704   */\n      swap2\n      swap1\n      pop\n      jump\t// out\n        /* \"#utility.yul\":2710:2867   */\n    tag_214:\n        /* \"#utility.yul\":2810:2860   */\n      tag_275\n        /* \"#utility.yul\":2854:2859   */\n      dup2\n        /* \"#utility.yul\":2810:2860   */\n      tag_213\n      jump\t// in\n    tag_275:\n        /* \"#utility.yul\":2805:2808   */\n      dup3\n        /* \"#utility.yul\":2798:2861   */\n      mstore\n        /* \"#utility.yul\":2710:2867   */\n      pop\n      pop\n      jump\t// out\n        /* \"#utility.yul\":2873:3121   */\n    tag_61:\n        /* \"#utility.yul\":2979:2983   */\n      0x00\n        /* \"#utility.yul\":3017:3019   */\n      0x20\n        /* \"#utility.yul\":3006:3015   */\n      dup3\n        /* \"#utility.yul\":3002:3020   */\n      add\n        /* \"#utility.yul\":2994:3020   */\n      swap1\n      pop\n        /* \"#utility.yul\":3030:3114   */\n      tag_277\n        /* \"#utility.yul\":3111:3112   */\n      0x00\n        /* \"#utility.yul\":3100:3109   */\n      dup4\n        /* \"#utility.yul\":3096:3113   */\n      add\n        /* \"#utility.yul\":3087:3093   */\n      dup5\n        /* \"#utility.yul\":3030:3114   */\n      tag_214\n      jump\t// in\n    tag_277:\n        /* \"#utility.yul\":2873:3121   */\n      swap3\n      swap2\n      pop\n      pop\n      jump\t// out\n        /* \"#utility.yul\":3127:3245   */\n    tag_215:\n        /* \"#utility.yul\":3214:3238   */\n      tag_279\n        /* \"#utility.yul\":3232:3237   */\n      dup2\n        /* \"#utility.yul\":3214:3238   */\n      tag_203\n      jump\t// in\n    tag_279:\n        /* \"#utility.yul\":3209:3212   */\n      dup3\n        /* \"#utility.yul\":3202:3239   */\n      mstore\n        /* \"#utility.yul\":3127:3245   */\n      pop\n      pop\n      jump\t// out\n        /* \"#utility.yul\":3251:3473   */\n    tag_78:\n        /* \"#utility.yul\":3344:3348   */\n      0x00\n        /* \"#utility.yul\":3382:3384   */\n      0x20\n        /* \"#utility.yul\":3371:3380   */\n      dup3\n        /* \"#utility.yul\":3367:3385   */\n      add\n        /* \"#utility.yul\":3359:3385   */\n      swap1\n      pop\n        /* \"#utility.yul\":3395:3466   */\n      tag_281\n        /* \"#utility.yul\":3463:3464   */\n      0x00\n        /* \"#utility.yul\":3452:3461   */\n      dup4\n        /* \"#utility.yul\":3448:3465   */\n      add\n        /* \"#utility.yul\":3439:3445   */\n      dup5\n        /* \"#utility.yul\":3395:3466   */\n      tag_215\n      jump\t// in\n    tag_281:\n        /* \"#utility.yul\":3251:3473   */\n      swap3\n      swap2\n      pop\n      pop\n      jump\t// out\n        /* \"#utility.yul\":3479:3659   */\n    tag_216:\n        /* \"#utility.yul\":3527:3604   */\n      0x4e487b7100000000000000000000000000000000000000000000000000000000\n        /* \"#utility.yul\":3524:3525   */\n      0x00\n        /* \"#utility.yul\":3517:3605   */\n      mstore\n        /* \"#utility.yul\":3624:3628   */\n      0x11\n        /* \"#utility.yul\":3621:3622   */\n      0x04\n        /* \"#utility.yul\":3614:3629   */\n      mstore\n        /* \"#utility.yul\":3648:3652   */\n      0x24\n        /* \"#utility.yul\":3645:3646   */\n      0x00\n        /* \"#utility.yul\":3638:3653   */\n      revert\n        /* \"#utility.yul\":3665:3859   */\n    tag_97:\n        /* \"#utility.yul\":3705:3709   */\n      0x00\n        /* \"#utility.yul\":3725:3745   */\n      tag_284\n        /* \"#utility.yul\":3743:3744   */\n      dup3\n        /* \"#utility.yul\":3725:3745   */\n      tag_206\n      jump\t// in\n    tag_284:\n        /* \"#utility.yul\":3720:3745   */\n      swap2\n      pop\n        /* \"#utility.yul\":3759:3779   */\n      tag_285\n        /* \"#utility.yul\":3777:3778   */\n      dup4\n        /* \"#utility.yul\":3759:3779   */\n      tag_206\n      jump\t// in\n    tag_285:\n        /* \"#utility.yul\":3754:3779   */\n      swap3\n      pop\n        /* \"#utility.yul\":3803:3804   */\n      dup3\n        /* \"#utility.yul\":3800:3801   */\n      dup3\n        /* \"#utility.yul\":3796:3805   */\n      sub\n        /* \"#utility.yul\":3788:3805   */\n      swap1\n      pop\n        /* \"#utility.yul\":3827:3828   */\n      dup2\n        /* \"#utility.yul\":3821:3825   */\n      dup2\n        /* \"#utility.yul\":3818:3829   */\n      gt\n        /* \"#utility.yul\":3815:3852   */\n      iszero\n      tag_286\n      jumpi\n        /* \"#utility.yul\":3832:3850   */\n      tag_287\n      tag_216\n      jump\t// in\n    tag_287:\n        /* \"#utility.yul\":3815:3852   */\n    tag_286:\n        /* \"#utility.yul\":3665:3859   */\n      swap3\n      swap2\n      pop\n      pop\n      jump\t// out\n        /* \"#utility.yul\":3865:4275   */\n    tag_99:\n        /* \"#utility.yul\":3905:3912   */\n      0x00\n        /* \"#utility.yul\":3928:3948   */\n      tag_289\n        /* \"#utility.yul\":3946:3947   */\n      dup3\n        /* \"#utility.yul\":3928:3948   */\n      tag_206\n      jump\t// in\n    tag_289:\n        /* \"#utility.yul\":3923:3948   */\n      swap2\n      pop\n        /* \"#utility.yul\":3962:3982   */\n      tag_290\n        /* \"#utility.yul\":3980:3981   */\n      dup4\n        /* \"#utility.yul\":3962:3982   */\n      tag_206\n      jump\t// in\n    tag_290:\n        /* \"#utility.yul\":3957:3982   */\n      swap3\n      pop\n        /* \"#utility.yul\":4017:4018   */\n      dup3\n        /* \"#utility.yul\":4014:4015   */\n      dup3\n        /* \"#utility.yul\":4010:4019   */\n      mul\n        /* \"#utility.yul\":4039:4069   */\n      tag_291\n        /* \"#utility.yul\":4057:4068   */\n      dup2\n        /* \"#utility.yul\":4039:4069   */\n      tag_206\n      jump\t// in\n    tag_291:\n        /* \"#utility.yul\":4028:4069   */\n      swap2\n      pop\n        /* \"#utility.yul\":4218:4219   */\n      dup3\n        /* \"#utility.yul\":4209:4216   */\n      dup3\n        /* \"#utility.yul\":4205:4220   */\n      div\n        /* \"#utility.yul\":4202:4203   */\n      dup5\n        /* \"#utility.yul\":4199:4221   */\n      eq\n        /* \"#utility.yul\":4179:4180   */\n      dup4\n        /* \"#utility.yul\":4172:4181   */\n      iszero\n        /* \"#utility.yul\":4152:4235   */\n      or\n        /* \"#utility.yul\":4129:4268   */\n      tag_292\n      jumpi\n        /* \"#utility.yul\":4248:4266   */\n      tag_293\n      tag_216\n      jump\t// in\n    tag_293:\n        /* \"#utility.yul\":4129:4268   */\n    tag_292:\n        /* \"#utility.yul\":3913:4275   */\n      pop\n        /* \"#utility.yul\":3865:4275   */\n      swap3\n      swap2\n      pop\n      pop\n      jump\t// out\n        /* \"#utility.yul\":4281:4461   */\n    tag_217:\n        /* \"#utility.yul\":4329:4406   */\n      0x4e487b7100000000000000000000000000000000000000000000000000000000\n        /* \"#utility.yul\":4326:4327   */\n      0x00\n        /* \"#utility.yul\":4319:4407   */\n      mstore\n        /* \"#utility.yul\":4426:4430   */\n      0x12\n        /* \"#utility.yul\":4423:4424   */\n      0x04\n        /* \"#utility.yul\":4416:4431   */\n      mstore\n        /* \"#utility.yul\":4450:4454   */\n      0x24\n        /* \"#utility.yul\":4447:4448   */\n      0x00\n        /* \"#utility.yul\":4440:4455   */\n      revert\n        /* \"#utility.yul\":4467:4652   */\n    tag_101:\n        /* \"#utility.yul\":4507:4508   */\n      0x00\n        /* \"#utility.yul\":4524:4544   */\n      tag_296\n        /* \"#utility.yul\":4542:4543   */\n      dup3\n        /* \"#utility.yul\":4524:4544   */\n      tag_206\n      jump\t// in\n    tag_296:\n        /* \"#utility.yul\":4519:4544   */\n      swap2\n      pop\n        /* \"#utility.yul\":4558:4578   */\n      tag_297\n        /* \"#utility.yul\":4576:4577   */\n      dup4\n        /* \"#utility.yul\":4558:4578   */\n      tag_206\n      jump\t// in\n    tag_297:\n        /* \"#utility.yul\":4553:4578   */\n      swap3\n      pop\n        /* \"#utility.yul\":4597:4598   */\n      dup3\n        /* \"#utility.yul\":4587:4622   */\n      tag_298\n      jumpi\n        /* \"#utility.yul\":4602:4620   */\n      tag_299\n      tag_217\n      jump\t// in\n    tag_299:\n        /* \"#utility.yul\":4587:4622   */\n    tag_298:\n        /* \"#utility.yul\":4644:4645   */\n      dup3\n        /* \"#utility.yul\":4641:4642   */\n      dup3\n        /* \"#utility.yul\":4637:4646   */\n      div\n        /* \"#utility.yul\":4632:4646   */\n      swap1\n      pop\n        /* \"#utility.yul\":4467:4652   */\n      swap3\n      swap2\n      pop\n      pop\n      jump\t// out\n        /* \"#utility.yul\":4658:4849   */\n    tag_103:\n        /* \"#utility.yul\":4698:4701   */\n      0x00\n        /* \"#utility.yul\":4717:4737   */\n      tag_301\n        /* \"#utility.yul\":4735:4736   */\n      dup3\n        /* \"#utility.yul\":4717:4737   */\n      tag_206\n      jump\t// in\n    tag_301:\n        /* \"#utility.yul\":4712:4737   */\n      swap2\n      pop\n        /* \"#utility.yul\":4751:4771   */\n      tag_302\n        /* \"#utility.yul\":4769:4770   */\n      dup4\n        /* \"#utility.yul\":4751:4771   */\n      tag_206\n      jump\t// in\n    tag_302:\n        /* \"#utility.yul\":4746:4771   */\n      swap3\n      pop\n        /* \"#utility.yul\":4794:4795   */\n      dup3\n        /* \"#utility.yul\":4791:4792   */\n      dup3\n        /* \"#utility.yul\":4787:4796   */\n      add\n        /* \"#utility.yul\":4780:4796   */\n      swap1\n      pop\n        /* \"#utility.yul\":4815:4818   */\n      dup1\n        /* \"#utility.yul\":4812:4813   */\n      dup3\n        /* \"#utility.yul\":4809:4819   */\n      gt\n        /* \"#utility.yul\":4806:4842   */\n      iszero\n      tag_303\n      jumpi\n        /* \"#utility.yul\":4822:4840   */\n      tag_304\n      tag_216\n      jump\t// in\n    tag_304:\n        /* \"#utility.yul\":4806:4842   */\n    tag_303:\n        /* \"#utility.yul\":4658:4849   */\n      swap3\n      swap2\n      pop\n      pop\n      jump\t// out\n        /* \"#utility.yul\":4855:5024   */\n    tag_218:\n        /* \"#utility.yul\":4939:4950   */\n      0x00\n        /* \"#utility.yul\":4973:4979   */\n      dup3\n        /* \"#utility.yul\":4968:4971   */\n      dup3\n        /* \"#utility.yul\":4961:4980   */\n      mstore\n        /* \"#utility.yul\":5013:5017   */\n      0x20\n        /* \"#utility.yul\":5008:5011   */\n      dup3\n        /* \"#utility.yul\":5004:5018   */\n      add\n        /* \"#utility.yul\":4989:5018   */\n      swap1\n      pop\n        /* \"#utility.yul\":4855:5024   */\n      swap3\n      swap2\n      pop\n      pop\n      jump\t// out\n        /* \"#utility.yul\":5030:5190   */\n    tag_219:\n        /* \"#utility.yul\":5170:5182   */\n      0x616d6f756e74203d203000000000000000000000000000000000000000000000\n        /* \"#utility.yul\":5166:5167   */\n      0x00\n        /* \"#utility.yul\":5158:5164   */\n      dup3\n        /* \"#utility.yul\":5154:5168   */\n      add\n        /* \"#utility.yul\":5147:5183   */\n      mstore\n        /* \"#utility.yul\":5030:5190   */\n      pop\n      jump\t// out\n        /* \"#utility.yul\":5196:5562   */\n    tag_220:\n        /* \"#utility.yul\":5338:5341   */\n      0x00\n        /* \"#utility.yul\":5359:5426   */\n      tag_308\n        /* \"#utility.yul\":5423:5425   */\n      0x0a\n        /* \"#utility.yul\":5418:5421   */\n      dup4\n        /* \"#utility.yul\":5359:5426   */\n      tag_218\n      jump\t// in\n    tag_308:\n        /* \"#utility.yul\":5352:5426   */\n      swap2\n      pop\n        /* \"#utility.yul\":5435:5528   */\n      tag_309\n        /* \"#utility.yul\":5524:5527   */\n      dup3\n        /* \"#utility.yul\":5435:5528   */\n      tag_219\n      jump\t// in\n    tag_309:\n        /* \"#utility.yul\":5553:5555   */\n      0x20\n        /* \"#utility.yul\":5548:5551   */\n      dup3\n        /* \"#utility.yul\":5544:5556   */\n      add\n        /* \"#utility.yul\":5537:5556   */\n      swap1\n      pop\n        /* \"#utility.yul\":5196:5562   */\n      swap2\n      swap1\n      pop\n      jump\t// out\n        /* \"#utility.yul\":5568:5987   */\n    tag_112:\n        /* \"#utility.yul\":5734:5738   */\n      0x00\n        /* \"#utility.yul\":5772:5774   */\n      0x20\n        /* \"#utility.yul\":5761:5770   */\n      dup3\n        /* \"#utility.yul\":5757:5775   */\n      add\n        /* \"#utility.yul\":5749:5775   */\n      swap1\n      pop\n        /* \"#utility.yul\":5821:5830   */\n      dup2\n        /* \"#utility.yul\":5815:5819   */\n      dup2\n        /* \"#utility.yul\":5811:5831   */\n      sub\n        /* \"#utility.yul\":5807:5808   */\n      0x00\n        /* \"#utility.yul\":5796:5805   */\n      dup4\n        /* \"#utility.yul\":5792:5809   */\n      add\n        /* \"#utility.yul\":5785:5832   */\n      mstore\n        /* \"#utility.yul\":5849:5980   */\n      tag_311\n        /* \"#utility.yul\":5975:5979   */\n      dup2\n        /* \"#utility.yul\":5849:5980   */\n      tag_220\n      jump\t// in\n    tag_311:\n        /* \"#utility.yul\":5841:5980   */\n      swap1\n      pop\n        /* \"#utility.yul\":5568:5987   */\n      swap2\n      swap1\n      pop\n      jump\t// out\n        /* \"#utility.yul\":5993:6325   */\n    tag_116:\n        /* \"#utility.yul\":6114:6118   */\n      0x00\n        /* \"#utility.yul\":6152:6154   */\n      0x40\n        /* \"#utility.yul\":6141:6150   */\n      dup3\n        /* \"#utility.yul\":6137:6155   */\n      add\n        /* \"#utility.yul\":6129:6155   */\n      swap1\n      pop\n        /* \"#utility.yul\":6165:6236   */\n      tag_313\n        /* \"#utility.yul\":6233:6234   */\n      0x00\n        /* \"#utility.yul\":6222:6231   */\n      dup4\n        /* \"#utility.yul\":6218:6235   */\n      add\n        /* \"#utility.yul\":6209:6215   */\n      dup6\n        /* \"#utility.yul\":6165:6236   */\n      tag_215\n      jump\t// in\n    tag_313:\n        /* \"#utility.yul\":6246:6318   */\n      tag_314\n        /* \"#utility.yul\":6314:6316   */\n      0x20\n        /* \"#utility.yul\":6303:6312   */\n      dup4\n        /* \"#utility.yul\":6299:6317   */\n      add\n        /* \"#utility.yul\":6290:6296   */\n      dup5\n        /* \"#utility.yul\":6246:6318   */\n      tag_207\n      jump\t// in\n    tag_314:\n        /* \"#utility.yul\":5993:6325   */\n      swap4\n      swap3\n      pop\n      pop\n      pop\n      jump\t// out\n        /* \"#utility.yul\":6331:6421   */\n    tag_221:\n        /* \"#utility.yul\":6365:6372   */\n      0x00\n        /* \"#utility.yul\":6408:6413   */\n      dup2\n        /* \"#utility.yul\":6401:6414   */\n      iszero\n        /* \"#utility.yul\":6394:6415   */\n      iszero\n        /* \"#utility.yul\":6383:6415   */\n      swap1\n      pop\n        /* \"#utility.yul\":6331:6421   */\n      swap2\n      swap1\n      pop\n      jump\t// out\n        /* \"#utility.yul\":6427:6543   */\n    tag_222:\n        /* \"#utility.yul\":6497:6518   */\n      tag_317\n        /* \"#utility.yul\":6512:6517   */\n      dup2\n        /* \"#utility.yul\":6497:6518   */\n      tag_221\n      jump\t// in\n    tag_317:\n        /* \"#utility.yul\":6490:6495   */\n      dup2\n        /* \"#utility.yul\":6487:6519   */\n      eq\n        /* \"#utility.yul\":6477:6537   */\n      tag_318\n      jumpi\n        /* \"#utility.yul\":6533:6534   */\n      0x00\n        /* \"#utility.yul\":6530:6531   */\n      dup1\n        /* \"#utility.yul\":6523:6535   */\n      revert\n        /* \"#utility.yul\":6477:6537   */\n    tag_318:\n        /* \"#utility.yul\":6427:6543   */\n      pop\n      jump\t// out\n        /* \"#utility.yul\":6549:6686   */\n    tag_223:\n        /* \"#utility.yul\":6603:6608   */\n      0x00\n        /* \"#utility.yul\":6634:6640   */\n      dup2\n        /* \"#utility.yul\":6628:6641   */\n      mload\n        /* \"#utility.yul\":6619:6641   */\n      swap1\n      pop\n        /* \"#utility.yul\":6650:6680   */\n      tag_320\n        /* \"#utility.yul\":6674:6679   */\n      dup2\n        /* \"#utility.yul\":6650:6680   */\n      tag_222\n      jump\t// in\n    tag_320:\n        /* \"#utility.yul\":6549:6686   */\n      swap3\n      swap2\n      pop\n      pop\n      jump\t// out\n        /* \"#utility.yul\":6692:7037   */\n    tag_120:\n        /* \"#utility.yul\":6759:6765   */\n      0x00\n        /* \"#utility.yul\":6808:6810   */\n      0x20\n        /* \"#utility.yul\":6796:6805   */\n      dup3\n        /* \"#utility.yul\":6787:6794   */\n      dup5\n        /* \"#utility.yul\":6783:6806   */\n      sub\n        /* \"#utility.yul\":6779:6811   */\n      slt\n        /* \"#utility.yul\":6776:6895   */\n      iszero\n      tag_322\n      jumpi\n        /* \"#utility.yul\":6814:6893   */\n      tag_323\n      tag_200\n      jump\t// in\n    tag_323:\n        /* \"#utility.yul\":6776:6895   */\n    tag_322:\n        /* \"#utility.yul\":6934:6935   */\n      0x00\n        /* \"#utility.yul\":6959:7020   */\n      tag_324\n        /* \"#utility.yul\":7012:7019   */\n      dup5\n        /* \"#utility.yul\":7003:7009   */\n      dup3\n        /* \"#utility.yul\":6992:7001   */\n      dup6\n        /* \"#utility.yul\":6988:7010   */\n      add\n        /* \"#utility.yul\":6959:7020   */\n      tag_223\n      jump\t// in\n    tag_324:\n        /* \"#utility.yul\":6949:7020   */\n      swap2\n      pop\n        /* \"#utility.yul\":6905:7030   */\n      pop\n        /* \"#utility.yul\":6692:7037   */\n      swap3\n      swap2\n      pop\n      pop\n      jump\t// out\n        /* \"#utility.yul\":7043:7210   */\n    tag_224:\n        /* \"#utility.yul\":7183:7202   */\n      0x596f7520617265206e6f74206f776e6572000000000000000000000000000000\n        /* \"#utility.yul\":7179:7180   */\n      0x00\n        /* \"#utility.yul\":7171:7177   */\n      dup3\n        /* \"#utility.yul\":7167:7181   */\n      add\n        /* \"#utility.yul\":7160:7203   */\n      mstore\n        /* \"#utility.yul\":7043:7210   */\n      pop\n      jump\t// out\n        /* \"#utility.yul\":7216:7582   */\n    tag_225:\n        /* \"#utility.yul\":7358:7361   */\n      0x00\n        /* \"#utility.yul\":7379:7446   */\n      tag_327\n        /* \"#utility.yul\":7443:7445   */\n      0x11\n        /* \"#utility.yul\":7438:7441   */\n      dup4\n        /* \"#utility.yul\":7379:7446   */\n      tag_218\n      jump\t// in\n    tag_327:\n        /* \"#utility.yul\":7372:7446   */\n      swap2\n      pop\n        /* \"#utility.yul\":7455:7548   */\n      tag_328\n        /* \"#utility.yul\":7544:7547   */\n      dup3\n        /* \"#utility.yul\":7455:7548   */\n      tag_224\n      jump\t// in\n    tag_328:\n        /* \"#utility.yul\":7573:7575   */\n      0x20\n        /* \"#utility.yul\":7568:7571   */\n      dup3\n        /* \"#utility.yul\":7564:7576   */\n      add\n        /* \"#utility.yul\":7557:7576   */\n      swap1\n      pop\n        /* \"#utility.yul\":7216:7582   */\n      swap2\n      swap1\n      pop\n      jump\t// out\n        /* \"#utility.yul\":7588:8007   */\n    tag_124:\n        /* \"#utility.yul\":7754:7758   */\n      0x00\n        /* \"#utility.yul\":7792:7794   */\n      0x20\n        /* \"#utility.yul\":7781:7790   */\n      dup3\n        /* \"#utility.yul\":7777:7795   */\n      add\n        /* \"#utility.yul\":7769:7795   */\n      swap1\n      pop\n        /* \"#utility.yul\":7841:7850   */\n      dup2\n        /* \"#utility.yul\":7835:7839   */\n      dup2\n        /* \"#utility.yul\":7831:7851   */\n      sub\n        /* \"#utility.yul\":7827:7828   */\n      0x00\n        /* \"#utility.yul\":7816:7825   */\n      dup4\n        /* \"#utility.yul\":7812:7829   */\n      add\n        /* \"#utility.yul\":7805:7852   */\n      mstore\n        /* \"#utility.yul\":7869:8000   */\n      tag_330\n        /* \"#utility.yul\":7995:7999   */\n      dup2\n        /* \"#utility.yul\":7869:8000   */\n      tag_225\n      jump\t// in\n    tag_330:\n        /* \"#utility.yul\":7861:8000   */\n      swap1\n      pop\n        /* \"#utility.yul\":7588:8007   */\n      swap2\n      swap1\n      pop\n      jump\t// out\n        /* \"#utility.yul\":8013:8178   */\n    tag_226:\n        /* \"#utility.yul\":8153:8170   */\n      0x7265776172642072617465203d20300000000000000000000000000000000000\n        /* \"#utility.yul\":8149:8150   */\n      0x00\n        /* \"#utility.yul\":8141:8147   */\n      dup3\n        /* \"#utility.yul\":8137:8151   */\n      add\n        /* \"#utility.yul\":8130:8171   */\n      mstore\n        /* \"#utility.yul\":8013:8178   */\n      pop\n      jump\t// out\n        /* \"#utility.yul\":8184:8550   */\n    tag_227:\n        /* \"#utility.yul\":8326:8329   */\n      0x00\n        /* \"#utility.yul\":8347:8414   */\n      tag_333\n        /* \"#utility.yul\":8411:8413   */\n      0x0f\n        /* \"#utility.yul\":8406:8409   */\n      dup4\n        /* \"#utility.yul\":8347:8414   */\n      tag_218\n      jump\t// in\n    tag_333:\n        /* \"#utility.yul\":8340:8414   */\n      swap2\n      pop\n        /* \"#utility.yul\":8423:8516   */\n      tag_334\n        /* \"#utility.yul\":8512:8515   */\n      dup3\n        /* \"#utility.yul\":8423:8516   */\n      tag_226\n      jump\t// in\n    tag_334:\n        /* \"#utility.yul\":8541:8543   */\n      0x20\n        /* \"#utility.yul\":8536:8539   */\n      dup3\n        /* \"#utility.yul\":8532:8544   */\n      add\n        /* \"#utility.yul\":8525:8544   */\n      swap1\n      pop\n        /* \"#utility.yul\":8184:8550   */\n      swap2\n      swap1\n      pop\n      jump\t// out\n        /* \"#utility.yul\":8556:8975   */\n    tag_140:\n        /* \"#utility.yul\":8722:8726   */\n      0x00\n        /* \"#utility.yul\":8760:8762   */\n      0x20\n        /* \"#utility.yul\":8749:8758   */\n      dup3\n        /* \"#utility.yul\":8745:8763   */\n      add\n        /* \"#utility.yul\":8737:8763   */\n      swap1\n      pop\n        /* \"#utility.yul\":8809:8818   */\n      dup2\n        /* \"#utility.yul\":8803:8807   */\n      dup2\n        /* \"#utility.yul\":8799:8819   */\n      sub\n        /* \"#utility.yul\":8795:8796   */\n      0x00\n        /* \"#utility.yul\":8784:8793   */\n      dup4\n        /* \"#utility.yul\":8780:8797   */\n      add\n        /* \"#utility.yul\":8773:8820   */\n      mstore\n        /* \"#utility.yul\":8837:8968   */\n      tag_336\n        /* \"#utility.yul\":8963:8967   */\n      dup2\n        /* \"#utility.yul\":8837:8968   */\n      tag_227\n      jump\t// in\n    tag_336:\n        /* \"#utility.yul\":8829:8968   */\n      swap1\n      pop\n        /* \"#utility.yul\":8556:8975   */\n      swap2\n      swap1\n      pop\n      jump\t// out\n        /* \"#utility.yul\":8981:9124   */\n    tag_228:\n        /* \"#utility.yul\":9038:9043   */\n      0x00\n        /* \"#utility.yul\":9069:9075   */\n      dup2\n        /* \"#utility.yul\":9063:9076   */\n      mload\n        /* \"#utility.yul\":9054:9076   */\n      swap1\n      pop\n        /* \"#utility.yul\":9085:9118   */\n      tag_338\n        /* \"#utility.yul\":9112:9117   */\n      dup2\n        /* \"#utility.yul\":9085:9118   */\n      tag_208\n      jump\t// in\n    tag_338:\n        /* \"#utility.yul\":8981:9124   */\n      swap3\n      swap2\n      pop\n      pop\n      jump\t// out\n        /* \"#utility.yul\":9130:9481   */\n    tag_145:\n        /* \"#utility.yul\":9200:9206   */\n      0x00\n        /* \"#utility.yul\":9249:9251   */\n      0x20\n        /* \"#utility.yul\":9237:9246   */\n      dup3\n        /* \"#utility.yul\":9228:9235   */\n      dup5\n        /* \"#utility.yul\":9224:9247   */\n      sub\n        /* \"#utility.yul\":9220:9252   */\n      slt\n        /* \"#utility.yul\":9217:9336   */\n      iszero\n      tag_340\n      jumpi\n        /* \"#utility.yul\":9255:9334   */\n      tag_341\n      tag_200\n      jump\t// in\n    tag_341:\n        /* \"#utility.yul\":9217:9336   */\n    tag_340:\n        /* \"#utility.yul\":9375:9376   */\n      0x00\n        /* \"#utility.yul\":9400:9464   */\n      tag_342\n        /* \"#utility.yul\":9456:9463   */\n      dup5\n        /* \"#utility.yul\":9447:9453   */\n      dup3\n        /* \"#utility.yul\":9436:9445   */\n      dup6\n        /* \"#utility.yul\":9432:9454   */\n      add\n        /* \"#utility.yul\":9400:9464   */\n      tag_228\n      jump\t// in\n    tag_342:\n        /* \"#utility.yul\":9390:9464   */\n      swap2\n      pop\n        /* \"#utility.yul\":9346:9474   */\n      pop\n        /* \"#utility.yul\":9130:9481   */\n      swap3\n      swap2\n      pop\n      pop\n      jump\t// out\n        /* \"#utility.yul\":9487:9660   */\n    tag_229:\n        /* \"#utility.yul\":9627:9652   */\n      0x72657761726420616d6f756e74203e2062616c616e6365000000000000000000\n        /* \"#utility.yul\":9623:9624   */\n      0x00\n        /* \"#utility.yul\":9615:9621   */\n      dup3\n        /* \"#utility.yul\":9611:9625   */\n      add\n        /* \"#utility.yul\":9604:9653   */\n      mstore\n        /* \"#utility.yul\":9487:9660   */\n      pop\n      jump\t// out\n        /* \"#utility.yul\":9666:10032   */\n    tag_230:\n        /* \"#utility.yul\":9808:9811   */\n      0x00\n        /* \"#utility.yul\":9829:9896   */\n      tag_345\n        /* \"#utility.yul\":9893:9895   */\n      0x17\n        /* \"#utility.yul\":9888:9891   */\n      dup4\n        /* \"#utility.yul\":9829:9896   */\n      tag_218\n      jump\t// in\n    tag_345:\n        /* \"#utility.yul\":9822:9896   */\n      swap2\n      pop\n        /* \"#utility.yul\":9905:9998   */\n      tag_346\n        /* \"#utility.yul\":9994:9997   */\n      dup3\n        /* \"#utility.yul\":9905:9998   */\n      tag_229\n      jump\t// in\n    tag_346:\n        /* \"#utility.yul\":10023:10025   */\n      0x20\n        /* \"#utility.yul\":10018:10021   */\n      dup3\n        /* \"#utility.yul\":10014:10026   */\n      add\n        /* \"#utility.yul\":10007:10026   */\n      swap1\n      pop\n        /* \"#utility.yul\":9666:10032   */\n      swap2\n      swap1\n      pop\n      jump\t// out\n        /* \"#utility.yul\":10038:10457   */\n    tag_149:\n        /* \"#utility.yul\":10204:10208   */\n      0x00\n        /* \"#utility.yul\":10242:10244   */\n      0x20\n        /* \"#utility.yul\":10231:10240   */\n      dup3\n        /* \"#utility.yul\":10227:10245   */\n      add\n        /* \"#utility.yul\":10219:10245   */\n      swap1\n      pop\n        /* \"#utility.yul\":10291:10300   */\n      dup2\n        /* \"#utility.yul\":10285:10289   */\n      dup2\n        /* \"#utility.yul\":10281:10301   */\n      sub\n        /* \"#utility.yul\":10277:10278   */\n      0x00\n        /* \"#utility.yul\":10266:10275   */\n      dup4\n        /* \"#utility.yul\":10262:10279   */\n      add\n        /* \"#utility.yul\":10255:10302   */\n      mstore\n        /* \"#utility.yul\":10319:10450   */\n      tag_348\n        /* \"#utility.yul\":10445:10449   */\n      dup2\n        /* \"#utility.yul\":10319:10450   */\n      tag_230\n      jump\t// in\n    tag_348:\n        /* \"#utility.yul\":10311:10450   */\n      swap1\n      pop\n        /* \"#utility.yul\":10038:10457   */\n      swap2\n      swap1\n      pop\n      jump\t// out\n        /* \"#utility.yul\":10463:10624   */\n    tag_231:\n        /* \"#utility.yul\":10603:10616   */\n      0x20616d6f756e74203d2030000000000000000000000000000000000000000000\n        /* \"#utility.yul\":10599:10600   */\n      0x00\n        /* \"#utility.yul\":10591:10597   */\n      dup3\n        /* \"#utility.yul\":10587:10601   */\n      add\n        /* \"#utility.yul\":10580:10617   */\n      mstore\n        /* \"#utility.yul\":10463:10624   */\n      pop\n      jump\t// out\n        /* \"#utility.yul\":10630:10996   */\n    tag_232:\n        /* \"#utility.yul\":10772:10775   */\n      0x00\n        /* \"#utility.yul\":10793:10860   */\n      tag_351\n        /* \"#utility.yul\":10857:10859   */\n      0x0b\n        /* \"#utility.yul\":10852:10855   */\n      dup4\n        /* \"#utility.yul\":10793:10860   */\n      tag_218\n      jump\t// in\n    tag_351:\n        /* \"#utility.yul\":10786:10860   */\n      swap2\n      pop\n        /* \"#utility.yul\":10869:10962   */\n      tag_352\n        /* \"#utility.yul\":10958:10961   */\n      dup3\n        /* \"#utility.yul\":10869:10962   */\n      tag_231\n      jump\t// in\n    tag_352:\n        /* \"#utility.yul\":10987:10989   */\n      0x20\n        /* \"#utility.yul\":10982:10985   */\n      dup3\n        /* \"#utility.yul\":10978:10990   */\n      add\n        /* \"#utility.yul\":10971:10990   */\n      swap1\n      pop\n        /* \"#utility.yul\":10630:10996   */\n      swap2\n      swap1\n      pop\n      jump\t// out\n        /* \"#utility.yul\":11002:11421   */\n    tag_173:\n        /* \"#utility.yul\":11168:11172   */\n      0x00\n        /* \"#utility.yul\":11206:11208   */\n      0x20\n        /* \"#utility.yul\":11195:11204   */\n      dup3\n        /* \"#utility.yul\":11191:11209   */\n      add\n        /* \"#utility.yul\":11183:11209   */\n      swap1\n      pop\n        /* \"#utility.yul\":11255:11264   */\n      dup2\n        /* \"#utility.yul\":11249:11253   */\n      dup2\n        /* \"#utility.yul\":11245:11265   */\n      sub\n        /* \"#utility.yul\":11241:11242   */\n      0x00\n        /* \"#utility.yul\":11230:11239   */\n      dup4\n        /* \"#utility.yul\":11226:11243   */\n      add\n        /* \"#utility.yul\":11219:11266   */\n      mstore\n        /* \"#utility.yul\":11283:11414   */\n      tag_354\n        /* \"#utility.yul\":11409:11413   */\n      dup2\n        /* \"#utility.yul\":11283:11414   */\n      tag_232\n      jump\t// in\n    tag_354:\n        /* \"#utility.yul\":11275:11414   */\n      swap1\n      pop\n        /* \"#utility.yul\":11002:11421   */\n      swap2\n      swap1\n      pop\n      jump\t// out\n        /* \"#utility.yul\":11427:11869   */\n    tag_175:\n        /* \"#utility.yul\":11576:11580   */\n      0x00\n        /* \"#utility.yul\":11614:11616   */\n      0x60\n        /* \"#utility.yul\":11603:11612   */\n      dup3\n        /* \"#utility.yul\":11599:11617   */\n      add\n        /* \"#utility.yul\":11591:11617   */\n      swap1\n      pop\n        /* \"#utility.yul\":11627:11698   */\n      tag_356\n        /* \"#utility.yul\":11695:11696   */\n      0x00\n        /* \"#utility.yul\":11684:11693   */\n      dup4\n        /* \"#utility.yul\":11680:11697   */\n      add\n        /* \"#utility.yul\":11671:11677   */\n      dup7\n        /* \"#utility.yul\":11627:11698   */\n      tag_215\n      jump\t// in\n    tag_356:\n        /* \"#utility.yul\":11708:11780   */\n      tag_357\n        /* \"#utility.yul\":11776:11778   */\n      0x20\n        /* \"#utility.yul\":11765:11774   */\n      dup4\n        /* \"#utility.yul\":11761:11779   */\n      add\n        /* \"#utility.yul\":11752:11758   */\n      dup6\n        /* \"#utility.yul\":11708:11780   */\n      tag_215\n      jump\t// in\n    tag_357:\n        /* \"#utility.yul\":11790:11862   */\n      tag_358\n        /* \"#utility.yul\":11858:11860   */\n      0x40\n        /* \"#utility.yul\":11847:11856   */\n      dup4\n        /* \"#utility.yul\":11843:11861   */\n      add\n        /* \"#utility.yul\":11834:11840   */\n      dup5\n        /* \"#utility.yul\":11790:11862   */\n      tag_207\n      jump\t// in\n    tag_358:\n        /* \"#utility.yul\":11427:11869   */\n      swap5\n      swap4\n      pop\n      pop\n      pop\n      pop\n      jump\t// out\n        /* \"#utility.yul\":11875:12053   */\n    tag_233:\n        /* \"#utility.yul\":12015:12045   */\n      0x726577617264206475726174696f6e206e6f742066696e697368656400000000\n        /* \"#utility.yul\":12011:12012   */\n      0x00\n        /* \"#utility.yul\":12003:12009   */\n      dup3\n        /* \"#utility.yul\":11999:12013   */\n      add\n        /* \"#utility.yul\":11992:12046   */\n      mstore\n        /* \"#utility.yul\":11875:12053   */\n      pop\n      jump\t// out\n        /* \"#utility.yul\":12059:12425   */\n    tag_234:\n        /* \"#utility.yul\":12201:12204   */\n      0x00\n        /* \"#utility.yul\":12222:12289   */\n      tag_361\n        /* \"#utility.yul\":12286:12288   */\n      0x1c\n        /* \"#utility.yul\":12281:12284   */\n      dup4\n        /* \"#utility.yul\":12222:12289   */\n      tag_218\n      jump\t// in\n    tag_361:\n        /* \"#utility.yul\":12215:12289   */\n      swap2\n      pop\n        /* \"#utility.yul\":12298:12391   */\n      tag_362\n        /* \"#utility.yul\":12387:12390   */\n      dup3\n        /* \"#utility.yul\":12298:12391   */\n      tag_233\n      jump\t// in\n    tag_362:\n        /* \"#utility.yul\":12416:12418   */\n      0x20\n        /* \"#utility.yul\":12411:12414   */\n      dup3\n        /* \"#utility.yul\":12407:12419   */\n      add\n        /* \"#utility.yul\":12400:12419   */\n      swap1\n      pop\n        /* \"#utility.yul\":12059:12425   */\n      swap2\n      swap1\n      pop\n      jump\t// out\n        /* \"#utility.yul\":12431:12850   */\n    tag_187:\n        /* \"#utility.yul\":12597:12601   */\n      0x00\n        /* \"#utility.yul\":12635:12637   */\n      0x20\n        /* \"#utility.yul\":12624:12633   */\n      dup3\n        /* \"#utility.yul\":12620:12638   */\n      add\n        /* \"#utility.yul\":12612:12638   */\n      swap1\n      pop\n        /* \"#utility.yul\":12684:12693   */\n      dup2\n        /* \"#utility.yul\":12678:12682   */\n      dup2\n        /* \"#utility.yul\":12674:12694   */\n      sub\n        /* \"#utility.yul\":12670:12671   */\n      0x00\n        /* \"#utility.yul\":12659:12668   */\n      dup4\n        /* \"#utility.yul\":12655:12672   */\n      add\n        /* \"#utility.yul\":12648:12695   */\n      mstore\n        /* \"#utility.yul\":12712:12843   */\n      tag_364\n        /* \"#utility.yul\":12838:12842   */\n      dup2\n        /* \"#utility.yul\":12712:12843   */\n      tag_234\n      jump\t// in\n    tag_364:\n        /* \"#utility.yul\":12704:12843   */\n      swap1\n      pop\n        /* \"#utility.yul\":12431:12850   */\n      swap2\n      swap1\n      pop\n      jump\t// out\n\n    auxdata: 0xa26469706673582212208adbfaaecb386e21db291d0abb3582960b81169a7d1e47dde19fac679263014f64736f6c63430008130033\n}\n",
				"bytecode": {
					"linkReferences": {},
					"object": "60c06040523480156200001157600080fd5b506040516200195e3803806200195e833981810160405281019062000037919062000151565b336000806101000a81548173ffffffffffffffffffffffffffffffffffffffff021916908373ffffffffffffffffffffffffffffffffffffffff1602179055508173ffffffffffffffffffffffffffffffffffffffff1660808173ffffffffffffffffffffffffffffffffffffffff16815250508073ffffffffffffffffffffffffffffffffffffffff1660a08173ffffffffffffffffffffffffffffffffffffffff1681525050505062000198565b600080fd5b600073ffffffffffffffffffffffffffffffffffffffff82169050919050565b60006200011982620000ec565b9050919050565b6200012b816200010c565b81146200013757600080fd5b50565b6000815190506200014b8162000120565b92915050565b600080604083850312156200016b576200016a620000e7565b5b60006200017b858286016200013a565b92505060206200018e858286016200013a565b9150509250929050565b60805160a051611784620001da6000396000818161091801528181610b98015261107201526000818161065a01528181610c720152610e1801526117846000f3fe608060405234801561001057600080fd5b506004361061012b5760003560e01c80637519ab50116100ad578063a694fc3a11610071578063a694fc3a14610322578063c0ed00c91461033e578063cd3daf9d1461035a578063d1af0c7d14610378578063df136d65146103965761012b565b80637519ab501461027a5780637b0a47ee1461029857806380faa57d146102b65780638b876347146102d45780638da5cb5b146103045761012b565b80633d18b912116100f45780633d18b912146101d45780636353586b146101de57806367d3b4881461020e57806370a082311461022c57806372f702f31461025c5761012b565b80628cc262146101305780630fb5a6b41461016057806318160ddd1461017e5780632e1a7d4d1461019c5780633c6b16ab146101b8575b600080fd5b61014a60048036038101906101459190611117565b6103b4565b604051610157919061115d565b60405180910390f35b6101686104b6565b604051610175919061115d565b60405180910390f35b6101866104bc565b604051610193919061115d565b60405180910390f35b6101b660048036038101906101b191906111a4565b6104c2565b005b6101d260048036038101906101cd91906111a4565b6106fb565b005b6101dc610a20565b005b6101f860048036038101906101f39190611117565b610c3a565b604051610205919061115d565b60405180910390f35b610216610c52565b604051610223919061115d565b60405180910390f35b61024660048036038101906102419190611117565b610c58565b604051610253919061115d565b60405180910390f35b610264610c70565b6040516102719190611230565b60405180910390f35b610282610c94565b60405161028f919061115d565b60405180910390f35b6102a0610c9a565b6040516102ad919061115d565b60405180910390f35b6102be610ca0565b6040516102cb919061115d565b60405180910390f35b6102ee60048036038101906102e99190611117565b610cb3565b6040516102fb919061115d565b60405180910390f35b61030c610ccb565b604051610319919061125a565b60405180910390f35b61033c600480360381019061033791906111a4565b610cef565b005b610358600480360381019061035391906111a4565b610f2a565b005b610362611006565b60405161036f919061115d565b60405180910390f35b610380611070565b60405161038d9190611230565b60405180910390f35b61039e611094565b6040516103ab919061115d565b60405180910390f35b6000600760008373ffffffffffffffffffffffffffffffffffffffff1673ffffffffffffffffffffffffffffffffffffffff16815260200190815260200160002054670de0b6b3a7640000600660008573ffffffffffffffffffffffffffffffffffffffff1673ffffffffffffffffffffffffffffffffffffffff16815260200190815260200160002054610447611006565b61045191906112a4565b600960008673ffffffffffffffffffffffffffffffffffffffff1673ffffffffffffffffffffffffffffffffffffffff1681526020019081526020016000205461049b91906112d8565b6104a59190611349565b6104af919061137a565b9050919050565b60015481565b60085481565b336104cb611006565b6005819055506104d9610ca0565b600381905550600073ffffffffffffffffffffffffffffffffffffffff168173ffffffffffffffffffffffffffffffffffffffff16146105a65761051c816103b4565b600760008373ffffffffffffffffffffffffffffffffffffffff1673ffffffffffffffffffffffffffffffffffffffff16815260200190815260200160002081905550600554600660008373ffffffffffffffffffffffffffffffffffffffff1673ffffffffffffffffffffffffffffffffffffffff168152602001908152602001600020819055505b600082116105e9576040517f08c379a00000000000000000000000000000000000000000000000000000000081526004016105e09061140b565b60405180910390fd5b81600960003373ffffffffffffffffffffffffffffffffffffffff1673ffffffffffffffffffffffffffffffffffffffff168152602001908152602001600020600082825461063891906112a4565b92505081905550816008600082825461065191906112a4565b925050819055507f000000000000000000000000000000000000000000000000000000000000000073ffffffffffffffffffffffffffffffffffffffff1663a9059cbb33846040518363ffffffff1660e01b81526004016106b392919061142b565b6020604051808303816000875af11580156106d2573d6000803e3d6000fd5b505050506040513d601f19601f820116820180604052508101906106f6919061148c565b505050565b60008054906101000a900473ffffffffffffffffffffffffffffffffffffffff1673ffffffffffffffffffffffffffffffffffffffff163373ffffffffffffffffffffffffffffffffffffffff1614610789576040517f08c379a000000000000000000000000000000000000000000000000000000000815260040161078090611505565b60405180910390fd5b6000610793611006565b6005819055506107a1610ca0565b600381905550600073ffffffffffffffffffffffffffffffffffffffff168173ffffffffffffffffffffffffffffffffffffffff161461086e576107e4816103b4565b600760008373ffffffffffffffffffffffffffffffffffffffff1673ffffffffffffffffffffffffffffffffffffffff16815260200190815260200160002081905550600554600660008373ffffffffffffffffffffffffffffffffffffffff1673ffffffffffffffffffffffffffffffffffffffff168152602001908152602001600020819055505b60025442111561089157600154826108869190611349565b6004819055506108d1565b6000426002546108a191906112a4565b6004546108ae91906112d8565b905060015483826108bf919061137a565b6108c99190611349565b600481905550505b600060045411610916576040517f08c379a000000000000000000000000000000000000000000000000000000000815260040161090d90611571565b60405180910390fd5b7f000000000000000000000000000000000000000000000000000000000000000073ffffffffffffffffffffffffffffffffffffffff166370a08231306040518263ffffffff1660e01b815260040161096f919061125a565b602060405180830381865afa15801561098c573d6000803e3d6000fd5b505050506040513d601f19601f820116820180604052508101906109b091906115a6565b6001546004546109c091906112d8565b1115610a01576040517f08c379a00000000000000000000000000000000000000000000000000000000081526004016109f89061161f565b60405180910390fd5b60015442610a0f919061137a565b600281905550426003819055505050565b33610a29611006565b600581905550610a37610ca0565b600381905550600073ffffffffffffffffffffffffffffffffffffffff168173ffffffffffffffffffffffffffffffffffffffff1614610b0457610a7a816103b4565b600760008373ffffffffffffffffffffffffffffffffffffffff1673ffffffffffffffffffffffffffffffffffffffff16815260200190815260200160002081905550600554600660008373ffffffffffffffffffffffffffffffffffffffff1673ffffffffffffffffffffffffffffffffffffffff168152602001908152602001600020819055505b6000600760003373ffffffffffffffffffffffffffffffffffffffff1673ffffffffffffffffffffffffffffffffffffffff1681526020019081526020016000205490506000811115610c36576000600760003373ffffffffffffffffffffffffffffffffffffffff1673ffffffffffffffffffffffffffffffffffffffff168152602001908152602001600020819055507f000000000000000000000000000000000000000000000000000000000000000073ffffffffffffffffffffffffffffffffffffffff1663a9059cbb33836040518363ffffffff1660e01b8152600401610bf192919061142b565b6020604051808303816000875af1158015610c10573d6000803e3d6000fd5b505050506040513d601f19601f82011682018060405250810190610c34919061148c565b505b5050565b60076020528060005260406000206000915090505481565b60025481565b60096020528060005260406000206000915090505481565b7f000000000000000000000000000000000000000000000000000000000000000081565b60035481565b60045481565b6000610cae6002544261109a565b905090565b60066020528060005260406000206000915090505481565b60008054906101000a900473ffffffffffffffffffffffffffffffffffffffff1681565b33610cf8611006565b600581905550610d06610ca0565b600381905550600073ffffffffffffffffffffffffffffffffffffffff168173ffffffffffffffffffffffffffffffffffffffff1614610dd357610d49816103b4565b600760008373ffffffffffffffffffffffffffffffffffffffff1673ffffffffffffffffffffffffffffffffffffffff16815260200190815260200160002081905550600554600660008373ffffffffffffffffffffffffffffffffffffffff1673ffffffffffffffffffffffffffffffffffffffff168152602001908152602001600020819055505b60008211610e16576040517f08c379a0000000000000000000000000000000000000000000000000000000008152600401610e0d9061168b565b60405180910390fd5b7f000000000000000000000000000000000000000000000000000000000000000073ffffffffffffffffffffffffffffffffffffffff166323b872dd3330856040518463ffffffff1660e01b8152600401610e73939291906116ab565b6020604051808303816000875af1158015610e92573d6000803e3d6000fd5b505050506040513d601f19601f82011682018060405250810190610eb6919061148c565b5081600960003373ffffffffffffffffffffffffffffffffffffffff1673ffffffffffffffffffffffffffffffffffffffff1681526020019081526020016000206000828254610f06919061137a565b925050819055508160086000828254610f1f919061137a565b925050819055505050565b60008054906101000a900473ffffffffffffffffffffffffffffffffffffffff1673ffffffffffffffffffffffffffffffffffffffff163373ffffffffffffffffffffffffffffffffffffffff1614610fb8576040517f08c379a0000000000000000000000000000000000000000000000000000000008152600401610faf90611505565b60405180910390fd5b4260025410610ffc576040517f08c379a0000000000000000000000000000000000000000000000000000000008152600401610ff39061172e565b60405180910390fd5b8060018190555050565b6000806008540361101b57600554905061106d565b600854670de0b6b3a7640000600354611032610ca0565b61103c91906112a4565b60045461104991906112d8565b61105391906112d8565b61105d9190611349565b60055461106a919061137a565b90505b90565b7f000000000000000000000000000000000000000000000000000000000000000081565b60055481565b6000818311156110aa57816110ac565b825b905092915050565b600080fd5b600073ffffffffffffffffffffffffffffffffffffffff82169050919050565b60006110e4826110b9565b9050919050565b6110f4816110d9565b81146110ff57600080fd5b50565b600081359050611111816110eb565b92915050565b60006020828403121561112d5761112c6110b4565b5b600061113b84828501611102565b91505092915050565b6000819050919050565b61115781611144565b82525050565b6000602082019050611172600083018461114e565b92915050565b61118181611144565b811461118c57600080fd5b50565b60008135905061119e81611178565b92915050565b6000602082840312156111ba576111b96110b4565b5b60006111c88482850161118f565b91505092915050565b6000819050919050565b60006111f66111f16111ec846110b9565b6111d1565b6110b9565b9050919050565b6000611208826111db565b9050919050565b600061121a826111fd565b9050919050565b61122a8161120f565b82525050565b60006020820190506112456000830184611221565b92915050565b611254816110d9565b82525050565b600060208201905061126f600083018461124b565b92915050565b7f4e487b7100000000000000000000000000000000000000000000000000000000600052601160045260246000fd5b60006112af82611144565b91506112ba83611144565b92508282039050818111156112d2576112d1611275565b5b92915050565b60006112e382611144565b91506112ee83611144565b92508282026112fc81611144565b9150828204841483151761131357611312611275565b5b5092915050565b7f4e487b7100000000000000000000000000000000000000000000000000000000600052601260045260246000fd5b600061135482611144565b915061135f83611144565b92508261136f5761136e61131a565b5b828204905092915050565b600061138582611144565b915061139083611144565b92508282019050808211156113a8576113a7611275565b5b92915050565b600082825260208201905092915050565b7f616d6f756e74203d203000000000000000000000000000000000000000000000600082015250565b60006113f5600a836113ae565b9150611400826113bf565b602082019050919050565b60006020820190508181036000830152611424816113e8565b9050919050565b6000604082019050611440600083018561124b565b61144d602083018461114e565b9392505050565b60008115159050919050565b61146981611454565b811461147457600080fd5b50565b60008151905061148681611460565b92915050565b6000602082840312156114a2576114a16110b4565b5b60006114b084828501611477565b91505092915050565b7f596f7520617265206e6f74206f776e6572000000000000000000000000000000600082015250565b60006114ef6011836113ae565b91506114fa826114b9565b602082019050919050565b6000602082019050818103600083015261151e816114e2565b9050919050565b7f7265776172642072617465203d20300000000000000000000000000000000000600082015250565b600061155b600f836113ae565b915061156682611525565b602082019050919050565b6000602082019050818103600083015261158a8161154e565b9050919050565b6000815190506115a081611178565b92915050565b6000602082840312156115bc576115bb6110b4565b5b60006115ca84828501611591565b91505092915050565b7f72657761726420616d6f756e74203e2062616c616e6365000000000000000000600082015250565b60006116096017836113ae565b9150611614826115d3565b602082019050919050565b60006020820190508181036000830152611638816115fc565b9050919050565b7f20616d6f756e74203d2030000000000000000000000000000000000000000000600082015250565b6000611675600b836113ae565b91506116808261163f565b602082019050919050565b600060208201905081810360008301526116a481611668565b9050919050565b60006060820190506116c0600083018661124b565b6116cd602083018561124b565b6116da604083018461114e565b949350505050565b7f726577617264206475726174696f6e206e6f742066696e697368656400000000600082015250565b6000611718601c836113ae565b9150611723826116e2565b602082019050919050565b600060208201905081810360008301526117478161170b565b905091905056fea26469706673582212208adbfaaecb386e21db291d0abb3582960b81169a7d1e47dde19fac679263014f64736f6c63430008130033",
					"opcodes": "PUSH1 0xC0 PUSH1 0x40 MSTORE CALLVALUE DUP1 ISZERO PUSH3 0x11 JUMPI PUSH1 0x0 DUP1 REVERT JUMPDEST POP PUSH1 0x40 MLOAD PUSH3 0x195E CODESIZE SUB DUP1 PUSH3 0x195E DUP4 CODECOPY DUP2 DUP2 ADD PUSH1 0x40 MSTORE DUP2 ADD SWAP1 PUSH3 0x37 SWAP2 SWAP1 PUSH3 0x151 JUMP JUMPDEST CALLER PUSH1 0x0 DUP1 PUSH2 0x100 EXP DUP2 SLOAD DUP2 PUSH20 0xFFFFFFFFFFFFFFFFFFFFFFFFFFFFFFFFFFFFFFFF MUL NOT AND SWAP1 DUP4 PUSH20 0xFFFFFFFFFFFFFFFFFFFFFFFFFFFFFFFFFFFFFFFF AND MUL OR SWAP1 SSTORE POP DUP2 PUSH20 0xFFFFFFFFFFFFFFFFFFFFFFFFFFFFFFFFFFFFFFFF AND PUSH1 0x80 DUP2 PUSH20 0xFFFFFFFFFFFFFFFFFFFFFFFFFFFFFFFFFFFFFFFF AND DUP2 MSTORE POP POP DUP1 PUSH20 0xFFFFFFFFFFFFFFFFFFFFFFFFFFFFFFFFFFFFFFFF AND PUSH1 0xA0 DUP2 PUSH20 0xFFFFFFFFFFFFFFFFFFFFFFFFFFFFFFFFFFFFFFFF AND DUP2 MSTORE POP POP POP POP PUSH3 0x198 JUMP JUMPDEST PUSH1 0x0 DUP1 REVERT JUMPDEST PUSH1 0x0 PUSH20 0xFFFFFFFFFFFFFFFFFFFFFFFFFFFFFFFFFFFFFFFF DUP3 AND SWAP1 POP SWAP2 SWAP1 POP JUMP JUMPDEST PUSH1 0x0 PUSH3 0x119 DUP3 PUSH3 0xEC JUMP JUMPDEST SWAP1 POP SWAP2 SWAP1 POP JUMP JUMPDEST PUSH3 0x12B DUP2 PUSH3 0x10C JUMP JUMPDEST DUP2 EQ PUSH3 0x137 JUMPI PUSH1 0x0 DUP1 REVERT JUMPDEST POP JUMP JUMPDEST PUSH1 0x0 DUP2 MLOAD SWAP1 POP PUSH3 0x14B DUP2 PUSH3 0x120 JUMP JUMPDEST SWAP3 SWAP2 POP POP JUMP JUMPDEST PUSH1 0x0 DUP1 PUSH1 0x40 DUP4 DUP6 SUB SLT ISZERO PUSH3 0x16B JUMPI PUSH3 0x16A PUSH3 0xE7 JUMP JUMPDEST JUMPDEST PUSH1 0x0 PUSH3 0x17B DUP6 DUP3 DUP7 ADD PUSH3 0x13A JUMP JUMPDEST SWAP3 POP POP PUSH1 0x20 PUSH3 0x18E DUP6 DUP3 DUP7 ADD PUSH3 0x13A JUMP JUMPDEST SWAP2 POP POP SWAP3 POP SWAP3 SWAP1 POP JUMP JUMPDEST PUSH1 0x80 MLOAD PUSH1 0xA0 MLOAD PUSH2 0x1784 PUSH3 0x1DA PUSH1 0x0 CODECOPY PUSH1 0x0 DUP2 DUP2 PUSH2 0x918 ADD MSTORE DUP2 DUP2 PUSH2 0xB98 ADD MSTORE PUSH2 0x1072 ADD MSTORE PUSH1 0x0 DUP2 DUP2 PUSH2 0x65A ADD MSTORE DUP2 DUP2 PUSH2 0xC72 ADD MSTORE PUSH2 0xE18 ADD MSTORE PUSH2 0x1784 PUSH1 0x0 RETURN INVALID PUSH1 0x80 PUSH1 0x40 MSTORE CALLVALUE DUP1 ISZERO PUSH2 0x10 JUMPI PUSH1 0x0 DUP1 REVERT JUMPDEST POP PUSH1 0x4 CALLDATASIZE LT PUSH2 0x12B JUMPI PUSH1 0x0 CALLDATALOAD PUSH1 0xE0 SHR DUP1 PUSH4 0x7519AB50 GT PUSH2 0xAD JUMPI DUP1 PUSH4 0xA694FC3A GT PUSH2 0x71 JUMPI DUP1 PUSH4 0xA694FC3A EQ PUSH2 0x322 JUMPI DUP1 PUSH4 0xC0ED00C9 EQ PUSH2 0x33E JUMPI DUP1 PUSH4 0xCD3DAF9D EQ PUSH2 0x35A JUMPI DUP1 PUSH4 0xD1AF0C7D EQ PUSH2 0x378 JUMPI DUP1 PUSH4 0xDF136D65 EQ PUSH2 0x396 JUMPI PUSH2 0x12B JUMP JUMPDEST DUP1 PUSH4 0x7519AB50 EQ PUSH2 0x27A JUMPI DUP1 PUSH4 0x7B0A47EE EQ PUSH2 0x298 JUMPI DUP1 PUSH4 0x80FAA57D EQ PUSH2 0x2B6 JUMPI DUP1 PUSH4 0x8B876347 EQ PUSH2 0x2D4 JUMPI DUP1 PUSH4 0x8DA5CB5B EQ PUSH2 0x304 JUMPI PUSH2 0x12B JUMP JUMPDEST DUP1 PUSH4 0x3D18B912 GT PUSH2 0xF4 JUMPI DUP1 PUSH4 0x3D18B912 EQ PUSH2 0x1D4 JUMPI DUP1 PUSH4 0x6353586B EQ PUSH2 0x1DE JUMPI DUP1 PUSH4 0x67D3B488 EQ PUSH2 0x20E JUMPI DUP1 PUSH4 0x70A08231 EQ PUSH2 0x22C JUMPI DUP1 PUSH4 0x72F702F3 EQ PUSH2 0x25C JUMPI PUSH2 0x12B JUMP JUMPDEST DUP1 PUSH3 0x8CC262 EQ PUSH2 0x130 JUMPI DUP1 PUSH4 0xFB5A6B4 EQ PUSH2 0x160 JUMPI DUP1 PUSH4 0x18160DDD EQ PUSH2 0x17E JUMPI DUP1 PUSH4 0x2E1A7D4D EQ PUSH2 0x19C JUMPI DUP1 PUSH4 0x3C6B16AB EQ PUSH2 0x1B8 JUMPI JUMPDEST PUSH1 0x0 DUP1 REVERT JUMPDEST PUSH2 0x14A PUSH1 0x4 DUP1 CALLDATASIZE SUB DUP2 ADD SWAP1 PUSH2 0x145 SWAP2 SWAP1 PUSH2 0x1117 JUMP JUMPDEST PUSH2 0x3B4 JUMP JUMPDEST PUSH1 0x40 MLOAD PUSH2 0x157 SWAP2 SWAP1 PUSH2 0x115D JUMP JUMPDEST PUSH1 0x40 MLOAD DUP1 SWAP2 SUB SWAP1 RETURN JUMPDEST PUSH2 0x168 PUSH2 0x4B6 JUMP JUMPDEST PUSH1 0x40 MLOAD PUSH2 0x175 SWAP2 SWAP1 PUSH2 0x115D JUMP JUMPDEST PUSH1 0x40 MLOAD DUP1 SWAP2 SUB SWAP1 RETURN JUMPDEST PUSH2 0x186 PUSH2 0x4BC JUMP JUMPDEST PUSH1 0x40 MLOAD PUSH2 0x193 SWAP2 SWAP1 PUSH2 0x115D JUMP JUMPDEST PUSH1 0x40 MLOAD DUP1 SWAP2 SUB SWAP1 RETURN JUMPDEST PUSH2 0x1B6 PUSH1 0x4 DUP1 CALLDATASIZE SUB DUP2 ADD SWAP1 PUSH2 0x1B1 SWAP2 SWAP1 PUSH2 0x11A4 JUMP JUMPDEST PUSH2 0x4C2 JUMP JUMPDEST STOP JUMPDEST PUSH2 0x1D2 PUSH1 0x4 DUP1 CALLDATASIZE SUB DUP2 ADD SWAP1 PUSH2 0x1CD SWAP2 SWAP1 PUSH2 0x11A4 JUMP JUMPDEST PUSH2 0x6FB JUMP JUMPDEST STOP JUMPDEST PUSH2 0x1DC PUSH2 0xA20 JUMP JUMPDEST STOP JUMPDEST PUSH2 0x1F8 PUSH1 0x4 DUP1 CALLDATASIZE SUB DUP2 ADD SWAP1 PUSH2 0x1F3 SWAP2 SWAP1 PUSH2 0x1117 JUMP JUMPDEST PUSH2 0xC3A JUMP JUMPDEST PUSH1 0x40 MLOAD PUSH2 0x205 SWAP2 SWAP1 PUSH2 0x115D JUMP JUMPDEST PUSH1 0x40 MLOAD DUP1 SWAP2 SUB SWAP1 RETURN JUMPDEST PUSH2 0x216 PUSH2 0xC52 JUMP JUMPDEST PUSH1 0x40 MLOAD PUSH2 0x223 SWAP2 SWAP1 PUSH2 0x115D JUMP JUMPDEST PUSH1 0x40 MLOAD DUP1 SWAP2 SUB SWAP1 RETURN JUMPDEST PUSH2 0x246 PUSH1 0x4 DUP1 CALLDATASIZE SUB DUP2 ADD SWAP1 PUSH2 0x241 SWAP2 SWAP1 PUSH2 0x1117 JUMP JUMPDEST PUSH2 0xC58 JUMP JUMPDEST PUSH1 0x40 MLOAD PUSH2 0x253 SWAP2 SWAP1 PUSH2 0x115D JUMP JUMPDEST PUSH1 0x40 MLOAD DUP1 SWAP2 SUB SWAP1 RETURN JUMPDEST PUSH2 0x264 PUSH2 0xC70 JUMP JUMPDEST PUSH1 0x40 MLOAD PUSH2 0x271 SWAP2 SWAP1 PUSH2 0x1230 JUMP JUMPDEST PUSH1 0x40 MLOAD DUP1 SWAP2 SUB SWAP1 RETURN JUMPDEST PUSH2 0x282 PUSH2 0xC94 JUMP JUMPDEST PUSH1 0x40 MLOAD PUSH2 0x28F SWAP2 SWAP1 PUSH2 0x115D JUMP JUMPDEST PUSH1 0x40 MLOAD DUP1 SWAP2 SUB SWAP1 RETURN JUMPDEST PUSH2 0x2A0 PUSH2 0xC9A JUMP JUMPDEST PUSH1 0x40 MLOAD PUSH2 0x2AD SWAP2 SWAP1 PUSH2 0x115D JUMP JUMPDEST PUSH1 0x40 MLOAD DUP1 SWAP2 SUB SWAP1 RETURN JUMPDEST PUSH2 0x2BE PUSH2 0xCA0 JUMP JUMPDEST PUSH1 0x40 MLOAD PUSH2 0x2CB SWAP2 SWAP1 PUSH2 0x115D JUMP JUMPDEST PUSH1 0x40 MLOAD DUP1 SWAP2 SUB SWAP1 RETURN JUMPDEST PUSH2 0x2EE PUSH1 0x4 DUP1 CALLDATASIZE SUB DUP2 ADD SWAP1 PUSH2 0x2E9 SWAP2 SWAP1 PUSH2 0x1117 JUMP JUMPDEST PUSH2 0xCB3 JUMP JUMPDEST PUSH1 0x40 MLOAD PUSH2 0x2FB SWAP2 SWAP1 PUSH2 0x115D JUMP JUMPDEST PUSH1 0x40 MLOAD DUP1 SWAP2 SUB SWAP1 RETURN JUMPDEST PUSH2 0x30C PUSH2 0xCCB JUMP JUMPDEST PUSH1 0x40 MLOAD PUSH2 0x319 SWAP2 SWAP1 PUSH2 0x125A JUMP JUMPDEST PUSH1 0x40 MLOAD DUP1 SWAP2 SUB SWAP1 RETURN JUMPDEST PUSH2 0x33C PUSH1 0x4 DUP1 CALLDATASIZE SUB DUP2 ADD SWAP1 PUSH2 0x337 SWAP2 SWAP1 PUSH2 0x11A4 JUMP JUMPDEST PUSH2 0xCEF JUMP JUMPDEST STOP JUMPDEST PUSH2 0x358 PUSH1 0x4 DUP1 CALLDATASIZE SUB DUP2 ADD SWAP1 PUSH2 0x353 SWAP2 SWAP1 PUSH2 0x11A4 JUMP JUMPDEST PUSH2 0xF2A JUMP JUMPDEST STOP JUMPDEST PUSH2 0x362 PUSH2 0x1006 JUMP JUMPDEST PUSH1 0x40 MLOAD PUSH2 0x36F SWAP2 SWAP1 PUSH2 0x115D JUMP JUMPDEST PUSH1 0x40 MLOAD DUP1 SWAP2 SUB SWAP1 RETURN JUMPDEST PUSH2 0x380 PUSH2 0x1070 JUMP JUMPDEST PUSH1 0x40 MLOAD PUSH2 0x38D SWAP2 SWAP1 PUSH2 0x1230 JUMP JUMPDEST PUSH1 0x40 MLOAD DUP1 SWAP2 SUB SWAP1 RETURN JUMPDEST PUSH2 0x39E PUSH2 0x1094 JUMP JUMPDEST PUSH1 0x40 MLOAD PUSH2 0x3AB SWAP2 SWAP1 PUSH2 0x115D JUMP JUMPDEST PUSH1 0x40 MLOAD DUP1 SWAP2 SUB SWAP1 RETURN JUMPDEST PUSH1 0x0 PUSH1 0x7 PUSH1 0x0 DUP4 PUSH20 0xFFFFFFFFFFFFFFFFFFFFFFFFFFFFFFFFFFFFFFFF AND PUSH20 0xFFFFFFFFFFFFFFFFFFFFFFFFFFFFFFFFFFFFFFFF AND DUP2 MSTORE PUSH1 0x20 ADD SWAP1 DUP2 MSTORE PUSH1 0x20 ADD PUSH1 0x0 KECCAK256 SLOAD PUSH8 0xDE0B6B3A7640000 PUSH1 0x6 PUSH1 0x0 DUP6 PUSH20 0xFFFFFFFFFFFFFFFFFFFFFFFFFFFFFFFFFFFFFFFF AND PUSH20 0xFFFFFFFFFFFFFFFFFFFFFFFFFFFFFFFFFFFFFFFF AND DUP2 MSTORE PUSH1 0x20 ADD SWAP1 DUP2 MSTORE PUSH1 0x20 ADD PUSH1 0x0 KECCAK256 SLOAD PUSH2 0x447 PUSH2 0x1006 JUMP JUMPDEST PUSH2 0x451 SWAP2 SWAP1 PUSH2 0x12A4 JUMP JUMPDEST PUSH1 0x9 PUSH1 0x0 DUP7 PUSH20 0xFFFFFFFFFFFFFFFFFFFFFFFFFFFFFFFFFFFFFFFF AND PUSH20 0xFFFFFFFFFFFFFFFFFFFFFFFFFFFFFFFFFFFFFFFF AND DUP2 MSTORE PUSH1 0x20 ADD SWAP1 DUP2 MSTORE PUSH1 0x20 ADD PUSH1 0x0 KECCAK256 SLOAD PUSH2 0x49B SWAP2 SWAP1 PUSH2 0x12D8 JUMP JUMPDEST PUSH2 0x4A5 SWAP2 SWAP1 PUSH2 0x1349 JUMP JUMPDEST PUSH2 0x4AF SWAP2 SWAP1 PUSH2 0x137A JUMP JUMPDEST SWAP1 POP SWAP2 SWAP1 POP JUMP JUMPDEST PUSH1 0x1 SLOAD DUP2 JUMP JUMPDEST PUSH1 0x8 SLOAD DUP2 JUMP JUMPDEST CALLER PUSH2 0x4CB PUSH2 0x1006 JUMP JUMPDEST PUSH1 0x5 DUP2 SWAP1 SSTORE POP PUSH2 0x4D9 PUSH2 0xCA0 JUMP JUMPDEST PUSH1 0x3 DUP2 SWAP1 SSTORE POP PUSH1 0x0 PUSH20 0xFFFFFFFFFFFFFFFFFFFFFFFFFFFFFFFFFFFFFFFF AND DUP2 PUSH20 0xFFFFFFFFFFFFFFFFFFFFFFFFFFFFFFFFFFFFFFFF AND EQ PUSH2 0x5A6 JUMPI PUSH2 0x51C DUP2 PUSH2 0x3B4 JUMP JUMPDEST PUSH1 0x7 PUSH1 0x0 DUP4 PUSH20 0xFFFFFFFFFFFFFFFFFFFFFFFFFFFFFFFFFFFFFFFF AND PUSH20 0xFFFFFFFFFFFFFFFFFFFFFFFFFFFFFFFFFFFFFFFF AND DUP2 MSTORE PUSH1 0x20 ADD SWAP1 DUP2 MSTORE PUSH1 0x20 ADD PUSH1 0x0 KECCAK256 DUP2 SWAP1 SSTORE POP PUSH1 0x5 SLOAD PUSH1 0x6 PUSH1 0x0 DUP4 PUSH20 0xFFFFFFFFFFFFFFFFFFFFFFFFFFFFFFFFFFFFFFFF AND PUSH20 0xFFFFFFFFFFFFFFFFFFFFFFFFFFFFFFFFFFFFFFFF AND DUP2 MSTORE PUSH1 0x20 ADD SWAP1 DUP2 MSTORE PUSH1 0x20 ADD PUSH1 0x0 KECCAK256 DUP2 SWAP1 SSTORE POP JUMPDEST PUSH1 0x0 DUP3 GT PUSH2 0x5E9 JUMPI PUSH1 0x40 MLOAD PUSH32 0x8C379A000000000000000000000000000000000000000000000000000000000 DUP2 MSTORE PUSH1 0x4 ADD PUSH2 0x5E0 SWAP1 PUSH2 0x140B JUMP JUMPDEST PUSH1 0x40 MLOAD DUP1 SWAP2 SUB SWAP1 REVERT JUMPDEST DUP2 PUSH1 0x9 PUSH1 0x0 CALLER PUSH20 0xFFFFFFFFFFFFFFFFFFFFFFFFFFFFFFFFFFFFFFFF AND PUSH20 0xFFFFFFFFFFFFFFFFFFFFFFFFFFFFFFFFFFFFFFFF AND DUP2 MSTORE PUSH1 0x20 ADD SWAP1 DUP2 MSTORE PUSH1 0x20 ADD PUSH1 0x0 KECCAK256 PUSH1 0x0 DUP3 DUP3 SLOAD PUSH2 0x638 SWAP2 SWAP1 PUSH2 0x12A4 JUMP JUMPDEST SWAP3 POP POP DUP2 SWAP1 SSTORE POP DUP2 PUSH1 0x8 PUSH1 0x0 DUP3 DUP3 SLOAD PUSH2 0x651 SWAP2 SWAP1 PUSH2 0x12A4 JUMP JUMPDEST SWAP3 POP POP DUP2 SWAP1 SSTORE POP PUSH32 0x0 PUSH20 0xFFFFFFFFFFFFFFFFFFFFFFFFFFFFFFFFFFFFFFFF AND PUSH4 0xA9059CBB CALLER DUP5 PUSH1 0x40 MLOAD DUP4 PUSH4 0xFFFFFFFF AND PUSH1 0xE0 SHL DUP2 MSTORE PUSH1 0x4 ADD PUSH2 0x6B3 SWAP3 SWAP2 SWAP1 PUSH2 0x142B JUMP JUMPDEST PUSH1 0x20 PUSH1 0x40 MLOAD DUP1 DUP4 SUB DUP2 PUSH1 0x0 DUP8 GAS CALL ISZERO DUP1 ISZERO PUSH2 0x6D2 JUMPI RETURNDATASIZE PUSH1 0x0 DUP1 RETURNDATACOPY RETURNDATASIZE PUSH1 0x0 REVERT JUMPDEST POP POP POP POP PUSH1 0x40 MLOAD RETURNDATASIZE PUSH1 0x1F NOT PUSH1 0x1F DUP3 ADD AND DUP3 ADD DUP1 PUSH1 0x40 MSTORE POP DUP2 ADD SWAP1 PUSH2 0x6F6 SWAP2 SWAP1 PUSH2 0x148C JUMP JUMPDEST POP POP POP JUMP JUMPDEST PUSH1 0x0 DUP1 SLOAD SWAP1 PUSH2 0x100 EXP SWAP1 DIV PUSH20 0xFFFFFFFFFFFFFFFFFFFFFFFFFFFFFFFFFFFFFFFF AND PUSH20 0xFFFFFFFFFFFFFFFFFFFFFFFFFFFFFFFFFFFFFFFF AND CALLER PUSH20 0xFFFFFFFFFFFFFFFFFFFFFFFFFFFFFFFFFFFFFFFF AND EQ PUSH2 0x789 JUMPI PUSH1 0x40 MLOAD PUSH32 0x8C379A000000000000000000000000000000000000000000000000000000000 DUP2 MSTORE PUSH1 0x4 ADD PUSH2 0x780 SWAP1 PUSH2 0x1505 JUMP JUMPDEST PUSH1 0x40 MLOAD DUP1 SWAP2 SUB SWAP1 REVERT JUMPDEST PUSH1 0x0 PUSH2 0x793 PUSH2 0x1006 JUMP JUMPDEST PUSH1 0x5 DUP2 SWAP1 SSTORE POP PUSH2 0x7A1 PUSH2 0xCA0 JUMP JUMPDEST PUSH1 0x3 DUP2 SWAP1 SSTORE POP PUSH1 0x0 PUSH20 0xFFFFFFFFFFFFFFFFFFFFFFFFFFFFFFFFFFFFFFFF AND DUP2 PUSH20 0xFFFFFFFFFFFFFFFFFFFFFFFFFFFFFFFFFFFFFFFF AND EQ PUSH2 0x86E JUMPI PUSH2 0x7E4 DUP2 PUSH2 0x3B4 JUMP JUMPDEST PUSH1 0x7 PUSH1 0x0 DUP4 PUSH20 0xFFFFFFFFFFFFFFFFFFFFFFFFFFFFFFFFFFFFFFFF AND PUSH20 0xFFFFFFFFFFFFFFFFFFFFFFFFFFFFFFFFFFFFFFFF AND DUP2 MSTORE PUSH1 0x20 ADD SWAP1 DUP2 MSTORE PUSH1 0x20 ADD PUSH1 0x0 KECCAK256 DUP2 SWAP1 SSTORE POP PUSH1 0x5 SLOAD PUSH1 0x6 PUSH1 0x0 DUP4 PUSH20 0xFFFFFFFFFFFFFFFFFFFFFFFFFFFFFFFFFFFFFFFF AND PUSH20 0xFFFFFFFFFFFFFFFFFFFFFFFFFFFFFFFFFFFFFFFF AND DUP2 MSTORE PUSH1 0x20 ADD SWAP1 DUP2 MSTORE PUSH1 0x20 ADD PUSH1 0x0 KECCAK256 DUP2 SWAP1 SSTORE POP JUMPDEST PUSH1 0x2 SLOAD TIMESTAMP GT ISZERO PUSH2 0x891 JUMPI PUSH1 0x1 SLOAD DUP3 PUSH2 0x886 SWAP2 SWAP1 PUSH2 0x1349 JUMP JUMPDEST PUSH1 0x4 DUP2 SWAP1 SSTORE POP PUSH2 0x8D1 JUMP JUMPDEST PUSH1 0x0 TIMESTAMP PUSH1 0x2 SLOAD PUSH2 0x8A1 SWAP2 SWAP1 PUSH2 0x12A4 JUMP JUMPDEST PUSH1 0x4 SLOAD PUSH2 0x8AE SWAP2 SWAP1 PUSH2 0x12D8 JUMP JUMPDEST SWAP1 POP PUSH1 0x1 SLOAD DUP4 DUP3 PUSH2 0x8BF SWAP2 SWAP1 PUSH2 0x137A JUMP JUMPDEST PUSH2 0x8C9 SWAP2 SWAP1 PUSH2 0x1349 JUMP JUMPDEST PUSH1 0x4 DUP2 SWAP1 SSTORE POP POP JUMPDEST PUSH1 0x0 PUSH1 0x4 SLOAD GT PUSH2 0x916 JUMPI PUSH1 0x40 MLOAD PUSH32 0x8C379A000000000000000000000000000000000000000000000000000000000 DUP2 MSTORE PUSH1 0x4 ADD PUSH2 0x90D SWAP1 PUSH2 0x1571 JUMP JUMPDEST PUSH1 0x40 MLOAD DUP1 SWAP2 SUB SWAP1 REVERT JUMPDEST PUSH32 0x0 PUSH20 0xFFFFFFFFFFFFFFFFFFFFFFFFFFFFFFFFFFFFFFFF AND PUSH4 0x70A08231 ADDRESS PUSH1 0x40 MLOAD DUP3 PUSH4 0xFFFFFFFF AND PUSH1 0xE0 SHL DUP2 MSTORE PUSH1 0x4 ADD PUSH2 0x96F SWAP2 SWAP1 PUSH2 0x125A JUMP JUMPDEST PUSH1 0x20 PUSH1 0x40 MLOAD DUP1 DUP4 SUB DUP2 DUP7 GAS STATICCALL ISZERO DUP1 ISZERO PUSH2 0x98C JUMPI RETURNDATASIZE PUSH1 0x0 DUP1 RETURNDATACOPY RETURNDATASIZE PUSH1 0x0 REVERT JUMPDEST POP POP POP POP PUSH1 0x40 MLOAD RETURNDATASIZE PUSH1 0x1F NOT PUSH1 0x1F DUP3 ADD AND DUP3 ADD DUP1 PUSH1 0x40 MSTORE POP DUP2 ADD SWAP1 PUSH2 0x9B0 SWAP2 SWAP1 PUSH2 0x15A6 JUMP JUMPDEST PUSH1 0x1 SLOAD PUSH1 0x4 SLOAD PUSH2 0x9C0 SWAP2 SWAP1 PUSH2 0x12D8 JUMP JUMPDEST GT ISZERO PUSH2 0xA01 JUMPI PUSH1 0x40 MLOAD PUSH32 0x8C379A000000000000000000000000000000000000000000000000000000000 DUP2 MSTORE PUSH1 0x4 ADD PUSH2 0x9F8 SWAP1 PUSH2 0x161F JUMP JUMPDEST PUSH1 0x40 MLOAD DUP1 SWAP2 SUB SWAP1 REVERT JUMPDEST PUSH1 0x1 SLOAD TIMESTAMP PUSH2 0xA0F SWAP2 SWAP1 PUSH2 0x137A JUMP JUMPDEST PUSH1 0x2 DUP2 SWAP1 SSTORE POP TIMESTAMP PUSH1 0x3 DUP2 SWAP1 SSTORE POP POP POP JUMP JUMPDEST CALLER PUSH2 0xA29 PUSH2 0x1006 JUMP JUMPDEST PUSH1 0x5 DUP2 SWAP1 SSTORE POP PUSH2 0xA37 PUSH2 0xCA0 JUMP JUMPDEST PUSH1 0x3 DUP2 SWAP1 SSTORE POP PUSH1 0x0 PUSH20 0xFFFFFFFFFFFFFFFFFFFFFFFFFFFFFFFFFFFFFFFF AND DUP2 PUSH20 0xFFFFFFFFFFFFFFFFFFFFFFFFFFFFFFFFFFFFFFFF AND EQ PUSH2 0xB04 JUMPI PUSH2 0xA7A DUP2 PUSH2 0x3B4 JUMP JUMPDEST PUSH1 0x7 PUSH1 0x0 DUP4 PUSH20 0xFFFFFFFFFFFFFFFFFFFFFFFFFFFFFFFFFFFFFFFF AND PUSH20 0xFFFFFFFFFFFFFFFFFFFFFFFFFFFFFFFFFFFFFFFF AND DUP2 MSTORE PUSH1 0x20 ADD SWAP1 DUP2 MSTORE PUSH1 0x20 ADD PUSH1 0x0 KECCAK256 DUP2 SWAP1 SSTORE POP PUSH1 0x5 SLOAD PUSH1 0x6 PUSH1 0x0 DUP4 PUSH20 0xFFFFFFFFFFFFFFFFFFFFFFFFFFFFFFFFFFFFFFFF AND PUSH20 0xFFFFFFFFFFFFFFFFFFFFFFFFFFFFFFFFFFFFFFFF AND DUP2 MSTORE PUSH1 0x20 ADD SWAP1 DUP2 MSTORE PUSH1 0x20 ADD PUSH1 0x0 KECCAK256 DUP2 SWAP1 SSTORE POP JUMPDEST PUSH1 0x0 PUSH1 0x7 PUSH1 0x0 CALLER PUSH20 0xFFFFFFFFFFFFFFFFFFFFFFFFFFFFFFFFFFFFFFFF AND PUSH20 0xFFFFFFFFFFFFFFFFFFFFFFFFFFFFFFFFFFFFFFFF AND DUP2 MSTORE PUSH1 0x20 ADD SWAP1 DUP2 MSTORE PUSH1 0x20 ADD PUSH1 0x0 KECCAK256 SLOAD SWAP1 POP PUSH1 0x0 DUP2 GT ISZERO PUSH2 0xC36 JUMPI PUSH1 0x0 PUSH1 0x7 PUSH1 0x0 CALLER PUSH20 0xFFFFFFFFFFFFFFFFFFFFFFFFFFFFFFFFFFFFFFFF AND PUSH20 0xFFFFFFFFFFFFFFFFFFFFFFFFFFFFFFFFFFFFFFFF AND DUP2 MSTORE PUSH1 0x20 ADD SWAP1 DUP2 MSTORE PUSH1 0x20 ADD PUSH1 0x0 KECCAK256 DUP2 SWAP1 SSTORE POP PUSH32 0x0 PUSH20 0xFFFFFFFFFFFFFFFFFFFFFFFFFFFFFFFFFFFFFFFF AND PUSH4 0xA9059CBB CALLER DUP4 PUSH1 0x40 MLOAD DUP4 PUSH4 0xFFFFFFFF AND PUSH1 0xE0 SHL DUP2 MSTORE PUSH1 0x4 ADD PUSH2 0xBF1 SWAP3 SWAP2 SWAP1 PUSH2 0x142B JUMP JUMPDEST PUSH1 0x20 PUSH1 0x40 MLOAD DUP1 DUP4 SUB DUP2 PUSH1 0x0 DUP8 GAS CALL ISZERO DUP1 ISZERO PUSH2 0xC10 JUMPI RETURNDATASIZE PUSH1 0x0 DUP1 RETURNDATACOPY RETURNDATASIZE PUSH1 0x0 REVERT JUMPDEST POP POP POP POP PUSH1 0x40 MLOAD RETURNDATASIZE PUSH1 0x1F NOT PUSH1 0x1F DUP3 ADD AND DUP3 ADD DUP1 PUSH1 0x40 MSTORE POP DUP2 ADD SWAP1 PUSH2 0xC34 SWAP2 SWAP1 PUSH2 0x148C JUMP JUMPDEST POP JUMPDEST POP POP JUMP JUMPDEST PUSH1 0x7 PUSH1 0x20 MSTORE DUP1 PUSH1 0x0 MSTORE PUSH1 0x40 PUSH1 0x0 KECCAK256 PUSH1 0x0 SWAP2 POP SWAP1 POP SLOAD DUP2 JUMP JUMPDEST PUSH1 0x2 SLOAD DUP2 JUMP JUMPDEST PUSH1 0x9 PUSH1 0x20 MSTORE DUP1 PUSH1 0x0 MSTORE PUSH1 0x40 PUSH1 0x0 KECCAK256 PUSH1 0x0 SWAP2 POP SWAP1 POP SLOAD DUP2 JUMP JUMPDEST PUSH32 0x0 DUP2 JUMP JUMPDEST PUSH1 0x3 SLOAD DUP2 JUMP JUMPDEST PUSH1 0x4 SLOAD DUP2 JUMP JUMPDEST PUSH1 0x0 PUSH2 0xCAE PUSH1 0x2 SLOAD TIMESTAMP PUSH2 0x109A JUMP JUMPDEST SWAP1 POP SWAP1 JUMP JUMPDEST PUSH1 0x6 PUSH1 0x20 MSTORE DUP1 PUSH1 0x0 MSTORE PUSH1 0x40 PUSH1 0x0 KECCAK256 PUSH1 0x0 SWAP2 POP SWAP1 POP SLOAD DUP2 JUMP JUMPDEST PUSH1 0x0 DUP1 SLOAD SWAP1 PUSH2 0x100 EXP SWAP1 DIV PUSH20 0xFFFFFFFFFFFFFFFFFFFFFFFFFFFFFFFFFFFFFFFF AND DUP2 JUMP JUMPDEST CALLER PUSH2 0xCF8 PUSH2 0x1006 JUMP JUMPDEST PUSH1 0x5 DUP2 SWAP1 SSTORE POP PUSH2 0xD06 PUSH2 0xCA0 JUMP JUMPDEST PUSH1 0x3 DUP2 SWAP1 SSTORE POP PUSH1 0x0 PUSH20 0xFFFFFFFFFFFFFFFFFFFFFFFFFFFFFFFFFFFFFFFF AND DUP2 PUSH20 0xFFFFFFFFFFFFFFFFFFFFFFFFFFFFFFFFFFFFFFFF AND EQ PUSH2 0xDD3 JUMPI PUSH2 0xD49 DUP2 PUSH2 0x3B4 JUMP JUMPDEST PUSH1 0x7 PUSH1 0x0 DUP4 PUSH20 0xFFFFFFFFFFFFFFFFFFFFFFFFFFFFFFFFFFFFFFFF AND PUSH20 0xFFFFFFFFFFFFFFFFFFFFFFFFFFFFFFFFFFFFFFFF AND DUP2 MSTORE PUSH1 0x20 ADD SWAP1 DUP2 MSTORE PUSH1 0x20 ADD PUSH1 0x0 KECCAK256 DUP2 SWAP1 SSTORE POP PUSH1 0x5 SLOAD PUSH1 0x6 PUSH1 0x0 DUP4 PUSH20 0xFFFFFFFFFFFFFFFFFFFFFFFFFFFFFFFFFFFFFFFF AND PUSH20 0xFFFFFFFFFFFFFFFFFFFFFFFFFFFFFFFFFFFFFFFF AND DUP2 MSTORE PUSH1 0x20 ADD SWAP1 DUP2 MSTORE PUSH1 0x20 ADD PUSH1 0x0 KECCAK256 DUP2 SWAP1 SSTORE POP JUMPDEST PUSH1 0x0 DUP3 GT PUSH2 0xE16 JUMPI PUSH1 0x40 MLOAD PUSH32 0x8C379A000000000000000000000000000000000000000000000000000000000 DUP2 MSTORE PUSH1 0x4 ADD PUSH2 0xE0D SWAP1 PUSH2 0x168B JUMP JUMPDEST PUSH1 0x40 MLOAD DUP1 SWAP2 SUB SWAP1 REVERT JUMPDEST PUSH32 0x0 PUSH20 0xFFFFFFFFFFFFFFFFFFFFFFFFFFFFFFFFFFFFFFFF AND PUSH4 0x23B872DD CALLER ADDRESS DUP6 PUSH1 0x40 MLOAD DUP5 PUSH4 0xFFFFFFFF AND PUSH1 0xE0 SHL DUP2 MSTORE PUSH1 0x4 ADD PUSH2 0xE73 SWAP4 SWAP3 SWAP2 SWAP1 PUSH2 0x16AB JUMP JUMPDEST PUSH1 0x20 PUSH1 0x40 MLOAD DUP1 DUP4 SUB DUP2 PUSH1 0x0 DUP8 GAS CALL ISZERO DUP1 ISZERO PUSH2 0xE92 JUMPI RETURNDATASIZE PUSH1 0x0 DUP1 RETURNDATACOPY RETURNDATASIZE PUSH1 0x0 REVERT JUMPDEST POP POP POP POP PUSH1 0x40 MLOAD RETURNDATASIZE PUSH1 0x1F NOT PUSH1 0x1F DUP3 ADD AND DUP3 ADD DUP1 PUSH1 0x40 MSTORE POP DUP2 ADD SWAP1 PUSH2 0xEB6 SWAP2 SWAP1 PUSH2 0x148C JUMP JUMPDEST POP DUP2 PUSH1 0x9 PUSH1 0x0 CALLER PUSH20 0xFFFFFFFFFFFFFFFFFFFFFFFFFFFFFFFFFFFFFFFF AND PUSH20 0xFFFFFFFFFFFFFFFFFFFFFFFFFFFFFFFFFFFFFFFF AND DUP2 MSTORE PUSH1 0x20 ADD SWAP1 DUP2 MSTORE PUSH1 0x20 ADD PUSH1 0x0 KECCAK256 PUSH1 0x0 DUP3 DUP3 SLOAD PUSH2 0xF06 SWAP2 SWAP1 PUSH2 0x137A JUMP JUMPDEST SWAP3 POP POP DUP2 SWAP1 SSTORE POP DUP2 PUSH1 0x8 PUSH1 0x0 DUP3 DUP3 SLOAD PUSH2 0xF1F SWAP2 SWAP1 PUSH2 0x137A JUMP JUMPDEST SWAP3 POP POP DUP2 SWAP1 SSTORE POP POP POP JUMP JUMPDEST PUSH1 0x0 DUP1 SLOAD SWAP1 PUSH2 0x100 EXP SWAP1 DIV PUSH20 0xFFFFFFFFFFFFFFFFFFFFFFFFFFFFFFFFFFFFFFFF AND PUSH20 0xFFFFFFFFFFFFFFFFFFFFFFFFFFFFFFFFFFFFFFFF AND CALLER PUSH20 0xFFFFFFFFFFFFFFFFFFFFFFFFFFFFFFFFFFFFFFFF AND EQ PUSH2 0xFB8 JUMPI PUSH1 0x40 MLOAD PUSH32 0x8C379A000000000000000000000000000000000000000000000000000000000 DUP2 MSTORE PUSH1 0x4 ADD PUSH2 0xFAF SWAP1 PUSH2 0x1505 JUMP JUMPDEST PUSH1 0x40 MLOAD DUP1 SWAP2 SUB SWAP1 REVERT JUMPDEST TIMESTAMP PUSH1 0x2 SLOAD LT PUSH2 0xFFC JUMPI PUSH1 0x40 MLOAD PUSH32 0x8C379A000000000000000000000000000000000000000000000000000000000 DUP2 MSTORE PUSH1 0x4 ADD PUSH2 0xFF3 SWAP1 PUSH2 0x172E JUMP JUMPDEST PUSH1 0x40 MLOAD DUP1 SWAP2 SUB SWAP1 REVERT JUMPDEST DUP1 PUSH1 0x1 DUP2 SWAP1 SSTORE POP POP JUMP JUMPDEST PUSH1 0x0 DUP1 PUSH1 0x8 SLOAD SUB PUSH2 0x101B JUMPI PUSH1 0x5 SLOAD SWAP1 POP PUSH2 0x106D JUMP JUMPDEST PUSH1 0x8 SLOAD PUSH8 0xDE0B6B3A7640000 PUSH1 0x3 SLOAD PUSH2 0x1032 PUSH2 0xCA0 JUMP JUMPDEST PUSH2 0x103C SWAP2 SWAP1 PUSH2 0x12A4 JUMP JUMPDEST PUSH1 0x4 SLOAD PUSH2 0x1049 SWAP2 SWAP1 PUSH2 0x12D8 JUMP JUMPDEST PUSH2 0x1053 SWAP2 SWAP1 PUSH2 0x12D8 JUMP JUMPDEST PUSH2 0x105D SWAP2 SWAP1 PUSH2 0x1349 JUMP JUMPDEST PUSH1 0x5 SLOAD PUSH2 0x106A SWAP2 SWAP1 PUSH2 0x137A JUMP JUMPDEST SWAP1 POP JUMPDEST SWAP1 JUMP JUMPDEST PUSH32 0x0 DUP2 JUMP JUMPDEST PUSH1 0x5 SLOAD DUP2 JUMP JUMPDEST PUSH1 0x0 DUP2 DUP4 GT ISZERO PUSH2 0x10AA JUMPI DUP2 PUSH2 0x10AC JUMP JUMPDEST DUP3 JUMPDEST SWAP1 POP SWAP3 SWAP2 POP POP JUMP JUMPDEST PUSH1 0x0 DUP1 REVERT JUMPDEST PUSH1 0x0 PUSH20 0xFFFFFFFFFFFFFFFFFFFFFFFFFFFFFFFFFFFFFFFF DUP3 AND SWAP1 POP SWAP2 SWAP1 POP JUMP JUMPDEST PUSH1 0x0 PUSH2 0x10E4 DUP3 PUSH2 0x10B9 JUMP JUMPDEST SWAP1 POP SWAP2 SWAP1 POP JUMP JUMPDEST PUSH2 0x10F4 DUP2 PUSH2 0x10D9 JUMP JUMPDEST DUP2 EQ PUSH2 0x10FF JUMPI PUSH1 0x0 DUP1 REVERT JUMPDEST POP JUMP JUMPDEST PUSH1 0x0 DUP2 CALLDATALOAD SWAP1 POP PUSH2 0x1111 DUP2 PUSH2 0x10EB JUMP JUMPDEST SWAP3 SWAP2 POP POP JUMP JUMPDEST PUSH1 0x0 PUSH1 0x20 DUP3 DUP5 SUB SLT ISZERO PUSH2 0x112D JUMPI PUSH2 0x112C PUSH2 0x10B4 JUMP JUMPDEST JUMPDEST PUSH1 0x0 PUSH2 0x113B DUP5 DUP3 DUP6 ADD PUSH2 0x1102 JUMP JUMPDEST SWAP2 POP POP SWAP3 SWAP2 POP POP JUMP JUMPDEST PUSH1 0x0 DUP2 SWAP1 POP SWAP2 SWAP1 POP JUMP JUMPDEST PUSH2 0x1157 DUP2 PUSH2 0x1144 JUMP JUMPDEST DUP3 MSTORE POP POP JUMP JUMPDEST PUSH1 0x0 PUSH1 0x20 DUP3 ADD SWAP1 POP PUSH2 0x1172 PUSH1 0x0 DUP4 ADD DUP5 PUSH2 0x114E JUMP JUMPDEST SWAP3 SWAP2 POP POP JUMP JUMPDEST PUSH2 0x1181 DUP2 PUSH2 0x1144 JUMP JUMPDEST DUP2 EQ PUSH2 0x118C JUMPI PUSH1 0x0 DUP1 REVERT JUMPDEST POP JUMP JUMPDEST PUSH1 0x0 DUP2 CALLDATALOAD SWAP1 POP PUSH2 0x119E DUP2 PUSH2 0x1178 JUMP JUMPDEST SWAP3 SWAP2 POP POP JUMP JUMPDEST PUSH1 0x0 PUSH1 0x20 DUP3 DUP5 SUB SLT ISZERO PUSH2 0x11BA JUMPI PUSH2 0x11B9 PUSH2 0x10B4 JUMP JUMPDEST JUMPDEST PUSH1 0x0 PUSH2 0x11C8 DUP5 DUP3 DUP6 ADD PUSH2 0x118F JUMP JUMPDEST SWAP2 POP POP SWAP3 SWAP2 POP POP JUMP JUMPDEST PUSH1 0x0 DUP2 SWAP1 POP SWAP2 SWAP1 POP JUMP JUMPDEST PUSH1 0x0 PUSH2 0x11F6 PUSH2 0x11F1 PUSH2 0x11EC DUP5 PUSH2 0x10B9 JUMP JUMPDEST PUSH2 0x11D1 JUMP JUMPDEST PUSH2 0x10B9 JUMP JUMPDEST SWAP1 POP SWAP2 SWAP1 POP JUMP JUMPDEST PUSH1 0x0 PUSH2 0x1208 DUP3 PUSH2 0x11DB JUMP JUMPDEST SWAP1 POP SWAP2 SWAP1 POP JUMP JUMPDEST PUSH1 0x0 PUSH2 0x121A DUP3 PUSH2 0x11FD JUMP JUMPDEST SWAP1 POP SWAP2 SWAP1 POP JUMP JUMPDEST PUSH2 0x122A DUP2 PUSH2 0x120F JUMP JUMPDEST DUP3 MSTORE POP POP JUMP JUMPDEST PUSH1 0x0 PUSH1 0x20 DUP3 ADD SWAP1 POP PUSH2 0x1245 PUSH1 0x0 DUP4 ADD DUP5 PUSH2 0x1221 JUMP JUMPDEST SWAP3 SWAP2 POP POP JUMP JUMPDEST PUSH2 0x1254 DUP2 PUSH2 0x10D9 JUMP JUMPDEST DUP3 MSTORE POP POP JUMP JUMPDEST PUSH1 0x0 PUSH1 0x20 DUP3 ADD SWAP1 POP PUSH2 0x126F PUSH1 0x0 DUP4 ADD DUP5 PUSH2 0x124B JUMP JUMPDEST SWAP3 SWAP2 POP POP JUMP JUMPDEST PUSH32 0x4E487B7100000000000000000000000000000000000000000000000000000000 PUSH1 0x0 MSTORE PUSH1 0x11 PUSH1 0x4 MSTORE PUSH1 0x24 PUSH1 0x0 REVERT JUMPDEST PUSH1 0x0 PUSH2 0x12AF DUP3 PUSH2 0x1144 JUMP JUMPDEST SWAP2 POP PUSH2 0x12BA DUP4 PUSH2 0x1144 JUMP JUMPDEST SWAP3 POP DUP3 DUP3 SUB SWAP1 POP DUP2 DUP2 GT ISZERO PUSH2 0x12D2 JUMPI PUSH2 0x12D1 PUSH2 0x1275 JUMP JUMPDEST JUMPDEST SWAP3 SWAP2 POP POP JUMP JUMPDEST PUSH1 0x0 PUSH2 0x12E3 DUP3 PUSH2 0x1144 JUMP JUMPDEST SWAP2 POP PUSH2 0x12EE DUP4 PUSH2 0x1144 JUMP JUMPDEST SWAP3 POP DUP3 DUP3 MUL PUSH2 0x12FC DUP2 PUSH2 0x1144 JUMP JUMPDEST SWAP2 POP DUP3 DUP3 DIV DUP5 EQ DUP4 ISZERO OR PUSH2 0x1313 JUMPI PUSH2 0x1312 PUSH2 0x1275 JUMP JUMPDEST JUMPDEST POP SWAP3 SWAP2 POP POP JUMP JUMPDEST PUSH32 0x4E487B7100000000000000000000000000000000000000000000000000000000 PUSH1 0x0 MSTORE PUSH1 0x12 PUSH1 0x4 MSTORE PUSH1 0x24 PUSH1 0x0 REVERT JUMPDEST PUSH1 0x0 PUSH2 0x1354 DUP3 PUSH2 0x1144 JUMP JUMPDEST SWAP2 POP PUSH2 0x135F DUP4 PUSH2 0x1144 JUMP JUMPDEST SWAP3 POP DUP3 PUSH2 0x136F JUMPI PUSH2 0x136E PUSH2 0x131A JUMP JUMPDEST JUMPDEST DUP3 DUP3 DIV SWAP1 POP SWAP3 SWAP2 POP POP JUMP JUMPDEST PUSH1 0x0 PUSH2 0x1385 DUP3 PUSH2 0x1144 JUMP JUMPDEST SWAP2 POP PUSH2 0x1390 DUP4 PUSH2 0x1144 JUMP JUMPDEST SWAP3 POP DUP3 DUP3 ADD SWAP1 POP DUP1 DUP3 GT ISZERO PUSH2 0x13A8 JUMPI PUSH2 0x13A7 PUSH2 0x1275 JUMP JUMPDEST JUMPDEST SWAP3 SWAP2 POP POP JUMP JUMPDEST PUSH1 0x0 DUP3 DUP3 MSTORE PUSH1 0x20 DUP3 ADD SWAP1 POP SWAP3 SWAP2 POP POP JUMP JUMPDEST PUSH32 0x616D6F756E74203D203000000000000000000000000000000000000000000000 PUSH1 0x0 DUP3 ADD MSTORE POP JUMP JUMPDEST PUSH1 0x0 PUSH2 0x13F5 PUSH1 0xA DUP4 PUSH2 0x13AE JUMP JUMPDEST SWAP2 POP PUSH2 0x1400 DUP3 PUSH2 0x13BF JUMP JUMPDEST PUSH1 0x20 DUP3 ADD SWAP1 POP SWAP2 SWAP1 POP JUMP JUMPDEST PUSH1 0x0 PUSH1 0x20 DUP3 ADD SWAP1 POP DUP2 DUP2 SUB PUSH1 0x0 DUP4 ADD MSTORE PUSH2 0x1424 DUP2 PUSH2 0x13E8 JUMP JUMPDEST SWAP1 POP SWAP2 SWAP1 POP JUMP JUMPDEST PUSH1 0x0 PUSH1 0x40 DUP3 ADD SWAP1 POP PUSH2 0x1440 PUSH1 0x0 DUP4 ADD DUP6 PUSH2 0x124B JUMP JUMPDEST PUSH2 0x144D PUSH1 0x20 DUP4 ADD DUP5 PUSH2 0x114E JUMP JUMPDEST SWAP4 SWAP3 POP POP POP JUMP JUMPDEST PUSH1 0x0 DUP2 ISZERO ISZERO SWAP1 POP SWAP2 SWAP1 POP JUMP JUMPDEST PUSH2 0x1469 DUP2 PUSH2 0x1454 JUMP JUMPDEST DUP2 EQ PUSH2 0x1474 JUMPI PUSH1 0x0 DUP1 REVERT JUMPDEST POP JUMP JUMPDEST PUSH1 0x0 DUP2 MLOAD SWAP1 POP PUSH2 0x1486 DUP2 PUSH2 0x1460 JUMP JUMPDEST SWAP3 SWAP2 POP POP JUMP JUMPDEST PUSH1 0x0 PUSH1 0x20 DUP3 DUP5 SUB SLT ISZERO PUSH2 0x14A2 JUMPI PUSH2 0x14A1 PUSH2 0x10B4 JUMP JUMPDEST JUMPDEST PUSH1 0x0 PUSH2 0x14B0 DUP5 DUP3 DUP6 ADD PUSH2 0x1477 JUMP JUMPDEST SWAP2 POP POP SWAP3 SWAP2 POP POP JUMP JUMPDEST PUSH32 0x596F7520617265206E6F74206F776E6572000000000000000000000000000000 PUSH1 0x0 DUP3 ADD MSTORE POP JUMP JUMPDEST PUSH1 0x0 PUSH2 0x14EF PUSH1 0x11 DUP4 PUSH2 0x13AE JUMP JUMPDEST SWAP2 POP PUSH2 0x14FA DUP3 PUSH2 0x14B9 JUMP JUMPDEST PUSH1 0x20 DUP3 ADD SWAP1 POP SWAP2 SWAP1 POP JUMP JUMPDEST PUSH1 0x0 PUSH1 0x20 DUP3 ADD SWAP1 POP DUP2 DUP2 SUB PUSH1 0x0 DUP4 ADD MSTORE PUSH2 0x151E DUP2 PUSH2 0x14E2 JUMP JUMPDEST SWAP1 POP SWAP2 SWAP1 POP JUMP JUMPDEST PUSH32 0x7265776172642072617465203D20300000000000000000000000000000000000 PUSH1 0x0 DUP3 ADD MSTORE POP JUMP JUMPDEST PUSH1 0x0 PUSH2 0x155B PUSH1 0xF DUP4 PUSH2 0x13AE JUMP JUMPDEST SWAP2 POP PUSH2 0x1566 DUP3 PUSH2 0x1525 JUMP JUMPDEST PUSH1 0x20 DUP3 ADD SWAP1 POP SWAP2 SWAP1 POP JUMP JUMPDEST PUSH1 0x0 PUSH1 0x20 DUP3 ADD SWAP1 POP DUP2 DUP2 SUB PUSH1 0x0 DUP4 ADD MSTORE PUSH2 0x158A DUP2 PUSH2 0x154E JUMP JUMPDEST SWAP1 POP SWAP2 SWAP1 POP JUMP JUMPDEST PUSH1 0x0 DUP2 MLOAD SWAP1 POP PUSH2 0x15A0 DUP2 PUSH2 0x1178 JUMP JUMPDEST SWAP3 SWAP2 POP POP JUMP JUMPDEST PUSH1 0x0 PUSH1 0x20 DUP3 DUP5 SUB SLT ISZERO PUSH2 0x15BC JUMPI PUSH2 0x15BB PUSH2 0x10B4 JUMP JUMPDEST JUMPDEST PUSH1 0x0 PUSH2 0x15CA DUP5 DUP3 DUP6 ADD PUSH2 0x1591 JUMP JUMPDEST SWAP2 POP POP SWAP3 SWAP2 POP POP JUMP JUMPDEST PUSH32 0x72657761726420616D6F756E74203E2062616C616E6365000000000000000000 PUSH1 0x0 DUP3 ADD MSTORE POP JUMP JUMPDEST PUSH1 0x0 PUSH2 0x1609 PUSH1 0x17 DUP4 PUSH2 0x13AE JUMP JUMPDEST SWAP2 POP PUSH2 0x1614 DUP3 PUSH2 0x15D3 JUMP JUMPDEST PUSH1 0x20 DUP3 ADD SWAP1 POP SWAP2 SWAP1 POP JUMP JUMPDEST PUSH1 0x0 PUSH1 0x20 DUP3 ADD SWAP1 POP DUP2 DUP2 SUB PUSH1 0x0 DUP4 ADD MSTORE PUSH2 0x1638 DUP2 PUSH2 0x15FC JUMP JUMPDEST SWAP1 POP SWAP2 SWAP1 POP JUMP JUMPDEST PUSH32 0x20616D6F756E74203D2030000000000000000000000000000000000000000000 PUSH1 0x0 DUP3 ADD MSTORE POP JUMP JUMPDEST PUSH1 0x0 PUSH2 0x1675 PUSH1 0xB DUP4 PUSH2 0x13AE JUMP JUMPDEST SWAP2 POP PUSH2 0x1680 DUP3 PUSH2 0x163F JUMP JUMPDEST PUSH1 0x20 DUP3 ADD SWAP1 POP SWAP2 SWAP1 POP JUMP JUMPDEST PUSH1 0x0 PUSH1 0x20 DUP3 ADD SWAP1 POP DUP2 DUP2 SUB PUSH1 0x0 DUP4 ADD MSTORE PUSH2 0x16A4 DUP2 PUSH2 0x1668 JUMP JUMPDEST SWAP1 POP SWAP2 SWAP1 POP JUMP JUMPDEST PUSH1 0x0 PUSH1 0x60 DUP3 ADD SWAP1 POP PUSH2 0x16C0 PUSH1 0x0 DUP4 ADD DUP7 PUSH2 0x124B JUMP JUMPDEST PUSH2 0x16CD PUSH1 0x20 DUP4 ADD DUP6 PUSH2 0x124B JUMP JUMPDEST PUSH2 0x16DA PUSH1 0x40 DUP4 ADD DUP5 PUSH2 0x114E JUMP JUMPDEST SWAP5 SWAP4 POP POP POP POP JUMP JUMPDEST PUSH32 0x726577617264206475726174696F6E206E6F742066696E697368656400000000 PUSH1 0x0 DUP3 ADD MSTORE POP JUMP JUMPDEST PUSH1 0x0 PUSH2 0x1718 PUSH1 0x1C DUP4 PUSH2 0x13AE JUMP JUMPDEST SWAP2 POP PUSH2 0x1723 DUP3 PUSH2 0x16E2 JUMP JUMPDEST PUSH1 0x20 DUP3 ADD SWAP1 POP SWAP2 SWAP1 POP JUMP JUMPDEST PUSH1 0x0 PUSH1 0x20 DUP3 ADD SWAP1 POP DUP2 DUP2 SUB PUSH1 0x0 DUP4 ADD MSTORE PUSH2 0x1747 DUP2 PUSH2 0x170B JUMP JUMPDEST SWAP1 POP SWAP2 SWAP1 POP JUMP INVALID LOG2 PUSH5 0x6970667358 0x22 SLT KECCAK256 DUP11 0xDB STATICCALL 0xAE 0xCB CODESIZE PUSH15 0x21DB291D0ABB3582960B81169A7D1E SELFBALANCE 0xDD 0xE1 SWAP16 0xAC PUSH8 0x9263014F64736F6C PUSH4 0x43000813 STOP CALLER "
				},
				"gasEstimates": {
					"creation": {
						"codeDepositCost": "1204000",
						"executionCost": "infinite",
						"totalCost": "infinite"
					},
					"external": {
						"balanceOf(address)": "2903",
						"duration()": "2475",
						"earned(address)": "infinite",
						"finishAt()": "2496",
						"getReward()": "infinite",
						"lastTimeRewardApplicable()": "2588",
						"notifyRewardAmount(uint256)": "infinite",
						"owner()": "2622",
						"reward(address)": "2859",
						"rewardPerToken()": "infinite",
						"rewardPerTokenStored()": "2539",
						"rewardRate()": "2474",
						"rewardsToken()": "infinite",
						"setRewardDuration(uint256)": "26853",
						"stake(uint256)": "infinite",
						"stakingToken()": "infinite",
						"totalSupply()": "2497",
						"updatedAt()": "2452",
						"userRewardPerTokenPaid(address)": "2903",
						"withdraw(uint256)": "infinite"
					},
					"internal": {
						"_min(uint256,uint256)": "67"
					}
				},
				"methodIdentifiers": {
					"balanceOf(address)": "70a08231",
					"duration()": "0fb5a6b4",
					"earned(address)": "008cc262",
					"finishAt()": "67d3b488",
					"getReward()": "3d18b912",
					"lastTimeRewardApplicable()": "80faa57d",
					"notifyRewardAmount(uint256)": "3c6b16ab",
					"owner()": "8da5cb5b",
					"reward(address)": "6353586b",
					"rewardPerToken()": "cd3daf9d",
					"rewardPerTokenStored()": "df136d65",
					"rewardRate()": "7b0a47ee",
					"rewardsToken()": "d1af0c7d",
					"setRewardDuration(uint256)": "c0ed00c9",
					"stake(uint256)": "a694fc3a",
					"stakingToken()": "72f702f3",
					"totalSupply()": "18160ddd",
					"updatedAt()": "7519ab50",
					"userRewardPerTokenPaid(address)": "8b876347",
					"withdraw(uint256)": "2e1a7d4d"
				}
			},
			"storageLayout": {
				"storage": [
					{
						"astId": 76,
						"contract": "StakingRewards.sol:StakingRewards",
						"label": "owner",
						"offset": 0,
						"slot": "0",
						"type": "t_address"
					},
					{
						"astId": 78,
						"contract": "StakingRewards.sol:StakingRewards",
						"label": "duration",
						"offset": 0,
						"slot": "1",
						"type": "t_uint256"
					},
					{
						"astId": 80,
						"contract": "StakingRewards.sol:StakingRewards",
						"label": "finishAt",
						"offset": 0,
						"slot": "2",
						"type": "t_uint256"
					},
					{
						"astId": 82,
						"contract": "StakingRewards.sol:StakingRewards",
						"label": "updatedAt",
						"offset": 0,
						"slot": "3",
						"type": "t_uint256"
					},
					{
						"astId": 84,
						"contract": "StakingRewards.sol:StakingRewards",
						"label": "rewardRate",
						"offset": 0,
						"slot": "4",
						"type": "t_uint256"
					},
					{
						"astId": 86,
						"contract": "StakingRewards.sol:StakingRewards",
						"label": "rewardPerTokenStored",
						"offset": 0,
						"slot": "5",
						"type": "t_uint256"
					},
					{
						"astId": 90,
						"contract": "StakingRewards.sol:StakingRewards",
						"label": "userRewardPerTokenPaid",
						"offset": 0,
						"slot": "6",
						"type": "t_mapping(t_address,t_uint256)"
					},
					{
						"astId": 94,
						"contract": "StakingRewards.sol:StakingRewards",
						"label": "reward",
						"offset": 0,
						"slot": "7",
						"type": "t_mapping(t_address,t_uint256)"
					},
					{
						"astId": 96,
						"contract": "StakingRewards.sol:StakingRewards",
						"label": "totalSupply",
						"offset": 0,
						"slot": "8",
						"type": "t_uint256"
					},
					{
						"astId": 100,
						"contract": "StakingRewards.sol:StakingRewards",
						"label": "balanceOf",
						"offset": 0,
						"slot": "9",
						"type": "t_mapping(t_address,t_uint256)"
					}
				],
				"types": {
					"t_address": {
						"encoding": "inplace",
						"label": "address",
						"numberOfBytes": "20"
					},
					"t_mapping(t_address,t_uint256)": {
						"encoding": "mapping",
						"key": "t_address",
						"label": "mapping(address => uint256)",
						"numberOfBytes": "32",
						"value": "t_uint256"
					},
					"t_uint256": {
						"encoding": "inplace",
						"label": "uint256",
						"numberOfBytes": "32"
					}
				}
			},
			"userdoc": {
				"kind": "user",
				"methods": {},
				"version": 1
			}
		}
	}
}