{
	"Voting System/voting.sol": {
		"voting": {
			"abi": [
				{
					"inputs": [],
					"stateMutability": "nonpayable",
					"type": "constructor"
				},
				{
					"inputs": [],
					"name": "All_Voter_List",
					"outputs": [
						{
							"internalType": "bytes32[]",
							"name": "",
							"type": "bytes32[]"
						}
					],
					"stateMutability": "view",
					"type": "function"
				},
				{
					"inputs": [
						{
							"internalType": "string",
							"name": "_name",
							"type": "string"
						},
						{
							"internalType": "uint256",
							"name": "_age",
							"type": "uint256"
						}
					],
					"name": "add_Voter",
					"outputs": [],
					"stateMutability": "nonpayable",
					"type": "function"
				},
				{
					"inputs": [
						{
							"internalType": "string",
							"name": "_candidate",
							"type": "string"
						}
					],
					"name": "check_Candidate",
					"outputs": [
						{
							"internalType": "bool",
							"name": "",
							"type": "bool"
						}
					],
					"stateMutability": "view",
					"type": "function"
				},
				{
					"inputs": [
						{
							"internalType": "bytes32",
							"name": "_voterId",
							"type": "bytes32"
						}
					],
					"name": "check_vote",
					"outputs": [
						{
							"internalType": "string",
							"name": "",
							"type": "string"
						}
					],
					"stateMutability": "view",
					"type": "function"
				},
				{
					"inputs": [
						{
							"internalType": "bytes32",
							"name": "_voterId",
							"type": "bytes32"
						}
					],
					"name": "get_Voter_Details",
					"outputs": [
						{
							"internalType": "string",
							"name": "",
							"type": "string"
						},
						{
							"internalType": "uint256",
							"name": "",
							"type": "uint256"
						}
					],
					"stateMutability": "view",
					"type": "function"
				},
				{
					"inputs": [
						{
							"internalType": "bytes32",
							"name": "_voterId",
							"type": "bytes32"
						},
						{
							"internalType": "string",
							"name": "_candidate",
							"type": "string"
						}
					],
					"name": "give_vote",
					"outputs": [],
					"stateMutability": "nonpayable",
					"type": "function"
				},
				{
					"inputs": [],
					"name": "view_Candidates",
					"outputs": [
						{
							"internalType": "string[]",
							"name": "",
							"type": "string[]"
						}
					],
					"stateMutability": "view",
					"type": "function"
				},
				{
					"inputs": [],
					"name": "view_Voted_Voters",
					"outputs": [
						{
							"internalType": "bytes32[]",
							"name": "",
							"type": "bytes32[]"
						}
					],
					"stateMutability": "view",
					"type": "function"
				},
				{
					"inputs": [],
					"name": "view_Winner",
					"outputs": [
						{
							"internalType": "string",
							"name": "",
							"type": "string"
						},
						{
							"internalType": "uint256",
							"name": "",
							"type": "uint256"
						}
					],
					"stateMutability": "view",
					"type": "function"
				},
				{
					"inputs": [
						{
							"internalType": "string",
							"name": "_candidate",
							"type": "string"
						}
					],
					"name": "view_vote_count",
					"outputs": [
						{
							"internalType": "uint256",
							"name": "",
							"type": "uint256"
						}
					],
					"stateMutability": "view",
					"type": "function"
				}
			],
			"devdoc": {
				"kind": "dev",
				"methods": {},
				"version": 1
			},
			"evm": {
				"assembly": "    /* \"Voting System/voting.sol\":692:4632  contract voting... */\n  mstore(0x40, 0x80)\n    /* \"Voting System/voting.sol\":901:939  string[] Candidates = [\"c1\",\"c2\",\"c3\"] */\n  mload(0x40)\n  dup1\n  0x60\n  add\n  0x40\n  mstore\n  dup1\n  mload(0x40)\n  dup1\n  0x40\n  add\n  0x40\n  mstore\n  dup1\n  0x02\n  dup2\n  mstore\n  0x20\n  add\n  0x6331000000000000000000000000000000000000000000000000000000000000\n  dup2\n  mstore\n  pop\n  dup2\n  mstore\n  0x20\n  add\n  mload(0x40)\n  dup1\n  0x40\n  add\n  0x40\n  mstore\n  dup1\n  0x02\n  dup2\n  mstore\n  0x20\n  add\n  0x6332000000000000000000000000000000000000000000000000000000000000\n  dup2\n  mstore\n  pop\n  dup2\n  mstore\n  0x20\n  add\n  mload(0x40)\n  dup1\n  0x40\n  add\n  0x40\n  mstore\n  dup1\n  0x02\n  dup2\n  mstore\n  0x20\n  add\n  0x6333000000000000000000000000000000000000000000000000000000000000\n  dup2\n  mstore\n  pop\n  dup2\n  mstore\n  pop\n  0x02\n  swap1\n  0x03\n  tag_1\n  swap3\n  swap2\n  swap1\n  tag_2\n  jump\t// in\ntag_1:\n  pop\n    /* \"Voting System/voting.sol\":1286:1301  constructor(){} */\n  callvalue\n  dup1\n  iszero\n  tag_3\n  jumpi\n  0x00\n  dup1\n  revert\ntag_3:\n  pop\n    /* \"Voting System/voting.sol\":692:4632  contract voting... */\n  jump(tag_6)\ntag_2:\n  dup3\n  dup1\n  sload\n  dup3\n  dup3\n  sstore\n  swap1\n  0x00\n  mstore\n  keccak256(0x00, 0x20)\n  swap1\n  dup2\n  add\n  swap3\n  dup3\n  iszero\n  tag_7\n  jumpi\n  swap2\n  0x20\n  mul\n  dup3\n  add\ntag_8:\n  dup3\n  dup2\n  gt\n  iszero\n  tag_9\n  jumpi\n  dup3\n  mload\n  dup3\n  swap1\n  dup2\n  tag_10\n  swap2\n  swap1\n  tag_11\n  jump\t// in\ntag_10:\n  pop\n  swap2\n  0x20\n  add\n  swap2\n  swap1\n  0x01\n  add\n  swap1\n  jump(tag_8)\ntag_9:\ntag_7:\n  pop\n  swap1\n  pop\n  tag_12\n  swap2\n  swap1\n  tag_13\n  jump\t// in\ntag_12:\n  pop\n  swap1\n  jump\t// out\ntag_13:\ntag_14:\n  dup1\n  dup3\n  gt\n  iszero\n  tag_15\n  jumpi\n  0x00\n  dup2\n  dup2\n  tag_16\n  swap2\n  swap1\n  tag_17\n  jump\t// in\ntag_16:\n  pop\n  0x01\n  add\n  jump(tag_14)\ntag_15:\n  pop\n  swap1\n  jump\t// out\ntag_17:\n  pop\n  dup1\n  sload\n  tag_18\n  swap1\n  tag_19\n  jump\t// in\ntag_18:\n  0x00\n  dup3\n  sstore\n  dup1\n  0x1f\n  lt\n  tag_21\n  jumpi\n  pop\n  jump(tag_20)\ntag_21:\n  0x1f\n  add\n  0x20\n  swap1\n  div\n  swap1\n  0x00\n  mstore\n  keccak256(0x00, 0x20)\n  swap1\n  dup2\n  add\n  swap1\n  tag_22\n  swap2\n  swap1\n  tag_23\n  jump\t// in\ntag_22:\ntag_20:\n  pop\n  jump\t// out\ntag_23:\ntag_24:\n  dup1\n  dup3\n  gt\n  iszero\n  tag_25\n  jumpi\n  0x00\n  dup2\n  0x00\n  swap1\n  sstore\n  pop\n  0x01\n  add\n  jump(tag_24)\ntag_25:\n  pop\n  swap1\n  jump\t// out\n    /* \"#utility.yul\":7:106   */\ntag_26:\n    /* \"#utility.yul\":59:65   */\n  0x00\n    /* \"#utility.yul\":93:98   */\n  dup2\n    /* \"#utility.yul\":87:99   */\n  mload\n    /* \"#utility.yul\":77:99   */\n  swap1\n  pop\n    /* \"#utility.yul\":7:106   */\n  swap2\n  swap1\n  pop\n  jump\t// out\n    /* \"#utility.yul\":112:292   */\ntag_27:\n    /* \"#utility.yul\":160:237   */\n  0x4e487b7100000000000000000000000000000000000000000000000000000000\n    /* \"#utility.yul\":157:158   */\n  0x00\n    /* \"#utility.yul\":150:238   */\n  mstore\n    /* \"#utility.yul\":257:261   */\n  0x41\n    /* \"#utility.yul\":254:255   */\n  0x04\n    /* \"#utility.yul\":247:262   */\n  mstore\n    /* \"#utility.yul\":281:285   */\n  0x24\n    /* \"#utility.yul\":278:279   */\n  0x00\n    /* \"#utility.yul\":271:286   */\n  revert\n    /* \"#utility.yul\":298:478   */\ntag_28:\n    /* \"#utility.yul\":346:423   */\n  0x4e487b7100000000000000000000000000000000000000000000000000000000\n    /* \"#utility.yul\":343:344   */\n  0x00\n    /* \"#utility.yul\":336:424   */\n  mstore\n    /* \"#utility.yul\":443:447   */\n  0x22\n    /* \"#utility.yul\":440:441   */\n  0x04\n    /* \"#utility.yul\":433:448   */\n  mstore\n    /* \"#utility.yul\":467:471   */\n  0x24\n    /* \"#utility.yul\":464:465   */\n  0x00\n    /* \"#utility.yul\":457:472   */\n  revert\n    /* \"#utility.yul\":484:804   */\ntag_19:\n    /* \"#utility.yul\":528:534   */\n  0x00\n    /* \"#utility.yul\":565:566   */\n  0x02\n    /* \"#utility.yul\":559:563   */\n  dup3\n    /* \"#utility.yul\":555:567   */\n  div\n    /* \"#utility.yul\":545:567   */\n  swap1\n  pop\n    /* \"#utility.yul\":612:613   */\n  0x01\n    /* \"#utility.yul\":606:610   */\n  dup3\n    /* \"#utility.yul\":602:614   */\n  and\n    /* \"#utility.yul\":633:651   */\n  dup1\n    /* \"#utility.yul\":623:704   */\n  tag_50\n  jumpi\n    /* \"#utility.yul\":689:693   */\n  0x7f\n    /* \"#utility.yul\":681:687   */\n  dup3\n    /* \"#utility.yul\":677:694   */\n  and\n    /* \"#utility.yul\":667:694   */\n  swap2\n  pop\n    /* \"#utility.yul\":623:704   */\ntag_50:\n    /* \"#utility.yul\":751:753   */\n  0x20\n    /* \"#utility.yul\":743:749   */\n  dup3\n    /* \"#utility.yul\":740:754   */\n  lt\n    /* \"#utility.yul\":720:738   */\n  dup2\n    /* \"#utility.yul\":717:755   */\n  sub\n    /* \"#utility.yul\":714:798   */\n  tag_51\n  jumpi\n    /* \"#utility.yul\":770:788   */\n  tag_52\n  tag_28\n  jump\t// in\ntag_52:\n    /* \"#utility.yul\":714:798   */\ntag_51:\n    /* \"#utility.yul\":535:804   */\n  pop\n    /* \"#utility.yul\":484:804   */\n  swap2\n  swap1\n  pop\n  jump\t// out\n    /* \"#utility.yul\":810:951   */\ntag_29:\n    /* \"#utility.yul\":859:863   */\n  0x00\n    /* \"#utility.yul\":882:885   */\n  dup2\n    /* \"#utility.yul\":874:885   */\n  swap1\n  pop\n    /* \"#utility.yul\":905:908   */\n  dup2\n    /* \"#utility.yul\":902:903   */\n  0x00\n    /* \"#utility.yul\":895:909   */\n  mstore\n    /* \"#utility.yul\":939:943   */\n  0x20\n    /* \"#utility.yul\":936:937   */\n  0x00\n    /* \"#utility.yul\":926:944   */\n  keccak256\n    /* \"#utility.yul\":918:944   */\n  swap1\n  pop\n    /* \"#utility.yul\":810:951   */\n  swap2\n  swap1\n  pop\n  jump\t// out\n    /* \"#utility.yul\":957:1050   */\ntag_30:\n    /* \"#utility.yul\":994:1000   */\n  0x00\n    /* \"#utility.yul\":1041:1043   */\n  0x20\n    /* \"#utility.yul\":1036:1038   */\n  0x1f\n    /* \"#utility.yul\":1029:1034   */\n  dup4\n    /* \"#utility.yul\":1025:1039   */\n  add\n    /* \"#utility.yul\":1021:1044   */\n  div\n    /* \"#utility.yul\":1011:1044   */\n  swap1\n  pop\n    /* \"#utility.yul\":957:1050   */\n  swap2\n  swap1\n  pop\n  jump\t// out\n    /* \"#utility.yul\":1056:1163   */\ntag_31:\n    /* \"#utility.yul\":1100:1108   */\n  0x00\n    /* \"#utility.yul\":1150:1155   */\n  dup3\n    /* \"#utility.yul\":1144:1148   */\n  dup3\n    /* \"#utility.yul\":1140:1156   */\n  shl\n    /* \"#utility.yul\":1119:1156   */\n  swap1\n  pop\n    /* \"#utility.yul\":1056:1163   */\n  swap3\n  swap2\n  pop\n  pop\n  jump\t// out\n    /* \"#utility.yul\":1169:1562   */\ntag_32:\n    /* \"#utility.yul\":1238:1244   */\n  0x00\n    /* \"#utility.yul\":1288:1289   */\n  0x08\n    /* \"#utility.yul\":1276:1286   */\n  dup4\n    /* \"#utility.yul\":1272:1290   */\n  mul\n    /* \"#utility.yul\":1311:1408   */\n  tag_57\n    /* \"#utility.yul\":1341:1407   */\n  0xffffffffffffffffffffffffffffffffffffffffffffffffffffffffffffffff\n    /* \"#utility.yul\":1330:1339   */\n  dup3\n    /* \"#utility.yul\":1311:1408   */\n  tag_31\n  jump\t// in\ntag_57:\n    /* \"#utility.yul\":1429:1468   */\n  tag_58\n    /* \"#utility.yul\":1459:1467   */\n  dup7\n    /* \"#utility.yul\":1448:1457   */\n  dup4\n    /* \"#utility.yul\":1429:1468   */\n  tag_31\n  jump\t// in\ntag_58:\n    /* \"#utility.yul\":1417:1468   */\n  swap6\n  pop\n    /* \"#utility.yul\":1501:1505   */\n  dup1\n    /* \"#utility.yul\":1497:1506   */\n  not\n    /* \"#utility.yul\":1490:1495   */\n  dup5\n    /* \"#utility.yul\":1486:1507   */\n  and\n    /* \"#utility.yul\":1477:1507   */\n  swap4\n  pop\n    /* \"#utility.yul\":1550:1554   */\n  dup1\n    /* \"#utility.yul\":1540:1548   */\n  dup7\n    /* \"#utility.yul\":1536:1555   */\n  and\n    /* \"#utility.yul\":1529:1534   */\n  dup5\n    /* \"#utility.yul\":1526:1556   */\n  or\n    /* \"#utility.yul\":1516:1556   */\n  swap3\n  pop\n    /* \"#utility.yul\":1245:1562   */\n  pop\n  pop\n    /* \"#utility.yul\":1169:1562   */\n  swap4\n  swap3\n  pop\n  pop\n  pop\n  jump\t// out\n    /* \"#utility.yul\":1568:1645   */\ntag_33:\n    /* \"#utility.yul\":1605:1612   */\n  0x00\n    /* \"#utility.yul\":1634:1639   */\n  dup2\n    /* \"#utility.yul\":1623:1639   */\n  swap1\n  pop\n    /* \"#utility.yul\":1568:1645   */\n  swap2\n  swap1\n  pop\n  jump\t// out\n    /* \"#utility.yul\":1651:1711   */\ntag_34:\n    /* \"#utility.yul\":1679:1682   */\n  0x00\n    /* \"#utility.yul\":1700:1705   */\n  dup2\n    /* \"#utility.yul\":1693:1705   */\n  swap1\n  pop\n    /* \"#utility.yul\":1651:1711   */\n  swap2\n  swap1\n  pop\n  jump\t// out\n    /* \"#utility.yul\":1717:1859   */\ntag_35:\n    /* \"#utility.yul\":1767:1776   */\n  0x00\n    /* \"#utility.yul\":1800:1853   */\n  tag_62\n    /* \"#utility.yul\":1818:1852   */\n  tag_63\n    /* \"#utility.yul\":1827:1851   */\n  tag_64\n    /* \"#utility.yul\":1845:1850   */\n  dup5\n    /* \"#utility.yul\":1827:1851   */\n  tag_33\n  jump\t// in\ntag_64:\n    /* \"#utility.yul\":1818:1852   */\n  tag_34\n  jump\t// in\ntag_63:\n    /* \"#utility.yul\":1800:1853   */\n  tag_33\n  jump\t// in\ntag_62:\n    /* \"#utility.yul\":1787:1853   */\n  swap1\n  pop\n    /* \"#utility.yul\":1717:1859   */\n  swap2\n  swap1\n  pop\n  jump\t// out\n    /* \"#utility.yul\":1865:1940   */\ntag_36:\n    /* \"#utility.yul\":1908:1911   */\n  0x00\n    /* \"#utility.yul\":1929:1934   */\n  dup2\n    /* \"#utility.yul\":1922:1934   */\n  swap1\n  pop\n    /* \"#utility.yul\":1865:1940   */\n  swap2\n  swap1\n  pop\n  jump\t// out\n    /* \"#utility.yul\":1946:2215   */\ntag_37:\n    /* \"#utility.yul\":2056:2095   */\n  tag_67\n    /* \"#utility.yul\":2087:2094   */\n  dup4\n    /* \"#utility.yul\":2056:2095   */\n  tag_35\n  jump\t// in\ntag_67:\n    /* \"#utility.yul\":2117:2208   */\n  tag_68\n    /* \"#utility.yul\":2166:2207   */\n  tag_69\n    /* \"#utility.yul\":2190:2206   */\n  dup3\n    /* \"#utility.yul\":2166:2207   */\n  tag_36\n  jump\t// in\ntag_69:\n    /* \"#utility.yul\":2158:2164   */\n  dup5\n    /* \"#utility.yul\":2151:2155   */\n  dup5\n    /* \"#utility.yul\":2145:2156   */\n  sload\n    /* \"#utility.yul\":2117:2208   */\n  tag_32\n  jump\t// in\ntag_68:\n    /* \"#utility.yul\":2111:2115   */\n  dup3\n    /* \"#utility.yul\":2104:2209   */\n  sstore\n    /* \"#utility.yul\":2022:2215   */\n  pop\n    /* \"#utility.yul\":1946:2215   */\n  pop\n  pop\n  pop\n  jump\t// out\n    /* \"#utility.yul\":2221:2294   */\ntag_38:\n    /* \"#utility.yul\":2266:2269   */\n  0x00\n    /* \"#utility.yul\":2221:2294   */\n  swap1\n  jump\t// out\n    /* \"#utility.yul\":2300:2489   */\ntag_39:\n    /* \"#utility.yul\":2377:2409   */\n  tag_72\n  tag_38\n  jump\t// in\ntag_72:\n    /* \"#utility.yul\":2418:2483   */\n  tag_73\n    /* \"#utility.yul\":2476:2482   */\n  dup2\n    /* \"#utility.yul\":2468:2474   */\n  dup5\n    /* \"#utility.yul\":2462:2466   */\n  dup5\n    /* \"#utility.yul\":2418:2483   */\n  tag_37\n  jump\t// in\ntag_73:\n    /* \"#utility.yul\":2353:2489   */\n  pop\n    /* \"#utility.yul\":2300:2489   */\n  pop\n  pop\n  jump\t// out\n    /* \"#utility.yul\":2495:2681   */\ntag_40:\n    /* \"#utility.yul\":2555:2675   */\ntag_75:\n    /* \"#utility.yul\":2572:2575   */\n  dup2\n    /* \"#utility.yul\":2565:2570   */\n  dup2\n    /* \"#utility.yul\":2562:2576   */\n  lt\n    /* \"#utility.yul\":2555:2675   */\n  iszero\n  tag_77\n  jumpi\n    /* \"#utility.yul\":2626:2665   */\n  tag_78\n    /* \"#utility.yul\":2663:2664   */\n  0x00\n    /* \"#utility.yul\":2656:2661   */\n  dup3\n    /* \"#utility.yul\":2626:2665   */\n  tag_39\n  jump\t// in\ntag_78:\n    /* \"#utility.yul\":2599:2600   */\n  0x01\n    /* \"#utility.yul\":2592:2597   */\n  dup2\n    /* \"#utility.yul\":2588:2601   */\n  add\n    /* \"#utility.yul\":2579:2601   */\n  swap1\n  pop\n    /* \"#utility.yul\":2555:2675   */\n  jump(tag_75)\ntag_77:\n    /* \"#utility.yul\":2495:2681   */\n  pop\n  pop\n  jump\t// out\n    /* \"#utility.yul\":2687:3230   */\ntag_41:\n    /* \"#utility.yul\":2788:2790   */\n  0x1f\n    /* \"#utility.yul\":2783:2786   */\n  dup3\n    /* \"#utility.yul\":2780:2791   */\n  gt\n    /* \"#utility.yul\":2777:3223   */\n  iszero\n  tag_80\n  jumpi\n    /* \"#utility.yul\":2822:2860   */\n  tag_81\n    /* \"#utility.yul\":2854:2859   */\n  dup2\n    /* \"#utility.yul\":2822:2860   */\n  tag_29\n  jump\t// in\ntag_81:\n    /* \"#utility.yul\":2906:2935   */\n  tag_82\n    /* \"#utility.yul\":2924:2934   */\n  dup5\n    /* \"#utility.yul\":2906:2935   */\n  tag_30\n  jump\t// in\ntag_82:\n    /* \"#utility.yul\":2896:2904   */\n  dup2\n    /* \"#utility.yul\":2892:2936   */\n  add\n    /* \"#utility.yul\":3089:3091   */\n  0x20\n    /* \"#utility.yul\":3077:3087   */\n  dup6\n    /* \"#utility.yul\":3074:3092   */\n  lt\n    /* \"#utility.yul\":3071:3120   */\n  iszero\n  tag_83\n  jumpi\n    /* \"#utility.yul\":3110:3118   */\n  dup2\n    /* \"#utility.yul\":3095:3118   */\n  swap1\n  pop\n    /* \"#utility.yul\":3071:3120   */\ntag_83:\n    /* \"#utility.yul\":3133:3213   */\n  tag_84\n    /* \"#utility.yul\":3189:3211   */\n  tag_85\n    /* \"#utility.yul\":3207:3210   */\n  dup6\n    /* \"#utility.yul\":3189:3211   */\n  tag_30\n  jump\t// in\ntag_85:\n    /* \"#utility.yul\":3179:3187   */\n  dup4\n    /* \"#utility.yul\":3175:3212   */\n  add\n    /* \"#utility.yul\":3162:3173   */\n  dup3\n    /* \"#utility.yul\":3133:3213   */\n  tag_40\n  jump\t// in\ntag_84:\n    /* \"#utility.yul\":2792:3223   */\n  pop\n  pop\n    /* \"#utility.yul\":2777:3223   */\ntag_80:\n    /* \"#utility.yul\":2687:3230   */\n  pop\n  pop\n  pop\n  jump\t// out\n    /* \"#utility.yul\":3236:3353   */\ntag_42:\n    /* \"#utility.yul\":3290:3298   */\n  0x00\n    /* \"#utility.yul\":3340:3345   */\n  dup3\n    /* \"#utility.yul\":3334:3338   */\n  dup3\n    /* \"#utility.yul\":3330:3346   */\n  shr\n    /* \"#utility.yul\":3309:3346   */\n  swap1\n  pop\n    /* \"#utility.yul\":3236:3353   */\n  swap3\n  swap2\n  pop\n  pop\n  jump\t// out\n    /* \"#utility.yul\":3359:3528   */\ntag_43:\n    /* \"#utility.yul\":3403:3409   */\n  0x00\n    /* \"#utility.yul\":3436:3487   */\n  tag_88\n    /* \"#utility.yul\":3484:3485   */\n  0x00\n    /* \"#utility.yul\":3480:3486   */\n  not\n    /* \"#utility.yul\":3472:3477   */\n  dup5\n    /* \"#utility.yul\":3469:3470   */\n  0x08\n    /* \"#utility.yul\":3465:3478   */\n  mul\n    /* \"#utility.yul\":3436:3487   */\n  tag_42\n  jump\t// in\ntag_88:\n    /* \"#utility.yul\":3432:3488   */\n  not\n    /* \"#utility.yul\":3517:3521   */\n  dup1\n    /* \"#utility.yul\":3511:3515   */\n  dup4\n    /* \"#utility.yul\":3507:3522   */\n  and\n    /* \"#utility.yul\":3497:3522   */\n  swap2\n  pop\n    /* \"#utility.yul\":3410:3528   */\n  pop\n    /* \"#utility.yul\":3359:3528   */\n  swap3\n  swap2\n  pop\n  pop\n  jump\t// out\n    /* \"#utility.yul\":3533:3828   */\ntag_44:\n    /* \"#utility.yul\":3609:3613   */\n  0x00\n    /* \"#utility.yul\":3755:3784   */\n  tag_90\n    /* \"#utility.yul\":3780:3783   */\n  dup4\n    /* \"#utility.yul\":3774:3778   */\n  dup4\n    /* \"#utility.yul\":3755:3784   */\n  tag_43\n  jump\t// in\ntag_90:\n    /* \"#utility.yul\":3747:3784   */\n  swap2\n  pop\n    /* \"#utility.yul\":3817:3820   */\n  dup3\n    /* \"#utility.yul\":3814:3815   */\n  0x02\n    /* \"#utility.yul\":3810:3821   */\n  mul\n    /* \"#utility.yul\":3804:3808   */\n  dup3\n    /* \"#utility.yul\":3801:3822   */\n  or\n    /* \"#utility.yul\":3793:3822   */\n  swap1\n  pop\n    /* \"#utility.yul\":3533:3828   */\n  swap3\n  swap2\n  pop\n  pop\n  jump\t// out\n    /* \"#utility.yul\":3833:5228   */\ntag_11:\n    /* \"#utility.yul\":3950:3987   */\n  tag_92\n    /* \"#utility.yul\":3983:3986   */\n  dup3\n    /* \"#utility.yul\":3950:3987   */\n  tag_26\n  jump\t// in\ntag_92:\n    /* \"#utility.yul\":4052:4070   */\n  0xffffffffffffffff\n    /* \"#utility.yul\":4044:4050   */\n  dup2\n    /* \"#utility.yul\":4041:4071   */\n  gt\n    /* \"#utility.yul\":4038:4094   */\n  iszero\n  tag_93\n  jumpi\n    /* \"#utility.yul\":4074:4092   */\n  tag_94\n  tag_27\n  jump\t// in\ntag_94:\n    /* \"#utility.yul\":4038:4094   */\ntag_93:\n    /* \"#utility.yul\":4118:4156   */\n  tag_95\n    /* \"#utility.yul\":4150:4154   */\n  dup3\n    /* \"#utility.yul\":4144:4155   */\n  sload\n    /* \"#utility.yul\":4118:4156   */\n  tag_19\n  jump\t// in\ntag_95:\n    /* \"#utility.yul\":4203:4270   */\n  tag_96\n    /* \"#utility.yul\":4263:4269   */\n  dup3\n    /* \"#utility.yul\":4255:4261   */\n  dup3\n    /* \"#utility.yul\":4249:4253   */\n  dup6\n    /* \"#utility.yul\":4203:4270   */\n  tag_41\n  jump\t// in\ntag_96:\n    /* \"#utility.yul\":4297:4298   */\n  0x00\n    /* \"#utility.yul\":4321:4325   */\n  0x20\n    /* \"#utility.yul\":4308:4325   */\n  swap1\n  pop\n    /* \"#utility.yul\":4353:4355   */\n  0x1f\n    /* \"#utility.yul\":4345:4351   */\n  dup4\n    /* \"#utility.yul\":4342:4356   */\n  gt\n    /* \"#utility.yul\":4370:4371   */\n  0x01\n    /* \"#utility.yul\":4365:4983   */\n  dup2\n  eq\n  tag_98\n  jumpi\n    /* \"#utility.yul\":5027:5028   */\n  0x00\n    /* \"#utility.yul\":5044:5050   */\n  dup5\n    /* \"#utility.yul\":5041:5118   */\n  iszero\n  tag_99\n  jumpi\n    /* \"#utility.yul\":5093:5102   */\n  dup3\n    /* \"#utility.yul\":5088:5091   */\n  dup8\n    /* \"#utility.yul\":5084:5103   */\n  add\n    /* \"#utility.yul\":5078:5104   */\n  mload\n    /* \"#utility.yul\":5069:5104   */\n  swap1\n  pop\n    /* \"#utility.yul\":5041:5118   */\ntag_99:\n    /* \"#utility.yul\":5144:5211   */\n  tag_100\n    /* \"#utility.yul\":5204:5210   */\n  dup6\n    /* \"#utility.yul\":5197:5202   */\n  dup3\n    /* \"#utility.yul\":5144:5211   */\n  tag_44\n  jump\t// in\ntag_100:\n    /* \"#utility.yul\":5138:5142   */\n  dup7\n    /* \"#utility.yul\":5131:5212   */\n  sstore\n    /* \"#utility.yul\":5000:5222   */\n  pop\n    /* \"#utility.yul\":4335:5222   */\n  jump(tag_97)\n    /* \"#utility.yul\":4365:4983   */\ntag_98:\n    /* \"#utility.yul\":4417:4421   */\n  0x1f\n    /* \"#utility.yul\":4413:4422   */\n  not\n    /* \"#utility.yul\":4405:4411   */\n  dup5\n    /* \"#utility.yul\":4401:4423   */\n  and\n    /* \"#utility.yul\":4451:4488   */\n  tag_101\n    /* \"#utility.yul\":4483:4487   */\n  dup7\n    /* \"#utility.yul\":4451:4488   */\n  tag_29\n  jump\t// in\ntag_101:\n    /* \"#utility.yul\":4510:4511   */\n  0x00\n    /* \"#utility.yul\":4524:4732   */\ntag_102:\n    /* \"#utility.yul\":4538:4545   */\n  dup3\n    /* \"#utility.yul\":4535:4536   */\n  dup2\n    /* \"#utility.yul\":4532:4546   */\n  lt\n    /* \"#utility.yul\":4524:4732   */\n  iszero\n  tag_104\n  jumpi\n    /* \"#utility.yul\":4617:4626   */\n  dup5\n    /* \"#utility.yul\":4612:4615   */\n  dup10\n    /* \"#utility.yul\":4608:4627   */\n  add\n    /* \"#utility.yul\":4602:4628   */\n  mload\n    /* \"#utility.yul\":4594:4600   */\n  dup3\n    /* \"#utility.yul\":4587:4629   */\n  sstore\n    /* \"#utility.yul\":4668:4669   */\n  0x01\n    /* \"#utility.yul\":4660:4666   */\n  dup3\n    /* \"#utility.yul\":4656:4670   */\n  add\n    /* \"#utility.yul\":4646:4670   */\n  swap2\n  pop\n    /* \"#utility.yul\":4715:4717   */\n  0x20\n    /* \"#utility.yul\":4704:4713   */\n  dup6\n    /* \"#utility.yul\":4700:4718   */\n  add\n    /* \"#utility.yul\":4687:4718   */\n  swap5\n  pop\n    /* \"#utility.yul\":4561:4565   */\n  0x20\n    /* \"#utility.yul\":4558:4559   */\n  dup2\n    /* \"#utility.yul\":4554:4566   */\n  add\n    /* \"#utility.yul\":4549:4566   */\n  swap1\n  pop\n    /* \"#utility.yul\":4524:4732   */\n  jump(tag_102)\ntag_104:\n    /* \"#utility.yul\":4760:4766   */\n  dup7\n    /* \"#utility.yul\":4751:4758   */\n  dup4\n    /* \"#utility.yul\":4748:4767   */\n  lt\n    /* \"#utility.yul\":4745:4924   */\n  iszero\n  tag_105\n  jumpi\n    /* \"#utility.yul\":4818:4827   */\n  dup5\n    /* \"#utility.yul\":4813:4816   */\n  dup10\n    /* \"#utility.yul\":4809:4828   */\n  add\n    /* \"#utility.yul\":4803:4829   */\n  mload\n    /* \"#utility.yul\":4861:4909   */\n  tag_106\n    /* \"#utility.yul\":4903:4907   */\n  0x1f\n    /* \"#utility.yul\":4895:4901   */\n  dup10\n    /* \"#utility.yul\":4891:4908   */\n  and\n    /* \"#utility.yul\":4880:4889   */\n  dup3\n    /* \"#utility.yul\":4861:4909   */\n  tag_43\n  jump\t// in\ntag_106:\n    /* \"#utility.yul\":4853:4859   */\n  dup4\n    /* \"#utility.yul\":4846:4910   */\n  sstore\n    /* \"#utility.yul\":4768:4924   */\n  pop\n    /* \"#utility.yul\":4745:4924   */\ntag_105:\n    /* \"#utility.yul\":4970:4971   */\n  0x01\n    /* \"#utility.yul\":4966:4967   */\n  0x02\n    /* \"#utility.yul\":4958:4964   */\n  dup9\n    /* \"#utility.yul\":4954:4968   */\n  mul\n    /* \"#utility.yul\":4950:4972   */\n  add\n    /* \"#utility.yul\":4944:4948   */\n  dup9\n    /* \"#utility.yul\":4937:4973   */\n  sstore\n    /* \"#utility.yul\":4372:4983   */\n  pop\n  pop\n  pop\n    /* \"#utility.yul\":4335:5222   */\ntag_97:\n  pop\n    /* \"#utility.yul\":3925:5228   */\n  pop\n  pop\n  pop\n    /* \"#utility.yul\":3833:5228   */\n  pop\n  pop\n  jump\t// out\n    /* \"Voting System/voting.sol\":692:4632  contract voting... */\ntag_6:\n  dataSize(sub_0)\n  dup1\n  dataOffset(sub_0)\n  0x00\n  codecopy\n  0x00\n  return\nstop\n\nsub_0: assembly {\n        /* \"Voting System/voting.sol\":692:4632  contract voting... */\n      mstore(0x40, 0x80)\n      callvalue\n      dup1\n      iszero\n      tag_1\n      jumpi\n      0x00\n      dup1\n      revert\n    tag_1:\n      pop\n      jumpi(tag_2, lt(calldatasize, 0x04))\n      shr(0xe0, calldataload(0x00))\n      dup1\n      0x6a59e50c\n      gt\n      tag_13\n      jumpi\n      dup1\n      0x6a59e50c\n      eq\n      tag_8\n      jumpi\n      dup1\n      0x6e4aed4f\n      eq\n      tag_9\n      jumpi\n      dup1\n      0x7e46de41\n      eq\n      tag_10\n      jumpi\n      dup1\n      0x905ccdbe\n      eq\n      tag_11\n      jumpi\n      dup1\n      0x9fa5e685\n      eq\n      tag_12\n      jumpi\n      jump(tag_2)\n    tag_13:\n      dup1\n      0x0140b74a\n      eq\n      tag_3\n      jumpi\n      dup1\n      0x066ff640\n      eq\n      tag_4\n      jumpi\n      dup1\n      0x0c8afdf4\n      eq\n      tag_5\n      jumpi\n      dup1\n      0x269558e8\n      eq\n      tag_6\n      jumpi\n      dup1\n      0x490408d4\n      eq\n      tag_7\n      jumpi\n    tag_2:\n      0x00\n      dup1\n      revert\n        /* \"Voting System/voting.sol\":1745:2173  function check_Candidate(string memory _candidate) public view returns(bool)... */\n    tag_3:\n      tag_14\n      0x04\n      dup1\n      calldatasize\n      sub\n      dup2\n      add\n      swap1\n      tag_15\n      swap2\n      swap1\n      tag_16\n      jump\t// in\n    tag_15:\n      tag_17\n      jump\t// in\n    tag_14:\n      mload(0x40)\n      tag_18\n      swap2\n      swap1\n      tag_19\n      jump\t// in\n    tag_18:\n      mload(0x40)\n      dup1\n      swap2\n      sub\n      swap1\n      return\n        /* \"Voting System/voting.sol\":2892:3088  function view_vote_count(string memory _candidate) public view returns(uint)... */\n    tag_4:\n      tag_20\n      0x04\n      dup1\n      calldatasize\n      sub\n      dup2\n      add\n      swap1\n      tag_21\n      swap2\n      swap1\n      tag_16\n      jump\t// in\n    tag_21:\n      tag_22\n      jump\t// in\n    tag_20:\n      mload(0x40)\n      tag_23\n      swap2\n      swap1\n      tag_24\n      jump\t// in\n    tag_23:\n      mload(0x40)\n      dup1\n      swap2\n      sub\n      swap1\n      return\n        /* \"Voting System/voting.sol\":4522:4629  function All_Voter_List() public view returns(bytes32[] memory)... */\n    tag_5:\n      tag_25\n      tag_26\n      jump\t// in\n    tag_25:\n      mload(0x40)\n      tag_27\n      swap2\n      swap1\n      tag_28\n      jump\t// in\n    tag_27:\n      mload(0x40)\n      dup1\n      swap2\n      sub\n      swap1\n      return\n        /* \"Voting System/voting.sol\":2181:2618  function give_vote(bytes32 _voterId,string memory _candidate) public... */\n    tag_6:\n      tag_29\n      0x04\n      dup1\n      calldatasize\n      sub\n      dup2\n      add\n      swap1\n      tag_30\n      swap2\n      swap1\n      tag_31\n      jump\t// in\n    tag_30:\n      tag_32\n      jump\t// in\n    tag_29:\n      stop\n        /* \"Voting System/voting.sol\":4351:4514  function view_Voted_Voters() public view returns(bytes32[] memory)... */\n    tag_7:\n      tag_33\n      tag_34\n      jump\t// in\n    tag_33:\n      mload(0x40)\n      tag_35\n      swap2\n      swap1\n      tag_28\n      jump\t// in\n    tag_35:\n      mload(0x40)\n      dup1\n      swap2\n      sub\n      swap1\n      return\n        /* \"Voting System/voting.sol\":1309:1414  function view_Candidates() public view returns(string[] memory)... */\n    tag_8:\n      tag_36\n      tag_37\n      jump\t// in\n    tag_36:\n      mload(0x40)\n      tag_38\n      swap2\n      swap1\n      tag_39\n      jump\t// in\n    tag_38:\n      mload(0x40)\n      dup1\n      swap2\n      sub\n      swap1\n      return\n        /* \"Voting System/voting.sol\":2626:2886  function check_vote(bytes32 _voterId) public view returns(string memory)... */\n    tag_9:\n      tag_40\n      0x04\n      dup1\n      calldatasize\n      sub\n      dup2\n      add\n      swap1\n      tag_41\n      swap2\n      swap1\n      tag_42\n      jump\t// in\n    tag_41:\n      tag_43\n      jump\t// in\n    tag_40:\n      mload(0x40)\n      tag_44\n      swap2\n      swap1\n      tag_45\n      jump\t// in\n    tag_44:\n      mload(0x40)\n      dup1\n      swap2\n      sub\n      swap1\n      return\n        /* \"Voting System/voting.sol\":4177:4343  function get_Voter_Details(bytes32 _voterId) public view returns (string memory, uint) ... */\n    tag_10:\n      tag_46\n      0x04\n      dup1\n      calldatasize\n      sub\n      dup2\n      add\n      swap1\n      tag_47\n      swap2\n      swap1\n      tag_42\n      jump\t// in\n    tag_47:\n      tag_48\n      jump\t// in\n    tag_46:\n      mload(0x40)\n      tag_49\n      swap3\n      swap2\n      swap1\n      tag_50\n      jump\t// in\n    tag_49:\n      mload(0x40)\n      dup1\n      swap2\n      sub\n      swap1\n      return\n        /* \"Voting System/voting.sol\":1422:1737  function add_Voter(string memory _name, uint _age) public... */\n    tag_11:\n      tag_51\n      0x04\n      dup1\n      calldatasize\n      sub\n      dup2\n      add\n      swap1\n      tag_52\n      swap2\n      swap1\n      tag_53\n      jump\t// in\n    tag_52:\n      tag_54\n      jump\t// in\n    tag_51:\n      stop\n        /* \"Voting System/voting.sol\":3096:3931  function view_Winner() public view returns(string memory,uint)... */\n    tag_12:\n      tag_55\n      tag_56\n      jump\t// in\n    tag_55:\n      mload(0x40)\n      tag_57\n      swap3\n      swap2\n      swap1\n      tag_50\n      jump\t// in\n    tag_57:\n      mload(0x40)\n      dup1\n      swap2\n      sub\n      swap1\n      return\n        /* \"Voting System/voting.sol\":1745:2173  function check_Candidate(string memory _candidate) public view returns(bool)... */\n    tag_17:\n        /* \"Voting System/voting.sol\":1816:1820  bool */\n      0x00\n        /* \"Voting System/voting.sol\":1846:1852  uint i */\n      dup1\n        /* \"Voting System/voting.sol\":1855:1856  0 */\n      0x00\n        /* \"Voting System/voting.sol\":1846:1856  uint i = 0 */\n      swap1\n      pop\n        /* \"Voting System/voting.sol\":1841:2143  for (uint i = 0; i < Candidates.length; i++)... */\n    tag_59:\n        /* \"Voting System/voting.sol\":1862:1872  Candidates */\n      0x02\n        /* \"Voting System/voting.sol\":1862:1879  Candidates.length */\n      dup1\n      sload\n      swap1\n      pop\n        /* \"Voting System/voting.sol\":1858:1859  i */\n      dup2\n        /* \"Voting System/voting.sol\":1858:1879  i < Candidates.length */\n      lt\n        /* \"Voting System/voting.sol\":1841:2143  for (uint i = 0; i < Candidates.length; i++)... */\n      iszero\n      tag_60\n      jumpi\n        /* \"Voting System/voting.sol\":1965:1975  _candidate */\n      dup3\n        /* \"Voting System/voting.sol\":1949:1977  keccak256(bytes(_candidate)) */\n      dup1\n      mload\n      swap1\n      0x20\n      add\n      keccak256\n        /* \"Voting System/voting.sol\":1930:1940  Candidates */\n      0x02\n        /* \"Voting System/voting.sol\":1941:1942  i */\n      dup3\n        /* \"Voting System/voting.sol\":1930:1943  Candidates[i] */\n      dup2\n      sload\n      dup2\n      lt\n      tag_62\n      jumpi\n      tag_63\n      tag_64\n      jump\t// in\n    tag_63:\n    tag_62:\n      swap1\n      0x00\n      mstore\n      keccak256(0x00, 0x20)\n      add\n        /* \"Voting System/voting.sol\":1914:1945  keccak256(bytes(Candidates[i])) */\n      mload(0x40)\n      tag_66\n      swap2\n      swap1\n      tag_67\n      jump\t// in\n    tag_66:\n      mload(0x40)\n      dup1\n      swap2\n      sub\n      swap1\n      keccak256\n        /* \"Voting System/voting.sol\":1914:1977  keccak256(bytes(Candidates[i])) == keccak256(bytes(_candidate)) */\n      sub\n        /* \"Voting System/voting.sol\":1910:2132  if (keccak256(bytes(Candidates[i])) == keccak256(bytes(_candidate)))... */\n      tag_68\n      jumpi\n        /* \"Voting System/voting.sol\":2112:2116  true */\n      0x01\n        /* \"Voting System/voting.sol\":2105:2116  return true */\n      swap2\n      pop\n      pop\n      jump(tag_58)\n        /* \"Voting System/voting.sol\":1910:2132  if (keccak256(bytes(Candidates[i])) == keccak256(bytes(_candidate)))... */\n    tag_68:\n        /* \"Voting System/voting.sol\":1881:1884  i++ */\n      dup1\n      dup1\n      tag_69\n      swap1\n      tag_70\n      jump\t// in\n    tag_69:\n      swap2\n      pop\n      pop\n        /* \"Voting System/voting.sol\":1841:2143  for (uint i = 0; i < Candidates.length; i++)... */\n      jump(tag_59)\n    tag_60:\n      pop\n        /* \"Voting System/voting.sol\":2160:2165  false */\n      0x00\n        /* \"Voting System/voting.sol\":2153:2165  return false */\n      swap1\n      pop\n        /* \"Voting System/voting.sol\":1745:2173  function check_Candidate(string memory _candidate) public view returns(bool)... */\n    tag_58:\n      swap2\n      swap1\n      pop\n      jump\t// out\n        /* \"Voting System/voting.sol\":2892:3088  function view_vote_count(string memory _candidate) public view returns(uint)... */\n    tag_22:\n        /* \"Voting System/voting.sol\":2963:2967  uint */\n      0x00\n        /* \"Voting System/voting.sol\":2993:3020  check_Candidate(_candidate) */\n      tag_72\n        /* \"Voting System/voting.sol\":3009:3019  _candidate */\n      dup3\n        /* \"Voting System/voting.sol\":2993:3008  check_Candidate */\n      tag_17\n        /* \"Voting System/voting.sol\":2993:3020  check_Candidate(_candidate) */\n      jump\t// in\n    tag_72:\n        /* \"Voting System/voting.sol\":2985:3041  require(check_Candidate(_candidate),\"Invalid Candidate\") */\n      tag_73\n      jumpi\n      mload(0x40)\n      0x08c379a000000000000000000000000000000000000000000000000000000000\n      dup2\n      mstore\n      0x04\n      add\n      tag_74\n      swap1\n      tag_75\n      jump\t// in\n    tag_74:\n      mload(0x40)\n      dup1\n      swap2\n      sub\n      swap1\n      revert\n    tag_73:\n        /* \"Voting System/voting.sol\":3059:3068  VoteCount */\n      0x08\n        /* \"Voting System/voting.sol\":3069:3079  _candidate */\n      dup3\n        /* \"Voting System/voting.sol\":3059:3080  VoteCount[_candidate] */\n      mload(0x40)\n      tag_76\n      swap2\n      swap1\n      tag_77\n      jump\t// in\n    tag_76:\n      swap1\n      dup2\n      mstore\n      0x20\n      add\n      mload(0x40)\n      dup1\n      swap2\n      sub\n      swap1\n      keccak256\n      sload\n        /* \"Voting System/voting.sol\":3052:3080  return VoteCount[_candidate] */\n      swap1\n      pop\n        /* \"Voting System/voting.sol\":2892:3088  function view_vote_count(string memory _candidate) public view returns(uint)... */\n      swap2\n      swap1\n      pop\n      jump\t// out\n        /* \"Voting System/voting.sol\":4522:4629  function All_Voter_List() public view returns(bytes32[] memory)... */\n    tag_26:\n        /* \"Voting System/voting.sol\":4568:4584  bytes32[] memory */\n      0x60\n        /* \"Voting System/voting.sol\":4609:4621  AllvoterList */\n      0x01\n        /* \"Voting System/voting.sol\":4602:4621  return AllvoterList */\n      dup1\n      sload\n      dup1\n      0x20\n      mul\n      0x20\n      add\n      mload(0x40)\n      swap1\n      dup2\n      add\n      0x40\n      mstore\n      dup1\n      swap3\n      swap2\n      swap1\n      dup2\n      dup2\n      mstore\n      0x20\n      add\n      dup3\n      dup1\n      sload\n      dup1\n      iszero\n      tag_79\n      jumpi\n      0x20\n      mul\n      dup3\n      add\n      swap2\n      swap1\n      0x00\n      mstore\n      keccak256(0x00, 0x20)\n      swap1\n    tag_80:\n      dup2\n      sload\n      dup2\n      mstore\n      0x20\n      add\n      swap1\n      0x01\n      add\n      swap1\n      dup1\n      dup4\n      gt\n      tag_80\n      jumpi\n    tag_79:\n      pop\n      pop\n      pop\n      pop\n      pop\n      swap1\n      pop\n        /* \"Voting System/voting.sol\":4522:4629  function All_Voter_List() public view returns(bytes32[] memory)... */\n      swap1\n      jump\t// out\n        /* \"Voting System/voting.sol\":2181:2618  function give_vote(bytes32 _voterId,string memory _candidate) public... */\n    tag_32:\n        /* \"Voting System/voting.sol\":2293:2297  true */\n      0x01\n        /* \"Voting System/voting.sol\":2274:2297  isVoter[_voterId]==true */\n      iszero\n      iszero\n        /* \"Voting System/voting.sol\":2274:2281  isVoter */\n      0x05\n        /* \"Voting System/voting.sol\":2274:2291  isVoter[_voterId] */\n      0x00\n        /* \"Voting System/voting.sol\":2282:2290  _voterId */\n      dup5\n        /* \"Voting System/voting.sol\":2274:2291  isVoter[_voterId] */\n      dup2\n      mstore\n      0x20\n      add\n      swap1\n      dup2\n      mstore\n      0x20\n      add\n      0x00\n      keccak256\n      0x00\n      swap1\n      sload\n      swap1\n      0x0100\n      exp\n      swap1\n      div\n      0xff\n      and\n        /* \"Voting System/voting.sol\":2274:2297  isVoter[_voterId]==true */\n      iszero\n      iszero\n      eq\n        /* \"Voting System/voting.sol\":2266:2318  require(isVoter[_voterId]==true,\"You are not Voter\") */\n      tag_82\n      jumpi\n      mload(0x40)\n      0x08c379a000000000000000000000000000000000000000000000000000000000\n      dup2\n      mstore\n      0x04\n      add\n      tag_83\n      swap1\n      tag_84\n      jump\t// in\n    tag_83:\n      mload(0x40)\n      dup1\n      swap2\n      sub\n      swap1\n      revert\n    tag_82:\n        /* \"Voting System/voting.sol\":2337:2364  check_Candidate(_candidate) */\n      tag_85\n        /* \"Voting System/voting.sol\":2353:2363  _candidate */\n      dup2\n        /* \"Voting System/voting.sol\":2337:2352  check_Candidate */\n      tag_17\n        /* \"Voting System/voting.sol\":2337:2364  check_Candidate(_candidate) */\n      jump\t// in\n    tag_85:\n        /* \"Voting System/voting.sol\":2329:2385  require(check_Candidate(_candidate),\"Invalid Candidate\") */\n      tag_86\n      jumpi\n      mload(0x40)\n      0x08c379a000000000000000000000000000000000000000000000000000000000\n      dup2\n      mstore\n      0x04\n      add\n      tag_87\n      swap1\n      tag_75\n      jump\t// in\n    tag_87:\n      mload(0x40)\n      dup1\n      swap2\n      sub\n      swap1\n      revert\n    tag_86:\n        /* \"Voting System/voting.sol\":2405:2412  isVoted */\n      0x06\n        /* \"Voting System/voting.sol\":2405:2422  isVoted[_voterId] */\n      0x00\n        /* \"Voting System/voting.sol\":2413:2421  _voterId */\n      dup4\n        /* \"Voting System/voting.sol\":2405:2422  isVoted[_voterId] */\n      dup2\n      mstore\n      0x20\n      add\n      swap1\n      dup2\n      mstore\n      0x20\n      add\n      0x00\n      keccak256\n      0x00\n      swap1\n      sload\n      swap1\n      0x0100\n      exp\n      swap1\n      div\n      0xff\n      and\n        /* \"Voting System/voting.sol\":2404:2422  !isVoted[_voterId] */\n      iszero\n        /* \"Voting System/voting.sol\":2396:2439  require(!isVoted[_voterId],\"already voted\") */\n      tag_88\n      jumpi\n      mload(0x40)\n      0x08c379a000000000000000000000000000000000000000000000000000000000\n      dup2\n      mstore\n      0x04\n      add\n      tag_89\n      swap1\n      tag_90\n      jump\t// in\n    tag_89:\n      mload(0x40)\n      dup1\n      swap2\n      sub\n      swap1\n      revert\n    tag_88:\n        /* \"Voting System/voting.sol\":2457:2466  VoteCount */\n      0x08\n        /* \"Voting System/voting.sol\":2467:2477  _candidate */\n      dup2\n        /* \"Voting System/voting.sol\":2457:2478  VoteCount[_candidate] */\n      mload(0x40)\n      tag_91\n      swap2\n      swap1\n      tag_77\n      jump\t// in\n    tag_91:\n      swap1\n      dup2\n      mstore\n      0x20\n      add\n      mload(0x40)\n      dup1\n      swap2\n      sub\n      swap1\n      keccak256\n      0x00\n        /* \"Voting System/voting.sol\":2457:2480  VoteCount[_candidate]++ */\n      dup2\n      sload\n      dup1\n      swap3\n      swap2\n      swap1\n      tag_92\n      swap1\n      tag_70\n      jump\t// in\n    tag_92:\n      swap2\n      swap1\n      pop\n      sstore\n      pop\n        /* \"Voting System/voting.sol\":2509:2513  true */\n      0x01\n        /* \"Voting System/voting.sol\":2491:2498  isVoted */\n      0x06\n        /* \"Voting System/voting.sol\":2491:2508  isVoted[_voterId] */\n      0x00\n        /* \"Voting System/voting.sol\":2499:2507  _voterId */\n      dup5\n        /* \"Voting System/voting.sol\":2491:2508  isVoted[_voterId] */\n      dup2\n      mstore\n      0x20\n      add\n      swap1\n      dup2\n      mstore\n      0x20\n      add\n      0x00\n      keccak256\n      0x00\n        /* \"Voting System/voting.sol\":2491:2513  isVoted[_voterId]=true */\n      0x0100\n      exp\n      dup2\n      sload\n      dup2\n      0xff\n      mul\n      not\n      and\n      swap1\n      dup4\n      iszero\n      iszero\n      mul\n      or\n      swap1\n      sstore\n      pop\n        /* \"Voting System/voting.sol\":2545:2549  true */\n      0x01\n        /* \"Voting System/voting.sol\":2527:2534  isVoted */\n      0x06\n        /* \"Voting System/voting.sol\":2527:2544  isVoted[_voterId] */\n      0x00\n        /* \"Voting System/voting.sol\":2535:2543  _voterId */\n      dup5\n        /* \"Voting System/voting.sol\":2527:2544  isVoted[_voterId] */\n      dup2\n      mstore\n      0x20\n      add\n      swap1\n      dup2\n      mstore\n      0x20\n      add\n      0x00\n      keccak256\n      0x00\n        /* \"Voting System/voting.sol\":2527:2549  isVoted[_voterId]=true */\n      0x0100\n      exp\n      dup2\n      sload\n      dup2\n      0xff\n      mul\n      not\n      and\n      swap1\n      dup4\n      iszero\n      iszero\n      mul\n      or\n      swap1\n      sstore\n        /* \"Voting System/voting.sol\":2524:2611  if(isVoted[_voterId]=true)... */\n      iszero\n      tag_93\n      jumpi\n        /* \"Voting System/voting.sol\":2575:2584  voterList */\n      0x00\n        /* \"Voting System/voting.sol\":2590:2598  _voterId */\n      dup3\n        /* \"Voting System/voting.sol\":2575:2599  voterList.push(_voterId) */\n      swap1\n      dup1\n      0x01\n      dup2\n      sload\n      add\n      dup1\n      dup3\n      sstore\n      dup1\n      swap2\n      pop\n      pop\n      0x01\n      swap1\n      sub\n      swap1\n      0x00\n      mstore\n      keccak256(0x00, 0x20)\n      add\n      0x00\n      swap1\n      swap2\n      swap1\n      swap2\n      swap1\n      swap2\n      pop\n      sstore\n        /* \"Voting System/voting.sol\":2524:2611  if(isVoted[_voterId]=true)... */\n    tag_93:\n        /* \"Voting System/voting.sol\":2181:2618  function give_vote(bytes32 _voterId,string memory _candidate) public... */\n      pop\n      pop\n      jump\t// out\n        /* \"Voting System/voting.sol\":4351:4514  function view_Voted_Voters() public view returns(bytes32[] memory)... */\n    tag_34:\n        /* \"Voting System/voting.sol\":4400:4416  bytes32[] memory */\n      0x60\n        /* \"Voting System/voting.sol\":4460:4464  true */\n      0x01\n        /* \"Voting System/voting.sol\":4442:4464  isVoted[voterId]==true */\n      iszero\n      iszero\n        /* \"Voting System/voting.sol\":4442:4449  isVoted */\n      0x06\n        /* \"Voting System/voting.sol\":4442:4458  isVoted[voterId] */\n      0x00\n        /* \"Voting System/voting.sol\":4450:4457  voterId */\n      sload(0x03)\n        /* \"Voting System/voting.sol\":4442:4458  isVoted[voterId] */\n      dup2\n      mstore\n      0x20\n      add\n      swap1\n      dup2\n      mstore\n      0x20\n      add\n      0x00\n      keccak256\n      0x00\n      swap1\n      sload\n      swap1\n      0x0100\n      exp\n      swap1\n      div\n      0xff\n      and\n        /* \"Voting System/voting.sol\":4442:4464  isVoted[voterId]==true */\n      iszero\n      iszero\n      eq\n        /* \"Voting System/voting.sol\":4434:4477  require(isVoted[voterId]==true,\"No Voters\") */\n      tag_96\n      jumpi\n      mload(0x40)\n      0x08c379a000000000000000000000000000000000000000000000000000000000\n      dup2\n      mstore\n      0x04\n      add\n      tag_97\n      swap1\n      tag_98\n      jump\t// in\n    tag_97:\n      mload(0x40)\n      dup1\n      swap2\n      sub\n      swap1\n      revert\n    tag_96:\n        /* \"Voting System/voting.sol\":4496:4505  voterList */\n      0x00\n        /* \"Voting System/voting.sol\":4488:4506  return (voterList) */\n      dup1\n      sload\n      dup1\n      0x20\n      mul\n      0x20\n      add\n      mload(0x40)\n      swap1\n      dup2\n      add\n      0x40\n      mstore\n      dup1\n      swap3\n      swap2\n      swap1\n      dup2\n      dup2\n      mstore\n      0x20\n      add\n      dup3\n      dup1\n      sload\n      dup1\n      iszero\n      tag_99\n      jumpi\n      0x20\n      mul\n      dup3\n      add\n      swap2\n      swap1\n      0x00\n      mstore\n      keccak256(0x00, 0x20)\n      swap1\n    tag_100:\n      dup2\n      sload\n      dup2\n      mstore\n      0x20\n      add\n      swap1\n      0x01\n      add\n      swap1\n      dup1\n      dup4\n      gt\n      tag_100\n      jumpi\n    tag_99:\n      pop\n      pop\n      pop\n      pop\n      pop\n      swap1\n      pop\n        /* \"Voting System/voting.sol\":4351:4514  function view_Voted_Voters() public view returns(bytes32[] memory)... */\n      swap1\n      jump\t// out\n        /* \"Voting System/voting.sol\":1309:1414  function view_Candidates() public view returns(string[] memory)... */\n    tag_37:\n        /* \"Voting System/voting.sol\":1356:1371  string[] memory */\n      0x60\n        /* \"Voting System/voting.sol\":1396:1406  Candidates */\n      0x02\n        /* \"Voting System/voting.sol\":1389:1406  return Candidates */\n      dup1\n      sload\n      dup1\n      0x20\n      mul\n      0x20\n      add\n      mload(0x40)\n      swap1\n      dup2\n      add\n      0x40\n      mstore\n      dup1\n      swap3\n      swap2\n      swap1\n      dup2\n      dup2\n      mstore\n      0x20\n      add\n      0x00\n      swap1\n    tag_102:\n      dup3\n      dup3\n      lt\n      iszero\n      tag_103\n      jumpi\n      dup4\n      dup3\n      swap1\n      0x00\n      mstore\n      keccak256(0x00, 0x20)\n      add\n      dup1\n      sload\n      tag_105\n      swap1\n      tag_106\n      jump\t// in\n    tag_105:\n      dup1\n      0x1f\n      add\n      0x20\n      dup1\n      swap2\n      div\n      mul\n      0x20\n      add\n      mload(0x40)\n      swap1\n      dup2\n      add\n      0x40\n      mstore\n      dup1\n      swap3\n      swap2\n      swap1\n      dup2\n      dup2\n      mstore\n      0x20\n      add\n      dup3\n      dup1\n      sload\n      tag_107\n      swap1\n      tag_106\n      jump\t// in\n    tag_107:\n      dup1\n      iszero\n      tag_108\n      jumpi\n      dup1\n      0x1f\n      lt\n      tag_109\n      jumpi\n      0x0100\n      dup1\n      dup4\n      sload\n      div\n      mul\n      dup4\n      mstore\n      swap2\n      0x20\n      add\n      swap2\n      jump(tag_108)\n    tag_109:\n      dup3\n      add\n      swap2\n      swap1\n      0x00\n      mstore\n      keccak256(0x00, 0x20)\n      swap1\n    tag_110:\n      dup2\n      sload\n      dup2\n      mstore\n      swap1\n      0x01\n      add\n      swap1\n      0x20\n      add\n      dup1\n      dup4\n      gt\n      tag_110\n      jumpi\n      dup3\n      swap1\n      sub\n      0x1f\n      and\n      dup3\n      add\n      swap2\n    tag_108:\n      pop\n      pop\n      pop\n      pop\n      pop\n      dup2\n      mstore\n      0x20\n      add\n      swap1\n      0x01\n      add\n      swap1\n      jump(tag_102)\n    tag_103:\n      pop\n      pop\n      pop\n      pop\n      swap1\n      pop\n        /* \"Voting System/voting.sol\":1309:1414  function view_Candidates() public view returns(string[] memory)... */\n      swap1\n      jump\t// out\n        /* \"Voting System/voting.sol\":2626:2886  function check_vote(bytes32 _voterId) public view returns(string memory)... */\n    tag_43:\n        /* \"Voting System/voting.sol\":2684:2697  string memory */\n      0x60\n        /* \"Voting System/voting.sol\":2719:2726  isVoted */\n      0x06\n        /* \"Voting System/voting.sol\":2719:2736  isVoted[_voterId] */\n      0x00\n        /* \"Voting System/voting.sol\":2727:2735  _voterId */\n      dup4\n        /* \"Voting System/voting.sol\":2719:2736  isVoted[_voterId] */\n      dup2\n      mstore\n      0x20\n      add\n      swap1\n      dup2\n      mstore\n      0x20\n      add\n      0x00\n      keccak256\n      0x00\n      swap1\n      sload\n      swap1\n      0x0100\n      exp\n      swap1\n      div\n      0xff\n      and\n        /* \"Voting System/voting.sol\":2715:2879  if(!isVoted[_voterId])... */\n      tag_112\n      jumpi\n        /* \"Voting System/voting.sol\":2762:2786  return \"Vote Pending!!!\" */\n      mload(0x40)\n      dup1\n      0x40\n      add\n      0x40\n      mstore\n      dup1\n      0x0f\n      dup2\n      mstore\n      0x20\n      add\n      0x566f74652050656e64696e672121210000000000000000000000000000000000\n      dup2\n      mstore\n      pop\n      swap1\n      pop\n      jump(tag_111)\n        /* \"Voting System/voting.sol\":2715:2879  if(!isVoted[_voterId])... */\n    tag_112:\n        /* \"Voting System/voting.sol\":2837:2867  return \"Yes,You already voted\" */\n      mload(0x40)\n      dup1\n      0x40\n      add\n      0x40\n      mstore\n      dup1\n      0x15\n      dup2\n      mstore\n      0x20\n      add\n      0x5965732c596f7520616c726561647920766f7465640000000000000000000000\n      dup2\n      mstore\n      pop\n      swap1\n      pop\n        /* \"Voting System/voting.sol\":2626:2886  function check_vote(bytes32 _voterId) public view returns(string memory)... */\n    tag_111:\n      swap2\n      swap1\n      pop\n      jump\t// out\n        /* \"Voting System/voting.sol\":4177:4343  function get_Voter_Details(bytes32 _voterId) public view returns (string memory, uint) ... */\n    tag_48:\n        /* \"Voting System/voting.sol\":4243:4256  string memory */\n      0x60\n        /* \"Voting System/voting.sol\":4258:4262  uint */\n      0x00\n        /* \"Voting System/voting.sol\":4289:4296  _voters */\n      0x07\n        /* \"Voting System/voting.sol\":4289:4306  _voters[_voterId] */\n      0x00\n        /* \"Voting System/voting.sol\":4297:4305  _voterId */\n      dup5\n        /* \"Voting System/voting.sol\":4289:4306  _voters[_voterId] */\n      dup2\n      mstore\n      0x20\n      add\n      swap1\n      dup2\n      mstore\n      0x20\n      add\n      0x00\n      keccak256\n        /* \"Voting System/voting.sol\":4289:4311  _voters[_voterId].name */\n      0x00\n      add\n        /* \"Voting System/voting.sol\":4313:4320  _voters */\n      0x07\n        /* \"Voting System/voting.sol\":4313:4330  _voters[_voterId] */\n      0x00\n        /* \"Voting System/voting.sol\":4321:4329  _voterId */\n      dup6\n        /* \"Voting System/voting.sol\":4313:4330  _voters[_voterId] */\n      dup2\n      mstore\n      0x20\n      add\n      swap1\n      dup2\n      mstore\n      0x20\n      add\n      0x00\n      keccak256\n        /* \"Voting System/voting.sol\":4313:4334  _voters[_voterId].age */\n      0x01\n      add\n      sload\n        /* \"Voting System/voting.sol\":4281:4335  return (_voters[_voterId].name, _voters[_voterId].age) */\n      dup2\n      dup1\n      sload\n      tag_115\n      swap1\n      tag_106\n      jump\t// in\n    tag_115:\n      dup1\n      0x1f\n      add\n      0x20\n      dup1\n      swap2\n      div\n      mul\n      0x20\n      add\n      mload(0x40)\n      swap1\n      dup2\n      add\n      0x40\n      mstore\n      dup1\n      swap3\n      swap2\n      swap1\n      dup2\n      dup2\n      mstore\n      0x20\n      add\n      dup3\n      dup1\n      sload\n      tag_116\n      swap1\n      tag_106\n      jump\t// in\n    tag_116:\n      dup1\n      iszero\n      tag_117\n      jumpi\n      dup1\n      0x1f\n      lt\n      tag_118\n      jumpi\n      0x0100\n      dup1\n      dup4\n      sload\n      div\n      mul\n      dup4\n      mstore\n      swap2\n      0x20\n      add\n      swap2\n      jump(tag_117)\n    tag_118:\n      dup3\n      add\n      swap2\n      swap1\n      0x00\n      mstore\n      keccak256(0x00, 0x20)\n      swap1\n    tag_119:\n      dup2\n      sload\n      dup2\n      mstore\n      swap1\n      0x01\n      add\n      swap1\n      0x20\n      add\n      dup1\n      dup4\n      gt\n      tag_119\n      jumpi\n      dup3\n      swap1\n      sub\n      0x1f\n      and\n      dup3\n      add\n      swap2\n    tag_117:\n      pop\n      pop\n      pop\n      pop\n      pop\n      swap2\n      pop\n      swap2\n      pop\n      swap2\n      pop\n        /* \"Voting System/voting.sol\":4177:4343  function get_Voter_Details(bytes32 _voterId) public view returns (string memory, uint) ... */\n      swap2\n      pop\n      swap2\n      jump\t// out\n        /* \"Voting System/voting.sol\":1422:1737  function add_Voter(string memory _name, uint _age) public... */\n    tag_54:\n        /* \"Voting System/voting.sol\":1511:1513  18 */\n      0x12\n        /* \"Voting System/voting.sol\":1504:1508  _age */\n      dup2\n        /* \"Voting System/voting.sol\":1504:1513  _age >=18 */\n      lt\n      iszero\n        /* \"Voting System/voting.sol\":1496:1544  require(_age >=18,\"Age must be greater than 18\") */\n      tag_121\n      jumpi\n      mload(0x40)\n      0x08c379a000000000000000000000000000000000000000000000000000000000\n      dup2\n      mstore\n      0x04\n      add\n      tag_122\n      swap1\n      tag_123\n      jump\t// in\n    tag_122:\n      mload(0x40)\n      dup1\n      swap2\n      sub\n      swap1\n      revert\n    tag_121:\n        /* \"Voting System/voting.sol\":1565:1612  sha256(abi.encodePacked(_name,block.timestamp)) */\n      0x02\n        /* \"Voting System/voting.sol\":1589:1594  _name */\n      dup3\n        /* \"Voting System/voting.sol\":1595:1610  block.timestamp */\n      timestamp\n        /* \"Voting System/voting.sol\":1572:1611  abi.encodePacked(_name,block.timestamp) */\n      add(0x20, mload(0x40))\n      tag_124\n      swap3\n      swap2\n      swap1\n      tag_125\n      jump\t// in\n    tag_124:\n      mload(0x40)\n      0x20\n      dup2\n      dup4\n      sub\n      sub\n      dup2\n      mstore\n      swap1\n      0x40\n      mstore\n        /* \"Voting System/voting.sol\":1565:1612  sha256(abi.encodePacked(_name,block.timestamp)) */\n      mload(0x40)\n      tag_126\n      swap2\n      swap1\n      tag_127\n      jump\t// in\n    tag_126:\n      0x20\n      mload(0x40)\n      dup1\n      dup4\n      sub\n      dup2\n      dup6\n      gas\n      staticcall\n      iszero\n      dup1\n      iszero\n      tag_129\n      jumpi\n      returndatasize\n      0x00\n      dup1\n      returndatacopy\n      revert(0x00, returndatasize)\n    tag_129:\n      pop\n      pop\n      pop\n      mload(0x40)\n      returndatasize\n      not(0x1f)\n      0x1f\n      dup3\n      add\n      and\n      dup3\n      add\n      dup1\n      0x40\n      mstore\n      pop\n      dup2\n      add\n      swap1\n      tag_130\n      swap2\n      swap1\n      tag_131\n      jump\t// in\n    tag_130:\n        /* \"Voting System/voting.sol\":1555:1562  voterId */\n      0x03\n        /* \"Voting System/voting.sol\":1555:1612  voterId = sha256(abi.encodePacked(_name,block.timestamp)) */\n      dup2\n      swap1\n      sstore\n      pop\n        /* \"Voting System/voting.sol\":1642:1660  voters(_name,_age) */\n      mload(0x40)\n      dup1\n      0x40\n      add\n      0x40\n      mstore\n      dup1\n        /* \"Voting System/voting.sol\":1649:1654  _name */\n      dup4\n        /* \"Voting System/voting.sol\":1642:1660  voters(_name,_age) */\n      dup2\n      mstore\n      0x20\n      add\n        /* \"Voting System/voting.sol\":1655:1659  _age */\n      dup3\n        /* \"Voting System/voting.sol\":1642:1660  voters(_name,_age) */\n      dup2\n      mstore\n      pop\n        /* \"Voting System/voting.sol\":1623:1630  _voters */\n      0x07\n        /* \"Voting System/voting.sol\":1623:1639  _voters[voterId] */\n      0x00\n        /* \"Voting System/voting.sol\":1631:1638  voterId */\n      sload(0x03)\n        /* \"Voting System/voting.sol\":1623:1639  _voters[voterId] */\n      dup2\n      mstore\n      0x20\n      add\n      swap1\n      dup2\n      mstore\n      0x20\n      add\n      0x00\n      keccak256\n        /* \"Voting System/voting.sol\":1623:1660  _voters[voterId] = voters(_name,_age) */\n      0x00\n      dup3\n      add\n      mload\n      dup2\n      0x00\n      add\n      swap1\n      dup2\n      tag_132\n      swap2\n      swap1\n      tag_133\n      jump\t// in\n    tag_132:\n      pop\n      0x20\n      dup3\n      add\n      mload\n      dup2\n      0x01\n      add\n      sstore\n      swap1\n      pop\n      pop\n        /* \"Voting System/voting.sol\":1688:1692  true */\n      0x01\n        /* \"Voting System/voting.sol\":1671:1678  isVoter */\n      0x05\n        /* \"Voting System/voting.sol\":1671:1687  isVoter[voterId] */\n      0x00\n        /* \"Voting System/voting.sol\":1679:1686  voterId */\n      sload(0x03)\n        /* \"Voting System/voting.sol\":1671:1687  isVoter[voterId] */\n      dup2\n      mstore\n      0x20\n      add\n      swap1\n      dup2\n      mstore\n      0x20\n      add\n      0x00\n      keccak256\n      0x00\n        /* \"Voting System/voting.sol\":1671:1692  isVoter[voterId]=true */\n      0x0100\n      exp\n      dup2\n      sload\n      dup2\n      0xff\n      mul\n      not\n      and\n      swap1\n      dup4\n      iszero\n      iszero\n      mul\n      or\n      swap1\n      sstore\n      pop\n        /* \"Voting System/voting.sol\":1703:1715  AllvoterList */\n      0x01\n        /* \"Voting System/voting.sol\":1721:1728  voterId */\n      sload(0x03)\n        /* \"Voting System/voting.sol\":1703:1729  AllvoterList.push(voterId) */\n      swap1\n      dup1\n      0x01\n      dup2\n      sload\n      add\n      dup1\n      dup3\n      sstore\n      dup1\n      swap2\n      pop\n      pop\n      0x01\n      swap1\n      sub\n      swap1\n      0x00\n      mstore\n      keccak256(0x00, 0x20)\n      add\n      0x00\n      swap1\n      swap2\n      swap1\n      swap2\n      swap1\n      swap2\n      pop\n      sstore\n        /* \"Voting System/voting.sol\":1422:1737  function add_Voter(string memory _name, uint _age) public... */\n      pop\n      pop\n      jump\t// out\n        /* \"Voting System/voting.sol\":3096:3931  function view_Winner() public view returns(string memory,uint)... */\n    tag_56:\n        /* \"Voting System/voting.sol\":3139:3152  string memory */\n      0x60\n        /* \"Voting System/voting.sol\":3153:3157  uint */\n      0x00\n        /* \"Voting System/voting.sol\":3252:3261  VoteCount */\n      0x08\n        /* \"Voting System/voting.sol\":3262:3272  Candidates */\n      0x02\n        /* \"Voting System/voting.sol\":3273:3274  1 */\n      0x01\n        /* \"Voting System/voting.sol\":3262:3275  Candidates[1] */\n      dup2\n      sload\n      dup2\n      lt\n      tag_136\n      jumpi\n      tag_137\n      tag_64\n      jump\t// in\n    tag_137:\n    tag_136:\n      swap1\n      0x00\n      mstore\n      keccak256(0x00, 0x20)\n      add\n        /* \"Voting System/voting.sol\":3252:3276  VoteCount[Candidates[1]] */\n      mload(0x40)\n      tag_139\n      swap2\n      swap1\n      tag_140\n      jump\t// in\n    tag_139:\n      swap1\n      dup2\n      mstore\n      0x20\n      add\n      mload(0x40)\n      dup1\n      swap2\n      sub\n      swap1\n      keccak256\n      sload\n        /* \"Voting System/voting.sol\":3225:3234  VoteCount */\n      0x08\n        /* \"Voting System/voting.sol\":3235:3245  Candidates */\n      0x02\n        /* \"Voting System/voting.sol\":3246:3247  0 */\n      0x00\n        /* \"Voting System/voting.sol\":3235:3248  Candidates[0] */\n      dup2\n      sload\n      dup2\n      lt\n      tag_141\n      jumpi\n      tag_142\n      tag_64\n      jump\t// in\n    tag_142:\n    tag_141:\n      swap1\n      0x00\n      mstore\n      keccak256(0x00, 0x20)\n      add\n        /* \"Voting System/voting.sol\":3225:3249  VoteCount[Candidates[0]] */\n      mload(0x40)\n      tag_144\n      swap2\n      swap1\n      tag_140\n      jump\t// in\n    tag_144:\n      swap1\n      dup2\n      mstore\n      0x20\n      add\n      mload(0x40)\n      dup1\n      swap2\n      sub\n      swap1\n      keccak256\n      sload\n        /* \"Voting System/voting.sol\":3225:3276  VoteCount[Candidates[0]] > VoteCount[Candidates[1]] */\n      gt\n        /* \"Voting System/voting.sol\":3225:3331  VoteCount[Candidates[0]] > VoteCount[Candidates[1]] && VoteCount[Candidates[0]] > VoteCount[Candidates[2]] */\n      dup1\n      iszero\n      tag_145\n      jumpi\n      pop\n        /* \"Voting System/voting.sol\":3307:3316  VoteCount */\n      0x08\n        /* \"Voting System/voting.sol\":3317:3327  Candidates */\n      0x02\n        /* \"Voting System/voting.sol\":3328:3329  2 */\n      dup1\n        /* \"Voting System/voting.sol\":3317:3330  Candidates[2] */\n      dup2\n      sload\n      dup2\n      lt\n      tag_146\n      jumpi\n      tag_147\n      tag_64\n      jump\t// in\n    tag_147:\n    tag_146:\n      swap1\n      0x00\n      mstore\n      keccak256(0x00, 0x20)\n      add\n        /* \"Voting System/voting.sol\":3307:3331  VoteCount[Candidates[2]] */\n      mload(0x40)\n      tag_149\n      swap2\n      swap1\n      tag_140\n      jump\t// in\n    tag_149:\n      swap1\n      dup2\n      mstore\n      0x20\n      add\n      mload(0x40)\n      dup1\n      swap2\n      sub\n      swap1\n      keccak256\n      sload\n        /* \"Voting System/voting.sol\":3280:3289  VoteCount */\n      0x08\n        /* \"Voting System/voting.sol\":3290:3300  Candidates */\n      0x02\n        /* \"Voting System/voting.sol\":3301:3302  0 */\n      0x00\n        /* \"Voting System/voting.sol\":3290:3303  Candidates[0] */\n      dup2\n      sload\n      dup2\n      lt\n      tag_150\n      jumpi\n      tag_151\n      tag_64\n      jump\t// in\n    tag_151:\n    tag_150:\n      swap1\n      0x00\n      mstore\n      keccak256(0x00, 0x20)\n      add\n        /* \"Voting System/voting.sol\":3280:3304  VoteCount[Candidates[0]] */\n      mload(0x40)\n      tag_153\n      swap2\n      swap1\n      tag_140\n      jump\t// in\n    tag_153:\n      swap1\n      dup2\n      mstore\n      0x20\n      add\n      mload(0x40)\n      dup1\n      swap2\n      sub\n      swap1\n      keccak256\n      sload\n        /* \"Voting System/voting.sol\":3280:3331  VoteCount[Candidates[0]] > VoteCount[Candidates[2]] */\n      gt\n        /* \"Voting System/voting.sol\":3225:3331  VoteCount[Candidates[0]] > VoteCount[Candidates[1]] && VoteCount[Candidates[0]] > VoteCount[Candidates[2]] */\n    tag_145:\n        /* \"Voting System/voting.sol\":3222:3924  if(VoteCount[Candidates[0]] > VoteCount[Candidates[1]] && VoteCount[Candidates[0]] > VoteCount[Candidates[2]] )... */\n      iszero\n      tag_154\n      jumpi\n        /* \"Voting System/voting.sol\":3382:3391  VoteCount */\n      0x08\n        /* \"Voting System/voting.sol\":3392:3402  Candidates */\n      0x02\n        /* \"Voting System/voting.sol\":3403:3404  0 */\n      0x00\n        /* \"Voting System/voting.sol\":3392:3405  Candidates[0] */\n      dup2\n      sload\n      dup2\n      lt\n      tag_155\n      jumpi\n      tag_156\n      tag_64\n      jump\t// in\n    tag_156:\n    tag_155:\n      swap1\n      0x00\n      mstore\n      keccak256(0x00, 0x20)\n      add\n        /* \"Voting System/voting.sol\":3382:3406  VoteCount[Candidates[0]] */\n      mload(0x40)\n      tag_158\n      swap2\n      swap1\n      tag_140\n      jump\t// in\n    tag_158:\n      swap1\n      dup2\n      mstore\n      0x20\n      add\n      mload(0x40)\n      dup1\n      swap2\n      sub\n      swap1\n      keccak256\n      sload\n        /* \"Voting System/voting.sol\":3358:3407  return (\"C1 is Winner\", VoteCount[Candidates[0]]) */\n      mload(0x40)\n      dup1\n      0x40\n      add\n      0x40\n      mstore\n      dup1\n      0x0c\n      dup2\n      mstore\n      0x20\n      add\n      0x43312069732057696e6e65720000000000000000000000000000000000000000\n      dup2\n      mstore\n      pop\n      swap1\n      swap2\n      pop\n      swap2\n      pop\n      jump(tag_135)\n        /* \"Voting System/voting.sol\":3222:3924  if(VoteCount[Candidates[0]] > VoteCount[Candidates[1]] && VoteCount[Candidates[0]] > VoteCount[Candidates[2]] )... */\n    tag_154:\n        /* \"Voting System/voting.sol\":3464:3473  VoteCount */\n      0x08\n        /* \"Voting System/voting.sol\":3474:3484  Candidates */\n      0x02\n        /* \"Voting System/voting.sol\":3485:3486  0 */\n      0x00\n        /* \"Voting System/voting.sol\":3474:3487  Candidates[0] */\n      dup2\n      sload\n      dup2\n      lt\n      tag_160\n      jumpi\n      tag_161\n      tag_64\n      jump\t// in\n    tag_161:\n    tag_160:\n      swap1\n      0x00\n      mstore\n      keccak256(0x00, 0x20)\n      add\n        /* \"Voting System/voting.sol\":3464:3488  VoteCount[Candidates[0]] */\n      mload(0x40)\n      tag_163\n      swap2\n      swap1\n      tag_140\n      jump\t// in\n    tag_163:\n      swap1\n      dup2\n      mstore\n      0x20\n      add\n      mload(0x40)\n      dup1\n      swap2\n      sub\n      swap1\n      keccak256\n      sload\n        /* \"Voting System/voting.sol\":3437:3446  VoteCount */\n      0x08\n        /* \"Voting System/voting.sol\":3447:3457  Candidates */\n      0x02\n        /* \"Voting System/voting.sol\":3458:3459  1 */\n      0x01\n        /* \"Voting System/voting.sol\":3447:3460  Candidates[1] */\n      dup2\n      sload\n      dup2\n      lt\n      tag_164\n      jumpi\n      tag_165\n      tag_64\n      jump\t// in\n    tag_165:\n    tag_164:\n      swap1\n      0x00\n      mstore\n      keccak256(0x00, 0x20)\n      add\n        /* \"Voting System/voting.sol\":3437:3461  VoteCount[Candidates[1]] */\n      mload(0x40)\n      tag_167\n      swap2\n      swap1\n      tag_140\n      jump\t// in\n    tag_167:\n      swap1\n      dup2\n      mstore\n      0x20\n      add\n      mload(0x40)\n      dup1\n      swap2\n      sub\n      swap1\n      keccak256\n      sload\n        /* \"Voting System/voting.sol\":3437:3488  VoteCount[Candidates[1]] > VoteCount[Candidates[0]] */\n      gt\n        /* \"Voting System/voting.sol\":3437:3543  VoteCount[Candidates[1]] > VoteCount[Candidates[0]] && VoteCount[Candidates[1]] > VoteCount[Candidates[2]] */\n      dup1\n      iszero\n      tag_168\n      jumpi\n      pop\n        /* \"Voting System/voting.sol\":3519:3528  VoteCount */\n      0x08\n        /* \"Voting System/voting.sol\":3529:3539  Candidates */\n      0x02\n        /* \"Voting System/voting.sol\":3540:3541  2 */\n      dup1\n        /* \"Voting System/voting.sol\":3529:3542  Candidates[2] */\n      dup2\n      sload\n      dup2\n      lt\n      tag_169\n      jumpi\n      tag_170\n      tag_64\n      jump\t// in\n    tag_170:\n    tag_169:\n      swap1\n      0x00\n      mstore\n      keccak256(0x00, 0x20)\n      add\n        /* \"Voting System/voting.sol\":3519:3543  VoteCount[Candidates[2]] */\n      mload(0x40)\n      tag_172\n      swap2\n      swap1\n      tag_140\n      jump\t// in\n    tag_172:\n      swap1\n      dup2\n      mstore\n      0x20\n      add\n      mload(0x40)\n      dup1\n      swap2\n      sub\n      swap1\n      keccak256\n      sload\n        /* \"Voting System/voting.sol\":3492:3501  VoteCount */\n      0x08\n        /* \"Voting System/voting.sol\":3502:3512  Candidates */\n      0x02\n        /* \"Voting System/voting.sol\":3513:3514  1 */\n      0x01\n        /* \"Voting System/voting.sol\":3502:3515  Candidates[1] */\n      dup2\n      sload\n      dup2\n      lt\n      tag_173\n      jumpi\n      tag_174\n      tag_64\n      jump\t// in\n    tag_174:\n    tag_173:\n      swap1\n      0x00\n      mstore\n      keccak256(0x00, 0x20)\n      add\n        /* \"Voting System/voting.sol\":3492:3516  VoteCount[Candidates[1]] */\n      mload(0x40)\n      tag_176\n      swap2\n      swap1\n      tag_140\n      jump\t// in\n    tag_176:\n      swap1\n      dup2\n      mstore\n      0x20\n      add\n      mload(0x40)\n      dup1\n      swap2\n      sub\n      swap1\n      keccak256\n      sload\n        /* \"Voting System/voting.sol\":3492:3543  VoteCount[Candidates[1]] > VoteCount[Candidates[2]] */\n      gt\n        /* \"Voting System/voting.sol\":3437:3543  VoteCount[Candidates[1]] > VoteCount[Candidates[0]] && VoteCount[Candidates[1]] > VoteCount[Candidates[2]] */\n    tag_168:\n        /* \"Voting System/voting.sol\":3434:3924  if(VoteCount[Candidates[1]] > VoteCount[Candidates[0]] && VoteCount[Candidates[1]] > VoteCount[Candidates[2]] )... */\n      iszero\n      tag_177\n      jumpi\n        /* \"Voting System/voting.sol\":3594:3603  VoteCount */\n      0x08\n        /* \"Voting System/voting.sol\":3604:3614  Candidates */\n      0x02\n        /* \"Voting System/voting.sol\":3615:3616  1 */\n      0x01\n        /* \"Voting System/voting.sol\":3604:3617  Candidates[1] */\n      dup2\n      sload\n      dup2\n      lt\n      tag_178\n      jumpi\n      tag_179\n      tag_64\n      jump\t// in\n    tag_179:\n    tag_178:\n      swap1\n      0x00\n      mstore\n      keccak256(0x00, 0x20)\n      add\n        /* \"Voting System/voting.sol\":3594:3618  VoteCount[Candidates[1]] */\n      mload(0x40)\n      tag_181\n      swap2\n      swap1\n      tag_140\n      jump\t// in\n    tag_181:\n      swap1\n      dup2\n      mstore\n      0x20\n      add\n      mload(0x40)\n      dup1\n      swap2\n      sub\n      swap1\n      keccak256\n      sload\n        /* \"Voting System/voting.sol\":3570:3619  return (\"C2 is Winner\", VoteCount[Candidates[1]]) */\n      mload(0x40)\n      dup1\n      0x40\n      add\n      0x40\n      mstore\n      dup1\n      0x0c\n      dup2\n      mstore\n      0x20\n      add\n      0x43322069732057696e6e65720000000000000000000000000000000000000000\n      dup2\n      mstore\n      pop\n      swap1\n      swap2\n      pop\n      swap2\n      pop\n      jump(tag_135)\n        /* \"Voting System/voting.sol\":3434:3924  if(VoteCount[Candidates[1]] > VoteCount[Candidates[0]] && VoteCount[Candidates[1]] > VoteCount[Candidates[2]] )... */\n    tag_177:\n        /* \"Voting System/voting.sol\":3676:3685  VoteCount */\n      0x08\n        /* \"Voting System/voting.sol\":3686:3696  Candidates */\n      0x02\n        /* \"Voting System/voting.sol\":3697:3698  0 */\n      0x00\n        /* \"Voting System/voting.sol\":3686:3699  Candidates[0] */\n      dup2\n      sload\n      dup2\n      lt\n      tag_183\n      jumpi\n      tag_184\n      tag_64\n      jump\t// in\n    tag_184:\n    tag_183:\n      swap1\n      0x00\n      mstore\n      keccak256(0x00, 0x20)\n      add\n        /* \"Voting System/voting.sol\":3676:3700  VoteCount[Candidates[0]] */\n      mload(0x40)\n      tag_186\n      swap2\n      swap1\n      tag_140\n      jump\t// in\n    tag_186:\n      swap1\n      dup2\n      mstore\n      0x20\n      add\n      mload(0x40)\n      dup1\n      swap2\n      sub\n      swap1\n      keccak256\n      sload\n        /* \"Voting System/voting.sol\":3649:3658  VoteCount */\n      0x08\n        /* \"Voting System/voting.sol\":3659:3669  Candidates */\n      0x02\n        /* \"Voting System/voting.sol\":3670:3671  2 */\n      dup1\n        /* \"Voting System/voting.sol\":3659:3672  Candidates[2] */\n      dup2\n      sload\n      dup2\n      lt\n      tag_187\n      jumpi\n      tag_188\n      tag_64\n      jump\t// in\n    tag_188:\n    tag_187:\n      swap1\n      0x00\n      mstore\n      keccak256(0x00, 0x20)\n      add\n        /* \"Voting System/voting.sol\":3649:3673  VoteCount[Candidates[2]] */\n      mload(0x40)\n      tag_190\n      swap2\n      swap1\n      tag_140\n      jump\t// in\n    tag_190:\n      swap1\n      dup2\n      mstore\n      0x20\n      add\n      mload(0x40)\n      dup1\n      swap2\n      sub\n      swap1\n      keccak256\n      sload\n        /* \"Voting System/voting.sol\":3649:3700  VoteCount[Candidates[2]] > VoteCount[Candidates[0]] */\n      gt\n        /* \"Voting System/voting.sol\":3649:3755  VoteCount[Candidates[2]] > VoteCount[Candidates[0]] && VoteCount[Candidates[2]] > VoteCount[Candidates[1]] */\n      dup1\n      iszero\n      tag_191\n      jumpi\n      pop\n        /* \"Voting System/voting.sol\":3731:3740  VoteCount */\n      0x08\n        /* \"Voting System/voting.sol\":3741:3751  Candidates */\n      0x02\n        /* \"Voting System/voting.sol\":3752:3753  1 */\n      0x01\n        /* \"Voting System/voting.sol\":3741:3754  Candidates[1] */\n      dup2\n      sload\n      dup2\n      lt\n      tag_192\n      jumpi\n      tag_193\n      tag_64\n      jump\t// in\n    tag_193:\n    tag_192:\n      swap1\n      0x00\n      mstore\n      keccak256(0x00, 0x20)\n      add\n        /* \"Voting System/voting.sol\":3731:3755  VoteCount[Candidates[1]] */\n      mload(0x40)\n      tag_195\n      swap2\n      swap1\n      tag_140\n      jump\t// in\n    tag_195:\n      swap1\n      dup2\n      mstore\n      0x20\n      add\n      mload(0x40)\n      dup1\n      swap2\n      sub\n      swap1\n      keccak256\n      sload\n        /* \"Voting System/voting.sol\":3704:3713  VoteCount */\n      0x08\n        /* \"Voting System/voting.sol\":3714:3724  Candidates */\n      0x02\n        /* \"Voting System/voting.sol\":3725:3726  2 */\n      dup1\n        /* \"Voting System/voting.sol\":3714:3727  Candidates[2] */\n      dup2\n      sload\n      dup2\n      lt\n      tag_196\n      jumpi\n      tag_197\n      tag_64\n      jump\t// in\n    tag_197:\n    tag_196:\n      swap1\n      0x00\n      mstore\n      keccak256(0x00, 0x20)\n      add\n        /* \"Voting System/voting.sol\":3704:3728  VoteCount[Candidates[2]] */\n      mload(0x40)\n      tag_199\n      swap2\n      swap1\n      tag_140\n      jump\t// in\n    tag_199:\n      swap1\n      dup2\n      mstore\n      0x20\n      add\n      mload(0x40)\n      dup1\n      swap2\n      sub\n      swap1\n      keccak256\n      sload\n        /* \"Voting System/voting.sol\":3704:3755  VoteCount[Candidates[2]] > VoteCount[Candidates[1]] */\n      gt\n        /* \"Voting System/voting.sol\":3649:3755  VoteCount[Candidates[2]] > VoteCount[Candidates[0]] && VoteCount[Candidates[2]] > VoteCount[Candidates[1]] */\n    tag_191:\n        /* \"Voting System/voting.sol\":3646:3924  if(VoteCount[Candidates[2]] > VoteCount[Candidates[0]] && VoteCount[Candidates[2]] > VoteCount[Candidates[1]] )... */\n      iszero\n      tag_200\n      jumpi\n        /* \"Voting System/voting.sol\":3806:3815  VoteCount */\n      0x08\n        /* \"Voting System/voting.sol\":3816:3826  Candidates */\n      0x02\n        /* \"Voting System/voting.sol\":3827:3828  2 */\n      dup1\n        /* \"Voting System/voting.sol\":3816:3829  Candidates[2] */\n      dup2\n      sload\n      dup2\n      lt\n      tag_201\n      jumpi\n      tag_202\n      tag_64\n      jump\t// in\n    tag_202:\n    tag_201:\n      swap1\n      0x00\n      mstore\n      keccak256(0x00, 0x20)\n      add\n        /* \"Voting System/voting.sol\":3806:3830  VoteCount[Candidates[2]] */\n      mload(0x40)\n      tag_204\n      swap2\n      swap1\n      tag_140\n      jump\t// in\n    tag_204:\n      swap1\n      dup2\n      mstore\n      0x20\n      add\n      mload(0x40)\n      dup1\n      swap2\n      sub\n      swap1\n      keccak256\n      sload\n        /* \"Voting System/voting.sol\":3782:3831  return (\"C3 is Winner\", VoteCount[Candidates[2]]) */\n      mload(0x40)\n      dup1\n      0x40\n      add\n      0x40\n      mstore\n      dup1\n      0x0c\n      dup2\n      mstore\n      0x20\n      add\n      0x43332069732057696e6e65720000000000000000000000000000000000000000\n      dup2\n      mstore\n      pop\n      swap1\n      swap2\n      pop\n      swap2\n      pop\n      jump(tag_135)\n        /* \"Voting System/voting.sol\":3646:3924  if(VoteCount[Candidates[2]] > VoteCount[Candidates[0]] && VoteCount[Candidates[2]] > VoteCount[Candidates[1]] )... */\n    tag_200:\n        /* \"Voting System/voting.sol\":3910:3911  0 */\n      0x00\n        /* \"Voting System/voting.sol\":3882:3912  return(\"No Voting Happened\",0) */\n      mload(0x40)\n      dup1\n      0x40\n      add\n      0x40\n      mstore\n      dup1\n      0x12\n      dup2\n      mstore\n      0x20\n      add\n      0x4e6f20566f74696e672048617070656e65640000000000000000000000000000\n      dup2\n      mstore\n      pop\n      swap1\n      swap2\n      pop\n      swap2\n      pop\n        /* \"Voting System/voting.sol\":3096:3931  function view_Winner() public view returns(string memory,uint)... */\n    tag_135:\n      swap1\n      swap2\n      jump\t// out\n        /* \"#utility.yul\":7:82   */\n    tag_206:\n        /* \"#utility.yul\":40:46   */\n      0x00\n        /* \"#utility.yul\":73:75   */\n      0x40\n        /* \"#utility.yul\":67:76   */\n      mload\n        /* \"#utility.yul\":57:76   */\n      swap1\n      pop\n        /* \"#utility.yul\":7:82   */\n      swap1\n      jump\t// out\n        /* \"#utility.yul\":88:205   */\n    tag_207:\n        /* \"#utility.yul\":197:198   */\n      0x00\n        /* \"#utility.yul\":194:195   */\n      dup1\n        /* \"#utility.yul\":187:199   */\n      revert\n        /* \"#utility.yul\":211:328   */\n    tag_208:\n        /* \"#utility.yul\":320:321   */\n      0x00\n        /* \"#utility.yul\":317:318   */\n      dup1\n        /* \"#utility.yul\":310:322   */\n      revert\n        /* \"#utility.yul\":334:451   */\n    tag_209:\n        /* \"#utility.yul\":443:444   */\n      0x00\n        /* \"#utility.yul\":440:441   */\n      dup1\n        /* \"#utility.yul\":433:445   */\n      revert\n        /* \"#utility.yul\":457:574   */\n    tag_210:\n        /* \"#utility.yul\":566:567   */\n      0x00\n        /* \"#utility.yul\":563:564   */\n      dup1\n        /* \"#utility.yul\":556:568   */\n      revert\n        /* \"#utility.yul\":580:682   */\n    tag_211:\n        /* \"#utility.yul\":621:627   */\n      0x00\n        /* \"#utility.yul\":672:674   */\n      0x1f\n        /* \"#utility.yul\":668:675   */\n      not\n        /* \"#utility.yul\":663:665   */\n      0x1f\n        /* \"#utility.yul\":656:661   */\n      dup4\n        /* \"#utility.yul\":652:666   */\n      add\n        /* \"#utility.yul\":648:676   */\n      and\n        /* \"#utility.yul\":638:676   */\n      swap1\n      pop\n        /* \"#utility.yul\":580:682   */\n      swap2\n      swap1\n      pop\n      jump\t// out\n        /* \"#utility.yul\":688:868   */\n    tag_212:\n        /* \"#utility.yul\":736:813   */\n      0x4e487b7100000000000000000000000000000000000000000000000000000000\n        /* \"#utility.yul\":733:734   */\n      0x00\n        /* \"#utility.yul\":726:814   */\n      mstore\n        /* \"#utility.yul\":833:837   */\n      0x41\n        /* \"#utility.yul\":830:831   */\n      0x04\n        /* \"#utility.yul\":823:838   */\n      mstore\n        /* \"#utility.yul\":857:861   */\n      0x24\n        /* \"#utility.yul\":854:855   */\n      0x00\n        /* \"#utility.yul\":847:862   */\n      revert\n        /* \"#utility.yul\":874:1155   */\n    tag_213:\n        /* \"#utility.yul\":957:984   */\n      tag_294\n        /* \"#utility.yul\":979:983   */\n      dup3\n        /* \"#utility.yul\":957:984   */\n      tag_211\n      jump\t// in\n    tag_294:\n        /* \"#utility.yul\":949:955   */\n      dup2\n        /* \"#utility.yul\":945:985   */\n      add\n        /* \"#utility.yul\":1087:1093   */\n      dup2\n        /* \"#utility.yul\":1075:1085   */\n      dup2\n        /* \"#utility.yul\":1072:1094   */\n      lt\n        /* \"#utility.yul\":1051:1069   */\n      0xffffffffffffffff\n        /* \"#utility.yul\":1039:1049   */\n      dup3\n        /* \"#utility.yul\":1036:1070   */\n      gt\n        /* \"#utility.yul\":1033:1095   */\n      or\n        /* \"#utility.yul\":1030:1118   */\n      iszero\n      tag_295\n      jumpi\n        /* \"#utility.yul\":1098:1116   */\n      tag_296\n      tag_212\n      jump\t// in\n    tag_296:\n        /* \"#utility.yul\":1030:1118   */\n    tag_295:\n        /* \"#utility.yul\":1138:1148   */\n      dup1\n        /* \"#utility.yul\":1134:1136   */\n      0x40\n        /* \"#utility.yul\":1127:1149   */\n      mstore\n        /* \"#utility.yul\":917:1155   */\n      pop\n        /* \"#utility.yul\":874:1155   */\n      pop\n      pop\n      jump\t// out\n        /* \"#utility.yul\":1161:1290   */\n    tag_214:\n        /* \"#utility.yul\":1195:1201   */\n      0x00\n        /* \"#utility.yul\":1222:1242   */\n      tag_298\n      tag_206\n      jump\t// in\n    tag_298:\n        /* \"#utility.yul\":1212:1242   */\n      swap1\n      pop\n        /* \"#utility.yul\":1251:1284   */\n      tag_299\n        /* \"#utility.yul\":1279:1283   */\n      dup3\n        /* \"#utility.yul\":1271:1277   */\n      dup3\n        /* \"#utility.yul\":1251:1284   */\n      tag_213\n      jump\t// in\n    tag_299:\n        /* \"#utility.yul\":1161:1290   */\n      swap2\n      swap1\n      pop\n      jump\t// out\n        /* \"#utility.yul\":1296:1604   */\n    tag_215:\n        /* \"#utility.yul\":1358:1362   */\n      0x00\n        /* \"#utility.yul\":1448:1466   */\n      0xffffffffffffffff\n        /* \"#utility.yul\":1440:1446   */\n      dup3\n        /* \"#utility.yul\":1437:1467   */\n      gt\n        /* \"#utility.yul\":1434:1490   */\n      iszero\n      tag_301\n      jumpi\n        /* \"#utility.yul\":1470:1488   */\n      tag_302\n      tag_212\n      jump\t// in\n    tag_302:\n        /* \"#utility.yul\":1434:1490   */\n    tag_301:\n        /* \"#utility.yul\":1508:1537   */\n      tag_303\n        /* \"#utility.yul\":1530:1536   */\n      dup3\n        /* \"#utility.yul\":1508:1537   */\n      tag_211\n      jump\t// in\n    tag_303:\n        /* \"#utility.yul\":1500:1537   */\n      swap1\n      pop\n        /* \"#utility.yul\":1592:1596   */\n      0x20\n        /* \"#utility.yul\":1586:1590   */\n      dup2\n        /* \"#utility.yul\":1582:1597   */\n      add\n        /* \"#utility.yul\":1574:1597   */\n      swap1\n      pop\n        /* \"#utility.yul\":1296:1604   */\n      swap2\n      swap1\n      pop\n      jump\t// out\n        /* \"#utility.yul\":1610:1756   */\n    tag_216:\n        /* \"#utility.yul\":1707:1713   */\n      dup3\n        /* \"#utility.yul\":1702:1705   */\n      dup2\n        /* \"#utility.yul\":1697:1700   */\n      dup4\n        /* \"#utility.yul\":1684:1714   */\n      calldatacopy\n        /* \"#utility.yul\":1748:1749   */\n      0x00\n        /* \"#utility.yul\":1739:1745   */\n      dup4\n        /* \"#utility.yul\":1734:1737   */\n      dup4\n        /* \"#utility.yul\":1730:1746   */\n      add\n        /* \"#utility.yul\":1723:1750   */\n      mstore\n        /* \"#utility.yul\":1610:1756   */\n      pop\n      pop\n      pop\n      jump\t// out\n        /* \"#utility.yul\":1762:2187   */\n    tag_217:\n        /* \"#utility.yul\":1840:1845   */\n      0x00\n        /* \"#utility.yul\":1865:1931   */\n      tag_306\n        /* \"#utility.yul\":1881:1930   */\n      tag_307\n        /* \"#utility.yul\":1923:1929   */\n      dup5\n        /* \"#utility.yul\":1881:1930   */\n      tag_215\n      jump\t// in\n    tag_307:\n        /* \"#utility.yul\":1865:1931   */\n      tag_214\n      jump\t// in\n    tag_306:\n        /* \"#utility.yul\":1856:1931   */\n      swap1\n      pop\n        /* \"#utility.yul\":1954:1960   */\n      dup3\n        /* \"#utility.yul\":1947:1952   */\n      dup2\n        /* \"#utility.yul\":1940:1961   */\n      mstore\n        /* \"#utility.yul\":1992:1996   */\n      0x20\n        /* \"#utility.yul\":1985:1990   */\n      dup2\n        /* \"#utility.yul\":1981:1997   */\n      add\n        /* \"#utility.yul\":2030:2033   */\n      dup5\n        /* \"#utility.yul\":2021:2027   */\n      dup5\n        /* \"#utility.yul\":2016:2019   */\n      dup5\n        /* \"#utility.yul\":2012:2028   */\n      add\n        /* \"#utility.yul\":2009:2034   */\n      gt\n        /* \"#utility.yul\":2006:2118   */\n      iszero\n      tag_308\n      jumpi\n        /* \"#utility.yul\":2037:2116   */\n      tag_309\n      tag_210\n      jump\t// in\n    tag_309:\n        /* \"#utility.yul\":2006:2118   */\n    tag_308:\n        /* \"#utility.yul\":2127:2181   */\n      tag_310\n        /* \"#utility.yul\":2174:2180   */\n      dup5\n        /* \"#utility.yul\":2169:2172   */\n      dup3\n        /* \"#utility.yul\":2164:2167   */\n      dup6\n        /* \"#utility.yul\":2127:2181   */\n      tag_216\n      jump\t// in\n    tag_310:\n        /* \"#utility.yul\":1846:2187   */\n      pop\n        /* \"#utility.yul\":1762:2187   */\n      swap4\n      swap3\n      pop\n      pop\n      pop\n      jump\t// out\n        /* \"#utility.yul\":2207:2547   */\n    tag_218:\n        /* \"#utility.yul\":2263:2268   */\n      0x00\n        /* \"#utility.yul\":2312:2315   */\n      dup3\n        /* \"#utility.yul\":2305:2309   */\n      0x1f\n        /* \"#utility.yul\":2297:2303   */\n      dup4\n        /* \"#utility.yul\":2293:2310   */\n      add\n        /* \"#utility.yul\":2289:2316   */\n      slt\n        /* \"#utility.yul\":2279:2401   */\n      tag_312\n      jumpi\n        /* \"#utility.yul\":2320:2399   */\n      tag_313\n      tag_209\n      jump\t// in\n    tag_313:\n        /* \"#utility.yul\":2279:2401   */\n    tag_312:\n        /* \"#utility.yul\":2437:2443   */\n      dup2\n        /* \"#utility.yul\":2424:2444   */\n      calldataload\n        /* \"#utility.yul\":2462:2541   */\n      tag_314\n        /* \"#utility.yul\":2537:2540   */\n      dup5\n        /* \"#utility.yul\":2529:2535   */\n      dup3\n        /* \"#utility.yul\":2522:2526   */\n      0x20\n        /* \"#utility.yul\":2514:2520   */\n      dup7\n        /* \"#utility.yul\":2510:2527   */\n      add\n        /* \"#utility.yul\":2462:2541   */\n      tag_217\n      jump\t// in\n    tag_314:\n        /* \"#utility.yul\":2453:2541   */\n      swap2\n      pop\n        /* \"#utility.yul\":2269:2547   */\n      pop\n        /* \"#utility.yul\":2207:2547   */\n      swap3\n      swap2\n      pop\n      pop\n      jump\t// out\n        /* \"#utility.yul\":2553:3062   */\n    tag_16:\n        /* \"#utility.yul\":2622:2628   */\n      0x00\n        /* \"#utility.yul\":2671:2673   */\n      0x20\n        /* \"#utility.yul\":2659:2668   */\n      dup3\n        /* \"#utility.yul\":2650:2657   */\n      dup5\n        /* \"#utility.yul\":2646:2669   */\n      sub\n        /* \"#utility.yul\":2642:2674   */\n      slt\n        /* \"#utility.yul\":2639:2758   */\n      iszero\n      tag_316\n      jumpi\n        /* \"#utility.yul\":2677:2756   */\n      tag_317\n      tag_207\n      jump\t// in\n    tag_317:\n        /* \"#utility.yul\":2639:2758   */\n    tag_316:\n        /* \"#utility.yul\":2825:2826   */\n      0x00\n        /* \"#utility.yul\":2814:2823   */\n      dup3\n        /* \"#utility.yul\":2810:2827   */\n      add\n        /* \"#utility.yul\":2797:2828   */\n      calldataload\n        /* \"#utility.yul\":2855:2873   */\n      0xffffffffffffffff\n        /* \"#utility.yul\":2847:2853   */\n      dup2\n        /* \"#utility.yul\":2844:2874   */\n      gt\n        /* \"#utility.yul\":2841:2958   */\n      iszero\n      tag_318\n      jumpi\n        /* \"#utility.yul\":2877:2956   */\n      tag_319\n      tag_208\n      jump\t// in\n    tag_319:\n        /* \"#utility.yul\":2841:2958   */\n    tag_318:\n        /* \"#utility.yul\":2982:3045   */\n      tag_320\n        /* \"#utility.yul\":3037:3044   */\n      dup5\n        /* \"#utility.yul\":3028:3034   */\n      dup3\n        /* \"#utility.yul\":3017:3026   */\n      dup6\n        /* \"#utility.yul\":3013:3035   */\n      add\n        /* \"#utility.yul\":2982:3045   */\n      tag_218\n      jump\t// in\n    tag_320:\n        /* \"#utility.yul\":2972:3045   */\n      swap2\n      pop\n        /* \"#utility.yul\":2768:3055   */\n      pop\n        /* \"#utility.yul\":2553:3062   */\n      swap3\n      swap2\n      pop\n      pop\n      jump\t// out\n        /* \"#utility.yul\":3068:3158   */\n    tag_219:\n        /* \"#utility.yul\":3102:3109   */\n      0x00\n        /* \"#utility.yul\":3145:3150   */\n      dup2\n        /* \"#utility.yul\":3138:3151   */\n      iszero\n        /* \"#utility.yul\":3131:3152   */\n      iszero\n        /* \"#utility.yul\":3120:3152   */\n      swap1\n      pop\n        /* \"#utility.yul\":3068:3158   */\n      swap2\n      swap1\n      pop\n      jump\t// out\n        /* \"#utility.yul\":3164:3273   */\n    tag_220:\n        /* \"#utility.yul\":3245:3266   */\n      tag_323\n        /* \"#utility.yul\":3260:3265   */\n      dup2\n        /* \"#utility.yul\":3245:3266   */\n      tag_219\n      jump\t// in\n    tag_323:\n        /* \"#utility.yul\":3240:3243   */\n      dup3\n        /* \"#utility.yul\":3233:3267   */\n      mstore\n        /* \"#utility.yul\":3164:3273   */\n      pop\n      pop\n      jump\t// out\n        /* \"#utility.yul\":3279:3489   */\n    tag_19:\n        /* \"#utility.yul\":3366:3370   */\n      0x00\n        /* \"#utility.yul\":3404:3406   */\n      0x20\n        /* \"#utility.yul\":3393:3402   */\n      dup3\n        /* \"#utility.yul\":3389:3407   */\n      add\n        /* \"#utility.yul\":3381:3407   */\n      swap1\n      pop\n        /* \"#utility.yul\":3417:3482   */\n      tag_325\n        /* \"#utility.yul\":3479:3480   */\n      0x00\n        /* \"#utility.yul\":3468:3477   */\n      dup4\n        /* \"#utility.yul\":3464:3481   */\n      add\n        /* \"#utility.yul\":3455:3461   */\n      dup5\n        /* \"#utility.yul\":3417:3482   */\n      tag_220\n      jump\t// in\n    tag_325:\n        /* \"#utility.yul\":3279:3489   */\n      swap3\n      swap2\n      pop\n      pop\n      jump\t// out\n        /* \"#utility.yul\":3495:3572   */\n    tag_221:\n        /* \"#utility.yul\":3532:3539   */\n      0x00\n        /* \"#utility.yul\":3561:3566   */\n      dup2\n        /* \"#utility.yul\":3550:3566   */\n      swap1\n      pop\n        /* \"#utility.yul\":3495:3572   */\n      swap2\n      swap1\n      pop\n      jump\t// out\n        /* \"#utility.yul\":3578:3696   */\n    tag_222:\n        /* \"#utility.yul\":3665:3689   */\n      tag_328\n        /* \"#utility.yul\":3683:3688   */\n      dup2\n        /* \"#utility.yul\":3665:3689   */\n      tag_221\n      jump\t// in\n    tag_328:\n        /* \"#utility.yul\":3660:3663   */\n      dup3\n        /* \"#utility.yul\":3653:3690   */\n      mstore\n        /* \"#utility.yul\":3578:3696   */\n      pop\n      pop\n      jump\t// out\n        /* \"#utility.yul\":3702:3924   */\n    tag_24:\n        /* \"#utility.yul\":3795:3799   */\n      0x00\n        /* \"#utility.yul\":3833:3835   */\n      0x20\n        /* \"#utility.yul\":3822:3831   */\n      dup3\n        /* \"#utility.yul\":3818:3836   */\n      add\n        /* \"#utility.yul\":3810:3836   */\n      swap1\n      pop\n        /* \"#utility.yul\":3846:3917   */\n      tag_330\n        /* \"#utility.yul\":3914:3915   */\n      0x00\n        /* \"#utility.yul\":3903:3912   */\n      dup4\n        /* \"#utility.yul\":3899:3916   */\n      add\n        /* \"#utility.yul\":3890:3896   */\n      dup5\n        /* \"#utility.yul\":3846:3917   */\n      tag_222\n      jump\t// in\n    tag_330:\n        /* \"#utility.yul\":3702:3924   */\n      swap3\n      swap2\n      pop\n      pop\n      jump\t// out\n        /* \"#utility.yul\":3930:4044   */\n    tag_223:\n        /* \"#utility.yul\":3997:4003   */\n      0x00\n        /* \"#utility.yul\":4031:4036   */\n      dup2\n        /* \"#utility.yul\":4025:4037   */\n      mload\n        /* \"#utility.yul\":4015:4037   */\n      swap1\n      pop\n        /* \"#utility.yul\":3930:4044   */\n      swap2\n      swap1\n      pop\n      jump\t// out\n        /* \"#utility.yul\":4050:4234   */\n    tag_224:\n        /* \"#utility.yul\":4149:4160   */\n      0x00\n        /* \"#utility.yul\":4183:4189   */\n      dup3\n        /* \"#utility.yul\":4178:4181   */\n      dup3\n        /* \"#utility.yul\":4171:4190   */\n      mstore\n        /* \"#utility.yul\":4223:4227   */\n      0x20\n        /* \"#utility.yul\":4218:4221   */\n      dup3\n        /* \"#utility.yul\":4214:4228   */\n      add\n        /* \"#utility.yul\":4199:4228   */\n      swap1\n      pop\n        /* \"#utility.yul\":4050:4234   */\n      swap3\n      swap2\n      pop\n      pop\n      jump\t// out\n        /* \"#utility.yul\":4240:4372   */\n    tag_225:\n        /* \"#utility.yul\":4307:4311   */\n      0x00\n        /* \"#utility.yul\":4330:4333   */\n      dup2\n        /* \"#utility.yul\":4322:4333   */\n      swap1\n      pop\n        /* \"#utility.yul\":4360:4364   */\n      0x20\n        /* \"#utility.yul\":4355:4358   */\n      dup3\n        /* \"#utility.yul\":4351:4365   */\n      add\n        /* \"#utility.yul\":4343:4365   */\n      swap1\n      pop\n        /* \"#utility.yul\":4240:4372   */\n      swap2\n      swap1\n      pop\n      jump\t// out\n        /* \"#utility.yul\":4378:4455   */\n    tag_226:\n        /* \"#utility.yul\":4415:4422   */\n      0x00\n        /* \"#utility.yul\":4444:4449   */\n      dup2\n        /* \"#utility.yul\":4433:4449   */\n      swap1\n      pop\n        /* \"#utility.yul\":4378:4455   */\n      swap2\n      swap1\n      pop\n      jump\t// out\n        /* \"#utility.yul\":4461:4569   */\n    tag_227:\n        /* \"#utility.yul\":4538:4562   */\n      tag_336\n        /* \"#utility.yul\":4556:4561   */\n      dup2\n        /* \"#utility.yul\":4538:4562   */\n      tag_226\n      jump\t// in\n    tag_336:\n        /* \"#utility.yul\":4533:4536   */\n      dup3\n        /* \"#utility.yul\":4526:4563   */\n      mstore\n        /* \"#utility.yul\":4461:4569   */\n      pop\n      pop\n      jump\t// out\n        /* \"#utility.yul\":4575:4754   */\n    tag_228:\n        /* \"#utility.yul\":4644:4654   */\n      0x00\n        /* \"#utility.yul\":4665:4711   */\n      tag_338\n        /* \"#utility.yul\":4707:4710   */\n      dup4\n        /* \"#utility.yul\":4699:4705   */\n      dup4\n        /* \"#utility.yul\":4665:4711   */\n      tag_227\n      jump\t// in\n    tag_338:\n        /* \"#utility.yul\":4743:4747   */\n      0x20\n        /* \"#utility.yul\":4738:4741   */\n      dup4\n        /* \"#utility.yul\":4734:4748   */\n      add\n        /* \"#utility.yul\":4720:4748   */\n      swap1\n      pop\n        /* \"#utility.yul\":4575:4754   */\n      swap3\n      swap2\n      pop\n      pop\n      jump\t// out\n        /* \"#utility.yul\":4760:4873   */\n    tag_229:\n        /* \"#utility.yul\":4830:4834   */\n      0x00\n        /* \"#utility.yul\":4862:4866   */\n      0x20\n        /* \"#utility.yul\":4857:4860   */\n      dup3\n        /* \"#utility.yul\":4853:4867   */\n      add\n        /* \"#utility.yul\":4845:4867   */\n      swap1\n      pop\n        /* \"#utility.yul\":4760:4873   */\n      swap2\n      swap1\n      pop\n      jump\t// out\n        /* \"#utility.yul\":4909:5641   */\n    tag_230:\n        /* \"#utility.yul\":5028:5031   */\n      0x00\n        /* \"#utility.yul\":5057:5111   */\n      tag_341\n        /* \"#utility.yul\":5105:5110   */\n      dup3\n        /* \"#utility.yul\":5057:5111   */\n      tag_223\n      jump\t// in\n    tag_341:\n        /* \"#utility.yul\":5127:5213   */\n      tag_342\n        /* \"#utility.yul\":5206:5212   */\n      dup2\n        /* \"#utility.yul\":5201:5204   */\n      dup6\n        /* \"#utility.yul\":5127:5213   */\n      tag_224\n      jump\t// in\n    tag_342:\n        /* \"#utility.yul\":5120:5213   */\n      swap4\n      pop\n        /* \"#utility.yul\":5237:5293   */\n      tag_343\n        /* \"#utility.yul\":5287:5292   */\n      dup4\n        /* \"#utility.yul\":5237:5293   */\n      tag_225\n      jump\t// in\n    tag_343:\n        /* \"#utility.yul\":5316:5323   */\n      dup1\n        /* \"#utility.yul\":5347:5348   */\n      0x00\n        /* \"#utility.yul\":5332:5616   */\n    tag_344:\n        /* \"#utility.yul\":5357:5363   */\n      dup4\n        /* \"#utility.yul\":5354:5355   */\n      dup2\n        /* \"#utility.yul\":5351:5364   */\n      lt\n        /* \"#utility.yul\":5332:5616   */\n      iszero\n      tag_346\n      jumpi\n        /* \"#utility.yul\":5433:5439   */\n      dup2\n        /* \"#utility.yul\":5427:5440   */\n      mload\n        /* \"#utility.yul\":5460:5523   */\n      tag_347\n        /* \"#utility.yul\":5519:5522   */\n      dup9\n        /* \"#utility.yul\":5504:5517   */\n      dup3\n        /* \"#utility.yul\":5460:5523   */\n      tag_228\n      jump\t// in\n    tag_347:\n        /* \"#utility.yul\":5453:5523   */\n      swap8\n      pop\n        /* \"#utility.yul\":5546:5606   */\n      tag_348\n        /* \"#utility.yul\":5599:5605   */\n      dup4\n        /* \"#utility.yul\":5546:5606   */\n      tag_229\n      jump\t// in\n    tag_348:\n        /* \"#utility.yul\":5536:5606   */\n      swap3\n      pop\n        /* \"#utility.yul\":5392:5616   */\n      pop\n        /* \"#utility.yul\":5379:5380   */\n      0x01\n        /* \"#utility.yul\":5376:5377   */\n      dup2\n        /* \"#utility.yul\":5372:5381   */\n      add\n        /* \"#utility.yul\":5367:5381   */\n      swap1\n      pop\n        /* \"#utility.yul\":5332:5616   */\n      jump(tag_344)\n    tag_346:\n        /* \"#utility.yul\":5336:5350   */\n      pop\n        /* \"#utility.yul\":5632:5635   */\n      dup6\n        /* \"#utility.yul\":5625:5635   */\n      swap4\n      pop\n        /* \"#utility.yul\":5033:5641   */\n      pop\n      pop\n      pop\n        /* \"#utility.yul\":4909:5641   */\n      swap3\n      swap2\n      pop\n      pop\n      jump\t// out\n        /* \"#utility.yul\":5647:6020   */\n    tag_28:\n        /* \"#utility.yul\":5790:5794   */\n      0x00\n        /* \"#utility.yul\":5828:5830   */\n      0x20\n        /* \"#utility.yul\":5817:5826   */\n      dup3\n        /* \"#utility.yul\":5813:5831   */\n      add\n        /* \"#utility.yul\":5805:5831   */\n      swap1\n      pop\n        /* \"#utility.yul\":5877:5886   */\n      dup2\n        /* \"#utility.yul\":5871:5875   */\n      dup2\n        /* \"#utility.yul\":5867:5887   */\n      sub\n        /* \"#utility.yul\":5863:5864   */\n      0x00\n        /* \"#utility.yul\":5852:5861   */\n      dup4\n        /* \"#utility.yul\":5848:5865   */\n      add\n        /* \"#utility.yul\":5841:5888   */\n      mstore\n        /* \"#utility.yul\":5905:6013   */\n      tag_350\n        /* \"#utility.yul\":6008:6012   */\n      dup2\n        /* \"#utility.yul\":5999:6005   */\n      dup5\n        /* \"#utility.yul\":5905:6013   */\n      tag_230\n      jump\t// in\n    tag_350:\n        /* \"#utility.yul\":5897:6013   */\n      swap1\n      pop\n        /* \"#utility.yul\":5647:6020   */\n      swap3\n      swap2\n      pop\n      pop\n      jump\t// out\n        /* \"#utility.yul\":6026:6148   */\n    tag_231:\n        /* \"#utility.yul\":6099:6123   */\n      tag_352\n        /* \"#utility.yul\":6117:6122   */\n      dup2\n        /* \"#utility.yul\":6099:6123   */\n      tag_226\n      jump\t// in\n    tag_352:\n        /* \"#utility.yul\":6092:6097   */\n      dup2\n        /* \"#utility.yul\":6089:6124   */\n      eq\n        /* \"#utility.yul\":6079:6142   */\n      tag_353\n      jumpi\n        /* \"#utility.yul\":6138:6139   */\n      0x00\n        /* \"#utility.yul\":6135:6136   */\n      dup1\n        /* \"#utility.yul\":6128:6140   */\n      revert\n        /* \"#utility.yul\":6079:6142   */\n    tag_353:\n        /* \"#utility.yul\":6026:6148   */\n      pop\n      jump\t// out\n        /* \"#utility.yul\":6154:6293   */\n    tag_232:\n        /* \"#utility.yul\":6200:6205   */\n      0x00\n        /* \"#utility.yul\":6238:6244   */\n      dup2\n        /* \"#utility.yul\":6225:6245   */\n      calldataload\n        /* \"#utility.yul\":6216:6245   */\n      swap1\n      pop\n        /* \"#utility.yul\":6254:6287   */\n      tag_355\n        /* \"#utility.yul\":6281:6286   */\n      dup2\n        /* \"#utility.yul\":6254:6287   */\n      tag_231\n      jump\t// in\n    tag_355:\n        /* \"#utility.yul\":6154:6293   */\n      swap3\n      swap2\n      pop\n      pop\n      jump\t// out\n        /* \"#utility.yul\":6299:6953   */\n    tag_31:\n        /* \"#utility.yul\":6377:6383   */\n      0x00\n        /* \"#utility.yul\":6385:6391   */\n      dup1\n        /* \"#utility.yul\":6434:6436   */\n      0x40\n        /* \"#utility.yul\":6422:6431   */\n      dup4\n        /* \"#utility.yul\":6413:6420   */\n      dup6\n        /* \"#utility.yul\":6409:6432   */\n      sub\n        /* \"#utility.yul\":6405:6437   */\n      slt\n        /* \"#utility.yul\":6402:6521   */\n      iszero\n      tag_357\n      jumpi\n        /* \"#utility.yul\":6440:6519   */\n      tag_358\n      tag_207\n      jump\t// in\n    tag_358:\n        /* \"#utility.yul\":6402:6521   */\n    tag_357:\n        /* \"#utility.yul\":6560:6561   */\n      0x00\n        /* \"#utility.yul\":6585:6638   */\n      tag_359\n        /* \"#utility.yul\":6630:6637   */\n      dup6\n        /* \"#utility.yul\":6621:6627   */\n      dup3\n        /* \"#utility.yul\":6610:6619   */\n      dup7\n        /* \"#utility.yul\":6606:6628   */\n      add\n        /* \"#utility.yul\":6585:6638   */\n      tag_232\n      jump\t// in\n    tag_359:\n        /* \"#utility.yul\":6575:6638   */\n      swap3\n      pop\n        /* \"#utility.yul\":6531:6648   */\n      pop\n        /* \"#utility.yul\":6715:6717   */\n      0x20\n        /* \"#utility.yul\":6704:6713   */\n      dup4\n        /* \"#utility.yul\":6700:6718   */\n      add\n        /* \"#utility.yul\":6687:6719   */\n      calldataload\n        /* \"#utility.yul\":6746:6764   */\n      0xffffffffffffffff\n        /* \"#utility.yul\":6738:6744   */\n      dup2\n        /* \"#utility.yul\":6735:6765   */\n      gt\n        /* \"#utility.yul\":6732:6849   */\n      iszero\n      tag_360\n      jumpi\n        /* \"#utility.yul\":6768:6847   */\n      tag_361\n      tag_208\n      jump\t// in\n    tag_361:\n        /* \"#utility.yul\":6732:6849   */\n    tag_360:\n        /* \"#utility.yul\":6873:6936   */\n      tag_362\n        /* \"#utility.yul\":6928:6935   */\n      dup6\n        /* \"#utility.yul\":6919:6925   */\n      dup3\n        /* \"#utility.yul\":6908:6917   */\n      dup7\n        /* \"#utility.yul\":6904:6926   */\n      add\n        /* \"#utility.yul\":6873:6936   */\n      tag_218\n      jump\t// in\n    tag_362:\n        /* \"#utility.yul\":6863:6936   */\n      swap2\n      pop\n        /* \"#utility.yul\":6658:6946   */\n      pop\n        /* \"#utility.yul\":6299:6953   */\n      swap3\n      pop\n      swap3\n      swap1\n      pop\n      jump\t// out\n        /* \"#utility.yul\":6959:7083   */\n    tag_233:\n        /* \"#utility.yul\":7036:7042   */\n      0x00\n        /* \"#utility.yul\":7070:7075   */\n      dup2\n        /* \"#utility.yul\":7064:7076   */\n      mload\n        /* \"#utility.yul\":7054:7076   */\n      swap1\n      pop\n        /* \"#utility.yul\":6959:7083   */\n      swap2\n      swap1\n      pop\n      jump\t// out\n        /* \"#utility.yul\":7089:7283   */\n    tag_234:\n        /* \"#utility.yul\":7198:7209   */\n      0x00\n        /* \"#utility.yul\":7232:7238   */\n      dup3\n        /* \"#utility.yul\":7227:7230   */\n      dup3\n        /* \"#utility.yul\":7220:7239   */\n      mstore\n        /* \"#utility.yul\":7272:7276   */\n      0x20\n        /* \"#utility.yul\":7267:7270   */\n      dup3\n        /* \"#utility.yul\":7263:7277   */\n      add\n        /* \"#utility.yul\":7248:7277   */\n      swap1\n      pop\n        /* \"#utility.yul\":7089:7283   */\n      swap3\n      swap2\n      pop\n      pop\n      jump\t// out\n        /* \"#utility.yul\":7289:7431   */\n    tag_235:\n        /* \"#utility.yul\":7366:7370   */\n      0x00\n        /* \"#utility.yul\":7389:7392   */\n      dup2\n        /* \"#utility.yul\":7381:7392   */\n      swap1\n      pop\n        /* \"#utility.yul\":7419:7423   */\n      0x20\n        /* \"#utility.yul\":7414:7417   */\n      dup3\n        /* \"#utility.yul\":7410:7424   */\n      add\n        /* \"#utility.yul\":7402:7424   */\n      swap1\n      pop\n        /* \"#utility.yul\":7289:7431   */\n      swap2\n      swap1\n      pop\n      jump\t// out\n        /* \"#utility.yul\":7437:7536   */\n    tag_236:\n        /* \"#utility.yul\":7489:7495   */\n      0x00\n        /* \"#utility.yul\":7523:7528   */\n      dup2\n        /* \"#utility.yul\":7517:7529   */\n      mload\n        /* \"#utility.yul\":7507:7529   */\n      swap1\n      pop\n        /* \"#utility.yul\":7437:7536   */\n      swap2\n      swap1\n      pop\n      jump\t// out\n        /* \"#utility.yul\":7542:7701   */\n    tag_237:\n        /* \"#utility.yul\":7616:7627   */\n      0x00\n        /* \"#utility.yul\":7650:7656   */\n      dup3\n        /* \"#utility.yul\":7645:7648   */\n      dup3\n        /* \"#utility.yul\":7638:7657   */\n      mstore\n        /* \"#utility.yul\":7690:7694   */\n      0x20\n        /* \"#utility.yul\":7685:7688   */\n      dup3\n        /* \"#utility.yul\":7681:7695   */\n      add\n        /* \"#utility.yul\":7666:7695   */\n      swap1\n      pop\n        /* \"#utility.yul\":7542:7701   */\n      swap3\n      swap2\n      pop\n      pop\n      jump\t// out\n        /* \"#utility.yul\":7707:7953   */\n    tag_238:\n        /* \"#utility.yul\":7788:7789   */\n      0x00\n        /* \"#utility.yul\":7798:7911   */\n    tag_369:\n        /* \"#utility.yul\":7812:7818   */\n      dup4\n        /* \"#utility.yul\":7809:7810   */\n      dup2\n        /* \"#utility.yul\":7806:7819   */\n      lt\n        /* \"#utility.yul\":7798:7911   */\n      iszero\n      tag_371\n      jumpi\n        /* \"#utility.yul\":7897:7898   */\n      dup1\n        /* \"#utility.yul\":7892:7895   */\n      dup3\n        /* \"#utility.yul\":7888:7899   */\n      add\n        /* \"#utility.yul\":7882:7900   */\n      mload\n        /* \"#utility.yul\":7878:7879   */\n      dup2\n        /* \"#utility.yul\":7873:7876   */\n      dup5\n        /* \"#utility.yul\":7869:7880   */\n      add\n        /* \"#utility.yul\":7862:7901   */\n      mstore\n        /* \"#utility.yul\":7834:7836   */\n      0x20\n        /* \"#utility.yul\":7831:7832   */\n      dup2\n        /* \"#utility.yul\":7827:7837   */\n      add\n        /* \"#utility.yul\":7822:7837   */\n      swap1\n      pop\n        /* \"#utility.yul\":7798:7911   */\n      jump(tag_369)\n    tag_371:\n        /* \"#utility.yul\":7945:7946   */\n      0x00\n        /* \"#utility.yul\":7936:7942   */\n      dup5\n        /* \"#utility.yul\":7931:7934   */\n      dup5\n        /* \"#utility.yul\":7927:7943   */\n      add\n        /* \"#utility.yul\":7920:7947   */\n      mstore\n        /* \"#utility.yul\":7769:7953   */\n      pop\n        /* \"#utility.yul\":7707:7953   */\n      pop\n      pop\n      pop\n      jump\t// out\n        /* \"#utility.yul\":7959:8316   */\n    tag_239:\n        /* \"#utility.yul\":8037:8040   */\n      0x00\n        /* \"#utility.yul\":8065:8104   */\n      tag_373\n        /* \"#utility.yul\":8098:8103   */\n      dup3\n        /* \"#utility.yul\":8065:8104   */\n      tag_236\n      jump\t// in\n    tag_373:\n        /* \"#utility.yul\":8120:8181   */\n      tag_374\n        /* \"#utility.yul\":8174:8180   */\n      dup2\n        /* \"#utility.yul\":8169:8172   */\n      dup6\n        /* \"#utility.yul\":8120:8181   */\n      tag_237\n      jump\t// in\n    tag_374:\n        /* \"#utility.yul\":8113:8181   */\n      swap4\n      pop\n        /* \"#utility.yul\":8190:8255   */\n      tag_375\n        /* \"#utility.yul\":8248:8254   */\n      dup2\n        /* \"#utility.yul\":8243:8246   */\n      dup6\n        /* \"#utility.yul\":8236:8240   */\n      0x20\n        /* \"#utility.yul\":8229:8234   */\n      dup7\n        /* \"#utility.yul\":8225:8241   */\n      add\n        /* \"#utility.yul\":8190:8255   */\n      tag_238\n      jump\t// in\n    tag_375:\n        /* \"#utility.yul\":8280:8309   */\n      tag_376\n        /* \"#utility.yul\":8302:8308   */\n      dup2\n        /* \"#utility.yul\":8280:8309   */\n      tag_211\n      jump\t// in\n    tag_376:\n        /* \"#utility.yul\":8275:8278   */\n      dup5\n        /* \"#utility.yul\":8271:8310   */\n      add\n        /* \"#utility.yul\":8264:8310   */\n      swap2\n      pop\n        /* \"#utility.yul\":8041:8316   */\n      pop\n        /* \"#utility.yul\":7959:8316   */\n      swap3\n      swap2\n      pop\n      pop\n      jump\t// out\n        /* \"#utility.yul\":8322:8518   */\n    tag_240:\n        /* \"#utility.yul\":8411:8421   */\n      0x00\n        /* \"#utility.yul\":8446:8512   */\n      tag_378\n        /* \"#utility.yul\":8508:8511   */\n      dup4\n        /* \"#utility.yul\":8500:8506   */\n      dup4\n        /* \"#utility.yul\":8446:8512   */\n      tag_239\n      jump\t// in\n    tag_378:\n        /* \"#utility.yul\":8432:8512   */\n      swap1\n      pop\n        /* \"#utility.yul\":8322:8518   */\n      swap3\n      swap2\n      pop\n      pop\n      jump\t// out\n        /* \"#utility.yul\":8524:8647   */\n    tag_241:\n        /* \"#utility.yul\":8604:8608   */\n      0x00\n        /* \"#utility.yul\":8636:8640   */\n      0x20\n        /* \"#utility.yul\":8631:8634   */\n      dup3\n        /* \"#utility.yul\":8627:8641   */\n      add\n        /* \"#utility.yul\":8619:8641   */\n      swap1\n      pop\n        /* \"#utility.yul\":8524:8647   */\n      swap2\n      swap1\n      pop\n      jump\t// out\n        /* \"#utility.yul\":8681:9672   */\n    tag_242:\n        /* \"#utility.yul\":8820:8823   */\n      0x00\n        /* \"#utility.yul\":8849:8913   */\n      tag_381\n        /* \"#utility.yul\":8907:8912   */\n      dup3\n        /* \"#utility.yul\":8849:8913   */\n      tag_233\n      jump\t// in\n    tag_381:\n        /* \"#utility.yul\":8929:9025   */\n      tag_382\n        /* \"#utility.yul\":9018:9024   */\n      dup2\n        /* \"#utility.yul\":9013:9016   */\n      dup6\n        /* \"#utility.yul\":8929:9025   */\n      tag_234\n      jump\t// in\n    tag_382:\n        /* \"#utility.yul\":8922:9025   */\n      swap4\n      pop\n        /* \"#utility.yul\":9051:9054   */\n      dup4\n        /* \"#utility.yul\":9096:9100   */\n      0x20\n        /* \"#utility.yul\":9088:9094   */\n      dup3\n        /* \"#utility.yul\":9084:9101   */\n      mul\n        /* \"#utility.yul\":9079:9082   */\n      dup6\n        /* \"#utility.yul\":9075:9102   */\n      add\n        /* \"#utility.yul\":9126:9192   */\n      tag_383\n        /* \"#utility.yul\":9186:9191   */\n      dup6\n        /* \"#utility.yul\":9126:9192   */\n      tag_235\n      jump\t// in\n    tag_383:\n        /* \"#utility.yul\":9215:9222   */\n      dup1\n        /* \"#utility.yul\":9246:9247   */\n      0x00\n        /* \"#utility.yul\":9231:9627   */\n    tag_384:\n        /* \"#utility.yul\":9256:9262   */\n      dup6\n        /* \"#utility.yul\":9253:9254   */\n      dup2\n        /* \"#utility.yul\":9250:9263   */\n      lt\n        /* \"#utility.yul\":9231:9627   */\n      iszero\n      tag_386\n      jumpi\n        /* \"#utility.yul\":9327:9336   */\n      dup5\n        /* \"#utility.yul\":9321:9325   */\n      dup5\n        /* \"#utility.yul\":9317:9337   */\n      sub\n        /* \"#utility.yul\":9312:9315   */\n      dup10\n        /* \"#utility.yul\":9305:9338   */\n      mstore\n        /* \"#utility.yul\":9378:9384   */\n      dup2\n        /* \"#utility.yul\":9372:9385   */\n      mload\n        /* \"#utility.yul\":9406:9490   */\n      tag_387\n        /* \"#utility.yul\":9485:9489   */\n      dup6\n        /* \"#utility.yul\":9470:9483   */\n      dup3\n        /* \"#utility.yul\":9406:9490   */\n      tag_240\n      jump\t// in\n    tag_387:\n        /* \"#utility.yul\":9398:9490   */\n      swap5\n      pop\n        /* \"#utility.yul\":9513:9583   */\n      tag_388\n        /* \"#utility.yul\":9576:9582   */\n      dup4\n        /* \"#utility.yul\":9513:9583   */\n      tag_241\n      jump\t// in\n    tag_388:\n        /* \"#utility.yul\":9503:9583   */\n      swap3\n      pop\n        /* \"#utility.yul\":9612:9616   */\n      0x20\n        /* \"#utility.yul\":9607:9610   */\n      dup11\n        /* \"#utility.yul\":9603:9617   */\n      add\n        /* \"#utility.yul\":9596:9617   */\n      swap10\n      pop\n        /* \"#utility.yul\":9291:9627   */\n      pop\n        /* \"#utility.yul\":9278:9279   */\n      0x01\n        /* \"#utility.yul\":9275:9276   */\n      dup2\n        /* \"#utility.yul\":9271:9280   */\n      add\n        /* \"#utility.yul\":9266:9280   */\n      swap1\n      pop\n        /* \"#utility.yul\":9231:9627   */\n      jump(tag_384)\n    tag_386:\n        /* \"#utility.yul\":9235:9249   */\n      pop\n        /* \"#utility.yul\":9643:9647   */\n      dup3\n        /* \"#utility.yul\":9636:9647   */\n      swap8\n      pop\n        /* \"#utility.yul\":9663:9666   */\n      dup8\n        /* \"#utility.yul\":9656:9666   */\n      swap6\n      pop\n        /* \"#utility.yul\":8825:9672   */\n      pop\n      pop\n      pop\n      pop\n      pop\n        /* \"#utility.yul\":8681:9672   */\n      swap3\n      swap2\n      pop\n      pop\n      jump\t// out\n        /* \"#utility.yul\":9678:10091   */\n    tag_39:\n        /* \"#utility.yul\":9841:9845   */\n      0x00\n        /* \"#utility.yul\":9879:9881   */\n      0x20\n        /* \"#utility.yul\":9868:9877   */\n      dup3\n        /* \"#utility.yul\":9864:9882   */\n      add\n        /* \"#utility.yul\":9856:9882   */\n      swap1\n      pop\n        /* \"#utility.yul\":9928:9937   */\n      dup2\n        /* \"#utility.yul\":9922:9926   */\n      dup2\n        /* \"#utility.yul\":9918:9938   */\n      sub\n        /* \"#utility.yul\":9914:9915   */\n      0x00\n        /* \"#utility.yul\":9903:9912   */\n      dup4\n        /* \"#utility.yul\":9899:9916   */\n      add\n        /* \"#utility.yul\":9892:9939   */\n      mstore\n        /* \"#utility.yul\":9956:10084   */\n      tag_390\n        /* \"#utility.yul\":10079:10083   */\n      dup2\n        /* \"#utility.yul\":10070:10076   */\n      dup5\n        /* \"#utility.yul\":9956:10084   */\n      tag_242\n      jump\t// in\n    tag_390:\n        /* \"#utility.yul\":9948:10084   */\n      swap1\n      pop\n        /* \"#utility.yul\":9678:10091   */\n      swap3\n      swap2\n      pop\n      pop\n      jump\t// out\n        /* \"#utility.yul\":10097:10426   */\n    tag_42:\n        /* \"#utility.yul\":10156:10162   */\n      0x00\n        /* \"#utility.yul\":10205:10207   */\n      0x20\n        /* \"#utility.yul\":10193:10202   */\n      dup3\n        /* \"#utility.yul\":10184:10191   */\n      dup5\n        /* \"#utility.yul\":10180:10203   */\n      sub\n        /* \"#utility.yul\":10176:10208   */\n      slt\n        /* \"#utility.yul\":10173:10292   */\n      iszero\n      tag_392\n      jumpi\n        /* \"#utility.yul\":10211:10290   */\n      tag_393\n      tag_207\n      jump\t// in\n    tag_393:\n        /* \"#utility.yul\":10173:10292   */\n    tag_392:\n        /* \"#utility.yul\":10331:10332   */\n      0x00\n        /* \"#utility.yul\":10356:10409   */\n      tag_394\n        /* \"#utility.yul\":10401:10408   */\n      dup5\n        /* \"#utility.yul\":10392:10398   */\n      dup3\n        /* \"#utility.yul\":10381:10390   */\n      dup6\n        /* \"#utility.yul\":10377:10399   */\n      add\n        /* \"#utility.yul\":10356:10409   */\n      tag_232\n      jump\t// in\n    tag_394:\n        /* \"#utility.yul\":10346:10409   */\n      swap2\n      pop\n        /* \"#utility.yul\":10302:10419   */\n      pop\n        /* \"#utility.yul\":10097:10426   */\n      swap3\n      swap2\n      pop\n      pop\n      jump\t// out\n        /* \"#utility.yul\":10432:10601   */\n    tag_243:\n        /* \"#utility.yul\":10516:10527   */\n      0x00\n        /* \"#utility.yul\":10550:10556   */\n      dup3\n        /* \"#utility.yul\":10545:10548   */\n      dup3\n        /* \"#utility.yul\":10538:10557   */\n      mstore\n        /* \"#utility.yul\":10590:10594   */\n      0x20\n        /* \"#utility.yul\":10585:10588   */\n      dup3\n        /* \"#utility.yul\":10581:10595   */\n      add\n        /* \"#utility.yul\":10566:10595   */\n      swap1\n      pop\n        /* \"#utility.yul\":10432:10601   */\n      swap3\n      swap2\n      pop\n      pop\n      jump\t// out\n        /* \"#utility.yul\":10607:10984   */\n    tag_244:\n        /* \"#utility.yul\":10695:10698   */\n      0x00\n        /* \"#utility.yul\":10723:10762   */\n      tag_397\n        /* \"#utility.yul\":10756:10761   */\n      dup3\n        /* \"#utility.yul\":10723:10762   */\n      tag_236\n      jump\t// in\n    tag_397:\n        /* \"#utility.yul\":10778:10849   */\n      tag_398\n        /* \"#utility.yul\":10842:10848   */\n      dup2\n        /* \"#utility.yul\":10837:10840   */\n      dup6\n        /* \"#utility.yul\":10778:10849   */\n      tag_243\n      jump\t// in\n    tag_398:\n        /* \"#utility.yul\":10771:10849   */\n      swap4\n      pop\n        /* \"#utility.yul\":10858:10923   */\n      tag_399\n        /* \"#utility.yul\":10916:10922   */\n      dup2\n        /* \"#utility.yul\":10911:10914   */\n      dup6\n        /* \"#utility.yul\":10904:10908   */\n      0x20\n        /* \"#utility.yul\":10897:10902   */\n      dup7\n        /* \"#utility.yul\":10893:10909   */\n      add\n        /* \"#utility.yul\":10858:10923   */\n      tag_238\n      jump\t// in\n    tag_399:\n        /* \"#utility.yul\":10948:10977   */\n      tag_400\n        /* \"#utility.yul\":10970:10976   */\n      dup2\n        /* \"#utility.yul\":10948:10977   */\n      tag_211\n      jump\t// in\n    tag_400:\n        /* \"#utility.yul\":10943:10946   */\n      dup5\n        /* \"#utility.yul\":10939:10978   */\n      add\n        /* \"#utility.yul\":10932:10978   */\n      swap2\n      pop\n        /* \"#utility.yul\":10699:10984   */\n      pop\n        /* \"#utility.yul\":10607:10984   */\n      swap3\n      swap2\n      pop\n      pop\n      jump\t// out\n        /* \"#utility.yul\":10990:11303   */\n    tag_45:\n        /* \"#utility.yul\":11103:11107   */\n      0x00\n        /* \"#utility.yul\":11141:11143   */\n      0x20\n        /* \"#utility.yul\":11130:11139   */\n      dup3\n        /* \"#utility.yul\":11126:11144   */\n      add\n        /* \"#utility.yul\":11118:11144   */\n      swap1\n      pop\n        /* \"#utility.yul\":11190:11199   */\n      dup2\n        /* \"#utility.yul\":11184:11188   */\n      dup2\n        /* \"#utility.yul\":11180:11200   */\n      sub\n        /* \"#utility.yul\":11176:11177   */\n      0x00\n        /* \"#utility.yul\":11165:11174   */\n      dup4\n        /* \"#utility.yul\":11161:11178   */\n      add\n        /* \"#utility.yul\":11154:11201   */\n      mstore\n        /* \"#utility.yul\":11218:11296   */\n      tag_402\n        /* \"#utility.yul\":11291:11295   */\n      dup2\n        /* \"#utility.yul\":11282:11288   */\n      dup5\n        /* \"#utility.yul\":11218:11296   */\n      tag_244\n      jump\t// in\n    tag_402:\n        /* \"#utility.yul\":11210:11296   */\n      swap1\n      pop\n        /* \"#utility.yul\":10990:11303   */\n      swap3\n      swap2\n      pop\n      pop\n      jump\t// out\n        /* \"#utility.yul\":11309:11732   */\n    tag_50:\n        /* \"#utility.yul\":11450:11454   */\n      0x00\n        /* \"#utility.yul\":11488:11490   */\n      0x40\n        /* \"#utility.yul\":11477:11486   */\n      dup3\n        /* \"#utility.yul\":11473:11491   */\n      add\n        /* \"#utility.yul\":11465:11491   */\n      swap1\n      pop\n        /* \"#utility.yul\":11537:11546   */\n      dup2\n        /* \"#utility.yul\":11531:11535   */\n      dup2\n        /* \"#utility.yul\":11527:11547   */\n      sub\n        /* \"#utility.yul\":11523:11524   */\n      0x00\n        /* \"#utility.yul\":11512:11521   */\n      dup4\n        /* \"#utility.yul\":11508:11525   */\n      add\n        /* \"#utility.yul\":11501:11548   */\n      mstore\n        /* \"#utility.yul\":11565:11643   */\n      tag_404\n        /* \"#utility.yul\":11638:11642   */\n      dup2\n        /* \"#utility.yul\":11629:11635   */\n      dup6\n        /* \"#utility.yul\":11565:11643   */\n      tag_244\n      jump\t// in\n    tag_404:\n        /* \"#utility.yul\":11557:11643   */\n      swap1\n      pop\n        /* \"#utility.yul\":11653:11725   */\n      tag_405\n        /* \"#utility.yul\":11721:11723   */\n      0x20\n        /* \"#utility.yul\":11710:11719   */\n      dup4\n        /* \"#utility.yul\":11706:11724   */\n      add\n        /* \"#utility.yul\":11697:11703   */\n      dup5\n        /* \"#utility.yul\":11653:11725   */\n      tag_222\n      jump\t// in\n    tag_405:\n        /* \"#utility.yul\":11309:11732   */\n      swap4\n      swap3\n      pop\n      pop\n      pop\n      jump\t// out\n        /* \"#utility.yul\":11738:11860   */\n    tag_245:\n        /* \"#utility.yul\":11811:11835   */\n      tag_407\n        /* \"#utility.yul\":11829:11834   */\n      dup2\n        /* \"#utility.yul\":11811:11835   */\n      tag_221\n      jump\t// in\n    tag_407:\n        /* \"#utility.yul\":11804:11809   */\n      dup2\n        /* \"#utility.yul\":11801:11836   */\n      eq\n        /* \"#utility.yul\":11791:11854   */\n      tag_408\n      jumpi\n        /* \"#utility.yul\":11850:11851   */\n      0x00\n        /* \"#utility.yul\":11847:11848   */\n      dup1\n        /* \"#utility.yul\":11840:11852   */\n      revert\n        /* \"#utility.yul\":11791:11854   */\n    tag_408:\n        /* \"#utility.yul\":11738:11860   */\n      pop\n      jump\t// out\n        /* \"#utility.yul\":11866:12005   */\n    tag_246:\n        /* \"#utility.yul\":11912:11917   */\n      0x00\n        /* \"#utility.yul\":11950:11956   */\n      dup2\n        /* \"#utility.yul\":11937:11957   */\n      calldataload\n        /* \"#utility.yul\":11928:11957   */\n      swap1\n      pop\n        /* \"#utility.yul\":11966:11999   */\n      tag_410\n        /* \"#utility.yul\":11993:11998   */\n      dup2\n        /* \"#utility.yul\":11966:11999   */\n      tag_245\n      jump\t// in\n    tag_410:\n        /* \"#utility.yul\":11866:12005   */\n      swap3\n      swap2\n      pop\n      pop\n      jump\t// out\n        /* \"#utility.yul\":12011:12665   */\n    tag_53:\n        /* \"#utility.yul\":12089:12095   */\n      0x00\n        /* \"#utility.yul\":12097:12103   */\n      dup1\n        /* \"#utility.yul\":12146:12148   */\n      0x40\n        /* \"#utility.yul\":12134:12143   */\n      dup4\n        /* \"#utility.yul\":12125:12132   */\n      dup6\n        /* \"#utility.yul\":12121:12144   */\n      sub\n        /* \"#utility.yul\":12117:12149   */\n      slt\n        /* \"#utility.yul\":12114:12233   */\n      iszero\n      tag_412\n      jumpi\n        /* \"#utility.yul\":12152:12231   */\n      tag_413\n      tag_207\n      jump\t// in\n    tag_413:\n        /* \"#utility.yul\":12114:12233   */\n    tag_412:\n        /* \"#utility.yul\":12300:12301   */\n      0x00\n        /* \"#utility.yul\":12289:12298   */\n      dup4\n        /* \"#utility.yul\":12285:12302   */\n      add\n        /* \"#utility.yul\":12272:12303   */\n      calldataload\n        /* \"#utility.yul\":12330:12348   */\n      0xffffffffffffffff\n        /* \"#utility.yul\":12322:12328   */\n      dup2\n        /* \"#utility.yul\":12319:12349   */\n      gt\n        /* \"#utility.yul\":12316:12433   */\n      iszero\n      tag_414\n      jumpi\n        /* \"#utility.yul\":12352:12431   */\n      tag_415\n      tag_208\n      jump\t// in\n    tag_415:\n        /* \"#utility.yul\":12316:12433   */\n    tag_414:\n        /* \"#utility.yul\":12457:12520   */\n      tag_416\n        /* \"#utility.yul\":12512:12519   */\n      dup6\n        /* \"#utility.yul\":12503:12509   */\n      dup3\n        /* \"#utility.yul\":12492:12501   */\n      dup7\n        /* \"#utility.yul\":12488:12510   */\n      add\n        /* \"#utility.yul\":12457:12520   */\n      tag_218\n      jump\t// in\n    tag_416:\n        /* \"#utility.yul\":12447:12520   */\n      swap3\n      pop\n        /* \"#utility.yul\":12243:12530   */\n      pop\n        /* \"#utility.yul\":12569:12571   */\n      0x20\n        /* \"#utility.yul\":12595:12648   */\n      tag_417\n        /* \"#utility.yul\":12640:12647   */\n      dup6\n        /* \"#utility.yul\":12631:12637   */\n      dup3\n        /* \"#utility.yul\":12620:12629   */\n      dup7\n        /* \"#utility.yul\":12616:12638   */\n      add\n        /* \"#utility.yul\":12595:12648   */\n      tag_246\n      jump\t// in\n    tag_417:\n        /* \"#utility.yul\":12585:12648   */\n      swap2\n      pop\n        /* \"#utility.yul\":12540:12658   */\n      pop\n        /* \"#utility.yul\":12011:12665   */\n      swap3\n      pop\n      swap3\n      swap1\n      pop\n      jump\t// out\n        /* \"#utility.yul\":12671:12851   */\n    tag_64:\n        /* \"#utility.yul\":12719:12796   */\n      0x4e487b7100000000000000000000000000000000000000000000000000000000\n        /* \"#utility.yul\":12716:12717   */\n      0x00\n        /* \"#utility.yul\":12709:12797   */\n      mstore\n        /* \"#utility.yul\":12816:12820   */\n      0x32\n        /* \"#utility.yul\":12813:12814   */\n      0x04\n        /* \"#utility.yul\":12806:12821   */\n      mstore\n        /* \"#utility.yul\":12840:12844   */\n      0x24\n        /* \"#utility.yul\":12837:12838   */\n      0x00\n        /* \"#utility.yul\":12830:12845   */\n      revert\n        /* \"#utility.yul\":12857:13037   */\n    tag_247:\n        /* \"#utility.yul\":12905:12982   */\n      0x4e487b7100000000000000000000000000000000000000000000000000000000\n        /* \"#utility.yul\":12902:12903   */\n      0x00\n        /* \"#utility.yul\":12895:12983   */\n      mstore\n        /* \"#utility.yul\":13002:13006   */\n      0x22\n        /* \"#utility.yul\":12999:13000   */\n      0x04\n        /* \"#utility.yul\":12992:13007   */\n      mstore\n        /* \"#utility.yul\":13026:13030   */\n      0x24\n        /* \"#utility.yul\":13023:13024   */\n      0x00\n        /* \"#utility.yul\":13016:13031   */\n      revert\n        /* \"#utility.yul\":13043:13363   */\n    tag_106:\n        /* \"#utility.yul\":13087:13093   */\n      0x00\n        /* \"#utility.yul\":13124:13125   */\n      0x02\n        /* \"#utility.yul\":13118:13122   */\n      dup3\n        /* \"#utility.yul\":13114:13126   */\n      div\n        /* \"#utility.yul\":13104:13126   */\n      swap1\n      pop\n        /* \"#utility.yul\":13171:13172   */\n      0x01\n        /* \"#utility.yul\":13165:13169   */\n      dup3\n        /* \"#utility.yul\":13161:13173   */\n      and\n        /* \"#utility.yul\":13192:13210   */\n      dup1\n        /* \"#utility.yul\":13182:13263   */\n      tag_421\n      jumpi\n        /* \"#utility.yul\":13248:13252   */\n      0x7f\n        /* \"#utility.yul\":13240:13246   */\n      dup3\n        /* \"#utility.yul\":13236:13253   */\n      and\n        /* \"#utility.yul\":13226:13253   */\n      swap2\n      pop\n        /* \"#utility.yul\":13182:13263   */\n    tag_421:\n        /* \"#utility.yul\":13310:13312   */\n      0x20\n        /* \"#utility.yul\":13302:13308   */\n      dup3\n        /* \"#utility.yul\":13299:13313   */\n      lt\n        /* \"#utility.yul\":13279:13297   */\n      dup2\n        /* \"#utility.yul\":13276:13314   */\n      sub\n        /* \"#utility.yul\":13273:13357   */\n      tag_422\n      jumpi\n        /* \"#utility.yul\":13329:13347   */\n      tag_423\n      tag_247\n      jump\t// in\n    tag_423:\n        /* \"#utility.yul\":13273:13357   */\n    tag_422:\n        /* \"#utility.yul\":13094:13363   */\n      pop\n        /* \"#utility.yul\":13043:13363   */\n      swap2\n      swap1\n      pop\n      jump\t// out\n        /* \"#utility.yul\":13369:13516   */\n    tag_248:\n        /* \"#utility.yul\":13470:13481   */\n      0x00\n        /* \"#utility.yul\":13507:13510   */\n      dup2\n        /* \"#utility.yul\":13492:13510   */\n      swap1\n      pop\n        /* \"#utility.yul\":13369:13516   */\n      swap3\n      swap2\n      pop\n      pop\n      jump\t// out\n        /* \"#utility.yul\":13522:13666   */\n    tag_249:\n        /* \"#utility.yul\":13574:13578   */\n      0x00\n        /* \"#utility.yul\":13597:13600   */\n      dup2\n        /* \"#utility.yul\":13589:13600   */\n      swap1\n      pop\n        /* \"#utility.yul\":13620:13623   */\n      dup2\n        /* \"#utility.yul\":13617:13618   */\n      0x00\n        /* \"#utility.yul\":13610:13624   */\n      mstore\n        /* \"#utility.yul\":13654:13658   */\n      0x20\n        /* \"#utility.yul\":13651:13652   */\n      0x00\n        /* \"#utility.yul\":13641:13659   */\n      keccak256\n        /* \"#utility.yul\":13633:13659   */\n      swap1\n      pop\n        /* \"#utility.yul\":13522:13666   */\n      swap2\n      swap1\n      pop\n      jump\t// out\n        /* \"#utility.yul\":13694:14572   */\n    tag_250:\n        /* \"#utility.yul\":13799:13802   */\n      0x00\n        /* \"#utility.yul\":13836:13841   */\n      dup2\n        /* \"#utility.yul\":13830:13842   */\n      sload\n        /* \"#utility.yul\":13865:13901   */\n      tag_427\n        /* \"#utility.yul\":13891:13900   */\n      dup2\n        /* \"#utility.yul\":13865:13901   */\n      tag_106\n      jump\t// in\n    tag_427:\n        /* \"#utility.yul\":13917:14005   */\n      tag_428\n        /* \"#utility.yul\":13998:14004   */\n      dup2\n        /* \"#utility.yul\":13993:13996   */\n      dup7\n        /* \"#utility.yul\":13917:14005   */\n      tag_248\n      jump\t// in\n    tag_428:\n        /* \"#utility.yul\":13910:14005   */\n      swap5\n      pop\n        /* \"#utility.yul\":14036:14037   */\n      0x01\n        /* \"#utility.yul\":14025:14034   */\n      dup3\n        /* \"#utility.yul\":14021:14038   */\n      and\n        /* \"#utility.yul\":14052:14053   */\n      0x00\n        /* \"#utility.yul\":14047:14213   */\n      dup2\n      eq\n      tag_430\n      jumpi\n        /* \"#utility.yul\":14227:14228   */\n      0x01\n        /* \"#utility.yul\":14222:14566   */\n      dup2\n      eq\n      tag_431\n      jumpi\n        /* \"#utility.yul\":14014:14566   */\n      jump(tag_429)\n        /* \"#utility.yul\":14047:14213   */\n    tag_430:\n        /* \"#utility.yul\":14131:14135   */\n      0xff\n        /* \"#utility.yul\":14127:14136   */\n      not\n        /* \"#utility.yul\":14116:14125   */\n      dup4\n        /* \"#utility.yul\":14112:14137   */\n      and\n        /* \"#utility.yul\":14107:14110   */\n      dup7\n        /* \"#utility.yul\":14100:14138   */\n      mstore\n        /* \"#utility.yul\":14193:14199   */\n      dup2\n        /* \"#utility.yul\":14186:14200   */\n      iszero\n        /* \"#utility.yul\":14179:14201   */\n      iszero\n        /* \"#utility.yul\":14171:14177   */\n      dup3\n        /* \"#utility.yul\":14167:14202   */\n      mul\n        /* \"#utility.yul\":14162:14165   */\n      dup7\n        /* \"#utility.yul\":14158:14203   */\n      add\n        /* \"#utility.yul\":14151:14203   */\n      swap4\n      pop\n        /* \"#utility.yul\":14047:14213   */\n      jump(tag_429)\n        /* \"#utility.yul\":14222:14566   */\n    tag_431:\n        /* \"#utility.yul\":14289:14330   */\n      tag_432\n        /* \"#utility.yul\":14324:14329   */\n      dup6\n        /* \"#utility.yul\":14289:14330   */\n      tag_249\n      jump\t// in\n    tag_432:\n        /* \"#utility.yul\":14352:14353   */\n      0x00\n        /* \"#utility.yul\":14366:14520   */\n    tag_433:\n        /* \"#utility.yul\":14380:14386   */\n      dup4\n        /* \"#utility.yul\":14377:14378   */\n      dup2\n        /* \"#utility.yul\":14374:14387   */\n      lt\n        /* \"#utility.yul\":14366:14520   */\n      iszero\n      tag_435\n      jumpi\n        /* \"#utility.yul\":14454:14461   */\n      dup2\n        /* \"#utility.yul\":14448:14462   */\n      sload\n        /* \"#utility.yul\":14444:14445   */\n      dup2\n        /* \"#utility.yul\":14439:14442   */\n      dup10\n        /* \"#utility.yul\":14435:14446   */\n      add\n        /* \"#utility.yul\":14428:14463   */\n      mstore\n        /* \"#utility.yul\":14504:14505   */\n      0x01\n        /* \"#utility.yul\":14495:14502   */\n      dup3\n        /* \"#utility.yul\":14491:14506   */\n      add\n        /* \"#utility.yul\":14480:14506   */\n      swap2\n      pop\n        /* \"#utility.yul\":14402:14406   */\n      0x20\n        /* \"#utility.yul\":14399:14400   */\n      dup2\n        /* \"#utility.yul\":14395:14407   */\n      add\n        /* \"#utility.yul\":14390:14407   */\n      swap1\n      pop\n        /* \"#utility.yul\":14366:14520   */\n      jump(tag_433)\n    tag_435:\n        /* \"#utility.yul\":14549:14555   */\n      dup4\n        /* \"#utility.yul\":14544:14547   */\n      dup9\n        /* \"#utility.yul\":14540:14556   */\n      add\n        /* \"#utility.yul\":14533:14556   */\n      swap6\n      pop\n        /* \"#utility.yul\":14229:14566   */\n      pop\n      pop\n        /* \"#utility.yul\":14014:14566   */\n    tag_429:\n      pop\n        /* \"#utility.yul\":13803:14572   */\n      pop\n      pop\n        /* \"#utility.yul\":13694:14572   */\n      swap3\n      swap2\n      pop\n      pop\n      jump\t// out\n        /* \"#utility.yul\":14578:14851   */\n    tag_67:\n        /* \"#utility.yul\":14709:14712   */\n      0x00\n        /* \"#utility.yul\":14731:14825   */\n      tag_437\n        /* \"#utility.yul\":14821:14824   */\n      dup3\n        /* \"#utility.yul\":14812:14818   */\n      dup5\n        /* \"#utility.yul\":14731:14825   */\n      tag_250\n      jump\t// in\n    tag_437:\n        /* \"#utility.yul\":14724:14825   */\n      swap2\n      pop\n        /* \"#utility.yul\":14842:14845   */\n      dup2\n        /* \"#utility.yul\":14835:14845   */\n      swap1\n      pop\n        /* \"#utility.yul\":14578:14851   */\n      swap3\n      swap2\n      pop\n      pop\n      jump\t// out\n        /* \"#utility.yul\":14857:15037   */\n    tag_251:\n        /* \"#utility.yul\":14905:14982   */\n      0x4e487b7100000000000000000000000000000000000000000000000000000000\n        /* \"#utility.yul\":14902:14903   */\n      0x00\n        /* \"#utility.yul\":14895:14983   */\n      mstore\n        /* \"#utility.yul\":15002:15006   */\n      0x11\n        /* \"#utility.yul\":14999:15000   */\n      0x04\n        /* \"#utility.yul\":14992:15007   */\n      mstore\n        /* \"#utility.yul\":15026:15030   */\n      0x24\n        /* \"#utility.yul\":15023:15024   */\n      0x00\n        /* \"#utility.yul\":15016:15031   */\n      revert\n        /* \"#utility.yul\":15043:15276   */\n    tag_70:\n        /* \"#utility.yul\":15082:15085   */\n      0x00\n        /* \"#utility.yul\":15105:15129   */\n      tag_440\n        /* \"#utility.yul\":15123:15128   */\n      dup3\n        /* \"#utility.yul\":15105:15129   */\n      tag_221\n      jump\t// in\n    tag_440:\n        /* \"#utility.yul\":15096:15129   */\n      swap2\n      pop\n        /* \"#utility.yul\":15151:15217   */\n      0xffffffffffffffffffffffffffffffffffffffffffffffffffffffffffffffff\n        /* \"#utility.yul\":15144:15149   */\n      dup3\n        /* \"#utility.yul\":15141:15218   */\n      sub\n        /* \"#utility.yul\":15138:15241   */\n      tag_441\n      jumpi\n        /* \"#utility.yul\":15221:15239   */\n      tag_442\n      tag_251\n      jump\t// in\n    tag_442:\n        /* \"#utility.yul\":15138:15241   */\n    tag_441:\n        /* \"#utility.yul\":15268:15269   */\n      0x01\n        /* \"#utility.yul\":15261:15266   */\n      dup3\n        /* \"#utility.yul\":15257:15270   */\n      add\n        /* \"#utility.yul\":15250:15270   */\n      swap1\n      pop\n        /* \"#utility.yul\":15043:15276   */\n      swap2\n      swap1\n      pop\n      jump\t// out\n        /* \"#utility.yul\":15282:15449   */\n    tag_252:\n        /* \"#utility.yul\":15422:15441   */\n      0x496e76616c69642043616e646964617465000000000000000000000000000000\n        /* \"#utility.yul\":15418:15419   */\n      0x00\n        /* \"#utility.yul\":15410:15416   */\n      dup3\n        /* \"#utility.yul\":15406:15420   */\n      add\n        /* \"#utility.yul\":15399:15442   */\n      mstore\n        /* \"#utility.yul\":15282:15449   */\n      pop\n      jump\t// out\n        /* \"#utility.yul\":15455:15821   */\n    tag_253:\n        /* \"#utility.yul\":15597:15600   */\n      0x00\n        /* \"#utility.yul\":15618:15685   */\n      tag_445\n        /* \"#utility.yul\":15682:15684   */\n      0x11\n        /* \"#utility.yul\":15677:15680   */\n      dup4\n        /* \"#utility.yul\":15618:15685   */\n      tag_243\n      jump\t// in\n    tag_445:\n        /* \"#utility.yul\":15611:15685   */\n      swap2\n      pop\n        /* \"#utility.yul\":15694:15787   */\n      tag_446\n        /* \"#utility.yul\":15783:15786   */\n      dup3\n        /* \"#utility.yul\":15694:15787   */\n      tag_252\n      jump\t// in\n    tag_446:\n        /* \"#utility.yul\":15812:15814   */\n      0x20\n        /* \"#utility.yul\":15807:15810   */\n      dup3\n        /* \"#utility.yul\":15803:15815   */\n      add\n        /* \"#utility.yul\":15796:15815   */\n      swap1\n      pop\n        /* \"#utility.yul\":15455:15821   */\n      swap2\n      swap1\n      pop\n      jump\t// out\n        /* \"#utility.yul\":15827:16246   */\n    tag_75:\n        /* \"#utility.yul\":15993:15997   */\n      0x00\n        /* \"#utility.yul\":16031:16033   */\n      0x20\n        /* \"#utility.yul\":16020:16029   */\n      dup3\n        /* \"#utility.yul\":16016:16034   */\n      add\n        /* \"#utility.yul\":16008:16034   */\n      swap1\n      pop\n        /* \"#utility.yul\":16080:16089   */\n      dup2\n        /* \"#utility.yul\":16074:16078   */\n      dup2\n        /* \"#utility.yul\":16070:16090   */\n      sub\n        /* \"#utility.yul\":16066:16067   */\n      0x00\n        /* \"#utility.yul\":16055:16064   */\n      dup4\n        /* \"#utility.yul\":16051:16068   */\n      add\n        /* \"#utility.yul\":16044:16091   */\n      mstore\n        /* \"#utility.yul\":16108:16239   */\n      tag_448\n        /* \"#utility.yul\":16234:16238   */\n      dup2\n        /* \"#utility.yul\":16108:16239   */\n      tag_253\n      jump\t// in\n    tag_448:\n        /* \"#utility.yul\":16100:16239   */\n      swap1\n      pop\n        /* \"#utility.yul\":15827:16246   */\n      swap2\n      swap1\n      pop\n      jump\t// out\n        /* \"#utility.yul\":16252:16400   */\n    tag_254:\n        /* \"#utility.yul\":16354:16365   */\n      0x00\n        /* \"#utility.yul\":16391:16394   */\n      dup2\n        /* \"#utility.yul\":16376:16394   */\n      swap1\n      pop\n        /* \"#utility.yul\":16252:16400   */\n      swap3\n      swap2\n      pop\n      pop\n      jump\t// out\n        /* \"#utility.yul\":16406:16796   */\n    tag_255:\n        /* \"#utility.yul\":16512:16515   */\n      0x00\n        /* \"#utility.yul\":16540:16579   */\n      tag_451\n        /* \"#utility.yul\":16573:16578   */\n      dup3\n        /* \"#utility.yul\":16540:16579   */\n      tag_236\n      jump\t// in\n    tag_451:\n        /* \"#utility.yul\":16595:16684   */\n      tag_452\n        /* \"#utility.yul\":16677:16683   */\n      dup2\n        /* \"#utility.yul\":16672:16675   */\n      dup6\n        /* \"#utility.yul\":16595:16684   */\n      tag_254\n      jump\t// in\n    tag_452:\n        /* \"#utility.yul\":16588:16684   */\n      swap4\n      pop\n        /* \"#utility.yul\":16693:16758   */\n      tag_453\n        /* \"#utility.yul\":16751:16757   */\n      dup2\n        /* \"#utility.yul\":16746:16749   */\n      dup6\n        /* \"#utility.yul\":16739:16743   */\n      0x20\n        /* \"#utility.yul\":16732:16737   */\n      dup7\n        /* \"#utility.yul\":16728:16744   */\n      add\n        /* \"#utility.yul\":16693:16758   */\n      tag_238\n      jump\t// in\n    tag_453:\n        /* \"#utility.yul\":16783:16789   */\n      dup1\n        /* \"#utility.yul\":16778:16781   */\n      dup5\n        /* \"#utility.yul\":16774:16790   */\n      add\n        /* \"#utility.yul\":16767:16790   */\n      swap2\n      pop\n        /* \"#utility.yul\":16516:16796   */\n      pop\n        /* \"#utility.yul\":16406:16796   */\n      swap3\n      swap2\n      pop\n      pop\n      jump\t// out\n        /* \"#utility.yul\":16802:17077   */\n    tag_77:\n        /* \"#utility.yul\":16934:16937   */\n      0x00\n        /* \"#utility.yul\":16956:17051   */\n      tag_455\n        /* \"#utility.yul\":17047:17050   */\n      dup3\n        /* \"#utility.yul\":17038:17044   */\n      dup5\n        /* \"#utility.yul\":16956:17051   */\n      tag_255\n      jump\t// in\n    tag_455:\n        /* \"#utility.yul\":16949:17051   */\n      swap2\n      pop\n        /* \"#utility.yul\":17068:17071   */\n      dup2\n        /* \"#utility.yul\":17061:17071   */\n      swap1\n      pop\n        /* \"#utility.yul\":16802:17077   */\n      swap3\n      swap2\n      pop\n      pop\n      jump\t// out\n        /* \"#utility.yul\":17083:17250   */\n    tag_256:\n        /* \"#utility.yul\":17223:17242   */\n      0x596f7520617265206e6f7420566f746572000000000000000000000000000000\n        /* \"#utility.yul\":17219:17220   */\n      0x00\n        /* \"#utility.yul\":17211:17217   */\n      dup3\n        /* \"#utility.yul\":17207:17221   */\n      add\n        /* \"#utility.yul\":17200:17243   */\n      mstore\n        /* \"#utility.yul\":17083:17250   */\n      pop\n      jump\t// out\n        /* \"#utility.yul\":17256:17622   */\n    tag_257:\n        /* \"#utility.yul\":17398:17401   */\n      0x00\n        /* \"#utility.yul\":17419:17486   */\n      tag_458\n        /* \"#utility.yul\":17483:17485   */\n      0x11\n        /* \"#utility.yul\":17478:17481   */\n      dup4\n        /* \"#utility.yul\":17419:17486   */\n      tag_243\n      jump\t// in\n    tag_458:\n        /* \"#utility.yul\":17412:17486   */\n      swap2\n      pop\n        /* \"#utility.yul\":17495:17588   */\n      tag_459\n        /* \"#utility.yul\":17584:17587   */\n      dup3\n        /* \"#utility.yul\":17495:17588   */\n      tag_256\n      jump\t// in\n    tag_459:\n        /* \"#utility.yul\":17613:17615   */\n      0x20\n        /* \"#utility.yul\":17608:17611   */\n      dup3\n        /* \"#utility.yul\":17604:17616   */\n      add\n        /* \"#utility.yul\":17597:17616   */\n      swap1\n      pop\n        /* \"#utility.yul\":17256:17622   */\n      swap2\n      swap1\n      pop\n      jump\t// out\n        /* \"#utility.yul\":17628:18047   */\n    tag_84:\n        /* \"#utility.yul\":17794:17798   */\n      0x00\n        /* \"#utility.yul\":17832:17834   */\n      0x20\n        /* \"#utility.yul\":17821:17830   */\n      dup3\n        /* \"#utility.yul\":17817:17835   */\n      add\n        /* \"#utility.yul\":17809:17835   */\n      swap1\n      pop\n        /* \"#utility.yul\":17881:17890   */\n      dup2\n        /* \"#utility.yul\":17875:17879   */\n      dup2\n        /* \"#utility.yul\":17871:17891   */\n      sub\n        /* \"#utility.yul\":17867:17868   */\n      0x00\n        /* \"#utility.yul\":17856:17865   */\n      dup4\n        /* \"#utility.yul\":17852:17869   */\n      add\n        /* \"#utility.yul\":17845:17892   */\n      mstore\n        /* \"#utility.yul\":17909:18040   */\n      tag_461\n        /* \"#utility.yul\":18035:18039   */\n      dup2\n        /* \"#utility.yul\":17909:18040   */\n      tag_257\n      jump\t// in\n    tag_461:\n        /* \"#utility.yul\":17901:18040   */\n      swap1\n      pop\n        /* \"#utility.yul\":17628:18047   */\n      swap2\n      swap1\n      pop\n      jump\t// out\n        /* \"#utility.yul\":18053:18216   */\n    tag_258:\n        /* \"#utility.yul\":18193:18208   */\n      0x616c726561647920766f74656400000000000000000000000000000000000000\n        /* \"#utility.yul\":18189:18190   */\n      0x00\n        /* \"#utility.yul\":18181:18187   */\n      dup3\n        /* \"#utility.yul\":18177:18191   */\n      add\n        /* \"#utility.yul\":18170:18209   */\n      mstore\n        /* \"#utility.yul\":18053:18216   */\n      pop\n      jump\t// out\n        /* \"#utility.yul\":18222:18588   */\n    tag_259:\n        /* \"#utility.yul\":18364:18367   */\n      0x00\n        /* \"#utility.yul\":18385:18452   */\n      tag_464\n        /* \"#utility.yul\":18449:18451   */\n      0x0d\n        /* \"#utility.yul\":18444:18447   */\n      dup4\n        /* \"#utility.yul\":18385:18452   */\n      tag_243\n      jump\t// in\n    tag_464:\n        /* \"#utility.yul\":18378:18452   */\n      swap2\n      pop\n        /* \"#utility.yul\":18461:18554   */\n      tag_465\n        /* \"#utility.yul\":18550:18553   */\n      dup3\n        /* \"#utility.yul\":18461:18554   */\n      tag_258\n      jump\t// in\n    tag_465:\n        /* \"#utility.yul\":18579:18581   */\n      0x20\n        /* \"#utility.yul\":18574:18577   */\n      dup3\n        /* \"#utility.yul\":18570:18582   */\n      add\n        /* \"#utility.yul\":18563:18582   */\n      swap1\n      pop\n        /* \"#utility.yul\":18222:18588   */\n      swap2\n      swap1\n      pop\n      jump\t// out\n        /* \"#utility.yul\":18594:19013   */\n    tag_90:\n        /* \"#utility.yul\":18760:18764   */\n      0x00\n        /* \"#utility.yul\":18798:18800   */\n      0x20\n        /* \"#utility.yul\":18787:18796   */\n      dup3\n        /* \"#utility.yul\":18783:18801   */\n      add\n        /* \"#utility.yul\":18775:18801   */\n      swap1\n      pop\n        /* \"#utility.yul\":18847:18856   */\n      dup2\n        /* \"#utility.yul\":18841:18845   */\n      dup2\n        /* \"#utility.yul\":18837:18857   */\n      sub\n        /* \"#utility.yul\":18833:18834   */\n      0x00\n        /* \"#utility.yul\":18822:18831   */\n      dup4\n        /* \"#utility.yul\":18818:18835   */\n      add\n        /* \"#utility.yul\":18811:18858   */\n      mstore\n        /* \"#utility.yul\":18875:19006   */\n      tag_467\n        /* \"#utility.yul\":19001:19005   */\n      dup2\n        /* \"#utility.yul\":18875:19006   */\n      tag_259\n      jump\t// in\n    tag_467:\n        /* \"#utility.yul\":18867:19006   */\n      swap1\n      pop\n        /* \"#utility.yul\":18594:19013   */\n      swap2\n      swap1\n      pop\n      jump\t// out\n        /* \"#utility.yul\":19019:19178   */\n    tag_260:\n        /* \"#utility.yul\":19159:19170   */\n      0x4e6f20566f746572730000000000000000000000000000000000000000000000\n        /* \"#utility.yul\":19155:19156   */\n      0x00\n        /* \"#utility.yul\":19147:19153   */\n      dup3\n        /* \"#utility.yul\":19143:19157   */\n      add\n        /* \"#utility.yul\":19136:19171   */\n      mstore\n        /* \"#utility.yul\":19019:19178   */\n      pop\n      jump\t// out\n        /* \"#utility.yul\":19184:19549   */\n    tag_261:\n        /* \"#utility.yul\":19326:19329   */\n      0x00\n        /* \"#utility.yul\":19347:19413   */\n      tag_470\n        /* \"#utility.yul\":19411:19412   */\n      0x09\n        /* \"#utility.yul\":19406:19409   */\n      dup4\n        /* \"#utility.yul\":19347:19413   */\n      tag_243\n      jump\t// in\n    tag_470:\n        /* \"#utility.yul\":19340:19413   */\n      swap2\n      pop\n        /* \"#utility.yul\":19422:19515   */\n      tag_471\n        /* \"#utility.yul\":19511:19514   */\n      dup3\n        /* \"#utility.yul\":19422:19515   */\n      tag_260\n      jump\t// in\n    tag_471:\n        /* \"#utility.yul\":19540:19542   */\n      0x20\n        /* \"#utility.yul\":19535:19538   */\n      dup3\n        /* \"#utility.yul\":19531:19543   */\n      add\n        /* \"#utility.yul\":19524:19543   */\n      swap1\n      pop\n        /* \"#utility.yul\":19184:19549   */\n      swap2\n      swap1\n      pop\n      jump\t// out\n        /* \"#utility.yul\":19555:19974   */\n    tag_98:\n        /* \"#utility.yul\":19721:19725   */\n      0x00\n        /* \"#utility.yul\":19759:19761   */\n      0x20\n        /* \"#utility.yul\":19748:19757   */\n      dup3\n        /* \"#utility.yul\":19744:19762   */\n      add\n        /* \"#utility.yul\":19736:19762   */\n      swap1\n      pop\n        /* \"#utility.yul\":19808:19817   */\n      dup2\n        /* \"#utility.yul\":19802:19806   */\n      dup2\n        /* \"#utility.yul\":19798:19818   */\n      sub\n        /* \"#utility.yul\":19794:19795   */\n      0x00\n        /* \"#utility.yul\":19783:19792   */\n      dup4\n        /* \"#utility.yul\":19779:19796   */\n      add\n        /* \"#utility.yul\":19772:19819   */\n      mstore\n        /* \"#utility.yul\":19836:19967   */\n      tag_473\n        /* \"#utility.yul\":19962:19966   */\n      dup2\n        /* \"#utility.yul\":19836:19967   */\n      tag_261\n      jump\t// in\n    tag_473:\n        /* \"#utility.yul\":19828:19967   */\n      swap1\n      pop\n        /* \"#utility.yul\":19555:19974   */\n      swap2\n      swap1\n      pop\n      jump\t// out\n        /* \"#utility.yul\":19980:20157   */\n    tag_262:\n        /* \"#utility.yul\":20120:20149   */\n      0x416765206d7573742062652067726561746572207468616e2031380000000000\n        /* \"#utility.yul\":20116:20117   */\n      0x00\n        /* \"#utility.yul\":20108:20114   */\n      dup3\n        /* \"#utility.yul\":20104:20118   */\n      add\n        /* \"#utility.yul\":20097:20150   */\n      mstore\n        /* \"#utility.yul\":19980:20157   */\n      pop\n      jump\t// out\n        /* \"#utility.yul\":20163:20529   */\n    tag_263:\n        /* \"#utility.yul\":20305:20308   */\n      0x00\n        /* \"#utility.yul\":20326:20393   */\n      tag_476\n        /* \"#utility.yul\":20390:20392   */\n      0x1b\n        /* \"#utility.yul\":20385:20388   */\n      dup4\n        /* \"#utility.yul\":20326:20393   */\n      tag_243\n      jump\t// in\n    tag_476:\n        /* \"#utility.yul\":20319:20393   */\n      swap2\n      pop\n        /* \"#utility.yul\":20402:20495   */\n      tag_477\n        /* \"#utility.yul\":20491:20494   */\n      dup3\n        /* \"#utility.yul\":20402:20495   */\n      tag_262\n      jump\t// in\n    tag_477:\n        /* \"#utility.yul\":20520:20522   */\n      0x20\n        /* \"#utility.yul\":20515:20518   */\n      dup3\n        /* \"#utility.yul\":20511:20523   */\n      add\n        /* \"#utility.yul\":20504:20523   */\n      swap1\n      pop\n        /* \"#utility.yul\":20163:20529   */\n      swap2\n      swap1\n      pop\n      jump\t// out\n        /* \"#utility.yul\":20535:20954   */\n    tag_123:\n        /* \"#utility.yul\":20701:20705   */\n      0x00\n        /* \"#utility.yul\":20739:20741   */\n      0x20\n        /* \"#utility.yul\":20728:20737   */\n      dup3\n        /* \"#utility.yul\":20724:20742   */\n      add\n        /* \"#utility.yul\":20716:20742   */\n      swap1\n      pop\n        /* \"#utility.yul\":20788:20797   */\n      dup2\n        /* \"#utility.yul\":20782:20786   */\n      dup2\n        /* \"#utility.yul\":20778:20798   */\n      sub\n        /* \"#utility.yul\":20774:20775   */\n      0x00\n        /* \"#utility.yul\":20763:20772   */\n      dup4\n        /* \"#utility.yul\":20759:20776   */\n      add\n        /* \"#utility.yul\":20752:20799   */\n      mstore\n        /* \"#utility.yul\":20816:20947   */\n      tag_479\n        /* \"#utility.yul\":20942:20946   */\n      dup2\n        /* \"#utility.yul\":20816:20947   */\n      tag_263\n      jump\t// in\n    tag_479:\n        /* \"#utility.yul\":20808:20947   */\n      swap1\n      pop\n        /* \"#utility.yul\":20535:20954   */\n      swap2\n      swap1\n      pop\n      jump\t// out\n        /* \"#utility.yul\":20960:21039   */\n    tag_264:\n        /* \"#utility.yul\":20999:21006   */\n      0x00\n        /* \"#utility.yul\":21028:21033   */\n      dup2\n        /* \"#utility.yul\":21017:21033   */\n      swap1\n      pop\n        /* \"#utility.yul\":20960:21039   */\n      swap2\n      swap1\n      pop\n      jump\t// out\n        /* \"#utility.yul\":21045:21202   */\n    tag_265:\n        /* \"#utility.yul\":21150:21195   */\n      tag_482\n        /* \"#utility.yul\":21170:21194   */\n      tag_483\n        /* \"#utility.yul\":21188:21193   */\n      dup3\n        /* \"#utility.yul\":21170:21194   */\n      tag_221\n      jump\t// in\n    tag_483:\n        /* \"#utility.yul\":21150:21195   */\n      tag_264\n      jump\t// in\n    tag_482:\n        /* \"#utility.yul\":21145:21148   */\n      dup3\n        /* \"#utility.yul\":21138:21196   */\n      mstore\n        /* \"#utility.yul\":21045:21202   */\n      pop\n      pop\n      jump\t// out\n        /* \"#utility.yul\":21208:21624   */\n    tag_125:\n        /* \"#utility.yul\":21368:21371   */\n      0x00\n        /* \"#utility.yul\":21390:21485   */\n      tag_485\n        /* \"#utility.yul\":21481:21484   */\n      dup3\n        /* \"#utility.yul\":21472:21478   */\n      dup6\n        /* \"#utility.yul\":21390:21485   */\n      tag_255\n      jump\t// in\n    tag_485:\n        /* \"#utility.yul\":21383:21485   */\n      swap2\n      pop\n        /* \"#utility.yul\":21495:21570   */\n      tag_486\n        /* \"#utility.yul\":21566:21569   */\n      dup3\n        /* \"#utility.yul\":21557:21563   */\n      dup5\n        /* \"#utility.yul\":21495:21570   */\n      tag_265\n      jump\t// in\n    tag_486:\n        /* \"#utility.yul\":21595:21597   */\n      0x20\n        /* \"#utility.yul\":21590:21593   */\n      dup3\n        /* \"#utility.yul\":21586:21598   */\n      add\n        /* \"#utility.yul\":21579:21598   */\n      swap2\n      pop\n        /* \"#utility.yul\":21615:21618   */\n      dup2\n        /* \"#utility.yul\":21608:21618   */\n      swap1\n      pop\n        /* \"#utility.yul\":21208:21624   */\n      swap4\n      swap3\n      pop\n      pop\n      pop\n      jump\t// out\n        /* \"#utility.yul\":21630:21728   */\n    tag_266:\n        /* \"#utility.yul\":21681:21687   */\n      0x00\n        /* \"#utility.yul\":21715:21720   */\n      dup2\n        /* \"#utility.yul\":21709:21721   */\n      mload\n        /* \"#utility.yul\":21699:21721   */\n      swap1\n      pop\n        /* \"#utility.yul\":21630:21728   */\n      swap2\n      swap1\n      pop\n      jump\t// out\n        /* \"#utility.yul\":21734:22120   */\n    tag_267:\n        /* \"#utility.yul\":21838:21841   */\n      0x00\n        /* \"#utility.yul\":21866:21904   */\n      tag_489\n        /* \"#utility.yul\":21898:21903   */\n      dup3\n        /* \"#utility.yul\":21866:21904   */\n      tag_266\n      jump\t// in\n    tag_489:\n        /* \"#utility.yul\":21920:22008   */\n      tag_490\n        /* \"#utility.yul\":22001:22007   */\n      dup2\n        /* \"#utility.yul\":21996:21999   */\n      dup6\n        /* \"#utility.yul\":21920:22008   */\n      tag_248\n      jump\t// in\n    tag_490:\n        /* \"#utility.yul\":21913:22008   */\n      swap4\n      pop\n        /* \"#utility.yul\":22017:22082   */\n      tag_491\n        /* \"#utility.yul\":22075:22081   */\n      dup2\n        /* \"#utility.yul\":22070:22073   */\n      dup6\n        /* \"#utility.yul\":22063:22067   */\n      0x20\n        /* \"#utility.yul\":22056:22061   */\n      dup7\n        /* \"#utility.yul\":22052:22068   */\n      add\n        /* \"#utility.yul\":22017:22082   */\n      tag_238\n      jump\t// in\n    tag_491:\n        /* \"#utility.yul\":22107:22113   */\n      dup1\n        /* \"#utility.yul\":22102:22105   */\n      dup5\n        /* \"#utility.yul\":22098:22114   */\n      add\n        /* \"#utility.yul\":22091:22114   */\n      swap2\n      pop\n        /* \"#utility.yul\":21842:22120   */\n      pop\n        /* \"#utility.yul\":21734:22120   */\n      swap3\n      swap2\n      pop\n      pop\n      jump\t// out\n        /* \"#utility.yul\":22126:22397   */\n    tag_127:\n        /* \"#utility.yul\":22256:22259   */\n      0x00\n        /* \"#utility.yul\":22278:22371   */\n      tag_493\n        /* \"#utility.yul\":22367:22370   */\n      dup3\n        /* \"#utility.yul\":22358:22364   */\n      dup5\n        /* \"#utility.yul\":22278:22371   */\n      tag_267\n      jump\t// in\n    tag_493:\n        /* \"#utility.yul\":22271:22371   */\n      swap2\n      pop\n        /* \"#utility.yul\":22388:22391   */\n      dup2\n        /* \"#utility.yul\":22381:22391   */\n      swap1\n      pop\n        /* \"#utility.yul\":22126:22397   */\n      swap3\n      swap2\n      pop\n      pop\n      jump\t// out\n        /* \"#utility.yul\":22403:22546   */\n    tag_268:\n        /* \"#utility.yul\":22460:22465   */\n      0x00\n        /* \"#utility.yul\":22491:22497   */\n      dup2\n        /* \"#utility.yul\":22485:22498   */\n      mload\n        /* \"#utility.yul\":22476:22498   */\n      swap1\n      pop\n        /* \"#utility.yul\":22507:22540   */\n      tag_495\n        /* \"#utility.yul\":22534:22539   */\n      dup2\n        /* \"#utility.yul\":22507:22540   */\n      tag_231\n      jump\t// in\n    tag_495:\n        /* \"#utility.yul\":22403:22546   */\n      swap3\n      swap2\n      pop\n      pop\n      jump\t// out\n        /* \"#utility.yul\":22552:22903   */\n    tag_131:\n        /* \"#utility.yul\":22622:22628   */\n      0x00\n        /* \"#utility.yul\":22671:22673   */\n      0x20\n        /* \"#utility.yul\":22659:22668   */\n      dup3\n        /* \"#utility.yul\":22650:22657   */\n      dup5\n        /* \"#utility.yul\":22646:22669   */\n      sub\n        /* \"#utility.yul\":22642:22674   */\n      slt\n        /* \"#utility.yul\":22639:22758   */\n      iszero\n      tag_497\n      jumpi\n        /* \"#utility.yul\":22677:22756   */\n      tag_498\n      tag_207\n      jump\t// in\n    tag_498:\n        /* \"#utility.yul\":22639:22758   */\n    tag_497:\n        /* \"#utility.yul\":22797:22798   */\n      0x00\n        /* \"#utility.yul\":22822:22886   */\n      tag_499\n        /* \"#utility.yul\":22878:22885   */\n      dup5\n        /* \"#utility.yul\":22869:22875   */\n      dup3\n        /* \"#utility.yul\":22858:22867   */\n      dup6\n        /* \"#utility.yul\":22854:22876   */\n      add\n        /* \"#utility.yul\":22822:22886   */\n      tag_268\n      jump\t// in\n    tag_499:\n        /* \"#utility.yul\":22812:22886   */\n      swap2\n      pop\n        /* \"#utility.yul\":22768:22896   */\n      pop\n        /* \"#utility.yul\":22552:22903   */\n      swap3\n      swap2\n      pop\n      pop\n      jump\t// out\n        /* \"#utility.yul\":22909:23050   */\n    tag_269:\n        /* \"#utility.yul\":22958:22962   */\n      0x00\n        /* \"#utility.yul\":22981:22984   */\n      dup2\n        /* \"#utility.yul\":22973:22984   */\n      swap1\n      pop\n        /* \"#utility.yul\":23004:23007   */\n      dup2\n        /* \"#utility.yul\":23001:23002   */\n      0x00\n        /* \"#utility.yul\":22994:23008   */\n      mstore\n        /* \"#utility.yul\":23038:23042   */\n      0x20\n        /* \"#utility.yul\":23035:23036   */\n      0x00\n        /* \"#utility.yul\":23025:23043   */\n      keccak256\n        /* \"#utility.yul\":23017:23043   */\n      swap1\n      pop\n        /* \"#utility.yul\":22909:23050   */\n      swap2\n      swap1\n      pop\n      jump\t// out\n        /* \"#utility.yul\":23056:23149   */\n    tag_270:\n        /* \"#utility.yul\":23093:23099   */\n      0x00\n        /* \"#utility.yul\":23140:23142   */\n      0x20\n        /* \"#utility.yul\":23135:23137   */\n      0x1f\n        /* \"#utility.yul\":23128:23133   */\n      dup4\n        /* \"#utility.yul\":23124:23138   */\n      add\n        /* \"#utility.yul\":23120:23143   */\n      div\n        /* \"#utility.yul\":23110:23143   */\n      swap1\n      pop\n        /* \"#utility.yul\":23056:23149   */\n      swap2\n      swap1\n      pop\n      jump\t// out\n        /* \"#utility.yul\":23155:23262   */\n    tag_271:\n        /* \"#utility.yul\":23199:23207   */\n      0x00\n        /* \"#utility.yul\":23249:23254   */\n      dup3\n        /* \"#utility.yul\":23243:23247   */\n      dup3\n        /* \"#utility.yul\":23239:23255   */\n      shl\n        /* \"#utility.yul\":23218:23255   */\n      swap1\n      pop\n        /* \"#utility.yul\":23155:23262   */\n      swap3\n      swap2\n      pop\n      pop\n      jump\t// out\n        /* \"#utility.yul\":23268:23661   */\n    tag_272:\n        /* \"#utility.yul\":23337:23343   */\n      0x00\n        /* \"#utility.yul\":23387:23388   */\n      0x08\n        /* \"#utility.yul\":23375:23385   */\n      dup4\n        /* \"#utility.yul\":23371:23389   */\n      mul\n        /* \"#utility.yul\":23410:23507   */\n      tag_504\n        /* \"#utility.yul\":23440:23506   */\n      0xffffffffffffffffffffffffffffffffffffffffffffffffffffffffffffffff\n        /* \"#utility.yul\":23429:23438   */\n      dup3\n        /* \"#utility.yul\":23410:23507   */\n      tag_271\n      jump\t// in\n    tag_504:\n        /* \"#utility.yul\":23528:23567   */\n      tag_505\n        /* \"#utility.yul\":23558:23566   */\n      dup7\n        /* \"#utility.yul\":23547:23556   */\n      dup4\n        /* \"#utility.yul\":23528:23567   */\n      tag_271\n      jump\t// in\n    tag_505:\n        /* \"#utility.yul\":23516:23567   */\n      swap6\n      pop\n        /* \"#utility.yul\":23600:23604   */\n      dup1\n        /* \"#utility.yul\":23596:23605   */\n      not\n        /* \"#utility.yul\":23589:23594   */\n      dup5\n        /* \"#utility.yul\":23585:23606   */\n      and\n        /* \"#utility.yul\":23576:23606   */\n      swap4\n      pop\n        /* \"#utility.yul\":23649:23653   */\n      dup1\n        /* \"#utility.yul\":23639:23647   */\n      dup7\n        /* \"#utility.yul\":23635:23654   */\n      and\n        /* \"#utility.yul\":23628:23633   */\n      dup5\n        /* \"#utility.yul\":23625:23655   */\n      or\n        /* \"#utility.yul\":23615:23655   */\n      swap3\n      pop\n        /* \"#utility.yul\":23344:23661   */\n      pop\n      pop\n        /* \"#utility.yul\":23268:23661   */\n      swap4\n      swap3\n      pop\n      pop\n      pop\n      jump\t// out\n        /* \"#utility.yul\":23667:23727   */\n    tag_273:\n        /* \"#utility.yul\":23695:23698   */\n      0x00\n        /* \"#utility.yul\":23716:23721   */\n      dup2\n        /* \"#utility.yul\":23709:23721   */\n      swap1\n      pop\n        /* \"#utility.yul\":23667:23727   */\n      swap2\n      swap1\n      pop\n      jump\t// out\n        /* \"#utility.yul\":23733:23875   */\n    tag_274:\n        /* \"#utility.yul\":23783:23792   */\n      0x00\n        /* \"#utility.yul\":23816:23869   */\n      tag_508\n        /* \"#utility.yul\":23834:23868   */\n      tag_509\n        /* \"#utility.yul\":23843:23867   */\n      tag_510\n        /* \"#utility.yul\":23861:23866   */\n      dup5\n        /* \"#utility.yul\":23843:23867   */\n      tag_221\n      jump\t// in\n    tag_510:\n        /* \"#utility.yul\":23834:23868   */\n      tag_273\n      jump\t// in\n    tag_509:\n        /* \"#utility.yul\":23816:23869   */\n      tag_221\n      jump\t// in\n    tag_508:\n        /* \"#utility.yul\":23803:23869   */\n      swap1\n      pop\n        /* \"#utility.yul\":23733:23875   */\n      swap2\n      swap1\n      pop\n      jump\t// out\n        /* \"#utility.yul\":23881:23956   */\n    tag_275:\n        /* \"#utility.yul\":23924:23927   */\n      0x00\n        /* \"#utility.yul\":23945:23950   */\n      dup2\n        /* \"#utility.yul\":23938:23950   */\n      swap1\n      pop\n        /* \"#utility.yul\":23881:23956   */\n      swap2\n      swap1\n      pop\n      jump\t// out\n        /* \"#utility.yul\":23962:24231   */\n    tag_276:\n        /* \"#utility.yul\":24072:24111   */\n      tag_513\n        /* \"#utility.yul\":24103:24110   */\n      dup4\n        /* \"#utility.yul\":24072:24111   */\n      tag_274\n      jump\t// in\n    tag_513:\n        /* \"#utility.yul\":24133:24224   */\n      tag_514\n        /* \"#utility.yul\":24182:24223   */\n      tag_515\n        /* \"#utility.yul\":24206:24222   */\n      dup3\n        /* \"#utility.yul\":24182:24223   */\n      tag_275\n      jump\t// in\n    tag_515:\n        /* \"#utility.yul\":24174:24180   */\n      dup5\n        /* \"#utility.yul\":24167:24171   */\n      dup5\n        /* \"#utility.yul\":24161:24172   */\n      sload\n        /* \"#utility.yul\":24133:24224   */\n      tag_272\n      jump\t// in\n    tag_514:\n        /* \"#utility.yul\":24127:24131   */\n      dup3\n        /* \"#utility.yul\":24120:24225   */\n      sstore\n        /* \"#utility.yul\":24038:24231   */\n      pop\n        /* \"#utility.yul\":23962:24231   */\n      pop\n      pop\n      pop\n      jump\t// out\n        /* \"#utility.yul\":24237:24310   */\n    tag_277:\n        /* \"#utility.yul\":24282:24285   */\n      0x00\n        /* \"#utility.yul\":24237:24310   */\n      swap1\n      jump\t// out\n        /* \"#utility.yul\":24316:24505   */\n    tag_278:\n        /* \"#utility.yul\":24393:24425   */\n      tag_518\n      tag_277\n      jump\t// in\n    tag_518:\n        /* \"#utility.yul\":24434:24499   */\n      tag_519\n        /* \"#utility.yul\":24492:24498   */\n      dup2\n        /* \"#utility.yul\":24484:24490   */\n      dup5\n        /* \"#utility.yul\":24478:24482   */\n      dup5\n        /* \"#utility.yul\":24434:24499   */\n      tag_276\n      jump\t// in\n    tag_519:\n        /* \"#utility.yul\":24369:24505   */\n      pop\n        /* \"#utility.yul\":24316:24505   */\n      pop\n      pop\n      jump\t// out\n        /* \"#utility.yul\":24511:24697   */\n    tag_279:\n        /* \"#utility.yul\":24571:24691   */\n    tag_521:\n        /* \"#utility.yul\":24588:24591   */\n      dup2\n        /* \"#utility.yul\":24581:24586   */\n      dup2\n        /* \"#utility.yul\":24578:24592   */\n      lt\n        /* \"#utility.yul\":24571:24691   */\n      iszero\n      tag_523\n      jumpi\n        /* \"#utility.yul\":24642:24681   */\n      tag_524\n        /* \"#utility.yul\":24679:24680   */\n      0x00\n        /* \"#utility.yul\":24672:24677   */\n      dup3\n        /* \"#utility.yul\":24642:24681   */\n      tag_278\n      jump\t// in\n    tag_524:\n        /* \"#utility.yul\":24615:24616   */\n      0x01\n        /* \"#utility.yul\":24608:24613   */\n      dup2\n        /* \"#utility.yul\":24604:24617   */\n      add\n        /* \"#utility.yul\":24595:24617   */\n      swap1\n      pop\n        /* \"#utility.yul\":24571:24691   */\n      jump(tag_521)\n    tag_523:\n        /* \"#utility.yul\":24511:24697   */\n      pop\n      pop\n      jump\t// out\n        /* \"#utility.yul\":24703:25246   */\n    tag_280:\n        /* \"#utility.yul\":24804:24806   */\n      0x1f\n        /* \"#utility.yul\":24799:24802   */\n      dup3\n        /* \"#utility.yul\":24796:24807   */\n      gt\n        /* \"#utility.yul\":24793:25239   */\n      iszero\n      tag_526\n      jumpi\n        /* \"#utility.yul\":24838:24876   */\n      tag_527\n        /* \"#utility.yul\":24870:24875   */\n      dup2\n        /* \"#utility.yul\":24838:24876   */\n      tag_269\n      jump\t// in\n    tag_527:\n        /* \"#utility.yul\":24922:24951   */\n      tag_528\n        /* \"#utility.yul\":24940:24950   */\n      dup5\n        /* \"#utility.yul\":24922:24951   */\n      tag_270\n      jump\t// in\n    tag_528:\n        /* \"#utility.yul\":24912:24920   */\n      dup2\n        /* \"#utility.yul\":24908:24952   */\n      add\n        /* \"#utility.yul\":25105:25107   */\n      0x20\n        /* \"#utility.yul\":25093:25103   */\n      dup6\n        /* \"#utility.yul\":25090:25108   */\n      lt\n        /* \"#utility.yul\":25087:25136   */\n      iszero\n      tag_529\n      jumpi\n        /* \"#utility.yul\":25126:25134   */\n      dup2\n        /* \"#utility.yul\":25111:25134   */\n      swap1\n      pop\n        /* \"#utility.yul\":25087:25136   */\n    tag_529:\n        /* \"#utility.yul\":25149:25229   */\n      tag_530\n        /* \"#utility.yul\":25205:25227   */\n      tag_531\n        /* \"#utility.yul\":25223:25226   */\n      dup6\n        /* \"#utility.yul\":25205:25227   */\n      tag_270\n      jump\t// in\n    tag_531:\n        /* \"#utility.yul\":25195:25203   */\n      dup4\n        /* \"#utility.yul\":25191:25228   */\n      add\n        /* \"#utility.yul\":25178:25189   */\n      dup3\n        /* \"#utility.yul\":25149:25229   */\n      tag_279\n      jump\t// in\n    tag_530:\n        /* \"#utility.yul\":24808:25239   */\n      pop\n      pop\n        /* \"#utility.yul\":24793:25239   */\n    tag_526:\n        /* \"#utility.yul\":24703:25246   */\n      pop\n      pop\n      pop\n      jump\t// out\n        /* \"#utility.yul\":25252:25369   */\n    tag_281:\n        /* \"#utility.yul\":25306:25314   */\n      0x00\n        /* \"#utility.yul\":25356:25361   */\n      dup3\n        /* \"#utility.yul\":25350:25354   */\n      dup3\n        /* \"#utility.yul\":25346:25362   */\n      shr\n        /* \"#utility.yul\":25325:25362   */\n      swap1\n      pop\n        /* \"#utility.yul\":25252:25369   */\n      swap3\n      swap2\n      pop\n      pop\n      jump\t// out\n        /* \"#utility.yul\":25375:25544   */\n    tag_282:\n        /* \"#utility.yul\":25419:25425   */\n      0x00\n        /* \"#utility.yul\":25452:25503   */\n      tag_534\n        /* \"#utility.yul\":25500:25501   */\n      0x00\n        /* \"#utility.yul\":25496:25502   */\n      not\n        /* \"#utility.yul\":25488:25493   */\n      dup5\n        /* \"#utility.yul\":25485:25486   */\n      0x08\n        /* \"#utility.yul\":25481:25494   */\n      mul\n        /* \"#utility.yul\":25452:25503   */\n      tag_281\n      jump\t// in\n    tag_534:\n        /* \"#utility.yul\":25448:25504   */\n      not\n        /* \"#utility.yul\":25533:25537   */\n      dup1\n        /* \"#utility.yul\":25527:25531   */\n      dup4\n        /* \"#utility.yul\":25523:25538   */\n      and\n        /* \"#utility.yul\":25513:25538   */\n      swap2\n      pop\n        /* \"#utility.yul\":25426:25544   */\n      pop\n        /* \"#utility.yul\":25375:25544   */\n      swap3\n      swap2\n      pop\n      pop\n      jump\t// out\n        /* \"#utility.yul\":25549:25844   */\n    tag_283:\n        /* \"#utility.yul\":25625:25629   */\n      0x00\n        /* \"#utility.yul\":25771:25800   */\n      tag_536\n        /* \"#utility.yul\":25796:25799   */\n      dup4\n        /* \"#utility.yul\":25790:25794   */\n      dup4\n        /* \"#utility.yul\":25771:25800   */\n      tag_282\n      jump\t// in\n    tag_536:\n        /* \"#utility.yul\":25763:25800   */\n      swap2\n      pop\n        /* \"#utility.yul\":25833:25836   */\n      dup3\n        /* \"#utility.yul\":25830:25831   */\n      0x02\n        /* \"#utility.yul\":25826:25837   */\n      mul\n        /* \"#utility.yul\":25820:25824   */\n      dup3\n        /* \"#utility.yul\":25817:25838   */\n      or\n        /* \"#utility.yul\":25809:25838   */\n      swap1\n      pop\n        /* \"#utility.yul\":25549:25844   */\n      swap3\n      swap2\n      pop\n      pop\n      jump\t// out\n        /* \"#utility.yul\":25849:27244   */\n    tag_133:\n        /* \"#utility.yul\":25966:26003   */\n      tag_538\n        /* \"#utility.yul\":25999:26002   */\n      dup3\n        /* \"#utility.yul\":25966:26003   */\n      tag_236\n      jump\t// in\n    tag_538:\n        /* \"#utility.yul\":26068:26086   */\n      0xffffffffffffffff\n        /* \"#utility.yul\":26060:26066   */\n      dup2\n        /* \"#utility.yul\":26057:26087   */\n      gt\n        /* \"#utility.yul\":26054:26110   */\n      iszero\n      tag_539\n      jumpi\n        /* \"#utility.yul\":26090:26108   */\n      tag_540\n      tag_212\n      jump\t// in\n    tag_540:\n        /* \"#utility.yul\":26054:26110   */\n    tag_539:\n        /* \"#utility.yul\":26134:26172   */\n      tag_541\n        /* \"#utility.yul\":26166:26170   */\n      dup3\n        /* \"#utility.yul\":26160:26171   */\n      sload\n        /* \"#utility.yul\":26134:26172   */\n      tag_106\n      jump\t// in\n    tag_541:\n        /* \"#utility.yul\":26219:26286   */\n      tag_542\n        /* \"#utility.yul\":26279:26285   */\n      dup3\n        /* \"#utility.yul\":26271:26277   */\n      dup3\n        /* \"#utility.yul\":26265:26269   */\n      dup6\n        /* \"#utility.yul\":26219:26286   */\n      tag_280\n      jump\t// in\n    tag_542:\n        /* \"#utility.yul\":26313:26314   */\n      0x00\n        /* \"#utility.yul\":26337:26341   */\n      0x20\n        /* \"#utility.yul\":26324:26341   */\n      swap1\n      pop\n        /* \"#utility.yul\":26369:26371   */\n      0x1f\n        /* \"#utility.yul\":26361:26367   */\n      dup4\n        /* \"#utility.yul\":26358:26372   */\n      gt\n        /* \"#utility.yul\":26386:26387   */\n      0x01\n        /* \"#utility.yul\":26381:26999   */\n      dup2\n      eq\n      tag_544\n      jumpi\n        /* \"#utility.yul\":27043:27044   */\n      0x00\n        /* \"#utility.yul\":27060:27066   */\n      dup5\n        /* \"#utility.yul\":27057:27134   */\n      iszero\n      tag_545\n      jumpi\n        /* \"#utility.yul\":27109:27118   */\n      dup3\n        /* \"#utility.yul\":27104:27107   */\n      dup8\n        /* \"#utility.yul\":27100:27119   */\n      add\n        /* \"#utility.yul\":27094:27120   */\n      mload\n        /* \"#utility.yul\":27085:27120   */\n      swap1\n      pop\n        /* \"#utility.yul\":27057:27134   */\n    tag_545:\n        /* \"#utility.yul\":27160:27227   */\n      tag_546\n        /* \"#utility.yul\":27220:27226   */\n      dup6\n        /* \"#utility.yul\":27213:27218   */\n      dup3\n        /* \"#utility.yul\":27160:27227   */\n      tag_283\n      jump\t// in\n    tag_546:\n        /* \"#utility.yul\":27154:27158   */\n      dup7\n        /* \"#utility.yul\":27147:27228   */\n      sstore\n        /* \"#utility.yul\":27016:27238   */\n      pop\n        /* \"#utility.yul\":26351:27238   */\n      jump(tag_543)\n        /* \"#utility.yul\":26381:26999   */\n    tag_544:\n        /* \"#utility.yul\":26433:26437   */\n      0x1f\n        /* \"#utility.yul\":26429:26438   */\n      not\n        /* \"#utility.yul\":26421:26427   */\n      dup5\n        /* \"#utility.yul\":26417:26439   */\n      and\n        /* \"#utility.yul\":26467:26504   */\n      tag_547\n        /* \"#utility.yul\":26499:26503   */\n      dup7\n        /* \"#utility.yul\":26467:26504   */\n      tag_269\n      jump\t// in\n    tag_547:\n        /* \"#utility.yul\":26526:26527   */\n      0x00\n        /* \"#utility.yul\":26540:26748   */\n    tag_548:\n        /* \"#utility.yul\":26554:26561   */\n      dup3\n        /* \"#utility.yul\":26551:26552   */\n      dup2\n        /* \"#utility.yul\":26548:26562   */\n      lt\n        /* \"#utility.yul\":26540:26748   */\n      iszero\n      tag_550\n      jumpi\n        /* \"#utility.yul\":26633:26642   */\n      dup5\n        /* \"#utility.yul\":26628:26631   */\n      dup10\n        /* \"#utility.yul\":26624:26643   */\n      add\n        /* \"#utility.yul\":26618:26644   */\n      mload\n        /* \"#utility.yul\":26610:26616   */\n      dup3\n        /* \"#utility.yul\":26603:26645   */\n      sstore\n        /* \"#utility.yul\":26684:26685   */\n      0x01\n        /* \"#utility.yul\":26676:26682   */\n      dup3\n        /* \"#utility.yul\":26672:26686   */\n      add\n        /* \"#utility.yul\":26662:26686   */\n      swap2\n      pop\n        /* \"#utility.yul\":26731:26733   */\n      0x20\n        /* \"#utility.yul\":26720:26729   */\n      dup6\n        /* \"#utility.yul\":26716:26734   */\n      add\n        /* \"#utility.yul\":26703:26734   */\n      swap5\n      pop\n        /* \"#utility.yul\":26577:26581   */\n      0x20\n        /* \"#utility.yul\":26574:26575   */\n      dup2\n        /* \"#utility.yul\":26570:26582   */\n      add\n        /* \"#utility.yul\":26565:26582   */\n      swap1\n      pop\n        /* \"#utility.yul\":26540:26748   */\n      jump(tag_548)\n    tag_550:\n        /* \"#utility.yul\":26776:26782   */\n      dup7\n        /* \"#utility.yul\":26767:26774   */\n      dup4\n        /* \"#utility.yul\":26764:26783   */\n      lt\n        /* \"#utility.yul\":26761:26940   */\n      iszero\n      tag_551\n      jumpi\n        /* \"#utility.yul\":26834:26843   */\n      dup5\n        /* \"#utility.yul\":26829:26832   */\n      dup10\n        /* \"#utility.yul\":26825:26844   */\n      add\n        /* \"#utility.yul\":26819:26845   */\n      mload\n        /* \"#utility.yul\":26877:26925   */\n      tag_552\n        /* \"#utility.yul\":26919:26923   */\n      0x1f\n        /* \"#utility.yul\":26911:26917   */\n      dup10\n        /* \"#utility.yul\":26907:26924   */\n      and\n        /* \"#utility.yul\":26896:26905   */\n      dup3\n        /* \"#utility.yul\":26877:26925   */\n      tag_282\n      jump\t// in\n    tag_552:\n        /* \"#utility.yul\":26869:26875   */\n      dup4\n        /* \"#utility.yul\":26862:26926   */\n      sstore\n        /* \"#utility.yul\":26784:26940   */\n      pop\n        /* \"#utility.yul\":26761:26940   */\n    tag_551:\n        /* \"#utility.yul\":26986:26987   */\n      0x01\n        /* \"#utility.yul\":26982:26983   */\n      0x02\n        /* \"#utility.yul\":26974:26980   */\n      dup9\n        /* \"#utility.yul\":26970:26984   */\n      mul\n        /* \"#utility.yul\":26966:26988   */\n      add\n        /* \"#utility.yul\":26960:26964   */\n      dup9\n        /* \"#utility.yul\":26953:26989   */\n      sstore\n        /* \"#utility.yul\":26388:26999   */\n      pop\n      pop\n      pop\n        /* \"#utility.yul\":26351:27238   */\n    tag_543:\n      pop\n        /* \"#utility.yul\":25941:27244   */\n      pop\n      pop\n      pop\n        /* \"#utility.yul\":25849:27244   */\n      pop\n      pop\n      jump\t// out\n        /* \"#utility.yul\":27274:28148   */\n    tag_284:\n        /* \"#utility.yul\":27377:27380   */\n      0x00\n        /* \"#utility.yul\":27414:27419   */\n      dup2\n        /* \"#utility.yul\":27408:27420   */\n      sload\n        /* \"#utility.yul\":27443:27479   */\n      tag_554\n        /* \"#utility.yul\":27469:27478   */\n      dup2\n        /* \"#utility.yul\":27443:27479   */\n      tag_106\n      jump\t// in\n    tag_554:\n        /* \"#utility.yul\":27495:27584   */\n      tag_555\n        /* \"#utility.yul\":27577:27583   */\n      dup2\n        /* \"#utility.yul\":27572:27575   */\n      dup7\n        /* \"#utility.yul\":27495:27584   */\n      tag_254\n      jump\t// in\n    tag_555:\n        /* \"#utility.yul\":27488:27584   */\n      swap5\n      pop\n        /* \"#utility.yul\":27615:27616   */\n      0x01\n        /* \"#utility.yul\":27604:27613   */\n      dup3\n        /* \"#utility.yul\":27600:27617   */\n      and\n        /* \"#utility.yul\":27631:27632   */\n      0x00\n        /* \"#utility.yul\":27626:27792   */\n      dup2\n      eq\n      tag_557\n      jumpi\n        /* \"#utility.yul\":27806:27807   */\n      0x01\n        /* \"#utility.yul\":27801:28142   */\n      dup2\n      eq\n      tag_558\n      jumpi\n        /* \"#utility.yul\":27593:28142   */\n      jump(tag_556)\n        /* \"#utility.yul\":27626:27792   */\n    tag_557:\n        /* \"#utility.yul\":27710:27714   */\n      0xff\n        /* \"#utility.yul\":27706:27715   */\n      not\n        /* \"#utility.yul\":27695:27704   */\n      dup4\n        /* \"#utility.yul\":27691:27716   */\n      and\n        /* \"#utility.yul\":27686:27689   */\n      dup7\n        /* \"#utility.yul\":27679:27717   */\n      mstore\n        /* \"#utility.yul\":27772:27778   */\n      dup2\n        /* \"#utility.yul\":27765:27779   */\n      iszero\n        /* \"#utility.yul\":27758:27780   */\n      iszero\n        /* \"#utility.yul\":27750:27756   */\n      dup3\n        /* \"#utility.yul\":27746:27781   */\n      mul\n        /* \"#utility.yul\":27741:27744   */\n      dup7\n        /* \"#utility.yul\":27737:27782   */\n      add\n        /* \"#utility.yul\":27730:27782   */\n      swap4\n      pop\n        /* \"#utility.yul\":27626:27792   */\n      jump(tag_556)\n        /* \"#utility.yul\":27801:28142   */\n    tag_558:\n        /* \"#utility.yul\":27868:27906   */\n      tag_559\n        /* \"#utility.yul\":27900:27905   */\n      dup6\n        /* \"#utility.yul\":27868:27906   */\n      tag_269\n      jump\t// in\n    tag_559:\n        /* \"#utility.yul\":27928:27929   */\n      0x00\n        /* \"#utility.yul\":27942:28096   */\n    tag_560:\n        /* \"#utility.yul\":27956:27962   */\n      dup4\n        /* \"#utility.yul\":27953:27954   */\n      dup2\n        /* \"#utility.yul\":27950:27963   */\n      lt\n        /* \"#utility.yul\":27942:28096   */\n      iszero\n      tag_562\n      jumpi\n        /* \"#utility.yul\":28030:28037   */\n      dup2\n        /* \"#utility.yul\":28024:28038   */\n      sload\n        /* \"#utility.yul\":28020:28021   */\n      dup2\n        /* \"#utility.yul\":28015:28018   */\n      dup10\n        /* \"#utility.yul\":28011:28022   */\n      add\n        /* \"#utility.yul\":28004:28039   */\n      mstore\n        /* \"#utility.yul\":28080:28081   */\n      0x01\n        /* \"#utility.yul\":28071:28078   */\n      dup3\n        /* \"#utility.yul\":28067:28082   */\n      add\n        /* \"#utility.yul\":28056:28082   */\n      swap2\n      pop\n        /* \"#utility.yul\":27978:27982   */\n      0x20\n        /* \"#utility.yul\":27975:27976   */\n      dup2\n        /* \"#utility.yul\":27971:27983   */\n      add\n        /* \"#utility.yul\":27966:27983   */\n      swap1\n      pop\n        /* \"#utility.yul\":27942:28096   */\n      jump(tag_560)\n    tag_562:\n        /* \"#utility.yul\":28125:28131   */\n      dup4\n        /* \"#utility.yul\":28120:28123   */\n      dup9\n        /* \"#utility.yul\":28116:28132   */\n      add\n        /* \"#utility.yul\":28109:28132   */\n      swap6\n      pop\n        /* \"#utility.yul\":27808:28142   */\n      pop\n      pop\n        /* \"#utility.yul\":27593:28142   */\n    tag_556:\n      pop\n        /* \"#utility.yul\":27381:28148   */\n      pop\n      pop\n        /* \"#utility.yul\":27274:28148   */\n      swap3\n      swap2\n      pop\n      pop\n      jump\t// out\n        /* \"#utility.yul\":28154:28423   */\n    tag_140:\n        /* \"#utility.yul\":28283:28286   */\n      0x00\n        /* \"#utility.yul\":28305:28397   */\n      tag_564\n        /* \"#utility.yul\":28393:28396   */\n      dup3\n        /* \"#utility.yul\":28384:28390   */\n      dup5\n        /* \"#utility.yul\":28305:28397   */\n      tag_284\n      jump\t// in\n    tag_564:\n        /* \"#utility.yul\":28298:28397   */\n      swap2\n      pop\n        /* \"#utility.yul\":28414:28417   */\n      dup2\n        /* \"#utility.yul\":28407:28417   */\n      swap1\n      pop\n        /* \"#utility.yul\":28154:28423   */\n      swap3\n      swap2\n      pop\n      pop\n      jump\t// out\n\n    auxdata: 0xa2646970667358221220093e8e738d0792dc5df61020593324cf52b632c389425efd0302231ba5d2e80f64736f6c63430008130033\n}\n",
				"bytecode": {
					"linkReferences": {},
					"object": "608060405260405180606001604052806040518060400160405280600281526020017f633100000000000000000000000000000000000000000000000000000000000081525081526020016040518060400160405280600281526020017f633200000000000000000000000000000000000000000000000000000000000081525081526020016040518060400160405280600281526020017f63330000000000000000000000000000000000000000000000000000000000008152508152506002906003620000d0929190620000e5565b50348015620000de57600080fd5b5062000533565b82805482825590600052602060002090810192821562000132579160200282015b82811115620001315782518290816200012091906200044c565b509160200191906001019062000106565b5b50905062000141919062000145565b5090565b5b808211156200016957600081816200015f91906200016d565b5060010162000146565b5090565b5080546200017b906200023b565b6000825580601f106200018f5750620001b0565b601f016020900490600052602060002090810190620001af9190620001b3565b5b50565b5b80821115620001ce576000816000905550600101620001b4565b5090565b600081519050919050565b7f4e487b7100000000000000000000000000000000000000000000000000000000600052604160045260246000fd5b7f4e487b7100000000000000000000000000000000000000000000000000000000600052602260045260246000fd5b600060028204905060018216806200025457607f821691505b6020821081036200026a57620002696200020c565b5b50919050565b60008190508160005260206000209050919050565b60006020601f8301049050919050565b600082821b905092915050565b600060088302620002d47fffffffffffffffffffffffffffffffffffffffffffffffffffffffffffffffff8262000295565b620002e0868362000295565b95508019841693508086168417925050509392505050565b6000819050919050565b6000819050919050565b60006200032d620003276200032184620002f8565b62000302565b620002f8565b9050919050565b6000819050919050565b62000349836200030c565b62000361620003588262000334565b848454620002a2565b825550505050565b600090565b6200037862000369565b620003858184846200033e565b505050565b5b81811015620003ad57620003a16000826200036e565b6001810190506200038b565b5050565b601f821115620003fc57620003c68162000270565b620003d18462000285565b81016020851015620003e1578190505b620003f9620003f08562000285565b8301826200038a565b50505b505050565b600082821c905092915050565b6000620004216000198460080262000401565b1980831691505092915050565b60006200043c83836200040e565b9150826002028217905092915050565b6200045782620001d2565b67ffffffffffffffff811115620004735762000472620001dd565b5b6200047f82546200023b565b6200048c828285620003b1565b600060209050601f831160018114620004c45760008415620004af578287015190505b620004bb85826200042e565b8655506200052b565b601f198416620004d48662000270565b60005b82811015620004fe57848901518255600182019150602085019450602081019050620004d7565b868310156200051e57848901516200051a601f8916826200040e565b8355505b6001600288020188555050505b505050505050565b611cde80620005436000396000f3fe608060405234801561001057600080fd5b506004361061009e5760003560e01c80636a59e50c116100665780636a59e50c1461015b5780636e4aed4f146101795780637e46de41146101a9578063905ccdbe146101da5780639fa5e685146101f65761009e565b80630140b74a146100a3578063066ff640146100d35780630c8afdf414610103578063269558e814610121578063490408d41461013d575b600080fd5b6100bd60048036038101906100b89190610faa565b610215565b6040516100ca919061100e565b60405180910390f35b6100ed60048036038101906100e89190610faa565b610292565b6040516100fa9190611042565b60405180910390f35b61010b610302565b6040516101189190611125565b60405180910390f35b61013b60048036038101906101369190611173565b61035a565b005b610145610528565b6040516101529190611125565b60405180910390f35b6101636105e9565b6040516101709190611310565b60405180910390f35b610193600480360381019061018e9190611332565b6106c2565b6040516101a091906113a9565b60405180910390f35b6101c360048036038101906101be9190611332565b610764565b6040516101d19291906113cb565b60405180910390f35b6101f460048036038101906101ef9190611427565b61082a565b005b6101fe61098f565b60405161020c9291906113cb565b60405180910390f35b600080600090505b6002805490508110156102875782805190602001206002828154811061024657610245611483565b5b9060005260206000200160405161025d91906115b5565b60405180910390200361027457600191505061028d565b808061027f906115fb565b91505061021d565b50600090505b919050565b600061029d82610215565b6102dc576040517f08c379a00000000000000000000000000000000000000000000000000000000081526004016102d39061168f565b60405180910390fd5b6008826040516102ec91906116eb565b9081526020016040518091039020549050919050565b6060600180548060200260200160405190810160405280929190818152602001828054801561035057602002820191906000526020600020905b81548152602001906001019080831161033c575b5050505050905090565b600115156005600084815260200190815260200160002060009054906101000a900460ff161515146103c1576040517f08c379a00000000000000000000000000000000000000000000000000000000081526004016103b89061174e565b60405180910390fd5b6103ca81610215565b610409576040517f08c379a00000000000000000000000000000000000000000000000000000000081526004016104009061168f565b60405180910390fd5b6006600083815260200190815260200160002060009054906101000a900460ff161561046a576040517f08c379a0000000000000000000000000000000000000000000000000000000008152600401610461906117ba565b60405180910390fd5b60088160405161047a91906116eb565b90815260200160405180910390206000815480929190610499906115fb565b919050555060016006600084815260200190815260200160002060006101000a81548160ff02191690831515021790555060016006600084815260200190815260200160002060006101000a81548160ff0219169083151502179055156105245760008290806001815401808255809150506001900390600052602060002001600090919091909150555b5050565b60606001151560066000600354815260200190815260200160002060009054906101000a900460ff16151514610593576040517f08c379a000000000000000000000000000000000000000000000000000000000815260040161058a90611826565b60405180910390fd5b60008054806020026020016040519081016040528092919081815260200182805480156105df57602002820191906000526020600020905b8154815260200190600101908083116105cb575b5050505050905090565b60606002805480602002602001604051908101604052809291908181526020016000905b828210156106b957838290600052602060002001805461062c906114e1565b80601f0160208091040260200160405190810160405280929190818152602001828054610658906114e1565b80156106a55780601f1061067a576101008083540402835291602001916106a5565b820191906000526020600020905b81548152906001019060200180831161068857829003601f168201915b50505050508152602001906001019061060d565b50505050905090565b60606006600083815260200190815260200160002060009054906101000a900460ff16610726576040518060400160405280600f81526020017f566f74652050656e64696e672121210000000000000000000000000000000000815250905061075f565b6040518060400160405280601581526020017f5965732c596f7520616c726561647920766f746564000000000000000000000081525090505b919050565b606060006007600084815260200190815260200160002060000160076000858152602001908152602001600020600101548180546107a1906114e1565b80601f01602080910402602001604051908101604052809291908181526020018280546107cd906114e1565b801561081a5780601f106107ef5761010080835404028352916020019161081a565b820191906000526020600020905b8154815290600101906020018083116107fd57829003601f168201915b5050505050915091509150915091565b601281101561086e576040517f08c379a000000000000000000000000000000000000000000000000000000000815260040161086590611892565b60405180910390fd5b600282426040516020016108839291906118d3565b60405160208183030381529060405260405161089f9190611937565b602060405180830381855afa1580156108bc573d6000803e3d6000fd5b5050506040513d601f19601f820116820180604052508101906108df9190611963565b60038190555060405180604001604052808381526020018281525060076000600354815260200190815260200160002060008201518160000190816109249190611b3c565b5060208201518160010155905050600160056000600354815260200190815260200160002060006101000a81548160ff021916908315150217905550600160035490806001815401808255809150506001900390600052602060002001600090919091909150555050565b60606000600860026001815481106109aa576109a9611483565b5b906000526020600020016040516109c19190611c91565b908152602001604051809103902054600860026000815481106109e7576109e6611483565b5b906000526020600020016040516109fe9190611c91565b908152602001604051809103902054118015610a905750600860028081548110610a2b57610a2a611483565b5b90600052602060002001604051610a429190611c91565b90815260200160405180910390205460086002600081548110610a6857610a67611483565b5b90600052602060002001604051610a7f9190611c91565b908152602001604051809103902054115b15610b125760086002600081548110610aac57610aab611483565b5b90600052602060002001604051610ac39190611c91565b9081526020016040518091039020546040518060400160405280600c81526020017f43312069732057696e6e657200000000000000000000000000000000000000008152509091509150610e4c565b60086002600081548110610b2957610b28611483565b5b90600052602060002001604051610b409190611c91565b90815260200160405180910390205460086002600181548110610b6657610b65611483565b5b90600052602060002001604051610b7d9190611c91565b908152602001604051809103902054118015610c0f5750600860028081548110610baa57610ba9611483565b5b90600052602060002001604051610bc19190611c91565b90815260200160405180910390205460086002600181548110610be757610be6611483565b5b90600052602060002001604051610bfe9190611c91565b908152602001604051809103902054115b15610c915760086002600181548110610c2b57610c2a611483565b5b90600052602060002001604051610c429190611c91565b9081526020016040518091039020546040518060400160405280600c81526020017f43322069732057696e6e657200000000000000000000000000000000000000008152509091509150610e4c565b60086002600081548110610ca857610ca7611483565b5b90600052602060002001604051610cbf9190611c91565b908152602001604051809103902054600860028081548110610ce457610ce3611483565b5b90600052602060002001604051610cfb9190611c91565b908152602001604051809103902054118015610d8d575060086002600181548110610d2957610d28611483565b5b90600052602060002001604051610d409190611c91565b908152602001604051809103902054600860028081548110610d6557610d64611483565b5b90600052602060002001604051610d7c9190611c91565b908152602001604051809103902054115b15610e0e57600860028081548110610da857610da7611483565b5b90600052602060002001604051610dbf9190611c91565b9081526020016040518091039020546040518060400160405280600c81526020017f43332069732057696e6e657200000000000000000000000000000000000000008152509091509150610e4c565b60006040518060400160405280601281526020017f4e6f20566f74696e672048617070656e6564000000000000000000000000000081525090915091505b9091565b6000604051905090565b600080fd5b600080fd5b600080fd5b600080fd5b6000601f19601f8301169050919050565b7f4e487b7100000000000000000000000000000000000000000000000000000000600052604160045260246000fd5b610eb782610e6e565b810181811067ffffffffffffffff82111715610ed657610ed5610e7f565b5b80604052505050565b6000610ee9610e50565b9050610ef58282610eae565b919050565b600067ffffffffffffffff821115610f1557610f14610e7f565b5b610f1e82610e6e565b9050602081019050919050565b82818337600083830152505050565b6000610f4d610f4884610efa565b610edf565b905082815260208101848484011115610f6957610f68610e69565b5b610f74848285610f2b565b509392505050565b600082601f830112610f9157610f90610e64565b5b8135610fa1848260208601610f3a565b91505092915050565b600060208284031215610fc057610fbf610e5a565b5b600082013567ffffffffffffffff811115610fde57610fdd610e5f565b5b610fea84828501610f7c565b91505092915050565b60008115159050919050565b61100881610ff3565b82525050565b60006020820190506110236000830184610fff565b92915050565b6000819050919050565b61103c81611029565b82525050565b60006020820190506110576000830184611033565b92915050565b600081519050919050565b600082825260208201905092915050565b6000819050602082019050919050565b6000819050919050565b61109c81611089565b82525050565b60006110ae8383611093565b60208301905092915050565b6000602082019050919050565b60006110d28261105d565b6110dc8185611068565b93506110e783611079565b8060005b838110156111185781516110ff88826110a2565b975061110a836110ba565b9250506001810190506110eb565b5085935050505092915050565b6000602082019050818103600083015261113f81846110c7565b905092915050565b61115081611089565b811461115b57600080fd5b50565b60008135905061116d81611147565b92915050565b6000806040838503121561118a57611189610e5a565b5b60006111988582860161115e565b925050602083013567ffffffffffffffff8111156111b9576111b8610e5f565b5b6111c585828601610f7c565b9150509250929050565b600081519050919050565b600082825260208201905092915050565b6000819050602082019050919050565b600081519050919050565b600082825260208201905092915050565b60005b8381101561123557808201518184015260208101905061121a565b60008484015250505050565b600061124c826111fb565b6112568185611206565b9350611266818560208601611217565b61126f81610e6e565b840191505092915050565b60006112868383611241565b905092915050565b6000602082019050919050565b60006112a6826111cf565b6112b081856111da565b9350836020820285016112c2856111eb565b8060005b858110156112fe57848403895281516112df858261127a565b94506112ea8361128e565b925060208a019950506001810190506112c6565b50829750879550505050505092915050565b6000602082019050818103600083015261132a818461129b565b905092915050565b60006020828403121561134857611347610e5a565b5b60006113568482850161115e565b91505092915050565b600082825260208201905092915050565b600061137b826111fb565b611385818561135f565b9350611395818560208601611217565b61139e81610e6e565b840191505092915050565b600060208201905081810360008301526113c38184611370565b905092915050565b600060408201905081810360008301526113e58185611370565b90506113f46020830184611033565b9392505050565b61140481611029565b811461140f57600080fd5b50565b600081359050611421816113fb565b92915050565b6000806040838503121561143e5761143d610e5a565b5b600083013567ffffffffffffffff81111561145c5761145b610e5f565b5b61146885828601610f7c565b925050602061147985828601611412565b9150509250929050565b7f4e487b7100000000000000000000000000000000000000000000000000000000600052603260045260246000fd5b7f4e487b7100000000000000000000000000000000000000000000000000000000600052602260045260246000fd5b600060028204905060018216806114f957607f821691505b60208210810361150c5761150b6114b2565b5b50919050565b600081905092915050565b60008190508160005260206000209050919050565b6000815461153f816114e1565b6115498186611512565b945060018216600081146115645760018114611579576115ac565b60ff19831686528115158202860193506115ac565b6115828561151d565b60005b838110156115a457815481890152600182019150602081019050611585565b838801955050505b50505092915050565b60006115c18284611532565b915081905092915050565b7f4e487b7100000000000000000000000000000000000000000000000000000000600052601160045260246000fd5b600061160682611029565b91507fffffffffffffffffffffffffffffffffffffffffffffffffffffffffffffffff8203611638576116376115cc565b5b600182019050919050565b7f496e76616c69642043616e646964617465000000000000000000000000000000600082015250565b600061167960118361135f565b915061168482611643565b602082019050919050565b600060208201905081810360008301526116a88161166c565b9050919050565b600081905092915050565b60006116c5826111fb565b6116cf81856116af565b93506116df818560208601611217565b80840191505092915050565b60006116f782846116ba565b915081905092915050565b7f596f7520617265206e6f7420566f746572000000000000000000000000000000600082015250565b600061173860118361135f565b915061174382611702565b602082019050919050565b600060208201905081810360008301526117678161172b565b9050919050565b7f616c726561647920766f74656400000000000000000000000000000000000000600082015250565b60006117a4600d8361135f565b91506117af8261176e565b602082019050919050565b600060208201905081810360008301526117d381611797565b9050919050565b7f4e6f20566f746572730000000000000000000000000000000000000000000000600082015250565b600061181060098361135f565b915061181b826117da565b602082019050919050565b6000602082019050818103600083015261183f81611803565b9050919050565b7f416765206d7573742062652067726561746572207468616e2031380000000000600082015250565b600061187c601b8361135f565b915061188782611846565b602082019050919050565b600060208201905081810360008301526118ab8161186f565b9050919050565b6000819050919050565b6118cd6118c882611029565b6118b2565b82525050565b60006118df82856116ba565b91506118eb82846118bc565b6020820191508190509392505050565b600081519050919050565b6000611911826118fb565b61191b8185611512565b935061192b818560208601611217565b80840191505092915050565b60006119438284611906565b915081905092915050565b60008151905061195d81611147565b92915050565b60006020828403121561197957611978610e5a565b5b60006119878482850161194e565b91505092915050565b60008190508160005260206000209050919050565b60006020601f8301049050919050565b600082821b905092915050565b6000600883026119f27fffffffffffffffffffffffffffffffffffffffffffffffffffffffffffffffff826119b5565b6119fc86836119b5565b95508019841693508086168417925050509392505050565b6000819050919050565b6000611a39611a34611a2f84611029565b611a14565b611029565b9050919050565b6000819050919050565b611a5383611a1e565b611a67611a5f82611a40565b8484546119c2565b825550505050565b600090565b611a7c611a6f565b611a87818484611a4a565b505050565b5b81811015611aab57611aa0600082611a74565b600181019050611a8d565b5050565b601f821115611af057611ac181611990565b611aca846119a5565b81016020851015611ad9578190505b611aed611ae5856119a5565b830182611a8c565b50505b505050565b600082821c905092915050565b6000611b1360001984600802611af5565b1980831691505092915050565b6000611b2c8383611b02565b9150826002028217905092915050565b611b45826111fb565b67ffffffffffffffff811115611b5e57611b5d610e7f565b5b611b6882546114e1565b611b73828285611aaf565b600060209050601f831160018114611ba65760008415611b94578287015190505b611b9e8582611b20565b865550611c06565b601f198416611bb486611990565b60005b82811015611bdc57848901518255600182019150602085019450602081019050611bb7565b86831015611bf95784890151611bf5601f891682611b02565b8355505b6001600288020188555050505b505050505050565b60008154611c1b816114e1565b611c2581866116af565b94506001821660008114611c405760018114611c5557611c88565b60ff1983168652811515820286019350611c88565b611c5e85611990565b60005b83811015611c8057815481890152600182019150602081019050611c61565b838801955050505b50505092915050565b6000611c9d8284611c0e565b91508190509291505056fea2646970667358221220093e8e738d0792dc5df61020593324cf52b632c389425efd0302231ba5d2e80f64736f6c63430008130033",
					"opcodes": "PUSH1 0x80 PUSH1 0x40 MSTORE PUSH1 0x40 MLOAD DUP1 PUSH1 0x60 ADD PUSH1 0x40 MSTORE DUP1 PUSH1 0x40 MLOAD DUP1 PUSH1 0x40 ADD PUSH1 0x40 MSTORE DUP1 PUSH1 0x2 DUP2 MSTORE PUSH1 0x20 ADD PUSH32 0x6331000000000000000000000000000000000000000000000000000000000000 DUP2 MSTORE POP DUP2 MSTORE PUSH1 0x20 ADD PUSH1 0x40 MLOAD DUP1 PUSH1 0x40 ADD PUSH1 0x40 MSTORE DUP1 PUSH1 0x2 DUP2 MSTORE PUSH1 0x20 ADD PUSH32 0x6332000000000000000000000000000000000000000000000000000000000000 DUP2 MSTORE POP DUP2 MSTORE PUSH1 0x20 ADD PUSH1 0x40 MLOAD DUP1 PUSH1 0x40 ADD PUSH1 0x40 MSTORE DUP1 PUSH1 0x2 DUP2 MSTORE PUSH1 0x20 ADD PUSH32 0x6333000000000000000000000000000000000000000000000000000000000000 DUP2 MSTORE POP DUP2 MSTORE POP PUSH1 0x2 SWAP1 PUSH1 0x3 PUSH3 0xD0 SWAP3 SWAP2 SWAP1 PUSH3 0xE5 JUMP JUMPDEST POP CALLVALUE DUP1 ISZERO PUSH3 0xDE JUMPI PUSH1 0x0 DUP1 REVERT JUMPDEST POP PUSH3 0x533 JUMP JUMPDEST DUP3 DUP1 SLOAD DUP3 DUP3 SSTORE SWAP1 PUSH1 0x0 MSTORE PUSH1 0x20 PUSH1 0x0 KECCAK256 SWAP1 DUP2 ADD SWAP3 DUP3 ISZERO PUSH3 0x132 JUMPI SWAP2 PUSH1 0x20 MUL DUP3 ADD JUMPDEST DUP3 DUP2 GT ISZERO PUSH3 0x131 JUMPI DUP3 MLOAD DUP3 SWAP1 DUP2 PUSH3 0x120 SWAP2 SWAP1 PUSH3 0x44C JUMP JUMPDEST POP SWAP2 PUSH1 0x20 ADD SWAP2 SWAP1 PUSH1 0x1 ADD SWAP1 PUSH3 0x106 JUMP JUMPDEST JUMPDEST POP SWAP1 POP PUSH3 0x141 SWAP2 SWAP1 PUSH3 0x145 JUMP JUMPDEST POP SWAP1 JUMP JUMPDEST JUMPDEST DUP1 DUP3 GT ISZERO PUSH3 0x169 JUMPI PUSH1 0x0 DUP2 DUP2 PUSH3 0x15F SWAP2 SWAP1 PUSH3 0x16D JUMP JUMPDEST POP PUSH1 0x1 ADD PUSH3 0x146 JUMP JUMPDEST POP SWAP1 JUMP JUMPDEST POP DUP1 SLOAD PUSH3 0x17B SWAP1 PUSH3 0x23B JUMP JUMPDEST PUSH1 0x0 DUP3 SSTORE DUP1 PUSH1 0x1F LT PUSH3 0x18F JUMPI POP PUSH3 0x1B0 JUMP JUMPDEST PUSH1 0x1F ADD PUSH1 0x20 SWAP1 DIV SWAP1 PUSH1 0x0 MSTORE PUSH1 0x20 PUSH1 0x0 KECCAK256 SWAP1 DUP2 ADD SWAP1 PUSH3 0x1AF SWAP2 SWAP1 PUSH3 0x1B3 JUMP JUMPDEST JUMPDEST POP JUMP JUMPDEST JUMPDEST DUP1 DUP3 GT ISZERO PUSH3 0x1CE JUMPI PUSH1 0x0 DUP2 PUSH1 0x0 SWAP1 SSTORE POP PUSH1 0x1 ADD PUSH3 0x1B4 JUMP JUMPDEST POP SWAP1 JUMP JUMPDEST PUSH1 0x0 DUP2 MLOAD SWAP1 POP SWAP2 SWAP1 POP JUMP JUMPDEST PUSH32 0x4E487B7100000000000000000000000000000000000000000000000000000000 PUSH1 0x0 MSTORE PUSH1 0x41 PUSH1 0x4 MSTORE PUSH1 0x24 PUSH1 0x0 REVERT JUMPDEST PUSH32 0x4E487B7100000000000000000000000000000000000000000000000000000000 PUSH1 0x0 MSTORE PUSH1 0x22 PUSH1 0x4 MSTORE PUSH1 0x24 PUSH1 0x0 REVERT JUMPDEST PUSH1 0x0 PUSH1 0x2 DUP3 DIV SWAP1 POP PUSH1 0x1 DUP3 AND DUP1 PUSH3 0x254 JUMPI PUSH1 0x7F DUP3 AND SWAP2 POP JUMPDEST PUSH1 0x20 DUP3 LT DUP2 SUB PUSH3 0x26A JUMPI PUSH3 0x269 PUSH3 0x20C JUMP JUMPDEST JUMPDEST POP SWAP2 SWAP1 POP JUMP JUMPDEST PUSH1 0x0 DUP2 SWAP1 POP DUP2 PUSH1 0x0 MSTORE PUSH1 0x20 PUSH1 0x0 KECCAK256 SWAP1 POP SWAP2 SWAP1 POP JUMP JUMPDEST PUSH1 0x0 PUSH1 0x20 PUSH1 0x1F DUP4 ADD DIV SWAP1 POP SWAP2 SWAP1 POP JUMP JUMPDEST PUSH1 0x0 DUP3 DUP3 SHL SWAP1 POP SWAP3 SWAP2 POP POP JUMP JUMPDEST PUSH1 0x0 PUSH1 0x8 DUP4 MUL PUSH3 0x2D4 PUSH32 0xFFFFFFFFFFFFFFFFFFFFFFFFFFFFFFFFFFFFFFFFFFFFFFFFFFFFFFFFFFFFFFFF DUP3 PUSH3 0x295 JUMP JUMPDEST PUSH3 0x2E0 DUP7 DUP4 PUSH3 0x295 JUMP JUMPDEST SWAP6 POP DUP1 NOT DUP5 AND SWAP4 POP DUP1 DUP7 AND DUP5 OR SWAP3 POP POP POP SWAP4 SWAP3 POP POP POP JUMP JUMPDEST PUSH1 0x0 DUP2 SWAP1 POP SWAP2 SWAP1 POP JUMP JUMPDEST PUSH1 0x0 DUP2 SWAP1 POP SWAP2 SWAP1 POP JUMP JUMPDEST PUSH1 0x0 PUSH3 0x32D PUSH3 0x327 PUSH3 0x321 DUP5 PUSH3 0x2F8 JUMP JUMPDEST PUSH3 0x302 JUMP JUMPDEST PUSH3 0x2F8 JUMP JUMPDEST SWAP1 POP SWAP2 SWAP1 POP JUMP JUMPDEST PUSH1 0x0 DUP2 SWAP1 POP SWAP2 SWAP1 POP JUMP JUMPDEST PUSH3 0x349 DUP4 PUSH3 0x30C JUMP JUMPDEST PUSH3 0x361 PUSH3 0x358 DUP3 PUSH3 0x334 JUMP JUMPDEST DUP5 DUP5 SLOAD PUSH3 0x2A2 JUMP JUMPDEST DUP3 SSTORE POP POP POP POP JUMP JUMPDEST PUSH1 0x0 SWAP1 JUMP JUMPDEST PUSH3 0x378 PUSH3 0x369 JUMP JUMPDEST PUSH3 0x385 DUP2 DUP5 DUP5 PUSH3 0x33E JUMP JUMPDEST POP POP POP JUMP JUMPDEST JUMPDEST DUP2 DUP2 LT ISZERO PUSH3 0x3AD JUMPI PUSH3 0x3A1 PUSH1 0x0 DUP3 PUSH3 0x36E JUMP JUMPDEST PUSH1 0x1 DUP2 ADD SWAP1 POP PUSH3 0x38B JUMP JUMPDEST POP POP JUMP JUMPDEST PUSH1 0x1F DUP3 GT ISZERO PUSH3 0x3FC JUMPI PUSH3 0x3C6 DUP2 PUSH3 0x270 JUMP JUMPDEST PUSH3 0x3D1 DUP5 PUSH3 0x285 JUMP JUMPDEST DUP2 ADD PUSH1 0x20 DUP6 LT ISZERO PUSH3 0x3E1 JUMPI DUP2 SWAP1 POP JUMPDEST PUSH3 0x3F9 PUSH3 0x3F0 DUP6 PUSH3 0x285 JUMP JUMPDEST DUP4 ADD DUP3 PUSH3 0x38A JUMP JUMPDEST POP POP JUMPDEST POP POP POP JUMP JUMPDEST PUSH1 0x0 DUP3 DUP3 SHR SWAP1 POP SWAP3 SWAP2 POP POP JUMP JUMPDEST PUSH1 0x0 PUSH3 0x421 PUSH1 0x0 NOT DUP5 PUSH1 0x8 MUL PUSH3 0x401 JUMP JUMPDEST NOT DUP1 DUP4 AND SWAP2 POP POP SWAP3 SWAP2 POP POP JUMP JUMPDEST PUSH1 0x0 PUSH3 0x43C DUP4 DUP4 PUSH3 0x40E JUMP JUMPDEST SWAP2 POP DUP3 PUSH1 0x2 MUL DUP3 OR SWAP1 POP SWAP3 SWAP2 POP POP JUMP JUMPDEST PUSH3 0x457 DUP3 PUSH3 0x1D2 JUMP JUMPDEST PUSH8 0xFFFFFFFFFFFFFFFF DUP2 GT ISZERO PUSH3 0x473 JUMPI PUSH3 0x472 PUSH3 0x1DD JUMP JUMPDEST JUMPDEST PUSH3 0x47F DUP3 SLOAD PUSH3 0x23B JUMP JUMPDEST PUSH3 0x48C DUP3 DUP3 DUP6 PUSH3 0x3B1 JUMP JUMPDEST PUSH1 0x0 PUSH1 0x20 SWAP1 POP PUSH1 0x1F DUP4 GT PUSH1 0x1 DUP2 EQ PUSH3 0x4C4 JUMPI PUSH1 0x0 DUP5 ISZERO PUSH3 0x4AF JUMPI DUP3 DUP8 ADD MLOAD SWAP1 POP JUMPDEST PUSH3 0x4BB DUP6 DUP3 PUSH3 0x42E JUMP JUMPDEST DUP7 SSTORE POP PUSH3 0x52B JUMP JUMPDEST PUSH1 0x1F NOT DUP5 AND PUSH3 0x4D4 DUP7 PUSH3 0x270 JUMP JUMPDEST PUSH1 0x0 JUMPDEST DUP3 DUP2 LT ISZERO PUSH3 0x4FE JUMPI DUP5 DUP10 ADD MLOAD DUP3 SSTORE PUSH1 0x1 DUP3 ADD SWAP2 POP PUSH1 0x20 DUP6 ADD SWAP5 POP PUSH1 0x20 DUP2 ADD SWAP1 POP PUSH3 0x4D7 JUMP JUMPDEST DUP7 DUP4 LT ISZERO PUSH3 0x51E JUMPI DUP5 DUP10 ADD MLOAD PUSH3 0x51A PUSH1 0x1F DUP10 AND DUP3 PUSH3 0x40E JUMP JUMPDEST DUP4 SSTORE POP JUMPDEST PUSH1 0x1 PUSH1 0x2 DUP9 MUL ADD DUP9 SSTORE POP POP POP JUMPDEST POP POP POP POP POP POP JUMP JUMPDEST PUSH2 0x1CDE DUP1 PUSH3 0x543 PUSH1 0x0 CODECOPY PUSH1 0x0 RETURN INVALID PUSH1 0x80 PUSH1 0x40 MSTORE CALLVALUE DUP1 ISZERO PUSH2 0x10 JUMPI PUSH1 0x0 DUP1 REVERT JUMPDEST POP PUSH1 0x4 CALLDATASIZE LT PUSH2 0x9E JUMPI PUSH1 0x0 CALLDATALOAD PUSH1 0xE0 SHR DUP1 PUSH4 0x6A59E50C GT PUSH2 0x66 JUMPI DUP1 PUSH4 0x6A59E50C EQ PUSH2 0x15B JUMPI DUP1 PUSH4 0x6E4AED4F EQ PUSH2 0x179 JUMPI DUP1 PUSH4 0x7E46DE41 EQ PUSH2 0x1A9 JUMPI DUP1 PUSH4 0x905CCDBE EQ PUSH2 0x1DA JUMPI DUP1 PUSH4 0x9FA5E685 EQ PUSH2 0x1F6 JUMPI PUSH2 0x9E JUMP JUMPDEST DUP1 PUSH4 0x140B74A EQ PUSH2 0xA3 JUMPI DUP1 PUSH4 0x66FF640 EQ PUSH2 0xD3 JUMPI DUP1 PUSH4 0xC8AFDF4 EQ PUSH2 0x103 JUMPI DUP1 PUSH4 0x269558E8 EQ PUSH2 0x121 JUMPI DUP1 PUSH4 0x490408D4 EQ PUSH2 0x13D JUMPI JUMPDEST PUSH1 0x0 DUP1 REVERT JUMPDEST PUSH2 0xBD PUSH1 0x4 DUP1 CALLDATASIZE SUB DUP2 ADD SWAP1 PUSH2 0xB8 SWAP2 SWAP1 PUSH2 0xFAA JUMP JUMPDEST PUSH2 0x215 JUMP JUMPDEST PUSH1 0x40 MLOAD PUSH2 0xCA SWAP2 SWAP1 PUSH2 0x100E JUMP JUMPDEST PUSH1 0x40 MLOAD DUP1 SWAP2 SUB SWAP1 RETURN JUMPDEST PUSH2 0xED PUSH1 0x4 DUP1 CALLDATASIZE SUB DUP2 ADD SWAP1 PUSH2 0xE8 SWAP2 SWAP1 PUSH2 0xFAA JUMP JUMPDEST PUSH2 0x292 JUMP JUMPDEST PUSH1 0x40 MLOAD PUSH2 0xFA SWAP2 SWAP1 PUSH2 0x1042 JUMP JUMPDEST PUSH1 0x40 MLOAD DUP1 SWAP2 SUB SWAP1 RETURN JUMPDEST PUSH2 0x10B PUSH2 0x302 JUMP JUMPDEST PUSH1 0x40 MLOAD PUSH2 0x118 SWAP2 SWAP1 PUSH2 0x1125 JUMP JUMPDEST PUSH1 0x40 MLOAD DUP1 SWAP2 SUB SWAP1 RETURN JUMPDEST PUSH2 0x13B PUSH1 0x4 DUP1 CALLDATASIZE SUB DUP2 ADD SWAP1 PUSH2 0x136 SWAP2 SWAP1 PUSH2 0x1173 JUMP JUMPDEST PUSH2 0x35A JUMP JUMPDEST STOP JUMPDEST PUSH2 0x145 PUSH2 0x528 JUMP JUMPDEST PUSH1 0x40 MLOAD PUSH2 0x152 SWAP2 SWAP1 PUSH2 0x1125 JUMP JUMPDEST PUSH1 0x40 MLOAD DUP1 SWAP2 SUB SWAP1 RETURN JUMPDEST PUSH2 0x163 PUSH2 0x5E9 JUMP JUMPDEST PUSH1 0x40 MLOAD PUSH2 0x170 SWAP2 SWAP1 PUSH2 0x1310 JUMP JUMPDEST PUSH1 0x40 MLOAD DUP1 SWAP2 SUB SWAP1 RETURN JUMPDEST PUSH2 0x193 PUSH1 0x4 DUP1 CALLDATASIZE SUB DUP2 ADD SWAP1 PUSH2 0x18E SWAP2 SWAP1 PUSH2 0x1332 JUMP JUMPDEST PUSH2 0x6C2 JUMP JUMPDEST PUSH1 0x40 MLOAD PUSH2 0x1A0 SWAP2 SWAP1 PUSH2 0x13A9 JUMP JUMPDEST PUSH1 0x40 MLOAD DUP1 SWAP2 SUB SWAP1 RETURN JUMPDEST PUSH2 0x1C3 PUSH1 0x4 DUP1 CALLDATASIZE SUB DUP2 ADD SWAP1 PUSH2 0x1BE SWAP2 SWAP1 PUSH2 0x1332 JUMP JUMPDEST PUSH2 0x764 JUMP JUMPDEST PUSH1 0x40 MLOAD PUSH2 0x1D1 SWAP3 SWAP2 SWAP1 PUSH2 0x13CB JUMP JUMPDEST PUSH1 0x40 MLOAD DUP1 SWAP2 SUB SWAP1 RETURN JUMPDEST PUSH2 0x1F4 PUSH1 0x4 DUP1 CALLDATASIZE SUB DUP2 ADD SWAP1 PUSH2 0x1EF SWAP2 SWAP1 PUSH2 0x1427 JUMP JUMPDEST PUSH2 0x82A JUMP JUMPDEST STOP JUMPDEST PUSH2 0x1FE PUSH2 0x98F JUMP JUMPDEST PUSH1 0x40 MLOAD PUSH2 0x20C SWAP3 SWAP2 SWAP1 PUSH2 0x13CB JUMP JUMPDEST PUSH1 0x40 MLOAD DUP1 SWAP2 SUB SWAP1 RETURN JUMPDEST PUSH1 0x0 DUP1 PUSH1 0x0 SWAP1 POP JUMPDEST PUSH1 0x2 DUP1 SLOAD SWAP1 POP DUP2 LT ISZERO PUSH2 0x287 JUMPI DUP3 DUP1 MLOAD SWAP1 PUSH1 0x20 ADD KECCAK256 PUSH1 0x2 DUP3 DUP2 SLOAD DUP2 LT PUSH2 0x246 JUMPI PUSH2 0x245 PUSH2 0x1483 JUMP JUMPDEST JUMPDEST SWAP1 PUSH1 0x0 MSTORE PUSH1 0x20 PUSH1 0x0 KECCAK256 ADD PUSH1 0x40 MLOAD PUSH2 0x25D SWAP2 SWAP1 PUSH2 0x15B5 JUMP JUMPDEST PUSH1 0x40 MLOAD DUP1 SWAP2 SUB SWAP1 KECCAK256 SUB PUSH2 0x274 JUMPI PUSH1 0x1 SWAP2 POP POP PUSH2 0x28D JUMP JUMPDEST DUP1 DUP1 PUSH2 0x27F SWAP1 PUSH2 0x15FB JUMP JUMPDEST SWAP2 POP POP PUSH2 0x21D JUMP JUMPDEST POP PUSH1 0x0 SWAP1 POP JUMPDEST SWAP2 SWAP1 POP JUMP JUMPDEST PUSH1 0x0 PUSH2 0x29D DUP3 PUSH2 0x215 JUMP JUMPDEST PUSH2 0x2DC JUMPI PUSH1 0x40 MLOAD PUSH32 0x8C379A000000000000000000000000000000000000000000000000000000000 DUP2 MSTORE PUSH1 0x4 ADD PUSH2 0x2D3 SWAP1 PUSH2 0x168F JUMP JUMPDEST PUSH1 0x40 MLOAD DUP1 SWAP2 SUB SWAP1 REVERT JUMPDEST PUSH1 0x8 DUP3 PUSH1 0x40 MLOAD PUSH2 0x2EC SWAP2 SWAP1 PUSH2 0x16EB JUMP JUMPDEST SWAP1 DUP2 MSTORE PUSH1 0x20 ADD PUSH1 0x40 MLOAD DUP1 SWAP2 SUB SWAP1 KECCAK256 SLOAD SWAP1 POP SWAP2 SWAP1 POP JUMP JUMPDEST PUSH1 0x60 PUSH1 0x1 DUP1 SLOAD DUP1 PUSH1 0x20 MUL PUSH1 0x20 ADD PUSH1 0x40 MLOAD SWAP1 DUP2 ADD PUSH1 0x40 MSTORE DUP1 SWAP3 SWAP2 SWAP1 DUP2 DUP2 MSTORE PUSH1 0x20 ADD DUP3 DUP1 SLOAD DUP1 ISZERO PUSH2 0x350 JUMPI PUSH1 0x20 MUL DUP3 ADD SWAP2 SWAP1 PUSH1 0x0 MSTORE PUSH1 0x20 PUSH1 0x0 KECCAK256 SWAP1 JUMPDEST DUP2 SLOAD DUP2 MSTORE PUSH1 0x20 ADD SWAP1 PUSH1 0x1 ADD SWAP1 DUP1 DUP4 GT PUSH2 0x33C JUMPI JUMPDEST POP POP POP POP POP SWAP1 POP SWAP1 JUMP JUMPDEST PUSH1 0x1 ISZERO ISZERO PUSH1 0x5 PUSH1 0x0 DUP5 DUP2 MSTORE PUSH1 0x20 ADD SWAP1 DUP2 MSTORE PUSH1 0x20 ADD PUSH1 0x0 KECCAK256 PUSH1 0x0 SWAP1 SLOAD SWAP1 PUSH2 0x100 EXP SWAP1 DIV PUSH1 0xFF AND ISZERO ISZERO EQ PUSH2 0x3C1 JUMPI PUSH1 0x40 MLOAD PUSH32 0x8C379A000000000000000000000000000000000000000000000000000000000 DUP2 MSTORE PUSH1 0x4 ADD PUSH2 0x3B8 SWAP1 PUSH2 0x174E JUMP JUMPDEST PUSH1 0x40 MLOAD DUP1 SWAP2 SUB SWAP1 REVERT JUMPDEST PUSH2 0x3CA DUP2 PUSH2 0x215 JUMP JUMPDEST PUSH2 0x409 JUMPI PUSH1 0x40 MLOAD PUSH32 0x8C379A000000000000000000000000000000000000000000000000000000000 DUP2 MSTORE PUSH1 0x4 ADD PUSH2 0x400 SWAP1 PUSH2 0x168F JUMP JUMPDEST PUSH1 0x40 MLOAD DUP1 SWAP2 SUB SWAP1 REVERT JUMPDEST PUSH1 0x6 PUSH1 0x0 DUP4 DUP2 MSTORE PUSH1 0x20 ADD SWAP1 DUP2 MSTORE PUSH1 0x20 ADD PUSH1 0x0 KECCAK256 PUSH1 0x0 SWAP1 SLOAD SWAP1 PUSH2 0x100 EXP SWAP1 DIV PUSH1 0xFF AND ISZERO PUSH2 0x46A JUMPI PUSH1 0x40 MLOAD PUSH32 0x8C379A000000000000000000000000000000000000000000000000000000000 DUP2 MSTORE PUSH1 0x4 ADD PUSH2 0x461 SWAP1 PUSH2 0x17BA JUMP JUMPDEST PUSH1 0x40 MLOAD DUP1 SWAP2 SUB SWAP1 REVERT JUMPDEST PUSH1 0x8 DUP2 PUSH1 0x40 MLOAD PUSH2 0x47A SWAP2 SWAP1 PUSH2 0x16EB JUMP JUMPDEST SWAP1 DUP2 MSTORE PUSH1 0x20 ADD PUSH1 0x40 MLOAD DUP1 SWAP2 SUB SWAP1 KECCAK256 PUSH1 0x0 DUP2 SLOAD DUP1 SWAP3 SWAP2 SWAP1 PUSH2 0x499 SWAP1 PUSH2 0x15FB JUMP JUMPDEST SWAP2 SWAP1 POP SSTORE POP PUSH1 0x1 PUSH1 0x6 PUSH1 0x0 DUP5 DUP2 MSTORE PUSH1 0x20 ADD SWAP1 DUP2 MSTORE PUSH1 0x20 ADD PUSH1 0x0 KECCAK256 PUSH1 0x0 PUSH2 0x100 EXP DUP2 SLOAD DUP2 PUSH1 0xFF MUL NOT AND SWAP1 DUP4 ISZERO ISZERO MUL OR SWAP1 SSTORE POP PUSH1 0x1 PUSH1 0x6 PUSH1 0x0 DUP5 DUP2 MSTORE PUSH1 0x20 ADD SWAP1 DUP2 MSTORE PUSH1 0x20 ADD PUSH1 0x0 KECCAK256 PUSH1 0x0 PUSH2 0x100 EXP DUP2 SLOAD DUP2 PUSH1 0xFF MUL NOT AND SWAP1 DUP4 ISZERO ISZERO MUL OR SWAP1 SSTORE ISZERO PUSH2 0x524 JUMPI PUSH1 0x0 DUP3 SWAP1 DUP1 PUSH1 0x1 DUP2 SLOAD ADD DUP1 DUP3 SSTORE DUP1 SWAP2 POP POP PUSH1 0x1 SWAP1 SUB SWAP1 PUSH1 0x0 MSTORE PUSH1 0x20 PUSH1 0x0 KECCAK256 ADD PUSH1 0x0 SWAP1 SWAP2 SWAP1 SWAP2 SWAP1 SWAP2 POP SSTORE JUMPDEST POP POP JUMP JUMPDEST PUSH1 0x60 PUSH1 0x1 ISZERO ISZERO PUSH1 0x6 PUSH1 0x0 PUSH1 0x3 SLOAD DUP2 MSTORE PUSH1 0x20 ADD SWAP1 DUP2 MSTORE PUSH1 0x20 ADD PUSH1 0x0 KECCAK256 PUSH1 0x0 SWAP1 SLOAD SWAP1 PUSH2 0x100 EXP SWAP1 DIV PUSH1 0xFF AND ISZERO ISZERO EQ PUSH2 0x593 JUMPI PUSH1 0x40 MLOAD PUSH32 0x8C379A000000000000000000000000000000000000000000000000000000000 DUP2 MSTORE PUSH1 0x4 ADD PUSH2 0x58A SWAP1 PUSH2 0x1826 JUMP JUMPDEST PUSH1 0x40 MLOAD DUP1 SWAP2 SUB SWAP1 REVERT JUMPDEST PUSH1 0x0 DUP1 SLOAD DUP1 PUSH1 0x20 MUL PUSH1 0x20 ADD PUSH1 0x40 MLOAD SWAP1 DUP2 ADD PUSH1 0x40 MSTORE DUP1 SWAP3 SWAP2 SWAP1 DUP2 DUP2 MSTORE PUSH1 0x20 ADD DUP3 DUP1 SLOAD DUP1 ISZERO PUSH2 0x5DF JUMPI PUSH1 0x20 MUL DUP3 ADD SWAP2 SWAP1 PUSH1 0x0 MSTORE PUSH1 0x20 PUSH1 0x0 KECCAK256 SWAP1 JUMPDEST DUP2 SLOAD DUP2 MSTORE PUSH1 0x20 ADD SWAP1 PUSH1 0x1 ADD SWAP1 DUP1 DUP4 GT PUSH2 0x5CB JUMPI JUMPDEST POP POP POP POP POP SWAP1 POP SWAP1 JUMP JUMPDEST PUSH1 0x60 PUSH1 0x2 DUP1 SLOAD DUP1 PUSH1 0x20 MUL PUSH1 0x20 ADD PUSH1 0x40 MLOAD SWAP1 DUP2 ADD PUSH1 0x40 MSTORE DUP1 SWAP3 SWAP2 SWAP1 DUP2 DUP2 MSTORE PUSH1 0x20 ADD PUSH1 0x0 SWAP1 JUMPDEST DUP3 DUP3 LT ISZERO PUSH2 0x6B9 JUMPI DUP4 DUP3 SWAP1 PUSH1 0x0 MSTORE PUSH1 0x20 PUSH1 0x0 KECCAK256 ADD DUP1 SLOAD PUSH2 0x62C SWAP1 PUSH2 0x14E1 JUMP JUMPDEST DUP1 PUSH1 0x1F ADD PUSH1 0x20 DUP1 SWAP2 DIV MUL PUSH1 0x20 ADD PUSH1 0x40 MLOAD SWAP1 DUP2 ADD PUSH1 0x40 MSTORE DUP1 SWAP3 SWAP2 SWAP1 DUP2 DUP2 MSTORE PUSH1 0x20 ADD DUP3 DUP1 SLOAD PUSH2 0x658 SWAP1 PUSH2 0x14E1 JUMP JUMPDEST DUP1 ISZERO PUSH2 0x6A5 JUMPI DUP1 PUSH1 0x1F LT PUSH2 0x67A JUMPI PUSH2 0x100 DUP1 DUP4 SLOAD DIV MUL DUP4 MSTORE SWAP2 PUSH1 0x20 ADD SWAP2 PUSH2 0x6A5 JUMP JUMPDEST DUP3 ADD SWAP2 SWAP1 PUSH1 0x0 MSTORE PUSH1 0x20 PUSH1 0x0 KECCAK256 SWAP1 JUMPDEST DUP2 SLOAD DUP2 MSTORE SWAP1 PUSH1 0x1 ADD SWAP1 PUSH1 0x20 ADD DUP1 DUP4 GT PUSH2 0x688 JUMPI DUP3 SWAP1 SUB PUSH1 0x1F AND DUP3 ADD SWAP2 JUMPDEST POP POP POP POP POP DUP2 MSTORE PUSH1 0x20 ADD SWAP1 PUSH1 0x1 ADD SWAP1 PUSH2 0x60D JUMP JUMPDEST POP POP POP POP SWAP1 POP SWAP1 JUMP JUMPDEST PUSH1 0x60 PUSH1 0x6 PUSH1 0x0 DUP4 DUP2 MSTORE PUSH1 0x20 ADD SWAP1 DUP2 MSTORE PUSH1 0x20 ADD PUSH1 0x0 KECCAK256 PUSH1 0x0 SWAP1 SLOAD SWAP1 PUSH2 0x100 EXP SWAP1 DIV PUSH1 0xFF AND PUSH2 0x726 JUMPI PUSH1 0x40 MLOAD DUP1 PUSH1 0x40 ADD PUSH1 0x40 MSTORE DUP1 PUSH1 0xF DUP2 MSTORE PUSH1 0x20 ADD PUSH32 0x566F74652050656E64696E672121210000000000000000000000000000000000 DUP2 MSTORE POP SWAP1 POP PUSH2 0x75F JUMP JUMPDEST PUSH1 0x40 MLOAD DUP1 PUSH1 0x40 ADD PUSH1 0x40 MSTORE DUP1 PUSH1 0x15 DUP2 MSTORE PUSH1 0x20 ADD PUSH32 0x5965732C596F7520616C726561647920766F7465640000000000000000000000 DUP2 MSTORE POP SWAP1 POP JUMPDEST SWAP2 SWAP1 POP JUMP JUMPDEST PUSH1 0x60 PUSH1 0x0 PUSH1 0x7 PUSH1 0x0 DUP5 DUP2 MSTORE PUSH1 0x20 ADD SWAP1 DUP2 MSTORE PUSH1 0x20 ADD PUSH1 0x0 KECCAK256 PUSH1 0x0 ADD PUSH1 0x7 PUSH1 0x0 DUP6 DUP2 MSTORE PUSH1 0x20 ADD SWAP1 DUP2 MSTORE PUSH1 0x20 ADD PUSH1 0x0 KECCAK256 PUSH1 0x1 ADD SLOAD DUP2 DUP1 SLOAD PUSH2 0x7A1 SWAP1 PUSH2 0x14E1 JUMP JUMPDEST DUP1 PUSH1 0x1F ADD PUSH1 0x20 DUP1 SWAP2 DIV MUL PUSH1 0x20 ADD PUSH1 0x40 MLOAD SWAP1 DUP2 ADD PUSH1 0x40 MSTORE DUP1 SWAP3 SWAP2 SWAP1 DUP2 DUP2 MSTORE PUSH1 0x20 ADD DUP3 DUP1 SLOAD PUSH2 0x7CD SWAP1 PUSH2 0x14E1 JUMP JUMPDEST DUP1 ISZERO PUSH2 0x81A JUMPI DUP1 PUSH1 0x1F LT PUSH2 0x7EF JUMPI PUSH2 0x100 DUP1 DUP4 SLOAD DIV MUL DUP4 MSTORE SWAP2 PUSH1 0x20 ADD SWAP2 PUSH2 0x81A JUMP JUMPDEST DUP3 ADD SWAP2 SWAP1 PUSH1 0x0 MSTORE PUSH1 0x20 PUSH1 0x0 KECCAK256 SWAP1 JUMPDEST DUP2 SLOAD DUP2 MSTORE SWAP1 PUSH1 0x1 ADD SWAP1 PUSH1 0x20 ADD DUP1 DUP4 GT PUSH2 0x7FD JUMPI DUP3 SWAP1 SUB PUSH1 0x1F AND DUP3 ADD SWAP2 JUMPDEST POP POP POP POP POP SWAP2 POP SWAP2 POP SWAP2 POP SWAP2 POP SWAP2 JUMP JUMPDEST PUSH1 0x12 DUP2 LT ISZERO PUSH2 0x86E JUMPI PUSH1 0x40 MLOAD PUSH32 0x8C379A000000000000000000000000000000000000000000000000000000000 DUP2 MSTORE PUSH1 0x4 ADD PUSH2 0x865 SWAP1 PUSH2 0x1892 JUMP JUMPDEST PUSH1 0x40 MLOAD DUP1 SWAP2 SUB SWAP1 REVERT JUMPDEST PUSH1 0x2 DUP3 TIMESTAMP PUSH1 0x40 MLOAD PUSH1 0x20 ADD PUSH2 0x883 SWAP3 SWAP2 SWAP1 PUSH2 0x18D3 JUMP JUMPDEST PUSH1 0x40 MLOAD PUSH1 0x20 DUP2 DUP4 SUB SUB DUP2 MSTORE SWAP1 PUSH1 0x40 MSTORE PUSH1 0x40 MLOAD PUSH2 0x89F SWAP2 SWAP1 PUSH2 0x1937 JUMP JUMPDEST PUSH1 0x20 PUSH1 0x40 MLOAD DUP1 DUP4 SUB DUP2 DUP6 GAS STATICCALL ISZERO DUP1 ISZERO PUSH2 0x8BC JUMPI RETURNDATASIZE PUSH1 0x0 DUP1 RETURNDATACOPY RETURNDATASIZE PUSH1 0x0 REVERT JUMPDEST POP POP POP PUSH1 0x40 MLOAD RETURNDATASIZE PUSH1 0x1F NOT PUSH1 0x1F DUP3 ADD AND DUP3 ADD DUP1 PUSH1 0x40 MSTORE POP DUP2 ADD SWAP1 PUSH2 0x8DF SWAP2 SWAP1 PUSH2 0x1963 JUMP JUMPDEST PUSH1 0x3 DUP2 SWAP1 SSTORE POP PUSH1 0x40 MLOAD DUP1 PUSH1 0x40 ADD PUSH1 0x40 MSTORE DUP1 DUP4 DUP2 MSTORE PUSH1 0x20 ADD DUP3 DUP2 MSTORE POP PUSH1 0x7 PUSH1 0x0 PUSH1 0x3 SLOAD DUP2 MSTORE PUSH1 0x20 ADD SWAP1 DUP2 MSTORE PUSH1 0x20 ADD PUSH1 0x0 KECCAK256 PUSH1 0x0 DUP3 ADD MLOAD DUP2 PUSH1 0x0 ADD SWAP1 DUP2 PUSH2 0x924 SWAP2 SWAP1 PUSH2 0x1B3C JUMP JUMPDEST POP PUSH1 0x20 DUP3 ADD MLOAD DUP2 PUSH1 0x1 ADD SSTORE SWAP1 POP POP PUSH1 0x1 PUSH1 0x5 PUSH1 0x0 PUSH1 0x3 SLOAD DUP2 MSTORE PUSH1 0x20 ADD SWAP1 DUP2 MSTORE PUSH1 0x20 ADD PUSH1 0x0 KECCAK256 PUSH1 0x0 PUSH2 0x100 EXP DUP2 SLOAD DUP2 PUSH1 0xFF MUL NOT AND SWAP1 DUP4 ISZERO ISZERO MUL OR SWAP1 SSTORE POP PUSH1 0x1 PUSH1 0x3 SLOAD SWAP1 DUP1 PUSH1 0x1 DUP2 SLOAD ADD DUP1 DUP3 SSTORE DUP1 SWAP2 POP POP PUSH1 0x1 SWAP1 SUB SWAP1 PUSH1 0x0 MSTORE PUSH1 0x20 PUSH1 0x0 KECCAK256 ADD PUSH1 0x0 SWAP1 SWAP2 SWAP1 SWAP2 SWAP1 SWAP2 POP SSTORE POP POP JUMP JUMPDEST PUSH1 0x60 PUSH1 0x0 PUSH1 0x8 PUSH1 0x2 PUSH1 0x1 DUP2 SLOAD DUP2 LT PUSH2 0x9AA JUMPI PUSH2 0x9A9 PUSH2 0x1483 JUMP JUMPDEST JUMPDEST SWAP1 PUSH1 0x0 MSTORE PUSH1 0x20 PUSH1 0x0 KECCAK256 ADD PUSH1 0x40 MLOAD PUSH2 0x9C1 SWAP2 SWAP1 PUSH2 0x1C91 JUMP JUMPDEST SWAP1 DUP2 MSTORE PUSH1 0x20 ADD PUSH1 0x40 MLOAD DUP1 SWAP2 SUB SWAP1 KECCAK256 SLOAD PUSH1 0x8 PUSH1 0x2 PUSH1 0x0 DUP2 SLOAD DUP2 LT PUSH2 0x9E7 JUMPI PUSH2 0x9E6 PUSH2 0x1483 JUMP JUMPDEST JUMPDEST SWAP1 PUSH1 0x0 MSTORE PUSH1 0x20 PUSH1 0x0 KECCAK256 ADD PUSH1 0x40 MLOAD PUSH2 0x9FE SWAP2 SWAP1 PUSH2 0x1C91 JUMP JUMPDEST SWAP1 DUP2 MSTORE PUSH1 0x20 ADD PUSH1 0x40 MLOAD DUP1 SWAP2 SUB SWAP1 KECCAK256 SLOAD GT DUP1 ISZERO PUSH2 0xA90 JUMPI POP PUSH1 0x8 PUSH1 0x2 DUP1 DUP2 SLOAD DUP2 LT PUSH2 0xA2B JUMPI PUSH2 0xA2A PUSH2 0x1483 JUMP JUMPDEST JUMPDEST SWAP1 PUSH1 0x0 MSTORE PUSH1 0x20 PUSH1 0x0 KECCAK256 ADD PUSH1 0x40 MLOAD PUSH2 0xA42 SWAP2 SWAP1 PUSH2 0x1C91 JUMP JUMPDEST SWAP1 DUP2 MSTORE PUSH1 0x20 ADD PUSH1 0x40 MLOAD DUP1 SWAP2 SUB SWAP1 KECCAK256 SLOAD PUSH1 0x8 PUSH1 0x2 PUSH1 0x0 DUP2 SLOAD DUP2 LT PUSH2 0xA68 JUMPI PUSH2 0xA67 PUSH2 0x1483 JUMP JUMPDEST JUMPDEST SWAP1 PUSH1 0x0 MSTORE PUSH1 0x20 PUSH1 0x0 KECCAK256 ADD PUSH1 0x40 MLOAD PUSH2 0xA7F SWAP2 SWAP1 PUSH2 0x1C91 JUMP JUMPDEST SWAP1 DUP2 MSTORE PUSH1 0x20 ADD PUSH1 0x40 MLOAD DUP1 SWAP2 SUB SWAP1 KECCAK256 SLOAD GT JUMPDEST ISZERO PUSH2 0xB12 JUMPI PUSH1 0x8 PUSH1 0x2 PUSH1 0x0 DUP2 SLOAD DUP2 LT PUSH2 0xAAC JUMPI PUSH2 0xAAB PUSH2 0x1483 JUMP JUMPDEST JUMPDEST SWAP1 PUSH1 0x0 MSTORE PUSH1 0x20 PUSH1 0x0 KECCAK256 ADD PUSH1 0x40 MLOAD PUSH2 0xAC3 SWAP2 SWAP1 PUSH2 0x1C91 JUMP JUMPDEST SWAP1 DUP2 MSTORE PUSH1 0x20 ADD PUSH1 0x40 MLOAD DUP1 SWAP2 SUB SWAP1 KECCAK256 SLOAD PUSH1 0x40 MLOAD DUP1 PUSH1 0x40 ADD PUSH1 0x40 MSTORE DUP1 PUSH1 0xC DUP2 MSTORE PUSH1 0x20 ADD PUSH32 0x43312069732057696E6E65720000000000000000000000000000000000000000 DUP2 MSTORE POP SWAP1 SWAP2 POP SWAP2 POP PUSH2 0xE4C JUMP JUMPDEST PUSH1 0x8 PUSH1 0x2 PUSH1 0x0 DUP2 SLOAD DUP2 LT PUSH2 0xB29 JUMPI PUSH2 0xB28 PUSH2 0x1483 JUMP JUMPDEST JUMPDEST SWAP1 PUSH1 0x0 MSTORE PUSH1 0x20 PUSH1 0x0 KECCAK256 ADD PUSH1 0x40 MLOAD PUSH2 0xB40 SWAP2 SWAP1 PUSH2 0x1C91 JUMP JUMPDEST SWAP1 DUP2 MSTORE PUSH1 0x20 ADD PUSH1 0x40 MLOAD DUP1 SWAP2 SUB SWAP1 KECCAK256 SLOAD PUSH1 0x8 PUSH1 0x2 PUSH1 0x1 DUP2 SLOAD DUP2 LT PUSH2 0xB66 JUMPI PUSH2 0xB65 PUSH2 0x1483 JUMP JUMPDEST JUMPDEST SWAP1 PUSH1 0x0 MSTORE PUSH1 0x20 PUSH1 0x0 KECCAK256 ADD PUSH1 0x40 MLOAD PUSH2 0xB7D SWAP2 SWAP1 PUSH2 0x1C91 JUMP JUMPDEST SWAP1 DUP2 MSTORE PUSH1 0x20 ADD PUSH1 0x40 MLOAD DUP1 SWAP2 SUB SWAP1 KECCAK256 SLOAD GT DUP1 ISZERO PUSH2 0xC0F JUMPI POP PUSH1 0x8 PUSH1 0x2 DUP1 DUP2 SLOAD DUP2 LT PUSH2 0xBAA JUMPI PUSH2 0xBA9 PUSH2 0x1483 JUMP JUMPDEST JUMPDEST SWAP1 PUSH1 0x0 MSTORE PUSH1 0x20 PUSH1 0x0 KECCAK256 ADD PUSH1 0x40 MLOAD PUSH2 0xBC1 SWAP2 SWAP1 PUSH2 0x1C91 JUMP JUMPDEST SWAP1 DUP2 MSTORE PUSH1 0x20 ADD PUSH1 0x40 MLOAD DUP1 SWAP2 SUB SWAP1 KECCAK256 SLOAD PUSH1 0x8 PUSH1 0x2 PUSH1 0x1 DUP2 SLOAD DUP2 LT PUSH2 0xBE7 JUMPI PUSH2 0xBE6 PUSH2 0x1483 JUMP JUMPDEST JUMPDEST SWAP1 PUSH1 0x0 MSTORE PUSH1 0x20 PUSH1 0x0 KECCAK256 ADD PUSH1 0x40 MLOAD PUSH2 0xBFE SWAP2 SWAP1 PUSH2 0x1C91 JUMP JUMPDEST SWAP1 DUP2 MSTORE PUSH1 0x20 ADD PUSH1 0x40 MLOAD DUP1 SWAP2 SUB SWAP1 KECCAK256 SLOAD GT JUMPDEST ISZERO PUSH2 0xC91 JUMPI PUSH1 0x8 PUSH1 0x2 PUSH1 0x1 DUP2 SLOAD DUP2 LT PUSH2 0xC2B JUMPI PUSH2 0xC2A PUSH2 0x1483 JUMP JUMPDEST JUMPDEST SWAP1 PUSH1 0x0 MSTORE PUSH1 0x20 PUSH1 0x0 KECCAK256 ADD PUSH1 0x40 MLOAD PUSH2 0xC42 SWAP2 SWAP1 PUSH2 0x1C91 JUMP JUMPDEST SWAP1 DUP2 MSTORE PUSH1 0x20 ADD PUSH1 0x40 MLOAD DUP1 SWAP2 SUB SWAP1 KECCAK256 SLOAD PUSH1 0x40 MLOAD DUP1 PUSH1 0x40 ADD PUSH1 0x40 MSTORE DUP1 PUSH1 0xC DUP2 MSTORE PUSH1 0x20 ADD PUSH32 0x43322069732057696E6E65720000000000000000000000000000000000000000 DUP2 MSTORE POP SWAP1 SWAP2 POP SWAP2 POP PUSH2 0xE4C JUMP JUMPDEST PUSH1 0x8 PUSH1 0x2 PUSH1 0x0 DUP2 SLOAD DUP2 LT PUSH2 0xCA8 JUMPI PUSH2 0xCA7 PUSH2 0x1483 JUMP JUMPDEST JUMPDEST SWAP1 PUSH1 0x0 MSTORE PUSH1 0x20 PUSH1 0x0 KECCAK256 ADD PUSH1 0x40 MLOAD PUSH2 0xCBF SWAP2 SWAP1 PUSH2 0x1C91 JUMP JUMPDEST SWAP1 DUP2 MSTORE PUSH1 0x20 ADD PUSH1 0x40 MLOAD DUP1 SWAP2 SUB SWAP1 KECCAK256 SLOAD PUSH1 0x8 PUSH1 0x2 DUP1 DUP2 SLOAD DUP2 LT PUSH2 0xCE4 JUMPI PUSH2 0xCE3 PUSH2 0x1483 JUMP JUMPDEST JUMPDEST SWAP1 PUSH1 0x0 MSTORE PUSH1 0x20 PUSH1 0x0 KECCAK256 ADD PUSH1 0x40 MLOAD PUSH2 0xCFB SWAP2 SWAP1 PUSH2 0x1C91 JUMP JUMPDEST SWAP1 DUP2 MSTORE PUSH1 0x20 ADD PUSH1 0x40 MLOAD DUP1 SWAP2 SUB SWAP1 KECCAK256 SLOAD GT DUP1 ISZERO PUSH2 0xD8D JUMPI POP PUSH1 0x8 PUSH1 0x2 PUSH1 0x1 DUP2 SLOAD DUP2 LT PUSH2 0xD29 JUMPI PUSH2 0xD28 PUSH2 0x1483 JUMP JUMPDEST JUMPDEST SWAP1 PUSH1 0x0 MSTORE PUSH1 0x20 PUSH1 0x0 KECCAK256 ADD PUSH1 0x40 MLOAD PUSH2 0xD40 SWAP2 SWAP1 PUSH2 0x1C91 JUMP JUMPDEST SWAP1 DUP2 MSTORE PUSH1 0x20 ADD PUSH1 0x40 MLOAD DUP1 SWAP2 SUB SWAP1 KECCAK256 SLOAD PUSH1 0x8 PUSH1 0x2 DUP1 DUP2 SLOAD DUP2 LT PUSH2 0xD65 JUMPI PUSH2 0xD64 PUSH2 0x1483 JUMP JUMPDEST JUMPDEST SWAP1 PUSH1 0x0 MSTORE PUSH1 0x20 PUSH1 0x0 KECCAK256 ADD PUSH1 0x40 MLOAD PUSH2 0xD7C SWAP2 SWAP1 PUSH2 0x1C91 JUMP JUMPDEST SWAP1 DUP2 MSTORE PUSH1 0x20 ADD PUSH1 0x40 MLOAD DUP1 SWAP2 SUB SWAP1 KECCAK256 SLOAD GT JUMPDEST ISZERO PUSH2 0xE0E JUMPI PUSH1 0x8 PUSH1 0x2 DUP1 DUP2 SLOAD DUP2 LT PUSH2 0xDA8 JUMPI PUSH2 0xDA7 PUSH2 0x1483 JUMP JUMPDEST JUMPDEST SWAP1 PUSH1 0x0 MSTORE PUSH1 0x20 PUSH1 0x0 KECCAK256 ADD PUSH1 0x40 MLOAD PUSH2 0xDBF SWAP2 SWAP1 PUSH2 0x1C91 JUMP JUMPDEST SWAP1 DUP2 MSTORE PUSH1 0x20 ADD PUSH1 0x40 MLOAD DUP1 SWAP2 SUB SWAP1 KECCAK256 SLOAD PUSH1 0x40 MLOAD DUP1 PUSH1 0x40 ADD PUSH1 0x40 MSTORE DUP1 PUSH1 0xC DUP2 MSTORE PUSH1 0x20 ADD PUSH32 0x43332069732057696E6E65720000000000000000000000000000000000000000 DUP2 MSTORE POP SWAP1 SWAP2 POP SWAP2 POP PUSH2 0xE4C JUMP JUMPDEST PUSH1 0x0 PUSH1 0x40 MLOAD DUP1 PUSH1 0x40 ADD PUSH1 0x40 MSTORE DUP1 PUSH1 0x12 DUP2 MSTORE PUSH1 0x20 ADD PUSH32 0x4E6F20566F74696E672048617070656E65640000000000000000000000000000 DUP2 MSTORE POP SWAP1 SWAP2 POP SWAP2 POP JUMPDEST SWAP1 SWAP2 JUMP JUMPDEST PUSH1 0x0 PUSH1 0x40 MLOAD SWAP1 POP SWAP1 JUMP JUMPDEST PUSH1 0x0 DUP1 REVERT JUMPDEST PUSH1 0x0 DUP1 REVERT JUMPDEST PUSH1 0x0 DUP1 REVERT JUMPDEST PUSH1 0x0 DUP1 REVERT JUMPDEST PUSH1 0x0 PUSH1 0x1F NOT PUSH1 0x1F DUP4 ADD AND SWAP1 POP SWAP2 SWAP1 POP JUMP JUMPDEST PUSH32 0x4E487B7100000000000000000000000000000000000000000000000000000000 PUSH1 0x0 MSTORE PUSH1 0x41 PUSH1 0x4 MSTORE PUSH1 0x24 PUSH1 0x0 REVERT JUMPDEST PUSH2 0xEB7 DUP3 PUSH2 0xE6E JUMP JUMPDEST DUP2 ADD DUP2 DUP2 LT PUSH8 0xFFFFFFFFFFFFFFFF DUP3 GT OR ISZERO PUSH2 0xED6 JUMPI PUSH2 0xED5 PUSH2 0xE7F JUMP JUMPDEST JUMPDEST DUP1 PUSH1 0x40 MSTORE POP POP POP JUMP JUMPDEST PUSH1 0x0 PUSH2 0xEE9 PUSH2 0xE50 JUMP JUMPDEST SWAP1 POP PUSH2 0xEF5 DUP3 DUP3 PUSH2 0xEAE JUMP JUMPDEST SWAP2 SWAP1 POP JUMP JUMPDEST PUSH1 0x0 PUSH8 0xFFFFFFFFFFFFFFFF DUP3 GT ISZERO PUSH2 0xF15 JUMPI PUSH2 0xF14 PUSH2 0xE7F JUMP JUMPDEST JUMPDEST PUSH2 0xF1E DUP3 PUSH2 0xE6E JUMP JUMPDEST SWAP1 POP PUSH1 0x20 DUP2 ADD SWAP1 POP SWAP2 SWAP1 POP JUMP JUMPDEST DUP3 DUP2 DUP4 CALLDATACOPY PUSH1 0x0 DUP4 DUP4 ADD MSTORE POP POP POP JUMP JUMPDEST PUSH1 0x0 PUSH2 0xF4D PUSH2 0xF48 DUP5 PUSH2 0xEFA JUMP JUMPDEST PUSH2 0xEDF JUMP JUMPDEST SWAP1 POP DUP3 DUP2 MSTORE PUSH1 0x20 DUP2 ADD DUP5 DUP5 DUP5 ADD GT ISZERO PUSH2 0xF69 JUMPI PUSH2 0xF68 PUSH2 0xE69 JUMP JUMPDEST JUMPDEST PUSH2 0xF74 DUP5 DUP3 DUP6 PUSH2 0xF2B JUMP JUMPDEST POP SWAP4 SWAP3 POP POP POP JUMP JUMPDEST PUSH1 0x0 DUP3 PUSH1 0x1F DUP4 ADD SLT PUSH2 0xF91 JUMPI PUSH2 0xF90 PUSH2 0xE64 JUMP JUMPDEST JUMPDEST DUP2 CALLDATALOAD PUSH2 0xFA1 DUP5 DUP3 PUSH1 0x20 DUP7 ADD PUSH2 0xF3A JUMP JUMPDEST SWAP2 POP POP SWAP3 SWAP2 POP POP JUMP JUMPDEST PUSH1 0x0 PUSH1 0x20 DUP3 DUP5 SUB SLT ISZERO PUSH2 0xFC0 JUMPI PUSH2 0xFBF PUSH2 0xE5A JUMP JUMPDEST JUMPDEST PUSH1 0x0 DUP3 ADD CALLDATALOAD PUSH8 0xFFFFFFFFFFFFFFFF DUP2 GT ISZERO PUSH2 0xFDE JUMPI PUSH2 0xFDD PUSH2 0xE5F JUMP JUMPDEST JUMPDEST PUSH2 0xFEA DUP5 DUP3 DUP6 ADD PUSH2 0xF7C JUMP JUMPDEST SWAP2 POP POP SWAP3 SWAP2 POP POP JUMP JUMPDEST PUSH1 0x0 DUP2 ISZERO ISZERO SWAP1 POP SWAP2 SWAP1 POP JUMP JUMPDEST PUSH2 0x1008 DUP2 PUSH2 0xFF3 JUMP JUMPDEST DUP3 MSTORE POP POP JUMP JUMPDEST PUSH1 0x0 PUSH1 0x20 DUP3 ADD SWAP1 POP PUSH2 0x1023 PUSH1 0x0 DUP4 ADD DUP5 PUSH2 0xFFF JUMP JUMPDEST SWAP3 SWAP2 POP POP JUMP JUMPDEST PUSH1 0x0 DUP2 SWAP1 POP SWAP2 SWAP1 POP JUMP JUMPDEST PUSH2 0x103C DUP2 PUSH2 0x1029 JUMP JUMPDEST DUP3 MSTORE POP POP JUMP JUMPDEST PUSH1 0x0 PUSH1 0x20 DUP3 ADD SWAP1 POP PUSH2 0x1057 PUSH1 0x0 DUP4 ADD DUP5 PUSH2 0x1033 JUMP JUMPDEST SWAP3 SWAP2 POP POP JUMP JUMPDEST PUSH1 0x0 DUP2 MLOAD SWAP1 POP SWAP2 SWAP1 POP JUMP JUMPDEST PUSH1 0x0 DUP3 DUP3 MSTORE PUSH1 0x20 DUP3 ADD SWAP1 POP SWAP3 SWAP2 POP POP JUMP JUMPDEST PUSH1 0x0 DUP2 SWAP1 POP PUSH1 0x20 DUP3 ADD SWAP1 POP SWAP2 SWAP1 POP JUMP JUMPDEST PUSH1 0x0 DUP2 SWAP1 POP SWAP2 SWAP1 POP JUMP JUMPDEST PUSH2 0x109C DUP2 PUSH2 0x1089 JUMP JUMPDEST DUP3 MSTORE POP POP JUMP JUMPDEST PUSH1 0x0 PUSH2 0x10AE DUP4 DUP4 PUSH2 0x1093 JUMP JUMPDEST PUSH1 0x20 DUP4 ADD SWAP1 POP SWAP3 SWAP2 POP POP JUMP JUMPDEST PUSH1 0x0 PUSH1 0x20 DUP3 ADD SWAP1 POP SWAP2 SWAP1 POP JUMP JUMPDEST PUSH1 0x0 PUSH2 0x10D2 DUP3 PUSH2 0x105D JUMP JUMPDEST PUSH2 0x10DC DUP2 DUP6 PUSH2 0x1068 JUMP JUMPDEST SWAP4 POP PUSH2 0x10E7 DUP4 PUSH2 0x1079 JUMP JUMPDEST DUP1 PUSH1 0x0 JUMPDEST DUP4 DUP2 LT ISZERO PUSH2 0x1118 JUMPI DUP2 MLOAD PUSH2 0x10FF DUP9 DUP3 PUSH2 0x10A2 JUMP JUMPDEST SWAP8 POP PUSH2 0x110A DUP4 PUSH2 0x10BA JUMP JUMPDEST SWAP3 POP POP PUSH1 0x1 DUP2 ADD SWAP1 POP PUSH2 0x10EB JUMP JUMPDEST POP DUP6 SWAP4 POP POP POP POP SWAP3 SWAP2 POP POP JUMP JUMPDEST PUSH1 0x0 PUSH1 0x20 DUP3 ADD SWAP1 POP DUP2 DUP2 SUB PUSH1 0x0 DUP4 ADD MSTORE PUSH2 0x113F DUP2 DUP5 PUSH2 0x10C7 JUMP JUMPDEST SWAP1 POP SWAP3 SWAP2 POP POP JUMP JUMPDEST PUSH2 0x1150 DUP2 PUSH2 0x1089 JUMP JUMPDEST DUP2 EQ PUSH2 0x115B JUMPI PUSH1 0x0 DUP1 REVERT JUMPDEST POP JUMP JUMPDEST PUSH1 0x0 DUP2 CALLDATALOAD SWAP1 POP PUSH2 0x116D DUP2 PUSH2 0x1147 JUMP JUMPDEST SWAP3 SWAP2 POP POP JUMP JUMPDEST PUSH1 0x0 DUP1 PUSH1 0x40 DUP4 DUP6 SUB SLT ISZERO PUSH2 0x118A JUMPI PUSH2 0x1189 PUSH2 0xE5A JUMP JUMPDEST JUMPDEST PUSH1 0x0 PUSH2 0x1198 DUP6 DUP3 DUP7 ADD PUSH2 0x115E JUMP JUMPDEST SWAP3 POP POP PUSH1 0x20 DUP4 ADD CALLDATALOAD PUSH8 0xFFFFFFFFFFFFFFFF DUP2 GT ISZERO PUSH2 0x11B9 JUMPI PUSH2 0x11B8 PUSH2 0xE5F JUMP JUMPDEST JUMPDEST PUSH2 0x11C5 DUP6 DUP3 DUP7 ADD PUSH2 0xF7C JUMP JUMPDEST SWAP2 POP POP SWAP3 POP SWAP3 SWAP1 POP JUMP JUMPDEST PUSH1 0x0 DUP2 MLOAD SWAP1 POP SWAP2 SWAP1 POP JUMP JUMPDEST PUSH1 0x0 DUP3 DUP3 MSTORE PUSH1 0x20 DUP3 ADD SWAP1 POP SWAP3 SWAP2 POP POP JUMP JUMPDEST PUSH1 0x0 DUP2 SWAP1 POP PUSH1 0x20 DUP3 ADD SWAP1 POP SWAP2 SWAP1 POP JUMP JUMPDEST PUSH1 0x0 DUP2 MLOAD SWAP1 POP SWAP2 SWAP1 POP JUMP JUMPDEST PUSH1 0x0 DUP3 DUP3 MSTORE PUSH1 0x20 DUP3 ADD SWAP1 POP SWAP3 SWAP2 POP POP JUMP JUMPDEST PUSH1 0x0 JUMPDEST DUP4 DUP2 LT ISZERO PUSH2 0x1235 JUMPI DUP1 DUP3 ADD MLOAD DUP2 DUP5 ADD MSTORE PUSH1 0x20 DUP2 ADD SWAP1 POP PUSH2 0x121A JUMP JUMPDEST PUSH1 0x0 DUP5 DUP5 ADD MSTORE POP POP POP POP JUMP JUMPDEST PUSH1 0x0 PUSH2 0x124C DUP3 PUSH2 0x11FB JUMP JUMPDEST PUSH2 0x1256 DUP2 DUP6 PUSH2 0x1206 JUMP JUMPDEST SWAP4 POP PUSH2 0x1266 DUP2 DUP6 PUSH1 0x20 DUP7 ADD PUSH2 0x1217 JUMP JUMPDEST PUSH2 0x126F DUP2 PUSH2 0xE6E JUMP JUMPDEST DUP5 ADD SWAP2 POP POP SWAP3 SWAP2 POP POP JUMP JUMPDEST PUSH1 0x0 PUSH2 0x1286 DUP4 DUP4 PUSH2 0x1241 JUMP JUMPDEST SWAP1 POP SWAP3 SWAP2 POP POP JUMP JUMPDEST PUSH1 0x0 PUSH1 0x20 DUP3 ADD SWAP1 POP SWAP2 SWAP1 POP JUMP JUMPDEST PUSH1 0x0 PUSH2 0x12A6 DUP3 PUSH2 0x11CF JUMP JUMPDEST PUSH2 0x12B0 DUP2 DUP6 PUSH2 0x11DA JUMP JUMPDEST SWAP4 POP DUP4 PUSH1 0x20 DUP3 MUL DUP6 ADD PUSH2 0x12C2 DUP6 PUSH2 0x11EB JUMP JUMPDEST DUP1 PUSH1 0x0 JUMPDEST DUP6 DUP2 LT ISZERO PUSH2 0x12FE JUMPI DUP5 DUP5 SUB DUP10 MSTORE DUP2 MLOAD PUSH2 0x12DF DUP6 DUP3 PUSH2 0x127A JUMP JUMPDEST SWAP5 POP PUSH2 0x12EA DUP4 PUSH2 0x128E JUMP JUMPDEST SWAP3 POP PUSH1 0x20 DUP11 ADD SWAP10 POP POP PUSH1 0x1 DUP2 ADD SWAP1 POP PUSH2 0x12C6 JUMP JUMPDEST POP DUP3 SWAP8 POP DUP8 SWAP6 POP POP POP POP POP POP SWAP3 SWAP2 POP POP JUMP JUMPDEST PUSH1 0x0 PUSH1 0x20 DUP3 ADD SWAP1 POP DUP2 DUP2 SUB PUSH1 0x0 DUP4 ADD MSTORE PUSH2 0x132A DUP2 DUP5 PUSH2 0x129B JUMP JUMPDEST SWAP1 POP SWAP3 SWAP2 POP POP JUMP JUMPDEST PUSH1 0x0 PUSH1 0x20 DUP3 DUP5 SUB SLT ISZERO PUSH2 0x1348 JUMPI PUSH2 0x1347 PUSH2 0xE5A JUMP JUMPDEST JUMPDEST PUSH1 0x0 PUSH2 0x1356 DUP5 DUP3 DUP6 ADD PUSH2 0x115E JUMP JUMPDEST SWAP2 POP POP SWAP3 SWAP2 POP POP JUMP JUMPDEST PUSH1 0x0 DUP3 DUP3 MSTORE PUSH1 0x20 DUP3 ADD SWAP1 POP SWAP3 SWAP2 POP POP JUMP JUMPDEST PUSH1 0x0 PUSH2 0x137B DUP3 PUSH2 0x11FB JUMP JUMPDEST PUSH2 0x1385 DUP2 DUP6 PUSH2 0x135F JUMP JUMPDEST SWAP4 POP PUSH2 0x1395 DUP2 DUP6 PUSH1 0x20 DUP7 ADD PUSH2 0x1217 JUMP JUMPDEST PUSH2 0x139E DUP2 PUSH2 0xE6E JUMP JUMPDEST DUP5 ADD SWAP2 POP POP SWAP3 SWAP2 POP POP JUMP JUMPDEST PUSH1 0x0 PUSH1 0x20 DUP3 ADD SWAP1 POP DUP2 DUP2 SUB PUSH1 0x0 DUP4 ADD MSTORE PUSH2 0x13C3 DUP2 DUP5 PUSH2 0x1370 JUMP JUMPDEST SWAP1 POP SWAP3 SWAP2 POP POP JUMP JUMPDEST PUSH1 0x0 PUSH1 0x40 DUP3 ADD SWAP1 POP DUP2 DUP2 SUB PUSH1 0x0 DUP4 ADD MSTORE PUSH2 0x13E5 DUP2 DUP6 PUSH2 0x1370 JUMP JUMPDEST SWAP1 POP PUSH2 0x13F4 PUSH1 0x20 DUP4 ADD DUP5 PUSH2 0x1033 JUMP JUMPDEST SWAP4 SWAP3 POP POP POP JUMP JUMPDEST PUSH2 0x1404 DUP2 PUSH2 0x1029 JUMP JUMPDEST DUP2 EQ PUSH2 0x140F JUMPI PUSH1 0x0 DUP1 REVERT JUMPDEST POP JUMP JUMPDEST PUSH1 0x0 DUP2 CALLDATALOAD SWAP1 POP PUSH2 0x1421 DUP2 PUSH2 0x13FB JUMP JUMPDEST SWAP3 SWAP2 POP POP JUMP JUMPDEST PUSH1 0x0 DUP1 PUSH1 0x40 DUP4 DUP6 SUB SLT ISZERO PUSH2 0x143E JUMPI PUSH2 0x143D PUSH2 0xE5A JUMP JUMPDEST JUMPDEST PUSH1 0x0 DUP4 ADD CALLDATALOAD PUSH8 0xFFFFFFFFFFFFFFFF DUP2 GT ISZERO PUSH2 0x145C JUMPI PUSH2 0x145B PUSH2 0xE5F JUMP JUMPDEST JUMPDEST PUSH2 0x1468 DUP6 DUP3 DUP7 ADD PUSH2 0xF7C JUMP JUMPDEST SWAP3 POP POP PUSH1 0x20 PUSH2 0x1479 DUP6 DUP3 DUP7 ADD PUSH2 0x1412 JUMP JUMPDEST SWAP2 POP POP SWAP3 POP SWAP3 SWAP1 POP JUMP JUMPDEST PUSH32 0x4E487B7100000000000000000000000000000000000000000000000000000000 PUSH1 0x0 MSTORE PUSH1 0x32 PUSH1 0x4 MSTORE PUSH1 0x24 PUSH1 0x0 REVERT JUMPDEST PUSH32 0x4E487B7100000000000000000000000000000000000000000000000000000000 PUSH1 0x0 MSTORE PUSH1 0x22 PUSH1 0x4 MSTORE PUSH1 0x24 PUSH1 0x0 REVERT JUMPDEST PUSH1 0x0 PUSH1 0x2 DUP3 DIV SWAP1 POP PUSH1 0x1 DUP3 AND DUP1 PUSH2 0x14F9 JUMPI PUSH1 0x7F DUP3 AND SWAP2 POP JUMPDEST PUSH1 0x20 DUP3 LT DUP2 SUB PUSH2 0x150C JUMPI PUSH2 0x150B PUSH2 0x14B2 JUMP JUMPDEST JUMPDEST POP SWAP2 SWAP1 POP JUMP JUMPDEST PUSH1 0x0 DUP2 SWAP1 POP SWAP3 SWAP2 POP POP JUMP JUMPDEST PUSH1 0x0 DUP2 SWAP1 POP DUP2 PUSH1 0x0 MSTORE PUSH1 0x20 PUSH1 0x0 KECCAK256 SWAP1 POP SWAP2 SWAP1 POP JUMP JUMPDEST PUSH1 0x0 DUP2 SLOAD PUSH2 0x153F DUP2 PUSH2 0x14E1 JUMP JUMPDEST PUSH2 0x1549 DUP2 DUP7 PUSH2 0x1512 JUMP JUMPDEST SWAP5 POP PUSH1 0x1 DUP3 AND PUSH1 0x0 DUP2 EQ PUSH2 0x1564 JUMPI PUSH1 0x1 DUP2 EQ PUSH2 0x1579 JUMPI PUSH2 0x15AC JUMP JUMPDEST PUSH1 0xFF NOT DUP4 AND DUP7 MSTORE DUP2 ISZERO ISZERO DUP3 MUL DUP7 ADD SWAP4 POP PUSH2 0x15AC JUMP JUMPDEST PUSH2 0x1582 DUP6 PUSH2 0x151D JUMP JUMPDEST PUSH1 0x0 JUMPDEST DUP4 DUP2 LT ISZERO PUSH2 0x15A4 JUMPI DUP2 SLOAD DUP2 DUP10 ADD MSTORE PUSH1 0x1 DUP3 ADD SWAP2 POP PUSH1 0x20 DUP2 ADD SWAP1 POP PUSH2 0x1585 JUMP JUMPDEST DUP4 DUP9 ADD SWAP6 POP POP POP JUMPDEST POP POP POP SWAP3 SWAP2 POP POP JUMP JUMPDEST PUSH1 0x0 PUSH2 0x15C1 DUP3 DUP5 PUSH2 0x1532 JUMP JUMPDEST SWAP2 POP DUP2 SWAP1 POP SWAP3 SWAP2 POP POP JUMP JUMPDEST PUSH32 0x4E487B7100000000000000000000000000000000000000000000000000000000 PUSH1 0x0 MSTORE PUSH1 0x11 PUSH1 0x4 MSTORE PUSH1 0x24 PUSH1 0x0 REVERT JUMPDEST PUSH1 0x0 PUSH2 0x1606 DUP3 PUSH2 0x1029 JUMP JUMPDEST SWAP2 POP PUSH32 0xFFFFFFFFFFFFFFFFFFFFFFFFFFFFFFFFFFFFFFFFFFFFFFFFFFFFFFFFFFFFFFFF DUP3 SUB PUSH2 0x1638 JUMPI PUSH2 0x1637 PUSH2 0x15CC JUMP JUMPDEST JUMPDEST PUSH1 0x1 DUP3 ADD SWAP1 POP SWAP2 SWAP1 POP JUMP JUMPDEST PUSH32 0x496E76616C69642043616E646964617465000000000000000000000000000000 PUSH1 0x0 DUP3 ADD MSTORE POP JUMP JUMPDEST PUSH1 0x0 PUSH2 0x1679 PUSH1 0x11 DUP4 PUSH2 0x135F JUMP JUMPDEST SWAP2 POP PUSH2 0x1684 DUP3 PUSH2 0x1643 JUMP JUMPDEST PUSH1 0x20 DUP3 ADD SWAP1 POP SWAP2 SWAP1 POP JUMP JUMPDEST PUSH1 0x0 PUSH1 0x20 DUP3 ADD SWAP1 POP DUP2 DUP2 SUB PUSH1 0x0 DUP4 ADD MSTORE PUSH2 0x16A8 DUP2 PUSH2 0x166C JUMP JUMPDEST SWAP1 POP SWAP2 SWAP1 POP JUMP JUMPDEST PUSH1 0x0 DUP2 SWAP1 POP SWAP3 SWAP2 POP POP JUMP JUMPDEST PUSH1 0x0 PUSH2 0x16C5 DUP3 PUSH2 0x11FB JUMP JUMPDEST PUSH2 0x16CF DUP2 DUP6 PUSH2 0x16AF JUMP JUMPDEST SWAP4 POP PUSH2 0x16DF DUP2 DUP6 PUSH1 0x20 DUP7 ADD PUSH2 0x1217 JUMP JUMPDEST DUP1 DUP5 ADD SWAP2 POP POP SWAP3 SWAP2 POP POP JUMP JUMPDEST PUSH1 0x0 PUSH2 0x16F7 DUP3 DUP5 PUSH2 0x16BA JUMP JUMPDEST SWAP2 POP DUP2 SWAP1 POP SWAP3 SWAP2 POP POP JUMP JUMPDEST PUSH32 0x596F7520617265206E6F7420566F746572000000000000000000000000000000 PUSH1 0x0 DUP3 ADD MSTORE POP JUMP JUMPDEST PUSH1 0x0 PUSH2 0x1738 PUSH1 0x11 DUP4 PUSH2 0x135F JUMP JUMPDEST SWAP2 POP PUSH2 0x1743 DUP3 PUSH2 0x1702 JUMP JUMPDEST PUSH1 0x20 DUP3 ADD SWAP1 POP SWAP2 SWAP1 POP JUMP JUMPDEST PUSH1 0x0 PUSH1 0x20 DUP3 ADD SWAP1 POP DUP2 DUP2 SUB PUSH1 0x0 DUP4 ADD MSTORE PUSH2 0x1767 DUP2 PUSH2 0x172B JUMP JUMPDEST SWAP1 POP SWAP2 SWAP1 POP JUMP JUMPDEST PUSH32 0x616C726561647920766F74656400000000000000000000000000000000000000 PUSH1 0x0 DUP3 ADD MSTORE POP JUMP JUMPDEST PUSH1 0x0 PUSH2 0x17A4 PUSH1 0xD DUP4 PUSH2 0x135F JUMP JUMPDEST SWAP2 POP PUSH2 0x17AF DUP3 PUSH2 0x176E JUMP JUMPDEST PUSH1 0x20 DUP3 ADD SWAP1 POP SWAP2 SWAP1 POP JUMP JUMPDEST PUSH1 0x0 PUSH1 0x20 DUP3 ADD SWAP1 POP DUP2 DUP2 SUB PUSH1 0x0 DUP4 ADD MSTORE PUSH2 0x17D3 DUP2 PUSH2 0x1797 JUMP JUMPDEST SWAP1 POP SWAP2 SWAP1 POP JUMP JUMPDEST PUSH32 0x4E6F20566F746572730000000000000000000000000000000000000000000000 PUSH1 0x0 DUP3 ADD MSTORE POP JUMP JUMPDEST PUSH1 0x0 PUSH2 0x1810 PUSH1 0x9 DUP4 PUSH2 0x135F JUMP JUMPDEST SWAP2 POP PUSH2 0x181B DUP3 PUSH2 0x17DA JUMP JUMPDEST PUSH1 0x20 DUP3 ADD SWAP1 POP SWAP2 SWAP1 POP JUMP JUMPDEST PUSH1 0x0 PUSH1 0x20 DUP3 ADD SWAP1 POP DUP2 DUP2 SUB PUSH1 0x0 DUP4 ADD MSTORE PUSH2 0x183F DUP2 PUSH2 0x1803 JUMP JUMPDEST SWAP1 POP SWAP2 SWAP1 POP JUMP JUMPDEST PUSH32 0x416765206D7573742062652067726561746572207468616E2031380000000000 PUSH1 0x0 DUP3 ADD MSTORE POP JUMP JUMPDEST PUSH1 0x0 PUSH2 0x187C PUSH1 0x1B DUP4 PUSH2 0x135F JUMP JUMPDEST SWAP2 POP PUSH2 0x1887 DUP3 PUSH2 0x1846 JUMP JUMPDEST PUSH1 0x20 DUP3 ADD SWAP1 POP SWAP2 SWAP1 POP JUMP JUMPDEST PUSH1 0x0 PUSH1 0x20 DUP3 ADD SWAP1 POP DUP2 DUP2 SUB PUSH1 0x0 DUP4 ADD MSTORE PUSH2 0x18AB DUP2 PUSH2 0x186F JUMP JUMPDEST SWAP1 POP SWAP2 SWAP1 POP JUMP JUMPDEST PUSH1 0x0 DUP2 SWAP1 POP SWAP2 SWAP1 POP JUMP JUMPDEST PUSH2 0x18CD PUSH2 0x18C8 DUP3 PUSH2 0x1029 JUMP JUMPDEST PUSH2 0x18B2 JUMP JUMPDEST DUP3 MSTORE POP POP JUMP JUMPDEST PUSH1 0x0 PUSH2 0x18DF DUP3 DUP6 PUSH2 0x16BA JUMP JUMPDEST SWAP2 POP PUSH2 0x18EB DUP3 DUP5 PUSH2 0x18BC JUMP JUMPDEST PUSH1 0x20 DUP3 ADD SWAP2 POP DUP2 SWAP1 POP SWAP4 SWAP3 POP POP POP JUMP JUMPDEST PUSH1 0x0 DUP2 MLOAD SWAP1 POP SWAP2 SWAP1 POP JUMP JUMPDEST PUSH1 0x0 PUSH2 0x1911 DUP3 PUSH2 0x18FB JUMP JUMPDEST PUSH2 0x191B DUP2 DUP6 PUSH2 0x1512 JUMP JUMPDEST SWAP4 POP PUSH2 0x192B DUP2 DUP6 PUSH1 0x20 DUP7 ADD PUSH2 0x1217 JUMP JUMPDEST DUP1 DUP5 ADD SWAP2 POP POP SWAP3 SWAP2 POP POP JUMP JUMPDEST PUSH1 0x0 PUSH2 0x1943 DUP3 DUP5 PUSH2 0x1906 JUMP JUMPDEST SWAP2 POP DUP2 SWAP1 POP SWAP3 SWAP2 POP POP JUMP JUMPDEST PUSH1 0x0 DUP2 MLOAD SWAP1 POP PUSH2 0x195D DUP2 PUSH2 0x1147 JUMP JUMPDEST SWAP3 SWAP2 POP POP JUMP JUMPDEST PUSH1 0x0 PUSH1 0x20 DUP3 DUP5 SUB SLT ISZERO PUSH2 0x1979 JUMPI PUSH2 0x1978 PUSH2 0xE5A JUMP JUMPDEST JUMPDEST PUSH1 0x0 PUSH2 0x1987 DUP5 DUP3 DUP6 ADD PUSH2 0x194E JUMP JUMPDEST SWAP2 POP POP SWAP3 SWAP2 POP POP JUMP JUMPDEST PUSH1 0x0 DUP2 SWAP1 POP DUP2 PUSH1 0x0 MSTORE PUSH1 0x20 PUSH1 0x0 KECCAK256 SWAP1 POP SWAP2 SWAP1 POP JUMP JUMPDEST PUSH1 0x0 PUSH1 0x20 PUSH1 0x1F DUP4 ADD DIV SWAP1 POP SWAP2 SWAP1 POP JUMP JUMPDEST PUSH1 0x0 DUP3 DUP3 SHL SWAP1 POP SWAP3 SWAP2 POP POP JUMP JUMPDEST PUSH1 0x0 PUSH1 0x8 DUP4 MUL PUSH2 0x19F2 PUSH32 0xFFFFFFFFFFFFFFFFFFFFFFFFFFFFFFFFFFFFFFFFFFFFFFFFFFFFFFFFFFFFFFFF DUP3 PUSH2 0x19B5 JUMP JUMPDEST PUSH2 0x19FC DUP7 DUP4 PUSH2 0x19B5 JUMP JUMPDEST SWAP6 POP DUP1 NOT DUP5 AND SWAP4 POP DUP1 DUP7 AND DUP5 OR SWAP3 POP POP POP SWAP4 SWAP3 POP POP POP JUMP JUMPDEST PUSH1 0x0 DUP2 SWAP1 POP SWAP2 SWAP1 POP JUMP JUMPDEST PUSH1 0x0 PUSH2 0x1A39 PUSH2 0x1A34 PUSH2 0x1A2F DUP5 PUSH2 0x1029 JUMP JUMPDEST PUSH2 0x1A14 JUMP JUMPDEST PUSH2 0x1029 JUMP JUMPDEST SWAP1 POP SWAP2 SWAP1 POP JUMP JUMPDEST PUSH1 0x0 DUP2 SWAP1 POP SWAP2 SWAP1 POP JUMP JUMPDEST PUSH2 0x1A53 DUP4 PUSH2 0x1A1E JUMP JUMPDEST PUSH2 0x1A67 PUSH2 0x1A5F DUP3 PUSH2 0x1A40 JUMP JUMPDEST DUP5 DUP5 SLOAD PUSH2 0x19C2 JUMP JUMPDEST DUP3 SSTORE POP POP POP POP JUMP JUMPDEST PUSH1 0x0 SWAP1 JUMP JUMPDEST PUSH2 0x1A7C PUSH2 0x1A6F JUMP JUMPDEST PUSH2 0x1A87 DUP2 DUP5 DUP5 PUSH2 0x1A4A JUMP JUMPDEST POP POP POP JUMP JUMPDEST JUMPDEST DUP2 DUP2 LT ISZERO PUSH2 0x1AAB JUMPI PUSH2 0x1AA0 PUSH1 0x0 DUP3 PUSH2 0x1A74 JUMP JUMPDEST PUSH1 0x1 DUP2 ADD SWAP1 POP PUSH2 0x1A8D JUMP JUMPDEST POP POP JUMP JUMPDEST PUSH1 0x1F DUP3 GT ISZERO PUSH2 0x1AF0 JUMPI PUSH2 0x1AC1 DUP2 PUSH2 0x1990 JUMP JUMPDEST PUSH2 0x1ACA DUP5 PUSH2 0x19A5 JUMP JUMPDEST DUP2 ADD PUSH1 0x20 DUP6 LT ISZERO PUSH2 0x1AD9 JUMPI DUP2 SWAP1 POP JUMPDEST PUSH2 0x1AED PUSH2 0x1AE5 DUP6 PUSH2 0x19A5 JUMP JUMPDEST DUP4 ADD DUP3 PUSH2 0x1A8C JUMP JUMPDEST POP POP JUMPDEST POP POP POP JUMP JUMPDEST PUSH1 0x0 DUP3 DUP3 SHR SWAP1 POP SWAP3 SWAP2 POP POP JUMP JUMPDEST PUSH1 0x0 PUSH2 0x1B13 PUSH1 0x0 NOT DUP5 PUSH1 0x8 MUL PUSH2 0x1AF5 JUMP JUMPDEST NOT DUP1 DUP4 AND SWAP2 POP POP SWAP3 SWAP2 POP POP JUMP JUMPDEST PUSH1 0x0 PUSH2 0x1B2C DUP4 DUP4 PUSH2 0x1B02 JUMP JUMPDEST SWAP2 POP DUP3 PUSH1 0x2 MUL DUP3 OR SWAP1 POP SWAP3 SWAP2 POP POP JUMP JUMPDEST PUSH2 0x1B45 DUP3 PUSH2 0x11FB JUMP JUMPDEST PUSH8 0xFFFFFFFFFFFFFFFF DUP2 GT ISZERO PUSH2 0x1B5E JUMPI PUSH2 0x1B5D PUSH2 0xE7F JUMP JUMPDEST JUMPDEST PUSH2 0x1B68 DUP3 SLOAD PUSH2 0x14E1 JUMP JUMPDEST PUSH2 0x1B73 DUP3 DUP3 DUP6 PUSH2 0x1AAF JUMP JUMPDEST PUSH1 0x0 PUSH1 0x20 SWAP1 POP PUSH1 0x1F DUP4 GT PUSH1 0x1 DUP2 EQ PUSH2 0x1BA6 JUMPI PUSH1 0x0 DUP5 ISZERO PUSH2 0x1B94 JUMPI DUP3 DUP8 ADD MLOAD SWAP1 POP JUMPDEST PUSH2 0x1B9E DUP6 DUP3 PUSH2 0x1B20 JUMP JUMPDEST DUP7 SSTORE POP PUSH2 0x1C06 JUMP JUMPDEST PUSH1 0x1F NOT DUP5 AND PUSH2 0x1BB4 DUP7 PUSH2 0x1990 JUMP JUMPDEST PUSH1 0x0 JUMPDEST DUP3 DUP2 LT ISZERO PUSH2 0x1BDC JUMPI DUP5 DUP10 ADD MLOAD DUP3 SSTORE PUSH1 0x1 DUP3 ADD SWAP2 POP PUSH1 0x20 DUP6 ADD SWAP5 POP PUSH1 0x20 DUP2 ADD SWAP1 POP PUSH2 0x1BB7 JUMP JUMPDEST DUP7 DUP4 LT ISZERO PUSH2 0x1BF9 JUMPI DUP5 DUP10 ADD MLOAD PUSH2 0x1BF5 PUSH1 0x1F DUP10 AND DUP3 PUSH2 0x1B02 JUMP JUMPDEST DUP4 SSTORE POP JUMPDEST PUSH1 0x1 PUSH1 0x2 DUP9 MUL ADD DUP9 SSTORE POP POP POP JUMPDEST POP POP POP POP POP POP JUMP JUMPDEST PUSH1 0x0 DUP2 SLOAD PUSH2 0x1C1B DUP2 PUSH2 0x14E1 JUMP JUMPDEST PUSH2 0x1C25 DUP2 DUP7 PUSH2 0x16AF JUMP JUMPDEST SWAP5 POP PUSH1 0x1 DUP3 AND PUSH1 0x0 DUP2 EQ PUSH2 0x1C40 JUMPI PUSH1 0x1 DUP2 EQ PUSH2 0x1C55 JUMPI PUSH2 0x1C88 JUMP JUMPDEST PUSH1 0xFF NOT DUP4 AND DUP7 MSTORE DUP2 ISZERO ISZERO DUP3 MUL DUP7 ADD SWAP4 POP PUSH2 0x1C88 JUMP JUMPDEST PUSH2 0x1C5E DUP6 PUSH2 0x1990 JUMP JUMPDEST PUSH1 0x0 JUMPDEST DUP4 DUP2 LT ISZERO PUSH2 0x1C80 JUMPI DUP2 SLOAD DUP2 DUP10 ADD MSTORE PUSH1 0x1 DUP3 ADD SWAP2 POP PUSH1 0x20 DUP2 ADD SWAP1 POP PUSH2 0x1C61 JUMP JUMPDEST DUP4 DUP9 ADD SWAP6 POP POP POP JUMPDEST POP POP POP SWAP3 SWAP2 POP POP JUMP JUMPDEST PUSH1 0x0 PUSH2 0x1C9D DUP3 DUP5 PUSH2 0x1C0E JUMP JUMPDEST SWAP2 POP DUP2 SWAP1 POP SWAP3 SWAP2 POP POP JUMP INVALID LOG2 PUSH5 0x6970667358 0x22 SLT KECCAK256 MULMOD RETURNDATACOPY DUP15 PUSH20 0x8D0792DC5DF61020593324CF52B632C389425EFD SUB MUL 0x23 SHL 0xA5 0xD2 0xE8 0xF PUSH5 0x736F6C6343 STOP ADDMOD SGT STOP CALLER "
				},
				"gasEstimates": {
					"creation": {
						"codeDepositCost": "1478000",
						"executionCost": "infinite",
						"totalCost": "infinite"
					},
					"external": {
						"All_Voter_List()": "infinite",
						"add_Voter(string,uint256)": "infinite",
						"check_Candidate(string)": "infinite",
						"check_vote(bytes32)": "infinite",
						"get_Voter_Details(bytes32)": "infinite",
						"give_vote(bytes32,string)": "infinite",
						"view_Candidates()": "infinite",
						"view_Voted_Voters()": "infinite",
						"view_Winner()": "infinite",
						"view_vote_count(string)": "infinite"
					}
				},
				"methodIdentifiers": {
					"All_Voter_List()": "0c8afdf4",
					"add_Voter(string,uint256)": "905ccdbe",
					"check_Candidate(string)": "0140b74a",
					"check_vote(bytes32)": "6e4aed4f",
					"get_Voter_Details(bytes32)": "7e46de41",
					"give_vote(bytes32,string)": "269558e8",
					"view_Candidates()": "6a59e50c",
					"view_Voted_Voters()": "490408d4",
					"view_Winner()": "9fa5e685",
					"view_vote_count(string)": "066ff640"
				}
			},
			"storageLayout": {
				"storage": [
					{
						"astId": 10,
						"contract": "Voting System/voting.sol:voting",
						"label": "voterList",
						"offset": 0,
						"slot": "0",
						"type": "t_array(t_bytes32)dyn_storage"
					},
					{
						"astId": 13,
						"contract": "Voting System/voting.sol:voting",
						"label": "AllvoterList",
						"offset": 0,
						"slot": "1",
						"type": "t_array(t_bytes32)dyn_storage"
					},
					{
						"astId": 20,
						"contract": "Voting System/voting.sol:voting",
						"label": "Candidates",
						"offset": 0,
						"slot": "2",
						"type": "t_array(t_string_storage)dyn_storage"
					},
					{
						"astId": 22,
						"contract": "Voting System/voting.sol:voting",
						"label": "voterId",
						"offset": 0,
						"slot": "3",
						"type": "t_bytes32"
					},
					{
						"astId": 24,
						"contract": "Voting System/voting.sol:voting",
						"label": "voted",
						"offset": 0,
						"slot": "4",
						"type": "t_bool"
					},
					{
						"astId": 28,
						"contract": "Voting System/voting.sol:voting",
						"label": "isVoter",
						"offset": 0,
						"slot": "5",
						"type": "t_mapping(t_bytes32,t_bool)"
					},
					{
						"astId": 32,
						"contract": "Voting System/voting.sol:voting",
						"label": "isVoted",
						"offset": 0,
						"slot": "6",
						"type": "t_mapping(t_bytes32,t_bool)"
					},
					{
						"astId": 37,
						"contract": "Voting System/voting.sol:voting",
						"label": "_voters",
						"offset": 0,
						"slot": "7",
						"type": "t_mapping(t_bytes32,t_struct(voters)7_storage)"
					},
					{
						"astId": 41,
						"contract": "Voting System/voting.sol:voting",
						"label": "VoteCount",
						"offset": 0,
						"slot": "8",
						"type": "t_mapping(t_string_memory_ptr,t_uint256)"
					}
				],
				"types": {
					"t_array(t_bytes32)dyn_storage": {
						"base": "t_bytes32",
						"encoding": "dynamic_array",
						"label": "bytes32[]",
						"numberOfBytes": "32"
					},
					"t_array(t_string_storage)dyn_storage": {
						"base": "t_string_storage",
						"encoding": "dynamic_array",
						"label": "string[]",
						"numberOfBytes": "32"
					},
					"t_bool": {
						"encoding": "inplace",
						"label": "bool",
						"numberOfBytes": "1"
					},
					"t_bytes32": {
						"encoding": "inplace",
						"label": "bytes32",
						"numberOfBytes": "32"
					},
					"t_mapping(t_bytes32,t_bool)": {
						"encoding": "mapping",
						"key": "t_bytes32",
						"label": "mapping(bytes32 => bool)",
						"numberOfBytes": "32",
						"value": "t_bool"
					},
					"t_mapping(t_bytes32,t_struct(voters)7_storage)": {
						"encoding": "mapping",
						"key": "t_bytes32",
						"label": "mapping(bytes32 => struct voting.voters)",
						"numberOfBytes": "32",
						"value": "t_struct(voters)7_storage"
					},
					"t_mapping(t_string_memory_ptr,t_uint256)": {
						"encoding": "mapping",
						"key": "t_string_memory_ptr",
						"label": "mapping(string => uint256)",
						"numberOfBytes": "32",
						"value": "t_uint256"
					},
					"t_string_memory_ptr": {
						"encoding": "bytes",
						"label": "string",
						"numberOfBytes": "32"
					},
					"t_string_storage": {
						"encoding": "bytes",
						"label": "string",
						"numberOfBytes": "32"
					},
					"t_struct(voters)7_storage": {
						"encoding": "inplace",
						"label": "struct voting.voters",
						"members": [
							{
								"astId": 4,
								"contract": "Voting System/voting.sol:voting",
								"label": "name",
								"offset": 0,
								"slot": "0",
								"type": "t_string_storage"
							},
							{
								"astId": 6,
								"contract": "Voting System/voting.sol:voting",
								"label": "age",
								"offset": 0,
								"slot": "1",
								"type": "t_uint256"
							}
						],
						"numberOfBytes": "64"
					},
					"t_uint256": {
						"encoding": "inplace",
						"label": "uint256",
						"numberOfBytes": "32"
					}
				}
			},
			"userdoc": {
				"kind": "user",
				"methods": {},
				"version": 1
			}
		}
	}
}