{
	"Game/game.sol": {
		"game": {
			"abi": [
				{
					"inputs": [],
					"stateMutability": "nonpayable",
					"type": "constructor"
				},
				{
					"inputs": [],
					"name": "Check_Winner",
					"outputs": [
						{
							"internalType": "string",
							"name": "",
							"type": "string"
						}
					],
					"stateMutability": "payable",
					"type": "function"
				},
				{
					"inputs": [],
					"name": "gameOver",
					"outputs": [
						{
							"internalType": "bool",
							"name": "",
							"type": "bool"
						}
					],
					"stateMutability": "view",
					"type": "function"
				},
				{
					"inputs": [],
					"name": "player1",
					"outputs": [
						{
							"internalType": "address",
							"name": "",
							"type": "address"
						}
					],
					"stateMutability": "view",
					"type": "function"
				},
				{
					"inputs": [
						{
							"internalType": "uint256",
							"name": "number",
							"type": "uint256"
						}
					],
					"name": "player1_move",
					"outputs": [
						{
							"internalType": "string",
							"name": "",
							"type": "string"
						}
					],
					"stateMutability": "payable",
					"type": "function"
				},
				{
					"inputs": [],
					"name": "player2",
					"outputs": [
						{
							"internalType": "address",
							"name": "",
							"type": "address"
						}
					],
					"stateMutability": "view",
					"type": "function"
				},
				{
					"inputs": [
						{
							"internalType": "uint256",
							"name": "number",
							"type": "uint256"
						}
					],
					"name": "player2_move",
					"outputs": [
						{
							"internalType": "string",
							"name": "",
							"type": "string"
						}
					],
					"stateMutability": "payable",
					"type": "function"
				},
				{
					"inputs": [],
					"name": "setPlayer1",
					"outputs": [],
					"stateMutability": "nonpayable",
					"type": "function"
				},
				{
					"inputs": [],
					"name": "setPlayer2",
					"outputs": [],
					"stateMutability": "nonpayable",
					"type": "function"
				},
				{
					"inputs": [],
					"name": "view_Move",
					"outputs": [
						{
							"internalType": "string",
							"name": "",
							"type": "string"
						},
						{
							"internalType": "string",
							"name": "",
							"type": "string"
						},
						{
							"internalType": "string",
							"name": "",
							"type": "string"
						}
					],
					"stateMutability": "pure",
					"type": "function"
				},
				{
					"inputs": [],
					"name": "view_player",
					"outputs": [
						{
							"internalType": "address",
							"name": "",
							"type": "address"
						},
						{
							"internalType": "address",
							"name": "",
							"type": "address"
						}
					],
					"stateMutability": "view",
					"type": "function"
				}
			],
			"devdoc": {
				"kind": "dev",
				"methods": {},
				"version": 1
			},
			"evm": {
				"assembly": "    /* \"Game/game.sol\":63:5733  contract game... */\n  mstore(0x40, 0x80)\n    /* \"Game/game.sol\":176:198  uint[3] move = [1,2,3] */\n  mload(0x40)\n  dup1\n  0x60\n  add\n  0x40\n  mstore\n  dup1\n    /* \"Game/game.sol\":192:193  1 */\n  0x01\n    /* \"Game/game.sol\":176:198  uint[3] move = [1,2,3] */\n  0xff\n  and\n  dup2\n  mstore\n  0x20\n  add\n    /* \"Game/game.sol\":194:195  2 */\n  0x02\n    /* \"Game/game.sol\":176:198  uint[3] move = [1,2,3] */\n  0xff\n  and\n  dup2\n  mstore\n  0x20\n  add\n    /* \"Game/game.sol\":196:197  3 */\n  0x03\n    /* \"Game/game.sol\":176:198  uint[3] move = [1,2,3] */\n  0xff\n  and\n  dup2\n  mstore\n  pop\n  0x02\n  swap1\n  0x03\n  tag_1\n  swap3\n  swap2\n  swap1\n  tag_2\n  jump\t// in\ntag_1:\n  pop\n    /* \"Game/game.sol\":348:377  constructor()... */\n  callvalue\n  dup1\n  iszero\n  tag_3\n  jumpi\n  0x00\n  dup1\n  revert\ntag_3:\n  pop\n    /* \"Game/game.sol\":63:5733  contract game... */\n  jump(tag_6)\ntag_2:\n  dup3\n  0x03\n  dup2\n  add\n  swap3\n  dup3\n  iszero\n  tag_7\n  jumpi\n  swap2\n  0x20\n  mul\n  dup3\n  add\ntag_8:\n  dup3\n  dup2\n  gt\n  iszero\n  tag_9\n  jumpi\n  dup3\n  mload\n  dup3\n  swap1\n  0xff\n  and\n  swap1\n  sstore\n  swap2\n  0x20\n  add\n  swap2\n  swap1\n  0x01\n  add\n  swap1\n  jump(tag_8)\ntag_9:\ntag_7:\n  pop\n  swap1\n  pop\n  tag_10\n  swap2\n  swap1\n  tag_11\n  jump\t// in\ntag_10:\n  pop\n  swap1\n  jump\t// out\ntag_11:\ntag_12:\n  dup1\n  dup3\n  gt\n  iszero\n  tag_13\n  jumpi\n  0x00\n  dup2\n  0x00\n  swap1\n  sstore\n  pop\n  0x01\n  add\n  jump(tag_12)\ntag_13:\n  pop\n  swap1\n  jump\t// out\ntag_6:\n  dataSize(sub_0)\n  dup1\n  dataOffset(sub_0)\n  0x00\n  codecopy\n  0x00\n  return\nstop\n\nsub_0: assembly {\n        /* \"Game/game.sol\":63:5733  contract game... */\n      mstore(0x40, 0x80)\n      jumpi(tag_1, lt(calldatasize, 0x04))\n      shr(0xe0, calldataload(0x00))\n      dup1\n      0xbdb337d1\n      gt\n      tag_12\n      jumpi\n      dup1\n      0xbdb337d1\n      eq\n      tag_7\n      jumpi\n      dup1\n      0xc19e9d8e\n      eq\n      tag_8\n      jumpi\n      dup1\n      0xcde1adf1\n      eq\n      tag_9\n      jumpi\n      dup1\n      0xd30895e4\n      eq\n      tag_10\n      jumpi\n      dup1\n      0xd582f131\n      eq\n      tag_11\n      jumpi\n      jump(tag_1)\n    tag_12:\n      dup1\n      0x37a9b783\n      eq\n      tag_2\n      jumpi\n      dup1\n      0x4db32a4c\n      eq\n      tag_3\n      jumpi\n      dup1\n      0x57da1e10\n      eq\n      tag_4\n      jumpi\n      dup1\n      0x59a5f12d\n      eq\n      tag_5\n      jumpi\n      dup1\n      0x6c2826a6\n      eq\n      tag_6\n      jumpi\n    tag_1:\n      0x00\n      dup1\n      revert\n        /* \"Game/game.sol\":1140:2011  function player1_move(uint number) public payable returns(string memory)... */\n    tag_2:\n      tag_13\n      0x04\n      dup1\n      calldatasize\n      sub\n      dup2\n      add\n      swap1\n      tag_14\n      swap2\n      swap1\n      tag_15\n      jump\t// in\n    tag_14:\n      tag_16\n      jump\t// in\n    tag_13:\n      mload(0x40)\n      tag_17\n      swap2\n      swap1\n      tag_18\n      jump\t// in\n    tag_17:\n      mload(0x40)\n      dup1\n      swap2\n      sub\n      swap1\n      return\n        /* \"Game/game.sol\":976:1132  function view_Move() public pure returns(string memory,string memory,string memory)... */\n    tag_3:\n      callvalue\n      dup1\n      iszero\n      tag_19\n      jumpi\n      0x00\n      dup1\n      revert\n    tag_19:\n      pop\n      tag_20\n      tag_21\n      jump\t// in\n    tag_20:\n      mload(0x40)\n      tag_22\n      swap4\n      swap3\n      swap2\n      swap1\n      tag_23\n      jump\t// in\n    tag_22:\n      mload(0x40)\n      dup1\n      swap2\n      sub\n      swap1\n      return\n        /* \"Game/game.sol\":2019:2945  function player2_move(uint number) public payable returns(string memory)... */\n    tag_4:\n      tag_24\n      0x04\n      dup1\n      calldatasize\n      sub\n      dup2\n      add\n      swap1\n      tag_25\n      swap2\n      swap1\n      tag_15\n      jump\t// in\n    tag_25:\n      tag_26\n      jump\t// in\n    tag_24:\n      mload(0x40)\n      tag_27\n      swap2\n      swap1\n      tag_18\n      jump\t// in\n    tag_27:\n      mload(0x40)\n      dup1\n      swap2\n      sub\n      swap1\n      return\n        /* \"Game/game.sol\":116:138  address public player2 */\n    tag_5:\n      callvalue\n      dup1\n      iszero\n      tag_28\n      jumpi\n      0x00\n      dup1\n      revert\n    tag_28:\n      pop\n      tag_29\n      tag_30\n      jump\t// in\n    tag_29:\n      mload(0x40)\n      tag_31\n      swap2\n      swap1\n      tag_32\n      jump\t// in\n    tag_31:\n      mload(0x40)\n      dup1\n      swap2\n      sub\n      swap1\n      return\n        /* \"Game/game.sol\":858:968  function view_player() public view returns(address , address)... */\n    tag_6:\n      callvalue\n      dup1\n      iszero\n      tag_33\n      jumpi\n      0x00\n      dup1\n      revert\n    tag_33:\n      pop\n      tag_34\n      tag_35\n      jump\t// in\n    tag_34:\n      mload(0x40)\n      tag_36\n      swap3\n      swap2\n      swap1\n      tag_37\n      jump\t// in\n    tag_36:\n      mload(0x40)\n      dup1\n      swap2\n      sub\n      swap1\n      return\n        /* \"Game/game.sol\":147:167  bool public gameOver */\n    tag_7:\n      callvalue\n      dup1\n      iszero\n      tag_38\n      jumpi\n      0x00\n      dup1\n      revert\n    tag_38:\n      pop\n      tag_39\n      tag_40\n      jump\t// in\n    tag_39:\n      mload(0x40)\n      tag_41\n      swap2\n      swap1\n      tag_42\n      jump\t// in\n    tag_41:\n      mload(0x40)\n      dup1\n      swap2\n      sub\n      swap1\n      return\n        /* \"Game/game.sol\":2953:4332  function Check_Winner() public payable returns(string memory) ... */\n    tag_8:\n      tag_43\n      tag_44\n      jump\t// in\n    tag_43:\n      mload(0x40)\n      tag_45\n      swap2\n      swap1\n      tag_18\n      jump\t// in\n    tag_45:\n      mload(0x40)\n      dup1\n      swap2\n      sub\n      swap1\n      return\n        /* \"Game/game.sol\":531:850  function setPlayer2() external {... */\n    tag_9:\n      callvalue\n      dup1\n      iszero\n      tag_46\n      jumpi\n      0x00\n      dup1\n      revert\n    tag_46:\n      pop\n      tag_47\n      tag_48\n      jump\t// in\n    tag_47:\n      stop\n        /* \"Game/game.sol\":87:109  address public player1 */\n    tag_10:\n      callvalue\n      dup1\n      iszero\n      tag_49\n      jumpi\n      0x00\n      dup1\n      revert\n    tag_49:\n      pop\n      tag_50\n      tag_51\n      jump\t// in\n    tag_50:\n      mload(0x40)\n      tag_52\n      swap2\n      swap1\n      tag_32\n      jump\t// in\n    tag_52:\n      mload(0x40)\n      dup1\n      swap2\n      sub\n      swap1\n      return\n        /* \"Game/game.sol\":385:523  function setPlayer1() external {... */\n    tag_11:\n      callvalue\n      dup1\n      iszero\n      tag_53\n      jumpi\n      0x00\n      dup1\n      revert\n    tag_53:\n      pop\n      tag_54\n      tag_55\n      jump\t// in\n    tag_54:\n      stop\n        /* \"Game/game.sol\":1140:2011  function player1_move(uint number) public payable returns(string memory)... */\n    tag_16:\n        /* \"Game/game.sol\":1198:1211  string memory */\n      0x60\n        /* \"Game/game.sol\":1247:1251  move */\n      0x02\n        /* \"Game/game.sol\":1252:1253  0 */\n      0x00\n        /* \"Game/game.sol\":1247:1254  move[0] */\n      0x03\n      dup2\n      lt\n      tag_57\n      jumpi\n      tag_58\n      tag_59\n      jump\t// in\n    tag_58:\n    tag_57:\n      add\n      sload\n        /* \"Game/game.sol\":1237:1243  number */\n      dup3\n        /* \"Game/game.sol\":1237:1254  number == move[0] */\n      eq\n        /* \"Game/game.sol\":1237:1275  number == move[0] || number == move[1] */\n      dup1\n      tag_61\n      jumpi\n      pop\n        /* \"Game/game.sol\":1268:1272  move */\n      0x02\n        /* \"Game/game.sol\":1273:1274  1 */\n      0x01\n        /* \"Game/game.sol\":1268:1275  move[1] */\n      0x03\n      dup2\n      lt\n      tag_62\n      jumpi\n      tag_63\n      tag_59\n      jump\t// in\n    tag_63:\n    tag_62:\n      add\n      sload\n        /* \"Game/game.sol\":1258:1264  number */\n      dup3\n        /* \"Game/game.sol\":1258:1275  number == move[1] */\n      eq\n        /* \"Game/game.sol\":1237:1275  number == move[0] || number == move[1] */\n    tag_61:\n        /* \"Game/game.sol\":1237:1296  number == move[0] || number == move[1] || number == move[2] */\n      dup1\n      tag_65\n      jumpi\n      pop\n        /* \"Game/game.sol\":1289:1293  move */\n      0x02\n        /* \"Game/game.sol\":1294:1295  2 */\n      dup1\n        /* \"Game/game.sol\":1289:1296  move[2] */\n      0x03\n      dup2\n      lt\n      tag_66\n      jumpi\n      tag_67\n      tag_59\n      jump\t// in\n    tag_67:\n    tag_66:\n      add\n      sload\n        /* \"Game/game.sol\":1279:1285  number */\n      dup3\n        /* \"Game/game.sol\":1279:1296  number == move[2] */\n      eq\n        /* \"Game/game.sol\":1237:1296  number == move[0] || number == move[1] || number == move[2] */\n    tag_65:\n        /* \"Game/game.sol\":1229:1297  require(number == move[0] || number == move[1] || number == move[2]) */\n      tag_69\n      jumpi\n      0x00\n      dup1\n      revert\n    tag_69:\n        /* \"Game/game.sol\":1330:1337  player1 */\n      0x00\n      dup1\n      sload\n      swap1\n      0x0100\n      exp\n      swap1\n      div\n      0xffffffffffffffffffffffffffffffffffffffff\n      and\n        /* \"Game/game.sol\":1316:1337  msg.sender == player1 */\n      0xffffffffffffffffffffffffffffffffffffffff\n      and\n        /* \"Game/game.sol\":1316:1326  msg.sender */\n      caller\n        /* \"Game/game.sol\":1316:1337  msg.sender == player1 */\n      0xffffffffffffffffffffffffffffffffffffffff\n      and\n      eq\n        /* \"Game/game.sol\":1308:1371  require(msg.sender == player1 , \"Only players can make a move\") */\n      tag_70\n      jumpi\n      mload(0x40)\n      0x08c379a000000000000000000000000000000000000000000000000000000000\n      dup2\n      mstore\n      0x04\n      add\n      tag_71\n      swap1\n      tag_72\n      jump\t// in\n    tag_71:\n      mload(0x40)\n      dup1\n      swap2\n      sub\n      swap1\n      revert\n    tag_70:\n        /* \"Game/game.sol\":1403:1422  1000000000000000000 */\n      0x0de0b6b3a7640000\n        /* \"Game/game.sol\":1390:1399  msg.value */\n      callvalue\n        /* \"Game/game.sol\":1390:1422  msg.value == 1000000000000000000 */\n      eq\n        /* \"Game/game.sol\":1382:1464  require(msg.value == 1000000000000000000,\"please check value, it must be 1 Ether\") */\n      tag_73\n      jumpi\n      mload(0x40)\n      0x08c379a000000000000000000000000000000000000000000000000000000000\n      dup2\n      mstore\n      0x04\n      add\n      tag_74\n      swap1\n      tag_75\n      jump\t// in\n    tag_74:\n      mload(0x40)\n      dup1\n      swap2\n      sub\n      swap1\n      revert\n    tag_73:\n        /* \"Game/game.sol\":1484:1492  gameOver */\n      0x01\n      0x14\n      swap1\n      sload\n      swap1\n      0x0100\n      exp\n      swap1\n      div\n      0xff\n      and\n        /* \"Game/game.sol\":1483:1492  !gameOver */\n      iszero\n        /* \"Game/game.sol\":1475:1552  require(!gameOver, \"The game is over, please start a new game to play again\") */\n      tag_76\n      jumpi\n      mload(0x40)\n      0x08c379a000000000000000000000000000000000000000000000000000000000\n      dup2\n      mstore\n      0x04\n      add\n      tag_77\n      swap1\n      tag_78\n      jump\t// in\n    tag_77:\n      mload(0x40)\n      dup1\n      swap2\n      sub\n      swap1\n      revert\n    tag_76:\n        /* \"Game/game.sol\":1648:1654  number */\n      dup2\n        /* \"Game/game.sol\":1633:1642  storeMove */\n      0x05\n        /* \"Game/game.sol\":1643:1644  0 */\n      0x00\n        /* \"Game/game.sol\":1633:1645  storeMove[0] */\n      0x02\n      dup2\n      lt\n      tag_79\n      jumpi\n      tag_80\n      tag_59\n      jump\t// in\n    tag_80:\n    tag_79:\n      add\n        /* \"Game/game.sol\":1633:1654  storeMove[0] = number */\n      dup2\n      swap1\n      sstore\n      pop\n        /* \"Game/game.sol\":1680:1684  move */\n      0x02\n        /* \"Game/game.sol\":1685:1686  0 */\n      0x00\n        /* \"Game/game.sol\":1680:1687  move[0] */\n      0x03\n      dup2\n      lt\n      tag_82\n      jumpi\n      tag_83\n      tag_59\n      jump\t// in\n    tag_83:\n    tag_82:\n      add\n      sload\n        /* \"Game/game.sol\":1670:1676  number */\n      dup3\n        /* \"Game/game.sol\":1670:1687  number == move[0] */\n      sub\n        /* \"Game/game.sol\":1667:1975  if(number == move[0])... */\n      tag_85\n      jumpi\n        /* \"Game/game.sol\":1713:1727  return \"Stone\" */\n      mload(0x40)\n      dup1\n      0x40\n      add\n      0x40\n      mstore\n      dup1\n      0x05\n      dup2\n      mstore\n      0x20\n      add\n      0x53746f6e65000000000000000000000000000000000000000000000000000000\n      dup2\n      mstore\n      pop\n      swap1\n      pop\n      jump(tag_56)\n        /* \"Game/game.sol\":1667:1975  if(number == move[0])... */\n    tag_85:\n        /* \"Game/game.sol\":1767:1771  move */\n      0x02\n        /* \"Game/game.sol\":1772:1773  1 */\n      0x01\n        /* \"Game/game.sol\":1767:1774  move[1] */\n      0x03\n      dup2\n      lt\n      tag_87\n      jumpi\n      tag_88\n      tag_59\n      jump\t// in\n    tag_88:\n    tag_87:\n      add\n      sload\n        /* \"Game/game.sol\":1757:1763  number */\n      dup3\n        /* \"Game/game.sol\":1757:1774  number == move[1] */\n      sub\n        /* \"Game/game.sol\":1754:1975  if(number == move[1])... */\n      tag_90\n      jumpi\n        /* \"Game/game.sol\":1800:1814  return \"Paper\" */\n      mload(0x40)\n      dup1\n      0x40\n      add\n      0x40\n      mstore\n      dup1\n      0x05\n      dup2\n      mstore\n      0x20\n      add\n      0x5061706572000000000000000000000000000000000000000000000000000000\n      dup2\n      mstore\n      pop\n      swap1\n      pop\n      jump(tag_56)\n        /* \"Game/game.sol\":1754:1975  if(number == move[1])... */\n    tag_90:\n        /* \"Game/game.sol\":1854:1858  move */\n      0x02\n        /* \"Game/game.sol\":1859:1860  2 */\n      dup1\n        /* \"Game/game.sol\":1854:1861  move[2] */\n      0x03\n      dup2\n      lt\n      tag_92\n      jumpi\n      tag_93\n      tag_59\n      jump\t// in\n    tag_93:\n    tag_92:\n      add\n      sload\n        /* \"Game/game.sol\":1844:1850  number */\n      dup3\n        /* \"Game/game.sol\":1844:1861  number == move[2] */\n      sub\n        /* \"Game/game.sol\":1841:1975  if(number == move[2])... */\n      tag_95\n      jumpi\n        /* \"Game/game.sol\":1887:1903  return \"Scissor\" */\n      mload(0x40)\n      dup1\n      0x40\n      add\n      0x40\n      mstore\n      dup1\n      0x07\n      dup2\n      mstore\n      0x20\n      add\n      0x53636973736f7200000000000000000000000000000000000000000000000000\n      dup2\n      mstore\n      pop\n      swap1\n      pop\n      jump(tag_56)\n        /* \"Game/game.sol\":1841:1975  if(number == move[2])... */\n    tag_95:\n        /* \"Game/game.sol\":1954:1963  return \"\" */\n      mload(0x40)\n      dup1\n      0x20\n      add\n      0x40\n      mstore\n      dup1\n      0x00\n      dup2\n      mstore\n      pop\n      swap1\n      pop\n        /* \"Game/game.sol\":1140:2011  function player1_move(uint number) public payable returns(string memory)... */\n    tag_56:\n      swap2\n      swap1\n      pop\n      jump\t// out\n        /* \"Game/game.sol\":976:1132  function view_Move() public pure returns(string memory,string memory,string memory)... */\n    tag_21:\n        /* \"Game/game.sol\":1017:1030  string memory */\n      0x60\n        /* \"Game/game.sol\":1031:1044  string memory */\n      dup1\n        /* \"Game/game.sol\":1045:1058  string memory */\n      0x60\n        /* \"Game/game.sol\":1076:1124  return(\"Stone = 1\",\" Paper = 2\", \"Scissor = 3\" ) */\n      mload(0x40)\n      dup1\n      0x40\n      add\n      0x40\n      mstore\n      dup1\n      0x09\n      dup2\n      mstore\n      0x20\n      add\n      0x53746f6e65203d20310000000000000000000000000000000000000000000000\n      dup2\n      mstore\n      pop\n      mload(0x40)\n      dup1\n      0x40\n      add\n      0x40\n      mstore\n      dup1\n      0x0a\n      dup2\n      mstore\n      0x20\n      add\n      0x205061706572203d203200000000000000000000000000000000000000000000\n      dup2\n      mstore\n      pop\n      mload(0x40)\n      dup1\n      0x40\n      add\n      0x40\n      mstore\n      dup1\n      0x0b\n      dup2\n      mstore\n      0x20\n      add\n      0x53636973736f72203d2033000000000000000000000000000000000000000000\n      dup2\n      mstore\n      pop\n      swap3\n      pop\n      swap3\n      pop\n      swap3\n      pop\n        /* \"Game/game.sol\":976:1132  function view_Move() public pure returns(string memory,string memory,string memory)... */\n      swap1\n      swap2\n      swap3\n      jump\t// out\n        /* \"Game/game.sol\":2019:2945  function player2_move(uint number) public payable returns(string memory)... */\n    tag_26:\n        /* \"Game/game.sol\":2077:2090  string memory */\n      0x60\n        /* \"Game/game.sol\":2126:2130  move */\n      0x02\n        /* \"Game/game.sol\":2131:2132  0 */\n      0x00\n        /* \"Game/game.sol\":2126:2133  move[0] */\n      0x03\n      dup2\n      lt\n      tag_99\n      jumpi\n      tag_100\n      tag_59\n      jump\t// in\n    tag_100:\n    tag_99:\n      add\n      sload\n        /* \"Game/game.sol\":2116:2122  number */\n      dup3\n        /* \"Game/game.sol\":2116:2133  number == move[0] */\n      eq\n        /* \"Game/game.sol\":2116:2154  number == move[0] || number == move[1] */\n      dup1\n      tag_102\n      jumpi\n      pop\n        /* \"Game/game.sol\":2147:2151  move */\n      0x02\n        /* \"Game/game.sol\":2152:2153  1 */\n      0x01\n        /* \"Game/game.sol\":2147:2154  move[1] */\n      0x03\n      dup2\n      lt\n      tag_103\n      jumpi\n      tag_104\n      tag_59\n      jump\t// in\n    tag_104:\n    tag_103:\n      add\n      sload\n        /* \"Game/game.sol\":2137:2143  number */\n      dup3\n        /* \"Game/game.sol\":2137:2154  number == move[1] */\n      eq\n        /* \"Game/game.sol\":2116:2154  number == move[0] || number == move[1] */\n    tag_102:\n        /* \"Game/game.sol\":2116:2175  number == move[0] || number == move[1] || number == move[2] */\n      dup1\n      tag_106\n      jumpi\n      pop\n        /* \"Game/game.sol\":2168:2172  move */\n      0x02\n        /* \"Game/game.sol\":2173:2174  2 */\n      dup1\n        /* \"Game/game.sol\":2168:2175  move[2] */\n      0x03\n      dup2\n      lt\n      tag_107\n      jumpi\n      tag_108\n      tag_59\n      jump\t// in\n    tag_108:\n    tag_107:\n      add\n      sload\n        /* \"Game/game.sol\":2158:2164  number */\n      dup3\n        /* \"Game/game.sol\":2158:2175  number == move[2] */\n      eq\n        /* \"Game/game.sol\":2116:2175  number == move[0] || number == move[1] || number == move[2] */\n    tag_106:\n        /* \"Game/game.sol\":2108:2176  require(number == move[0] || number == move[1] || number == move[2]) */\n      tag_110\n      jumpi\n      0x00\n      dup1\n      revert\n    tag_110:\n        /* \"Game/game.sol\":2209:2216  player2 */\n      0x01\n      0x00\n      swap1\n      sload\n      swap1\n      0x0100\n      exp\n      swap1\n      div\n      0xffffffffffffffffffffffffffffffffffffffff\n      and\n        /* \"Game/game.sol\":2195:2216  msg.sender == player2 */\n      0xffffffffffffffffffffffffffffffffffffffff\n      and\n        /* \"Game/game.sol\":2195:2205  msg.sender */\n      caller\n        /* \"Game/game.sol\":2195:2216  msg.sender == player2 */\n      0xffffffffffffffffffffffffffffffffffffffff\n      and\n      eq\n        /* \"Game/game.sol\":2187:2249  require(msg.sender == player2, \"Only players can make a move\") */\n      tag_111\n      jumpi\n      mload(0x40)\n      0x08c379a000000000000000000000000000000000000000000000000000000000\n      dup2\n      mstore\n      0x04\n      add\n      tag_112\n      swap1\n      tag_72\n      jump\t// in\n    tag_112:\n      mload(0x40)\n      dup1\n      swap2\n      sub\n      swap1\n      revert\n    tag_111:\n        /* \"Game/game.sol\":2281:2300  1000000000000000000 */\n      0x0de0b6b3a7640000\n        /* \"Game/game.sol\":2268:2277  msg.value */\n      callvalue\n        /* \"Game/game.sol\":2268:2300  msg.value == 1000000000000000000 */\n      eq\n        /* \"Game/game.sol\":2260:2342  require(msg.value == 1000000000000000000,\"please check value, it must be 1 Ether\") */\n      tag_113\n      jumpi\n      mload(0x40)\n      0x08c379a000000000000000000000000000000000000000000000000000000000\n      dup2\n      mstore\n      0x04\n      add\n      tag_114\n      swap1\n      tag_75\n      jump\t// in\n    tag_114:\n      mload(0x40)\n      dup1\n      swap2\n      sub\n      swap1\n      revert\n    tag_113:\n        /* \"Game/game.sol\":2377:2378  0 */\n      0x00\n        /* \"Game/game.sol\":2361:2370  storeMove */\n      0x05\n        /* \"Game/game.sol\":2371:2372  0 */\n      0x00\n        /* \"Game/game.sol\":2361:2373  storeMove[0] */\n      0x02\n      dup2\n      lt\n      tag_115\n      jumpi\n      tag_116\n      tag_59\n      jump\t// in\n    tag_116:\n    tag_115:\n      add\n      sload\n        /* \"Game/game.sol\":2361:2378  storeMove[0] != 0 */\n      sub\n        /* \"Game/game.sol\":2353:2400  require(storeMove[0] != 0,\"it's Player 1 Move\") */\n      tag_118\n      jumpi\n      mload(0x40)\n      0x08c379a000000000000000000000000000000000000000000000000000000000\n      dup2\n      mstore\n      0x04\n      add\n      tag_119\n      swap1\n      tag_120\n      jump\t// in\n    tag_119:\n      mload(0x40)\n      dup1\n      swap2\n      sub\n      swap1\n      revert\n    tag_118:\n        /* \"Game/game.sol\":2420:2428  gameOver */\n      0x01\n      0x14\n      swap1\n      sload\n      swap1\n      0x0100\n      exp\n      swap1\n      div\n      0xff\n      and\n        /* \"Game/game.sol\":2419:2428  !gameOver */\n      iszero\n        /* \"Game/game.sol\":2411:2488  require(!gameOver, \"The game is over, please start a new game to play again\") */\n      tag_121\n      jumpi\n      mload(0x40)\n      0x08c379a000000000000000000000000000000000000000000000000000000000\n      dup2\n      mstore\n      0x04\n      add\n      tag_122\n      swap1\n      tag_78\n      jump\t// in\n    tag_122:\n      mload(0x40)\n      dup1\n      swap2\n      sub\n      swap1\n      revert\n    tag_121:\n        /* \"Game/game.sol\":2582:2588  number */\n      dup2\n        /* \"Game/game.sol\":2567:2576  storeMove */\n      0x05\n        /* \"Game/game.sol\":2577:2578  1 */\n      0x01\n        /* \"Game/game.sol\":2567:2579  storeMove[1] */\n      0x02\n      dup2\n      lt\n      tag_123\n      jumpi\n      tag_124\n      tag_59\n      jump\t// in\n    tag_124:\n    tag_123:\n      add\n        /* \"Game/game.sol\":2567:2588  storeMove[1] = number */\n      dup2\n      swap1\n      sstore\n      pop\n        /* \"Game/game.sol\":2614:2618  move */\n      0x02\n        /* \"Game/game.sol\":2619:2620  0 */\n      0x00\n        /* \"Game/game.sol\":2614:2621  move[0] */\n      0x03\n      dup2\n      lt\n      tag_126\n      jumpi\n      tag_127\n      tag_59\n      jump\t// in\n    tag_127:\n    tag_126:\n      add\n      sload\n        /* \"Game/game.sol\":2604:2610  number */\n      dup3\n        /* \"Game/game.sol\":2604:2621  number == move[0] */\n      sub\n        /* \"Game/game.sol\":2601:2909  if(number == move[0])... */\n      tag_129\n      jumpi\n        /* \"Game/game.sol\":2647:2661  return \"Stone\" */\n      mload(0x40)\n      dup1\n      0x40\n      add\n      0x40\n      mstore\n      dup1\n      0x05\n      dup2\n      mstore\n      0x20\n      add\n      0x53746f6e65000000000000000000000000000000000000000000000000000000\n      dup2\n      mstore\n      pop\n      swap1\n      pop\n      jump(tag_98)\n        /* \"Game/game.sol\":2601:2909  if(number == move[0])... */\n    tag_129:\n        /* \"Game/game.sol\":2701:2705  move */\n      0x02\n        /* \"Game/game.sol\":2706:2707  1 */\n      0x01\n        /* \"Game/game.sol\":2701:2708  move[1] */\n      0x03\n      dup2\n      lt\n      tag_131\n      jumpi\n      tag_132\n      tag_59\n      jump\t// in\n    tag_132:\n    tag_131:\n      add\n      sload\n        /* \"Game/game.sol\":2691:2697  number */\n      dup3\n        /* \"Game/game.sol\":2691:2708  number == move[1] */\n      sub\n        /* \"Game/game.sol\":2688:2909  if(number == move[1])... */\n      tag_134\n      jumpi\n        /* \"Game/game.sol\":2734:2748  return \"Paper\" */\n      mload(0x40)\n      dup1\n      0x40\n      add\n      0x40\n      mstore\n      dup1\n      0x05\n      dup2\n      mstore\n      0x20\n      add\n      0x5061706572000000000000000000000000000000000000000000000000000000\n      dup2\n      mstore\n      pop\n      swap1\n      pop\n      jump(tag_98)\n        /* \"Game/game.sol\":2688:2909  if(number == move[1])... */\n    tag_134:\n        /* \"Game/game.sol\":2788:2792  move */\n      0x02\n        /* \"Game/game.sol\":2793:2794  2 */\n      dup1\n        /* \"Game/game.sol\":2788:2795  move[2] */\n      0x03\n      dup2\n      lt\n      tag_136\n      jumpi\n      tag_137\n      tag_59\n      jump\t// in\n    tag_137:\n    tag_136:\n      add\n      sload\n        /* \"Game/game.sol\":2778:2784  number */\n      dup3\n        /* \"Game/game.sol\":2778:2795  number == move[2] */\n      sub\n        /* \"Game/game.sol\":2775:2909  if(number == move[2])... */\n      tag_139\n      jumpi\n        /* \"Game/game.sol\":2821:2837  return \"Scissor\" */\n      mload(0x40)\n      dup1\n      0x40\n      add\n      0x40\n      mstore\n      dup1\n      0x07\n      dup2\n      mstore\n      0x20\n      add\n      0x53636973736f7200000000000000000000000000000000000000000000000000\n      dup2\n      mstore\n      pop\n      swap1\n      pop\n      jump(tag_98)\n        /* \"Game/game.sol\":2775:2909  if(number == move[2])... */\n    tag_139:\n        /* \"Game/game.sol\":2888:2897  return \"\" */\n      mload(0x40)\n      dup1\n      0x20\n      add\n      0x40\n      mstore\n      dup1\n      0x00\n      dup2\n      mstore\n      pop\n      swap1\n      pop\n        /* \"Game/game.sol\":2019:2945  function player2_move(uint number) public payable returns(string memory)... */\n    tag_98:\n      swap2\n      swap1\n      pop\n      jump\t// out\n        /* \"Game/game.sol\":116:138  address public player2 */\n    tag_30:\n      0x01\n      0x00\n      swap1\n      sload\n      swap1\n      0x0100\n      exp\n      swap1\n      div\n      0xffffffffffffffffffffffffffffffffffffffff\n      and\n      dup2\n      jump\t// out\n        /* \"Game/game.sol\":858:968  function view_player() public view returns(address , address)... */\n    tag_35:\n        /* \"Game/game.sol\":901:908  address */\n      0x00\n        /* \"Game/game.sol\":911:918  address */\n      dup1\n        /* \"Game/game.sol\":944:951  player1 */\n      0x00\n      dup1\n      sload\n      swap1\n      0x0100\n      exp\n      swap1\n      div\n      0xffffffffffffffffffffffffffffffffffffffff\n      and\n        /* \"Game/game.sol\":952:959  player2 */\n      0x01\n      0x00\n      swap1\n      sload\n      swap1\n      0x0100\n      exp\n      swap1\n      div\n      0xffffffffffffffffffffffffffffffffffffffff\n      and\n        /* \"Game/game.sol\":936:960  return (player1,player2) */\n      swap2\n      pop\n      swap2\n      pop\n        /* \"Game/game.sol\":858:968  function view_player() public view returns(address , address)... */\n      swap1\n      swap2\n      jump\t// out\n        /* \"Game/game.sol\":147:167  bool public gameOver */\n    tag_40:\n      0x01\n      0x14\n      swap1\n      sload\n      swap1\n      0x0100\n      exp\n      swap1\n      div\n      0xff\n      and\n      dup2\n      jump\t// out\n        /* \"Game/game.sol\":2953:4332  function Check_Winner() public payable returns(string memory) ... */\n    tag_44:\n        /* \"Game/game.sol\":3000:3013  string memory */\n      0x60\n        /* \"Game/game.sol\":3059:3060  0 */\n      0x00\n        /* \"Game/game.sol\":3043:3052  storeMove */\n      0x05\n        /* \"Game/game.sol\":3053:3054  0 */\n      0x00\n        /* \"Game/game.sol\":3043:3055  storeMove[0] */\n      0x02\n      dup2\n      lt\n      tag_143\n      jumpi\n      tag_144\n      tag_59\n      jump\t// in\n    tag_144:\n    tag_143:\n      add\n      sload\n        /* \"Game/game.sol\":3043:3060  storeMove[0] != 0 */\n      eq\n      iszero\n        /* \"Game/game.sol\":3043:3081  storeMove[0] != 0 && storeMove[1] != 0 */\n      dup1\n      iszero\n      tag_146\n      jumpi\n      pop\n        /* \"Game/game.sol\":3080:3081  0 */\n      0x00\n        /* \"Game/game.sol\":3064:3073  storeMove */\n      0x05\n        /* \"Game/game.sol\":3074:3075  1 */\n      0x01\n        /* \"Game/game.sol\":3064:3076  storeMove[1] */\n      0x02\n      dup2\n      lt\n      tag_147\n      jumpi\n      tag_148\n      tag_59\n      jump\t// in\n    tag_148:\n    tag_147:\n      add\n      sload\n        /* \"Game/game.sol\":3064:3081  storeMove[1] != 0 */\n      eq\n      iszero\n        /* \"Game/game.sol\":3043:3081  storeMove[0] != 0 && storeMove[1] != 0 */\n    tag_146:\n        /* \"Game/game.sol\":3035:3144  require(storeMove[0] != 0 && storeMove[1] != 0, \"Both players must make a move before checking for a winner\") */\n      tag_150\n      jumpi\n      mload(0x40)\n      0x08c379a000000000000000000000000000000000000000000000000000000000\n      dup2\n      mstore\n      0x04\n      add\n      tag_151\n      swap1\n      tag_152\n      jump\t// in\n    tag_151:\n      mload(0x40)\n      dup1\n      swap2\n      sub\n      swap1\n      revert\n    tag_150:\n        /* \"Game/game.sol\":3157:3183  results[1][1] = \"Its Draw\" */\n      mload(0x40)\n      dup1\n      0x40\n      add\n      0x40\n      mstore\n      dup1\n      0x08\n      dup2\n      mstore\n      0x20\n      add\n      0x4974732044726177000000000000000000000000000000000000000000000000\n      dup2\n      mstore\n      pop\n        /* \"Game/game.sol\":3157:3164  results */\n      0x07\n        /* \"Game/game.sol\":3157:3167  results[1] */\n      0x00\n        /* \"Game/game.sol\":3165:3166  1 */\n      0x01\n        /* \"Game/game.sol\":3157:3167  results[1] */\n      dup2\n      mstore\n      0x20\n      add\n      swap1\n      dup2\n      mstore\n      0x20\n      add\n      0x00\n      keccak256\n        /* \"Game/game.sol\":3157:3170  results[1][1] */\n      0x00\n        /* \"Game/game.sol\":3168:3169  1 */\n      0x01\n        /* \"Game/game.sol\":3157:3170  results[1][1] */\n      dup2\n      mstore\n      0x20\n      add\n      swap1\n      dup2\n      mstore\n      0x20\n      add\n      0x00\n      keccak256\n        /* \"Game/game.sol\":3157:3183  results[1][1] = \"Its Draw\" */\n      swap1\n      dup2\n      tag_153\n      swap2\n      swap1\n      tag_154\n      jump\t// in\n    tag_153:\n      pop\n        /* \"Game/game.sol\":3194:3224  results[1][2] = \"Player 2 Win\" */\n      mload(0x40)\n      dup1\n      0x40\n      add\n      0x40\n      mstore\n      dup1\n      0x0c\n      dup2\n      mstore\n      0x20\n      add\n      0x506c6179657220322057696e0000000000000000000000000000000000000000\n      dup2\n      mstore\n      pop\n        /* \"Game/game.sol\":3194:3201  results */\n      0x07\n        /* \"Game/game.sol\":3194:3204  results[1] */\n      0x00\n        /* \"Game/game.sol\":3202:3203  1 */\n      0x01\n        /* \"Game/game.sol\":3194:3204  results[1] */\n      dup2\n      mstore\n      0x20\n      add\n      swap1\n      dup2\n      mstore\n      0x20\n      add\n      0x00\n      keccak256\n        /* \"Game/game.sol\":3194:3207  results[1][2] */\n      0x00\n        /* \"Game/game.sol\":3205:3206  2 */\n      0x02\n        /* \"Game/game.sol\":3194:3207  results[1][2] */\n      dup2\n      mstore\n      0x20\n      add\n      swap1\n      dup2\n      mstore\n      0x20\n      add\n      0x00\n      keccak256\n        /* \"Game/game.sol\":3194:3224  results[1][2] = \"Player 2 Win\" */\n      swap1\n      dup2\n      tag_155\n      swap2\n      swap1\n      tag_154\n      jump\t// in\n    tag_155:\n      pop\n        /* \"Game/game.sol\":3235:3265  results[1][3] = \"Player 1 Win\" */\n      mload(0x40)\n      dup1\n      0x40\n      add\n      0x40\n      mstore\n      dup1\n      0x0c\n      dup2\n      mstore\n      0x20\n      add\n      0x506c6179657220312057696e0000000000000000000000000000000000000000\n      dup2\n      mstore\n      pop\n        /* \"Game/game.sol\":3235:3242  results */\n      0x07\n        /* \"Game/game.sol\":3235:3245  results[1] */\n      0x00\n        /* \"Game/game.sol\":3243:3244  1 */\n      0x01\n        /* \"Game/game.sol\":3235:3245  results[1] */\n      dup2\n      mstore\n      0x20\n      add\n      swap1\n      dup2\n      mstore\n      0x20\n      add\n      0x00\n      keccak256\n        /* \"Game/game.sol\":3235:3248  results[1][3] */\n      0x00\n        /* \"Game/game.sol\":3246:3247  3 */\n      0x03\n        /* \"Game/game.sol\":3235:3248  results[1][3] */\n      dup2\n      mstore\n      0x20\n      add\n      swap1\n      dup2\n      mstore\n      0x20\n      add\n      0x00\n      keccak256\n        /* \"Game/game.sol\":3235:3265  results[1][3] = \"Player 1 Win\" */\n      swap1\n      dup2\n      tag_156\n      swap2\n      swap1\n      tag_154\n      jump\t// in\n    tag_156:\n      pop\n        /* \"Game/game.sol\":3276:3306  results[2][1] = \"Player 1 Win\" */\n      mload(0x40)\n      dup1\n      0x40\n      add\n      0x40\n      mstore\n      dup1\n      0x0c\n      dup2\n      mstore\n      0x20\n      add\n      0x506c6179657220312057696e0000000000000000000000000000000000000000\n      dup2\n      mstore\n      pop\n        /* \"Game/game.sol\":3276:3283  results */\n      0x07\n        /* \"Game/game.sol\":3276:3286  results[2] */\n      0x00\n        /* \"Game/game.sol\":3284:3285  2 */\n      0x02\n        /* \"Game/game.sol\":3276:3286  results[2] */\n      dup2\n      mstore\n      0x20\n      add\n      swap1\n      dup2\n      mstore\n      0x20\n      add\n      0x00\n      keccak256\n        /* \"Game/game.sol\":3276:3289  results[2][1] */\n      0x00\n        /* \"Game/game.sol\":3287:3288  1 */\n      0x01\n        /* \"Game/game.sol\":3276:3289  results[2][1] */\n      dup2\n      mstore\n      0x20\n      add\n      swap1\n      dup2\n      mstore\n      0x20\n      add\n      0x00\n      keccak256\n        /* \"Game/game.sol\":3276:3306  results[2][1] = \"Player 1 Win\" */\n      swap1\n      dup2\n      tag_157\n      swap2\n      swap1\n      tag_154\n      jump\t// in\n    tag_157:\n      pop\n        /* \"Game/game.sol\":3317:3343  results[2][2] = \"Its Draw\" */\n      mload(0x40)\n      dup1\n      0x40\n      add\n      0x40\n      mstore\n      dup1\n      0x08\n      dup2\n      mstore\n      0x20\n      add\n      0x4974732044726177000000000000000000000000000000000000000000000000\n      dup2\n      mstore\n      pop\n        /* \"Game/game.sol\":3317:3324  results */\n      0x07\n        /* \"Game/game.sol\":3317:3327  results[2] */\n      0x00\n        /* \"Game/game.sol\":3325:3326  2 */\n      0x02\n        /* \"Game/game.sol\":3317:3327  results[2] */\n      dup2\n      mstore\n      0x20\n      add\n      swap1\n      dup2\n      mstore\n      0x20\n      add\n      0x00\n      keccak256\n        /* \"Game/game.sol\":3317:3330  results[2][2] */\n      0x00\n        /* \"Game/game.sol\":3328:3329  2 */\n      0x02\n        /* \"Game/game.sol\":3317:3330  results[2][2] */\n      dup2\n      mstore\n      0x20\n      add\n      swap1\n      dup2\n      mstore\n      0x20\n      add\n      0x00\n      keccak256\n        /* \"Game/game.sol\":3317:3343  results[2][2] = \"Its Draw\" */\n      swap1\n      dup2\n      tag_158\n      swap2\n      swap1\n      tag_154\n      jump\t// in\n    tag_158:\n      pop\n        /* \"Game/game.sol\":3354:3384  results[2][3] = \"Player 2 Win\" */\n      mload(0x40)\n      dup1\n      0x40\n      add\n      0x40\n      mstore\n      dup1\n      0x0c\n      dup2\n      mstore\n      0x20\n      add\n      0x506c6179657220322057696e0000000000000000000000000000000000000000\n      dup2\n      mstore\n      pop\n        /* \"Game/game.sol\":3354:3361  results */\n      0x07\n        /* \"Game/game.sol\":3354:3364  results[2] */\n      0x00\n        /* \"Game/game.sol\":3362:3363  2 */\n      0x02\n        /* \"Game/game.sol\":3354:3364  results[2] */\n      dup2\n      mstore\n      0x20\n      add\n      swap1\n      dup2\n      mstore\n      0x20\n      add\n      0x00\n      keccak256\n        /* \"Game/game.sol\":3354:3367  results[2][3] */\n      0x00\n        /* \"Game/game.sol\":3365:3366  3 */\n      0x03\n        /* \"Game/game.sol\":3354:3367  results[2][3] */\n      dup2\n      mstore\n      0x20\n      add\n      swap1\n      dup2\n      mstore\n      0x20\n      add\n      0x00\n      keccak256\n        /* \"Game/game.sol\":3354:3384  results[2][3] = \"Player 2 Win\" */\n      swap1\n      dup2\n      tag_159\n      swap2\n      swap1\n      tag_154\n      jump\t// in\n    tag_159:\n      pop\n        /* \"Game/game.sol\":3395:3425  results[3][1] = \"Player 2 Win\" */\n      mload(0x40)\n      dup1\n      0x40\n      add\n      0x40\n      mstore\n      dup1\n      0x0c\n      dup2\n      mstore\n      0x20\n      add\n      0x506c6179657220322057696e0000000000000000000000000000000000000000\n      dup2\n      mstore\n      pop\n        /* \"Game/game.sol\":3395:3402  results */\n      0x07\n        /* \"Game/game.sol\":3395:3405  results[3] */\n      0x00\n        /* \"Game/game.sol\":3403:3404  3 */\n      0x03\n        /* \"Game/game.sol\":3395:3405  results[3] */\n      dup2\n      mstore\n      0x20\n      add\n      swap1\n      dup2\n      mstore\n      0x20\n      add\n      0x00\n      keccak256\n        /* \"Game/game.sol\":3395:3408  results[3][1] */\n      0x00\n        /* \"Game/game.sol\":3406:3407  1 */\n      0x01\n        /* \"Game/game.sol\":3395:3408  results[3][1] */\n      dup2\n      mstore\n      0x20\n      add\n      swap1\n      dup2\n      mstore\n      0x20\n      add\n      0x00\n      keccak256\n        /* \"Game/game.sol\":3395:3425  results[3][1] = \"Player 2 Win\" */\n      swap1\n      dup2\n      tag_160\n      swap2\n      swap1\n      tag_154\n      jump\t// in\n    tag_160:\n      pop\n        /* \"Game/game.sol\":3436:3466  results[3][2] = \"Player 1 Win\" */\n      mload(0x40)\n      dup1\n      0x40\n      add\n      0x40\n      mstore\n      dup1\n      0x0c\n      dup2\n      mstore\n      0x20\n      add\n      0x506c6179657220312057696e0000000000000000000000000000000000000000\n      dup2\n      mstore\n      pop\n        /* \"Game/game.sol\":3436:3443  results */\n      0x07\n        /* \"Game/game.sol\":3436:3446  results[3] */\n      0x00\n        /* \"Game/game.sol\":3444:3445  3 */\n      0x03\n        /* \"Game/game.sol\":3436:3446  results[3] */\n      dup2\n      mstore\n      0x20\n      add\n      swap1\n      dup2\n      mstore\n      0x20\n      add\n      0x00\n      keccak256\n        /* \"Game/game.sol\":3436:3449  results[3][2] */\n      0x00\n        /* \"Game/game.sol\":3447:3448  2 */\n      0x02\n        /* \"Game/game.sol\":3436:3449  results[3][2] */\n      dup2\n      mstore\n      0x20\n      add\n      swap1\n      dup2\n      mstore\n      0x20\n      add\n      0x00\n      keccak256\n        /* \"Game/game.sol\":3436:3466  results[3][2] = \"Player 1 Win\" */\n      swap1\n      dup2\n      tag_161\n      swap2\n      swap1\n      tag_154\n      jump\t// in\n    tag_161:\n      pop\n        /* \"Game/game.sol\":3477:3503  results[3][3] = \"Its Draw\" */\n      mload(0x40)\n      dup1\n      0x40\n      add\n      0x40\n      mstore\n      dup1\n      0x08\n      dup2\n      mstore\n      0x20\n      add\n      0x4974732044726177000000000000000000000000000000000000000000000000\n      dup2\n      mstore\n      pop\n        /* \"Game/game.sol\":3477:3484  results */\n      0x07\n        /* \"Game/game.sol\":3477:3487  results[3] */\n      0x00\n        /* \"Game/game.sol\":3485:3486  3 */\n      0x03\n        /* \"Game/game.sol\":3477:3487  results[3] */\n      dup2\n      mstore\n      0x20\n      add\n      swap1\n      dup2\n      mstore\n      0x20\n      add\n      0x00\n      keccak256\n        /* \"Game/game.sol\":3477:3490  results[3][3] */\n      0x00\n        /* \"Game/game.sol\":3488:3489  3 */\n      0x03\n        /* \"Game/game.sol\":3477:3490  results[3][3] */\n      dup2\n      mstore\n      0x20\n      add\n      swap1\n      dup2\n      mstore\n      0x20\n      add\n      0x00\n      keccak256\n        /* \"Game/game.sol\":3477:3503  results[3][3] = \"Its Draw\" */\n      swap1\n      dup2\n      tag_162\n      swap2\n      swap1\n      tag_154\n      jump\t// in\n    tag_162:\n      pop\n        /* \"Game/game.sol\":3565:3585  string memory result */\n      0x00\n        /* \"Game/game.sol\":3588:3595  results */\n      0x07\n        /* \"Game/game.sol\":3588:3609  results[storeMove[0]] */\n      0x00\n        /* \"Game/game.sol\":3596:3605  storeMove */\n      0x05\n        /* \"Game/game.sol\":3606:3607  0 */\n      0x00\n        /* \"Game/game.sol\":3596:3608  storeMove[0] */\n      0x02\n      dup2\n      lt\n      tag_163\n      jumpi\n      tag_164\n      tag_59\n      jump\t// in\n    tag_164:\n    tag_163:\n      add\n      sload\n        /* \"Game/game.sol\":3588:3609  results[storeMove[0]] */\n      dup2\n      mstore\n      0x20\n      add\n      swap1\n      dup2\n      mstore\n      0x20\n      add\n      0x00\n      keccak256\n        /* \"Game/game.sol\":3588:3623  results[storeMove[0]][storeMove[1]] */\n      0x00\n        /* \"Game/game.sol\":3610:3619  storeMove */\n      0x05\n        /* \"Game/game.sol\":3620:3621  1 */\n      0x01\n        /* \"Game/game.sol\":3610:3622  storeMove[1] */\n      0x02\n      dup2\n      lt\n      tag_166\n      jumpi\n      tag_167\n      tag_59\n      jump\t// in\n    tag_167:\n    tag_166:\n      add\n      sload\n        /* \"Game/game.sol\":3588:3623  results[storeMove[0]][storeMove[1]] */\n      dup2\n      mstore\n      0x20\n      add\n      swap1\n      dup2\n      mstore\n      0x20\n      add\n      0x00\n      keccak256\n        /* \"Game/game.sol\":3565:3623  string memory result = results[storeMove[0]][storeMove[1]] */\n      dup1\n      sload\n      tag_169\n      swap1\n      tag_170\n      jump\t// in\n    tag_169:\n      dup1\n      0x1f\n      add\n      0x20\n      dup1\n      swap2\n      div\n      mul\n      0x20\n      add\n      mload(0x40)\n      swap1\n      dup2\n      add\n      0x40\n      mstore\n      dup1\n      swap3\n      swap2\n      swap1\n      dup2\n      dup2\n      mstore\n      0x20\n      add\n      dup3\n      dup1\n      sload\n      tag_171\n      swap1\n      tag_170\n      jump\t// in\n    tag_171:\n      dup1\n      iszero\n      tag_172\n      jumpi\n      dup1\n      0x1f\n      lt\n      tag_173\n      jumpi\n      0x0100\n      dup1\n      dup4\n      sload\n      div\n      mul\n      dup4\n      mstore\n      swap2\n      0x20\n      add\n      swap2\n      jump(tag_172)\n    tag_173:\n      dup3\n      add\n      swap2\n      swap1\n      0x00\n      mstore\n      keccak256(0x00, 0x20)\n      swap1\n    tag_174:\n      dup2\n      sload\n      dup2\n      mstore\n      swap1\n      0x01\n      add\n      swap1\n      0x20\n      add\n      dup1\n      dup4\n      gt\n      tag_174\n      jumpi\n      dup3\n      swap1\n      sub\n      0x1f\n      and\n      dup3\n      add\n      swap2\n    tag_172:\n      pop\n      pop\n      pop\n      pop\n      pop\n      swap1\n      pop\n        /* \"Game/game.sol\":3693:3707  uint betAmount */\n      0x00\n        /* \"Game/game.sol\":3710:3729  1000000000000000000 */\n      0x0de0b6b3a7640000\n        /* \"Game/game.sol\":3693:3729  uint betAmount = 1000000000000000000 */\n      swap1\n      pop\n        /* \"Game/game.sol\":3740:3757  uint payoutAmount */\n      0x00\n        /* \"Game/game.sol\":3825:3857  abi.encodePacked(\"Player 1 Win\") */\n      add(0x20, mload(0x40))\n      tag_175\n      swap1\n      tag_176\n      jump\t// in\n    tag_175:\n      mload(0x40)\n      0x20\n      dup2\n      dup4\n      sub\n      sub\n      dup2\n      mstore\n      swap1\n      0x40\n      mstore\n        /* \"Game/game.sol\":3815:3858  keccak256(abi.encodePacked(\"Player 1 Win\")) */\n      dup1\n      mload\n      swap1\n      0x20\n      add\n      keccak256\n        /* \"Game/game.sol\":3803:3809  result */\n      dup4\n        /* \"Game/game.sol\":3786:3810  abi.encodePacked(result) */\n      add(0x20, mload(0x40))\n      tag_177\n      swap2\n      swap1\n      tag_178\n      jump\t// in\n    tag_177:\n      mload(0x40)\n      0x20\n      dup2\n      dup4\n      sub\n      sub\n      dup2\n      mstore\n      swap1\n      0x40\n      mstore\n        /* \"Game/game.sol\":3776:3811  keccak256(abi.encodePacked(result)) */\n      dup1\n      mload\n      swap1\n      0x20\n      add\n      keccak256\n        /* \"Game/game.sol\":3776:3858  keccak256(abi.encodePacked(result)) == keccak256(abi.encodePacked(\"Player 1 Win\")) */\n      sub\n        /* \"Game/game.sol\":3772:4217  if (keccak256(abi.encodePacked(result)) == keccak256(abi.encodePacked(\"Player 1 Win\"))) ... */\n      tag_179\n      jumpi\n        /* \"Game/game.sol\":3919:3921  10 */\n      0x0a\n        /* \"Game/game.sol\":3913:3915  18 */\n      0x12\n        /* \"Game/game.sol\":3901:3910  betAmount */\n      dup4\n        /* \"Game/game.sol\":3901:3915  betAmount * 18 */\n      tag_180\n      swap2\n      swap1\n      tag_181\n      jump\t// in\n    tag_180:\n        /* \"Game/game.sol\":3900:3921  (betAmount * 18) / 10 */\n      tag_182\n      swap2\n      swap1\n      tag_183\n      jump\t// in\n    tag_182:\n        /* \"Game/game.sol\":3885:3921  payoutAmount = (betAmount * 18) / 10 */\n      swap1\n      pop\n        /* \"Game/game.sol\":3944:3951  player1 */\n      0x00\n      dup1\n      sload\n      swap1\n      0x0100\n      exp\n      swap1\n      div\n      0xffffffffffffffffffffffffffffffffffffffff\n      and\n        /* \"Game/game.sol\":3936:3961  payable(player1).transfer */\n      0xffffffffffffffffffffffffffffffffffffffff\n      and\n        /* \"Game/game.sol\":3936:3975  payable(player1).transfer(payoutAmount) */\n      0x08fc\n        /* \"Game/game.sol\":3962:3974  payoutAmount */\n      dup3\n        /* \"Game/game.sol\":3936:3975  payable(player1).transfer(payoutAmount) */\n      swap1\n      dup2\n      iszero\n      mul\n      swap1\n      mload(0x40)\n      0x00\n      mload(0x40)\n      dup1\n      dup4\n      sub\n      dup2\n      dup6\n      dup9\n      dup9\n      call\n      swap4\n      pop\n      pop\n      pop\n      pop\n      iszero\n      dup1\n      iszero\n      tag_185\n      jumpi\n      returndatasize\n      0x00\n      dup1\n      returndatacopy\n      revert(0x00, returndatasize)\n    tag_185:\n      pop\n        /* \"Game/game.sol\":3772:4217  if (keccak256(abi.encodePacked(result)) == keccak256(abi.encodePacked(\"Player 1 Win\"))) ... */\n      jump(tag_186)\n    tag_179:\n        /* \"Game/game.sol\":4055:4087  abi.encodePacked(\"Player 2 Win\") */\n      add(0x20, mload(0x40))\n      tag_187\n      swap1\n      tag_188\n      jump\t// in\n    tag_187:\n      mload(0x40)\n      0x20\n      dup2\n      dup4\n      sub\n      sub\n      dup2\n      mstore\n      swap1\n      0x40\n      mstore\n        /* \"Game/game.sol\":4045:4088  keccak256(abi.encodePacked(\"Player 2 Win\")) */\n      dup1\n      mload\n      swap1\n      0x20\n      add\n      keccak256\n        /* \"Game/game.sol\":4033:4039  result */\n      dup4\n        /* \"Game/game.sol\":4016:4040  abi.encodePacked(result) */\n      add(0x20, mload(0x40))\n      tag_189\n      swap2\n      swap1\n      tag_178\n      jump\t// in\n    tag_189:\n      mload(0x40)\n      0x20\n      dup2\n      dup4\n      sub\n      sub\n      dup2\n      mstore\n      swap1\n      0x40\n      mstore\n        /* \"Game/game.sol\":4006:4041  keccak256(abi.encodePacked(result)) */\n      dup1\n      mload\n      swap1\n      0x20\n      add\n      keccak256\n        /* \"Game/game.sol\":4006:4088  keccak256(abi.encodePacked(result)) == keccak256(abi.encodePacked(\"Player 2 Win\")) */\n      sub\n        /* \"Game/game.sol\":4002:4217  if (keccak256(abi.encodePacked(result)) == keccak256(abi.encodePacked(\"Player 2 Win\"))) ... */\n      tag_190\n      jumpi\n        /* \"Game/game.sol\":4149:4151  10 */\n      0x0a\n        /* \"Game/game.sol\":4143:4145  18 */\n      0x12\n        /* \"Game/game.sol\":4131:4140  betAmount */\n      dup4\n        /* \"Game/game.sol\":4131:4145  betAmount * 18 */\n      tag_191\n      swap2\n      swap1\n      tag_181\n      jump\t// in\n    tag_191:\n        /* \"Game/game.sol\":4130:4151  (betAmount * 18) / 10 */\n      tag_192\n      swap2\n      swap1\n      tag_183\n      jump\t// in\n    tag_192:\n        /* \"Game/game.sol\":4115:4151  payoutAmount = (betAmount * 18) / 10 */\n      swap1\n      pop\n        /* \"Game/game.sol\":4174:4181  player2 */\n      0x01\n      0x00\n      swap1\n      sload\n      swap1\n      0x0100\n      exp\n      swap1\n      div\n      0xffffffffffffffffffffffffffffffffffffffff\n      and\n        /* \"Game/game.sol\":4166:4191  payable(player2).transfer */\n      0xffffffffffffffffffffffffffffffffffffffff\n      and\n        /* \"Game/game.sol\":4166:4205  payable(player2).transfer(payoutAmount) */\n      0x08fc\n        /* \"Game/game.sol\":4192:4204  payoutAmount */\n      dup3\n        /* \"Game/game.sol\":4166:4205  payable(player2).transfer(payoutAmount) */\n      swap1\n      dup2\n      iszero\n      mul\n      swap1\n      mload(0x40)\n      0x00\n      mload(0x40)\n      dup1\n      dup4\n      sub\n      dup2\n      dup6\n      dup9\n      dup9\n      call\n      swap4\n      pop\n      pop\n      pop\n      pop\n      iszero\n      dup1\n      iszero\n      tag_194\n      jumpi\n      returndatasize\n      0x00\n      dup1\n      returndatacopy\n      revert(0x00, returndatasize)\n    tag_194:\n      pop\n        /* \"Game/game.sol\":4002:4217  if (keccak256(abi.encodePacked(result)) == keccak256(abi.encodePacked(\"Player 2 Win\"))) ... */\n    tag_190:\n        /* \"Game/game.sol\":3772:4217  if (keccak256(abi.encodePacked(result)) == keccak256(abi.encodePacked(\"Player 1 Win\"))) ... */\n    tag_186:\n        /* \"Game/game.sol\":4296:4300  true */\n      0x01\n        /* \"Game/game.sol\":4285:4293  gameOver */\n      dup1\n      0x14\n        /* \"Game/game.sol\":4285:4300  gameOver = true */\n      0x0100\n      exp\n      dup2\n      sload\n      dup2\n      0xff\n      mul\n      not\n      and\n      swap1\n      dup4\n      iszero\n      iszero\n      mul\n      or\n      swap1\n      sstore\n      pop\n        /* \"Game/game.sol\":4318:4324  result */\n      dup3\n        /* \"Game/game.sol\":4311:4324  return result */\n      swap4\n      pop\n      pop\n      pop\n      pop\n        /* \"Game/game.sol\":2953:4332  function Check_Winner() public payable returns(string memory) ... */\n      swap1\n      jump\t// out\n        /* \"Game/game.sol\":531:850  function setPlayer2() external {... */\n    tag_48:\n        /* \"Game/game.sol\":600:601  0 */\n      0x00\n        /* \"Game/game.sol\":581:602  player1 != address(0) */\n      0xffffffffffffffffffffffffffffffffffffffff\n      and\n        /* \"Game/game.sol\":581:588  player1 */\n      0x00\n      dup1\n      sload\n      swap1\n      0x0100\n      exp\n      swap1\n      div\n      0xffffffffffffffffffffffffffffffffffffffff\n      and\n        /* \"Game/game.sol\":581:602  player1 != address(0) */\n      0xffffffffffffffffffffffffffffffffffffffff\n      and\n      sub\n        /* \"Game/game.sol\":573:651  require(player1 != address(0), \"Player 1 must be set before setting player 2\") */\n      tag_196\n      jumpi\n      mload(0x40)\n      0x08c379a000000000000000000000000000000000000000000000000000000000\n      dup2\n      mstore\n      0x04\n      add\n      tag_197\n      swap1\n      tag_198\n      jump\t// in\n    tag_197:\n      mload(0x40)\n      dup1\n      swap2\n      sub\n      swap1\n      revert\n    tag_196:\n        /* \"Game/game.sol\":689:690  0 */\n      0x00\n        /* \"Game/game.sol\":670:691  player2 == address(0) */\n      0xffffffffffffffffffffffffffffffffffffffff\n      and\n        /* \"Game/game.sol\":670:677  player2 */\n      0x01\n      0x00\n      swap1\n      sload\n      swap1\n      0x0100\n      exp\n      swap1\n      div\n      0xffffffffffffffffffffffffffffffffffffffff\n      and\n        /* \"Game/game.sol\":670:691  player2 == address(0) */\n      0xffffffffffffffffffffffffffffffffffffffff\n      and\n      eq\n        /* \"Game/game.sol\":662:719  require(player2 == address(0), \"Player 2 is already set\") */\n      tag_199\n      jumpi\n      mload(0x40)\n      0x08c379a000000000000000000000000000000000000000000000000000000000\n      dup2\n      mstore\n      0x04\n      add\n      tag_200\n      swap1\n      tag_201\n      jump\t// in\n    tag_200:\n      mload(0x40)\n      dup1\n      swap2\n      sub\n      swap1\n      revert\n    tag_199:\n        /* \"Game/game.sol\":752:759  player1 */\n      0x00\n      dup1\n      sload\n      swap1\n      0x0100\n      exp\n      swap1\n      div\n      0xffffffffffffffffffffffffffffffffffffffff\n      and\n        /* \"Game/game.sol\":738:759  msg.sender != player1 */\n      0xffffffffffffffffffffffffffffffffffffffff\n      and\n        /* \"Game/game.sol\":738:748  msg.sender */\n      caller\n        /* \"Game/game.sol\":738:759  msg.sender != player1 */\n      0xffffffffffffffffffffffffffffffffffffffff\n      and\n      sub\n        /* \"Game/game.sol\":730:811  require(msg.sender != player1, \"Player 2 address cannot be the same as Player 1\") */\n      tag_202\n      jumpi\n      mload(0x40)\n      0x08c379a000000000000000000000000000000000000000000000000000000000\n      dup2\n      mstore\n      0x04\n      add\n      tag_203\n      swap1\n      tag_204\n      jump\t// in\n    tag_203:\n      mload(0x40)\n      dup1\n      swap2\n      sub\n      swap1\n      revert\n    tag_202:\n        /* \"Game/game.sol\":832:842  msg.sender */\n      caller\n        /* \"Game/game.sol\":822:829  player2 */\n      0x01\n      0x00\n        /* \"Game/game.sol\":822:842  player2 = msg.sender */\n      0x0100\n      exp\n      dup2\n      sload\n      dup2\n      0xffffffffffffffffffffffffffffffffffffffff\n      mul\n      not\n      and\n      swap1\n      dup4\n      0xffffffffffffffffffffffffffffffffffffffff\n      and\n      mul\n      or\n      swap1\n      sstore\n      pop\n        /* \"Game/game.sol\":531:850  function setPlayer2() external {... */\n      jump\t// out\n        /* \"Game/game.sol\":87:109  address public player1 */\n    tag_51:\n      0x00\n      dup1\n      sload\n      swap1\n      0x0100\n      exp\n      swap1\n      div\n      0xffffffffffffffffffffffffffffffffffffffff\n      and\n      dup2\n      jump\t// out\n        /* \"Game/game.sol\":385:523  function setPlayer1() external {... */\n    tag_55:\n        /* \"Game/game.sol\":454:455  0 */\n      0x00\n        /* \"Game/game.sol\":435:456  player1 == address(0) */\n      0xffffffffffffffffffffffffffffffffffffffff\n      and\n        /* \"Game/game.sol\":435:442  player1 */\n      0x00\n      dup1\n      sload\n      swap1\n      0x0100\n      exp\n      swap1\n      div\n      0xffffffffffffffffffffffffffffffffffffffff\n      and\n        /* \"Game/game.sol\":435:456  player1 == address(0) */\n      0xffffffffffffffffffffffffffffffffffffffff\n      and\n      eq\n        /* \"Game/game.sol\":427:484  require(player1 == address(0), \"Player 1 is already set\") */\n      tag_206\n      jumpi\n      mload(0x40)\n      0x08c379a000000000000000000000000000000000000000000000000000000000\n      dup2\n      mstore\n      0x04\n      add\n      tag_207\n      swap1\n      tag_208\n      jump\t// in\n    tag_207:\n      mload(0x40)\n      dup1\n      swap2\n      sub\n      swap1\n      revert\n    tag_206:\n        /* \"Game/game.sol\":505:515  msg.sender */\n      caller\n        /* \"Game/game.sol\":495:502  player1 */\n      0x00\n      dup1\n        /* \"Game/game.sol\":495:515  player1 = msg.sender */\n      0x0100\n      exp\n      dup2\n      sload\n      dup2\n      0xffffffffffffffffffffffffffffffffffffffff\n      mul\n      not\n      and\n      swap1\n      dup4\n      0xffffffffffffffffffffffffffffffffffffffff\n      and\n      mul\n      or\n      swap1\n      sstore\n      pop\n        /* \"Game/game.sol\":385:523  function setPlayer1() external {... */\n      jump\t// out\n        /* \"#utility.yul\":88:205   */\n    tag_210:\n        /* \"#utility.yul\":197:198   */\n      0x00\n        /* \"#utility.yul\":194:195   */\n      dup1\n        /* \"#utility.yul\":187:199   */\n      revert\n        /* \"#utility.yul\":334:411   */\n    tag_212:\n        /* \"#utility.yul\":371:378   */\n      0x00\n        /* \"#utility.yul\":400:405   */\n      dup2\n        /* \"#utility.yul\":389:405   */\n      swap1\n      pop\n        /* \"#utility.yul\":334:411   */\n      swap2\n      swap1\n      pop\n      jump\t// out\n        /* \"#utility.yul\":417:539   */\n    tag_213:\n        /* \"#utility.yul\":490:514   */\n      tag_274\n        /* \"#utility.yul\":508:513   */\n      dup2\n        /* \"#utility.yul\":490:514   */\n      tag_212\n      jump\t// in\n    tag_274:\n        /* \"#utility.yul\":483:488   */\n      dup2\n        /* \"#utility.yul\":480:515   */\n      eq\n        /* \"#utility.yul\":470:533   */\n      tag_275\n      jumpi\n        /* \"#utility.yul\":529:530   */\n      0x00\n        /* \"#utility.yul\":526:527   */\n      dup1\n        /* \"#utility.yul\":519:531   */\n      revert\n        /* \"#utility.yul\":470:533   */\n    tag_275:\n        /* \"#utility.yul\":417:539   */\n      pop\n      jump\t// out\n        /* \"#utility.yul\":545:684   */\n    tag_214:\n        /* \"#utility.yul\":591:596   */\n      0x00\n        /* \"#utility.yul\":629:635   */\n      dup2\n        /* \"#utility.yul\":616:636   */\n      calldataload\n        /* \"#utility.yul\":607:636   */\n      swap1\n      pop\n        /* \"#utility.yul\":645:678   */\n      tag_277\n        /* \"#utility.yul\":672:677   */\n      dup2\n        /* \"#utility.yul\":645:678   */\n      tag_213\n      jump\t// in\n    tag_277:\n        /* \"#utility.yul\":545:684   */\n      swap3\n      swap2\n      pop\n      pop\n      jump\t// out\n        /* \"#utility.yul\":690:1019   */\n    tag_15:\n        /* \"#utility.yul\":749:755   */\n      0x00\n        /* \"#utility.yul\":798:800   */\n      0x20\n        /* \"#utility.yul\":786:795   */\n      dup3\n        /* \"#utility.yul\":777:784   */\n      dup5\n        /* \"#utility.yul\":773:796   */\n      sub\n        /* \"#utility.yul\":769:801   */\n      slt\n        /* \"#utility.yul\":766:885   */\n      iszero\n      tag_279\n      jumpi\n        /* \"#utility.yul\":804:883   */\n      tag_280\n      tag_210\n      jump\t// in\n    tag_280:\n        /* \"#utility.yul\":766:885   */\n    tag_279:\n        /* \"#utility.yul\":924:925   */\n      0x00\n        /* \"#utility.yul\":949:1002   */\n      tag_281\n        /* \"#utility.yul\":994:1001   */\n      dup5\n        /* \"#utility.yul\":985:991   */\n      dup3\n        /* \"#utility.yul\":974:983   */\n      dup6\n        /* \"#utility.yul\":970:992   */\n      add\n        /* \"#utility.yul\":949:1002   */\n      tag_214\n      jump\t// in\n    tag_281:\n        /* \"#utility.yul\":939:1002   */\n      swap2\n      pop\n        /* \"#utility.yul\":895:1012   */\n      pop\n        /* \"#utility.yul\":690:1019   */\n      swap3\n      swap2\n      pop\n      pop\n      jump\t// out\n        /* \"#utility.yul\":1025:1124   */\n    tag_215:\n        /* \"#utility.yul\":1077:1083   */\n      0x00\n        /* \"#utility.yul\":1111:1116   */\n      dup2\n        /* \"#utility.yul\":1105:1117   */\n      mload\n        /* \"#utility.yul\":1095:1117   */\n      swap1\n      pop\n        /* \"#utility.yul\":1025:1124   */\n      swap2\n      swap1\n      pop\n      jump\t// out\n        /* \"#utility.yul\":1130:1299   */\n    tag_216:\n        /* \"#utility.yul\":1214:1225   */\n      0x00\n        /* \"#utility.yul\":1248:1254   */\n      dup3\n        /* \"#utility.yul\":1243:1246   */\n      dup3\n        /* \"#utility.yul\":1236:1255   */\n      mstore\n        /* \"#utility.yul\":1288:1292   */\n      0x20\n        /* \"#utility.yul\":1283:1286   */\n      dup3\n        /* \"#utility.yul\":1279:1293   */\n      add\n        /* \"#utility.yul\":1264:1293   */\n      swap1\n      pop\n        /* \"#utility.yul\":1130:1299   */\n      swap3\n      swap2\n      pop\n      pop\n      jump\t// out\n        /* \"#utility.yul\":1305:1551   */\n    tag_217:\n        /* \"#utility.yul\":1386:1387   */\n      0x00\n        /* \"#utility.yul\":1396:1509   */\n    tag_285:\n        /* \"#utility.yul\":1410:1416   */\n      dup4\n        /* \"#utility.yul\":1407:1408   */\n      dup2\n        /* \"#utility.yul\":1404:1417   */\n      lt\n        /* \"#utility.yul\":1396:1509   */\n      iszero\n      tag_287\n      jumpi\n        /* \"#utility.yul\":1495:1496   */\n      dup1\n        /* \"#utility.yul\":1490:1493   */\n      dup3\n        /* \"#utility.yul\":1486:1497   */\n      add\n        /* \"#utility.yul\":1480:1498   */\n      mload\n        /* \"#utility.yul\":1476:1477   */\n      dup2\n        /* \"#utility.yul\":1471:1474   */\n      dup5\n        /* \"#utility.yul\":1467:1478   */\n      add\n        /* \"#utility.yul\":1460:1499   */\n      mstore\n        /* \"#utility.yul\":1432:1434   */\n      0x20\n        /* \"#utility.yul\":1429:1430   */\n      dup2\n        /* \"#utility.yul\":1425:1435   */\n      add\n        /* \"#utility.yul\":1420:1435   */\n      swap1\n      pop\n        /* \"#utility.yul\":1396:1509   */\n      jump(tag_285)\n    tag_287:\n        /* \"#utility.yul\":1543:1544   */\n      0x00\n        /* \"#utility.yul\":1534:1540   */\n      dup5\n        /* \"#utility.yul\":1529:1532   */\n      dup5\n        /* \"#utility.yul\":1525:1541   */\n      add\n        /* \"#utility.yul\":1518:1545   */\n      mstore\n        /* \"#utility.yul\":1367:1551   */\n      pop\n        /* \"#utility.yul\":1305:1551   */\n      pop\n      pop\n      pop\n      jump\t// out\n        /* \"#utility.yul\":1557:1659   */\n    tag_218:\n        /* \"#utility.yul\":1598:1604   */\n      0x00\n        /* \"#utility.yul\":1649:1651   */\n      0x1f\n        /* \"#utility.yul\":1645:1652   */\n      not\n        /* \"#utility.yul\":1640:1642   */\n      0x1f\n        /* \"#utility.yul\":1633:1638   */\n      dup4\n        /* \"#utility.yul\":1629:1643   */\n      add\n        /* \"#utility.yul\":1625:1653   */\n      and\n        /* \"#utility.yul\":1615:1653   */\n      swap1\n      pop\n        /* \"#utility.yul\":1557:1659   */\n      swap2\n      swap1\n      pop\n      jump\t// out\n        /* \"#utility.yul\":1665:2042   */\n    tag_219:\n        /* \"#utility.yul\":1753:1756   */\n      0x00\n        /* \"#utility.yul\":1781:1820   */\n      tag_290\n        /* \"#utility.yul\":1814:1819   */\n      dup3\n        /* \"#utility.yul\":1781:1820   */\n      tag_215\n      jump\t// in\n    tag_290:\n        /* \"#utility.yul\":1836:1907   */\n      tag_291\n        /* \"#utility.yul\":1900:1906   */\n      dup2\n        /* \"#utility.yul\":1895:1898   */\n      dup6\n        /* \"#utility.yul\":1836:1907   */\n      tag_216\n      jump\t// in\n    tag_291:\n        /* \"#utility.yul\":1829:1907   */\n      swap4\n      pop\n        /* \"#utility.yul\":1916:1981   */\n      tag_292\n        /* \"#utility.yul\":1974:1980   */\n      dup2\n        /* \"#utility.yul\":1969:1972   */\n      dup6\n        /* \"#utility.yul\":1962:1966   */\n      0x20\n        /* \"#utility.yul\":1955:1960   */\n      dup7\n        /* \"#utility.yul\":1951:1967   */\n      add\n        /* \"#utility.yul\":1916:1981   */\n      tag_217\n      jump\t// in\n    tag_292:\n        /* \"#utility.yul\":2006:2035   */\n      tag_293\n        /* \"#utility.yul\":2028:2034   */\n      dup2\n        /* \"#utility.yul\":2006:2035   */\n      tag_218\n      jump\t// in\n    tag_293:\n        /* \"#utility.yul\":2001:2004   */\n      dup5\n        /* \"#utility.yul\":1997:2036   */\n      add\n        /* \"#utility.yul\":1990:2036   */\n      swap2\n      pop\n        /* \"#utility.yul\":1757:2042   */\n      pop\n        /* \"#utility.yul\":1665:2042   */\n      swap3\n      swap2\n      pop\n      pop\n      jump\t// out\n        /* \"#utility.yul\":2048:2361   */\n    tag_18:\n        /* \"#utility.yul\":2161:2165   */\n      0x00\n        /* \"#utility.yul\":2199:2201   */\n      0x20\n        /* \"#utility.yul\":2188:2197   */\n      dup3\n        /* \"#utility.yul\":2184:2202   */\n      add\n        /* \"#utility.yul\":2176:2202   */\n      swap1\n      pop\n        /* \"#utility.yul\":2248:2257   */\n      dup2\n        /* \"#utility.yul\":2242:2246   */\n      dup2\n        /* \"#utility.yul\":2238:2258   */\n      sub\n        /* \"#utility.yul\":2234:2235   */\n      0x00\n        /* \"#utility.yul\":2223:2232   */\n      dup4\n        /* \"#utility.yul\":2219:2236   */\n      add\n        /* \"#utility.yul\":2212:2259   */\n      mstore\n        /* \"#utility.yul\":2276:2354   */\n      tag_295\n        /* \"#utility.yul\":2349:2353   */\n      dup2\n        /* \"#utility.yul\":2340:2346   */\n      dup5\n        /* \"#utility.yul\":2276:2354   */\n      tag_219\n      jump\t// in\n    tag_295:\n        /* \"#utility.yul\":2268:2354   */\n      swap1\n      pop\n        /* \"#utility.yul\":2048:2361   */\n      swap3\n      swap2\n      pop\n      pop\n      jump\t// out\n        /* \"#utility.yul\":2367:3082   */\n    tag_23:\n        /* \"#utility.yul\":2576:2580   */\n      0x00\n        /* \"#utility.yul\":2614:2616   */\n      0x60\n        /* \"#utility.yul\":2603:2612   */\n      dup3\n        /* \"#utility.yul\":2599:2617   */\n      add\n        /* \"#utility.yul\":2591:2617   */\n      swap1\n      pop\n        /* \"#utility.yul\":2663:2672   */\n      dup2\n        /* \"#utility.yul\":2657:2661   */\n      dup2\n        /* \"#utility.yul\":2653:2673   */\n      sub\n        /* \"#utility.yul\":2649:2650   */\n      0x00\n        /* \"#utility.yul\":2638:2647   */\n      dup4\n        /* \"#utility.yul\":2634:2651   */\n      add\n        /* \"#utility.yul\":2627:2674   */\n      mstore\n        /* \"#utility.yul\":2691:2769   */\n      tag_297\n        /* \"#utility.yul\":2764:2768   */\n      dup2\n        /* \"#utility.yul\":2755:2761   */\n      dup7\n        /* \"#utility.yul\":2691:2769   */\n      tag_219\n      jump\t// in\n    tag_297:\n        /* \"#utility.yul\":2683:2769   */\n      swap1\n      pop\n        /* \"#utility.yul\":2816:2825   */\n      dup2\n        /* \"#utility.yul\":2810:2814   */\n      dup2\n        /* \"#utility.yul\":2806:2826   */\n      sub\n        /* \"#utility.yul\":2801:2803   */\n      0x20\n        /* \"#utility.yul\":2790:2799   */\n      dup4\n        /* \"#utility.yul\":2786:2804   */\n      add\n        /* \"#utility.yul\":2779:2827   */\n      mstore\n        /* \"#utility.yul\":2844:2922   */\n      tag_298\n        /* \"#utility.yul\":2917:2921   */\n      dup2\n        /* \"#utility.yul\":2908:2914   */\n      dup6\n        /* \"#utility.yul\":2844:2922   */\n      tag_219\n      jump\t// in\n    tag_298:\n        /* \"#utility.yul\":2836:2922   */\n      swap1\n      pop\n        /* \"#utility.yul\":2969:2978   */\n      dup2\n        /* \"#utility.yul\":2963:2967   */\n      dup2\n        /* \"#utility.yul\":2959:2979   */\n      sub\n        /* \"#utility.yul\":2954:2956   */\n      0x40\n        /* \"#utility.yul\":2943:2952   */\n      dup4\n        /* \"#utility.yul\":2939:2957   */\n      add\n        /* \"#utility.yul\":2932:2980   */\n      mstore\n        /* \"#utility.yul\":2997:3075   */\n      tag_299\n        /* \"#utility.yul\":3070:3074   */\n      dup2\n        /* \"#utility.yul\":3061:3067   */\n      dup5\n        /* \"#utility.yul\":2997:3075   */\n      tag_219\n      jump\t// in\n    tag_299:\n        /* \"#utility.yul\":2989:3075   */\n      swap1\n      pop\n        /* \"#utility.yul\":2367:3082   */\n      swap5\n      swap4\n      pop\n      pop\n      pop\n      pop\n      jump\t// out\n        /* \"#utility.yul\":3088:3214   */\n    tag_220:\n        /* \"#utility.yul\":3125:3132   */\n      0x00\n        /* \"#utility.yul\":3165:3207   */\n      0xffffffffffffffffffffffffffffffffffffffff\n        /* \"#utility.yul\":3158:3163   */\n      dup3\n        /* \"#utility.yul\":3154:3208   */\n      and\n        /* \"#utility.yul\":3143:3208   */\n      swap1\n      pop\n        /* \"#utility.yul\":3088:3214   */\n      swap2\n      swap1\n      pop\n      jump\t// out\n        /* \"#utility.yul\":3220:3316   */\n    tag_221:\n        /* \"#utility.yul\":3257:3264   */\n      0x00\n        /* \"#utility.yul\":3286:3310   */\n      tag_302\n        /* \"#utility.yul\":3304:3309   */\n      dup3\n        /* \"#utility.yul\":3286:3310   */\n      tag_220\n      jump\t// in\n    tag_302:\n        /* \"#utility.yul\":3275:3310   */\n      swap1\n      pop\n        /* \"#utility.yul\":3220:3316   */\n      swap2\n      swap1\n      pop\n      jump\t// out\n        /* \"#utility.yul\":3322:3440   */\n    tag_222:\n        /* \"#utility.yul\":3409:3433   */\n      tag_304\n        /* \"#utility.yul\":3427:3432   */\n      dup2\n        /* \"#utility.yul\":3409:3433   */\n      tag_221\n      jump\t// in\n    tag_304:\n        /* \"#utility.yul\":3404:3407   */\n      dup3\n        /* \"#utility.yul\":3397:3434   */\n      mstore\n        /* \"#utility.yul\":3322:3440   */\n      pop\n      pop\n      jump\t// out\n        /* \"#utility.yul\":3446:3668   */\n    tag_32:\n        /* \"#utility.yul\":3539:3543   */\n      0x00\n        /* \"#utility.yul\":3577:3579   */\n      0x20\n        /* \"#utility.yul\":3566:3575   */\n      dup3\n        /* \"#utility.yul\":3562:3580   */\n      add\n        /* \"#utility.yul\":3554:3580   */\n      swap1\n      pop\n        /* \"#utility.yul\":3590:3661   */\n      tag_306\n        /* \"#utility.yul\":3658:3659   */\n      0x00\n        /* \"#utility.yul\":3647:3656   */\n      dup4\n        /* \"#utility.yul\":3643:3660   */\n      add\n        /* \"#utility.yul\":3634:3640   */\n      dup5\n        /* \"#utility.yul\":3590:3661   */\n      tag_222\n      jump\t// in\n    tag_306:\n        /* \"#utility.yul\":3446:3668   */\n      swap3\n      swap2\n      pop\n      pop\n      jump\t// out\n        /* \"#utility.yul\":3674:4006   */\n    tag_37:\n        /* \"#utility.yul\":3795:3799   */\n      0x00\n        /* \"#utility.yul\":3833:3835   */\n      0x40\n        /* \"#utility.yul\":3822:3831   */\n      dup3\n        /* \"#utility.yul\":3818:3836   */\n      add\n        /* \"#utility.yul\":3810:3836   */\n      swap1\n      pop\n        /* \"#utility.yul\":3846:3917   */\n      tag_308\n        /* \"#utility.yul\":3914:3915   */\n      0x00\n        /* \"#utility.yul\":3903:3912   */\n      dup4\n        /* \"#utility.yul\":3899:3916   */\n      add\n        /* \"#utility.yul\":3890:3896   */\n      dup6\n        /* \"#utility.yul\":3846:3917   */\n      tag_222\n      jump\t// in\n    tag_308:\n        /* \"#utility.yul\":3927:3999   */\n      tag_309\n        /* \"#utility.yul\":3995:3997   */\n      0x20\n        /* \"#utility.yul\":3984:3993   */\n      dup4\n        /* \"#utility.yul\":3980:3998   */\n      add\n        /* \"#utility.yul\":3971:3977   */\n      dup5\n        /* \"#utility.yul\":3927:3999   */\n      tag_222\n      jump\t// in\n    tag_309:\n        /* \"#utility.yul\":3674:4006   */\n      swap4\n      swap3\n      pop\n      pop\n      pop\n      jump\t// out\n        /* \"#utility.yul\":4012:4102   */\n    tag_223:\n        /* \"#utility.yul\":4046:4053   */\n      0x00\n        /* \"#utility.yul\":4089:4094   */\n      dup2\n        /* \"#utility.yul\":4082:4095   */\n      iszero\n        /* \"#utility.yul\":4075:4096   */\n      iszero\n        /* \"#utility.yul\":4064:4096   */\n      swap1\n      pop\n        /* \"#utility.yul\":4012:4102   */\n      swap2\n      swap1\n      pop\n      jump\t// out\n        /* \"#utility.yul\":4108:4217   */\n    tag_224:\n        /* \"#utility.yul\":4189:4210   */\n      tag_312\n        /* \"#utility.yul\":4204:4209   */\n      dup2\n        /* \"#utility.yul\":4189:4210   */\n      tag_223\n      jump\t// in\n    tag_312:\n        /* \"#utility.yul\":4184:4187   */\n      dup3\n        /* \"#utility.yul\":4177:4211   */\n      mstore\n        /* \"#utility.yul\":4108:4217   */\n      pop\n      pop\n      jump\t// out\n        /* \"#utility.yul\":4223:4433   */\n    tag_42:\n        /* \"#utility.yul\":4310:4314   */\n      0x00\n        /* \"#utility.yul\":4348:4350   */\n      0x20\n        /* \"#utility.yul\":4337:4346   */\n      dup3\n        /* \"#utility.yul\":4333:4351   */\n      add\n        /* \"#utility.yul\":4325:4351   */\n      swap1\n      pop\n        /* \"#utility.yul\":4361:4426   */\n      tag_314\n        /* \"#utility.yul\":4423:4424   */\n      0x00\n        /* \"#utility.yul\":4412:4421   */\n      dup4\n        /* \"#utility.yul\":4408:4425   */\n      add\n        /* \"#utility.yul\":4399:4405   */\n      dup5\n        /* \"#utility.yul\":4361:4426   */\n      tag_224\n      jump\t// in\n    tag_314:\n        /* \"#utility.yul\":4223:4433   */\n      swap3\n      swap2\n      pop\n      pop\n      jump\t// out\n        /* \"#utility.yul\":4439:4619   */\n    tag_59:\n        /* \"#utility.yul\":4487:4564   */\n      0x4e487b7100000000000000000000000000000000000000000000000000000000\n        /* \"#utility.yul\":4484:4485   */\n      0x00\n        /* \"#utility.yul\":4477:4565   */\n      mstore\n        /* \"#utility.yul\":4584:4588   */\n      0x32\n        /* \"#utility.yul\":4581:4582   */\n      0x04\n        /* \"#utility.yul\":4574:4589   */\n      mstore\n        /* \"#utility.yul\":4608:4612   */\n      0x24\n        /* \"#utility.yul\":4605:4606   */\n      0x00\n        /* \"#utility.yul\":4598:4613   */\n      revert\n        /* \"#utility.yul\":4625:4803   */\n    tag_225:\n        /* \"#utility.yul\":4765:4795   */\n      0x4f6e6c7920706c61796572732063616e206d616b652061206d6f766500000000\n        /* \"#utility.yul\":4761:4762   */\n      0x00\n        /* \"#utility.yul\":4753:4759   */\n      dup3\n        /* \"#utility.yul\":4749:4763   */\n      add\n        /* \"#utility.yul\":4742:4796   */\n      mstore\n        /* \"#utility.yul\":4625:4803   */\n      pop\n      jump\t// out\n        /* \"#utility.yul\":4809:5175   */\n    tag_226:\n        /* \"#utility.yul\":4951:4954   */\n      0x00\n        /* \"#utility.yul\":4972:5039   */\n      tag_318\n        /* \"#utility.yul\":5036:5038   */\n      0x1c\n        /* \"#utility.yul\":5031:5034   */\n      dup4\n        /* \"#utility.yul\":4972:5039   */\n      tag_216\n      jump\t// in\n    tag_318:\n        /* \"#utility.yul\":4965:5039   */\n      swap2\n      pop\n        /* \"#utility.yul\":5048:5141   */\n      tag_319\n        /* \"#utility.yul\":5137:5140   */\n      dup3\n        /* \"#utility.yul\":5048:5141   */\n      tag_225\n      jump\t// in\n    tag_319:\n        /* \"#utility.yul\":5166:5168   */\n      0x20\n        /* \"#utility.yul\":5161:5164   */\n      dup3\n        /* \"#utility.yul\":5157:5169   */\n      add\n        /* \"#utility.yul\":5150:5169   */\n      swap1\n      pop\n        /* \"#utility.yul\":4809:5175   */\n      swap2\n      swap1\n      pop\n      jump\t// out\n        /* \"#utility.yul\":5181:5600   */\n    tag_72:\n        /* \"#utility.yul\":5347:5351   */\n      0x00\n        /* \"#utility.yul\":5385:5387   */\n      0x20\n        /* \"#utility.yul\":5374:5383   */\n      dup3\n        /* \"#utility.yul\":5370:5388   */\n      add\n        /* \"#utility.yul\":5362:5388   */\n      swap1\n      pop\n        /* \"#utility.yul\":5434:5443   */\n      dup2\n        /* \"#utility.yul\":5428:5432   */\n      dup2\n        /* \"#utility.yul\":5424:5444   */\n      sub\n        /* \"#utility.yul\":5420:5421   */\n      0x00\n        /* \"#utility.yul\":5409:5418   */\n      dup4\n        /* \"#utility.yul\":5405:5422   */\n      add\n        /* \"#utility.yul\":5398:5445   */\n      mstore\n        /* \"#utility.yul\":5462:5593   */\n      tag_321\n        /* \"#utility.yul\":5588:5592   */\n      dup2\n        /* \"#utility.yul\":5462:5593   */\n      tag_226\n      jump\t// in\n    tag_321:\n        /* \"#utility.yul\":5454:5593   */\n      swap1\n      pop\n        /* \"#utility.yul\":5181:5600   */\n      swap2\n      swap1\n      pop\n      jump\t// out\n        /* \"#utility.yul\":5606:5831   */\n    tag_227:\n        /* \"#utility.yul\":5746:5780   */\n      0x706c6561736520636865636b2076616c75652c206974206d7573742062652031\n        /* \"#utility.yul\":5742:5743   */\n      0x00\n        /* \"#utility.yul\":5734:5740   */\n      dup3\n        /* \"#utility.yul\":5730:5744   */\n      add\n        /* \"#utility.yul\":5723:5781   */\n      mstore\n        /* \"#utility.yul\":5815:5823   */\n      0x2045746865720000000000000000000000000000000000000000000000000000\n        /* \"#utility.yul\":5810:5812   */\n      0x20\n        /* \"#utility.yul\":5802:5808   */\n      dup3\n        /* \"#utility.yul\":5798:5813   */\n      add\n        /* \"#utility.yul\":5791:5824   */\n      mstore\n        /* \"#utility.yul\":5606:5831   */\n      pop\n      jump\t// out\n        /* \"#utility.yul\":5837:6203   */\n    tag_228:\n        /* \"#utility.yul\":5979:5982   */\n      0x00\n        /* \"#utility.yul\":6000:6067   */\n      tag_324\n        /* \"#utility.yul\":6064:6066   */\n      0x26\n        /* \"#utility.yul\":6059:6062   */\n      dup4\n        /* \"#utility.yul\":6000:6067   */\n      tag_216\n      jump\t// in\n    tag_324:\n        /* \"#utility.yul\":5993:6067   */\n      swap2\n      pop\n        /* \"#utility.yul\":6076:6169   */\n      tag_325\n        /* \"#utility.yul\":6165:6168   */\n      dup3\n        /* \"#utility.yul\":6076:6169   */\n      tag_227\n      jump\t// in\n    tag_325:\n        /* \"#utility.yul\":6194:6196   */\n      0x40\n        /* \"#utility.yul\":6189:6192   */\n      dup3\n        /* \"#utility.yul\":6185:6197   */\n      add\n        /* \"#utility.yul\":6178:6197   */\n      swap1\n      pop\n        /* \"#utility.yul\":5837:6203   */\n      swap2\n      swap1\n      pop\n      jump\t// out\n        /* \"#utility.yul\":6209:6628   */\n    tag_75:\n        /* \"#utility.yul\":6375:6379   */\n      0x00\n        /* \"#utility.yul\":6413:6415   */\n      0x20\n        /* \"#utility.yul\":6402:6411   */\n      dup3\n        /* \"#utility.yul\":6398:6416   */\n      add\n        /* \"#utility.yul\":6390:6416   */\n      swap1\n      pop\n        /* \"#utility.yul\":6462:6471   */\n      dup2\n        /* \"#utility.yul\":6456:6460   */\n      dup2\n        /* \"#utility.yul\":6452:6472   */\n      sub\n        /* \"#utility.yul\":6448:6449   */\n      0x00\n        /* \"#utility.yul\":6437:6446   */\n      dup4\n        /* \"#utility.yul\":6433:6450   */\n      add\n        /* \"#utility.yul\":6426:6473   */\n      mstore\n        /* \"#utility.yul\":6490:6621   */\n      tag_327\n        /* \"#utility.yul\":6616:6620   */\n      dup2\n        /* \"#utility.yul\":6490:6621   */\n      tag_228\n      jump\t// in\n    tag_327:\n        /* \"#utility.yul\":6482:6621   */\n      swap1\n      pop\n        /* \"#utility.yul\":6209:6628   */\n      swap2\n      swap1\n      pop\n      jump\t// out\n        /* \"#utility.yul\":6634:6876   */\n    tag_229:\n        /* \"#utility.yul\":6774:6808   */\n      0x5468652067616d65206973206f7665722c20706c656173652073746172742061\n        /* \"#utility.yul\":6770:6771   */\n      0x00\n        /* \"#utility.yul\":6762:6768   */\n      dup3\n        /* \"#utility.yul\":6758:6772   */\n      add\n        /* \"#utility.yul\":6751:6809   */\n      mstore\n        /* \"#utility.yul\":6843:6868   */\n      0x206e65772067616d6520746f20706c617920616761696e000000000000000000\n        /* \"#utility.yul\":6838:6840   */\n      0x20\n        /* \"#utility.yul\":6830:6836   */\n      dup3\n        /* \"#utility.yul\":6826:6841   */\n      add\n        /* \"#utility.yul\":6819:6869   */\n      mstore\n        /* \"#utility.yul\":6634:6876   */\n      pop\n      jump\t// out\n        /* \"#utility.yul\":6882:7248   */\n    tag_230:\n        /* \"#utility.yul\":7024:7027   */\n      0x00\n        /* \"#utility.yul\":7045:7112   */\n      tag_330\n        /* \"#utility.yul\":7109:7111   */\n      0x37\n        /* \"#utility.yul\":7104:7107   */\n      dup4\n        /* \"#utility.yul\":7045:7112   */\n      tag_216\n      jump\t// in\n    tag_330:\n        /* \"#utility.yul\":7038:7112   */\n      swap2\n      pop\n        /* \"#utility.yul\":7121:7214   */\n      tag_331\n        /* \"#utility.yul\":7210:7213   */\n      dup3\n        /* \"#utility.yul\":7121:7214   */\n      tag_229\n      jump\t// in\n    tag_331:\n        /* \"#utility.yul\":7239:7241   */\n      0x40\n        /* \"#utility.yul\":7234:7237   */\n      dup3\n        /* \"#utility.yul\":7230:7242   */\n      add\n        /* \"#utility.yul\":7223:7242   */\n      swap1\n      pop\n        /* \"#utility.yul\":6882:7248   */\n      swap2\n      swap1\n      pop\n      jump\t// out\n        /* \"#utility.yul\":7254:7673   */\n    tag_78:\n        /* \"#utility.yul\":7420:7424   */\n      0x00\n        /* \"#utility.yul\":7458:7460   */\n      0x20\n        /* \"#utility.yul\":7447:7456   */\n      dup3\n        /* \"#utility.yul\":7443:7461   */\n      add\n        /* \"#utility.yul\":7435:7461   */\n      swap1\n      pop\n        /* \"#utility.yul\":7507:7516   */\n      dup2\n        /* \"#utility.yul\":7501:7505   */\n      dup2\n        /* \"#utility.yul\":7497:7517   */\n      sub\n        /* \"#utility.yul\":7493:7494   */\n      0x00\n        /* \"#utility.yul\":7482:7491   */\n      dup4\n        /* \"#utility.yul\":7478:7495   */\n      add\n        /* \"#utility.yul\":7471:7518   */\n      mstore\n        /* \"#utility.yul\":7535:7666   */\n      tag_333\n        /* \"#utility.yul\":7661:7665   */\n      dup2\n        /* \"#utility.yul\":7535:7666   */\n      tag_230\n      jump\t// in\n    tag_333:\n        /* \"#utility.yul\":7527:7666   */\n      swap1\n      pop\n        /* \"#utility.yul\":7254:7673   */\n      swap2\n      swap1\n      pop\n      jump\t// out\n        /* \"#utility.yul\":7679:7847   */\n    tag_231:\n        /* \"#utility.yul\":7819:7839   */\n      0x6974277320506c617965722031204d6f76650000000000000000000000000000\n        /* \"#utility.yul\":7815:7816   */\n      0x00\n        /* \"#utility.yul\":7807:7813   */\n      dup3\n        /* \"#utility.yul\":7803:7817   */\n      add\n        /* \"#utility.yul\":7796:7840   */\n      mstore\n        /* \"#utility.yul\":7679:7847   */\n      pop\n      jump\t// out\n        /* \"#utility.yul\":7853:8219   */\n    tag_232:\n        /* \"#utility.yul\":7995:7998   */\n      0x00\n        /* \"#utility.yul\":8016:8083   */\n      tag_336\n        /* \"#utility.yul\":8080:8082   */\n      0x12\n        /* \"#utility.yul\":8075:8078   */\n      dup4\n        /* \"#utility.yul\":8016:8083   */\n      tag_216\n      jump\t// in\n    tag_336:\n        /* \"#utility.yul\":8009:8083   */\n      swap2\n      pop\n        /* \"#utility.yul\":8092:8185   */\n      tag_337\n        /* \"#utility.yul\":8181:8184   */\n      dup3\n        /* \"#utility.yul\":8092:8185   */\n      tag_231\n      jump\t// in\n    tag_337:\n        /* \"#utility.yul\":8210:8212   */\n      0x20\n        /* \"#utility.yul\":8205:8208   */\n      dup3\n        /* \"#utility.yul\":8201:8213   */\n      add\n        /* \"#utility.yul\":8194:8213   */\n      swap1\n      pop\n        /* \"#utility.yul\":7853:8219   */\n      swap2\n      swap1\n      pop\n      jump\t// out\n        /* \"#utility.yul\":8225:8644   */\n    tag_120:\n        /* \"#utility.yul\":8391:8395   */\n      0x00\n        /* \"#utility.yul\":8429:8431   */\n      0x20\n        /* \"#utility.yul\":8418:8427   */\n      dup3\n        /* \"#utility.yul\":8414:8432   */\n      add\n        /* \"#utility.yul\":8406:8432   */\n      swap1\n      pop\n        /* \"#utility.yul\":8478:8487   */\n      dup2\n        /* \"#utility.yul\":8472:8476   */\n      dup2\n        /* \"#utility.yul\":8468:8488   */\n      sub\n        /* \"#utility.yul\":8464:8465   */\n      0x00\n        /* \"#utility.yul\":8453:8462   */\n      dup4\n        /* \"#utility.yul\":8449:8466   */\n      add\n        /* \"#utility.yul\":8442:8489   */\n      mstore\n        /* \"#utility.yul\":8506:8637   */\n      tag_339\n        /* \"#utility.yul\":8632:8636   */\n      dup2\n        /* \"#utility.yul\":8506:8637   */\n      tag_232\n      jump\t// in\n    tag_339:\n        /* \"#utility.yul\":8498:8637   */\n      swap1\n      pop\n        /* \"#utility.yul\":8225:8644   */\n      swap2\n      swap1\n      pop\n      jump\t// out\n        /* \"#utility.yul\":8650:8895   */\n    tag_233:\n        /* \"#utility.yul\":8790:8824   */\n      0x426f746820706c6179657273206d757374206d616b652061206d6f7665206265\n        /* \"#utility.yul\":8786:8787   */\n      0x00\n        /* \"#utility.yul\":8778:8784   */\n      dup3\n        /* \"#utility.yul\":8774:8788   */\n      add\n        /* \"#utility.yul\":8767:8825   */\n      mstore\n        /* \"#utility.yul\":8859:8887   */\n      0x666f726520636865636b696e6720666f7220612077696e6e6572000000000000\n        /* \"#utility.yul\":8854:8856   */\n      0x20\n        /* \"#utility.yul\":8846:8852   */\n      dup3\n        /* \"#utility.yul\":8842:8857   */\n      add\n        /* \"#utility.yul\":8835:8888   */\n      mstore\n        /* \"#utility.yul\":8650:8895   */\n      pop\n      jump\t// out\n        /* \"#utility.yul\":8901:9267   */\n    tag_234:\n        /* \"#utility.yul\":9043:9046   */\n      0x00\n        /* \"#utility.yul\":9064:9131   */\n      tag_342\n        /* \"#utility.yul\":9128:9130   */\n      0x3a\n        /* \"#utility.yul\":9123:9126   */\n      dup4\n        /* \"#utility.yul\":9064:9131   */\n      tag_216\n      jump\t// in\n    tag_342:\n        /* \"#utility.yul\":9057:9131   */\n      swap2\n      pop\n        /* \"#utility.yul\":9140:9233   */\n      tag_343\n        /* \"#utility.yul\":9229:9232   */\n      dup3\n        /* \"#utility.yul\":9140:9233   */\n      tag_233\n      jump\t// in\n    tag_343:\n        /* \"#utility.yul\":9258:9260   */\n      0x40\n        /* \"#utility.yul\":9253:9256   */\n      dup3\n        /* \"#utility.yul\":9249:9261   */\n      add\n        /* \"#utility.yul\":9242:9261   */\n      swap1\n      pop\n        /* \"#utility.yul\":8901:9267   */\n      swap2\n      swap1\n      pop\n      jump\t// out\n        /* \"#utility.yul\":9273:9692   */\n    tag_152:\n        /* \"#utility.yul\":9439:9443   */\n      0x00\n        /* \"#utility.yul\":9477:9479   */\n      0x20\n        /* \"#utility.yul\":9466:9475   */\n      dup3\n        /* \"#utility.yul\":9462:9480   */\n      add\n        /* \"#utility.yul\":9454:9480   */\n      swap1\n      pop\n        /* \"#utility.yul\":9526:9535   */\n      dup2\n        /* \"#utility.yul\":9520:9524   */\n      dup2\n        /* \"#utility.yul\":9516:9536   */\n      sub\n        /* \"#utility.yul\":9512:9513   */\n      0x00\n        /* \"#utility.yul\":9501:9510   */\n      dup4\n        /* \"#utility.yul\":9497:9514   */\n      add\n        /* \"#utility.yul\":9490:9537   */\n      mstore\n        /* \"#utility.yul\":9554:9685   */\n      tag_345\n        /* \"#utility.yul\":9680:9684   */\n      dup2\n        /* \"#utility.yul\":9554:9685   */\n      tag_234\n      jump\t// in\n    tag_345:\n        /* \"#utility.yul\":9546:9685   */\n      swap1\n      pop\n        /* \"#utility.yul\":9273:9692   */\n      swap2\n      swap1\n      pop\n      jump\t// out\n        /* \"#utility.yul\":9698:9878   */\n    tag_235:\n        /* \"#utility.yul\":9746:9823   */\n      0x4e487b7100000000000000000000000000000000000000000000000000000000\n        /* \"#utility.yul\":9743:9744   */\n      0x00\n        /* \"#utility.yul\":9736:9824   */\n      mstore\n        /* \"#utility.yul\":9843:9847   */\n      0x41\n        /* \"#utility.yul\":9840:9841   */\n      0x04\n        /* \"#utility.yul\":9833:9848   */\n      mstore\n        /* \"#utility.yul\":9867:9871   */\n      0x24\n        /* \"#utility.yul\":9864:9865   */\n      0x00\n        /* \"#utility.yul\":9857:9872   */\n      revert\n        /* \"#utility.yul\":9884:10064   */\n    tag_236:\n        /* \"#utility.yul\":9932:10009   */\n      0x4e487b7100000000000000000000000000000000000000000000000000000000\n        /* \"#utility.yul\":9929:9930   */\n      0x00\n        /* \"#utility.yul\":9922:10010   */\n      mstore\n        /* \"#utility.yul\":10029:10033   */\n      0x22\n        /* \"#utility.yul\":10026:10027   */\n      0x04\n        /* \"#utility.yul\":10019:10034   */\n      mstore\n        /* \"#utility.yul\":10053:10057   */\n      0x24\n        /* \"#utility.yul\":10050:10051   */\n      0x00\n        /* \"#utility.yul\":10043:10058   */\n      revert\n        /* \"#utility.yul\":10070:10390   */\n    tag_170:\n        /* \"#utility.yul\":10114:10120   */\n      0x00\n        /* \"#utility.yul\":10151:10152   */\n      0x02\n        /* \"#utility.yul\":10145:10149   */\n      dup3\n        /* \"#utility.yul\":10141:10153   */\n      div\n        /* \"#utility.yul\":10131:10153   */\n      swap1\n      pop\n        /* \"#utility.yul\":10198:10199   */\n      0x01\n        /* \"#utility.yul\":10192:10196   */\n      dup3\n        /* \"#utility.yul\":10188:10200   */\n      and\n        /* \"#utility.yul\":10219:10237   */\n      dup1\n        /* \"#utility.yul\":10209:10290   */\n      tag_349\n      jumpi\n        /* \"#utility.yul\":10275:10279   */\n      0x7f\n        /* \"#utility.yul\":10267:10273   */\n      dup3\n        /* \"#utility.yul\":10263:10280   */\n      and\n        /* \"#utility.yul\":10253:10280   */\n      swap2\n      pop\n        /* \"#utility.yul\":10209:10290   */\n    tag_349:\n        /* \"#utility.yul\":10337:10339   */\n      0x20\n        /* \"#utility.yul\":10329:10335   */\n      dup3\n        /* \"#utility.yul\":10326:10340   */\n      lt\n        /* \"#utility.yul\":10306:10324   */\n      dup2\n        /* \"#utility.yul\":10303:10341   */\n      sub\n        /* \"#utility.yul\":10300:10384   */\n      tag_350\n      jumpi\n        /* \"#utility.yul\":10356:10374   */\n      tag_351\n      tag_236\n      jump\t// in\n    tag_351:\n        /* \"#utility.yul\":10300:10384   */\n    tag_350:\n        /* \"#utility.yul\":10121:10390   */\n      pop\n        /* \"#utility.yul\":10070:10390   */\n      swap2\n      swap1\n      pop\n      jump\t// out\n        /* \"#utility.yul\":10396:10537   */\n    tag_237:\n        /* \"#utility.yul\":10445:10449   */\n      0x00\n        /* \"#utility.yul\":10468:10471   */\n      dup2\n        /* \"#utility.yul\":10460:10471   */\n      swap1\n      pop\n        /* \"#utility.yul\":10491:10494   */\n      dup2\n        /* \"#utility.yul\":10488:10489   */\n      0x00\n        /* \"#utility.yul\":10481:10495   */\n      mstore\n        /* \"#utility.yul\":10525:10529   */\n      0x20\n        /* \"#utility.yul\":10522:10523   */\n      0x00\n        /* \"#utility.yul\":10512:10530   */\n      keccak256\n        /* \"#utility.yul\":10504:10530   */\n      swap1\n      pop\n        /* \"#utility.yul\":10396:10537   */\n      swap2\n      swap1\n      pop\n      jump\t// out\n        /* \"#utility.yul\":10543:10636   */\n    tag_238:\n        /* \"#utility.yul\":10580:10586   */\n      0x00\n        /* \"#utility.yul\":10627:10629   */\n      0x20\n        /* \"#utility.yul\":10622:10624   */\n      0x1f\n        /* \"#utility.yul\":10615:10620   */\n      dup4\n        /* \"#utility.yul\":10611:10625   */\n      add\n        /* \"#utility.yul\":10607:10630   */\n      div\n        /* \"#utility.yul\":10597:10630   */\n      swap1\n      pop\n        /* \"#utility.yul\":10543:10636   */\n      swap2\n      swap1\n      pop\n      jump\t// out\n        /* \"#utility.yul\":10642:10749   */\n    tag_239:\n        /* \"#utility.yul\":10686:10694   */\n      0x00\n        /* \"#utility.yul\":10736:10741   */\n      dup3\n        /* \"#utility.yul\":10730:10734   */\n      dup3\n        /* \"#utility.yul\":10726:10742   */\n      shl\n        /* \"#utility.yul\":10705:10742   */\n      swap1\n      pop\n        /* \"#utility.yul\":10642:10749   */\n      swap3\n      swap2\n      pop\n      pop\n      jump\t// out\n        /* \"#utility.yul\":10755:11148   */\n    tag_240:\n        /* \"#utility.yul\":10824:10830   */\n      0x00\n        /* \"#utility.yul\":10874:10875   */\n      0x08\n        /* \"#utility.yul\":10862:10872   */\n      dup4\n        /* \"#utility.yul\":10858:10876   */\n      mul\n        /* \"#utility.yul\":10897:10994   */\n      tag_356\n        /* \"#utility.yul\":10927:10993   */\n      0xffffffffffffffffffffffffffffffffffffffffffffffffffffffffffffffff\n        /* \"#utility.yul\":10916:10925   */\n      dup3\n        /* \"#utility.yul\":10897:10994   */\n      tag_239\n      jump\t// in\n    tag_356:\n        /* \"#utility.yul\":11015:11054   */\n      tag_357\n        /* \"#utility.yul\":11045:11053   */\n      dup7\n        /* \"#utility.yul\":11034:11043   */\n      dup4\n        /* \"#utility.yul\":11015:11054   */\n      tag_239\n      jump\t// in\n    tag_357:\n        /* \"#utility.yul\":11003:11054   */\n      swap6\n      pop\n        /* \"#utility.yul\":11087:11091   */\n      dup1\n        /* \"#utility.yul\":11083:11092   */\n      not\n        /* \"#utility.yul\":11076:11081   */\n      dup5\n        /* \"#utility.yul\":11072:11093   */\n      and\n        /* \"#utility.yul\":11063:11093   */\n      swap4\n      pop\n        /* \"#utility.yul\":11136:11140   */\n      dup1\n        /* \"#utility.yul\":11126:11134   */\n      dup7\n        /* \"#utility.yul\":11122:11141   */\n      and\n        /* \"#utility.yul\":11115:11120   */\n      dup5\n        /* \"#utility.yul\":11112:11142   */\n      or\n        /* \"#utility.yul\":11102:11142   */\n      swap3\n      pop\n        /* \"#utility.yul\":10831:11148   */\n      pop\n      pop\n        /* \"#utility.yul\":10755:11148   */\n      swap4\n      swap3\n      pop\n      pop\n      pop\n      jump\t// out\n        /* \"#utility.yul\":11154:11214   */\n    tag_241:\n        /* \"#utility.yul\":11182:11185   */\n      0x00\n        /* \"#utility.yul\":11203:11208   */\n      dup2\n        /* \"#utility.yul\":11196:11208   */\n      swap1\n      pop\n        /* \"#utility.yul\":11154:11214   */\n      swap2\n      swap1\n      pop\n      jump\t// out\n        /* \"#utility.yul\":11220:11362   */\n    tag_242:\n        /* \"#utility.yul\":11270:11279   */\n      0x00\n        /* \"#utility.yul\":11303:11356   */\n      tag_360\n        /* \"#utility.yul\":11321:11355   */\n      tag_361\n        /* \"#utility.yul\":11330:11354   */\n      tag_362\n        /* \"#utility.yul\":11348:11353   */\n      dup5\n        /* \"#utility.yul\":11330:11354   */\n      tag_212\n      jump\t// in\n    tag_362:\n        /* \"#utility.yul\":11321:11355   */\n      tag_241\n      jump\t// in\n    tag_361:\n        /* \"#utility.yul\":11303:11356   */\n      tag_212\n      jump\t// in\n    tag_360:\n        /* \"#utility.yul\":11290:11356   */\n      swap1\n      pop\n        /* \"#utility.yul\":11220:11362   */\n      swap2\n      swap1\n      pop\n      jump\t// out\n        /* \"#utility.yul\":11368:11443   */\n    tag_243:\n        /* \"#utility.yul\":11411:11414   */\n      0x00\n        /* \"#utility.yul\":11432:11437   */\n      dup2\n        /* \"#utility.yul\":11425:11437   */\n      swap1\n      pop\n        /* \"#utility.yul\":11368:11443   */\n      swap2\n      swap1\n      pop\n      jump\t// out\n        /* \"#utility.yul\":11449:11718   */\n    tag_244:\n        /* \"#utility.yul\":11559:11598   */\n      tag_365\n        /* \"#utility.yul\":11590:11597   */\n      dup4\n        /* \"#utility.yul\":11559:11598   */\n      tag_242\n      jump\t// in\n    tag_365:\n        /* \"#utility.yul\":11620:11711   */\n      tag_366\n        /* \"#utility.yul\":11669:11710   */\n      tag_367\n        /* \"#utility.yul\":11693:11709   */\n      dup3\n        /* \"#utility.yul\":11669:11710   */\n      tag_243\n      jump\t// in\n    tag_367:\n        /* \"#utility.yul\":11661:11667   */\n      dup5\n        /* \"#utility.yul\":11654:11658   */\n      dup5\n        /* \"#utility.yul\":11648:11659   */\n      sload\n        /* \"#utility.yul\":11620:11711   */\n      tag_240\n      jump\t// in\n    tag_366:\n        /* \"#utility.yul\":11614:11618   */\n      dup3\n        /* \"#utility.yul\":11607:11712   */\n      sstore\n        /* \"#utility.yul\":11525:11718   */\n      pop\n        /* \"#utility.yul\":11449:11718   */\n      pop\n      pop\n      pop\n      jump\t// out\n        /* \"#utility.yul\":11724:11797   */\n    tag_245:\n        /* \"#utility.yul\":11769:11772   */\n      0x00\n        /* \"#utility.yul\":11724:11797   */\n      swap1\n      jump\t// out\n        /* \"#utility.yul\":11803:11992   */\n    tag_246:\n        /* \"#utility.yul\":11880:11912   */\n      tag_370\n      tag_245\n      jump\t// in\n    tag_370:\n        /* \"#utility.yul\":11921:11986   */\n      tag_371\n        /* \"#utility.yul\":11979:11985   */\n      dup2\n        /* \"#utility.yul\":11971:11977   */\n      dup5\n        /* \"#utility.yul\":11965:11969   */\n      dup5\n        /* \"#utility.yul\":11921:11986   */\n      tag_244\n      jump\t// in\n    tag_371:\n        /* \"#utility.yul\":11856:11992   */\n      pop\n        /* \"#utility.yul\":11803:11992   */\n      pop\n      pop\n      jump\t// out\n        /* \"#utility.yul\":11998:12184   */\n    tag_247:\n        /* \"#utility.yul\":12058:12178   */\n    tag_373:\n        /* \"#utility.yul\":12075:12078   */\n      dup2\n        /* \"#utility.yul\":12068:12073   */\n      dup2\n        /* \"#utility.yul\":12065:12079   */\n      lt\n        /* \"#utility.yul\":12058:12178   */\n      iszero\n      tag_375\n      jumpi\n        /* \"#utility.yul\":12129:12168   */\n      tag_376\n        /* \"#utility.yul\":12166:12167   */\n      0x00\n        /* \"#utility.yul\":12159:12164   */\n      dup3\n        /* \"#utility.yul\":12129:12168   */\n      tag_246\n      jump\t// in\n    tag_376:\n        /* \"#utility.yul\":12102:12103   */\n      0x01\n        /* \"#utility.yul\":12095:12100   */\n      dup2\n        /* \"#utility.yul\":12091:12104   */\n      add\n        /* \"#utility.yul\":12082:12104   */\n      swap1\n      pop\n        /* \"#utility.yul\":12058:12178   */\n      jump(tag_373)\n    tag_375:\n        /* \"#utility.yul\":11998:12184   */\n      pop\n      pop\n      jump\t// out\n        /* \"#utility.yul\":12190:12733   */\n    tag_248:\n        /* \"#utility.yul\":12291:12293   */\n      0x1f\n        /* \"#utility.yul\":12286:12289   */\n      dup3\n        /* \"#utility.yul\":12283:12294   */\n      gt\n        /* \"#utility.yul\":12280:12726   */\n      iszero\n      tag_378\n      jumpi\n        /* \"#utility.yul\":12325:12363   */\n      tag_379\n        /* \"#utility.yul\":12357:12362   */\n      dup2\n        /* \"#utility.yul\":12325:12363   */\n      tag_237\n      jump\t// in\n    tag_379:\n        /* \"#utility.yul\":12409:12438   */\n      tag_380\n        /* \"#utility.yul\":12427:12437   */\n      dup5\n        /* \"#utility.yul\":12409:12438   */\n      tag_238\n      jump\t// in\n    tag_380:\n        /* \"#utility.yul\":12399:12407   */\n      dup2\n        /* \"#utility.yul\":12395:12439   */\n      add\n        /* \"#utility.yul\":12592:12594   */\n      0x20\n        /* \"#utility.yul\":12580:12590   */\n      dup6\n        /* \"#utility.yul\":12577:12595   */\n      lt\n        /* \"#utility.yul\":12574:12623   */\n      iszero\n      tag_381\n      jumpi\n        /* \"#utility.yul\":12613:12621   */\n      dup2\n        /* \"#utility.yul\":12598:12621   */\n      swap1\n      pop\n        /* \"#utility.yul\":12574:12623   */\n    tag_381:\n        /* \"#utility.yul\":12636:12716   */\n      tag_382\n        /* \"#utility.yul\":12692:12714   */\n      tag_383\n        /* \"#utility.yul\":12710:12713   */\n      dup6\n        /* \"#utility.yul\":12692:12714   */\n      tag_238\n      jump\t// in\n    tag_383:\n        /* \"#utility.yul\":12682:12690   */\n      dup4\n        /* \"#utility.yul\":12678:12715   */\n      add\n        /* \"#utility.yul\":12665:12676   */\n      dup3\n        /* \"#utility.yul\":12636:12716   */\n      tag_247\n      jump\t// in\n    tag_382:\n        /* \"#utility.yul\":12295:12726   */\n      pop\n      pop\n        /* \"#utility.yul\":12280:12726   */\n    tag_378:\n        /* \"#utility.yul\":12190:12733   */\n      pop\n      pop\n      pop\n      jump\t// out\n        /* \"#utility.yul\":12739:12856   */\n    tag_249:\n        /* \"#utility.yul\":12793:12801   */\n      0x00\n        /* \"#utility.yul\":12843:12848   */\n      dup3\n        /* \"#utility.yul\":12837:12841   */\n      dup3\n        /* \"#utility.yul\":12833:12849   */\n      shr\n        /* \"#utility.yul\":12812:12849   */\n      swap1\n      pop\n        /* \"#utility.yul\":12739:12856   */\n      swap3\n      swap2\n      pop\n      pop\n      jump\t// out\n        /* \"#utility.yul\":12862:13031   */\n    tag_250:\n        /* \"#utility.yul\":12906:12912   */\n      0x00\n        /* \"#utility.yul\":12939:12990   */\n      tag_386\n        /* \"#utility.yul\":12987:12988   */\n      0x00\n        /* \"#utility.yul\":12983:12989   */\n      not\n        /* \"#utility.yul\":12975:12980   */\n      dup5\n        /* \"#utility.yul\":12972:12973   */\n      0x08\n        /* \"#utility.yul\":12968:12981   */\n      mul\n        /* \"#utility.yul\":12939:12990   */\n      tag_249\n      jump\t// in\n    tag_386:\n        /* \"#utility.yul\":12935:12991   */\n      not\n        /* \"#utility.yul\":13020:13024   */\n      dup1\n        /* \"#utility.yul\":13014:13018   */\n      dup4\n        /* \"#utility.yul\":13010:13025   */\n      and\n        /* \"#utility.yul\":13000:13025   */\n      swap2\n      pop\n        /* \"#utility.yul\":12913:13031   */\n      pop\n        /* \"#utility.yul\":12862:13031   */\n      swap3\n      swap2\n      pop\n      pop\n      jump\t// out\n        /* \"#utility.yul\":13036:13331   */\n    tag_251:\n        /* \"#utility.yul\":13112:13116   */\n      0x00\n        /* \"#utility.yul\":13258:13287   */\n      tag_388\n        /* \"#utility.yul\":13283:13286   */\n      dup4\n        /* \"#utility.yul\":13277:13281   */\n      dup4\n        /* \"#utility.yul\":13258:13287   */\n      tag_250\n      jump\t// in\n    tag_388:\n        /* \"#utility.yul\":13250:13287   */\n      swap2\n      pop\n        /* \"#utility.yul\":13320:13323   */\n      dup3\n        /* \"#utility.yul\":13317:13318   */\n      0x02\n        /* \"#utility.yul\":13313:13324   */\n      mul\n        /* \"#utility.yul\":13307:13311   */\n      dup3\n        /* \"#utility.yul\":13304:13325   */\n      or\n        /* \"#utility.yul\":13296:13325   */\n      swap1\n      pop\n        /* \"#utility.yul\":13036:13331   */\n      swap3\n      swap2\n      pop\n      pop\n      jump\t// out\n        /* \"#utility.yul\":13336:14731   */\n    tag_154:\n        /* \"#utility.yul\":13453:13490   */\n      tag_390\n        /* \"#utility.yul\":13486:13489   */\n      dup3\n        /* \"#utility.yul\":13453:13490   */\n      tag_215\n      jump\t// in\n    tag_390:\n        /* \"#utility.yul\":13555:13573   */\n      0xffffffffffffffff\n        /* \"#utility.yul\":13547:13553   */\n      dup2\n        /* \"#utility.yul\":13544:13574   */\n      gt\n        /* \"#utility.yul\":13541:13597   */\n      iszero\n      tag_391\n      jumpi\n        /* \"#utility.yul\":13577:13595   */\n      tag_392\n      tag_235\n      jump\t// in\n    tag_392:\n        /* \"#utility.yul\":13541:13597   */\n    tag_391:\n        /* \"#utility.yul\":13621:13659   */\n      tag_393\n        /* \"#utility.yul\":13653:13657   */\n      dup3\n        /* \"#utility.yul\":13647:13658   */\n      sload\n        /* \"#utility.yul\":13621:13659   */\n      tag_170\n      jump\t// in\n    tag_393:\n        /* \"#utility.yul\":13706:13773   */\n      tag_394\n        /* \"#utility.yul\":13766:13772   */\n      dup3\n        /* \"#utility.yul\":13758:13764   */\n      dup3\n        /* \"#utility.yul\":13752:13756   */\n      dup6\n        /* \"#utility.yul\":13706:13773   */\n      tag_248\n      jump\t// in\n    tag_394:\n        /* \"#utility.yul\":13800:13801   */\n      0x00\n        /* \"#utility.yul\":13824:13828   */\n      0x20\n        /* \"#utility.yul\":13811:13828   */\n      swap1\n      pop\n        /* \"#utility.yul\":13856:13858   */\n      0x1f\n        /* \"#utility.yul\":13848:13854   */\n      dup4\n        /* \"#utility.yul\":13845:13859   */\n      gt\n        /* \"#utility.yul\":13873:13874   */\n      0x01\n        /* \"#utility.yul\":13868:14486   */\n      dup2\n      eq\n      tag_396\n      jumpi\n        /* \"#utility.yul\":14530:14531   */\n      0x00\n        /* \"#utility.yul\":14547:14553   */\n      dup5\n        /* \"#utility.yul\":14544:14621   */\n      iszero\n      tag_397\n      jumpi\n        /* \"#utility.yul\":14596:14605   */\n      dup3\n        /* \"#utility.yul\":14591:14594   */\n      dup8\n        /* \"#utility.yul\":14587:14606   */\n      add\n        /* \"#utility.yul\":14581:14607   */\n      mload\n        /* \"#utility.yul\":14572:14607   */\n      swap1\n      pop\n        /* \"#utility.yul\":14544:14621   */\n    tag_397:\n        /* \"#utility.yul\":14647:14714   */\n      tag_398\n        /* \"#utility.yul\":14707:14713   */\n      dup6\n        /* \"#utility.yul\":14700:14705   */\n      dup3\n        /* \"#utility.yul\":14647:14714   */\n      tag_251\n      jump\t// in\n    tag_398:\n        /* \"#utility.yul\":14641:14645   */\n      dup7\n        /* \"#utility.yul\":14634:14715   */\n      sstore\n        /* \"#utility.yul\":14503:14725   */\n      pop\n        /* \"#utility.yul\":13838:14725   */\n      jump(tag_395)\n        /* \"#utility.yul\":13868:14486   */\n    tag_396:\n        /* \"#utility.yul\":13920:13924   */\n      0x1f\n        /* \"#utility.yul\":13916:13925   */\n      not\n        /* \"#utility.yul\":13908:13914   */\n      dup5\n        /* \"#utility.yul\":13904:13926   */\n      and\n        /* \"#utility.yul\":13954:13991   */\n      tag_399\n        /* \"#utility.yul\":13986:13990   */\n      dup7\n        /* \"#utility.yul\":13954:13991   */\n      tag_237\n      jump\t// in\n    tag_399:\n        /* \"#utility.yul\":14013:14014   */\n      0x00\n        /* \"#utility.yul\":14027:14235   */\n    tag_400:\n        /* \"#utility.yul\":14041:14048   */\n      dup3\n        /* \"#utility.yul\":14038:14039   */\n      dup2\n        /* \"#utility.yul\":14035:14049   */\n      lt\n        /* \"#utility.yul\":14027:14235   */\n      iszero\n      tag_402\n      jumpi\n        /* \"#utility.yul\":14120:14129   */\n      dup5\n        /* \"#utility.yul\":14115:14118   */\n      dup10\n        /* \"#utility.yul\":14111:14130   */\n      add\n        /* \"#utility.yul\":14105:14131   */\n      mload\n        /* \"#utility.yul\":14097:14103   */\n      dup3\n        /* \"#utility.yul\":14090:14132   */\n      sstore\n        /* \"#utility.yul\":14171:14172   */\n      0x01\n        /* \"#utility.yul\":14163:14169   */\n      dup3\n        /* \"#utility.yul\":14159:14173   */\n      add\n        /* \"#utility.yul\":14149:14173   */\n      swap2\n      pop\n        /* \"#utility.yul\":14218:14220   */\n      0x20\n        /* \"#utility.yul\":14207:14216   */\n      dup6\n        /* \"#utility.yul\":14203:14221   */\n      add\n        /* \"#utility.yul\":14190:14221   */\n      swap5\n      pop\n        /* \"#utility.yul\":14064:14068   */\n      0x20\n        /* \"#utility.yul\":14061:14062   */\n      dup2\n        /* \"#utility.yul\":14057:14069   */\n      add\n        /* \"#utility.yul\":14052:14069   */\n      swap1\n      pop\n        /* \"#utility.yul\":14027:14235   */\n      jump(tag_400)\n    tag_402:\n        /* \"#utility.yul\":14263:14269   */\n      dup7\n        /* \"#utility.yul\":14254:14261   */\n      dup4\n        /* \"#utility.yul\":14251:14270   */\n      lt\n        /* \"#utility.yul\":14248:14427   */\n      iszero\n      tag_403\n      jumpi\n        /* \"#utility.yul\":14321:14330   */\n      dup5\n        /* \"#utility.yul\":14316:14319   */\n      dup10\n        /* \"#utility.yul\":14312:14331   */\n      add\n        /* \"#utility.yul\":14306:14332   */\n      mload\n        /* \"#utility.yul\":14364:14412   */\n      tag_404\n        /* \"#utility.yul\":14406:14410   */\n      0x1f\n        /* \"#utility.yul\":14398:14404   */\n      dup10\n        /* \"#utility.yul\":14394:14411   */\n      and\n        /* \"#utility.yul\":14383:14392   */\n      dup3\n        /* \"#utility.yul\":14364:14412   */\n      tag_250\n      jump\t// in\n    tag_404:\n        /* \"#utility.yul\":14356:14362   */\n      dup4\n        /* \"#utility.yul\":14349:14413   */\n      sstore\n        /* \"#utility.yul\":14271:14427   */\n      pop\n        /* \"#utility.yul\":14248:14427   */\n    tag_403:\n        /* \"#utility.yul\":14473:14474   */\n      0x01\n        /* \"#utility.yul\":14469:14470   */\n      0x02\n        /* \"#utility.yul\":14461:14467   */\n      dup9\n        /* \"#utility.yul\":14457:14471   */\n      mul\n        /* \"#utility.yul\":14453:14475   */\n      add\n        /* \"#utility.yul\":14447:14451   */\n      dup9\n        /* \"#utility.yul\":14440:14476   */\n      sstore\n        /* \"#utility.yul\":13875:14486   */\n      pop\n      pop\n      pop\n        /* \"#utility.yul\":13838:14725   */\n    tag_395:\n      pop\n        /* \"#utility.yul\":13428:14731   */\n      pop\n      pop\n      pop\n        /* \"#utility.yul\":13336:14731   */\n      pop\n      pop\n      jump\t// out\n        /* \"#utility.yul\":14737:14885   */\n    tag_252:\n        /* \"#utility.yul\":14839:14850   */\n      0x00\n        /* \"#utility.yul\":14876:14879   */\n      dup2\n        /* \"#utility.yul\":14861:14879   */\n      swap1\n      pop\n        /* \"#utility.yul\":14737:14885   */\n      swap3\n      swap2\n      pop\n      pop\n      jump\t// out\n        /* \"#utility.yul\":14891:15053   */\n    tag_253:\n        /* \"#utility.yul\":15031:15045   */\n      0x506c6179657220312057696e0000000000000000000000000000000000000000\n        /* \"#utility.yul\":15027:15028   */\n      0x00\n        /* \"#utility.yul\":15019:15025   */\n      dup3\n        /* \"#utility.yul\":15015:15029   */\n      add\n        /* \"#utility.yul\":15008:15046   */\n      mstore\n        /* \"#utility.yul\":14891:15053   */\n      pop\n      jump\t// out\n        /* \"#utility.yul\":15059:15461   */\n    tag_254:\n        /* \"#utility.yul\":15219:15222   */\n      0x00\n        /* \"#utility.yul\":15240:15325   */\n      tag_408\n        /* \"#utility.yul\":15322:15324   */\n      0x0c\n        /* \"#utility.yul\":15317:15320   */\n      dup4\n        /* \"#utility.yul\":15240:15325   */\n      tag_252\n      jump\t// in\n    tag_408:\n        /* \"#utility.yul\":15233:15325   */\n      swap2\n      pop\n        /* \"#utility.yul\":15334:15427   */\n      tag_409\n        /* \"#utility.yul\":15423:15426   */\n      dup3\n        /* \"#utility.yul\":15334:15427   */\n      tag_253\n      jump\t// in\n    tag_409:\n        /* \"#utility.yul\":15452:15454   */\n      0x0c\n        /* \"#utility.yul\":15447:15450   */\n      dup3\n        /* \"#utility.yul\":15443:15455   */\n      add\n        /* \"#utility.yul\":15436:15455   */\n      swap1\n      pop\n        /* \"#utility.yul\":15059:15461   */\n      swap2\n      swap1\n      pop\n      jump\t// out\n        /* \"#utility.yul\":15467:15848   */\n    tag_176:\n        /* \"#utility.yul\":15652:15655   */\n      0x00\n        /* \"#utility.yul\":15674:15822   */\n      tag_411\n        /* \"#utility.yul\":15818:15821   */\n      dup3\n        /* \"#utility.yul\":15674:15822   */\n      tag_254\n      jump\t// in\n    tag_411:\n        /* \"#utility.yul\":15667:15822   */\n      swap2\n      pop\n        /* \"#utility.yul\":15839:15842   */\n      dup2\n        /* \"#utility.yul\":15832:15842   */\n      swap1\n      pop\n        /* \"#utility.yul\":15467:15848   */\n      swap2\n      swap1\n      pop\n      jump\t// out\n        /* \"#utility.yul\":15854:16244   */\n    tag_255:\n        /* \"#utility.yul\":15960:15963   */\n      0x00\n        /* \"#utility.yul\":15988:16027   */\n      tag_413\n        /* \"#utility.yul\":16021:16026   */\n      dup3\n        /* \"#utility.yul\":15988:16027   */\n      tag_215\n      jump\t// in\n    tag_413:\n        /* \"#utility.yul\":16043:16132   */\n      tag_414\n        /* \"#utility.yul\":16125:16131   */\n      dup2\n        /* \"#utility.yul\":16120:16123   */\n      dup6\n        /* \"#utility.yul\":16043:16132   */\n      tag_252\n      jump\t// in\n    tag_414:\n        /* \"#utility.yul\":16036:16132   */\n      swap4\n      pop\n        /* \"#utility.yul\":16141:16206   */\n      tag_415\n        /* \"#utility.yul\":16199:16205   */\n      dup2\n        /* \"#utility.yul\":16194:16197   */\n      dup6\n        /* \"#utility.yul\":16187:16191   */\n      0x20\n        /* \"#utility.yul\":16180:16185   */\n      dup7\n        /* \"#utility.yul\":16176:16192   */\n      add\n        /* \"#utility.yul\":16141:16206   */\n      tag_217\n      jump\t// in\n    tag_415:\n        /* \"#utility.yul\":16231:16237   */\n      dup1\n        /* \"#utility.yul\":16226:16229   */\n      dup5\n        /* \"#utility.yul\":16222:16238   */\n      add\n        /* \"#utility.yul\":16215:16238   */\n      swap2\n      pop\n        /* \"#utility.yul\":15964:16244   */\n      pop\n        /* \"#utility.yul\":15854:16244   */\n      swap3\n      swap2\n      pop\n      pop\n      jump\t// out\n        /* \"#utility.yul\":16250:16525   */\n    tag_178:\n        /* \"#utility.yul\":16382:16385   */\n      0x00\n        /* \"#utility.yul\":16404:16499   */\n      tag_417\n        /* \"#utility.yul\":16495:16498   */\n      dup3\n        /* \"#utility.yul\":16486:16492   */\n      dup5\n        /* \"#utility.yul\":16404:16499   */\n      tag_255\n      jump\t// in\n    tag_417:\n        /* \"#utility.yul\":16397:16499   */\n      swap2\n      pop\n        /* \"#utility.yul\":16516:16519   */\n      dup2\n        /* \"#utility.yul\":16509:16519   */\n      swap1\n      pop\n        /* \"#utility.yul\":16250:16525   */\n      swap3\n      swap2\n      pop\n      pop\n      jump\t// out\n        /* \"#utility.yul\":16531:16711   */\n    tag_256:\n        /* \"#utility.yul\":16579:16656   */\n      0x4e487b7100000000000000000000000000000000000000000000000000000000\n        /* \"#utility.yul\":16576:16577   */\n      0x00\n        /* \"#utility.yul\":16569:16657   */\n      mstore\n        /* \"#utility.yul\":16676:16680   */\n      0x11\n        /* \"#utility.yul\":16673:16674   */\n      0x04\n        /* \"#utility.yul\":16666:16681   */\n      mstore\n        /* \"#utility.yul\":16700:16704   */\n      0x24\n        /* \"#utility.yul\":16697:16698   */\n      0x00\n        /* \"#utility.yul\":16690:16705   */\n      revert\n        /* \"#utility.yul\":16717:17127   */\n    tag_181:\n        /* \"#utility.yul\":16757:16764   */\n      0x00\n        /* \"#utility.yul\":16780:16800   */\n      tag_420\n        /* \"#utility.yul\":16798:16799   */\n      dup3\n        /* \"#utility.yul\":16780:16800   */\n      tag_212\n      jump\t// in\n    tag_420:\n        /* \"#utility.yul\":16775:16800   */\n      swap2\n      pop\n        /* \"#utility.yul\":16814:16834   */\n      tag_421\n        /* \"#utility.yul\":16832:16833   */\n      dup4\n        /* \"#utility.yul\":16814:16834   */\n      tag_212\n      jump\t// in\n    tag_421:\n        /* \"#utility.yul\":16809:16834   */\n      swap3\n      pop\n        /* \"#utility.yul\":16869:16870   */\n      dup3\n        /* \"#utility.yul\":16866:16867   */\n      dup3\n        /* \"#utility.yul\":16862:16871   */\n      mul\n        /* \"#utility.yul\":16891:16921   */\n      tag_422\n        /* \"#utility.yul\":16909:16920   */\n      dup2\n        /* \"#utility.yul\":16891:16921   */\n      tag_212\n      jump\t// in\n    tag_422:\n        /* \"#utility.yul\":16880:16921   */\n      swap2\n      pop\n        /* \"#utility.yul\":17070:17071   */\n      dup3\n        /* \"#utility.yul\":17061:17068   */\n      dup3\n        /* \"#utility.yul\":17057:17072   */\n      div\n        /* \"#utility.yul\":17054:17055   */\n      dup5\n        /* \"#utility.yul\":17051:17073   */\n      eq\n        /* \"#utility.yul\":17031:17032   */\n      dup4\n        /* \"#utility.yul\":17024:17033   */\n      iszero\n        /* \"#utility.yul\":17004:17087   */\n      or\n        /* \"#utility.yul\":16981:17120   */\n      tag_423\n      jumpi\n        /* \"#utility.yul\":17100:17118   */\n      tag_424\n      tag_256\n      jump\t// in\n    tag_424:\n        /* \"#utility.yul\":16981:17120   */\n    tag_423:\n        /* \"#utility.yul\":16765:17127   */\n      pop\n        /* \"#utility.yul\":16717:17127   */\n      swap3\n      swap2\n      pop\n      pop\n      jump\t// out\n        /* \"#utility.yul\":17133:17313   */\n    tag_257:\n        /* \"#utility.yul\":17181:17258   */\n      0x4e487b7100000000000000000000000000000000000000000000000000000000\n        /* \"#utility.yul\":17178:17179   */\n      0x00\n        /* \"#utility.yul\":17171:17259   */\n      mstore\n        /* \"#utility.yul\":17278:17282   */\n      0x12\n        /* \"#utility.yul\":17275:17276   */\n      0x04\n        /* \"#utility.yul\":17268:17283   */\n      mstore\n        /* \"#utility.yul\":17302:17306   */\n      0x24\n        /* \"#utility.yul\":17299:17300   */\n      0x00\n        /* \"#utility.yul\":17292:17307   */\n      revert\n        /* \"#utility.yul\":17319:17504   */\n    tag_183:\n        /* \"#utility.yul\":17359:17360   */\n      0x00\n        /* \"#utility.yul\":17376:17396   */\n      tag_427\n        /* \"#utility.yul\":17394:17395   */\n      dup3\n        /* \"#utility.yul\":17376:17396   */\n      tag_212\n      jump\t// in\n    tag_427:\n        /* \"#utility.yul\":17371:17396   */\n      swap2\n      pop\n        /* \"#utility.yul\":17410:17430   */\n      tag_428\n        /* \"#utility.yul\":17428:17429   */\n      dup4\n        /* \"#utility.yul\":17410:17430   */\n      tag_212\n      jump\t// in\n    tag_428:\n        /* \"#utility.yul\":17405:17430   */\n      swap3\n      pop\n        /* \"#utility.yul\":17449:17450   */\n      dup3\n        /* \"#utility.yul\":17439:17474   */\n      tag_429\n      jumpi\n        /* \"#utility.yul\":17454:17472   */\n      tag_430\n      tag_257\n      jump\t// in\n    tag_430:\n        /* \"#utility.yul\":17439:17474   */\n    tag_429:\n        /* \"#utility.yul\":17496:17497   */\n      dup3\n        /* \"#utility.yul\":17493:17494   */\n      dup3\n        /* \"#utility.yul\":17489:17498   */\n      div\n        /* \"#utility.yul\":17484:17498   */\n      swap1\n      pop\n        /* \"#utility.yul\":17319:17504   */\n      swap3\n      swap2\n      pop\n      pop\n      jump\t// out\n        /* \"#utility.yul\":17510:17672   */\n    tag_258:\n        /* \"#utility.yul\":17650:17664   */\n      0x506c6179657220322057696e0000000000000000000000000000000000000000\n        /* \"#utility.yul\":17646:17647   */\n      0x00\n        /* \"#utility.yul\":17638:17644   */\n      dup3\n        /* \"#utility.yul\":17634:17648   */\n      add\n        /* \"#utility.yul\":17627:17665   */\n      mstore\n        /* \"#utility.yul\":17510:17672   */\n      pop\n      jump\t// out\n        /* \"#utility.yul\":17678:18080   */\n    tag_259:\n        /* \"#utility.yul\":17838:17841   */\n      0x00\n        /* \"#utility.yul\":17859:17944   */\n      tag_433\n        /* \"#utility.yul\":17941:17943   */\n      0x0c\n        /* \"#utility.yul\":17936:17939   */\n      dup4\n        /* \"#utility.yul\":17859:17944   */\n      tag_252\n      jump\t// in\n    tag_433:\n        /* \"#utility.yul\":17852:17944   */\n      swap2\n      pop\n        /* \"#utility.yul\":17953:18046   */\n      tag_434\n        /* \"#utility.yul\":18042:18045   */\n      dup3\n        /* \"#utility.yul\":17953:18046   */\n      tag_258\n      jump\t// in\n    tag_434:\n        /* \"#utility.yul\":18071:18073   */\n      0x0c\n        /* \"#utility.yul\":18066:18069   */\n      dup3\n        /* \"#utility.yul\":18062:18074   */\n      add\n        /* \"#utility.yul\":18055:18074   */\n      swap1\n      pop\n        /* \"#utility.yul\":17678:18080   */\n      swap2\n      swap1\n      pop\n      jump\t// out\n        /* \"#utility.yul\":18086:18467   */\n    tag_188:\n        /* \"#utility.yul\":18271:18274   */\n      0x00\n        /* \"#utility.yul\":18293:18441   */\n      tag_436\n        /* \"#utility.yul\":18437:18440   */\n      dup3\n        /* \"#utility.yul\":18293:18441   */\n      tag_259\n      jump\t// in\n    tag_436:\n        /* \"#utility.yul\":18286:18441   */\n      swap2\n      pop\n        /* \"#utility.yul\":18458:18461   */\n      dup2\n        /* \"#utility.yul\":18451:18461   */\n      swap1\n      pop\n        /* \"#utility.yul\":18086:18467   */\n      swap2\n      swap1\n      pop\n      jump\t// out\n        /* \"#utility.yul\":18473:18704   */\n    tag_260:\n        /* \"#utility.yul\":18613:18647   */\n      0x506c617965722031206d75737420626520736574206265666f72652073657474\n        /* \"#utility.yul\":18609:18610   */\n      0x00\n        /* \"#utility.yul\":18601:18607   */\n      dup3\n        /* \"#utility.yul\":18597:18611   */\n      add\n        /* \"#utility.yul\":18590:18648   */\n      mstore\n        /* \"#utility.yul\":18682:18696   */\n      0x696e6720706c6179657220320000000000000000000000000000000000000000\n        /* \"#utility.yul\":18677:18679   */\n      0x20\n        /* \"#utility.yul\":18669:18675   */\n      dup3\n        /* \"#utility.yul\":18665:18680   */\n      add\n        /* \"#utility.yul\":18658:18697   */\n      mstore\n        /* \"#utility.yul\":18473:18704   */\n      pop\n      jump\t// out\n        /* \"#utility.yul\":18710:19076   */\n    tag_261:\n        /* \"#utility.yul\":18852:18855   */\n      0x00\n        /* \"#utility.yul\":18873:18940   */\n      tag_439\n        /* \"#utility.yul\":18937:18939   */\n      0x2c\n        /* \"#utility.yul\":18932:18935   */\n      dup4\n        /* \"#utility.yul\":18873:18940   */\n      tag_216\n      jump\t// in\n    tag_439:\n        /* \"#utility.yul\":18866:18940   */\n      swap2\n      pop\n        /* \"#utility.yul\":18949:19042   */\n      tag_440\n        /* \"#utility.yul\":19038:19041   */\n      dup3\n        /* \"#utility.yul\":18949:19042   */\n      tag_260\n      jump\t// in\n    tag_440:\n        /* \"#utility.yul\":19067:19069   */\n      0x40\n        /* \"#utility.yul\":19062:19065   */\n      dup3\n        /* \"#utility.yul\":19058:19070   */\n      add\n        /* \"#utility.yul\":19051:19070   */\n      swap1\n      pop\n        /* \"#utility.yul\":18710:19076   */\n      swap2\n      swap1\n      pop\n      jump\t// out\n        /* \"#utility.yul\":19082:19501   */\n    tag_198:\n        /* \"#utility.yul\":19248:19252   */\n      0x00\n        /* \"#utility.yul\":19286:19288   */\n      0x20\n        /* \"#utility.yul\":19275:19284   */\n      dup3\n        /* \"#utility.yul\":19271:19289   */\n      add\n        /* \"#utility.yul\":19263:19289   */\n      swap1\n      pop\n        /* \"#utility.yul\":19335:19344   */\n      dup2\n        /* \"#utility.yul\":19329:19333   */\n      dup2\n        /* \"#utility.yul\":19325:19345   */\n      sub\n        /* \"#utility.yul\":19321:19322   */\n      0x00\n        /* \"#utility.yul\":19310:19319   */\n      dup4\n        /* \"#utility.yul\":19306:19323   */\n      add\n        /* \"#utility.yul\":19299:19346   */\n      mstore\n        /* \"#utility.yul\":19363:19494   */\n      tag_442\n        /* \"#utility.yul\":19489:19493   */\n      dup2\n        /* \"#utility.yul\":19363:19494   */\n      tag_261\n      jump\t// in\n    tag_442:\n        /* \"#utility.yul\":19355:19494   */\n      swap1\n      pop\n        /* \"#utility.yul\":19082:19501   */\n      swap2\n      swap1\n      pop\n      jump\t// out\n        /* \"#utility.yul\":19507:19680   */\n    tag_262:\n        /* \"#utility.yul\":19647:19672   */\n      0x506c61796572203220697320616c726561647920736574000000000000000000\n        /* \"#utility.yul\":19643:19644   */\n      0x00\n        /* \"#utility.yul\":19635:19641   */\n      dup3\n        /* \"#utility.yul\":19631:19645   */\n      add\n        /* \"#utility.yul\":19624:19673   */\n      mstore\n        /* \"#utility.yul\":19507:19680   */\n      pop\n      jump\t// out\n        /* \"#utility.yul\":19686:20052   */\n    tag_263:\n        /* \"#utility.yul\":19828:19831   */\n      0x00\n        /* \"#utility.yul\":19849:19916   */\n      tag_445\n        /* \"#utility.yul\":19913:19915   */\n      0x17\n        /* \"#utility.yul\":19908:19911   */\n      dup4\n        /* \"#utility.yul\":19849:19916   */\n      tag_216\n      jump\t// in\n    tag_445:\n        /* \"#utility.yul\":19842:19916   */\n      swap2\n      pop\n        /* \"#utility.yul\":19925:20018   */\n      tag_446\n        /* \"#utility.yul\":20014:20017   */\n      dup3\n        /* \"#utility.yul\":19925:20018   */\n      tag_262\n      jump\t// in\n    tag_446:\n        /* \"#utility.yul\":20043:20045   */\n      0x20\n        /* \"#utility.yul\":20038:20041   */\n      dup3\n        /* \"#utility.yul\":20034:20046   */\n      add\n        /* \"#utility.yul\":20027:20046   */\n      swap1\n      pop\n        /* \"#utility.yul\":19686:20052   */\n      swap2\n      swap1\n      pop\n      jump\t// out\n        /* \"#utility.yul\":20058:20477   */\n    tag_201:\n        /* \"#utility.yul\":20224:20228   */\n      0x00\n        /* \"#utility.yul\":20262:20264   */\n      0x20\n        /* \"#utility.yul\":20251:20260   */\n      dup3\n        /* \"#utility.yul\":20247:20265   */\n      add\n        /* \"#utility.yul\":20239:20265   */\n      swap1\n      pop\n        /* \"#utility.yul\":20311:20320   */\n      dup2\n        /* \"#utility.yul\":20305:20309   */\n      dup2\n        /* \"#utility.yul\":20301:20321   */\n      sub\n        /* \"#utility.yul\":20297:20298   */\n      0x00\n        /* \"#utility.yul\":20286:20295   */\n      dup4\n        /* \"#utility.yul\":20282:20299   */\n      add\n        /* \"#utility.yul\":20275:20322   */\n      mstore\n        /* \"#utility.yul\":20339:20470   */\n      tag_448\n        /* \"#utility.yul\":20465:20469   */\n      dup2\n        /* \"#utility.yul\":20339:20470   */\n      tag_263\n      jump\t// in\n    tag_448:\n        /* \"#utility.yul\":20331:20470   */\n      swap1\n      pop\n        /* \"#utility.yul\":20058:20477   */\n      swap2\n      swap1\n      pop\n      jump\t// out\n        /* \"#utility.yul\":20483:20717   */\n    tag_264:\n        /* \"#utility.yul\":20623:20657   */\n      0x506c61796572203220616464726573732063616e6e6f74206265207468652073\n        /* \"#utility.yul\":20619:20620   */\n      0x00\n        /* \"#utility.yul\":20611:20617   */\n      dup3\n        /* \"#utility.yul\":20607:20621   */\n      add\n        /* \"#utility.yul\":20600:20658   */\n      mstore\n        /* \"#utility.yul\":20692:20709   */\n      0x616d6520617320506c6179657220310000000000000000000000000000000000\n        /* \"#utility.yul\":20687:20689   */\n      0x20\n        /* \"#utility.yul\":20679:20685   */\n      dup3\n        /* \"#utility.yul\":20675:20690   */\n      add\n        /* \"#utility.yul\":20668:20710   */\n      mstore\n        /* \"#utility.yul\":20483:20717   */\n      pop\n      jump\t// out\n        /* \"#utility.yul\":20723:21089   */\n    tag_265:\n        /* \"#utility.yul\":20865:20868   */\n      0x00\n        /* \"#utility.yul\":20886:20953   */\n      tag_451\n        /* \"#utility.yul\":20950:20952   */\n      0x2f\n        /* \"#utility.yul\":20945:20948   */\n      dup4\n        /* \"#utility.yul\":20886:20953   */\n      tag_216\n      jump\t// in\n    tag_451:\n        /* \"#utility.yul\":20879:20953   */\n      swap2\n      pop\n        /* \"#utility.yul\":20962:21055   */\n      tag_452\n        /* \"#utility.yul\":21051:21054   */\n      dup3\n        /* \"#utility.yul\":20962:21055   */\n      tag_264\n      jump\t// in\n    tag_452:\n        /* \"#utility.yul\":21080:21082   */\n      0x40\n        /* \"#utility.yul\":21075:21078   */\n      dup3\n        /* \"#utility.yul\":21071:21083   */\n      add\n        /* \"#utility.yul\":21064:21083   */\n      swap1\n      pop\n        /* \"#utility.yul\":20723:21089   */\n      swap2\n      swap1\n      pop\n      jump\t// out\n        /* \"#utility.yul\":21095:21514   */\n    tag_204:\n        /* \"#utility.yul\":21261:21265   */\n      0x00\n        /* \"#utility.yul\":21299:21301   */\n      0x20\n        /* \"#utility.yul\":21288:21297   */\n      dup3\n        /* \"#utility.yul\":21284:21302   */\n      add\n        /* \"#utility.yul\":21276:21302   */\n      swap1\n      pop\n        /* \"#utility.yul\":21348:21357   */\n      dup2\n        /* \"#utility.yul\":21342:21346   */\n      dup2\n        /* \"#utility.yul\":21338:21358   */\n      sub\n        /* \"#utility.yul\":21334:21335   */\n      0x00\n        /* \"#utility.yul\":21323:21332   */\n      dup4\n        /* \"#utility.yul\":21319:21336   */\n      add\n        /* \"#utility.yul\":21312:21359   */\n      mstore\n        /* \"#utility.yul\":21376:21507   */\n      tag_454\n        /* \"#utility.yul\":21502:21506   */\n      dup2\n        /* \"#utility.yul\":21376:21507   */\n      tag_265\n      jump\t// in\n    tag_454:\n        /* \"#utility.yul\":21368:21507   */\n      swap1\n      pop\n        /* \"#utility.yul\":21095:21514   */\n      swap2\n      swap1\n      pop\n      jump\t// out\n        /* \"#utility.yul\":21520:21693   */\n    tag_266:\n        /* \"#utility.yul\":21660:21685   */\n      0x506c61796572203120697320616c726561647920736574000000000000000000\n        /* \"#utility.yul\":21656:21657   */\n      0x00\n        /* \"#utility.yul\":21648:21654   */\n      dup3\n        /* \"#utility.yul\":21644:21658   */\n      add\n        /* \"#utility.yul\":21637:21686   */\n      mstore\n        /* \"#utility.yul\":21520:21693   */\n      pop\n      jump\t// out\n        /* \"#utility.yul\":21699:22065   */\n    tag_267:\n        /* \"#utility.yul\":21841:21844   */\n      0x00\n        /* \"#utility.yul\":21862:21929   */\n      tag_457\n        /* \"#utility.yul\":21926:21928   */\n      0x17\n        /* \"#utility.yul\":21921:21924   */\n      dup4\n        /* \"#utility.yul\":21862:21929   */\n      tag_216\n      jump\t// in\n    tag_457:\n        /* \"#utility.yul\":21855:21929   */\n      swap2\n      pop\n        /* \"#utility.yul\":21938:22031   */\n      tag_458\n        /* \"#utility.yul\":22027:22030   */\n      dup3\n        /* \"#utility.yul\":21938:22031   */\n      tag_266\n      jump\t// in\n    tag_458:\n        /* \"#utility.yul\":22056:22058   */\n      0x20\n        /* \"#utility.yul\":22051:22054   */\n      dup3\n        /* \"#utility.yul\":22047:22059   */\n      add\n        /* \"#utility.yul\":22040:22059   */\n      swap1\n      pop\n        /* \"#utility.yul\":21699:22065   */\n      swap2\n      swap1\n      pop\n      jump\t// out\n        /* \"#utility.yul\":22071:22490   */\n    tag_208:\n        /* \"#utility.yul\":22237:22241   */\n      0x00\n        /* \"#utility.yul\":22275:22277   */\n      0x20\n        /* \"#utility.yul\":22264:22273   */\n      dup3\n        /* \"#utility.yul\":22260:22278   */\n      add\n        /* \"#utility.yul\":22252:22278   */\n      swap1\n      pop\n        /* \"#utility.yul\":22324:22333   */\n      dup2\n        /* \"#utility.yul\":22318:22322   */\n      dup2\n        /* \"#utility.yul\":22314:22334   */\n      sub\n        /* \"#utility.yul\":22310:22311   */\n      0x00\n        /* \"#utility.yul\":22299:22308   */\n      dup4\n        /* \"#utility.yul\":22295:22312   */\n      add\n        /* \"#utility.yul\":22288:22335   */\n      mstore\n        /* \"#utility.yul\":22352:22483   */\n      tag_460\n        /* \"#utility.yul\":22478:22482   */\n      dup2\n        /* \"#utility.yul\":22352:22483   */\n      tag_267\n      jump\t// in\n    tag_460:\n        /* \"#utility.yul\":22344:22483   */\n      swap1\n      pop\n        /* \"#utility.yul\":22071:22490   */\n      swap2\n      swap1\n      pop\n      jump\t// out\n\n    auxdata: 0xa26469706673582212201cdccfa43fd8daa984caf2fe1fdfa597a6d94b101e3a67aedca86a4f6ee2f01564736f6c63430008130033\n}\n",
				"bytecode": {
					"linkReferences": {},
					"object": "60806040526040518060600160405280600160ff168152602001600260ff168152602001600360ff1681525060029060036200003d92919062000052565b503480156200004b57600080fd5b50620000bb565b826003810192821562000089579160200282015b8281111562000088578251829060ff1690559160200191906001019062000066565b5b5090506200009891906200009c565b5090565b5b80821115620000b75760008160009055506001016200009d565b5090565b611f1e80620000cb6000396000f3fe6080604052600436106100915760003560e01c8063bdb337d111610059578063bdb337d11461017a578063c19e9d8e146101a5578063cde1adf1146101c3578063d30895e4146101da578063d582f1311461020557610091565b806337a9b783146100965780634db32a4c146100c657806357da1e10146100f357806359a5f12d146101235780636c2826a61461014e575b600080fd5b6100b060048036038101906100ab9190611356565b61021c565b6040516100bd9190611413565b60405180910390f35b3480156100d257600080fd5b506100db6104e7565b6040516100ea93929190611435565b60405180910390f35b61010d60048036038101906101089190611356565b610599565b60405161011a9190611413565b60405180910390f35b34801561012f57600080fd5b506101386108bf565b60405161014591906114c2565b60405180910390f35b34801561015a57600080fd5b506101636108e5565b6040516101719291906114dd565b60405180910390f35b34801561018657600080fd5b5061018f610934565b60405161019c9190611521565b60405180910390f35b6101ad610947565b6040516101ba9190611413565b60405180910390f35b3480156101cf57600080fd5b506101d8611035565b005b3480156101e657600080fd5b506101ef611226565b6040516101fc91906114c2565b60405180910390f35b34801561021157600080fd5b5061021a61124a565b005b606060026000600381106102335761023261153c565b5b0154821480610257575060026001600381106102525761025161153c565b5b015482145b806102765750600280600381106102715761027061153c565b5b015482145b61027f57600080fd5b60008054906101000a900473ffffffffffffffffffffffffffffffffffffffff1673ffffffffffffffffffffffffffffffffffffffff163373ffffffffffffffffffffffffffffffffffffffff161461030d576040517f08c379a0000000000000000000000000000000000000000000000000000000008152600401610304906115b7565b60405180910390fd5b670de0b6b3a76400003414610357576040517f08c379a000000000000000000000000000000000000000000000000000000000815260040161034e90611649565b60405180910390fd5b600160149054906101000a900460ff16156103a7576040517f08c379a000000000000000000000000000000000000000000000000000000000815260040161039e906116db565b60405180910390fd5b8160056000600281106103bd576103bc61153c565b5b018190555060026000600381106103d7576103d661153c565b5b0154820361041c576040518060400160405280600581526020017f53746f6e6500000000000000000000000000000000000000000000000000000081525090506104e2565b60026001600381106104315761043061153c565b5b01548203610476576040518060400160405280600581526020017f506170657200000000000000000000000000000000000000000000000000000081525090506104e2565b6002806003811061048a5761048961153c565b5b015482036104cf576040518060400160405280600781526020017f53636973736f720000000000000000000000000000000000000000000000000081525090506104e2565b6040518060200160405280600081525090505b919050565b60608060606040518060400160405280600981526020017f53746f6e65203d203100000000000000000000000000000000000000000000008152506040518060400160405280600a81526020017f205061706572203d2032000000000000000000000000000000000000000000008152506040518060400160405280600b81526020017f53636973736f72203d2033000000000000000000000000000000000000000000815250925092509250909192565b606060026000600381106105b0576105af61153c565b5b01548214806105d4575060026001600381106105cf576105ce61153c565b5b015482145b806105f35750600280600381106105ee576105ed61153c565b5b015482145b6105fc57600080fd5b600160009054906101000a900473ffffffffffffffffffffffffffffffffffffffff1673ffffffffffffffffffffffffffffffffffffffff163373ffffffffffffffffffffffffffffffffffffffff161461068c576040517f08c379a0000000000000000000000000000000000000000000000000000000008152600401610683906115b7565b60405180910390fd5b670de0b6b3a764000034146106d6576040517f08c379a00000000000000000000000000000000000000000000000000000000081526004016106cd90611649565b60405180910390fd5b600060056000600281106106ed576106ec61153c565b5b01540361072f576040517f08c379a000000000000000000000000000000000000000000000000000000000815260040161072690611747565b60405180910390fd5b600160149054906101000a900460ff161561077f576040517f08c379a0000000000000000000000000000000000000000000000000000000008152600401610776906116db565b60405180910390fd5b8160056001600281106107955761079461153c565b5b018190555060026000600381106107af576107ae61153c565b5b015482036107f4576040518060400160405280600581526020017f53746f6e6500000000000000000000000000000000000000000000000000000081525090506108ba565b60026001600381106108095761080861153c565b5b0154820361084e576040518060400160405280600581526020017f506170657200000000000000000000000000000000000000000000000000000081525090506108ba565b600280600381106108625761086161153c565b5b015482036108a7576040518060400160405280600781526020017f53636973736f720000000000000000000000000000000000000000000000000081525090506108ba565b6040518060200160405280600081525090505b919050565b600160009054906101000a900473ffffffffffffffffffffffffffffffffffffffff1681565b60008060008054906101000a900473ffffffffffffffffffffffffffffffffffffffff16600160009054906101000a900473ffffffffffffffffffffffffffffffffffffffff16915091509091565b600160149054906101000a900460ff1681565b6060600060056000600281106109605761095f61153c565b5b0154141580156109875750600060056001600281106109825761098161153c565b5b015414155b6109c6576040517f08c379a00000000000000000000000000000000000000000000000000000000081526004016109bd906117d9565b60405180910390fd5b6040518060400160405280600881526020017f497473204472617700000000000000000000000000000000000000000000000081525060076000600181526020019081526020016000206000600181526020019081526020016000209081610a2e9190611a34565b506040518060400160405280600c81526020017f506c6179657220322057696e000000000000000000000000000000000000000081525060076000600181526020019081526020016000206000600281526020019081526020016000209081610a979190611a34565b506040518060400160405280600c81526020017f506c6179657220312057696e000000000000000000000000000000000000000081525060076000600181526020019081526020016000206000600381526020019081526020016000209081610b009190611a34565b506040518060400160405280600c81526020017f506c6179657220312057696e000000000000000000000000000000000000000081525060076000600281526020019081526020016000206000600181526020019081526020016000209081610b699190611a34565b506040518060400160405280600881526020017f497473204472617700000000000000000000000000000000000000000000000081525060076000600281526020019081526020016000206000600281526020019081526020016000209081610bd29190611a34565b506040518060400160405280600c81526020017f506c6179657220322057696e000000000000000000000000000000000000000081525060076000600281526020019081526020016000206000600381526020019081526020016000209081610c3b9190611a34565b506040518060400160405280600c81526020017f506c6179657220322057696e000000000000000000000000000000000000000081525060076000600381526020019081526020016000206000600181526020019081526020016000209081610ca49190611a34565b506040518060400160405280600c81526020017f506c6179657220312057696e000000000000000000000000000000000000000081525060076000600381526020019081526020016000206000600281526020019081526020016000209081610d0d9190611a34565b506040518060400160405280600881526020017f497473204472617700000000000000000000000000000000000000000000000081525060076000600381526020019081526020016000206000600381526020019081526020016000209081610d769190611a34565b506000600760006005600060028110610d9257610d9161153c565b5b0154815260200190815260200160002060006005600160028110610db957610db861153c565b5b015481526020019081526020016000208054610dd490611857565b80601f0160208091040260200160405190810160405280929190818152602001828054610e0090611857565b8015610e4d5780601f10610e2257610100808354040283529160200191610e4d565b820191906000526020600020905b815481529060010190602001808311610e3057829003601f168201915b505050505090506000670de0b6b3a764000090506000604051602001610e7290611b5d565b6040516020818303038152906040528051906020012083604051602001610e999190611ba3565b6040516020818303038152906040528051906020012003610f3b57600a601283610ec39190611be9565b610ecd9190611c5a565b905060008054906101000a900473ffffffffffffffffffffffffffffffffffffffff1673ffffffffffffffffffffffffffffffffffffffff166108fc829081150290604051600060405180830381858888f19350505050158015610f35573d6000803e3d6000fd5b50611012565b604051602001610f4a90611cd7565b6040516020818303038152906040528051906020012083604051602001610f719190611ba3565b604051602081830303815290604052805190602001200361101157600a601283610f9b9190611be9565b610fa59190611c5a565b9050600160009054906101000a900473ffffffffffffffffffffffffffffffffffffffff1673ffffffffffffffffffffffffffffffffffffffff166108fc829081150290604051600060405180830381858888f1935050505015801561100f573d6000803e3d6000fd5b505b5b60018060146101000a81548160ff02191690831515021790555082935050505090565b600073ffffffffffffffffffffffffffffffffffffffff1660008054906101000a900473ffffffffffffffffffffffffffffffffffffffff1673ffffffffffffffffffffffffffffffffffffffff16036110c4576040517f08c379a00000000000000000000000000000000000000000000000000000000081526004016110bb90611d5e565b60405180910390fd5b600073ffffffffffffffffffffffffffffffffffffffff16600160009054906101000a900473ffffffffffffffffffffffffffffffffffffffff1673ffffffffffffffffffffffffffffffffffffffff1614611155576040517f08c379a000000000000000000000000000000000000000000000000000000000815260040161114c90611dca565b60405180910390fd5b60008054906101000a900473ffffffffffffffffffffffffffffffffffffffff1673ffffffffffffffffffffffffffffffffffffffff163373ffffffffffffffffffffffffffffffffffffffff16036111e3576040517f08c379a00000000000000000000000000000000000000000000000000000000081526004016111da90611e5c565b60405180910390fd5b33600160006101000a81548173ffffffffffffffffffffffffffffffffffffffff021916908373ffffffffffffffffffffffffffffffffffffffff160217905550565b60008054906101000a900473ffffffffffffffffffffffffffffffffffffffff1681565b600073ffffffffffffffffffffffffffffffffffffffff1660008054906101000a900473ffffffffffffffffffffffffffffffffffffffff1673ffffffffffffffffffffffffffffffffffffffff16146112d9576040517f08c379a00000000000000000000000000000000000000000000000000000000081526004016112d090611ec8565b60405180910390fd5b336000806101000a81548173ffffffffffffffffffffffffffffffffffffffff021916908373ffffffffffffffffffffffffffffffffffffffff160217905550565b600080fd5b6000819050919050565b61133381611320565b811461133e57600080fd5b50565b6000813590506113508161132a565b92915050565b60006020828403121561136c5761136b61131b565b5b600061137a84828501611341565b91505092915050565b600081519050919050565b600082825260208201905092915050565b60005b838110156113bd5780820151818401526020810190506113a2565b60008484015250505050565b6000601f19601f8301169050919050565b60006113e582611383565b6113ef818561138e565b93506113ff81856020860161139f565b611408816113c9565b840191505092915050565b6000602082019050818103600083015261142d81846113da565b905092915050565b6000606082019050818103600083015261144f81866113da565b9050818103602083015261146381856113da565b9050818103604083015261147781846113da565b9050949350505050565b600073ffffffffffffffffffffffffffffffffffffffff82169050919050565b60006114ac82611481565b9050919050565b6114bc816114a1565b82525050565b60006020820190506114d760008301846114b3565b92915050565b60006040820190506114f260008301856114b3565b6114ff60208301846114b3565b9392505050565b60008115159050919050565b61151b81611506565b82525050565b60006020820190506115366000830184611512565b92915050565b7f4e487b7100000000000000000000000000000000000000000000000000000000600052603260045260246000fd5b7f4f6e6c7920706c61796572732063616e206d616b652061206d6f766500000000600082015250565b60006115a1601c8361138e565b91506115ac8261156b565b602082019050919050565b600060208201905081810360008301526115d081611594565b9050919050565b7f706c6561736520636865636b2076616c75652c206974206d757374206265203160008201527f2045746865720000000000000000000000000000000000000000000000000000602082015250565b600061163360268361138e565b915061163e826115d7565b604082019050919050565b6000602082019050818103600083015261166281611626565b9050919050565b7f5468652067616d65206973206f7665722c20706c65617365207374617274206160008201527f206e65772067616d6520746f20706c617920616761696e000000000000000000602082015250565b60006116c560378361138e565b91506116d082611669565b604082019050919050565b600060208201905081810360008301526116f4816116b8565b9050919050565b7f6974277320506c617965722031204d6f76650000000000000000000000000000600082015250565b600061173160128361138e565b915061173c826116fb565b602082019050919050565b6000602082019050818103600083015261176081611724565b9050919050565b7f426f746820706c6179657273206d757374206d616b652061206d6f766520626560008201527f666f726520636865636b696e6720666f7220612077696e6e6572000000000000602082015250565b60006117c3603a8361138e565b91506117ce82611767565b604082019050919050565b600060208201905081810360008301526117f2816117b6565b9050919050565b7f4e487b7100000000000000000000000000000000000000000000000000000000600052604160045260246000fd5b7f4e487b7100000000000000000000000000000000000000000000000000000000600052602260045260246000fd5b6000600282049050600182168061186f57607f821691505b60208210810361188257611881611828565b5b50919050565b60008190508160005260206000209050919050565b60006020601f8301049050919050565b600082821b905092915050565b6000600883026118ea7fffffffffffffffffffffffffffffffffffffffffffffffffffffffffffffffff826118ad565b6118f486836118ad565b95508019841693508086168417925050509392505050565b6000819050919050565b600061193161192c61192784611320565b61190c565b611320565b9050919050565b6000819050919050565b61194b83611916565b61195f61195782611938565b8484546118ba565b825550505050565b600090565b611974611967565b61197f818484611942565b505050565b5b818110156119a35761199860008261196c565b600181019050611985565b5050565b601f8211156119e8576119b981611888565b6119c28461189d565b810160208510156119d1578190505b6119e56119dd8561189d565b830182611984565b50505b505050565b600082821c905092915050565b6000611a0b600019846008026119ed565b1980831691505092915050565b6000611a2483836119fa565b9150826002028217905092915050565b611a3d82611383565b67ffffffffffffffff811115611a5657611a556117f9565b5b611a608254611857565b611a6b8282856119a7565b600060209050601f831160018114611a9e5760008415611a8c578287015190505b611a968582611a18565b865550611afe565b601f198416611aac86611888565b60005b82811015611ad457848901518255600182019150602085019450602081019050611aaf565b86831015611af15784890151611aed601f8916826119fa565b8355505b6001600288020188555050505b505050505050565b600081905092915050565b7f506c6179657220312057696e0000000000000000000000000000000000000000600082015250565b6000611b47600c83611b06565b9150611b5282611b11565b600c82019050919050565b6000611b6882611b3a565b9150819050919050565b6000611b7d82611383565b611b878185611b06565b9350611b9781856020860161139f565b80840191505092915050565b6000611baf8284611b72565b915081905092915050565b7f4e487b7100000000000000000000000000000000000000000000000000000000600052601160045260246000fd5b6000611bf482611320565b9150611bff83611320565b9250828202611c0d81611320565b91508282048414831517611c2457611c23611bba565b5b5092915050565b7f4e487b7100000000000000000000000000000000000000000000000000000000600052601260045260246000fd5b6000611c6582611320565b9150611c7083611320565b925082611c8057611c7f611c2b565b5b828204905092915050565b7f506c6179657220322057696e0000000000000000000000000000000000000000600082015250565b6000611cc1600c83611b06565b9150611ccc82611c8b565b600c82019050919050565b6000611ce282611cb4565b9150819050919050565b7f506c617965722031206d75737420626520736574206265666f7265207365747460008201527f696e6720706c6179657220320000000000000000000000000000000000000000602082015250565b6000611d48602c8361138e565b9150611d5382611cec565b604082019050919050565b60006020820190508181036000830152611d7781611d3b565b9050919050565b7f506c61796572203220697320616c726561647920736574000000000000000000600082015250565b6000611db460178361138e565b9150611dbf82611d7e565b602082019050919050565b60006020820190508181036000830152611de381611da7565b9050919050565b7f506c61796572203220616464726573732063616e6e6f7420626520746865207360008201527f616d6520617320506c6179657220310000000000000000000000000000000000602082015250565b6000611e46602f8361138e565b9150611e5182611dea565b604082019050919050565b60006020820190508181036000830152611e7581611e39565b9050919050565b7f506c61796572203120697320616c726561647920736574000000000000000000600082015250565b6000611eb260178361138e565b9150611ebd82611e7c565b602082019050919050565b60006020820190508181036000830152611ee181611ea5565b905091905056fea26469706673582212201cdccfa43fd8daa984caf2fe1fdfa597a6d94b101e3a67aedca86a4f6ee2f01564736f6c63430008130033",
					"opcodes": "PUSH1 0x80 PUSH1 0x40 MSTORE PUSH1 0x40 MLOAD DUP1 PUSH1 0x60 ADD PUSH1 0x40 MSTORE DUP1 PUSH1 0x1 PUSH1 0xFF AND DUP2 MSTORE PUSH1 0x20 ADD PUSH1 0x2 PUSH1 0xFF AND DUP2 MSTORE PUSH1 0x20 ADD PUSH1 0x3 PUSH1 0xFF AND DUP2 MSTORE POP PUSH1 0x2 SWAP1 PUSH1 0x3 PUSH3 0x3D SWAP3 SWAP2 SWAP1 PUSH3 0x52 JUMP JUMPDEST POP CALLVALUE DUP1 ISZERO PUSH3 0x4B JUMPI PUSH1 0x0 DUP1 REVERT JUMPDEST POP PUSH3 0xBB JUMP JUMPDEST DUP3 PUSH1 0x3 DUP2 ADD SWAP3 DUP3 ISZERO PUSH3 0x89 JUMPI SWAP2 PUSH1 0x20 MUL DUP3 ADD JUMPDEST DUP3 DUP2 GT ISZERO PUSH3 0x88 JUMPI DUP3 MLOAD DUP3 SWAP1 PUSH1 0xFF AND SWAP1 SSTORE SWAP2 PUSH1 0x20 ADD SWAP2 SWAP1 PUSH1 0x1 ADD SWAP1 PUSH3 0x66 JUMP JUMPDEST JUMPDEST POP SWAP1 POP PUSH3 0x98 SWAP2 SWAP1 PUSH3 0x9C JUMP JUMPDEST POP SWAP1 JUMP JUMPDEST JUMPDEST DUP1 DUP3 GT ISZERO PUSH3 0xB7 JUMPI PUSH1 0x0 DUP2 PUSH1 0x0 SWAP1 SSTORE POP PUSH1 0x1 ADD PUSH3 0x9D JUMP JUMPDEST POP SWAP1 JUMP JUMPDEST PUSH2 0x1F1E DUP1 PUSH3 0xCB PUSH1 0x0 CODECOPY PUSH1 0x0 RETURN INVALID PUSH1 0x80 PUSH1 0x40 MSTORE PUSH1 0x4 CALLDATASIZE LT PUSH2 0x91 JUMPI PUSH1 0x0 CALLDATALOAD PUSH1 0xE0 SHR DUP1 PUSH4 0xBDB337D1 GT PUSH2 0x59 JUMPI DUP1 PUSH4 0xBDB337D1 EQ PUSH2 0x17A JUMPI DUP1 PUSH4 0xC19E9D8E EQ PUSH2 0x1A5 JUMPI DUP1 PUSH4 0xCDE1ADF1 EQ PUSH2 0x1C3 JUMPI DUP1 PUSH4 0xD30895E4 EQ PUSH2 0x1DA JUMPI DUP1 PUSH4 0xD582F131 EQ PUSH2 0x205 JUMPI PUSH2 0x91 JUMP JUMPDEST DUP1 PUSH4 0x37A9B783 EQ PUSH2 0x96 JUMPI DUP1 PUSH4 0x4DB32A4C EQ PUSH2 0xC6 JUMPI DUP1 PUSH4 0x57DA1E10 EQ PUSH2 0xF3 JUMPI DUP1 PUSH4 0x59A5F12D EQ PUSH2 0x123 JUMPI DUP1 PUSH4 0x6C2826A6 EQ PUSH2 0x14E JUMPI JUMPDEST PUSH1 0x0 DUP1 REVERT JUMPDEST PUSH2 0xB0 PUSH1 0x4 DUP1 CALLDATASIZE SUB DUP2 ADD SWAP1 PUSH2 0xAB SWAP2 SWAP1 PUSH2 0x1356 JUMP JUMPDEST PUSH2 0x21C JUMP JUMPDEST PUSH1 0x40 MLOAD PUSH2 0xBD SWAP2 SWAP1 PUSH2 0x1413 JUMP JUMPDEST PUSH1 0x40 MLOAD DUP1 SWAP2 SUB SWAP1 RETURN JUMPDEST CALLVALUE DUP1 ISZERO PUSH2 0xD2 JUMPI PUSH1 0x0 DUP1 REVERT JUMPDEST POP PUSH2 0xDB PUSH2 0x4E7 JUMP JUMPDEST PUSH1 0x40 MLOAD PUSH2 0xEA SWAP4 SWAP3 SWAP2 SWAP1 PUSH2 0x1435 JUMP JUMPDEST PUSH1 0x40 MLOAD DUP1 SWAP2 SUB SWAP1 RETURN JUMPDEST PUSH2 0x10D PUSH1 0x4 DUP1 CALLDATASIZE SUB DUP2 ADD SWAP1 PUSH2 0x108 SWAP2 SWAP1 PUSH2 0x1356 JUMP JUMPDEST PUSH2 0x599 JUMP JUMPDEST PUSH1 0x40 MLOAD PUSH2 0x11A SWAP2 SWAP1 PUSH2 0x1413 JUMP JUMPDEST PUSH1 0x40 MLOAD DUP1 SWAP2 SUB SWAP1 RETURN JUMPDEST CALLVALUE DUP1 ISZERO PUSH2 0x12F JUMPI PUSH1 0x0 DUP1 REVERT JUMPDEST POP PUSH2 0x138 PUSH2 0x8BF JUMP JUMPDEST PUSH1 0x40 MLOAD PUSH2 0x145 SWAP2 SWAP1 PUSH2 0x14C2 JUMP JUMPDEST PUSH1 0x40 MLOAD DUP1 SWAP2 SUB SWAP1 RETURN JUMPDEST CALLVALUE DUP1 ISZERO PUSH2 0x15A JUMPI PUSH1 0x0 DUP1 REVERT JUMPDEST POP PUSH2 0x163 PUSH2 0x8E5 JUMP JUMPDEST PUSH1 0x40 MLOAD PUSH2 0x171 SWAP3 SWAP2 SWAP1 PUSH2 0x14DD JUMP JUMPDEST PUSH1 0x40 MLOAD DUP1 SWAP2 SUB SWAP1 RETURN JUMPDEST CALLVALUE DUP1 ISZERO PUSH2 0x186 JUMPI PUSH1 0x0 DUP1 REVERT JUMPDEST POP PUSH2 0x18F PUSH2 0x934 JUMP JUMPDEST PUSH1 0x40 MLOAD PUSH2 0x19C SWAP2 SWAP1 PUSH2 0x1521 JUMP JUMPDEST PUSH1 0x40 MLOAD DUP1 SWAP2 SUB SWAP1 RETURN JUMPDEST PUSH2 0x1AD PUSH2 0x947 JUMP JUMPDEST PUSH1 0x40 MLOAD PUSH2 0x1BA SWAP2 SWAP1 PUSH2 0x1413 JUMP JUMPDEST PUSH1 0x40 MLOAD DUP1 SWAP2 SUB SWAP1 RETURN JUMPDEST CALLVALUE DUP1 ISZERO PUSH2 0x1CF JUMPI PUSH1 0x0 DUP1 REVERT JUMPDEST POP PUSH2 0x1D8 PUSH2 0x1035 JUMP JUMPDEST STOP JUMPDEST CALLVALUE DUP1 ISZERO PUSH2 0x1E6 JUMPI PUSH1 0x0 DUP1 REVERT JUMPDEST POP PUSH2 0x1EF PUSH2 0x1226 JUMP JUMPDEST PUSH1 0x40 MLOAD PUSH2 0x1FC SWAP2 SWAP1 PUSH2 0x14C2 JUMP JUMPDEST PUSH1 0x40 MLOAD DUP1 SWAP2 SUB SWAP1 RETURN JUMPDEST CALLVALUE DUP1 ISZERO PUSH2 0x211 JUMPI PUSH1 0x0 DUP1 REVERT JUMPDEST POP PUSH2 0x21A PUSH2 0x124A JUMP JUMPDEST STOP JUMPDEST PUSH1 0x60 PUSH1 0x2 PUSH1 0x0 PUSH1 0x3 DUP2 LT PUSH2 0x233 JUMPI PUSH2 0x232 PUSH2 0x153C JUMP JUMPDEST JUMPDEST ADD SLOAD DUP3 EQ DUP1 PUSH2 0x257 JUMPI POP PUSH1 0x2 PUSH1 0x1 PUSH1 0x3 DUP2 LT PUSH2 0x252 JUMPI PUSH2 0x251 PUSH2 0x153C JUMP JUMPDEST JUMPDEST ADD SLOAD DUP3 EQ JUMPDEST DUP1 PUSH2 0x276 JUMPI POP PUSH1 0x2 DUP1 PUSH1 0x3 DUP2 LT PUSH2 0x271 JUMPI PUSH2 0x270 PUSH2 0x153C JUMP JUMPDEST JUMPDEST ADD SLOAD DUP3 EQ JUMPDEST PUSH2 0x27F JUMPI PUSH1 0x0 DUP1 REVERT JUMPDEST PUSH1 0x0 DUP1 SLOAD SWAP1 PUSH2 0x100 EXP SWAP1 DIV PUSH20 0xFFFFFFFFFFFFFFFFFFFFFFFFFFFFFFFFFFFFFFFF AND PUSH20 0xFFFFFFFFFFFFFFFFFFFFFFFFFFFFFFFFFFFFFFFF AND CALLER PUSH20 0xFFFFFFFFFFFFFFFFFFFFFFFFFFFFFFFFFFFFFFFF AND EQ PUSH2 0x30D JUMPI PUSH1 0x40 MLOAD PUSH32 0x8C379A000000000000000000000000000000000000000000000000000000000 DUP2 MSTORE PUSH1 0x4 ADD PUSH2 0x304 SWAP1 PUSH2 0x15B7 JUMP JUMPDEST PUSH1 0x40 MLOAD DUP1 SWAP2 SUB SWAP1 REVERT JUMPDEST PUSH8 0xDE0B6B3A7640000 CALLVALUE EQ PUSH2 0x357 JUMPI PUSH1 0x40 MLOAD PUSH32 0x8C379A000000000000000000000000000000000000000000000000000000000 DUP2 MSTORE PUSH1 0x4 ADD PUSH2 0x34E SWAP1 PUSH2 0x1649 JUMP JUMPDEST PUSH1 0x40 MLOAD DUP1 SWAP2 SUB SWAP1 REVERT JUMPDEST PUSH1 0x1 PUSH1 0x14 SWAP1 SLOAD SWAP1 PUSH2 0x100 EXP SWAP1 DIV PUSH1 0xFF AND ISZERO PUSH2 0x3A7 JUMPI PUSH1 0x40 MLOAD PUSH32 0x8C379A000000000000000000000000000000000000000000000000000000000 DUP2 MSTORE PUSH1 0x4 ADD PUSH2 0x39E SWAP1 PUSH2 0x16DB JUMP JUMPDEST PUSH1 0x40 MLOAD DUP1 SWAP2 SUB SWAP1 REVERT JUMPDEST DUP2 PUSH1 0x5 PUSH1 0x0 PUSH1 0x2 DUP2 LT PUSH2 0x3BD JUMPI PUSH2 0x3BC PUSH2 0x153C JUMP JUMPDEST JUMPDEST ADD DUP2 SWAP1 SSTORE POP PUSH1 0x2 PUSH1 0x0 PUSH1 0x3 DUP2 LT PUSH2 0x3D7 JUMPI PUSH2 0x3D6 PUSH2 0x153C JUMP JUMPDEST JUMPDEST ADD SLOAD DUP3 SUB PUSH2 0x41C JUMPI PUSH1 0x40 MLOAD DUP1 PUSH1 0x40 ADD PUSH1 0x40 MSTORE DUP1 PUSH1 0x5 DUP2 MSTORE PUSH1 0x20 ADD PUSH32 0x53746F6E65000000000000000000000000000000000000000000000000000000 DUP2 MSTORE POP SWAP1 POP PUSH2 0x4E2 JUMP JUMPDEST PUSH1 0x2 PUSH1 0x1 PUSH1 0x3 DUP2 LT PUSH2 0x431 JUMPI PUSH2 0x430 PUSH2 0x153C JUMP JUMPDEST JUMPDEST ADD SLOAD DUP3 SUB PUSH2 0x476 JUMPI PUSH1 0x40 MLOAD DUP1 PUSH1 0x40 ADD PUSH1 0x40 MSTORE DUP1 PUSH1 0x5 DUP2 MSTORE PUSH1 0x20 ADD PUSH32 0x5061706572000000000000000000000000000000000000000000000000000000 DUP2 MSTORE POP SWAP1 POP PUSH2 0x4E2 JUMP JUMPDEST PUSH1 0x2 DUP1 PUSH1 0x3 DUP2 LT PUSH2 0x48A JUMPI PUSH2 0x489 PUSH2 0x153C JUMP JUMPDEST JUMPDEST ADD SLOAD DUP3 SUB PUSH2 0x4CF JUMPI PUSH1 0x40 MLOAD DUP1 PUSH1 0x40 ADD PUSH1 0x40 MSTORE DUP1 PUSH1 0x7 DUP2 MSTORE PUSH1 0x20 ADD PUSH32 0x53636973736F7200000000000000000000000000000000000000000000000000 DUP2 MSTORE POP SWAP1 POP PUSH2 0x4E2 JUMP JUMPDEST PUSH1 0x40 MLOAD DUP1 PUSH1 0x20 ADD PUSH1 0x40 MSTORE DUP1 PUSH1 0x0 DUP2 MSTORE POP SWAP1 POP JUMPDEST SWAP2 SWAP1 POP JUMP JUMPDEST PUSH1 0x60 DUP1 PUSH1 0x60 PUSH1 0x40 MLOAD DUP1 PUSH1 0x40 ADD PUSH1 0x40 MSTORE DUP1 PUSH1 0x9 DUP2 MSTORE PUSH1 0x20 ADD PUSH32 0x53746F6E65203D20310000000000000000000000000000000000000000000000 DUP2 MSTORE POP PUSH1 0x40 MLOAD DUP1 PUSH1 0x40 ADD PUSH1 0x40 MSTORE DUP1 PUSH1 0xA DUP2 MSTORE PUSH1 0x20 ADD PUSH32 0x205061706572203D203200000000000000000000000000000000000000000000 DUP2 MSTORE POP PUSH1 0x40 MLOAD DUP1 PUSH1 0x40 ADD PUSH1 0x40 MSTORE DUP1 PUSH1 0xB DUP2 MSTORE PUSH1 0x20 ADD PUSH32 0x53636973736F72203D2033000000000000000000000000000000000000000000 DUP2 MSTORE POP SWAP3 POP SWAP3 POP SWAP3 POP SWAP1 SWAP2 SWAP3 JUMP JUMPDEST PUSH1 0x60 PUSH1 0x2 PUSH1 0x0 PUSH1 0x3 DUP2 LT PUSH2 0x5B0 JUMPI PUSH2 0x5AF PUSH2 0x153C JUMP JUMPDEST JUMPDEST ADD SLOAD DUP3 EQ DUP1 PUSH2 0x5D4 JUMPI POP PUSH1 0x2 PUSH1 0x1 PUSH1 0x3 DUP2 LT PUSH2 0x5CF JUMPI PUSH2 0x5CE PUSH2 0x153C JUMP JUMPDEST JUMPDEST ADD SLOAD DUP3 EQ JUMPDEST DUP1 PUSH2 0x5F3 JUMPI POP PUSH1 0x2 DUP1 PUSH1 0x3 DUP2 LT PUSH2 0x5EE JUMPI PUSH2 0x5ED PUSH2 0x153C JUMP JUMPDEST JUMPDEST ADD SLOAD DUP3 EQ JUMPDEST PUSH2 0x5FC JUMPI PUSH1 0x0 DUP1 REVERT JUMPDEST PUSH1 0x1 PUSH1 0x0 SWAP1 SLOAD SWAP1 PUSH2 0x100 EXP SWAP1 DIV PUSH20 0xFFFFFFFFFFFFFFFFFFFFFFFFFFFFFFFFFFFFFFFF AND PUSH20 0xFFFFFFFFFFFFFFFFFFFFFFFFFFFFFFFFFFFFFFFF AND CALLER PUSH20 0xFFFFFFFFFFFFFFFFFFFFFFFFFFFFFFFFFFFFFFFF AND EQ PUSH2 0x68C JUMPI PUSH1 0x40 MLOAD PUSH32 0x8C379A000000000000000000000000000000000000000000000000000000000 DUP2 MSTORE PUSH1 0x4 ADD PUSH2 0x683 SWAP1 PUSH2 0x15B7 JUMP JUMPDEST PUSH1 0x40 MLOAD DUP1 SWAP2 SUB SWAP1 REVERT JUMPDEST PUSH8 0xDE0B6B3A7640000 CALLVALUE EQ PUSH2 0x6D6 JUMPI PUSH1 0x40 MLOAD PUSH32 0x8C379A000000000000000000000000000000000000000000000000000000000 DUP2 MSTORE PUSH1 0x4 ADD PUSH2 0x6CD SWAP1 PUSH2 0x1649 JUMP JUMPDEST PUSH1 0x40 MLOAD DUP1 SWAP2 SUB SWAP1 REVERT JUMPDEST PUSH1 0x0 PUSH1 0x5 PUSH1 0x0 PUSH1 0x2 DUP2 LT PUSH2 0x6ED JUMPI PUSH2 0x6EC PUSH2 0x153C JUMP JUMPDEST JUMPDEST ADD SLOAD SUB PUSH2 0x72F JUMPI PUSH1 0x40 MLOAD PUSH32 0x8C379A000000000000000000000000000000000000000000000000000000000 DUP2 MSTORE PUSH1 0x4 ADD PUSH2 0x726 SWAP1 PUSH2 0x1747 JUMP JUMPDEST PUSH1 0x40 MLOAD DUP1 SWAP2 SUB SWAP1 REVERT JUMPDEST PUSH1 0x1 PUSH1 0x14 SWAP1 SLOAD SWAP1 PUSH2 0x100 EXP SWAP1 DIV PUSH1 0xFF AND ISZERO PUSH2 0x77F JUMPI PUSH1 0x40 MLOAD PUSH32 0x8C379A000000000000000000000000000000000000000000000000000000000 DUP2 MSTORE PUSH1 0x4 ADD PUSH2 0x776 SWAP1 PUSH2 0x16DB JUMP JUMPDEST PUSH1 0x40 MLOAD DUP1 SWAP2 SUB SWAP1 REVERT JUMPDEST DUP2 PUSH1 0x5 PUSH1 0x1 PUSH1 0x2 DUP2 LT PUSH2 0x795 JUMPI PUSH2 0x794 PUSH2 0x153C JUMP JUMPDEST JUMPDEST ADD DUP2 SWAP1 SSTORE POP PUSH1 0x2 PUSH1 0x0 PUSH1 0x3 DUP2 LT PUSH2 0x7AF JUMPI PUSH2 0x7AE PUSH2 0x153C JUMP JUMPDEST JUMPDEST ADD SLOAD DUP3 SUB PUSH2 0x7F4 JUMPI PUSH1 0x40 MLOAD DUP1 PUSH1 0x40 ADD PUSH1 0x40 MSTORE DUP1 PUSH1 0x5 DUP2 MSTORE PUSH1 0x20 ADD PUSH32 0x53746F6E65000000000000000000000000000000000000000000000000000000 DUP2 MSTORE POP SWAP1 POP PUSH2 0x8BA JUMP JUMPDEST PUSH1 0x2 PUSH1 0x1 PUSH1 0x3 DUP2 LT PUSH2 0x809 JUMPI PUSH2 0x808 PUSH2 0x153C JUMP JUMPDEST JUMPDEST ADD SLOAD DUP3 SUB PUSH2 0x84E JUMPI PUSH1 0x40 MLOAD DUP1 PUSH1 0x40 ADD PUSH1 0x40 MSTORE DUP1 PUSH1 0x5 DUP2 MSTORE PUSH1 0x20 ADD PUSH32 0x5061706572000000000000000000000000000000000000000000000000000000 DUP2 MSTORE POP SWAP1 POP PUSH2 0x8BA JUMP JUMPDEST PUSH1 0x2 DUP1 PUSH1 0x3 DUP2 LT PUSH2 0x862 JUMPI PUSH2 0x861 PUSH2 0x153C JUMP JUMPDEST JUMPDEST ADD SLOAD DUP3 SUB PUSH2 0x8A7 JUMPI PUSH1 0x40 MLOAD DUP1 PUSH1 0x40 ADD PUSH1 0x40 MSTORE DUP1 PUSH1 0x7 DUP2 MSTORE PUSH1 0x20 ADD PUSH32 0x53636973736F7200000000000000000000000000000000000000000000000000 DUP2 MSTORE POP SWAP1 POP PUSH2 0x8BA JUMP JUMPDEST PUSH1 0x40 MLOAD DUP1 PUSH1 0x20 ADD PUSH1 0x40 MSTORE DUP1 PUSH1 0x0 DUP2 MSTORE POP SWAP1 POP JUMPDEST SWAP2 SWAP1 POP JUMP JUMPDEST PUSH1 0x1 PUSH1 0x0 SWAP1 SLOAD SWAP1 PUSH2 0x100 EXP SWAP1 DIV PUSH20 0xFFFFFFFFFFFFFFFFFFFFFFFFFFFFFFFFFFFFFFFF AND DUP2 JUMP JUMPDEST PUSH1 0x0 DUP1 PUSH1 0x0 DUP1 SLOAD SWAP1 PUSH2 0x100 EXP SWAP1 DIV PUSH20 0xFFFFFFFFFFFFFFFFFFFFFFFFFFFFFFFFFFFFFFFF AND PUSH1 0x1 PUSH1 0x0 SWAP1 SLOAD SWAP1 PUSH2 0x100 EXP SWAP1 DIV PUSH20 0xFFFFFFFFFFFFFFFFFFFFFFFFFFFFFFFFFFFFFFFF AND SWAP2 POP SWAP2 POP SWAP1 SWAP2 JUMP JUMPDEST PUSH1 0x1 PUSH1 0x14 SWAP1 SLOAD SWAP1 PUSH2 0x100 EXP SWAP1 DIV PUSH1 0xFF AND DUP2 JUMP JUMPDEST PUSH1 0x60 PUSH1 0x0 PUSH1 0x5 PUSH1 0x0 PUSH1 0x2 DUP2 LT PUSH2 0x960 JUMPI PUSH2 0x95F PUSH2 0x153C JUMP JUMPDEST JUMPDEST ADD SLOAD EQ ISZERO DUP1 ISZERO PUSH2 0x987 JUMPI POP PUSH1 0x0 PUSH1 0x5 PUSH1 0x1 PUSH1 0x2 DUP2 LT PUSH2 0x982 JUMPI PUSH2 0x981 PUSH2 0x153C JUMP JUMPDEST JUMPDEST ADD SLOAD EQ ISZERO JUMPDEST PUSH2 0x9C6 JUMPI PUSH1 0x40 MLOAD PUSH32 0x8C379A000000000000000000000000000000000000000000000000000000000 DUP2 MSTORE PUSH1 0x4 ADD PUSH2 0x9BD SWAP1 PUSH2 0x17D9 JUMP JUMPDEST PUSH1 0x40 MLOAD DUP1 SWAP2 SUB SWAP1 REVERT JUMPDEST PUSH1 0x40 MLOAD DUP1 PUSH1 0x40 ADD PUSH1 0x40 MSTORE DUP1 PUSH1 0x8 DUP2 MSTORE PUSH1 0x20 ADD PUSH32 0x4974732044726177000000000000000000000000000000000000000000000000 DUP2 MSTORE POP PUSH1 0x7 PUSH1 0x0 PUSH1 0x1 DUP2 MSTORE PUSH1 0x20 ADD SWAP1 DUP2 MSTORE PUSH1 0x20 ADD PUSH1 0x0 KECCAK256 PUSH1 0x0 PUSH1 0x1 DUP2 MSTORE PUSH1 0x20 ADD SWAP1 DUP2 MSTORE PUSH1 0x20 ADD PUSH1 0x0 KECCAK256 SWAP1 DUP2 PUSH2 0xA2E SWAP2 SWAP1 PUSH2 0x1A34 JUMP JUMPDEST POP PUSH1 0x40 MLOAD DUP1 PUSH1 0x40 ADD PUSH1 0x40 MSTORE DUP1 PUSH1 0xC DUP2 MSTORE PUSH1 0x20 ADD PUSH32 0x506C6179657220322057696E0000000000000000000000000000000000000000 DUP2 MSTORE POP PUSH1 0x7 PUSH1 0x0 PUSH1 0x1 DUP2 MSTORE PUSH1 0x20 ADD SWAP1 DUP2 MSTORE PUSH1 0x20 ADD PUSH1 0x0 KECCAK256 PUSH1 0x0 PUSH1 0x2 DUP2 MSTORE PUSH1 0x20 ADD SWAP1 DUP2 MSTORE PUSH1 0x20 ADD PUSH1 0x0 KECCAK256 SWAP1 DUP2 PUSH2 0xA97 SWAP2 SWAP1 PUSH2 0x1A34 JUMP JUMPDEST POP PUSH1 0x40 MLOAD DUP1 PUSH1 0x40 ADD PUSH1 0x40 MSTORE DUP1 PUSH1 0xC DUP2 MSTORE PUSH1 0x20 ADD PUSH32 0x506C6179657220312057696E0000000000000000000000000000000000000000 DUP2 MSTORE POP PUSH1 0x7 PUSH1 0x0 PUSH1 0x1 DUP2 MSTORE PUSH1 0x20 ADD SWAP1 DUP2 MSTORE PUSH1 0x20 ADD PUSH1 0x0 KECCAK256 PUSH1 0x0 PUSH1 0x3 DUP2 MSTORE PUSH1 0x20 ADD SWAP1 DUP2 MSTORE PUSH1 0x20 ADD PUSH1 0x0 KECCAK256 SWAP1 DUP2 PUSH2 0xB00 SWAP2 SWAP1 PUSH2 0x1A34 JUMP JUMPDEST POP PUSH1 0x40 MLOAD DUP1 PUSH1 0x40 ADD PUSH1 0x40 MSTORE DUP1 PUSH1 0xC DUP2 MSTORE PUSH1 0x20 ADD PUSH32 0x506C6179657220312057696E0000000000000000000000000000000000000000 DUP2 MSTORE POP PUSH1 0x7 PUSH1 0x0 PUSH1 0x2 DUP2 MSTORE PUSH1 0x20 ADD SWAP1 DUP2 MSTORE PUSH1 0x20 ADD PUSH1 0x0 KECCAK256 PUSH1 0x0 PUSH1 0x1 DUP2 MSTORE PUSH1 0x20 ADD SWAP1 DUP2 MSTORE PUSH1 0x20 ADD PUSH1 0x0 KECCAK256 SWAP1 DUP2 PUSH2 0xB69 SWAP2 SWAP1 PUSH2 0x1A34 JUMP JUMPDEST POP PUSH1 0x40 MLOAD DUP1 PUSH1 0x40 ADD PUSH1 0x40 MSTORE DUP1 PUSH1 0x8 DUP2 MSTORE PUSH1 0x20 ADD PUSH32 0x4974732044726177000000000000000000000000000000000000000000000000 DUP2 MSTORE POP PUSH1 0x7 PUSH1 0x0 PUSH1 0x2 DUP2 MSTORE PUSH1 0x20 ADD SWAP1 DUP2 MSTORE PUSH1 0x20 ADD PUSH1 0x0 KECCAK256 PUSH1 0x0 PUSH1 0x2 DUP2 MSTORE PUSH1 0x20 ADD SWAP1 DUP2 MSTORE PUSH1 0x20 ADD PUSH1 0x0 KECCAK256 SWAP1 DUP2 PUSH2 0xBD2 SWAP2 SWAP1 PUSH2 0x1A34 JUMP JUMPDEST POP PUSH1 0x40 MLOAD DUP1 PUSH1 0x40 ADD PUSH1 0x40 MSTORE DUP1 PUSH1 0xC DUP2 MSTORE PUSH1 0x20 ADD PUSH32 0x506C6179657220322057696E0000000000000000000000000000000000000000 DUP2 MSTORE POP PUSH1 0x7 PUSH1 0x0 PUSH1 0x2 DUP2 MSTORE PUSH1 0x20 ADD SWAP1 DUP2 MSTORE PUSH1 0x20 ADD PUSH1 0x0 KECCAK256 PUSH1 0x0 PUSH1 0x3 DUP2 MSTORE PUSH1 0x20 ADD SWAP1 DUP2 MSTORE PUSH1 0x20 ADD PUSH1 0x0 KECCAK256 SWAP1 DUP2 PUSH2 0xC3B SWAP2 SWAP1 PUSH2 0x1A34 JUMP JUMPDEST POP PUSH1 0x40 MLOAD DUP1 PUSH1 0x40 ADD PUSH1 0x40 MSTORE DUP1 PUSH1 0xC DUP2 MSTORE PUSH1 0x20 ADD PUSH32 0x506C6179657220322057696E0000000000000000000000000000000000000000 DUP2 MSTORE POP PUSH1 0x7 PUSH1 0x0 PUSH1 0x3 DUP2 MSTORE PUSH1 0x20 ADD SWAP1 DUP2 MSTORE PUSH1 0x20 ADD PUSH1 0x0 KECCAK256 PUSH1 0x0 PUSH1 0x1 DUP2 MSTORE PUSH1 0x20 ADD SWAP1 DUP2 MSTORE PUSH1 0x20 ADD PUSH1 0x0 KECCAK256 SWAP1 DUP2 PUSH2 0xCA4 SWAP2 SWAP1 PUSH2 0x1A34 JUMP JUMPDEST POP PUSH1 0x40 MLOAD DUP1 PUSH1 0x40 ADD PUSH1 0x40 MSTORE DUP1 PUSH1 0xC DUP2 MSTORE PUSH1 0x20 ADD PUSH32 0x506C6179657220312057696E0000000000000000000000000000000000000000 DUP2 MSTORE POP PUSH1 0x7 PUSH1 0x0 PUSH1 0x3 DUP2 MSTORE PUSH1 0x20 ADD SWAP1 DUP2 MSTORE PUSH1 0x20 ADD PUSH1 0x0 KECCAK256 PUSH1 0x0 PUSH1 0x2 DUP2 MSTORE PUSH1 0x20 ADD SWAP1 DUP2 MSTORE PUSH1 0x20 ADD PUSH1 0x0 KECCAK256 SWAP1 DUP2 PUSH2 0xD0D SWAP2 SWAP1 PUSH2 0x1A34 JUMP JUMPDEST POP PUSH1 0x40 MLOAD DUP1 PUSH1 0x40 ADD PUSH1 0x40 MSTORE DUP1 PUSH1 0x8 DUP2 MSTORE PUSH1 0x20 ADD PUSH32 0x4974732044726177000000000000000000000000000000000000000000000000 DUP2 MSTORE POP PUSH1 0x7 PUSH1 0x0 PUSH1 0x3 DUP2 MSTORE PUSH1 0x20 ADD SWAP1 DUP2 MSTORE PUSH1 0x20 ADD PUSH1 0x0 KECCAK256 PUSH1 0x0 PUSH1 0x3 DUP2 MSTORE PUSH1 0x20 ADD SWAP1 DUP2 MSTORE PUSH1 0x20 ADD PUSH1 0x0 KECCAK256 SWAP1 DUP2 PUSH2 0xD76 SWAP2 SWAP1 PUSH2 0x1A34 JUMP JUMPDEST POP PUSH1 0x0 PUSH1 0x7 PUSH1 0x0 PUSH1 0x5 PUSH1 0x0 PUSH1 0x2 DUP2 LT PUSH2 0xD92 JUMPI PUSH2 0xD91 PUSH2 0x153C JUMP JUMPDEST JUMPDEST ADD SLOAD DUP2 MSTORE PUSH1 0x20 ADD SWAP1 DUP2 MSTORE PUSH1 0x20 ADD PUSH1 0x0 KECCAK256 PUSH1 0x0 PUSH1 0x5 PUSH1 0x1 PUSH1 0x2 DUP2 LT PUSH2 0xDB9 JUMPI PUSH2 0xDB8 PUSH2 0x153C JUMP JUMPDEST JUMPDEST ADD SLOAD DUP2 MSTORE PUSH1 0x20 ADD SWAP1 DUP2 MSTORE PUSH1 0x20 ADD PUSH1 0x0 KECCAK256 DUP1 SLOAD PUSH2 0xDD4 SWAP1 PUSH2 0x1857 JUMP JUMPDEST DUP1 PUSH1 0x1F ADD PUSH1 0x20 DUP1 SWAP2 DIV MUL PUSH1 0x20 ADD PUSH1 0x40 MLOAD SWAP1 DUP2 ADD PUSH1 0x40 MSTORE DUP1 SWAP3 SWAP2 SWAP1 DUP2 DUP2 MSTORE PUSH1 0x20 ADD DUP3 DUP1 SLOAD PUSH2 0xE00 SWAP1 PUSH2 0x1857 JUMP JUMPDEST DUP1 ISZERO PUSH2 0xE4D JUMPI DUP1 PUSH1 0x1F LT PUSH2 0xE22 JUMPI PUSH2 0x100 DUP1 DUP4 SLOAD DIV MUL DUP4 MSTORE SWAP2 PUSH1 0x20 ADD SWAP2 PUSH2 0xE4D JUMP JUMPDEST DUP3 ADD SWAP2 SWAP1 PUSH1 0x0 MSTORE PUSH1 0x20 PUSH1 0x0 KECCAK256 SWAP1 JUMPDEST DUP2 SLOAD DUP2 MSTORE SWAP1 PUSH1 0x1 ADD SWAP1 PUSH1 0x20 ADD DUP1 DUP4 GT PUSH2 0xE30 JUMPI DUP3 SWAP1 SUB PUSH1 0x1F AND DUP3 ADD SWAP2 JUMPDEST POP POP POP POP POP SWAP1 POP PUSH1 0x0 PUSH8 0xDE0B6B3A7640000 SWAP1 POP PUSH1 0x0 PUSH1 0x40 MLOAD PUSH1 0x20 ADD PUSH2 0xE72 SWAP1 PUSH2 0x1B5D JUMP JUMPDEST PUSH1 0x40 MLOAD PUSH1 0x20 DUP2 DUP4 SUB SUB DUP2 MSTORE SWAP1 PUSH1 0x40 MSTORE DUP1 MLOAD SWAP1 PUSH1 0x20 ADD KECCAK256 DUP4 PUSH1 0x40 MLOAD PUSH1 0x20 ADD PUSH2 0xE99 SWAP2 SWAP1 PUSH2 0x1BA3 JUMP JUMPDEST PUSH1 0x40 MLOAD PUSH1 0x20 DUP2 DUP4 SUB SUB DUP2 MSTORE SWAP1 PUSH1 0x40 MSTORE DUP1 MLOAD SWAP1 PUSH1 0x20 ADD KECCAK256 SUB PUSH2 0xF3B JUMPI PUSH1 0xA PUSH1 0x12 DUP4 PUSH2 0xEC3 SWAP2 SWAP1 PUSH2 0x1BE9 JUMP JUMPDEST PUSH2 0xECD SWAP2 SWAP1 PUSH2 0x1C5A JUMP JUMPDEST SWAP1 POP PUSH1 0x0 DUP1 SLOAD SWAP1 PUSH2 0x100 EXP SWAP1 DIV PUSH20 0xFFFFFFFFFFFFFFFFFFFFFFFFFFFFFFFFFFFFFFFF AND PUSH20 0xFFFFFFFFFFFFFFFFFFFFFFFFFFFFFFFFFFFFFFFF AND PUSH2 0x8FC DUP3 SWAP1 DUP2 ISZERO MUL SWAP1 PUSH1 0x40 MLOAD PUSH1 0x0 PUSH1 0x40 MLOAD DUP1 DUP4 SUB DUP2 DUP6 DUP9 DUP9 CALL SWAP4 POP POP POP POP ISZERO DUP1 ISZERO PUSH2 0xF35 JUMPI RETURNDATASIZE PUSH1 0x0 DUP1 RETURNDATACOPY RETURNDATASIZE PUSH1 0x0 REVERT JUMPDEST POP PUSH2 0x1012 JUMP JUMPDEST PUSH1 0x40 MLOAD PUSH1 0x20 ADD PUSH2 0xF4A SWAP1 PUSH2 0x1CD7 JUMP JUMPDEST PUSH1 0x40 MLOAD PUSH1 0x20 DUP2 DUP4 SUB SUB DUP2 MSTORE SWAP1 PUSH1 0x40 MSTORE DUP1 MLOAD SWAP1 PUSH1 0x20 ADD KECCAK256 DUP4 PUSH1 0x40 MLOAD PUSH1 0x20 ADD PUSH2 0xF71 SWAP2 SWAP1 PUSH2 0x1BA3 JUMP JUMPDEST PUSH1 0x40 MLOAD PUSH1 0x20 DUP2 DUP4 SUB SUB DUP2 MSTORE SWAP1 PUSH1 0x40 MSTORE DUP1 MLOAD SWAP1 PUSH1 0x20 ADD KECCAK256 SUB PUSH2 0x1011 JUMPI PUSH1 0xA PUSH1 0x12 DUP4 PUSH2 0xF9B SWAP2 SWAP1 PUSH2 0x1BE9 JUMP JUMPDEST PUSH2 0xFA5 SWAP2 SWAP1 PUSH2 0x1C5A JUMP JUMPDEST SWAP1 POP PUSH1 0x1 PUSH1 0x0 SWAP1 SLOAD SWAP1 PUSH2 0x100 EXP SWAP1 DIV PUSH20 0xFFFFFFFFFFFFFFFFFFFFFFFFFFFFFFFFFFFFFFFF AND PUSH20 0xFFFFFFFFFFFFFFFFFFFFFFFFFFFFFFFFFFFFFFFF AND PUSH2 0x8FC DUP3 SWAP1 DUP2 ISZERO MUL SWAP1 PUSH1 0x40 MLOAD PUSH1 0x0 PUSH1 0x40 MLOAD DUP1 DUP4 SUB DUP2 DUP6 DUP9 DUP9 CALL SWAP4 POP POP POP POP ISZERO DUP1 ISZERO PUSH2 0x100F JUMPI RETURNDATASIZE PUSH1 0x0 DUP1 RETURNDATACOPY RETURNDATASIZE PUSH1 0x0 REVERT JUMPDEST POP JUMPDEST JUMPDEST PUSH1 0x1 DUP1 PUSH1 0x14 PUSH2 0x100 EXP DUP2 SLOAD DUP2 PUSH1 0xFF MUL NOT AND SWAP1 DUP4 ISZERO ISZERO MUL OR SWAP1 SSTORE POP DUP3 SWAP4 POP POP POP POP SWAP1 JUMP JUMPDEST PUSH1 0x0 PUSH20 0xFFFFFFFFFFFFFFFFFFFFFFFFFFFFFFFFFFFFFFFF AND PUSH1 0x0 DUP1 SLOAD SWAP1 PUSH2 0x100 EXP SWAP1 DIV PUSH20 0xFFFFFFFFFFFFFFFFFFFFFFFFFFFFFFFFFFFFFFFF AND PUSH20 0xFFFFFFFFFFFFFFFFFFFFFFFFFFFFFFFFFFFFFFFF AND SUB PUSH2 0x10C4 JUMPI PUSH1 0x40 MLOAD PUSH32 0x8C379A000000000000000000000000000000000000000000000000000000000 DUP2 MSTORE PUSH1 0x4 ADD PUSH2 0x10BB SWAP1 PUSH2 0x1D5E JUMP JUMPDEST PUSH1 0x40 MLOAD DUP1 SWAP2 SUB SWAP1 REVERT JUMPDEST PUSH1 0x0 PUSH20 0xFFFFFFFFFFFFFFFFFFFFFFFFFFFFFFFFFFFFFFFF AND PUSH1 0x1 PUSH1 0x0 SWAP1 SLOAD SWAP1 PUSH2 0x100 EXP SWAP1 DIV PUSH20 0xFFFFFFFFFFFFFFFFFFFFFFFFFFFFFFFFFFFFFFFF AND PUSH20 0xFFFFFFFFFFFFFFFFFFFFFFFFFFFFFFFFFFFFFFFF AND EQ PUSH2 0x1155 JUMPI PUSH1 0x40 MLOAD PUSH32 0x8C379A000000000000000000000000000000000000000000000000000000000 DUP2 MSTORE PUSH1 0x4 ADD PUSH2 0x114C SWAP1 PUSH2 0x1DCA JUMP JUMPDEST PUSH1 0x40 MLOAD DUP1 SWAP2 SUB SWAP1 REVERT JUMPDEST PUSH1 0x0 DUP1 SLOAD SWAP1 PUSH2 0x100 EXP SWAP1 DIV PUSH20 0xFFFFFFFFFFFFFFFFFFFFFFFFFFFFFFFFFFFFFFFF AND PUSH20 0xFFFFFFFFFFFFFFFFFFFFFFFFFFFFFFFFFFFFFFFF AND CALLER PUSH20 0xFFFFFFFFFFFFFFFFFFFFFFFFFFFFFFFFFFFFFFFF AND SUB PUSH2 0x11E3 JUMPI PUSH1 0x40 MLOAD PUSH32 0x8C379A000000000000000000000000000000000000000000000000000000000 DUP2 MSTORE PUSH1 0x4 ADD PUSH2 0x11DA SWAP1 PUSH2 0x1E5C JUMP JUMPDEST PUSH1 0x40 MLOAD DUP1 SWAP2 SUB SWAP1 REVERT JUMPDEST CALLER PUSH1 0x1 PUSH1 0x0 PUSH2 0x100 EXP DUP2 SLOAD DUP2 PUSH20 0xFFFFFFFFFFFFFFFFFFFFFFFFFFFFFFFFFFFFFFFF MUL NOT AND SWAP1 DUP4 PUSH20 0xFFFFFFFFFFFFFFFFFFFFFFFFFFFFFFFFFFFFFFFF AND MUL OR SWAP1 SSTORE POP JUMP JUMPDEST PUSH1 0x0 DUP1 SLOAD SWAP1 PUSH2 0x100 EXP SWAP1 DIV PUSH20 0xFFFFFFFFFFFFFFFFFFFFFFFFFFFFFFFFFFFFFFFF AND DUP2 JUMP JUMPDEST PUSH1 0x0 PUSH20 0xFFFFFFFFFFFFFFFFFFFFFFFFFFFFFFFFFFFFFFFF AND PUSH1 0x0 DUP1 SLOAD SWAP1 PUSH2 0x100 EXP SWAP1 DIV PUSH20 0xFFFFFFFFFFFFFFFFFFFFFFFFFFFFFFFFFFFFFFFF AND PUSH20 0xFFFFFFFFFFFFFFFFFFFFFFFFFFFFFFFFFFFFFFFF AND EQ PUSH2 0x12D9 JUMPI PUSH1 0x40 MLOAD PUSH32 0x8C379A000000000000000000000000000000000000000000000000000000000 DUP2 MSTORE PUSH1 0x4 ADD PUSH2 0x12D0 SWAP1 PUSH2 0x1EC8 JUMP JUMPDEST PUSH1 0x40 MLOAD DUP1 SWAP2 SUB SWAP1 REVERT JUMPDEST CALLER PUSH1 0x0 DUP1 PUSH2 0x100 EXP DUP2 SLOAD DUP2 PUSH20 0xFFFFFFFFFFFFFFFFFFFFFFFFFFFFFFFFFFFFFFFF MUL NOT AND SWAP1 DUP4 PUSH20 0xFFFFFFFFFFFFFFFFFFFFFFFFFFFFFFFFFFFFFFFF AND MUL OR SWAP1 SSTORE POP JUMP JUMPDEST PUSH1 0x0 DUP1 REVERT JUMPDEST PUSH1 0x0 DUP2 SWAP1 POP SWAP2 SWAP1 POP JUMP JUMPDEST PUSH2 0x1333 DUP2 PUSH2 0x1320 JUMP JUMPDEST DUP2 EQ PUSH2 0x133E JUMPI PUSH1 0x0 DUP1 REVERT JUMPDEST POP JUMP JUMPDEST PUSH1 0x0 DUP2 CALLDATALOAD SWAP1 POP PUSH2 0x1350 DUP2 PUSH2 0x132A JUMP JUMPDEST SWAP3 SWAP2 POP POP JUMP JUMPDEST PUSH1 0x0 PUSH1 0x20 DUP3 DUP5 SUB SLT ISZERO PUSH2 0x136C JUMPI PUSH2 0x136B PUSH2 0x131B JUMP JUMPDEST JUMPDEST PUSH1 0x0 PUSH2 0x137A DUP5 DUP3 DUP6 ADD PUSH2 0x1341 JUMP JUMPDEST SWAP2 POP POP SWAP3 SWAP2 POP POP JUMP JUMPDEST PUSH1 0x0 DUP2 MLOAD SWAP1 POP SWAP2 SWAP1 POP JUMP JUMPDEST PUSH1 0x0 DUP3 DUP3 MSTORE PUSH1 0x20 DUP3 ADD SWAP1 POP SWAP3 SWAP2 POP POP JUMP JUMPDEST PUSH1 0x0 JUMPDEST DUP4 DUP2 LT ISZERO PUSH2 0x13BD JUMPI DUP1 DUP3 ADD MLOAD DUP2 DUP5 ADD MSTORE PUSH1 0x20 DUP2 ADD SWAP1 POP PUSH2 0x13A2 JUMP JUMPDEST PUSH1 0x0 DUP5 DUP5 ADD MSTORE POP POP POP POP JUMP JUMPDEST PUSH1 0x0 PUSH1 0x1F NOT PUSH1 0x1F DUP4 ADD AND SWAP1 POP SWAP2 SWAP1 POP JUMP JUMPDEST PUSH1 0x0 PUSH2 0x13E5 DUP3 PUSH2 0x1383 JUMP JUMPDEST PUSH2 0x13EF DUP2 DUP6 PUSH2 0x138E JUMP JUMPDEST SWAP4 POP PUSH2 0x13FF DUP2 DUP6 PUSH1 0x20 DUP7 ADD PUSH2 0x139F JUMP JUMPDEST PUSH2 0x1408 DUP2 PUSH2 0x13C9 JUMP JUMPDEST DUP5 ADD SWAP2 POP POP SWAP3 SWAP2 POP POP JUMP JUMPDEST PUSH1 0x0 PUSH1 0x20 DUP3 ADD SWAP1 POP DUP2 DUP2 SUB PUSH1 0x0 DUP4 ADD MSTORE PUSH2 0x142D DUP2 DUP5 PUSH2 0x13DA JUMP JUMPDEST SWAP1 POP SWAP3 SWAP2 POP POP JUMP JUMPDEST PUSH1 0x0 PUSH1 0x60 DUP3 ADD SWAP1 POP DUP2 DUP2 SUB PUSH1 0x0 DUP4 ADD MSTORE PUSH2 0x144F DUP2 DUP7 PUSH2 0x13DA JUMP JUMPDEST SWAP1 POP DUP2 DUP2 SUB PUSH1 0x20 DUP4 ADD MSTORE PUSH2 0x1463 DUP2 DUP6 PUSH2 0x13DA JUMP JUMPDEST SWAP1 POP DUP2 DUP2 SUB PUSH1 0x40 DUP4 ADD MSTORE PUSH2 0x1477 DUP2 DUP5 PUSH2 0x13DA JUMP JUMPDEST SWAP1 POP SWAP5 SWAP4 POP POP POP POP JUMP JUMPDEST PUSH1 0x0 PUSH20 0xFFFFFFFFFFFFFFFFFFFFFFFFFFFFFFFFFFFFFFFF DUP3 AND SWAP1 POP SWAP2 SWAP1 POP JUMP JUMPDEST PUSH1 0x0 PUSH2 0x14AC DUP3 PUSH2 0x1481 JUMP JUMPDEST SWAP1 POP SWAP2 SWAP1 POP JUMP JUMPDEST PUSH2 0x14BC DUP2 PUSH2 0x14A1 JUMP JUMPDEST DUP3 MSTORE POP POP JUMP JUMPDEST PUSH1 0x0 PUSH1 0x20 DUP3 ADD SWAP1 POP PUSH2 0x14D7 PUSH1 0x0 DUP4 ADD DUP5 PUSH2 0x14B3 JUMP JUMPDEST SWAP3 SWAP2 POP POP JUMP JUMPDEST PUSH1 0x0 PUSH1 0x40 DUP3 ADD SWAP1 POP PUSH2 0x14F2 PUSH1 0x0 DUP4 ADD DUP6 PUSH2 0x14B3 JUMP JUMPDEST PUSH2 0x14FF PUSH1 0x20 DUP4 ADD DUP5 PUSH2 0x14B3 JUMP JUMPDEST SWAP4 SWAP3 POP POP POP JUMP JUMPDEST PUSH1 0x0 DUP2 ISZERO ISZERO SWAP1 POP SWAP2 SWAP1 POP JUMP JUMPDEST PUSH2 0x151B DUP2 PUSH2 0x1506 JUMP JUMPDEST DUP3 MSTORE POP POP JUMP JUMPDEST PUSH1 0x0 PUSH1 0x20 DUP3 ADD SWAP1 POP PUSH2 0x1536 PUSH1 0x0 DUP4 ADD DUP5 PUSH2 0x1512 JUMP JUMPDEST SWAP3 SWAP2 POP POP JUMP JUMPDEST PUSH32 0x4E487B7100000000000000000000000000000000000000000000000000000000 PUSH1 0x0 MSTORE PUSH1 0x32 PUSH1 0x4 MSTORE PUSH1 0x24 PUSH1 0x0 REVERT JUMPDEST PUSH32 0x4F6E6C7920706C61796572732063616E206D616B652061206D6F766500000000 PUSH1 0x0 DUP3 ADD MSTORE POP JUMP JUMPDEST PUSH1 0x0 PUSH2 0x15A1 PUSH1 0x1C DUP4 PUSH2 0x138E JUMP JUMPDEST SWAP2 POP PUSH2 0x15AC DUP3 PUSH2 0x156B JUMP JUMPDEST PUSH1 0x20 DUP3 ADD SWAP1 POP SWAP2 SWAP1 POP JUMP JUMPDEST PUSH1 0x0 PUSH1 0x20 DUP3 ADD SWAP1 POP DUP2 DUP2 SUB PUSH1 0x0 DUP4 ADD MSTORE PUSH2 0x15D0 DUP2 PUSH2 0x1594 JUMP JUMPDEST SWAP1 POP SWAP2 SWAP1 POP JUMP JUMPDEST PUSH32 0x706C6561736520636865636B2076616C75652C206974206D7573742062652031 PUSH1 0x0 DUP3 ADD MSTORE PUSH32 0x2045746865720000000000000000000000000000000000000000000000000000 PUSH1 0x20 DUP3 ADD MSTORE POP JUMP JUMPDEST PUSH1 0x0 PUSH2 0x1633 PUSH1 0x26 DUP4 PUSH2 0x138E JUMP JUMPDEST SWAP2 POP PUSH2 0x163E DUP3 PUSH2 0x15D7 JUMP JUMPDEST PUSH1 0x40 DUP3 ADD SWAP1 POP SWAP2 SWAP1 POP JUMP JUMPDEST PUSH1 0x0 PUSH1 0x20 DUP3 ADD SWAP1 POP DUP2 DUP2 SUB PUSH1 0x0 DUP4 ADD MSTORE PUSH2 0x1662 DUP2 PUSH2 0x1626 JUMP JUMPDEST SWAP1 POP SWAP2 SWAP1 POP JUMP JUMPDEST PUSH32 0x5468652067616D65206973206F7665722C20706C656173652073746172742061 PUSH1 0x0 DUP3 ADD MSTORE PUSH32 0x206E65772067616D6520746F20706C617920616761696E000000000000000000 PUSH1 0x20 DUP3 ADD MSTORE POP JUMP JUMPDEST PUSH1 0x0 PUSH2 0x16C5 PUSH1 0x37 DUP4 PUSH2 0x138E JUMP JUMPDEST SWAP2 POP PUSH2 0x16D0 DUP3 PUSH2 0x1669 JUMP JUMPDEST PUSH1 0x40 DUP3 ADD SWAP1 POP SWAP2 SWAP1 POP JUMP JUMPDEST PUSH1 0x0 PUSH1 0x20 DUP3 ADD SWAP1 POP DUP2 DUP2 SUB PUSH1 0x0 DUP4 ADD MSTORE PUSH2 0x16F4 DUP2 PUSH2 0x16B8 JUMP JUMPDEST SWAP1 POP SWAP2 SWAP1 POP JUMP JUMPDEST PUSH32 0x6974277320506C617965722031204D6F76650000000000000000000000000000 PUSH1 0x0 DUP3 ADD MSTORE POP JUMP JUMPDEST PUSH1 0x0 PUSH2 0x1731 PUSH1 0x12 DUP4 PUSH2 0x138E JUMP JUMPDEST SWAP2 POP PUSH2 0x173C DUP3 PUSH2 0x16FB JUMP JUMPDEST PUSH1 0x20 DUP3 ADD SWAP1 POP SWAP2 SWAP1 POP JUMP JUMPDEST PUSH1 0x0 PUSH1 0x20 DUP3 ADD SWAP1 POP DUP2 DUP2 SUB PUSH1 0x0 DUP4 ADD MSTORE PUSH2 0x1760 DUP2 PUSH2 0x1724 JUMP JUMPDEST SWAP1 POP SWAP2 SWAP1 POP JUMP JUMPDEST PUSH32 0x426F746820706C6179657273206D757374206D616B652061206D6F7665206265 PUSH1 0x0 DUP3 ADD MSTORE PUSH32 0x666F726520636865636B696E6720666F7220612077696E6E6572000000000000 PUSH1 0x20 DUP3 ADD MSTORE POP JUMP JUMPDEST PUSH1 0x0 PUSH2 0x17C3 PUSH1 0x3A DUP4 PUSH2 0x138E JUMP JUMPDEST SWAP2 POP PUSH2 0x17CE DUP3 PUSH2 0x1767 JUMP JUMPDEST PUSH1 0x40 DUP3 ADD SWAP1 POP SWAP2 SWAP1 POP JUMP JUMPDEST PUSH1 0x0 PUSH1 0x20 DUP3 ADD SWAP1 POP DUP2 DUP2 SUB PUSH1 0x0 DUP4 ADD MSTORE PUSH2 0x17F2 DUP2 PUSH2 0x17B6 JUMP JUMPDEST SWAP1 POP SWAP2 SWAP1 POP JUMP JUMPDEST PUSH32 0x4E487B7100000000000000000000000000000000000000000000000000000000 PUSH1 0x0 MSTORE PUSH1 0x41 PUSH1 0x4 MSTORE PUSH1 0x24 PUSH1 0x0 REVERT JUMPDEST PUSH32 0x4E487B7100000000000000000000000000000000000000000000000000000000 PUSH1 0x0 MSTORE PUSH1 0x22 PUSH1 0x4 MSTORE PUSH1 0x24 PUSH1 0x0 REVERT JUMPDEST PUSH1 0x0 PUSH1 0x2 DUP3 DIV SWAP1 POP PUSH1 0x1 DUP3 AND DUP1 PUSH2 0x186F JUMPI PUSH1 0x7F DUP3 AND SWAP2 POP JUMPDEST PUSH1 0x20 DUP3 LT DUP2 SUB PUSH2 0x1882 JUMPI PUSH2 0x1881 PUSH2 0x1828 JUMP JUMPDEST JUMPDEST POP SWAP2 SWAP1 POP JUMP JUMPDEST PUSH1 0x0 DUP2 SWAP1 POP DUP2 PUSH1 0x0 MSTORE PUSH1 0x20 PUSH1 0x0 KECCAK256 SWAP1 POP SWAP2 SWAP1 POP JUMP JUMPDEST PUSH1 0x0 PUSH1 0x20 PUSH1 0x1F DUP4 ADD DIV SWAP1 POP SWAP2 SWAP1 POP JUMP JUMPDEST PUSH1 0x0 DUP3 DUP3 SHL SWAP1 POP SWAP3 SWAP2 POP POP JUMP JUMPDEST PUSH1 0x0 PUSH1 0x8 DUP4 MUL PUSH2 0x18EA PUSH32 0xFFFFFFFFFFFFFFFFFFFFFFFFFFFFFFFFFFFFFFFFFFFFFFFFFFFFFFFFFFFFFFFF DUP3 PUSH2 0x18AD JUMP JUMPDEST PUSH2 0x18F4 DUP7 DUP4 PUSH2 0x18AD JUMP JUMPDEST SWAP6 POP DUP1 NOT DUP5 AND SWAP4 POP DUP1 DUP7 AND DUP5 OR SWAP3 POP POP POP SWAP4 SWAP3 POP POP POP JUMP JUMPDEST PUSH1 0x0 DUP2 SWAP1 POP SWAP2 SWAP1 POP JUMP JUMPDEST PUSH1 0x0 PUSH2 0x1931 PUSH2 0x192C PUSH2 0x1927 DUP5 PUSH2 0x1320 JUMP JUMPDEST PUSH2 0x190C JUMP JUMPDEST PUSH2 0x1320 JUMP JUMPDEST SWAP1 POP SWAP2 SWAP1 POP JUMP JUMPDEST PUSH1 0x0 DUP2 SWAP1 POP SWAP2 SWAP1 POP JUMP JUMPDEST PUSH2 0x194B DUP4 PUSH2 0x1916 JUMP JUMPDEST PUSH2 0x195F PUSH2 0x1957 DUP3 PUSH2 0x1938 JUMP JUMPDEST DUP5 DUP5 SLOAD PUSH2 0x18BA JUMP JUMPDEST DUP3 SSTORE POP POP POP POP JUMP JUMPDEST PUSH1 0x0 SWAP1 JUMP JUMPDEST PUSH2 0x1974 PUSH2 0x1967 JUMP JUMPDEST PUSH2 0x197F DUP2 DUP5 DUP5 PUSH2 0x1942 JUMP JUMPDEST POP POP POP JUMP JUMPDEST JUMPDEST DUP2 DUP2 LT ISZERO PUSH2 0x19A3 JUMPI PUSH2 0x1998 PUSH1 0x0 DUP3 PUSH2 0x196C JUMP JUMPDEST PUSH1 0x1 DUP2 ADD SWAP1 POP PUSH2 0x1985 JUMP JUMPDEST POP POP JUMP JUMPDEST PUSH1 0x1F DUP3 GT ISZERO PUSH2 0x19E8 JUMPI PUSH2 0x19B9 DUP2 PUSH2 0x1888 JUMP JUMPDEST PUSH2 0x19C2 DUP5 PUSH2 0x189D JUMP JUMPDEST DUP2 ADD PUSH1 0x20 DUP6 LT ISZERO PUSH2 0x19D1 JUMPI DUP2 SWAP1 POP JUMPDEST PUSH2 0x19E5 PUSH2 0x19DD DUP6 PUSH2 0x189D JUMP JUMPDEST DUP4 ADD DUP3 PUSH2 0x1984 JUMP JUMPDEST POP POP JUMPDEST POP POP POP JUMP JUMPDEST PUSH1 0x0 DUP3 DUP3 SHR SWAP1 POP SWAP3 SWAP2 POP POP JUMP JUMPDEST PUSH1 0x0 PUSH2 0x1A0B PUSH1 0x0 NOT DUP5 PUSH1 0x8 MUL PUSH2 0x19ED JUMP JUMPDEST NOT DUP1 DUP4 AND SWAP2 POP POP SWAP3 SWAP2 POP POP JUMP JUMPDEST PUSH1 0x0 PUSH2 0x1A24 DUP4 DUP4 PUSH2 0x19FA JUMP JUMPDEST SWAP2 POP DUP3 PUSH1 0x2 MUL DUP3 OR SWAP1 POP SWAP3 SWAP2 POP POP JUMP JUMPDEST PUSH2 0x1A3D DUP3 PUSH2 0x1383 JUMP JUMPDEST PUSH8 0xFFFFFFFFFFFFFFFF DUP2 GT ISZERO PUSH2 0x1A56 JUMPI PUSH2 0x1A55 PUSH2 0x17F9 JUMP JUMPDEST JUMPDEST PUSH2 0x1A60 DUP3 SLOAD PUSH2 0x1857 JUMP JUMPDEST PUSH2 0x1A6B DUP3 DUP3 DUP6 PUSH2 0x19A7 JUMP JUMPDEST PUSH1 0x0 PUSH1 0x20 SWAP1 POP PUSH1 0x1F DUP4 GT PUSH1 0x1 DUP2 EQ PUSH2 0x1A9E JUMPI PUSH1 0x0 DUP5 ISZERO PUSH2 0x1A8C JUMPI DUP3 DUP8 ADD MLOAD SWAP1 POP JUMPDEST PUSH2 0x1A96 DUP6 DUP3 PUSH2 0x1A18 JUMP JUMPDEST DUP7 SSTORE POP PUSH2 0x1AFE JUMP JUMPDEST PUSH1 0x1F NOT DUP5 AND PUSH2 0x1AAC DUP7 PUSH2 0x1888 JUMP JUMPDEST PUSH1 0x0 JUMPDEST DUP3 DUP2 LT ISZERO PUSH2 0x1AD4 JUMPI DUP5 DUP10 ADD MLOAD DUP3 SSTORE PUSH1 0x1 DUP3 ADD SWAP2 POP PUSH1 0x20 DUP6 ADD SWAP5 POP PUSH1 0x20 DUP2 ADD SWAP1 POP PUSH2 0x1AAF JUMP JUMPDEST DUP7 DUP4 LT ISZERO PUSH2 0x1AF1 JUMPI DUP5 DUP10 ADD MLOAD PUSH2 0x1AED PUSH1 0x1F DUP10 AND DUP3 PUSH2 0x19FA JUMP JUMPDEST DUP4 SSTORE POP JUMPDEST PUSH1 0x1 PUSH1 0x2 DUP9 MUL ADD DUP9 SSTORE POP POP POP JUMPDEST POP POP POP POP POP POP JUMP JUMPDEST PUSH1 0x0 DUP2 SWAP1 POP SWAP3 SWAP2 POP POP JUMP JUMPDEST PUSH32 0x506C6179657220312057696E0000000000000000000000000000000000000000 PUSH1 0x0 DUP3 ADD MSTORE POP JUMP JUMPDEST PUSH1 0x0 PUSH2 0x1B47 PUSH1 0xC DUP4 PUSH2 0x1B06 JUMP JUMPDEST SWAP2 POP PUSH2 0x1B52 DUP3 PUSH2 0x1B11 JUMP JUMPDEST PUSH1 0xC DUP3 ADD SWAP1 POP SWAP2 SWAP1 POP JUMP JUMPDEST PUSH1 0x0 PUSH2 0x1B68 DUP3 PUSH2 0x1B3A JUMP JUMPDEST SWAP2 POP DUP2 SWAP1 POP SWAP2 SWAP1 POP JUMP JUMPDEST PUSH1 0x0 PUSH2 0x1B7D DUP3 PUSH2 0x1383 JUMP JUMPDEST PUSH2 0x1B87 DUP2 DUP6 PUSH2 0x1B06 JUMP JUMPDEST SWAP4 POP PUSH2 0x1B97 DUP2 DUP6 PUSH1 0x20 DUP7 ADD PUSH2 0x139F JUMP JUMPDEST DUP1 DUP5 ADD SWAP2 POP POP SWAP3 SWAP2 POP POP JUMP JUMPDEST PUSH1 0x0 PUSH2 0x1BAF DUP3 DUP5 PUSH2 0x1B72 JUMP JUMPDEST SWAP2 POP DUP2 SWAP1 POP SWAP3 SWAP2 POP POP JUMP JUMPDEST PUSH32 0x4E487B7100000000000000000000000000000000000000000000000000000000 PUSH1 0x0 MSTORE PUSH1 0x11 PUSH1 0x4 MSTORE PUSH1 0x24 PUSH1 0x0 REVERT JUMPDEST PUSH1 0x0 PUSH2 0x1BF4 DUP3 PUSH2 0x1320 JUMP JUMPDEST SWAP2 POP PUSH2 0x1BFF DUP4 PUSH2 0x1320 JUMP JUMPDEST SWAP3 POP DUP3 DUP3 MUL PUSH2 0x1C0D DUP2 PUSH2 0x1320 JUMP JUMPDEST SWAP2 POP DUP3 DUP3 DIV DUP5 EQ DUP4 ISZERO OR PUSH2 0x1C24 JUMPI PUSH2 0x1C23 PUSH2 0x1BBA JUMP JUMPDEST JUMPDEST POP SWAP3 SWAP2 POP POP JUMP JUMPDEST PUSH32 0x4E487B7100000000000000000000000000000000000000000000000000000000 PUSH1 0x0 MSTORE PUSH1 0x12 PUSH1 0x4 MSTORE PUSH1 0x24 PUSH1 0x0 REVERT JUMPDEST PUSH1 0x0 PUSH2 0x1C65 DUP3 PUSH2 0x1320 JUMP JUMPDEST SWAP2 POP PUSH2 0x1C70 DUP4 PUSH2 0x1320 JUMP JUMPDEST SWAP3 POP DUP3 PUSH2 0x1C80 JUMPI PUSH2 0x1C7F PUSH2 0x1C2B JUMP JUMPDEST JUMPDEST DUP3 DUP3 DIV SWAP1 POP SWAP3 SWAP2 POP POP JUMP JUMPDEST PUSH32 0x506C6179657220322057696E0000000000000000000000000000000000000000 PUSH1 0x0 DUP3 ADD MSTORE POP JUMP JUMPDEST PUSH1 0x0 PUSH2 0x1CC1 PUSH1 0xC DUP4 PUSH2 0x1B06 JUMP JUMPDEST SWAP2 POP PUSH2 0x1CCC DUP3 PUSH2 0x1C8B JUMP JUMPDEST PUSH1 0xC DUP3 ADD SWAP1 POP SWAP2 SWAP1 POP JUMP JUMPDEST PUSH1 0x0 PUSH2 0x1CE2 DUP3 PUSH2 0x1CB4 JUMP JUMPDEST SWAP2 POP DUP2 SWAP1 POP SWAP2 SWAP1 POP JUMP JUMPDEST PUSH32 0x506C617965722031206D75737420626520736574206265666F72652073657474 PUSH1 0x0 DUP3 ADD MSTORE PUSH32 0x696E6720706C6179657220320000000000000000000000000000000000000000 PUSH1 0x20 DUP3 ADD MSTORE POP JUMP JUMPDEST PUSH1 0x0 PUSH2 0x1D48 PUSH1 0x2C DUP4 PUSH2 0x138E JUMP JUMPDEST SWAP2 POP PUSH2 0x1D53 DUP3 PUSH2 0x1CEC JUMP JUMPDEST PUSH1 0x40 DUP3 ADD SWAP1 POP SWAP2 SWAP1 POP JUMP JUMPDEST PUSH1 0x0 PUSH1 0x20 DUP3 ADD SWAP1 POP DUP2 DUP2 SUB PUSH1 0x0 DUP4 ADD MSTORE PUSH2 0x1D77 DUP2 PUSH2 0x1D3B JUMP JUMPDEST SWAP1 POP SWAP2 SWAP1 POP JUMP JUMPDEST PUSH32 0x506C61796572203220697320616C726561647920736574000000000000000000 PUSH1 0x0 DUP3 ADD MSTORE POP JUMP JUMPDEST PUSH1 0x0 PUSH2 0x1DB4 PUSH1 0x17 DUP4 PUSH2 0x138E JUMP JUMPDEST SWAP2 POP PUSH2 0x1DBF DUP3 PUSH2 0x1D7E JUMP JUMPDEST PUSH1 0x20 DUP3 ADD SWAP1 POP SWAP2 SWAP1 POP JUMP JUMPDEST PUSH1 0x0 PUSH1 0x20 DUP3 ADD SWAP1 POP DUP2 DUP2 SUB PUSH1 0x0 DUP4 ADD MSTORE PUSH2 0x1DE3 DUP2 PUSH2 0x1DA7 JUMP JUMPDEST SWAP1 POP SWAP2 SWAP1 POP JUMP JUMPDEST PUSH32 0x506C61796572203220616464726573732063616E6E6F74206265207468652073 PUSH1 0x0 DUP3 ADD MSTORE PUSH32 0x616D6520617320506C6179657220310000000000000000000000000000000000 PUSH1 0x20 DUP3 ADD MSTORE POP JUMP JUMPDEST PUSH1 0x0 PUSH2 0x1E46 PUSH1 0x2F DUP4 PUSH2 0x138E JUMP JUMPDEST SWAP2 POP PUSH2 0x1E51 DUP3 PUSH2 0x1DEA JUMP JUMPDEST PUSH1 0x40 DUP3 ADD SWAP1 POP SWAP2 SWAP1 POP JUMP JUMPDEST PUSH1 0x0 PUSH1 0x20 DUP3 ADD SWAP1 POP DUP2 DUP2 SUB PUSH1 0x0 DUP4 ADD MSTORE PUSH2 0x1E75 DUP2 PUSH2 0x1E39 JUMP JUMPDEST SWAP1 POP SWAP2 SWAP1 POP JUMP JUMPDEST PUSH32 0x506C61796572203120697320616C726561647920736574000000000000000000 PUSH1 0x0 DUP3 ADD MSTORE POP JUMP JUMPDEST PUSH1 0x0 PUSH2 0x1EB2 PUSH1 0x17 DUP4 PUSH2 0x138E JUMP JUMPDEST SWAP2 POP PUSH2 0x1EBD DUP3 PUSH2 0x1E7C JUMP JUMPDEST PUSH1 0x20 DUP3 ADD SWAP1 POP SWAP2 SWAP1 POP JUMP JUMPDEST PUSH1 0x0 PUSH1 0x20 DUP3 ADD SWAP1 POP DUP2 DUP2 SUB PUSH1 0x0 DUP4 ADD MSTORE PUSH2 0x1EE1 DUP2 PUSH2 0x1EA5 JUMP JUMPDEST SWAP1 POP SWAP2 SWAP1 POP JUMP INVALID LOG2 PUSH5 0x6970667358 0x22 SLT KECCAK256 SHR 0xDC 0xCF LOG4 EXTCODEHASH 0xD8 0xDA 0xA9 DUP5 0xCA CALLCODE INVALID 0x1F 0xDF 0xA5 SWAP8 0xA6 0xD9 0x4B LT 0x1E GASPRICE PUSH8 0xAEDCA86A4F6EE2F0 ISZERO PUSH5 0x736F6C6343 STOP ADDMOD SGT STOP CALLER "
				},
				"gasEstimates": {
					"creation": {
						"codeDepositCost": "1593200",
						"executionCost": "infinite",
						"totalCost": "infinite"
					},
					"external": {
						"Check_Winner()": "infinite",
						"gameOver()": "2521",
						"player1()": "2577",
						"player1_move(uint256)": "infinite",
						"player2()": "2581",
						"player2_move(uint256)": "infinite",
						"setPlayer1()": "26666",
						"setPlayer2()": "30960",
						"view_Move()": "infinite",
						"view_player()": "infinite"
					}
				},
				"methodIdentifiers": {
					"Check_Winner()": "c19e9d8e",
					"gameOver()": "bdb337d1",
					"player1()": "d30895e4",
					"player1_move(uint256)": "37a9b783",
					"player2()": "59a5f12d",
					"player2_move(uint256)": "57da1e10",
					"setPlayer1()": "d582f131",
					"setPlayer2()": "cde1adf1",
					"view_Move()": "4db32a4c",
					"view_player()": "6c2826a6"
				}
			},
			"storageLayout": {
				"storage": [
					{
						"astId": 3,
						"contract": "Game/game.sol:game",
						"label": "player1",
						"offset": 0,
						"slot": "0",
						"type": "t_address"
					},
					{
						"astId": 5,
						"contract": "Game/game.sol:game",
						"label": "player2",
						"offset": 0,
						"slot": "1",
						"type": "t_address"
					},
					{
						"astId": 7,
						"contract": "Game/game.sol:game",
						"label": "gameOver",
						"offset": 20,
						"slot": "1",
						"type": "t_bool"
					},
					{
						"astId": 15,
						"contract": "Game/game.sol:game",
						"label": "move",
						"offset": 0,
						"slot": "2",
						"type": "t_array(t_uint256)3_storage"
					},
					{
						"astId": 19,
						"contract": "Game/game.sol:game",
						"label": "storeMove",
						"offset": 0,
						"slot": "5",
						"type": "t_array(t_uint256)2_storage"
					},
					{
						"astId": 25,
						"contract": "Game/game.sol:game",
						"label": "results",
						"offset": 0,
						"slot": "7",
						"type": "t_mapping(t_uint256,t_mapping(t_uint256,t_string_storage))"
					}
				],
				"types": {
					"t_address": {
						"encoding": "inplace",
						"label": "address",
						"numberOfBytes": "20"
					},
					"t_array(t_uint256)2_storage": {
						"base": "t_uint256",
						"encoding": "inplace",
						"label": "uint256[2]",
						"numberOfBytes": "64"
					},
					"t_array(t_uint256)3_storage": {
						"base": "t_uint256",
						"encoding": "inplace",
						"label": "uint256[3]",
						"numberOfBytes": "96"
					},
					"t_bool": {
						"encoding": "inplace",
						"label": "bool",
						"numberOfBytes": "1"
					},
					"t_mapping(t_uint256,t_mapping(t_uint256,t_string_storage))": {
						"encoding": "mapping",
						"key": "t_uint256",
						"label": "mapping(uint256 => mapping(uint256 => string))",
						"numberOfBytes": "32",
						"value": "t_mapping(t_uint256,t_string_storage)"
					},
					"t_mapping(t_uint256,t_string_storage)": {
						"encoding": "mapping",
						"key": "t_uint256",
						"label": "mapping(uint256 => string)",
						"numberOfBytes": "32",
						"value": "t_string_storage"
					},
					"t_string_storage": {
						"encoding": "bytes",
						"label": "string",
						"numberOfBytes": "32"
					},
					"t_uint256": {
						"encoding": "inplace",
						"label": "uint256",
						"numberOfBytes": "32"
					}
				}
			},
			"userdoc": {
				"kind": "user",
				"methods": {},
				"version": 1
			}
		}
	}
}