{
	"data": {
		"bytecode": {
			"linkReferences": {},
			"object": "6080604052600a600055600360015560076002556007600355600254600a61002791906101ba565b600455600354600a61003991906101ba565b60055534801561004857600080fd5b50610205565b7f4e487b7100000000000000000000000000000000000000000000000000000000600052601160045260246000fd5b60008160011c9050919050565b6000808291508390505b60018511156100d4578086048111156100b0576100af61004e565b5b60018516156100bf5780820291505b80810290506100cd8561007d565b9450610094565b94509492505050565b6000826100ed57600190506101a9565b816100fb57600090506101a9565b8160018114610111576002811461011b5761014a565b60019150506101a9565b60ff84111561012d5761012c61004e565b5b8360020a9150848211156101445761014361004e565b5b506101a9565b5060208310610133831016604e8410600b841016171561017f5782820a90508381111561017a5761017961004e565b5b6101a9565b61018c848484600161008a565b925090508184048111156101a3576101a261004e565b5b81810290505b9392505050565b6000819050919050565b60006101c5826101b0565b91506101d0836101b0565b92506101fd7fffffffffffffffffffffffffffffffffffffffffffffffffffffffffffffffff84846100dd565b905092915050565b6102f9806102146000396000f3fe608060405234801561001057600080fd5b506004361061002b5760003560e01c8063c5d8d38614610030575b600080fd5b61004a6004803603810190610045919061022c565b61004c565b005b60006040518060e001604052808781526020018660ff1681526020018560ff1681526020018460ff1681526020018360ff1681526020016000815260200160008152509050505050505050565b6000604051905090565b600080fd5b600080fd5b600080fd5b600080fd5b6000601f19601f8301169050919050565b7f4e487b7100000000000000000000000000000000000000000000000000000000600052604160045260246000fd5b610100826100b7565b810181811067ffffffffffffffff8211171561011f5761011e6100c8565b5b80604052505050565b6000610132610099565b905061013e82826100f7565b919050565b600067ffffffffffffffff82111561015e5761015d6100c8565b5b610167826100b7565b9050602081019050919050565b82818337600083830152505050565b600061019661019184610143565b610128565b9050828152602081018484840111156101b2576101b16100b2565b5b6101bd848285610174565b509392505050565b600082601f8301126101da576101d96100ad565b5b81356101ea848260208601610183565b91505092915050565b600060ff82169050919050565b610209816101f3565b811461021457600080fd5b50565b60008135905061022681610200565b92915050565b600080600080600060a08688031215610248576102476100a3565b5b600086013567ffffffffffffffff811115610266576102656100a8565b5b610272888289016101c5565b955050602061028388828901610217565b945050604061029488828901610217565b93505060606102a588828901610217565b92505060806102b688828901610217565b915050929550929590935056fea264697066735822122081c15a4c9422611245dee1fd1c8210d2b58ed2fce6569e2efdb5e3ca2c8b7d6464736f6c63430008120033",
			"opcodes": "PUSH1 0x80 PUSH1 0x40 MSTORE PUSH1 0xA PUSH1 0x0 SSTORE PUSH1 0x3 PUSH1 0x1 SSTORE PUSH1 0x7 PUSH1 0x2 SSTORE PUSH1 0x7 PUSH1 0x3 SSTORE PUSH1 0x2 SLOAD PUSH1 0xA PUSH2 0x27 SWAP2 SWAP1 PUSH2 0x1BA JUMP JUMPDEST PUSH1 0x4 SSTORE PUSH1 0x3 SLOAD PUSH1 0xA PUSH2 0x39 SWAP2 SWAP1 PUSH2 0x1BA JUMP JUMPDEST PUSH1 0x5 SSTORE CALLVALUE DUP1 ISZERO PUSH2 0x48 JUMPI PUSH1 0x0 DUP1 REVERT JUMPDEST POP PUSH2 0x205 JUMP JUMPDEST PUSH32 0x4E487B7100000000000000000000000000000000000000000000000000000000 PUSH1 0x0 MSTORE PUSH1 0x11 PUSH1 0x4 MSTORE PUSH1 0x24 PUSH1 0x0 REVERT JUMPDEST PUSH1 0x0 DUP2 PUSH1 0x1 SHR SWAP1 POP SWAP2 SWAP1 POP JUMP JUMPDEST PUSH1 0x0 DUP1 DUP3 SWAP2 POP DUP4 SWAP1 POP JUMPDEST PUSH1 0x1 DUP6 GT ISZERO PUSH2 0xD4 JUMPI DUP1 DUP7 DIV DUP2 GT ISZERO PUSH2 0xB0 JUMPI PUSH2 0xAF PUSH2 0x4E JUMP JUMPDEST JUMPDEST PUSH1 0x1 DUP6 AND ISZERO PUSH2 0xBF JUMPI DUP1 DUP3 MUL SWAP2 POP JUMPDEST DUP1 DUP2 MUL SWAP1 POP PUSH2 0xCD DUP6 PUSH2 0x7D JUMP JUMPDEST SWAP5 POP PUSH2 0x94 JUMP JUMPDEST SWAP5 POP SWAP5 SWAP3 POP POP POP JUMP JUMPDEST PUSH1 0x0 DUP3 PUSH2 0xED JUMPI PUSH1 0x1 SWAP1 POP PUSH2 0x1A9 JUMP JUMPDEST DUP2 PUSH2 0xFB JUMPI PUSH1 0x0 SWAP1 POP PUSH2 0x1A9 JUMP JUMPDEST DUP2 PUSH1 0x1 DUP2 EQ PUSH2 0x111 JUMPI PUSH1 0x2 DUP2 EQ PUSH2 0x11B JUMPI PUSH2 0x14A JUMP JUMPDEST PUSH1 0x1 SWAP2 POP POP PUSH2 0x1A9 JUMP JUMPDEST PUSH1 0xFF DUP5 GT ISZERO PUSH2 0x12D JUMPI PUSH2 0x12C PUSH2 0x4E JUMP JUMPDEST JUMPDEST DUP4 PUSH1 0x2 EXP SWAP2 POP DUP5 DUP3 GT ISZERO PUSH2 0x144 JUMPI PUSH2 0x143 PUSH2 0x4E JUMP JUMPDEST JUMPDEST POP PUSH2 0x1A9 JUMP JUMPDEST POP PUSH1 0x20 DUP4 LT PUSH2 0x133 DUP4 LT AND PUSH1 0x4E DUP5 LT PUSH1 0xB DUP5 LT AND OR ISZERO PUSH2 0x17F JUMPI DUP3 DUP3 EXP SWAP1 POP DUP4 DUP2 GT ISZERO PUSH2 0x17A JUMPI PUSH2 0x179 PUSH2 0x4E JUMP JUMPDEST JUMPDEST PUSH2 0x1A9 JUMP JUMPDEST PUSH2 0x18C DUP5 DUP5 DUP5 PUSH1 0x1 PUSH2 0x8A JUMP JUMPDEST SWAP3 POP SWAP1 POP DUP2 DUP5 DIV DUP2 GT ISZERO PUSH2 0x1A3 JUMPI PUSH2 0x1A2 PUSH2 0x4E JUMP JUMPDEST JUMPDEST DUP2 DUP2 MUL SWAP1 POP JUMPDEST SWAP4 SWAP3 POP POP POP JUMP JUMPDEST PUSH1 0x0 DUP2 SWAP1 POP SWAP2 SWAP1 POP JUMP JUMPDEST PUSH1 0x0 PUSH2 0x1C5 DUP3 PUSH2 0x1B0 JUMP JUMPDEST SWAP2 POP PUSH2 0x1D0 DUP4 PUSH2 0x1B0 JUMP JUMPDEST SWAP3 POP PUSH2 0x1FD PUSH32 0xFFFFFFFFFFFFFFFFFFFFFFFFFFFFFFFFFFFFFFFFFFFFFFFFFFFFFFFFFFFFFFFF DUP5 DUP5 PUSH2 0xDD JUMP JUMPDEST SWAP1 POP SWAP3 SWAP2 POP POP JUMP JUMPDEST PUSH2 0x2F9 DUP1 PUSH2 0x214 PUSH1 0x0 CODECOPY PUSH1 0x0 RETURN INVALID PUSH1 0x80 PUSH1 0x40 MSTORE CALLVALUE DUP1 ISZERO PUSH2 0x10 JUMPI PUSH1 0x0 DUP1 REVERT JUMPDEST POP PUSH1 0x4 CALLDATASIZE LT PUSH2 0x2B JUMPI PUSH1 0x0 CALLDATALOAD PUSH1 0xE0 SHR DUP1 PUSH4 0xC5D8D386 EQ PUSH2 0x30 JUMPI JUMPDEST PUSH1 0x0 DUP1 REVERT JUMPDEST PUSH2 0x4A PUSH1 0x4 DUP1 CALLDATASIZE SUB DUP2 ADD SWAP1 PUSH2 0x45 SWAP2 SWAP1 PUSH2 0x22C JUMP JUMPDEST PUSH2 0x4C JUMP JUMPDEST STOP JUMPDEST PUSH1 0x0 PUSH1 0x40 MLOAD DUP1 PUSH1 0xE0 ADD PUSH1 0x40 MSTORE DUP1 DUP8 DUP2 MSTORE PUSH1 0x20 ADD DUP7 PUSH1 0xFF AND DUP2 MSTORE PUSH1 0x20 ADD DUP6 PUSH1 0xFF AND DUP2 MSTORE PUSH1 0x20 ADD DUP5 PUSH1 0xFF AND DUP2 MSTORE PUSH1 0x20 ADD DUP4 PUSH1 0xFF AND DUP2 MSTORE PUSH1 0x20 ADD PUSH1 0x0 DUP2 MSTORE PUSH1 0x20 ADD PUSH1 0x0 DUP2 MSTORE POP SWAP1 POP POP POP POP POP POP POP JUMP JUMPDEST PUSH1 0x0 PUSH1 0x40 MLOAD SWAP1 POP SWAP1 JUMP JUMPDEST PUSH1 0x0 DUP1 REVERT JUMPDEST PUSH1 0x0 DUP1 REVERT JUMPDEST PUSH1 0x0 DUP1 REVERT JUMPDEST PUSH1 0x0 DUP1 REVERT JUMPDEST PUSH1 0x0 PUSH1 0x1F NOT PUSH1 0x1F DUP4 ADD AND SWAP1 POP SWAP2 SWAP1 POP JUMP JUMPDEST PUSH32 0x4E487B7100000000000000000000000000000000000000000000000000000000 PUSH1 0x0 MSTORE PUSH1 0x41 PUSH1 0x4 MSTORE PUSH1 0x24 PUSH1 0x0 REVERT JUMPDEST PUSH2 0x100 DUP3 PUSH2 0xB7 JUMP JUMPDEST DUP2 ADD DUP2 DUP2 LT PUSH8 0xFFFFFFFFFFFFFFFF DUP3 GT OR ISZERO PUSH2 0x11F JUMPI PUSH2 0x11E PUSH2 0xC8 JUMP JUMPDEST JUMPDEST DUP1 PUSH1 0x40 MSTORE POP POP POP JUMP JUMPDEST PUSH1 0x0 PUSH2 0x132 PUSH2 0x99 JUMP JUMPDEST SWAP1 POP PUSH2 0x13E DUP3 DUP3 PUSH2 0xF7 JUMP JUMPDEST SWAP2 SWAP1 POP JUMP JUMPDEST PUSH1 0x0 PUSH8 0xFFFFFFFFFFFFFFFF DUP3 GT ISZERO PUSH2 0x15E JUMPI PUSH2 0x15D PUSH2 0xC8 JUMP JUMPDEST JUMPDEST PUSH2 0x167 DUP3 PUSH2 0xB7 JUMP JUMPDEST SWAP1 POP PUSH1 0x20 DUP2 ADD SWAP1 POP SWAP2 SWAP1 POP JUMP JUMPDEST DUP3 DUP2 DUP4 CALLDATACOPY PUSH1 0x0 DUP4 DUP4 ADD MSTORE POP POP POP JUMP JUMPDEST PUSH1 0x0 PUSH2 0x196 PUSH2 0x191 DUP5 PUSH2 0x143 JUMP JUMPDEST PUSH2 0x128 JUMP JUMPDEST SWAP1 POP DUP3 DUP2 MSTORE PUSH1 0x20 DUP2 ADD DUP5 DUP5 DUP5 ADD GT ISZERO PUSH2 0x1B2 JUMPI PUSH2 0x1B1 PUSH2 0xB2 JUMP JUMPDEST JUMPDEST PUSH2 0x1BD DUP5 DUP3 DUP6 PUSH2 0x174 JUMP JUMPDEST POP SWAP4 SWAP3 POP POP POP JUMP JUMPDEST PUSH1 0x0 DUP3 PUSH1 0x1F DUP4 ADD SLT PUSH2 0x1DA JUMPI PUSH2 0x1D9 PUSH2 0xAD JUMP JUMPDEST JUMPDEST DUP2 CALLDATALOAD PUSH2 0x1EA DUP5 DUP3 PUSH1 0x20 DUP7 ADD PUSH2 0x183 JUMP JUMPDEST SWAP2 POP POP SWAP3 SWAP2 POP POP JUMP JUMPDEST PUSH1 0x0 PUSH1 0xFF DUP3 AND SWAP1 POP SWAP2 SWAP1 POP JUMP JUMPDEST PUSH2 0x209 DUP2 PUSH2 0x1F3 JUMP JUMPDEST DUP2 EQ PUSH2 0x214 JUMPI PUSH1 0x0 DUP1 REVERT JUMPDEST POP JUMP JUMPDEST PUSH1 0x0 DUP2 CALLDATALOAD SWAP1 POP PUSH2 0x226 DUP2 PUSH2 0x200 JUMP JUMPDEST SWAP3 SWAP2 POP POP JUMP JUMPDEST PUSH1 0x0 DUP1 PUSH1 0x0 DUP1 PUSH1 0x0 PUSH1 0xA0 DUP7 DUP9 SUB SLT ISZERO PUSH2 0x248 JUMPI PUSH2 0x247 PUSH2 0xA3 JUMP JUMPDEST JUMPDEST PUSH1 0x0 DUP7 ADD CALLDATALOAD PUSH8 0xFFFFFFFFFFFFFFFF DUP2 GT ISZERO PUSH2 0x266 JUMPI PUSH2 0x265 PUSH2 0xA8 JUMP JUMPDEST JUMPDEST PUSH2 0x272 DUP9 DUP3 DUP10 ADD PUSH2 0x1C5 JUMP JUMPDEST SWAP6 POP POP PUSH1 0x20 PUSH2 0x283 DUP9 DUP3 DUP10 ADD PUSH2 0x217 JUMP JUMPDEST SWAP5 POP POP PUSH1 0x40 PUSH2 0x294 DUP9 DUP3 DUP10 ADD PUSH2 0x217 JUMP JUMPDEST SWAP4 POP POP PUSH1 0x60 PUSH2 0x2A5 DUP9 DUP3 DUP10 ADD PUSH2 0x217 JUMP JUMPDEST SWAP3 POP POP PUSH1 0x80 PUSH2 0x2B6 DUP9 DUP3 DUP10 ADD PUSH2 0x217 JUMP JUMPDEST SWAP2 POP POP SWAP3 SWAP6 POP SWAP3 SWAP6 SWAP1 SWAP4 POP JUMP INVALID LOG2 PUSH5 0x6970667358 0x22 SLT KECCAK256 DUP2 0xC1 GAS 0x4C SWAP5 0x22 PUSH2 0x1245 0xDE 0xE1 REVERT SHR DUP3 LT 0xD2 0xB5 DUP15 0xD2 0xFC 0xE6 JUMP SWAP15 0x2E REVERT 0xB5 0xE3 0xCA 0x2C DUP12 PUSH30 0x6464736F6C63430008120033000000000000000000000000000000000000 "
		},
		"gasEstimates": {
			"creation": {
				"codeDepositCost": "152200",
				"executionCost": "infinite",
				"totalCost": "infinite"
			},
			"external": {
				"createDoggo(string,uint8,uint8,uint8,uint8)": "infinite"
			}
		},
		"methodIdentifiers": {
			"createDoggo(string,uint8,uint8,uint8,uint8)": "c5d8d386"
		}
	},
	"abi": [
		{
			"inputs": [
				{
					"internalType": "string",
					"name": "_name",
					"type": "string"
				},
				{
					"internalType": "uint8",
					"name": "_breed",
					"type": "uint8"
				},
				{
					"internalType": "uint8",
					"name": "_color",
					"type": "uint8"
				},
				{
					"internalType": "uint8",
					"name": "_face",
					"type": "uint8"
				},
				{
					"internalType": "uint8",
					"name": "_costume",
					"type": "uint8"
				}
			],
			"name": "createDoggo",
			"outputs": [],
			"stateMutability": "pure",
			"type": "function"
		}
	]
}