{
	"data": {
		"bytecode": {
			"linkReferences": {},
			"object": "6080604052600460005534801561001557600080fd5b5061020f806100256000396000f3fe608060405234801561001057600080fd5b50600436106100365760003560e01c806306661abd1461003b578063d09de08a14610059575b600080fd5b610043610077565b60405161005091906100fe565b60405180910390f35b61006161007d565b60405161006e91906100fe565b60405180910390f35b60005481565b6000600560005461008e9190610148565b6000819055507f16222693d5c1d7f7ed7ef7bd3b4d0899d7695c344d2bc2ce20158baea0c4386e60056000546100c4919061017c565b6000546040516100d59291906101b0565b60405180910390a1600054905090565b6000819050919050565b6100f8816100e5565b82525050565b600060208201905061011360008301846100ef565b92915050565b7f4e487b7100000000000000000000000000000000000000000000000000000000600052601160045260246000fd5b6000610153826100e5565b915061015e836100e5565b925082820190508082111561017657610175610119565b5b92915050565b6000610187826100e5565b9150610192836100e5565b92508282039050818111156101aa576101a9610119565b5b92915050565b60006040820190506101c560008301856100ef565b6101d260208301846100ef565b939250505056fea2646970667358221220557392e1d8747653aee32a6d0e75fc4bafec5e3ac38ebff1227997ff89c3626a64736f6c63430008120033",
			"opcodes": "PUSH1 0x80 PUSH1 0x40 MSTORE PUSH1 0x4 PUSH1 0x0 SSTORE CALLVALUE DUP1 ISZERO PUSH2 0x15 JUMPI PUSH1 0x0 DUP1 REVERT JUMPDEST POP PUSH2 0x20F DUP1 PUSH2 0x25 PUSH1 0x0 CODECOPY PUSH1 0x0 RETURN INVALID PUSH1 0x80 PUSH1 0x40 MSTORE CALLVALUE DUP1 ISZERO PUSH2 0x10 JUMPI PUSH1 0x0 DUP1 REVERT JUMPDEST POP PUSH1 0x4 CALLDATASIZE LT PUSH2 0x36 JUMPI PUSH1 0x0 CALLDATALOAD PUSH1 0xE0 SHR DUP1 PUSH4 0x6661ABD EQ PUSH2 0x3B JUMPI DUP1 PUSH4 0xD09DE08A EQ PUSH2 0x59 JUMPI JUMPDEST PUSH1 0x0 DUP1 REVERT JUMPDEST PUSH2 0x43 PUSH2 0x77 JUMP JUMPDEST PUSH1 0x40 MLOAD PUSH2 0x50 SWAP2 SWAP1 PUSH2 0xFE JUMP JUMPDEST PUSH1 0x40 MLOAD DUP1 SWAP2 SUB SWAP1 RETURN JUMPDEST PUSH2 0x61 PUSH2 0x7D JUMP JUMPDEST PUSH1 0x40 MLOAD PUSH2 0x6E SWAP2 SWAP1 PUSH2 0xFE JUMP JUMPDEST PUSH1 0x40 MLOAD DUP1 SWAP2 SUB SWAP1 RETURN JUMPDEST PUSH1 0x0 SLOAD DUP2 JUMP JUMPDEST PUSH1 0x0 PUSH1 0x5 PUSH1 0x0 SLOAD PUSH2 0x8E SWAP2 SWAP1 PUSH2 0x148 JUMP JUMPDEST PUSH1 0x0 DUP2 SWAP1 SSTORE POP PUSH32 0x16222693D5C1D7F7ED7EF7BD3B4D0899D7695C344D2BC2CE20158BAEA0C4386E PUSH1 0x5 PUSH1 0x0 SLOAD PUSH2 0xC4 SWAP2 SWAP1 PUSH2 0x17C JUMP JUMPDEST PUSH1 0x0 SLOAD PUSH1 0x40 MLOAD PUSH2 0xD5 SWAP3 SWAP2 SWAP1 PUSH2 0x1B0 JUMP JUMPDEST PUSH1 0x40 MLOAD DUP1 SWAP2 SUB SWAP1 LOG1 PUSH1 0x0 SLOAD SWAP1 POP SWAP1 JUMP JUMPDEST PUSH1 0x0 DUP2 SWAP1 POP SWAP2 SWAP1 POP JUMP JUMPDEST PUSH2 0xF8 DUP2 PUSH2 0xE5 JUMP JUMPDEST DUP3 MSTORE POP POP JUMP JUMPDEST PUSH1 0x0 PUSH1 0x20 DUP3 ADD SWAP1 POP PUSH2 0x113 PUSH1 0x0 DUP4 ADD DUP5 PUSH2 0xEF JUMP JUMPDEST SWAP3 SWAP2 POP POP JUMP JUMPDEST PUSH32 0x4E487B7100000000000000000000000000000000000000000000000000000000 PUSH1 0x0 MSTORE PUSH1 0x11 PUSH1 0x4 MSTORE PUSH1 0x24 PUSH1 0x0 REVERT JUMPDEST PUSH1 0x0 PUSH2 0x153 DUP3 PUSH2 0xE5 JUMP JUMPDEST SWAP2 POP PUSH2 0x15E DUP4 PUSH2 0xE5 JUMP JUMPDEST SWAP3 POP DUP3 DUP3 ADD SWAP1 POP DUP1 DUP3 GT ISZERO PUSH2 0x176 JUMPI PUSH2 0x175 PUSH2 0x119 JUMP JUMPDEST JUMPDEST SWAP3 SWAP2 POP POP JUMP JUMPDEST PUSH1 0x0 PUSH2 0x187 DUP3 PUSH2 0xE5 JUMP JUMPDEST SWAP2 POP PUSH2 0x192 DUP4 PUSH2 0xE5 JUMP JUMPDEST SWAP3 POP DUP3 DUP3 SUB SWAP1 POP DUP2 DUP2 GT ISZERO PUSH2 0x1AA JUMPI PUSH2 0x1A9 PUSH2 0x119 JUMP JUMPDEST JUMPDEST SWAP3 SWAP2 POP POP JUMP JUMPDEST PUSH1 0x0 PUSH1 0x40 DUP3 ADD SWAP1 POP PUSH2 0x1C5 PUSH1 0x0 DUP4 ADD DUP6 PUSH2 0xEF JUMP JUMPDEST PUSH2 0x1D2 PUSH1 0x20 DUP4 ADD DUP5 PUSH2 0xEF JUMP JUMPDEST SWAP4 SWAP3 POP POP POP JUMP INVALID LOG2 PUSH5 0x6970667358 0x22 SLT KECCAK256 SSTORE PUSH20 0x92E1D8747653AEE32A6D0E75FC4BAFEC5E3AC38E 0xBF CALL 0x22 PUSH26 0x97FF89C3626A64736F6C63430008120033000000000000000000 "
		},
		"gasEstimates": {
			"creation": {
				"codeDepositCost": "105400",
				"executionCost": "22259",
				"totalCost": "127659"
			},
			"external": {
				"count()": "2407",
				"increment()": "infinite"
			}
		},
		"methodIdentifiers": {
			"count()": "06661abd",
			"increment()": "d09de08a"
		}
	},
	"abi": [
		{
			"anonymous": false,
			"inputs": [
				{
					"indexed": false,
					"internalType": "uint256",
					"name": "oldVlaue",
					"type": "uint256"
				},
				{
					"indexed": false,
					"internalType": "uint256",
					"name": "newValue",
					"type": "uint256"
				}
			],
			"name": "incrementc",
			"type": "event"
		},
		{
			"inputs": [],
			"name": "count",
			"outputs": [
				{
					"internalType": "uint256",
					"name": "",
					"type": "uint256"
				}
			],
			"stateMutability": "view",
			"type": "function"
		},
		{
			"inputs": [],
			"name": "increment",
			"outputs": [
				{
					"internalType": "uint256",
					"name": "",
					"type": "uint256"
				}
			],
			"stateMutability": "nonpayable",
			"type": "function"
		}
	]
}