{
	"data": {
		"bytecode": {
			"linkReferences": {},
			"object": "608060405260045f55348015610013575f80fd5b506102ea806100215f395ff3fe608060405234801561000f575f80fd5b506004361061003f575f3560e01c80632baeceb714610043578063a87d942c1461004d578063d09de08a1461006b575b5f80fd5b61004b610075565b005b6100556100ca565b604051610062919061013f565b60405180910390f35b6100736100d2565b005b60025f808282546100869190610185565b925050819055507f847bc9dfeccb5e1f46d639d8427a2dffec2db7148a5d315341194d6a7aafe4e560025f546040516100c09291906101fa565b60405180910390a1565b5f8054905090565b60055f808282546100e39190610221565b925050819055507f230c08f549f5f9e591e87490c6c26b3715ba3bdbe74477c4ec927b160763f76760055f5460405161011d92919061028d565b60405180910390a1565b5f819050919050565b61013981610127565b82525050565b5f6020820190506101525f830184610130565b92915050565b7f4e487b71000000000000000000000000000000000000000000000000000000005f52601160045260245ffd5b5f61018f82610127565b915061019a83610127565b92508282039050818111156101b2576101b1610158565b5b92915050565b5f819050919050565b5f819050919050565b5f6101e46101df6101da846101b8565b6101c1565b610127565b9050919050565b6101f4816101ca565b82525050565b5f60408201905061020d5f8301856101eb565b61021a6020830184610130565b9392505050565b5f61022b82610127565b915061023683610127565b925082820190508082111561024e5761024d610158565b5b92915050565b5f819050919050565b5f61027761027261026d84610254565b6101c1565b610127565b9050919050565b6102878161025d565b82525050565b5f6040820190506102a05f83018561027e565b6102ad6020830184610130565b939250505056fea26469706673582212204a5a810b3dd911a142a8f003e454df31a1eacf7901a210d01961a87d9fb6723264736f6c63430008140033",
			"opcodes": "PUSH1 0x80 PUSH1 0x40 MSTORE PUSH1 0x4 PUSH0 SSTORE CALLVALUE DUP1 ISZERO PUSH2 0x13 JUMPI PUSH0 DUP1 REVERT JUMPDEST POP PUSH2 0x2EA DUP1 PUSH2 0x21 PUSH0 CODECOPY PUSH0 RETURN INVALID PUSH1 0x80 PUSH1 0x40 MSTORE CALLVALUE DUP1 ISZERO PUSH2 0xF JUMPI PUSH0 DUP1 REVERT JUMPDEST POP PUSH1 0x4 CALLDATASIZE LT PUSH2 0x3F JUMPI PUSH0 CALLDATALOAD PUSH1 0xE0 SHR DUP1 PUSH4 0x2BAECEB7 EQ PUSH2 0x43 JUMPI DUP1 PUSH4 0xA87D942C EQ PUSH2 0x4D JUMPI DUP1 PUSH4 0xD09DE08A EQ PUSH2 0x6B JUMPI JUMPDEST PUSH0 DUP1 REVERT JUMPDEST PUSH2 0x4B PUSH2 0x75 JUMP JUMPDEST STOP JUMPDEST PUSH2 0x55 PUSH2 0xCA JUMP JUMPDEST PUSH1 0x40 MLOAD PUSH2 0x62 SWAP2 SWAP1 PUSH2 0x13F JUMP JUMPDEST PUSH1 0x40 MLOAD DUP1 SWAP2 SUB SWAP1 RETURN JUMPDEST PUSH2 0x73 PUSH2 0xD2 JUMP JUMPDEST STOP JUMPDEST PUSH1 0x2 PUSH0 DUP1 DUP3 DUP3 SLOAD PUSH2 0x86 SWAP2 SWAP1 PUSH2 0x185 JUMP JUMPDEST SWAP3 POP POP DUP2 SWAP1 SSTORE POP PUSH32 0x847BC9DFECCB5E1F46D639D8427A2DFFEC2DB7148A5D315341194D6A7AAFE4E5 PUSH1 0x2 PUSH0 SLOAD PUSH1 0x40 MLOAD PUSH2 0xC0 SWAP3 SWAP2 SWAP1 PUSH2 0x1FA JUMP JUMPDEST PUSH1 0x40 MLOAD DUP1 SWAP2 SUB SWAP1 LOG1 JUMP JUMPDEST PUSH0 DUP1 SLOAD SWAP1 POP SWAP1 JUMP JUMPDEST PUSH1 0x5 PUSH0 DUP1 DUP3 DUP3 SLOAD PUSH2 0xE3 SWAP2 SWAP1 PUSH2 0x221 JUMP JUMPDEST SWAP3 POP POP DUP2 SWAP1 SSTORE POP PUSH32 0x230C08F549F5F9E591E87490C6C26B3715BA3BDBE74477C4EC927B160763F767 PUSH1 0x5 PUSH0 SLOAD PUSH1 0x40 MLOAD PUSH2 0x11D SWAP3 SWAP2 SWAP1 PUSH2 0x28D JUMP JUMPDEST PUSH1 0x40 MLOAD DUP1 SWAP2 SUB SWAP1 LOG1 JUMP JUMPDEST PUSH0 DUP2 SWAP1 POP SWAP2 SWAP1 POP JUMP JUMPDEST PUSH2 0x139 DUP2 PUSH2 0x127 JUMP JUMPDEST DUP3 MSTORE POP POP JUMP JUMPDEST PUSH0 PUSH1 0x20 DUP3 ADD SWAP1 POP PUSH2 0x152 PUSH0 DUP4 ADD DUP5 PUSH2 0x130 JUMP JUMPDEST SWAP3 SWAP2 POP POP JUMP JUMPDEST PUSH32 0x4E487B7100000000000000000000000000000000000000000000000000000000 PUSH0 MSTORE PUSH1 0x11 PUSH1 0x4 MSTORE PUSH1 0x24 PUSH0 REVERT JUMPDEST PUSH0 PUSH2 0x18F DUP3 PUSH2 0x127 JUMP JUMPDEST SWAP2 POP PUSH2 0x19A DUP4 PUSH2 0x127 JUMP JUMPDEST SWAP3 POP DUP3 DUP3 SUB SWAP1 POP DUP2 DUP2 GT ISZERO PUSH2 0x1B2 JUMPI PUSH2 0x1B1 PUSH2 0x158 JUMP JUMPDEST JUMPDEST SWAP3 SWAP2 POP POP JUMP JUMPDEST PUSH0 DUP2 SWAP1 POP SWAP2 SWAP1 POP JUMP JUMPDEST PUSH0 DUP2 SWAP1 POP SWAP2 SWAP1 POP JUMP JUMPDEST PUSH0 PUSH2 0x1E4 PUSH2 0x1DF PUSH2 0x1DA DUP5 PUSH2 0x1B8 JUMP JUMPDEST PUSH2 0x1C1 JUMP JUMPDEST PUSH2 0x127 JUMP JUMPDEST SWAP1 POP SWAP2 SWAP1 POP JUMP JUMPDEST PUSH2 0x1F4 DUP2 PUSH2 0x1CA JUMP JUMPDEST DUP3 MSTORE POP POP JUMP JUMPDEST PUSH0 PUSH1 0x40 DUP3 ADD SWAP1 POP PUSH2 0x20D PUSH0 DUP4 ADD DUP6 PUSH2 0x1EB JUMP JUMPDEST PUSH2 0x21A PUSH1 0x20 DUP4 ADD DUP5 PUSH2 0x130 JUMP JUMPDEST SWAP4 SWAP3 POP POP POP JUMP JUMPDEST PUSH0 PUSH2 0x22B DUP3 PUSH2 0x127 JUMP JUMPDEST SWAP2 POP PUSH2 0x236 DUP4 PUSH2 0x127 JUMP JUMPDEST SWAP3 POP DUP3 DUP3 ADD SWAP1 POP DUP1 DUP3 GT ISZERO PUSH2 0x24E JUMPI PUSH2 0x24D PUSH2 0x158 JUMP JUMPDEST JUMPDEST SWAP3 SWAP2 POP POP JUMP JUMPDEST PUSH0 DUP2 SWAP1 POP SWAP2 SWAP1 POP JUMP JUMPDEST PUSH0 PUSH2 0x277 PUSH2 0x272 PUSH2 0x26D DUP5 PUSH2 0x254 JUMP JUMPDEST PUSH2 0x1C1 JUMP JUMPDEST PUSH2 0x127 JUMP JUMPDEST SWAP1 POP SWAP2 SWAP1 POP JUMP JUMPDEST PUSH2 0x287 DUP2 PUSH2 0x25D JUMP JUMPDEST DUP3 MSTORE POP POP JUMP JUMPDEST PUSH0 PUSH1 0x40 DUP3 ADD SWAP1 POP PUSH2 0x2A0 PUSH0 DUP4 ADD DUP6 PUSH2 0x27E JUMP JUMPDEST PUSH2 0x2AD PUSH1 0x20 DUP4 ADD DUP5 PUSH2 0x130 JUMP JUMPDEST SWAP4 SWAP3 POP POP POP JUMP INVALID LOG2 PUSH5 0x6970667358 0x22 SLT KECCAK256 0x4A GAS DUP2 SIGNEXTEND RETURNDATASIZE 0xD9 GT LOG1 TIMESTAMP 0xA8 CREATE SUB 0xE4 SLOAD 0xDF BALANCE LOG1 0xEA 0xCF PUSH26 0x1A210D01961A87D9FB6723264736F6C63430008140033000000 "
		},
		"gasEstimates": {
			"creation": {
				"codeDepositCost": "149200",
				"executionCost": "22299",
				"totalCost": "171499"
			},
			"external": {
				"decrement()": "infinite",
				"getCount()": "2432",
				"increment()": "infinite"
			}
		},
		"methodIdentifiers": {
			"decrement()": "2baeceb7",
			"getCount()": "a87d942c",
			"increment()": "d09de08a"
		}
	},
	"abi": [
		{
			"anonymous": false,
			"inputs": [
				{
					"indexed": false,
					"internalType": "uint256",
					"name": "amount",
					"type": "uint256"
				},
				{
					"indexed": false,
					"internalType": "uint256",
					"name": "newCount",
					"type": "uint256"
				}
			],
			"name": "Decremented",
			"type": "event"
		},
		{
			"anonymous": false,
			"inputs": [
				{
					"indexed": false,
					"internalType": "uint256",
					"name": "amount",
					"type": "uint256"
				},
				{
					"indexed": false,
					"internalType": "uint256",
					"name": "newCount",
					"type": "uint256"
				}
			],
			"name": "Incremented",
			"type": "event"
		},
		{
			"inputs": [],
			"name": "decrement",
			"outputs": [],
			"stateMutability": "nonpayable",
			"type": "function"
		},
		{
			"inputs": [],
			"name": "getCount",
			"outputs": [
				{
					"internalType": "uint256",
					"name": "",
					"type": "uint256"
				}
			],
			"stateMutability": "view",
			"type": "function"
		},
		{
			"inputs": [],
			"name": "increment",
			"outputs": [],
			"stateMutability": "nonpayable",
			"type": "function"
		}
	]
}