{
	"Custom Token BUY-SELL/customToken.sol": {
		"CustomToken": {
			"abi": [
				{
					"inputs": [],
					"stateMutability": "nonpayable",
					"type": "constructor"
				},
				{
					"anonymous": false,
					"inputs": [
						{
							"indexed": true,
							"internalType": "address",
							"name": "owner",
							"type": "address"
						},
						{
							"indexed": true,
							"internalType": "address",
							"name": "spender",
							"type": "address"
						},
						{
							"indexed": false,
							"internalType": "uint256",
							"name": "value",
							"type": "uint256"
						}
					],
					"name": "Approval",
					"type": "event"
				},
				{
					"anonymous": false,
					"inputs": [
						{
							"indexed": true,
							"internalType": "address",
							"name": "from",
							"type": "address"
						},
						{
							"indexed": true,
							"internalType": "address",
							"name": "to",
							"type": "address"
						},
						{
							"indexed": false,
							"internalType": "uint256",
							"name": "value",
							"type": "uint256"
						}
					],
					"name": "Transfer",
					"type": "event"
				},
				{
					"inputs": [
						{
							"internalType": "uint256",
							"name": "buyQty",
							"type": "uint256"
						}
					],
					"name": "Buy_Token",
					"outputs": [],
					"stateMutability": "payable",
					"type": "function"
				},
				{
					"inputs": [],
					"name": "TokenBuyer",
					"outputs": [
						{
							"internalType": "address",
							"name": "",
							"type": "address"
						}
					],
					"stateMutability": "view",
					"type": "function"
				},
				{
					"inputs": [],
					"name": "TokenSeller",
					"outputs": [
						{
							"internalType": "address",
							"name": "",
							"type": "address"
						}
					],
					"stateMutability": "view",
					"type": "function"
				},
				{
					"inputs": [
						{
							"internalType": "address",
							"name": "owner",
							"type": "address"
						},
						{
							"internalType": "address",
							"name": "spender",
							"type": "address"
						}
					],
					"name": "allowance",
					"outputs": [
						{
							"internalType": "uint256",
							"name": "",
							"type": "uint256"
						}
					],
					"stateMutability": "view",
					"type": "function"
				},
				{
					"inputs": [
						{
							"internalType": "address",
							"name": "spender",
							"type": "address"
						},
						{
							"internalType": "uint256",
							"name": "numTokens",
							"type": "uint256"
						}
					],
					"name": "approve",
					"outputs": [
						{
							"internalType": "bool",
							"name": "",
							"type": "bool"
						}
					],
					"stateMutability": "nonpayable",
					"type": "function"
				},
				{
					"inputs": [
						{
							"internalType": "address",
							"name": "tokenOwner",
							"type": "address"
						}
					],
					"name": "balanceOf",
					"outputs": [
						{
							"internalType": "uint256",
							"name": "",
							"type": "uint256"
						}
					],
					"stateMutability": "view",
					"type": "function"
				},
				{
					"inputs": [],
					"name": "decimals",
					"outputs": [
						{
							"internalType": "uint8",
							"name": "",
							"type": "uint8"
						}
					],
					"stateMutability": "view",
					"type": "function"
				},
				{
					"inputs": [],
					"name": "getSellOrder",
					"outputs": [
						{
							"internalType": "uint256",
							"name": "quantity",
							"type": "uint256"
						},
						{
							"internalType": "uint256",
							"name": "PerTokenPrice",
							"type": "uint256"
						}
					],
					"stateMutability": "view",
					"type": "function"
				},
				{
					"inputs": [],
					"name": "name",
					"outputs": [
						{
							"internalType": "string",
							"name": "",
							"type": "string"
						}
					],
					"stateMutability": "view",
					"type": "function"
				},
				{
					"inputs": [
						{
							"internalType": "uint256",
							"name": "quantity",
							"type": "uint256"
						},
						{
							"internalType": "uint256",
							"name": "PerTokenPrice",
							"type": "uint256"
						}
					],
					"name": "sellToken",
					"outputs": [],
					"stateMutability": "nonpayable",
					"type": "function"
				},
				{
					"inputs": [],
					"name": "symbol",
					"outputs": [
						{
							"internalType": "string",
							"name": "",
							"type": "string"
						}
					],
					"stateMutability": "view",
					"type": "function"
				},
				{
					"inputs": [],
					"name": "totalSupply",
					"outputs": [
						{
							"internalType": "uint256",
							"name": "",
							"type": "uint256"
						}
					],
					"stateMutability": "view",
					"type": "function"
				},
				{
					"inputs": [
						{
							"internalType": "address",
							"name": "receiver",
							"type": "address"
						},
						{
							"internalType": "uint256",
							"name": "amount",
							"type": "uint256"
						}
					],
					"name": "transfer",
					"outputs": [
						{
							"internalType": "bool",
							"name": "",
							"type": "bool"
						}
					],
					"stateMutability": "nonpayable",
					"type": "function"
				},
				{
					"inputs": [
						{
							"internalType": "address",
							"name": "owner",
							"type": "address"
						},
						{
							"internalType": "address",
							"name": "to",
							"type": "address"
						},
						{
							"internalType": "uint256",
							"name": "numTokens",
							"type": "uint256"
						}
					],
					"name": "transferFrom",
					"outputs": [
						{
							"internalType": "bool",
							"name": "",
							"type": "bool"
						}
					],
					"stateMutability": "nonpayable",
					"type": "function"
				}
			],
			"devdoc": {
				"kind": "dev",
				"methods": {},
				"version": 1
			},
			"evm": {
				"assembly": "    /* \"Custom Token BUY-SELL/customToken.sol\":726:4475  contract CustomToken is IERC20 {... */\n  mstore(0x40, 0x80)\n    /* \"Custom Token BUY-SELL/customToken.sol\":1137:1411  constructor()  {... */\n  callvalue\n  dup1\n  iszero\n  tag_1\n  jumpi\n  0x00\n  dup1\n  revert\ntag_1:\n  pop\n    /* \"Custom Token BUY-SELL/customToken.sol\":1163:1180  name = \"Solidity\" */\n  mload(0x40)\n  dup1\n  0x40\n  add\n  0x40\n  mstore\n  dup1\n  0x08\n  dup2\n  mstore\n  0x20\n  add\n  0x536f6c6964697479000000000000000000000000000000000000000000000000\n  dup2\n  mstore\n  pop\n    /* \"Custom Token BUY-SELL/customToken.sol\":1163:1167  name */\n  0x00\n    /* \"Custom Token BUY-SELL/customToken.sol\":1163:1180  name = \"Solidity\" */\n  swap1\n  dup2\n  tag_4\n  swap2\n  swap1\n  tag_5\n  jump\t// in\ntag_4:\n  pop\n    /* \"Custom Token BUY-SELL/customToken.sol\":1191:1206  symbol = \"SLDT\" */\n  mload(0x40)\n  dup1\n  0x40\n  add\n  0x40\n  mstore\n  dup1\n  0x04\n  dup2\n  mstore\n  0x20\n  add\n  0x534c445400000000000000000000000000000000000000000000000000000000\n  dup2\n  mstore\n  pop\n    /* \"Custom Token BUY-SELL/customToken.sol\":1191:1197  symbol */\n  0x01\n    /* \"Custom Token BUY-SELL/customToken.sol\":1191:1206  symbol = \"SLDT\" */\n  swap1\n  dup2\n  tag_6\n  swap2\n  swap1\n  tag_5\n  jump\t// in\ntag_6:\n  pop\n    /* \"Custom Token BUY-SELL/customToken.sol\":1228:1230  18 */\n  0x12\n    /* \"Custom Token BUY-SELL/customToken.sol\":1217:1225  decimals */\n  0x02\n  0x00\n    /* \"Custom Token BUY-SELL/customToken.sol\":1217:1230  decimals = 18 */\n  0x0100\n  exp\n  dup2\n  sload\n  dup2\n  0xff\n  mul\n  not\n  and\n  swap1\n  dup4\n  0xff\n  and\n  mul\n  or\n  swap1\n  sstore\n  pop\n    /* \"Custom Token BUY-SELL/customToken.sol\":1255:1258  100 */\n  0x64\n    /* \"Custom Token BUY-SELL/customToken.sol\":1241:1253  totalSupply_ */\n  0x03\n    /* \"Custom Token BUY-SELL/customToken.sol\":1241:1258  totalSupply_ =100 */\n  dup2\n  swap1\n  sstore\n  pop\n    /* \"Custom Token BUY-SELL/customToken.sol\":1391:1403  totalSupply_ */\n  sload(0x03)\n    /* \"Custom Token BUY-SELL/customToken.sol\":1368:1376  balances */\n  0x04\n    /* \"Custom Token BUY-SELL/customToken.sol\":1368:1388  balances[msg.sender] */\n  0x00\n    /* \"Custom Token BUY-SELL/customToken.sol\":1377:1387  msg.sender */\n  caller\n    /* \"Custom Token BUY-SELL/customToken.sol\":1368:1388  balances[msg.sender] */\n  0xffffffffffffffffffffffffffffffffffffffff\n  and\n  0xffffffffffffffffffffffffffffffffffffffff\n  and\n  dup2\n  mstore\n  0x20\n  add\n  swap1\n  dup2\n  mstore\n  0x20\n  add\n  0x00\n  keccak256\n    /* \"Custom Token BUY-SELL/customToken.sol\":1368:1403  balances[msg.sender] = totalSupply_ */\n  dup2\n  swap1\n  sstore\n  pop\n    /* \"Custom Token BUY-SELL/customToken.sol\":726:4475  contract CustomToken is IERC20 {... */\n  jump(tag_7)\n    /* \"#utility.yul\":7:106   */\ntag_8:\n    /* \"#utility.yul\":59:65   */\n  0x00\n    /* \"#utility.yul\":93:98   */\n  dup2\n    /* \"#utility.yul\":87:99   */\n  mload\n    /* \"#utility.yul\":77:99   */\n  swap1\n  pop\n    /* \"#utility.yul\":7:106   */\n  swap2\n  swap1\n  pop\n  jump\t// out\n    /* \"#utility.yul\":112:292   */\ntag_9:\n    /* \"#utility.yul\":160:237   */\n  0x4e487b7100000000000000000000000000000000000000000000000000000000\n    /* \"#utility.yul\":157:158   */\n  0x00\n    /* \"#utility.yul\":150:238   */\n  mstore\n    /* \"#utility.yul\":257:261   */\n  0x41\n    /* \"#utility.yul\":254:255   */\n  0x04\n    /* \"#utility.yul\":247:262   */\n  mstore\n    /* \"#utility.yul\":281:285   */\n  0x24\n    /* \"#utility.yul\":278:279   */\n  0x00\n    /* \"#utility.yul\":271:286   */\n  revert\n    /* \"#utility.yul\":298:478   */\ntag_10:\n    /* \"#utility.yul\":346:423   */\n  0x4e487b7100000000000000000000000000000000000000000000000000000000\n    /* \"#utility.yul\":343:344   */\n  0x00\n    /* \"#utility.yul\":336:424   */\n  mstore\n    /* \"#utility.yul\":443:447   */\n  0x22\n    /* \"#utility.yul\":440:441   */\n  0x04\n    /* \"#utility.yul\":433:448   */\n  mstore\n    /* \"#utility.yul\":467:471   */\n  0x24\n    /* \"#utility.yul\":464:465   */\n  0x00\n    /* \"#utility.yul\":457:472   */\n  revert\n    /* \"#utility.yul\":484:804   */\ntag_11:\n    /* \"#utility.yul\":528:534   */\n  0x00\n    /* \"#utility.yul\":565:566   */\n  0x02\n    /* \"#utility.yul\":559:563   */\n  dup3\n    /* \"#utility.yul\":555:567   */\n  div\n    /* \"#utility.yul\":545:567   */\n  swap1\n  pop\n    /* \"#utility.yul\":612:613   */\n  0x01\n    /* \"#utility.yul\":606:610   */\n  dup3\n    /* \"#utility.yul\":602:614   */\n  and\n    /* \"#utility.yul\":633:651   */\n  dup1\n    /* \"#utility.yul\":623:704   */\n  tag_33\n  jumpi\n    /* \"#utility.yul\":689:693   */\n  0x7f\n    /* \"#utility.yul\":681:687   */\n  dup3\n    /* \"#utility.yul\":677:694   */\n  and\n    /* \"#utility.yul\":667:694   */\n  swap2\n  pop\n    /* \"#utility.yul\":623:704   */\ntag_33:\n    /* \"#utility.yul\":751:753   */\n  0x20\n    /* \"#utility.yul\":743:749   */\n  dup3\n    /* \"#utility.yul\":740:754   */\n  lt\n    /* \"#utility.yul\":720:738   */\n  dup2\n    /* \"#utility.yul\":717:755   */\n  sub\n    /* \"#utility.yul\":714:798   */\n  tag_34\n  jumpi\n    /* \"#utility.yul\":770:788   */\n  tag_35\n  tag_10\n  jump\t// in\ntag_35:\n    /* \"#utility.yul\":714:798   */\ntag_34:\n    /* \"#utility.yul\":535:804   */\n  pop\n    /* \"#utility.yul\":484:804   */\n  swap2\n  swap1\n  pop\n  jump\t// out\n    /* \"#utility.yul\":810:951   */\ntag_12:\n    /* \"#utility.yul\":859:863   */\n  0x00\n    /* \"#utility.yul\":882:885   */\n  dup2\n    /* \"#utility.yul\":874:885   */\n  swap1\n  pop\n    /* \"#utility.yul\":905:908   */\n  dup2\n    /* \"#utility.yul\":902:903   */\n  0x00\n    /* \"#utility.yul\":895:909   */\n  mstore\n    /* \"#utility.yul\":939:943   */\n  0x20\n    /* \"#utility.yul\":936:937   */\n  0x00\n    /* \"#utility.yul\":926:944   */\n  keccak256\n    /* \"#utility.yul\":918:944   */\n  swap1\n  pop\n    /* \"#utility.yul\":810:951   */\n  swap2\n  swap1\n  pop\n  jump\t// out\n    /* \"#utility.yul\":957:1050   */\ntag_13:\n    /* \"#utility.yul\":994:1000   */\n  0x00\n    /* \"#utility.yul\":1041:1043   */\n  0x20\n    /* \"#utility.yul\":1036:1038   */\n  0x1f\n    /* \"#utility.yul\":1029:1034   */\n  dup4\n    /* \"#utility.yul\":1025:1039   */\n  add\n    /* \"#utility.yul\":1021:1044   */\n  div\n    /* \"#utility.yul\":1011:1044   */\n  swap1\n  pop\n    /* \"#utility.yul\":957:1050   */\n  swap2\n  swap1\n  pop\n  jump\t// out\n    /* \"#utility.yul\":1056:1163   */\ntag_14:\n    /* \"#utility.yul\":1100:1108   */\n  0x00\n    /* \"#utility.yul\":1150:1155   */\n  dup3\n    /* \"#utility.yul\":1144:1148   */\n  dup3\n    /* \"#utility.yul\":1140:1156   */\n  shl\n    /* \"#utility.yul\":1119:1156   */\n  swap1\n  pop\n    /* \"#utility.yul\":1056:1163   */\n  swap3\n  swap2\n  pop\n  pop\n  jump\t// out\n    /* \"#utility.yul\":1169:1562   */\ntag_15:\n    /* \"#utility.yul\":1238:1244   */\n  0x00\n    /* \"#utility.yul\":1288:1289   */\n  0x08\n    /* \"#utility.yul\":1276:1286   */\n  dup4\n    /* \"#utility.yul\":1272:1290   */\n  mul\n    /* \"#utility.yul\":1311:1408   */\n  tag_40\n    /* \"#utility.yul\":1341:1407   */\n  0xffffffffffffffffffffffffffffffffffffffffffffffffffffffffffffffff\n    /* \"#utility.yul\":1330:1339   */\n  dup3\n    /* \"#utility.yul\":1311:1408   */\n  tag_14\n  jump\t// in\ntag_40:\n    /* \"#utility.yul\":1429:1468   */\n  tag_41\n    /* \"#utility.yul\":1459:1467   */\n  dup7\n    /* \"#utility.yul\":1448:1457   */\n  dup4\n    /* \"#utility.yul\":1429:1468   */\n  tag_14\n  jump\t// in\ntag_41:\n    /* \"#utility.yul\":1417:1468   */\n  swap6\n  pop\n    /* \"#utility.yul\":1501:1505   */\n  dup1\n    /* \"#utility.yul\":1497:1506   */\n  not\n    /* \"#utility.yul\":1490:1495   */\n  dup5\n    /* \"#utility.yul\":1486:1507   */\n  and\n    /* \"#utility.yul\":1477:1507   */\n  swap4\n  pop\n    /* \"#utility.yul\":1550:1554   */\n  dup1\n    /* \"#utility.yul\":1540:1548   */\n  dup7\n    /* \"#utility.yul\":1536:1555   */\n  and\n    /* \"#utility.yul\":1529:1534   */\n  dup5\n    /* \"#utility.yul\":1526:1556   */\n  or\n    /* \"#utility.yul\":1516:1556   */\n  swap3\n  pop\n    /* \"#utility.yul\":1245:1562   */\n  pop\n  pop\n    /* \"#utility.yul\":1169:1562   */\n  swap4\n  swap3\n  pop\n  pop\n  pop\n  jump\t// out\n    /* \"#utility.yul\":1568:1645   */\ntag_16:\n    /* \"#utility.yul\":1605:1612   */\n  0x00\n    /* \"#utility.yul\":1634:1639   */\n  dup2\n    /* \"#utility.yul\":1623:1639   */\n  swap1\n  pop\n    /* \"#utility.yul\":1568:1645   */\n  swap2\n  swap1\n  pop\n  jump\t// out\n    /* \"#utility.yul\":1651:1711   */\ntag_17:\n    /* \"#utility.yul\":1679:1682   */\n  0x00\n    /* \"#utility.yul\":1700:1705   */\n  dup2\n    /* \"#utility.yul\":1693:1705   */\n  swap1\n  pop\n    /* \"#utility.yul\":1651:1711   */\n  swap2\n  swap1\n  pop\n  jump\t// out\n    /* \"#utility.yul\":1717:1859   */\ntag_18:\n    /* \"#utility.yul\":1767:1776   */\n  0x00\n    /* \"#utility.yul\":1800:1853   */\n  tag_45\n    /* \"#utility.yul\":1818:1852   */\n  tag_46\n    /* \"#utility.yul\":1827:1851   */\n  tag_47\n    /* \"#utility.yul\":1845:1850   */\n  dup5\n    /* \"#utility.yul\":1827:1851   */\n  tag_16\n  jump\t// in\ntag_47:\n    /* \"#utility.yul\":1818:1852   */\n  tag_17\n  jump\t// in\ntag_46:\n    /* \"#utility.yul\":1800:1853   */\n  tag_16\n  jump\t// in\ntag_45:\n    /* \"#utility.yul\":1787:1853   */\n  swap1\n  pop\n    /* \"#utility.yul\":1717:1859   */\n  swap2\n  swap1\n  pop\n  jump\t// out\n    /* \"#utility.yul\":1865:1940   */\ntag_19:\n    /* \"#utility.yul\":1908:1911   */\n  0x00\n    /* \"#utility.yul\":1929:1934   */\n  dup2\n    /* \"#utility.yul\":1922:1934   */\n  swap1\n  pop\n    /* \"#utility.yul\":1865:1940   */\n  swap2\n  swap1\n  pop\n  jump\t// out\n    /* \"#utility.yul\":1946:2215   */\ntag_20:\n    /* \"#utility.yul\":2056:2095   */\n  tag_50\n    /* \"#utility.yul\":2087:2094   */\n  dup4\n    /* \"#utility.yul\":2056:2095   */\n  tag_18\n  jump\t// in\ntag_50:\n    /* \"#utility.yul\":2117:2208   */\n  tag_51\n    /* \"#utility.yul\":2166:2207   */\n  tag_52\n    /* \"#utility.yul\":2190:2206   */\n  dup3\n    /* \"#utility.yul\":2166:2207   */\n  tag_19\n  jump\t// in\ntag_52:\n    /* \"#utility.yul\":2158:2164   */\n  dup5\n    /* \"#utility.yul\":2151:2155   */\n  dup5\n    /* \"#utility.yul\":2145:2156   */\n  sload\n    /* \"#utility.yul\":2117:2208   */\n  tag_15\n  jump\t// in\ntag_51:\n    /* \"#utility.yul\":2111:2115   */\n  dup3\n    /* \"#utility.yul\":2104:2209   */\n  sstore\n    /* \"#utility.yul\":2022:2215   */\n  pop\n    /* \"#utility.yul\":1946:2215   */\n  pop\n  pop\n  pop\n  jump\t// out\n    /* \"#utility.yul\":2221:2294   */\ntag_21:\n    /* \"#utility.yul\":2266:2269   */\n  0x00\n    /* \"#utility.yul\":2221:2294   */\n  swap1\n  jump\t// out\n    /* \"#utility.yul\":2300:2489   */\ntag_22:\n    /* \"#utility.yul\":2377:2409   */\n  tag_55\n  tag_21\n  jump\t// in\ntag_55:\n    /* \"#utility.yul\":2418:2483   */\n  tag_56\n    /* \"#utility.yul\":2476:2482   */\n  dup2\n    /* \"#utility.yul\":2468:2474   */\n  dup5\n    /* \"#utility.yul\":2462:2466   */\n  dup5\n    /* \"#utility.yul\":2418:2483   */\n  tag_20\n  jump\t// in\ntag_56:\n    /* \"#utility.yul\":2353:2489   */\n  pop\n    /* \"#utility.yul\":2300:2489   */\n  pop\n  pop\n  jump\t// out\n    /* \"#utility.yul\":2495:2681   */\ntag_23:\n    /* \"#utility.yul\":2555:2675   */\ntag_58:\n    /* \"#utility.yul\":2572:2575   */\n  dup2\n    /* \"#utility.yul\":2565:2570   */\n  dup2\n    /* \"#utility.yul\":2562:2576   */\n  lt\n    /* \"#utility.yul\":2555:2675   */\n  iszero\n  tag_60\n  jumpi\n    /* \"#utility.yul\":2626:2665   */\n  tag_61\n    /* \"#utility.yul\":2663:2664   */\n  0x00\n    /* \"#utility.yul\":2656:2661   */\n  dup3\n    /* \"#utility.yul\":2626:2665   */\n  tag_22\n  jump\t// in\ntag_61:\n    /* \"#utility.yul\":2599:2600   */\n  0x01\n    /* \"#utility.yul\":2592:2597   */\n  dup2\n    /* \"#utility.yul\":2588:2601   */\n  add\n    /* \"#utility.yul\":2579:2601   */\n  swap1\n  pop\n    /* \"#utility.yul\":2555:2675   */\n  jump(tag_58)\ntag_60:\n    /* \"#utility.yul\":2495:2681   */\n  pop\n  pop\n  jump\t// out\n    /* \"#utility.yul\":2687:3230   */\ntag_24:\n    /* \"#utility.yul\":2788:2790   */\n  0x1f\n    /* \"#utility.yul\":2783:2786   */\n  dup3\n    /* \"#utility.yul\":2780:2791   */\n  gt\n    /* \"#utility.yul\":2777:3223   */\n  iszero\n  tag_63\n  jumpi\n    /* \"#utility.yul\":2822:2860   */\n  tag_64\n    /* \"#utility.yul\":2854:2859   */\n  dup2\n    /* \"#utility.yul\":2822:2860   */\n  tag_12\n  jump\t// in\ntag_64:\n    /* \"#utility.yul\":2906:2935   */\n  tag_65\n    /* \"#utility.yul\":2924:2934   */\n  dup5\n    /* \"#utility.yul\":2906:2935   */\n  tag_13\n  jump\t// in\ntag_65:\n    /* \"#utility.yul\":2896:2904   */\n  dup2\n    /* \"#utility.yul\":2892:2936   */\n  add\n    /* \"#utility.yul\":3089:3091   */\n  0x20\n    /* \"#utility.yul\":3077:3087   */\n  dup6\n    /* \"#utility.yul\":3074:3092   */\n  lt\n    /* \"#utility.yul\":3071:3120   */\n  iszero\n  tag_66\n  jumpi\n    /* \"#utility.yul\":3110:3118   */\n  dup2\n    /* \"#utility.yul\":3095:3118   */\n  swap1\n  pop\n    /* \"#utility.yul\":3071:3120   */\ntag_66:\n    /* \"#utility.yul\":3133:3213   */\n  tag_67\n    /* \"#utility.yul\":3189:3211   */\n  tag_68\n    /* \"#utility.yul\":3207:3210   */\n  dup6\n    /* \"#utility.yul\":3189:3211   */\n  tag_13\n  jump\t// in\ntag_68:\n    /* \"#utility.yul\":3179:3187   */\n  dup4\n    /* \"#utility.yul\":3175:3212   */\n  add\n    /* \"#utility.yul\":3162:3173   */\n  dup3\n    /* \"#utility.yul\":3133:3213   */\n  tag_23\n  jump\t// in\ntag_67:\n    /* \"#utility.yul\":2792:3223   */\n  pop\n  pop\n    /* \"#utility.yul\":2777:3223   */\ntag_63:\n    /* \"#utility.yul\":2687:3230   */\n  pop\n  pop\n  pop\n  jump\t// out\n    /* \"#utility.yul\":3236:3353   */\ntag_25:\n    /* \"#utility.yul\":3290:3298   */\n  0x00\n    /* \"#utility.yul\":3340:3345   */\n  dup3\n    /* \"#utility.yul\":3334:3338   */\n  dup3\n    /* \"#utility.yul\":3330:3346   */\n  shr\n    /* \"#utility.yul\":3309:3346   */\n  swap1\n  pop\n    /* \"#utility.yul\":3236:3353   */\n  swap3\n  swap2\n  pop\n  pop\n  jump\t// out\n    /* \"#utility.yul\":3359:3528   */\ntag_26:\n    /* \"#utility.yul\":3403:3409   */\n  0x00\n    /* \"#utility.yul\":3436:3487   */\n  tag_71\n    /* \"#utility.yul\":3484:3485   */\n  0x00\n    /* \"#utility.yul\":3480:3486   */\n  not\n    /* \"#utility.yul\":3472:3477   */\n  dup5\n    /* \"#utility.yul\":3469:3470   */\n  0x08\n    /* \"#utility.yul\":3465:3478   */\n  mul\n    /* \"#utility.yul\":3436:3487   */\n  tag_25\n  jump\t// in\ntag_71:\n    /* \"#utility.yul\":3432:3488   */\n  not\n    /* \"#utility.yul\":3517:3521   */\n  dup1\n    /* \"#utility.yul\":3511:3515   */\n  dup4\n    /* \"#utility.yul\":3507:3522   */\n  and\n    /* \"#utility.yul\":3497:3522   */\n  swap2\n  pop\n    /* \"#utility.yul\":3410:3528   */\n  pop\n    /* \"#utility.yul\":3359:3528   */\n  swap3\n  swap2\n  pop\n  pop\n  jump\t// out\n    /* \"#utility.yul\":3533:3828   */\ntag_27:\n    /* \"#utility.yul\":3609:3613   */\n  0x00\n    /* \"#utility.yul\":3755:3784   */\n  tag_73\n    /* \"#utility.yul\":3780:3783   */\n  dup4\n    /* \"#utility.yul\":3774:3778   */\n  dup4\n    /* \"#utility.yul\":3755:3784   */\n  tag_26\n  jump\t// in\ntag_73:\n    /* \"#utility.yul\":3747:3784   */\n  swap2\n  pop\n    /* \"#utility.yul\":3817:3820   */\n  dup3\n    /* \"#utility.yul\":3814:3815   */\n  0x02\n    /* \"#utility.yul\":3810:3821   */\n  mul\n    /* \"#utility.yul\":3804:3808   */\n  dup3\n    /* \"#utility.yul\":3801:3822   */\n  or\n    /* \"#utility.yul\":3793:3822   */\n  swap1\n  pop\n    /* \"#utility.yul\":3533:3828   */\n  swap3\n  swap2\n  pop\n  pop\n  jump\t// out\n    /* \"#utility.yul\":3833:5228   */\ntag_5:\n    /* \"#utility.yul\":3950:3987   */\n  tag_75\n    /* \"#utility.yul\":3983:3986   */\n  dup3\n    /* \"#utility.yul\":3950:3987   */\n  tag_8\n  jump\t// in\ntag_75:\n    /* \"#utility.yul\":4052:4070   */\n  0xffffffffffffffff\n    /* \"#utility.yul\":4044:4050   */\n  dup2\n    /* \"#utility.yul\":4041:4071   */\n  gt\n    /* \"#utility.yul\":4038:4094   */\n  iszero\n  tag_76\n  jumpi\n    /* \"#utility.yul\":4074:4092   */\n  tag_77\n  tag_9\n  jump\t// in\ntag_77:\n    /* \"#utility.yul\":4038:4094   */\ntag_76:\n    /* \"#utility.yul\":4118:4156   */\n  tag_78\n    /* \"#utility.yul\":4150:4154   */\n  dup3\n    /* \"#utility.yul\":4144:4155   */\n  sload\n    /* \"#utility.yul\":4118:4156   */\n  tag_11\n  jump\t// in\ntag_78:\n    /* \"#utility.yul\":4203:4270   */\n  tag_79\n    /* \"#utility.yul\":4263:4269   */\n  dup3\n    /* \"#utility.yul\":4255:4261   */\n  dup3\n    /* \"#utility.yul\":4249:4253   */\n  dup6\n    /* \"#utility.yul\":4203:4270   */\n  tag_24\n  jump\t// in\ntag_79:\n    /* \"#utility.yul\":4297:4298   */\n  0x00\n    /* \"#utility.yul\":4321:4325   */\n  0x20\n    /* \"#utility.yul\":4308:4325   */\n  swap1\n  pop\n    /* \"#utility.yul\":4353:4355   */\n  0x1f\n    /* \"#utility.yul\":4345:4351   */\n  dup4\n    /* \"#utility.yul\":4342:4356   */\n  gt\n    /* \"#utility.yul\":4370:4371   */\n  0x01\n    /* \"#utility.yul\":4365:4983   */\n  dup2\n  eq\n  tag_81\n  jumpi\n    /* \"#utility.yul\":5027:5028   */\n  0x00\n    /* \"#utility.yul\":5044:5050   */\n  dup5\n    /* \"#utility.yul\":5041:5118   */\n  iszero\n  tag_82\n  jumpi\n    /* \"#utility.yul\":5093:5102   */\n  dup3\n    /* \"#utility.yul\":5088:5091   */\n  dup8\n    /* \"#utility.yul\":5084:5103   */\n  add\n    /* \"#utility.yul\":5078:5104   */\n  mload\n    /* \"#utility.yul\":5069:5104   */\n  swap1\n  pop\n    /* \"#utility.yul\":5041:5118   */\ntag_82:\n    /* \"#utility.yul\":5144:5211   */\n  tag_83\n    /* \"#utility.yul\":5204:5210   */\n  dup6\n    /* \"#utility.yul\":5197:5202   */\n  dup3\n    /* \"#utility.yul\":5144:5211   */\n  tag_27\n  jump\t// in\ntag_83:\n    /* \"#utility.yul\":5138:5142   */\n  dup7\n    /* \"#utility.yul\":5131:5212   */\n  sstore\n    /* \"#utility.yul\":5000:5222   */\n  pop\n    /* \"#utility.yul\":4335:5222   */\n  jump(tag_80)\n    /* \"#utility.yul\":4365:4983   */\ntag_81:\n    /* \"#utility.yul\":4417:4421   */\n  0x1f\n    /* \"#utility.yul\":4413:4422   */\n  not\n    /* \"#utility.yul\":4405:4411   */\n  dup5\n    /* \"#utility.yul\":4401:4423   */\n  and\n    /* \"#utility.yul\":4451:4488   */\n  tag_84\n    /* \"#utility.yul\":4483:4487   */\n  dup7\n    /* \"#utility.yul\":4451:4488   */\n  tag_12\n  jump\t// in\ntag_84:\n    /* \"#utility.yul\":4510:4511   */\n  0x00\n    /* \"#utility.yul\":4524:4732   */\ntag_85:\n    /* \"#utility.yul\":4538:4545   */\n  dup3\n    /* \"#utility.yul\":4535:4536   */\n  dup2\n    /* \"#utility.yul\":4532:4546   */\n  lt\n    /* \"#utility.yul\":4524:4732   */\n  iszero\n  tag_87\n  jumpi\n    /* \"#utility.yul\":4617:4626   */\n  dup5\n    /* \"#utility.yul\":4612:4615   */\n  dup10\n    /* \"#utility.yul\":4608:4627   */\n  add\n    /* \"#utility.yul\":4602:4628   */\n  mload\n    /* \"#utility.yul\":4594:4600   */\n  dup3\n    /* \"#utility.yul\":4587:4629   */\n  sstore\n    /* \"#utility.yul\":4668:4669   */\n  0x01\n    /* \"#utility.yul\":4660:4666   */\n  dup3\n    /* \"#utility.yul\":4656:4670   */\n  add\n    /* \"#utility.yul\":4646:4670   */\n  swap2\n  pop\n    /* \"#utility.yul\":4715:4717   */\n  0x20\n    /* \"#utility.yul\":4704:4713   */\n  dup6\n    /* \"#utility.yul\":4700:4718   */\n  add\n    /* \"#utility.yul\":4687:4718   */\n  swap5\n  pop\n    /* \"#utility.yul\":4561:4565   */\n  0x20\n    /* \"#utility.yul\":4558:4559   */\n  dup2\n    /* \"#utility.yul\":4554:4566   */\n  add\n    /* \"#utility.yul\":4549:4566   */\n  swap1\n  pop\n    /* \"#utility.yul\":4524:4732   */\n  jump(tag_85)\ntag_87:\n    /* \"#utility.yul\":4760:4766   */\n  dup7\n    /* \"#utility.yul\":4751:4758   */\n  dup4\n    /* \"#utility.yul\":4748:4767   */\n  lt\n    /* \"#utility.yul\":4745:4924   */\n  iszero\n  tag_88\n  jumpi\n    /* \"#utility.yul\":4818:4827   */\n  dup5\n    /* \"#utility.yul\":4813:4816   */\n  dup10\n    /* \"#utility.yul\":4809:4828   */\n  add\n    /* \"#utility.yul\":4803:4829   */\n  mload\n    /* \"#utility.yul\":4861:4909   */\n  tag_89\n    /* \"#utility.yul\":4903:4907   */\n  0x1f\n    /* \"#utility.yul\":4895:4901   */\n  dup10\n    /* \"#utility.yul\":4891:4908   */\n  and\n    /* \"#utility.yul\":4880:4889   */\n  dup3\n    /* \"#utility.yul\":4861:4909   */\n  tag_26\n  jump\t// in\ntag_89:\n    /* \"#utility.yul\":4853:4859   */\n  dup4\n    /* \"#utility.yul\":4846:4910   */\n  sstore\n    /* \"#utility.yul\":4768:4924   */\n  pop\n    /* \"#utility.yul\":4745:4924   */\ntag_88:\n    /* \"#utility.yul\":4970:4971   */\n  0x01\n    /* \"#utility.yul\":4966:4967   */\n  0x02\n    /* \"#utility.yul\":4958:4964   */\n  dup9\n    /* \"#utility.yul\":4954:4968   */\n  mul\n    /* \"#utility.yul\":4950:4972   */\n  add\n    /* \"#utility.yul\":4944:4948   */\n  dup9\n    /* \"#utility.yul\":4937:4973   */\n  sstore\n    /* \"#utility.yul\":4372:4983   */\n  pop\n  pop\n  pop\n    /* \"#utility.yul\":4335:5222   */\ntag_80:\n  pop\n    /* \"#utility.yul\":3925:5228   */\n  pop\n  pop\n  pop\n    /* \"#utility.yul\":3833:5228   */\n  pop\n  pop\n  jump\t// out\n    /* \"Custom Token BUY-SELL/customToken.sol\":726:4475  contract CustomToken is IERC20 {... */\ntag_7:\n  dataSize(sub_0)\n  dup1\n  dataOffset(sub_0)\n  0x00\n  codecopy\n  0x00\n  return\nstop\n\nsub_0: assembly {\n        /* \"Custom Token BUY-SELL/customToken.sol\":726:4475  contract CustomToken is IERC20 {... */\n      mstore(0x40, 0x80)\n      jumpi(tag_1, lt(calldatasize, 0x04))\n      shr(0xe0, calldataload(0x00))\n      dup1\n      0x7048e1c4\n      gt\n      tag_16\n      jumpi\n      dup1\n      0x97665dda\n      gt\n      tag_17\n      jumpi\n      dup1\n      0x97665dda\n      eq\n      tag_12\n      jumpi\n      dup1\n      0xa9059cbb\n      eq\n      tag_13\n      jumpi\n      dup1\n      0xd08ccb4f\n      eq\n      tag_14\n      jumpi\n      dup1\n      0xdd62ed3e\n      eq\n      tag_15\n      jumpi\n      jump(tag_1)\n    tag_17:\n      dup1\n      0x7048e1c4\n      eq\n      tag_9\n      jumpi\n      dup1\n      0x70a08231\n      eq\n      tag_10\n      jumpi\n      dup1\n      0x95d89b41\n      eq\n      tag_11\n      jumpi\n      jump(tag_1)\n    tag_16:\n      dup1\n      0x18160ddd\n      gt\n      tag_18\n      jumpi\n      dup1\n      0x18160ddd\n      eq\n      tag_5\n      jumpi\n      dup1\n      0x1897bcf3\n      eq\n      tag_6\n      jumpi\n      dup1\n      0x23b872dd\n      eq\n      tag_7\n      jumpi\n      dup1\n      0x313ce567\n      eq\n      tag_8\n      jumpi\n      jump(tag_1)\n    tag_18:\n      dup1\n      0x06fdde03\n      eq\n      tag_2\n      jumpi\n      dup1\n      0x095ea7b3\n      eq\n      tag_3\n      jumpi\n      dup1\n      0x0b8d7bfd\n      eq\n      tag_4\n      jumpi\n    tag_1:\n      0x00\n      dup1\n      revert\n        /* \"Custom Token BUY-SELL/customToken.sol\":766:786  string  public  name */\n    tag_2:\n      callvalue\n      dup1\n      iszero\n      tag_19\n      jumpi\n      0x00\n      dup1\n      revert\n    tag_19:\n      pop\n      tag_20\n      tag_21\n      jump\t// in\n    tag_20:\n      mload(0x40)\n      tag_22\n      swap2\n      swap1\n      tag_23\n      jump\t// in\n    tag_22:\n      mload(0x40)\n      dup1\n      swap2\n      sub\n      swap1\n      return\n        /* \"Custom Token BUY-SELL/customToken.sol\":2001:2219  function approve(address spender, uint numTokens) public override returns (bool) {... */\n    tag_3:\n      callvalue\n      dup1\n      iszero\n      tag_24\n      jumpi\n      0x00\n      dup1\n      revert\n    tag_24:\n      pop\n      tag_25\n      0x04\n      dup1\n      calldatasize\n      sub\n      dup2\n      add\n      swap1\n      tag_26\n      swap2\n      swap1\n      tag_27\n      jump\t// in\n    tag_26:\n      tag_28\n      jump\t// in\n    tag_25:\n      mload(0x40)\n      tag_29\n      swap2\n      swap1\n      tag_30\n      jump\t// in\n    tag_29:\n      mload(0x40)\n      dup1\n      swap2\n      sub\n      swap1\n      return\n        /* \"Custom Token BUY-SELL/customToken.sol\":3699:4470  function Buy_Token(uint buyQty) public payable //view returns(uint)... */\n    tag_4:\n      tag_31\n      0x04\n      dup1\n      calldatasize\n      sub\n      dup2\n      add\n      swap1\n      tag_32\n      swap2\n      swap1\n      tag_33\n      jump\t// in\n    tag_32:\n      tag_34\n      jump\t// in\n    tag_31:\n      stop\n        /* \"Custom Token BUY-SELL/customToken.sol\":1419:1516  function totalSupply() public override view returns (uint) {... */\n    tag_5:\n      callvalue\n      dup1\n      iszero\n      tag_35\n      jumpi\n      0x00\n      dup1\n      revert\n    tag_35:\n      pop\n      tag_36\n      tag_37\n      jump\t// in\n    tag_36:\n      mload(0x40)\n      tag_38\n      swap2\n      swap1\n      tag_39\n      jump\t// in\n    tag_38:\n      mload(0x40)\n      dup1\n      swap2\n      sub\n      swap1\n      return\n        /* \"Custom Token BUY-SELL/customToken.sol\":2868:3426  function sellToken(uint quantity,uint PerTokenPrice) public... */\n    tag_6:\n      callvalue\n      dup1\n      iszero\n      tag_40\n      jumpi\n      0x00\n      dup1\n      revert\n    tag_40:\n      pop\n      tag_41\n      0x04\n      dup1\n      calldatasize\n      sub\n      dup2\n      add\n      swap1\n      tag_42\n      swap2\n      swap1\n      tag_43\n      jump\t// in\n    tag_42:\n      tag_44\n      jump\t// in\n    tag_41:\n      stop\n        /* \"Custom Token BUY-SELL/customToken.sol\":2371:2807  function transferFrom(address owner, address to, uint numTokens) public override returns (bool) {... */\n    tag_7:\n      callvalue\n      dup1\n      iszero\n      tag_45\n      jumpi\n      0x00\n      dup1\n      revert\n    tag_45:\n      pop\n      tag_46\n      0x04\n      dup1\n      calldatasize\n      sub\n      dup2\n      add\n      swap1\n      tag_47\n      swap2\n      swap1\n      tag_48\n      jump\t// in\n    tag_47:\n      tag_49\n      jump\t// in\n    tag_46:\n      mload(0x40)\n      tag_50\n      swap2\n      swap1\n      tag_30\n      jump\t// in\n    tag_50:\n      mload(0x40)\n      dup1\n      swap2\n      sub\n      swap1\n      return\n        /* \"Custom Token BUY-SELL/customToken.sol\":822:846  uint8   public  decimals */\n    tag_8:\n      callvalue\n      dup1\n      iszero\n      tag_51\n      jumpi\n      0x00\n      dup1\n      revert\n    tag_51:\n      pop\n      tag_52\n      tag_53\n      jump\t// in\n    tag_52:\n      mload(0x40)\n      tag_54\n      swap2\n      swap1\n      tag_55\n      jump\t// in\n    tag_54:\n      mload(0x40)\n      dup1\n      swap2\n      sub\n      swap1\n      return\n        /* \"Custom Token BUY-SELL/customToken.sol\":1101:1126  address public TokenBuyer */\n    tag_9:\n      callvalue\n      dup1\n      iszero\n      tag_56\n      jumpi\n      0x00\n      dup1\n      revert\n    tag_56:\n      pop\n      tag_57\n      tag_58\n      jump\t// in\n    tag_57:\n      mload(0x40)\n      tag_59\n      swap2\n      swap1\n      tag_60\n      jump\t// in\n    tag_59:\n      mload(0x40)\n      dup1\n      swap2\n      sub\n      swap1\n      return\n        /* \"Custom Token BUY-SELL/customToken.sol\":1524:1645  function balanceOf(address tokenOwner) public override view returns (uint) {... */\n    tag_10:\n      callvalue\n      dup1\n      iszero\n      tag_61\n      jumpi\n      0x00\n      dup1\n      revert\n    tag_61:\n      pop\n      tag_62\n      0x04\n      dup1\n      calldatasize\n      sub\n      dup2\n      add\n      swap1\n      tag_63\n      swap2\n      swap1\n      tag_64\n      jump\t// in\n    tag_63:\n      tag_65\n      jump\t// in\n    tag_62:\n      mload(0x40)\n      tag_66\n      swap2\n      swap1\n      tag_39\n      jump\t// in\n    tag_66:\n      mload(0x40)\n      dup1\n      swap2\n      sub\n      swap1\n      return\n        /* \"Custom Token BUY-SELL/customToken.sol\":793:815  string  public  symbol */\n    tag_11:\n      callvalue\n      dup1\n      iszero\n      tag_67\n      jumpi\n      0x00\n      dup1\n      revert\n    tag_67:\n      pop\n      tag_68\n      tag_69\n      jump\t// in\n    tag_68:\n      mload(0x40)\n      tag_70\n      swap2\n      swap1\n      tag_23\n      jump\t// in\n    tag_70:\n      mload(0x40)\n      dup1\n      swap2\n      sub\n      swap1\n      return\n        /* \"Custom Token BUY-SELL/customToken.sol\":1068:1094  address public TokenSeller */\n    tag_12:\n      callvalue\n      dup1\n      iszero\n      tag_71\n      jumpi\n      0x00\n      dup1\n      revert\n    tag_71:\n      pop\n      tag_72\n      tag_73\n      jump\t// in\n    tag_72:\n      mload(0x40)\n      tag_74\n      swap2\n      swap1\n      tag_60\n      jump\t// in\n    tag_74:\n      mload(0x40)\n      dup1\n      swap2\n      sub\n      swap1\n      return\n        /* \"Custom Token BUY-SELL/customToken.sol\":1653:1993  function transfer(address receiver, uint amount) public override returns (bool) {... */\n    tag_13:\n      callvalue\n      dup1\n      iszero\n      tag_75\n      jumpi\n      0x00\n      dup1\n      revert\n    tag_75:\n      pop\n      tag_76\n      0x04\n      dup1\n      calldatasize\n      sub\n      dup2\n      add\n      swap1\n      tag_77\n      swap2\n      swap1\n      tag_27\n      jump\t// in\n    tag_77:\n      tag_78\n      jump\t// in\n    tag_76:\n      mload(0x40)\n      tag_79\n      swap2\n      swap1\n      tag_30\n      jump\t// in\n    tag_79:\n      mload(0x40)\n      dup1\n      swap2\n      sub\n      swap1\n      return\n        /* \"Custom Token BUY-SELL/customToken.sol\":3435:3691  function getSellOrder() public view returns (uint quantity, uint PerTokenPrice) ... */\n    tag_14:\n      callvalue\n      dup1\n      iszero\n      tag_80\n      jumpi\n      0x00\n      dup1\n      revert\n    tag_80:\n      pop\n      tag_81\n      tag_82\n      jump\t// in\n    tag_81:\n      mload(0x40)\n      tag_83\n      swap3\n      swap2\n      swap1\n      tag_84\n      jump\t// in\n    tag_83:\n      mload(0x40)\n      dup1\n      swap2\n      sub\n      swap1\n      return\n        /* \"Custom Token BUY-SELL/customToken.sol\":2227:2363  function allowance(address owner, address spender) public override view returns (uint) {... */\n    tag_15:\n      callvalue\n      dup1\n      iszero\n      tag_85\n      jumpi\n      0x00\n      dup1\n      revert\n    tag_85:\n      pop\n      tag_86\n      0x04\n      dup1\n      calldatasize\n      sub\n      dup2\n      add\n      swap1\n      tag_87\n      swap2\n      swap1\n      tag_88\n      jump\t// in\n    tag_87:\n      tag_89\n      jump\t// in\n    tag_86:\n      mload(0x40)\n      tag_90\n      swap2\n      swap1\n      tag_39\n      jump\t// in\n    tag_90:\n      mload(0x40)\n      dup1\n      swap2\n      sub\n      swap1\n      return\n        /* \"Custom Token BUY-SELL/customToken.sol\":766:786  string  public  name */\n    tag_21:\n      0x00\n      dup1\n      sload\n      tag_91\n      swap1\n      tag_92\n      jump\t// in\n    tag_91:\n      dup1\n      0x1f\n      add\n      0x20\n      dup1\n      swap2\n      div\n      mul\n      0x20\n      add\n      mload(0x40)\n      swap1\n      dup2\n      add\n      0x40\n      mstore\n      dup1\n      swap3\n      swap2\n      swap1\n      dup2\n      dup2\n      mstore\n      0x20\n      add\n      dup3\n      dup1\n      sload\n      tag_93\n      swap1\n      tag_92\n      jump\t// in\n    tag_93:\n      dup1\n      iszero\n      tag_94\n      jumpi\n      dup1\n      0x1f\n      lt\n      tag_95\n      jumpi\n      0x0100\n      dup1\n      dup4\n      sload\n      div\n      mul\n      dup4\n      mstore\n      swap2\n      0x20\n      add\n      swap2\n      jump(tag_94)\n    tag_95:\n      dup3\n      add\n      swap2\n      swap1\n      0x00\n      mstore\n      keccak256(0x00, 0x20)\n      swap1\n    tag_96:\n      dup2\n      sload\n      dup2\n      mstore\n      swap1\n      0x01\n      add\n      swap1\n      0x20\n      add\n      dup1\n      dup4\n      gt\n      tag_96\n      jumpi\n      dup3\n      swap1\n      sub\n      0x1f\n      and\n      dup3\n      add\n      swap2\n    tag_94:\n      pop\n      pop\n      pop\n      pop\n      pop\n      dup2\n      jump\t// out\n        /* \"Custom Token BUY-SELL/customToken.sol\":2001:2219  function approve(address spender, uint numTokens) public override returns (bool) {... */\n    tag_28:\n        /* \"Custom Token BUY-SELL/customToken.sol\":2076:2080  bool */\n      0x00\n        /* \"Custom Token BUY-SELL/customToken.sol\":2124:2133  numTokens */\n      dup2\n        /* \"Custom Token BUY-SELL/customToken.sol\":2093:2100  allowed */\n      0x05\n        /* \"Custom Token BUY-SELL/customToken.sol\":2093:2112  allowed[msg.sender] */\n      0x00\n        /* \"Custom Token BUY-SELL/customToken.sol\":2101:2111  msg.sender */\n      caller\n        /* \"Custom Token BUY-SELL/customToken.sol\":2093:2112  allowed[msg.sender] */\n      0xffffffffffffffffffffffffffffffffffffffff\n      and\n      0xffffffffffffffffffffffffffffffffffffffff\n      and\n      dup2\n      mstore\n      0x20\n      add\n      swap1\n      dup2\n      mstore\n      0x20\n      add\n      0x00\n      keccak256\n        /* \"Custom Token BUY-SELL/customToken.sol\":2093:2121  allowed[msg.sender][spender] */\n      0x00\n        /* \"Custom Token BUY-SELL/customToken.sol\":2113:2120  spender */\n      dup6\n        /* \"Custom Token BUY-SELL/customToken.sol\":2093:2121  allowed[msg.sender][spender] */\n      0xffffffffffffffffffffffffffffffffffffffff\n      and\n      0xffffffffffffffffffffffffffffffffffffffff\n      and\n      dup2\n      mstore\n      0x20\n      add\n      swap1\n      dup2\n      mstore\n      0x20\n      add\n      0x00\n      keccak256\n        /* \"Custom Token BUY-SELL/customToken.sol\":2093:2133  allowed[msg.sender][spender] = numTokens */\n      dup2\n      swap1\n      sstore\n      pop\n        /* \"Custom Token BUY-SELL/customToken.sol\":2170:2177  spender */\n      dup3\n        /* \"Custom Token BUY-SELL/customToken.sol\":2149:2189  Approval(msg.sender, spender, numTokens) */\n      0xffffffffffffffffffffffffffffffffffffffff\n      and\n        /* \"Custom Token BUY-SELL/customToken.sol\":2158:2168  msg.sender */\n      caller\n        /* \"Custom Token BUY-SELL/customToken.sol\":2149:2189  Approval(msg.sender, spender, numTokens) */\n      0xffffffffffffffffffffffffffffffffffffffff\n      and\n      0x8c5be1e5ebec7d5bd14f71427d1e84f3dd0314c0f7b2291e5b200ac8c7c3b925\n        /* \"Custom Token BUY-SELL/customToken.sol\":2179:2188  numTokens */\n      dup5\n        /* \"Custom Token BUY-SELL/customToken.sol\":2149:2189  Approval(msg.sender, spender, numTokens) */\n      mload(0x40)\n      tag_98\n      swap2\n      swap1\n      tag_39\n      jump\t// in\n    tag_98:\n      mload(0x40)\n      dup1\n      swap2\n      sub\n      swap1\n      log3\n        /* \"Custom Token BUY-SELL/customToken.sol\":2207:2211  true */\n      0x01\n        /* \"Custom Token BUY-SELL/customToken.sol\":2200:2211  return true */\n      swap1\n      pop\n        /* \"Custom Token BUY-SELL/customToken.sol\":2001:2219  function approve(address spender, uint numTokens) public override returns (bool) {... */\n      swap3\n      swap2\n      pop\n      pop\n      jump\t// out\n        /* \"Custom Token BUY-SELL/customToken.sol\":3699:4470  function Buy_Token(uint buyQty) public payable //view returns(uint)... */\n    tag_34:\n        /* \"Custom Token BUY-SELL/customToken.sol\":3803:3804  0 */\n      0x00\n        /* \"Custom Token BUY-SELL/customToken.sol\":3791:3800  msg.value */\n      callvalue\n        /* \"Custom Token BUY-SELL/customToken.sol\":3791:3804  msg.value > 0 */\n      gt\n        /* \"Custom Token BUY-SELL/customToken.sol\":3783:3836  require(msg.value > 0,\"it must be greater than Zero\") */\n      tag_100\n      jumpi\n      mload(0x40)\n      0x08c379a000000000000000000000000000000000000000000000000000000000\n      dup2\n      mstore\n      0x04\n      add\n      tag_101\n      swap1\n      tag_102\n      jump\t// in\n    tag_101:\n      mload(0x40)\n      dup1\n      swap2\n      sub\n      swap1\n      revert\n    tag_100:\n        /* \"Custom Token BUY-SELL/customToken.sol\":3864:3865  0 */\n      0x00\n        /* \"Custom Token BUY-SELL/customToken.sol\":3855:3861  buyQty */\n      dup2\n        /* \"Custom Token BUY-SELL/customToken.sol\":3855:3865  buyQty > 0 */\n      gt\n        /* \"Custom Token BUY-SELL/customToken.sol\":3847:3903  require(buyQty > 0,\"Quantity must be greater than Zero\") */\n      tag_103\n      jumpi\n      mload(0x40)\n      0x08c379a000000000000000000000000000000000000000000000000000000000\n      dup2\n      mstore\n      0x04\n      add\n      tag_104\n      swap1\n      tag_105\n      jump\t// in\n    tag_104:\n      mload(0x40)\n      dup1\n      swap2\n      sub\n      swap1\n      revert\n    tag_103:\n        /* \"Custom Token BUY-SELL/customToken.sol\":3932:3940  balances */\n      0x04\n        /* \"Custom Token BUY-SELL/customToken.sol\":3932:3953  balances[TokenSeller] */\n      0x00\n        /* \"Custom Token BUY-SELL/customToken.sol\":3941:3952  TokenSeller */\n      0x08\n      0x00\n      swap1\n      sload\n      swap1\n      0x0100\n      exp\n      swap1\n      div\n      0xffffffffffffffffffffffffffffffffffffffff\n      and\n        /* \"Custom Token BUY-SELL/customToken.sol\":3932:3953  balances[TokenSeller] */\n      0xffffffffffffffffffffffffffffffffffffffff\n      and\n      0xffffffffffffffffffffffffffffffffffffffff\n      and\n      dup2\n      mstore\n      0x20\n      add\n      swap1\n      dup2\n      mstore\n      0x20\n      add\n      0x00\n      keccak256\n      sload\n        /* \"Custom Token BUY-SELL/customToken.sol\":3922:3928  buyQty */\n      dup2\n        /* \"Custom Token BUY-SELL/customToken.sol\":3922:3953  buyQty <= balances[TokenSeller] */\n      gt\n      iszero\n        /* \"Custom Token BUY-SELL/customToken.sol\":3914:3977  require(buyQty <= balances[TokenSeller],\"please check quanity\") */\n      tag_106\n      jumpi\n      mload(0x40)\n      0x08c379a000000000000000000000000000000000000000000000000000000000\n      dup2\n      mstore\n      0x04\n      add\n      tag_107\n      swap1\n      tag_108\n      jump\t// in\n    tag_107:\n      mload(0x40)\n      dup1\n      swap2\n      sub\n      swap1\n      revert\n    tag_106:\n        /* \"Custom Token BUY-SELL/customToken.sol\":3988:4001  uint totalPay */\n      0x00\n        /* \"Custom Token BUY-SELL/customToken.sol\":4013:4026  SellListPrice */\n      0x07\n        /* \"Custom Token BUY-SELL/customToken.sol\":4013:4039  SellListPrice[TokenSeller] */\n      0x00\n        /* \"Custom Token BUY-SELL/customToken.sol\":4027:4038  TokenSeller */\n      0x08\n      0x00\n      swap1\n      sload\n      swap1\n      0x0100\n      exp\n      swap1\n      div\n      0xffffffffffffffffffffffffffffffffffffffff\n      and\n        /* \"Custom Token BUY-SELL/customToken.sol\":4013:4039  SellListPrice[TokenSeller] */\n      0xffffffffffffffffffffffffffffffffffffffff\n      and\n      0xffffffffffffffffffffffffffffffffffffffff\n      and\n      dup2\n      mstore\n      0x20\n      add\n      swap1\n      dup2\n      mstore\n      0x20\n      add\n      0x00\n      keccak256\n      sload\n        /* \"Custom Token BUY-SELL/customToken.sol\":4004:4010  buyQty */\n      dup3\n        /* \"Custom Token BUY-SELL/customToken.sol\":4004:4039  buyQty * SellListPrice[TokenSeller] */\n      tag_109\n      swap2\n      swap1\n      tag_110\n      jump\t// in\n    tag_109:\n        /* \"Custom Token BUY-SELL/customToken.sol\":3988:4039  uint totalPay = buyQty * SellListPrice[TokenSeller] */\n      swap1\n      pop\n        /* \"Custom Token BUY-SELL/customToken.sol\":4069:4077  totalPay */\n      dup1\n        /* \"Custom Token BUY-SELL/customToken.sol\":4058:4067  msg.value */\n      callvalue\n        /* \"Custom Token BUY-SELL/customToken.sol\":4058:4077  msg.value==totalPay */\n      eq\n        /* \"Custom Token BUY-SELL/customToken.sol\":4050:4093  require(msg.value==totalPay,\"Check amount\") */\n      tag_111\n      jumpi\n      mload(0x40)\n      0x08c379a000000000000000000000000000000000000000000000000000000000\n      dup2\n      mstore\n      0x04\n      add\n      tag_112\n      swap1\n      tag_113\n      jump\t// in\n    tag_112:\n      mload(0x40)\n      dup1\n      swap2\n      sub\n      swap1\n      revert\n    tag_111:\n        /* \"Custom Token BUY-SELL/customToken.sol\":4125:4135  msg.sender */\n      caller\n        /* \"Custom Token BUY-SELL/customToken.sol\":4124:4144  (msg.sender).balance */\n      0xffffffffffffffffffffffffffffffffffffffff\n      and\n      balance\n        /* \"Custom Token BUY-SELL/customToken.sol\":4112:4120  totalPay */\n      dup2\n        /* \"Custom Token BUY-SELL/customToken.sol\":4112:4144  totalPay <= (msg.sender).balance */\n      gt\n      iszero\n        /* \"Custom Token BUY-SELL/customToken.sol\":4104:4172  require(totalPay <= (msg.sender).balance,\"Check Your Total Balance\") */\n      tag_114\n      jumpi\n      mload(0x40)\n      0x08c379a000000000000000000000000000000000000000000000000000000000\n      dup2\n      mstore\n      0x04\n      add\n      tag_115\n      swap1\n      tag_116\n      jump\t// in\n    tag_115:\n      mload(0x40)\n      dup1\n      swap2\n      sub\n      swap1\n      revert\n    tag_114:\n        /* \"Custom Token BUY-SELL/customToken.sol\":4210:4216  buyQty */\n      dup2\n        /* \"Custom Token BUY-SELL/customToken.sol\":4183:4191  balances */\n      0x04\n        /* \"Custom Token BUY-SELL/customToken.sol\":4183:4206  balances[address(this)] */\n      0x00\n        /* \"Custom Token BUY-SELL/customToken.sol\":4200:4204  this */\n      address\n        /* \"Custom Token BUY-SELL/customToken.sol\":4183:4206  balances[address(this)] */\n      0xffffffffffffffffffffffffffffffffffffffff\n      and\n      0xffffffffffffffffffffffffffffffffffffffff\n      and\n      dup2\n      mstore\n      0x20\n      add\n      swap1\n      dup2\n      mstore\n      0x20\n      add\n      0x00\n      keccak256\n      0x00\n        /* \"Custom Token BUY-SELL/customToken.sol\":4183:4216  balances[address(this)] -= buyQty */\n      dup3\n      dup3\n      sload\n      tag_117\n      swap2\n      swap1\n      tag_118\n      jump\t// in\n    tag_117:\n      swap3\n      pop\n      pop\n      dup2\n      swap1\n      sstore\n      pop\n        /* \"Custom Token BUY-SELL/customToken.sol\":4240:4250  msg.sender */\n      caller\n        /* \"Custom Token BUY-SELL/customToken.sol\":4227:4237  TokenBuyer */\n      0x09\n      0x00\n        /* \"Custom Token BUY-SELL/customToken.sol\":4227:4250  TokenBuyer = msg.sender */\n      0x0100\n      exp\n      dup2\n      sload\n      dup2\n      0xffffffffffffffffffffffffffffffffffffffff\n      mul\n      not\n      and\n      swap1\n      dup4\n      0xffffffffffffffffffffffffffffffffffffffff\n      and\n      mul\n      or\n      swap1\n      sstore\n      pop\n        /* \"Custom Token BUY-SELL/customToken.sol\":4285:4291  buyQty */\n      dup2\n        /* \"Custom Token BUY-SELL/customToken.sol\":4261:4269  balances */\n      0x04\n        /* \"Custom Token BUY-SELL/customToken.sol\":4261:4281  balances[TokenBuyer] */\n      0x00\n        /* \"Custom Token BUY-SELL/customToken.sol\":4270:4280  TokenBuyer */\n      0x09\n      0x00\n      swap1\n      sload\n      swap1\n      0x0100\n      exp\n      swap1\n      div\n      0xffffffffffffffffffffffffffffffffffffffff\n      and\n        /* \"Custom Token BUY-SELL/customToken.sol\":4261:4281  balances[TokenBuyer] */\n      0xffffffffffffffffffffffffffffffffffffffff\n      and\n      0xffffffffffffffffffffffffffffffffffffffff\n      and\n      dup2\n      mstore\n      0x20\n      add\n      swap1\n      dup2\n      mstore\n      0x20\n      add\n      0x00\n      keccak256\n      0x00\n        /* \"Custom Token BUY-SELL/customToken.sol\":4261:4291  balances[TokenBuyer] += buyQty */\n      dup3\n      dup3\n      sload\n      tag_119\n      swap2\n      swap1\n      tag_120\n      jump\t// in\n    tag_119:\n      swap3\n      pop\n      pop\n      dup2\n      swap1\n      sstore\n      pop\n        /* \"Custom Token BUY-SELL/customToken.sol\":4312:4323  TokenSeller */\n      0x08\n      0x00\n      swap1\n      sload\n      swap1\n      0x0100\n      exp\n      swap1\n      div\n      0xffffffffffffffffffffffffffffffffffffffff\n      and\n        /* \"Custom Token BUY-SELL/customToken.sol\":4304:4333  payable(TokenSeller).transfer */\n      0xffffffffffffffffffffffffffffffffffffffff\n      and\n        /* \"Custom Token BUY-SELL/customToken.sol\":4304:4343  payable(TokenSeller).transfer(totalPay) */\n      0x08fc\n        /* \"Custom Token BUY-SELL/customToken.sol\":4334:4342  totalPay */\n      dup3\n        /* \"Custom Token BUY-SELL/customToken.sol\":4304:4343  payable(TokenSeller).transfer(totalPay) */\n      swap1\n      dup2\n      iszero\n      mul\n      swap1\n      mload(0x40)\n      0x00\n      mload(0x40)\n      dup1\n      dup4\n      sub\n      dup2\n      dup6\n      dup9\n      dup9\n      call\n      swap4\n      pop\n      pop\n      pop\n      pop\n      iszero\n      dup1\n      iszero\n      tag_122\n      jumpi\n      returndatasize\n      0x00\n      dup1\n      returndatacopy\n      revert(0x00, returndatasize)\n    tag_122:\n      pop\n        /* \"Custom Token BUY-SELL/customToken.sol\":3772:4470  {... */\n      pop\n        /* \"Custom Token BUY-SELL/customToken.sol\":3699:4470  function Buy_Token(uint buyQty) public payable //view returns(uint)... */\n      pop\n      jump\t// out\n        /* \"Custom Token BUY-SELL/customToken.sol\":1419:1516  function totalSupply() public override view returns (uint) {... */\n    tag_37:\n        /* \"Custom Token BUY-SELL/customToken.sol\":1472:1476  uint */\n      0x00\n        /* \"Custom Token BUY-SELL/customToken.sol\":1496:1508  totalSupply_ */\n      sload(0x03)\n        /* \"Custom Token BUY-SELL/customToken.sol\":1489:1508  return totalSupply_ */\n      swap1\n      pop\n        /* \"Custom Token BUY-SELL/customToken.sol\":1419:1516  function totalSupply() public override view returns (uint) {... */\n      swap1\n      jump\t// out\n        /* \"Custom Token BUY-SELL/customToken.sol\":2868:3426  function sellToken(uint quantity,uint PerTokenPrice) public... */\n    tag_44:\n        /* \"Custom Token BUY-SELL/customToken.sol\":2964:2972  balances */\n      0x04\n        /* \"Custom Token BUY-SELL/customToken.sol\":2964:2984  balances[msg.sender] */\n      0x00\n        /* \"Custom Token BUY-SELL/customToken.sol\":2973:2983  msg.sender */\n      caller\n        /* \"Custom Token BUY-SELL/customToken.sol\":2964:2984  balances[msg.sender] */\n      0xffffffffffffffffffffffffffffffffffffffff\n      and\n      0xffffffffffffffffffffffffffffffffffffffff\n      and\n      dup2\n      mstore\n      0x20\n      add\n      swap1\n      dup2\n      mstore\n      0x20\n      add\n      0x00\n      keccak256\n      sload\n        /* \"Custom Token BUY-SELL/customToken.sol\":2952:2960  quantity */\n      dup3\n        /* \"Custom Token BUY-SELL/customToken.sol\":2952:2984  quantity <= balances[msg.sender] */\n      gt\n      iszero\n        /* \"Custom Token BUY-SELL/customToken.sol\":2944:3013  require(quantity <= balances[msg.sender],\"You have't enough balance\") */\n      tag_125\n      jumpi\n      mload(0x40)\n      0x08c379a000000000000000000000000000000000000000000000000000000000\n      dup2\n      mstore\n      0x04\n      add\n      tag_126\n      swap1\n      tag_127\n      jump\t// in\n    tag_126:\n      mload(0x40)\n      dup1\n      swap2\n      sub\n      swap1\n      revert\n    tag_125:\n        /* \"Custom Token BUY-SELL/customToken.sol\":3049:3050  0 */\n      0x00\n        /* \"Custom Token BUY-SELL/customToken.sol\":3032:3045  PerTokenPrice */\n      dup2\n        /* \"Custom Token BUY-SELL/customToken.sol\":3032:3050  PerTokenPrice >= 0 */\n      lt\n      iszero\n        /* \"Custom Token BUY-SELL/customToken.sol\":3024:3088  require(PerTokenPrice >= 0,\"Selling price can't be less than 0\") */\n      tag_128\n      jumpi\n      mload(0x40)\n      0x08c379a000000000000000000000000000000000000000000000000000000000\n      dup2\n      mstore\n      0x04\n      add\n      tag_129\n      swap1\n      tag_130\n      jump\t// in\n    tag_129:\n      mload(0x40)\n      dup1\n      swap2\n      sub\n      swap1\n      revert\n    tag_128:\n        /* \"Custom Token BUY-SELL/customToken.sol\":3111:3121  msg.sender */\n      caller\n        /* \"Custom Token BUY-SELL/customToken.sol\":3099:3110  TokenSeller */\n      0x08\n      0x00\n        /* \"Custom Token BUY-SELL/customToken.sol\":3099:3121  TokenSeller=msg.sender */\n      0x0100\n      exp\n      dup2\n      sload\n      dup2\n      0xffffffffffffffffffffffffffffffffffffffff\n      mul\n      not\n      and\n      swap1\n      dup4\n      0xffffffffffffffffffffffffffffffffffffffff\n      and\n      mul\n      or\n      swap1\n      sstore\n      pop\n        /* \"Custom Token BUY-SELL/customToken.sol\":3154:3162  quantity */\n      dup2\n        /* \"Custom Token BUY-SELL/customToken.sol\":3132:3140  SellList */\n      0x06\n        /* \"Custom Token BUY-SELL/customToken.sol\":3132:3153  SellList[TokenSeller] */\n      0x00\n        /* \"Custom Token BUY-SELL/customToken.sol\":3141:3152  TokenSeller */\n      0x08\n      0x00\n      swap1\n      sload\n      swap1\n      0x0100\n      exp\n      swap1\n      div\n      0xffffffffffffffffffffffffffffffffffffffff\n      and\n        /* \"Custom Token BUY-SELL/customToken.sol\":3132:3153  SellList[TokenSeller] */\n      0xffffffffffffffffffffffffffffffffffffffff\n      and\n      0xffffffffffffffffffffffffffffffffffffffff\n      and\n      dup2\n      mstore\n      0x20\n      add\n      swap1\n      dup2\n      mstore\n      0x20\n      add\n      0x00\n      keccak256\n        /* \"Custom Token BUY-SELL/customToken.sol\":3132:3162  SellList[TokenSeller]=quantity */\n      dup2\n      swap1\n      sstore\n      pop\n        /* \"Custom Token BUY-SELL/customToken.sol\":3200:3213  PerTokenPrice */\n      dup1\n        /* \"Custom Token BUY-SELL/customToken.sol\":3173:3186  SellListPrice */\n      0x07\n        /* \"Custom Token BUY-SELL/customToken.sol\":3173:3199  SellListPrice[TokenSeller] */\n      0x00\n        /* \"Custom Token BUY-SELL/customToken.sol\":3187:3198  TokenSeller */\n      0x08\n      0x00\n      swap1\n      sload\n      swap1\n      0x0100\n      exp\n      swap1\n      div\n      0xffffffffffffffffffffffffffffffffffffffff\n      and\n        /* \"Custom Token BUY-SELL/customToken.sol\":3173:3199  SellListPrice[TokenSeller] */\n      0xffffffffffffffffffffffffffffffffffffffff\n      and\n      0xffffffffffffffffffffffffffffffffffffffff\n      and\n      dup2\n      mstore\n      0x20\n      add\n      swap1\n      dup2\n      mstore\n      0x20\n      add\n      0x00\n      keccak256\n        /* \"Custom Token BUY-SELL/customToken.sol\":3173:3213  SellListPrice[TokenSeller]=PerTokenPrice */\n      dup2\n      swap1\n      sstore\n      pop\n        /* \"Custom Token BUY-SELL/customToken.sol\":3308:3316  quantity */\n      dup2\n        /* \"Custom Token BUY-SELL/customToken.sol\":3283:3291  balances */\n      0x04\n        /* \"Custom Token BUY-SELL/customToken.sol\":3283:3304  balances[TokenSeller] */\n      0x00\n        /* \"Custom Token BUY-SELL/customToken.sol\":3292:3303  TokenSeller */\n      0x08\n      0x00\n      swap1\n      sload\n      swap1\n      0x0100\n      exp\n      swap1\n      div\n      0xffffffffffffffffffffffffffffffffffffffff\n      and\n        /* \"Custom Token BUY-SELL/customToken.sol\":3283:3304  balances[TokenSeller] */\n      0xffffffffffffffffffffffffffffffffffffffff\n      and\n      0xffffffffffffffffffffffffffffffffffffffff\n      and\n      dup2\n      mstore\n      0x20\n      add\n      swap1\n      dup2\n      mstore\n      0x20\n      add\n      0x00\n      keccak256\n      0x00\n        /* \"Custom Token BUY-SELL/customToken.sol\":3283:3316  balances[TokenSeller] -= quantity */\n      dup3\n      dup3\n      sload\n      tag_131\n      swap2\n      swap1\n      tag_118\n      jump\t// in\n    tag_131:\n      swap3\n      pop\n      pop\n      dup2\n      swap1\n      sstore\n      pop\n        /* \"Custom Token BUY-SELL/customToken.sol\":3410:3418  quantity */\n      dup2\n        /* \"Custom Token BUY-SELL/customToken.sol\":3383:3391  balances */\n      0x04\n        /* \"Custom Token BUY-SELL/customToken.sol\":3383:3406  balances[address(this)] */\n      0x00\n        /* \"Custom Token BUY-SELL/customToken.sol\":3400:3404  this */\n      address\n        /* \"Custom Token BUY-SELL/customToken.sol\":3383:3406  balances[address(this)] */\n      0xffffffffffffffffffffffffffffffffffffffff\n      and\n      0xffffffffffffffffffffffffffffffffffffffff\n      and\n      dup2\n      mstore\n      0x20\n      add\n      swap1\n      dup2\n      mstore\n      0x20\n      add\n      0x00\n      keccak256\n      0x00\n        /* \"Custom Token BUY-SELL/customToken.sol\":3383:3418  balances[address(this)] += quantity */\n      dup3\n      dup3\n      sload\n      tag_132\n      swap2\n      swap1\n      tag_120\n      jump\t// in\n    tag_132:\n      swap3\n      pop\n      pop\n      dup2\n      swap1\n      sstore\n      pop\n        /* \"Custom Token BUY-SELL/customToken.sol\":2868:3426  function sellToken(uint quantity,uint PerTokenPrice) public... */\n      pop\n      pop\n      jump\t// out\n        /* \"Custom Token BUY-SELL/customToken.sol\":2371:2807  function transferFrom(address owner, address to, uint numTokens) public override returns (bool) {... */\n    tag_49:\n        /* \"Custom Token BUY-SELL/customToken.sol\":2461:2465  bool */\n      0x00\n        /* \"Custom Token BUY-SELL/customToken.sol\":2499:2507  balances */\n      0x04\n        /* \"Custom Token BUY-SELL/customToken.sol\":2499:2514  balances[owner] */\n      0x00\n        /* \"Custom Token BUY-SELL/customToken.sol\":2508:2513  owner */\n      dup6\n        /* \"Custom Token BUY-SELL/customToken.sol\":2499:2514  balances[owner] */\n      0xffffffffffffffffffffffffffffffffffffffff\n      and\n      0xffffffffffffffffffffffffffffffffffffffff\n      and\n      dup2\n      mstore\n      0x20\n      add\n      swap1\n      dup2\n      mstore\n      0x20\n      add\n      0x00\n      keccak256\n      sload\n        /* \"Custom Token BUY-SELL/customToken.sol\":2486:2495  numTokens */\n      dup3\n        /* \"Custom Token BUY-SELL/customToken.sol\":2486:2514  numTokens <= balances[owner] */\n      gt\n      iszero\n        /* \"Custom Token BUY-SELL/customToken.sol\":2478:2515  require(numTokens <= balances[owner]) */\n      tag_134\n      jumpi\n      0x00\n      dup1\n      revert\n    tag_134:\n        /* \"Custom Token BUY-SELL/customToken.sol\":2547:2554  allowed */\n      0x05\n        /* \"Custom Token BUY-SELL/customToken.sol\":2547:2561  allowed[owner] */\n      0x00\n        /* \"Custom Token BUY-SELL/customToken.sol\":2555:2560  owner */\n      dup6\n        /* \"Custom Token BUY-SELL/customToken.sol\":2547:2561  allowed[owner] */\n      0xffffffffffffffffffffffffffffffffffffffff\n      and\n      0xffffffffffffffffffffffffffffffffffffffff\n      and\n      dup2\n      mstore\n      0x20\n      add\n      swap1\n      dup2\n      mstore\n      0x20\n      add\n      0x00\n      keccak256\n        /* \"Custom Token BUY-SELL/customToken.sol\":2547:2573  allowed[owner][msg.sender] */\n      0x00\n        /* \"Custom Token BUY-SELL/customToken.sol\":2562:2572  msg.sender */\n      caller\n        /* \"Custom Token BUY-SELL/customToken.sol\":2547:2573  allowed[owner][msg.sender] */\n      0xffffffffffffffffffffffffffffffffffffffff\n      and\n      0xffffffffffffffffffffffffffffffffffffffff\n      and\n      dup2\n      mstore\n      0x20\n      add\n      swap1\n      dup2\n      mstore\n      0x20\n      add\n      0x00\n      keccak256\n      sload\n        /* \"Custom Token BUY-SELL/customToken.sol\":2534:2543  numTokens */\n      dup3\n        /* \"Custom Token BUY-SELL/customToken.sol\":2534:2573  numTokens <= allowed[owner][msg.sender] */\n      gt\n      iszero\n        /* \"Custom Token BUY-SELL/customToken.sol\":2526:2574  require(numTokens <= allowed[owner][msg.sender]) */\n      tag_135\n      jumpi\n      0x00\n      dup1\n      revert\n    tag_135:\n        /* \"Custom Token BUY-SELL/customToken.sol\":2606:2615  numTokens */\n      dup2\n        /* \"Custom Token BUY-SELL/customToken.sol\":2587:2595  balances */\n      0x04\n        /* \"Custom Token BUY-SELL/customToken.sol\":2587:2602  balances[owner] */\n      0x00\n        /* \"Custom Token BUY-SELL/customToken.sol\":2596:2601  owner */\n      dup7\n        /* \"Custom Token BUY-SELL/customToken.sol\":2587:2602  balances[owner] */\n      0xffffffffffffffffffffffffffffffffffffffff\n      and\n      0xffffffffffffffffffffffffffffffffffffffff\n      and\n      dup2\n      mstore\n      0x20\n      add\n      swap1\n      dup2\n      mstore\n      0x20\n      add\n      0x00\n      keccak256\n      0x00\n        /* \"Custom Token BUY-SELL/customToken.sol\":2587:2615  balances[owner] -= numTokens */\n      dup3\n      dup3\n      sload\n      tag_136\n      swap2\n      swap1\n      tag_118\n      jump\t// in\n    tag_136:\n      swap3\n      pop\n      pop\n      dup2\n      swap1\n      sstore\n      pop\n        /* \"Custom Token BUY-SELL/customToken.sol\":2685:2694  numTokens */\n      dup2\n        /* \"Custom Token BUY-SELL/customToken.sol\":2655:2662  allowed */\n      0x05\n        /* \"Custom Token BUY-SELL/customToken.sol\":2655:2669  allowed[owner] */\n      0x00\n        /* \"Custom Token BUY-SELL/customToken.sol\":2663:2668  owner */\n      dup7\n        /* \"Custom Token BUY-SELL/customToken.sol\":2655:2669  allowed[owner] */\n      0xffffffffffffffffffffffffffffffffffffffff\n      and\n      0xffffffffffffffffffffffffffffffffffffffff\n      and\n      dup2\n      mstore\n      0x20\n      add\n      swap1\n      dup2\n      mstore\n      0x20\n      add\n      0x00\n      keccak256\n        /* \"Custom Token BUY-SELL/customToken.sol\":2655:2681  allowed[owner][msg.sender] */\n      0x00\n        /* \"Custom Token BUY-SELL/customToken.sol\":2670:2680  msg.sender */\n      caller\n        /* \"Custom Token BUY-SELL/customToken.sol\":2655:2681  allowed[owner][msg.sender] */\n      0xffffffffffffffffffffffffffffffffffffffff\n      and\n      0xffffffffffffffffffffffffffffffffffffffff\n      and\n      dup2\n      mstore\n      0x20\n      add\n      swap1\n      dup2\n      mstore\n      0x20\n      add\n      0x00\n      keccak256\n      sload\n        /* \"Custom Token BUY-SELL/customToken.sol\":2655:2695  allowed[owner][msg.sender] - (numTokens) */\n      tag_137\n      swap2\n      swap1\n      tag_118\n      jump\t// in\n    tag_137:\n        /* \"Custom Token BUY-SELL/customToken.sol\":2626:2633  allowed */\n      0x05\n        /* \"Custom Token BUY-SELL/customToken.sol\":2626:2640  allowed[owner] */\n      0x00\n        /* \"Custom Token BUY-SELL/customToken.sol\":2634:2639  owner */\n      dup7\n        /* \"Custom Token BUY-SELL/customToken.sol\":2626:2640  allowed[owner] */\n      0xffffffffffffffffffffffffffffffffffffffff\n      and\n      0xffffffffffffffffffffffffffffffffffffffff\n      and\n      dup2\n      mstore\n      0x20\n      add\n      swap1\n      dup2\n      mstore\n      0x20\n      add\n      0x00\n      keccak256\n        /* \"Custom Token BUY-SELL/customToken.sol\":2626:2652  allowed[owner][msg.sender] */\n      0x00\n        /* \"Custom Token BUY-SELL/customToken.sol\":2641:2651  msg.sender */\n      caller\n        /* \"Custom Token BUY-SELL/customToken.sol\":2626:2652  allowed[owner][msg.sender] */\n      0xffffffffffffffffffffffffffffffffffffffff\n      and\n      0xffffffffffffffffffffffffffffffffffffffff\n      and\n      dup2\n      mstore\n      0x20\n      add\n      swap1\n      dup2\n      mstore\n      0x20\n      add\n      0x00\n      keccak256\n        /* \"Custom Token BUY-SELL/customToken.sol\":2626:2695  allowed[owner][msg.sender] = allowed[owner][msg.sender] - (numTokens) */\n      dup2\n      swap1\n      sstore\n      pop\n        /* \"Custom Token BUY-SELL/customToken.sol\":2722:2731  numTokens */\n      dup2\n        /* \"Custom Token BUY-SELL/customToken.sol\":2706:2714  balances */\n      0x04\n        /* \"Custom Token BUY-SELL/customToken.sol\":2706:2718  balances[to] */\n      0x00\n        /* \"Custom Token BUY-SELL/customToken.sol\":2715:2717  to */\n      dup6\n        /* \"Custom Token BUY-SELL/customToken.sol\":2706:2718  balances[to] */\n      0xffffffffffffffffffffffffffffffffffffffff\n      and\n      0xffffffffffffffffffffffffffffffffffffffff\n      and\n      dup2\n      mstore\n      0x20\n      add\n      swap1\n      dup2\n      mstore\n      0x20\n      add\n      0x00\n      keccak256\n      0x00\n        /* \"Custom Token BUY-SELL/customToken.sol\":2706:2731  balances[to] += numTokens */\n      dup3\n      dup3\n      sload\n      tag_138\n      swap2\n      swap1\n      tag_120\n      jump\t// in\n    tag_138:\n      swap3\n      pop\n      pop\n      dup2\n      swap1\n      sstore\n      pop\n        /* \"Custom Token BUY-SELL/customToken.sol\":2763:2765  to */\n      dup3\n        /* \"Custom Token BUY-SELL/customToken.sol\":2747:2777  Transfer(owner, to, numTokens) */\n      0xffffffffffffffffffffffffffffffffffffffff\n      and\n        /* \"Custom Token BUY-SELL/customToken.sol\":2756:2761  owner */\n      dup5\n        /* \"Custom Token BUY-SELL/customToken.sol\":2747:2777  Transfer(owner, to, numTokens) */\n      0xffffffffffffffffffffffffffffffffffffffff\n      and\n      0xddf252ad1be2c89b69c2b068fc378daa952ba7f163c4a11628f55a4df523b3ef\n        /* \"Custom Token BUY-SELL/customToken.sol\":2767:2776  numTokens */\n      dup5\n        /* \"Custom Token BUY-SELL/customToken.sol\":2747:2777  Transfer(owner, to, numTokens) */\n      mload(0x40)\n      tag_139\n      swap2\n      swap1\n      tag_39\n      jump\t// in\n    tag_139:\n      mload(0x40)\n      dup1\n      swap2\n      sub\n      swap1\n      log3\n        /* \"Custom Token BUY-SELL/customToken.sol\":2795:2799  true */\n      0x01\n        /* \"Custom Token BUY-SELL/customToken.sol\":2788:2799  return true */\n      swap1\n      pop\n        /* \"Custom Token BUY-SELL/customToken.sol\":2371:2807  function transferFrom(address owner, address to, uint numTokens) public override returns (bool) {... */\n      swap4\n      swap3\n      pop\n      pop\n      pop\n      jump\t// out\n        /* \"Custom Token BUY-SELL/customToken.sol\":822:846  uint8   public  decimals */\n    tag_53:\n      0x02\n      0x00\n      swap1\n      sload\n      swap1\n      0x0100\n      exp\n      swap1\n      div\n      0xff\n      and\n      dup2\n      jump\t// out\n        /* \"Custom Token BUY-SELL/customToken.sol\":1101:1126  address public TokenBuyer */\n    tag_58:\n      0x09\n      0x00\n      swap1\n      sload\n      swap1\n      0x0100\n      exp\n      swap1\n      div\n      0xffffffffffffffffffffffffffffffffffffffff\n      and\n      dup2\n      jump\t// out\n        /* \"Custom Token BUY-SELL/customToken.sol\":1524:1645  function balanceOf(address tokenOwner) public override view returns (uint) {... */\n    tag_65:\n        /* \"Custom Token BUY-SELL/customToken.sol\":1593:1597  uint */\n      0x00\n        /* \"Custom Token BUY-SELL/customToken.sol\":1617:1625  balances */\n      0x04\n        /* \"Custom Token BUY-SELL/customToken.sol\":1617:1637  balances[tokenOwner] */\n      0x00\n        /* \"Custom Token BUY-SELL/customToken.sol\":1626:1636  tokenOwner */\n      dup4\n        /* \"Custom Token BUY-SELL/customToken.sol\":1617:1637  balances[tokenOwner] */\n      0xffffffffffffffffffffffffffffffffffffffff\n      and\n      0xffffffffffffffffffffffffffffffffffffffff\n      and\n      dup2\n      mstore\n      0x20\n      add\n      swap1\n      dup2\n      mstore\n      0x20\n      add\n      0x00\n      keccak256\n      sload\n        /* \"Custom Token BUY-SELL/customToken.sol\":1610:1637  return balances[tokenOwner] */\n      swap1\n      pop\n        /* \"Custom Token BUY-SELL/customToken.sol\":1524:1645  function balanceOf(address tokenOwner) public override view returns (uint) {... */\n      swap2\n      swap1\n      pop\n      jump\t// out\n        /* \"Custom Token BUY-SELL/customToken.sol\":793:815  string  public  symbol */\n    tag_69:\n      0x01\n      dup1\n      sload\n      tag_141\n      swap1\n      tag_92\n      jump\t// in\n    tag_141:\n      dup1\n      0x1f\n      add\n      0x20\n      dup1\n      swap2\n      div\n      mul\n      0x20\n      add\n      mload(0x40)\n      swap1\n      dup2\n      add\n      0x40\n      mstore\n      dup1\n      swap3\n      swap2\n      swap1\n      dup2\n      dup2\n      mstore\n      0x20\n      add\n      dup3\n      dup1\n      sload\n      tag_142\n      swap1\n      tag_92\n      jump\t// in\n    tag_142:\n      dup1\n      iszero\n      tag_143\n      jumpi\n      dup1\n      0x1f\n      lt\n      tag_144\n      jumpi\n      0x0100\n      dup1\n      dup4\n      sload\n      div\n      mul\n      dup4\n      mstore\n      swap2\n      0x20\n      add\n      swap2\n      jump(tag_143)\n    tag_144:\n      dup3\n      add\n      swap2\n      swap1\n      0x00\n      mstore\n      keccak256(0x00, 0x20)\n      swap1\n    tag_145:\n      dup2\n      sload\n      dup2\n      mstore\n      swap1\n      0x01\n      add\n      swap1\n      0x20\n      add\n      dup1\n      dup4\n      gt\n      tag_145\n      jumpi\n      dup3\n      swap1\n      sub\n      0x1f\n      and\n      dup3\n      add\n      swap2\n    tag_143:\n      pop\n      pop\n      pop\n      pop\n      pop\n      dup2\n      jump\t// out\n        /* \"Custom Token BUY-SELL/customToken.sol\":1068:1094  address public TokenSeller */\n    tag_73:\n      0x08\n      0x00\n      swap1\n      sload\n      swap1\n      0x0100\n      exp\n      swap1\n      div\n      0xffffffffffffffffffffffffffffffffffffffff\n      and\n      dup2\n      jump\t// out\n        /* \"Custom Token BUY-SELL/customToken.sol\":1653:1993  function transfer(address receiver, uint amount) public override returns (bool) {... */\n    tag_78:\n        /* \"Custom Token BUY-SELL/customToken.sol\":1727:1731  bool */\n      0x00\n        /* \"Custom Token BUY-SELL/customToken.sol\":1762:1770  balances */\n      0x04\n        /* \"Custom Token BUY-SELL/customToken.sol\":1762:1782  balances[msg.sender] */\n      0x00\n        /* \"Custom Token BUY-SELL/customToken.sol\":1771:1781  msg.sender */\n      caller\n        /* \"Custom Token BUY-SELL/customToken.sol\":1762:1782  balances[msg.sender] */\n      0xffffffffffffffffffffffffffffffffffffffff\n      and\n      0xffffffffffffffffffffffffffffffffffffffff\n      and\n      dup2\n      mstore\n      0x20\n      add\n      swap1\n      dup2\n      mstore\n      0x20\n      add\n      0x00\n      keccak256\n      sload\n        /* \"Custom Token BUY-SELL/customToken.sol\":1752:1758  amount */\n      dup3\n        /* \"Custom Token BUY-SELL/customToken.sol\":1752:1782  amount <= balances[msg.sender] */\n      gt\n      iszero\n        /* \"Custom Token BUY-SELL/customToken.sol\":1744:1783  require(amount <= balances[msg.sender]) */\n      tag_147\n      jumpi\n      0x00\n      dup1\n      revert\n    tag_147:\n        /* \"Custom Token BUY-SELL/customToken.sol\":1841:1847  amount */\n      dup2\n        /* \"Custom Token BUY-SELL/customToken.sol\":1817:1825  balances */\n      0x04\n        /* \"Custom Token BUY-SELL/customToken.sol\":1817:1837  balances[msg.sender] */\n      0x00\n        /* \"Custom Token BUY-SELL/customToken.sol\":1826:1836  msg.sender */\n      caller\n        /* \"Custom Token BUY-SELL/customToken.sol\":1817:1837  balances[msg.sender] */\n      0xffffffffffffffffffffffffffffffffffffffff\n      and\n      0xffffffffffffffffffffffffffffffffffffffff\n      and\n      dup2\n      mstore\n      0x20\n      add\n      swap1\n      dup2\n      mstore\n      0x20\n      add\n      0x00\n      keccak256\n      sload\n        /* \"Custom Token BUY-SELL/customToken.sol\":1817:1848  balances[msg.sender] - (amount) */\n      tag_148\n      swap2\n      swap1\n      tag_118\n      jump\t// in\n    tag_148:\n        /* \"Custom Token BUY-SELL/customToken.sol\":1794:1802  balances */\n      0x04\n        /* \"Custom Token BUY-SELL/customToken.sol\":1794:1814  balances[msg.sender] */\n      0x00\n        /* \"Custom Token BUY-SELL/customToken.sol\":1803:1813  msg.sender */\n      caller\n        /* \"Custom Token BUY-SELL/customToken.sol\":1794:1814  balances[msg.sender] */\n      0xffffffffffffffffffffffffffffffffffffffff\n      and\n      0xffffffffffffffffffffffffffffffffffffffff\n      and\n      dup2\n      mstore\n      0x20\n      add\n      swap1\n      dup2\n      mstore\n      0x20\n      add\n      0x00\n      keccak256\n        /* \"Custom Token BUY-SELL/customToken.sol\":1794:1848  balances[msg.sender] = balances[msg.sender] - (amount) */\n      dup2\n      swap1\n      sstore\n      pop\n        /* \"Custom Token BUY-SELL/customToken.sol\":1902:1908  amount */\n      dup2\n        /* \"Custom Token BUY-SELL/customToken.sol\":1880:1888  balances */\n      0x04\n        /* \"Custom Token BUY-SELL/customToken.sol\":1880:1898  balances[receiver] */\n      0x00\n        /* \"Custom Token BUY-SELL/customToken.sol\":1889:1897  receiver */\n      dup6\n        /* \"Custom Token BUY-SELL/customToken.sol\":1880:1898  balances[receiver] */\n      0xffffffffffffffffffffffffffffffffffffffff\n      and\n      0xffffffffffffffffffffffffffffffffffffffff\n      and\n      dup2\n      mstore\n      0x20\n      add\n      swap1\n      dup2\n      mstore\n      0x20\n      add\n      0x00\n      keccak256\n      sload\n        /* \"Custom Token BUY-SELL/customToken.sol\":1880:1909  balances[receiver] + (amount) */\n      tag_149\n      swap2\n      swap1\n      tag_120\n      jump\t// in\n    tag_149:\n        /* \"Custom Token BUY-SELL/customToken.sol\":1859:1867  balances */\n      0x04\n        /* \"Custom Token BUY-SELL/customToken.sol\":1859:1877  balances[receiver] */\n      0x00\n        /* \"Custom Token BUY-SELL/customToken.sol\":1868:1876  receiver */\n      dup6\n        /* \"Custom Token BUY-SELL/customToken.sol\":1859:1877  balances[receiver] */\n      0xffffffffffffffffffffffffffffffffffffffff\n      and\n      0xffffffffffffffffffffffffffffffffffffffff\n      and\n      dup2\n      mstore\n      0x20\n      add\n      swap1\n      dup2\n      mstore\n      0x20\n      add\n      0x00\n      keccak256\n        /* \"Custom Token BUY-SELL/customToken.sol\":1859:1909  balances[receiver] = balances[receiver] + (amount) */\n      dup2\n      swap1\n      sstore\n      pop\n        /* \"Custom Token BUY-SELL/customToken.sol\":1946:1954  receiver */\n      dup3\n        /* \"Custom Token BUY-SELL/customToken.sol\":1925:1963  Transfer(msg.sender, receiver, amount) */\n      0xffffffffffffffffffffffffffffffffffffffff\n      and\n        /* \"Custom Token BUY-SELL/customToken.sol\":1934:1944  msg.sender */\n      caller\n        /* \"Custom Token BUY-SELL/customToken.sol\":1925:1963  Transfer(msg.sender, receiver, amount) */\n      0xffffffffffffffffffffffffffffffffffffffff\n      and\n      0xddf252ad1be2c89b69c2b068fc378daa952ba7f163c4a11628f55a4df523b3ef\n        /* \"Custom Token BUY-SELL/customToken.sol\":1956:1962  amount */\n      dup5\n        /* \"Custom Token BUY-SELL/customToken.sol\":1925:1963  Transfer(msg.sender, receiver, amount) */\n      mload(0x40)\n      tag_150\n      swap2\n      swap1\n      tag_39\n      jump\t// in\n    tag_150:\n      mload(0x40)\n      dup1\n      swap2\n      sub\n      swap1\n      log3\n        /* \"Custom Token BUY-SELL/customToken.sol\":1981:1985  true */\n      0x01\n        /* \"Custom Token BUY-SELL/customToken.sol\":1974:1985  return true */\n      swap1\n      pop\n        /* \"Custom Token BUY-SELL/customToken.sol\":1653:1993  function transfer(address receiver, uint amount) public override returns (bool) {... */\n      swap3\n      swap2\n      pop\n      pop\n      jump\t// out\n        /* \"Custom Token BUY-SELL/customToken.sol\":3435:3691  function getSellOrder() public view returns (uint quantity, uint PerTokenPrice) ... */\n    tag_82:\n        /* \"Custom Token BUY-SELL/customToken.sol\":3480:3493  uint quantity */\n      0x00\n        /* \"Custom Token BUY-SELL/customToken.sol\":3495:3513  uint PerTokenPrice */\n      dup1\n        /* \"Custom Token BUY-SELL/customToken.sol\":3558:3559  0 */\n      0x00\n        /* \"Custom Token BUY-SELL/customToken.sol\":3535:3543  SellList */\n      0x06\n        /* \"Custom Token BUY-SELL/customToken.sol\":3535:3555  SellList[msg.sender] */\n      0x00\n        /* \"Custom Token BUY-SELL/customToken.sol\":3544:3554  msg.sender */\n      caller\n        /* \"Custom Token BUY-SELL/customToken.sol\":3535:3555  SellList[msg.sender] */\n      0xffffffffffffffffffffffffffffffffffffffff\n      and\n      0xffffffffffffffffffffffffffffffffffffffff\n      and\n      dup2\n      mstore\n      0x20\n      add\n      swap1\n      dup2\n      mstore\n      0x20\n      add\n      0x00\n      keccak256\n      sload\n        /* \"Custom Token BUY-SELL/customToken.sol\":3535:3559  SellList[msg.sender] > 0 */\n      gt\n        /* \"Custom Token BUY-SELL/customToken.sol\":3531:3684  if (SellList[msg.sender] > 0)... */\n      iszero\n      tag_152\n      jumpi\n        /* \"Custom Token BUY-SELL/customToken.sol\":3596:3604  SellList */\n      0x06\n        /* \"Custom Token BUY-SELL/customToken.sol\":3596:3617  SellList[TokenSeller] */\n      0x00\n        /* \"Custom Token BUY-SELL/customToken.sol\":3605:3616  TokenSeller */\n      0x08\n      0x00\n      swap1\n      sload\n      swap1\n      0x0100\n      exp\n      swap1\n      div\n      0xffffffffffffffffffffffffffffffffffffffff\n      and\n        /* \"Custom Token BUY-SELL/customToken.sol\":3596:3617  SellList[TokenSeller] */\n      0xffffffffffffffffffffffffffffffffffffffff\n      and\n      0xffffffffffffffffffffffffffffffffffffffff\n      and\n      dup2\n      mstore\n      0x20\n      add\n      swap1\n      dup2\n      mstore\n      0x20\n      add\n      0x00\n      keccak256\n      sload\n        /* \"Custom Token BUY-SELL/customToken.sol\":3585:3617  quantity = SellList[TokenSeller] */\n      swap2\n      pop\n        /* \"Custom Token BUY-SELL/customToken.sol\":3646:3659  SellListPrice */\n      0x07\n        /* \"Custom Token BUY-SELL/customToken.sol\":3646:3672  SellListPrice[TokenSeller] */\n      0x00\n        /* \"Custom Token BUY-SELL/customToken.sol\":3660:3671  TokenSeller */\n      0x08\n      0x00\n      swap1\n      sload\n      swap1\n      0x0100\n      exp\n      swap1\n      div\n      0xffffffffffffffffffffffffffffffffffffffff\n      and\n        /* \"Custom Token BUY-SELL/customToken.sol\":3646:3672  SellListPrice[TokenSeller] */\n      0xffffffffffffffffffffffffffffffffffffffff\n      and\n      0xffffffffffffffffffffffffffffffffffffffff\n      and\n      dup2\n      mstore\n      0x20\n      add\n      swap1\n      dup2\n      mstore\n      0x20\n      add\n      0x00\n      keccak256\n      sload\n        /* \"Custom Token BUY-SELL/customToken.sol\":3632:3672  PerTokenPrice=SellListPrice[TokenSeller] */\n      swap1\n      pop\n        /* \"Custom Token BUY-SELL/customToken.sol\":3531:3684  if (SellList[msg.sender] > 0)... */\n    tag_152:\n        /* \"Custom Token BUY-SELL/customToken.sol\":3435:3691  function getSellOrder() public view returns (uint quantity, uint PerTokenPrice) ... */\n      swap1\n      swap2\n      jump\t// out\n        /* \"Custom Token BUY-SELL/customToken.sol\":2227:2363  function allowance(address owner, address spender) public override view returns (uint) {... */\n    tag_89:\n        /* \"Custom Token BUY-SELL/customToken.sol\":2308:2312  uint */\n      0x00\n        /* \"Custom Token BUY-SELL/customToken.sol\":2332:2339  allowed */\n      0x05\n        /* \"Custom Token BUY-SELL/customToken.sol\":2332:2346  allowed[owner] */\n      0x00\n        /* \"Custom Token BUY-SELL/customToken.sol\":2340:2345  owner */\n      dup5\n        /* \"Custom Token BUY-SELL/customToken.sol\":2332:2346  allowed[owner] */\n      0xffffffffffffffffffffffffffffffffffffffff\n      and\n      0xffffffffffffffffffffffffffffffffffffffff\n      and\n      dup2\n      mstore\n      0x20\n      add\n      swap1\n      dup2\n      mstore\n      0x20\n      add\n      0x00\n      keccak256\n        /* \"Custom Token BUY-SELL/customToken.sol\":2332:2355  allowed[owner][spender] */\n      0x00\n        /* \"Custom Token BUY-SELL/customToken.sol\":2347:2354  spender */\n      dup4\n        /* \"Custom Token BUY-SELL/customToken.sol\":2332:2355  allowed[owner][spender] */\n      0xffffffffffffffffffffffffffffffffffffffff\n      and\n      0xffffffffffffffffffffffffffffffffffffffff\n      and\n      dup2\n      mstore\n      0x20\n      add\n      swap1\n      dup2\n      mstore\n      0x20\n      add\n      0x00\n      keccak256\n      sload\n        /* \"Custom Token BUY-SELL/customToken.sol\":2325:2355  return allowed[owner][spender] */\n      swap1\n      pop\n        /* \"Custom Token BUY-SELL/customToken.sol\":2227:2363  function allowance(address owner, address spender) public override view returns (uint) {... */\n      swap3\n      swap2\n      pop\n      pop\n      jump\t// out\n        /* \"#utility.yul\":7:106   */\n    tag_154:\n        /* \"#utility.yul\":59:65   */\n      0x00\n        /* \"#utility.yul\":93:98   */\n      dup2\n        /* \"#utility.yul\":87:99   */\n      mload\n        /* \"#utility.yul\":77:99   */\n      swap1\n      pop\n        /* \"#utility.yul\":7:106   */\n      swap2\n      swap1\n      pop\n      jump\t// out\n        /* \"#utility.yul\":112:281   */\n    tag_155:\n        /* \"#utility.yul\":196:207   */\n      0x00\n        /* \"#utility.yul\":230:236   */\n      dup3\n        /* \"#utility.yul\":225:228   */\n      dup3\n        /* \"#utility.yul\":218:237   */\n      mstore\n        /* \"#utility.yul\":270:274   */\n      0x20\n        /* \"#utility.yul\":265:268   */\n      dup3\n        /* \"#utility.yul\":261:275   */\n      add\n        /* \"#utility.yul\":246:275   */\n      swap1\n      pop\n        /* \"#utility.yul\":112:281   */\n      swap3\n      swap2\n      pop\n      pop\n      jump\t// out\n        /* \"#utility.yul\":287:533   */\n    tag_156:\n        /* \"#utility.yul\":368:369   */\n      0x00\n        /* \"#utility.yul\":378:491   */\n    tag_195:\n        /* \"#utility.yul\":392:398   */\n      dup4\n        /* \"#utility.yul\":389:390   */\n      dup2\n        /* \"#utility.yul\":386:399   */\n      lt\n        /* \"#utility.yul\":378:491   */\n      iszero\n      tag_197\n      jumpi\n        /* \"#utility.yul\":477:478   */\n      dup1\n        /* \"#utility.yul\":472:475   */\n      dup3\n        /* \"#utility.yul\":468:479   */\n      add\n        /* \"#utility.yul\":462:480   */\n      mload\n        /* \"#utility.yul\":458:459   */\n      dup2\n        /* \"#utility.yul\":453:456   */\n      dup5\n        /* \"#utility.yul\":449:460   */\n      add\n        /* \"#utility.yul\":442:481   */\n      mstore\n        /* \"#utility.yul\":414:416   */\n      0x20\n        /* \"#utility.yul\":411:412   */\n      dup2\n        /* \"#utility.yul\":407:417   */\n      add\n        /* \"#utility.yul\":402:417   */\n      swap1\n      pop\n        /* \"#utility.yul\":378:491   */\n      jump(tag_195)\n    tag_197:\n        /* \"#utility.yul\":525:526   */\n      0x00\n        /* \"#utility.yul\":516:522   */\n      dup5\n        /* \"#utility.yul\":511:514   */\n      dup5\n        /* \"#utility.yul\":507:523   */\n      add\n        /* \"#utility.yul\":500:527   */\n      mstore\n        /* \"#utility.yul\":349:533   */\n      pop\n        /* \"#utility.yul\":287:533   */\n      pop\n      pop\n      pop\n      jump\t// out\n        /* \"#utility.yul\":539:641   */\n    tag_157:\n        /* \"#utility.yul\":580:586   */\n      0x00\n        /* \"#utility.yul\":631:633   */\n      0x1f\n        /* \"#utility.yul\":627:634   */\n      not\n        /* \"#utility.yul\":622:624   */\n      0x1f\n        /* \"#utility.yul\":615:620   */\n      dup4\n        /* \"#utility.yul\":611:625   */\n      add\n        /* \"#utility.yul\":607:635   */\n      and\n        /* \"#utility.yul\":597:635   */\n      swap1\n      pop\n        /* \"#utility.yul\":539:641   */\n      swap2\n      swap1\n      pop\n      jump\t// out\n        /* \"#utility.yul\":647:1024   */\n    tag_158:\n        /* \"#utility.yul\":735:738   */\n      0x00\n        /* \"#utility.yul\":763:802   */\n      tag_200\n        /* \"#utility.yul\":796:801   */\n      dup3\n        /* \"#utility.yul\":763:802   */\n      tag_154\n      jump\t// in\n    tag_200:\n        /* \"#utility.yul\":818:889   */\n      tag_201\n        /* \"#utility.yul\":882:888   */\n      dup2\n        /* \"#utility.yul\":877:880   */\n      dup6\n        /* \"#utility.yul\":818:889   */\n      tag_155\n      jump\t// in\n    tag_201:\n        /* \"#utility.yul\":811:889   */\n      swap4\n      pop\n        /* \"#utility.yul\":898:963   */\n      tag_202\n        /* \"#utility.yul\":956:962   */\n      dup2\n        /* \"#utility.yul\":951:954   */\n      dup6\n        /* \"#utility.yul\":944:948   */\n      0x20\n        /* \"#utility.yul\":937:942   */\n      dup7\n        /* \"#utility.yul\":933:949   */\n      add\n        /* \"#utility.yul\":898:963   */\n      tag_156\n      jump\t// in\n    tag_202:\n        /* \"#utility.yul\":988:1017   */\n      tag_203\n        /* \"#utility.yul\":1010:1016   */\n      dup2\n        /* \"#utility.yul\":988:1017   */\n      tag_157\n      jump\t// in\n    tag_203:\n        /* \"#utility.yul\":983:986   */\n      dup5\n        /* \"#utility.yul\":979:1018   */\n      add\n        /* \"#utility.yul\":972:1018   */\n      swap2\n      pop\n        /* \"#utility.yul\":739:1024   */\n      pop\n        /* \"#utility.yul\":647:1024   */\n      swap3\n      swap2\n      pop\n      pop\n      jump\t// out\n        /* \"#utility.yul\":1030:1343   */\n    tag_23:\n        /* \"#utility.yul\":1143:1147   */\n      0x00\n        /* \"#utility.yul\":1181:1183   */\n      0x20\n        /* \"#utility.yul\":1170:1179   */\n      dup3\n        /* \"#utility.yul\":1166:1184   */\n      add\n        /* \"#utility.yul\":1158:1184   */\n      swap1\n      pop\n        /* \"#utility.yul\":1230:1239   */\n      dup2\n        /* \"#utility.yul\":1224:1228   */\n      dup2\n        /* \"#utility.yul\":1220:1240   */\n      sub\n        /* \"#utility.yul\":1216:1217   */\n      0x00\n        /* \"#utility.yul\":1205:1214   */\n      dup4\n        /* \"#utility.yul\":1201:1218   */\n      add\n        /* \"#utility.yul\":1194:1241   */\n      mstore\n        /* \"#utility.yul\":1258:1336   */\n      tag_205\n        /* \"#utility.yul\":1331:1335   */\n      dup2\n        /* \"#utility.yul\":1322:1328   */\n      dup5\n        /* \"#utility.yul\":1258:1336   */\n      tag_158\n      jump\t// in\n    tag_205:\n        /* \"#utility.yul\":1250:1336   */\n      swap1\n      pop\n        /* \"#utility.yul\":1030:1343   */\n      swap3\n      swap2\n      pop\n      pop\n      jump\t// out\n        /* \"#utility.yul\":1430:1547   */\n    tag_160:\n        /* \"#utility.yul\":1539:1540   */\n      0x00\n        /* \"#utility.yul\":1536:1537   */\n      dup1\n        /* \"#utility.yul\":1529:1541   */\n      revert\n        /* \"#utility.yul\":1676:1802   */\n    tag_162:\n        /* \"#utility.yul\":1713:1720   */\n      0x00\n        /* \"#utility.yul\":1753:1795   */\n      0xffffffffffffffffffffffffffffffffffffffff\n        /* \"#utility.yul\":1746:1751   */\n      dup3\n        /* \"#utility.yul\":1742:1796   */\n      and\n        /* \"#utility.yul\":1731:1796   */\n      swap1\n      pop\n        /* \"#utility.yul\":1676:1802   */\n      swap2\n      swap1\n      pop\n      jump\t// out\n        /* \"#utility.yul\":1808:1904   */\n    tag_163:\n        /* \"#utility.yul\":1845:1852   */\n      0x00\n        /* \"#utility.yul\":1874:1898   */\n      tag_211\n        /* \"#utility.yul\":1892:1897   */\n      dup3\n        /* \"#utility.yul\":1874:1898   */\n      tag_162\n      jump\t// in\n    tag_211:\n        /* \"#utility.yul\":1863:1898   */\n      swap1\n      pop\n        /* \"#utility.yul\":1808:1904   */\n      swap2\n      swap1\n      pop\n      jump\t// out\n        /* \"#utility.yul\":1910:2032   */\n    tag_164:\n        /* \"#utility.yul\":1983:2007   */\n      tag_213\n        /* \"#utility.yul\":2001:2006   */\n      dup2\n        /* \"#utility.yul\":1983:2007   */\n      tag_163\n      jump\t// in\n    tag_213:\n        /* \"#utility.yul\":1976:1981   */\n      dup2\n        /* \"#utility.yul\":1973:2008   */\n      eq\n        /* \"#utility.yul\":1963:2026   */\n      tag_214\n      jumpi\n        /* \"#utility.yul\":2022:2023   */\n      0x00\n        /* \"#utility.yul\":2019:2020   */\n      dup1\n        /* \"#utility.yul\":2012:2024   */\n      revert\n        /* \"#utility.yul\":1963:2026   */\n    tag_214:\n        /* \"#utility.yul\":1910:2032   */\n      pop\n      jump\t// out\n        /* \"#utility.yul\":2038:2177   */\n    tag_165:\n        /* \"#utility.yul\":2084:2089   */\n      0x00\n        /* \"#utility.yul\":2122:2128   */\n      dup2\n        /* \"#utility.yul\":2109:2129   */\n      calldataload\n        /* \"#utility.yul\":2100:2129   */\n      swap1\n      pop\n        /* \"#utility.yul\":2138:2171   */\n      tag_216\n        /* \"#utility.yul\":2165:2170   */\n      dup2\n        /* \"#utility.yul\":2138:2171   */\n      tag_164\n      jump\t// in\n    tag_216:\n        /* \"#utility.yul\":2038:2177   */\n      swap3\n      swap2\n      pop\n      pop\n      jump\t// out\n        /* \"#utility.yul\":2183:2260   */\n    tag_166:\n        /* \"#utility.yul\":2220:2227   */\n      0x00\n        /* \"#utility.yul\":2249:2254   */\n      dup2\n        /* \"#utility.yul\":2238:2254   */\n      swap1\n      pop\n        /* \"#utility.yul\":2183:2260   */\n      swap2\n      swap1\n      pop\n      jump\t// out\n        /* \"#utility.yul\":2266:2388   */\n    tag_167:\n        /* \"#utility.yul\":2339:2363   */\n      tag_219\n        /* \"#utility.yul\":2357:2362   */\n      dup2\n        /* \"#utility.yul\":2339:2363   */\n      tag_166\n      jump\t// in\n    tag_219:\n        /* \"#utility.yul\":2332:2337   */\n      dup2\n        /* \"#utility.yul\":2329:2364   */\n      eq\n        /* \"#utility.yul\":2319:2382   */\n      tag_220\n      jumpi\n        /* \"#utility.yul\":2378:2379   */\n      0x00\n        /* \"#utility.yul\":2375:2376   */\n      dup1\n        /* \"#utility.yul\":2368:2380   */\n      revert\n        /* \"#utility.yul\":2319:2382   */\n    tag_220:\n        /* \"#utility.yul\":2266:2388   */\n      pop\n      jump\t// out\n        /* \"#utility.yul\":2394:2533   */\n    tag_168:\n        /* \"#utility.yul\":2440:2445   */\n      0x00\n        /* \"#utility.yul\":2478:2484   */\n      dup2\n        /* \"#utility.yul\":2465:2485   */\n      calldataload\n        /* \"#utility.yul\":2456:2485   */\n      swap1\n      pop\n        /* \"#utility.yul\":2494:2527   */\n      tag_222\n        /* \"#utility.yul\":2521:2526   */\n      dup2\n        /* \"#utility.yul\":2494:2527   */\n      tag_167\n      jump\t// in\n    tag_222:\n        /* \"#utility.yul\":2394:2533   */\n      swap3\n      swap2\n      pop\n      pop\n      jump\t// out\n        /* \"#utility.yul\":2539:3013   */\n    tag_27:\n        /* \"#utility.yul\":2607:2613   */\n      0x00\n        /* \"#utility.yul\":2615:2621   */\n      dup1\n        /* \"#utility.yul\":2664:2666   */\n      0x40\n        /* \"#utility.yul\":2652:2661   */\n      dup4\n        /* \"#utility.yul\":2643:2650   */\n      dup6\n        /* \"#utility.yul\":2639:2662   */\n      sub\n        /* \"#utility.yul\":2635:2667   */\n      slt\n        /* \"#utility.yul\":2632:2751   */\n      iszero\n      tag_224\n      jumpi\n        /* \"#utility.yul\":2670:2749   */\n      tag_225\n      tag_160\n      jump\t// in\n    tag_225:\n        /* \"#utility.yul\":2632:2751   */\n    tag_224:\n        /* \"#utility.yul\":2790:2791   */\n      0x00\n        /* \"#utility.yul\":2815:2868   */\n      tag_226\n        /* \"#utility.yul\":2860:2867   */\n      dup6\n        /* \"#utility.yul\":2851:2857   */\n      dup3\n        /* \"#utility.yul\":2840:2849   */\n      dup7\n        /* \"#utility.yul\":2836:2858   */\n      add\n        /* \"#utility.yul\":2815:2868   */\n      tag_165\n      jump\t// in\n    tag_226:\n        /* \"#utility.yul\":2805:2868   */\n      swap3\n      pop\n        /* \"#utility.yul\":2761:2878   */\n      pop\n        /* \"#utility.yul\":2917:2919   */\n      0x20\n        /* \"#utility.yul\":2943:2996   */\n      tag_227\n        /* \"#utility.yul\":2988:2995   */\n      dup6\n        /* \"#utility.yul\":2979:2985   */\n      dup3\n        /* \"#utility.yul\":2968:2977   */\n      dup7\n        /* \"#utility.yul\":2964:2986   */\n      add\n        /* \"#utility.yul\":2943:2996   */\n      tag_168\n      jump\t// in\n    tag_227:\n        /* \"#utility.yul\":2933:2996   */\n      swap2\n      pop\n        /* \"#utility.yul\":2888:3006   */\n      pop\n        /* \"#utility.yul\":2539:3013   */\n      swap3\n      pop\n      swap3\n      swap1\n      pop\n      jump\t// out\n        /* \"#utility.yul\":3019:3109   */\n    tag_169:\n        /* \"#utility.yul\":3053:3060   */\n      0x00\n        /* \"#utility.yul\":3096:3101   */\n      dup2\n        /* \"#utility.yul\":3089:3102   */\n      iszero\n        /* \"#utility.yul\":3082:3103   */\n      iszero\n        /* \"#utility.yul\":3071:3103   */\n      swap1\n      pop\n        /* \"#utility.yul\":3019:3109   */\n      swap2\n      swap1\n      pop\n      jump\t// out\n        /* \"#utility.yul\":3115:3224   */\n    tag_170:\n        /* \"#utility.yul\":3196:3217   */\n      tag_230\n        /* \"#utility.yul\":3211:3216   */\n      dup2\n        /* \"#utility.yul\":3196:3217   */\n      tag_169\n      jump\t// in\n    tag_230:\n        /* \"#utility.yul\":3191:3194   */\n      dup3\n        /* \"#utility.yul\":3184:3218   */\n      mstore\n        /* \"#utility.yul\":3115:3224   */\n      pop\n      pop\n      jump\t// out\n        /* \"#utility.yul\":3230:3440   */\n    tag_30:\n        /* \"#utility.yul\":3317:3321   */\n      0x00\n        /* \"#utility.yul\":3355:3357   */\n      0x20\n        /* \"#utility.yul\":3344:3353   */\n      dup3\n        /* \"#utility.yul\":3340:3358   */\n      add\n        /* \"#utility.yul\":3332:3358   */\n      swap1\n      pop\n        /* \"#utility.yul\":3368:3433   */\n      tag_232\n        /* \"#utility.yul\":3430:3431   */\n      0x00\n        /* \"#utility.yul\":3419:3428   */\n      dup4\n        /* \"#utility.yul\":3415:3432   */\n      add\n        /* \"#utility.yul\":3406:3412   */\n      dup5\n        /* \"#utility.yul\":3368:3433   */\n      tag_170\n      jump\t// in\n    tag_232:\n        /* \"#utility.yul\":3230:3440   */\n      swap3\n      swap2\n      pop\n      pop\n      jump\t// out\n        /* \"#utility.yul\":3446:3775   */\n    tag_33:\n        /* \"#utility.yul\":3505:3511   */\n      0x00\n        /* \"#utility.yul\":3554:3556   */\n      0x20\n        /* \"#utility.yul\":3542:3551   */\n      dup3\n        /* \"#utility.yul\":3533:3540   */\n      dup5\n        /* \"#utility.yul\":3529:3552   */\n      sub\n        /* \"#utility.yul\":3525:3557   */\n      slt\n        /* \"#utility.yul\":3522:3641   */\n      iszero\n      tag_234\n      jumpi\n        /* \"#utility.yul\":3560:3639   */\n      tag_235\n      tag_160\n      jump\t// in\n    tag_235:\n        /* \"#utility.yul\":3522:3641   */\n    tag_234:\n        /* \"#utility.yul\":3680:3681   */\n      0x00\n        /* \"#utility.yul\":3705:3758   */\n      tag_236\n        /* \"#utility.yul\":3750:3757   */\n      dup5\n        /* \"#utility.yul\":3741:3747   */\n      dup3\n        /* \"#utility.yul\":3730:3739   */\n      dup6\n        /* \"#utility.yul\":3726:3748   */\n      add\n        /* \"#utility.yul\":3705:3758   */\n      tag_168\n      jump\t// in\n    tag_236:\n        /* \"#utility.yul\":3695:3758   */\n      swap2\n      pop\n        /* \"#utility.yul\":3651:3768   */\n      pop\n        /* \"#utility.yul\":3446:3775   */\n      swap3\n      swap2\n      pop\n      pop\n      jump\t// out\n        /* \"#utility.yul\":3781:3899   */\n    tag_171:\n        /* \"#utility.yul\":3868:3892   */\n      tag_238\n        /* \"#utility.yul\":3886:3891   */\n      dup2\n        /* \"#utility.yul\":3868:3892   */\n      tag_166\n      jump\t// in\n    tag_238:\n        /* \"#utility.yul\":3863:3866   */\n      dup3\n        /* \"#utility.yul\":3856:3893   */\n      mstore\n        /* \"#utility.yul\":3781:3899   */\n      pop\n      pop\n      jump\t// out\n        /* \"#utility.yul\":3905:4127   */\n    tag_39:\n        /* \"#utility.yul\":3998:4002   */\n      0x00\n        /* \"#utility.yul\":4036:4038   */\n      0x20\n        /* \"#utility.yul\":4025:4034   */\n      dup3\n        /* \"#utility.yul\":4021:4039   */\n      add\n        /* \"#utility.yul\":4013:4039   */\n      swap1\n      pop\n        /* \"#utility.yul\":4049:4120   */\n      tag_240\n        /* \"#utility.yul\":4117:4118   */\n      0x00\n        /* \"#utility.yul\":4106:4115   */\n      dup4\n        /* \"#utility.yul\":4102:4119   */\n      add\n        /* \"#utility.yul\":4093:4099   */\n      dup5\n        /* \"#utility.yul\":4049:4120   */\n      tag_171\n      jump\t// in\n    tag_240:\n        /* \"#utility.yul\":3905:4127   */\n      swap3\n      swap2\n      pop\n      pop\n      jump\t// out\n        /* \"#utility.yul\":4133:4607   */\n    tag_43:\n        /* \"#utility.yul\":4201:4207   */\n      0x00\n        /* \"#utility.yul\":4209:4215   */\n      dup1\n        /* \"#utility.yul\":4258:4260   */\n      0x40\n        /* \"#utility.yul\":4246:4255   */\n      dup4\n        /* \"#utility.yul\":4237:4244   */\n      dup6\n        /* \"#utility.yul\":4233:4256   */\n      sub\n        /* \"#utility.yul\":4229:4261   */\n      slt\n        /* \"#utility.yul\":4226:4345   */\n      iszero\n      tag_242\n      jumpi\n        /* \"#utility.yul\":4264:4343   */\n      tag_243\n      tag_160\n      jump\t// in\n    tag_243:\n        /* \"#utility.yul\":4226:4345   */\n    tag_242:\n        /* \"#utility.yul\":4384:4385   */\n      0x00\n        /* \"#utility.yul\":4409:4462   */\n      tag_244\n        /* \"#utility.yul\":4454:4461   */\n      dup6\n        /* \"#utility.yul\":4445:4451   */\n      dup3\n        /* \"#utility.yul\":4434:4443   */\n      dup7\n        /* \"#utility.yul\":4430:4452   */\n      add\n        /* \"#utility.yul\":4409:4462   */\n      tag_168\n      jump\t// in\n    tag_244:\n        /* \"#utility.yul\":4399:4462   */\n      swap3\n      pop\n        /* \"#utility.yul\":4355:4472   */\n      pop\n        /* \"#utility.yul\":4511:4513   */\n      0x20\n        /* \"#utility.yul\":4537:4590   */\n      tag_245\n        /* \"#utility.yul\":4582:4589   */\n      dup6\n        /* \"#utility.yul\":4573:4579   */\n      dup3\n        /* \"#utility.yul\":4562:4571   */\n      dup7\n        /* \"#utility.yul\":4558:4580   */\n      add\n        /* \"#utility.yul\":4537:4590   */\n      tag_168\n      jump\t// in\n    tag_245:\n        /* \"#utility.yul\":4527:4590   */\n      swap2\n      pop\n        /* \"#utility.yul\":4482:4600   */\n      pop\n        /* \"#utility.yul\":4133:4607   */\n      swap3\n      pop\n      swap3\n      swap1\n      pop\n      jump\t// out\n        /* \"#utility.yul\":4613:5232   */\n    tag_48:\n        /* \"#utility.yul\":4690:4696   */\n      0x00\n        /* \"#utility.yul\":4698:4704   */\n      dup1\n        /* \"#utility.yul\":4706:4712   */\n      0x00\n        /* \"#utility.yul\":4755:4757   */\n      0x60\n        /* \"#utility.yul\":4743:4752   */\n      dup5\n        /* \"#utility.yul\":4734:4741   */\n      dup7\n        /* \"#utility.yul\":4730:4753   */\n      sub\n        /* \"#utility.yul\":4726:4758   */\n      slt\n        /* \"#utility.yul\":4723:4842   */\n      iszero\n      tag_247\n      jumpi\n        /* \"#utility.yul\":4761:4840   */\n      tag_248\n      tag_160\n      jump\t// in\n    tag_248:\n        /* \"#utility.yul\":4723:4842   */\n    tag_247:\n        /* \"#utility.yul\":4881:4882   */\n      0x00\n        /* \"#utility.yul\":4906:4959   */\n      tag_249\n        /* \"#utility.yul\":4951:4958   */\n      dup7\n        /* \"#utility.yul\":4942:4948   */\n      dup3\n        /* \"#utility.yul\":4931:4940   */\n      dup8\n        /* \"#utility.yul\":4927:4949   */\n      add\n        /* \"#utility.yul\":4906:4959   */\n      tag_165\n      jump\t// in\n    tag_249:\n        /* \"#utility.yul\":4896:4959   */\n      swap4\n      pop\n        /* \"#utility.yul\":4852:4969   */\n      pop\n        /* \"#utility.yul\":5008:5010   */\n      0x20\n        /* \"#utility.yul\":5034:5087   */\n      tag_250\n        /* \"#utility.yul\":5079:5086   */\n      dup7\n        /* \"#utility.yul\":5070:5076   */\n      dup3\n        /* \"#utility.yul\":5059:5068   */\n      dup8\n        /* \"#utility.yul\":5055:5077   */\n      add\n        /* \"#utility.yul\":5034:5087   */\n      tag_165\n      jump\t// in\n    tag_250:\n        /* \"#utility.yul\":5024:5087   */\n      swap3\n      pop\n        /* \"#utility.yul\":4979:5097   */\n      pop\n        /* \"#utility.yul\":5136:5138   */\n      0x40\n        /* \"#utility.yul\":5162:5215   */\n      tag_251\n        /* \"#utility.yul\":5207:5214   */\n      dup7\n        /* \"#utility.yul\":5198:5204   */\n      dup3\n        /* \"#utility.yul\":5187:5196   */\n      dup8\n        /* \"#utility.yul\":5183:5205   */\n      add\n        /* \"#utility.yul\":5162:5215   */\n      tag_168\n      jump\t// in\n    tag_251:\n        /* \"#utility.yul\":5152:5215   */\n      swap2\n      pop\n        /* \"#utility.yul\":5107:5225   */\n      pop\n        /* \"#utility.yul\":4613:5232   */\n      swap3\n      pop\n      swap3\n      pop\n      swap3\n      jump\t// out\n        /* \"#utility.yul\":5238:5324   */\n    tag_172:\n        /* \"#utility.yul\":5273:5280   */\n      0x00\n        /* \"#utility.yul\":5313:5317   */\n      0xff\n        /* \"#utility.yul\":5306:5311   */\n      dup3\n        /* \"#utility.yul\":5302:5318   */\n      and\n        /* \"#utility.yul\":5291:5318   */\n      swap1\n      pop\n        /* \"#utility.yul\":5238:5324   */\n      swap2\n      swap1\n      pop\n      jump\t// out\n        /* \"#utility.yul\":5330:5442   */\n    tag_173:\n        /* \"#utility.yul\":5413:5435   */\n      tag_254\n        /* \"#utility.yul\":5429:5434   */\n      dup2\n        /* \"#utility.yul\":5413:5435   */\n      tag_172\n      jump\t// in\n    tag_254:\n        /* \"#utility.yul\":5408:5411   */\n      dup3\n        /* \"#utility.yul\":5401:5436   */\n      mstore\n        /* \"#utility.yul\":5330:5442   */\n      pop\n      pop\n      jump\t// out\n        /* \"#utility.yul\":5448:5662   */\n    tag_55:\n        /* \"#utility.yul\":5537:5541   */\n      0x00\n        /* \"#utility.yul\":5575:5577   */\n      0x20\n        /* \"#utility.yul\":5564:5573   */\n      dup3\n        /* \"#utility.yul\":5560:5578   */\n      add\n        /* \"#utility.yul\":5552:5578   */\n      swap1\n      pop\n        /* \"#utility.yul\":5588:5655   */\n      tag_256\n        /* \"#utility.yul\":5652:5653   */\n      0x00\n        /* \"#utility.yul\":5641:5650   */\n      dup4\n        /* \"#utility.yul\":5637:5654   */\n      add\n        /* \"#utility.yul\":5628:5634   */\n      dup5\n        /* \"#utility.yul\":5588:5655   */\n      tag_173\n      jump\t// in\n    tag_256:\n        /* \"#utility.yul\":5448:5662   */\n      swap3\n      swap2\n      pop\n      pop\n      jump\t// out\n        /* \"#utility.yul\":5668:5786   */\n    tag_174:\n        /* \"#utility.yul\":5755:5779   */\n      tag_258\n        /* \"#utility.yul\":5773:5778   */\n      dup2\n        /* \"#utility.yul\":5755:5779   */\n      tag_163\n      jump\t// in\n    tag_258:\n        /* \"#utility.yul\":5750:5753   */\n      dup3\n        /* \"#utility.yul\":5743:5780   */\n      mstore\n        /* \"#utility.yul\":5668:5786   */\n      pop\n      pop\n      jump\t// out\n        /* \"#utility.yul\":5792:6014   */\n    tag_60:\n        /* \"#utility.yul\":5885:5889   */\n      0x00\n        /* \"#utility.yul\":5923:5925   */\n      0x20\n        /* \"#utility.yul\":5912:5921   */\n      dup3\n        /* \"#utility.yul\":5908:5926   */\n      add\n        /* \"#utility.yul\":5900:5926   */\n      swap1\n      pop\n        /* \"#utility.yul\":5936:6007   */\n      tag_260\n        /* \"#utility.yul\":6004:6005   */\n      0x00\n        /* \"#utility.yul\":5993:6002   */\n      dup4\n        /* \"#utility.yul\":5989:6006   */\n      add\n        /* \"#utility.yul\":5980:5986   */\n      dup5\n        /* \"#utility.yul\":5936:6007   */\n      tag_174\n      jump\t// in\n    tag_260:\n        /* \"#utility.yul\":5792:6014   */\n      swap3\n      swap2\n      pop\n      pop\n      jump\t// out\n        /* \"#utility.yul\":6020:6349   */\n    tag_64:\n        /* \"#utility.yul\":6079:6085   */\n      0x00\n        /* \"#utility.yul\":6128:6130   */\n      0x20\n        /* \"#utility.yul\":6116:6125   */\n      dup3\n        /* \"#utility.yul\":6107:6114   */\n      dup5\n        /* \"#utility.yul\":6103:6126   */\n      sub\n        /* \"#utility.yul\":6099:6131   */\n      slt\n        /* \"#utility.yul\":6096:6215   */\n      iszero\n      tag_262\n      jumpi\n        /* \"#utility.yul\":6134:6213   */\n      tag_263\n      tag_160\n      jump\t// in\n    tag_263:\n        /* \"#utility.yul\":6096:6215   */\n    tag_262:\n        /* \"#utility.yul\":6254:6255   */\n      0x00\n        /* \"#utility.yul\":6279:6332   */\n      tag_264\n        /* \"#utility.yul\":6324:6331   */\n      dup5\n        /* \"#utility.yul\":6315:6321   */\n      dup3\n        /* \"#utility.yul\":6304:6313   */\n      dup6\n        /* \"#utility.yul\":6300:6322   */\n      add\n        /* \"#utility.yul\":6279:6332   */\n      tag_165\n      jump\t// in\n    tag_264:\n        /* \"#utility.yul\":6269:6332   */\n      swap2\n      pop\n        /* \"#utility.yul\":6225:6342   */\n      pop\n        /* \"#utility.yul\":6020:6349   */\n      swap3\n      swap2\n      pop\n      pop\n      jump\t// out\n        /* \"#utility.yul\":6355:6687   */\n    tag_84:\n        /* \"#utility.yul\":6476:6480   */\n      0x00\n        /* \"#utility.yul\":6514:6516   */\n      0x40\n        /* \"#utility.yul\":6503:6512   */\n      dup3\n        /* \"#utility.yul\":6499:6517   */\n      add\n        /* \"#utility.yul\":6491:6517   */\n      swap1\n      pop\n        /* \"#utility.yul\":6527:6598   */\n      tag_266\n        /* \"#utility.yul\":6595:6596   */\n      0x00\n        /* \"#utility.yul\":6584:6593   */\n      dup4\n        /* \"#utility.yul\":6580:6597   */\n      add\n        /* \"#utility.yul\":6571:6577   */\n      dup6\n        /* \"#utility.yul\":6527:6598   */\n      tag_171\n      jump\t// in\n    tag_266:\n        /* \"#utility.yul\":6608:6680   */\n      tag_267\n        /* \"#utility.yul\":6676:6678   */\n      0x20\n        /* \"#utility.yul\":6665:6674   */\n      dup4\n        /* \"#utility.yul\":6661:6679   */\n      add\n        /* \"#utility.yul\":6652:6658   */\n      dup5\n        /* \"#utility.yul\":6608:6680   */\n      tag_171\n      jump\t// in\n    tag_267:\n        /* \"#utility.yul\":6355:6687   */\n      swap4\n      swap3\n      pop\n      pop\n      pop\n      jump\t// out\n        /* \"#utility.yul\":6693:7167   */\n    tag_88:\n        /* \"#utility.yul\":6761:6767   */\n      0x00\n        /* \"#utility.yul\":6769:6775   */\n      dup1\n        /* \"#utility.yul\":6818:6820   */\n      0x40\n        /* \"#utility.yul\":6806:6815   */\n      dup4\n        /* \"#utility.yul\":6797:6804   */\n      dup6\n        /* \"#utility.yul\":6793:6816   */\n      sub\n        /* \"#utility.yul\":6789:6821   */\n      slt\n        /* \"#utility.yul\":6786:6905   */\n      iszero\n      tag_269\n      jumpi\n        /* \"#utility.yul\":6824:6903   */\n      tag_270\n      tag_160\n      jump\t// in\n    tag_270:\n        /* \"#utility.yul\":6786:6905   */\n    tag_269:\n        /* \"#utility.yul\":6944:6945   */\n      0x00\n        /* \"#utility.yul\":6969:7022   */\n      tag_271\n        /* \"#utility.yul\":7014:7021   */\n      dup6\n        /* \"#utility.yul\":7005:7011   */\n      dup3\n        /* \"#utility.yul\":6994:7003   */\n      dup7\n        /* \"#utility.yul\":6990:7012   */\n      add\n        /* \"#utility.yul\":6969:7022   */\n      tag_165\n      jump\t// in\n    tag_271:\n        /* \"#utility.yul\":6959:7022   */\n      swap3\n      pop\n        /* \"#utility.yul\":6915:7032   */\n      pop\n        /* \"#utility.yul\":7071:7073   */\n      0x20\n        /* \"#utility.yul\":7097:7150   */\n      tag_272\n        /* \"#utility.yul\":7142:7149   */\n      dup6\n        /* \"#utility.yul\":7133:7139   */\n      dup3\n        /* \"#utility.yul\":7122:7131   */\n      dup7\n        /* \"#utility.yul\":7118:7140   */\n      add\n        /* \"#utility.yul\":7097:7150   */\n      tag_165\n      jump\t// in\n    tag_272:\n        /* \"#utility.yul\":7087:7150   */\n      swap2\n      pop\n        /* \"#utility.yul\":7042:7160   */\n      pop\n        /* \"#utility.yul\":6693:7167   */\n      swap3\n      pop\n      swap3\n      swap1\n      pop\n      jump\t// out\n        /* \"#utility.yul\":7173:7353   */\n    tag_175:\n        /* \"#utility.yul\":7221:7298   */\n      0x4e487b7100000000000000000000000000000000000000000000000000000000\n        /* \"#utility.yul\":7218:7219   */\n      0x00\n        /* \"#utility.yul\":7211:7299   */\n      mstore\n        /* \"#utility.yul\":7318:7322   */\n      0x22\n        /* \"#utility.yul\":7315:7316   */\n      0x04\n        /* \"#utility.yul\":7308:7323   */\n      mstore\n        /* \"#utility.yul\":7342:7346   */\n      0x24\n        /* \"#utility.yul\":7339:7340   */\n      0x00\n        /* \"#utility.yul\":7332:7347   */\n      revert\n        /* \"#utility.yul\":7359:7679   */\n    tag_92:\n        /* \"#utility.yul\":7403:7409   */\n      0x00\n        /* \"#utility.yul\":7440:7441   */\n      0x02\n        /* \"#utility.yul\":7434:7438   */\n      dup3\n        /* \"#utility.yul\":7430:7442   */\n      div\n        /* \"#utility.yul\":7420:7442   */\n      swap1\n      pop\n        /* \"#utility.yul\":7487:7488   */\n      0x01\n        /* \"#utility.yul\":7481:7485   */\n      dup3\n        /* \"#utility.yul\":7477:7489   */\n      and\n        /* \"#utility.yul\":7508:7526   */\n      dup1\n        /* \"#utility.yul\":7498:7579   */\n      tag_275\n      jumpi\n        /* \"#utility.yul\":7564:7568   */\n      0x7f\n        /* \"#utility.yul\":7556:7562   */\n      dup3\n        /* \"#utility.yul\":7552:7569   */\n      and\n        /* \"#utility.yul\":7542:7569   */\n      swap2\n      pop\n        /* \"#utility.yul\":7498:7579   */\n    tag_275:\n        /* \"#utility.yul\":7626:7628   */\n      0x20\n        /* \"#utility.yul\":7618:7624   */\n      dup3\n        /* \"#utility.yul\":7615:7629   */\n      lt\n        /* \"#utility.yul\":7595:7613   */\n      dup2\n        /* \"#utility.yul\":7592:7630   */\n      sub\n        /* \"#utility.yul\":7589:7673   */\n      tag_276\n      jumpi\n        /* \"#utility.yul\":7645:7663   */\n      tag_277\n      tag_175\n      jump\t// in\n    tag_277:\n        /* \"#utility.yul\":7589:7673   */\n    tag_276:\n        /* \"#utility.yul\":7410:7679   */\n      pop\n        /* \"#utility.yul\":7359:7679   */\n      swap2\n      swap1\n      pop\n      jump\t// out\n        /* \"#utility.yul\":7685:7863   */\n    tag_176:\n        /* \"#utility.yul\":7825:7855   */\n      0x6974206d7573742062652067726561746572207468616e205a65726f00000000\n        /* \"#utility.yul\":7821:7822   */\n      0x00\n        /* \"#utility.yul\":7813:7819   */\n      dup3\n        /* \"#utility.yul\":7809:7823   */\n      add\n        /* \"#utility.yul\":7802:7856   */\n      mstore\n        /* \"#utility.yul\":7685:7863   */\n      pop\n      jump\t// out\n        /* \"#utility.yul\":7869:8235   */\n    tag_177:\n        /* \"#utility.yul\":8011:8014   */\n      0x00\n        /* \"#utility.yul\":8032:8099   */\n      tag_280\n        /* \"#utility.yul\":8096:8098   */\n      0x1c\n        /* \"#utility.yul\":8091:8094   */\n      dup4\n        /* \"#utility.yul\":8032:8099   */\n      tag_155\n      jump\t// in\n    tag_280:\n        /* \"#utility.yul\":8025:8099   */\n      swap2\n      pop\n        /* \"#utility.yul\":8108:8201   */\n      tag_281\n        /* \"#utility.yul\":8197:8200   */\n      dup3\n        /* \"#utility.yul\":8108:8201   */\n      tag_176\n      jump\t// in\n    tag_281:\n        /* \"#utility.yul\":8226:8228   */\n      0x20\n        /* \"#utility.yul\":8221:8224   */\n      dup3\n        /* \"#utility.yul\":8217:8229   */\n      add\n        /* \"#utility.yul\":8210:8229   */\n      swap1\n      pop\n        /* \"#utility.yul\":7869:8235   */\n      swap2\n      swap1\n      pop\n      jump\t// out\n        /* \"#utility.yul\":8241:8660   */\n    tag_102:\n        /* \"#utility.yul\":8407:8411   */\n      0x00\n        /* \"#utility.yul\":8445:8447   */\n      0x20\n        /* \"#utility.yul\":8434:8443   */\n      dup3\n        /* \"#utility.yul\":8430:8448   */\n      add\n        /* \"#utility.yul\":8422:8448   */\n      swap1\n      pop\n        /* \"#utility.yul\":8494:8503   */\n      dup2\n        /* \"#utility.yul\":8488:8492   */\n      dup2\n        /* \"#utility.yul\":8484:8504   */\n      sub\n        /* \"#utility.yul\":8480:8481   */\n      0x00\n        /* \"#utility.yul\":8469:8478   */\n      dup4\n        /* \"#utility.yul\":8465:8482   */\n      add\n        /* \"#utility.yul\":8458:8505   */\n      mstore\n        /* \"#utility.yul\":8522:8653   */\n      tag_283\n        /* \"#utility.yul\":8648:8652   */\n      dup2\n        /* \"#utility.yul\":8522:8653   */\n      tag_177\n      jump\t// in\n    tag_283:\n        /* \"#utility.yul\":8514:8653   */\n      swap1\n      pop\n        /* \"#utility.yul\":8241:8660   */\n      swap2\n      swap1\n      pop\n      jump\t// out\n        /* \"#utility.yul\":8666:8887   */\n    tag_178:\n        /* \"#utility.yul\":8806:8840   */\n      0x5175616e74697479206d7573742062652067726561746572207468616e205a65\n        /* \"#utility.yul\":8802:8803   */\n      0x00\n        /* \"#utility.yul\":8794:8800   */\n      dup3\n        /* \"#utility.yul\":8790:8804   */\n      add\n        /* \"#utility.yul\":8783:8841   */\n      mstore\n        /* \"#utility.yul\":8875:8879   */\n      0x726f000000000000000000000000000000000000000000000000000000000000\n        /* \"#utility.yul\":8870:8872   */\n      0x20\n        /* \"#utility.yul\":8862:8868   */\n      dup3\n        /* \"#utility.yul\":8858:8873   */\n      add\n        /* \"#utility.yul\":8851:8880   */\n      mstore\n        /* \"#utility.yul\":8666:8887   */\n      pop\n      jump\t// out\n        /* \"#utility.yul\":8893:9259   */\n    tag_179:\n        /* \"#utility.yul\":9035:9038   */\n      0x00\n        /* \"#utility.yul\":9056:9123   */\n      tag_286\n        /* \"#utility.yul\":9120:9122   */\n      0x22\n        /* \"#utility.yul\":9115:9118   */\n      dup4\n        /* \"#utility.yul\":9056:9123   */\n      tag_155\n      jump\t// in\n    tag_286:\n        /* \"#utility.yul\":9049:9123   */\n      swap2\n      pop\n        /* \"#utility.yul\":9132:9225   */\n      tag_287\n        /* \"#utility.yul\":9221:9224   */\n      dup3\n        /* \"#utility.yul\":9132:9225   */\n      tag_178\n      jump\t// in\n    tag_287:\n        /* \"#utility.yul\":9250:9252   */\n      0x40\n        /* \"#utility.yul\":9245:9248   */\n      dup3\n        /* \"#utility.yul\":9241:9253   */\n      add\n        /* \"#utility.yul\":9234:9253   */\n      swap1\n      pop\n        /* \"#utility.yul\":8893:9259   */\n      swap2\n      swap1\n      pop\n      jump\t// out\n        /* \"#utility.yul\":9265:9684   */\n    tag_105:\n        /* \"#utility.yul\":9431:9435   */\n      0x00\n        /* \"#utility.yul\":9469:9471   */\n      0x20\n        /* \"#utility.yul\":9458:9467   */\n      dup3\n        /* \"#utility.yul\":9454:9472   */\n      add\n        /* \"#utility.yul\":9446:9472   */\n      swap1\n      pop\n        /* \"#utility.yul\":9518:9527   */\n      dup2\n        /* \"#utility.yul\":9512:9516   */\n      dup2\n        /* \"#utility.yul\":9508:9528   */\n      sub\n        /* \"#utility.yul\":9504:9505   */\n      0x00\n        /* \"#utility.yul\":9493:9502   */\n      dup4\n        /* \"#utility.yul\":9489:9506   */\n      add\n        /* \"#utility.yul\":9482:9529   */\n      mstore\n        /* \"#utility.yul\":9546:9677   */\n      tag_289\n        /* \"#utility.yul\":9672:9676   */\n      dup2\n        /* \"#utility.yul\":9546:9677   */\n      tag_179\n      jump\t// in\n    tag_289:\n        /* \"#utility.yul\":9538:9677   */\n      swap1\n      pop\n        /* \"#utility.yul\":9265:9684   */\n      swap2\n      swap1\n      pop\n      jump\t// out\n        /* \"#utility.yul\":9690:9860   */\n    tag_180:\n        /* \"#utility.yul\":9830:9852   */\n      0x706c6561736520636865636b207175616e697479000000000000000000000000\n        /* \"#utility.yul\":9826:9827   */\n      0x00\n        /* \"#utility.yul\":9818:9824   */\n      dup3\n        /* \"#utility.yul\":9814:9828   */\n      add\n        /* \"#utility.yul\":9807:9853   */\n      mstore\n        /* \"#utility.yul\":9690:9860   */\n      pop\n      jump\t// out\n        /* \"#utility.yul\":9866:10232   */\n    tag_181:\n        /* \"#utility.yul\":10008:10011   */\n      0x00\n        /* \"#utility.yul\":10029:10096   */\n      tag_292\n        /* \"#utility.yul\":10093:10095   */\n      0x14\n        /* \"#utility.yul\":10088:10091   */\n      dup4\n        /* \"#utility.yul\":10029:10096   */\n      tag_155\n      jump\t// in\n    tag_292:\n        /* \"#utility.yul\":10022:10096   */\n      swap2\n      pop\n        /* \"#utility.yul\":10105:10198   */\n      tag_293\n        /* \"#utility.yul\":10194:10197   */\n      dup3\n        /* \"#utility.yul\":10105:10198   */\n      tag_180\n      jump\t// in\n    tag_293:\n        /* \"#utility.yul\":10223:10225   */\n      0x20\n        /* \"#utility.yul\":10218:10221   */\n      dup3\n        /* \"#utility.yul\":10214:10226   */\n      add\n        /* \"#utility.yul\":10207:10226   */\n      swap1\n      pop\n        /* \"#utility.yul\":9866:10232   */\n      swap2\n      swap1\n      pop\n      jump\t// out\n        /* \"#utility.yul\":10238:10657   */\n    tag_108:\n        /* \"#utility.yul\":10404:10408   */\n      0x00\n        /* \"#utility.yul\":10442:10444   */\n      0x20\n        /* \"#utility.yul\":10431:10440   */\n      dup3\n        /* \"#utility.yul\":10427:10445   */\n      add\n        /* \"#utility.yul\":10419:10445   */\n      swap1\n      pop\n        /* \"#utility.yul\":10491:10500   */\n      dup2\n        /* \"#utility.yul\":10485:10489   */\n      dup2\n        /* \"#utility.yul\":10481:10501   */\n      sub\n        /* \"#utility.yul\":10477:10478   */\n      0x00\n        /* \"#utility.yul\":10466:10475   */\n      dup4\n        /* \"#utility.yul\":10462:10479   */\n      add\n        /* \"#utility.yul\":10455:10502   */\n      mstore\n        /* \"#utility.yul\":10519:10650   */\n      tag_295\n        /* \"#utility.yul\":10645:10649   */\n      dup2\n        /* \"#utility.yul\":10519:10650   */\n      tag_181\n      jump\t// in\n    tag_295:\n        /* \"#utility.yul\":10511:10650   */\n      swap1\n      pop\n        /* \"#utility.yul\":10238:10657   */\n      swap2\n      swap1\n      pop\n      jump\t// out\n        /* \"#utility.yul\":10663:10843   */\n    tag_182:\n        /* \"#utility.yul\":10711:10788   */\n      0x4e487b7100000000000000000000000000000000000000000000000000000000\n        /* \"#utility.yul\":10708:10709   */\n      0x00\n        /* \"#utility.yul\":10701:10789   */\n      mstore\n        /* \"#utility.yul\":10808:10812   */\n      0x11\n        /* \"#utility.yul\":10805:10806   */\n      0x04\n        /* \"#utility.yul\":10798:10813   */\n      mstore\n        /* \"#utility.yul\":10832:10836   */\n      0x24\n        /* \"#utility.yul\":10829:10830   */\n      0x00\n        /* \"#utility.yul\":10822:10837   */\n      revert\n        /* \"#utility.yul\":10849:11259   */\n    tag_110:\n        /* \"#utility.yul\":10889:10896   */\n      0x00\n        /* \"#utility.yul\":10912:10932   */\n      tag_298\n        /* \"#utility.yul\":10930:10931   */\n      dup3\n        /* \"#utility.yul\":10912:10932   */\n      tag_166\n      jump\t// in\n    tag_298:\n        /* \"#utility.yul\":10907:10932   */\n      swap2\n      pop\n        /* \"#utility.yul\":10946:10966   */\n      tag_299\n        /* \"#utility.yul\":10964:10965   */\n      dup4\n        /* \"#utility.yul\":10946:10966   */\n      tag_166\n      jump\t// in\n    tag_299:\n        /* \"#utility.yul\":10941:10966   */\n      swap3\n      pop\n        /* \"#utility.yul\":11001:11002   */\n      dup3\n        /* \"#utility.yul\":10998:10999   */\n      dup3\n        /* \"#utility.yul\":10994:11003   */\n      mul\n        /* \"#utility.yul\":11023:11053   */\n      tag_300\n        /* \"#utility.yul\":11041:11052   */\n      dup2\n        /* \"#utility.yul\":11023:11053   */\n      tag_166\n      jump\t// in\n    tag_300:\n        /* \"#utility.yul\":11012:11053   */\n      swap2\n      pop\n        /* \"#utility.yul\":11202:11203   */\n      dup3\n        /* \"#utility.yul\":11193:11200   */\n      dup3\n        /* \"#utility.yul\":11189:11204   */\n      div\n        /* \"#utility.yul\":11186:11187   */\n      dup5\n        /* \"#utility.yul\":11183:11205   */\n      eq\n        /* \"#utility.yul\":11163:11164   */\n      dup4\n        /* \"#utility.yul\":11156:11165   */\n      iszero\n        /* \"#utility.yul\":11136:11219   */\n      or\n        /* \"#utility.yul\":11113:11252   */\n      tag_301\n      jumpi\n        /* \"#utility.yul\":11232:11250   */\n      tag_302\n      tag_182\n      jump\t// in\n    tag_302:\n        /* \"#utility.yul\":11113:11252   */\n    tag_301:\n        /* \"#utility.yul\":10897:11259   */\n      pop\n        /* \"#utility.yul\":10849:11259   */\n      swap3\n      swap2\n      pop\n      pop\n      jump\t// out\n        /* \"#utility.yul\":11265:11427   */\n    tag_183:\n        /* \"#utility.yul\":11405:11419   */\n      0x436865636b20616d6f756e740000000000000000000000000000000000000000\n        /* \"#utility.yul\":11401:11402   */\n      0x00\n        /* \"#utility.yul\":11393:11399   */\n      dup3\n        /* \"#utility.yul\":11389:11403   */\n      add\n        /* \"#utility.yul\":11382:11420   */\n      mstore\n        /* \"#utility.yul\":11265:11427   */\n      pop\n      jump\t// out\n        /* \"#utility.yul\":11433:11799   */\n    tag_184:\n        /* \"#utility.yul\":11575:11578   */\n      0x00\n        /* \"#utility.yul\":11596:11663   */\n      tag_305\n        /* \"#utility.yul\":11660:11662   */\n      0x0c\n        /* \"#utility.yul\":11655:11658   */\n      dup4\n        /* \"#utility.yul\":11596:11663   */\n      tag_155\n      jump\t// in\n    tag_305:\n        /* \"#utility.yul\":11589:11663   */\n      swap2\n      pop\n        /* \"#utility.yul\":11672:11765   */\n      tag_306\n        /* \"#utility.yul\":11761:11764   */\n      dup3\n        /* \"#utility.yul\":11672:11765   */\n      tag_183\n      jump\t// in\n    tag_306:\n        /* \"#utility.yul\":11790:11792   */\n      0x20\n        /* \"#utility.yul\":11785:11788   */\n      dup3\n        /* \"#utility.yul\":11781:11793   */\n      add\n        /* \"#utility.yul\":11774:11793   */\n      swap1\n      pop\n        /* \"#utility.yul\":11433:11799   */\n      swap2\n      swap1\n      pop\n      jump\t// out\n        /* \"#utility.yul\":11805:12224   */\n    tag_113:\n        /* \"#utility.yul\":11971:11975   */\n      0x00\n        /* \"#utility.yul\":12009:12011   */\n      0x20\n        /* \"#utility.yul\":11998:12007   */\n      dup3\n        /* \"#utility.yul\":11994:12012   */\n      add\n        /* \"#utility.yul\":11986:12012   */\n      swap1\n      pop\n        /* \"#utility.yul\":12058:12067   */\n      dup2\n        /* \"#utility.yul\":12052:12056   */\n      dup2\n        /* \"#utility.yul\":12048:12068   */\n      sub\n        /* \"#utility.yul\":12044:12045   */\n      0x00\n        /* \"#utility.yul\":12033:12042   */\n      dup4\n        /* \"#utility.yul\":12029:12046   */\n      add\n        /* \"#utility.yul\":12022:12069   */\n      mstore\n        /* \"#utility.yul\":12086:12217   */\n      tag_308\n        /* \"#utility.yul\":12212:12216   */\n      dup2\n        /* \"#utility.yul\":12086:12217   */\n      tag_184\n      jump\t// in\n    tag_308:\n        /* \"#utility.yul\":12078:12217   */\n      swap1\n      pop\n        /* \"#utility.yul\":11805:12224   */\n      swap2\n      swap1\n      pop\n      jump\t// out\n        /* \"#utility.yul\":12230:12404   */\n    tag_185:\n        /* \"#utility.yul\":12370:12396   */\n      0x436865636b20596f757220546f74616c2042616c616e63650000000000000000\n        /* \"#utility.yul\":12366:12367   */\n      0x00\n        /* \"#utility.yul\":12358:12364   */\n      dup3\n        /* \"#utility.yul\":12354:12368   */\n      add\n        /* \"#utility.yul\":12347:12397   */\n      mstore\n        /* \"#utility.yul\":12230:12404   */\n      pop\n      jump\t// out\n        /* \"#utility.yul\":12410:12776   */\n    tag_186:\n        /* \"#utility.yul\":12552:12555   */\n      0x00\n        /* \"#utility.yul\":12573:12640   */\n      tag_311\n        /* \"#utility.yul\":12637:12639   */\n      0x18\n        /* \"#utility.yul\":12632:12635   */\n      dup4\n        /* \"#utility.yul\":12573:12640   */\n      tag_155\n      jump\t// in\n    tag_311:\n        /* \"#utility.yul\":12566:12640   */\n      swap2\n      pop\n        /* \"#utility.yul\":12649:12742   */\n      tag_312\n        /* \"#utility.yul\":12738:12741   */\n      dup3\n        /* \"#utility.yul\":12649:12742   */\n      tag_185\n      jump\t// in\n    tag_312:\n        /* \"#utility.yul\":12767:12769   */\n      0x20\n        /* \"#utility.yul\":12762:12765   */\n      dup3\n        /* \"#utility.yul\":12758:12770   */\n      add\n        /* \"#utility.yul\":12751:12770   */\n      swap1\n      pop\n        /* \"#utility.yul\":12410:12776   */\n      swap2\n      swap1\n      pop\n      jump\t// out\n        /* \"#utility.yul\":12782:13201   */\n    tag_116:\n        /* \"#utility.yul\":12948:12952   */\n      0x00\n        /* \"#utility.yul\":12986:12988   */\n      0x20\n        /* \"#utility.yul\":12975:12984   */\n      dup3\n        /* \"#utility.yul\":12971:12989   */\n      add\n        /* \"#utility.yul\":12963:12989   */\n      swap1\n      pop\n        /* \"#utility.yul\":13035:13044   */\n      dup2\n        /* \"#utility.yul\":13029:13033   */\n      dup2\n        /* \"#utility.yul\":13025:13045   */\n      sub\n        /* \"#utility.yul\":13021:13022   */\n      0x00\n        /* \"#utility.yul\":13010:13019   */\n      dup4\n        /* \"#utility.yul\":13006:13023   */\n      add\n        /* \"#utility.yul\":12999:13046   */\n      mstore\n        /* \"#utility.yul\":13063:13194   */\n      tag_314\n        /* \"#utility.yul\":13189:13193   */\n      dup2\n        /* \"#utility.yul\":13063:13194   */\n      tag_186\n      jump\t// in\n    tag_314:\n        /* \"#utility.yul\":13055:13194   */\n      swap1\n      pop\n        /* \"#utility.yul\":12782:13201   */\n      swap2\n      swap1\n      pop\n      jump\t// out\n        /* \"#utility.yul\":13207:13401   */\n    tag_118:\n        /* \"#utility.yul\":13247:13251   */\n      0x00\n        /* \"#utility.yul\":13267:13287   */\n      tag_316\n        /* \"#utility.yul\":13285:13286   */\n      dup3\n        /* \"#utility.yul\":13267:13287   */\n      tag_166\n      jump\t// in\n    tag_316:\n        /* \"#utility.yul\":13262:13287   */\n      swap2\n      pop\n        /* \"#utility.yul\":13301:13321   */\n      tag_317\n        /* \"#utility.yul\":13319:13320   */\n      dup4\n        /* \"#utility.yul\":13301:13321   */\n      tag_166\n      jump\t// in\n    tag_317:\n        /* \"#utility.yul\":13296:13321   */\n      swap3\n      pop\n        /* \"#utility.yul\":13345:13346   */\n      dup3\n        /* \"#utility.yul\":13342:13343   */\n      dup3\n        /* \"#utility.yul\":13338:13347   */\n      sub\n        /* \"#utility.yul\":13330:13347   */\n      swap1\n      pop\n        /* \"#utility.yul\":13369:13370   */\n      dup2\n        /* \"#utility.yul\":13363:13367   */\n      dup2\n        /* \"#utility.yul\":13360:13371   */\n      gt\n        /* \"#utility.yul\":13357:13394   */\n      iszero\n      tag_318\n      jumpi\n        /* \"#utility.yul\":13374:13392   */\n      tag_319\n      tag_182\n      jump\t// in\n    tag_319:\n        /* \"#utility.yul\":13357:13394   */\n    tag_318:\n        /* \"#utility.yul\":13207:13401   */\n      swap3\n      swap2\n      pop\n      pop\n      jump\t// out\n        /* \"#utility.yul\":13407:13598   */\n    tag_120:\n        /* \"#utility.yul\":13447:13450   */\n      0x00\n        /* \"#utility.yul\":13466:13486   */\n      tag_321\n        /* \"#utility.yul\":13484:13485   */\n      dup3\n        /* \"#utility.yul\":13466:13486   */\n      tag_166\n      jump\t// in\n    tag_321:\n        /* \"#utility.yul\":13461:13486   */\n      swap2\n      pop\n        /* \"#utility.yul\":13500:13520   */\n      tag_322\n        /* \"#utility.yul\":13518:13519   */\n      dup4\n        /* \"#utility.yul\":13500:13520   */\n      tag_166\n      jump\t// in\n    tag_322:\n        /* \"#utility.yul\":13495:13520   */\n      swap3\n      pop\n        /* \"#utility.yul\":13543:13544   */\n      dup3\n        /* \"#utility.yul\":13540:13541   */\n      dup3\n        /* \"#utility.yul\":13536:13545   */\n      add\n        /* \"#utility.yul\":13529:13545   */\n      swap1\n      pop\n        /* \"#utility.yul\":13564:13567   */\n      dup1\n        /* \"#utility.yul\":13561:13562   */\n      dup3\n        /* \"#utility.yul\":13558:13568   */\n      gt\n        /* \"#utility.yul\":13555:13591   */\n      iszero\n      tag_323\n      jumpi\n        /* \"#utility.yul\":13571:13589   */\n      tag_324\n      tag_182\n      jump\t// in\n    tag_324:\n        /* \"#utility.yul\":13555:13591   */\n    tag_323:\n        /* \"#utility.yul\":13407:13598   */\n      swap3\n      swap2\n      pop\n      pop\n      jump\t// out\n        /* \"#utility.yul\":13604:13779   */\n    tag_187:\n        /* \"#utility.yul\":13744:13771   */\n      0x596f752068617665277420656e6f7567682062616c616e636500000000000000\n        /* \"#utility.yul\":13740:13741   */\n      0x00\n        /* \"#utility.yul\":13732:13738   */\n      dup3\n        /* \"#utility.yul\":13728:13742   */\n      add\n        /* \"#utility.yul\":13721:13772   */\n      mstore\n        /* \"#utility.yul\":13604:13779   */\n      pop\n      jump\t// out\n        /* \"#utility.yul\":13785:14151   */\n    tag_188:\n        /* \"#utility.yul\":13927:13930   */\n      0x00\n        /* \"#utility.yul\":13948:14015   */\n      tag_327\n        /* \"#utility.yul\":14012:14014   */\n      0x19\n        /* \"#utility.yul\":14007:14010   */\n      dup4\n        /* \"#utility.yul\":13948:14015   */\n      tag_155\n      jump\t// in\n    tag_327:\n        /* \"#utility.yul\":13941:14015   */\n      swap2\n      pop\n        /* \"#utility.yul\":14024:14117   */\n      tag_328\n        /* \"#utility.yul\":14113:14116   */\n      dup3\n        /* \"#utility.yul\":14024:14117   */\n      tag_187\n      jump\t// in\n    tag_328:\n        /* \"#utility.yul\":14142:14144   */\n      0x20\n        /* \"#utility.yul\":14137:14140   */\n      dup3\n        /* \"#utility.yul\":14133:14145   */\n      add\n        /* \"#utility.yul\":14126:14145   */\n      swap1\n      pop\n        /* \"#utility.yul\":13785:14151   */\n      swap2\n      swap1\n      pop\n      jump\t// out\n        /* \"#utility.yul\":14157:14576   */\n    tag_127:\n        /* \"#utility.yul\":14323:14327   */\n      0x00\n        /* \"#utility.yul\":14361:14363   */\n      0x20\n        /* \"#utility.yul\":14350:14359   */\n      dup3\n        /* \"#utility.yul\":14346:14364   */\n      add\n        /* \"#utility.yul\":14338:14364   */\n      swap1\n      pop\n        /* \"#utility.yul\":14410:14419   */\n      dup2\n        /* \"#utility.yul\":14404:14408   */\n      dup2\n        /* \"#utility.yul\":14400:14420   */\n      sub\n        /* \"#utility.yul\":14396:14397   */\n      0x00\n        /* \"#utility.yul\":14385:14394   */\n      dup4\n        /* \"#utility.yul\":14381:14398   */\n      add\n        /* \"#utility.yul\":14374:14421   */\n      mstore\n        /* \"#utility.yul\":14438:14569   */\n      tag_330\n        /* \"#utility.yul\":14564:14568   */\n      dup2\n        /* \"#utility.yul\":14438:14569   */\n      tag_188\n      jump\t// in\n    tag_330:\n        /* \"#utility.yul\":14430:14569   */\n      swap1\n      pop\n        /* \"#utility.yul\":14157:14576   */\n      swap2\n      swap1\n      pop\n      jump\t// out\n        /* \"#utility.yul\":14582:14803   */\n    tag_189:\n        /* \"#utility.yul\":14722:14756   */\n      0x53656c6c696e672070726963652063616e2774206265206c657373207468616e\n        /* \"#utility.yul\":14718:14719   */\n      0x00\n        /* \"#utility.yul\":14710:14716   */\n      dup3\n        /* \"#utility.yul\":14706:14720   */\n      add\n        /* \"#utility.yul\":14699:14757   */\n      mstore\n        /* \"#utility.yul\":14791:14795   */\n      0x2030000000000000000000000000000000000000000000000000000000000000\n        /* \"#utility.yul\":14786:14788   */\n      0x20\n        /* \"#utility.yul\":14778:14784   */\n      dup3\n        /* \"#utility.yul\":14774:14789   */\n      add\n        /* \"#utility.yul\":14767:14796   */\n      mstore\n        /* \"#utility.yul\":14582:14803   */\n      pop\n      jump\t// out\n        /* \"#utility.yul\":14809:15175   */\n    tag_190:\n        /* \"#utility.yul\":14951:14954   */\n      0x00\n        /* \"#utility.yul\":14972:15039   */\n      tag_333\n        /* \"#utility.yul\":15036:15038   */\n      0x22\n        /* \"#utility.yul\":15031:15034   */\n      dup4\n        /* \"#utility.yul\":14972:15039   */\n      tag_155\n      jump\t// in\n    tag_333:\n        /* \"#utility.yul\":14965:15039   */\n      swap2\n      pop\n        /* \"#utility.yul\":15048:15141   */\n      tag_334\n        /* \"#utility.yul\":15137:15140   */\n      dup3\n        /* \"#utility.yul\":15048:15141   */\n      tag_189\n      jump\t// in\n    tag_334:\n        /* \"#utility.yul\":15166:15168   */\n      0x40\n        /* \"#utility.yul\":15161:15164   */\n      dup3\n        /* \"#utility.yul\":15157:15169   */\n      add\n        /* \"#utility.yul\":15150:15169   */\n      swap1\n      pop\n        /* \"#utility.yul\":14809:15175   */\n      swap2\n      swap1\n      pop\n      jump\t// out\n        /* \"#utility.yul\":15181:15600   */\n    tag_130:\n        /* \"#utility.yul\":15347:15351   */\n      0x00\n        /* \"#utility.yul\":15385:15387   */\n      0x20\n        /* \"#utility.yul\":15374:15383   */\n      dup3\n        /* \"#utility.yul\":15370:15388   */\n      add\n        /* \"#utility.yul\":15362:15388   */\n      swap1\n      pop\n        /* \"#utility.yul\":15434:15443   */\n      dup2\n        /* \"#utility.yul\":15428:15432   */\n      dup2\n        /* \"#utility.yul\":15424:15444   */\n      sub\n        /* \"#utility.yul\":15420:15421   */\n      0x00\n        /* \"#utility.yul\":15409:15418   */\n      dup4\n        /* \"#utility.yul\":15405:15422   */\n      add\n        /* \"#utility.yul\":15398:15445   */\n      mstore\n        /* \"#utility.yul\":15462:15593   */\n      tag_336\n        /* \"#utility.yul\":15588:15592   */\n      dup2\n        /* \"#utility.yul\":15462:15593   */\n      tag_190\n      jump\t// in\n    tag_336:\n        /* \"#utility.yul\":15454:15593   */\n      swap1\n      pop\n        /* \"#utility.yul\":15181:15600   */\n      swap2\n      swap1\n      pop\n      jump\t// out\n\n    auxdata: 0xa2646970667358221220b3b4f719aae2b16cf3471dcf86ac5afa3994a40c772facc9a5f0d7443371c4f364736f6c63430008130033\n}\n",
				"bytecode": {
					"linkReferences": {},
					"object": "60806040523480156200001157600080fd5b506040518060400160405280600881526020017f536f6c6964697479000000000000000000000000000000000000000000000000815250600090816200005891906200038a565b506040518060400160405280600481526020017f534c445400000000000000000000000000000000000000000000000000000000815250600190816200009f91906200038a565b506012600260006101000a81548160ff021916908360ff1602179055506064600381905550600354600460003373ffffffffffffffffffffffffffffffffffffffff1673ffffffffffffffffffffffffffffffffffffffff1681526020019081526020016000208190555062000471565b600081519050919050565b7f4e487b7100000000000000000000000000000000000000000000000000000000600052604160045260246000fd5b7f4e487b7100000000000000000000000000000000000000000000000000000000600052602260045260246000fd5b600060028204905060018216806200019257607f821691505b602082108103620001a857620001a76200014a565b5b50919050565b60008190508160005260206000209050919050565b60006020601f8301049050919050565b600082821b905092915050565b600060088302620002127fffffffffffffffffffffffffffffffffffffffffffffffffffffffffffffffff82620001d3565b6200021e8683620001d3565b95508019841693508086168417925050509392505050565b6000819050919050565b6000819050919050565b60006200026b620002656200025f8462000236565b62000240565b62000236565b9050919050565b6000819050919050565b62000287836200024a565b6200029f620002968262000272565b848454620001e0565b825550505050565b600090565b620002b6620002a7565b620002c38184846200027c565b505050565b5b81811015620002eb57620002df600082620002ac565b600181019050620002c9565b5050565b601f8211156200033a576200030481620001ae565b6200030f84620001c3565b810160208510156200031f578190505b620003376200032e85620001c3565b830182620002c8565b50505b505050565b600082821c905092915050565b60006200035f600019846008026200033f565b1980831691505092915050565b60006200037a83836200034c565b9150826002028217905092915050565b620003958262000110565b67ffffffffffffffff811115620003b157620003b06200011b565b5b620003bd825462000179565b620003ca828285620002ef565b600060209050601f831160018114620004025760008415620003ed578287015190505b620003f985826200036c565b86555062000469565b601f1984166200041286620001ae565b60005b828110156200043c5784890151825560018201915060208501945060208101905062000415565b868310156200045c578489015162000458601f8916826200034c565b8355505b6001600288020188555050505b505050505050565b611b6280620004816000396000f3fe6080604052600436106100dd5760003560e01c80637048e1c41161007f57806397665dda1161005957806397665dda146102b5578063a9059cbb146102e0578063d08ccb4f1461031d578063dd62ed3e14610349576100dd565b80637048e1c41461022257806370a082311461024d57806395d89b411461028a576100dd565b806318160ddd116100bb57806318160ddd146101665780631897bcf31461019157806323b872dd146101ba578063313ce567146101f7576100dd565b806306fdde03146100e2578063095ea7b31461010d5780630b8d7bfd1461014a575b600080fd5b3480156100ee57600080fd5b506100f7610386565b60405161010491906113a1565b60405180910390f35b34801561011957600080fd5b50610134600480360381019061012f919061145c565b610414565b60405161014191906114b7565b60405180910390f35b610164600480360381019061015f91906114d2565b610506565b005b34801561017257600080fd5b5061017b6108b9565b604051610188919061150e565b60405180910390f35b34801561019d57600080fd5b506101b860048036038101906101b39190611529565b6108c3565b005b3480156101c657600080fd5b506101e160048036038101906101dc9190611569565b610b68565b6040516101ee91906114b7565b60405180910390f35b34801561020357600080fd5b5061020c610e63565b60405161021991906115d8565b60405180910390f35b34801561022e57600080fd5b50610237610e76565b6040516102449190611602565b60405180910390f35b34801561025957600080fd5b50610274600480360381019061026f919061161d565b610e9c565b604051610281919061150e565b60405180910390f35b34801561029657600080fd5b5061029f610ee5565b6040516102ac91906113a1565b60405180910390f35b3480156102c157600080fd5b506102ca610f73565b6040516102d79190611602565b60405180910390f35b3480156102ec57600080fd5b506103076004803603810190610302919061145c565b610f99565b60405161031491906114b7565b60405180910390f35b34801561032957600080fd5b50610332611172565b60405161034092919061164a565b60405180910390f35b34801561035557600080fd5b50610370600480360381019061036b9190611673565b61128a565b60405161037d919061150e565b60405180910390f35b60008054610393906116e2565b80601f01602080910402602001604051908101604052809291908181526020018280546103bf906116e2565b801561040c5780601f106103e15761010080835404028352916020019161040c565b820191906000526020600020905b8154815290600101906020018083116103ef57829003601f168201915b505050505081565b600081600560003373ffffffffffffffffffffffffffffffffffffffff1673ffffffffffffffffffffffffffffffffffffffff16815260200190815260200160002060008573ffffffffffffffffffffffffffffffffffffffff1673ffffffffffffffffffffffffffffffffffffffff168152602001908152602001600020819055508273ffffffffffffffffffffffffffffffffffffffff163373ffffffffffffffffffffffffffffffffffffffff167f8c5be1e5ebec7d5bd14f71427d1e84f3dd0314c0f7b2291e5b200ac8c7c3b925846040516104f4919061150e565b60405180910390a36001905092915050565b60003411610549576040517f08c379a00000000000000000000000000000000000000000000000000000000081526004016105409061175f565b60405180910390fd5b6000811161058c576040517f08c379a0000000000000000000000000000000000000000000000000000000008152600401610583906117f1565b60405180910390fd5b60046000600860009054906101000a900473ffffffffffffffffffffffffffffffffffffffff1673ffffffffffffffffffffffffffffffffffffffff1673ffffffffffffffffffffffffffffffffffffffff16815260200190815260200160002054811115610630576040517f08c379a00000000000000000000000000000000000000000000000000000000081526004016106279061185d565b60405180910390fd5b600060076000600860009054906101000a900473ffffffffffffffffffffffffffffffffffffffff1673ffffffffffffffffffffffffffffffffffffffff1673ffffffffffffffffffffffffffffffffffffffff168152602001908152602001600020548261069f91906118ac565b90508034146106e3576040517f08c379a00000000000000000000000000000000000000000000000000000000081526004016106da9061193a565b60405180910390fd5b3373ffffffffffffffffffffffffffffffffffffffff163181111561073d576040517f08c379a0000000000000000000000000000000000000000000000000000000008152600401610734906119a6565b60405180910390fd5b81600460003073ffffffffffffffffffffffffffffffffffffffff1673ffffffffffffffffffffffffffffffffffffffff168152602001908152602001600020600082825461078c91906119c6565b9250508190555033600960006101000a81548173ffffffffffffffffffffffffffffffffffffffff021916908373ffffffffffffffffffffffffffffffffffffffff1602179055508160046000600960009054906101000a900473ffffffffffffffffffffffffffffffffffffffff1673ffffffffffffffffffffffffffffffffffffffff1673ffffffffffffffffffffffffffffffffffffffff168152602001908152602001600020600082825461084591906119fa565b92505081905550600860009054906101000a900473ffffffffffffffffffffffffffffffffffffffff1673ffffffffffffffffffffffffffffffffffffffff166108fc829081150290604051600060405180830381858888f193505050501580156108b4573d6000803e3d6000fd5b505050565b6000600354905090565b600460003373ffffffffffffffffffffffffffffffffffffffff1673ffffffffffffffffffffffffffffffffffffffff16815260200190815260200160002054821115610945576040517f08c379a000000000000000000000000000000000000000000000000000000000815260040161093c90611a7a565b60405180910390fd5b6000811015610989576040517f08c379a000000000000000000000000000000000000000000000000000000000815260040161098090611b0c565b60405180910390fd5b33600860006101000a81548173ffffffffffffffffffffffffffffffffffffffff021916908373ffffffffffffffffffffffffffffffffffffffff1602179055508160066000600860009054906101000a900473ffffffffffffffffffffffffffffffffffffffff1673ffffffffffffffffffffffffffffffffffffffff1673ffffffffffffffffffffffffffffffffffffffff168152602001908152602001600020819055508060076000600860009054906101000a900473ffffffffffffffffffffffffffffffffffffffff1673ffffffffffffffffffffffffffffffffffffffff1673ffffffffffffffffffffffffffffffffffffffff168152602001908152602001600020819055508160046000600860009054906101000a900473ffffffffffffffffffffffffffffffffffffffff1673ffffffffffffffffffffffffffffffffffffffff1673ffffffffffffffffffffffffffffffffffffffff1681526020019081526020016000206000828254610b0791906119c6565b9250508190555081600460003073ffffffffffffffffffffffffffffffffffffffff1673ffffffffffffffffffffffffffffffffffffffff1681526020019081526020016000206000828254610b5d91906119fa565b925050819055505050565b6000600460008573ffffffffffffffffffffffffffffffffffffffff1673ffffffffffffffffffffffffffffffffffffffff16815260200190815260200160002054821115610bb657600080fd5b600560008573ffffffffffffffffffffffffffffffffffffffff1673ffffffffffffffffffffffffffffffffffffffff16815260200190815260200160002060003373ffffffffffffffffffffffffffffffffffffffff1673ffffffffffffffffffffffffffffffffffffffff16815260200190815260200160002054821115610c3f57600080fd5b81600460008673ffffffffffffffffffffffffffffffffffffffff1673ffffffffffffffffffffffffffffffffffffffff1681526020019081526020016000206000828254610c8e91906119c6565b9250508190555081600560008673ffffffffffffffffffffffffffffffffffffffff1673ffffffffffffffffffffffffffffffffffffffff16815260200190815260200160002060003373ffffffffffffffffffffffffffffffffffffffff1673ffffffffffffffffffffffffffffffffffffffff16815260200190815260200160002054610d1d91906119c6565b600560008673ffffffffffffffffffffffffffffffffffffffff1673ffffffffffffffffffffffffffffffffffffffff16815260200190815260200160002060003373ffffffffffffffffffffffffffffffffffffffff1673ffffffffffffffffffffffffffffffffffffffff1681526020019081526020016000208190555081600460008573ffffffffffffffffffffffffffffffffffffffff1673ffffffffffffffffffffffffffffffffffffffff1681526020019081526020016000206000828254610dec91906119fa565b925050819055508273ffffffffffffffffffffffffffffffffffffffff168473ffffffffffffffffffffffffffffffffffffffff167fddf252ad1be2c89b69c2b068fc378daa952ba7f163c4a11628f55a4df523b3ef84604051610e50919061150e565b60405180910390a3600190509392505050565b600260009054906101000a900460ff1681565b600960009054906101000a900473ffffffffffffffffffffffffffffffffffffffff1681565b6000600460008373ffffffffffffffffffffffffffffffffffffffff1673ffffffffffffffffffffffffffffffffffffffff168152602001908152602001600020549050919050565b60018054610ef2906116e2565b80601f0160208091040260200160405190810160405280929190818152602001828054610f1e906116e2565b8015610f6b5780601f10610f4057610100808354040283529160200191610f6b565b820191906000526020600020905b815481529060010190602001808311610f4e57829003601f168201915b505050505081565b600860009054906101000a900473ffffffffffffffffffffffffffffffffffffffff1681565b6000600460003373ffffffffffffffffffffffffffffffffffffffff1673ffffffffffffffffffffffffffffffffffffffff16815260200190815260200160002054821115610fe757600080fd5b81600460003373ffffffffffffffffffffffffffffffffffffffff1673ffffffffffffffffffffffffffffffffffffffff1681526020019081526020016000205461103291906119c6565b600460003373ffffffffffffffffffffffffffffffffffffffff1673ffffffffffffffffffffffffffffffffffffffff1681526020019081526020016000208190555081600460008573ffffffffffffffffffffffffffffffffffffffff1673ffffffffffffffffffffffffffffffffffffffff168152602001908152602001600020546110c091906119fa565b600460008573ffffffffffffffffffffffffffffffffffffffff1673ffffffffffffffffffffffffffffffffffffffff168152602001908152602001600020819055508273ffffffffffffffffffffffffffffffffffffffff163373ffffffffffffffffffffffffffffffffffffffff167fddf252ad1be2c89b69c2b068fc378daa952ba7f163c4a11628f55a4df523b3ef84604051611160919061150e565b60405180910390a36001905092915050565b6000806000600660003373ffffffffffffffffffffffffffffffffffffffff1673ffffffffffffffffffffffffffffffffffffffff1681526020019081526020016000205411156112865760066000600860009054906101000a900473ffffffffffffffffffffffffffffffffffffffff1673ffffffffffffffffffffffffffffffffffffffff1673ffffffffffffffffffffffffffffffffffffffff16815260200190815260200160002054915060076000600860009054906101000a900473ffffffffffffffffffffffffffffffffffffffff1673ffffffffffffffffffffffffffffffffffffffff1673ffffffffffffffffffffffffffffffffffffffff1681526020019081526020016000205490505b9091565b6000600560008473ffffffffffffffffffffffffffffffffffffffff1673ffffffffffffffffffffffffffffffffffffffff16815260200190815260200160002060008373ffffffffffffffffffffffffffffffffffffffff1673ffffffffffffffffffffffffffffffffffffffff16815260200190815260200160002054905092915050565b600081519050919050565b600082825260208201905092915050565b60005b8381101561134b578082015181840152602081019050611330565b60008484015250505050565b6000601f19601f8301169050919050565b600061137382611311565b61137d818561131c565b935061138d81856020860161132d565b61139681611357565b840191505092915050565b600060208201905081810360008301526113bb8184611368565b905092915050565b600080fd5b600073ffffffffffffffffffffffffffffffffffffffff82169050919050565b60006113f3826113c8565b9050919050565b611403816113e8565b811461140e57600080fd5b50565b600081359050611420816113fa565b92915050565b6000819050919050565b61143981611426565b811461144457600080fd5b50565b60008135905061145681611430565b92915050565b60008060408385031215611473576114726113c3565b5b600061148185828601611411565b925050602061149285828601611447565b9150509250929050565b60008115159050919050565b6114b18161149c565b82525050565b60006020820190506114cc60008301846114a8565b92915050565b6000602082840312156114e8576114e76113c3565b5b60006114f684828501611447565b91505092915050565b61150881611426565b82525050565b600060208201905061152360008301846114ff565b92915050565b600080604083850312156115405761153f6113c3565b5b600061154e85828601611447565b925050602061155f85828601611447565b9150509250929050565b600080600060608486031215611582576115816113c3565b5b600061159086828701611411565b93505060206115a186828701611411565b92505060406115b286828701611447565b9150509250925092565b600060ff82169050919050565b6115d2816115bc565b82525050565b60006020820190506115ed60008301846115c9565b92915050565b6115fc816113e8565b82525050565b600060208201905061161760008301846115f3565b92915050565b600060208284031215611633576116326113c3565b5b600061164184828501611411565b91505092915050565b600060408201905061165f60008301856114ff565b61166c60208301846114ff565b9392505050565b6000806040838503121561168a576116896113c3565b5b600061169885828601611411565b92505060206116a985828601611411565b9150509250929050565b7f4e487b7100000000000000000000000000000000000000000000000000000000600052602260045260246000fd5b600060028204905060018216806116fa57607f821691505b60208210810361170d5761170c6116b3565b5b50919050565b7f6974206d7573742062652067726561746572207468616e205a65726f00000000600082015250565b6000611749601c8361131c565b915061175482611713565b602082019050919050565b600060208201905081810360008301526117788161173c565b9050919050565b7f5175616e74697479206d7573742062652067726561746572207468616e205a6560008201527f726f000000000000000000000000000000000000000000000000000000000000602082015250565b60006117db60228361131c565b91506117e68261177f565b604082019050919050565b6000602082019050818103600083015261180a816117ce565b9050919050565b7f706c6561736520636865636b207175616e697479000000000000000000000000600082015250565b600061184760148361131c565b915061185282611811565b602082019050919050565b600060208201905081810360008301526118768161183a565b9050919050565b7f4e487b7100000000000000000000000000000000000000000000000000000000600052601160045260246000fd5b60006118b782611426565b91506118c283611426565b92508282026118d081611426565b915082820484148315176118e7576118e661187d565b5b5092915050565b7f436865636b20616d6f756e740000000000000000000000000000000000000000600082015250565b6000611924600c8361131c565b915061192f826118ee565b602082019050919050565b6000602082019050818103600083015261195381611917565b9050919050565b7f436865636b20596f757220546f74616c2042616c616e63650000000000000000600082015250565b600061199060188361131c565b915061199b8261195a565b602082019050919050565b600060208201905081810360008301526119bf81611983565b9050919050565b60006119d182611426565b91506119dc83611426565b92508282039050818111156119f4576119f361187d565b5b92915050565b6000611a0582611426565b9150611a1083611426565b9250828201905080821115611a2857611a2761187d565b5b92915050565b7f596f752068617665277420656e6f7567682062616c616e636500000000000000600082015250565b6000611a6460198361131c565b9150611a6f82611a2e565b602082019050919050565b60006020820190508181036000830152611a9381611a57565b9050919050565b7f53656c6c696e672070726963652063616e2774206265206c657373207468616e60008201527f2030000000000000000000000000000000000000000000000000000000000000602082015250565b6000611af660228361131c565b9150611b0182611a9a565b604082019050919050565b60006020820190508181036000830152611b2581611ae9565b905091905056fea2646970667358221220b3b4f719aae2b16cf3471dcf86ac5afa3994a40c772facc9a5f0d7443371c4f364736f6c63430008130033",
					"opcodes": "PUSH1 0x80 PUSH1 0x40 MSTORE CALLVALUE DUP1 ISZERO PUSH3 0x11 JUMPI PUSH1 0x0 DUP1 REVERT JUMPDEST POP PUSH1 0x40 MLOAD DUP1 PUSH1 0x40 ADD PUSH1 0x40 MSTORE DUP1 PUSH1 0x8 DUP2 MSTORE PUSH1 0x20 ADD PUSH32 0x536F6C6964697479000000000000000000000000000000000000000000000000 DUP2 MSTORE POP PUSH1 0x0 SWAP1 DUP2 PUSH3 0x58 SWAP2 SWAP1 PUSH3 0x38A JUMP JUMPDEST POP PUSH1 0x40 MLOAD DUP1 PUSH1 0x40 ADD PUSH1 0x40 MSTORE DUP1 PUSH1 0x4 DUP2 MSTORE PUSH1 0x20 ADD PUSH32 0x534C445400000000000000000000000000000000000000000000000000000000 DUP2 MSTORE POP PUSH1 0x1 SWAP1 DUP2 PUSH3 0x9F SWAP2 SWAP1 PUSH3 0x38A JUMP JUMPDEST POP PUSH1 0x12 PUSH1 0x2 PUSH1 0x0 PUSH2 0x100 EXP DUP2 SLOAD DUP2 PUSH1 0xFF MUL NOT AND SWAP1 DUP4 PUSH1 0xFF AND MUL OR SWAP1 SSTORE POP PUSH1 0x64 PUSH1 0x3 DUP2 SWAP1 SSTORE POP PUSH1 0x3 SLOAD PUSH1 0x4 PUSH1 0x0 CALLER PUSH20 0xFFFFFFFFFFFFFFFFFFFFFFFFFFFFFFFFFFFFFFFF AND PUSH20 0xFFFFFFFFFFFFFFFFFFFFFFFFFFFFFFFFFFFFFFFF AND DUP2 MSTORE PUSH1 0x20 ADD SWAP1 DUP2 MSTORE PUSH1 0x20 ADD PUSH1 0x0 KECCAK256 DUP2 SWAP1 SSTORE POP PUSH3 0x471 JUMP JUMPDEST PUSH1 0x0 DUP2 MLOAD SWAP1 POP SWAP2 SWAP1 POP JUMP JUMPDEST PUSH32 0x4E487B7100000000000000000000000000000000000000000000000000000000 PUSH1 0x0 MSTORE PUSH1 0x41 PUSH1 0x4 MSTORE PUSH1 0x24 PUSH1 0x0 REVERT JUMPDEST PUSH32 0x4E487B7100000000000000000000000000000000000000000000000000000000 PUSH1 0x0 MSTORE PUSH1 0x22 PUSH1 0x4 MSTORE PUSH1 0x24 PUSH1 0x0 REVERT JUMPDEST PUSH1 0x0 PUSH1 0x2 DUP3 DIV SWAP1 POP PUSH1 0x1 DUP3 AND DUP1 PUSH3 0x192 JUMPI PUSH1 0x7F DUP3 AND SWAP2 POP JUMPDEST PUSH1 0x20 DUP3 LT DUP2 SUB PUSH3 0x1A8 JUMPI PUSH3 0x1A7 PUSH3 0x14A JUMP JUMPDEST JUMPDEST POP SWAP2 SWAP1 POP JUMP JUMPDEST PUSH1 0x0 DUP2 SWAP1 POP DUP2 PUSH1 0x0 MSTORE PUSH1 0x20 PUSH1 0x0 KECCAK256 SWAP1 POP SWAP2 SWAP1 POP JUMP JUMPDEST PUSH1 0x0 PUSH1 0x20 PUSH1 0x1F DUP4 ADD DIV SWAP1 POP SWAP2 SWAP1 POP JUMP JUMPDEST PUSH1 0x0 DUP3 DUP3 SHL SWAP1 POP SWAP3 SWAP2 POP POP JUMP JUMPDEST PUSH1 0x0 PUSH1 0x8 DUP4 MUL PUSH3 0x212 PUSH32 0xFFFFFFFFFFFFFFFFFFFFFFFFFFFFFFFFFFFFFFFFFFFFFFFFFFFFFFFFFFFFFFFF DUP3 PUSH3 0x1D3 JUMP JUMPDEST PUSH3 0x21E DUP7 DUP4 PUSH3 0x1D3 JUMP JUMPDEST SWAP6 POP DUP1 NOT DUP5 AND SWAP4 POP DUP1 DUP7 AND DUP5 OR SWAP3 POP POP POP SWAP4 SWAP3 POP POP POP JUMP JUMPDEST PUSH1 0x0 DUP2 SWAP1 POP SWAP2 SWAP1 POP JUMP JUMPDEST PUSH1 0x0 DUP2 SWAP1 POP SWAP2 SWAP1 POP JUMP JUMPDEST PUSH1 0x0 PUSH3 0x26B PUSH3 0x265 PUSH3 0x25F DUP5 PUSH3 0x236 JUMP JUMPDEST PUSH3 0x240 JUMP JUMPDEST PUSH3 0x236 JUMP JUMPDEST SWAP1 POP SWAP2 SWAP1 POP JUMP JUMPDEST PUSH1 0x0 DUP2 SWAP1 POP SWAP2 SWAP1 POP JUMP JUMPDEST PUSH3 0x287 DUP4 PUSH3 0x24A JUMP JUMPDEST PUSH3 0x29F PUSH3 0x296 DUP3 PUSH3 0x272 JUMP JUMPDEST DUP5 DUP5 SLOAD PUSH3 0x1E0 JUMP JUMPDEST DUP3 SSTORE POP POP POP POP JUMP JUMPDEST PUSH1 0x0 SWAP1 JUMP JUMPDEST PUSH3 0x2B6 PUSH3 0x2A7 JUMP JUMPDEST PUSH3 0x2C3 DUP2 DUP5 DUP5 PUSH3 0x27C JUMP JUMPDEST POP POP POP JUMP JUMPDEST JUMPDEST DUP2 DUP2 LT ISZERO PUSH3 0x2EB JUMPI PUSH3 0x2DF PUSH1 0x0 DUP3 PUSH3 0x2AC JUMP JUMPDEST PUSH1 0x1 DUP2 ADD SWAP1 POP PUSH3 0x2C9 JUMP JUMPDEST POP POP JUMP JUMPDEST PUSH1 0x1F DUP3 GT ISZERO PUSH3 0x33A JUMPI PUSH3 0x304 DUP2 PUSH3 0x1AE JUMP JUMPDEST PUSH3 0x30F DUP5 PUSH3 0x1C3 JUMP JUMPDEST DUP2 ADD PUSH1 0x20 DUP6 LT ISZERO PUSH3 0x31F JUMPI DUP2 SWAP1 POP JUMPDEST PUSH3 0x337 PUSH3 0x32E DUP6 PUSH3 0x1C3 JUMP JUMPDEST DUP4 ADD DUP3 PUSH3 0x2C8 JUMP JUMPDEST POP POP JUMPDEST POP POP POP JUMP JUMPDEST PUSH1 0x0 DUP3 DUP3 SHR SWAP1 POP SWAP3 SWAP2 POP POP JUMP JUMPDEST PUSH1 0x0 PUSH3 0x35F PUSH1 0x0 NOT DUP5 PUSH1 0x8 MUL PUSH3 0x33F JUMP JUMPDEST NOT DUP1 DUP4 AND SWAP2 POP POP SWAP3 SWAP2 POP POP JUMP JUMPDEST PUSH1 0x0 PUSH3 0x37A DUP4 DUP4 PUSH3 0x34C JUMP JUMPDEST SWAP2 POP DUP3 PUSH1 0x2 MUL DUP3 OR SWAP1 POP SWAP3 SWAP2 POP POP JUMP JUMPDEST PUSH3 0x395 DUP3 PUSH3 0x110 JUMP JUMPDEST PUSH8 0xFFFFFFFFFFFFFFFF DUP2 GT ISZERO PUSH3 0x3B1 JUMPI PUSH3 0x3B0 PUSH3 0x11B JUMP JUMPDEST JUMPDEST PUSH3 0x3BD DUP3 SLOAD PUSH3 0x179 JUMP JUMPDEST PUSH3 0x3CA DUP3 DUP3 DUP6 PUSH3 0x2EF JUMP JUMPDEST PUSH1 0x0 PUSH1 0x20 SWAP1 POP PUSH1 0x1F DUP4 GT PUSH1 0x1 DUP2 EQ PUSH3 0x402 JUMPI PUSH1 0x0 DUP5 ISZERO PUSH3 0x3ED JUMPI DUP3 DUP8 ADD MLOAD SWAP1 POP JUMPDEST PUSH3 0x3F9 DUP6 DUP3 PUSH3 0x36C JUMP JUMPDEST DUP7 SSTORE POP PUSH3 0x469 JUMP JUMPDEST PUSH1 0x1F NOT DUP5 AND PUSH3 0x412 DUP7 PUSH3 0x1AE JUMP JUMPDEST PUSH1 0x0 JUMPDEST DUP3 DUP2 LT ISZERO PUSH3 0x43C JUMPI DUP5 DUP10 ADD MLOAD DUP3 SSTORE PUSH1 0x1 DUP3 ADD SWAP2 POP PUSH1 0x20 DUP6 ADD SWAP5 POP PUSH1 0x20 DUP2 ADD SWAP1 POP PUSH3 0x415 JUMP JUMPDEST DUP7 DUP4 LT ISZERO PUSH3 0x45C JUMPI DUP5 DUP10 ADD MLOAD PUSH3 0x458 PUSH1 0x1F DUP10 AND DUP3 PUSH3 0x34C JUMP JUMPDEST DUP4 SSTORE POP JUMPDEST PUSH1 0x1 PUSH1 0x2 DUP9 MUL ADD DUP9 SSTORE POP POP POP JUMPDEST POP POP POP POP POP POP JUMP JUMPDEST PUSH2 0x1B62 DUP1 PUSH3 0x481 PUSH1 0x0 CODECOPY PUSH1 0x0 RETURN INVALID PUSH1 0x80 PUSH1 0x40 MSTORE PUSH1 0x4 CALLDATASIZE LT PUSH2 0xDD JUMPI PUSH1 0x0 CALLDATALOAD PUSH1 0xE0 SHR DUP1 PUSH4 0x7048E1C4 GT PUSH2 0x7F JUMPI DUP1 PUSH4 0x97665DDA GT PUSH2 0x59 JUMPI DUP1 PUSH4 0x97665DDA EQ PUSH2 0x2B5 JUMPI DUP1 PUSH4 0xA9059CBB EQ PUSH2 0x2E0 JUMPI DUP1 PUSH4 0xD08CCB4F EQ PUSH2 0x31D JUMPI DUP1 PUSH4 0xDD62ED3E EQ PUSH2 0x349 JUMPI PUSH2 0xDD JUMP JUMPDEST DUP1 PUSH4 0x7048E1C4 EQ PUSH2 0x222 JUMPI DUP1 PUSH4 0x70A08231 EQ PUSH2 0x24D JUMPI DUP1 PUSH4 0x95D89B41 EQ PUSH2 0x28A JUMPI PUSH2 0xDD JUMP JUMPDEST DUP1 PUSH4 0x18160DDD GT PUSH2 0xBB JUMPI DUP1 PUSH4 0x18160DDD EQ PUSH2 0x166 JUMPI DUP1 PUSH4 0x1897BCF3 EQ PUSH2 0x191 JUMPI DUP1 PUSH4 0x23B872DD EQ PUSH2 0x1BA JUMPI DUP1 PUSH4 0x313CE567 EQ PUSH2 0x1F7 JUMPI PUSH2 0xDD JUMP JUMPDEST DUP1 PUSH4 0x6FDDE03 EQ PUSH2 0xE2 JUMPI DUP1 PUSH4 0x95EA7B3 EQ PUSH2 0x10D JUMPI DUP1 PUSH4 0xB8D7BFD EQ PUSH2 0x14A JUMPI JUMPDEST PUSH1 0x0 DUP1 REVERT JUMPDEST CALLVALUE DUP1 ISZERO PUSH2 0xEE JUMPI PUSH1 0x0 DUP1 REVERT JUMPDEST POP PUSH2 0xF7 PUSH2 0x386 JUMP JUMPDEST PUSH1 0x40 MLOAD PUSH2 0x104 SWAP2 SWAP1 PUSH2 0x13A1 JUMP JUMPDEST PUSH1 0x40 MLOAD DUP1 SWAP2 SUB SWAP1 RETURN JUMPDEST CALLVALUE DUP1 ISZERO PUSH2 0x119 JUMPI PUSH1 0x0 DUP1 REVERT JUMPDEST POP PUSH2 0x134 PUSH1 0x4 DUP1 CALLDATASIZE SUB DUP2 ADD SWAP1 PUSH2 0x12F SWAP2 SWAP1 PUSH2 0x145C JUMP JUMPDEST PUSH2 0x414 JUMP JUMPDEST PUSH1 0x40 MLOAD PUSH2 0x141 SWAP2 SWAP1 PUSH2 0x14B7 JUMP JUMPDEST PUSH1 0x40 MLOAD DUP1 SWAP2 SUB SWAP1 RETURN JUMPDEST PUSH2 0x164 PUSH1 0x4 DUP1 CALLDATASIZE SUB DUP2 ADD SWAP1 PUSH2 0x15F SWAP2 SWAP1 PUSH2 0x14D2 JUMP JUMPDEST PUSH2 0x506 JUMP JUMPDEST STOP JUMPDEST CALLVALUE DUP1 ISZERO PUSH2 0x172 JUMPI PUSH1 0x0 DUP1 REVERT JUMPDEST POP PUSH2 0x17B PUSH2 0x8B9 JUMP JUMPDEST PUSH1 0x40 MLOAD PUSH2 0x188 SWAP2 SWAP1 PUSH2 0x150E JUMP JUMPDEST PUSH1 0x40 MLOAD DUP1 SWAP2 SUB SWAP1 RETURN JUMPDEST CALLVALUE DUP1 ISZERO PUSH2 0x19D JUMPI PUSH1 0x0 DUP1 REVERT JUMPDEST POP PUSH2 0x1B8 PUSH1 0x4 DUP1 CALLDATASIZE SUB DUP2 ADD SWAP1 PUSH2 0x1B3 SWAP2 SWAP1 PUSH2 0x1529 JUMP JUMPDEST PUSH2 0x8C3 JUMP JUMPDEST STOP JUMPDEST CALLVALUE DUP1 ISZERO PUSH2 0x1C6 JUMPI PUSH1 0x0 DUP1 REVERT JUMPDEST POP PUSH2 0x1E1 PUSH1 0x4 DUP1 CALLDATASIZE SUB DUP2 ADD SWAP1 PUSH2 0x1DC SWAP2 SWAP1 PUSH2 0x1569 JUMP JUMPDEST PUSH2 0xB68 JUMP JUMPDEST PUSH1 0x40 MLOAD PUSH2 0x1EE SWAP2 SWAP1 PUSH2 0x14B7 JUMP JUMPDEST PUSH1 0x40 MLOAD DUP1 SWAP2 SUB SWAP1 RETURN JUMPDEST CALLVALUE DUP1 ISZERO PUSH2 0x203 JUMPI PUSH1 0x0 DUP1 REVERT JUMPDEST POP PUSH2 0x20C PUSH2 0xE63 JUMP JUMPDEST PUSH1 0x40 MLOAD PUSH2 0x219 SWAP2 SWAP1 PUSH2 0x15D8 JUMP JUMPDEST PUSH1 0x40 MLOAD DUP1 SWAP2 SUB SWAP1 RETURN JUMPDEST CALLVALUE DUP1 ISZERO PUSH2 0x22E JUMPI PUSH1 0x0 DUP1 REVERT JUMPDEST POP PUSH2 0x237 PUSH2 0xE76 JUMP JUMPDEST PUSH1 0x40 MLOAD PUSH2 0x244 SWAP2 SWAP1 PUSH2 0x1602 JUMP JUMPDEST PUSH1 0x40 MLOAD DUP1 SWAP2 SUB SWAP1 RETURN JUMPDEST CALLVALUE DUP1 ISZERO PUSH2 0x259 JUMPI PUSH1 0x0 DUP1 REVERT JUMPDEST POP PUSH2 0x274 PUSH1 0x4 DUP1 CALLDATASIZE SUB DUP2 ADD SWAP1 PUSH2 0x26F SWAP2 SWAP1 PUSH2 0x161D JUMP JUMPDEST PUSH2 0xE9C JUMP JUMPDEST PUSH1 0x40 MLOAD PUSH2 0x281 SWAP2 SWAP1 PUSH2 0x150E JUMP JUMPDEST PUSH1 0x40 MLOAD DUP1 SWAP2 SUB SWAP1 RETURN JUMPDEST CALLVALUE DUP1 ISZERO PUSH2 0x296 JUMPI PUSH1 0x0 DUP1 REVERT JUMPDEST POP PUSH2 0x29F PUSH2 0xEE5 JUMP JUMPDEST PUSH1 0x40 MLOAD PUSH2 0x2AC SWAP2 SWAP1 PUSH2 0x13A1 JUMP JUMPDEST PUSH1 0x40 MLOAD DUP1 SWAP2 SUB SWAP1 RETURN JUMPDEST CALLVALUE DUP1 ISZERO PUSH2 0x2C1 JUMPI PUSH1 0x0 DUP1 REVERT JUMPDEST POP PUSH2 0x2CA PUSH2 0xF73 JUMP JUMPDEST PUSH1 0x40 MLOAD PUSH2 0x2D7 SWAP2 SWAP1 PUSH2 0x1602 JUMP JUMPDEST PUSH1 0x40 MLOAD DUP1 SWAP2 SUB SWAP1 RETURN JUMPDEST CALLVALUE DUP1 ISZERO PUSH2 0x2EC JUMPI PUSH1 0x0 DUP1 REVERT JUMPDEST POP PUSH2 0x307 PUSH1 0x4 DUP1 CALLDATASIZE SUB DUP2 ADD SWAP1 PUSH2 0x302 SWAP2 SWAP1 PUSH2 0x145C JUMP JUMPDEST PUSH2 0xF99 JUMP JUMPDEST PUSH1 0x40 MLOAD PUSH2 0x314 SWAP2 SWAP1 PUSH2 0x14B7 JUMP JUMPDEST PUSH1 0x40 MLOAD DUP1 SWAP2 SUB SWAP1 RETURN JUMPDEST CALLVALUE DUP1 ISZERO PUSH2 0x329 JUMPI PUSH1 0x0 DUP1 REVERT JUMPDEST POP PUSH2 0x332 PUSH2 0x1172 JUMP JUMPDEST PUSH1 0x40 MLOAD PUSH2 0x340 SWAP3 SWAP2 SWAP1 PUSH2 0x164A JUMP JUMPDEST PUSH1 0x40 MLOAD DUP1 SWAP2 SUB SWAP1 RETURN JUMPDEST CALLVALUE DUP1 ISZERO PUSH2 0x355 JUMPI PUSH1 0x0 DUP1 REVERT JUMPDEST POP PUSH2 0x370 PUSH1 0x4 DUP1 CALLDATASIZE SUB DUP2 ADD SWAP1 PUSH2 0x36B SWAP2 SWAP1 PUSH2 0x1673 JUMP JUMPDEST PUSH2 0x128A JUMP JUMPDEST PUSH1 0x40 MLOAD PUSH2 0x37D SWAP2 SWAP1 PUSH2 0x150E JUMP JUMPDEST PUSH1 0x40 MLOAD DUP1 SWAP2 SUB SWAP1 RETURN JUMPDEST PUSH1 0x0 DUP1 SLOAD PUSH2 0x393 SWAP1 PUSH2 0x16E2 JUMP JUMPDEST DUP1 PUSH1 0x1F ADD PUSH1 0x20 DUP1 SWAP2 DIV MUL PUSH1 0x20 ADD PUSH1 0x40 MLOAD SWAP1 DUP2 ADD PUSH1 0x40 MSTORE DUP1 SWAP3 SWAP2 SWAP1 DUP2 DUP2 MSTORE PUSH1 0x20 ADD DUP3 DUP1 SLOAD PUSH2 0x3BF SWAP1 PUSH2 0x16E2 JUMP JUMPDEST DUP1 ISZERO PUSH2 0x40C JUMPI DUP1 PUSH1 0x1F LT PUSH2 0x3E1 JUMPI PUSH2 0x100 DUP1 DUP4 SLOAD DIV MUL DUP4 MSTORE SWAP2 PUSH1 0x20 ADD SWAP2 PUSH2 0x40C JUMP JUMPDEST DUP3 ADD SWAP2 SWAP1 PUSH1 0x0 MSTORE PUSH1 0x20 PUSH1 0x0 KECCAK256 SWAP1 JUMPDEST DUP2 SLOAD DUP2 MSTORE SWAP1 PUSH1 0x1 ADD SWAP1 PUSH1 0x20 ADD DUP1 DUP4 GT PUSH2 0x3EF JUMPI DUP3 SWAP1 SUB PUSH1 0x1F AND DUP3 ADD SWAP2 JUMPDEST POP POP POP POP POP DUP2 JUMP JUMPDEST PUSH1 0x0 DUP2 PUSH1 0x5 PUSH1 0x0 CALLER PUSH20 0xFFFFFFFFFFFFFFFFFFFFFFFFFFFFFFFFFFFFFFFF AND PUSH20 0xFFFFFFFFFFFFFFFFFFFFFFFFFFFFFFFFFFFFFFFF AND DUP2 MSTORE PUSH1 0x20 ADD SWAP1 DUP2 MSTORE PUSH1 0x20 ADD PUSH1 0x0 KECCAK256 PUSH1 0x0 DUP6 PUSH20 0xFFFFFFFFFFFFFFFFFFFFFFFFFFFFFFFFFFFFFFFF AND PUSH20 0xFFFFFFFFFFFFFFFFFFFFFFFFFFFFFFFFFFFFFFFF AND DUP2 MSTORE PUSH1 0x20 ADD SWAP1 DUP2 MSTORE PUSH1 0x20 ADD PUSH1 0x0 KECCAK256 DUP2 SWAP1 SSTORE POP DUP3 PUSH20 0xFFFFFFFFFFFFFFFFFFFFFFFFFFFFFFFFFFFFFFFF AND CALLER PUSH20 0xFFFFFFFFFFFFFFFFFFFFFFFFFFFFFFFFFFFFFFFF AND PUSH32 0x8C5BE1E5EBEC7D5BD14F71427D1E84F3DD0314C0F7B2291E5B200AC8C7C3B925 DUP5 PUSH1 0x40 MLOAD PUSH2 0x4F4 SWAP2 SWAP1 PUSH2 0x150E JUMP JUMPDEST PUSH1 0x40 MLOAD DUP1 SWAP2 SUB SWAP1 LOG3 PUSH1 0x1 SWAP1 POP SWAP3 SWAP2 POP POP JUMP JUMPDEST PUSH1 0x0 CALLVALUE GT PUSH2 0x549 JUMPI PUSH1 0x40 MLOAD PUSH32 0x8C379A000000000000000000000000000000000000000000000000000000000 DUP2 MSTORE PUSH1 0x4 ADD PUSH2 0x540 SWAP1 PUSH2 0x175F JUMP JUMPDEST PUSH1 0x40 MLOAD DUP1 SWAP2 SUB SWAP1 REVERT JUMPDEST PUSH1 0x0 DUP2 GT PUSH2 0x58C JUMPI PUSH1 0x40 MLOAD PUSH32 0x8C379A000000000000000000000000000000000000000000000000000000000 DUP2 MSTORE PUSH1 0x4 ADD PUSH2 0x583 SWAP1 PUSH2 0x17F1 JUMP JUMPDEST PUSH1 0x40 MLOAD DUP1 SWAP2 SUB SWAP1 REVERT JUMPDEST PUSH1 0x4 PUSH1 0x0 PUSH1 0x8 PUSH1 0x0 SWAP1 SLOAD SWAP1 PUSH2 0x100 EXP SWAP1 DIV PUSH20 0xFFFFFFFFFFFFFFFFFFFFFFFFFFFFFFFFFFFFFFFF AND PUSH20 0xFFFFFFFFFFFFFFFFFFFFFFFFFFFFFFFFFFFFFFFF AND PUSH20 0xFFFFFFFFFFFFFFFFFFFFFFFFFFFFFFFFFFFFFFFF AND DUP2 MSTORE PUSH1 0x20 ADD SWAP1 DUP2 MSTORE PUSH1 0x20 ADD PUSH1 0x0 KECCAK256 SLOAD DUP2 GT ISZERO PUSH2 0x630 JUMPI PUSH1 0x40 MLOAD PUSH32 0x8C379A000000000000000000000000000000000000000000000000000000000 DUP2 MSTORE PUSH1 0x4 ADD PUSH2 0x627 SWAP1 PUSH2 0x185D JUMP JUMPDEST PUSH1 0x40 MLOAD DUP1 SWAP2 SUB SWAP1 REVERT JUMPDEST PUSH1 0x0 PUSH1 0x7 PUSH1 0x0 PUSH1 0x8 PUSH1 0x0 SWAP1 SLOAD SWAP1 PUSH2 0x100 EXP SWAP1 DIV PUSH20 0xFFFFFFFFFFFFFFFFFFFFFFFFFFFFFFFFFFFFFFFF AND PUSH20 0xFFFFFFFFFFFFFFFFFFFFFFFFFFFFFFFFFFFFFFFF AND PUSH20 0xFFFFFFFFFFFFFFFFFFFFFFFFFFFFFFFFFFFFFFFF AND DUP2 MSTORE PUSH1 0x20 ADD SWAP1 DUP2 MSTORE PUSH1 0x20 ADD PUSH1 0x0 KECCAK256 SLOAD DUP3 PUSH2 0x69F SWAP2 SWAP1 PUSH2 0x18AC JUMP JUMPDEST SWAP1 POP DUP1 CALLVALUE EQ PUSH2 0x6E3 JUMPI PUSH1 0x40 MLOAD PUSH32 0x8C379A000000000000000000000000000000000000000000000000000000000 DUP2 MSTORE PUSH1 0x4 ADD PUSH2 0x6DA SWAP1 PUSH2 0x193A JUMP JUMPDEST PUSH1 0x40 MLOAD DUP1 SWAP2 SUB SWAP1 REVERT JUMPDEST CALLER PUSH20 0xFFFFFFFFFFFFFFFFFFFFFFFFFFFFFFFFFFFFFFFF AND BALANCE DUP2 GT ISZERO PUSH2 0x73D JUMPI PUSH1 0x40 MLOAD PUSH32 0x8C379A000000000000000000000000000000000000000000000000000000000 DUP2 MSTORE PUSH1 0x4 ADD PUSH2 0x734 SWAP1 PUSH2 0x19A6 JUMP JUMPDEST PUSH1 0x40 MLOAD DUP1 SWAP2 SUB SWAP1 REVERT JUMPDEST DUP2 PUSH1 0x4 PUSH1 0x0 ADDRESS PUSH20 0xFFFFFFFFFFFFFFFFFFFFFFFFFFFFFFFFFFFFFFFF AND PUSH20 0xFFFFFFFFFFFFFFFFFFFFFFFFFFFFFFFFFFFFFFFF AND DUP2 MSTORE PUSH1 0x20 ADD SWAP1 DUP2 MSTORE PUSH1 0x20 ADD PUSH1 0x0 KECCAK256 PUSH1 0x0 DUP3 DUP3 SLOAD PUSH2 0x78C SWAP2 SWAP1 PUSH2 0x19C6 JUMP JUMPDEST SWAP3 POP POP DUP2 SWAP1 SSTORE POP CALLER PUSH1 0x9 PUSH1 0x0 PUSH2 0x100 EXP DUP2 SLOAD DUP2 PUSH20 0xFFFFFFFFFFFFFFFFFFFFFFFFFFFFFFFFFFFFFFFF MUL NOT AND SWAP1 DUP4 PUSH20 0xFFFFFFFFFFFFFFFFFFFFFFFFFFFFFFFFFFFFFFFF AND MUL OR SWAP1 SSTORE POP DUP2 PUSH1 0x4 PUSH1 0x0 PUSH1 0x9 PUSH1 0x0 SWAP1 SLOAD SWAP1 PUSH2 0x100 EXP SWAP1 DIV PUSH20 0xFFFFFFFFFFFFFFFFFFFFFFFFFFFFFFFFFFFFFFFF AND PUSH20 0xFFFFFFFFFFFFFFFFFFFFFFFFFFFFFFFFFFFFFFFF AND PUSH20 0xFFFFFFFFFFFFFFFFFFFFFFFFFFFFFFFFFFFFFFFF AND DUP2 MSTORE PUSH1 0x20 ADD SWAP1 DUP2 MSTORE PUSH1 0x20 ADD PUSH1 0x0 KECCAK256 PUSH1 0x0 DUP3 DUP3 SLOAD PUSH2 0x845 SWAP2 SWAP1 PUSH2 0x19FA JUMP JUMPDEST SWAP3 POP POP DUP2 SWAP1 SSTORE POP PUSH1 0x8 PUSH1 0x0 SWAP1 SLOAD SWAP1 PUSH2 0x100 EXP SWAP1 DIV PUSH20 0xFFFFFFFFFFFFFFFFFFFFFFFFFFFFFFFFFFFFFFFF AND PUSH20 0xFFFFFFFFFFFFFFFFFFFFFFFFFFFFFFFFFFFFFFFF AND PUSH2 0x8FC DUP3 SWAP1 DUP2 ISZERO MUL SWAP1 PUSH1 0x40 MLOAD PUSH1 0x0 PUSH1 0x40 MLOAD DUP1 DUP4 SUB DUP2 DUP6 DUP9 DUP9 CALL SWAP4 POP POP POP POP ISZERO DUP1 ISZERO PUSH2 0x8B4 JUMPI RETURNDATASIZE PUSH1 0x0 DUP1 RETURNDATACOPY RETURNDATASIZE PUSH1 0x0 REVERT JUMPDEST POP POP POP JUMP JUMPDEST PUSH1 0x0 PUSH1 0x3 SLOAD SWAP1 POP SWAP1 JUMP JUMPDEST PUSH1 0x4 PUSH1 0x0 CALLER PUSH20 0xFFFFFFFFFFFFFFFFFFFFFFFFFFFFFFFFFFFFFFFF AND PUSH20 0xFFFFFFFFFFFFFFFFFFFFFFFFFFFFFFFFFFFFFFFF AND DUP2 MSTORE PUSH1 0x20 ADD SWAP1 DUP2 MSTORE PUSH1 0x20 ADD PUSH1 0x0 KECCAK256 SLOAD DUP3 GT ISZERO PUSH2 0x945 JUMPI PUSH1 0x40 MLOAD PUSH32 0x8C379A000000000000000000000000000000000000000000000000000000000 DUP2 MSTORE PUSH1 0x4 ADD PUSH2 0x93C SWAP1 PUSH2 0x1A7A JUMP JUMPDEST PUSH1 0x40 MLOAD DUP1 SWAP2 SUB SWAP1 REVERT JUMPDEST PUSH1 0x0 DUP2 LT ISZERO PUSH2 0x989 JUMPI PUSH1 0x40 MLOAD PUSH32 0x8C379A000000000000000000000000000000000000000000000000000000000 DUP2 MSTORE PUSH1 0x4 ADD PUSH2 0x980 SWAP1 PUSH2 0x1B0C JUMP JUMPDEST PUSH1 0x40 MLOAD DUP1 SWAP2 SUB SWAP1 REVERT JUMPDEST CALLER PUSH1 0x8 PUSH1 0x0 PUSH2 0x100 EXP DUP2 SLOAD DUP2 PUSH20 0xFFFFFFFFFFFFFFFFFFFFFFFFFFFFFFFFFFFFFFFF MUL NOT AND SWAP1 DUP4 PUSH20 0xFFFFFFFFFFFFFFFFFFFFFFFFFFFFFFFFFFFFFFFF AND MUL OR SWAP1 SSTORE POP DUP2 PUSH1 0x6 PUSH1 0x0 PUSH1 0x8 PUSH1 0x0 SWAP1 SLOAD SWAP1 PUSH2 0x100 EXP SWAP1 DIV PUSH20 0xFFFFFFFFFFFFFFFFFFFFFFFFFFFFFFFFFFFFFFFF AND PUSH20 0xFFFFFFFFFFFFFFFFFFFFFFFFFFFFFFFFFFFFFFFF AND PUSH20 0xFFFFFFFFFFFFFFFFFFFFFFFFFFFFFFFFFFFFFFFF AND DUP2 MSTORE PUSH1 0x20 ADD SWAP1 DUP2 MSTORE PUSH1 0x20 ADD PUSH1 0x0 KECCAK256 DUP2 SWAP1 SSTORE POP DUP1 PUSH1 0x7 PUSH1 0x0 PUSH1 0x8 PUSH1 0x0 SWAP1 SLOAD SWAP1 PUSH2 0x100 EXP SWAP1 DIV PUSH20 0xFFFFFFFFFFFFFFFFFFFFFFFFFFFFFFFFFFFFFFFF AND PUSH20 0xFFFFFFFFFFFFFFFFFFFFFFFFFFFFFFFFFFFFFFFF AND PUSH20 0xFFFFFFFFFFFFFFFFFFFFFFFFFFFFFFFFFFFFFFFF AND DUP2 MSTORE PUSH1 0x20 ADD SWAP1 DUP2 MSTORE PUSH1 0x20 ADD PUSH1 0x0 KECCAK256 DUP2 SWAP1 SSTORE POP DUP2 PUSH1 0x4 PUSH1 0x0 PUSH1 0x8 PUSH1 0x0 SWAP1 SLOAD SWAP1 PUSH2 0x100 EXP SWAP1 DIV PUSH20 0xFFFFFFFFFFFFFFFFFFFFFFFFFFFFFFFFFFFFFFFF AND PUSH20 0xFFFFFFFFFFFFFFFFFFFFFFFFFFFFFFFFFFFFFFFF AND PUSH20 0xFFFFFFFFFFFFFFFFFFFFFFFFFFFFFFFFFFFFFFFF AND DUP2 MSTORE PUSH1 0x20 ADD SWAP1 DUP2 MSTORE PUSH1 0x20 ADD PUSH1 0x0 KECCAK256 PUSH1 0x0 DUP3 DUP3 SLOAD PUSH2 0xB07 SWAP2 SWAP1 PUSH2 0x19C6 JUMP JUMPDEST SWAP3 POP POP DUP2 SWAP1 SSTORE POP DUP2 PUSH1 0x4 PUSH1 0x0 ADDRESS PUSH20 0xFFFFFFFFFFFFFFFFFFFFFFFFFFFFFFFFFFFFFFFF AND PUSH20 0xFFFFFFFFFFFFFFFFFFFFFFFFFFFFFFFFFFFFFFFF AND DUP2 MSTORE PUSH1 0x20 ADD SWAP1 DUP2 MSTORE PUSH1 0x20 ADD PUSH1 0x0 KECCAK256 PUSH1 0x0 DUP3 DUP3 SLOAD PUSH2 0xB5D SWAP2 SWAP1 PUSH2 0x19FA JUMP JUMPDEST SWAP3 POP POP DUP2 SWAP1 SSTORE POP POP POP JUMP JUMPDEST PUSH1 0x0 PUSH1 0x4 PUSH1 0x0 DUP6 PUSH20 0xFFFFFFFFFFFFFFFFFFFFFFFFFFFFFFFFFFFFFFFF AND PUSH20 0xFFFFFFFFFFFFFFFFFFFFFFFFFFFFFFFFFFFFFFFF AND DUP2 MSTORE PUSH1 0x20 ADD SWAP1 DUP2 MSTORE PUSH1 0x20 ADD PUSH1 0x0 KECCAK256 SLOAD DUP3 GT ISZERO PUSH2 0xBB6 JUMPI PUSH1 0x0 DUP1 REVERT JUMPDEST PUSH1 0x5 PUSH1 0x0 DUP6 PUSH20 0xFFFFFFFFFFFFFFFFFFFFFFFFFFFFFFFFFFFFFFFF AND PUSH20 0xFFFFFFFFFFFFFFFFFFFFFFFFFFFFFFFFFFFFFFFF AND DUP2 MSTORE PUSH1 0x20 ADD SWAP1 DUP2 MSTORE PUSH1 0x20 ADD PUSH1 0x0 KECCAK256 PUSH1 0x0 CALLER PUSH20 0xFFFFFFFFFFFFFFFFFFFFFFFFFFFFFFFFFFFFFFFF AND PUSH20 0xFFFFFFFFFFFFFFFFFFFFFFFFFFFFFFFFFFFFFFFF AND DUP2 MSTORE PUSH1 0x20 ADD SWAP1 DUP2 MSTORE PUSH1 0x20 ADD PUSH1 0x0 KECCAK256 SLOAD DUP3 GT ISZERO PUSH2 0xC3F JUMPI PUSH1 0x0 DUP1 REVERT JUMPDEST DUP2 PUSH1 0x4 PUSH1 0x0 DUP7 PUSH20 0xFFFFFFFFFFFFFFFFFFFFFFFFFFFFFFFFFFFFFFFF AND PUSH20 0xFFFFFFFFFFFFFFFFFFFFFFFFFFFFFFFFFFFFFFFF AND DUP2 MSTORE PUSH1 0x20 ADD SWAP1 DUP2 MSTORE PUSH1 0x20 ADD PUSH1 0x0 KECCAK256 PUSH1 0x0 DUP3 DUP3 SLOAD PUSH2 0xC8E SWAP2 SWAP1 PUSH2 0x19C6 JUMP JUMPDEST SWAP3 POP POP DUP2 SWAP1 SSTORE POP DUP2 PUSH1 0x5 PUSH1 0x0 DUP7 PUSH20 0xFFFFFFFFFFFFFFFFFFFFFFFFFFFFFFFFFFFFFFFF AND PUSH20 0xFFFFFFFFFFFFFFFFFFFFFFFFFFFFFFFFFFFFFFFF AND DUP2 MSTORE PUSH1 0x20 ADD SWAP1 DUP2 MSTORE PUSH1 0x20 ADD PUSH1 0x0 KECCAK256 PUSH1 0x0 CALLER PUSH20 0xFFFFFFFFFFFFFFFFFFFFFFFFFFFFFFFFFFFFFFFF AND PUSH20 0xFFFFFFFFFFFFFFFFFFFFFFFFFFFFFFFFFFFFFFFF AND DUP2 MSTORE PUSH1 0x20 ADD SWAP1 DUP2 MSTORE PUSH1 0x20 ADD PUSH1 0x0 KECCAK256 SLOAD PUSH2 0xD1D SWAP2 SWAP1 PUSH2 0x19C6 JUMP JUMPDEST PUSH1 0x5 PUSH1 0x0 DUP7 PUSH20 0xFFFFFFFFFFFFFFFFFFFFFFFFFFFFFFFFFFFFFFFF AND PUSH20 0xFFFFFFFFFFFFFFFFFFFFFFFFFFFFFFFFFFFFFFFF AND DUP2 MSTORE PUSH1 0x20 ADD SWAP1 DUP2 MSTORE PUSH1 0x20 ADD PUSH1 0x0 KECCAK256 PUSH1 0x0 CALLER PUSH20 0xFFFFFFFFFFFFFFFFFFFFFFFFFFFFFFFFFFFFFFFF AND PUSH20 0xFFFFFFFFFFFFFFFFFFFFFFFFFFFFFFFFFFFFFFFF AND DUP2 MSTORE PUSH1 0x20 ADD SWAP1 DUP2 MSTORE PUSH1 0x20 ADD PUSH1 0x0 KECCAK256 DUP2 SWAP1 SSTORE POP DUP2 PUSH1 0x4 PUSH1 0x0 DUP6 PUSH20 0xFFFFFFFFFFFFFFFFFFFFFFFFFFFFFFFFFFFFFFFF AND PUSH20 0xFFFFFFFFFFFFFFFFFFFFFFFFFFFFFFFFFFFFFFFF AND DUP2 MSTORE PUSH1 0x20 ADD SWAP1 DUP2 MSTORE PUSH1 0x20 ADD PUSH1 0x0 KECCAK256 PUSH1 0x0 DUP3 DUP3 SLOAD PUSH2 0xDEC SWAP2 SWAP1 PUSH2 0x19FA JUMP JUMPDEST SWAP3 POP POP DUP2 SWAP1 SSTORE POP DUP3 PUSH20 0xFFFFFFFFFFFFFFFFFFFFFFFFFFFFFFFFFFFFFFFF AND DUP5 PUSH20 0xFFFFFFFFFFFFFFFFFFFFFFFFFFFFFFFFFFFFFFFF AND PUSH32 0xDDF252AD1BE2C89B69C2B068FC378DAA952BA7F163C4A11628F55A4DF523B3EF DUP5 PUSH1 0x40 MLOAD PUSH2 0xE50 SWAP2 SWAP1 PUSH2 0x150E JUMP JUMPDEST PUSH1 0x40 MLOAD DUP1 SWAP2 SUB SWAP1 LOG3 PUSH1 0x1 SWAP1 POP SWAP4 SWAP3 POP POP POP JUMP JUMPDEST PUSH1 0x2 PUSH1 0x0 SWAP1 SLOAD SWAP1 PUSH2 0x100 EXP SWAP1 DIV PUSH1 0xFF AND DUP2 JUMP JUMPDEST PUSH1 0x9 PUSH1 0x0 SWAP1 SLOAD SWAP1 PUSH2 0x100 EXP SWAP1 DIV PUSH20 0xFFFFFFFFFFFFFFFFFFFFFFFFFFFFFFFFFFFFFFFF AND DUP2 JUMP JUMPDEST PUSH1 0x0 PUSH1 0x4 PUSH1 0x0 DUP4 PUSH20 0xFFFFFFFFFFFFFFFFFFFFFFFFFFFFFFFFFFFFFFFF AND PUSH20 0xFFFFFFFFFFFFFFFFFFFFFFFFFFFFFFFFFFFFFFFF AND DUP2 MSTORE PUSH1 0x20 ADD SWAP1 DUP2 MSTORE PUSH1 0x20 ADD PUSH1 0x0 KECCAK256 SLOAD SWAP1 POP SWAP2 SWAP1 POP JUMP JUMPDEST PUSH1 0x1 DUP1 SLOAD PUSH2 0xEF2 SWAP1 PUSH2 0x16E2 JUMP JUMPDEST DUP1 PUSH1 0x1F ADD PUSH1 0x20 DUP1 SWAP2 DIV MUL PUSH1 0x20 ADD PUSH1 0x40 MLOAD SWAP1 DUP2 ADD PUSH1 0x40 MSTORE DUP1 SWAP3 SWAP2 SWAP1 DUP2 DUP2 MSTORE PUSH1 0x20 ADD DUP3 DUP1 SLOAD PUSH2 0xF1E SWAP1 PUSH2 0x16E2 JUMP JUMPDEST DUP1 ISZERO PUSH2 0xF6B JUMPI DUP1 PUSH1 0x1F LT PUSH2 0xF40 JUMPI PUSH2 0x100 DUP1 DUP4 SLOAD DIV MUL DUP4 MSTORE SWAP2 PUSH1 0x20 ADD SWAP2 PUSH2 0xF6B JUMP JUMPDEST DUP3 ADD SWAP2 SWAP1 PUSH1 0x0 MSTORE PUSH1 0x20 PUSH1 0x0 KECCAK256 SWAP1 JUMPDEST DUP2 SLOAD DUP2 MSTORE SWAP1 PUSH1 0x1 ADD SWAP1 PUSH1 0x20 ADD DUP1 DUP4 GT PUSH2 0xF4E JUMPI DUP3 SWAP1 SUB PUSH1 0x1F AND DUP3 ADD SWAP2 JUMPDEST POP POP POP POP POP DUP2 JUMP JUMPDEST PUSH1 0x8 PUSH1 0x0 SWAP1 SLOAD SWAP1 PUSH2 0x100 EXP SWAP1 DIV PUSH20 0xFFFFFFFFFFFFFFFFFFFFFFFFFFFFFFFFFFFFFFFF AND DUP2 JUMP JUMPDEST PUSH1 0x0 PUSH1 0x4 PUSH1 0x0 CALLER PUSH20 0xFFFFFFFFFFFFFFFFFFFFFFFFFFFFFFFFFFFFFFFF AND PUSH20 0xFFFFFFFFFFFFFFFFFFFFFFFFFFFFFFFFFFFFFFFF AND DUP2 MSTORE PUSH1 0x20 ADD SWAP1 DUP2 MSTORE PUSH1 0x20 ADD PUSH1 0x0 KECCAK256 SLOAD DUP3 GT ISZERO PUSH2 0xFE7 JUMPI PUSH1 0x0 DUP1 REVERT JUMPDEST DUP2 PUSH1 0x4 PUSH1 0x0 CALLER PUSH20 0xFFFFFFFFFFFFFFFFFFFFFFFFFFFFFFFFFFFFFFFF AND PUSH20 0xFFFFFFFFFFFFFFFFFFFFFFFFFFFFFFFFFFFFFFFF AND DUP2 MSTORE PUSH1 0x20 ADD SWAP1 DUP2 MSTORE PUSH1 0x20 ADD PUSH1 0x0 KECCAK256 SLOAD PUSH2 0x1032 SWAP2 SWAP1 PUSH2 0x19C6 JUMP JUMPDEST PUSH1 0x4 PUSH1 0x0 CALLER PUSH20 0xFFFFFFFFFFFFFFFFFFFFFFFFFFFFFFFFFFFFFFFF AND PUSH20 0xFFFFFFFFFFFFFFFFFFFFFFFFFFFFFFFFFFFFFFFF AND DUP2 MSTORE PUSH1 0x20 ADD SWAP1 DUP2 MSTORE PUSH1 0x20 ADD PUSH1 0x0 KECCAK256 DUP2 SWAP1 SSTORE POP DUP2 PUSH1 0x4 PUSH1 0x0 DUP6 PUSH20 0xFFFFFFFFFFFFFFFFFFFFFFFFFFFFFFFFFFFFFFFF AND PUSH20 0xFFFFFFFFFFFFFFFFFFFFFFFFFFFFFFFFFFFFFFFF AND DUP2 MSTORE PUSH1 0x20 ADD SWAP1 DUP2 MSTORE PUSH1 0x20 ADD PUSH1 0x0 KECCAK256 SLOAD PUSH2 0x10C0 SWAP2 SWAP1 PUSH2 0x19FA JUMP JUMPDEST PUSH1 0x4 PUSH1 0x0 DUP6 PUSH20 0xFFFFFFFFFFFFFFFFFFFFFFFFFFFFFFFFFFFFFFFF AND PUSH20 0xFFFFFFFFFFFFFFFFFFFFFFFFFFFFFFFFFFFFFFFF AND DUP2 MSTORE PUSH1 0x20 ADD SWAP1 DUP2 MSTORE PUSH1 0x20 ADD PUSH1 0x0 KECCAK256 DUP2 SWAP1 SSTORE POP DUP3 PUSH20 0xFFFFFFFFFFFFFFFFFFFFFFFFFFFFFFFFFFFFFFFF AND CALLER PUSH20 0xFFFFFFFFFFFFFFFFFFFFFFFFFFFFFFFFFFFFFFFF AND PUSH32 0xDDF252AD1BE2C89B69C2B068FC378DAA952BA7F163C4A11628F55A4DF523B3EF DUP5 PUSH1 0x40 MLOAD PUSH2 0x1160 SWAP2 SWAP1 PUSH2 0x150E JUMP JUMPDEST PUSH1 0x40 MLOAD DUP1 SWAP2 SUB SWAP1 LOG3 PUSH1 0x1 SWAP1 POP SWAP3 SWAP2 POP POP JUMP JUMPDEST PUSH1 0x0 DUP1 PUSH1 0x0 PUSH1 0x6 PUSH1 0x0 CALLER PUSH20 0xFFFFFFFFFFFFFFFFFFFFFFFFFFFFFFFFFFFFFFFF AND PUSH20 0xFFFFFFFFFFFFFFFFFFFFFFFFFFFFFFFFFFFFFFFF AND DUP2 MSTORE PUSH1 0x20 ADD SWAP1 DUP2 MSTORE PUSH1 0x20 ADD PUSH1 0x0 KECCAK256 SLOAD GT ISZERO PUSH2 0x1286 JUMPI PUSH1 0x6 PUSH1 0x0 PUSH1 0x8 PUSH1 0x0 SWAP1 SLOAD SWAP1 PUSH2 0x100 EXP SWAP1 DIV PUSH20 0xFFFFFFFFFFFFFFFFFFFFFFFFFFFFFFFFFFFFFFFF AND PUSH20 0xFFFFFFFFFFFFFFFFFFFFFFFFFFFFFFFFFFFFFFFF AND PUSH20 0xFFFFFFFFFFFFFFFFFFFFFFFFFFFFFFFFFFFFFFFF AND DUP2 MSTORE PUSH1 0x20 ADD SWAP1 DUP2 MSTORE PUSH1 0x20 ADD PUSH1 0x0 KECCAK256 SLOAD SWAP2 POP PUSH1 0x7 PUSH1 0x0 PUSH1 0x8 PUSH1 0x0 SWAP1 SLOAD SWAP1 PUSH2 0x100 EXP SWAP1 DIV PUSH20 0xFFFFFFFFFFFFFFFFFFFFFFFFFFFFFFFFFFFFFFFF AND PUSH20 0xFFFFFFFFFFFFFFFFFFFFFFFFFFFFFFFFFFFFFFFF AND PUSH20 0xFFFFFFFFFFFFFFFFFFFFFFFFFFFFFFFFFFFFFFFF AND DUP2 MSTORE PUSH1 0x20 ADD SWAP1 DUP2 MSTORE PUSH1 0x20 ADD PUSH1 0x0 KECCAK256 SLOAD SWAP1 POP JUMPDEST SWAP1 SWAP2 JUMP JUMPDEST PUSH1 0x0 PUSH1 0x5 PUSH1 0x0 DUP5 PUSH20 0xFFFFFFFFFFFFFFFFFFFFFFFFFFFFFFFFFFFFFFFF AND PUSH20 0xFFFFFFFFFFFFFFFFFFFFFFFFFFFFFFFFFFFFFFFF AND DUP2 MSTORE PUSH1 0x20 ADD SWAP1 DUP2 MSTORE PUSH1 0x20 ADD PUSH1 0x0 KECCAK256 PUSH1 0x0 DUP4 PUSH20 0xFFFFFFFFFFFFFFFFFFFFFFFFFFFFFFFFFFFFFFFF AND PUSH20 0xFFFFFFFFFFFFFFFFFFFFFFFFFFFFFFFFFFFFFFFF AND DUP2 MSTORE PUSH1 0x20 ADD SWAP1 DUP2 MSTORE PUSH1 0x20 ADD PUSH1 0x0 KECCAK256 SLOAD SWAP1 POP SWAP3 SWAP2 POP POP JUMP JUMPDEST PUSH1 0x0 DUP2 MLOAD SWAP1 POP SWAP2 SWAP1 POP JUMP JUMPDEST PUSH1 0x0 DUP3 DUP3 MSTORE PUSH1 0x20 DUP3 ADD SWAP1 POP SWAP3 SWAP2 POP POP JUMP JUMPDEST PUSH1 0x0 JUMPDEST DUP4 DUP2 LT ISZERO PUSH2 0x134B JUMPI DUP1 DUP3 ADD MLOAD DUP2 DUP5 ADD MSTORE PUSH1 0x20 DUP2 ADD SWAP1 POP PUSH2 0x1330 JUMP JUMPDEST PUSH1 0x0 DUP5 DUP5 ADD MSTORE POP POP POP POP JUMP JUMPDEST PUSH1 0x0 PUSH1 0x1F NOT PUSH1 0x1F DUP4 ADD AND SWAP1 POP SWAP2 SWAP1 POP JUMP JUMPDEST PUSH1 0x0 PUSH2 0x1373 DUP3 PUSH2 0x1311 JUMP JUMPDEST PUSH2 0x137D DUP2 DUP6 PUSH2 0x131C JUMP JUMPDEST SWAP4 POP PUSH2 0x138D DUP2 DUP6 PUSH1 0x20 DUP7 ADD PUSH2 0x132D JUMP JUMPDEST PUSH2 0x1396 DUP2 PUSH2 0x1357 JUMP JUMPDEST DUP5 ADD SWAP2 POP POP SWAP3 SWAP2 POP POP JUMP JUMPDEST PUSH1 0x0 PUSH1 0x20 DUP3 ADD SWAP1 POP DUP2 DUP2 SUB PUSH1 0x0 DUP4 ADD MSTORE PUSH2 0x13BB DUP2 DUP5 PUSH2 0x1368 JUMP JUMPDEST SWAP1 POP SWAP3 SWAP2 POP POP JUMP JUMPDEST PUSH1 0x0 DUP1 REVERT JUMPDEST PUSH1 0x0 PUSH20 0xFFFFFFFFFFFFFFFFFFFFFFFFFFFFFFFFFFFFFFFF DUP3 AND SWAP1 POP SWAP2 SWAP1 POP JUMP JUMPDEST PUSH1 0x0 PUSH2 0x13F3 DUP3 PUSH2 0x13C8 JUMP JUMPDEST SWAP1 POP SWAP2 SWAP1 POP JUMP JUMPDEST PUSH2 0x1403 DUP2 PUSH2 0x13E8 JUMP JUMPDEST DUP2 EQ PUSH2 0x140E JUMPI PUSH1 0x0 DUP1 REVERT JUMPDEST POP JUMP JUMPDEST PUSH1 0x0 DUP2 CALLDATALOAD SWAP1 POP PUSH2 0x1420 DUP2 PUSH2 0x13FA JUMP JUMPDEST SWAP3 SWAP2 POP POP JUMP JUMPDEST PUSH1 0x0 DUP2 SWAP1 POP SWAP2 SWAP1 POP JUMP JUMPDEST PUSH2 0x1439 DUP2 PUSH2 0x1426 JUMP JUMPDEST DUP2 EQ PUSH2 0x1444 JUMPI PUSH1 0x0 DUP1 REVERT JUMPDEST POP JUMP JUMPDEST PUSH1 0x0 DUP2 CALLDATALOAD SWAP1 POP PUSH2 0x1456 DUP2 PUSH2 0x1430 JUMP JUMPDEST SWAP3 SWAP2 POP POP JUMP JUMPDEST PUSH1 0x0 DUP1 PUSH1 0x40 DUP4 DUP6 SUB SLT ISZERO PUSH2 0x1473 JUMPI PUSH2 0x1472 PUSH2 0x13C3 JUMP JUMPDEST JUMPDEST PUSH1 0x0 PUSH2 0x1481 DUP6 DUP3 DUP7 ADD PUSH2 0x1411 JUMP JUMPDEST SWAP3 POP POP PUSH1 0x20 PUSH2 0x1492 DUP6 DUP3 DUP7 ADD PUSH2 0x1447 JUMP JUMPDEST SWAP2 POP POP SWAP3 POP SWAP3 SWAP1 POP JUMP JUMPDEST PUSH1 0x0 DUP2 ISZERO ISZERO SWAP1 POP SWAP2 SWAP1 POP JUMP JUMPDEST PUSH2 0x14B1 DUP2 PUSH2 0x149C JUMP JUMPDEST DUP3 MSTORE POP POP JUMP JUMPDEST PUSH1 0x0 PUSH1 0x20 DUP3 ADD SWAP1 POP PUSH2 0x14CC PUSH1 0x0 DUP4 ADD DUP5 PUSH2 0x14A8 JUMP JUMPDEST SWAP3 SWAP2 POP POP JUMP JUMPDEST PUSH1 0x0 PUSH1 0x20 DUP3 DUP5 SUB SLT ISZERO PUSH2 0x14E8 JUMPI PUSH2 0x14E7 PUSH2 0x13C3 JUMP JUMPDEST JUMPDEST PUSH1 0x0 PUSH2 0x14F6 DUP5 DUP3 DUP6 ADD PUSH2 0x1447 JUMP JUMPDEST SWAP2 POP POP SWAP3 SWAP2 POP POP JUMP JUMPDEST PUSH2 0x1508 DUP2 PUSH2 0x1426 JUMP JUMPDEST DUP3 MSTORE POP POP JUMP JUMPDEST PUSH1 0x0 PUSH1 0x20 DUP3 ADD SWAP1 POP PUSH2 0x1523 PUSH1 0x0 DUP4 ADD DUP5 PUSH2 0x14FF JUMP JUMPDEST SWAP3 SWAP2 POP POP JUMP JUMPDEST PUSH1 0x0 DUP1 PUSH1 0x40 DUP4 DUP6 SUB SLT ISZERO PUSH2 0x1540 JUMPI PUSH2 0x153F PUSH2 0x13C3 JUMP JUMPDEST JUMPDEST PUSH1 0x0 PUSH2 0x154E DUP6 DUP3 DUP7 ADD PUSH2 0x1447 JUMP JUMPDEST SWAP3 POP POP PUSH1 0x20 PUSH2 0x155F DUP6 DUP3 DUP7 ADD PUSH2 0x1447 JUMP JUMPDEST SWAP2 POP POP SWAP3 POP SWAP3 SWAP1 POP JUMP JUMPDEST PUSH1 0x0 DUP1 PUSH1 0x0 PUSH1 0x60 DUP5 DUP7 SUB SLT ISZERO PUSH2 0x1582 JUMPI PUSH2 0x1581 PUSH2 0x13C3 JUMP JUMPDEST JUMPDEST PUSH1 0x0 PUSH2 0x1590 DUP7 DUP3 DUP8 ADD PUSH2 0x1411 JUMP JUMPDEST SWAP4 POP POP PUSH1 0x20 PUSH2 0x15A1 DUP7 DUP3 DUP8 ADD PUSH2 0x1411 JUMP JUMPDEST SWAP3 POP POP PUSH1 0x40 PUSH2 0x15B2 DUP7 DUP3 DUP8 ADD PUSH2 0x1447 JUMP JUMPDEST SWAP2 POP POP SWAP3 POP SWAP3 POP SWAP3 JUMP JUMPDEST PUSH1 0x0 PUSH1 0xFF DUP3 AND SWAP1 POP SWAP2 SWAP1 POP JUMP JUMPDEST PUSH2 0x15D2 DUP2 PUSH2 0x15BC JUMP JUMPDEST DUP3 MSTORE POP POP JUMP JUMPDEST PUSH1 0x0 PUSH1 0x20 DUP3 ADD SWAP1 POP PUSH2 0x15ED PUSH1 0x0 DUP4 ADD DUP5 PUSH2 0x15C9 JUMP JUMPDEST SWAP3 SWAP2 POP POP JUMP JUMPDEST PUSH2 0x15FC DUP2 PUSH2 0x13E8 JUMP JUMPDEST DUP3 MSTORE POP POP JUMP JUMPDEST PUSH1 0x0 PUSH1 0x20 DUP3 ADD SWAP1 POP PUSH2 0x1617 PUSH1 0x0 DUP4 ADD DUP5 PUSH2 0x15F3 JUMP JUMPDEST SWAP3 SWAP2 POP POP JUMP JUMPDEST PUSH1 0x0 PUSH1 0x20 DUP3 DUP5 SUB SLT ISZERO PUSH2 0x1633 JUMPI PUSH2 0x1632 PUSH2 0x13C3 JUMP JUMPDEST JUMPDEST PUSH1 0x0 PUSH2 0x1641 DUP5 DUP3 DUP6 ADD PUSH2 0x1411 JUMP JUMPDEST SWAP2 POP POP SWAP3 SWAP2 POP POP JUMP JUMPDEST PUSH1 0x0 PUSH1 0x40 DUP3 ADD SWAP1 POP PUSH2 0x165F PUSH1 0x0 DUP4 ADD DUP6 PUSH2 0x14FF JUMP JUMPDEST PUSH2 0x166C PUSH1 0x20 DUP4 ADD DUP5 PUSH2 0x14FF JUMP JUMPDEST SWAP4 SWAP3 POP POP POP JUMP JUMPDEST PUSH1 0x0 DUP1 PUSH1 0x40 DUP4 DUP6 SUB SLT ISZERO PUSH2 0x168A JUMPI PUSH2 0x1689 PUSH2 0x13C3 JUMP JUMPDEST JUMPDEST PUSH1 0x0 PUSH2 0x1698 DUP6 DUP3 DUP7 ADD PUSH2 0x1411 JUMP JUMPDEST SWAP3 POP POP PUSH1 0x20 PUSH2 0x16A9 DUP6 DUP3 DUP7 ADD PUSH2 0x1411 JUMP JUMPDEST SWAP2 POP POP SWAP3 POP SWAP3 SWAP1 POP JUMP JUMPDEST PUSH32 0x4E487B7100000000000000000000000000000000000000000000000000000000 PUSH1 0x0 MSTORE PUSH1 0x22 PUSH1 0x4 MSTORE PUSH1 0x24 PUSH1 0x0 REVERT JUMPDEST PUSH1 0x0 PUSH1 0x2 DUP3 DIV SWAP1 POP PUSH1 0x1 DUP3 AND DUP1 PUSH2 0x16FA JUMPI PUSH1 0x7F DUP3 AND SWAP2 POP JUMPDEST PUSH1 0x20 DUP3 LT DUP2 SUB PUSH2 0x170D JUMPI PUSH2 0x170C PUSH2 0x16B3 JUMP JUMPDEST JUMPDEST POP SWAP2 SWAP1 POP JUMP JUMPDEST PUSH32 0x6974206D7573742062652067726561746572207468616E205A65726F00000000 PUSH1 0x0 DUP3 ADD MSTORE POP JUMP JUMPDEST PUSH1 0x0 PUSH2 0x1749 PUSH1 0x1C DUP4 PUSH2 0x131C JUMP JUMPDEST SWAP2 POP PUSH2 0x1754 DUP3 PUSH2 0x1713 JUMP JUMPDEST PUSH1 0x20 DUP3 ADD SWAP1 POP SWAP2 SWAP1 POP JUMP JUMPDEST PUSH1 0x0 PUSH1 0x20 DUP3 ADD SWAP1 POP DUP2 DUP2 SUB PUSH1 0x0 DUP4 ADD MSTORE PUSH2 0x1778 DUP2 PUSH2 0x173C JUMP JUMPDEST SWAP1 POP SWAP2 SWAP1 POP JUMP JUMPDEST PUSH32 0x5175616E74697479206D7573742062652067726561746572207468616E205A65 PUSH1 0x0 DUP3 ADD MSTORE PUSH32 0x726F000000000000000000000000000000000000000000000000000000000000 PUSH1 0x20 DUP3 ADD MSTORE POP JUMP JUMPDEST PUSH1 0x0 PUSH2 0x17DB PUSH1 0x22 DUP4 PUSH2 0x131C JUMP JUMPDEST SWAP2 POP PUSH2 0x17E6 DUP3 PUSH2 0x177F JUMP JUMPDEST PUSH1 0x40 DUP3 ADD SWAP1 POP SWAP2 SWAP1 POP JUMP JUMPDEST PUSH1 0x0 PUSH1 0x20 DUP3 ADD SWAP1 POP DUP2 DUP2 SUB PUSH1 0x0 DUP4 ADD MSTORE PUSH2 0x180A DUP2 PUSH2 0x17CE JUMP JUMPDEST SWAP1 POP SWAP2 SWAP1 POP JUMP JUMPDEST PUSH32 0x706C6561736520636865636B207175616E697479000000000000000000000000 PUSH1 0x0 DUP3 ADD MSTORE POP JUMP JUMPDEST PUSH1 0x0 PUSH2 0x1847 PUSH1 0x14 DUP4 PUSH2 0x131C JUMP JUMPDEST SWAP2 POP PUSH2 0x1852 DUP3 PUSH2 0x1811 JUMP JUMPDEST PUSH1 0x20 DUP3 ADD SWAP1 POP SWAP2 SWAP1 POP JUMP JUMPDEST PUSH1 0x0 PUSH1 0x20 DUP3 ADD SWAP1 POP DUP2 DUP2 SUB PUSH1 0x0 DUP4 ADD MSTORE PUSH2 0x1876 DUP2 PUSH2 0x183A JUMP JUMPDEST SWAP1 POP SWAP2 SWAP1 POP JUMP JUMPDEST PUSH32 0x4E487B7100000000000000000000000000000000000000000000000000000000 PUSH1 0x0 MSTORE PUSH1 0x11 PUSH1 0x4 MSTORE PUSH1 0x24 PUSH1 0x0 REVERT JUMPDEST PUSH1 0x0 PUSH2 0x18B7 DUP3 PUSH2 0x1426 JUMP JUMPDEST SWAP2 POP PUSH2 0x18C2 DUP4 PUSH2 0x1426 JUMP JUMPDEST SWAP3 POP DUP3 DUP3 MUL PUSH2 0x18D0 DUP2 PUSH2 0x1426 JUMP JUMPDEST SWAP2 POP DUP3 DUP3 DIV DUP5 EQ DUP4 ISZERO OR PUSH2 0x18E7 JUMPI PUSH2 0x18E6 PUSH2 0x187D JUMP JUMPDEST JUMPDEST POP SWAP3 SWAP2 POP POP JUMP JUMPDEST PUSH32 0x436865636B20616D6F756E740000000000000000000000000000000000000000 PUSH1 0x0 DUP3 ADD MSTORE POP JUMP JUMPDEST PUSH1 0x0 PUSH2 0x1924 PUSH1 0xC DUP4 PUSH2 0x131C JUMP JUMPDEST SWAP2 POP PUSH2 0x192F DUP3 PUSH2 0x18EE JUMP JUMPDEST PUSH1 0x20 DUP3 ADD SWAP1 POP SWAP2 SWAP1 POP JUMP JUMPDEST PUSH1 0x0 PUSH1 0x20 DUP3 ADD SWAP1 POP DUP2 DUP2 SUB PUSH1 0x0 DUP4 ADD MSTORE PUSH2 0x1953 DUP2 PUSH2 0x1917 JUMP JUMPDEST SWAP1 POP SWAP2 SWAP1 POP JUMP JUMPDEST PUSH32 0x436865636B20596F757220546F74616C2042616C616E63650000000000000000 PUSH1 0x0 DUP3 ADD MSTORE POP JUMP JUMPDEST PUSH1 0x0 PUSH2 0x1990 PUSH1 0x18 DUP4 PUSH2 0x131C JUMP JUMPDEST SWAP2 POP PUSH2 0x199B DUP3 PUSH2 0x195A JUMP JUMPDEST PUSH1 0x20 DUP3 ADD SWAP1 POP SWAP2 SWAP1 POP JUMP JUMPDEST PUSH1 0x0 PUSH1 0x20 DUP3 ADD SWAP1 POP DUP2 DUP2 SUB PUSH1 0x0 DUP4 ADD MSTORE PUSH2 0x19BF DUP2 PUSH2 0x1983 JUMP JUMPDEST SWAP1 POP SWAP2 SWAP1 POP JUMP JUMPDEST PUSH1 0x0 PUSH2 0x19D1 DUP3 PUSH2 0x1426 JUMP JUMPDEST SWAP2 POP PUSH2 0x19DC DUP4 PUSH2 0x1426 JUMP JUMPDEST SWAP3 POP DUP3 DUP3 SUB SWAP1 POP DUP2 DUP2 GT ISZERO PUSH2 0x19F4 JUMPI PUSH2 0x19F3 PUSH2 0x187D JUMP JUMPDEST JUMPDEST SWAP3 SWAP2 POP POP JUMP JUMPDEST PUSH1 0x0 PUSH2 0x1A05 DUP3 PUSH2 0x1426 JUMP JUMPDEST SWAP2 POP PUSH2 0x1A10 DUP4 PUSH2 0x1426 JUMP JUMPDEST SWAP3 POP DUP3 DUP3 ADD SWAP1 POP DUP1 DUP3 GT ISZERO PUSH2 0x1A28 JUMPI PUSH2 0x1A27 PUSH2 0x187D JUMP JUMPDEST JUMPDEST SWAP3 SWAP2 POP POP JUMP JUMPDEST PUSH32 0x596F752068617665277420656E6F7567682062616C616E636500000000000000 PUSH1 0x0 DUP3 ADD MSTORE POP JUMP JUMPDEST PUSH1 0x0 PUSH2 0x1A64 PUSH1 0x19 DUP4 PUSH2 0x131C JUMP JUMPDEST SWAP2 POP PUSH2 0x1A6F DUP3 PUSH2 0x1A2E JUMP JUMPDEST PUSH1 0x20 DUP3 ADD SWAP1 POP SWAP2 SWAP1 POP JUMP JUMPDEST PUSH1 0x0 PUSH1 0x20 DUP3 ADD SWAP1 POP DUP2 DUP2 SUB PUSH1 0x0 DUP4 ADD MSTORE PUSH2 0x1A93 DUP2 PUSH2 0x1A57 JUMP JUMPDEST SWAP1 POP SWAP2 SWAP1 POP JUMP JUMPDEST PUSH32 0x53656C6C696E672070726963652063616E2774206265206C657373207468616E PUSH1 0x0 DUP3 ADD MSTORE PUSH32 0x2030000000000000000000000000000000000000000000000000000000000000 PUSH1 0x20 DUP3 ADD MSTORE POP JUMP JUMPDEST PUSH1 0x0 PUSH2 0x1AF6 PUSH1 0x22 DUP4 PUSH2 0x131C JUMP JUMPDEST SWAP2 POP PUSH2 0x1B01 DUP3 PUSH2 0x1A9A JUMP JUMPDEST PUSH1 0x40 DUP3 ADD SWAP1 POP SWAP2 SWAP1 POP JUMP JUMPDEST PUSH1 0x0 PUSH1 0x20 DUP3 ADD SWAP1 POP DUP2 DUP2 SUB PUSH1 0x0 DUP4 ADD MSTORE PUSH2 0x1B25 DUP2 PUSH2 0x1AE9 JUMP JUMPDEST SWAP1 POP SWAP2 SWAP1 POP JUMP INVALID LOG2 PUSH5 0x6970667358 0x22 SLT KECCAK256 0xB3 0xB4 0xF7 NOT 0xAA 0xE2 0xB1 PUSH13 0xF3471DCF86AC5AFA3994A40C77 0x2F 0xAC 0xC9 0xA5 CREATE 0xD7 PREVRANDAO CALLER PUSH18 0xC4F364736F6C634300081300330000000000 "
				},
				"gasEstimates": {
					"creation": {
						"codeDepositCost": "1402000",
						"executionCost": "infinite",
						"totalCost": "infinite"
					},
					"external": {
						"Buy_Token(uint256)": "infinite",
						"TokenBuyer()": "2537",
						"TokenSeller()": "2536",
						"allowance(address,address)": "infinite",
						"approve(address,uint256)": "infinite",
						"balanceOf(address)": "2886",
						"decimals()": "2560",
						"getSellOrder()": "infinite",
						"name()": "infinite",
						"sellToken(uint256,uint256)": "infinite",
						"symbol()": "infinite",
						"totalSupply()": "2460",
						"transfer(address,uint256)": "infinite",
						"transferFrom(address,address,uint256)": "infinite"
					}
				},
				"methodIdentifiers": {
					"Buy_Token(uint256)": "0b8d7bfd",
					"TokenBuyer()": "7048e1c4",
					"TokenSeller()": "97665dda",
					"allowance(address,address)": "dd62ed3e",
					"approve(address,uint256)": "095ea7b3",
					"balanceOf(address)": "70a08231",
					"decimals()": "313ce567",
					"getSellOrder()": "d08ccb4f",
					"name()": "06fdde03",
					"sellToken(uint256,uint256)": "1897bcf3",
					"symbol()": "95d89b41",
					"totalSupply()": "18160ddd",
					"transfer(address,uint256)": "a9059cbb",
					"transferFrom(address,address,uint256)": "23b872dd"
				}
			},
			"storageLayout": {
				"storage": [
					{
						"astId": 72,
						"contract": "Custom Token BUY-SELL/customToken.sol:CustomToken",
						"label": "name",
						"offset": 0,
						"slot": "0",
						"type": "t_string_storage"
					},
					{
						"astId": 74,
						"contract": "Custom Token BUY-SELL/customToken.sol:CustomToken",
						"label": "symbol",
						"offset": 0,
						"slot": "1",
						"type": "t_string_storage"
					},
					{
						"astId": 76,
						"contract": "Custom Token BUY-SELL/customToken.sol:CustomToken",
						"label": "decimals",
						"offset": 0,
						"slot": "2",
						"type": "t_uint8"
					},
					{
						"astId": 78,
						"contract": "Custom Token BUY-SELL/customToken.sol:CustomToken",
						"label": "totalSupply_",
						"offset": 0,
						"slot": "3",
						"type": "t_uint256"
					},
					{
						"astId": 82,
						"contract": "Custom Token BUY-SELL/customToken.sol:CustomToken",
						"label": "balances",
						"offset": 0,
						"slot": "4",
						"type": "t_mapping(t_address,t_uint256)"
					},
					{
						"astId": 88,
						"contract": "Custom Token BUY-SELL/customToken.sol:CustomToken",
						"label": "allowed",
						"offset": 0,
						"slot": "5",
						"type": "t_mapping(t_address,t_mapping(t_address,t_uint256))"
					},
					{
						"astId": 92,
						"contract": "Custom Token BUY-SELL/customToken.sol:CustomToken",
						"label": "SellList",
						"offset": 0,
						"slot": "6",
						"type": "t_mapping(t_address,t_uint256)"
					},
					{
						"astId": 96,
						"contract": "Custom Token BUY-SELL/customToken.sol:CustomToken",
						"label": "SellListPrice",
						"offset": 0,
						"slot": "7",
						"type": "t_mapping(t_address,t_uint256)"
					},
					{
						"astId": 98,
						"contract": "Custom Token BUY-SELL/customToken.sol:CustomToken",
						"label": "TokenSeller",
						"offset": 0,
						"slot": "8",
						"type": "t_address"
					},
					{
						"astId": 100,
						"contract": "Custom Token BUY-SELL/customToken.sol:CustomToken",
						"label": "TokenBuyer",
						"offset": 0,
						"slot": "9",
						"type": "t_address"
					}
				],
				"types": {
					"t_address": {
						"encoding": "inplace",
						"label": "address",
						"numberOfBytes": "20"
					},
					"t_mapping(t_address,t_mapping(t_address,t_uint256))": {
						"encoding": "mapping",
						"key": "t_address",
						"label": "mapping(address => mapping(address => uint256))",
						"numberOfBytes": "32",
						"value": "t_mapping(t_address,t_uint256)"
					},
					"t_mapping(t_address,t_uint256)": {
						"encoding": "mapping",
						"key": "t_address",
						"label": "mapping(address => uint256)",
						"numberOfBytes": "32",
						"value": "t_uint256"
					},
					"t_string_storage": {
						"encoding": "bytes",
						"label": "string",
						"numberOfBytes": "32"
					},
					"t_uint256": {
						"encoding": "inplace",
						"label": "uint256",
						"numberOfBytes": "32"
					},
					"t_uint8": {
						"encoding": "inplace",
						"label": "uint8",
						"numberOfBytes": "1"
					}
				}
			},
			"userdoc": {
				"kind": "user",
				"methods": {},
				"version": 1
			}
		}
	}
}