{
	"Blockchain Task-1/2input_String.sol": {
		"SetValue": {
			"abi": [
				{
					"inputs": [],
					"stateMutability": "nonpayable",
					"type": "constructor"
				},
				{
					"inputs": [],
					"name": "owner",
					"outputs": [
						{
							"internalType": "address",
							"name": "",
							"type": "address"
						}
					],
					"stateMutability": "view",
					"type": "function"
				},
				{
					"inputs": [
						{
							"internalType": "string",
							"name": "_value",
							"type": "string"
						}
					],
					"name": "setValue",
					"outputs": [],
					"stateMutability": "nonpayable",
					"type": "function"
				},
				{
					"inputs": [],
					"name": "value",
					"outputs": [
						{
							"internalType": "string",
							"name": "",
							"type": "string"
						}
					],
					"stateMutability": "view",
					"type": "function"
				}
			],
			"devdoc": {
				"kind": "dev",
				"methods": {},
				"version": 1
			},
			"evm": {
				"assembly": "    /* \"Blockchain Task-1/2input_String.sol\":62:498  contract SetValue {... */\n  mstore(0x40, 0x80)\n    /* \"Blockchain Task-1/2input_String.sol\":142:196  constructor()... */\n  callvalue\n  dup1\n  iszero\n  tag_1\n  jumpi\n  0x00\n  dup1\n  revert\ntag_1:\n  pop\n    /* \"Blockchain Task-1/2input_String.sol\":178:188  msg.sender */\n  caller\n    /* \"Blockchain Task-1/2input_String.sol\":172:177  owner */\n  0x01\n  0x00\n    /* \"Blockchain Task-1/2input_String.sol\":172:188  owner=msg.sender */\n  0x0100\n  exp\n  dup2\n  sload\n  dup2\n  0xffffffffffffffffffffffffffffffffffffffff\n  mul\n  not\n  and\n  swap1\n  dup4\n  0xffffffffffffffffffffffffffffffffffffffff\n  and\n  mul\n  or\n  swap1\n  sstore\n  pop\n    /* \"Blockchain Task-1/2input_String.sol\":62:498  contract SetValue {... */\n  dataSize(sub_0)\n  dup1\n  dataOffset(sub_0)\n  0x00\n  codecopy\n  0x00\n  return\nstop\n\nsub_0: assembly {\n        /* \"Blockchain Task-1/2input_String.sol\":62:498  contract SetValue {... */\n      mstore(0x40, 0x80)\n      callvalue\n      dup1\n      iszero\n      tag_1\n      jumpi\n      0x00\n      dup1\n      revert\n    tag_1:\n      pop\n      jumpi(tag_2, lt(calldatasize, 0x04))\n      shr(0xe0, calldataload(0x00))\n      dup1\n      0x3fa4f245\n      eq\n      tag_3\n      jumpi\n      dup1\n      0x8da5cb5b\n      eq\n      tag_4\n      jumpi\n      dup1\n      0x93a09352\n      eq\n      tag_5\n      jumpi\n    tag_2:\n      0x00\n      dup1\n      revert\n        /* \"Blockchain Task-1/2input_String.sol\":87:106  string public value */\n    tag_3:\n      tag_6\n      tag_7\n      jump\t// in\n    tag_6:\n      mload(0x40)\n      tag_8\n      swap2\n      swap1\n      tag_9\n      jump\t// in\n    tag_8:\n      mload(0x40)\n      dup1\n      swap2\n      sub\n      swap1\n      return\n        /* \"Blockchain Task-1/2input_String.sol\":113:133  address public owner */\n    tag_4:\n      tag_10\n      tag_11\n      jump\t// in\n    tag_10:\n      mload(0x40)\n      tag_12\n      swap2\n      swap1\n      tag_13\n      jump\t// in\n    tag_12:\n      mload(0x40)\n      dup1\n      swap2\n      sub\n      swap1\n      return\n        /* \"Blockchain Task-1/2input_String.sol\":340:495  function setValue(string memory _value) public {... */\n    tag_5:\n      tag_14\n      0x04\n      dup1\n      calldatasize\n      sub\n      dup2\n      add\n      swap1\n      tag_15\n      swap2\n      swap1\n      tag_16\n      jump\t// in\n    tag_15:\n      tag_17\n      jump\t// in\n    tag_14:\n      stop\n        /* \"Blockchain Task-1/2input_String.sol\":87:106  string public value */\n    tag_7:\n      0x00\n      dup1\n      sload\n      tag_18\n      swap1\n      tag_19\n      jump\t// in\n    tag_18:\n      dup1\n      0x1f\n      add\n      0x20\n      dup1\n      swap2\n      div\n      mul\n      0x20\n      add\n      mload(0x40)\n      swap1\n      dup2\n      add\n      0x40\n      mstore\n      dup1\n      swap3\n      swap2\n      swap1\n      dup2\n      dup2\n      mstore\n      0x20\n      add\n      dup3\n      dup1\n      sload\n      tag_20\n      swap1\n      tag_19\n      jump\t// in\n    tag_20:\n      dup1\n      iszero\n      tag_21\n      jumpi\n      dup1\n      0x1f\n      lt\n      tag_22\n      jumpi\n      0x0100\n      dup1\n      dup4\n      sload\n      div\n      mul\n      dup4\n      mstore\n      swap2\n      0x20\n      add\n      swap2\n      jump(tag_21)\n    tag_22:\n      dup3\n      add\n      swap2\n      swap1\n      0x00\n      mstore\n      keccak256(0x00, 0x20)\n      swap1\n    tag_23:\n      dup2\n      sload\n      dup2\n      mstore\n      swap1\n      0x01\n      add\n      swap1\n      0x20\n      add\n      dup1\n      dup4\n      gt\n      tag_23\n      jumpi\n      dup3\n      swap1\n      sub\n      0x1f\n      and\n      dup3\n      add\n      swap2\n    tag_21:\n      pop\n      pop\n      pop\n      pop\n      pop\n      dup2\n      jump\t// out\n        /* \"Blockchain Task-1/2input_String.sol\":113:133  address public owner */\n    tag_11:\n      0x01\n      0x00\n      swap1\n      sload\n      swap1\n      0x0100\n      exp\n      swap1\n      div\n      0xffffffffffffffffffffffffffffffffffffffff\n      and\n      dup2\n      jump\t// out\n        /* \"Blockchain Task-1/2input_String.sol\":340:495  function setValue(string memory _value) public {... */\n    tag_17:\n        /* \"Blockchain Task-1/2input_String.sol\":420:425  owner */\n      0x01\n      0x00\n      swap1\n      sload\n      swap1\n      0x0100\n      exp\n      swap1\n      div\n      0xffffffffffffffffffffffffffffffffffffffff\n      and\n        /* \"Blockchain Task-1/2input_String.sol\":406:425  msg.sender == owner */\n      0xffffffffffffffffffffffffffffffffffffffff\n      and\n        /* \"Blockchain Task-1/2input_String.sol\":406:416  msg.sender */\n      caller\n        /* \"Blockchain Task-1/2input_String.sol\":406:425  msg.sender == owner */\n      0xffffffffffffffffffffffffffffffffffffffff\n      and\n      eq\n        /* \"Blockchain Task-1/2input_String.sol\":398:462  require(msg.sender == owner,\"Only Owner can call this function\") */\n      tag_25\n      jumpi\n      mload(0x40)\n      0x08c379a000000000000000000000000000000000000000000000000000000000\n      dup2\n      mstore\n      0x04\n      add\n      tag_26\n      swap1\n      tag_27\n      jump\t// in\n    tag_26:\n      mload(0x40)\n      dup1\n      swap2\n      sub\n      swap1\n      revert\n    tag_25:\n        /* \"Blockchain Task-1/2input_String.sol\":481:487  _value */\n      dup1\n        /* \"Blockchain Task-1/2input_String.sol\":473:478  value */\n      0x00\n        /* \"Blockchain Task-1/2input_String.sol\":473:487  value = _value */\n      swap1\n      dup2\n      tag_28\n      swap2\n      swap1\n      tag_29\n      jump\t// in\n    tag_28:\n      pop\n        /* \"Blockchain Task-1/2input_String.sol\":340:495  function setValue(string memory _value) public {... */\n      pop\n      jump\t// out\n        /* \"#utility.yul\":7:106   */\n    tag_30:\n        /* \"#utility.yul\":59:65   */\n      0x00\n        /* \"#utility.yul\":93:98   */\n      dup2\n        /* \"#utility.yul\":87:99   */\n      mload\n        /* \"#utility.yul\":77:99   */\n      swap1\n      pop\n        /* \"#utility.yul\":7:106   */\n      swap2\n      swap1\n      pop\n      jump\t// out\n        /* \"#utility.yul\":112:281   */\n    tag_31:\n        /* \"#utility.yul\":196:207   */\n      0x00\n        /* \"#utility.yul\":230:236   */\n      dup3\n        /* \"#utility.yul\":225:228   */\n      dup3\n        /* \"#utility.yul\":218:237   */\n      mstore\n        /* \"#utility.yul\":270:274   */\n      0x20\n        /* \"#utility.yul\":265:268   */\n      dup3\n        /* \"#utility.yul\":261:275   */\n      add\n        /* \"#utility.yul\":246:275   */\n      swap1\n      pop\n        /* \"#utility.yul\":112:281   */\n      swap3\n      swap2\n      pop\n      pop\n      jump\t// out\n        /* \"#utility.yul\":287:533   */\n    tag_32:\n        /* \"#utility.yul\":368:369   */\n      0x00\n        /* \"#utility.yul\":378:491   */\n    tag_73:\n        /* \"#utility.yul\":392:398   */\n      dup4\n        /* \"#utility.yul\":389:390   */\n      dup2\n        /* \"#utility.yul\":386:399   */\n      lt\n        /* \"#utility.yul\":378:491   */\n      iszero\n      tag_75\n      jumpi\n        /* \"#utility.yul\":477:478   */\n      dup1\n        /* \"#utility.yul\":472:475   */\n      dup3\n        /* \"#utility.yul\":468:479   */\n      add\n        /* \"#utility.yul\":462:480   */\n      mload\n        /* \"#utility.yul\":458:459   */\n      dup2\n        /* \"#utility.yul\":453:456   */\n      dup5\n        /* \"#utility.yul\":449:460   */\n      add\n        /* \"#utility.yul\":442:481   */\n      mstore\n        /* \"#utility.yul\":414:416   */\n      0x20\n        /* \"#utility.yul\":411:412   */\n      dup2\n        /* \"#utility.yul\":407:417   */\n      add\n        /* \"#utility.yul\":402:417   */\n      swap1\n      pop\n        /* \"#utility.yul\":378:491   */\n      jump(tag_73)\n    tag_75:\n        /* \"#utility.yul\":525:526   */\n      0x00\n        /* \"#utility.yul\":516:522   */\n      dup5\n        /* \"#utility.yul\":511:514   */\n      dup5\n        /* \"#utility.yul\":507:523   */\n      add\n        /* \"#utility.yul\":500:527   */\n      mstore\n        /* \"#utility.yul\":349:533   */\n      pop\n        /* \"#utility.yul\":287:533   */\n      pop\n      pop\n      pop\n      jump\t// out\n        /* \"#utility.yul\":539:641   */\n    tag_33:\n        /* \"#utility.yul\":580:586   */\n      0x00\n        /* \"#utility.yul\":631:633   */\n      0x1f\n        /* \"#utility.yul\":627:634   */\n      not\n        /* \"#utility.yul\":622:624   */\n      0x1f\n        /* \"#utility.yul\":615:620   */\n      dup4\n        /* \"#utility.yul\":611:625   */\n      add\n        /* \"#utility.yul\":607:635   */\n      and\n        /* \"#utility.yul\":597:635   */\n      swap1\n      pop\n        /* \"#utility.yul\":539:641   */\n      swap2\n      swap1\n      pop\n      jump\t// out\n        /* \"#utility.yul\":647:1024   */\n    tag_34:\n        /* \"#utility.yul\":735:738   */\n      0x00\n        /* \"#utility.yul\":763:802   */\n      tag_78\n        /* \"#utility.yul\":796:801   */\n      dup3\n        /* \"#utility.yul\":763:802   */\n      tag_30\n      jump\t// in\n    tag_78:\n        /* \"#utility.yul\":818:889   */\n      tag_79\n        /* \"#utility.yul\":882:888   */\n      dup2\n        /* \"#utility.yul\":877:880   */\n      dup6\n        /* \"#utility.yul\":818:889   */\n      tag_31\n      jump\t// in\n    tag_79:\n        /* \"#utility.yul\":811:889   */\n      swap4\n      pop\n        /* \"#utility.yul\":898:963   */\n      tag_80\n        /* \"#utility.yul\":956:962   */\n      dup2\n        /* \"#utility.yul\":951:954   */\n      dup6\n        /* \"#utility.yul\":944:948   */\n      0x20\n        /* \"#utility.yul\":937:942   */\n      dup7\n        /* \"#utility.yul\":933:949   */\n      add\n        /* \"#utility.yul\":898:963   */\n      tag_32\n      jump\t// in\n    tag_80:\n        /* \"#utility.yul\":988:1017   */\n      tag_81\n        /* \"#utility.yul\":1010:1016   */\n      dup2\n        /* \"#utility.yul\":988:1017   */\n      tag_33\n      jump\t// in\n    tag_81:\n        /* \"#utility.yul\":983:986   */\n      dup5\n        /* \"#utility.yul\":979:1018   */\n      add\n        /* \"#utility.yul\":972:1018   */\n      swap2\n      pop\n        /* \"#utility.yul\":739:1024   */\n      pop\n        /* \"#utility.yul\":647:1024   */\n      swap3\n      swap2\n      pop\n      pop\n      jump\t// out\n        /* \"#utility.yul\":1030:1343   */\n    tag_9:\n        /* \"#utility.yul\":1143:1147   */\n      0x00\n        /* \"#utility.yul\":1181:1183   */\n      0x20\n        /* \"#utility.yul\":1170:1179   */\n      dup3\n        /* \"#utility.yul\":1166:1184   */\n      add\n        /* \"#utility.yul\":1158:1184   */\n      swap1\n      pop\n        /* \"#utility.yul\":1230:1239   */\n      dup2\n        /* \"#utility.yul\":1224:1228   */\n      dup2\n        /* \"#utility.yul\":1220:1240   */\n      sub\n        /* \"#utility.yul\":1216:1217   */\n      0x00\n        /* \"#utility.yul\":1205:1214   */\n      dup4\n        /* \"#utility.yul\":1201:1218   */\n      add\n        /* \"#utility.yul\":1194:1241   */\n      mstore\n        /* \"#utility.yul\":1258:1336   */\n      tag_83\n        /* \"#utility.yul\":1331:1335   */\n      dup2\n        /* \"#utility.yul\":1322:1328   */\n      dup5\n        /* \"#utility.yul\":1258:1336   */\n      tag_34\n      jump\t// in\n    tag_83:\n        /* \"#utility.yul\":1250:1336   */\n      swap1\n      pop\n        /* \"#utility.yul\":1030:1343   */\n      swap3\n      swap2\n      pop\n      pop\n      jump\t// out\n        /* \"#utility.yul\":1349:1475   */\n    tag_35:\n        /* \"#utility.yul\":1386:1393   */\n      0x00\n        /* \"#utility.yul\":1426:1468   */\n      0xffffffffffffffffffffffffffffffffffffffff\n        /* \"#utility.yul\":1419:1424   */\n      dup3\n        /* \"#utility.yul\":1415:1469   */\n      and\n        /* \"#utility.yul\":1404:1469   */\n      swap1\n      pop\n        /* \"#utility.yul\":1349:1475   */\n      swap2\n      swap1\n      pop\n      jump\t// out\n        /* \"#utility.yul\":1481:1577   */\n    tag_36:\n        /* \"#utility.yul\":1518:1525   */\n      0x00\n        /* \"#utility.yul\":1547:1571   */\n      tag_86\n        /* \"#utility.yul\":1565:1570   */\n      dup3\n        /* \"#utility.yul\":1547:1571   */\n      tag_35\n      jump\t// in\n    tag_86:\n        /* \"#utility.yul\":1536:1571   */\n      swap1\n      pop\n        /* \"#utility.yul\":1481:1577   */\n      swap2\n      swap1\n      pop\n      jump\t// out\n        /* \"#utility.yul\":1583:1701   */\n    tag_37:\n        /* \"#utility.yul\":1670:1694   */\n      tag_88\n        /* \"#utility.yul\":1688:1693   */\n      dup2\n        /* \"#utility.yul\":1670:1694   */\n      tag_36\n      jump\t// in\n    tag_88:\n        /* \"#utility.yul\":1665:1668   */\n      dup3\n        /* \"#utility.yul\":1658:1695   */\n      mstore\n        /* \"#utility.yul\":1583:1701   */\n      pop\n      pop\n      jump\t// out\n        /* \"#utility.yul\":1707:1929   */\n    tag_13:\n        /* \"#utility.yul\":1800:1804   */\n      0x00\n        /* \"#utility.yul\":1838:1840   */\n      0x20\n        /* \"#utility.yul\":1827:1836   */\n      dup3\n        /* \"#utility.yul\":1823:1841   */\n      add\n        /* \"#utility.yul\":1815:1841   */\n      swap1\n      pop\n        /* \"#utility.yul\":1851:1922   */\n      tag_90\n        /* \"#utility.yul\":1919:1920   */\n      0x00\n        /* \"#utility.yul\":1908:1917   */\n      dup4\n        /* \"#utility.yul\":1904:1921   */\n      add\n        /* \"#utility.yul\":1895:1901   */\n      dup5\n        /* \"#utility.yul\":1851:1922   */\n      tag_37\n      jump\t// in\n    tag_90:\n        /* \"#utility.yul\":1707:1929   */\n      swap3\n      swap2\n      pop\n      pop\n      jump\t// out\n        /* \"#utility.yul\":1935:2010   */\n    tag_38:\n        /* \"#utility.yul\":1968:1974   */\n      0x00\n        /* \"#utility.yul\":2001:2003   */\n      0x40\n        /* \"#utility.yul\":1995:2004   */\n      mload\n        /* \"#utility.yul\":1985:2004   */\n      swap1\n      pop\n        /* \"#utility.yul\":1935:2010   */\n      swap1\n      jump\t// out\n        /* \"#utility.yul\":2016:2133   */\n    tag_39:\n        /* \"#utility.yul\":2125:2126   */\n      0x00\n        /* \"#utility.yul\":2122:2123   */\n      dup1\n        /* \"#utility.yul\":2115:2127   */\n      revert\n        /* \"#utility.yul\":2139:2256   */\n    tag_40:\n        /* \"#utility.yul\":2248:2249   */\n      0x00\n        /* \"#utility.yul\":2245:2246   */\n      dup1\n        /* \"#utility.yul\":2238:2250   */\n      revert\n        /* \"#utility.yul\":2262:2379   */\n    tag_41:\n        /* \"#utility.yul\":2371:2372   */\n      0x00\n        /* \"#utility.yul\":2368:2369   */\n      dup1\n        /* \"#utility.yul\":2361:2373   */\n      revert\n        /* \"#utility.yul\":2385:2502   */\n    tag_42:\n        /* \"#utility.yul\":2494:2495   */\n      0x00\n        /* \"#utility.yul\":2491:2492   */\n      dup1\n        /* \"#utility.yul\":2484:2496   */\n      revert\n        /* \"#utility.yul\":2508:2688   */\n    tag_43:\n        /* \"#utility.yul\":2556:2633   */\n      0x4e487b7100000000000000000000000000000000000000000000000000000000\n        /* \"#utility.yul\":2553:2554   */\n      0x00\n        /* \"#utility.yul\":2546:2634   */\n      mstore\n        /* \"#utility.yul\":2653:2657   */\n      0x41\n        /* \"#utility.yul\":2650:2651   */\n      0x04\n        /* \"#utility.yul\":2643:2658   */\n      mstore\n        /* \"#utility.yul\":2677:2681   */\n      0x24\n        /* \"#utility.yul\":2674:2675   */\n      0x00\n        /* \"#utility.yul\":2667:2682   */\n      revert\n        /* \"#utility.yul\":2694:2975   */\n    tag_44:\n        /* \"#utility.yul\":2777:2804   */\n      tag_98\n        /* \"#utility.yul\":2799:2803   */\n      dup3\n        /* \"#utility.yul\":2777:2804   */\n      tag_33\n      jump\t// in\n    tag_98:\n        /* \"#utility.yul\":2769:2775   */\n      dup2\n        /* \"#utility.yul\":2765:2805   */\n      add\n        /* \"#utility.yul\":2907:2913   */\n      dup2\n        /* \"#utility.yul\":2895:2905   */\n      dup2\n        /* \"#utility.yul\":2892:2914   */\n      lt\n        /* \"#utility.yul\":2871:2889   */\n      0xffffffffffffffff\n        /* \"#utility.yul\":2859:2869   */\n      dup3\n        /* \"#utility.yul\":2856:2890   */\n      gt\n        /* \"#utility.yul\":2853:2915   */\n      or\n        /* \"#utility.yul\":2850:2938   */\n      iszero\n      tag_99\n      jumpi\n        /* \"#utility.yul\":2918:2936   */\n      tag_100\n      tag_43\n      jump\t// in\n    tag_100:\n        /* \"#utility.yul\":2850:2938   */\n    tag_99:\n        /* \"#utility.yul\":2958:2968   */\n      dup1\n        /* \"#utility.yul\":2954:2956   */\n      0x40\n        /* \"#utility.yul\":2947:2969   */\n      mstore\n        /* \"#utility.yul\":2737:2975   */\n      pop\n        /* \"#utility.yul\":2694:2975   */\n      pop\n      pop\n      jump\t// out\n        /* \"#utility.yul\":2981:3110   */\n    tag_45:\n        /* \"#utility.yul\":3015:3021   */\n      0x00\n        /* \"#utility.yul\":3042:3062   */\n      tag_102\n      tag_38\n      jump\t// in\n    tag_102:\n        /* \"#utility.yul\":3032:3062   */\n      swap1\n      pop\n        /* \"#utility.yul\":3071:3104   */\n      tag_103\n        /* \"#utility.yul\":3099:3103   */\n      dup3\n        /* \"#utility.yul\":3091:3097   */\n      dup3\n        /* \"#utility.yul\":3071:3104   */\n      tag_44\n      jump\t// in\n    tag_103:\n        /* \"#utility.yul\":2981:3110   */\n      swap2\n      swap1\n      pop\n      jump\t// out\n        /* \"#utility.yul\":3116:3424   */\n    tag_46:\n        /* \"#utility.yul\":3178:3182   */\n      0x00\n        /* \"#utility.yul\":3268:3286   */\n      0xffffffffffffffff\n        /* \"#utility.yul\":3260:3266   */\n      dup3\n        /* \"#utility.yul\":3257:3287   */\n      gt\n        /* \"#utility.yul\":3254:3310   */\n      iszero\n      tag_105\n      jumpi\n        /* \"#utility.yul\":3290:3308   */\n      tag_106\n      tag_43\n      jump\t// in\n    tag_106:\n        /* \"#utility.yul\":3254:3310   */\n    tag_105:\n        /* \"#utility.yul\":3328:3357   */\n      tag_107\n        /* \"#utility.yul\":3350:3356   */\n      dup3\n        /* \"#utility.yul\":3328:3357   */\n      tag_33\n      jump\t// in\n    tag_107:\n        /* \"#utility.yul\":3320:3357   */\n      swap1\n      pop\n        /* \"#utility.yul\":3412:3416   */\n      0x20\n        /* \"#utility.yul\":3406:3410   */\n      dup2\n        /* \"#utility.yul\":3402:3417   */\n      add\n        /* \"#utility.yul\":3394:3417   */\n      swap1\n      pop\n        /* \"#utility.yul\":3116:3424   */\n      swap2\n      swap1\n      pop\n      jump\t// out\n        /* \"#utility.yul\":3430:3576   */\n    tag_47:\n        /* \"#utility.yul\":3527:3533   */\n      dup3\n        /* \"#utility.yul\":3522:3525   */\n      dup2\n        /* \"#utility.yul\":3517:3520   */\n      dup4\n        /* \"#utility.yul\":3504:3534   */\n      calldatacopy\n        /* \"#utility.yul\":3568:3569   */\n      0x00\n        /* \"#utility.yul\":3559:3565   */\n      dup4\n        /* \"#utility.yul\":3554:3557   */\n      dup4\n        /* \"#utility.yul\":3550:3566   */\n      add\n        /* \"#utility.yul\":3543:3570   */\n      mstore\n        /* \"#utility.yul\":3430:3576   */\n      pop\n      pop\n      pop\n      jump\t// out\n        /* \"#utility.yul\":3582:4007   */\n    tag_48:\n        /* \"#utility.yul\":3660:3665   */\n      0x00\n        /* \"#utility.yul\":3685:3751   */\n      tag_110\n        /* \"#utility.yul\":3701:3750   */\n      tag_111\n        /* \"#utility.yul\":3743:3749   */\n      dup5\n        /* \"#utility.yul\":3701:3750   */\n      tag_46\n      jump\t// in\n    tag_111:\n        /* \"#utility.yul\":3685:3751   */\n      tag_45\n      jump\t// in\n    tag_110:\n        /* \"#utility.yul\":3676:3751   */\n      swap1\n      pop\n        /* \"#utility.yul\":3774:3780   */\n      dup3\n        /* \"#utility.yul\":3767:3772   */\n      dup2\n        /* \"#utility.yul\":3760:3781   */\n      mstore\n        /* \"#utility.yul\":3812:3816   */\n      0x20\n        /* \"#utility.yul\":3805:3810   */\n      dup2\n        /* \"#utility.yul\":3801:3817   */\n      add\n        /* \"#utility.yul\":3850:3853   */\n      dup5\n        /* \"#utility.yul\":3841:3847   */\n      dup5\n        /* \"#utility.yul\":3836:3839   */\n      dup5\n        /* \"#utility.yul\":3832:3848   */\n      add\n        /* \"#utility.yul\":3829:3854   */\n      gt\n        /* \"#utility.yul\":3826:3938   */\n      iszero\n      tag_112\n      jumpi\n        /* \"#utility.yul\":3857:3936   */\n      tag_113\n      tag_42\n      jump\t// in\n    tag_113:\n        /* \"#utility.yul\":3826:3938   */\n    tag_112:\n        /* \"#utility.yul\":3947:4001   */\n      tag_114\n        /* \"#utility.yul\":3994:4000   */\n      dup5\n        /* \"#utility.yul\":3989:3992   */\n      dup3\n        /* \"#utility.yul\":3984:3987   */\n      dup6\n        /* \"#utility.yul\":3947:4001   */\n      tag_47\n      jump\t// in\n    tag_114:\n        /* \"#utility.yul\":3666:4007   */\n      pop\n        /* \"#utility.yul\":3582:4007   */\n      swap4\n      swap3\n      pop\n      pop\n      pop\n      jump\t// out\n        /* \"#utility.yul\":4027:4367   */\n    tag_49:\n        /* \"#utility.yul\":4083:4088   */\n      0x00\n        /* \"#utility.yul\":4132:4135   */\n      dup3\n        /* \"#utility.yul\":4125:4129   */\n      0x1f\n        /* \"#utility.yul\":4117:4123   */\n      dup4\n        /* \"#utility.yul\":4113:4130   */\n      add\n        /* \"#utility.yul\":4109:4136   */\n      slt\n        /* \"#utility.yul\":4099:4221   */\n      tag_116\n      jumpi\n        /* \"#utility.yul\":4140:4219   */\n      tag_117\n      tag_41\n      jump\t// in\n    tag_117:\n        /* \"#utility.yul\":4099:4221   */\n    tag_116:\n        /* \"#utility.yul\":4257:4263   */\n      dup2\n        /* \"#utility.yul\":4244:4264   */\n      calldataload\n        /* \"#utility.yul\":4282:4361   */\n      tag_118\n        /* \"#utility.yul\":4357:4360   */\n      dup5\n        /* \"#utility.yul\":4349:4355   */\n      dup3\n        /* \"#utility.yul\":4342:4346   */\n      0x20\n        /* \"#utility.yul\":4334:4340   */\n      dup7\n        /* \"#utility.yul\":4330:4347   */\n      add\n        /* \"#utility.yul\":4282:4361   */\n      tag_48\n      jump\t// in\n    tag_118:\n        /* \"#utility.yul\":4273:4361   */\n      swap2\n      pop\n        /* \"#utility.yul\":4089:4367   */\n      pop\n        /* \"#utility.yul\":4027:4367   */\n      swap3\n      swap2\n      pop\n      pop\n      jump\t// out\n        /* \"#utility.yul\":4373:4882   */\n    tag_16:\n        /* \"#utility.yul\":4442:4448   */\n      0x00\n        /* \"#utility.yul\":4491:4493   */\n      0x20\n        /* \"#utility.yul\":4479:4488   */\n      dup3\n        /* \"#utility.yul\":4470:4477   */\n      dup5\n        /* \"#utility.yul\":4466:4489   */\n      sub\n        /* \"#utility.yul\":4462:4494   */\n      slt\n        /* \"#utility.yul\":4459:4578   */\n      iszero\n      tag_120\n      jumpi\n        /* \"#utility.yul\":4497:4576   */\n      tag_121\n      tag_39\n      jump\t// in\n    tag_121:\n        /* \"#utility.yul\":4459:4578   */\n    tag_120:\n        /* \"#utility.yul\":4645:4646   */\n      0x00\n        /* \"#utility.yul\":4634:4643   */\n      dup3\n        /* \"#utility.yul\":4630:4647   */\n      add\n        /* \"#utility.yul\":4617:4648   */\n      calldataload\n        /* \"#utility.yul\":4675:4693   */\n      0xffffffffffffffff\n        /* \"#utility.yul\":4667:4673   */\n      dup2\n        /* \"#utility.yul\":4664:4694   */\n      gt\n        /* \"#utility.yul\":4661:4778   */\n      iszero\n      tag_122\n      jumpi\n        /* \"#utility.yul\":4697:4776   */\n      tag_123\n      tag_40\n      jump\t// in\n    tag_123:\n        /* \"#utility.yul\":4661:4778   */\n    tag_122:\n        /* \"#utility.yul\":4802:4865   */\n      tag_124\n        /* \"#utility.yul\":4857:4864   */\n      dup5\n        /* \"#utility.yul\":4848:4854   */\n      dup3\n        /* \"#utility.yul\":4837:4846   */\n      dup6\n        /* \"#utility.yul\":4833:4855   */\n      add\n        /* \"#utility.yul\":4802:4865   */\n      tag_49\n      jump\t// in\n    tag_124:\n        /* \"#utility.yul\":4792:4865   */\n      swap2\n      pop\n        /* \"#utility.yul\":4588:4875   */\n      pop\n        /* \"#utility.yul\":4373:4882   */\n      swap3\n      swap2\n      pop\n      pop\n      jump\t// out\n        /* \"#utility.yul\":4888:5068   */\n    tag_50:\n        /* \"#utility.yul\":4936:5013   */\n      0x4e487b7100000000000000000000000000000000000000000000000000000000\n        /* \"#utility.yul\":4933:4934   */\n      0x00\n        /* \"#utility.yul\":4926:5014   */\n      mstore\n        /* \"#utility.yul\":5033:5037   */\n      0x22\n        /* \"#utility.yul\":5030:5031   */\n      0x04\n        /* \"#utility.yul\":5023:5038   */\n      mstore\n        /* \"#utility.yul\":5057:5061   */\n      0x24\n        /* \"#utility.yul\":5054:5055   */\n      0x00\n        /* \"#utility.yul\":5047:5062   */\n      revert\n        /* \"#utility.yul\":5074:5394   */\n    tag_19:\n        /* \"#utility.yul\":5118:5124   */\n      0x00\n        /* \"#utility.yul\":5155:5156   */\n      0x02\n        /* \"#utility.yul\":5149:5153   */\n      dup3\n        /* \"#utility.yul\":5145:5157   */\n      div\n        /* \"#utility.yul\":5135:5157   */\n      swap1\n      pop\n        /* \"#utility.yul\":5202:5203   */\n      0x01\n        /* \"#utility.yul\":5196:5200   */\n      dup3\n        /* \"#utility.yul\":5192:5204   */\n      and\n        /* \"#utility.yul\":5223:5241   */\n      dup1\n        /* \"#utility.yul\":5213:5294   */\n      tag_127\n      jumpi\n        /* \"#utility.yul\":5279:5283   */\n      0x7f\n        /* \"#utility.yul\":5271:5277   */\n      dup3\n        /* \"#utility.yul\":5267:5284   */\n      and\n        /* \"#utility.yul\":5257:5284   */\n      swap2\n      pop\n        /* \"#utility.yul\":5213:5294   */\n    tag_127:\n        /* \"#utility.yul\":5341:5343   */\n      0x20\n        /* \"#utility.yul\":5333:5339   */\n      dup3\n        /* \"#utility.yul\":5330:5344   */\n      lt\n        /* \"#utility.yul\":5310:5328   */\n      dup2\n        /* \"#utility.yul\":5307:5345   */\n      sub\n        /* \"#utility.yul\":5304:5388   */\n      tag_128\n      jumpi\n        /* \"#utility.yul\":5360:5378   */\n      tag_129\n      tag_50\n      jump\t// in\n    tag_129:\n        /* \"#utility.yul\":5304:5388   */\n    tag_128:\n        /* \"#utility.yul\":5125:5394   */\n      pop\n        /* \"#utility.yul\":5074:5394   */\n      swap2\n      swap1\n      pop\n      jump\t// out\n        /* \"#utility.yul\":5400:5620   */\n    tag_51:\n        /* \"#utility.yul\":5540:5574   */\n      0x4f6e6c79204f776e65722063616e2063616c6c20746869732066756e6374696f\n        /* \"#utility.yul\":5536:5537   */\n      0x00\n        /* \"#utility.yul\":5528:5534   */\n      dup3\n        /* \"#utility.yul\":5524:5538   */\n      add\n        /* \"#utility.yul\":5517:5575   */\n      mstore\n        /* \"#utility.yul\":5609:5612   */\n      0x6e00000000000000000000000000000000000000000000000000000000000000\n        /* \"#utility.yul\":5604:5606   */\n      0x20\n        /* \"#utility.yul\":5596:5602   */\n      dup3\n        /* \"#utility.yul\":5592:5607   */\n      add\n        /* \"#utility.yul\":5585:5613   */\n      mstore\n        /* \"#utility.yul\":5400:5620   */\n      pop\n      jump\t// out\n        /* \"#utility.yul\":5626:5992   */\n    tag_52:\n        /* \"#utility.yul\":5768:5771   */\n      0x00\n        /* \"#utility.yul\":5789:5856   */\n      tag_132\n        /* \"#utility.yul\":5853:5855   */\n      0x21\n        /* \"#utility.yul\":5848:5851   */\n      dup4\n        /* \"#utility.yul\":5789:5856   */\n      tag_31\n      jump\t// in\n    tag_132:\n        /* \"#utility.yul\":5782:5856   */\n      swap2\n      pop\n        /* \"#utility.yul\":5865:5958   */\n      tag_133\n        /* \"#utility.yul\":5954:5957   */\n      dup3\n        /* \"#utility.yul\":5865:5958   */\n      tag_51\n      jump\t// in\n    tag_133:\n        /* \"#utility.yul\":5983:5985   */\n      0x40\n        /* \"#utility.yul\":5978:5981   */\n      dup3\n        /* \"#utility.yul\":5974:5986   */\n      add\n        /* \"#utility.yul\":5967:5986   */\n      swap1\n      pop\n        /* \"#utility.yul\":5626:5992   */\n      swap2\n      swap1\n      pop\n      jump\t// out\n        /* \"#utility.yul\":5998:6417   */\n    tag_27:\n        /* \"#utility.yul\":6164:6168   */\n      0x00\n        /* \"#utility.yul\":6202:6204   */\n      0x20\n        /* \"#utility.yul\":6191:6200   */\n      dup3\n        /* \"#utility.yul\":6187:6205   */\n      add\n        /* \"#utility.yul\":6179:6205   */\n      swap1\n      pop\n        /* \"#utility.yul\":6251:6260   */\n      dup2\n        /* \"#utility.yul\":6245:6249   */\n      dup2\n        /* \"#utility.yul\":6241:6261   */\n      sub\n        /* \"#utility.yul\":6237:6238   */\n      0x00\n        /* \"#utility.yul\":6226:6235   */\n      dup4\n        /* \"#utility.yul\":6222:6239   */\n      add\n        /* \"#utility.yul\":6215:6262   */\n      mstore\n        /* \"#utility.yul\":6279:6410   */\n      tag_135\n        /* \"#utility.yul\":6405:6409   */\n      dup2\n        /* \"#utility.yul\":6279:6410   */\n      tag_52\n      jump\t// in\n    tag_135:\n        /* \"#utility.yul\":6271:6410   */\n      swap1\n      pop\n        /* \"#utility.yul\":5998:6417   */\n      swap2\n      swap1\n      pop\n      jump\t// out\n        /* \"#utility.yul\":6423:6564   */\n    tag_53:\n        /* \"#utility.yul\":6472:6476   */\n      0x00\n        /* \"#utility.yul\":6495:6498   */\n      dup2\n        /* \"#utility.yul\":6487:6498   */\n      swap1\n      pop\n        /* \"#utility.yul\":6518:6521   */\n      dup2\n        /* \"#utility.yul\":6515:6516   */\n      0x00\n        /* \"#utility.yul\":6508:6522   */\n      mstore\n        /* \"#utility.yul\":6552:6556   */\n      0x20\n        /* \"#utility.yul\":6549:6550   */\n      0x00\n        /* \"#utility.yul\":6539:6557   */\n      keccak256\n        /* \"#utility.yul\":6531:6557   */\n      swap1\n      pop\n        /* \"#utility.yul\":6423:6564   */\n      swap2\n      swap1\n      pop\n      jump\t// out\n        /* \"#utility.yul\":6570:6663   */\n    tag_54:\n        /* \"#utility.yul\":6607:6613   */\n      0x00\n        /* \"#utility.yul\":6654:6656   */\n      0x20\n        /* \"#utility.yul\":6649:6651   */\n      0x1f\n        /* \"#utility.yul\":6642:6647   */\n      dup4\n        /* \"#utility.yul\":6638:6652   */\n      add\n        /* \"#utility.yul\":6634:6657   */\n      div\n        /* \"#utility.yul\":6624:6657   */\n      swap1\n      pop\n        /* \"#utility.yul\":6570:6663   */\n      swap2\n      swap1\n      pop\n      jump\t// out\n        /* \"#utility.yul\":6669:6776   */\n    tag_55:\n        /* \"#utility.yul\":6713:6721   */\n      0x00\n        /* \"#utility.yul\":6763:6768   */\n      dup3\n        /* \"#utility.yul\":6757:6761   */\n      dup3\n        /* \"#utility.yul\":6753:6769   */\n      shl\n        /* \"#utility.yul\":6732:6769   */\n      swap1\n      pop\n        /* \"#utility.yul\":6669:6776   */\n      swap3\n      swap2\n      pop\n      pop\n      jump\t// out\n        /* \"#utility.yul\":6782:7175   */\n    tag_56:\n        /* \"#utility.yul\":6851:6857   */\n      0x00\n        /* \"#utility.yul\":6901:6902   */\n      0x08\n        /* \"#utility.yul\":6889:6899   */\n      dup4\n        /* \"#utility.yul\":6885:6903   */\n      mul\n        /* \"#utility.yul\":6924:7021   */\n      tag_140\n        /* \"#utility.yul\":6954:7020   */\n      0xffffffffffffffffffffffffffffffffffffffffffffffffffffffffffffffff\n        /* \"#utility.yul\":6943:6952   */\n      dup3\n        /* \"#utility.yul\":6924:7021   */\n      tag_55\n      jump\t// in\n    tag_140:\n        /* \"#utility.yul\":7042:7081   */\n      tag_141\n        /* \"#utility.yul\":7072:7080   */\n      dup7\n        /* \"#utility.yul\":7061:7070   */\n      dup4\n        /* \"#utility.yul\":7042:7081   */\n      tag_55\n      jump\t// in\n    tag_141:\n        /* \"#utility.yul\":7030:7081   */\n      swap6\n      pop\n        /* \"#utility.yul\":7114:7118   */\n      dup1\n        /* \"#utility.yul\":7110:7119   */\n      not\n        /* \"#utility.yul\":7103:7108   */\n      dup5\n        /* \"#utility.yul\":7099:7120   */\n      and\n        /* \"#utility.yul\":7090:7120   */\n      swap4\n      pop\n        /* \"#utility.yul\":7163:7167   */\n      dup1\n        /* \"#utility.yul\":7153:7161   */\n      dup7\n        /* \"#utility.yul\":7149:7168   */\n      and\n        /* \"#utility.yul\":7142:7147   */\n      dup5\n        /* \"#utility.yul\":7139:7169   */\n      or\n        /* \"#utility.yul\":7129:7169   */\n      swap3\n      pop\n        /* \"#utility.yul\":6858:7175   */\n      pop\n      pop\n        /* \"#utility.yul\":6782:7175   */\n      swap4\n      swap3\n      pop\n      pop\n      pop\n      jump\t// out\n        /* \"#utility.yul\":7181:7258   */\n    tag_57:\n        /* \"#utility.yul\":7218:7225   */\n      0x00\n        /* \"#utility.yul\":7247:7252   */\n      dup2\n        /* \"#utility.yul\":7236:7252   */\n      swap1\n      pop\n        /* \"#utility.yul\":7181:7258   */\n      swap2\n      swap1\n      pop\n      jump\t// out\n        /* \"#utility.yul\":7264:7324   */\n    tag_58:\n        /* \"#utility.yul\":7292:7295   */\n      0x00\n        /* \"#utility.yul\":7313:7318   */\n      dup2\n        /* \"#utility.yul\":7306:7318   */\n      swap1\n      pop\n        /* \"#utility.yul\":7264:7324   */\n      swap2\n      swap1\n      pop\n      jump\t// out\n        /* \"#utility.yul\":7330:7472   */\n    tag_59:\n        /* \"#utility.yul\":7380:7389   */\n      0x00\n        /* \"#utility.yul\":7413:7466   */\n      tag_145\n        /* \"#utility.yul\":7431:7465   */\n      tag_146\n        /* \"#utility.yul\":7440:7464   */\n      tag_147\n        /* \"#utility.yul\":7458:7463   */\n      dup5\n        /* \"#utility.yul\":7440:7464   */\n      tag_57\n      jump\t// in\n    tag_147:\n        /* \"#utility.yul\":7431:7465   */\n      tag_58\n      jump\t// in\n    tag_146:\n        /* \"#utility.yul\":7413:7466   */\n      tag_57\n      jump\t// in\n    tag_145:\n        /* \"#utility.yul\":7400:7466   */\n      swap1\n      pop\n        /* \"#utility.yul\":7330:7472   */\n      swap2\n      swap1\n      pop\n      jump\t// out\n        /* \"#utility.yul\":7478:7553   */\n    tag_60:\n        /* \"#utility.yul\":7521:7524   */\n      0x00\n        /* \"#utility.yul\":7542:7547   */\n      dup2\n        /* \"#utility.yul\":7535:7547   */\n      swap1\n      pop\n        /* \"#utility.yul\":7478:7553   */\n      swap2\n      swap1\n      pop\n      jump\t// out\n        /* \"#utility.yul\":7559:7828   */\n    tag_61:\n        /* \"#utility.yul\":7669:7708   */\n      tag_150\n        /* \"#utility.yul\":7700:7707   */\n      dup4\n        /* \"#utility.yul\":7669:7708   */\n      tag_59\n      jump\t// in\n    tag_150:\n        /* \"#utility.yul\":7730:7821   */\n      tag_151\n        /* \"#utility.yul\":7779:7820   */\n      tag_152\n        /* \"#utility.yul\":7803:7819   */\n      dup3\n        /* \"#utility.yul\":7779:7820   */\n      tag_60\n      jump\t// in\n    tag_152:\n        /* \"#utility.yul\":7771:7777   */\n      dup5\n        /* \"#utility.yul\":7764:7768   */\n      dup5\n        /* \"#utility.yul\":7758:7769   */\n      sload\n        /* \"#utility.yul\":7730:7821   */\n      tag_56\n      jump\t// in\n    tag_151:\n        /* \"#utility.yul\":7724:7728   */\n      dup3\n        /* \"#utility.yul\":7717:7822   */\n      sstore\n        /* \"#utility.yul\":7635:7828   */\n      pop\n        /* \"#utility.yul\":7559:7828   */\n      pop\n      pop\n      pop\n      jump\t// out\n        /* \"#utility.yul\":7834:7907   */\n    tag_62:\n        /* \"#utility.yul\":7879:7882   */\n      0x00\n        /* \"#utility.yul\":7834:7907   */\n      swap1\n      jump\t// out\n        /* \"#utility.yul\":7913:8102   */\n    tag_63:\n        /* \"#utility.yul\":7990:8022   */\n      tag_155\n      tag_62\n      jump\t// in\n    tag_155:\n        /* \"#utility.yul\":8031:8096   */\n      tag_156\n        /* \"#utility.yul\":8089:8095   */\n      dup2\n        /* \"#utility.yul\":8081:8087   */\n      dup5\n        /* \"#utility.yul\":8075:8079   */\n      dup5\n        /* \"#utility.yul\":8031:8096   */\n      tag_61\n      jump\t// in\n    tag_156:\n        /* \"#utility.yul\":7966:8102   */\n      pop\n        /* \"#utility.yul\":7913:8102   */\n      pop\n      pop\n      jump\t// out\n        /* \"#utility.yul\":8108:8294   */\n    tag_64:\n        /* \"#utility.yul\":8168:8288   */\n    tag_158:\n        /* \"#utility.yul\":8185:8188   */\n      dup2\n        /* \"#utility.yul\":8178:8183   */\n      dup2\n        /* \"#utility.yul\":8175:8189   */\n      lt\n        /* \"#utility.yul\":8168:8288   */\n      iszero\n      tag_160\n      jumpi\n        /* \"#utility.yul\":8239:8278   */\n      tag_161\n        /* \"#utility.yul\":8276:8277   */\n      0x00\n        /* \"#utility.yul\":8269:8274   */\n      dup3\n        /* \"#utility.yul\":8239:8278   */\n      tag_63\n      jump\t// in\n    tag_161:\n        /* \"#utility.yul\":8212:8213   */\n      0x01\n        /* \"#utility.yul\":8205:8210   */\n      dup2\n        /* \"#utility.yul\":8201:8214   */\n      add\n        /* \"#utility.yul\":8192:8214   */\n      swap1\n      pop\n        /* \"#utility.yul\":8168:8288   */\n      jump(tag_158)\n    tag_160:\n        /* \"#utility.yul\":8108:8294   */\n      pop\n      pop\n      jump\t// out\n        /* \"#utility.yul\":8300:8843   */\n    tag_65:\n        /* \"#utility.yul\":8401:8403   */\n      0x1f\n        /* \"#utility.yul\":8396:8399   */\n      dup3\n        /* \"#utility.yul\":8393:8404   */\n      gt\n        /* \"#utility.yul\":8390:8836   */\n      iszero\n      tag_163\n      jumpi\n        /* \"#utility.yul\":8435:8473   */\n      tag_164\n        /* \"#utility.yul\":8467:8472   */\n      dup2\n        /* \"#utility.yul\":8435:8473   */\n      tag_53\n      jump\t// in\n    tag_164:\n        /* \"#utility.yul\":8519:8548   */\n      tag_165\n        /* \"#utility.yul\":8537:8547   */\n      dup5\n        /* \"#utility.yul\":8519:8548   */\n      tag_54\n      jump\t// in\n    tag_165:\n        /* \"#utility.yul\":8509:8517   */\n      dup2\n        /* \"#utility.yul\":8505:8549   */\n      add\n        /* \"#utility.yul\":8702:8704   */\n      0x20\n        /* \"#utility.yul\":8690:8700   */\n      dup6\n        /* \"#utility.yul\":8687:8705   */\n      lt\n        /* \"#utility.yul\":8684:8733   */\n      iszero\n      tag_166\n      jumpi\n        /* \"#utility.yul\":8723:8731   */\n      dup2\n        /* \"#utility.yul\":8708:8731   */\n      swap1\n      pop\n        /* \"#utility.yul\":8684:8733   */\n    tag_166:\n        /* \"#utility.yul\":8746:8826   */\n      tag_167\n        /* \"#utility.yul\":8802:8824   */\n      tag_168\n        /* \"#utility.yul\":8820:8823   */\n      dup6\n        /* \"#utility.yul\":8802:8824   */\n      tag_54\n      jump\t// in\n    tag_168:\n        /* \"#utility.yul\":8792:8800   */\n      dup4\n        /* \"#utility.yul\":8788:8825   */\n      add\n        /* \"#utility.yul\":8775:8786   */\n      dup3\n        /* \"#utility.yul\":8746:8826   */\n      tag_64\n      jump\t// in\n    tag_167:\n        /* \"#utility.yul\":8405:8836   */\n      pop\n      pop\n        /* \"#utility.yul\":8390:8836   */\n    tag_163:\n        /* \"#utility.yul\":8300:8843   */\n      pop\n      pop\n      pop\n      jump\t// out\n        /* \"#utility.yul\":8849:8966   */\n    tag_66:\n        /* \"#utility.yul\":8903:8911   */\n      0x00\n        /* \"#utility.yul\":8953:8958   */\n      dup3\n        /* \"#utility.yul\":8947:8951   */\n      dup3\n        /* \"#utility.yul\":8943:8959   */\n      shr\n        /* \"#utility.yul\":8922:8959   */\n      swap1\n      pop\n        /* \"#utility.yul\":8849:8966   */\n      swap3\n      swap2\n      pop\n      pop\n      jump\t// out\n        /* \"#utility.yul\":8972:9141   */\n    tag_67:\n        /* \"#utility.yul\":9016:9022   */\n      0x00\n        /* \"#utility.yul\":9049:9100   */\n      tag_171\n        /* \"#utility.yul\":9097:9098   */\n      0x00\n        /* \"#utility.yul\":9093:9099   */\n      not\n        /* \"#utility.yul\":9085:9090   */\n      dup5\n        /* \"#utility.yul\":9082:9083   */\n      0x08\n        /* \"#utility.yul\":9078:9091   */\n      mul\n        /* \"#utility.yul\":9049:9100   */\n      tag_66\n      jump\t// in\n    tag_171:\n        /* \"#utility.yul\":9045:9101   */\n      not\n        /* \"#utility.yul\":9130:9134   */\n      dup1\n        /* \"#utility.yul\":9124:9128   */\n      dup4\n        /* \"#utility.yul\":9120:9135   */\n      and\n        /* \"#utility.yul\":9110:9135   */\n      swap2\n      pop\n        /* \"#utility.yul\":9023:9141   */\n      pop\n        /* \"#utility.yul\":8972:9141   */\n      swap3\n      swap2\n      pop\n      pop\n      jump\t// out\n        /* \"#utility.yul\":9146:9441   */\n    tag_68:\n        /* \"#utility.yul\":9222:9226   */\n      0x00\n        /* \"#utility.yul\":9368:9397   */\n      tag_173\n        /* \"#utility.yul\":9393:9396   */\n      dup4\n        /* \"#utility.yul\":9387:9391   */\n      dup4\n        /* \"#utility.yul\":9368:9397   */\n      tag_67\n      jump\t// in\n    tag_173:\n        /* \"#utility.yul\":9360:9397   */\n      swap2\n      pop\n        /* \"#utility.yul\":9430:9433   */\n      dup3\n        /* \"#utility.yul\":9427:9428   */\n      0x02\n        /* \"#utility.yul\":9423:9434   */\n      mul\n        /* \"#utility.yul\":9417:9421   */\n      dup3\n        /* \"#utility.yul\":9414:9435   */\n      or\n        /* \"#utility.yul\":9406:9435   */\n      swap1\n      pop\n        /* \"#utility.yul\":9146:9441   */\n      swap3\n      swap2\n      pop\n      pop\n      jump\t// out\n        /* \"#utility.yul\":9446:10841   */\n    tag_29:\n        /* \"#utility.yul\":9563:9600   */\n      tag_175\n        /* \"#utility.yul\":9596:9599   */\n      dup3\n        /* \"#utility.yul\":9563:9600   */\n      tag_30\n      jump\t// in\n    tag_175:\n        /* \"#utility.yul\":9665:9683   */\n      0xffffffffffffffff\n        /* \"#utility.yul\":9657:9663   */\n      dup2\n        /* \"#utility.yul\":9654:9684   */\n      gt\n        /* \"#utility.yul\":9651:9707   */\n      iszero\n      tag_176\n      jumpi\n        /* \"#utility.yul\":9687:9705   */\n      tag_177\n      tag_43\n      jump\t// in\n    tag_177:\n        /* \"#utility.yul\":9651:9707   */\n    tag_176:\n        /* \"#utility.yul\":9731:9769   */\n      tag_178\n        /* \"#utility.yul\":9763:9767   */\n      dup3\n        /* \"#utility.yul\":9757:9768   */\n      sload\n        /* \"#utility.yul\":9731:9769   */\n      tag_19\n      jump\t// in\n    tag_178:\n        /* \"#utility.yul\":9816:9883   */\n      tag_179\n        /* \"#utility.yul\":9876:9882   */\n      dup3\n        /* \"#utility.yul\":9868:9874   */\n      dup3\n        /* \"#utility.yul\":9862:9866   */\n      dup6\n        /* \"#utility.yul\":9816:9883   */\n      tag_65\n      jump\t// in\n    tag_179:\n        /* \"#utility.yul\":9910:9911   */\n      0x00\n        /* \"#utility.yul\":9934:9938   */\n      0x20\n        /* \"#utility.yul\":9921:9938   */\n      swap1\n      pop\n        /* \"#utility.yul\":9966:9968   */\n      0x1f\n        /* \"#utility.yul\":9958:9964   */\n      dup4\n        /* \"#utility.yul\":9955:9969   */\n      gt\n        /* \"#utility.yul\":9983:9984   */\n      0x01\n        /* \"#utility.yul\":9978:10596   */\n      dup2\n      eq\n      tag_181\n      jumpi\n        /* \"#utility.yul\":10640:10641   */\n      0x00\n        /* \"#utility.yul\":10657:10663   */\n      dup5\n        /* \"#utility.yul\":10654:10731   */\n      iszero\n      tag_182\n      jumpi\n        /* \"#utility.yul\":10706:10715   */\n      dup3\n        /* \"#utility.yul\":10701:10704   */\n      dup8\n        /* \"#utility.yul\":10697:10716   */\n      add\n        /* \"#utility.yul\":10691:10717   */\n      mload\n        /* \"#utility.yul\":10682:10717   */\n      swap1\n      pop\n        /* \"#utility.yul\":10654:10731   */\n    tag_182:\n        /* \"#utility.yul\":10757:10824   */\n      tag_183\n        /* \"#utility.yul\":10817:10823   */\n      dup6\n        /* \"#utility.yul\":10810:10815   */\n      dup3\n        /* \"#utility.yul\":10757:10824   */\n      tag_68\n      jump\t// in\n    tag_183:\n        /* \"#utility.yul\":10751:10755   */\n      dup7\n        /* \"#utility.yul\":10744:10825   */\n      sstore\n        /* \"#utility.yul\":10613:10835   */\n      pop\n        /* \"#utility.yul\":9948:10835   */\n      jump(tag_180)\n        /* \"#utility.yul\":9978:10596   */\n    tag_181:\n        /* \"#utility.yul\":10030:10034   */\n      0x1f\n        /* \"#utility.yul\":10026:10035   */\n      not\n        /* \"#utility.yul\":10018:10024   */\n      dup5\n        /* \"#utility.yul\":10014:10036   */\n      and\n        /* \"#utility.yul\":10064:10101   */\n      tag_184\n        /* \"#utility.yul\":10096:10100   */\n      dup7\n        /* \"#utility.yul\":10064:10101   */\n      tag_53\n      jump\t// in\n    tag_184:\n        /* \"#utility.yul\":10123:10124   */\n      0x00\n        /* \"#utility.yul\":10137:10345   */\n    tag_185:\n        /* \"#utility.yul\":10151:10158   */\n      dup3\n        /* \"#utility.yul\":10148:10149   */\n      dup2\n        /* \"#utility.yul\":10145:10159   */\n      lt\n        /* \"#utility.yul\":10137:10345   */\n      iszero\n      tag_187\n      jumpi\n        /* \"#utility.yul\":10230:10239   */\n      dup5\n        /* \"#utility.yul\":10225:10228   */\n      dup10\n        /* \"#utility.yul\":10221:10240   */\n      add\n        /* \"#utility.yul\":10215:10241   */\n      mload\n        /* \"#utility.yul\":10207:10213   */\n      dup3\n        /* \"#utility.yul\":10200:10242   */\n      sstore\n        /* \"#utility.yul\":10281:10282   */\n      0x01\n        /* \"#utility.yul\":10273:10279   */\n      dup3\n        /* \"#utility.yul\":10269:10283   */\n      add\n        /* \"#utility.yul\":10259:10283   */\n      swap2\n      pop\n        /* \"#utility.yul\":10328:10330   */\n      0x20\n        /* \"#utility.yul\":10317:10326   */\n      dup6\n        /* \"#utility.yul\":10313:10331   */\n      add\n        /* \"#utility.yul\":10300:10331   */\n      swap5\n      pop\n        /* \"#utility.yul\":10174:10178   */\n      0x20\n        /* \"#utility.yul\":10171:10172   */\n      dup2\n        /* \"#utility.yul\":10167:10179   */\n      add\n        /* \"#utility.yul\":10162:10179   */\n      swap1\n      pop\n        /* \"#utility.yul\":10137:10345   */\n      jump(tag_185)\n    tag_187:\n        /* \"#utility.yul\":10373:10379   */\n      dup7\n        /* \"#utility.yul\":10364:10371   */\n      dup4\n        /* \"#utility.yul\":10361:10380   */\n      lt\n        /* \"#utility.yul\":10358:10537   */\n      iszero\n      tag_188\n      jumpi\n        /* \"#utility.yul\":10431:10440   */\n      dup5\n        /* \"#utility.yul\":10426:10429   */\n      dup10\n        /* \"#utility.yul\":10422:10441   */\n      add\n        /* \"#utility.yul\":10416:10442   */\n      mload\n        /* \"#utility.yul\":10474:10522   */\n      tag_189\n        /* \"#utility.yul\":10516:10520   */\n      0x1f\n        /* \"#utility.yul\":10508:10514   */\n      dup10\n        /* \"#utility.yul\":10504:10521   */\n      and\n        /* \"#utility.yul\":10493:10502   */\n      dup3\n        /* \"#utility.yul\":10474:10522   */\n      tag_67\n      jump\t// in\n    tag_189:\n        /* \"#utility.yul\":10466:10472   */\n      dup4\n        /* \"#utility.yul\":10459:10523   */\n      sstore\n        /* \"#utility.yul\":10381:10537   */\n      pop\n        /* \"#utility.yul\":10358:10537   */\n    tag_188:\n        /* \"#utility.yul\":10583:10584   */\n      0x01\n        /* \"#utility.yul\":10579:10580   */\n      0x02\n        /* \"#utility.yul\":10571:10577   */\n      dup9\n        /* \"#utility.yul\":10567:10581   */\n      mul\n        /* \"#utility.yul\":10563:10585   */\n      add\n        /* \"#utility.yul\":10557:10561   */\n      dup9\n        /* \"#utility.yul\":10550:10586   */\n      sstore\n        /* \"#utility.yul\":9985:10596   */\n      pop\n      pop\n      pop\n        /* \"#utility.yul\":9948:10835   */\n    tag_180:\n      pop\n        /* \"#utility.yul\":9538:10841   */\n      pop\n      pop\n      pop\n        /* \"#utility.yul\":9446:10841   */\n      pop\n      pop\n      jump\t// out\n\n    auxdata: 0xa26469706673582212204035976547f2f1601bc5d22a3f91676bbdf7f246e10bc8f7c330eae63c39bebd64736f6c63430008120033\n}\n",
				"bytecode": {
					"linkReferences": {},
					"object": "608060405234801561001057600080fd5b5033600160006101000a81548173ffffffffffffffffffffffffffffffffffffffff021916908373ffffffffffffffffffffffffffffffffffffffff160217905550610845806100616000396000f3fe608060405234801561001057600080fd5b50600436106100415760003560e01c80633fa4f245146100465780638da5cb5b1461006457806393a0935214610082575b600080fd5b61004e61009e565b60405161005b9190610285565b60405180910390f35b61006c61012c565b60405161007991906102e8565b60405180910390f35b61009c6004803603810190610097919061044c565b610152565b005b600080546100ab906104c4565b80601f01602080910402602001604051908101604052809291908181526020018280546100d7906104c4565b80156101245780601f106100f957610100808354040283529160200191610124565b820191906000526020600020905b81548152906001019060200180831161010757829003601f168201915b505050505081565b600160009054906101000a900473ffffffffffffffffffffffffffffffffffffffff1681565b600160009054906101000a900473ffffffffffffffffffffffffffffffffffffffff1673ffffffffffffffffffffffffffffffffffffffff163373ffffffffffffffffffffffffffffffffffffffff16146101e2576040517f08c379a00000000000000000000000000000000000000000000000000000000081526004016101d990610567565b60405180910390fd5b80600090816101f1919061073d565b5050565b600081519050919050565b600082825260208201905092915050565b60005b8381101561022f578082015181840152602081019050610214565b60008484015250505050565b6000601f19601f8301169050919050565b6000610257826101f5565b6102618185610200565b9350610271818560208601610211565b61027a8161023b565b840191505092915050565b6000602082019050818103600083015261029f818461024c565b905092915050565b600073ffffffffffffffffffffffffffffffffffffffff82169050919050565b60006102d2826102a7565b9050919050565b6102e2816102c7565b82525050565b60006020820190506102fd60008301846102d9565b92915050565b6000604051905090565b600080fd5b600080fd5b600080fd5b600080fd5b7f4e487b7100000000000000000000000000000000000000000000000000000000600052604160045260246000fd5b6103598261023b565b810181811067ffffffffffffffff8211171561037857610377610321565b5b80604052505050565b600061038b610303565b90506103978282610350565b919050565b600067ffffffffffffffff8211156103b7576103b6610321565b5b6103c08261023b565b9050602081019050919050565b82818337600083830152505050565b60006103ef6103ea8461039c565b610381565b90508281526020810184848401111561040b5761040a61031c565b5b6104168482856103cd565b509392505050565b600082601f83011261043357610432610317565b5b81356104438482602086016103dc565b91505092915050565b6000602082840312156104625761046161030d565b5b600082013567ffffffffffffffff8111156104805761047f610312565b5b61048c8482850161041e565b91505092915050565b7f4e487b7100000000000000000000000000000000000000000000000000000000600052602260045260246000fd5b600060028204905060018216806104dc57607f821691505b6020821081036104ef576104ee610495565b5b50919050565b7f4f6e6c79204f776e65722063616e2063616c6c20746869732066756e6374696f60008201527f6e00000000000000000000000000000000000000000000000000000000000000602082015250565b6000610551602183610200565b915061055c826104f5565b604082019050919050565b6000602082019050818103600083015261058081610544565b9050919050565b60008190508160005260206000209050919050565b60006020601f8301049050919050565b600082821b905092915050565b6000600883026105e97fffffffffffffffffffffffffffffffffffffffffffffffffffffffffffffffff826105ac565b6105f386836105ac565b95508019841693508086168417925050509392505050565b6000819050919050565b6000819050919050565b600061063a6106356106308461060b565b610615565b61060b565b9050919050565b6000819050919050565b6106548361061f565b61066861066082610641565b8484546105b9565b825550505050565b600090565b61067d610670565b61068881848461064b565b505050565b5b818110156106ac576106a1600082610675565b60018101905061068e565b5050565b601f8211156106f1576106c281610587565b6106cb8461059c565b810160208510156106da578190505b6106ee6106e68561059c565b83018261068d565b50505b505050565b600082821c905092915050565b6000610714600019846008026106f6565b1980831691505092915050565b600061072d8383610703565b9150826002028217905092915050565b610746826101f5565b67ffffffffffffffff81111561075f5761075e610321565b5b61076982546104c4565b6107748282856106b0565b600060209050601f8311600181146107a75760008415610795578287015190505b61079f8582610721565b865550610807565b601f1984166107b586610587565b60005b828110156107dd578489015182556001820191506020850194506020810190506107b8565b868310156107fa57848901516107f6601f891682610703565b8355505b6001600288020188555050505b50505050505056fea26469706673582212204035976547f2f1601bc5d22a3f91676bbdf7f246e10bc8f7c330eae63c39bebd64736f6c63430008120033",
					"opcodes": "PUSH1 0x80 PUSH1 0x40 MSTORE CALLVALUE DUP1 ISZERO PUSH2 0x10 JUMPI PUSH1 0x0 DUP1 REVERT JUMPDEST POP CALLER PUSH1 0x1 PUSH1 0x0 PUSH2 0x100 EXP DUP2 SLOAD DUP2 PUSH20 0xFFFFFFFFFFFFFFFFFFFFFFFFFFFFFFFFFFFFFFFF MUL NOT AND SWAP1 DUP4 PUSH20 0xFFFFFFFFFFFFFFFFFFFFFFFFFFFFFFFFFFFFFFFF AND MUL OR SWAP1 SSTORE POP PUSH2 0x845 DUP1 PUSH2 0x61 PUSH1 0x0 CODECOPY PUSH1 0x0 RETURN INVALID PUSH1 0x80 PUSH1 0x40 MSTORE CALLVALUE DUP1 ISZERO PUSH2 0x10 JUMPI PUSH1 0x0 DUP1 REVERT JUMPDEST POP PUSH1 0x4 CALLDATASIZE LT PUSH2 0x41 JUMPI PUSH1 0x0 CALLDATALOAD PUSH1 0xE0 SHR DUP1 PUSH4 0x3FA4F245 EQ PUSH2 0x46 JUMPI DUP1 PUSH4 0x8DA5CB5B EQ PUSH2 0x64 JUMPI DUP1 PUSH4 0x93A09352 EQ PUSH2 0x82 JUMPI JUMPDEST PUSH1 0x0 DUP1 REVERT JUMPDEST PUSH2 0x4E PUSH2 0x9E JUMP JUMPDEST PUSH1 0x40 MLOAD PUSH2 0x5B SWAP2 SWAP1 PUSH2 0x285 JUMP JUMPDEST PUSH1 0x40 MLOAD DUP1 SWAP2 SUB SWAP1 RETURN JUMPDEST PUSH2 0x6C PUSH2 0x12C JUMP JUMPDEST PUSH1 0x40 MLOAD PUSH2 0x79 SWAP2 SWAP1 PUSH2 0x2E8 JUMP JUMPDEST PUSH1 0x40 MLOAD DUP1 SWAP2 SUB SWAP1 RETURN JUMPDEST PUSH2 0x9C PUSH1 0x4 DUP1 CALLDATASIZE SUB DUP2 ADD SWAP1 PUSH2 0x97 SWAP2 SWAP1 PUSH2 0x44C JUMP JUMPDEST PUSH2 0x152 JUMP JUMPDEST STOP JUMPDEST PUSH1 0x0 DUP1 SLOAD PUSH2 0xAB SWAP1 PUSH2 0x4C4 JUMP JUMPDEST DUP1 PUSH1 0x1F ADD PUSH1 0x20 DUP1 SWAP2 DIV MUL PUSH1 0x20 ADD PUSH1 0x40 MLOAD SWAP1 DUP2 ADD PUSH1 0x40 MSTORE DUP1 SWAP3 SWAP2 SWAP1 DUP2 DUP2 MSTORE PUSH1 0x20 ADD DUP3 DUP1 SLOAD PUSH2 0xD7 SWAP1 PUSH2 0x4C4 JUMP JUMPDEST DUP1 ISZERO PUSH2 0x124 JUMPI DUP1 PUSH1 0x1F LT PUSH2 0xF9 JUMPI PUSH2 0x100 DUP1 DUP4 SLOAD DIV MUL DUP4 MSTORE SWAP2 PUSH1 0x20 ADD SWAP2 PUSH2 0x124 JUMP JUMPDEST DUP3 ADD SWAP2 SWAP1 PUSH1 0x0 MSTORE PUSH1 0x20 PUSH1 0x0 KECCAK256 SWAP1 JUMPDEST DUP2 SLOAD DUP2 MSTORE SWAP1 PUSH1 0x1 ADD SWAP1 PUSH1 0x20 ADD DUP1 DUP4 GT PUSH2 0x107 JUMPI DUP3 SWAP1 SUB PUSH1 0x1F AND DUP3 ADD SWAP2 JUMPDEST POP POP POP POP POP DUP2 JUMP JUMPDEST PUSH1 0x1 PUSH1 0x0 SWAP1 SLOAD SWAP1 PUSH2 0x100 EXP SWAP1 DIV PUSH20 0xFFFFFFFFFFFFFFFFFFFFFFFFFFFFFFFFFFFFFFFF AND DUP2 JUMP JUMPDEST PUSH1 0x1 PUSH1 0x0 SWAP1 SLOAD SWAP1 PUSH2 0x100 EXP SWAP1 DIV PUSH20 0xFFFFFFFFFFFFFFFFFFFFFFFFFFFFFFFFFFFFFFFF AND PUSH20 0xFFFFFFFFFFFFFFFFFFFFFFFFFFFFFFFFFFFFFFFF AND CALLER PUSH20 0xFFFFFFFFFFFFFFFFFFFFFFFFFFFFFFFFFFFFFFFF AND EQ PUSH2 0x1E2 JUMPI PUSH1 0x40 MLOAD PUSH32 0x8C379A000000000000000000000000000000000000000000000000000000000 DUP2 MSTORE PUSH1 0x4 ADD PUSH2 0x1D9 SWAP1 PUSH2 0x567 JUMP JUMPDEST PUSH1 0x40 MLOAD DUP1 SWAP2 SUB SWAP1 REVERT JUMPDEST DUP1 PUSH1 0x0 SWAP1 DUP2 PUSH2 0x1F1 SWAP2 SWAP1 PUSH2 0x73D JUMP JUMPDEST POP POP JUMP JUMPDEST PUSH1 0x0 DUP2 MLOAD SWAP1 POP SWAP2 SWAP1 POP JUMP JUMPDEST PUSH1 0x0 DUP3 DUP3 MSTORE PUSH1 0x20 DUP3 ADD SWAP1 POP SWAP3 SWAP2 POP POP JUMP JUMPDEST PUSH1 0x0 JUMPDEST DUP4 DUP2 LT ISZERO PUSH2 0x22F JUMPI DUP1 DUP3 ADD MLOAD DUP2 DUP5 ADD MSTORE PUSH1 0x20 DUP2 ADD SWAP1 POP PUSH2 0x214 JUMP JUMPDEST PUSH1 0x0 DUP5 DUP5 ADD MSTORE POP POP POP POP JUMP JUMPDEST PUSH1 0x0 PUSH1 0x1F NOT PUSH1 0x1F DUP4 ADD AND SWAP1 POP SWAP2 SWAP1 POP JUMP JUMPDEST PUSH1 0x0 PUSH2 0x257 DUP3 PUSH2 0x1F5 JUMP JUMPDEST PUSH2 0x261 DUP2 DUP6 PUSH2 0x200 JUMP JUMPDEST SWAP4 POP PUSH2 0x271 DUP2 DUP6 PUSH1 0x20 DUP7 ADD PUSH2 0x211 JUMP JUMPDEST PUSH2 0x27A DUP2 PUSH2 0x23B JUMP JUMPDEST DUP5 ADD SWAP2 POP POP SWAP3 SWAP2 POP POP JUMP JUMPDEST PUSH1 0x0 PUSH1 0x20 DUP3 ADD SWAP1 POP DUP2 DUP2 SUB PUSH1 0x0 DUP4 ADD MSTORE PUSH2 0x29F DUP2 DUP5 PUSH2 0x24C JUMP JUMPDEST SWAP1 POP SWAP3 SWAP2 POP POP JUMP JUMPDEST PUSH1 0x0 PUSH20 0xFFFFFFFFFFFFFFFFFFFFFFFFFFFFFFFFFFFFFFFF DUP3 AND SWAP1 POP SWAP2 SWAP1 POP JUMP JUMPDEST PUSH1 0x0 PUSH2 0x2D2 DUP3 PUSH2 0x2A7 JUMP JUMPDEST SWAP1 POP SWAP2 SWAP1 POP JUMP JUMPDEST PUSH2 0x2E2 DUP2 PUSH2 0x2C7 JUMP JUMPDEST DUP3 MSTORE POP POP JUMP JUMPDEST PUSH1 0x0 PUSH1 0x20 DUP3 ADD SWAP1 POP PUSH2 0x2FD PUSH1 0x0 DUP4 ADD DUP5 PUSH2 0x2D9 JUMP JUMPDEST SWAP3 SWAP2 POP POP JUMP JUMPDEST PUSH1 0x0 PUSH1 0x40 MLOAD SWAP1 POP SWAP1 JUMP JUMPDEST PUSH1 0x0 DUP1 REVERT JUMPDEST PUSH1 0x0 DUP1 REVERT JUMPDEST PUSH1 0x0 DUP1 REVERT JUMPDEST PUSH1 0x0 DUP1 REVERT JUMPDEST PUSH32 0x4E487B7100000000000000000000000000000000000000000000000000000000 PUSH1 0x0 MSTORE PUSH1 0x41 PUSH1 0x4 MSTORE PUSH1 0x24 PUSH1 0x0 REVERT JUMPDEST PUSH2 0x359 DUP3 PUSH2 0x23B JUMP JUMPDEST DUP2 ADD DUP2 DUP2 LT PUSH8 0xFFFFFFFFFFFFFFFF DUP3 GT OR ISZERO PUSH2 0x378 JUMPI PUSH2 0x377 PUSH2 0x321 JUMP JUMPDEST JUMPDEST DUP1 PUSH1 0x40 MSTORE POP POP POP JUMP JUMPDEST PUSH1 0x0 PUSH2 0x38B PUSH2 0x303 JUMP JUMPDEST SWAP1 POP PUSH2 0x397 DUP3 DUP3 PUSH2 0x350 JUMP JUMPDEST SWAP2 SWAP1 POP JUMP JUMPDEST PUSH1 0x0 PUSH8 0xFFFFFFFFFFFFFFFF DUP3 GT ISZERO PUSH2 0x3B7 JUMPI PUSH2 0x3B6 PUSH2 0x321 JUMP JUMPDEST JUMPDEST PUSH2 0x3C0 DUP3 PUSH2 0x23B JUMP JUMPDEST SWAP1 POP PUSH1 0x20 DUP2 ADD SWAP1 POP SWAP2 SWAP1 POP JUMP JUMPDEST DUP3 DUP2 DUP4 CALLDATACOPY PUSH1 0x0 DUP4 DUP4 ADD MSTORE POP POP POP JUMP JUMPDEST PUSH1 0x0 PUSH2 0x3EF PUSH2 0x3EA DUP5 PUSH2 0x39C JUMP JUMPDEST PUSH2 0x381 JUMP JUMPDEST SWAP1 POP DUP3 DUP2 MSTORE PUSH1 0x20 DUP2 ADD DUP5 DUP5 DUP5 ADD GT ISZERO PUSH2 0x40B JUMPI PUSH2 0x40A PUSH2 0x31C JUMP JUMPDEST JUMPDEST PUSH2 0x416 DUP5 DUP3 DUP6 PUSH2 0x3CD JUMP JUMPDEST POP SWAP4 SWAP3 POP POP POP JUMP JUMPDEST PUSH1 0x0 DUP3 PUSH1 0x1F DUP4 ADD SLT PUSH2 0x433 JUMPI PUSH2 0x432 PUSH2 0x317 JUMP JUMPDEST JUMPDEST DUP2 CALLDATALOAD PUSH2 0x443 DUP5 DUP3 PUSH1 0x20 DUP7 ADD PUSH2 0x3DC JUMP JUMPDEST SWAP2 POP POP SWAP3 SWAP2 POP POP JUMP JUMPDEST PUSH1 0x0 PUSH1 0x20 DUP3 DUP5 SUB SLT ISZERO PUSH2 0x462 JUMPI PUSH2 0x461 PUSH2 0x30D JUMP JUMPDEST JUMPDEST PUSH1 0x0 DUP3 ADD CALLDATALOAD PUSH8 0xFFFFFFFFFFFFFFFF DUP2 GT ISZERO PUSH2 0x480 JUMPI PUSH2 0x47F PUSH2 0x312 JUMP JUMPDEST JUMPDEST PUSH2 0x48C DUP5 DUP3 DUP6 ADD PUSH2 0x41E JUMP JUMPDEST SWAP2 POP POP SWAP3 SWAP2 POP POP JUMP JUMPDEST PUSH32 0x4E487B7100000000000000000000000000000000000000000000000000000000 PUSH1 0x0 MSTORE PUSH1 0x22 PUSH1 0x4 MSTORE PUSH1 0x24 PUSH1 0x0 REVERT JUMPDEST PUSH1 0x0 PUSH1 0x2 DUP3 DIV SWAP1 POP PUSH1 0x1 DUP3 AND DUP1 PUSH2 0x4DC JUMPI PUSH1 0x7F DUP3 AND SWAP2 POP JUMPDEST PUSH1 0x20 DUP3 LT DUP2 SUB PUSH2 0x4EF JUMPI PUSH2 0x4EE PUSH2 0x495 JUMP JUMPDEST JUMPDEST POP SWAP2 SWAP1 POP JUMP JUMPDEST PUSH32 0x4F6E6C79204F776E65722063616E2063616C6C20746869732066756E6374696F PUSH1 0x0 DUP3 ADD MSTORE PUSH32 0x6E00000000000000000000000000000000000000000000000000000000000000 PUSH1 0x20 DUP3 ADD MSTORE POP JUMP JUMPDEST PUSH1 0x0 PUSH2 0x551 PUSH1 0x21 DUP4 PUSH2 0x200 JUMP JUMPDEST SWAP2 POP PUSH2 0x55C DUP3 PUSH2 0x4F5 JUMP JUMPDEST PUSH1 0x40 DUP3 ADD SWAP1 POP SWAP2 SWAP1 POP JUMP JUMPDEST PUSH1 0x0 PUSH1 0x20 DUP3 ADD SWAP1 POP DUP2 DUP2 SUB PUSH1 0x0 DUP4 ADD MSTORE PUSH2 0x580 DUP2 PUSH2 0x544 JUMP JUMPDEST SWAP1 POP SWAP2 SWAP1 POP JUMP JUMPDEST PUSH1 0x0 DUP2 SWAP1 POP DUP2 PUSH1 0x0 MSTORE PUSH1 0x20 PUSH1 0x0 KECCAK256 SWAP1 POP SWAP2 SWAP1 POP JUMP JUMPDEST PUSH1 0x0 PUSH1 0x20 PUSH1 0x1F DUP4 ADD DIV SWAP1 POP SWAP2 SWAP1 POP JUMP JUMPDEST PUSH1 0x0 DUP3 DUP3 SHL SWAP1 POP SWAP3 SWAP2 POP POP JUMP JUMPDEST PUSH1 0x0 PUSH1 0x8 DUP4 MUL PUSH2 0x5E9 PUSH32 0xFFFFFFFFFFFFFFFFFFFFFFFFFFFFFFFFFFFFFFFFFFFFFFFFFFFFFFFFFFFFFFFF DUP3 PUSH2 0x5AC JUMP JUMPDEST PUSH2 0x5F3 DUP7 DUP4 PUSH2 0x5AC JUMP JUMPDEST SWAP6 POP DUP1 NOT DUP5 AND SWAP4 POP DUP1 DUP7 AND DUP5 OR SWAP3 POP POP POP SWAP4 SWAP3 POP POP POP JUMP JUMPDEST PUSH1 0x0 DUP2 SWAP1 POP SWAP2 SWAP1 POP JUMP JUMPDEST PUSH1 0x0 DUP2 SWAP1 POP SWAP2 SWAP1 POP JUMP JUMPDEST PUSH1 0x0 PUSH2 0x63A PUSH2 0x635 PUSH2 0x630 DUP5 PUSH2 0x60B JUMP JUMPDEST PUSH2 0x615 JUMP JUMPDEST PUSH2 0x60B JUMP JUMPDEST SWAP1 POP SWAP2 SWAP1 POP JUMP JUMPDEST PUSH1 0x0 DUP2 SWAP1 POP SWAP2 SWAP1 POP JUMP JUMPDEST PUSH2 0x654 DUP4 PUSH2 0x61F JUMP JUMPDEST PUSH2 0x668 PUSH2 0x660 DUP3 PUSH2 0x641 JUMP JUMPDEST DUP5 DUP5 SLOAD PUSH2 0x5B9 JUMP JUMPDEST DUP3 SSTORE POP POP POP POP JUMP JUMPDEST PUSH1 0x0 SWAP1 JUMP JUMPDEST PUSH2 0x67D PUSH2 0x670 JUMP JUMPDEST PUSH2 0x688 DUP2 DUP5 DUP5 PUSH2 0x64B JUMP JUMPDEST POP POP POP JUMP JUMPDEST JUMPDEST DUP2 DUP2 LT ISZERO PUSH2 0x6AC JUMPI PUSH2 0x6A1 PUSH1 0x0 DUP3 PUSH2 0x675 JUMP JUMPDEST PUSH1 0x1 DUP2 ADD SWAP1 POP PUSH2 0x68E JUMP JUMPDEST POP POP JUMP JUMPDEST PUSH1 0x1F DUP3 GT ISZERO PUSH2 0x6F1 JUMPI PUSH2 0x6C2 DUP2 PUSH2 0x587 JUMP JUMPDEST PUSH2 0x6CB DUP5 PUSH2 0x59C JUMP JUMPDEST DUP2 ADD PUSH1 0x20 DUP6 LT ISZERO PUSH2 0x6DA JUMPI DUP2 SWAP1 POP JUMPDEST PUSH2 0x6EE PUSH2 0x6E6 DUP6 PUSH2 0x59C JUMP JUMPDEST DUP4 ADD DUP3 PUSH2 0x68D JUMP JUMPDEST POP POP JUMPDEST POP POP POP JUMP JUMPDEST PUSH1 0x0 DUP3 DUP3 SHR SWAP1 POP SWAP3 SWAP2 POP POP JUMP JUMPDEST PUSH1 0x0 PUSH2 0x714 PUSH1 0x0 NOT DUP5 PUSH1 0x8 MUL PUSH2 0x6F6 JUMP JUMPDEST NOT DUP1 DUP4 AND SWAP2 POP POP SWAP3 SWAP2 POP POP JUMP JUMPDEST PUSH1 0x0 PUSH2 0x72D DUP4 DUP4 PUSH2 0x703 JUMP JUMPDEST SWAP2 POP DUP3 PUSH1 0x2 MUL DUP3 OR SWAP1 POP SWAP3 SWAP2 POP POP JUMP JUMPDEST PUSH2 0x746 DUP3 PUSH2 0x1F5 JUMP JUMPDEST PUSH8 0xFFFFFFFFFFFFFFFF DUP2 GT ISZERO PUSH2 0x75F JUMPI PUSH2 0x75E PUSH2 0x321 JUMP JUMPDEST JUMPDEST PUSH2 0x769 DUP3 SLOAD PUSH2 0x4C4 JUMP JUMPDEST PUSH2 0x774 DUP3 DUP3 DUP6 PUSH2 0x6B0 JUMP JUMPDEST PUSH1 0x0 PUSH1 0x20 SWAP1 POP PUSH1 0x1F DUP4 GT PUSH1 0x1 DUP2 EQ PUSH2 0x7A7 JUMPI PUSH1 0x0 DUP5 ISZERO PUSH2 0x795 JUMPI DUP3 DUP8 ADD MLOAD SWAP1 POP JUMPDEST PUSH2 0x79F DUP6 DUP3 PUSH2 0x721 JUMP JUMPDEST DUP7 SSTORE POP PUSH2 0x807 JUMP JUMPDEST PUSH1 0x1F NOT DUP5 AND PUSH2 0x7B5 DUP7 PUSH2 0x587 JUMP JUMPDEST PUSH1 0x0 JUMPDEST DUP3 DUP2 LT ISZERO PUSH2 0x7DD JUMPI DUP5 DUP10 ADD MLOAD DUP3 SSTORE PUSH1 0x1 DUP3 ADD SWAP2 POP PUSH1 0x20 DUP6 ADD SWAP5 POP PUSH1 0x20 DUP2 ADD SWAP1 POP PUSH2 0x7B8 JUMP JUMPDEST DUP7 DUP4 LT ISZERO PUSH2 0x7FA JUMPI DUP5 DUP10 ADD MLOAD PUSH2 0x7F6 PUSH1 0x1F DUP10 AND DUP3 PUSH2 0x703 JUMP JUMPDEST DUP4 SSTORE POP JUMPDEST PUSH1 0x1 PUSH1 0x2 DUP9 MUL ADD DUP9 SSTORE POP POP POP JUMPDEST POP POP POP POP POP POP JUMP INVALID LOG2 PUSH5 0x6970667358 0x22 SLT KECCAK256 BLOCKHASH CALLDATALOAD SWAP8 PUSH6 0x47F2F1601BC5 0xD2 0x2A EXTCODEHASH SWAP2 PUSH8 0x6BBDF7F246E10BC8 0xF7 0xC3 ADDRESS 0xEA 0xE6 EXTCODECOPY CODECOPY 0xBE 0xBD PUSH5 0x736F6C6343 STOP ADDMOD SLT STOP CALLER "
				},
				"gasEstimates": {
					"creation": {
						"codeDepositCost": "423400",
						"executionCost": "24727",
						"totalCost": "448127"
					},
					"external": {
						"owner()": "2514",
						"setValue(string)": "infinite",
						"value()": "infinite"
					}
				},
				"methodIdentifiers": {
					"owner()": "8da5cb5b",
					"setValue(string)": "93a09352",
					"value()": "3fa4f245"
				}
			},
			"storageLayout": {
				"storage": [
					{
						"astId": 3,
						"contract": "Blockchain Task-1/2input_String.sol:SetValue",
						"label": "value",
						"offset": 0,
						"slot": "0",
						"type": "t_string_storage"
					},
					{
						"astId": 5,
						"contract": "Blockchain Task-1/2input_String.sol:SetValue",
						"label": "owner",
						"offset": 0,
						"slot": "1",
						"type": "t_address"
					}
				],
				"types": {
					"t_address": {
						"encoding": "inplace",
						"label": "address",
						"numberOfBytes": "20"
					},
					"t_string_storage": {
						"encoding": "bytes",
						"label": "string",
						"numberOfBytes": "32"
					}
				}
			},
			"userdoc": {
				"kind": "user",
				"methods": {},
				"version": 1
			}
		}
	}
}