{
	"StakeAny_GetRewardETH/staking_Reward.sol": {
		"StakingRewards": {
			"abi": [
				{
					"inputs": [
						{
							"internalType": "address",
							"name": "_stakingToken",
							"type": "address"
						}
					],
					"stateMutability": "nonpayable",
					"type": "constructor"
				},
				{
					"inputs": [
						{
							"internalType": "address",
							"name": "",
							"type": "address"
						}
					],
					"name": "balanceOf",
					"outputs": [
						{
							"internalType": "uint256",
							"name": "",
							"type": "uint256"
						}
					],
					"stateMutability": "view",
					"type": "function"
				},
				{
					"inputs": [],
					"name": "duration",
					"outputs": [
						{
							"internalType": "uint256",
							"name": "",
							"type": "uint256"
						}
					],
					"stateMutability": "view",
					"type": "function"
				},
				{
					"inputs": [
						{
							"internalType": "address",
							"name": "_account",
							"type": "address"
						}
					],
					"name": "earned",
					"outputs": [
						{
							"internalType": "uint256",
							"name": "",
							"type": "uint256"
						}
					],
					"stateMutability": "view",
					"type": "function"
				},
				{
					"inputs": [],
					"name": "finishAt",
					"outputs": [
						{
							"internalType": "uint256",
							"name": "",
							"type": "uint256"
						}
					],
					"stateMutability": "view",
					"type": "function"
				},
				{
					"inputs": [],
					"name": "getReward",
					"outputs": [],
					"stateMutability": "nonpayable",
					"type": "function"
				},
				{
					"inputs": [],
					"name": "lastTimeRewardApplicable",
					"outputs": [
						{
							"internalType": "uint256",
							"name": "",
							"type": "uint256"
						}
					],
					"stateMutability": "view",
					"type": "function"
				},
				{
					"inputs": [
						{
							"internalType": "uint256",
							"name": "_amount",
							"type": "uint256"
						}
					],
					"name": "notifyRewardAmount",
					"outputs": [],
					"stateMutability": "nonpayable",
					"type": "function"
				},
				{
					"inputs": [],
					"name": "owner",
					"outputs": [
						{
							"internalType": "address",
							"name": "",
							"type": "address"
						}
					],
					"stateMutability": "view",
					"type": "function"
				},
				{
					"inputs": [
						{
							"internalType": "address",
							"name": "",
							"type": "address"
						}
					],
					"name": "reward",
					"outputs": [
						{
							"internalType": "uint256",
							"name": "",
							"type": "uint256"
						}
					],
					"stateMutability": "view",
					"type": "function"
				},
				{
					"inputs": [],
					"name": "rewardPerToken",
					"outputs": [
						{
							"internalType": "uint256",
							"name": "",
							"type": "uint256"
						}
					],
					"stateMutability": "view",
					"type": "function"
				},
				{
					"inputs": [],
					"name": "rewardPerTokenStored",
					"outputs": [
						{
							"internalType": "uint256",
							"name": "",
							"type": "uint256"
						}
					],
					"stateMutability": "view",
					"type": "function"
				},
				{
					"inputs": [],
					"name": "rewardRate",
					"outputs": [
						{
							"internalType": "uint256",
							"name": "",
							"type": "uint256"
						}
					],
					"stateMutability": "view",
					"type": "function"
				},
				{
					"inputs": [
						{
							"internalType": "uint256",
							"name": "_duration",
							"type": "uint256"
						}
					],
					"name": "setRewardDuration",
					"outputs": [],
					"stateMutability": "nonpayable",
					"type": "function"
				},
				{
					"inputs": [
						{
							"internalType": "uint256",
							"name": "_amount",
							"type": "uint256"
						}
					],
					"name": "stake",
					"outputs": [],
					"stateMutability": "nonpayable",
					"type": "function"
				},
				{
					"inputs": [],
					"name": "stakingToken",
					"outputs": [
						{
							"internalType": "contract IERC20",
							"name": "",
							"type": "address"
						}
					],
					"stateMutability": "view",
					"type": "function"
				},
				{
					"inputs": [],
					"name": "totalSupply",
					"outputs": [
						{
							"internalType": "uint256",
							"name": "",
							"type": "uint256"
						}
					],
					"stateMutability": "view",
					"type": "function"
				},
				{
					"inputs": [],
					"name": "updatedAt",
					"outputs": [
						{
							"internalType": "uint256",
							"name": "",
							"type": "uint256"
						}
					],
					"stateMutability": "view",
					"type": "function"
				},
				{
					"inputs": [
						{
							"internalType": "address",
							"name": "",
							"type": "address"
						}
					],
					"name": "userRewardPerTokenPaid",
					"outputs": [
						{
							"internalType": "uint256",
							"name": "",
							"type": "uint256"
						}
					],
					"stateMutability": "view",
					"type": "function"
				},
				{
					"inputs": [
						{
							"internalType": "uint256",
							"name": "_amount",
							"type": "uint256"
						}
					],
					"name": "withdraw",
					"outputs": [],
					"stateMutability": "nonpayable",
					"type": "function"
				}
			],
			"devdoc": {
				"kind": "dev",
				"methods": {},
				"version": 1
			},
			"evm": {
				"assembly": "    /* \"StakeAny_GetRewardETH/staking_Reward.sol\":719:5003  contract StakingRewards... */\n  mstore(0x40, 0xa0)\n    /* \"StakeAny_GetRewardETH/staking_Reward.sol\":1212:1384  constructor(address _stakingToken)... */\n  callvalue\n  dup1\n  iszero\n  tag_1\n  jumpi\n  0x00\n  dup1\n  revert\ntag_1:\n  pop\n  mload(0x40)\n  sub(codesize, bytecodeSize)\n  dup1\n  bytecodeSize\n  dup4\n  codecopy\n  dup2\n  dup2\n  add\n  0x40\n  mstore\n  dup2\n  add\n  swap1\n  tag_2\n  swap2\n  swap1\n  tag_3\n  jump\t// in\ntag_2:\n    /* \"StakeAny_GetRewardETH/staking_Reward.sol\":1269:1279  msg.sender */\n  caller\n    /* \"StakeAny_GetRewardETH/staking_Reward.sol\":1263:1268  owner */\n  0x00\n  dup1\n    /* \"StakeAny_GetRewardETH/staking_Reward.sol\":1263:1279  owner=msg.sender */\n  0x0100\n  exp\n  dup2\n  sload\n  dup2\n  0xffffffffffffffffffffffffffffffffffffffff\n  mul\n  not\n  and\n  swap1\n  dup4\n  0xffffffffffffffffffffffffffffffffffffffff\n  and\n  mul\n  or\n  swap1\n  sstore\n  pop\n    /* \"StakeAny_GetRewardETH/staking_Reward.sol\":1312:1325  _stakingToken */\n  dup1\n    /* \"StakeAny_GetRewardETH/staking_Reward.sol\":1290:1326  stakingToken = IERC20(_stakingToken) */\n  0xffffffffffffffffffffffffffffffffffffffff\n  and\n  0x80\n  dup2\n  0xffffffffffffffffffffffffffffffffffffffff\n  and\n  dup2\n  mstore\n  pop\n  pop\n    /* \"StakeAny_GetRewardETH/staking_Reward.sol\":1212:1384  constructor(address _stakingToken)... */\n  pop\n    /* \"StakeAny_GetRewardETH/staking_Reward.sol\":719:5003  contract StakingRewards... */\n  jump(tag_6)\n    /* \"#utility.yul\":88:205   */\ntag_8:\n    /* \"#utility.yul\":197:198   */\n  0x00\n    /* \"#utility.yul\":194:195   */\n  dup1\n    /* \"#utility.yul\":187:199   */\n  revert\n    /* \"#utility.yul\":334:460   */\ntag_10:\n    /* \"#utility.yul\":371:378   */\n  0x00\n    /* \"#utility.yul\":411:453   */\n  0xffffffffffffffffffffffffffffffffffffffff\n    /* \"#utility.yul\":404:409   */\n  dup3\n    /* \"#utility.yul\":400:454   */\n  and\n    /* \"#utility.yul\":389:454   */\n  swap1\n  pop\n    /* \"#utility.yul\":334:460   */\n  swap2\n  swap1\n  pop\n  jump\t// out\n    /* \"#utility.yul\":466:562   */\ntag_11:\n    /* \"#utility.yul\":503:510   */\n  0x00\n    /* \"#utility.yul\":532:556   */\n  tag_20\n    /* \"#utility.yul\":550:555   */\n  dup3\n    /* \"#utility.yul\":532:556   */\n  tag_10\n  jump\t// in\ntag_20:\n    /* \"#utility.yul\":521:556   */\n  swap1\n  pop\n    /* \"#utility.yul\":466:562   */\n  swap2\n  swap1\n  pop\n  jump\t// out\n    /* \"#utility.yul\":568:690   */\ntag_12:\n    /* \"#utility.yul\":641:665   */\n  tag_22\n    /* \"#utility.yul\":659:664   */\n  dup2\n    /* \"#utility.yul\":641:665   */\n  tag_11\n  jump\t// in\ntag_22:\n    /* \"#utility.yul\":634:639   */\n  dup2\n    /* \"#utility.yul\":631:666   */\n  eq\n    /* \"#utility.yul\":621:684   */\n  tag_23\n  jumpi\n    /* \"#utility.yul\":680:681   */\n  0x00\n    /* \"#utility.yul\":677:678   */\n  dup1\n    /* \"#utility.yul\":670:682   */\n  revert\n    /* \"#utility.yul\":621:684   */\ntag_23:\n    /* \"#utility.yul\":568:690   */\n  pop\n  jump\t// out\n    /* \"#utility.yul\":696:839   */\ntag_13:\n    /* \"#utility.yul\":753:758   */\n  0x00\n    /* \"#utility.yul\":784:790   */\n  dup2\n    /* \"#utility.yul\":778:791   */\n  mload\n    /* \"#utility.yul\":769:791   */\n  swap1\n  pop\n    /* \"#utility.yul\":800:833   */\n  tag_25\n    /* \"#utility.yul\":827:832   */\n  dup2\n    /* \"#utility.yul\":800:833   */\n  tag_12\n  jump\t// in\ntag_25:\n    /* \"#utility.yul\":696:839   */\n  swap3\n  swap2\n  pop\n  pop\n  jump\t// out\n    /* \"#utility.yul\":845:1196   */\ntag_3:\n    /* \"#utility.yul\":915:921   */\n  0x00\n    /* \"#utility.yul\":964:966   */\n  0x20\n    /* \"#utility.yul\":952:961   */\n  dup3\n    /* \"#utility.yul\":943:950   */\n  dup5\n    /* \"#utility.yul\":939:962   */\n  sub\n    /* \"#utility.yul\":935:967   */\n  slt\n    /* \"#utility.yul\":932:1051   */\n  iszero\n  tag_27\n  jumpi\n    /* \"#utility.yul\":970:1049   */\n  tag_28\n  tag_8\n  jump\t// in\ntag_28:\n    /* \"#utility.yul\":932:1051   */\ntag_27:\n    /* \"#utility.yul\":1090:1091   */\n  0x00\n    /* \"#utility.yul\":1115:1179   */\n  tag_29\n    /* \"#utility.yul\":1171:1178   */\n  dup5\n    /* \"#utility.yul\":1162:1168   */\n  dup3\n    /* \"#utility.yul\":1151:1160   */\n  dup6\n    /* \"#utility.yul\":1147:1169   */\n  add\n    /* \"#utility.yul\":1115:1179   */\n  tag_13\n  jump\t// in\ntag_29:\n    /* \"#utility.yul\":1105:1179   */\n  swap2\n  pop\n    /* \"#utility.yul\":1061:1189   */\n  pop\n    /* \"#utility.yul\":845:1196   */\n  swap3\n  swap2\n  pop\n  pop\n  jump\t// out\n    /* \"StakeAny_GetRewardETH/staking_Reward.sol\":719:5003  contract StakingRewards... */\ntag_6:\n  mload(0x80)\n  codecopy(0x00, dataOffset(sub_0), dataSize(sub_0))\n  0x00\n  assignImmutable(\"0x2cc0d3dcb20652cd8f106aee76b6a7391771a130885634c0eb2bbe3cde796691\")\n  return(0x00, dataSize(sub_0))\nstop\n\nsub_0: assembly {\n        /* \"StakeAny_GetRewardETH/staking_Reward.sol\":719:5003  contract StakingRewards... */\n      mstore(0x40, 0x80)\n      callvalue\n      dup1\n      iszero\n      tag_1\n      jumpi\n      0x00\n      dup1\n      revert\n    tag_1:\n      pop\n      jumpi(tag_2, lt(calldatasize, 0x04))\n      shr(0xe0, calldataload(0x00))\n      dup1\n      0x72f702f3\n      gt\n      tag_22\n      jumpi\n      dup1\n      0x8da5cb5b\n      gt\n      tag_23\n      jumpi\n      dup1\n      0x8da5cb5b\n      eq\n      tag_17\n      jumpi\n      dup1\n      0xa694fc3a\n      eq\n      tag_18\n      jumpi\n      dup1\n      0xc0ed00c9\n      eq\n      tag_19\n      jumpi\n      dup1\n      0xcd3daf9d\n      eq\n      tag_20\n      jumpi\n      dup1\n      0xdf136d65\n      eq\n      tag_21\n      jumpi\n      jump(tag_2)\n    tag_23:\n      dup1\n      0x72f702f3\n      eq\n      tag_12\n      jumpi\n      dup1\n      0x7519ab50\n      eq\n      tag_13\n      jumpi\n      dup1\n      0x7b0a47ee\n      eq\n      tag_14\n      jumpi\n      dup1\n      0x80faa57d\n      eq\n      tag_15\n      jumpi\n      dup1\n      0x8b876347\n      eq\n      tag_16\n      jumpi\n      jump(tag_2)\n    tag_22:\n      dup1\n      0x3c6b16ab\n      gt\n      tag_24\n      jumpi\n      dup1\n      0x3c6b16ab\n      eq\n      tag_7\n      jumpi\n      dup1\n      0x3d18b912\n      eq\n      tag_8\n      jumpi\n      dup1\n      0x6353586b\n      eq\n      tag_9\n      jumpi\n      dup1\n      0x67d3b488\n      eq\n      tag_10\n      jumpi\n      dup1\n      0x70a08231\n      eq\n      tag_11\n      jumpi\n      jump(tag_2)\n    tag_24:\n      dup1\n      0x8cc262\n      eq\n      tag_3\n      jumpi\n      dup1\n      0x0fb5a6b4\n      eq\n      tag_4\n      jumpi\n      dup1\n      0x18160ddd\n      eq\n      tag_5\n      jumpi\n      dup1\n      0x2e1a7d4d\n      eq\n      tag_6\n      jumpi\n    tag_2:\n      0x00\n      dup1\n      revert\n        /* \"StakeAny_GetRewardETH/staking_Reward.sol\":4423:4618  function earned(address _account) public view returns(uint)... */\n    tag_3:\n      tag_25\n      0x04\n      dup1\n      calldatasize\n      sub\n      dup2\n      add\n      swap1\n      tag_26\n      swap2\n      swap1\n      tag_27\n      jump\t// in\n    tag_26:\n      tag_28\n      jump\t// in\n    tag_25:\n      mload(0x40)\n      tag_29\n      swap2\n      swap1\n      tag_30\n      jump\t// in\n    tag_29:\n      mload(0x40)\n      dup1\n      swap2\n      sub\n      swap1\n      return\n        /* \"StakeAny_GetRewardETH/staking_Reward.sol\":871:891  uint public duration */\n    tag_4:\n      tag_31\n      tag_32\n      jump\t// in\n    tag_31:\n      mload(0x40)\n      tag_33\n      swap2\n      swap1\n      tag_30\n      jump\t// in\n    tag_33:\n      mload(0x40)\n      dup1\n      swap2\n      sub\n      swap1\n      return\n        /* \"StakeAny_GetRewardETH/staking_Reward.sol\":1132:1155  uint public totalSupply */\n    tag_5:\n      tag_34\n      tag_35\n      jump\t// in\n    tag_34:\n      mload(0x40)\n      tag_36\n      swap2\n      swap1\n      tag_30\n      jump\t// in\n    tag_36:\n      mload(0x40)\n      dup1\n      swap2\n      sub\n      swap1\n      return\n        /* \"StakeAny_GetRewardETH/staking_Reward.sol\":3645:3899  function withdraw(uint _amount) external updateReward(msg.sender) ... */\n    tag_6:\n      tag_37\n      0x04\n      dup1\n      calldatasize\n      sub\n      dup2\n      add\n      swap1\n      tag_38\n      swap2\n      swap1\n      tag_39\n      jump\t// in\n    tag_38:\n      tag_40\n      jump\t// in\n    tag_37:\n      stop\n        /* \"StakeAny_GetRewardETH/staking_Reward.sol\":2049:2675  function notifyRewardAmount(uint _amount) external onlyOwner updateReward(address(0))... */\n    tag_7:\n      tag_41\n      0x04\n      dup1\n      calldatasize\n      sub\n      dup2\n      add\n      swap1\n      tag_42\n      swap2\n      swap1\n      tag_39\n      jump\t// in\n    tag_42:\n      tag_43\n      jump\t// in\n    tag_41:\n      stop\n        /* \"StakeAny_GetRewardETH/staking_Reward.sol\":4626:5000  function getReward() external updateReward(msg.sender)... */\n    tag_8:\n      tag_44\n      tag_45\n      jump\t// in\n    tag_44:\n      stop\n        /* \"StakeAny_GetRewardETH/staking_Reward.sol\":1084:1123  mapping(address => uint)  public reward */\n    tag_9:\n      tag_46\n      0x04\n      dup1\n      calldatasize\n      sub\n      dup2\n      add\n      swap1\n      tag_47\n      swap2\n      swap1\n      tag_27\n      jump\t// in\n    tag_47:\n      tag_48\n      jump\t// in\n    tag_46:\n      mload(0x40)\n      tag_49\n      swap2\n      swap1\n      tag_30\n      jump\t// in\n    tag_49:\n      mload(0x40)\n      dup1\n      swap2\n      sub\n      swap1\n      return\n        /* \"StakeAny_GetRewardETH/staking_Reward.sol\":898:918  uint public finishAt */\n    tag_10:\n      tag_50\n      tag_51\n      jump\t// in\n    tag_50:\n      mload(0x40)\n      tag_52\n      swap2\n      swap1\n      tag_30\n      jump\t// in\n    tag_52:\n      mload(0x40)\n      dup1\n      swap2\n      sub\n      swap1\n      return\n        /* \"StakeAny_GetRewardETH/staking_Reward.sol\":1162:1203  mapping(address => uint) public balanceOf */\n    tag_11:\n      tag_53\n      0x04\n      dup1\n      calldatasize\n      sub\n      dup2\n      add\n      swap1\n      tag_54\n      swap2\n      swap1\n      tag_27\n      jump\t// in\n    tag_54:\n      tag_55\n      jump\t// in\n    tag_53:\n      mload(0x40)\n      tag_56\n      swap2\n      swap1\n      tag_30\n      jump\t// in\n    tag_56:\n      mload(0x40)\n      dup1\n      swap2\n      sub\n      swap1\n      return\n        /* \"StakeAny_GetRewardETH/staking_Reward.sol\":751:787  IERC20 public immutable stakingToken */\n    tag_12:\n      tag_57\n      tag_58\n      jump\t// in\n    tag_57:\n      mload(0x40)\n      tag_59\n      swap2\n      swap1\n      tag_60\n      jump\t// in\n    tag_59:\n      mload(0x40)\n      dup1\n      swap2\n      sub\n      swap1\n      return\n        /* \"StakeAny_GetRewardETH/staking_Reward.sol\":925:946  uint public updatedAt */\n    tag_13:\n      tag_61\n      tag_62\n      jump\t// in\n    tag_61:\n      mload(0x40)\n      tag_63\n      swap2\n      swap1\n      tag_30\n      jump\t// in\n    tag_63:\n      mload(0x40)\n      dup1\n      swap2\n      sub\n      swap1\n      return\n        /* \"StakeAny_GetRewardETH/staking_Reward.sol\":953:975  uint public rewardRate */\n    tag_14:\n      tag_64\n      tag_65\n      jump\t// in\n    tag_64:\n      mload(0x40)\n      tag_66\n      swap2\n      swap1\n      tag_30\n      jump\t// in\n    tag_66:\n      mload(0x40)\n      dup1\n      swap2\n      sub\n      swap1\n      return\n        /* \"StakeAny_GetRewardETH/staking_Reward.sol\":3907:4027  function lastTimeRewardApplicable() public view returns (uint) {... */\n    tag_15:\n      tag_67\n      tag_68\n      jump\t// in\n    tag_67:\n      mload(0x40)\n      tag_69\n      swap2\n      swap1\n      tag_30\n      jump\t// in\n    tag_69:\n      mload(0x40)\n      dup1\n      swap2\n      sub\n      swap1\n      return\n        /* \"StakeAny_GetRewardETH/staking_Reward.sol\":1023:1077  mapping(address => uint) public userRewardPerTokenPaid */\n    tag_16:\n      tag_70\n      0x04\n      dup1\n      calldatasize\n      sub\n      dup2\n      add\n      swap1\n      tag_71\n      swap2\n      swap1\n      tag_27\n      jump\t// in\n    tag_71:\n      tag_72\n      jump\t// in\n    tag_70:\n      mload(0x40)\n      tag_73\n      swap2\n      swap1\n      tag_30\n      jump\t// in\n    tag_73:\n      mload(0x40)\n      dup1\n      swap2\n      sub\n      swap1\n      return\n        /* \"StakeAny_GetRewardETH/staking_Reward.sol\":842:862  address public owner */\n    tag_17:\n      tag_74\n      tag_75\n      jump\t// in\n    tag_74:\n      mload(0x40)\n      tag_76\n      swap2\n      swap1\n      tag_77\n      jump\t// in\n    tag_76:\n      mload(0x40)\n      dup1\n      swap2\n      sub\n      swap1\n      return\n        /* \"StakeAny_GetRewardETH/staking_Reward.sol\":3367:3637  function stake(uint _amount) external updateReward(msg.sender)... */\n    tag_18:\n      tag_78\n      0x04\n      dup1\n      calldatasize\n      sub\n      dup2\n      add\n      swap1\n      tag_79\n      swap2\n      swap1\n      tag_39\n      jump\t// in\n    tag_79:\n      tag_80\n      jump\t// in\n    tag_78:\n      stop\n        /* \"StakeAny_GetRewardETH/staking_Reward.sol\":1857:2041  function setRewardDuration(uint _duration) external onlyOwner... */\n    tag_19:\n      tag_81\n      0x04\n      dup1\n      calldatasize\n      sub\n      dup2\n      add\n      swap1\n      tag_82\n      swap2\n      swap1\n      tag_39\n      jump\t// in\n    tag_82:\n      tag_83\n      jump\t// in\n    tag_81:\n      stop\n        /* \"StakeAny_GetRewardETH/staking_Reward.sol\":4139:4415  function rewardPerToken() public view returns(uint)... */\n    tag_20:\n      tag_84\n      tag_85\n      jump\t// in\n    tag_84:\n      mload(0x40)\n      tag_86\n      swap2\n      swap1\n      tag_30\n      jump\t// in\n    tag_86:\n      mload(0x40)\n      dup1\n      swap2\n      sub\n      swap1\n      return\n        /* \"StakeAny_GetRewardETH/staking_Reward.sol\":982:1014  uint public rewardPerTokenStored */\n    tag_21:\n      tag_87\n      tag_88\n      jump\t// in\n    tag_87:\n      mload(0x40)\n      tag_89\n      swap2\n      swap1\n      tag_30\n      jump\t// in\n    tag_89:\n      mload(0x40)\n      dup1\n      swap2\n      sub\n      swap1\n      return\n        /* \"StakeAny_GetRewardETH/staking_Reward.sol\":4423:4618  function earned(address _account) public view returns(uint)... */\n    tag_28:\n        /* \"StakeAny_GetRewardETH/staking_Reward.sol\":4477:4481  uint */\n      0x00\n        /* \"StakeAny_GetRewardETH/staking_Reward.sol\":4594:4600  reward */\n      0x07\n        /* \"StakeAny_GetRewardETH/staking_Reward.sol\":4594:4610  reward[_account] */\n      0x00\n        /* \"StakeAny_GetRewardETH/staking_Reward.sol\":4601:4609  _account */\n      dup4\n        /* \"StakeAny_GetRewardETH/staking_Reward.sol\":4594:4610  reward[_account] */\n      0xffffffffffffffffffffffffffffffffffffffff\n      and\n      0xffffffffffffffffffffffffffffffffffffffff\n      and\n      dup2\n      mstore\n      0x20\n      add\n      swap1\n      dup2\n      mstore\n      0x20\n      add\n      0x00\n      keccak256\n      sload\n        /* \"StakeAny_GetRewardETH/staking_Reward.sol\":4587:4591  1e18 */\n      0x0de0b6b3a7640000\n        /* \"StakeAny_GetRewardETH/staking_Reward.sol\":4549:4571  userRewardPerTokenPaid */\n      0x06\n        /* \"StakeAny_GetRewardETH/staking_Reward.sol\":4549:4581  userRewardPerTokenPaid[_account] */\n      0x00\n        /* \"StakeAny_GetRewardETH/staking_Reward.sol\":4572:4580  _account */\n      dup6\n        /* \"StakeAny_GetRewardETH/staking_Reward.sol\":4549:4581  userRewardPerTokenPaid[_account] */\n      0xffffffffffffffffffffffffffffffffffffffff\n      and\n      0xffffffffffffffffffffffffffffffffffffffff\n      and\n      dup2\n      mstore\n      0x20\n      add\n      swap1\n      dup2\n      mstore\n      0x20\n      add\n      0x00\n      keccak256\n      sload\n        /* \"StakeAny_GetRewardETH/staking_Reward.sol\":4530:4546  rewardPerToken() */\n      tag_91\n        /* \"StakeAny_GetRewardETH/staking_Reward.sol\":4530:4544  rewardPerToken */\n      tag_85\n        /* \"StakeAny_GetRewardETH/staking_Reward.sol\":4530:4546  rewardPerToken() */\n      jump\t// in\n    tag_91:\n        /* \"StakeAny_GetRewardETH/staking_Reward.sol\":4530:4581  rewardPerToken() - userRewardPerTokenPaid[_account] */\n      tag_92\n      swap2\n      swap1\n      tag_93\n      jump\t// in\n    tag_92:\n        /* \"StakeAny_GetRewardETH/staking_Reward.sol\":4507:4516  balanceOf */\n      0x09\n        /* \"StakeAny_GetRewardETH/staking_Reward.sol\":4507:4526  balanceOf[_account] */\n      0x00\n        /* \"StakeAny_GetRewardETH/staking_Reward.sol\":4517:4525  _account */\n      dup7\n        /* \"StakeAny_GetRewardETH/staking_Reward.sol\":4507:4526  balanceOf[_account] */\n      0xffffffffffffffffffffffffffffffffffffffff\n      and\n      0xffffffffffffffffffffffffffffffffffffffff\n      and\n      dup2\n      mstore\n      0x20\n      add\n      swap1\n      dup2\n      mstore\n      0x20\n      add\n      0x00\n      keccak256\n      sload\n        /* \"StakeAny_GetRewardETH/staking_Reward.sol\":4507:4583  balanceOf[_account] * (rewardPerToken() - userRewardPerTokenPaid[_account] ) */\n      tag_94\n      swap2\n      swap1\n      tag_95\n      jump\t// in\n    tag_94:\n        /* \"StakeAny_GetRewardETH/staking_Reward.sol\":4506:4591  (balanceOf[_account] * (rewardPerToken() - userRewardPerTokenPaid[_account] )) / 1e18 */\n      tag_96\n      swap2\n      swap1\n      tag_97\n      jump\t// in\n    tag_96:\n        /* \"StakeAny_GetRewardETH/staking_Reward.sol\":4506:4610  (balanceOf[_account] * (rewardPerToken() - userRewardPerTokenPaid[_account] )) / 1e18 + reward[_account] */\n      tag_98\n      swap2\n      swap1\n      tag_99\n      jump\t// in\n    tag_98:\n        /* \"StakeAny_GetRewardETH/staking_Reward.sol\":4499:4610  return (balanceOf[_account] * (rewardPerToken() - userRewardPerTokenPaid[_account] )) / 1e18 + reward[_account] */\n      swap1\n      pop\n        /* \"StakeAny_GetRewardETH/staking_Reward.sol\":4423:4618  function earned(address _account) public view returns(uint)... */\n      swap2\n      swap1\n      pop\n      jump\t// out\n        /* \"StakeAny_GetRewardETH/staking_Reward.sol\":871:891  uint public duration */\n    tag_32:\n      sload(0x01)\n      dup2\n      jump\t// out\n        /* \"StakeAny_GetRewardETH/staking_Reward.sol\":1132:1155  uint public totalSupply */\n    tag_35:\n      sload(0x08)\n      dup2\n      jump\t// out\n        /* \"StakeAny_GetRewardETH/staking_Reward.sol\":3645:3899  function withdraw(uint _amount) external updateReward(msg.sender) ... */\n    tag_40:\n        /* \"StakeAny_GetRewardETH/staking_Reward.sol\":3699:3709  msg.sender */\n      caller\n        /* \"StakeAny_GetRewardETH/staking_Reward.sol\":1583:1599  rewardPerToken() */\n      tag_101\n        /* \"StakeAny_GetRewardETH/staking_Reward.sol\":1583:1597  rewardPerToken */\n      tag_85\n        /* \"StakeAny_GetRewardETH/staking_Reward.sol\":1583:1599  rewardPerToken() */\n      jump\t// in\n    tag_101:\n        /* \"StakeAny_GetRewardETH/staking_Reward.sol\":1560:1580  rewardPerTokenStored */\n      0x05\n        /* \"StakeAny_GetRewardETH/staking_Reward.sol\":1560:1599  rewardPerTokenStored = rewardPerToken() */\n      dup2\n      swap1\n      sstore\n      pop\n        /* \"StakeAny_GetRewardETH/staking_Reward.sol\":1622:1648  lastTimeRewardApplicable() */\n      tag_102\n        /* \"StakeAny_GetRewardETH/staking_Reward.sol\":1622:1646  lastTimeRewardApplicable */\n      tag_68\n        /* \"StakeAny_GetRewardETH/staking_Reward.sol\":1622:1648  lastTimeRewardApplicable() */\n      jump\t// in\n    tag_102:\n        /* \"StakeAny_GetRewardETH/staking_Reward.sol\":1610:1619  updatedAt */\n      0x03\n        /* \"StakeAny_GetRewardETH/staking_Reward.sol\":1610:1648  updatedAt = lastTimeRewardApplicable() */\n      dup2\n      swap1\n      sstore\n      pop\n        /* \"StakeAny_GetRewardETH/staking_Reward.sol\":1685:1686  0 */\n      0x00\n        /* \"StakeAny_GetRewardETH/staking_Reward.sol\":1665:1687  _account != address(0) */\n      0xffffffffffffffffffffffffffffffffffffffff\n      and\n        /* \"StakeAny_GetRewardETH/staking_Reward.sol\":1665:1673  _account */\n      dup2\n        /* \"StakeAny_GetRewardETH/staking_Reward.sol\":1665:1687  _account != address(0) */\n      0xffffffffffffffffffffffffffffffffffffffff\n      and\n      eq\n        /* \"StakeAny_GetRewardETH/staking_Reward.sol\":1661:1830  if (_account != address(0))... */\n      tag_103\n      jumpi\n        /* \"StakeAny_GetRewardETH/staking_Reward.sol\":1732:1748  earned(_account) */\n      tag_104\n        /* \"StakeAny_GetRewardETH/staking_Reward.sol\":1739:1747  _account */\n      dup2\n        /* \"StakeAny_GetRewardETH/staking_Reward.sol\":1732:1738  earned */\n      tag_28\n        /* \"StakeAny_GetRewardETH/staking_Reward.sol\":1732:1748  earned(_account) */\n      jump\t// in\n    tag_104:\n        /* \"StakeAny_GetRewardETH/staking_Reward.sol\":1713:1719  reward */\n      0x07\n        /* \"StakeAny_GetRewardETH/staking_Reward.sol\":1713:1729  reward[_account] */\n      0x00\n        /* \"StakeAny_GetRewardETH/staking_Reward.sol\":1720:1728  _account */\n      dup4\n        /* \"StakeAny_GetRewardETH/staking_Reward.sol\":1713:1729  reward[_account] */\n      0xffffffffffffffffffffffffffffffffffffffff\n      and\n      0xffffffffffffffffffffffffffffffffffffffff\n      and\n      dup2\n      mstore\n      0x20\n      add\n      swap1\n      dup2\n      mstore\n      0x20\n      add\n      0x00\n      keccak256\n        /* \"StakeAny_GetRewardETH/staking_Reward.sol\":1713:1748  reward[_account] = earned(_account) */\n      dup2\n      swap1\n      sstore\n      pop\n        /* \"StakeAny_GetRewardETH/staking_Reward.sol\":1798:1818  rewardPerTokenStored */\n      sload(0x05)\n        /* \"StakeAny_GetRewardETH/staking_Reward.sol\":1763:1785  userRewardPerTokenPaid */\n      0x06\n        /* \"StakeAny_GetRewardETH/staking_Reward.sol\":1763:1795  userRewardPerTokenPaid[_account] */\n      0x00\n        /* \"StakeAny_GetRewardETH/staking_Reward.sol\":1786:1794  _account */\n      dup4\n        /* \"StakeAny_GetRewardETH/staking_Reward.sol\":1763:1795  userRewardPerTokenPaid[_account] */\n      0xffffffffffffffffffffffffffffffffffffffff\n      and\n      0xffffffffffffffffffffffffffffffffffffffff\n      and\n      dup2\n      mstore\n      0x20\n      add\n      swap1\n      dup2\n      mstore\n      0x20\n      add\n      0x00\n      keccak256\n        /* \"StakeAny_GetRewardETH/staking_Reward.sol\":1763:1818  userRewardPerTokenPaid[_account] = rewardPerTokenStored */\n      dup2\n      swap1\n      sstore\n      pop\n        /* \"StakeAny_GetRewardETH/staking_Reward.sol\":1661:1830  if (_account != address(0))... */\n    tag_103:\n        /* \"StakeAny_GetRewardETH/staking_Reward.sol\":3746:3747  0 */\n      0x00\n        /* \"StakeAny_GetRewardETH/staking_Reward.sol\":3736:3743  _amount */\n      dup3\n        /* \"StakeAny_GetRewardETH/staking_Reward.sol\":3736:3747  _amount > 0 */\n      gt\n        /* \"StakeAny_GetRewardETH/staking_Reward.sol\":3728:3761  require(_amount > 0,\"amount = 0\") */\n      tag_106\n      jumpi\n      mload(0x40)\n      0x08c379a000000000000000000000000000000000000000000000000000000000\n      dup2\n      mstore\n      0x04\n      add\n      tag_107\n      swap1\n      tag_108\n      jump\t// in\n    tag_107:\n      mload(0x40)\n      dup1\n      swap2\n      sub\n      swap1\n      revert\n    tag_106:\n        /* \"StakeAny_GetRewardETH/staking_Reward.sol\":3797:3804  _amount */\n      dup2\n        /* \"StakeAny_GetRewardETH/staking_Reward.sol\":3772:3781  balanceOf */\n      0x09\n        /* \"StakeAny_GetRewardETH/staking_Reward.sol\":3772:3793  balanceOf[msg.sender] */\n      0x00\n        /* \"StakeAny_GetRewardETH/staking_Reward.sol\":3782:3792  msg.sender */\n      caller\n        /* \"StakeAny_GetRewardETH/staking_Reward.sol\":3772:3793  balanceOf[msg.sender] */\n      0xffffffffffffffffffffffffffffffffffffffff\n      and\n      0xffffffffffffffffffffffffffffffffffffffff\n      and\n      dup2\n      mstore\n      0x20\n      add\n      swap1\n      dup2\n      mstore\n      0x20\n      add\n      0x00\n      keccak256\n      0x00\n        /* \"StakeAny_GetRewardETH/staking_Reward.sol\":3772:3804  balanceOf[msg.sender] -= _amount */\n      dup3\n      dup3\n      sload\n      tag_109\n      swap2\n      swap1\n      tag_93\n      jump\t// in\n    tag_109:\n      swap3\n      pop\n      pop\n      dup2\n      swap1\n      sstore\n      pop\n        /* \"StakeAny_GetRewardETH/staking_Reward.sol\":3830:3837  _amount */\n      dup2\n        /* \"StakeAny_GetRewardETH/staking_Reward.sol\":3815:3826  totalSupply */\n      0x08\n      0x00\n        /* \"StakeAny_GetRewardETH/staking_Reward.sol\":3815:3837  totalSupply -= _amount */\n      dup3\n      dup3\n      sload\n      tag_110\n      swap2\n      swap1\n      tag_93\n      jump\t// in\n    tag_110:\n      swap3\n      pop\n      pop\n      dup2\n      swap1\n      sstore\n      pop\n        /* \"StakeAny_GetRewardETH/staking_Reward.sol\":3848:3860  stakingToken */\n      immutable(\"0x2cc0d3dcb20652cd8f106aee76b6a7391771a130885634c0eb2bbe3cde796691\")\n        /* \"StakeAny_GetRewardETH/staking_Reward.sol\":3848:3869  stakingToken.transfer */\n      0xffffffffffffffffffffffffffffffffffffffff\n      and\n      0xa9059cbb\n        /* \"StakeAny_GetRewardETH/staking_Reward.sol\":3870:3880  msg.sender */\n      caller\n        /* \"StakeAny_GetRewardETH/staking_Reward.sol\":3881:3888  _amount */\n      dup5\n        /* \"StakeAny_GetRewardETH/staking_Reward.sol\":3848:3889  stakingToken.transfer(msg.sender,_amount) */\n      mload(0x40)\n      dup4\n      0xffffffff\n      and\n      0xe0\n      shl\n      dup2\n      mstore\n      0x04\n      add\n      tag_111\n      swap3\n      swap2\n      swap1\n      tag_112\n      jump\t// in\n    tag_111:\n      0x20\n      mload(0x40)\n      dup1\n      dup4\n      sub\n      dup2\n      0x00\n      dup8\n      gas\n      call\n      iszero\n      dup1\n      iszero\n      tag_114\n      jumpi\n      returndatasize\n      0x00\n      dup1\n      returndatacopy\n      revert(0x00, returndatasize)\n    tag_114:\n      pop\n      pop\n      pop\n      pop\n      mload(0x40)\n      returndatasize\n      not(0x1f)\n      0x1f\n      dup3\n      add\n      and\n      dup3\n      add\n      dup1\n      0x40\n      mstore\n      pop\n      dup2\n      add\n      swap1\n      tag_115\n      swap2\n      swap1\n      tag_116\n      jump\t// in\n    tag_115:\n      pop\n        /* \"StakeAny_GetRewardETH/staking_Reward.sol\":3645:3899  function withdraw(uint _amount) external updateReward(msg.sender) ... */\n      pop\n      pop\n      jump\t// out\n        /* \"StakeAny_GetRewardETH/staking_Reward.sol\":2049:2675  function notifyRewardAmount(uint _amount) external onlyOwner updateReward(address(0))... */\n    tag_43:\n        /* \"StakeAny_GetRewardETH/staking_Reward.sol\":1449:1454  owner */\n      0x00\n      dup1\n      sload\n      swap1\n      0x0100\n      exp\n      swap1\n      div\n      0xffffffffffffffffffffffffffffffffffffffff\n      and\n        /* \"StakeAny_GetRewardETH/staking_Reward.sol\":1437:1454  msg.sender==owner */\n      0xffffffffffffffffffffffffffffffffffffffff\n      and\n        /* \"StakeAny_GetRewardETH/staking_Reward.sol\":1437:1447  msg.sender */\n      caller\n        /* \"StakeAny_GetRewardETH/staking_Reward.sol\":1437:1454  msg.sender==owner */\n      0xffffffffffffffffffffffffffffffffffffffff\n      and\n      eq\n        /* \"StakeAny_GetRewardETH/staking_Reward.sol\":1429:1475  require(msg.sender==owner,\"You are not owner\") */\n      tag_118\n      jumpi\n      mload(0x40)\n      0x08c379a000000000000000000000000000000000000000000000000000000000\n      dup2\n      mstore\n      0x04\n      add\n      tag_119\n      swap1\n      tag_120\n      jump\t// in\n    tag_119:\n      mload(0x40)\n      dup1\n      swap2\n      sub\n      swap1\n      revert\n    tag_118:\n        /* \"StakeAny_GetRewardETH/staking_Reward.sol\":2131:2132  0 */\n      0x00\n        /* \"StakeAny_GetRewardETH/staking_Reward.sol\":1583:1599  rewardPerToken() */\n      tag_122\n        /* \"StakeAny_GetRewardETH/staking_Reward.sol\":1583:1597  rewardPerToken */\n      tag_85\n        /* \"StakeAny_GetRewardETH/staking_Reward.sol\":1583:1599  rewardPerToken() */\n      jump\t// in\n    tag_122:\n        /* \"StakeAny_GetRewardETH/staking_Reward.sol\":1560:1580  rewardPerTokenStored */\n      0x05\n        /* \"StakeAny_GetRewardETH/staking_Reward.sol\":1560:1599  rewardPerTokenStored = rewardPerToken() */\n      dup2\n      swap1\n      sstore\n      pop\n        /* \"StakeAny_GetRewardETH/staking_Reward.sol\":1622:1648  lastTimeRewardApplicable() */\n      tag_123\n        /* \"StakeAny_GetRewardETH/staking_Reward.sol\":1622:1646  lastTimeRewardApplicable */\n      tag_68\n        /* \"StakeAny_GetRewardETH/staking_Reward.sol\":1622:1648  lastTimeRewardApplicable() */\n      jump\t// in\n    tag_123:\n        /* \"StakeAny_GetRewardETH/staking_Reward.sol\":1610:1619  updatedAt */\n      0x03\n        /* \"StakeAny_GetRewardETH/staking_Reward.sol\":1610:1648  updatedAt = lastTimeRewardApplicable() */\n      dup2\n      swap1\n      sstore\n      pop\n        /* \"StakeAny_GetRewardETH/staking_Reward.sol\":1685:1686  0 */\n      0x00\n        /* \"StakeAny_GetRewardETH/staking_Reward.sol\":1665:1687  _account != address(0) */\n      0xffffffffffffffffffffffffffffffffffffffff\n      and\n        /* \"StakeAny_GetRewardETH/staking_Reward.sol\":1665:1673  _account */\n      dup2\n        /* \"StakeAny_GetRewardETH/staking_Reward.sol\":1665:1687  _account != address(0) */\n      0xffffffffffffffffffffffffffffffffffffffff\n      and\n      eq\n        /* \"StakeAny_GetRewardETH/staking_Reward.sol\":1661:1830  if (_account != address(0))... */\n      tag_124\n      jumpi\n        /* \"StakeAny_GetRewardETH/staking_Reward.sol\":1732:1748  earned(_account) */\n      tag_125\n        /* \"StakeAny_GetRewardETH/staking_Reward.sol\":1739:1747  _account */\n      dup2\n        /* \"StakeAny_GetRewardETH/staking_Reward.sol\":1732:1738  earned */\n      tag_28\n        /* \"StakeAny_GetRewardETH/staking_Reward.sol\":1732:1748  earned(_account) */\n      jump\t// in\n    tag_125:\n        /* \"StakeAny_GetRewardETH/staking_Reward.sol\":1713:1719  reward */\n      0x07\n        /* \"StakeAny_GetRewardETH/staking_Reward.sol\":1713:1729  reward[_account] */\n      0x00\n        /* \"StakeAny_GetRewardETH/staking_Reward.sol\":1720:1728  _account */\n      dup4\n        /* \"StakeAny_GetRewardETH/staking_Reward.sol\":1713:1729  reward[_account] */\n      0xffffffffffffffffffffffffffffffffffffffff\n      and\n      0xffffffffffffffffffffffffffffffffffffffff\n      and\n      dup2\n      mstore\n      0x20\n      add\n      swap1\n      dup2\n      mstore\n      0x20\n      add\n      0x00\n      keccak256\n        /* \"StakeAny_GetRewardETH/staking_Reward.sol\":1713:1748  reward[_account] = earned(_account) */\n      dup2\n      swap1\n      sstore\n      pop\n        /* \"StakeAny_GetRewardETH/staking_Reward.sol\":1798:1818  rewardPerTokenStored */\n      sload(0x05)\n        /* \"StakeAny_GetRewardETH/staking_Reward.sol\":1763:1785  userRewardPerTokenPaid */\n      0x06\n        /* \"StakeAny_GetRewardETH/staking_Reward.sol\":1763:1795  userRewardPerTokenPaid[_account] */\n      0x00\n        /* \"StakeAny_GetRewardETH/staking_Reward.sol\":1786:1794  _account */\n      dup4\n        /* \"StakeAny_GetRewardETH/staking_Reward.sol\":1763:1795  userRewardPerTokenPaid[_account] */\n      0xffffffffffffffffffffffffffffffffffffffff\n      and\n      0xffffffffffffffffffffffffffffffffffffffff\n      and\n      dup2\n      mstore\n      0x20\n      add\n      swap1\n      dup2\n      mstore\n      0x20\n      add\n      0x00\n      keccak256\n        /* \"StakeAny_GetRewardETH/staking_Reward.sol\":1763:1818  userRewardPerTokenPaid[_account] = rewardPerTokenStored */\n      dup2\n      swap1\n      sstore\n      pop\n        /* \"StakeAny_GetRewardETH/staking_Reward.sol\":1661:1830  if (_account != address(0))... */\n    tag_124:\n        /* \"StakeAny_GetRewardETH/staking_Reward.sol\":2172:2180  finishAt */\n      sload(0x02)\n        /* \"StakeAny_GetRewardETH/staking_Reward.sol\":2154:2169  block.timestamp */\n      timestamp\n        /* \"StakeAny_GetRewardETH/staking_Reward.sol\":2154:2180  block.timestamp > finishAt */\n      gt\n        /* \"StakeAny_GetRewardETH/staking_Reward.sol\":2151:2432  if(block.timestamp > finishAt)... */\n      iszero\n      tag_127\n      jumpi\n        /* \"StakeAny_GetRewardETH/staking_Reward.sol\":2229:2237  duration */\n      sload(0x01)\n        /* \"StakeAny_GetRewardETH/staking_Reward.sol\":2219:2226  _amount */\n      dup3\n        /* \"StakeAny_GetRewardETH/staking_Reward.sol\":2219:2237  _amount / duration */\n      tag_128\n      swap2\n      swap1\n      tag_97\n      jump\t// in\n    tag_128:\n        /* \"StakeAny_GetRewardETH/staking_Reward.sol\":2206:2216  rewardRate */\n      0x04\n        /* \"StakeAny_GetRewardETH/staking_Reward.sol\":2206:2237  rewardRate = _amount / duration */\n      dup2\n      swap1\n      sstore\n      pop\n        /* \"StakeAny_GetRewardETH/staking_Reward.sol\":2151:2432  if(block.timestamp > finishAt)... */\n      jump(tag_129)\n    tag_127:\n        /* \"StakeAny_GetRewardETH/staking_Reward.sol\":2288:2309  uint remainingRewards */\n      0x00\n        /* \"StakeAny_GetRewardETH/staking_Reward.sol\":2337:2352  block.timestamp */\n      timestamp\n        /* \"StakeAny_GetRewardETH/staking_Reward.sol\":2326:2334  finishAt */\n      sload(0x02)\n        /* \"StakeAny_GetRewardETH/staking_Reward.sol\":2326:2352  finishAt - block.timestamp */\n      tag_130\n      swap2\n      swap1\n      tag_93\n      jump\t// in\n    tag_130:\n        /* \"StakeAny_GetRewardETH/staking_Reward.sol\":2312:2322  rewardRate */\n      sload(0x04)\n        /* \"StakeAny_GetRewardETH/staking_Reward.sol\":2312:2353  rewardRate * (finishAt - block.timestamp) */\n      tag_131\n      swap2\n      swap1\n      tag_95\n      jump\t// in\n    tag_131:\n        /* \"StakeAny_GetRewardETH/staking_Reward.sol\":2288:2353  uint remainingRewards = rewardRate * (finishAt - block.timestamp) */\n      swap1\n      pop\n        /* \"StakeAny_GetRewardETH/staking_Reward.sol\":2412:2420  duration */\n      sload(0x01)\n        /* \"StakeAny_GetRewardETH/staking_Reward.sol\":2401:2408  _amount */\n      dup4\n        /* \"StakeAny_GetRewardETH/staking_Reward.sol\":2382:2398  remainingRewards */\n      dup3\n        /* \"StakeAny_GetRewardETH/staking_Reward.sol\":2382:2408  remainingRewards + _amount */\n      tag_132\n      swap2\n      swap1\n      tag_99\n      jump\t// in\n    tag_132:\n        /* \"StakeAny_GetRewardETH/staking_Reward.sol\":2381:2420  (remainingRewards + _amount) / duration */\n      tag_133\n      swap2\n      swap1\n      tag_97\n      jump\t// in\n    tag_133:\n        /* \"StakeAny_GetRewardETH/staking_Reward.sol\":2368:2378  rewardRate */\n      0x04\n        /* \"StakeAny_GetRewardETH/staking_Reward.sol\":2368:2420  rewardRate = (remainingRewards + _amount) / duration */\n      dup2\n      swap1\n      sstore\n      pop\n        /* \"StakeAny_GetRewardETH/staking_Reward.sol\":2273:2432  {... */\n      pop\n        /* \"StakeAny_GetRewardETH/staking_Reward.sol\":2151:2432  if(block.timestamp > finishAt)... */\n    tag_129:\n        /* \"StakeAny_GetRewardETH/staking_Reward.sol\":2463:2464  0 */\n      0x00\n        /* \"StakeAny_GetRewardETH/staking_Reward.sol\":2450:2460  rewardRate */\n      sload(0x04)\n        /* \"StakeAny_GetRewardETH/staking_Reward.sol\":2450:2464  rewardRate > 0 */\n      gt\n        /* \"StakeAny_GetRewardETH/staking_Reward.sol\":2442:2484  require(rewardRate > 0, \"reward rate = 0\") */\n      tag_134\n      jumpi\n      mload(0x40)\n      0x08c379a000000000000000000000000000000000000000000000000000000000\n      dup2\n      mstore\n      0x04\n      add\n      tag_135\n      swap1\n      tag_136\n      jump\t// in\n    tag_135:\n      mload(0x40)\n      dup1\n      swap2\n      sub\n      swap1\n      revert\n    tag_134:\n        /* \"StakeAny_GetRewardETH/staking_Reward.sol\":2528:2537  balanceOf */\n      0x09\n        /* \"StakeAny_GetRewardETH/staking_Reward.sol\":2528:2552  balanceOf[address(this)] */\n      0x00\n        /* \"StakeAny_GetRewardETH/staking_Reward.sol\":2546:2550  this */\n      address\n        /* \"StakeAny_GetRewardETH/staking_Reward.sol\":2528:2552  balanceOf[address(this)] */\n      0xffffffffffffffffffffffffffffffffffffffff\n      and\n      0xffffffffffffffffffffffffffffffffffffffff\n      and\n      dup2\n      mstore\n      0x20\n      add\n      swap1\n      dup2\n      mstore\n      0x20\n      add\n      0x00\n      keccak256\n      sload\n        /* \"StakeAny_GetRewardETH/staking_Reward.sol\":2516:2524  duration */\n      sload(0x01)\n        /* \"StakeAny_GetRewardETH/staking_Reward.sol\":2503:2513  rewardRate */\n      sload(0x04)\n        /* \"StakeAny_GetRewardETH/staking_Reward.sol\":2503:2524  rewardRate * duration */\n      tag_137\n      swap2\n      swap1\n      tag_95\n      jump\t// in\n    tag_137:\n        /* \"StakeAny_GetRewardETH/staking_Reward.sol\":2503:2552  rewardRate * duration <= balanceOf[address(this)] */\n      gt\n      iszero\n        /* \"StakeAny_GetRewardETH/staking_Reward.sol\":2495:2579  require(rewardRate * duration <= balanceOf[address(this)],\"reward amount > balance\") */\n      tag_138\n      jumpi\n      mload(0x40)\n      0x08c379a000000000000000000000000000000000000000000000000000000000\n      dup2\n      mstore\n      0x04\n      add\n      tag_139\n      swap1\n      tag_140\n      jump\t// in\n    tag_139:\n      mload(0x40)\n      dup1\n      swap2\n      sub\n      swap1\n      revert\n    tag_138:\n        /* \"StakeAny_GetRewardETH/staking_Reward.sol\":2621:2629  duration */\n      sload(0x01)\n        /* \"StakeAny_GetRewardETH/staking_Reward.sol\":2603:2618  block.timestamp */\n      timestamp\n        /* \"StakeAny_GetRewardETH/staking_Reward.sol\":2603:2629  block.timestamp + duration */\n      tag_141\n      swap2\n      swap1\n      tag_99\n      jump\t// in\n    tag_141:\n        /* \"StakeAny_GetRewardETH/staking_Reward.sol\":2592:2600  finishAt */\n      0x02\n        /* \"StakeAny_GetRewardETH/staking_Reward.sol\":2592:2629  finishAt = block.timestamp + duration */\n      dup2\n      swap1\n      sstore\n      pop\n        /* \"StakeAny_GetRewardETH/staking_Reward.sol\":2652:2667  block.timestamp */\n      timestamp\n        /* \"StakeAny_GetRewardETH/staking_Reward.sol\":2640:2649  updatedAt */\n      0x03\n        /* \"StakeAny_GetRewardETH/staking_Reward.sol\":2640:2667  updatedAt = block.timestamp */\n      dup2\n      swap1\n      sstore\n      pop\n        /* \"StakeAny_GetRewardETH/staking_Reward.sol\":1486:1487  _ */\n      pop\n        /* \"StakeAny_GetRewardETH/staking_Reward.sol\":2049:2675  function notifyRewardAmount(uint _amount) external onlyOwner updateReward(address(0))... */\n      pop\n      jump\t// out\n        /* \"StakeAny_GetRewardETH/staking_Reward.sol\":4626:5000  function getReward() external updateReward(msg.sender)... */\n    tag_45:\n        /* \"StakeAny_GetRewardETH/staking_Reward.sol\":4669:4679  msg.sender */\n      caller\n        /* \"StakeAny_GetRewardETH/staking_Reward.sol\":1583:1599  rewardPerToken() */\n      tag_143\n        /* \"StakeAny_GetRewardETH/staking_Reward.sol\":1583:1597  rewardPerToken */\n      tag_85\n        /* \"StakeAny_GetRewardETH/staking_Reward.sol\":1583:1599  rewardPerToken() */\n      jump\t// in\n    tag_143:\n        /* \"StakeAny_GetRewardETH/staking_Reward.sol\":1560:1580  rewardPerTokenStored */\n      0x05\n        /* \"StakeAny_GetRewardETH/staking_Reward.sol\":1560:1599  rewardPerTokenStored = rewardPerToken() */\n      dup2\n      swap1\n      sstore\n      pop\n        /* \"StakeAny_GetRewardETH/staking_Reward.sol\":1622:1648  lastTimeRewardApplicable() */\n      tag_144\n        /* \"StakeAny_GetRewardETH/staking_Reward.sol\":1622:1646  lastTimeRewardApplicable */\n      tag_68\n        /* \"StakeAny_GetRewardETH/staking_Reward.sol\":1622:1648  lastTimeRewardApplicable() */\n      jump\t// in\n    tag_144:\n        /* \"StakeAny_GetRewardETH/staking_Reward.sol\":1610:1619  updatedAt */\n      0x03\n        /* \"StakeAny_GetRewardETH/staking_Reward.sol\":1610:1648  updatedAt = lastTimeRewardApplicable() */\n      dup2\n      swap1\n      sstore\n      pop\n        /* \"StakeAny_GetRewardETH/staking_Reward.sol\":1685:1686  0 */\n      0x00\n        /* \"StakeAny_GetRewardETH/staking_Reward.sol\":1665:1687  _account != address(0) */\n      0xffffffffffffffffffffffffffffffffffffffff\n      and\n        /* \"StakeAny_GetRewardETH/staking_Reward.sol\":1665:1673  _account */\n      dup2\n        /* \"StakeAny_GetRewardETH/staking_Reward.sol\":1665:1687  _account != address(0) */\n      0xffffffffffffffffffffffffffffffffffffffff\n      and\n      eq\n        /* \"StakeAny_GetRewardETH/staking_Reward.sol\":1661:1830  if (_account != address(0))... */\n      tag_145\n      jumpi\n        /* \"StakeAny_GetRewardETH/staking_Reward.sol\":1732:1748  earned(_account) */\n      tag_146\n        /* \"StakeAny_GetRewardETH/staking_Reward.sol\":1739:1747  _account */\n      dup2\n        /* \"StakeAny_GetRewardETH/staking_Reward.sol\":1732:1738  earned */\n      tag_28\n        /* \"StakeAny_GetRewardETH/staking_Reward.sol\":1732:1748  earned(_account) */\n      jump\t// in\n    tag_146:\n        /* \"StakeAny_GetRewardETH/staking_Reward.sol\":1713:1719  reward */\n      0x07\n        /* \"StakeAny_GetRewardETH/staking_Reward.sol\":1713:1729  reward[_account] */\n      0x00\n        /* \"StakeAny_GetRewardETH/staking_Reward.sol\":1720:1728  _account */\n      dup4\n        /* \"StakeAny_GetRewardETH/staking_Reward.sol\":1713:1729  reward[_account] */\n      0xffffffffffffffffffffffffffffffffffffffff\n      and\n      0xffffffffffffffffffffffffffffffffffffffff\n      and\n      dup2\n      mstore\n      0x20\n      add\n      swap1\n      dup2\n      mstore\n      0x20\n      add\n      0x00\n      keccak256\n        /* \"StakeAny_GetRewardETH/staking_Reward.sol\":1713:1748  reward[_account] = earned(_account) */\n      dup2\n      swap1\n      sstore\n      pop\n        /* \"StakeAny_GetRewardETH/staking_Reward.sol\":1798:1818  rewardPerTokenStored */\n      sload(0x05)\n        /* \"StakeAny_GetRewardETH/staking_Reward.sol\":1763:1785  userRewardPerTokenPaid */\n      0x06\n        /* \"StakeAny_GetRewardETH/staking_Reward.sol\":1763:1795  userRewardPerTokenPaid[_account] */\n      0x00\n        /* \"StakeAny_GetRewardETH/staking_Reward.sol\":1786:1794  _account */\n      dup4\n        /* \"StakeAny_GetRewardETH/staking_Reward.sol\":1763:1795  userRewardPerTokenPaid[_account] */\n      0xffffffffffffffffffffffffffffffffffffffff\n      and\n      0xffffffffffffffffffffffffffffffffffffffff\n      and\n      dup2\n      mstore\n      0x20\n      add\n      swap1\n      dup2\n      mstore\n      0x20\n      add\n      0x00\n      keccak256\n        /* \"StakeAny_GetRewardETH/staking_Reward.sol\":1763:1818  userRewardPerTokenPaid[_account] = rewardPerTokenStored */\n      dup2\n      swap1\n      sstore\n      pop\n        /* \"StakeAny_GetRewardETH/staking_Reward.sol\":1661:1830  if (_account != address(0))... */\n    tag_145:\n        /* \"StakeAny_GetRewardETH/staking_Reward.sol\":4697:4707  uint rewrd */\n      0x00\n        /* \"StakeAny_GetRewardETH/staking_Reward.sol\":4710:4716  reward */\n      0x07\n        /* \"StakeAny_GetRewardETH/staking_Reward.sol\":4710:4728  reward[msg.sender] */\n      0x00\n        /* \"StakeAny_GetRewardETH/staking_Reward.sol\":4717:4727  msg.sender */\n      caller\n        /* \"StakeAny_GetRewardETH/staking_Reward.sol\":4710:4728  reward[msg.sender] */\n      0xffffffffffffffffffffffffffffffffffffffff\n      and\n      0xffffffffffffffffffffffffffffffffffffffff\n      and\n      dup2\n      mstore\n      0x20\n      add\n      swap1\n      dup2\n      mstore\n      0x20\n      add\n      0x00\n      keccak256\n      sload\n        /* \"StakeAny_GetRewardETH/staking_Reward.sol\":4697:4728  uint rewrd = reward[msg.sender] */\n      swap1\n      pop\n        /* \"StakeAny_GetRewardETH/staking_Reward.sol\":4750:4751  0 */\n      0x00\n        /* \"StakeAny_GetRewardETH/staking_Reward.sol\":4742:4747  rewrd */\n      dup2\n        /* \"StakeAny_GetRewardETH/staking_Reward.sol\":4742:4751  rewrd > 0 */\n      gt\n        /* \"StakeAny_GetRewardETH/staking_Reward.sol\":4739:4993  if(rewrd > 0)... */\n      iszero\n      tag_148\n      jumpi\n        /* \"StakeAny_GetRewardETH/staking_Reward.sol\":4798:4799  0 */\n      0x00\n        /* \"StakeAny_GetRewardETH/staking_Reward.sol\":4777:4783  reward */\n      0x07\n        /* \"StakeAny_GetRewardETH/staking_Reward.sol\":4777:4795  reward[msg.sender] */\n      0x00\n        /* \"StakeAny_GetRewardETH/staking_Reward.sol\":4784:4794  msg.sender */\n      caller\n        /* \"StakeAny_GetRewardETH/staking_Reward.sol\":4777:4795  reward[msg.sender] */\n      0xffffffffffffffffffffffffffffffffffffffff\n      and\n      0xffffffffffffffffffffffffffffffffffffffff\n      and\n      dup2\n      mstore\n      0x20\n      add\n      swap1\n      dup2\n      mstore\n      0x20\n      add\n      0x00\n      keccak256\n        /* \"StakeAny_GetRewardETH/staking_Reward.sol\":4777:4799  reward[msg.sender] = 0 */\n      dup2\n      swap1\n      sstore\n      pop\n        /* \"StakeAny_GetRewardETH/staking_Reward.sol\":4941:4953  stakingToken */\n      immutable(\"0x2cc0d3dcb20652cd8f106aee76b6a7391771a130885634c0eb2bbe3cde796691\")\n        /* \"StakeAny_GetRewardETH/staking_Reward.sol\":4941:4962  stakingToken.transfer */\n      0xffffffffffffffffffffffffffffffffffffffff\n      and\n      0xa9059cbb\n        /* \"StakeAny_GetRewardETH/staking_Reward.sol\":4963:4973  msg.sender */\n      caller\n        /* \"StakeAny_GetRewardETH/staking_Reward.sol\":4975:4980  rewrd */\n      dup4\n        /* \"StakeAny_GetRewardETH/staking_Reward.sol\":4941:4981  stakingToken.transfer(msg.sender, rewrd) */\n      mload(0x40)\n      dup4\n      0xffffffff\n      and\n      0xe0\n      shl\n      dup2\n      mstore\n      0x04\n      add\n      tag_149\n      swap3\n      swap2\n      swap1\n      tag_112\n      jump\t// in\n    tag_149:\n      0x20\n      mload(0x40)\n      dup1\n      dup4\n      sub\n      dup2\n      0x00\n      dup8\n      gas\n      call\n      iszero\n      dup1\n      iszero\n      tag_151\n      jumpi\n      returndatasize\n      0x00\n      dup1\n      returndatacopy\n      revert(0x00, returndatasize)\n    tag_151:\n      pop\n      pop\n      pop\n      pop\n      mload(0x40)\n      returndatasize\n      not(0x1f)\n      0x1f\n      dup3\n      add\n      and\n      dup3\n      add\n      dup1\n      0x40\n      mstore\n      pop\n      dup2\n      add\n      swap1\n      tag_152\n      swap2\n      swap1\n      tag_116\n      jump\t// in\n    tag_152:\n      pop\n        /* \"StakeAny_GetRewardETH/staking_Reward.sol\":4739:4993  if(rewrd > 0)... */\n    tag_148:\n        /* \"StakeAny_GetRewardETH/staking_Reward.sol\":4686:5000  {... */\n      pop\n        /* \"StakeAny_GetRewardETH/staking_Reward.sol\":4626:5000  function getReward() external updateReward(msg.sender)... */\n      pop\n      jump\t// out\n        /* \"StakeAny_GetRewardETH/staking_Reward.sol\":1084:1123  mapping(address => uint)  public reward */\n    tag_48:\n      mstore(0x20, 0x07)\n      dup1\n      0x00\n      mstore\n      keccak256(0x00, 0x40)\n      0x00\n      swap2\n      pop\n      swap1\n      pop\n      sload\n      dup2\n      jump\t// out\n        /* \"StakeAny_GetRewardETH/staking_Reward.sol\":898:918  uint public finishAt */\n    tag_51:\n      sload(0x02)\n      dup2\n      jump\t// out\n        /* \"StakeAny_GetRewardETH/staking_Reward.sol\":1162:1203  mapping(address => uint) public balanceOf */\n    tag_55:\n      mstore(0x20, 0x09)\n      dup1\n      0x00\n      mstore\n      keccak256(0x00, 0x40)\n      0x00\n      swap2\n      pop\n      swap1\n      pop\n      sload\n      dup2\n      jump\t// out\n        /* \"StakeAny_GetRewardETH/staking_Reward.sol\":751:787  IERC20 public immutable stakingToken */\n    tag_58:\n      immutable(\"0x2cc0d3dcb20652cd8f106aee76b6a7391771a130885634c0eb2bbe3cde796691\")\n      dup2\n      jump\t// out\n        /* \"StakeAny_GetRewardETH/staking_Reward.sol\":925:946  uint public updatedAt */\n    tag_62:\n      sload(0x03)\n      dup2\n      jump\t// out\n        /* \"StakeAny_GetRewardETH/staking_Reward.sol\":953:975  uint public rewardRate */\n    tag_65:\n      sload(0x04)\n      dup2\n      jump\t// out\n        /* \"StakeAny_GetRewardETH/staking_Reward.sol\":3907:4027  function lastTimeRewardApplicable() public view returns (uint) {... */\n    tag_68:\n        /* \"StakeAny_GetRewardETH/staking_Reward.sol\":3964:3968  uint */\n      0x00\n        /* \"StakeAny_GetRewardETH/staking_Reward.sol\":3988:4019  _min(finishAt, block.timestamp) */\n      tag_154\n        /* \"StakeAny_GetRewardETH/staking_Reward.sol\":3993:4001  finishAt */\n      sload(0x02)\n        /* \"StakeAny_GetRewardETH/staking_Reward.sol\":4003:4018  block.timestamp */\n      timestamp\n        /* \"StakeAny_GetRewardETH/staking_Reward.sol\":3988:3992  _min */\n      tag_155\n        /* \"StakeAny_GetRewardETH/staking_Reward.sol\":3988:4019  _min(finishAt, block.timestamp) */\n      jump\t// in\n    tag_154:\n        /* \"StakeAny_GetRewardETH/staking_Reward.sol\":3981:4019  return _min(finishAt, block.timestamp) */\n      swap1\n      pop\n        /* \"StakeAny_GetRewardETH/staking_Reward.sol\":3907:4027  function lastTimeRewardApplicable() public view returns (uint) {... */\n      swap1\n      jump\t// out\n        /* \"StakeAny_GetRewardETH/staking_Reward.sol\":1023:1077  mapping(address => uint) public userRewardPerTokenPaid */\n    tag_72:\n      mstore(0x20, 0x06)\n      dup1\n      0x00\n      mstore\n      keccak256(0x00, 0x40)\n      0x00\n      swap2\n      pop\n      swap1\n      pop\n      sload\n      dup2\n      jump\t// out\n        /* \"StakeAny_GetRewardETH/staking_Reward.sol\":842:862  address public owner */\n    tag_75:\n      0x00\n      dup1\n      sload\n      swap1\n      0x0100\n      exp\n      swap1\n      div\n      0xffffffffffffffffffffffffffffffffffffffff\n      and\n      dup2\n      jump\t// out\n        /* \"StakeAny_GetRewardETH/staking_Reward.sol\":3367:3637  function stake(uint _amount) external updateReward(msg.sender)... */\n    tag_80:\n        /* \"StakeAny_GetRewardETH/staking_Reward.sol\":3418:3428  msg.sender */\n      caller\n        /* \"StakeAny_GetRewardETH/staking_Reward.sol\":1583:1599  rewardPerToken() */\n      tag_157\n        /* \"StakeAny_GetRewardETH/staking_Reward.sol\":1583:1597  rewardPerToken */\n      tag_85\n        /* \"StakeAny_GetRewardETH/staking_Reward.sol\":1583:1599  rewardPerToken() */\n      jump\t// in\n    tag_157:\n        /* \"StakeAny_GetRewardETH/staking_Reward.sol\":1560:1580  rewardPerTokenStored */\n      0x05\n        /* \"StakeAny_GetRewardETH/staking_Reward.sol\":1560:1599  rewardPerTokenStored = rewardPerToken() */\n      dup2\n      swap1\n      sstore\n      pop\n        /* \"StakeAny_GetRewardETH/staking_Reward.sol\":1622:1648  lastTimeRewardApplicable() */\n      tag_158\n        /* \"StakeAny_GetRewardETH/staking_Reward.sol\":1622:1646  lastTimeRewardApplicable */\n      tag_68\n        /* \"StakeAny_GetRewardETH/staking_Reward.sol\":1622:1648  lastTimeRewardApplicable() */\n      jump\t// in\n    tag_158:\n        /* \"StakeAny_GetRewardETH/staking_Reward.sol\":1610:1619  updatedAt */\n      0x03\n        /* \"StakeAny_GetRewardETH/staking_Reward.sol\":1610:1648  updatedAt = lastTimeRewardApplicable() */\n      dup2\n      swap1\n      sstore\n      pop\n        /* \"StakeAny_GetRewardETH/staking_Reward.sol\":1685:1686  0 */\n      0x00\n        /* \"StakeAny_GetRewardETH/staking_Reward.sol\":1665:1687  _account != address(0) */\n      0xffffffffffffffffffffffffffffffffffffffff\n      and\n        /* \"StakeAny_GetRewardETH/staking_Reward.sol\":1665:1673  _account */\n      dup2\n        /* \"StakeAny_GetRewardETH/staking_Reward.sol\":1665:1687  _account != address(0) */\n      0xffffffffffffffffffffffffffffffffffffffff\n      and\n      eq\n        /* \"StakeAny_GetRewardETH/staking_Reward.sol\":1661:1830  if (_account != address(0))... */\n      tag_159\n      jumpi\n        /* \"StakeAny_GetRewardETH/staking_Reward.sol\":1732:1748  earned(_account) */\n      tag_160\n        /* \"StakeAny_GetRewardETH/staking_Reward.sol\":1739:1747  _account */\n      dup2\n        /* \"StakeAny_GetRewardETH/staking_Reward.sol\":1732:1738  earned */\n      tag_28\n        /* \"StakeAny_GetRewardETH/staking_Reward.sol\":1732:1748  earned(_account) */\n      jump\t// in\n    tag_160:\n        /* \"StakeAny_GetRewardETH/staking_Reward.sol\":1713:1719  reward */\n      0x07\n        /* \"StakeAny_GetRewardETH/staking_Reward.sol\":1713:1729  reward[_account] */\n      0x00\n        /* \"StakeAny_GetRewardETH/staking_Reward.sol\":1720:1728  _account */\n      dup4\n        /* \"StakeAny_GetRewardETH/staking_Reward.sol\":1713:1729  reward[_account] */\n      0xffffffffffffffffffffffffffffffffffffffff\n      and\n      0xffffffffffffffffffffffffffffffffffffffff\n      and\n      dup2\n      mstore\n      0x20\n      add\n      swap1\n      dup2\n      mstore\n      0x20\n      add\n      0x00\n      keccak256\n        /* \"StakeAny_GetRewardETH/staking_Reward.sol\":1713:1748  reward[_account] = earned(_account) */\n      dup2\n      swap1\n      sstore\n      pop\n        /* \"StakeAny_GetRewardETH/staking_Reward.sol\":1798:1818  rewardPerTokenStored */\n      sload(0x05)\n        /* \"StakeAny_GetRewardETH/staking_Reward.sol\":1763:1785  userRewardPerTokenPaid */\n      0x06\n        /* \"StakeAny_GetRewardETH/staking_Reward.sol\":1763:1795  userRewardPerTokenPaid[_account] */\n      0x00\n        /* \"StakeAny_GetRewardETH/staking_Reward.sol\":1786:1794  _account */\n      dup4\n        /* \"StakeAny_GetRewardETH/staking_Reward.sol\":1763:1795  userRewardPerTokenPaid[_account] */\n      0xffffffffffffffffffffffffffffffffffffffff\n      and\n      0xffffffffffffffffffffffffffffffffffffffff\n      and\n      dup2\n      mstore\n      0x20\n      add\n      swap1\n      dup2\n      mstore\n      0x20\n      add\n      0x00\n      keccak256\n        /* \"StakeAny_GetRewardETH/staking_Reward.sol\":1763:1818  userRewardPerTokenPaid[_account] = rewardPerTokenStored */\n      dup2\n      swap1\n      sstore\n      pop\n        /* \"StakeAny_GetRewardETH/staking_Reward.sol\":1661:1830  if (_account != address(0))... */\n    tag_159:\n        /* \"StakeAny_GetRewardETH/staking_Reward.sol\":3464:3465  0 */\n      0x00\n        /* \"StakeAny_GetRewardETH/staking_Reward.sol\":3454:3461  _amount */\n      dup3\n        /* \"StakeAny_GetRewardETH/staking_Reward.sol\":3454:3465  _amount > 0 */\n      gt\n        /* \"StakeAny_GetRewardETH/staking_Reward.sol\":3446:3481  require(_amount > 0, \" amount = 0\") */\n      tag_162\n      jumpi\n      mload(0x40)\n      0x08c379a000000000000000000000000000000000000000000000000000000000\n      dup2\n      mstore\n      0x04\n      add\n      tag_163\n      swap1\n      tag_164\n      jump\t// in\n    tag_163:\n      mload(0x40)\n      dup1\n      swap2\n      sub\n      swap1\n      revert\n    tag_162:\n        /* \"StakeAny_GetRewardETH/staking_Reward.sol\":3492:3504  stakingToken */\n      immutable(\"0x2cc0d3dcb20652cd8f106aee76b6a7391771a130885634c0eb2bbe3cde796691\")\n        /* \"StakeAny_GetRewardETH/staking_Reward.sol\":3492:3517  stakingToken.transferFrom */\n      0xffffffffffffffffffffffffffffffffffffffff\n      and\n      0x23b872dd\n        /* \"StakeAny_GetRewardETH/staking_Reward.sol\":3518:3528  msg.sender */\n      caller\n        /* \"StakeAny_GetRewardETH/staking_Reward.sol\":3538:3542  this */\n      address\n        /* \"StakeAny_GetRewardETH/staking_Reward.sol\":3545:3552  _amount */\n      dup6\n        /* \"StakeAny_GetRewardETH/staking_Reward.sol\":3492:3553  stakingToken.transferFrom(msg.sender, address(this), _amount) */\n      mload(0x40)\n      dup5\n      0xffffffff\n      and\n      0xe0\n      shl\n      dup2\n      mstore\n      0x04\n      add\n      tag_165\n      swap4\n      swap3\n      swap2\n      swap1\n      tag_166\n      jump\t// in\n    tag_165:\n      0x20\n      mload(0x40)\n      dup1\n      dup4\n      sub\n      dup2\n      0x00\n      dup8\n      gas\n      call\n      iszero\n      dup1\n      iszero\n      tag_168\n      jumpi\n      returndatasize\n      0x00\n      dup1\n      returndatacopy\n      revert(0x00, returndatasize)\n    tag_168:\n      pop\n      pop\n      pop\n      pop\n      mload(0x40)\n      returndatasize\n      not(0x1f)\n      0x1f\n      dup3\n      add\n      and\n      dup3\n      add\n      dup1\n      0x40\n      mstore\n      pop\n      dup2\n      add\n      swap1\n      tag_169\n      swap2\n      swap1\n      tag_116\n      jump\t// in\n    tag_169:\n      pop\n        /* \"StakeAny_GetRewardETH/staking_Reward.sol\":3589:3596  _amount */\n      dup2\n        /* \"StakeAny_GetRewardETH/staking_Reward.sol\":3564:3573  balanceOf */\n      0x09\n        /* \"StakeAny_GetRewardETH/staking_Reward.sol\":3564:3585  balanceOf[msg.sender] */\n      0x00\n        /* \"StakeAny_GetRewardETH/staking_Reward.sol\":3574:3584  msg.sender */\n      caller\n        /* \"StakeAny_GetRewardETH/staking_Reward.sol\":3564:3585  balanceOf[msg.sender] */\n      0xffffffffffffffffffffffffffffffffffffffff\n      and\n      0xffffffffffffffffffffffffffffffffffffffff\n      and\n      dup2\n      mstore\n      0x20\n      add\n      swap1\n      dup2\n      mstore\n      0x20\n      add\n      0x00\n      keccak256\n      0x00\n        /* \"StakeAny_GetRewardETH/staking_Reward.sol\":3564:3596  balanceOf[msg.sender] += _amount */\n      dup3\n      dup3\n      sload\n      tag_170\n      swap2\n      swap1\n      tag_99\n      jump\t// in\n    tag_170:\n      swap3\n      pop\n      pop\n      dup2\n      swap1\n      sstore\n      pop\n        /* \"StakeAny_GetRewardETH/staking_Reward.sol\":3622:3629  _amount */\n      dup2\n        /* \"StakeAny_GetRewardETH/staking_Reward.sol\":3607:3618  totalSupply */\n      0x08\n      0x00\n        /* \"StakeAny_GetRewardETH/staking_Reward.sol\":3607:3629  totalSupply += _amount */\n      dup3\n      dup3\n      sload\n      tag_171\n      swap2\n      swap1\n      tag_99\n      jump\t// in\n    tag_171:\n      swap3\n      pop\n      pop\n      dup2\n      swap1\n      sstore\n      pop\n        /* \"StakeAny_GetRewardETH/staking_Reward.sol\":3367:3637  function stake(uint _amount) external updateReward(msg.sender)... */\n      pop\n      pop\n      jump\t// out\n        /* \"StakeAny_GetRewardETH/staking_Reward.sol\":1857:2041  function setRewardDuration(uint _duration) external onlyOwner... */\n    tag_83:\n        /* \"StakeAny_GetRewardETH/staking_Reward.sol\":1449:1454  owner */\n      0x00\n      dup1\n      sload\n      swap1\n      0x0100\n      exp\n      swap1\n      div\n      0xffffffffffffffffffffffffffffffffffffffff\n      and\n        /* \"StakeAny_GetRewardETH/staking_Reward.sol\":1437:1454  msg.sender==owner */\n      0xffffffffffffffffffffffffffffffffffffffff\n      and\n        /* \"StakeAny_GetRewardETH/staking_Reward.sol\":1437:1447  msg.sender */\n      caller\n        /* \"StakeAny_GetRewardETH/staking_Reward.sol\":1437:1454  msg.sender==owner */\n      0xffffffffffffffffffffffffffffffffffffffff\n      and\n      eq\n        /* \"StakeAny_GetRewardETH/staking_Reward.sol\":1429:1475  require(msg.sender==owner,\"You are not owner\") */\n      tag_173\n      jumpi\n      mload(0x40)\n      0x08c379a000000000000000000000000000000000000000000000000000000000\n      dup2\n      mstore\n      0x04\n      add\n      tag_174\n      swap1\n      tag_120\n      jump\t// in\n    tag_174:\n      mload(0x40)\n      dup1\n      swap2\n      sub\n      swap1\n      revert\n    tag_173:\n        /* \"StakeAny_GetRewardETH/staking_Reward.sol\":1954:1969  block.timestamp */\n      timestamp\n        /* \"StakeAny_GetRewardETH/staking_Reward.sol\":1943:1951  finishAt */\n      sload(0x02)\n        /* \"StakeAny_GetRewardETH/staking_Reward.sol\":1943:1969  finishAt < block.timestamp */\n      lt\n        /* \"StakeAny_GetRewardETH/staking_Reward.sol\":1935:2002  require(finishAt < block.timestamp, \"reward duration not finished\") */\n      tag_176\n      jumpi\n      mload(0x40)\n      0x08c379a000000000000000000000000000000000000000000000000000000000\n      dup2\n      mstore\n      0x04\n      add\n      tag_177\n      swap1\n      tag_178\n      jump\t// in\n    tag_177:\n      mload(0x40)\n      dup1\n      swap2\n      sub\n      swap1\n      revert\n    tag_176:\n        /* \"StakeAny_GetRewardETH/staking_Reward.sol\":2024:2033  _duration */\n      dup1\n        /* \"StakeAny_GetRewardETH/staking_Reward.sol\":2013:2021  duration */\n      0x01\n        /* \"StakeAny_GetRewardETH/staking_Reward.sol\":2013:2033  duration = _duration */\n      dup2\n      swap1\n      sstore\n      pop\n        /* \"StakeAny_GetRewardETH/staking_Reward.sol\":1857:2041  function setRewardDuration(uint _duration) external onlyOwner... */\n      pop\n      jump\t// out\n        /* \"StakeAny_GetRewardETH/staking_Reward.sol\":4139:4415  function rewardPerToken() public view returns(uint)... */\n    tag_85:\n        /* \"StakeAny_GetRewardETH/staking_Reward.sol\":4185:4189  uint */\n      0x00\n        /* \"StakeAny_GetRewardETH/staking_Reward.sol\":4225:4226  0 */\n      dup1\n        /* \"StakeAny_GetRewardETH/staking_Reward.sol\":4210:4221  totalSupply */\n      sload(0x08)\n        /* \"StakeAny_GetRewardETH/staking_Reward.sol\":4210:4226  totalSupply == 0 */\n      sub\n        /* \"StakeAny_GetRewardETH/staking_Reward.sol\":4207:4291  if(totalSupply == 0)... */\n      tag_180\n      jumpi\n        /* \"StakeAny_GetRewardETH/staking_Reward.sol\":4259:4279  rewardPerTokenStored */\n      sload(0x05)\n        /* \"StakeAny_GetRewardETH/staking_Reward.sol\":4252:4279  return rewardPerTokenStored */\n      swap1\n      pop\n      jump(tag_179)\n        /* \"StakeAny_GetRewardETH/staking_Reward.sol\":4207:4291  if(totalSupply == 0)... */\n    tag_180:\n        /* \"StakeAny_GetRewardETH/staking_Reward.sol\":4396:4407  totalSupply */\n      sload(0x08)\n        /* \"StakeAny_GetRewardETH/staking_Reward.sol\":4388:4392  1e18 */\n      0x0de0b6b3a7640000\n        /* \"StakeAny_GetRewardETH/staking_Reward.sol\":4375:4384  updatedAt */\n      sload(0x03)\n        /* \"StakeAny_GetRewardETH/staking_Reward.sol\":4346:4372  lastTimeRewardApplicable() */\n      tag_181\n        /* \"StakeAny_GetRewardETH/staking_Reward.sol\":4346:4370  lastTimeRewardApplicable */\n      tag_68\n        /* \"StakeAny_GetRewardETH/staking_Reward.sol\":4346:4372  lastTimeRewardApplicable() */\n      jump\t// in\n    tag_181:\n        /* \"StakeAny_GetRewardETH/staking_Reward.sol\":4346:4384  lastTimeRewardApplicable() - updatedAt */\n      tag_182\n      swap2\n      swap1\n      tag_93\n      jump\t// in\n    tag_182:\n        /* \"StakeAny_GetRewardETH/staking_Reward.sol\":4332:4342  rewardRate */\n      sload(0x04)\n        /* \"StakeAny_GetRewardETH/staking_Reward.sol\":4332:4385  rewardRate * (lastTimeRewardApplicable() - updatedAt) */\n      tag_183\n      swap2\n      swap1\n      tag_95\n      jump\t// in\n    tag_183:\n        /* \"StakeAny_GetRewardETH/staking_Reward.sol\":4332:4392  rewardRate * (lastTimeRewardApplicable() - updatedAt) * 1e18 */\n      tag_184\n      swap2\n      swap1\n      tag_95\n      jump\t// in\n    tag_184:\n        /* \"StakeAny_GetRewardETH/staking_Reward.sol\":4331:4407  (rewardRate * (lastTimeRewardApplicable() - updatedAt) * 1e18) / totalSupply */\n      tag_185\n      swap2\n      swap1\n      tag_97\n      jump\t// in\n    tag_185:\n        /* \"StakeAny_GetRewardETH/staking_Reward.sol\":4308:4328  rewardPerTokenStored */\n      sload(0x05)\n        /* \"StakeAny_GetRewardETH/staking_Reward.sol\":4308:4407  rewardPerTokenStored + (rewardRate * (lastTimeRewardApplicable() - updatedAt) * 1e18) / totalSupply */\n      tag_186\n      swap2\n      swap1\n      tag_99\n      jump\t// in\n    tag_186:\n        /* \"StakeAny_GetRewardETH/staking_Reward.sol\":4301:4407  return rewardPerTokenStored + (rewardRate * (lastTimeRewardApplicable() - updatedAt) * 1e18) / totalSupply */\n      swap1\n      pop\n        /* \"StakeAny_GetRewardETH/staking_Reward.sol\":4139:4415  function rewardPerToken() public view returns(uint)... */\n    tag_179:\n      swap1\n      jump\t// out\n        /* \"StakeAny_GetRewardETH/staking_Reward.sol\":982:1014  uint public rewardPerTokenStored */\n    tag_88:\n      sload(0x05)\n      dup2\n      jump\t// out\n        /* \"StakeAny_GetRewardETH/staking_Reward.sol\":4033:4131  function _min(uint x, uint y) private pure returns (uint) {... */\n    tag_155:\n        /* \"StakeAny_GetRewardETH/staking_Reward.sol\":4085:4089  uint */\n      0x00\n        /* \"StakeAny_GetRewardETH/staking_Reward.sol\":4114:4115  y */\n      dup2\n        /* \"StakeAny_GetRewardETH/staking_Reward.sol\":4109:4110  x */\n      dup4\n        /* \"StakeAny_GetRewardETH/staking_Reward.sol\":4109:4115  x <= y */\n      gt\n      iszero\n        /* \"StakeAny_GetRewardETH/staking_Reward.sol\":4109:4123  x <= y ? x : y */\n      tag_188\n      jumpi\n        /* \"StakeAny_GetRewardETH/staking_Reward.sol\":4122:4123  y */\n      dup2\n        /* \"StakeAny_GetRewardETH/staking_Reward.sol\":4109:4123  x <= y ? x : y */\n      jump(tag_189)\n    tag_188:\n        /* \"StakeAny_GetRewardETH/staking_Reward.sol\":4118:4119  x */\n      dup3\n        /* \"StakeAny_GetRewardETH/staking_Reward.sol\":4109:4123  x <= y ? x : y */\n    tag_189:\n        /* \"StakeAny_GetRewardETH/staking_Reward.sol\":4102:4123  return x <= y ? x : y */\n      swap1\n      pop\n        /* \"StakeAny_GetRewardETH/staking_Reward.sol\":4033:4131  function _min(uint x, uint y) private pure returns (uint) {... */\n      swap3\n      swap2\n      pop\n      pop\n      jump\t// out\n        /* \"#utility.yul\":88:205   */\n    tag_191:\n        /* \"#utility.yul\":197:198   */\n      0x00\n        /* \"#utility.yul\":194:195   */\n      dup1\n        /* \"#utility.yul\":187:199   */\n      revert\n        /* \"#utility.yul\":334:460   */\n    tag_193:\n        /* \"#utility.yul\":371:378   */\n      0x00\n        /* \"#utility.yul\":411:453   */\n      0xffffffffffffffffffffffffffffffffffffffff\n        /* \"#utility.yul\":404:409   */\n      dup3\n        /* \"#utility.yul\":400:454   */\n      and\n        /* \"#utility.yul\":389:454   */\n      swap1\n      pop\n        /* \"#utility.yul\":334:460   */\n      swap2\n      swap1\n      pop\n      jump\t// out\n        /* \"#utility.yul\":466:562   */\n    tag_194:\n        /* \"#utility.yul\":503:510   */\n      0x00\n        /* \"#utility.yul\":532:556   */\n      tag_231\n        /* \"#utility.yul\":550:555   */\n      dup3\n        /* \"#utility.yul\":532:556   */\n      tag_193\n      jump\t// in\n    tag_231:\n        /* \"#utility.yul\":521:556   */\n      swap1\n      pop\n        /* \"#utility.yul\":466:562   */\n      swap2\n      swap1\n      pop\n      jump\t// out\n        /* \"#utility.yul\":568:690   */\n    tag_195:\n        /* \"#utility.yul\":641:665   */\n      tag_233\n        /* \"#utility.yul\":659:664   */\n      dup2\n        /* \"#utility.yul\":641:665   */\n      tag_194\n      jump\t// in\n    tag_233:\n        /* \"#utility.yul\":634:639   */\n      dup2\n        /* \"#utility.yul\":631:666   */\n      eq\n        /* \"#utility.yul\":621:684   */\n      tag_234\n      jumpi\n        /* \"#utility.yul\":680:681   */\n      0x00\n        /* \"#utility.yul\":677:678   */\n      dup1\n        /* \"#utility.yul\":670:682   */\n      revert\n        /* \"#utility.yul\":621:684   */\n    tag_234:\n        /* \"#utility.yul\":568:690   */\n      pop\n      jump\t// out\n        /* \"#utility.yul\":696:835   */\n    tag_196:\n        /* \"#utility.yul\":742:747   */\n      0x00\n        /* \"#utility.yul\":780:786   */\n      dup2\n        /* \"#utility.yul\":767:787   */\n      calldataload\n        /* \"#utility.yul\":758:787   */\n      swap1\n      pop\n        /* \"#utility.yul\":796:829   */\n      tag_236\n        /* \"#utility.yul\":823:828   */\n      dup2\n        /* \"#utility.yul\":796:829   */\n      tag_195\n      jump\t// in\n    tag_236:\n        /* \"#utility.yul\":696:835   */\n      swap3\n      swap2\n      pop\n      pop\n      jump\t// out\n        /* \"#utility.yul\":841:1170   */\n    tag_27:\n        /* \"#utility.yul\":900:906   */\n      0x00\n        /* \"#utility.yul\":949:951   */\n      0x20\n        /* \"#utility.yul\":937:946   */\n      dup3\n        /* \"#utility.yul\":928:935   */\n      dup5\n        /* \"#utility.yul\":924:947   */\n      sub\n        /* \"#utility.yul\":920:952   */\n      slt\n        /* \"#utility.yul\":917:1036   */\n      iszero\n      tag_238\n      jumpi\n        /* \"#utility.yul\":955:1034   */\n      tag_239\n      tag_191\n      jump\t// in\n    tag_239:\n        /* \"#utility.yul\":917:1036   */\n    tag_238:\n        /* \"#utility.yul\":1075:1076   */\n      0x00\n        /* \"#utility.yul\":1100:1153   */\n      tag_240\n        /* \"#utility.yul\":1145:1152   */\n      dup5\n        /* \"#utility.yul\":1136:1142   */\n      dup3\n        /* \"#utility.yul\":1125:1134   */\n      dup6\n        /* \"#utility.yul\":1121:1143   */\n      add\n        /* \"#utility.yul\":1100:1153   */\n      tag_196\n      jump\t// in\n    tag_240:\n        /* \"#utility.yul\":1090:1153   */\n      swap2\n      pop\n        /* \"#utility.yul\":1046:1163   */\n      pop\n        /* \"#utility.yul\":841:1170   */\n      swap3\n      swap2\n      pop\n      pop\n      jump\t// out\n        /* \"#utility.yul\":1176:1253   */\n    tag_197:\n        /* \"#utility.yul\":1213:1220   */\n      0x00\n        /* \"#utility.yul\":1242:1247   */\n      dup2\n        /* \"#utility.yul\":1231:1247   */\n      swap1\n      pop\n        /* \"#utility.yul\":1176:1253   */\n      swap2\n      swap1\n      pop\n      jump\t// out\n        /* \"#utility.yul\":1259:1377   */\n    tag_198:\n        /* \"#utility.yul\":1346:1370   */\n      tag_243\n        /* \"#utility.yul\":1364:1369   */\n      dup2\n        /* \"#utility.yul\":1346:1370   */\n      tag_197\n      jump\t// in\n    tag_243:\n        /* \"#utility.yul\":1341:1344   */\n      dup3\n        /* \"#utility.yul\":1334:1371   */\n      mstore\n        /* \"#utility.yul\":1259:1377   */\n      pop\n      pop\n      jump\t// out\n        /* \"#utility.yul\":1383:1605   */\n    tag_30:\n        /* \"#utility.yul\":1476:1480   */\n      0x00\n        /* \"#utility.yul\":1514:1516   */\n      0x20\n        /* \"#utility.yul\":1503:1512   */\n      dup3\n        /* \"#utility.yul\":1499:1517   */\n      add\n        /* \"#utility.yul\":1491:1517   */\n      swap1\n      pop\n        /* \"#utility.yul\":1527:1598   */\n      tag_245\n        /* \"#utility.yul\":1595:1596   */\n      0x00\n        /* \"#utility.yul\":1584:1593   */\n      dup4\n        /* \"#utility.yul\":1580:1597   */\n      add\n        /* \"#utility.yul\":1571:1577   */\n      dup5\n        /* \"#utility.yul\":1527:1598   */\n      tag_198\n      jump\t// in\n    tag_245:\n        /* \"#utility.yul\":1383:1605   */\n      swap3\n      swap2\n      pop\n      pop\n      jump\t// out\n        /* \"#utility.yul\":1611:1733   */\n    tag_199:\n        /* \"#utility.yul\":1684:1708   */\n      tag_247\n        /* \"#utility.yul\":1702:1707   */\n      dup2\n        /* \"#utility.yul\":1684:1708   */\n      tag_197\n      jump\t// in\n    tag_247:\n        /* \"#utility.yul\":1677:1682   */\n      dup2\n        /* \"#utility.yul\":1674:1709   */\n      eq\n        /* \"#utility.yul\":1664:1727   */\n      tag_248\n      jumpi\n        /* \"#utility.yul\":1723:1724   */\n      0x00\n        /* \"#utility.yul\":1720:1721   */\n      dup1\n        /* \"#utility.yul\":1713:1725   */\n      revert\n        /* \"#utility.yul\":1664:1727   */\n    tag_248:\n        /* \"#utility.yul\":1611:1733   */\n      pop\n      jump\t// out\n        /* \"#utility.yul\":1739:1878   */\n    tag_200:\n        /* \"#utility.yul\":1785:1790   */\n      0x00\n        /* \"#utility.yul\":1823:1829   */\n      dup2\n        /* \"#utility.yul\":1810:1830   */\n      calldataload\n        /* \"#utility.yul\":1801:1830   */\n      swap1\n      pop\n        /* \"#utility.yul\":1839:1872   */\n      tag_250\n        /* \"#utility.yul\":1866:1871   */\n      dup2\n        /* \"#utility.yul\":1839:1872   */\n      tag_199\n      jump\t// in\n    tag_250:\n        /* \"#utility.yul\":1739:1878   */\n      swap3\n      swap2\n      pop\n      pop\n      jump\t// out\n        /* \"#utility.yul\":1884:2213   */\n    tag_39:\n        /* \"#utility.yul\":1943:1949   */\n      0x00\n        /* \"#utility.yul\":1992:1994   */\n      0x20\n        /* \"#utility.yul\":1980:1989   */\n      dup3\n        /* \"#utility.yul\":1971:1978   */\n      dup5\n        /* \"#utility.yul\":1967:1990   */\n      sub\n        /* \"#utility.yul\":1963:1995   */\n      slt\n        /* \"#utility.yul\":1960:2079   */\n      iszero\n      tag_252\n      jumpi\n        /* \"#utility.yul\":1998:2077   */\n      tag_253\n      tag_191\n      jump\t// in\n    tag_253:\n        /* \"#utility.yul\":1960:2079   */\n    tag_252:\n        /* \"#utility.yul\":2118:2119   */\n      0x00\n        /* \"#utility.yul\":2143:2196   */\n      tag_254\n        /* \"#utility.yul\":2188:2195   */\n      dup5\n        /* \"#utility.yul\":2179:2185   */\n      dup3\n        /* \"#utility.yul\":2168:2177   */\n      dup6\n        /* \"#utility.yul\":2164:2186   */\n      add\n        /* \"#utility.yul\":2143:2196   */\n      tag_200\n      jump\t// in\n    tag_254:\n        /* \"#utility.yul\":2133:2196   */\n      swap2\n      pop\n        /* \"#utility.yul\":2089:2206   */\n      pop\n        /* \"#utility.yul\":1884:2213   */\n      swap3\n      swap2\n      pop\n      pop\n      jump\t// out\n        /* \"#utility.yul\":2219:2279   */\n    tag_201:\n        /* \"#utility.yul\":2247:2250   */\n      0x00\n        /* \"#utility.yul\":2268:2273   */\n      dup2\n        /* \"#utility.yul\":2261:2273   */\n      swap1\n      pop\n        /* \"#utility.yul\":2219:2279   */\n      swap2\n      swap1\n      pop\n      jump\t// out\n        /* \"#utility.yul\":2285:2427   */\n    tag_202:\n        /* \"#utility.yul\":2335:2344   */\n      0x00\n        /* \"#utility.yul\":2368:2421   */\n      tag_257\n        /* \"#utility.yul\":2386:2420   */\n      tag_258\n        /* \"#utility.yul\":2395:2419   */\n      tag_259\n        /* \"#utility.yul\":2413:2418   */\n      dup5\n        /* \"#utility.yul\":2395:2419   */\n      tag_193\n      jump\t// in\n    tag_259:\n        /* \"#utility.yul\":2386:2420   */\n      tag_201\n      jump\t// in\n    tag_258:\n        /* \"#utility.yul\":2368:2421   */\n      tag_193\n      jump\t// in\n    tag_257:\n        /* \"#utility.yul\":2355:2421   */\n      swap1\n      pop\n        /* \"#utility.yul\":2285:2427   */\n      swap2\n      swap1\n      pop\n      jump\t// out\n        /* \"#utility.yul\":2433:2559   */\n    tag_203:\n        /* \"#utility.yul\":2483:2492   */\n      0x00\n        /* \"#utility.yul\":2516:2553   */\n      tag_261\n        /* \"#utility.yul\":2547:2552   */\n      dup3\n        /* \"#utility.yul\":2516:2553   */\n      tag_202\n      jump\t// in\n    tag_261:\n        /* \"#utility.yul\":2503:2553   */\n      swap1\n      pop\n        /* \"#utility.yul\":2433:2559   */\n      swap2\n      swap1\n      pop\n      jump\t// out\n        /* \"#utility.yul\":2565:2704   */\n    tag_204:\n        /* \"#utility.yul\":2628:2637   */\n      0x00\n        /* \"#utility.yul\":2661:2698   */\n      tag_263\n        /* \"#utility.yul\":2692:2697   */\n      dup3\n        /* \"#utility.yul\":2661:2698   */\n      tag_203\n      jump\t// in\n    tag_263:\n        /* \"#utility.yul\":2648:2698   */\n      swap1\n      pop\n        /* \"#utility.yul\":2565:2704   */\n      swap2\n      swap1\n      pop\n      jump\t// out\n        /* \"#utility.yul\":2710:2867   */\n    tag_205:\n        /* \"#utility.yul\":2810:2860   */\n      tag_265\n        /* \"#utility.yul\":2854:2859   */\n      dup2\n        /* \"#utility.yul\":2810:2860   */\n      tag_204\n      jump\t// in\n    tag_265:\n        /* \"#utility.yul\":2805:2808   */\n      dup3\n        /* \"#utility.yul\":2798:2861   */\n      mstore\n        /* \"#utility.yul\":2710:2867   */\n      pop\n      pop\n      jump\t// out\n        /* \"#utility.yul\":2873:3121   */\n    tag_60:\n        /* \"#utility.yul\":2979:2983   */\n      0x00\n        /* \"#utility.yul\":3017:3019   */\n      0x20\n        /* \"#utility.yul\":3006:3015   */\n      dup3\n        /* \"#utility.yul\":3002:3020   */\n      add\n        /* \"#utility.yul\":2994:3020   */\n      swap1\n      pop\n        /* \"#utility.yul\":3030:3114   */\n      tag_267\n        /* \"#utility.yul\":3111:3112   */\n      0x00\n        /* \"#utility.yul\":3100:3109   */\n      dup4\n        /* \"#utility.yul\":3096:3113   */\n      add\n        /* \"#utility.yul\":3087:3093   */\n      dup5\n        /* \"#utility.yul\":3030:3114   */\n      tag_205\n      jump\t// in\n    tag_267:\n        /* \"#utility.yul\":2873:3121   */\n      swap3\n      swap2\n      pop\n      pop\n      jump\t// out\n        /* \"#utility.yul\":3127:3245   */\n    tag_206:\n        /* \"#utility.yul\":3214:3238   */\n      tag_269\n        /* \"#utility.yul\":3232:3237   */\n      dup2\n        /* \"#utility.yul\":3214:3238   */\n      tag_194\n      jump\t// in\n    tag_269:\n        /* \"#utility.yul\":3209:3212   */\n      dup3\n        /* \"#utility.yul\":3202:3239   */\n      mstore\n        /* \"#utility.yul\":3127:3245   */\n      pop\n      pop\n      jump\t// out\n        /* \"#utility.yul\":3251:3473   */\n    tag_77:\n        /* \"#utility.yul\":3344:3348   */\n      0x00\n        /* \"#utility.yul\":3382:3384   */\n      0x20\n        /* \"#utility.yul\":3371:3380   */\n      dup3\n        /* \"#utility.yul\":3367:3385   */\n      add\n        /* \"#utility.yul\":3359:3385   */\n      swap1\n      pop\n        /* \"#utility.yul\":3395:3466   */\n      tag_271\n        /* \"#utility.yul\":3463:3464   */\n      0x00\n        /* \"#utility.yul\":3452:3461   */\n      dup4\n        /* \"#utility.yul\":3448:3465   */\n      add\n        /* \"#utility.yul\":3439:3445   */\n      dup5\n        /* \"#utility.yul\":3395:3466   */\n      tag_206\n      jump\t// in\n    tag_271:\n        /* \"#utility.yul\":3251:3473   */\n      swap3\n      swap2\n      pop\n      pop\n      jump\t// out\n        /* \"#utility.yul\":3479:3659   */\n    tag_207:\n        /* \"#utility.yul\":3527:3604   */\n      0x4e487b7100000000000000000000000000000000000000000000000000000000\n        /* \"#utility.yul\":3524:3525   */\n      0x00\n        /* \"#utility.yul\":3517:3605   */\n      mstore\n        /* \"#utility.yul\":3624:3628   */\n      0x11\n        /* \"#utility.yul\":3621:3622   */\n      0x04\n        /* \"#utility.yul\":3614:3629   */\n      mstore\n        /* \"#utility.yul\":3648:3652   */\n      0x24\n        /* \"#utility.yul\":3645:3646   */\n      0x00\n        /* \"#utility.yul\":3638:3653   */\n      revert\n        /* \"#utility.yul\":3665:3859   */\n    tag_93:\n        /* \"#utility.yul\":3705:3709   */\n      0x00\n        /* \"#utility.yul\":3725:3745   */\n      tag_274\n        /* \"#utility.yul\":3743:3744   */\n      dup3\n        /* \"#utility.yul\":3725:3745   */\n      tag_197\n      jump\t// in\n    tag_274:\n        /* \"#utility.yul\":3720:3745   */\n      swap2\n      pop\n        /* \"#utility.yul\":3759:3779   */\n      tag_275\n        /* \"#utility.yul\":3777:3778   */\n      dup4\n        /* \"#utility.yul\":3759:3779   */\n      tag_197\n      jump\t// in\n    tag_275:\n        /* \"#utility.yul\":3754:3779   */\n      swap3\n      pop\n        /* \"#utility.yul\":3803:3804   */\n      dup3\n        /* \"#utility.yul\":3800:3801   */\n      dup3\n        /* \"#utility.yul\":3796:3805   */\n      sub\n        /* \"#utility.yul\":3788:3805   */\n      swap1\n      pop\n        /* \"#utility.yul\":3827:3828   */\n      dup2\n        /* \"#utility.yul\":3821:3825   */\n      dup2\n        /* \"#utility.yul\":3818:3829   */\n      gt\n        /* \"#utility.yul\":3815:3852   */\n      iszero\n      tag_276\n      jumpi\n        /* \"#utility.yul\":3832:3850   */\n      tag_277\n      tag_207\n      jump\t// in\n    tag_277:\n        /* \"#utility.yul\":3815:3852   */\n    tag_276:\n        /* \"#utility.yul\":3665:3859   */\n      swap3\n      swap2\n      pop\n      pop\n      jump\t// out\n        /* \"#utility.yul\":3865:4275   */\n    tag_95:\n        /* \"#utility.yul\":3905:3912   */\n      0x00\n        /* \"#utility.yul\":3928:3948   */\n      tag_279\n        /* \"#utility.yul\":3946:3947   */\n      dup3\n        /* \"#utility.yul\":3928:3948   */\n      tag_197\n      jump\t// in\n    tag_279:\n        /* \"#utility.yul\":3923:3948   */\n      swap2\n      pop\n        /* \"#utility.yul\":3962:3982   */\n      tag_280\n        /* \"#utility.yul\":3980:3981   */\n      dup4\n        /* \"#utility.yul\":3962:3982   */\n      tag_197\n      jump\t// in\n    tag_280:\n        /* \"#utility.yul\":3957:3982   */\n      swap3\n      pop\n        /* \"#utility.yul\":4017:4018   */\n      dup3\n        /* \"#utility.yul\":4014:4015   */\n      dup3\n        /* \"#utility.yul\":4010:4019   */\n      mul\n        /* \"#utility.yul\":4039:4069   */\n      tag_281\n        /* \"#utility.yul\":4057:4068   */\n      dup2\n        /* \"#utility.yul\":4039:4069   */\n      tag_197\n      jump\t// in\n    tag_281:\n        /* \"#utility.yul\":4028:4069   */\n      swap2\n      pop\n        /* \"#utility.yul\":4218:4219   */\n      dup3\n        /* \"#utility.yul\":4209:4216   */\n      dup3\n        /* \"#utility.yul\":4205:4220   */\n      div\n        /* \"#utility.yul\":4202:4203   */\n      dup5\n        /* \"#utility.yul\":4199:4221   */\n      eq\n        /* \"#utility.yul\":4179:4180   */\n      dup4\n        /* \"#utility.yul\":4172:4181   */\n      iszero\n        /* \"#utility.yul\":4152:4235   */\n      or\n        /* \"#utility.yul\":4129:4268   */\n      tag_282\n      jumpi\n        /* \"#utility.yul\":4248:4266   */\n      tag_283\n      tag_207\n      jump\t// in\n    tag_283:\n        /* \"#utility.yul\":4129:4268   */\n    tag_282:\n        /* \"#utility.yul\":3913:4275   */\n      pop\n        /* \"#utility.yul\":3865:4275   */\n      swap3\n      swap2\n      pop\n      pop\n      jump\t// out\n        /* \"#utility.yul\":4281:4461   */\n    tag_208:\n        /* \"#utility.yul\":4329:4406   */\n      0x4e487b7100000000000000000000000000000000000000000000000000000000\n        /* \"#utility.yul\":4326:4327   */\n      0x00\n        /* \"#utility.yul\":4319:4407   */\n      mstore\n        /* \"#utility.yul\":4426:4430   */\n      0x12\n        /* \"#utility.yul\":4423:4424   */\n      0x04\n        /* \"#utility.yul\":4416:4431   */\n      mstore\n        /* \"#utility.yul\":4450:4454   */\n      0x24\n        /* \"#utility.yul\":4447:4448   */\n      0x00\n        /* \"#utility.yul\":4440:4455   */\n      revert\n        /* \"#utility.yul\":4467:4652   */\n    tag_97:\n        /* \"#utility.yul\":4507:4508   */\n      0x00\n        /* \"#utility.yul\":4524:4544   */\n      tag_286\n        /* \"#utility.yul\":4542:4543   */\n      dup3\n        /* \"#utility.yul\":4524:4544   */\n      tag_197\n      jump\t// in\n    tag_286:\n        /* \"#utility.yul\":4519:4544   */\n      swap2\n      pop\n        /* \"#utility.yul\":4558:4578   */\n      tag_287\n        /* \"#utility.yul\":4576:4577   */\n      dup4\n        /* \"#utility.yul\":4558:4578   */\n      tag_197\n      jump\t// in\n    tag_287:\n        /* \"#utility.yul\":4553:4578   */\n      swap3\n      pop\n        /* \"#utility.yul\":4597:4598   */\n      dup3\n        /* \"#utility.yul\":4587:4622   */\n      tag_288\n      jumpi\n        /* \"#utility.yul\":4602:4620   */\n      tag_289\n      tag_208\n      jump\t// in\n    tag_289:\n        /* \"#utility.yul\":4587:4622   */\n    tag_288:\n        /* \"#utility.yul\":4644:4645   */\n      dup3\n        /* \"#utility.yul\":4641:4642   */\n      dup3\n        /* \"#utility.yul\":4637:4646   */\n      div\n        /* \"#utility.yul\":4632:4646   */\n      swap1\n      pop\n        /* \"#utility.yul\":4467:4652   */\n      swap3\n      swap2\n      pop\n      pop\n      jump\t// out\n        /* \"#utility.yul\":4658:4849   */\n    tag_99:\n        /* \"#utility.yul\":4698:4701   */\n      0x00\n        /* \"#utility.yul\":4717:4737   */\n      tag_291\n        /* \"#utility.yul\":4735:4736   */\n      dup3\n        /* \"#utility.yul\":4717:4737   */\n      tag_197\n      jump\t// in\n    tag_291:\n        /* \"#utility.yul\":4712:4737   */\n      swap2\n      pop\n        /* \"#utility.yul\":4751:4771   */\n      tag_292\n        /* \"#utility.yul\":4769:4770   */\n      dup4\n        /* \"#utility.yul\":4751:4771   */\n      tag_197\n      jump\t// in\n    tag_292:\n        /* \"#utility.yul\":4746:4771   */\n      swap3\n      pop\n        /* \"#utility.yul\":4794:4795   */\n      dup3\n        /* \"#utility.yul\":4791:4792   */\n      dup3\n        /* \"#utility.yul\":4787:4796   */\n      add\n        /* \"#utility.yul\":4780:4796   */\n      swap1\n      pop\n        /* \"#utility.yul\":4815:4818   */\n      dup1\n        /* \"#utility.yul\":4812:4813   */\n      dup3\n        /* \"#utility.yul\":4809:4819   */\n      gt\n        /* \"#utility.yul\":4806:4842   */\n      iszero\n      tag_293\n      jumpi\n        /* \"#utility.yul\":4822:4840   */\n      tag_294\n      tag_207\n      jump\t// in\n    tag_294:\n        /* \"#utility.yul\":4806:4842   */\n    tag_293:\n        /* \"#utility.yul\":4658:4849   */\n      swap3\n      swap2\n      pop\n      pop\n      jump\t// out\n        /* \"#utility.yul\":4855:5024   */\n    tag_209:\n        /* \"#utility.yul\":4939:4950   */\n      0x00\n        /* \"#utility.yul\":4973:4979   */\n      dup3\n        /* \"#utility.yul\":4968:4971   */\n      dup3\n        /* \"#utility.yul\":4961:4980   */\n      mstore\n        /* \"#utility.yul\":5013:5017   */\n      0x20\n        /* \"#utility.yul\":5008:5011   */\n      dup3\n        /* \"#utility.yul\":5004:5018   */\n      add\n        /* \"#utility.yul\":4989:5018   */\n      swap1\n      pop\n        /* \"#utility.yul\":4855:5024   */\n      swap3\n      swap2\n      pop\n      pop\n      jump\t// out\n        /* \"#utility.yul\":5030:5190   */\n    tag_210:\n        /* \"#utility.yul\":5170:5182   */\n      0x616d6f756e74203d203000000000000000000000000000000000000000000000\n        /* \"#utility.yul\":5166:5167   */\n      0x00\n        /* \"#utility.yul\":5158:5164   */\n      dup3\n        /* \"#utility.yul\":5154:5168   */\n      add\n        /* \"#utility.yul\":5147:5183   */\n      mstore\n        /* \"#utility.yul\":5030:5190   */\n      pop\n      jump\t// out\n        /* \"#utility.yul\":5196:5562   */\n    tag_211:\n        /* \"#utility.yul\":5338:5341   */\n      0x00\n        /* \"#utility.yul\":5359:5426   */\n      tag_298\n        /* \"#utility.yul\":5423:5425   */\n      0x0a\n        /* \"#utility.yul\":5418:5421   */\n      dup4\n        /* \"#utility.yul\":5359:5426   */\n      tag_209\n      jump\t// in\n    tag_298:\n        /* \"#utility.yul\":5352:5426   */\n      swap2\n      pop\n        /* \"#utility.yul\":5435:5528   */\n      tag_299\n        /* \"#utility.yul\":5524:5527   */\n      dup3\n        /* \"#utility.yul\":5435:5528   */\n      tag_210\n      jump\t// in\n    tag_299:\n        /* \"#utility.yul\":5553:5555   */\n      0x20\n        /* \"#utility.yul\":5548:5551   */\n      dup3\n        /* \"#utility.yul\":5544:5556   */\n      add\n        /* \"#utility.yul\":5537:5556   */\n      swap1\n      pop\n        /* \"#utility.yul\":5196:5562   */\n      swap2\n      swap1\n      pop\n      jump\t// out\n        /* \"#utility.yul\":5568:5987   */\n    tag_108:\n        /* \"#utility.yul\":5734:5738   */\n      0x00\n        /* \"#utility.yul\":5772:5774   */\n      0x20\n        /* \"#utility.yul\":5761:5770   */\n      dup3\n        /* \"#utility.yul\":5757:5775   */\n      add\n        /* \"#utility.yul\":5749:5775   */\n      swap1\n      pop\n        /* \"#utility.yul\":5821:5830   */\n      dup2\n        /* \"#utility.yul\":5815:5819   */\n      dup2\n        /* \"#utility.yul\":5811:5831   */\n      sub\n        /* \"#utility.yul\":5807:5808   */\n      0x00\n        /* \"#utility.yul\":5796:5805   */\n      dup4\n        /* \"#utility.yul\":5792:5809   */\n      add\n        /* \"#utility.yul\":5785:5832   */\n      mstore\n        /* \"#utility.yul\":5849:5980   */\n      tag_301\n        /* \"#utility.yul\":5975:5979   */\n      dup2\n        /* \"#utility.yul\":5849:5980   */\n      tag_211\n      jump\t// in\n    tag_301:\n        /* \"#utility.yul\":5841:5980   */\n      swap1\n      pop\n        /* \"#utility.yul\":5568:5987   */\n      swap2\n      swap1\n      pop\n      jump\t// out\n        /* \"#utility.yul\":5993:6325   */\n    tag_112:\n        /* \"#utility.yul\":6114:6118   */\n      0x00\n        /* \"#utility.yul\":6152:6154   */\n      0x40\n        /* \"#utility.yul\":6141:6150   */\n      dup3\n        /* \"#utility.yul\":6137:6155   */\n      add\n        /* \"#utility.yul\":6129:6155   */\n      swap1\n      pop\n        /* \"#utility.yul\":6165:6236   */\n      tag_303\n        /* \"#utility.yul\":6233:6234   */\n      0x00\n        /* \"#utility.yul\":6222:6231   */\n      dup4\n        /* \"#utility.yul\":6218:6235   */\n      add\n        /* \"#utility.yul\":6209:6215   */\n      dup6\n        /* \"#utility.yul\":6165:6236   */\n      tag_206\n      jump\t// in\n    tag_303:\n        /* \"#utility.yul\":6246:6318   */\n      tag_304\n        /* \"#utility.yul\":6314:6316   */\n      0x20\n        /* \"#utility.yul\":6303:6312   */\n      dup4\n        /* \"#utility.yul\":6299:6317   */\n      add\n        /* \"#utility.yul\":6290:6296   */\n      dup5\n        /* \"#utility.yul\":6246:6318   */\n      tag_198\n      jump\t// in\n    tag_304:\n        /* \"#utility.yul\":5993:6325   */\n      swap4\n      swap3\n      pop\n      pop\n      pop\n      jump\t// out\n        /* \"#utility.yul\":6331:6421   */\n    tag_212:\n        /* \"#utility.yul\":6365:6372   */\n      0x00\n        /* \"#utility.yul\":6408:6413   */\n      dup2\n        /* \"#utility.yul\":6401:6414   */\n      iszero\n        /* \"#utility.yul\":6394:6415   */\n      iszero\n        /* \"#utility.yul\":6383:6415   */\n      swap1\n      pop\n        /* \"#utility.yul\":6331:6421   */\n      swap2\n      swap1\n      pop\n      jump\t// out\n        /* \"#utility.yul\":6427:6543   */\n    tag_213:\n        /* \"#utility.yul\":6497:6518   */\n      tag_307\n        /* \"#utility.yul\":6512:6517   */\n      dup2\n        /* \"#utility.yul\":6497:6518   */\n      tag_212\n      jump\t// in\n    tag_307:\n        /* \"#utility.yul\":6490:6495   */\n      dup2\n        /* \"#utility.yul\":6487:6519   */\n      eq\n        /* \"#utility.yul\":6477:6537   */\n      tag_308\n      jumpi\n        /* \"#utility.yul\":6533:6534   */\n      0x00\n        /* \"#utility.yul\":6530:6531   */\n      dup1\n        /* \"#utility.yul\":6523:6535   */\n      revert\n        /* \"#utility.yul\":6477:6537   */\n    tag_308:\n        /* \"#utility.yul\":6427:6543   */\n      pop\n      jump\t// out\n        /* \"#utility.yul\":6549:6686   */\n    tag_214:\n        /* \"#utility.yul\":6603:6608   */\n      0x00\n        /* \"#utility.yul\":6634:6640   */\n      dup2\n        /* \"#utility.yul\":6628:6641   */\n      mload\n        /* \"#utility.yul\":6619:6641   */\n      swap1\n      pop\n        /* \"#utility.yul\":6650:6680   */\n      tag_310\n        /* \"#utility.yul\":6674:6679   */\n      dup2\n        /* \"#utility.yul\":6650:6680   */\n      tag_213\n      jump\t// in\n    tag_310:\n        /* \"#utility.yul\":6549:6686   */\n      swap3\n      swap2\n      pop\n      pop\n      jump\t// out\n        /* \"#utility.yul\":6692:7037   */\n    tag_116:\n        /* \"#utility.yul\":6759:6765   */\n      0x00\n        /* \"#utility.yul\":6808:6810   */\n      0x20\n        /* \"#utility.yul\":6796:6805   */\n      dup3\n        /* \"#utility.yul\":6787:6794   */\n      dup5\n        /* \"#utility.yul\":6783:6806   */\n      sub\n        /* \"#utility.yul\":6779:6811   */\n      slt\n        /* \"#utility.yul\":6776:6895   */\n      iszero\n      tag_312\n      jumpi\n        /* \"#utility.yul\":6814:6893   */\n      tag_313\n      tag_191\n      jump\t// in\n    tag_313:\n        /* \"#utility.yul\":6776:6895   */\n    tag_312:\n        /* \"#utility.yul\":6934:6935   */\n      0x00\n        /* \"#utility.yul\":6959:7020   */\n      tag_314\n        /* \"#utility.yul\":7012:7019   */\n      dup5\n        /* \"#utility.yul\":7003:7009   */\n      dup3\n        /* \"#utility.yul\":6992:7001   */\n      dup6\n        /* \"#utility.yul\":6988:7010   */\n      add\n        /* \"#utility.yul\":6959:7020   */\n      tag_214\n      jump\t// in\n    tag_314:\n        /* \"#utility.yul\":6949:7020   */\n      swap2\n      pop\n        /* \"#utility.yul\":6905:7030   */\n      pop\n        /* \"#utility.yul\":6692:7037   */\n      swap3\n      swap2\n      pop\n      pop\n      jump\t// out\n        /* \"#utility.yul\":7043:7210   */\n    tag_215:\n        /* \"#utility.yul\":7183:7202   */\n      0x596f7520617265206e6f74206f776e6572000000000000000000000000000000\n        /* \"#utility.yul\":7179:7180   */\n      0x00\n        /* \"#utility.yul\":7171:7177   */\n      dup3\n        /* \"#utility.yul\":7167:7181   */\n      add\n        /* \"#utility.yul\":7160:7203   */\n      mstore\n        /* \"#utility.yul\":7043:7210   */\n      pop\n      jump\t// out\n        /* \"#utility.yul\":7216:7582   */\n    tag_216:\n        /* \"#utility.yul\":7358:7361   */\n      0x00\n        /* \"#utility.yul\":7379:7446   */\n      tag_317\n        /* \"#utility.yul\":7443:7445   */\n      0x11\n        /* \"#utility.yul\":7438:7441   */\n      dup4\n        /* \"#utility.yul\":7379:7446   */\n      tag_209\n      jump\t// in\n    tag_317:\n        /* \"#utility.yul\":7372:7446   */\n      swap2\n      pop\n        /* \"#utility.yul\":7455:7548   */\n      tag_318\n        /* \"#utility.yul\":7544:7547   */\n      dup3\n        /* \"#utility.yul\":7455:7548   */\n      tag_215\n      jump\t// in\n    tag_318:\n        /* \"#utility.yul\":7573:7575   */\n      0x20\n        /* \"#utility.yul\":7568:7571   */\n      dup3\n        /* \"#utility.yul\":7564:7576   */\n      add\n        /* \"#utility.yul\":7557:7576   */\n      swap1\n      pop\n        /* \"#utility.yul\":7216:7582   */\n      swap2\n      swap1\n      pop\n      jump\t// out\n        /* \"#utility.yul\":7588:8007   */\n    tag_120:\n        /* \"#utility.yul\":7754:7758   */\n      0x00\n        /* \"#utility.yul\":7792:7794   */\n      0x20\n        /* \"#utility.yul\":7781:7790   */\n      dup3\n        /* \"#utility.yul\":7777:7795   */\n      add\n        /* \"#utility.yul\":7769:7795   */\n      swap1\n      pop\n        /* \"#utility.yul\":7841:7850   */\n      dup2\n        /* \"#utility.yul\":7835:7839   */\n      dup2\n        /* \"#utility.yul\":7831:7851   */\n      sub\n        /* \"#utility.yul\":7827:7828   */\n      0x00\n        /* \"#utility.yul\":7816:7825   */\n      dup4\n        /* \"#utility.yul\":7812:7829   */\n      add\n        /* \"#utility.yul\":7805:7852   */\n      mstore\n        /* \"#utility.yul\":7869:8000   */\n      tag_320\n        /* \"#utility.yul\":7995:7999   */\n      dup2\n        /* \"#utility.yul\":7869:8000   */\n      tag_216\n      jump\t// in\n    tag_320:\n        /* \"#utility.yul\":7861:8000   */\n      swap1\n      pop\n        /* \"#utility.yul\":7588:8007   */\n      swap2\n      swap1\n      pop\n      jump\t// out\n        /* \"#utility.yul\":8013:8178   */\n    tag_217:\n        /* \"#utility.yul\":8153:8170   */\n      0x7265776172642072617465203d20300000000000000000000000000000000000\n        /* \"#utility.yul\":8149:8150   */\n      0x00\n        /* \"#utility.yul\":8141:8147   */\n      dup3\n        /* \"#utility.yul\":8137:8151   */\n      add\n        /* \"#utility.yul\":8130:8171   */\n      mstore\n        /* \"#utility.yul\":8013:8178   */\n      pop\n      jump\t// out\n        /* \"#utility.yul\":8184:8550   */\n    tag_218:\n        /* \"#utility.yul\":8326:8329   */\n      0x00\n        /* \"#utility.yul\":8347:8414   */\n      tag_323\n        /* \"#utility.yul\":8411:8413   */\n      0x0f\n        /* \"#utility.yul\":8406:8409   */\n      dup4\n        /* \"#utility.yul\":8347:8414   */\n      tag_209\n      jump\t// in\n    tag_323:\n        /* \"#utility.yul\":8340:8414   */\n      swap2\n      pop\n        /* \"#utility.yul\":8423:8516   */\n      tag_324\n        /* \"#utility.yul\":8512:8515   */\n      dup3\n        /* \"#utility.yul\":8423:8516   */\n      tag_217\n      jump\t// in\n    tag_324:\n        /* \"#utility.yul\":8541:8543   */\n      0x20\n        /* \"#utility.yul\":8536:8539   */\n      dup3\n        /* \"#utility.yul\":8532:8544   */\n      add\n        /* \"#utility.yul\":8525:8544   */\n      swap1\n      pop\n        /* \"#utility.yul\":8184:8550   */\n      swap2\n      swap1\n      pop\n      jump\t// out\n        /* \"#utility.yul\":8556:8975   */\n    tag_136:\n        /* \"#utility.yul\":8722:8726   */\n      0x00\n        /* \"#utility.yul\":8760:8762   */\n      0x20\n        /* \"#utility.yul\":8749:8758   */\n      dup3\n        /* \"#utility.yul\":8745:8763   */\n      add\n        /* \"#utility.yul\":8737:8763   */\n      swap1\n      pop\n        /* \"#utility.yul\":8809:8818   */\n      dup2\n        /* \"#utility.yul\":8803:8807   */\n      dup2\n        /* \"#utility.yul\":8799:8819   */\n      sub\n        /* \"#utility.yul\":8795:8796   */\n      0x00\n        /* \"#utility.yul\":8784:8793   */\n      dup4\n        /* \"#utility.yul\":8780:8797   */\n      add\n        /* \"#utility.yul\":8773:8820   */\n      mstore\n        /* \"#utility.yul\":8837:8968   */\n      tag_326\n        /* \"#utility.yul\":8963:8967   */\n      dup2\n        /* \"#utility.yul\":8837:8968   */\n      tag_218\n      jump\t// in\n    tag_326:\n        /* \"#utility.yul\":8829:8968   */\n      swap1\n      pop\n        /* \"#utility.yul\":8556:8975   */\n      swap2\n      swap1\n      pop\n      jump\t// out\n        /* \"#utility.yul\":8981:9154   */\n    tag_219:\n        /* \"#utility.yul\":9121:9146   */\n      0x72657761726420616d6f756e74203e2062616c616e6365000000000000000000\n        /* \"#utility.yul\":9117:9118   */\n      0x00\n        /* \"#utility.yul\":9109:9115   */\n      dup3\n        /* \"#utility.yul\":9105:9119   */\n      add\n        /* \"#utility.yul\":9098:9147   */\n      mstore\n        /* \"#utility.yul\":8981:9154   */\n      pop\n      jump\t// out\n        /* \"#utility.yul\":9160:9526   */\n    tag_220:\n        /* \"#utility.yul\":9302:9305   */\n      0x00\n        /* \"#utility.yul\":9323:9390   */\n      tag_329\n        /* \"#utility.yul\":9387:9389   */\n      0x17\n        /* \"#utility.yul\":9382:9385   */\n      dup4\n        /* \"#utility.yul\":9323:9390   */\n      tag_209\n      jump\t// in\n    tag_329:\n        /* \"#utility.yul\":9316:9390   */\n      swap2\n      pop\n        /* \"#utility.yul\":9399:9492   */\n      tag_330\n        /* \"#utility.yul\":9488:9491   */\n      dup3\n        /* \"#utility.yul\":9399:9492   */\n      tag_219\n      jump\t// in\n    tag_330:\n        /* \"#utility.yul\":9517:9519   */\n      0x20\n        /* \"#utility.yul\":9512:9515   */\n      dup3\n        /* \"#utility.yul\":9508:9520   */\n      add\n        /* \"#utility.yul\":9501:9520   */\n      swap1\n      pop\n        /* \"#utility.yul\":9160:9526   */\n      swap2\n      swap1\n      pop\n      jump\t// out\n        /* \"#utility.yul\":9532:9951   */\n    tag_140:\n        /* \"#utility.yul\":9698:9702   */\n      0x00\n        /* \"#utility.yul\":9736:9738   */\n      0x20\n        /* \"#utility.yul\":9725:9734   */\n      dup3\n        /* \"#utility.yul\":9721:9739   */\n      add\n        /* \"#utility.yul\":9713:9739   */\n      swap1\n      pop\n        /* \"#utility.yul\":9785:9794   */\n      dup2\n        /* \"#utility.yul\":9779:9783   */\n      dup2\n        /* \"#utility.yul\":9775:9795   */\n      sub\n        /* \"#utility.yul\":9771:9772   */\n      0x00\n        /* \"#utility.yul\":9760:9769   */\n      dup4\n        /* \"#utility.yul\":9756:9773   */\n      add\n        /* \"#utility.yul\":9749:9796   */\n      mstore\n        /* \"#utility.yul\":9813:9944   */\n      tag_332\n        /* \"#utility.yul\":9939:9943   */\n      dup2\n        /* \"#utility.yul\":9813:9944   */\n      tag_220\n      jump\t// in\n    tag_332:\n        /* \"#utility.yul\":9805:9944   */\n      swap1\n      pop\n        /* \"#utility.yul\":9532:9951   */\n      swap2\n      swap1\n      pop\n      jump\t// out\n        /* \"#utility.yul\":9957:10118   */\n    tag_221:\n        /* \"#utility.yul\":10097:10110   */\n      0x20616d6f756e74203d2030000000000000000000000000000000000000000000\n        /* \"#utility.yul\":10093:10094   */\n      0x00\n        /* \"#utility.yul\":10085:10091   */\n      dup3\n        /* \"#utility.yul\":10081:10095   */\n      add\n        /* \"#utility.yul\":10074:10111   */\n      mstore\n        /* \"#utility.yul\":9957:10118   */\n      pop\n      jump\t// out\n        /* \"#utility.yul\":10124:10490   */\n    tag_222:\n        /* \"#utility.yul\":10266:10269   */\n      0x00\n        /* \"#utility.yul\":10287:10354   */\n      tag_335\n        /* \"#utility.yul\":10351:10353   */\n      0x0b\n        /* \"#utility.yul\":10346:10349   */\n      dup4\n        /* \"#utility.yul\":10287:10354   */\n      tag_209\n      jump\t// in\n    tag_335:\n        /* \"#utility.yul\":10280:10354   */\n      swap2\n      pop\n        /* \"#utility.yul\":10363:10456   */\n      tag_336\n        /* \"#utility.yul\":10452:10455   */\n      dup3\n        /* \"#utility.yul\":10363:10456   */\n      tag_221\n      jump\t// in\n    tag_336:\n        /* \"#utility.yul\":10481:10483   */\n      0x20\n        /* \"#utility.yul\":10476:10479   */\n      dup3\n        /* \"#utility.yul\":10472:10484   */\n      add\n        /* \"#utility.yul\":10465:10484   */\n      swap1\n      pop\n        /* \"#utility.yul\":10124:10490   */\n      swap2\n      swap1\n      pop\n      jump\t// out\n        /* \"#utility.yul\":10496:10915   */\n    tag_164:\n        /* \"#utility.yul\":10662:10666   */\n      0x00\n        /* \"#utility.yul\":10700:10702   */\n      0x20\n        /* \"#utility.yul\":10689:10698   */\n      dup3\n        /* \"#utility.yul\":10685:10703   */\n      add\n        /* \"#utility.yul\":10677:10703   */\n      swap1\n      pop\n        /* \"#utility.yul\":10749:10758   */\n      dup2\n        /* \"#utility.yul\":10743:10747   */\n      dup2\n        /* \"#utility.yul\":10739:10759   */\n      sub\n        /* \"#utility.yul\":10735:10736   */\n      0x00\n        /* \"#utility.yul\":10724:10733   */\n      dup4\n        /* \"#utility.yul\":10720:10737   */\n      add\n        /* \"#utility.yul\":10713:10760   */\n      mstore\n        /* \"#utility.yul\":10777:10908   */\n      tag_338\n        /* \"#utility.yul\":10903:10907   */\n      dup2\n        /* \"#utility.yul\":10777:10908   */\n      tag_222\n      jump\t// in\n    tag_338:\n        /* \"#utility.yul\":10769:10908   */\n      swap1\n      pop\n        /* \"#utility.yul\":10496:10915   */\n      swap2\n      swap1\n      pop\n      jump\t// out\n        /* \"#utility.yul\":10921:11363   */\n    tag_166:\n        /* \"#utility.yul\":11070:11074   */\n      0x00\n        /* \"#utility.yul\":11108:11110   */\n      0x60\n        /* \"#utility.yul\":11097:11106   */\n      dup3\n        /* \"#utility.yul\":11093:11111   */\n      add\n        /* \"#utility.yul\":11085:11111   */\n      swap1\n      pop\n        /* \"#utility.yul\":11121:11192   */\n      tag_340\n        /* \"#utility.yul\":11189:11190   */\n      0x00\n        /* \"#utility.yul\":11178:11187   */\n      dup4\n        /* \"#utility.yul\":11174:11191   */\n      add\n        /* \"#utility.yul\":11165:11171   */\n      dup7\n        /* \"#utility.yul\":11121:11192   */\n      tag_206\n      jump\t// in\n    tag_340:\n        /* \"#utility.yul\":11202:11274   */\n      tag_341\n        /* \"#utility.yul\":11270:11272   */\n      0x20\n        /* \"#utility.yul\":11259:11268   */\n      dup4\n        /* \"#utility.yul\":11255:11273   */\n      add\n        /* \"#utility.yul\":11246:11252   */\n      dup6\n        /* \"#utility.yul\":11202:11274   */\n      tag_206\n      jump\t// in\n    tag_341:\n        /* \"#utility.yul\":11284:11356   */\n      tag_342\n        /* \"#utility.yul\":11352:11354   */\n      0x40\n        /* \"#utility.yul\":11341:11350   */\n      dup4\n        /* \"#utility.yul\":11337:11355   */\n      add\n        /* \"#utility.yul\":11328:11334   */\n      dup5\n        /* \"#utility.yul\":11284:11356   */\n      tag_198\n      jump\t// in\n    tag_342:\n        /* \"#utility.yul\":10921:11363   */\n      swap5\n      swap4\n      pop\n      pop\n      pop\n      pop\n      jump\t// out\n        /* \"#utility.yul\":11369:11547   */\n    tag_223:\n        /* \"#utility.yul\":11509:11539   */\n      0x726577617264206475726174696f6e206e6f742066696e697368656400000000\n        /* \"#utility.yul\":11505:11506   */\n      0x00\n        /* \"#utility.yul\":11497:11503   */\n      dup3\n        /* \"#utility.yul\":11493:11507   */\n      add\n        /* \"#utility.yul\":11486:11540   */\n      mstore\n        /* \"#utility.yul\":11369:11547   */\n      pop\n      jump\t// out\n        /* \"#utility.yul\":11553:11919   */\n    tag_224:\n        /* \"#utility.yul\":11695:11698   */\n      0x00\n        /* \"#utility.yul\":11716:11783   */\n      tag_345\n        /* \"#utility.yul\":11780:11782   */\n      0x1c\n        /* \"#utility.yul\":11775:11778   */\n      dup4\n        /* \"#utility.yul\":11716:11783   */\n      tag_209\n      jump\t// in\n    tag_345:\n        /* \"#utility.yul\":11709:11783   */\n      swap2\n      pop\n        /* \"#utility.yul\":11792:11885   */\n      tag_346\n        /* \"#utility.yul\":11881:11884   */\n      dup3\n        /* \"#utility.yul\":11792:11885   */\n      tag_223\n      jump\t// in\n    tag_346:\n        /* \"#utility.yul\":11910:11912   */\n      0x20\n        /* \"#utility.yul\":11905:11908   */\n      dup3\n        /* \"#utility.yul\":11901:11913   */\n      add\n        /* \"#utility.yul\":11894:11913   */\n      swap1\n      pop\n        /* \"#utility.yul\":11553:11919   */\n      swap2\n      swap1\n      pop\n      jump\t// out\n        /* \"#utility.yul\":11925:12344   */\n    tag_178:\n        /* \"#utility.yul\":12091:12095   */\n      0x00\n        /* \"#utility.yul\":12129:12131   */\n      0x20\n        /* \"#utility.yul\":12118:12127   */\n      dup3\n        /* \"#utility.yul\":12114:12132   */\n      add\n        /* \"#utility.yul\":12106:12132   */\n      swap1\n      pop\n        /* \"#utility.yul\":12178:12187   */\n      dup2\n        /* \"#utility.yul\":12172:12176   */\n      dup2\n        /* \"#utility.yul\":12168:12188   */\n      sub\n        /* \"#utility.yul\":12164:12165   */\n      0x00\n        /* \"#utility.yul\":12153:12162   */\n      dup4\n        /* \"#utility.yul\":12149:12166   */\n      add\n        /* \"#utility.yul\":12142:12189   */\n      mstore\n        /* \"#utility.yul\":12206:12337   */\n      tag_348\n        /* \"#utility.yul\":12332:12336   */\n      dup2\n        /* \"#utility.yul\":12206:12337   */\n      tag_224\n      jump\t// in\n    tag_348:\n        /* \"#utility.yul\":12198:12337   */\n      swap1\n      pop\n        /* \"#utility.yul\":11925:12344   */\n      swap2\n      swap1\n      pop\n      jump\t// out\n\n    auxdata: 0xa264697066735822122070d07a03f3e4cd842c605b8e39d8593c2dc74ddc10f9ee9db7802a58152a062264736f6c63430008130033\n}\n",
				"bytecode": {
					"linkReferences": {},
					"object": "60a06040523480156200001157600080fd5b506040516200181a3803806200181a83398181016040528101906200003791906200011c565b336000806101000a81548173ffffffffffffffffffffffffffffffffffffffff021916908373ffffffffffffffffffffffffffffffffffffffff1602179055508073ffffffffffffffffffffffffffffffffffffffff1660808173ffffffffffffffffffffffffffffffffffffffff1681525050506200014e565b600080fd5b600073ffffffffffffffffffffffffffffffffffffffff82169050919050565b6000620000e482620000b7565b9050919050565b620000f681620000d7565b81146200010257600080fd5b50565b6000815190506200011681620000eb565b92915050565b600060208284031215620001355762000134620000b2565b5b6000620001458482850162000105565b91505092915050565b60805161169b6200017f6000396000818161063101528181610b1501528181610bef0152610d95015261169b6000f3fe608060405234801561001057600080fd5b50600436106101205760003560e01c806372f702f3116100ad5780638da5cb5b116100715780638da5cb5b146102f9578063a694fc3a14610317578063c0ed00c914610333578063cd3daf9d1461034f578063df136d651461036d57610120565b806372f702f3146102515780637519ab501461026f5780637b0a47ee1461028d57806380faa57d146102ab5780638b876347146102c957610120565b80633c6b16ab116100f45780633c6b16ab146101ad5780633d18b912146101c95780636353586b146101d357806367d3b4881461020357806370a082311461022157610120565b80628cc262146101255780630fb5a6b41461015557806318160ddd146101735780632e1a7d4d14610191575b600080fd5b61013f600480360381019061013a9190611070565b61038b565b60405161014c91906110b6565b60405180910390f35b61015d61048d565b60405161016a91906110b6565b60405180910390f35b61017b610493565b60405161018891906110b6565b60405180910390f35b6101ab60048036038101906101a691906110fd565b610499565b005b6101c760048036038101906101c291906110fd565b6106d2565b005b6101d161099d565b005b6101ed60048036038101906101e89190611070565b610bb7565b6040516101fa91906110b6565b60405180910390f35b61020b610bcf565b60405161021891906110b6565b60405180910390f35b61023b60048036038101906102369190611070565b610bd5565b60405161024891906110b6565b60405180910390f35b610259610bed565b6040516102669190611189565b60405180910390f35b610277610c11565b60405161028491906110b6565b60405180910390f35b610295610c17565b6040516102a291906110b6565b60405180910390f35b6102b3610c1d565b6040516102c091906110b6565b60405180910390f35b6102e360048036038101906102de9190611070565b610c30565b6040516102f091906110b6565b60405180910390f35b610301610c48565b60405161030e91906111b3565b60405180910390f35b610331600480360381019061032c91906110fd565b610c6c565b005b61034d600480360381019061034891906110fd565b610ea7565b005b610357610f83565b60405161036491906110b6565b60405180910390f35b610375610fed565b60405161038291906110b6565b60405180910390f35b6000600760008373ffffffffffffffffffffffffffffffffffffffff1673ffffffffffffffffffffffffffffffffffffffff16815260200190815260200160002054670de0b6b3a7640000600660008573ffffffffffffffffffffffffffffffffffffffff1673ffffffffffffffffffffffffffffffffffffffff1681526020019081526020016000205461041e610f83565b61042891906111fd565b600960008673ffffffffffffffffffffffffffffffffffffffff1673ffffffffffffffffffffffffffffffffffffffff168152602001908152602001600020546104729190611231565b61047c91906112a2565b61048691906112d3565b9050919050565b60015481565b60085481565b336104a2610f83565b6005819055506104b0610c1d565b600381905550600073ffffffffffffffffffffffffffffffffffffffff168173ffffffffffffffffffffffffffffffffffffffff161461057d576104f38161038b565b600760008373ffffffffffffffffffffffffffffffffffffffff1673ffffffffffffffffffffffffffffffffffffffff16815260200190815260200160002081905550600554600660008373ffffffffffffffffffffffffffffffffffffffff1673ffffffffffffffffffffffffffffffffffffffff168152602001908152602001600020819055505b600082116105c0576040517f08c379a00000000000000000000000000000000000000000000000000000000081526004016105b790611364565b60405180910390fd5b81600960003373ffffffffffffffffffffffffffffffffffffffff1673ffffffffffffffffffffffffffffffffffffffff168152602001908152602001600020600082825461060f91906111fd565b92505081905550816008600082825461062891906111fd565b925050819055507f000000000000000000000000000000000000000000000000000000000000000073ffffffffffffffffffffffffffffffffffffffff1663a9059cbb33846040518363ffffffff1660e01b815260040161068a929190611384565b6020604051808303816000875af11580156106a9573d6000803e3d6000fd5b505050506040513d601f19601f820116820180604052508101906106cd91906113e5565b505050565b60008054906101000a900473ffffffffffffffffffffffffffffffffffffffff1673ffffffffffffffffffffffffffffffffffffffff163373ffffffffffffffffffffffffffffffffffffffff1614610760576040517f08c379a00000000000000000000000000000000000000000000000000000000081526004016107579061145e565b60405180910390fd5b600061076a610f83565b600581905550610778610c1d565b600381905550600073ffffffffffffffffffffffffffffffffffffffff168173ffffffffffffffffffffffffffffffffffffffff1614610845576107bb8161038b565b600760008373ffffffffffffffffffffffffffffffffffffffff1673ffffffffffffffffffffffffffffffffffffffff16815260200190815260200160002081905550600554600660008373ffffffffffffffffffffffffffffffffffffffff1673ffffffffffffffffffffffffffffffffffffffff168152602001908152602001600020819055505b600254421115610868576001548261085d91906112a2565b6004819055506108a8565b60004260025461087891906111fd565b6004546108859190611231565b9050600154838261089691906112d3565b6108a091906112a2565b600481905550505b6000600454116108ed576040517f08c379a00000000000000000000000000000000000000000000000000000000081526004016108e4906114ca565b60405180910390fd5b600960003073ffffffffffffffffffffffffffffffffffffffff1673ffffffffffffffffffffffffffffffffffffffff1681526020019081526020016000205460015460045461093d9190611231565b111561097e576040517f08c379a000000000000000000000000000000000000000000000000000000000815260040161097590611536565b60405180910390fd5b6001544261098c91906112d3565b600281905550426003819055505050565b336109a6610f83565b6005819055506109b4610c1d565b600381905550600073ffffffffffffffffffffffffffffffffffffffff168173ffffffffffffffffffffffffffffffffffffffff1614610a81576109f78161038b565b600760008373ffffffffffffffffffffffffffffffffffffffff1673ffffffffffffffffffffffffffffffffffffffff16815260200190815260200160002081905550600554600660008373ffffffffffffffffffffffffffffffffffffffff1673ffffffffffffffffffffffffffffffffffffffff168152602001908152602001600020819055505b6000600760003373ffffffffffffffffffffffffffffffffffffffff1673ffffffffffffffffffffffffffffffffffffffff1681526020019081526020016000205490506000811115610bb3576000600760003373ffffffffffffffffffffffffffffffffffffffff1673ffffffffffffffffffffffffffffffffffffffff168152602001908152602001600020819055507f000000000000000000000000000000000000000000000000000000000000000073ffffffffffffffffffffffffffffffffffffffff1663a9059cbb33836040518363ffffffff1660e01b8152600401610b6e929190611384565b6020604051808303816000875af1158015610b8d573d6000803e3d6000fd5b505050506040513d601f19601f82011682018060405250810190610bb191906113e5565b505b5050565b60076020528060005260406000206000915090505481565b60025481565b60096020528060005260406000206000915090505481565b7f000000000000000000000000000000000000000000000000000000000000000081565b60035481565b60045481565b6000610c2b60025442610ff3565b905090565b60066020528060005260406000206000915090505481565b60008054906101000a900473ffffffffffffffffffffffffffffffffffffffff1681565b33610c75610f83565b600581905550610c83610c1d565b600381905550600073ffffffffffffffffffffffffffffffffffffffff168173ffffffffffffffffffffffffffffffffffffffff1614610d5057610cc68161038b565b600760008373ffffffffffffffffffffffffffffffffffffffff1673ffffffffffffffffffffffffffffffffffffffff16815260200190815260200160002081905550600554600660008373ffffffffffffffffffffffffffffffffffffffff1673ffffffffffffffffffffffffffffffffffffffff168152602001908152602001600020819055505b60008211610d93576040517f08c379a0000000000000000000000000000000000000000000000000000000008152600401610d8a906115a2565b60405180910390fd5b7f000000000000000000000000000000000000000000000000000000000000000073ffffffffffffffffffffffffffffffffffffffff166323b872dd3330856040518463ffffffff1660e01b8152600401610df0939291906115c2565b6020604051808303816000875af1158015610e0f573d6000803e3d6000fd5b505050506040513d601f19601f82011682018060405250810190610e3391906113e5565b5081600960003373ffffffffffffffffffffffffffffffffffffffff1673ffffffffffffffffffffffffffffffffffffffff1681526020019081526020016000206000828254610e8391906112d3565b925050819055508160086000828254610e9c91906112d3565b925050819055505050565b60008054906101000a900473ffffffffffffffffffffffffffffffffffffffff1673ffffffffffffffffffffffffffffffffffffffff163373ffffffffffffffffffffffffffffffffffffffff1614610f35576040517f08c379a0000000000000000000000000000000000000000000000000000000008152600401610f2c9061145e565b60405180910390fd5b4260025410610f79576040517f08c379a0000000000000000000000000000000000000000000000000000000008152600401610f7090611645565b60405180910390fd5b8060018190555050565b60008060085403610f98576005549050610fea565b600854670de0b6b3a7640000600354610faf610c1d565b610fb991906111fd565b600454610fc69190611231565b610fd09190611231565b610fda91906112a2565b600554610fe791906112d3565b90505b90565b60055481565b6000818311156110035781611005565b825b905092915050565b600080fd5b600073ffffffffffffffffffffffffffffffffffffffff82169050919050565b600061103d82611012565b9050919050565b61104d81611032565b811461105857600080fd5b50565b60008135905061106a81611044565b92915050565b6000602082840312156110865761108561100d565b5b60006110948482850161105b565b91505092915050565b6000819050919050565b6110b08161109d565b82525050565b60006020820190506110cb60008301846110a7565b92915050565b6110da8161109d565b81146110e557600080fd5b50565b6000813590506110f7816110d1565b92915050565b6000602082840312156111135761111261100d565b5b6000611121848285016110e8565b91505092915050565b6000819050919050565b600061114f61114a61114584611012565b61112a565b611012565b9050919050565b600061116182611134565b9050919050565b600061117382611156565b9050919050565b61118381611168565b82525050565b600060208201905061119e600083018461117a565b92915050565b6111ad81611032565b82525050565b60006020820190506111c860008301846111a4565b92915050565b7f4e487b7100000000000000000000000000000000000000000000000000000000600052601160045260246000fd5b60006112088261109d565b91506112138361109d565b925082820390508181111561122b5761122a6111ce565b5b92915050565b600061123c8261109d565b91506112478361109d565b92508282026112558161109d565b9150828204841483151761126c5761126b6111ce565b5b5092915050565b7f4e487b7100000000000000000000000000000000000000000000000000000000600052601260045260246000fd5b60006112ad8261109d565b91506112b88361109d565b9250826112c8576112c7611273565b5b828204905092915050565b60006112de8261109d565b91506112e98361109d565b9250828201905080821115611301576113006111ce565b5b92915050565b600082825260208201905092915050565b7f616d6f756e74203d203000000000000000000000000000000000000000000000600082015250565b600061134e600a83611307565b915061135982611318565b602082019050919050565b6000602082019050818103600083015261137d81611341565b9050919050565b600060408201905061139960008301856111a4565b6113a660208301846110a7565b9392505050565b60008115159050919050565b6113c2816113ad565b81146113cd57600080fd5b50565b6000815190506113df816113b9565b92915050565b6000602082840312156113fb576113fa61100d565b5b6000611409848285016113d0565b91505092915050565b7f596f7520617265206e6f74206f776e6572000000000000000000000000000000600082015250565b6000611448601183611307565b915061145382611412565b602082019050919050565b600060208201905081810360008301526114778161143b565b9050919050565b7f7265776172642072617465203d20300000000000000000000000000000000000600082015250565b60006114b4600f83611307565b91506114bf8261147e565b602082019050919050565b600060208201905081810360008301526114e3816114a7565b9050919050565b7f72657761726420616d6f756e74203e2062616c616e6365000000000000000000600082015250565b6000611520601783611307565b915061152b826114ea565b602082019050919050565b6000602082019050818103600083015261154f81611513565b9050919050565b7f20616d6f756e74203d2030000000000000000000000000000000000000000000600082015250565b600061158c600b83611307565b915061159782611556565b602082019050919050565b600060208201905081810360008301526115bb8161157f565b9050919050565b60006060820190506115d760008301866111a4565b6115e460208301856111a4565b6115f160408301846110a7565b949350505050565b7f726577617264206475726174696f6e206e6f742066696e697368656400000000600082015250565b600061162f601c83611307565b915061163a826115f9565b602082019050919050565b6000602082019050818103600083015261165e81611622565b905091905056fea264697066735822122070d07a03f3e4cd842c605b8e39d8593c2dc74ddc10f9ee9db7802a58152a062264736f6c63430008130033",
					"opcodes": "PUSH1 0xA0 PUSH1 0x40 MSTORE CALLVALUE DUP1 ISZERO PUSH3 0x11 JUMPI PUSH1 0x0 DUP1 REVERT JUMPDEST POP PUSH1 0x40 MLOAD PUSH3 0x181A CODESIZE SUB DUP1 PUSH3 0x181A DUP4 CODECOPY DUP2 DUP2 ADD PUSH1 0x40 MSTORE DUP2 ADD SWAP1 PUSH3 0x37 SWAP2 SWAP1 PUSH3 0x11C JUMP JUMPDEST CALLER PUSH1 0x0 DUP1 PUSH2 0x100 EXP DUP2 SLOAD DUP2 PUSH20 0xFFFFFFFFFFFFFFFFFFFFFFFFFFFFFFFFFFFFFFFF MUL NOT AND SWAP1 DUP4 PUSH20 0xFFFFFFFFFFFFFFFFFFFFFFFFFFFFFFFFFFFFFFFF AND MUL OR SWAP1 SSTORE POP DUP1 PUSH20 0xFFFFFFFFFFFFFFFFFFFFFFFFFFFFFFFFFFFFFFFF AND PUSH1 0x80 DUP2 PUSH20 0xFFFFFFFFFFFFFFFFFFFFFFFFFFFFFFFFFFFFFFFF AND DUP2 MSTORE POP POP POP PUSH3 0x14E JUMP JUMPDEST PUSH1 0x0 DUP1 REVERT JUMPDEST PUSH1 0x0 PUSH20 0xFFFFFFFFFFFFFFFFFFFFFFFFFFFFFFFFFFFFFFFF DUP3 AND SWAP1 POP SWAP2 SWAP1 POP JUMP JUMPDEST PUSH1 0x0 PUSH3 0xE4 DUP3 PUSH3 0xB7 JUMP JUMPDEST SWAP1 POP SWAP2 SWAP1 POP JUMP JUMPDEST PUSH3 0xF6 DUP2 PUSH3 0xD7 JUMP JUMPDEST DUP2 EQ PUSH3 0x102 JUMPI PUSH1 0x0 DUP1 REVERT JUMPDEST POP JUMP JUMPDEST PUSH1 0x0 DUP2 MLOAD SWAP1 POP PUSH3 0x116 DUP2 PUSH3 0xEB JUMP JUMPDEST SWAP3 SWAP2 POP POP JUMP JUMPDEST PUSH1 0x0 PUSH1 0x20 DUP3 DUP5 SUB SLT ISZERO PUSH3 0x135 JUMPI PUSH3 0x134 PUSH3 0xB2 JUMP JUMPDEST JUMPDEST PUSH1 0x0 PUSH3 0x145 DUP5 DUP3 DUP6 ADD PUSH3 0x105 JUMP JUMPDEST SWAP2 POP POP SWAP3 SWAP2 POP POP JUMP JUMPDEST PUSH1 0x80 MLOAD PUSH2 0x169B PUSH3 0x17F PUSH1 0x0 CODECOPY PUSH1 0x0 DUP2 DUP2 PUSH2 0x631 ADD MSTORE DUP2 DUP2 PUSH2 0xB15 ADD MSTORE DUP2 DUP2 PUSH2 0xBEF ADD MSTORE PUSH2 0xD95 ADD MSTORE PUSH2 0x169B PUSH1 0x0 RETURN INVALID PUSH1 0x80 PUSH1 0x40 MSTORE CALLVALUE DUP1 ISZERO PUSH2 0x10 JUMPI PUSH1 0x0 DUP1 REVERT JUMPDEST POP PUSH1 0x4 CALLDATASIZE LT PUSH2 0x120 JUMPI PUSH1 0x0 CALLDATALOAD PUSH1 0xE0 SHR DUP1 PUSH4 0x72F702F3 GT PUSH2 0xAD JUMPI DUP1 PUSH4 0x8DA5CB5B GT PUSH2 0x71 JUMPI DUP1 PUSH4 0x8DA5CB5B EQ PUSH2 0x2F9 JUMPI DUP1 PUSH4 0xA694FC3A EQ PUSH2 0x317 JUMPI DUP1 PUSH4 0xC0ED00C9 EQ PUSH2 0x333 JUMPI DUP1 PUSH4 0xCD3DAF9D EQ PUSH2 0x34F JUMPI DUP1 PUSH4 0xDF136D65 EQ PUSH2 0x36D JUMPI PUSH2 0x120 JUMP JUMPDEST DUP1 PUSH4 0x72F702F3 EQ PUSH2 0x251 JUMPI DUP1 PUSH4 0x7519AB50 EQ PUSH2 0x26F JUMPI DUP1 PUSH4 0x7B0A47EE EQ PUSH2 0x28D JUMPI DUP1 PUSH4 0x80FAA57D EQ PUSH2 0x2AB JUMPI DUP1 PUSH4 0x8B876347 EQ PUSH2 0x2C9 JUMPI PUSH2 0x120 JUMP JUMPDEST DUP1 PUSH4 0x3C6B16AB GT PUSH2 0xF4 JUMPI DUP1 PUSH4 0x3C6B16AB EQ PUSH2 0x1AD JUMPI DUP1 PUSH4 0x3D18B912 EQ PUSH2 0x1C9 JUMPI DUP1 PUSH4 0x6353586B EQ PUSH2 0x1D3 JUMPI DUP1 PUSH4 0x67D3B488 EQ PUSH2 0x203 JUMPI DUP1 PUSH4 0x70A08231 EQ PUSH2 0x221 JUMPI PUSH2 0x120 JUMP JUMPDEST DUP1 PUSH3 0x8CC262 EQ PUSH2 0x125 JUMPI DUP1 PUSH4 0xFB5A6B4 EQ PUSH2 0x155 JUMPI DUP1 PUSH4 0x18160DDD EQ PUSH2 0x173 JUMPI DUP1 PUSH4 0x2E1A7D4D EQ PUSH2 0x191 JUMPI JUMPDEST PUSH1 0x0 DUP1 REVERT JUMPDEST PUSH2 0x13F PUSH1 0x4 DUP1 CALLDATASIZE SUB DUP2 ADD SWAP1 PUSH2 0x13A SWAP2 SWAP1 PUSH2 0x1070 JUMP JUMPDEST PUSH2 0x38B JUMP JUMPDEST PUSH1 0x40 MLOAD PUSH2 0x14C SWAP2 SWAP1 PUSH2 0x10B6 JUMP JUMPDEST PUSH1 0x40 MLOAD DUP1 SWAP2 SUB SWAP1 RETURN JUMPDEST PUSH2 0x15D PUSH2 0x48D JUMP JUMPDEST PUSH1 0x40 MLOAD PUSH2 0x16A SWAP2 SWAP1 PUSH2 0x10B6 JUMP JUMPDEST PUSH1 0x40 MLOAD DUP1 SWAP2 SUB SWAP1 RETURN JUMPDEST PUSH2 0x17B PUSH2 0x493 JUMP JUMPDEST PUSH1 0x40 MLOAD PUSH2 0x188 SWAP2 SWAP1 PUSH2 0x10B6 JUMP JUMPDEST PUSH1 0x40 MLOAD DUP1 SWAP2 SUB SWAP1 RETURN JUMPDEST PUSH2 0x1AB PUSH1 0x4 DUP1 CALLDATASIZE SUB DUP2 ADD SWAP1 PUSH2 0x1A6 SWAP2 SWAP1 PUSH2 0x10FD JUMP JUMPDEST PUSH2 0x499 JUMP JUMPDEST STOP JUMPDEST PUSH2 0x1C7 PUSH1 0x4 DUP1 CALLDATASIZE SUB DUP2 ADD SWAP1 PUSH2 0x1C2 SWAP2 SWAP1 PUSH2 0x10FD JUMP JUMPDEST PUSH2 0x6D2 JUMP JUMPDEST STOP JUMPDEST PUSH2 0x1D1 PUSH2 0x99D JUMP JUMPDEST STOP JUMPDEST PUSH2 0x1ED PUSH1 0x4 DUP1 CALLDATASIZE SUB DUP2 ADD SWAP1 PUSH2 0x1E8 SWAP2 SWAP1 PUSH2 0x1070 JUMP JUMPDEST PUSH2 0xBB7 JUMP JUMPDEST PUSH1 0x40 MLOAD PUSH2 0x1FA SWAP2 SWAP1 PUSH2 0x10B6 JUMP JUMPDEST PUSH1 0x40 MLOAD DUP1 SWAP2 SUB SWAP1 RETURN JUMPDEST PUSH2 0x20B PUSH2 0xBCF JUMP JUMPDEST PUSH1 0x40 MLOAD PUSH2 0x218 SWAP2 SWAP1 PUSH2 0x10B6 JUMP JUMPDEST PUSH1 0x40 MLOAD DUP1 SWAP2 SUB SWAP1 RETURN JUMPDEST PUSH2 0x23B PUSH1 0x4 DUP1 CALLDATASIZE SUB DUP2 ADD SWAP1 PUSH2 0x236 SWAP2 SWAP1 PUSH2 0x1070 JUMP JUMPDEST PUSH2 0xBD5 JUMP JUMPDEST PUSH1 0x40 MLOAD PUSH2 0x248 SWAP2 SWAP1 PUSH2 0x10B6 JUMP JUMPDEST PUSH1 0x40 MLOAD DUP1 SWAP2 SUB SWAP1 RETURN JUMPDEST PUSH2 0x259 PUSH2 0xBED JUMP JUMPDEST PUSH1 0x40 MLOAD PUSH2 0x266 SWAP2 SWAP1 PUSH2 0x1189 JUMP JUMPDEST PUSH1 0x40 MLOAD DUP1 SWAP2 SUB SWAP1 RETURN JUMPDEST PUSH2 0x277 PUSH2 0xC11 JUMP JUMPDEST PUSH1 0x40 MLOAD PUSH2 0x284 SWAP2 SWAP1 PUSH2 0x10B6 JUMP JUMPDEST PUSH1 0x40 MLOAD DUP1 SWAP2 SUB SWAP1 RETURN JUMPDEST PUSH2 0x295 PUSH2 0xC17 JUMP JUMPDEST PUSH1 0x40 MLOAD PUSH2 0x2A2 SWAP2 SWAP1 PUSH2 0x10B6 JUMP JUMPDEST PUSH1 0x40 MLOAD DUP1 SWAP2 SUB SWAP1 RETURN JUMPDEST PUSH2 0x2B3 PUSH2 0xC1D JUMP JUMPDEST PUSH1 0x40 MLOAD PUSH2 0x2C0 SWAP2 SWAP1 PUSH2 0x10B6 JUMP JUMPDEST PUSH1 0x40 MLOAD DUP1 SWAP2 SUB SWAP1 RETURN JUMPDEST PUSH2 0x2E3 PUSH1 0x4 DUP1 CALLDATASIZE SUB DUP2 ADD SWAP1 PUSH2 0x2DE SWAP2 SWAP1 PUSH2 0x1070 JUMP JUMPDEST PUSH2 0xC30 JUMP JUMPDEST PUSH1 0x40 MLOAD PUSH2 0x2F0 SWAP2 SWAP1 PUSH2 0x10B6 JUMP JUMPDEST PUSH1 0x40 MLOAD DUP1 SWAP2 SUB SWAP1 RETURN JUMPDEST PUSH2 0x301 PUSH2 0xC48 JUMP JUMPDEST PUSH1 0x40 MLOAD PUSH2 0x30E SWAP2 SWAP1 PUSH2 0x11B3 JUMP JUMPDEST PUSH1 0x40 MLOAD DUP1 SWAP2 SUB SWAP1 RETURN JUMPDEST PUSH2 0x331 PUSH1 0x4 DUP1 CALLDATASIZE SUB DUP2 ADD SWAP1 PUSH2 0x32C SWAP2 SWAP1 PUSH2 0x10FD JUMP JUMPDEST PUSH2 0xC6C JUMP JUMPDEST STOP JUMPDEST PUSH2 0x34D PUSH1 0x4 DUP1 CALLDATASIZE SUB DUP2 ADD SWAP1 PUSH2 0x348 SWAP2 SWAP1 PUSH2 0x10FD JUMP JUMPDEST PUSH2 0xEA7 JUMP JUMPDEST STOP JUMPDEST PUSH2 0x357 PUSH2 0xF83 JUMP JUMPDEST PUSH1 0x40 MLOAD PUSH2 0x364 SWAP2 SWAP1 PUSH2 0x10B6 JUMP JUMPDEST PUSH1 0x40 MLOAD DUP1 SWAP2 SUB SWAP1 RETURN JUMPDEST PUSH2 0x375 PUSH2 0xFED JUMP JUMPDEST PUSH1 0x40 MLOAD PUSH2 0x382 SWAP2 SWAP1 PUSH2 0x10B6 JUMP JUMPDEST PUSH1 0x40 MLOAD DUP1 SWAP2 SUB SWAP1 RETURN JUMPDEST PUSH1 0x0 PUSH1 0x7 PUSH1 0x0 DUP4 PUSH20 0xFFFFFFFFFFFFFFFFFFFFFFFFFFFFFFFFFFFFFFFF AND PUSH20 0xFFFFFFFFFFFFFFFFFFFFFFFFFFFFFFFFFFFFFFFF AND DUP2 MSTORE PUSH1 0x20 ADD SWAP1 DUP2 MSTORE PUSH1 0x20 ADD PUSH1 0x0 KECCAK256 SLOAD PUSH8 0xDE0B6B3A7640000 PUSH1 0x6 PUSH1 0x0 DUP6 PUSH20 0xFFFFFFFFFFFFFFFFFFFFFFFFFFFFFFFFFFFFFFFF AND PUSH20 0xFFFFFFFFFFFFFFFFFFFFFFFFFFFFFFFFFFFFFFFF AND DUP2 MSTORE PUSH1 0x20 ADD SWAP1 DUP2 MSTORE PUSH1 0x20 ADD PUSH1 0x0 KECCAK256 SLOAD PUSH2 0x41E PUSH2 0xF83 JUMP JUMPDEST PUSH2 0x428 SWAP2 SWAP1 PUSH2 0x11FD JUMP JUMPDEST PUSH1 0x9 PUSH1 0x0 DUP7 PUSH20 0xFFFFFFFFFFFFFFFFFFFFFFFFFFFFFFFFFFFFFFFF AND PUSH20 0xFFFFFFFFFFFFFFFFFFFFFFFFFFFFFFFFFFFFFFFF AND DUP2 MSTORE PUSH1 0x20 ADD SWAP1 DUP2 MSTORE PUSH1 0x20 ADD PUSH1 0x0 KECCAK256 SLOAD PUSH2 0x472 SWAP2 SWAP1 PUSH2 0x1231 JUMP JUMPDEST PUSH2 0x47C SWAP2 SWAP1 PUSH2 0x12A2 JUMP JUMPDEST PUSH2 0x486 SWAP2 SWAP1 PUSH2 0x12D3 JUMP JUMPDEST SWAP1 POP SWAP2 SWAP1 POP JUMP JUMPDEST PUSH1 0x1 SLOAD DUP2 JUMP JUMPDEST PUSH1 0x8 SLOAD DUP2 JUMP JUMPDEST CALLER PUSH2 0x4A2 PUSH2 0xF83 JUMP JUMPDEST PUSH1 0x5 DUP2 SWAP1 SSTORE POP PUSH2 0x4B0 PUSH2 0xC1D JUMP JUMPDEST PUSH1 0x3 DUP2 SWAP1 SSTORE POP PUSH1 0x0 PUSH20 0xFFFFFFFFFFFFFFFFFFFFFFFFFFFFFFFFFFFFFFFF AND DUP2 PUSH20 0xFFFFFFFFFFFFFFFFFFFFFFFFFFFFFFFFFFFFFFFF AND EQ PUSH2 0x57D JUMPI PUSH2 0x4F3 DUP2 PUSH2 0x38B JUMP JUMPDEST PUSH1 0x7 PUSH1 0x0 DUP4 PUSH20 0xFFFFFFFFFFFFFFFFFFFFFFFFFFFFFFFFFFFFFFFF AND PUSH20 0xFFFFFFFFFFFFFFFFFFFFFFFFFFFFFFFFFFFFFFFF AND DUP2 MSTORE PUSH1 0x20 ADD SWAP1 DUP2 MSTORE PUSH1 0x20 ADD PUSH1 0x0 KECCAK256 DUP2 SWAP1 SSTORE POP PUSH1 0x5 SLOAD PUSH1 0x6 PUSH1 0x0 DUP4 PUSH20 0xFFFFFFFFFFFFFFFFFFFFFFFFFFFFFFFFFFFFFFFF AND PUSH20 0xFFFFFFFFFFFFFFFFFFFFFFFFFFFFFFFFFFFFFFFF AND DUP2 MSTORE PUSH1 0x20 ADD SWAP1 DUP2 MSTORE PUSH1 0x20 ADD PUSH1 0x0 KECCAK256 DUP2 SWAP1 SSTORE POP JUMPDEST PUSH1 0x0 DUP3 GT PUSH2 0x5C0 JUMPI PUSH1 0x40 MLOAD PUSH32 0x8C379A000000000000000000000000000000000000000000000000000000000 DUP2 MSTORE PUSH1 0x4 ADD PUSH2 0x5B7 SWAP1 PUSH2 0x1364 JUMP JUMPDEST PUSH1 0x40 MLOAD DUP1 SWAP2 SUB SWAP1 REVERT JUMPDEST DUP2 PUSH1 0x9 PUSH1 0x0 CALLER PUSH20 0xFFFFFFFFFFFFFFFFFFFFFFFFFFFFFFFFFFFFFFFF AND PUSH20 0xFFFFFFFFFFFFFFFFFFFFFFFFFFFFFFFFFFFFFFFF AND DUP2 MSTORE PUSH1 0x20 ADD SWAP1 DUP2 MSTORE PUSH1 0x20 ADD PUSH1 0x0 KECCAK256 PUSH1 0x0 DUP3 DUP3 SLOAD PUSH2 0x60F SWAP2 SWAP1 PUSH2 0x11FD JUMP JUMPDEST SWAP3 POP POP DUP2 SWAP1 SSTORE POP DUP2 PUSH1 0x8 PUSH1 0x0 DUP3 DUP3 SLOAD PUSH2 0x628 SWAP2 SWAP1 PUSH2 0x11FD JUMP JUMPDEST SWAP3 POP POP DUP2 SWAP1 SSTORE POP PUSH32 0x0 PUSH20 0xFFFFFFFFFFFFFFFFFFFFFFFFFFFFFFFFFFFFFFFF AND PUSH4 0xA9059CBB CALLER DUP5 PUSH1 0x40 MLOAD DUP4 PUSH4 0xFFFFFFFF AND PUSH1 0xE0 SHL DUP2 MSTORE PUSH1 0x4 ADD PUSH2 0x68A SWAP3 SWAP2 SWAP1 PUSH2 0x1384 JUMP JUMPDEST PUSH1 0x20 PUSH1 0x40 MLOAD DUP1 DUP4 SUB DUP2 PUSH1 0x0 DUP8 GAS CALL ISZERO DUP1 ISZERO PUSH2 0x6A9 JUMPI RETURNDATASIZE PUSH1 0x0 DUP1 RETURNDATACOPY RETURNDATASIZE PUSH1 0x0 REVERT JUMPDEST POP POP POP POP PUSH1 0x40 MLOAD RETURNDATASIZE PUSH1 0x1F NOT PUSH1 0x1F DUP3 ADD AND DUP3 ADD DUP1 PUSH1 0x40 MSTORE POP DUP2 ADD SWAP1 PUSH2 0x6CD SWAP2 SWAP1 PUSH2 0x13E5 JUMP JUMPDEST POP POP POP JUMP JUMPDEST PUSH1 0x0 DUP1 SLOAD SWAP1 PUSH2 0x100 EXP SWAP1 DIV PUSH20 0xFFFFFFFFFFFFFFFFFFFFFFFFFFFFFFFFFFFFFFFF AND PUSH20 0xFFFFFFFFFFFFFFFFFFFFFFFFFFFFFFFFFFFFFFFF AND CALLER PUSH20 0xFFFFFFFFFFFFFFFFFFFFFFFFFFFFFFFFFFFFFFFF AND EQ PUSH2 0x760 JUMPI PUSH1 0x40 MLOAD PUSH32 0x8C379A000000000000000000000000000000000000000000000000000000000 DUP2 MSTORE PUSH1 0x4 ADD PUSH2 0x757 SWAP1 PUSH2 0x145E JUMP JUMPDEST PUSH1 0x40 MLOAD DUP1 SWAP2 SUB SWAP1 REVERT JUMPDEST PUSH1 0x0 PUSH2 0x76A PUSH2 0xF83 JUMP JUMPDEST PUSH1 0x5 DUP2 SWAP1 SSTORE POP PUSH2 0x778 PUSH2 0xC1D JUMP JUMPDEST PUSH1 0x3 DUP2 SWAP1 SSTORE POP PUSH1 0x0 PUSH20 0xFFFFFFFFFFFFFFFFFFFFFFFFFFFFFFFFFFFFFFFF AND DUP2 PUSH20 0xFFFFFFFFFFFFFFFFFFFFFFFFFFFFFFFFFFFFFFFF AND EQ PUSH2 0x845 JUMPI PUSH2 0x7BB DUP2 PUSH2 0x38B JUMP JUMPDEST PUSH1 0x7 PUSH1 0x0 DUP4 PUSH20 0xFFFFFFFFFFFFFFFFFFFFFFFFFFFFFFFFFFFFFFFF AND PUSH20 0xFFFFFFFFFFFFFFFFFFFFFFFFFFFFFFFFFFFFFFFF AND DUP2 MSTORE PUSH1 0x20 ADD SWAP1 DUP2 MSTORE PUSH1 0x20 ADD PUSH1 0x0 KECCAK256 DUP2 SWAP1 SSTORE POP PUSH1 0x5 SLOAD PUSH1 0x6 PUSH1 0x0 DUP4 PUSH20 0xFFFFFFFFFFFFFFFFFFFFFFFFFFFFFFFFFFFFFFFF AND PUSH20 0xFFFFFFFFFFFFFFFFFFFFFFFFFFFFFFFFFFFFFFFF AND DUP2 MSTORE PUSH1 0x20 ADD SWAP1 DUP2 MSTORE PUSH1 0x20 ADD PUSH1 0x0 KECCAK256 DUP2 SWAP1 SSTORE POP JUMPDEST PUSH1 0x2 SLOAD TIMESTAMP GT ISZERO PUSH2 0x868 JUMPI PUSH1 0x1 SLOAD DUP3 PUSH2 0x85D SWAP2 SWAP1 PUSH2 0x12A2 JUMP JUMPDEST PUSH1 0x4 DUP2 SWAP1 SSTORE POP PUSH2 0x8A8 JUMP JUMPDEST PUSH1 0x0 TIMESTAMP PUSH1 0x2 SLOAD PUSH2 0x878 SWAP2 SWAP1 PUSH2 0x11FD JUMP JUMPDEST PUSH1 0x4 SLOAD PUSH2 0x885 SWAP2 SWAP1 PUSH2 0x1231 JUMP JUMPDEST SWAP1 POP PUSH1 0x1 SLOAD DUP4 DUP3 PUSH2 0x896 SWAP2 SWAP1 PUSH2 0x12D3 JUMP JUMPDEST PUSH2 0x8A0 SWAP2 SWAP1 PUSH2 0x12A2 JUMP JUMPDEST PUSH1 0x4 DUP2 SWAP1 SSTORE POP POP JUMPDEST PUSH1 0x0 PUSH1 0x4 SLOAD GT PUSH2 0x8ED JUMPI PUSH1 0x40 MLOAD PUSH32 0x8C379A000000000000000000000000000000000000000000000000000000000 DUP2 MSTORE PUSH1 0x4 ADD PUSH2 0x8E4 SWAP1 PUSH2 0x14CA JUMP JUMPDEST PUSH1 0x40 MLOAD DUP1 SWAP2 SUB SWAP1 REVERT JUMPDEST PUSH1 0x9 PUSH1 0x0 ADDRESS PUSH20 0xFFFFFFFFFFFFFFFFFFFFFFFFFFFFFFFFFFFFFFFF AND PUSH20 0xFFFFFFFFFFFFFFFFFFFFFFFFFFFFFFFFFFFFFFFF AND DUP2 MSTORE PUSH1 0x20 ADD SWAP1 DUP2 MSTORE PUSH1 0x20 ADD PUSH1 0x0 KECCAK256 SLOAD PUSH1 0x1 SLOAD PUSH1 0x4 SLOAD PUSH2 0x93D SWAP2 SWAP1 PUSH2 0x1231 JUMP JUMPDEST GT ISZERO PUSH2 0x97E JUMPI PUSH1 0x40 MLOAD PUSH32 0x8C379A000000000000000000000000000000000000000000000000000000000 DUP2 MSTORE PUSH1 0x4 ADD PUSH2 0x975 SWAP1 PUSH2 0x1536 JUMP JUMPDEST PUSH1 0x40 MLOAD DUP1 SWAP2 SUB SWAP1 REVERT JUMPDEST PUSH1 0x1 SLOAD TIMESTAMP PUSH2 0x98C SWAP2 SWAP1 PUSH2 0x12D3 JUMP JUMPDEST PUSH1 0x2 DUP2 SWAP1 SSTORE POP TIMESTAMP PUSH1 0x3 DUP2 SWAP1 SSTORE POP POP POP JUMP JUMPDEST CALLER PUSH2 0x9A6 PUSH2 0xF83 JUMP JUMPDEST PUSH1 0x5 DUP2 SWAP1 SSTORE POP PUSH2 0x9B4 PUSH2 0xC1D JUMP JUMPDEST PUSH1 0x3 DUP2 SWAP1 SSTORE POP PUSH1 0x0 PUSH20 0xFFFFFFFFFFFFFFFFFFFFFFFFFFFFFFFFFFFFFFFF AND DUP2 PUSH20 0xFFFFFFFFFFFFFFFFFFFFFFFFFFFFFFFFFFFFFFFF AND EQ PUSH2 0xA81 JUMPI PUSH2 0x9F7 DUP2 PUSH2 0x38B JUMP JUMPDEST PUSH1 0x7 PUSH1 0x0 DUP4 PUSH20 0xFFFFFFFFFFFFFFFFFFFFFFFFFFFFFFFFFFFFFFFF AND PUSH20 0xFFFFFFFFFFFFFFFFFFFFFFFFFFFFFFFFFFFFFFFF AND DUP2 MSTORE PUSH1 0x20 ADD SWAP1 DUP2 MSTORE PUSH1 0x20 ADD PUSH1 0x0 KECCAK256 DUP2 SWAP1 SSTORE POP PUSH1 0x5 SLOAD PUSH1 0x6 PUSH1 0x0 DUP4 PUSH20 0xFFFFFFFFFFFFFFFFFFFFFFFFFFFFFFFFFFFFFFFF AND PUSH20 0xFFFFFFFFFFFFFFFFFFFFFFFFFFFFFFFFFFFFFFFF AND DUP2 MSTORE PUSH1 0x20 ADD SWAP1 DUP2 MSTORE PUSH1 0x20 ADD PUSH1 0x0 KECCAK256 DUP2 SWAP1 SSTORE POP JUMPDEST PUSH1 0x0 PUSH1 0x7 PUSH1 0x0 CALLER PUSH20 0xFFFFFFFFFFFFFFFFFFFFFFFFFFFFFFFFFFFFFFFF AND PUSH20 0xFFFFFFFFFFFFFFFFFFFFFFFFFFFFFFFFFFFFFFFF AND DUP2 MSTORE PUSH1 0x20 ADD SWAP1 DUP2 MSTORE PUSH1 0x20 ADD PUSH1 0x0 KECCAK256 SLOAD SWAP1 POP PUSH1 0x0 DUP2 GT ISZERO PUSH2 0xBB3 JUMPI PUSH1 0x0 PUSH1 0x7 PUSH1 0x0 CALLER PUSH20 0xFFFFFFFFFFFFFFFFFFFFFFFFFFFFFFFFFFFFFFFF AND PUSH20 0xFFFFFFFFFFFFFFFFFFFFFFFFFFFFFFFFFFFFFFFF AND DUP2 MSTORE PUSH1 0x20 ADD SWAP1 DUP2 MSTORE PUSH1 0x20 ADD PUSH1 0x0 KECCAK256 DUP2 SWAP1 SSTORE POP PUSH32 0x0 PUSH20 0xFFFFFFFFFFFFFFFFFFFFFFFFFFFFFFFFFFFFFFFF AND PUSH4 0xA9059CBB CALLER DUP4 PUSH1 0x40 MLOAD DUP4 PUSH4 0xFFFFFFFF AND PUSH1 0xE0 SHL DUP2 MSTORE PUSH1 0x4 ADD PUSH2 0xB6E SWAP3 SWAP2 SWAP1 PUSH2 0x1384 JUMP JUMPDEST PUSH1 0x20 PUSH1 0x40 MLOAD DUP1 DUP4 SUB DUP2 PUSH1 0x0 DUP8 GAS CALL ISZERO DUP1 ISZERO PUSH2 0xB8D JUMPI RETURNDATASIZE PUSH1 0x0 DUP1 RETURNDATACOPY RETURNDATASIZE PUSH1 0x0 REVERT JUMPDEST POP POP POP POP PUSH1 0x40 MLOAD RETURNDATASIZE PUSH1 0x1F NOT PUSH1 0x1F DUP3 ADD AND DUP3 ADD DUP1 PUSH1 0x40 MSTORE POP DUP2 ADD SWAP1 PUSH2 0xBB1 SWAP2 SWAP1 PUSH2 0x13E5 JUMP JUMPDEST POP JUMPDEST POP POP JUMP JUMPDEST PUSH1 0x7 PUSH1 0x20 MSTORE DUP1 PUSH1 0x0 MSTORE PUSH1 0x40 PUSH1 0x0 KECCAK256 PUSH1 0x0 SWAP2 POP SWAP1 POP SLOAD DUP2 JUMP JUMPDEST PUSH1 0x2 SLOAD DUP2 JUMP JUMPDEST PUSH1 0x9 PUSH1 0x20 MSTORE DUP1 PUSH1 0x0 MSTORE PUSH1 0x40 PUSH1 0x0 KECCAK256 PUSH1 0x0 SWAP2 POP SWAP1 POP SLOAD DUP2 JUMP JUMPDEST PUSH32 0x0 DUP2 JUMP JUMPDEST PUSH1 0x3 SLOAD DUP2 JUMP JUMPDEST PUSH1 0x4 SLOAD DUP2 JUMP JUMPDEST PUSH1 0x0 PUSH2 0xC2B PUSH1 0x2 SLOAD TIMESTAMP PUSH2 0xFF3 JUMP JUMPDEST SWAP1 POP SWAP1 JUMP JUMPDEST PUSH1 0x6 PUSH1 0x20 MSTORE DUP1 PUSH1 0x0 MSTORE PUSH1 0x40 PUSH1 0x0 KECCAK256 PUSH1 0x0 SWAP2 POP SWAP1 POP SLOAD DUP2 JUMP JUMPDEST PUSH1 0x0 DUP1 SLOAD SWAP1 PUSH2 0x100 EXP SWAP1 DIV PUSH20 0xFFFFFFFFFFFFFFFFFFFFFFFFFFFFFFFFFFFFFFFF AND DUP2 JUMP JUMPDEST CALLER PUSH2 0xC75 PUSH2 0xF83 JUMP JUMPDEST PUSH1 0x5 DUP2 SWAP1 SSTORE POP PUSH2 0xC83 PUSH2 0xC1D JUMP JUMPDEST PUSH1 0x3 DUP2 SWAP1 SSTORE POP PUSH1 0x0 PUSH20 0xFFFFFFFFFFFFFFFFFFFFFFFFFFFFFFFFFFFFFFFF AND DUP2 PUSH20 0xFFFFFFFFFFFFFFFFFFFFFFFFFFFFFFFFFFFFFFFF AND EQ PUSH2 0xD50 JUMPI PUSH2 0xCC6 DUP2 PUSH2 0x38B JUMP JUMPDEST PUSH1 0x7 PUSH1 0x0 DUP4 PUSH20 0xFFFFFFFFFFFFFFFFFFFFFFFFFFFFFFFFFFFFFFFF AND PUSH20 0xFFFFFFFFFFFFFFFFFFFFFFFFFFFFFFFFFFFFFFFF AND DUP2 MSTORE PUSH1 0x20 ADD SWAP1 DUP2 MSTORE PUSH1 0x20 ADD PUSH1 0x0 KECCAK256 DUP2 SWAP1 SSTORE POP PUSH1 0x5 SLOAD PUSH1 0x6 PUSH1 0x0 DUP4 PUSH20 0xFFFFFFFFFFFFFFFFFFFFFFFFFFFFFFFFFFFFFFFF AND PUSH20 0xFFFFFFFFFFFFFFFFFFFFFFFFFFFFFFFFFFFFFFFF AND DUP2 MSTORE PUSH1 0x20 ADD SWAP1 DUP2 MSTORE PUSH1 0x20 ADD PUSH1 0x0 KECCAK256 DUP2 SWAP1 SSTORE POP JUMPDEST PUSH1 0x0 DUP3 GT PUSH2 0xD93 JUMPI PUSH1 0x40 MLOAD PUSH32 0x8C379A000000000000000000000000000000000000000000000000000000000 DUP2 MSTORE PUSH1 0x4 ADD PUSH2 0xD8A SWAP1 PUSH2 0x15A2 JUMP JUMPDEST PUSH1 0x40 MLOAD DUP1 SWAP2 SUB SWAP1 REVERT JUMPDEST PUSH32 0x0 PUSH20 0xFFFFFFFFFFFFFFFFFFFFFFFFFFFFFFFFFFFFFFFF AND PUSH4 0x23B872DD CALLER ADDRESS DUP6 PUSH1 0x40 MLOAD DUP5 PUSH4 0xFFFFFFFF AND PUSH1 0xE0 SHL DUP2 MSTORE PUSH1 0x4 ADD PUSH2 0xDF0 SWAP4 SWAP3 SWAP2 SWAP1 PUSH2 0x15C2 JUMP JUMPDEST PUSH1 0x20 PUSH1 0x40 MLOAD DUP1 DUP4 SUB DUP2 PUSH1 0x0 DUP8 GAS CALL ISZERO DUP1 ISZERO PUSH2 0xE0F JUMPI RETURNDATASIZE PUSH1 0x0 DUP1 RETURNDATACOPY RETURNDATASIZE PUSH1 0x0 REVERT JUMPDEST POP POP POP POP PUSH1 0x40 MLOAD RETURNDATASIZE PUSH1 0x1F NOT PUSH1 0x1F DUP3 ADD AND DUP3 ADD DUP1 PUSH1 0x40 MSTORE POP DUP2 ADD SWAP1 PUSH2 0xE33 SWAP2 SWAP1 PUSH2 0x13E5 JUMP JUMPDEST POP DUP2 PUSH1 0x9 PUSH1 0x0 CALLER PUSH20 0xFFFFFFFFFFFFFFFFFFFFFFFFFFFFFFFFFFFFFFFF AND PUSH20 0xFFFFFFFFFFFFFFFFFFFFFFFFFFFFFFFFFFFFFFFF AND DUP2 MSTORE PUSH1 0x20 ADD SWAP1 DUP2 MSTORE PUSH1 0x20 ADD PUSH1 0x0 KECCAK256 PUSH1 0x0 DUP3 DUP3 SLOAD PUSH2 0xE83 SWAP2 SWAP1 PUSH2 0x12D3 JUMP JUMPDEST SWAP3 POP POP DUP2 SWAP1 SSTORE POP DUP2 PUSH1 0x8 PUSH1 0x0 DUP3 DUP3 SLOAD PUSH2 0xE9C SWAP2 SWAP1 PUSH2 0x12D3 JUMP JUMPDEST SWAP3 POP POP DUP2 SWAP1 SSTORE POP POP POP JUMP JUMPDEST PUSH1 0x0 DUP1 SLOAD SWAP1 PUSH2 0x100 EXP SWAP1 DIV PUSH20 0xFFFFFFFFFFFFFFFFFFFFFFFFFFFFFFFFFFFFFFFF AND PUSH20 0xFFFFFFFFFFFFFFFFFFFFFFFFFFFFFFFFFFFFFFFF AND CALLER PUSH20 0xFFFFFFFFFFFFFFFFFFFFFFFFFFFFFFFFFFFFFFFF AND EQ PUSH2 0xF35 JUMPI PUSH1 0x40 MLOAD PUSH32 0x8C379A000000000000000000000000000000000000000000000000000000000 DUP2 MSTORE PUSH1 0x4 ADD PUSH2 0xF2C SWAP1 PUSH2 0x145E JUMP JUMPDEST PUSH1 0x40 MLOAD DUP1 SWAP2 SUB SWAP1 REVERT JUMPDEST TIMESTAMP PUSH1 0x2 SLOAD LT PUSH2 0xF79 JUMPI PUSH1 0x40 MLOAD PUSH32 0x8C379A000000000000000000000000000000000000000000000000000000000 DUP2 MSTORE PUSH1 0x4 ADD PUSH2 0xF70 SWAP1 PUSH2 0x1645 JUMP JUMPDEST PUSH1 0x40 MLOAD DUP1 SWAP2 SUB SWAP1 REVERT JUMPDEST DUP1 PUSH1 0x1 DUP2 SWAP1 SSTORE POP POP JUMP JUMPDEST PUSH1 0x0 DUP1 PUSH1 0x8 SLOAD SUB PUSH2 0xF98 JUMPI PUSH1 0x5 SLOAD SWAP1 POP PUSH2 0xFEA JUMP JUMPDEST PUSH1 0x8 SLOAD PUSH8 0xDE0B6B3A7640000 PUSH1 0x3 SLOAD PUSH2 0xFAF PUSH2 0xC1D JUMP JUMPDEST PUSH2 0xFB9 SWAP2 SWAP1 PUSH2 0x11FD JUMP JUMPDEST PUSH1 0x4 SLOAD PUSH2 0xFC6 SWAP2 SWAP1 PUSH2 0x1231 JUMP JUMPDEST PUSH2 0xFD0 SWAP2 SWAP1 PUSH2 0x1231 JUMP JUMPDEST PUSH2 0xFDA SWAP2 SWAP1 PUSH2 0x12A2 JUMP JUMPDEST PUSH1 0x5 SLOAD PUSH2 0xFE7 SWAP2 SWAP1 PUSH2 0x12D3 JUMP JUMPDEST SWAP1 POP JUMPDEST SWAP1 JUMP JUMPDEST PUSH1 0x5 SLOAD DUP2 JUMP JUMPDEST PUSH1 0x0 DUP2 DUP4 GT ISZERO PUSH2 0x1003 JUMPI DUP2 PUSH2 0x1005 JUMP JUMPDEST DUP3 JUMPDEST SWAP1 POP SWAP3 SWAP2 POP POP JUMP JUMPDEST PUSH1 0x0 DUP1 REVERT JUMPDEST PUSH1 0x0 PUSH20 0xFFFFFFFFFFFFFFFFFFFFFFFFFFFFFFFFFFFFFFFF DUP3 AND SWAP1 POP SWAP2 SWAP1 POP JUMP JUMPDEST PUSH1 0x0 PUSH2 0x103D DUP3 PUSH2 0x1012 JUMP JUMPDEST SWAP1 POP SWAP2 SWAP1 POP JUMP JUMPDEST PUSH2 0x104D DUP2 PUSH2 0x1032 JUMP JUMPDEST DUP2 EQ PUSH2 0x1058 JUMPI PUSH1 0x0 DUP1 REVERT JUMPDEST POP JUMP JUMPDEST PUSH1 0x0 DUP2 CALLDATALOAD SWAP1 POP PUSH2 0x106A DUP2 PUSH2 0x1044 JUMP JUMPDEST SWAP3 SWAP2 POP POP JUMP JUMPDEST PUSH1 0x0 PUSH1 0x20 DUP3 DUP5 SUB SLT ISZERO PUSH2 0x1086 JUMPI PUSH2 0x1085 PUSH2 0x100D JUMP JUMPDEST JUMPDEST PUSH1 0x0 PUSH2 0x1094 DUP5 DUP3 DUP6 ADD PUSH2 0x105B JUMP JUMPDEST SWAP2 POP POP SWAP3 SWAP2 POP POP JUMP JUMPDEST PUSH1 0x0 DUP2 SWAP1 POP SWAP2 SWAP1 POP JUMP JUMPDEST PUSH2 0x10B0 DUP2 PUSH2 0x109D JUMP JUMPDEST DUP3 MSTORE POP POP JUMP JUMPDEST PUSH1 0x0 PUSH1 0x20 DUP3 ADD SWAP1 POP PUSH2 0x10CB PUSH1 0x0 DUP4 ADD DUP5 PUSH2 0x10A7 JUMP JUMPDEST SWAP3 SWAP2 POP POP JUMP JUMPDEST PUSH2 0x10DA DUP2 PUSH2 0x109D JUMP JUMPDEST DUP2 EQ PUSH2 0x10E5 JUMPI PUSH1 0x0 DUP1 REVERT JUMPDEST POP JUMP JUMPDEST PUSH1 0x0 DUP2 CALLDATALOAD SWAP1 POP PUSH2 0x10F7 DUP2 PUSH2 0x10D1 JUMP JUMPDEST SWAP3 SWAP2 POP POP JUMP JUMPDEST PUSH1 0x0 PUSH1 0x20 DUP3 DUP5 SUB SLT ISZERO PUSH2 0x1113 JUMPI PUSH2 0x1112 PUSH2 0x100D JUMP JUMPDEST JUMPDEST PUSH1 0x0 PUSH2 0x1121 DUP5 DUP3 DUP6 ADD PUSH2 0x10E8 JUMP JUMPDEST SWAP2 POP POP SWAP3 SWAP2 POP POP JUMP JUMPDEST PUSH1 0x0 DUP2 SWAP1 POP SWAP2 SWAP1 POP JUMP JUMPDEST PUSH1 0x0 PUSH2 0x114F PUSH2 0x114A PUSH2 0x1145 DUP5 PUSH2 0x1012 JUMP JUMPDEST PUSH2 0x112A JUMP JUMPDEST PUSH2 0x1012 JUMP JUMPDEST SWAP1 POP SWAP2 SWAP1 POP JUMP JUMPDEST PUSH1 0x0 PUSH2 0x1161 DUP3 PUSH2 0x1134 JUMP JUMPDEST SWAP1 POP SWAP2 SWAP1 POP JUMP JUMPDEST PUSH1 0x0 PUSH2 0x1173 DUP3 PUSH2 0x1156 JUMP JUMPDEST SWAP1 POP SWAP2 SWAP1 POP JUMP JUMPDEST PUSH2 0x1183 DUP2 PUSH2 0x1168 JUMP JUMPDEST DUP3 MSTORE POP POP JUMP JUMPDEST PUSH1 0x0 PUSH1 0x20 DUP3 ADD SWAP1 POP PUSH2 0x119E PUSH1 0x0 DUP4 ADD DUP5 PUSH2 0x117A JUMP JUMPDEST SWAP3 SWAP2 POP POP JUMP JUMPDEST PUSH2 0x11AD DUP2 PUSH2 0x1032 JUMP JUMPDEST DUP3 MSTORE POP POP JUMP JUMPDEST PUSH1 0x0 PUSH1 0x20 DUP3 ADD SWAP1 POP PUSH2 0x11C8 PUSH1 0x0 DUP4 ADD DUP5 PUSH2 0x11A4 JUMP JUMPDEST SWAP3 SWAP2 POP POP JUMP JUMPDEST PUSH32 0x4E487B7100000000000000000000000000000000000000000000000000000000 PUSH1 0x0 MSTORE PUSH1 0x11 PUSH1 0x4 MSTORE PUSH1 0x24 PUSH1 0x0 REVERT JUMPDEST PUSH1 0x0 PUSH2 0x1208 DUP3 PUSH2 0x109D JUMP JUMPDEST SWAP2 POP PUSH2 0x1213 DUP4 PUSH2 0x109D JUMP JUMPDEST SWAP3 POP DUP3 DUP3 SUB SWAP1 POP DUP2 DUP2 GT ISZERO PUSH2 0x122B JUMPI PUSH2 0x122A PUSH2 0x11CE JUMP JUMPDEST JUMPDEST SWAP3 SWAP2 POP POP JUMP JUMPDEST PUSH1 0x0 PUSH2 0x123C DUP3 PUSH2 0x109D JUMP JUMPDEST SWAP2 POP PUSH2 0x1247 DUP4 PUSH2 0x109D JUMP JUMPDEST SWAP3 POP DUP3 DUP3 MUL PUSH2 0x1255 DUP2 PUSH2 0x109D JUMP JUMPDEST SWAP2 POP DUP3 DUP3 DIV DUP5 EQ DUP4 ISZERO OR PUSH2 0x126C JUMPI PUSH2 0x126B PUSH2 0x11CE JUMP JUMPDEST JUMPDEST POP SWAP3 SWAP2 POP POP JUMP JUMPDEST PUSH32 0x4E487B7100000000000000000000000000000000000000000000000000000000 PUSH1 0x0 MSTORE PUSH1 0x12 PUSH1 0x4 MSTORE PUSH1 0x24 PUSH1 0x0 REVERT JUMPDEST PUSH1 0x0 PUSH2 0x12AD DUP3 PUSH2 0x109D JUMP JUMPDEST SWAP2 POP PUSH2 0x12B8 DUP4 PUSH2 0x109D JUMP JUMPDEST SWAP3 POP DUP3 PUSH2 0x12C8 JUMPI PUSH2 0x12C7 PUSH2 0x1273 JUMP JUMPDEST JUMPDEST DUP3 DUP3 DIV SWAP1 POP SWAP3 SWAP2 POP POP JUMP JUMPDEST PUSH1 0x0 PUSH2 0x12DE DUP3 PUSH2 0x109D JUMP JUMPDEST SWAP2 POP PUSH2 0x12E9 DUP4 PUSH2 0x109D JUMP JUMPDEST SWAP3 POP DUP3 DUP3 ADD SWAP1 POP DUP1 DUP3 GT ISZERO PUSH2 0x1301 JUMPI PUSH2 0x1300 PUSH2 0x11CE JUMP JUMPDEST JUMPDEST SWAP3 SWAP2 POP POP JUMP JUMPDEST PUSH1 0x0 DUP3 DUP3 MSTORE PUSH1 0x20 DUP3 ADD SWAP1 POP SWAP3 SWAP2 POP POP JUMP JUMPDEST PUSH32 0x616D6F756E74203D203000000000000000000000000000000000000000000000 PUSH1 0x0 DUP3 ADD MSTORE POP JUMP JUMPDEST PUSH1 0x0 PUSH2 0x134E PUSH1 0xA DUP4 PUSH2 0x1307 JUMP JUMPDEST SWAP2 POP PUSH2 0x1359 DUP3 PUSH2 0x1318 JUMP JUMPDEST PUSH1 0x20 DUP3 ADD SWAP1 POP SWAP2 SWAP1 POP JUMP JUMPDEST PUSH1 0x0 PUSH1 0x20 DUP3 ADD SWAP1 POP DUP2 DUP2 SUB PUSH1 0x0 DUP4 ADD MSTORE PUSH2 0x137D DUP2 PUSH2 0x1341 JUMP JUMPDEST SWAP1 POP SWAP2 SWAP1 POP JUMP JUMPDEST PUSH1 0x0 PUSH1 0x40 DUP3 ADD SWAP1 POP PUSH2 0x1399 PUSH1 0x0 DUP4 ADD DUP6 PUSH2 0x11A4 JUMP JUMPDEST PUSH2 0x13A6 PUSH1 0x20 DUP4 ADD DUP5 PUSH2 0x10A7 JUMP JUMPDEST SWAP4 SWAP3 POP POP POP JUMP JUMPDEST PUSH1 0x0 DUP2 ISZERO ISZERO SWAP1 POP SWAP2 SWAP1 POP JUMP JUMPDEST PUSH2 0x13C2 DUP2 PUSH2 0x13AD JUMP JUMPDEST DUP2 EQ PUSH2 0x13CD JUMPI PUSH1 0x0 DUP1 REVERT JUMPDEST POP JUMP JUMPDEST PUSH1 0x0 DUP2 MLOAD SWAP1 POP PUSH2 0x13DF DUP2 PUSH2 0x13B9 JUMP JUMPDEST SWAP3 SWAP2 POP POP JUMP JUMPDEST PUSH1 0x0 PUSH1 0x20 DUP3 DUP5 SUB SLT ISZERO PUSH2 0x13FB JUMPI PUSH2 0x13FA PUSH2 0x100D JUMP JUMPDEST JUMPDEST PUSH1 0x0 PUSH2 0x1409 DUP5 DUP3 DUP6 ADD PUSH2 0x13D0 JUMP JUMPDEST SWAP2 POP POP SWAP3 SWAP2 POP POP JUMP JUMPDEST PUSH32 0x596F7520617265206E6F74206F776E6572000000000000000000000000000000 PUSH1 0x0 DUP3 ADD MSTORE POP JUMP JUMPDEST PUSH1 0x0 PUSH2 0x1448 PUSH1 0x11 DUP4 PUSH2 0x1307 JUMP JUMPDEST SWAP2 POP PUSH2 0x1453 DUP3 PUSH2 0x1412 JUMP JUMPDEST PUSH1 0x20 DUP3 ADD SWAP1 POP SWAP2 SWAP1 POP JUMP JUMPDEST PUSH1 0x0 PUSH1 0x20 DUP3 ADD SWAP1 POP DUP2 DUP2 SUB PUSH1 0x0 DUP4 ADD MSTORE PUSH2 0x1477 DUP2 PUSH2 0x143B JUMP JUMPDEST SWAP1 POP SWAP2 SWAP1 POP JUMP JUMPDEST PUSH32 0x7265776172642072617465203D20300000000000000000000000000000000000 PUSH1 0x0 DUP3 ADD MSTORE POP JUMP JUMPDEST PUSH1 0x0 PUSH2 0x14B4 PUSH1 0xF DUP4 PUSH2 0x1307 JUMP JUMPDEST SWAP2 POP PUSH2 0x14BF DUP3 PUSH2 0x147E JUMP JUMPDEST PUSH1 0x20 DUP3 ADD SWAP1 POP SWAP2 SWAP1 POP JUMP JUMPDEST PUSH1 0x0 PUSH1 0x20 DUP3 ADD SWAP1 POP DUP2 DUP2 SUB PUSH1 0x0 DUP4 ADD MSTORE PUSH2 0x14E3 DUP2 PUSH2 0x14A7 JUMP JUMPDEST SWAP1 POP SWAP2 SWAP1 POP JUMP JUMPDEST PUSH32 0x72657761726420616D6F756E74203E2062616C616E6365000000000000000000 PUSH1 0x0 DUP3 ADD MSTORE POP JUMP JUMPDEST PUSH1 0x0 PUSH2 0x1520 PUSH1 0x17 DUP4 PUSH2 0x1307 JUMP JUMPDEST SWAP2 POP PUSH2 0x152B DUP3 PUSH2 0x14EA JUMP JUMPDEST PUSH1 0x20 DUP3 ADD SWAP1 POP SWAP2 SWAP1 POP JUMP JUMPDEST PUSH1 0x0 PUSH1 0x20 DUP3 ADD SWAP1 POP DUP2 DUP2 SUB PUSH1 0x0 DUP4 ADD MSTORE PUSH2 0x154F DUP2 PUSH2 0x1513 JUMP JUMPDEST SWAP1 POP SWAP2 SWAP1 POP JUMP JUMPDEST PUSH32 0x20616D6F756E74203D2030000000000000000000000000000000000000000000 PUSH1 0x0 DUP3 ADD MSTORE POP JUMP JUMPDEST PUSH1 0x0 PUSH2 0x158C PUSH1 0xB DUP4 PUSH2 0x1307 JUMP JUMPDEST SWAP2 POP PUSH2 0x1597 DUP3 PUSH2 0x1556 JUMP JUMPDEST PUSH1 0x20 DUP3 ADD SWAP1 POP SWAP2 SWAP1 POP JUMP JUMPDEST PUSH1 0x0 PUSH1 0x20 DUP3 ADD SWAP1 POP DUP2 DUP2 SUB PUSH1 0x0 DUP4 ADD MSTORE PUSH2 0x15BB DUP2 PUSH2 0x157F JUMP JUMPDEST SWAP1 POP SWAP2 SWAP1 POP JUMP JUMPDEST PUSH1 0x0 PUSH1 0x60 DUP3 ADD SWAP1 POP PUSH2 0x15D7 PUSH1 0x0 DUP4 ADD DUP7 PUSH2 0x11A4 JUMP JUMPDEST PUSH2 0x15E4 PUSH1 0x20 DUP4 ADD DUP6 PUSH2 0x11A4 JUMP JUMPDEST PUSH2 0x15F1 PUSH1 0x40 DUP4 ADD DUP5 PUSH2 0x10A7 JUMP JUMPDEST SWAP5 SWAP4 POP POP POP POP JUMP JUMPDEST PUSH32 0x726577617264206475726174696F6E206E6F742066696E697368656400000000 PUSH1 0x0 DUP3 ADD MSTORE POP JUMP JUMPDEST PUSH1 0x0 PUSH2 0x162F PUSH1 0x1C DUP4 PUSH2 0x1307 JUMP JUMPDEST SWAP2 POP PUSH2 0x163A DUP3 PUSH2 0x15F9 JUMP JUMPDEST PUSH1 0x20 DUP3 ADD SWAP1 POP SWAP2 SWAP1 POP JUMP JUMPDEST PUSH1 0x0 PUSH1 0x20 DUP3 ADD SWAP1 POP DUP2 DUP2 SUB PUSH1 0x0 DUP4 ADD MSTORE PUSH2 0x165E DUP2 PUSH2 0x1622 JUMP JUMPDEST SWAP1 POP SWAP2 SWAP1 POP JUMP INVALID LOG2 PUSH5 0x6970667358 0x22 SLT KECCAK256 PUSH17 0xD07A03F3E4CD842C605B8E39D8593C2DC7 0x4D 0xDC LT 0xF9 0xEE SWAP14 0xB7 DUP1 0x2A PC ISZERO 0x2A MOD 0x22 PUSH5 0x736F6C6343 STOP ADDMOD SGT STOP CALLER "
				},
				"gasEstimates": {
					"creation": {
						"codeDepositCost": "1157400",
						"executionCost": "infinite",
						"totalCost": "infinite"
					},
					"external": {
						"balanceOf(address)": "2925",
						"duration()": "2475",
						"earned(address)": "infinite",
						"finishAt()": "2518",
						"getReward()": "infinite",
						"lastTimeRewardApplicable()": "2610",
						"notifyRewardAmount(uint256)": "infinite",
						"owner()": "2533",
						"reward(address)": "2881",
						"rewardPerToken()": "infinite",
						"rewardPerTokenStored()": "2539",
						"rewardRate()": "2496",
						"setRewardDuration(uint256)": "26875",
						"stake(uint256)": "infinite",
						"stakingToken()": "infinite",
						"totalSupply()": "2497",
						"updatedAt()": "2474",
						"userRewardPerTokenPaid(address)": "2925",
						"withdraw(uint256)": "infinite"
					},
					"internal": {
						"_min(uint256,uint256)": "67"
					}
				},
				"methodIdentifiers": {
					"balanceOf(address)": "70a08231",
					"duration()": "0fb5a6b4",
					"earned(address)": "008cc262",
					"finishAt()": "67d3b488",
					"getReward()": "3d18b912",
					"lastTimeRewardApplicable()": "80faa57d",
					"notifyRewardAmount(uint256)": "3c6b16ab",
					"owner()": "8da5cb5b",
					"reward(address)": "6353586b",
					"rewardPerToken()": "cd3daf9d",
					"rewardPerTokenStored()": "df136d65",
					"rewardRate()": "7b0a47ee",
					"setRewardDuration(uint256)": "c0ed00c9",
					"stake(uint256)": "a694fc3a",
					"stakingToken()": "72f702f3",
					"totalSupply()": "18160ddd",
					"updatedAt()": "7519ab50",
					"userRewardPerTokenPaid(address)": "8b876347",
					"withdraw(uint256)": "2e1a7d4d"
				}
			},
			"storageLayout": {
				"storage": [
					{
						"astId": 73,
						"contract": "StakeAny_GetRewardETH/staking_Reward.sol:StakingRewards",
						"label": "owner",
						"offset": 0,
						"slot": "0",
						"type": "t_address"
					},
					{
						"astId": 75,
						"contract": "StakeAny_GetRewardETH/staking_Reward.sol:StakingRewards",
						"label": "duration",
						"offset": 0,
						"slot": "1",
						"type": "t_uint256"
					},
					{
						"astId": 77,
						"contract": "StakeAny_GetRewardETH/staking_Reward.sol:StakingRewards",
						"label": "finishAt",
						"offset": 0,
						"slot": "2",
						"type": "t_uint256"
					},
					{
						"astId": 79,
						"contract": "StakeAny_GetRewardETH/staking_Reward.sol:StakingRewards",
						"label": "updatedAt",
						"offset": 0,
						"slot": "3",
						"type": "t_uint256"
					},
					{
						"astId": 81,
						"contract": "StakeAny_GetRewardETH/staking_Reward.sol:StakingRewards",
						"label": "rewardRate",
						"offset": 0,
						"slot": "4",
						"type": "t_uint256"
					},
					{
						"astId": 83,
						"contract": "StakeAny_GetRewardETH/staking_Reward.sol:StakingRewards",
						"label": "rewardPerTokenStored",
						"offset": 0,
						"slot": "5",
						"type": "t_uint256"
					},
					{
						"astId": 87,
						"contract": "StakeAny_GetRewardETH/staking_Reward.sol:StakingRewards",
						"label": "userRewardPerTokenPaid",
						"offset": 0,
						"slot": "6",
						"type": "t_mapping(t_address,t_uint256)"
					},
					{
						"astId": 91,
						"contract": "StakeAny_GetRewardETH/staking_Reward.sol:StakingRewards",
						"label": "reward",
						"offset": 0,
						"slot": "7",
						"type": "t_mapping(t_address,t_uint256)"
					},
					{
						"astId": 93,
						"contract": "StakeAny_GetRewardETH/staking_Reward.sol:StakingRewards",
						"label": "totalSupply",
						"offset": 0,
						"slot": "8",
						"type": "t_uint256"
					},
					{
						"astId": 97,
						"contract": "StakeAny_GetRewardETH/staking_Reward.sol:StakingRewards",
						"label": "balanceOf",
						"offset": 0,
						"slot": "9",
						"type": "t_mapping(t_address,t_uint256)"
					}
				],
				"types": {
					"t_address": {
						"encoding": "inplace",
						"label": "address",
						"numberOfBytes": "20"
					},
					"t_mapping(t_address,t_uint256)": {
						"encoding": "mapping",
						"key": "t_address",
						"label": "mapping(address => uint256)",
						"numberOfBytes": "32",
						"value": "t_uint256"
					},
					"t_uint256": {
						"encoding": "inplace",
						"label": "uint256",
						"numberOfBytes": "32"
					}
				}
			},
			"userdoc": {
				"kind": "user",
				"methods": {},
				"version": 1
			}
		}
	}
}