{
	"data": {
		"bytecode": {
			"linkReferences": {},
			"object": "608060405234801561000f575f80fd5b503360025f6101000a81548173ffffffffffffffffffffffffffffffffffffffff021916908373ffffffffffffffffffffffffffffffffffffffff1602179055506110ad8061005d5f395ff3fe608060405234801561000f575f80fd5b5060043610610055575f3560e01c80633130abae1461005957806348103e65146100895780638abc4bd9146100a5578063bf94effa146100d7578063d3bddc2b14610107575b5f80fd5b610073600480360381019061006e9190610729565b610137565b60405161008091906107f1565b60405180910390f35b6100a3600480360381019061009e919061086b565b61030e565b005b6100bf60048036038101906100ba9190610896565b610447565b6040516100ce939291906108ea565b60405180910390f35b6100f160048036038101906100ec919061086b565b6104fe565b6040516100fe9190610926565b60405180910390f35b610121600480360381019061011c9190610a6b565b61051b565b60405161012e9190610ad4565b60405180910390f35b60603373ffffffffffffffffffffffffffffffffffffffff1660025f9054906101000a900473ffffffffffffffffffffffffffffffffffffffff1673ffffffffffffffffffffffffffffffffffffffff16146101c8576040517f08c379a00000000000000000000000000000000000000000000000000000000081526004016101bf90610b37565b60405180910390fd5b60015f3373ffffffffffffffffffffffffffffffffffffffff1673ffffffffffffffffffffffffffffffffffffffff1681526020019081526020015f205f9054906101000a900460ff16610251576040517f08c379a000000000000000000000000000000000000000000000000000000000815260040161024890610b9f565b60405180910390fd5b815f808581526020019081526020015f206002015410156102a7576040517f08c379a000000000000000000000000000000000000000000000000000000000815260040161029e90610c07565b60405180910390fd5b815f808581526020019081526020015f206002015f8282546102c99190610c52565b925050819055506040518060400160405280600781526020017f5375636365737300000000000000000000000000000000000000000000000000815250905092915050565b3373ffffffffffffffffffffffffffffffffffffffff1660025f9054906101000a900473ffffffffffffffffffffffffffffffffffffffff1673ffffffffffffffffffffffffffffffffffffffff161461039d576040517f08c379a000000000000000000000000000000000000000000000000000000000815260040161039490610b37565b60405180910390fd5b60015f8273ffffffffffffffffffffffffffffffffffffffff1673ffffffffffffffffffffffffffffffffffffffff1681526020019081526020015f205f9054906101000a900460ff16156103f0575f80fd5b6001805f8373ffffffffffffffffffffffffffffffffffffffff1673ffffffffffffffffffffffffffffffffffffffff1681526020019081526020015f205f6101000a81548160ff02191690831515021790555050565b5f602052805f5260405f205f91509050805f015f9054906101000a900460ff169080600101805461047790610cb2565b80601f01602080910402602001604051908101604052809291908181526020018280546104a390610cb2565b80156104ee5780601f106104c5576101008083540402835291602001916104ee565b820191905f5260205f20905b8154815290600101906020018083116104d157829003601f168201915b5050505050908060020154905083565b6001602052805f5260405f205f915054906101000a900460ff1681565b5f3373ffffffffffffffffffffffffffffffffffffffff1660025f9054906101000a900473ffffffffffffffffffffffffffffffffffffffff1673ffffffffffffffffffffffffffffffffffffffff16146105ab576040517f08c379a00000000000000000000000000000000000000000000000000000000081526004016105a290610b37565b60405180910390fd5b5f600233426040516020016105c1929190610d47565b6040516020818303038152906040526040516105dd9190610db6565b602060405180830381855afa1580156105f8573d5f803e3d5ffd5b5050506040513d601f19601f8201168201806040525081019061061b9190610de0565b90505f808281526020019081526020015f205f015f9054906101000a900460ff1615610645575f80fd5b60015f808381526020019081526020015f205f015f6101000a81548160ff021916908315150217905550835f808381526020019081526020015f20600101908161068f9190610fa8565b50825f808381526020019081526020015f20600201819055508091505092915050565b5f604051905090565b5f80fd5b5f80fd5b5f819050919050565b6106d5816106c3565b81146106df575f80fd5b50565b5f813590506106f0816106cc565b92915050565b5f819050919050565b610708816106f6565b8114610712575f80fd5b50565b5f81359050610723816106ff565b92915050565b5f806040838503121561073f5761073e6106bb565b5b5f61074c858286016106e2565b925050602061075d85828601610715565b9150509250929050565b5f81519050919050565b5f82825260208201905092915050565b5f5b8381101561079e578082015181840152602081019050610783565b5f8484015250505050565b5f601f19601f8301169050919050565b5f6107c382610767565b6107cd8185610771565b93506107dd818560208601610781565b6107e6816107a9565b840191505092915050565b5f6020820190508181035f83015261080981846107b9565b905092915050565b5f73ffffffffffffffffffffffffffffffffffffffff82169050919050565b5f61083a82610811565b9050919050565b61084a81610830565b8114610854575f80fd5b50565b5f8135905061086581610841565b92915050565b5f602082840312156108805761087f6106bb565b5b5f61088d84828501610857565b91505092915050565b5f602082840312156108ab576108aa6106bb565b5b5f6108b8848285016106e2565b91505092915050565b5f8115159050919050565b6108d5816108c1565b82525050565b6108e4816106f6565b82525050565b5f6060820190506108fd5f8301866108cc565b818103602083015261090f81856107b9565b905061091e60408301846108db565b949350505050565b5f6020820190506109395f8301846108cc565b92915050565b5f80fd5b5f80fd5b7f4e487b71000000000000000000000000000000000000000000000000000000005f52604160045260245ffd5b61097d826107a9565b810181811067ffffffffffffffff8211171561099c5761099b610947565b5b80604052505050565b5f6109ae6106b2565b90506109ba8282610974565b919050565b5f67ffffffffffffffff8211156109d9576109d8610947565b5b6109e2826107a9565b9050602081019050919050565b828183375f83830152505050565b5f610a0f610a0a846109bf565b6109a5565b905082815260208101848484011115610a2b57610a2a610943565b5b610a368482856109ef565b509392505050565b5f82601f830112610a5257610a5161093f565b5b8135610a628482602086016109fd565b91505092915050565b5f8060408385031215610a8157610a806106bb565b5b5f83013567ffffffffffffffff811115610a9e57610a9d6106bf565b5b610aaa85828601610a3e565b9250506020610abb85828601610715565b9150509250929050565b610ace816106c3565b82525050565b5f602082019050610ae75f830184610ac5565b92915050565b7f4f6e6c79204f776e65722063616e0000000000000000000000000000000000005f82015250565b5f610b21600e83610771565b9150610b2c82610aed565b602082019050919050565b5f6020820190508181035f830152610b4e81610b15565b9050919050565b7f4f6e6c7920646f63746f722063616e2075736520696e737572616e63650000005f82015250565b5f610b89601d83610771565b9150610b9482610b55565b602082019050919050565b5f6020820190508181035f830152610bb681610b7d565b9050919050565b7f496e73756666696369656e7420696e737572656420616d6f756e7400000000005f82015250565b5f610bf1601b83610771565b9150610bfc82610bbd565b602082019050919050565b5f6020820190508181035f830152610c1e81610be5565b9050919050565b7f4e487b71000000000000000000000000000000000000000000000000000000005f52601160045260245ffd5b5f610c5c826106f6565b9150610c67836106f6565b9250828203905081811115610c7f57610c7e610c25565b5b92915050565b7f4e487b71000000000000000000000000000000000000000000000000000000005f52602260045260245ffd5b5f6002820490506001821680610cc957607f821691505b602082108103610cdc57610cdb610c85565b5b50919050565b5f8160601b9050919050565b5f610cf882610ce2565b9050919050565b5f610d0982610cee565b9050919050565b610d21610d1c82610830565b610cff565b82525050565b5f819050919050565b610d41610d3c826106f6565b610d27565b82525050565b5f610d528285610d10565b601482019150610d628284610d30565b6020820191508190509392505050565b5f81519050919050565b5f81905092915050565b5f610d9082610d72565b610d9a8185610d7c565b9350610daa818560208601610781565b80840191505092915050565b5f610dc18284610d86565b915081905092915050565b5f81519050610dda816106cc565b92915050565b5f60208284031215610df557610df46106bb565b5b5f610e0284828501610dcc565b91505092915050565b5f819050815f5260205f209050919050565b5f6020601f8301049050919050565b5f82821b905092915050565b5f60088302610e677fffffffffffffffffffffffffffffffffffffffffffffffffffffffffffffffff82610e2c565b610e718683610e2c565b95508019841693508086168417925050509392505050565b5f819050919050565b5f610eac610ea7610ea2846106f6565b610e89565b6106f6565b9050919050565b5f819050919050565b610ec583610e92565b610ed9610ed182610eb3565b848454610e38565b825550505050565b5f90565b610eed610ee1565b610ef8818484610ebc565b505050565b5b81811015610f1b57610f105f82610ee5565b600181019050610efe565b5050565b601f821115610f6057610f3181610e0b565b610f3a84610e1d565b81016020851015610f49578190505b610f5d610f5585610e1d565b830182610efd565b50505b505050565b5f82821c905092915050565b5f610f805f1984600802610f65565b1980831691505092915050565b5f610f988383610f71565b9150826002028217905092915050565b610fb182610767565b67ffffffffffffffff811115610fca57610fc9610947565b5b610fd48254610cb2565b610fdf828285610f1f565b5f60209050601f831160018114611010575f8415610ffe578287015190505b6110088582610f8d565b86555061106f565b601f19841661101e86610e0b565b5f5b8281101561104557848901518255600182019150602085019450602081019050611020565b86831015611062578489015161105e601f891682610f71565b8355505b6001600288020188555050505b50505050505056fea264697066735822122047f8b8eb675385a72b6cad81516aa8bbb077d56ca9dd73b30e9101f7d5a2ca6664736f6c63430008140033",
			"opcodes": "PUSH1 0x80 PUSH1 0x40 MSTORE CALLVALUE DUP1 ISZERO PUSH2 0xF JUMPI PUSH0 DUP1 REVERT JUMPDEST POP CALLER PUSH1 0x2 PUSH0 PUSH2 0x100 EXP DUP2 SLOAD DUP2 PUSH20 0xFFFFFFFFFFFFFFFFFFFFFFFFFFFFFFFFFFFFFFFF MUL NOT AND SWAP1 DUP4 PUSH20 0xFFFFFFFFFFFFFFFFFFFFFFFFFFFFFFFFFFFFFFFF AND MUL OR SWAP1 SSTORE POP PUSH2 0x10AD DUP1 PUSH2 0x5D PUSH0 CODECOPY PUSH0 RETURN INVALID PUSH1 0x80 PUSH1 0x40 MSTORE CALLVALUE DUP1 ISZERO PUSH2 0xF JUMPI PUSH0 DUP1 REVERT JUMPDEST POP PUSH1 0x4 CALLDATASIZE LT PUSH2 0x55 JUMPI PUSH0 CALLDATALOAD PUSH1 0xE0 SHR DUP1 PUSH4 0x3130ABAE EQ PUSH2 0x59 JUMPI DUP1 PUSH4 0x48103E65 EQ PUSH2 0x89 JUMPI DUP1 PUSH4 0x8ABC4BD9 EQ PUSH2 0xA5 JUMPI DUP1 PUSH4 0xBF94EFFA EQ PUSH2 0xD7 JUMPI DUP1 PUSH4 0xD3BDDC2B EQ PUSH2 0x107 JUMPI JUMPDEST PUSH0 DUP1 REVERT JUMPDEST PUSH2 0x73 PUSH1 0x4 DUP1 CALLDATASIZE SUB DUP2 ADD SWAP1 PUSH2 0x6E SWAP2 SWAP1 PUSH2 0x729 JUMP JUMPDEST PUSH2 0x137 JUMP JUMPDEST PUSH1 0x40 MLOAD PUSH2 0x80 SWAP2 SWAP1 PUSH2 0x7F1 JUMP JUMPDEST PUSH1 0x40 MLOAD DUP1 SWAP2 SUB SWAP1 RETURN JUMPDEST PUSH2 0xA3 PUSH1 0x4 DUP1 CALLDATASIZE SUB DUP2 ADD SWAP1 PUSH2 0x9E SWAP2 SWAP1 PUSH2 0x86B JUMP JUMPDEST PUSH2 0x30E JUMP JUMPDEST STOP JUMPDEST PUSH2 0xBF PUSH1 0x4 DUP1 CALLDATASIZE SUB DUP2 ADD SWAP1 PUSH2 0xBA SWAP2 SWAP1 PUSH2 0x896 JUMP JUMPDEST PUSH2 0x447 JUMP JUMPDEST PUSH1 0x40 MLOAD PUSH2 0xCE SWAP4 SWAP3 SWAP2 SWAP1 PUSH2 0x8EA JUMP JUMPDEST PUSH1 0x40 MLOAD DUP1 SWAP2 SUB SWAP1 RETURN JUMPDEST PUSH2 0xF1 PUSH1 0x4 DUP1 CALLDATASIZE SUB DUP2 ADD SWAP1 PUSH2 0xEC SWAP2 SWAP1 PUSH2 0x86B JUMP JUMPDEST PUSH2 0x4FE JUMP JUMPDEST PUSH1 0x40 MLOAD PUSH2 0xFE SWAP2 SWAP1 PUSH2 0x926 JUMP JUMPDEST PUSH1 0x40 MLOAD DUP1 SWAP2 SUB SWAP1 RETURN JUMPDEST PUSH2 0x121 PUSH1 0x4 DUP1 CALLDATASIZE SUB DUP2 ADD SWAP1 PUSH2 0x11C SWAP2 SWAP1 PUSH2 0xA6B JUMP JUMPDEST PUSH2 0x51B JUMP JUMPDEST PUSH1 0x40 MLOAD PUSH2 0x12E SWAP2 SWAP1 PUSH2 0xAD4 JUMP JUMPDEST PUSH1 0x40 MLOAD DUP1 SWAP2 SUB SWAP1 RETURN JUMPDEST PUSH1 0x60 CALLER PUSH20 0xFFFFFFFFFFFFFFFFFFFFFFFFFFFFFFFFFFFFFFFF AND PUSH1 0x2 PUSH0 SWAP1 SLOAD SWAP1 PUSH2 0x100 EXP SWAP1 DIV PUSH20 0xFFFFFFFFFFFFFFFFFFFFFFFFFFFFFFFFFFFFFFFF AND PUSH20 0xFFFFFFFFFFFFFFFFFFFFFFFFFFFFFFFFFFFFFFFF AND EQ PUSH2 0x1C8 JUMPI PUSH1 0x40 MLOAD PUSH32 0x8C379A000000000000000000000000000000000000000000000000000000000 DUP2 MSTORE PUSH1 0x4 ADD PUSH2 0x1BF SWAP1 PUSH2 0xB37 JUMP JUMPDEST PUSH1 0x40 MLOAD DUP1 SWAP2 SUB SWAP1 REVERT JUMPDEST PUSH1 0x1 PUSH0 CALLER PUSH20 0xFFFFFFFFFFFFFFFFFFFFFFFFFFFFFFFFFFFFFFFF AND PUSH20 0xFFFFFFFFFFFFFFFFFFFFFFFFFFFFFFFFFFFFFFFF AND DUP2 MSTORE PUSH1 0x20 ADD SWAP1 DUP2 MSTORE PUSH1 0x20 ADD PUSH0 KECCAK256 PUSH0 SWAP1 SLOAD SWAP1 PUSH2 0x100 EXP SWAP1 DIV PUSH1 0xFF AND PUSH2 0x251 JUMPI PUSH1 0x40 MLOAD PUSH32 0x8C379A000000000000000000000000000000000000000000000000000000000 DUP2 MSTORE PUSH1 0x4 ADD PUSH2 0x248 SWAP1 PUSH2 0xB9F JUMP JUMPDEST PUSH1 0x40 MLOAD DUP1 SWAP2 SUB SWAP1 REVERT JUMPDEST DUP2 PUSH0 DUP1 DUP6 DUP2 MSTORE PUSH1 0x20 ADD SWAP1 DUP2 MSTORE PUSH1 0x20 ADD PUSH0 KECCAK256 PUSH1 0x2 ADD SLOAD LT ISZERO PUSH2 0x2A7 JUMPI PUSH1 0x40 MLOAD PUSH32 0x8C379A000000000000000000000000000000000000000000000000000000000 DUP2 MSTORE PUSH1 0x4 ADD PUSH2 0x29E SWAP1 PUSH2 0xC07 JUMP JUMPDEST PUSH1 0x40 MLOAD DUP1 SWAP2 SUB SWAP1 REVERT JUMPDEST DUP2 PUSH0 DUP1 DUP6 DUP2 MSTORE PUSH1 0x20 ADD SWAP1 DUP2 MSTORE PUSH1 0x20 ADD PUSH0 KECCAK256 PUSH1 0x2 ADD PUSH0 DUP3 DUP3 SLOAD PUSH2 0x2C9 SWAP2 SWAP1 PUSH2 0xC52 JUMP JUMPDEST SWAP3 POP POP DUP2 SWAP1 SSTORE POP PUSH1 0x40 MLOAD DUP1 PUSH1 0x40 ADD PUSH1 0x40 MSTORE DUP1 PUSH1 0x7 DUP2 MSTORE PUSH1 0x20 ADD PUSH32 0x5375636365737300000000000000000000000000000000000000000000000000 DUP2 MSTORE POP SWAP1 POP SWAP3 SWAP2 POP POP JUMP JUMPDEST CALLER PUSH20 0xFFFFFFFFFFFFFFFFFFFFFFFFFFFFFFFFFFFFFFFF AND PUSH1 0x2 PUSH0 SWAP1 SLOAD SWAP1 PUSH2 0x100 EXP SWAP1 DIV PUSH20 0xFFFFFFFFFFFFFFFFFFFFFFFFFFFFFFFFFFFFFFFF AND PUSH20 0xFFFFFFFFFFFFFFFFFFFFFFFFFFFFFFFFFFFFFFFF AND EQ PUSH2 0x39D JUMPI PUSH1 0x40 MLOAD PUSH32 0x8C379A000000000000000000000000000000000000000000000000000000000 DUP2 MSTORE PUSH1 0x4 ADD PUSH2 0x394 SWAP1 PUSH2 0xB37 JUMP JUMPDEST PUSH1 0x40 MLOAD DUP1 SWAP2 SUB SWAP1 REVERT JUMPDEST PUSH1 0x1 PUSH0 DUP3 PUSH20 0xFFFFFFFFFFFFFFFFFFFFFFFFFFFFFFFFFFFFFFFF AND PUSH20 0xFFFFFFFFFFFFFFFFFFFFFFFFFFFFFFFFFFFFFFFF AND DUP2 MSTORE PUSH1 0x20 ADD SWAP1 DUP2 MSTORE PUSH1 0x20 ADD PUSH0 KECCAK256 PUSH0 SWAP1 SLOAD SWAP1 PUSH2 0x100 EXP SWAP1 DIV PUSH1 0xFF AND ISZERO PUSH2 0x3F0 JUMPI PUSH0 DUP1 REVERT JUMPDEST PUSH1 0x1 DUP1 PUSH0 DUP4 PUSH20 0xFFFFFFFFFFFFFFFFFFFFFFFFFFFFFFFFFFFFFFFF AND PUSH20 0xFFFFFFFFFFFFFFFFFFFFFFFFFFFFFFFFFFFFFFFF AND DUP2 MSTORE PUSH1 0x20 ADD SWAP1 DUP2 MSTORE PUSH1 0x20 ADD PUSH0 KECCAK256 PUSH0 PUSH2 0x100 EXP DUP2 SLOAD DUP2 PUSH1 0xFF MUL NOT AND SWAP1 DUP4 ISZERO ISZERO MUL OR SWAP1 SSTORE POP POP JUMP JUMPDEST PUSH0 PUSH1 0x20 MSTORE DUP1 PUSH0 MSTORE PUSH1 0x40 PUSH0 KECCAK256 PUSH0 SWAP2 POP SWAP1 POP DUP1 PUSH0 ADD PUSH0 SWAP1 SLOAD SWAP1 PUSH2 0x100 EXP SWAP1 DIV PUSH1 0xFF AND SWAP1 DUP1 PUSH1 0x1 ADD DUP1 SLOAD PUSH2 0x477 SWAP1 PUSH2 0xCB2 JUMP JUMPDEST DUP1 PUSH1 0x1F ADD PUSH1 0x20 DUP1 SWAP2 DIV MUL PUSH1 0x20 ADD PUSH1 0x40 MLOAD SWAP1 DUP2 ADD PUSH1 0x40 MSTORE DUP1 SWAP3 SWAP2 SWAP1 DUP2 DUP2 MSTORE PUSH1 0x20 ADD DUP3 DUP1 SLOAD PUSH2 0x4A3 SWAP1 PUSH2 0xCB2 JUMP JUMPDEST DUP1 ISZERO PUSH2 0x4EE JUMPI DUP1 PUSH1 0x1F LT PUSH2 0x4C5 JUMPI PUSH2 0x100 DUP1 DUP4 SLOAD DIV MUL DUP4 MSTORE SWAP2 PUSH1 0x20 ADD SWAP2 PUSH2 0x4EE JUMP JUMPDEST DUP3 ADD SWAP2 SWAP1 PUSH0 MSTORE PUSH1 0x20 PUSH0 KECCAK256 SWAP1 JUMPDEST DUP2 SLOAD DUP2 MSTORE SWAP1 PUSH1 0x1 ADD SWAP1 PUSH1 0x20 ADD DUP1 DUP4 GT PUSH2 0x4D1 JUMPI DUP3 SWAP1 SUB PUSH1 0x1F AND DUP3 ADD SWAP2 JUMPDEST POP POP POP POP POP SWAP1 DUP1 PUSH1 0x2 ADD SLOAD SWAP1 POP DUP4 JUMP JUMPDEST PUSH1 0x1 PUSH1 0x20 MSTORE DUP1 PUSH0 MSTORE PUSH1 0x40 PUSH0 KECCAK256 PUSH0 SWAP2 POP SLOAD SWAP1 PUSH2 0x100 EXP SWAP1 DIV PUSH1 0xFF AND DUP2 JUMP JUMPDEST PUSH0 CALLER PUSH20 0xFFFFFFFFFFFFFFFFFFFFFFFFFFFFFFFFFFFFFFFF AND PUSH1 0x2 PUSH0 SWAP1 SLOAD SWAP1 PUSH2 0x100 EXP SWAP1 DIV PUSH20 0xFFFFFFFFFFFFFFFFFFFFFFFFFFFFFFFFFFFFFFFF AND PUSH20 0xFFFFFFFFFFFFFFFFFFFFFFFFFFFFFFFFFFFFFFFF AND EQ PUSH2 0x5AB JUMPI PUSH1 0x40 MLOAD PUSH32 0x8C379A000000000000000000000000000000000000000000000000000000000 DUP2 MSTORE PUSH1 0x4 ADD PUSH2 0x5A2 SWAP1 PUSH2 0xB37 JUMP JUMPDEST PUSH1 0x40 MLOAD DUP1 SWAP2 SUB SWAP1 REVERT JUMPDEST PUSH0 PUSH1 0x2 CALLER TIMESTAMP PUSH1 0x40 MLOAD PUSH1 0x20 ADD PUSH2 0x5C1 SWAP3 SWAP2 SWAP1 PUSH2 0xD47 JUMP JUMPDEST PUSH1 0x40 MLOAD PUSH1 0x20 DUP2 DUP4 SUB SUB DUP2 MSTORE SWAP1 PUSH1 0x40 MSTORE PUSH1 0x40 MLOAD PUSH2 0x5DD SWAP2 SWAP1 PUSH2 0xDB6 JUMP JUMPDEST PUSH1 0x20 PUSH1 0x40 MLOAD DUP1 DUP4 SUB DUP2 DUP6 GAS STATICCALL ISZERO DUP1 ISZERO PUSH2 0x5F8 JUMPI RETURNDATASIZE PUSH0 DUP1 RETURNDATACOPY RETURNDATASIZE PUSH0 REVERT JUMPDEST POP POP POP PUSH1 0x40 MLOAD RETURNDATASIZE PUSH1 0x1F NOT PUSH1 0x1F DUP3 ADD AND DUP3 ADD DUP1 PUSH1 0x40 MSTORE POP DUP2 ADD SWAP1 PUSH2 0x61B SWAP2 SWAP1 PUSH2 0xDE0 JUMP JUMPDEST SWAP1 POP PUSH0 DUP1 DUP3 DUP2 MSTORE PUSH1 0x20 ADD SWAP1 DUP2 MSTORE PUSH1 0x20 ADD PUSH0 KECCAK256 PUSH0 ADD PUSH0 SWAP1 SLOAD SWAP1 PUSH2 0x100 EXP SWAP1 DIV PUSH1 0xFF AND ISZERO PUSH2 0x645 JUMPI PUSH0 DUP1 REVERT JUMPDEST PUSH1 0x1 PUSH0 DUP1 DUP4 DUP2 MSTORE PUSH1 0x20 ADD SWAP1 DUP2 MSTORE PUSH1 0x20 ADD PUSH0 KECCAK256 PUSH0 ADD PUSH0 PUSH2 0x100 EXP DUP2 SLOAD DUP2 PUSH1 0xFF MUL NOT AND SWAP1 DUP4 ISZERO ISZERO MUL OR SWAP1 SSTORE POP DUP4 PUSH0 DUP1 DUP4 DUP2 MSTORE PUSH1 0x20 ADD SWAP1 DUP2 MSTORE PUSH1 0x20 ADD PUSH0 KECCAK256 PUSH1 0x1 ADD SWAP1 DUP2 PUSH2 0x68F SWAP2 SWAP1 PUSH2 0xFA8 JUMP JUMPDEST POP DUP3 PUSH0 DUP1 DUP4 DUP2 MSTORE PUSH1 0x20 ADD SWAP1 DUP2 MSTORE PUSH1 0x20 ADD PUSH0 KECCAK256 PUSH1 0x2 ADD DUP2 SWAP1 SSTORE POP DUP1 SWAP2 POP POP SWAP3 SWAP2 POP POP JUMP JUMPDEST PUSH0 PUSH1 0x40 MLOAD SWAP1 POP SWAP1 JUMP JUMPDEST PUSH0 DUP1 REVERT JUMPDEST PUSH0 DUP1 REVERT JUMPDEST PUSH0 DUP2 SWAP1 POP SWAP2 SWAP1 POP JUMP JUMPDEST PUSH2 0x6D5 DUP2 PUSH2 0x6C3 JUMP JUMPDEST DUP2 EQ PUSH2 0x6DF JUMPI PUSH0 DUP1 REVERT JUMPDEST POP JUMP JUMPDEST PUSH0 DUP2 CALLDATALOAD SWAP1 POP PUSH2 0x6F0 DUP2 PUSH2 0x6CC JUMP JUMPDEST SWAP3 SWAP2 POP POP JUMP JUMPDEST PUSH0 DUP2 SWAP1 POP SWAP2 SWAP1 POP JUMP JUMPDEST PUSH2 0x708 DUP2 PUSH2 0x6F6 JUMP JUMPDEST DUP2 EQ PUSH2 0x712 JUMPI PUSH0 DUP1 REVERT JUMPDEST POP JUMP JUMPDEST PUSH0 DUP2 CALLDATALOAD SWAP1 POP PUSH2 0x723 DUP2 PUSH2 0x6FF JUMP JUMPDEST SWAP3 SWAP2 POP POP JUMP JUMPDEST PUSH0 DUP1 PUSH1 0x40 DUP4 DUP6 SUB SLT ISZERO PUSH2 0x73F JUMPI PUSH2 0x73E PUSH2 0x6BB JUMP JUMPDEST JUMPDEST PUSH0 PUSH2 0x74C DUP6 DUP3 DUP7 ADD PUSH2 0x6E2 JUMP JUMPDEST SWAP3 POP POP PUSH1 0x20 PUSH2 0x75D DUP6 DUP3 DUP7 ADD PUSH2 0x715 JUMP JUMPDEST SWAP2 POP POP SWAP3 POP SWAP3 SWAP1 POP JUMP JUMPDEST PUSH0 DUP2 MLOAD SWAP1 POP SWAP2 SWAP1 POP JUMP JUMPDEST PUSH0 DUP3 DUP3 MSTORE PUSH1 0x20 DUP3 ADD SWAP1 POP SWAP3 SWAP2 POP POP JUMP JUMPDEST PUSH0 JUMPDEST DUP4 DUP2 LT ISZERO PUSH2 0x79E JUMPI DUP1 DUP3 ADD MLOAD DUP2 DUP5 ADD MSTORE PUSH1 0x20 DUP2 ADD SWAP1 POP PUSH2 0x783 JUMP JUMPDEST PUSH0 DUP5 DUP5 ADD MSTORE POP POP POP POP JUMP JUMPDEST PUSH0 PUSH1 0x1F NOT PUSH1 0x1F DUP4 ADD AND SWAP1 POP SWAP2 SWAP1 POP JUMP JUMPDEST PUSH0 PUSH2 0x7C3 DUP3 PUSH2 0x767 JUMP JUMPDEST PUSH2 0x7CD DUP2 DUP6 PUSH2 0x771 JUMP JUMPDEST SWAP4 POP PUSH2 0x7DD DUP2 DUP6 PUSH1 0x20 DUP7 ADD PUSH2 0x781 JUMP JUMPDEST PUSH2 0x7E6 DUP2 PUSH2 0x7A9 JUMP JUMPDEST DUP5 ADD SWAP2 POP POP SWAP3 SWAP2 POP POP JUMP JUMPDEST PUSH0 PUSH1 0x20 DUP3 ADD SWAP1 POP DUP2 DUP2 SUB PUSH0 DUP4 ADD MSTORE PUSH2 0x809 DUP2 DUP5 PUSH2 0x7B9 JUMP JUMPDEST SWAP1 POP SWAP3 SWAP2 POP POP JUMP JUMPDEST PUSH0 PUSH20 0xFFFFFFFFFFFFFFFFFFFFFFFFFFFFFFFFFFFFFFFF DUP3 AND SWAP1 POP SWAP2 SWAP1 POP JUMP JUMPDEST PUSH0 PUSH2 0x83A DUP3 PUSH2 0x811 JUMP JUMPDEST SWAP1 POP SWAP2 SWAP1 POP JUMP JUMPDEST PUSH2 0x84A DUP2 PUSH2 0x830 JUMP JUMPDEST DUP2 EQ PUSH2 0x854 JUMPI PUSH0 DUP1 REVERT JUMPDEST POP JUMP JUMPDEST PUSH0 DUP2 CALLDATALOAD SWAP1 POP PUSH2 0x865 DUP2 PUSH2 0x841 JUMP JUMPDEST SWAP3 SWAP2 POP POP JUMP JUMPDEST PUSH0 PUSH1 0x20 DUP3 DUP5 SUB SLT ISZERO PUSH2 0x880 JUMPI PUSH2 0x87F PUSH2 0x6BB JUMP JUMPDEST JUMPDEST PUSH0 PUSH2 0x88D DUP5 DUP3 DUP6 ADD PUSH2 0x857 JUMP JUMPDEST SWAP2 POP POP SWAP3 SWAP2 POP POP JUMP JUMPDEST PUSH0 PUSH1 0x20 DUP3 DUP5 SUB SLT ISZERO PUSH2 0x8AB JUMPI PUSH2 0x8AA PUSH2 0x6BB JUMP JUMPDEST JUMPDEST PUSH0 PUSH2 0x8B8 DUP5 DUP3 DUP6 ADD PUSH2 0x6E2 JUMP JUMPDEST SWAP2 POP POP SWAP3 SWAP2 POP POP JUMP JUMPDEST PUSH0 DUP2 ISZERO ISZERO SWAP1 POP SWAP2 SWAP1 POP JUMP JUMPDEST PUSH2 0x8D5 DUP2 PUSH2 0x8C1 JUMP JUMPDEST DUP3 MSTORE POP POP JUMP JUMPDEST PUSH2 0x8E4 DUP2 PUSH2 0x6F6 JUMP JUMPDEST DUP3 MSTORE POP POP JUMP JUMPDEST PUSH0 PUSH1 0x60 DUP3 ADD SWAP1 POP PUSH2 0x8FD PUSH0 DUP4 ADD DUP7 PUSH2 0x8CC JUMP JUMPDEST DUP2 DUP2 SUB PUSH1 0x20 DUP4 ADD MSTORE PUSH2 0x90F DUP2 DUP6 PUSH2 0x7B9 JUMP JUMPDEST SWAP1 POP PUSH2 0x91E PUSH1 0x40 DUP4 ADD DUP5 PUSH2 0x8DB JUMP JUMPDEST SWAP5 SWAP4 POP POP POP POP JUMP JUMPDEST PUSH0 PUSH1 0x20 DUP3 ADD SWAP1 POP PUSH2 0x939 PUSH0 DUP4 ADD DUP5 PUSH2 0x8CC JUMP JUMPDEST SWAP3 SWAP2 POP POP JUMP JUMPDEST PUSH0 DUP1 REVERT JUMPDEST PUSH0 DUP1 REVERT JUMPDEST PUSH32 0x4E487B7100000000000000000000000000000000000000000000000000000000 PUSH0 MSTORE PUSH1 0x41 PUSH1 0x4 MSTORE PUSH1 0x24 PUSH0 REVERT JUMPDEST PUSH2 0x97D DUP3 PUSH2 0x7A9 JUMP JUMPDEST DUP2 ADD DUP2 DUP2 LT PUSH8 0xFFFFFFFFFFFFFFFF DUP3 GT OR ISZERO PUSH2 0x99C JUMPI PUSH2 0x99B PUSH2 0x947 JUMP JUMPDEST JUMPDEST DUP1 PUSH1 0x40 MSTORE POP POP POP JUMP JUMPDEST PUSH0 PUSH2 0x9AE PUSH2 0x6B2 JUMP JUMPDEST SWAP1 POP PUSH2 0x9BA DUP3 DUP3 PUSH2 0x974 JUMP JUMPDEST SWAP2 SWAP1 POP JUMP JUMPDEST PUSH0 PUSH8 0xFFFFFFFFFFFFFFFF DUP3 GT ISZERO PUSH2 0x9D9 JUMPI PUSH2 0x9D8 PUSH2 0x947 JUMP JUMPDEST JUMPDEST PUSH2 0x9E2 DUP3 PUSH2 0x7A9 JUMP JUMPDEST SWAP1 POP PUSH1 0x20 DUP2 ADD SWAP1 POP SWAP2 SWAP1 POP JUMP JUMPDEST DUP3 DUP2 DUP4 CALLDATACOPY PUSH0 DUP4 DUP4 ADD MSTORE POP POP POP JUMP JUMPDEST PUSH0 PUSH2 0xA0F PUSH2 0xA0A DUP5 PUSH2 0x9BF JUMP JUMPDEST PUSH2 0x9A5 JUMP JUMPDEST SWAP1 POP DUP3 DUP2 MSTORE PUSH1 0x20 DUP2 ADD DUP5 DUP5 DUP5 ADD GT ISZERO PUSH2 0xA2B JUMPI PUSH2 0xA2A PUSH2 0x943 JUMP JUMPDEST JUMPDEST PUSH2 0xA36 DUP5 DUP3 DUP6 PUSH2 0x9EF JUMP JUMPDEST POP SWAP4 SWAP3 POP POP POP JUMP JUMPDEST PUSH0 DUP3 PUSH1 0x1F DUP4 ADD SLT PUSH2 0xA52 JUMPI PUSH2 0xA51 PUSH2 0x93F JUMP JUMPDEST JUMPDEST DUP2 CALLDATALOAD PUSH2 0xA62 DUP5 DUP3 PUSH1 0x20 DUP7 ADD PUSH2 0x9FD JUMP JUMPDEST SWAP2 POP POP SWAP3 SWAP2 POP POP JUMP JUMPDEST PUSH0 DUP1 PUSH1 0x40 DUP4 DUP6 SUB SLT ISZERO PUSH2 0xA81 JUMPI PUSH2 0xA80 PUSH2 0x6BB JUMP JUMPDEST JUMPDEST PUSH0 DUP4 ADD CALLDATALOAD PUSH8 0xFFFFFFFFFFFFFFFF DUP2 GT ISZERO PUSH2 0xA9E JUMPI PUSH2 0xA9D PUSH2 0x6BF JUMP JUMPDEST JUMPDEST PUSH2 0xAAA DUP6 DUP3 DUP7 ADD PUSH2 0xA3E JUMP JUMPDEST SWAP3 POP POP PUSH1 0x20 PUSH2 0xABB DUP6 DUP3 DUP7 ADD PUSH2 0x715 JUMP JUMPDEST SWAP2 POP POP SWAP3 POP SWAP3 SWAP1 POP JUMP JUMPDEST PUSH2 0xACE DUP2 PUSH2 0x6C3 JUMP JUMPDEST DUP3 MSTORE POP POP JUMP JUMPDEST PUSH0 PUSH1 0x20 DUP3 ADD SWAP1 POP PUSH2 0xAE7 PUSH0 DUP4 ADD DUP5 PUSH2 0xAC5 JUMP JUMPDEST SWAP3 SWAP2 POP POP JUMP JUMPDEST PUSH32 0x4F6E6C79204F776E65722063616E000000000000000000000000000000000000 PUSH0 DUP3 ADD MSTORE POP JUMP JUMPDEST PUSH0 PUSH2 0xB21 PUSH1 0xE DUP4 PUSH2 0x771 JUMP JUMPDEST SWAP2 POP PUSH2 0xB2C DUP3 PUSH2 0xAED JUMP JUMPDEST PUSH1 0x20 DUP3 ADD SWAP1 POP SWAP2 SWAP1 POP JUMP JUMPDEST PUSH0 PUSH1 0x20 DUP3 ADD SWAP1 POP DUP2 DUP2 SUB PUSH0 DUP4 ADD MSTORE PUSH2 0xB4E DUP2 PUSH2 0xB15 JUMP JUMPDEST SWAP1 POP SWAP2 SWAP1 POP JUMP JUMPDEST PUSH32 0x4F6E6C7920646F63746F722063616E2075736520696E737572616E6365000000 PUSH0 DUP3 ADD MSTORE POP JUMP JUMPDEST PUSH0 PUSH2 0xB89 PUSH1 0x1D DUP4 PUSH2 0x771 JUMP JUMPDEST SWAP2 POP PUSH2 0xB94 DUP3 PUSH2 0xB55 JUMP JUMPDEST PUSH1 0x20 DUP3 ADD SWAP1 POP SWAP2 SWAP1 POP JUMP JUMPDEST PUSH0 PUSH1 0x20 DUP3 ADD SWAP1 POP DUP2 DUP2 SUB PUSH0 DUP4 ADD MSTORE PUSH2 0xBB6 DUP2 PUSH2 0xB7D JUMP JUMPDEST SWAP1 POP SWAP2 SWAP1 POP JUMP JUMPDEST PUSH32 0x496E73756666696369656E7420696E737572656420616D6F756E740000000000 PUSH0 DUP3 ADD MSTORE POP JUMP JUMPDEST PUSH0 PUSH2 0xBF1 PUSH1 0x1B DUP4 PUSH2 0x771 JUMP JUMPDEST SWAP2 POP PUSH2 0xBFC DUP3 PUSH2 0xBBD JUMP JUMPDEST PUSH1 0x20 DUP3 ADD SWAP1 POP SWAP2 SWAP1 POP JUMP JUMPDEST PUSH0 PUSH1 0x20 DUP3 ADD SWAP1 POP DUP2 DUP2 SUB PUSH0 DUP4 ADD MSTORE PUSH2 0xC1E DUP2 PUSH2 0xBE5 JUMP JUMPDEST SWAP1 POP SWAP2 SWAP1 POP JUMP JUMPDEST PUSH32 0x4E487B7100000000000000000000000000000000000000000000000000000000 PUSH0 MSTORE PUSH1 0x11 PUSH1 0x4 MSTORE PUSH1 0x24 PUSH0 REVERT JUMPDEST PUSH0 PUSH2 0xC5C DUP3 PUSH2 0x6F6 JUMP JUMPDEST SWAP2 POP PUSH2 0xC67 DUP4 PUSH2 0x6F6 JUMP JUMPDEST SWAP3 POP DUP3 DUP3 SUB SWAP1 POP DUP2 DUP2 GT ISZERO PUSH2 0xC7F JUMPI PUSH2 0xC7E PUSH2 0xC25 JUMP JUMPDEST JUMPDEST SWAP3 SWAP2 POP POP JUMP JUMPDEST PUSH32 0x4E487B7100000000000000000000000000000000000000000000000000000000 PUSH0 MSTORE PUSH1 0x22 PUSH1 0x4 MSTORE PUSH1 0x24 PUSH0 REVERT JUMPDEST PUSH0 PUSH1 0x2 DUP3 DIV SWAP1 POP PUSH1 0x1 DUP3 AND DUP1 PUSH2 0xCC9 JUMPI PUSH1 0x7F DUP3 AND SWAP2 POP JUMPDEST PUSH1 0x20 DUP3 LT DUP2 SUB PUSH2 0xCDC JUMPI PUSH2 0xCDB PUSH2 0xC85 JUMP JUMPDEST JUMPDEST POP SWAP2 SWAP1 POP JUMP JUMPDEST PUSH0 DUP2 PUSH1 0x60 SHL SWAP1 POP SWAP2 SWAP1 POP JUMP JUMPDEST PUSH0 PUSH2 0xCF8 DUP3 PUSH2 0xCE2 JUMP JUMPDEST SWAP1 POP SWAP2 SWAP1 POP JUMP JUMPDEST PUSH0 PUSH2 0xD09 DUP3 PUSH2 0xCEE JUMP JUMPDEST SWAP1 POP SWAP2 SWAP1 POP JUMP JUMPDEST PUSH2 0xD21 PUSH2 0xD1C DUP3 PUSH2 0x830 JUMP JUMPDEST PUSH2 0xCFF JUMP JUMPDEST DUP3 MSTORE POP POP JUMP JUMPDEST PUSH0 DUP2 SWAP1 POP SWAP2 SWAP1 POP JUMP JUMPDEST PUSH2 0xD41 PUSH2 0xD3C DUP3 PUSH2 0x6F6 JUMP JUMPDEST PUSH2 0xD27 JUMP JUMPDEST DUP3 MSTORE POP POP JUMP JUMPDEST PUSH0 PUSH2 0xD52 DUP3 DUP6 PUSH2 0xD10 JUMP JUMPDEST PUSH1 0x14 DUP3 ADD SWAP2 POP PUSH2 0xD62 DUP3 DUP5 PUSH2 0xD30 JUMP JUMPDEST PUSH1 0x20 DUP3 ADD SWAP2 POP DUP2 SWAP1 POP SWAP4 SWAP3 POP POP POP JUMP JUMPDEST PUSH0 DUP2 MLOAD SWAP1 POP SWAP2 SWAP1 POP JUMP JUMPDEST PUSH0 DUP2 SWAP1 POP SWAP3 SWAP2 POP POP JUMP JUMPDEST PUSH0 PUSH2 0xD90 DUP3 PUSH2 0xD72 JUMP JUMPDEST PUSH2 0xD9A DUP2 DUP6 PUSH2 0xD7C JUMP JUMPDEST SWAP4 POP PUSH2 0xDAA DUP2 DUP6 PUSH1 0x20 DUP7 ADD PUSH2 0x781 JUMP JUMPDEST DUP1 DUP5 ADD SWAP2 POP POP SWAP3 SWAP2 POP POP JUMP JUMPDEST PUSH0 PUSH2 0xDC1 DUP3 DUP5 PUSH2 0xD86 JUMP JUMPDEST SWAP2 POP DUP2 SWAP1 POP SWAP3 SWAP2 POP POP JUMP JUMPDEST PUSH0 DUP2 MLOAD SWAP1 POP PUSH2 0xDDA DUP2 PUSH2 0x6CC JUMP JUMPDEST SWAP3 SWAP2 POP POP JUMP JUMPDEST PUSH0 PUSH1 0x20 DUP3 DUP5 SUB SLT ISZERO PUSH2 0xDF5 JUMPI PUSH2 0xDF4 PUSH2 0x6BB JUMP JUMPDEST JUMPDEST PUSH0 PUSH2 0xE02 DUP5 DUP3 DUP6 ADD PUSH2 0xDCC JUMP JUMPDEST SWAP2 POP POP SWAP3 SWAP2 POP POP JUMP JUMPDEST PUSH0 DUP2 SWAP1 POP DUP2 PUSH0 MSTORE PUSH1 0x20 PUSH0 KECCAK256 SWAP1 POP SWAP2 SWAP1 POP JUMP JUMPDEST PUSH0 PUSH1 0x20 PUSH1 0x1F DUP4 ADD DIV SWAP1 POP SWAP2 SWAP1 POP JUMP JUMPDEST PUSH0 DUP3 DUP3 SHL SWAP1 POP SWAP3 SWAP2 POP POP JUMP JUMPDEST PUSH0 PUSH1 0x8 DUP4 MUL PUSH2 0xE67 PUSH32 0xFFFFFFFFFFFFFFFFFFFFFFFFFFFFFFFFFFFFFFFFFFFFFFFFFFFFFFFFFFFFFFFF DUP3 PUSH2 0xE2C JUMP JUMPDEST PUSH2 0xE71 DUP7 DUP4 PUSH2 0xE2C JUMP JUMPDEST SWAP6 POP DUP1 NOT DUP5 AND SWAP4 POP DUP1 DUP7 AND DUP5 OR SWAP3 POP POP POP SWAP4 SWAP3 POP POP POP JUMP JUMPDEST PUSH0 DUP2 SWAP1 POP SWAP2 SWAP1 POP JUMP JUMPDEST PUSH0 PUSH2 0xEAC PUSH2 0xEA7 PUSH2 0xEA2 DUP5 PUSH2 0x6F6 JUMP JUMPDEST PUSH2 0xE89 JUMP JUMPDEST PUSH2 0x6F6 JUMP JUMPDEST SWAP1 POP SWAP2 SWAP1 POP JUMP JUMPDEST PUSH0 DUP2 SWAP1 POP SWAP2 SWAP1 POP JUMP JUMPDEST PUSH2 0xEC5 DUP4 PUSH2 0xE92 JUMP JUMPDEST PUSH2 0xED9 PUSH2 0xED1 DUP3 PUSH2 0xEB3 JUMP JUMPDEST DUP5 DUP5 SLOAD PUSH2 0xE38 JUMP JUMPDEST DUP3 SSTORE POP POP POP POP JUMP JUMPDEST PUSH0 SWAP1 JUMP JUMPDEST PUSH2 0xEED PUSH2 0xEE1 JUMP JUMPDEST PUSH2 0xEF8 DUP2 DUP5 DUP5 PUSH2 0xEBC JUMP JUMPDEST POP POP POP JUMP JUMPDEST JUMPDEST DUP2 DUP2 LT ISZERO PUSH2 0xF1B JUMPI PUSH2 0xF10 PUSH0 DUP3 PUSH2 0xEE5 JUMP JUMPDEST PUSH1 0x1 DUP2 ADD SWAP1 POP PUSH2 0xEFE JUMP JUMPDEST POP POP JUMP JUMPDEST PUSH1 0x1F DUP3 GT ISZERO PUSH2 0xF60 JUMPI PUSH2 0xF31 DUP2 PUSH2 0xE0B JUMP JUMPDEST PUSH2 0xF3A DUP5 PUSH2 0xE1D JUMP JUMPDEST DUP2 ADD PUSH1 0x20 DUP6 LT ISZERO PUSH2 0xF49 JUMPI DUP2 SWAP1 POP JUMPDEST PUSH2 0xF5D PUSH2 0xF55 DUP6 PUSH2 0xE1D JUMP JUMPDEST DUP4 ADD DUP3 PUSH2 0xEFD JUMP JUMPDEST POP POP JUMPDEST POP POP POP JUMP JUMPDEST PUSH0 DUP3 DUP3 SHR SWAP1 POP SWAP3 SWAP2 POP POP JUMP JUMPDEST PUSH0 PUSH2 0xF80 PUSH0 NOT DUP5 PUSH1 0x8 MUL PUSH2 0xF65 JUMP JUMPDEST NOT DUP1 DUP4 AND SWAP2 POP POP SWAP3 SWAP2 POP POP JUMP JUMPDEST PUSH0 PUSH2 0xF98 DUP4 DUP4 PUSH2 0xF71 JUMP JUMPDEST SWAP2 POP DUP3 PUSH1 0x2 MUL DUP3 OR SWAP1 POP SWAP3 SWAP2 POP POP JUMP JUMPDEST PUSH2 0xFB1 DUP3 PUSH2 0x767 JUMP JUMPDEST PUSH8 0xFFFFFFFFFFFFFFFF DUP2 GT ISZERO PUSH2 0xFCA JUMPI PUSH2 0xFC9 PUSH2 0x947 JUMP JUMPDEST JUMPDEST PUSH2 0xFD4 DUP3 SLOAD PUSH2 0xCB2 JUMP JUMPDEST PUSH2 0xFDF DUP3 DUP3 DUP6 PUSH2 0xF1F JUMP JUMPDEST PUSH0 PUSH1 0x20 SWAP1 POP PUSH1 0x1F DUP4 GT PUSH1 0x1 DUP2 EQ PUSH2 0x1010 JUMPI PUSH0 DUP5 ISZERO PUSH2 0xFFE JUMPI DUP3 DUP8 ADD MLOAD SWAP1 POP JUMPDEST PUSH2 0x1008 DUP6 DUP3 PUSH2 0xF8D JUMP JUMPDEST DUP7 SSTORE POP PUSH2 0x106F JUMP JUMPDEST PUSH1 0x1F NOT DUP5 AND PUSH2 0x101E DUP7 PUSH2 0xE0B JUMP JUMPDEST PUSH0 JUMPDEST DUP3 DUP2 LT ISZERO PUSH2 0x1045 JUMPI DUP5 DUP10 ADD MLOAD DUP3 SSTORE PUSH1 0x1 DUP3 ADD SWAP2 POP PUSH1 0x20 DUP6 ADD SWAP5 POP PUSH1 0x20 DUP2 ADD SWAP1 POP PUSH2 0x1020 JUMP JUMPDEST DUP7 DUP4 LT ISZERO PUSH2 0x1062 JUMPI DUP5 DUP10 ADD MLOAD PUSH2 0x105E PUSH1 0x1F DUP10 AND DUP3 PUSH2 0xF71 JUMP JUMPDEST DUP4 SSTORE POP JUMPDEST PUSH1 0x1 PUSH1 0x2 DUP9 MUL ADD DUP9 SSTORE POP POP POP JUMPDEST POP POP POP POP POP POP JUMP INVALID LOG2 PUSH5 0x6970667358 0x22 SLT KECCAK256 SELFBALANCE 0xF8 0xB8 0xEB PUSH8 0x5385A72B6CAD8151 PUSH11 0xA8BBB077D56CA9DD73B30E SWAP2 ADD 0xF7 0xD5 LOG2 0xCA PUSH7 0x64736F6C634300 ADDMOD EQ STOP CALLER "
		},
		"gasEstimates": {
			"creation": {
				"codeDepositCost": "853800",
				"executionCost": "25153",
				"totalCost": "878953"
			},
			"external": {
				"doctorMapping(address)": "2877",
				"setDoctor(address)": "29215",
				"setUser(string,uint256)": "infinite",
				"useInsurance(bytes32,uint256)": "infinite",
				"userMapping(bytes32)": "infinite"
			}
		},
		"methodIdentifiers": {
			"doctorMapping(address)": "bf94effa",
			"setDoctor(address)": "48103e65",
			"setUser(string,uint256)": "d3bddc2b",
			"useInsurance(bytes32,uint256)": "3130abae",
			"userMapping(bytes32)": "8abc4bd9"
		}
	},
	"abi": [
		{
			"inputs": [],
			"stateMutability": "nonpayable",
			"type": "constructor"
		},
		{
			"inputs": [
				{
					"internalType": "address",
					"name": "",
					"type": "address"
				}
			],
			"name": "doctorMapping",
			"outputs": [
				{
					"internalType": "bool",
					"name": "",
					"type": "bool"
				}
			],
			"stateMutability": "view",
			"type": "function"
		},
		{
			"inputs": [
				{
					"internalType": "address",
					"name": "adrs",
					"type": "address"
				}
			],
			"name": "setDoctor",
			"outputs": [],
			"stateMutability": "nonpayable",
			"type": "function"
		},
		{
			"inputs": [
				{
					"internalType": "string",
					"name": "_name",
					"type": "string"
				},
				{
					"internalType": "uint256",
					"name": "_Insured_Amount",
					"type": "uint256"
				}
			],
			"name": "setUser",
			"outputs": [
				{
					"internalType": "bytes32",
					"name": "",
					"type": "bytes32"
				}
			],
			"stateMutability": "nonpayable",
			"type": "function"
		},
		{
			"inputs": [
				{
					"internalType": "bytes32",
					"name": "_hash",
					"type": "bytes32"
				},
				{
					"internalType": "uint256",
					"name": "amountUse",
					"type": "uint256"
				}
			],
			"name": "useInsurance",
			"outputs": [
				{
					"internalType": "string",
					"name": "",
					"type": "string"
				}
			],
			"stateMutability": "nonpayable",
			"type": "function"
		},
		{
			"inputs": [
				{
					"internalType": "bytes32",
					"name": "",
					"type": "bytes32"
				}
			],
			"name": "userMapping",
			"outputs": [
				{
					"internalType": "bool",
					"name": "isUID",
					"type": "bool"
				},
				{
					"internalType": "string",
					"name": "name",
					"type": "string"
				},
				{
					"internalType": "uint256",
					"name": "Insured_Amount",
					"type": "uint256"
				}
			],
			"stateMutability": "view",
			"type": "function"
		}
	]
}