{
	"data": {
		"bytecode": {
			"linkReferences": {},
			"object": "608060405234801561001057600080fd5b50610197806100206000396000f3fe608060405234801561001057600080fd5b506004361061002b5760003560e01c80637a0a8fb114610030575b600080fd5b61004a600480360381019061004591906100ab565b61004c565b005b6000828461005a919061012d565b9050836000819055508260018190555050505050565b600080fd5b6000819050919050565b61008881610075565b811461009357600080fd5b50565b6000813590506100a58161007f565b92915050565b6000806000606084860312156100c4576100c3610070565b5b60006100d286828701610096565b93505060206100e386828701610096565b92505060406100f486828701610096565b9150509250925092565b7f4e487b7100000000000000000000000000000000000000000000000000000000600052601160045260246000fd5b600061013882610075565b915061014383610075565b925082820190508082111561015b5761015a6100fe565b5b9291505056fea2646970667358221220eda1d6e7f0c82a3c9b7ea6952bfbd287784a62eacad792950d3965c65675922c64736f6c63430008110033",
			"opcodes": "PUSH1 0x80 PUSH1 0x40 MSTORE CALLVALUE DUP1 ISZERO PUSH2 0x10 JUMPI PUSH1 0x0 DUP1 REVERT JUMPDEST POP PUSH2 0x197 DUP1 PUSH2 0x20 PUSH1 0x0 CODECOPY PUSH1 0x0 RETURN INVALID PUSH1 0x80 PUSH1 0x40 MSTORE CALLVALUE DUP1 ISZERO PUSH2 0x10 JUMPI PUSH1 0x0 DUP1 REVERT JUMPDEST POP PUSH1 0x4 CALLDATASIZE LT PUSH2 0x2B JUMPI PUSH1 0x0 CALLDATALOAD PUSH1 0xE0 SHR DUP1 PUSH4 0x7A0A8FB1 EQ PUSH2 0x30 JUMPI JUMPDEST PUSH1 0x0 DUP1 REVERT JUMPDEST PUSH2 0x4A PUSH1 0x4 DUP1 CALLDATASIZE SUB DUP2 ADD SWAP1 PUSH2 0x45 SWAP2 SWAP1 PUSH2 0xAB JUMP JUMPDEST PUSH2 0x4C JUMP JUMPDEST STOP JUMPDEST PUSH1 0x0 DUP3 DUP5 PUSH2 0x5A SWAP2 SWAP1 PUSH2 0x12D JUMP JUMPDEST SWAP1 POP DUP4 PUSH1 0x0 DUP2 SWAP1 SSTORE POP DUP3 PUSH1 0x1 DUP2 SWAP1 SSTORE POP POP POP POP POP JUMP JUMPDEST PUSH1 0x0 DUP1 REVERT JUMPDEST PUSH1 0x0 DUP2 SWAP1 POP SWAP2 SWAP1 POP JUMP JUMPDEST PUSH2 0x88 DUP2 PUSH2 0x75 JUMP JUMPDEST DUP2 EQ PUSH2 0x93 JUMPI PUSH1 0x0 DUP1 REVERT JUMPDEST POP JUMP JUMPDEST PUSH1 0x0 DUP2 CALLDATALOAD SWAP1 POP PUSH2 0xA5 DUP2 PUSH2 0x7F JUMP JUMPDEST SWAP3 SWAP2 POP POP JUMP JUMPDEST PUSH1 0x0 DUP1 PUSH1 0x0 PUSH1 0x60 DUP5 DUP7 SUB SLT ISZERO PUSH2 0xC4 JUMPI PUSH2 0xC3 PUSH2 0x70 JUMP JUMPDEST JUMPDEST PUSH1 0x0 PUSH2 0xD2 DUP7 DUP3 DUP8 ADD PUSH2 0x96 JUMP JUMPDEST SWAP4 POP POP PUSH1 0x20 PUSH2 0xE3 DUP7 DUP3 DUP8 ADD PUSH2 0x96 JUMP JUMPDEST SWAP3 POP POP PUSH1 0x40 PUSH2 0xF4 DUP7 DUP3 DUP8 ADD PUSH2 0x96 JUMP JUMPDEST SWAP2 POP POP SWAP3 POP SWAP3 POP SWAP3 JUMP JUMPDEST PUSH32 0x4E487B7100000000000000000000000000000000000000000000000000000000 PUSH1 0x0 MSTORE PUSH1 0x11 PUSH1 0x4 MSTORE PUSH1 0x24 PUSH1 0x0 REVERT JUMPDEST PUSH1 0x0 PUSH2 0x138 DUP3 PUSH2 0x75 JUMP JUMPDEST SWAP2 POP PUSH2 0x143 DUP4 PUSH2 0x75 JUMP JUMPDEST SWAP3 POP DUP3 DUP3 ADD SWAP1 POP DUP1 DUP3 GT ISZERO PUSH2 0x15B JUMPI PUSH2 0x15A PUSH2 0xFE JUMP JUMPDEST JUMPDEST SWAP3 SWAP2 POP POP JUMP INVALID LOG2 PUSH5 0x6970667358 0x22 SLT KECCAK256 0xED LOG1 0xD6 0xE7 CREATE 0xC8 0x2A EXTCODECOPY SWAP12 PUSH31 0xA6952BFBD287784A62EACAD792950D3965C65675922C64736F6C6343000811 STOP CALLER "
		},
		"gasEstimates": {
			"creation": {
				"codeDepositCost": "81400",
				"executionCost": "129",
				"totalCost": "81529"
			},
			"external": {
				"calculateSum(uint256,uint256,uint256)": "infinite"
			}
		},
		"methodIdentifiers": {
			"calculateSum(uint256,uint256,uint256)": "7a0a8fb1"
		}
	},
	"abi": [
		{
			"inputs": [
				{
					"internalType": "uint256",
					"name": "v1",
					"type": "uint256"
				},
				{
					"internalType": "uint256",
					"name": "v2",
					"type": "uint256"
				},
				{
					"internalType": "uint256",
					"name": "",
					"type": "uint256"
				}
			],
			"name": "calculateSum",
			"outputs": [],
			"stateMutability": "nonpayable",
			"type": "function"
		}
	]
}