{
	"data": {
		"bytecode": {
			"linkReferences": {},
			"object": "608060405234801561001057600080fd5b506107f9806100206000396000f3fe608060405234801561001057600080fd5b50600436106100415760003560e01c80634132db8f1461004657806351ab0ed014610066578063a0a1a7d714610082575b600080fd5b61004e6100a2565b60405161005d939291906102c3565b60405180910390f35b610080600480360381019061007b9190610476565b61014f565b005b61008a61017a565b604051610099939291906102c3565b60405180910390f35b600060606000806000015460006001016000600201548180546100c490610514565b80601f01602080910402602001604051908101604052809291908181526020018280546100f090610514565b801561013d5780601f106101125761010080835404028352916020019161013d565b820191906000526020600020905b81548152906001019060200180831161012057829003601f168201915b50505050509150925092509250909192565b826000800181905550816000600101908161016a91906106f1565b5080600060020181905550505050565b600080600001549080600101805461019190610514565b80601f01602080910402602001604051908101604052809291908181526020018280546101bd90610514565b801561020a5780601f106101df5761010080835404028352916020019161020a565b820191906000526020600020905b8154815290600101906020018083116101ed57829003601f168201915b5050505050908060020154905083565b6000819050919050565b61022d8161021a565b82525050565b600081519050919050565b600082825260208201905092915050565b60005b8381101561026d578082015181840152602081019050610252565b60008484015250505050565b6000601f19601f8301169050919050565b600061029582610233565b61029f818561023e565b93506102af81856020860161024f565b6102b881610279565b840191505092915050565b60006060820190506102d86000830186610224565b81810360208301526102ea818561028a565b90506102f96040830184610224565b949350505050565b6000604051905090565b600080fd5b600080fd5b61031e8161021a565b811461032957600080fd5b50565b60008135905061033b81610315565b92915050565b600080fd5b600080fd5b7f4e487b7100000000000000000000000000000000000000000000000000000000600052604160045260246000fd5b61038382610279565b810181811067ffffffffffffffff821117156103a2576103a161034b565b5b80604052505050565b60006103b5610301565b90506103c1828261037a565b919050565b600067ffffffffffffffff8211156103e1576103e061034b565b5b6103ea82610279565b9050602081019050919050565b82818337600083830152505050565b6000610419610414846103c6565b6103ab565b90508281526020810184848401111561043557610434610346565b5b6104408482856103f7565b509392505050565b600082601f83011261045d5761045c610341565b5b813561046d848260208601610406565b91505092915050565b60008060006060848603121561048f5761048e61030b565b5b600061049d8682870161032c565b935050602084013567ffffffffffffffff8111156104be576104bd610310565b5b6104ca86828701610448565b92505060406104db8682870161032c565b9150509250925092565b7f4e487b7100000000000000000000000000000000000000000000000000000000600052602260045260246000fd5b6000600282049050600182168061052c57607f821691505b60208210810361053f5761053e6104e5565b5b50919050565b60008190508160005260206000209050919050565b60006020601f8301049050919050565b600082821b905092915050565b6000600883026105a77fffffffffffffffffffffffffffffffffffffffffffffffffffffffffffffffff8261056a565b6105b1868361056a565b95508019841693508086168417925050509392505050565b6000819050919050565b60006105ee6105e96105e48461021a565b6105c9565b61021a565b9050919050565b6000819050919050565b610608836105d3565b61061c610614826105f5565b848454610577565b825550505050565b600090565b610631610624565b61063c8184846105ff565b505050565b5b8181101561066057610655600082610629565b600181019050610642565b5050565b601f8211156106a55761067681610545565b61067f8461055a565b8101602085101561068e578190505b6106a261069a8561055a565b830182610641565b50505b505050565b600082821c905092915050565b60006106c8600019846008026106aa565b1980831691505092915050565b60006106e183836106b7565b9150826002028217905092915050565b6106fa82610233565b67ffffffffffffffff8111156107135761071261034b565b5b61071d8254610514565b610728828285610664565b600060209050601f83116001811461075b5760008415610749578287015190505b61075385826106d5565b8655506107bb565b601f19841661076986610545565b60005b828110156107915784890151825560018201915060208501945060208101905061076c565b868310156107ae57848901516107aa601f8916826106b7565b8355505b6001600288020188555050505b50505050505056fea2646970667358221220212ba8e5efe5fa860fb3a86f2e85e948dc2f44155fb341eb5cee862492e6e50164736f6c63430008110033",
			"opcodes": "PUSH1 0x80 PUSH1 0x40 MSTORE CALLVALUE DUP1 ISZERO PUSH2 0x10 JUMPI PUSH1 0x0 DUP1 REVERT JUMPDEST POP PUSH2 0x7F9 DUP1 PUSH2 0x20 PUSH1 0x0 CODECOPY PUSH1 0x0 RETURN INVALID PUSH1 0x80 PUSH1 0x40 MSTORE CALLVALUE DUP1 ISZERO PUSH2 0x10 JUMPI PUSH1 0x0 DUP1 REVERT JUMPDEST POP PUSH1 0x4 CALLDATASIZE LT PUSH2 0x41 JUMPI PUSH1 0x0 CALLDATALOAD PUSH1 0xE0 SHR DUP1 PUSH4 0x4132DB8F EQ PUSH2 0x46 JUMPI DUP1 PUSH4 0x51AB0ED0 EQ PUSH2 0x66 JUMPI DUP1 PUSH4 0xA0A1A7D7 EQ PUSH2 0x82 JUMPI JUMPDEST PUSH1 0x0 DUP1 REVERT JUMPDEST PUSH2 0x4E PUSH2 0xA2 JUMP JUMPDEST PUSH1 0x40 MLOAD PUSH2 0x5D SWAP4 SWAP3 SWAP2 SWAP1 PUSH2 0x2C3 JUMP JUMPDEST PUSH1 0x40 MLOAD DUP1 SWAP2 SUB SWAP1 RETURN JUMPDEST PUSH2 0x80 PUSH1 0x4 DUP1 CALLDATASIZE SUB DUP2 ADD SWAP1 PUSH2 0x7B SWAP2 SWAP1 PUSH2 0x476 JUMP JUMPDEST PUSH2 0x14F JUMP JUMPDEST STOP JUMPDEST PUSH2 0x8A PUSH2 0x17A JUMP JUMPDEST PUSH1 0x40 MLOAD PUSH2 0x99 SWAP4 SWAP3 SWAP2 SWAP1 PUSH2 0x2C3 JUMP JUMPDEST PUSH1 0x40 MLOAD DUP1 SWAP2 SUB SWAP1 RETURN JUMPDEST PUSH1 0x0 PUSH1 0x60 PUSH1 0x0 DUP1 PUSH1 0x0 ADD SLOAD PUSH1 0x0 PUSH1 0x1 ADD PUSH1 0x0 PUSH1 0x2 ADD SLOAD DUP2 DUP1 SLOAD PUSH2 0xC4 SWAP1 PUSH2 0x514 JUMP JUMPDEST DUP1 PUSH1 0x1F ADD PUSH1 0x20 DUP1 SWAP2 DIV MUL PUSH1 0x20 ADD PUSH1 0x40 MLOAD SWAP1 DUP2 ADD PUSH1 0x40 MSTORE DUP1 SWAP3 SWAP2 SWAP1 DUP2 DUP2 MSTORE PUSH1 0x20 ADD DUP3 DUP1 SLOAD PUSH2 0xF0 SWAP1 PUSH2 0x514 JUMP JUMPDEST DUP1 ISZERO PUSH2 0x13D JUMPI DUP1 PUSH1 0x1F LT PUSH2 0x112 JUMPI PUSH2 0x100 DUP1 DUP4 SLOAD DIV MUL DUP4 MSTORE SWAP2 PUSH1 0x20 ADD SWAP2 PUSH2 0x13D JUMP JUMPDEST DUP3 ADD SWAP2 SWAP1 PUSH1 0x0 MSTORE PUSH1 0x20 PUSH1 0x0 KECCAK256 SWAP1 JUMPDEST DUP2 SLOAD DUP2 MSTORE SWAP1 PUSH1 0x1 ADD SWAP1 PUSH1 0x20 ADD DUP1 DUP4 GT PUSH2 0x120 JUMPI DUP3 SWAP1 SUB PUSH1 0x1F AND DUP3 ADD SWAP2 JUMPDEST POP POP POP POP POP SWAP2 POP SWAP3 POP SWAP3 POP SWAP3 POP SWAP1 SWAP2 SWAP3 JUMP JUMPDEST DUP3 PUSH1 0x0 DUP1 ADD DUP2 SWAP1 SSTORE POP DUP2 PUSH1 0x0 PUSH1 0x1 ADD SWAP1 DUP2 PUSH2 0x16A SWAP2 SWAP1 PUSH2 0x6F1 JUMP JUMPDEST POP DUP1 PUSH1 0x0 PUSH1 0x2 ADD DUP2 SWAP1 SSTORE POP POP POP POP JUMP JUMPDEST PUSH1 0x0 DUP1 PUSH1 0x0 ADD SLOAD SWAP1 DUP1 PUSH1 0x1 ADD DUP1 SLOAD PUSH2 0x191 SWAP1 PUSH2 0x514 JUMP JUMPDEST DUP1 PUSH1 0x1F ADD PUSH1 0x20 DUP1 SWAP2 DIV MUL PUSH1 0x20 ADD PUSH1 0x40 MLOAD SWAP1 DUP2 ADD PUSH1 0x40 MSTORE DUP1 SWAP3 SWAP2 SWAP1 DUP2 DUP2 MSTORE PUSH1 0x20 ADD DUP3 DUP1 SLOAD PUSH2 0x1BD SWAP1 PUSH2 0x514 JUMP JUMPDEST DUP1 ISZERO PUSH2 0x20A JUMPI DUP1 PUSH1 0x1F LT PUSH2 0x1DF JUMPI PUSH2 0x100 DUP1 DUP4 SLOAD DIV MUL DUP4 MSTORE SWAP2 PUSH1 0x20 ADD SWAP2 PUSH2 0x20A JUMP JUMPDEST DUP3 ADD SWAP2 SWAP1 PUSH1 0x0 MSTORE PUSH1 0x20 PUSH1 0x0 KECCAK256 SWAP1 JUMPDEST DUP2 SLOAD DUP2 MSTORE SWAP1 PUSH1 0x1 ADD SWAP1 PUSH1 0x20 ADD DUP1 DUP4 GT PUSH2 0x1ED JUMPI DUP3 SWAP1 SUB PUSH1 0x1F AND DUP3 ADD SWAP2 JUMPDEST POP POP POP POP POP SWAP1 DUP1 PUSH1 0x2 ADD SLOAD SWAP1 POP DUP4 JUMP JUMPDEST PUSH1 0x0 DUP2 SWAP1 POP SWAP2 SWAP1 POP JUMP JUMPDEST PUSH2 0x22D DUP2 PUSH2 0x21A JUMP JUMPDEST DUP3 MSTORE POP POP JUMP JUMPDEST PUSH1 0x0 DUP2 MLOAD SWAP1 POP SWAP2 SWAP1 POP JUMP JUMPDEST PUSH1 0x0 DUP3 DUP3 MSTORE PUSH1 0x20 DUP3 ADD SWAP1 POP SWAP3 SWAP2 POP POP JUMP JUMPDEST PUSH1 0x0 JUMPDEST DUP4 DUP2 LT ISZERO PUSH2 0x26D JUMPI DUP1 DUP3 ADD MLOAD DUP2 DUP5 ADD MSTORE PUSH1 0x20 DUP2 ADD SWAP1 POP PUSH2 0x252 JUMP JUMPDEST PUSH1 0x0 DUP5 DUP5 ADD MSTORE POP POP POP POP JUMP JUMPDEST PUSH1 0x0 PUSH1 0x1F NOT PUSH1 0x1F DUP4 ADD AND SWAP1 POP SWAP2 SWAP1 POP JUMP JUMPDEST PUSH1 0x0 PUSH2 0x295 DUP3 PUSH2 0x233 JUMP JUMPDEST PUSH2 0x29F DUP2 DUP6 PUSH2 0x23E JUMP JUMPDEST SWAP4 POP PUSH2 0x2AF DUP2 DUP6 PUSH1 0x20 DUP7 ADD PUSH2 0x24F JUMP JUMPDEST PUSH2 0x2B8 DUP2 PUSH2 0x279 JUMP JUMPDEST DUP5 ADD SWAP2 POP POP SWAP3 SWAP2 POP POP JUMP JUMPDEST PUSH1 0x0 PUSH1 0x60 DUP3 ADD SWAP1 POP PUSH2 0x2D8 PUSH1 0x0 DUP4 ADD DUP7 PUSH2 0x224 JUMP JUMPDEST DUP2 DUP2 SUB PUSH1 0x20 DUP4 ADD MSTORE PUSH2 0x2EA DUP2 DUP6 PUSH2 0x28A JUMP JUMPDEST SWAP1 POP PUSH2 0x2F9 PUSH1 0x40 DUP4 ADD DUP5 PUSH2 0x224 JUMP JUMPDEST SWAP5 SWAP4 POP POP POP POP JUMP JUMPDEST PUSH1 0x0 PUSH1 0x40 MLOAD SWAP1 POP SWAP1 JUMP JUMPDEST PUSH1 0x0 DUP1 REVERT JUMPDEST PUSH1 0x0 DUP1 REVERT JUMPDEST PUSH2 0x31E DUP2 PUSH2 0x21A JUMP JUMPDEST DUP2 EQ PUSH2 0x329 JUMPI PUSH1 0x0 DUP1 REVERT JUMPDEST POP JUMP JUMPDEST PUSH1 0x0 DUP2 CALLDATALOAD SWAP1 POP PUSH2 0x33B DUP2 PUSH2 0x315 JUMP JUMPDEST SWAP3 SWAP2 POP POP JUMP JUMPDEST PUSH1 0x0 DUP1 REVERT JUMPDEST PUSH1 0x0 DUP1 REVERT JUMPDEST PUSH32 0x4E487B7100000000000000000000000000000000000000000000000000000000 PUSH1 0x0 MSTORE PUSH1 0x41 PUSH1 0x4 MSTORE PUSH1 0x24 PUSH1 0x0 REVERT JUMPDEST PUSH2 0x383 DUP3 PUSH2 0x279 JUMP JUMPDEST DUP2 ADD DUP2 DUP2 LT PUSH8 0xFFFFFFFFFFFFFFFF DUP3 GT OR ISZERO PUSH2 0x3A2 JUMPI PUSH2 0x3A1 PUSH2 0x34B JUMP JUMPDEST JUMPDEST DUP1 PUSH1 0x40 MSTORE POP POP POP JUMP JUMPDEST PUSH1 0x0 PUSH2 0x3B5 PUSH2 0x301 JUMP JUMPDEST SWAP1 POP PUSH2 0x3C1 DUP3 DUP3 PUSH2 0x37A JUMP JUMPDEST SWAP2 SWAP1 POP JUMP JUMPDEST PUSH1 0x0 PUSH8 0xFFFFFFFFFFFFFFFF DUP3 GT ISZERO PUSH2 0x3E1 JUMPI PUSH2 0x3E0 PUSH2 0x34B JUMP JUMPDEST JUMPDEST PUSH2 0x3EA DUP3 PUSH2 0x279 JUMP JUMPDEST SWAP1 POP PUSH1 0x20 DUP2 ADD SWAP1 POP SWAP2 SWAP1 POP JUMP JUMPDEST DUP3 DUP2 DUP4 CALLDATACOPY PUSH1 0x0 DUP4 DUP4 ADD MSTORE POP POP POP JUMP JUMPDEST PUSH1 0x0 PUSH2 0x419 PUSH2 0x414 DUP5 PUSH2 0x3C6 JUMP JUMPDEST PUSH2 0x3AB JUMP JUMPDEST SWAP1 POP DUP3 DUP2 MSTORE PUSH1 0x20 DUP2 ADD DUP5 DUP5 DUP5 ADD GT ISZERO PUSH2 0x435 JUMPI PUSH2 0x434 PUSH2 0x346 JUMP JUMPDEST JUMPDEST PUSH2 0x440 DUP5 DUP3 DUP6 PUSH2 0x3F7 JUMP JUMPDEST POP SWAP4 SWAP3 POP POP POP JUMP JUMPDEST PUSH1 0x0 DUP3 PUSH1 0x1F DUP4 ADD SLT PUSH2 0x45D JUMPI PUSH2 0x45C PUSH2 0x341 JUMP JUMPDEST JUMPDEST DUP2 CALLDATALOAD PUSH2 0x46D DUP5 DUP3 PUSH1 0x20 DUP7 ADD PUSH2 0x406 JUMP JUMPDEST SWAP2 POP POP SWAP3 SWAP2 POP POP JUMP JUMPDEST PUSH1 0x0 DUP1 PUSH1 0x0 PUSH1 0x60 DUP5 DUP7 SUB SLT ISZERO PUSH2 0x48F JUMPI PUSH2 0x48E PUSH2 0x30B JUMP JUMPDEST JUMPDEST PUSH1 0x0 PUSH2 0x49D DUP7 DUP3 DUP8 ADD PUSH2 0x32C JUMP JUMPDEST SWAP4 POP POP PUSH1 0x20 DUP5 ADD CALLDATALOAD PUSH8 0xFFFFFFFFFFFFFFFF DUP2 GT ISZERO PUSH2 0x4BE JUMPI PUSH2 0x4BD PUSH2 0x310 JUMP JUMPDEST JUMPDEST PUSH2 0x4CA DUP7 DUP3 DUP8 ADD PUSH2 0x448 JUMP JUMPDEST SWAP3 POP POP PUSH1 0x40 PUSH2 0x4DB DUP7 DUP3 DUP8 ADD PUSH2 0x32C JUMP JUMPDEST SWAP2 POP POP SWAP3 POP SWAP3 POP SWAP3 JUMP JUMPDEST PUSH32 0x4E487B7100000000000000000000000000000000000000000000000000000000 PUSH1 0x0 MSTORE PUSH1 0x22 PUSH1 0x4 MSTORE PUSH1 0x24 PUSH1 0x0 REVERT JUMPDEST PUSH1 0x0 PUSH1 0x2 DUP3 DIV SWAP1 POP PUSH1 0x1 DUP3 AND DUP1 PUSH2 0x52C JUMPI PUSH1 0x7F DUP3 AND SWAP2 POP JUMPDEST PUSH1 0x20 DUP3 LT DUP2 SUB PUSH2 0x53F JUMPI PUSH2 0x53E PUSH2 0x4E5 JUMP JUMPDEST JUMPDEST POP SWAP2 SWAP1 POP JUMP JUMPDEST PUSH1 0x0 DUP2 SWAP1 POP DUP2 PUSH1 0x0 MSTORE PUSH1 0x20 PUSH1 0x0 KECCAK256 SWAP1 POP SWAP2 SWAP1 POP JUMP JUMPDEST PUSH1 0x0 PUSH1 0x20 PUSH1 0x1F DUP4 ADD DIV SWAP1 POP SWAP2 SWAP1 POP JUMP JUMPDEST PUSH1 0x0 DUP3 DUP3 SHL SWAP1 POP SWAP3 SWAP2 POP POP JUMP JUMPDEST PUSH1 0x0 PUSH1 0x8 DUP4 MUL PUSH2 0x5A7 PUSH32 0xFFFFFFFFFFFFFFFFFFFFFFFFFFFFFFFFFFFFFFFFFFFFFFFFFFFFFFFFFFFFFFFF DUP3 PUSH2 0x56A JUMP JUMPDEST PUSH2 0x5B1 DUP7 DUP4 PUSH2 0x56A JUMP JUMPDEST SWAP6 POP DUP1 NOT DUP5 AND SWAP4 POP DUP1 DUP7 AND DUP5 OR SWAP3 POP POP POP SWAP4 SWAP3 POP POP POP JUMP JUMPDEST PUSH1 0x0 DUP2 SWAP1 POP SWAP2 SWAP1 POP JUMP JUMPDEST PUSH1 0x0 PUSH2 0x5EE PUSH2 0x5E9 PUSH2 0x5E4 DUP5 PUSH2 0x21A JUMP JUMPDEST PUSH2 0x5C9 JUMP JUMPDEST PUSH2 0x21A JUMP JUMPDEST SWAP1 POP SWAP2 SWAP1 POP JUMP JUMPDEST PUSH1 0x0 DUP2 SWAP1 POP SWAP2 SWAP1 POP JUMP JUMPDEST PUSH2 0x608 DUP4 PUSH2 0x5D3 JUMP JUMPDEST PUSH2 0x61C PUSH2 0x614 DUP3 PUSH2 0x5F5 JUMP JUMPDEST DUP5 DUP5 SLOAD PUSH2 0x577 JUMP JUMPDEST DUP3 SSTORE POP POP POP POP JUMP JUMPDEST PUSH1 0x0 SWAP1 JUMP JUMPDEST PUSH2 0x631 PUSH2 0x624 JUMP JUMPDEST PUSH2 0x63C DUP2 DUP5 DUP5 PUSH2 0x5FF JUMP JUMPDEST POP POP POP JUMP JUMPDEST JUMPDEST DUP2 DUP2 LT ISZERO PUSH2 0x660 JUMPI PUSH2 0x655 PUSH1 0x0 DUP3 PUSH2 0x629 JUMP JUMPDEST PUSH1 0x1 DUP2 ADD SWAP1 POP PUSH2 0x642 JUMP JUMPDEST POP POP JUMP JUMPDEST PUSH1 0x1F DUP3 GT ISZERO PUSH2 0x6A5 JUMPI PUSH2 0x676 DUP2 PUSH2 0x545 JUMP JUMPDEST PUSH2 0x67F DUP5 PUSH2 0x55A JUMP JUMPDEST DUP2 ADD PUSH1 0x20 DUP6 LT ISZERO PUSH2 0x68E JUMPI DUP2 SWAP1 POP JUMPDEST PUSH2 0x6A2 PUSH2 0x69A DUP6 PUSH2 0x55A JUMP JUMPDEST DUP4 ADD DUP3 PUSH2 0x641 JUMP JUMPDEST POP POP JUMPDEST POP POP POP JUMP JUMPDEST PUSH1 0x0 DUP3 DUP3 SHR SWAP1 POP SWAP3 SWAP2 POP POP JUMP JUMPDEST PUSH1 0x0 PUSH2 0x6C8 PUSH1 0x0 NOT DUP5 PUSH1 0x8 MUL PUSH2 0x6AA JUMP JUMPDEST NOT DUP1 DUP4 AND SWAP2 POP POP SWAP3 SWAP2 POP POP JUMP JUMPDEST PUSH1 0x0 PUSH2 0x6E1 DUP4 DUP4 PUSH2 0x6B7 JUMP JUMPDEST SWAP2 POP DUP3 PUSH1 0x2 MUL DUP3 OR SWAP1 POP SWAP3 SWAP2 POP POP JUMP JUMPDEST PUSH2 0x6FA DUP3 PUSH2 0x233 JUMP JUMPDEST PUSH8 0xFFFFFFFFFFFFFFFF DUP2 GT ISZERO PUSH2 0x713 JUMPI PUSH2 0x712 PUSH2 0x34B JUMP JUMPDEST JUMPDEST PUSH2 0x71D DUP3 SLOAD PUSH2 0x514 JUMP JUMPDEST PUSH2 0x728 DUP3 DUP3 DUP6 PUSH2 0x664 JUMP JUMPDEST PUSH1 0x0 PUSH1 0x20 SWAP1 POP PUSH1 0x1F DUP4 GT PUSH1 0x1 DUP2 EQ PUSH2 0x75B JUMPI PUSH1 0x0 DUP5 ISZERO PUSH2 0x749 JUMPI DUP3 DUP8 ADD MLOAD SWAP1 POP JUMPDEST PUSH2 0x753 DUP6 DUP3 PUSH2 0x6D5 JUMP JUMPDEST DUP7 SSTORE POP PUSH2 0x7BB JUMP JUMPDEST PUSH1 0x1F NOT DUP5 AND PUSH2 0x769 DUP7 PUSH2 0x545 JUMP JUMPDEST PUSH1 0x0 JUMPDEST DUP3 DUP2 LT ISZERO PUSH2 0x791 JUMPI DUP5 DUP10 ADD MLOAD DUP3 SSTORE PUSH1 0x1 DUP3 ADD SWAP2 POP PUSH1 0x20 DUP6 ADD SWAP5 POP PUSH1 0x20 DUP2 ADD SWAP1 POP PUSH2 0x76C JUMP JUMPDEST DUP7 DUP4 LT ISZERO PUSH2 0x7AE JUMPI DUP5 DUP10 ADD MLOAD PUSH2 0x7AA PUSH1 0x1F DUP10 AND DUP3 PUSH2 0x6B7 JUMP JUMPDEST DUP4 SSTORE POP JUMPDEST PUSH1 0x1 PUSH1 0x2 DUP9 MUL ADD DUP9 SSTORE POP POP POP JUMPDEST POP POP POP POP POP POP JUMP INVALID LOG2 PUSH5 0x6970667358 0x22 SLT KECCAK256 0x21 0x2B 0xA8 0xE5 0xEF 0xE5 STATICCALL DUP7 0xF 0xB3 0xA8 PUSH16 0x2E85E948DC2F44155FB341EB5CEE8624 SWAP3 0xE6 0xE5 ADD PUSH5 0x736F6C6343 STOP ADDMOD GT STOP CALLER "
		},
		"gasEstimates": {
			"creation": {
				"codeDepositCost": "408200",
				"executionCost": "443",
				"totalCost": "408643"
			},
			"external": {
				"employee()": "infinite",
				"getEmployee()": "infinite",
				"setEmployee(uint256,string,uint256)": "infinite"
			}
		},
		"methodIdentifiers": {
			"employee()": "a0a1a7d7",
			"getEmployee()": "4132db8f",
			"setEmployee(uint256,string,uint256)": "51ab0ed0"
		}
	},
	"abi": [
		{
			"inputs": [],
			"name": "employee",
			"outputs": [
				{
					"internalType": "uint256",
					"name": "id",
					"type": "uint256"
				},
				{
					"internalType": "string",
					"name": "name",
					"type": "string"
				},
				{
					"internalType": "uint256",
					"name": "salary",
					"type": "uint256"
				}
			],
			"stateMutability": "view",
			"type": "function"
		},
		{
			"inputs": [],
			"name": "getEmployee",
			"outputs": [
				{
					"internalType": "uint256",
					"name": "",
					"type": "uint256"
				},
				{
					"internalType": "string",
					"name": "",
					"type": "string"
				},
				{
					"internalType": "uint256",
					"name": "",
					"type": "uint256"
				}
			],
			"stateMutability": "view",
			"type": "function"
		},
		{
			"inputs": [
				{
					"internalType": "uint256",
					"name": "_id",
					"type": "uint256"
				},
				{
					"internalType": "string",
					"name": "_name",
					"type": "string"
				},
				{
					"internalType": "uint256",
					"name": "_salary",
					"type": "uint256"
				}
			],
			"name": "setEmployee",
			"outputs": [],
			"stateMutability": "nonpayable",
			"type": "function"
		}
	]
}